{
	"Patient.sol": {
		"Patient": {
			"abi": [
				{
					"inputs": [],
					"name": "getAllPatients",
					"outputs": [
						{
							"components": [
								{
									"internalType": "uint256",
									"name": "id",
									"type": "uint256"
								},
								{
									"internalType": "string",
									"name": "name",
									"type": "string"
								},
								{
									"internalType": "uint256",
									"name": "age",
									"type": "uint256"
								},
								{
									"internalType": "address",
									"name": "publicAddress",
									"type": "address"
								},
								{
									"internalType": "string[]",
									"name": "diseases",
									"type": "string[]"
								},
								{
									"internalType": "string[]",
									"name": "medicines",
									"type": "string[]"
								},
								{
									"internalType": "string[]",
									"name": "allowedDoctors",
									"type": "string[]"
								}
							],
							"internalType": "struct Patient.PatientDetails[]",
							"name": "",
							"type": "tuple[]"
						}
					],
					"stateMutability": "view",
					"type": "function"
				},
				{
					"inputs": [
						{
							"internalType": "uint256",
							"name": "",
							"type": "uint256"
						}
					],
					"name": "patientAddress",
					"outputs": [
						{
							"internalType": "address",
							"name": "",
							"type": "address"
						}
					],
					"stateMutability": "view",
					"type": "function"
				},
				{
					"inputs": [],
					"name": "patientCount",
					"outputs": [
						{
							"internalType": "uint256",
							"name": "",
							"type": "uint256"
						}
					],
					"stateMutability": "view",
					"type": "function"
				},
				{
					"inputs": [],
					"name": "patientNotExists",
					"outputs": [
						{
							"internalType": "bool",
							"name": "",
							"type": "bool"
						}
					],
					"stateMutability": "view",
					"type": "function"
				},
				{
					"inputs": [
						{
							"internalType": "address",
							"name": "",
							"type": "address"
						}
					],
					"name": "patients",
					"outputs": [
						{
							"internalType": "uint256",
							"name": "id",
							"type": "uint256"
						},
						{
							"internalType": "string",
							"name": "name",
							"type": "string"
						},
						{
							"internalType": "uint256",
							"name": "age",
							"type": "uint256"
						},
						{
							"internalType": "address",
							"name": "publicAddress",
							"type": "address"
						}
					],
					"stateMutability": "view",
					"type": "function"
				},
				{
					"inputs": [
						{
							"internalType": "string",
							"name": "_name",
							"type": "string"
						},
						{
							"internalType": "uint256",
							"name": "_age",
							"type": "uint256"
						}
					],
					"name": "registerPatient",
					"outputs": [],
					"stateMutability": "nonpayable",
					"type": "function"
				}
			],
			"devdoc": {
				"kind": "dev",
				"methods": {},
				"version": 1
			},
			"evm": {
				"assembly": "    /* \"Patient.sol\":26:1541  contract Patient {... */\n  mstore(0x40, 0x80)\n  callvalue\n  dup1\n  iszero\n  tag_1\n  jumpi\n  0x00\n  dup1\n  revert\ntag_1:\n  pop\n  dataSize(sub_0)\n  dup1\n  dataOffset(sub_0)\n  0x00\n  codecopy\n  0x00\n  return\nstop\n\nsub_0: assembly {\n        /* \"Patient.sol\":26:1541  contract Patient {... */\n      mstore(0x40, 0x80)\n      callvalue\n      dup1\n      iszero\n      tag_1\n      jumpi\n      0x00\n      dup1\n      revert\n    tag_1:\n      pop\n      jumpi(tag_2, lt(calldatasize, 0x04))\n      shr(0xe0, calldataload(0x00))\n      dup1\n      0x05aeeea7\n      eq\n      tag_3\n      jumpi\n      dup1\n      0x0869cfbc\n      eq\n      tag_4\n      jumpi\n      dup1\n      0x18a231a9\n      eq\n      tag_5\n      jumpi\n      dup1\n      0x2de304ed\n      eq\n      tag_6\n      jumpi\n      dup1\n      0x33c5d641\n      eq\n      tag_7\n      jumpi\n      dup1\n      0xa0303c41\n      eq\n      tag_8\n      jumpi\n    tag_2:\n      0x00\n      dup1\n      revert\n        /* \"Patient.sol\":345:376  address[] public patientAddress */\n    tag_3:\n      tag_9\n      0x04\n      dup1\n      calldatasize\n      sub\n      dup2\n      add\n      swap1\n      tag_10\n      swap2\n      swap1\n      tag_11\n      jump\t// in\n    tag_10:\n      tag_12\n      jump\t// in\n    tag_9:\n      mload(0x40)\n      tag_13\n      swap2\n      swap1\n      tag_14\n      jump\t// in\n    tag_13:\n      mload(0x40)\n      dup1\n      swap2\n      sub\n      swap1\n      return\n        /* \"Patient.sol\":259:309  mapping(address => PatientDetails) public patients */\n    tag_4:\n      tag_15\n      0x04\n      dup1\n      calldatasize\n      sub\n      dup2\n      add\n      swap1\n      tag_16\n      swap2\n      swap1\n      tag_17\n      jump\t// in\n    tag_16:\n      tag_18\n      jump\t// in\n    tag_15:\n      mload(0x40)\n      tag_19\n      swap5\n      swap4\n      swap3\n      swap2\n      swap1\n      tag_20\n      jump\t// in\n    tag_19:\n      mload(0x40)\n      dup1\n      swap2\n      sub\n      swap1\n      return\n        /* \"Patient.sol\":1247:1539  function getAllPatients() public view returns (PatientDetails[] memory) {... */\n    tag_5:\n      tag_21\n      tag_22\n      jump\t// in\n    tag_21:\n      mload(0x40)\n      tag_23\n      swap2\n      swap1\n      tag_24\n      jump\t// in\n    tag_23:\n      mload(0x40)\n      dup1\n      swap2\n      sub\n      swap1\n      return\n        /* \"Patient.sol\":621:1241  function registerPatient(string memory _name, uint _age) public {... */\n    tag_6:\n      tag_25\n      0x04\n      dup1\n      calldatasize\n      sub\n      dup2\n      add\n      swap1\n      tag_26\n      swap2\n      swap1\n      tag_27\n      jump\t// in\n    tag_26:\n      tag_28\n      jump\t// in\n    tag_25:\n      stop\n        /* \"Patient.sol\":383:615  function patientNotExists() public view returns (bool) {... */\n    tag_7:\n      tag_29\n      tag_30\n      jump\t// in\n    tag_29:\n      mload(0x40)\n      tag_31\n      swap2\n      swap1\n      tag_32\n      jump\t// in\n    tag_31:\n      mload(0x40)\n      dup1\n      swap2\n      sub\n      swap1\n      return\n        /* \"Patient.sol\":315:339  uint public patientCount */\n    tag_8:\n      tag_33\n      tag_34\n      jump\t// in\n    tag_33:\n      mload(0x40)\n      tag_35\n      swap2\n      swap1\n      tag_36\n      jump\t// in\n    tag_35:\n      mload(0x40)\n      dup1\n      swap2\n      sub\n      swap1\n      return\n        /* \"Patient.sol\":345:376  address[] public patientAddress */\n    tag_12:\n      0x02\n      dup2\n      dup2\n      sload\n      dup2\n      lt\n      tag_37\n      jumpi\n      0x00\n      dup1\n      revert\n    tag_37:\n      swap1\n      0x00\n      mstore\n      keccak256(0x00, 0x20)\n      add\n      0x00\n      swap2\n      pop\n      sload\n      swap1\n      0x0100\n      exp\n      swap1\n      div\n      0xffffffffffffffffffffffffffffffffffffffff\n      and\n      dup2\n      jump\t// out\n        /* \"Patient.sol\":259:309  mapping(address => PatientDetails) public patients */\n    tag_18:\n      mstore(0x20, 0x00)\n      dup1\n      0x00\n      mstore\n      keccak256(0x00, 0x40)\n      0x00\n      swap2\n      pop\n      swap1\n      pop\n      dup1\n      0x00\n      add\n      sload\n      swap1\n      dup1\n      0x01\n      add\n      dup1\n      sload\n      tag_39\n      swap1\n      tag_40\n      jump\t// in\n    tag_39:\n      dup1\n      0x1f\n      add\n      0x20\n      dup1\n      swap2\n      div\n      mul\n      0x20\n      add\n      mload(0x40)\n      swap1\n      dup2\n      add\n      0x40\n      mstore\n      dup1\n      swap3\n      swap2\n      swap1\n      dup2\n      dup2\n      mstore\n      0x20\n      add\n      dup3\n      dup1\n      sload\n      tag_41\n      swap1\n      tag_40\n      jump\t// in\n    tag_41:\n      dup1\n      iszero\n      tag_42\n      jumpi\n      dup1\n      0x1f\n      lt\n      tag_43\n      jumpi\n      0x0100\n      dup1\n      dup4\n      sload\n      div\n      mul\n      dup4\n      mstore\n      swap2\n      0x20\n      add\n      swap2\n      jump(tag_42)\n    tag_43:\n      dup3\n      add\n      swap2\n      swap1\n      0x00\n      mstore\n      keccak256(0x00, 0x20)\n      swap1\n    tag_44:\n      dup2\n      sload\n      dup2\n      mstore\n      swap1\n      0x01\n      add\n      swap1\n      0x20\n      add\n      dup1\n      dup4\n      gt\n      tag_44\n      jumpi\n      dup3\n      swap1\n      sub\n      0x1f\n      and\n      dup3\n      add\n      swap2\n    tag_42:\n      pop\n      pop\n      pop\n      pop\n      pop\n      swap1\n      dup1\n      0x02\n      add\n      sload\n      swap1\n      dup1\n      0x03\n      add\n      0x00\n      swap1\n      sload\n      swap1\n      0x0100\n      exp\n      swap1\n      div\n      0xffffffffffffffffffffffffffffffffffffffff\n      and\n      swap1\n      pop\n      dup5\n      jump\t// out\n        /* \"Patient.sol\":1247:1539  function getAllPatients() public view returns (PatientDetails[] memory) {... */\n    tag_22:\n        /* \"Patient.sol\":1294:1317  PatientDetails[] memory */\n      0x60\n        /* \"Patient.sol\":1329:1359  PatientDetails[] memory result */\n      0x00\n        /* \"Patient.sol\":1383:1395  patientCount */\n      sload(0x01)\n        /* \"Patient.sol\":1362:1396  new PatientDetails[](patientCount) */\n      0xffffffffffffffff\n      dup2\n      gt\n      iszero\n      tag_46\n      jumpi\n      tag_47\n      tag_48\n      jump\t// in\n    tag_47:\n    tag_46:\n      mload(0x40)\n      swap1\n      dup1\n      dup3\n      mstore\n      dup1\n      0x20\n      mul\n      0x20\n      add\n      dup3\n      add\n      0x40\n      mstore\n      dup1\n      iszero\n      tag_49\n      jumpi\n      dup2\n      0x20\n      add\n    tag_50:\n      tag_51\n      tag_52\n      jump\t// in\n    tag_51:\n      dup2\n      mstore\n      0x20\n      add\n      swap1\n      0x01\n      swap1\n      sub\n      swap1\n      dup2\n      tag_50\n      jumpi\n      swap1\n      pop\n    tag_49:\n      pop\n        /* \"Patient.sol\":1329:1396  PatientDetails[] memory result = new PatientDetails[](patientCount) */\n      swap1\n      pop\n        /* \"Patient.sol\":1411:1417  uint i */\n      0x00\n        /* \"Patient.sol\":1406:1510  for (uint i = 0; i < patientCount; i++) {... */\n    tag_53:\n        /* \"Patient.sol\":1427:1439  patientCount */\n      sload(0x01)\n        /* \"Patient.sol\":1423:1424  i */\n      dup2\n        /* \"Patient.sol\":1423:1439  i < patientCount */\n      lt\n        /* \"Patient.sol\":1406:1510  for (uint i = 0; i < patientCount; i++) {... */\n      iszero\n      tag_54\n      jumpi\n        /* \"Patient.sol\":1472:1480  patients */\n      0x00\n        /* \"Patient.sol\":1472:1499  patients[patientAddress[i]] */\n      dup1\n        /* \"Patient.sol\":1481:1495  patientAddress */\n      0x02\n        /* \"Patient.sol\":1496:1497  i */\n      dup4\n        /* \"Patient.sol\":1481:1498  patientAddress[i] */\n      dup2\n      sload\n      dup2\n      lt\n      tag_56\n      jumpi\n      tag_57\n      tag_58\n      jump\t// in\n    tag_57:\n    tag_56:\n      swap1\n      0x00\n      mstore\n      keccak256(0x00, 0x20)\n      add\n      0x00\n      swap1\n      sload\n      swap1\n      0x0100\n      exp\n      swap1\n      div\n      0xffffffffffffffffffffffffffffffffffffffff\n      and\n        /* \"Patient.sol\":1472:1499  patients[patientAddress[i]] */\n      0xffffffffffffffffffffffffffffffffffffffff\n      and\n      0xffffffffffffffffffffffffffffffffffffffff\n      and\n      dup2\n      mstore\n      0x20\n      add\n      swap1\n      dup2\n      mstore\n      0x20\n      add\n      0x00\n      keccak256\n        /* \"Patient.sol\":1460:1499  result[i] = patients[patientAddress[i]] */\n      mload(0x40)\n      dup1\n      0xe0\n      add\n      0x40\n      mstore\n      swap1\n      dup2\n      0x00\n      dup3\n      add\n      sload\n      dup2\n      mstore\n      0x20\n      add\n      0x01\n      dup3\n      add\n      dup1\n      sload\n      tag_60\n      swap1\n      tag_40\n      jump\t// in\n    tag_60:\n      dup1\n      0x1f\n      add\n      0x20\n      dup1\n      swap2\n      div\n      mul\n      0x20\n      add\n      mload(0x40)\n      swap1\n      dup2\n      add\n      0x40\n      mstore\n      dup1\n      swap3\n      swap2\n      swap1\n      dup2\n      dup2\n      mstore\n      0x20\n      add\n      dup3\n      dup1\n      sload\n      tag_61\n      swap1\n      tag_40\n      jump\t// in\n    tag_61:\n      dup1\n      iszero\n      tag_62\n      jumpi\n      dup1\n      0x1f\n      lt\n      tag_63\n      jumpi\n      0x0100\n      dup1\n      dup4\n      sload\n      div\n      mul\n      dup4\n      mstore\n      swap2\n      0x20\n      add\n      swap2\n      jump(tag_62)\n    tag_63:\n      dup3\n      add\n      swap2\n      swap1\n      0x00\n      mstore\n      keccak256(0x00, 0x20)\n      swap1\n    tag_64:\n      dup2\n      sload\n      dup2\n      mstore\n      swap1\n      0x01\n      add\n      swap1\n      0x20\n      add\n      dup1\n      dup4\n      gt\n      tag_64\n      jumpi\n      dup3\n      swap1\n      sub\n      0x1f\n      and\n      dup3\n      add\n      swap2\n    tag_62:\n      pop\n      pop\n      pop\n      pop\n      pop\n      dup2\n      mstore\n      0x20\n      add\n      0x02\n      dup3\n      add\n      sload\n      dup2\n      mstore\n      0x20\n      add\n      0x03\n      dup3\n      add\n      0x00\n      swap1\n      sload\n      swap1\n      0x0100\n      exp\n      swap1\n      div\n      0xffffffffffffffffffffffffffffffffffffffff\n      and\n      0xffffffffffffffffffffffffffffffffffffffff\n      and\n      0xffffffffffffffffffffffffffffffffffffffff\n      and\n      dup2\n      mstore\n      0x20\n      add\n      0x04\n      dup3\n      add\n      dup1\n      sload\n      dup1\n      0x20\n      mul\n      0x20\n      add\n      mload(0x40)\n      swap1\n      dup2\n      add\n      0x40\n      mstore\n      dup1\n      swap3\n      swap2\n      swap1\n      dup2\n      dup2\n      mstore\n      0x20\n      add\n      0x00\n      swap1\n    tag_65:\n      dup3\n      dup3\n      lt\n      iszero\n      tag_66\n      jumpi\n      dup4\n      dup3\n      swap1\n      0x00\n      mstore\n      keccak256(0x00, 0x20)\n      add\n      dup1\n      sload\n      tag_68\n      swap1\n      tag_40\n      jump\t// in\n    tag_68:\n      dup1\n      0x1f\n      add\n      0x20\n      dup1\n      swap2\n      div\n      mul\n      0x20\n      add\n      mload(0x40)\n      swap1\n      dup2\n      add\n      0x40\n      mstore\n      dup1\n      swap3\n      swap2\n      swap1\n      dup2\n      dup2\n      mstore\n      0x20\n      add\n      dup3\n      dup1\n      sload\n      tag_69\n      swap1\n      tag_40\n      jump\t// in\n    tag_69:\n      dup1\n      iszero\n      tag_70\n      jumpi\n      dup1\n      0x1f\n      lt\n      tag_71\n      jumpi\n      0x0100\n      dup1\n      dup4\n      sload\n      div\n      mul\n      dup4\n      mstore\n      swap2\n      0x20\n      add\n      swap2\n      jump(tag_70)\n    tag_71:\n      dup3\n      add\n      swap2\n      swap1\n      0x00\n      mstore\n      keccak256(0x00, 0x20)\n      swap1\n    tag_72:\n      dup2\n      sload\n      dup2\n      mstore\n      swap1\n      0x01\n      add\n      swap1\n      0x20\n      add\n      dup1\n      dup4\n      gt\n      tag_72\n      jumpi\n      dup3\n      swap1\n      sub\n      0x1f\n      and\n      dup3\n      add\n      swap2\n    tag_70:\n      pop\n      pop\n      pop\n      pop\n      pop\n      dup2\n      mstore\n      0x20\n      add\n      swap1\n      0x01\n      add\n      swap1\n      jump(tag_65)\n    tag_66:\n      pop\n      pop\n      pop\n      pop\n      dup2\n      mstore\n      0x20\n      add\n      0x05\n      dup3\n      add\n      dup1\n      sload\n      dup1\n      0x20\n      mul\n      0x20\n      add\n      mload(0x40)\n      swap1\n      dup2\n      add\n      0x40\n      mstore\n      dup1\n      swap3\n      swap2\n      swap1\n      dup2\n      dup2\n      mstore\n      0x20\n      add\n      0x00\n      swap1\n    tag_73:\n      dup3\n      dup3\n      lt\n      iszero\n      tag_74\n      jumpi\n      dup4\n      dup3\n      swap1\n      0x00\n      mstore\n      keccak256(0x00, 0x20)\n      add\n      dup1\n      sload\n      tag_76\n      swap1\n      tag_40\n      jump\t// in\n    tag_76:\n      dup1\n      0x1f\n      add\n      0x20\n      dup1\n      swap2\n      div\n      mul\n      0x20\n      add\n      mload(0x40)\n      swap1\n      dup2\n      add\n      0x40\n      mstore\n      dup1\n      swap3\n      swap2\n      swap1\n      dup2\n      dup2\n      mstore\n      0x20\n      add\n      dup3\n      dup1\n      sload\n      tag_77\n      swap1\n      tag_40\n      jump\t// in\n    tag_77:\n      dup1\n      iszero\n      tag_78\n      jumpi\n      dup1\n      0x1f\n      lt\n      tag_79\n      jumpi\n      0x0100\n      dup1\n      dup4\n      sload\n      div\n      mul\n      dup4\n      mstore\n      swap2\n      0x20\n      add\n      swap2\n      jump(tag_78)\n    tag_79:\n      dup3\n      add\n      swap2\n      swap1\n      0x00\n      mstore\n      keccak256(0x00, 0x20)\n      swap1\n    tag_80:\n      dup2\n      sload\n      dup2\n      mstore\n      swap1\n      0x01\n      add\n      swap1\n      0x20\n      add\n      dup1\n      dup4\n      gt\n      tag_80\n      jumpi\n      dup3\n      swap1\n      sub\n      0x1f\n      and\n      dup3\n      add\n      swap2\n    tag_78:\n      pop\n      pop\n      pop\n      pop\n      pop\n      dup2\n      mstore\n      0x20\n      add\n      swap1\n      0x01\n      add\n      swap1\n      jump(tag_73)\n    tag_74:\n      pop\n      pop\n      pop\n      pop\n      dup2\n      mstore\n      0x20\n      add\n      0x06\n      dup3\n      add\n      dup1\n      sload\n      dup1\n      0x20\n      mul\n      0x20\n      add\n      mload(0x40)\n      swap1\n      dup2\n      add\n      0x40\n      mstore\n      dup1\n      swap3\n      swap2\n      swap1\n      dup2\n      dup2\n      mstore\n      0x20\n      add\n      0x00\n      swap1\n    tag_81:\n      dup3\n      dup3\n      lt\n      iszero\n      tag_82\n      jumpi\n      dup4\n      dup3\n      swap1\n      0x00\n      mstore\n      keccak256(0x00, 0x20)\n      add\n      dup1\n      sload\n      tag_84\n      swap1\n      tag_40\n      jump\t// in\n    tag_84:\n      dup1\n      0x1f\n      add\n      0x20\n      dup1\n      swap2\n      div\n      mul\n      0x20\n      add\n      mload(0x40)\n      swap1\n      dup2\n      add\n      0x40\n      mstore\n      dup1\n      swap3\n      swap2\n      swap1\n      dup2\n      dup2\n      mstore\n      0x20\n      add\n      dup3\n      dup1\n      sload\n      tag_85\n      swap1\n      tag_40\n      jump\t// in\n    tag_85:\n      dup1\n      iszero\n      tag_86\n      jumpi\n      dup1\n      0x1f\n      lt\n      tag_87\n      jumpi\n      0x0100\n      dup1\n      dup4\n      sload\n      div\n      mul\n      dup4\n      mstore\n      swap2\n      0x20\n      add\n      swap2\n      jump(tag_86)\n    tag_87:\n      dup3\n      add\n      swap2\n      swap1\n      0x00\n      mstore\n      keccak256(0x00, 0x20)\n      swap1\n    tag_88:\n      dup2\n      sload\n      dup2\n      mstore\n      swap1\n      0x01\n      add\n      swap1\n      0x20\n      add\n      dup1\n      dup4\n      gt\n      tag_88\n      jumpi\n      dup3\n      swap1\n      sub\n      0x1f\n      and\n      dup3\n      add\n      swap2\n    tag_86:\n      pop\n      pop\n      pop\n      pop\n      pop\n      dup2\n      mstore\n      0x20\n      add\n      swap1\n      0x01\n      add\n      swap1\n      jump(tag_81)\n    tag_82:\n      pop\n      pop\n      pop\n      pop\n      dup2\n      mstore\n      pop\n      pop\n        /* \"Patient.sol\":1460:1466  result */\n      dup3\n        /* \"Patient.sol\":1467:1468  i */\n      dup3\n        /* \"Patient.sol\":1460:1469  result[i] */\n      dup2\n      mload\n      dup2\n      lt\n      tag_89\n      jumpi\n      tag_90\n      tag_58\n      jump\t// in\n    tag_90:\n    tag_89:\n      0x20\n      mul\n      0x20\n      add\n      add\n        /* \"Patient.sol\":1460:1499  result[i] = patients[patientAddress[i]] */\n      dup2\n      swap1\n      mstore\n      pop\n        /* \"Patient.sol\":1441:1444  i++ */\n      dup1\n      dup1\n      tag_91\n      swap1\n      tag_92\n      jump\t// in\n    tag_91:\n      swap2\n      pop\n      pop\n        /* \"Patient.sol\":1406:1510  for (uint i = 0; i < patientCount; i++) {... */\n      jump(tag_53)\n    tag_54:\n      pop\n        /* \"Patient.sol\":1526:1532  result */\n      dup1\n        /* \"Patient.sol\":1519:1532  return result */\n      swap2\n      pop\n      pop\n        /* \"Patient.sol\":1247:1539  function getAllPatients() public view returns (PatientDetails[] memory) {... */\n      swap1\n      jump\t// out\n        /* \"Patient.sol\":621:1241  function registerPatient(string memory _name, uint _age) public {... */\n    tag_28:\n        /* \"Patient.sol\":703:721  patientNotExists() */\n      tag_94\n        /* \"Patient.sol\":703:719  patientNotExists */\n      tag_30\n        /* \"Patient.sol\":703:721  patientNotExists() */\n      jump\t// in\n    tag_94:\n        /* \"Patient.sol\":695:748  require(patientNotExists(), \"Patient already exists\") */\n      tag_95\n      jumpi\n      mload(0x40)\n      0x08c379a000000000000000000000000000000000000000000000000000000000\n      dup2\n      mstore\n      0x04\n      add\n      tag_96\n      swap1\n      tag_97\n      jump\t// in\n    tag_96:\n      mload(0x40)\n      dup1\n      swap2\n      sub\n      swap1\n      revert\n    tag_95:\n        /* \"Patient.sol\":758:782  string[] memory diseases */\n      0x60\n        /* \"Patient.sol\":792:827  string[] memory prescribedMedicines */\n      dup1\n        /* \"Patient.sol\":837:867  string[] memory allowedDoctors */\n      0x60\n        /* \"Patient.sol\":900:1169  PatientDetails({... */\n      mload(0x40)\n      dup1\n      0xe0\n      add\n      0x40\n      mstore\n      dup1\n        /* \"Patient.sol\":933:945  patientCount */\n      sload(0x01)\n        /* \"Patient.sol\":900:1169  PatientDetails({... */\n      dup2\n      mstore\n      0x20\n      add\n        /* \"Patient.sol\":966:971  _name */\n      dup7\n        /* \"Patient.sol\":900:1169  PatientDetails({... */\n      dup2\n      mstore\n      0x20\n      add\n        /* \"Patient.sol\":991:995  _age */\n      dup6\n        /* \"Patient.sol\":900:1169  PatientDetails({... */\n      dup2\n      mstore\n      0x20\n      add\n        /* \"Patient.sol\":1025:1035  msg.sender */\n      caller\n        /* \"Patient.sol\":900:1169  PatientDetails({... */\n      0xffffffffffffffffffffffffffffffffffffffff\n      and\n      dup2\n      mstore\n      0x20\n      add\n        /* \"Patient.sol\":1060:1068  diseases */\n      dup5\n        /* \"Patient.sol\":900:1169  PatientDetails({... */\n      dup2\n      mstore\n      0x20\n      add\n        /* \"Patient.sol\":1094:1113  prescribedMedicines */\n      dup4\n        /* \"Patient.sol\":900:1169  PatientDetails({... */\n      dup2\n      mstore\n      0x20\n      add\n        /* \"Patient.sol\":1144:1158  allowedDoctors */\n      dup3\n        /* \"Patient.sol\":900:1169  PatientDetails({... */\n      dup2\n      mstore\n      pop\n        /* \"Patient.sol\":877:885  patients */\n      0x00\n        /* \"Patient.sol\":877:897  patients[msg.sender] */\n      dup1\n        /* \"Patient.sol\":886:896  msg.sender */\n      caller\n        /* \"Patient.sol\":877:897  patients[msg.sender] */\n      0xffffffffffffffffffffffffffffffffffffffff\n      and\n      0xffffffffffffffffffffffffffffffffffffffff\n      and\n      dup2\n      mstore\n      0x20\n      add\n      swap1\n      dup2\n      mstore\n      0x20\n      add\n      0x00\n      keccak256\n        /* \"Patient.sol\":877:1169  patients[msg.sender] = PatientDetails({... */\n      0x00\n      dup3\n      add\n      mload\n      dup2\n      0x00\n      add\n      sstore\n      0x20\n      dup3\n      add\n      mload\n      dup2\n      0x01\n      add\n      swap1\n      dup2\n      tag_98\n      swap2\n      swap1\n      tag_99\n      jump\t// in\n    tag_98:\n      pop\n      0x40\n      dup3\n      add\n      mload\n      dup2\n      0x02\n      add\n      sstore\n      0x60\n      dup3\n      add\n      mload\n      dup2\n      0x03\n      add\n      exp(0x0100, 0x00)\n      dup2\n      sload\n      dup2\n      0xffffffffffffffffffffffffffffffffffffffff\n      mul\n      not\n      and\n      swap1\n      dup4\n      0xffffffffffffffffffffffffffffffffffffffff\n      and\n      mul\n      or\n      swap1\n      sstore\n      pop\n      0x80\n      dup3\n      add\n      mload\n      dup2\n      0x04\n      add\n      swap1\n      dup1\n      mload\n      swap1\n      0x20\n      add\n      swap1\n      tag_100\n      swap3\n      swap2\n      swap1\n      tag_101\n      jump\t// in\n    tag_100:\n      pop\n      0xa0\n      dup3\n      add\n      mload\n      dup2\n      0x05\n      add\n      swap1\n      dup1\n      mload\n      swap1\n      0x20\n      add\n      swap1\n      tag_102\n      swap3\n      swap2\n      swap1\n      tag_101\n      jump\t// in\n    tag_102:\n      pop\n      0xc0\n      dup3\n      add\n      mload\n      dup2\n      0x06\n      add\n      swap1\n      dup1\n      mload\n      swap1\n      0x20\n      add\n      swap1\n      tag_103\n      swap3\n      swap2\n      swap1\n      tag_101\n      jump\t// in\n    tag_103:\n      pop\n      swap1\n      pop\n      pop\n        /* \"Patient.sol\":1179:1193  patientAddress */\n      0x02\n        /* \"Patient.sol\":1199:1209  msg.sender */\n      caller\n        /* \"Patient.sol\":1179:1210  patientAddress.push(msg.sender) */\n      swap1\n      dup1\n      0x01\n      dup2\n      sload\n      add\n      dup1\n      dup3\n      sstore\n      dup1\n      swap2\n      pop\n      pop\n      0x01\n      swap1\n      sub\n      swap1\n      0x00\n      mstore\n      keccak256(0x00, 0x20)\n      add\n      0x00\n      swap1\n      swap2\n      swap1\n      swap2\n      swap1\n      swap2\n      0x0100\n      exp\n      dup2\n      sload\n      dup2\n      0xffffffffffffffffffffffffffffffffffffffff\n      mul\n      not\n      and\n      swap1\n      dup4\n      0xffffffffffffffffffffffffffffffffffffffff\n      and\n      mul\n      or\n      swap1\n      sstore\n      pop\n        /* \"Patient.sol\":1220:1232  patientCount */\n      0x01\n      0x00\n        /* \"Patient.sol\":1220:1234  patientCount++ */\n      dup2\n      sload\n      dup1\n      swap3\n      swap2\n      swap1\n      tag_105\n      swap1\n      tag_92\n      jump\t// in\n    tag_105:\n      swap2\n      swap1\n      pop\n      sstore\n      pop\n        /* \"Patient.sol\":685:1241  {... */\n      pop\n      pop\n      pop\n        /* \"Patient.sol\":621:1241  function registerPatient(string memory _name, uint _age) public {... */\n      pop\n      pop\n      jump\t// out\n        /* \"Patient.sol\":383:615  function patientNotExists() public view returns (bool) {... */\n    tag_30:\n        /* \"Patient.sol\":432:436  bool */\n      0x00\n        /* \"Patient.sol\":452:458  uint i */\n      dup1\n        /* \"Patient.sol\":459:460  0 */\n      0x00\n        /* \"Patient.sol\":452:460  uint i=0 */\n      swap1\n      pop\n        /* \"Patient.sol\":448:588  for(uint i=0; i<patientCount; i++) {... */\n    tag_107:\n        /* \"Patient.sol\":464:476  patientCount */\n      sload(0x01)\n        /* \"Patient.sol\":462:463  i */\n      dup2\n        /* \"Patient.sol\":462:476  i<patientCount */\n      lt\n        /* \"Patient.sol\":448:588  for(uint i=0; i<patientCount; i++) {... */\n      iszero\n      tag_108\n      jumpi\n        /* \"Patient.sol\":521:531  msg.sender */\n      caller\n        /* \"Patient.sol\":500:531  patientAddress[i] == msg.sender */\n      0xffffffffffffffffffffffffffffffffffffffff\n      and\n        /* \"Patient.sol\":500:514  patientAddress */\n      0x02\n        /* \"Patient.sol\":515:516  i */\n      dup3\n        /* \"Patient.sol\":500:517  patientAddress[i] */\n      dup2\n      sload\n      dup2\n      lt\n      tag_110\n      jumpi\n      tag_111\n      tag_58\n      jump\t// in\n    tag_111:\n    tag_110:\n      swap1\n      0x00\n      mstore\n      keccak256(0x00, 0x20)\n      add\n      0x00\n      swap1\n      sload\n      swap1\n      0x0100\n      exp\n      swap1\n      div\n      0xffffffffffffffffffffffffffffffffffffffff\n      and\n        /* \"Patient.sol\":500:531  patientAddress[i] == msg.sender */\n      0xffffffffffffffffffffffffffffffffffffffff\n      and\n      sub\n        /* \"Patient.sol\":497:578  if(patientAddress[i] == msg.sender) {... */\n      tag_113\n      jumpi\n        /* \"Patient.sol\":558:563  false */\n      0x00\n        /* \"Patient.sol\":551:563  return false */\n      swap2\n      pop\n      pop\n      jump(tag_106)\n        /* \"Patient.sol\":497:578  if(patientAddress[i] == msg.sender) {... */\n    tag_113:\n        /* \"Patient.sol\":478:481  i++ */\n      dup1\n      dup1\n      tag_114\n      swap1\n      tag_92\n      jump\t// in\n    tag_114:\n      swap2\n      pop\n      pop\n        /* \"Patient.sol\":448:588  for(uint i=0; i<patientCount; i++) {... */\n      jump(tag_107)\n    tag_108:\n      pop\n        /* \"Patient.sol\":604:608  true */\n      0x01\n        /* \"Patient.sol\":597:608  return true */\n      swap1\n      pop\n        /* \"Patient.sol\":383:615  function patientNotExists() public view returns (bool) {... */\n    tag_106:\n      swap1\n      jump\t// out\n        /* \"Patient.sol\":315:339  uint public patientCount */\n    tag_34:\n      sload(0x01)\n      dup2\n      jump\t// out\n    tag_52:\n      mload(0x40)\n      dup1\n      0xe0\n      add\n      0x40\n      mstore\n      dup1\n      0x00\n      dup2\n      mstore\n      0x20\n      add\n      0x60\n      dup2\n      mstore\n      0x20\n      add\n      0x00\n      dup2\n      mstore\n      0x20\n      add\n      and(0xffffffffffffffffffffffffffffffffffffffff, 0x00)\n      dup2\n      mstore\n      0x20\n      add\n      0x60\n      dup2\n      mstore\n      0x20\n      add\n      0x60\n      dup2\n      mstore\n      0x20\n      add\n      0x60\n      dup2\n      mstore\n      pop\n      swap1\n      jump\t// out\n    tag_101:\n      dup3\n      dup1\n      sload\n      dup3\n      dup3\n      sstore\n      swap1\n      0x00\n      mstore\n      keccak256(0x00, 0x20)\n      swap1\n      dup2\n      add\n      swap3\n      dup3\n      iszero\n      tag_115\n      jumpi\n      swap2\n      0x20\n      mul\n      dup3\n      add\n    tag_116:\n      dup3\n      dup2\n      gt\n      iszero\n      tag_117\n      jumpi\n      dup3\n      mload\n      dup3\n      swap1\n      dup2\n      tag_118\n      swap2\n      swap1\n      tag_99\n      jump\t// in\n    tag_118:\n      pop\n      swap2\n      0x20\n      add\n      swap2\n      swap1\n      0x01\n      add\n      swap1\n      jump(tag_116)\n    tag_117:\n    tag_115:\n      pop\n      swap1\n      pop\n      tag_119\n      swap2\n      swap1\n      tag_120\n      jump\t// in\n    tag_119:\n      pop\n      swap1\n      jump\t// out\n    tag_120:\n    tag_121:\n      dup1\n      dup3\n      gt\n      iszero\n      tag_122\n      jumpi\n      0x00\n      dup2\n      dup2\n      tag_123\n      swap2\n      swap1\n      tag_124\n      jump\t// in\n    tag_123:\n      pop\n      0x01\n      add\n      jump(tag_121)\n    tag_122:\n      pop\n      swap1\n      jump\t// out\n    tag_124:\n      pop\n      dup1\n      sload\n      tag_125\n      swap1\n      tag_40\n      jump\t// in\n    tag_125:\n      0x00\n      dup3\n      sstore\n      dup1\n      0x1f\n      lt\n      tag_127\n      jumpi\n      pop\n      jump(tag_126)\n    tag_127:\n      0x1f\n      add\n      0x20\n      swap1\n      div\n      swap1\n      0x00\n      mstore\n      keccak256(0x00, 0x20)\n      swap1\n      dup2\n      add\n      swap1\n      tag_128\n      swap2\n      swap1\n      tag_129\n      jump\t// in\n    tag_128:\n    tag_126:\n      pop\n      jump\t// out\n    tag_129:\n    tag_130:\n      dup1\n      dup3\n      gt\n      iszero\n      tag_131\n      jumpi\n      0x00\n      dup2\n      0x00\n      swap1\n      sstore\n      pop\n      0x01\n      add\n      jump(tag_130)\n    tag_131:\n      pop\n      swap1\n      jump\t// out\n        /* \"#utility.yul\":7:82   */\n    tag_132:\n        /* \"#utility.yul\":40:46   */\n      0x00\n        /* \"#utility.yul\":73:75   */\n      0x40\n        /* \"#utility.yul\":67:76   */\n      mload\n        /* \"#utility.yul\":57:76   */\n      swap1\n      pop\n        /* \"#utility.yul\":7:82   */\n      swap1\n      jump\t// out\n        /* \"#utility.yul\":88:205   */\n    tag_133:\n        /* \"#utility.yul\":197:198   */\n      0x00\n        /* \"#utility.yul\":194:195   */\n      dup1\n        /* \"#utility.yul\":187:199   */\n      revert\n        /* \"#utility.yul\":211:328   */\n    tag_134:\n        /* \"#utility.yul\":320:321   */\n      0x00\n        /* \"#utility.yul\":317:318   */\n      dup1\n        /* \"#utility.yul\":310:322   */\n      revert\n        /* \"#utility.yul\":334:411   */\n    tag_135:\n        /* \"#utility.yul\":371:378   */\n      0x00\n        /* \"#utility.yul\":400:405   */\n      dup2\n        /* \"#utility.yul\":389:405   */\n      swap1\n      pop\n        /* \"#utility.yul\":334:411   */\n      swap2\n      swap1\n      pop\n      jump\t// out\n        /* \"#utility.yul\":417:539   */\n    tag_136:\n        /* \"#utility.yul\":490:514   */\n      tag_201\n        /* \"#utility.yul\":508:513   */\n      dup2\n        /* \"#utility.yul\":490:514   */\n      tag_135\n      jump\t// in\n    tag_201:\n        /* \"#utility.yul\":483:488   */\n      dup2\n        /* \"#utility.yul\":480:515   */\n      eq\n        /* \"#utility.yul\":470:533   */\n      tag_202\n      jumpi\n        /* \"#utility.yul\":529:530   */\n      0x00\n        /* \"#utility.yul\":526:527   */\n      dup1\n        /* \"#utility.yul\":519:531   */\n      revert\n        /* \"#utility.yul\":470:533   */\n    tag_202:\n        /* \"#utility.yul\":417:539   */\n      pop\n      jump\t// out\n        /* \"#utility.yul\":545:684   */\n    tag_137:\n        /* \"#utility.yul\":591:596   */\n      0x00\n        /* \"#utility.yul\":629:635   */\n      dup2\n        /* \"#utility.yul\":616:636   */\n      calldataload\n        /* \"#utility.yul\":607:636   */\n      swap1\n      pop\n        /* \"#utility.yul\":645:678   */\n      tag_204\n        /* \"#utility.yul\":672:677   */\n      dup2\n        /* \"#utility.yul\":645:678   */\n      tag_136\n      jump\t// in\n    tag_204:\n        /* \"#utility.yul\":545:684   */\n      swap3\n      swap2\n      pop\n      pop\n      jump\t// out\n        /* \"#utility.yul\":690:1019   */\n    tag_11:\n        /* \"#utility.yul\":749:755   */\n      0x00\n        /* \"#utility.yul\":798:800   */\n      0x20\n        /* \"#utility.yul\":786:795   */\n      dup3\n        /* \"#utility.yul\":777:784   */\n      dup5\n        /* \"#utility.yul\":773:796   */\n      sub\n        /* \"#utility.yul\":769:801   */\n      slt\n        /* \"#utility.yul\":766:885   */\n      iszero\n      tag_206\n      jumpi\n        /* \"#utility.yul\":804:883   */\n      tag_207\n      tag_133\n      jump\t// in\n    tag_207:\n        /* \"#utility.yul\":766:885   */\n    tag_206:\n        /* \"#utility.yul\":924:925   */\n      0x00\n        /* \"#utility.yul\":949:1002   */\n      tag_208\n        /* \"#utility.yul\":994:1001   */\n      dup5\n        /* \"#utility.yul\":985:991   */\n      dup3\n        /* \"#utility.yul\":974:983   */\n      dup6\n        /* \"#utility.yul\":970:992   */\n      add\n        /* \"#utility.yul\":949:1002   */\n      tag_137\n      jump\t// in\n    tag_208:\n        /* \"#utility.yul\":939:1002   */\n      swap2\n      pop\n        /* \"#utility.yul\":895:1012   */\n      pop\n        /* \"#utility.yul\":690:1019   */\n      swap3\n      swap2\n      pop\n      pop\n      jump\t// out\n        /* \"#utility.yul\":1025:1151   */\n    tag_138:\n        /* \"#utility.yul\":1062:1069   */\n      0x00\n        /* \"#utility.yul\":1102:1144   */\n      0xffffffffffffffffffffffffffffffffffffffff\n        /* \"#utility.yul\":1095:1100   */\n      dup3\n        /* \"#utility.yul\":1091:1145   */\n      and\n        /* \"#utility.yul\":1080:1145   */\n      swap1\n      pop\n        /* \"#utility.yul\":1025:1151   */\n      swap2\n      swap1\n      pop\n      jump\t// out\n        /* \"#utility.yul\":1157:1253   */\n    tag_139:\n        /* \"#utility.yul\":1194:1201   */\n      0x00\n        /* \"#utility.yul\":1223:1247   */\n      tag_211\n        /* \"#utility.yul\":1241:1246   */\n      dup3\n        /* \"#utility.yul\":1223:1247   */\n      tag_138\n      jump\t// in\n    tag_211:\n        /* \"#utility.yul\":1212:1247   */\n      swap1\n      pop\n        /* \"#utility.yul\":1157:1253   */\n      swap2\n      swap1\n      pop\n      jump\t// out\n        /* \"#utility.yul\":1259:1377   */\n    tag_140:\n        /* \"#utility.yul\":1346:1370   */\n      tag_213\n        /* \"#utility.yul\":1364:1369   */\n      dup2\n        /* \"#utility.yul\":1346:1370   */\n      tag_139\n      jump\t// in\n    tag_213:\n        /* \"#utility.yul\":1341:1344   */\n      dup3\n        /* \"#utility.yul\":1334:1371   */\n      mstore\n        /* \"#utility.yul\":1259:1377   */\n      pop\n      pop\n      jump\t// out\n        /* \"#utility.yul\":1383:1605   */\n    tag_14:\n        /* \"#utility.yul\":1476:1480   */\n      0x00\n        /* \"#utility.yul\":1514:1516   */\n      0x20\n        /* \"#utility.yul\":1503:1512   */\n      dup3\n        /* \"#utility.yul\":1499:1517   */\n      add\n        /* \"#utility.yul\":1491:1517   */\n      swap1\n      pop\n        /* \"#utility.yul\":1527:1598   */\n      tag_215\n        /* \"#utility.yul\":1595:1596   */\n      0x00\n        /* \"#utility.yul\":1584:1593   */\n      dup4\n        /* \"#utility.yul\":1580:1597   */\n      add\n        /* \"#utility.yul\":1571:1577   */\n      dup5\n        /* \"#utility.yul\":1527:1598   */\n      tag_140\n      jump\t// in\n    tag_215:\n        /* \"#utility.yul\":1383:1605   */\n      swap3\n      swap2\n      pop\n      pop\n      jump\t// out\n        /* \"#utility.yul\":1611:1733   */\n    tag_141:\n        /* \"#utility.yul\":1684:1708   */\n      tag_217\n        /* \"#utility.yul\":1702:1707   */\n      dup2\n        /* \"#utility.yul\":1684:1708   */\n      tag_139\n      jump\t// in\n    tag_217:\n        /* \"#utility.yul\":1677:1682   */\n      dup2\n        /* \"#utility.yul\":1674:1709   */\n      eq\n        /* \"#utility.yul\":1664:1727   */\n      tag_218\n      jumpi\n        /* \"#utility.yul\":1723:1724   */\n      0x00\n        /* \"#utility.yul\":1720:1721   */\n      dup1\n        /* \"#utility.yul\":1713:1725   */\n      revert\n        /* \"#utility.yul\":1664:1727   */\n    tag_218:\n        /* \"#utility.yul\":1611:1733   */\n      pop\n      jump\t// out\n        /* \"#utility.yul\":1739:1878   */\n    tag_142:\n        /* \"#utility.yul\":1785:1790   */\n      0x00\n        /* \"#utility.yul\":1823:1829   */\n      dup2\n        /* \"#utility.yul\":1810:1830   */\n      calldataload\n        /* \"#utility.yul\":1801:1830   */\n      swap1\n      pop\n        /* \"#utility.yul\":1839:1872   */\n      tag_220\n        /* \"#utility.yul\":1866:1871   */\n      dup2\n        /* \"#utility.yul\":1839:1872   */\n      tag_141\n      jump\t// in\n    tag_220:\n        /* \"#utility.yul\":1739:1878   */\n      swap3\n      swap2\n      pop\n      pop\n      jump\t// out\n        /* \"#utility.yul\":1884:2213   */\n    tag_17:\n        /* \"#utility.yul\":1943:1949   */\n      0x00\n        /* \"#utility.yul\":1992:1994   */\n      0x20\n        /* \"#utility.yul\":1980:1989   */\n      dup3\n        /* \"#utility.yul\":1971:1978   */\n      dup5\n        /* \"#utility.yul\":1967:1990   */\n      sub\n        /* \"#utility.yul\":1963:1995   */\n      slt\n        /* \"#utility.yul\":1960:2079   */\n      iszero\n      tag_222\n      jumpi\n        /* \"#utility.yul\":1998:2077   */\n      tag_223\n      tag_133\n      jump\t// in\n    tag_223:\n        /* \"#utility.yul\":1960:2079   */\n    tag_222:\n        /* \"#utility.yul\":2118:2119   */\n      0x00\n        /* \"#utility.yul\":2143:2196   */\n      tag_224\n        /* \"#utility.yul\":2188:2195   */\n      dup5\n        /* \"#utility.yul\":2179:2185   */\n      dup3\n        /* \"#utility.yul\":2168:2177   */\n      dup6\n        /* \"#utility.yul\":2164:2186   */\n      add\n        /* \"#utility.yul\":2143:2196   */\n      tag_142\n      jump\t// in\n    tag_224:\n        /* \"#utility.yul\":2133:2196   */\n      swap2\n      pop\n        /* \"#utility.yul\":2089:2206   */\n      pop\n        /* \"#utility.yul\":1884:2213   */\n      swap3\n      swap2\n      pop\n      pop\n      jump\t// out\n        /* \"#utility.yul\":2219:2337   */\n    tag_143:\n        /* \"#utility.yul\":2306:2330   */\n      tag_226\n        /* \"#utility.yul\":2324:2329   */\n      dup2\n        /* \"#utility.yul\":2306:2330   */\n      tag_135\n      jump\t// in\n    tag_226:\n        /* \"#utility.yul\":2301:2304   */\n      dup3\n        /* \"#utility.yul\":2294:2331   */\n      mstore\n        /* \"#utility.yul\":2219:2337   */\n      pop\n      pop\n      jump\t// out\n        /* \"#utility.yul\":2343:2442   */\n    tag_144:\n        /* \"#utility.yul\":2395:2401   */\n      0x00\n        /* \"#utility.yul\":2429:2434   */\n      dup2\n        /* \"#utility.yul\":2423:2435   */\n      mload\n        /* \"#utility.yul\":2413:2435   */\n      swap1\n      pop\n        /* \"#utility.yul\":2343:2442   */\n      swap2\n      swap1\n      pop\n      jump\t// out\n        /* \"#utility.yul\":2448:2617   */\n    tag_145:\n        /* \"#utility.yul\":2532:2543   */\n      0x00\n        /* \"#utility.yul\":2566:2572   */\n      dup3\n        /* \"#utility.yul\":2561:2564   */\n      dup3\n        /* \"#utility.yul\":2554:2573   */\n      mstore\n        /* \"#utility.yul\":2606:2610   */\n      0x20\n        /* \"#utility.yul\":2601:2604   */\n      dup3\n        /* \"#utility.yul\":2597:2611   */\n      add\n        /* \"#utility.yul\":2582:2611   */\n      swap1\n      pop\n        /* \"#utility.yul\":2448:2617   */\n      swap3\n      swap2\n      pop\n      pop\n      jump\t// out\n        /* \"#utility.yul\":2623:2869   */\n    tag_146:\n        /* \"#utility.yul\":2704:2705   */\n      0x00\n        /* \"#utility.yul\":2714:2827   */\n    tag_230:\n        /* \"#utility.yul\":2728:2734   */\n      dup4\n        /* \"#utility.yul\":2725:2726   */\n      dup2\n        /* \"#utility.yul\":2722:2735   */\n      lt\n        /* \"#utility.yul\":2714:2827   */\n      iszero\n      tag_232\n      jumpi\n        /* \"#utility.yul\":2813:2814   */\n      dup1\n        /* \"#utility.yul\":2808:2811   */\n      dup3\n        /* \"#utility.yul\":2804:2815   */\n      add\n        /* \"#utility.yul\":2798:2816   */\n      mload\n        /* \"#utility.yul\":2794:2795   */\n      dup2\n        /* \"#utility.yul\":2789:2792   */\n      dup5\n        /* \"#utility.yul\":2785:2796   */\n      add\n        /* \"#utility.yul\":2778:2817   */\n      mstore\n        /* \"#utility.yul\":2750:2752   */\n      0x20\n        /* \"#utility.yul\":2747:2748   */\n      dup2\n        /* \"#utility.yul\":2743:2753   */\n      add\n        /* \"#utility.yul\":2738:2753   */\n      swap1\n      pop\n        /* \"#utility.yul\":2714:2827   */\n      jump(tag_230)\n    tag_232:\n        /* \"#utility.yul\":2861:2862   */\n      0x00\n        /* \"#utility.yul\":2852:2858   */\n      dup5\n        /* \"#utility.yul\":2847:2850   */\n      dup5\n        /* \"#utility.yul\":2843:2859   */\n      add\n        /* \"#utility.yul\":2836:2863   */\n      mstore\n        /* \"#utility.yul\":2685:2869   */\n      pop\n        /* \"#utility.yul\":2623:2869   */\n      pop\n      pop\n      pop\n      jump\t// out\n        /* \"#utility.yul\":2875:2977   */\n    tag_147:\n        /* \"#utility.yul\":2916:2922   */\n      0x00\n        /* \"#utility.yul\":2967:2969   */\n      0x1f\n        /* \"#utility.yul\":2963:2970   */\n      not\n        /* \"#utility.yul\":2958:2960   */\n      0x1f\n        /* \"#utility.yul\":2951:2956   */\n      dup4\n        /* \"#utility.yul\":2947:2961   */\n      add\n        /* \"#utility.yul\":2943:2971   */\n      and\n        /* \"#utility.yul\":2933:2971   */\n      swap1\n      pop\n        /* \"#utility.yul\":2875:2977   */\n      swap2\n      swap1\n      pop\n      jump\t// out\n        /* \"#utility.yul\":2983:3360   */\n    tag_148:\n        /* \"#utility.yul\":3071:3074   */\n      0x00\n        /* \"#utility.yul\":3099:3138   */\n      tag_235\n        /* \"#utility.yul\":3132:3137   */\n      dup3\n        /* \"#utility.yul\":3099:3138   */\n      tag_144\n      jump\t// in\n    tag_235:\n        /* \"#utility.yul\":3154:3225   */\n      tag_236\n        /* \"#utility.yul\":3218:3224   */\n      dup2\n        /* \"#utility.yul\":3213:3216   */\n      dup6\n        /* \"#utility.yul\":3154:3225   */\n      tag_145\n      jump\t// in\n    tag_236:\n        /* \"#utility.yul\":3147:3225   */\n      swap4\n      pop\n        /* \"#utility.yul\":3234:3299   */\n      tag_237\n        /* \"#utility.yul\":3292:3298   */\n      dup2\n        /* \"#utility.yul\":3287:3290   */\n      dup6\n        /* \"#utility.yul\":3280:3284   */\n      0x20\n        /* \"#utility.yul\":3273:3278   */\n      dup7\n        /* \"#utility.yul\":3269:3285   */\n      add\n        /* \"#utility.yul\":3234:3299   */\n      tag_146\n      jump\t// in\n    tag_237:\n        /* \"#utility.yul\":3324:3353   */\n      tag_238\n        /* \"#utility.yul\":3346:3352   */\n      dup2\n        /* \"#utility.yul\":3324:3353   */\n      tag_147\n      jump\t// in\n    tag_238:\n        /* \"#utility.yul\":3319:3322   */\n      dup5\n        /* \"#utility.yul\":3315:3354   */\n      add\n        /* \"#utility.yul\":3308:3354   */\n      swap2\n      pop\n        /* \"#utility.yul\":3075:3360   */\n      pop\n        /* \"#utility.yul\":2983:3360   */\n      swap3\n      swap2\n      pop\n      pop\n      jump\t// out\n        /* \"#utility.yul\":3366:4010   */\n    tag_20:\n        /* \"#utility.yul\":3563:3567   */\n      0x00\n        /* \"#utility.yul\":3601:3604   */\n      0x80\n        /* \"#utility.yul\":3590:3599   */\n      dup3\n        /* \"#utility.yul\":3586:3605   */\n      add\n        /* \"#utility.yul\":3578:3605   */\n      swap1\n      pop\n        /* \"#utility.yul\":3615:3686   */\n      tag_240\n        /* \"#utility.yul\":3683:3684   */\n      0x00\n        /* \"#utility.yul\":3672:3681   */\n      dup4\n        /* \"#utility.yul\":3668:3685   */\n      add\n        /* \"#utility.yul\":3659:3665   */\n      dup8\n        /* \"#utility.yul\":3615:3686   */\n      tag_143\n      jump\t// in\n    tag_240:\n        /* \"#utility.yul\":3733:3742   */\n      dup2\n        /* \"#utility.yul\":3727:3731   */\n      dup2\n        /* \"#utility.yul\":3723:3743   */\n      sub\n        /* \"#utility.yul\":3718:3720   */\n      0x20\n        /* \"#utility.yul\":3707:3716   */\n      dup4\n        /* \"#utility.yul\":3703:3721   */\n      add\n        /* \"#utility.yul\":3696:3744   */\n      mstore\n        /* \"#utility.yul\":3761:3839   */\n      tag_241\n        /* \"#utility.yul\":3834:3838   */\n      dup2\n        /* \"#utility.yul\":3825:3831   */\n      dup7\n        /* \"#utility.yul\":3761:3839   */\n      tag_148\n      jump\t// in\n    tag_241:\n        /* \"#utility.yul\":3753:3839   */\n      swap1\n      pop\n        /* \"#utility.yul\":3849:3921   */\n      tag_242\n        /* \"#utility.yul\":3917:3919   */\n      0x40\n        /* \"#utility.yul\":3906:3915   */\n      dup4\n        /* \"#utility.yul\":3902:3920   */\n      add\n        /* \"#utility.yul\":3893:3899   */\n      dup6\n        /* \"#utility.yul\":3849:3921   */\n      tag_143\n      jump\t// in\n    tag_242:\n        /* \"#utility.yul\":3931:4003   */\n      tag_243\n        /* \"#utility.yul\":3999:4001   */\n      0x60\n        /* \"#utility.yul\":3988:3997   */\n      dup4\n        /* \"#utility.yul\":3984:4002   */\n      add\n        /* \"#utility.yul\":3975:3981   */\n      dup5\n        /* \"#utility.yul\":3931:4003   */\n      tag_140\n      jump\t// in\n    tag_243:\n        /* \"#utility.yul\":3366:4010   */\n      swap6\n      swap5\n      pop\n      pop\n      pop\n      pop\n      pop\n      jump\t// out\n        /* \"#utility.yul\":4016:4160   */\n    tag_149:\n        /* \"#utility.yul\":4113:4119   */\n      0x00\n        /* \"#utility.yul\":4147:4152   */\n      dup2\n        /* \"#utility.yul\":4141:4153   */\n      mload\n        /* \"#utility.yul\":4131:4153   */\n      swap1\n      pop\n        /* \"#utility.yul\":4016:4160   */\n      swap2\n      swap1\n      pop\n      jump\t// out\n        /* \"#utility.yul\":4166:4380   */\n    tag_150:\n        /* \"#utility.yul\":4295:4306   */\n      0x00\n        /* \"#utility.yul\":4329:4335   */\n      dup3\n        /* \"#utility.yul\":4324:4327   */\n      dup3\n        /* \"#utility.yul\":4317:4336   */\n      mstore\n        /* \"#utility.yul\":4369:4373   */\n      0x20\n        /* \"#utility.yul\":4364:4367   */\n      dup3\n        /* \"#utility.yul\":4360:4374   */\n      add\n        /* \"#utility.yul\":4345:4374   */\n      swap1\n      pop\n        /* \"#utility.yul\":4166:4380   */\n      swap3\n      swap2\n      pop\n      pop\n      jump\t// out\n        /* \"#utility.yul\":4386:4548   */\n    tag_151:\n        /* \"#utility.yul\":4483:4487   */\n      0x00\n        /* \"#utility.yul\":4506:4509   */\n      dup2\n        /* \"#utility.yul\":4498:4509   */\n      swap1\n      pop\n        /* \"#utility.yul\":4536:4540   */\n      0x20\n        /* \"#utility.yul\":4531:4534   */\n      dup3\n        /* \"#utility.yul\":4527:4541   */\n      add\n        /* \"#utility.yul\":4519:4541   */\n      swap1\n      pop\n        /* \"#utility.yul\":4386:4548   */\n      swap2\n      swap1\n      pop\n      jump\t// out\n        /* \"#utility.yul\":4554:4662   */\n    tag_152:\n        /* \"#utility.yul\":4631:4655   */\n      tag_248\n        /* \"#utility.yul\":4649:4654   */\n      dup2\n        /* \"#utility.yul\":4631:4655   */\n      tag_135\n      jump\t// in\n    tag_248:\n        /* \"#utility.yul\":4626:4629   */\n      dup3\n        /* \"#utility.yul\":4619:4656   */\n      mstore\n        /* \"#utility.yul\":4554:4662   */\n      pop\n      pop\n      jump\t// out\n        /* \"#utility.yul\":4668:4827   */\n    tag_153:\n        /* \"#utility.yul\":4742:4753   */\n      0x00\n        /* \"#utility.yul\":4776:4782   */\n      dup3\n        /* \"#utility.yul\":4771:4774   */\n      dup3\n        /* \"#utility.yul\":4764:4783   */\n      mstore\n        /* \"#utility.yul\":4816:4820   */\n      0x20\n        /* \"#utility.yul\":4811:4814   */\n      dup3\n        /* \"#utility.yul\":4807:4821   */\n      add\n        /* \"#utility.yul\":4792:4821   */\n      swap1\n      pop\n        /* \"#utility.yul\":4668:4827   */\n      swap3\n      swap2\n      pop\n      pop\n      jump\t// out\n        /* \"#utility.yul\":4833:5190   */\n    tag_154:\n        /* \"#utility.yul\":4911:4914   */\n      0x00\n        /* \"#utility.yul\":4939:4978   */\n      tag_251\n        /* \"#utility.yul\":4972:4977   */\n      dup3\n        /* \"#utility.yul\":4939:4978   */\n      tag_144\n      jump\t// in\n    tag_251:\n        /* \"#utility.yul\":4994:5055   */\n      tag_252\n        /* \"#utility.yul\":5048:5054   */\n      dup2\n        /* \"#utility.yul\":5043:5046   */\n      dup6\n        /* \"#utility.yul\":4994:5055   */\n      tag_153\n      jump\t// in\n    tag_252:\n        /* \"#utility.yul\":4987:5055   */\n      swap4\n      pop\n        /* \"#utility.yul\":5064:5129   */\n      tag_253\n        /* \"#utility.yul\":5122:5128   */\n      dup2\n        /* \"#utility.yul\":5117:5120   */\n      dup6\n        /* \"#utility.yul\":5110:5114   */\n      0x20\n        /* \"#utility.yul\":5103:5108   */\n      dup7\n        /* \"#utility.yul\":5099:5115   */\n      add\n        /* \"#utility.yul\":5064:5129   */\n      tag_146\n      jump\t// in\n    tag_253:\n        /* \"#utility.yul\":5154:5183   */\n      tag_254\n        /* \"#utility.yul\":5176:5182   */\n      dup2\n        /* \"#utility.yul\":5154:5183   */\n      tag_147\n      jump\t// in\n    tag_254:\n        /* \"#utility.yul\":5149:5152   */\n      dup5\n        /* \"#utility.yul\":5145:5184   */\n      add\n        /* \"#utility.yul\":5138:5184   */\n      swap2\n      pop\n        /* \"#utility.yul\":4915:5190   */\n      pop\n        /* \"#utility.yul\":4833:5190   */\n      swap3\n      swap2\n      pop\n      pop\n      jump\t// out\n        /* \"#utility.yul\":5196:5304   */\n    tag_155:\n        /* \"#utility.yul\":5273:5297   */\n      tag_256\n        /* \"#utility.yul\":5291:5296   */\n      dup2\n        /* \"#utility.yul\":5273:5297   */\n      tag_139\n      jump\t// in\n    tag_256:\n        /* \"#utility.yul\":5268:5271   */\n      dup3\n        /* \"#utility.yul\":5261:5298   */\n      mstore\n        /* \"#utility.yul\":5196:5304   */\n      pop\n      pop\n      jump\t// out\n        /* \"#utility.yul\":5310:5434   */\n    tag_156:\n        /* \"#utility.yul\":5387:5393   */\n      0x00\n        /* \"#utility.yul\":5421:5426   */\n      dup2\n        /* \"#utility.yul\":5415:5427   */\n      mload\n        /* \"#utility.yul\":5405:5427   */\n      swap1\n      pop\n        /* \"#utility.yul\":5310:5434   */\n      swap2\n      swap1\n      pop\n      jump\t// out\n        /* \"#utility.yul\":5440:5624   */\n    tag_157:\n        /* \"#utility.yul\":5539:5550   */\n      0x00\n        /* \"#utility.yul\":5573:5579   */\n      dup3\n        /* \"#utility.yul\":5568:5571   */\n      dup3\n        /* \"#utility.yul\":5561:5580   */\n      mstore\n        /* \"#utility.yul\":5613:5617   */\n      0x20\n        /* \"#utility.yul\":5608:5611   */\n      dup3\n        /* \"#utility.yul\":5604:5618   */\n      add\n        /* \"#utility.yul\":5589:5618   */\n      swap1\n      pop\n        /* \"#utility.yul\":5440:5624   */\n      swap3\n      swap2\n      pop\n      pop\n      jump\t// out\n        /* \"#utility.yul\":5630:5772   */\n    tag_158:\n        /* \"#utility.yul\":5707:5711   */\n      0x00\n        /* \"#utility.yul\":5730:5733   */\n      dup2\n        /* \"#utility.yul\":5722:5733   */\n      swap1\n      pop\n        /* \"#utility.yul\":5760:5764   */\n      0x20\n        /* \"#utility.yul\":5755:5758   */\n      dup3\n        /* \"#utility.yul\":5751:5765   */\n      add\n        /* \"#utility.yul\":5743:5765   */\n      swap1\n      pop\n        /* \"#utility.yul\":5630:5772   */\n      swap2\n      swap1\n      pop\n      jump\t// out\n        /* \"#utility.yul\":5778:5974   */\n    tag_159:\n        /* \"#utility.yul\":5867:5877   */\n      0x00\n        /* \"#utility.yul\":5902:5968   */\n      tag_261\n        /* \"#utility.yul\":5964:5967   */\n      dup4\n        /* \"#utility.yul\":5956:5962   */\n      dup4\n        /* \"#utility.yul\":5902:5968   */\n      tag_154\n      jump\t// in\n    tag_261:\n        /* \"#utility.yul\":5888:5968   */\n      swap1\n      pop\n        /* \"#utility.yul\":5778:5974   */\n      swap3\n      swap2\n      pop\n      pop\n      jump\t// out\n        /* \"#utility.yul\":5980:6103   */\n    tag_160:\n        /* \"#utility.yul\":6060:6064   */\n      0x00\n        /* \"#utility.yul\":6092:6096   */\n      0x20\n        /* \"#utility.yul\":6087:6090   */\n      dup3\n        /* \"#utility.yul\":6083:6097   */\n      add\n        /* \"#utility.yul\":6075:6097   */\n      swap1\n      pop\n        /* \"#utility.yul\":5980:6103   */\n      swap2\n      swap1\n      pop\n      jump\t// out\n        /* \"#utility.yul\":6137:7108   */\n    tag_161:\n        /* \"#utility.yul\":6266:6269   */\n      0x00\n        /* \"#utility.yul\":6295:6359   */\n      tag_264\n        /* \"#utility.yul\":6353:6358   */\n      dup3\n        /* \"#utility.yul\":6295:6359   */\n      tag_156\n      jump\t// in\n    tag_264:\n        /* \"#utility.yul\":6375:6461   */\n      tag_265\n        /* \"#utility.yul\":6454:6460   */\n      dup2\n        /* \"#utility.yul\":6449:6452   */\n      dup6\n        /* \"#utility.yul\":6375:6461   */\n      tag_157\n      jump\t// in\n    tag_265:\n        /* \"#utility.yul\":6368:6461   */\n      swap4\n      pop\n        /* \"#utility.yul\":6487:6490   */\n      dup4\n        /* \"#utility.yul\":6532:6536   */\n      0x20\n        /* \"#utility.yul\":6524:6530   */\n      dup3\n        /* \"#utility.yul\":6520:6537   */\n      mul\n        /* \"#utility.yul\":6515:6518   */\n      dup6\n        /* \"#utility.yul\":6511:6538   */\n      add\n        /* \"#utility.yul\":6562:6628   */\n      tag_266\n        /* \"#utility.yul\":6622:6627   */\n      dup6\n        /* \"#utility.yul\":6562:6628   */\n      tag_158\n      jump\t// in\n    tag_266:\n        /* \"#utility.yul\":6651:6658   */\n      dup1\n        /* \"#utility.yul\":6682:6683   */\n      0x00\n        /* \"#utility.yul\":6667:7063   */\n    tag_267:\n        /* \"#utility.yul\":6692:6698   */\n      dup6\n        /* \"#utility.yul\":6689:6690   */\n      dup2\n        /* \"#utility.yul\":6686:6699   */\n      lt\n        /* \"#utility.yul\":6667:7063   */\n      iszero\n      tag_269\n      jumpi\n        /* \"#utility.yul\":6763:6772   */\n      dup5\n        /* \"#utility.yul\":6757:6761   */\n      dup5\n        /* \"#utility.yul\":6753:6773   */\n      sub\n        /* \"#utility.yul\":6748:6751   */\n      dup10\n        /* \"#utility.yul\":6741:6774   */\n      mstore\n        /* \"#utility.yul\":6814:6820   */\n      dup2\n        /* \"#utility.yul\":6808:6821   */\n      mload\n        /* \"#utility.yul\":6842:6926   */\n      tag_270\n        /* \"#utility.yul\":6921:6925   */\n      dup6\n        /* \"#utility.yul\":6906:6919   */\n      dup3\n        /* \"#utility.yul\":6842:6926   */\n      tag_159\n      jump\t// in\n    tag_270:\n        /* \"#utility.yul\":6834:6926   */\n      swap5\n      pop\n        /* \"#utility.yul\":6949:7019   */\n      tag_271\n        /* \"#utility.yul\":7012:7018   */\n      dup4\n        /* \"#utility.yul\":6949:7019   */\n      tag_160\n      jump\t// in\n    tag_271:\n        /* \"#utility.yul\":6939:7019   */\n      swap3\n      pop\n        /* \"#utility.yul\":7048:7052   */\n      0x20\n        /* \"#utility.yul\":7043:7046   */\n      dup11\n        /* \"#utility.yul\":7039:7053   */\n      add\n        /* \"#utility.yul\":7032:7053   */\n      swap10\n      pop\n        /* \"#utility.yul\":6727:7063   */\n      pop\n        /* \"#utility.yul\":6714:6715   */\n      0x01\n        /* \"#utility.yul\":6711:6712   */\n      dup2\n        /* \"#utility.yul\":6707:6716   */\n      add\n        /* \"#utility.yul\":6702:6716   */\n      swap1\n      pop\n        /* \"#utility.yul\":6667:7063   */\n      jump(tag_267)\n    tag_269:\n        /* \"#utility.yul\":6671:6685   */\n      pop\n        /* \"#utility.yul\":7079:7083   */\n      dup3\n        /* \"#utility.yul\":7072:7083   */\n      swap8\n      pop\n        /* \"#utility.yul\":7099:7102   */\n      dup8\n        /* \"#utility.yul\":7092:7102   */\n      swap6\n      pop\n        /* \"#utility.yul\":6271:7108   */\n      pop\n      pop\n      pop\n      pop\n      pop\n        /* \"#utility.yul\":6137:7108   */\n      swap3\n      swap2\n      pop\n      pop\n      jump\t// out\n        /* \"#utility.yul\":7184:9048   */\n    tag_162:\n        /* \"#utility.yul\":7303:7306   */\n      0x00\n        /* \"#utility.yul\":7339:7343   */\n      0xe0\n        /* \"#utility.yul\":7334:7337   */\n      dup4\n        /* \"#utility.yul\":7330:7344   */\n      add\n        /* \"#utility.yul\":7424:7428   */\n      0x00\n        /* \"#utility.yul\":7417:7422   */\n      dup4\n        /* \"#utility.yul\":7413:7429   */\n      add\n        /* \"#utility.yul\":7407:7430   */\n      mload\n        /* \"#utility.yul\":7443:7506   */\n      tag_273\n        /* \"#utility.yul\":7500:7504   */\n      0x00\n        /* \"#utility.yul\":7495:7498   */\n      dup7\n        /* \"#utility.yul\":7491:7505   */\n      add\n        /* \"#utility.yul\":7477:7489   */\n      dup3\n        /* \"#utility.yul\":7443:7506   */\n      tag_152\n      jump\t// in\n    tag_273:\n        /* \"#utility.yul\":7354:7516   */\n      pop\n        /* \"#utility.yul\":7598:7602   */\n      0x20\n        /* \"#utility.yul\":7591:7596   */\n      dup4\n        /* \"#utility.yul\":7587:7603   */\n      add\n        /* \"#utility.yul\":7581:7604   */\n      mload\n        /* \"#utility.yul\":7651:7654   */\n      dup5\n        /* \"#utility.yul\":7645:7649   */\n      dup3\n        /* \"#utility.yul\":7641:7655   */\n      sub\n        /* \"#utility.yul\":7634:7638   */\n      0x20\n        /* \"#utility.yul\":7629:7632   */\n      dup7\n        /* \"#utility.yul\":7625:7639   */\n      add\n        /* \"#utility.yul\":7618:7656   */\n      mstore\n        /* \"#utility.yul\":7677:7750   */\n      tag_274\n        /* \"#utility.yul\":7745:7749   */\n      dup3\n        /* \"#utility.yul\":7731:7743   */\n      dup3\n        /* \"#utility.yul\":7677:7750   */\n      tag_154\n      jump\t// in\n    tag_274:\n        /* \"#utility.yul\":7669:7750   */\n      swap2\n      pop\n        /* \"#utility.yul\":7526:7761   */\n      pop\n        /* \"#utility.yul\":7842:7846   */\n      0x40\n        /* \"#utility.yul\":7835:7840   */\n      dup4\n        /* \"#utility.yul\":7831:7847   */\n      add\n        /* \"#utility.yul\":7825:7848   */\n      mload\n        /* \"#utility.yul\":7861:7924   */\n      tag_275\n        /* \"#utility.yul\":7918:7922   */\n      0x40\n        /* \"#utility.yul\":7913:7916   */\n      dup7\n        /* \"#utility.yul\":7909:7923   */\n      add\n        /* \"#utility.yul\":7895:7907   */\n      dup3\n        /* \"#utility.yul\":7861:7924   */\n      tag_152\n      jump\t// in\n    tag_275:\n        /* \"#utility.yul\":7771:7934   */\n      pop\n        /* \"#utility.yul\":8025:8029   */\n      0x60\n        /* \"#utility.yul\":8018:8023   */\n      dup4\n        /* \"#utility.yul\":8014:8030   */\n      add\n        /* \"#utility.yul\":8008:8031   */\n      mload\n        /* \"#utility.yul\":8044:8107   */\n      tag_276\n        /* \"#utility.yul\":8101:8105   */\n      0x60\n        /* \"#utility.yul\":8096:8099   */\n      dup7\n        /* \"#utility.yul\":8092:8106   */\n      add\n        /* \"#utility.yul\":8078:8090   */\n      dup3\n        /* \"#utility.yul\":8044:8107   */\n      tag_155\n      jump\t// in\n    tag_276:\n        /* \"#utility.yul\":7944:8117   */\n      pop\n        /* \"#utility.yul\":8203:8207   */\n      0x80\n        /* \"#utility.yul\":8196:8201   */\n      dup4\n        /* \"#utility.yul\":8192:8208   */\n      add\n        /* \"#utility.yul\":8186:8209   */\n      mload\n        /* \"#utility.yul\":8256:8259   */\n      dup5\n        /* \"#utility.yul\":8250:8254   */\n      dup3\n        /* \"#utility.yul\":8246:8260   */\n      sub\n        /* \"#utility.yul\":8239:8243   */\n      0x80\n        /* \"#utility.yul\":8234:8237   */\n      dup7\n        /* \"#utility.yul\":8230:8244   */\n      add\n        /* \"#utility.yul\":8223:8261   */\n      mstore\n        /* \"#utility.yul\":8282:8405   */\n      tag_277\n        /* \"#utility.yul\":8400:8404   */\n      dup3\n        /* \"#utility.yul\":8386:8398   */\n      dup3\n        /* \"#utility.yul\":8282:8405   */\n      tag_161\n      jump\t// in\n    tag_277:\n        /* \"#utility.yul\":8274:8405   */\n      swap2\n      pop\n        /* \"#utility.yul\":8127:8416   */\n      pop\n        /* \"#utility.yul\":8503:8507   */\n      0xa0\n        /* \"#utility.yul\":8496:8501   */\n      dup4\n        /* \"#utility.yul\":8492:8508   */\n      add\n        /* \"#utility.yul\":8486:8509   */\n      mload\n        /* \"#utility.yul\":8556:8559   */\n      dup5\n        /* \"#utility.yul\":8550:8554   */\n      dup3\n        /* \"#utility.yul\":8546:8560   */\n      sub\n        /* \"#utility.yul\":8539:8543   */\n      0xa0\n        /* \"#utility.yul\":8534:8537   */\n      dup7\n        /* \"#utility.yul\":8530:8544   */\n      add\n        /* \"#utility.yul\":8523:8561   */\n      mstore\n        /* \"#utility.yul\":8582:8705   */\n      tag_278\n        /* \"#utility.yul\":8700:8704   */\n      dup3\n        /* \"#utility.yul\":8686:8698   */\n      dup3\n        /* \"#utility.yul\":8582:8705   */\n      tag_161\n      jump\t// in\n    tag_278:\n        /* \"#utility.yul\":8574:8705   */\n      swap2\n      pop\n        /* \"#utility.yul\":8426:8716   */\n      pop\n        /* \"#utility.yul\":8808:8812   */\n      0xc0\n        /* \"#utility.yul\":8801:8806   */\n      dup4\n        /* \"#utility.yul\":8797:8813   */\n      add\n        /* \"#utility.yul\":8791:8814   */\n      mload\n        /* \"#utility.yul\":8861:8864   */\n      dup5\n        /* \"#utility.yul\":8855:8859   */\n      dup3\n        /* \"#utility.yul\":8851:8865   */\n      sub\n        /* \"#utility.yul\":8844:8848   */\n      0xc0\n        /* \"#utility.yul\":8839:8842   */\n      dup7\n        /* \"#utility.yul\":8835:8849   */\n      add\n        /* \"#utility.yul\":8828:8866   */\n      mstore\n        /* \"#utility.yul\":8887:9010   */\n      tag_279\n        /* \"#utility.yul\":9005:9009   */\n      dup3\n        /* \"#utility.yul\":8991:9003   */\n      dup3\n        /* \"#utility.yul\":8887:9010   */\n      tag_161\n      jump\t// in\n    tag_279:\n        /* \"#utility.yul\":8879:9010   */\n      swap2\n      pop\n        /* \"#utility.yul\":8726:9021   */\n      pop\n        /* \"#utility.yul\":9038:9042   */\n      dup1\n        /* \"#utility.yul\":9031:9042   */\n      swap2\n      pop\n        /* \"#utility.yul\":7308:9048   */\n      pop\n        /* \"#utility.yul\":7184:9048   */\n      swap3\n      swap2\n      pop\n      pop\n      jump\t// out\n        /* \"#utility.yul\":9054:9330   */\n    tag_163:\n        /* \"#utility.yul\":9183:9193   */\n      0x00\n        /* \"#utility.yul\":9218:9324   */\n      tag_281\n        /* \"#utility.yul\":9320:9323   */\n      dup4\n        /* \"#utility.yul\":9312:9318   */\n      dup4\n        /* \"#utility.yul\":9218:9324   */\n      tag_162\n      jump\t// in\n    tag_281:\n        /* \"#utility.yul\":9204:9324   */\n      swap1\n      pop\n        /* \"#utility.yul\":9054:9330   */\n      swap3\n      swap2\n      pop\n      pop\n      jump\t// out\n        /* \"#utility.yul\":9336:9479   */\n    tag_164:\n        /* \"#utility.yul\":9436:9440   */\n      0x00\n        /* \"#utility.yul\":9468:9472   */\n      0x20\n        /* \"#utility.yul\":9463:9466   */\n      dup3\n        /* \"#utility.yul\":9459:9473   */\n      add\n        /* \"#utility.yul\":9451:9473   */\n      swap1\n      pop\n        /* \"#utility.yul\":9336:9479   */\n      swap2\n      swap1\n      pop\n      jump\t// out\n        /* \"#utility.yul\":9559:10710   */\n    tag_165:\n        /* \"#utility.yul\":9738:9741   */\n      0x00\n        /* \"#utility.yul\":9767:9851   */\n      tag_284\n        /* \"#utility.yul\":9845:9850   */\n      dup3\n        /* \"#utility.yul\":9767:9851   */\n      tag_149\n      jump\t// in\n    tag_284:\n        /* \"#utility.yul\":9867:9983   */\n      tag_285\n        /* \"#utility.yul\":9976:9982   */\n      dup2\n        /* \"#utility.yul\":9971:9974   */\n      dup6\n        /* \"#utility.yul\":9867:9983   */\n      tag_150\n      jump\t// in\n    tag_285:\n        /* \"#utility.yul\":9860:9983   */\n      swap4\n      pop\n        /* \"#utility.yul\":10009:10012   */\n      dup4\n        /* \"#utility.yul\":10054:10058   */\n      0x20\n        /* \"#utility.yul\":10046:10052   */\n      dup3\n        /* \"#utility.yul\":10042:10059   */\n      mul\n        /* \"#utility.yul\":10037:10040   */\n      dup6\n        /* \"#utility.yul\":10033:10060   */\n      add\n        /* \"#utility.yul\":10084:10170   */\n      tag_286\n        /* \"#utility.yul\":10164:10169   */\n      dup6\n        /* \"#utility.yul\":10084:10170   */\n      tag_151\n      jump\t// in\n    tag_286:\n        /* \"#utility.yul\":10193:10200   */\n      dup1\n        /* \"#utility.yul\":10224:10225   */\n      0x00\n        /* \"#utility.yul\":10209:10665   */\n    tag_287:\n        /* \"#utility.yul\":10234:10240   */\n      dup6\n        /* \"#utility.yul\":10231:10232   */\n      dup2\n        /* \"#utility.yul\":10228:10241   */\n      lt\n        /* \"#utility.yul\":10209:10665   */\n      iszero\n      tag_289\n      jumpi\n        /* \"#utility.yul\":10305:10314   */\n      dup5\n        /* \"#utility.yul\":10299:10303   */\n      dup5\n        /* \"#utility.yul\":10295:10315   */\n      sub\n        /* \"#utility.yul\":10290:10293   */\n      dup10\n        /* \"#utility.yul\":10283:10316   */\n      mstore\n        /* \"#utility.yul\":10356:10362   */\n      dup2\n        /* \"#utility.yul\":10350:10363   */\n      mload\n        /* \"#utility.yul\":10384:10508   */\n      tag_290\n        /* \"#utility.yul\":10503:10507   */\n      dup6\n        /* \"#utility.yul\":10488:10501   */\n      dup3\n        /* \"#utility.yul\":10384:10508   */\n      tag_163\n      jump\t// in\n    tag_290:\n        /* \"#utility.yul\":10376:10508   */\n      swap5\n      pop\n        /* \"#utility.yul\":10531:10621   */\n      tag_291\n        /* \"#utility.yul\":10614:10620   */\n      dup4\n        /* \"#utility.yul\":10531:10621   */\n      tag_164\n      jump\t// in\n    tag_291:\n        /* \"#utility.yul\":10521:10621   */\n      swap3\n      pop\n        /* \"#utility.yul\":10650:10654   */\n      0x20\n        /* \"#utility.yul\":10645:10648   */\n      dup11\n        /* \"#utility.yul\":10641:10655   */\n      add\n        /* \"#utility.yul\":10634:10655   */\n      swap10\n      pop\n        /* \"#utility.yul\":10269:10665   */\n      pop\n        /* \"#utility.yul\":10256:10257   */\n      0x01\n        /* \"#utility.yul\":10253:10254   */\n      dup2\n        /* \"#utility.yul\":10249:10258   */\n      add\n        /* \"#utility.yul\":10244:10258   */\n      swap1\n      pop\n        /* \"#utility.yul\":10209:10665   */\n      jump(tag_287)\n    tag_289:\n        /* \"#utility.yul\":10213:10227   */\n      pop\n        /* \"#utility.yul\":10681:10685   */\n      dup3\n        /* \"#utility.yul\":10674:10685   */\n      swap8\n      pop\n        /* \"#utility.yul\":10701:10704   */\n      dup8\n        /* \"#utility.yul\":10694:10704   */\n      swap6\n      pop\n        /* \"#utility.yul\":9743:10710   */\n      pop\n      pop\n      pop\n      pop\n      pop\n        /* \"#utility.yul\":9559:10710   */\n      swap3\n      swap2\n      pop\n      pop\n      jump\t// out\n        /* \"#utility.yul\":10716:11209   */\n    tag_24:\n        /* \"#utility.yul\":10919:10923   */\n      0x00\n        /* \"#utility.yul\":10957:10959   */\n      0x20\n        /* \"#utility.yul\":10946:10955   */\n      dup3\n        /* \"#utility.yul\":10942:10960   */\n      add\n        /* \"#utility.yul\":10934:10960   */\n      swap1\n      pop\n        /* \"#utility.yul\":11006:11015   */\n      dup2\n        /* \"#utility.yul\":11000:11004   */\n      dup2\n        /* \"#utility.yul\":10996:11016   */\n      sub\n        /* \"#utility.yul\":10992:10993   */\n      0x00\n        /* \"#utility.yul\":10981:10990   */\n      dup4\n        /* \"#utility.yul\":10977:10994   */\n      add\n        /* \"#utility.yul\":10970:11017   */\n      mstore\n        /* \"#utility.yul\":11034:11202   */\n      tag_293\n        /* \"#utility.yul\":11197:11201   */\n      dup2\n        /* \"#utility.yul\":11188:11194   */\n      dup5\n        /* \"#utility.yul\":11034:11202   */\n      tag_165\n      jump\t// in\n    tag_293:\n        /* \"#utility.yul\":11026:11202   */\n      swap1\n      pop\n        /* \"#utility.yul\":10716:11209   */\n      swap3\n      swap2\n      pop\n      pop\n      jump\t// out\n        /* \"#utility.yul\":11215:11332   */\n    tag_166:\n        /* \"#utility.yul\":11324:11325   */\n      0x00\n        /* \"#utility.yul\":11321:11322   */\n      dup1\n        /* \"#utility.yul\":11314:11326   */\n      revert\n        /* \"#utility.yul\":11338:11455   */\n    tag_167:\n        /* \"#utility.yul\":11447:11448   */\n      0x00\n        /* \"#utility.yul\":11444:11445   */\n      dup1\n        /* \"#utility.yul\":11437:11449   */\n      revert\n        /* \"#utility.yul\":11461:11641   */\n    tag_48:\n        /* \"#utility.yul\":11509:11586   */\n      0x4e487b7100000000000000000000000000000000000000000000000000000000\n        /* \"#utility.yul\":11506:11507   */\n      0x00\n        /* \"#utility.yul\":11499:11587   */\n      mstore\n        /* \"#utility.yul\":11606:11610   */\n      0x41\n        /* \"#utility.yul\":11603:11604   */\n      0x04\n        /* \"#utility.yul\":11596:11611   */\n      mstore\n        /* \"#utility.yul\":11630:11634   */\n      0x24\n        /* \"#utility.yul\":11627:11628   */\n      0x00\n        /* \"#utility.yul\":11620:11635   */\n      revert\n        /* \"#utility.yul\":11647:11928   */\n    tag_168:\n        /* \"#utility.yul\":11730:11757   */\n      tag_298\n        /* \"#utility.yul\":11752:11756   */\n      dup3\n        /* \"#utility.yul\":11730:11757   */\n      tag_147\n      jump\t// in\n    tag_298:\n        /* \"#utility.yul\":11722:11728   */\n      dup2\n        /* \"#utility.yul\":11718:11758   */\n      add\n        /* \"#utility.yul\":11860:11866   */\n      dup2\n        /* \"#utility.yul\":11848:11858   */\n      dup2\n        /* \"#utility.yul\":11845:11867   */\n      lt\n        /* \"#utility.yul\":11824:11842   */\n      0xffffffffffffffff\n        /* \"#utility.yul\":11812:11822   */\n      dup3\n        /* \"#utility.yul\":11809:11843   */\n      gt\n        /* \"#utility.yul\":11806:11868   */\n      or\n        /* \"#utility.yul\":11803:11891   */\n      iszero\n      tag_299\n      jumpi\n        /* \"#utility.yul\":11871:11889   */\n      tag_300\n      tag_48\n      jump\t// in\n    tag_300:\n        /* \"#utility.yul\":11803:11891   */\n    tag_299:\n        /* \"#utility.yul\":11911:11921   */\n      dup1\n        /* \"#utility.yul\":11907:11909   */\n      0x40\n        /* \"#utility.yul\":11900:11922   */\n      mstore\n        /* \"#utility.yul\":11690:11928   */\n      pop\n        /* \"#utility.yul\":11647:11928   */\n      pop\n      pop\n      jump\t// out\n        /* \"#utility.yul\":11934:12063   */\n    tag_169:\n        /* \"#utility.yul\":11968:11974   */\n      0x00\n        /* \"#utility.yul\":11995:12015   */\n      tag_302\n      tag_132\n      jump\t// in\n    tag_302:\n        /* \"#utility.yul\":11985:12015   */\n      swap1\n      pop\n        /* \"#utility.yul\":12024:12057   */\n      tag_303\n        /* \"#utility.yul\":12052:12056   */\n      dup3\n        /* \"#utility.yul\":12044:12050   */\n      dup3\n        /* \"#utility.yul\":12024:12057   */\n      tag_168\n      jump\t// in\n    tag_303:\n        /* \"#utility.yul\":11934:12063   */\n      swap2\n      swap1\n      pop\n      jump\t// out\n        /* \"#utility.yul\":12069:12377   */\n    tag_170:\n        /* \"#utility.yul\":12131:12135   */\n      0x00\n        /* \"#utility.yul\":12221:12239   */\n      0xffffffffffffffff\n        /* \"#utility.yul\":12213:12219   */\n      dup3\n        /* \"#utility.yul\":12210:12240   */\n      gt\n        /* \"#utility.yul\":12207:12263   */\n      iszero\n      tag_305\n      jumpi\n        /* \"#utility.yul\":12243:12261   */\n      tag_306\n      tag_48\n      jump\t// in\n    tag_306:\n        /* \"#utility.yul\":12207:12263   */\n    tag_305:\n        /* \"#utility.yul\":12281:12310   */\n      tag_307\n        /* \"#utility.yul\":12303:12309   */\n      dup3\n        /* \"#utility.yul\":12281:12310   */\n      tag_147\n      jump\t// in\n    tag_307:\n        /* \"#utility.yul\":12273:12310   */\n      swap1\n      pop\n        /* \"#utility.yul\":12365:12369   */\n      0x20\n        /* \"#utility.yul\":12359:12363   */\n      dup2\n        /* \"#utility.yul\":12355:12370   */\n      add\n        /* \"#utility.yul\":12347:12370   */\n      swap1\n      pop\n        /* \"#utility.yul\":12069:12377   */\n      swap2\n      swap1\n      pop\n      jump\t// out\n        /* \"#utility.yul\":12383:12529   */\n    tag_171:\n        /* \"#utility.yul\":12480:12486   */\n      dup3\n        /* \"#utility.yul\":12475:12478   */\n      dup2\n        /* \"#utility.yul\":12470:12473   */\n      dup4\n        /* \"#utility.yul\":12457:12487   */\n      calldatacopy\n        /* \"#utility.yul\":12521:12522   */\n      0x00\n        /* \"#utility.yul\":12512:12518   */\n      dup4\n        /* \"#utility.yul\":12507:12510   */\n      dup4\n        /* \"#utility.yul\":12503:12519   */\n      add\n        /* \"#utility.yul\":12496:12523   */\n      mstore\n        /* \"#utility.yul\":12383:12529   */\n      pop\n      pop\n      pop\n      jump\t// out\n        /* \"#utility.yul\":12535:12960   */\n    tag_172:\n        /* \"#utility.yul\":12613:12618   */\n      0x00\n        /* \"#utility.yul\":12638:12704   */\n      tag_310\n        /* \"#utility.yul\":12654:12703   */\n      tag_311\n        /* \"#utility.yul\":12696:12702   */\n      dup5\n        /* \"#utility.yul\":12654:12703   */\n      tag_170\n      jump\t// in\n    tag_311:\n        /* \"#utility.yul\":12638:12704   */\n      tag_169\n      jump\t// in\n    tag_310:\n        /* \"#utility.yul\":12629:12704   */\n      swap1\n      pop\n        /* \"#utility.yul\":12727:12733   */\n      dup3\n        /* \"#utility.yul\":12720:12725   */\n      dup2\n        /* \"#utility.yul\":12713:12734   */\n      mstore\n        /* \"#utility.yul\":12765:12769   */\n      0x20\n        /* \"#utility.yul\":12758:12763   */\n      dup2\n        /* \"#utility.yul\":12754:12770   */\n      add\n        /* \"#utility.yul\":12803:12806   */\n      dup5\n        /* \"#utility.yul\":12794:12800   */\n      dup5\n        /* \"#utility.yul\":12789:12792   */\n      dup5\n        /* \"#utility.yul\":12785:12801   */\n      add\n        /* \"#utility.yul\":12782:12807   */\n      gt\n        /* \"#utility.yul\":12779:12891   */\n      iszero\n      tag_312\n      jumpi\n        /* \"#utility.yul\":12810:12889   */\n      tag_313\n      tag_167\n      jump\t// in\n    tag_313:\n        /* \"#utility.yul\":12779:12891   */\n    tag_312:\n        /* \"#utility.yul\":12900:12954   */\n      tag_314\n        /* \"#utility.yul\":12947:12953   */\n      dup5\n        /* \"#utility.yul\":12942:12945   */\n      dup3\n        /* \"#utility.yul\":12937:12940   */\n      dup6\n        /* \"#utility.yul\":12900:12954   */\n      tag_171\n      jump\t// in\n    tag_314:\n        /* \"#utility.yul\":12619:12960   */\n      pop\n        /* \"#utility.yul\":12535:12960   */\n      swap4\n      swap3\n      pop\n      pop\n      pop\n      jump\t// out\n        /* \"#utility.yul\":12980:13320   */\n    tag_173:\n        /* \"#utility.yul\":13036:13041   */\n      0x00\n        /* \"#utility.yul\":13085:13088   */\n      dup3\n        /* \"#utility.yul\":13078:13082   */\n      0x1f\n        /* \"#utility.yul\":13070:13076   */\n      dup4\n        /* \"#utility.yul\":13066:13083   */\n      add\n        /* \"#utility.yul\":13062:13089   */\n      slt\n        /* \"#utility.yul\":13052:13174   */\n      tag_316\n      jumpi\n        /* \"#utility.yul\":13093:13172   */\n      tag_317\n      tag_166\n      jump\t// in\n    tag_317:\n        /* \"#utility.yul\":13052:13174   */\n    tag_316:\n        /* \"#utility.yul\":13210:13216   */\n      dup2\n        /* \"#utility.yul\":13197:13217   */\n      calldataload\n        /* \"#utility.yul\":13235:13314   */\n      tag_318\n        /* \"#utility.yul\":13310:13313   */\n      dup5\n        /* \"#utility.yul\":13302:13308   */\n      dup3\n        /* \"#utility.yul\":13295:13299   */\n      0x20\n        /* \"#utility.yul\":13287:13293   */\n      dup7\n        /* \"#utility.yul\":13283:13300   */\n      add\n        /* \"#utility.yul\":13235:13314   */\n      tag_172\n      jump\t// in\n    tag_318:\n        /* \"#utility.yul\":13226:13314   */\n      swap2\n      pop\n        /* \"#utility.yul\":13042:13320   */\n      pop\n        /* \"#utility.yul\":12980:13320   */\n      swap3\n      swap2\n      pop\n      pop\n      jump\t// out\n        /* \"#utility.yul\":13326:13980   */\n    tag_27:\n        /* \"#utility.yul\":13404:13410   */\n      0x00\n        /* \"#utility.yul\":13412:13418   */\n      dup1\n        /* \"#utility.yul\":13461:13463   */\n      0x40\n        /* \"#utility.yul\":13449:13458   */\n      dup4\n        /* \"#utility.yul\":13440:13447   */\n      dup6\n        /* \"#utility.yul\":13436:13459   */\n      sub\n        /* \"#utility.yul\":13432:13464   */\n      slt\n        /* \"#utility.yul\":13429:13548   */\n      iszero\n      tag_320\n      jumpi\n        /* \"#utility.yul\":13467:13546   */\n      tag_321\n      tag_133\n      jump\t// in\n    tag_321:\n        /* \"#utility.yul\":13429:13548   */\n    tag_320:\n        /* \"#utility.yul\":13615:13616   */\n      0x00\n        /* \"#utility.yul\":13604:13613   */\n      dup4\n        /* \"#utility.yul\":13600:13617   */\n      add\n        /* \"#utility.yul\":13587:13618   */\n      calldataload\n        /* \"#utility.yul\":13645:13663   */\n      0xffffffffffffffff\n        /* \"#utility.yul\":13637:13643   */\n      dup2\n        /* \"#utility.yul\":13634:13664   */\n      gt\n        /* \"#utility.yul\":13631:13748   */\n      iszero\n      tag_322\n      jumpi\n        /* \"#utility.yul\":13667:13746   */\n      tag_323\n      tag_134\n      jump\t// in\n    tag_323:\n        /* \"#utility.yul\":13631:13748   */\n    tag_322:\n        /* \"#utility.yul\":13772:13835   */\n      tag_324\n        /* \"#utility.yul\":13827:13834   */\n      dup6\n        /* \"#utility.yul\":13818:13824   */\n      dup3\n        /* \"#utility.yul\":13807:13816   */\n      dup7\n        /* \"#utility.yul\":13803:13825   */\n      add\n        /* \"#utility.yul\":13772:13835   */\n      tag_173\n      jump\t// in\n    tag_324:\n        /* \"#utility.yul\":13762:13835   */\n      swap3\n      pop\n        /* \"#utility.yul\":13558:13845   */\n      pop\n        /* \"#utility.yul\":13884:13886   */\n      0x20\n        /* \"#utility.yul\":13910:13963   */\n      tag_325\n        /* \"#utility.yul\":13955:13962   */\n      dup6\n        /* \"#utility.yul\":13946:13952   */\n      dup3\n        /* \"#utility.yul\":13935:13944   */\n      dup7\n        /* \"#utility.yul\":13931:13953   */\n      add\n        /* \"#utility.yul\":13910:13963   */\n      tag_137\n      jump\t// in\n    tag_325:\n        /* \"#utility.yul\":13900:13963   */\n      swap2\n      pop\n        /* \"#utility.yul\":13855:13973   */\n      pop\n        /* \"#utility.yul\":13326:13980   */\n      swap3\n      pop\n      swap3\n      swap1\n      pop\n      jump\t// out\n        /* \"#utility.yul\":13986:14076   */\n    tag_174:\n        /* \"#utility.yul\":14020:14027   */\n      0x00\n        /* \"#utility.yul\":14063:14068   */\n      dup2\n        /* \"#utility.yul\":14056:14069   */\n      iszero\n        /* \"#utility.yul\":14049:14070   */\n      iszero\n        /* \"#utility.yul\":14038:14070   */\n      swap1\n      pop\n        /* \"#utility.yul\":13986:14076   */\n      swap2\n      swap1\n      pop\n      jump\t// out\n        /* \"#utility.yul\":14082:14191   */\n    tag_175:\n        /* \"#utility.yul\":14163:14184   */\n      tag_328\n        /* \"#utility.yul\":14178:14183   */\n      dup2\n        /* \"#utility.yul\":14163:14184   */\n      tag_174\n      jump\t// in\n    tag_328:\n        /* \"#utility.yul\":14158:14161   */\n      dup3\n        /* \"#utility.yul\":14151:14185   */\n      mstore\n        /* \"#utility.yul\":14082:14191   */\n      pop\n      pop\n      jump\t// out\n        /* \"#utility.yul\":14197:14407   */\n    tag_32:\n        /* \"#utility.yul\":14284:14288   */\n      0x00\n        /* \"#utility.yul\":14322:14324   */\n      0x20\n        /* \"#utility.yul\":14311:14320   */\n      dup3\n        /* \"#utility.yul\":14307:14325   */\n      add\n        /* \"#utility.yul\":14299:14325   */\n      swap1\n      pop\n        /* \"#utility.yul\":14335:14400   */\n      tag_330\n        /* \"#utility.yul\":14397:14398   */\n      0x00\n        /* \"#utility.yul\":14386:14395   */\n      dup4\n        /* \"#utility.yul\":14382:14399   */\n      add\n        /* \"#utility.yul\":14373:14379   */\n      dup5\n        /* \"#utility.yul\":14335:14400   */\n      tag_175\n      jump\t// in\n    tag_330:\n        /* \"#utility.yul\":14197:14407   */\n      swap3\n      swap2\n      pop\n      pop\n      jump\t// out\n        /* \"#utility.yul\":14413:14635   */\n    tag_36:\n        /* \"#utility.yul\":14506:14510   */\n      0x00\n        /* \"#utility.yul\":14544:14546   */\n      0x20\n        /* \"#utility.yul\":14533:14542   */\n      dup3\n        /* \"#utility.yul\":14529:14547   */\n      add\n        /* \"#utility.yul\":14521:14547   */\n      swap1\n      pop\n        /* \"#utility.yul\":14557:14628   */\n      tag_332\n        /* \"#utility.yul\":14625:14626   */\n      0x00\n        /* \"#utility.yul\":14614:14623   */\n      dup4\n        /* \"#utility.yul\":14610:14627   */\n      add\n        /* \"#utility.yul\":14601:14607   */\n      dup5\n        /* \"#utility.yul\":14557:14628   */\n      tag_143\n      jump\t// in\n    tag_332:\n        /* \"#utility.yul\":14413:14635   */\n      swap3\n      swap2\n      pop\n      pop\n      jump\t// out\n        /* \"#utility.yul\":14641:14821   */\n    tag_176:\n        /* \"#utility.yul\":14689:14766   */\n      0x4e487b7100000000000000000000000000000000000000000000000000000000\n        /* \"#utility.yul\":14686:14687   */\n      0x00\n        /* \"#utility.yul\":14679:14767   */\n      mstore\n        /* \"#utility.yul\":14786:14790   */\n      0x22\n        /* \"#utility.yul\":14783:14784   */\n      0x04\n        /* \"#utility.yul\":14776:14791   */\n      mstore\n        /* \"#utility.yul\":14810:14814   */\n      0x24\n        /* \"#utility.yul\":14807:14808   */\n      0x00\n        /* \"#utility.yul\":14800:14815   */\n      revert\n        /* \"#utility.yul\":14827:15147   */\n    tag_40:\n        /* \"#utility.yul\":14871:14877   */\n      0x00\n        /* \"#utility.yul\":14908:14909   */\n      0x02\n        /* \"#utility.yul\":14902:14906   */\n      dup3\n        /* \"#utility.yul\":14898:14910   */\n      div\n        /* \"#utility.yul\":14888:14910   */\n      swap1\n      pop\n        /* \"#utility.yul\":14955:14956   */\n      0x01\n        /* \"#utility.yul\":14949:14953   */\n      dup3\n        /* \"#utility.yul\":14945:14957   */\n      and\n        /* \"#utility.yul\":14976:14994   */\n      dup1\n        /* \"#utility.yul\":14966:15047   */\n      tag_335\n      jumpi\n        /* \"#utility.yul\":15032:15036   */\n      0x7f\n        /* \"#utility.yul\":15024:15030   */\n      dup3\n        /* \"#utility.yul\":15020:15037   */\n      and\n        /* \"#utility.yul\":15010:15037   */\n      swap2\n      pop\n        /* \"#utility.yul\":14966:15047   */\n    tag_335:\n        /* \"#utility.yul\":15094:15096   */\n      0x20\n        /* \"#utility.yul\":15086:15092   */\n      dup3\n        /* \"#utility.yul\":15083:15097   */\n      lt\n        /* \"#utility.yul\":15063:15081   */\n      dup2\n        /* \"#utility.yul\":15060:15098   */\n      sub\n        /* \"#utility.yul\":15057:15141   */\n      tag_336\n      jumpi\n        /* \"#utility.yul\":15113:15131   */\n      tag_337\n      tag_176\n      jump\t// in\n    tag_337:\n        /* \"#utility.yul\":15057:15141   */\n    tag_336:\n        /* \"#utility.yul\":14878:15147   */\n      pop\n        /* \"#utility.yul\":14827:15147   */\n      swap2\n      swap1\n      pop\n      jump\t// out\n        /* \"#utility.yul\":15153:15333   */\n    tag_58:\n        /* \"#utility.yul\":15201:15278   */\n      0x4e487b7100000000000000000000000000000000000000000000000000000000\n        /* \"#utility.yul\":15198:15199   */\n      0x00\n        /* \"#utility.yul\":15191:15279   */\n      mstore\n        /* \"#utility.yul\":15298:15302   */\n      0x32\n        /* \"#utility.yul\":15295:15296   */\n      0x04\n        /* \"#utility.yul\":15288:15303   */\n      mstore\n        /* \"#utility.yul\":15322:15326   */\n      0x24\n        /* \"#utility.yul\":15319:15320   */\n      0x00\n        /* \"#utility.yul\":15312:15327   */\n      revert\n        /* \"#utility.yul\":15339:15519   */\n    tag_177:\n        /* \"#utility.yul\":15387:15464   */\n      0x4e487b7100000000000000000000000000000000000000000000000000000000\n        /* \"#utility.yul\":15384:15385   */\n      0x00\n        /* \"#utility.yul\":15377:15465   */\n      mstore\n        /* \"#utility.yul\":15484:15488   */\n      0x11\n        /* \"#utility.yul\":15481:15482   */\n      0x04\n        /* \"#utility.yul\":15474:15489   */\n      mstore\n        /* \"#utility.yul\":15508:15512   */\n      0x24\n        /* \"#utility.yul\":15505:15506   */\n      0x00\n        /* \"#utility.yul\":15498:15513   */\n      revert\n        /* \"#utility.yul\":15525:15758   */\n    tag_92:\n        /* \"#utility.yul\":15564:15567   */\n      0x00\n        /* \"#utility.yul\":15587:15611   */\n      tag_341\n        /* \"#utility.yul\":15605:15610   */\n      dup3\n        /* \"#utility.yul\":15587:15611   */\n      tag_135\n      jump\t// in\n    tag_341:\n        /* \"#utility.yul\":15578:15611   */\n      swap2\n      pop\n        /* \"#utility.yul\":15633:15699   */\n      0xffffffffffffffffffffffffffffffffffffffffffffffffffffffffffffffff\n        /* \"#utility.yul\":15626:15631   */\n      dup3\n        /* \"#utility.yul\":15623:15700   */\n      sub\n        /* \"#utility.yul\":15620:15723   */\n      tag_342\n      jumpi\n        /* \"#utility.yul\":15703:15721   */\n      tag_343\n      tag_177\n      jump\t// in\n    tag_343:\n        /* \"#utility.yul\":15620:15723   */\n    tag_342:\n        /* \"#utility.yul\":15750:15751   */\n      0x01\n        /* \"#utility.yul\":15743:15748   */\n      dup3\n        /* \"#utility.yul\":15739:15752   */\n      add\n        /* \"#utility.yul\":15732:15752   */\n      swap1\n      pop\n        /* \"#utility.yul\":15525:15758   */\n      swap2\n      swap1\n      pop\n      jump\t// out\n        /* \"#utility.yul\":15764:15936   */\n    tag_178:\n        /* \"#utility.yul\":15904:15928   */\n      0x50617469656e7420616c72656164792065786973747300000000000000000000\n        /* \"#utility.yul\":15900:15901   */\n      0x00\n        /* \"#utility.yul\":15892:15898   */\n      dup3\n        /* \"#utility.yul\":15888:15902   */\n      add\n        /* \"#utility.yul\":15881:15929   */\n      mstore\n        /* \"#utility.yul\":15764:15936   */\n      pop\n      jump\t// out\n        /* \"#utility.yul\":15942:16308   */\n    tag_179:\n        /* \"#utility.yul\":16084:16087   */\n      0x00\n        /* \"#utility.yul\":16105:16172   */\n      tag_346\n        /* \"#utility.yul\":16169:16171   */\n      0x16\n        /* \"#utility.yul\":16164:16167   */\n      dup4\n        /* \"#utility.yul\":16105:16172   */\n      tag_145\n      jump\t// in\n    tag_346:\n        /* \"#utility.yul\":16098:16172   */\n      swap2\n      pop\n        /* \"#utility.yul\":16181:16274   */\n      tag_347\n        /* \"#utility.yul\":16270:16273   */\n      dup3\n        /* \"#utility.yul\":16181:16274   */\n      tag_178\n      jump\t// in\n    tag_347:\n        /* \"#utility.yul\":16299:16301   */\n      0x20\n        /* \"#utility.yul\":16294:16297   */\n      dup3\n        /* \"#utility.yul\":16290:16302   */\n      add\n        /* \"#utility.yul\":16283:16302   */\n      swap1\n      pop\n        /* \"#utility.yul\":15942:16308   */\n      swap2\n      swap1\n      pop\n      jump\t// out\n        /* \"#utility.yul\":16314:16733   */\n    tag_97:\n        /* \"#utility.yul\":16480:16484   */\n      0x00\n        /* \"#utility.yul\":16518:16520   */\n      0x20\n        /* \"#utility.yul\":16507:16516   */\n      dup3\n        /* \"#utility.yul\":16503:16521   */\n      add\n        /* \"#utility.yul\":16495:16521   */\n      swap1\n      pop\n        /* \"#utility.yul\":16567:16576   */\n      dup2\n        /* \"#utility.yul\":16561:16565   */\n      dup2\n        /* \"#utility.yul\":16557:16577   */\n      sub\n        /* \"#utility.yul\":16553:16554   */\n      0x00\n        /* \"#utility.yul\":16542:16551   */\n      dup4\n        /* \"#utility.yul\":16538:16555   */\n      add\n        /* \"#utility.yul\":16531:16578   */\n      mstore\n        /* \"#utility.yul\":16595:16726   */\n      tag_349\n        /* \"#utility.yul\":16721:16725   */\n      dup2\n        /* \"#utility.yul\":16595:16726   */\n      tag_179\n      jump\t// in\n    tag_349:\n        /* \"#utility.yul\":16587:16726   */\n      swap1\n      pop\n        /* \"#utility.yul\":16314:16733   */\n      swap2\n      swap1\n      pop\n      jump\t// out\n        /* \"#utility.yul\":16739:16880   */\n    tag_180:\n        /* \"#utility.yul\":16788:16792   */\n      0x00\n        /* \"#utility.yul\":16811:16814   */\n      dup2\n        /* \"#utility.yul\":16803:16814   */\n      swap1\n      pop\n        /* \"#utility.yul\":16834:16837   */\n      dup2\n        /* \"#utility.yul\":16831:16832   */\n      0x00\n        /* \"#utility.yul\":16824:16838   */\n      mstore\n        /* \"#utility.yul\":16868:16872   */\n      0x20\n        /* \"#utility.yul\":16865:16866   */\n      0x00\n        /* \"#utility.yul\":16855:16873   */\n      keccak256\n        /* \"#utility.yul\":16847:16873   */\n      swap1\n      pop\n        /* \"#utility.yul\":16739:16880   */\n      swap2\n      swap1\n      pop\n      jump\t// out\n        /* \"#utility.yul\":16886:16979   */\n    tag_181:\n        /* \"#utility.yul\":16923:16929   */\n      0x00\n        /* \"#utility.yul\":16970:16972   */\n      0x20\n        /* \"#utility.yul\":16965:16967   */\n      0x1f\n        /* \"#utility.yul\":16958:16963   */\n      dup4\n        /* \"#utility.yul\":16954:16968   */\n      add\n        /* \"#utility.yul\":16950:16973   */\n      div\n        /* \"#utility.yul\":16940:16973   */\n      swap1\n      pop\n        /* \"#utility.yul\":16886:16979   */\n      swap2\n      swap1\n      pop\n      jump\t// out\n        /* \"#utility.yul\":16985:17092   */\n    tag_182:\n        /* \"#utility.yul\":17029:17037   */\n      0x00\n        /* \"#utility.yul\":17079:17084   */\n      dup3\n        /* \"#utility.yul\":17073:17077   */\n      dup3\n        /* \"#utility.yul\":17069:17085   */\n      shl\n        /* \"#utility.yul\":17048:17085   */\n      swap1\n      pop\n        /* \"#utility.yul\":16985:17092   */\n      swap3\n      swap2\n      pop\n      pop\n      jump\t// out\n        /* \"#utility.yul\":17098:17491   */\n    tag_183:\n        /* \"#utility.yul\":17167:17173   */\n      0x00\n        /* \"#utility.yul\":17217:17218   */\n      0x08\n        /* \"#utility.yul\":17205:17215   */\n      dup4\n        /* \"#utility.yul\":17201:17219   */\n      mul\n        /* \"#utility.yul\":17240:17337   */\n      tag_354\n        /* \"#utility.yul\":17270:17336   */\n      0xffffffffffffffffffffffffffffffffffffffffffffffffffffffffffffffff\n        /* \"#utility.yul\":17259:17268   */\n      dup3\n        /* \"#utility.yul\":17240:17337   */\n      tag_182\n      jump\t// in\n    tag_354:\n        /* \"#utility.yul\":17358:17397   */\n      tag_355\n        /* \"#utility.yul\":17388:17396   */\n      dup7\n        /* \"#utility.yul\":17377:17386   */\n      dup4\n        /* \"#utility.yul\":17358:17397   */\n      tag_182\n      jump\t// in\n    tag_355:\n        /* \"#utility.yul\":17346:17397   */\n      swap6\n      pop\n        /* \"#utility.yul\":17430:17434   */\n      dup1\n        /* \"#utility.yul\":17426:17435   */\n      not\n        /* \"#utility.yul\":17419:17424   */\n      dup5\n        /* \"#utility.yul\":17415:17436   */\n      and\n        /* \"#utility.yul\":17406:17436   */\n      swap4\n      pop\n        /* \"#utility.yul\":17479:17483   */\n      dup1\n        /* \"#utility.yul\":17469:17477   */\n      dup7\n        /* \"#utility.yul\":17465:17484   */\n      and\n        /* \"#utility.yul\":17458:17463   */\n      dup5\n        /* \"#utility.yul\":17455:17485   */\n      or\n        /* \"#utility.yul\":17445:17485   */\n      swap3\n      pop\n        /* \"#utility.yul\":17174:17491   */\n      pop\n      pop\n        /* \"#utility.yul\":17098:17491   */\n      swap4\n      swap3\n      pop\n      pop\n      pop\n      jump\t// out\n        /* \"#utility.yul\":17497:17557   */\n    tag_184:\n        /* \"#utility.yul\":17525:17528   */\n      0x00\n        /* \"#utility.yul\":17546:17551   */\n      dup2\n        /* \"#utility.yul\":17539:17551   */\n      swap1\n      pop\n        /* \"#utility.yul\":17497:17557   */\n      swap2\n      swap1\n      pop\n      jump\t// out\n        /* \"#utility.yul\":17563:17705   */\n    tag_185:\n        /* \"#utility.yul\":17613:17622   */\n      0x00\n        /* \"#utility.yul\":17646:17699   */\n      tag_358\n        /* \"#utility.yul\":17664:17698   */\n      tag_359\n        /* \"#utility.yul\":17673:17697   */\n      tag_360\n        /* \"#utility.yul\":17691:17696   */\n      dup5\n        /* \"#utility.yul\":17673:17697   */\n      tag_135\n      jump\t// in\n    tag_360:\n        /* \"#utility.yul\":17664:17698   */\n      tag_184\n      jump\t// in\n    tag_359:\n        /* \"#utility.yul\":17646:17699   */\n      tag_135\n      jump\t// in\n    tag_358:\n        /* \"#utility.yul\":17633:17699   */\n      swap1\n      pop\n        /* \"#utility.yul\":17563:17705   */\n      swap2\n      swap1\n      pop\n      jump\t// out\n        /* \"#utility.yul\":17711:17786   */\n    tag_186:\n        /* \"#utility.yul\":17754:17757   */\n      0x00\n        /* \"#utility.yul\":17775:17780   */\n      dup2\n        /* \"#utility.yul\":17768:17780   */\n      swap1\n      pop\n        /* \"#utility.yul\":17711:17786   */\n      swap2\n      swap1\n      pop\n      jump\t// out\n        /* \"#utility.yul\":17792:18061   */\n    tag_187:\n        /* \"#utility.yul\":17902:17941   */\n      tag_363\n        /* \"#utility.yul\":17933:17940   */\n      dup4\n        /* \"#utility.yul\":17902:17941   */\n      tag_185\n      jump\t// in\n    tag_363:\n        /* \"#utility.yul\":17963:18054   */\n      tag_364\n        /* \"#utility.yul\":18012:18053   */\n      tag_365\n        /* \"#utility.yul\":18036:18052   */\n      dup3\n        /* \"#utility.yul\":18012:18053   */\n      tag_186\n      jump\t// in\n    tag_365:\n        /* \"#utility.yul\":18004:18010   */\n      dup5\n        /* \"#utility.yul\":17997:18001   */\n      dup5\n        /* \"#utility.yul\":17991:18002   */\n      sload\n        /* \"#utility.yul\":17963:18054   */\n      tag_183\n      jump\t// in\n    tag_364:\n        /* \"#utility.yul\":17957:17961   */\n      dup3\n        /* \"#utility.yul\":17950:18055   */\n      sstore\n        /* \"#utility.yul\":17868:18061   */\n      pop\n        /* \"#utility.yul\":17792:18061   */\n      pop\n      pop\n      pop\n      jump\t// out\n        /* \"#utility.yul\":18067:18140   */\n    tag_188:\n        /* \"#utility.yul\":18112:18115   */\n      0x00\n        /* \"#utility.yul\":18067:18140   */\n      swap1\n      jump\t// out\n        /* \"#utility.yul\":18146:18335   */\n    tag_189:\n        /* \"#utility.yul\":18223:18255   */\n      tag_368\n      tag_188\n      jump\t// in\n    tag_368:\n        /* \"#utility.yul\":18264:18329   */\n      tag_369\n        /* \"#utility.yul\":18322:18328   */\n      dup2\n        /* \"#utility.yul\":18314:18320   */\n      dup5\n        /* \"#utility.yul\":18308:18312   */\n      dup5\n        /* \"#utility.yul\":18264:18329   */\n      tag_187\n      jump\t// in\n    tag_369:\n        /* \"#utility.yul\":18199:18335   */\n      pop\n        /* \"#utility.yul\":18146:18335   */\n      pop\n      pop\n      jump\t// out\n        /* \"#utility.yul\":18341:18527   */\n    tag_190:\n        /* \"#utility.yul\":18401:18521   */\n    tag_371:\n        /* \"#utility.yul\":18418:18421   */\n      dup2\n        /* \"#utility.yul\":18411:18416   */\n      dup2\n        /* \"#utility.yul\":18408:18422   */\n      lt\n        /* \"#utility.yul\":18401:18521   */\n      iszero\n      tag_373\n      jumpi\n        /* \"#utility.yul\":18472:18511   */\n      tag_374\n        /* \"#utility.yul\":18509:18510   */\n      0x00\n        /* \"#utility.yul\":18502:18507   */\n      dup3\n        /* \"#utility.yul\":18472:18511   */\n      tag_189\n      jump\t// in\n    tag_374:\n        /* \"#utility.yul\":18445:18446   */\n      0x01\n        /* \"#utility.yul\":18438:18443   */\n      dup2\n        /* \"#utility.yul\":18434:18447   */\n      add\n        /* \"#utility.yul\":18425:18447   */\n      swap1\n      pop\n        /* \"#utility.yul\":18401:18521   */\n      jump(tag_371)\n    tag_373:\n        /* \"#utility.yul\":18341:18527   */\n      pop\n      pop\n      jump\t// out\n        /* \"#utility.yul\":18533:19076   */\n    tag_191:\n        /* \"#utility.yul\":18634:18636   */\n      0x1f\n        /* \"#utility.yul\":18629:18632   */\n      dup3\n        /* \"#utility.yul\":18626:18637   */\n      gt\n        /* \"#utility.yul\":18623:19069   */\n      iszero\n      tag_376\n      jumpi\n        /* \"#utility.yul\":18668:18706   */\n      tag_377\n        /* \"#utility.yul\":18700:18705   */\n      dup2\n        /* \"#utility.yul\":18668:18706   */\n      tag_180\n      jump\t// in\n    tag_377:\n        /* \"#utility.yul\":18752:18781   */\n      tag_378\n        /* \"#utility.yul\":18770:18780   */\n      dup5\n        /* \"#utility.yul\":18752:18781   */\n      tag_181\n      jump\t// in\n    tag_378:\n        /* \"#utility.yul\":18742:18750   */\n      dup2\n        /* \"#utility.yul\":18738:18782   */\n      add\n        /* \"#utility.yul\":18935:18937   */\n      0x20\n        /* \"#utility.yul\":18923:18933   */\n      dup6\n        /* \"#utility.yul\":18920:18938   */\n      lt\n        /* \"#utility.yul\":18917:18966   */\n      iszero\n      tag_379\n      jumpi\n        /* \"#utility.yul\":18956:18964   */\n      dup2\n        /* \"#utility.yul\":18941:18964   */\n      swap1\n      pop\n        /* \"#utility.yul\":18917:18966   */\n    tag_379:\n        /* \"#utility.yul\":18979:19059   */\n      tag_380\n        /* \"#utility.yul\":19035:19057   */\n      tag_381\n        /* \"#utility.yul\":19053:19056   */\n      dup6\n        /* \"#utility.yul\":19035:19057   */\n      tag_181\n      jump\t// in\n    tag_381:\n        /* \"#utility.yul\":19025:19033   */\n      dup4\n        /* \"#utility.yul\":19021:19058   */\n      add\n        /* \"#utility.yul\":19008:19019   */\n      dup3\n        /* \"#utility.yul\":18979:19059   */\n      tag_190\n      jump\t// in\n    tag_380:\n        /* \"#utility.yul\":18638:19069   */\n      pop\n      pop\n        /* \"#utility.yul\":18623:19069   */\n    tag_376:\n        /* \"#utility.yul\":18533:19076   */\n      pop\n      pop\n      pop\n      jump\t// out\n        /* \"#utility.yul\":19082:19199   */\n    tag_192:\n        /* \"#utility.yul\":19136:19144   */\n      0x00\n        /* \"#utility.yul\":19186:19191   */\n      dup3\n        /* \"#utility.yul\":19180:19184   */\n      dup3\n        /* \"#utility.yul\":19176:19192   */\n      shr\n        /* \"#utility.yul\":19155:19192   */\n      swap1\n      pop\n        /* \"#utility.yul\":19082:19199   */\n      swap3\n      swap2\n      pop\n      pop\n      jump\t// out\n        /* \"#utility.yul\":19205:19374   */\n    tag_193:\n        /* \"#utility.yul\":19249:19255   */\n      0x00\n        /* \"#utility.yul\":19282:19333   */\n      tag_384\n        /* \"#utility.yul\":19330:19331   */\n      0x00\n        /* \"#utility.yul\":19326:19332   */\n      not\n        /* \"#utility.yul\":19318:19323   */\n      dup5\n        /* \"#utility.yul\":19315:19316   */\n      0x08\n        /* \"#utility.yul\":19311:19324   */\n      mul\n        /* \"#utility.yul\":19282:19333   */\n      tag_192\n      jump\t// in\n    tag_384:\n        /* \"#utility.yul\":19278:19334   */\n      not\n        /* \"#utility.yul\":19363:19367   */\n      dup1\n        /* \"#utility.yul\":19357:19361   */\n      dup4\n        /* \"#utility.yul\":19353:19368   */\n      and\n        /* \"#utility.yul\":19343:19368   */\n      swap2\n      pop\n        /* \"#utility.yul\":19256:19374   */\n      pop\n        /* \"#utility.yul\":19205:19374   */\n      swap3\n      swap2\n      pop\n      pop\n      jump\t// out\n        /* \"#utility.yul\":19379:19674   */\n    tag_194:\n        /* \"#utility.yul\":19455:19459   */\n      0x00\n        /* \"#utility.yul\":19601:19630   */\n      tag_386\n        /* \"#utility.yul\":19626:19629   */\n      dup4\n        /* \"#utility.yul\":19620:19624   */\n      dup4\n        /* \"#utility.yul\":19601:19630   */\n      tag_193\n      jump\t// in\n    tag_386:\n        /* \"#utility.yul\":19593:19630   */\n      swap2\n      pop\n        /* \"#utility.yul\":19663:19666   */\n      dup3\n        /* \"#utility.yul\":19660:19661   */\n      0x02\n        /* \"#utility.yul\":19656:19667   */\n      mul\n        /* \"#utility.yul\":19650:19654   */\n      dup3\n        /* \"#utility.yul\":19647:19668   */\n      or\n        /* \"#utility.yul\":19639:19668   */\n      swap1\n      pop\n        /* \"#utility.yul\":19379:19674   */\n      swap3\n      swap2\n      pop\n      pop\n      jump\t// out\n        /* \"#utility.yul\":19679:21074   */\n    tag_99:\n        /* \"#utility.yul\":19796:19833   */\n      tag_388\n        /* \"#utility.yul\":19829:19832   */\n      dup3\n        /* \"#utility.yul\":19796:19833   */\n      tag_144\n      jump\t// in\n    tag_388:\n        /* \"#utility.yul\":19898:19916   */\n      0xffffffffffffffff\n        /* \"#utility.yul\":19890:19896   */\n      dup2\n        /* \"#utility.yul\":19887:19917   */\n      gt\n        /* \"#utility.yul\":19884:19940   */\n      iszero\n      tag_389\n      jumpi\n        /* \"#utility.yul\":19920:19938   */\n      tag_390\n      tag_48\n      jump\t// in\n    tag_390:\n        /* \"#utility.yul\":19884:19940   */\n    tag_389:\n        /* \"#utility.yul\":19964:20002   */\n      tag_391\n        /* \"#utility.yul\":19996:20000   */\n      dup3\n        /* \"#utility.yul\":19990:20001   */\n      sload\n        /* \"#utility.yul\":19964:20002   */\n      tag_40\n      jump\t// in\n    tag_391:\n        /* \"#utility.yul\":20049:20116   */\n      tag_392\n        /* \"#utility.yul\":20109:20115   */\n      dup3\n        /* \"#utility.yul\":20101:20107   */\n      dup3\n        /* \"#utility.yul\":20095:20099   */\n      dup6\n        /* \"#utility.yul\":20049:20116   */\n      tag_191\n      jump\t// in\n    tag_392:\n        /* \"#utility.yul\":20143:20144   */\n      0x00\n        /* \"#utility.yul\":20167:20171   */\n      0x20\n        /* \"#utility.yul\":20154:20171   */\n      swap1\n      pop\n        /* \"#utility.yul\":20199:20201   */\n      0x1f\n        /* \"#utility.yul\":20191:20197   */\n      dup4\n        /* \"#utility.yul\":20188:20202   */\n      gt\n        /* \"#utility.yul\":20216:20217   */\n      0x01\n        /* \"#utility.yul\":20211:20829   */\n      dup2\n      eq\n      tag_394\n      jumpi\n        /* \"#utility.yul\":20873:20874   */\n      0x00\n        /* \"#utility.yul\":20890:20896   */\n      dup5\n        /* \"#utility.yul\":20887:20964   */\n      iszero\n      tag_395\n      jumpi\n        /* \"#utility.yul\":20939:20948   */\n      dup3\n        /* \"#utility.yul\":20934:20937   */\n      dup8\n        /* \"#utility.yul\":20930:20949   */\n      add\n        /* \"#utility.yul\":20924:20950   */\n      mload\n        /* \"#utility.yul\":20915:20950   */\n      swap1\n      pop\n        /* \"#utility.yul\":20887:20964   */\n    tag_395:\n        /* \"#utility.yul\":20990:21057   */\n      tag_396\n        /* \"#utility.yul\":21050:21056   */\n      dup6\n        /* \"#utility.yul\":21043:21048   */\n      dup3\n        /* \"#utility.yul\":20990:21057   */\n      tag_194\n      jump\t// in\n    tag_396:\n        /* \"#utility.yul\":20984:20988   */\n      dup7\n        /* \"#utility.yul\":20977:21058   */\n      sstore\n        /* \"#utility.yul\":20846:21068   */\n      pop\n        /* \"#utility.yul\":20181:21068   */\n      jump(tag_393)\n        /* \"#utility.yul\":20211:20829   */\n    tag_394:\n        /* \"#utility.yul\":20263:20267   */\n      0x1f\n        /* \"#utility.yul\":20259:20268   */\n      not\n        /* \"#utility.yul\":20251:20257   */\n      dup5\n        /* \"#utility.yul\":20247:20269   */\n      and\n        /* \"#utility.yul\":20297:20334   */\n      tag_397\n        /* \"#utility.yul\":20329:20333   */\n      dup7\n        /* \"#utility.yul\":20297:20334   */\n      tag_180\n      jump\t// in\n    tag_397:\n        /* \"#utility.yul\":20356:20357   */\n      0x00\n        /* \"#utility.yul\":20370:20578   */\n    tag_398:\n        /* \"#utility.yul\":20384:20391   */\n      dup3\n        /* \"#utility.yul\":20381:20382   */\n      dup2\n        /* \"#utility.yul\":20378:20392   */\n      lt\n        /* \"#utility.yul\":20370:20578   */\n      iszero\n      tag_400\n      jumpi\n        /* \"#utility.yul\":20463:20472   */\n      dup5\n        /* \"#utility.yul\":20458:20461   */\n      dup10\n        /* \"#utility.yul\":20454:20473   */\n      add\n        /* \"#utility.yul\":20448:20474   */\n      mload\n        /* \"#utility.yul\":20440:20446   */\n      dup3\n        /* \"#utility.yul\":20433:20475   */\n      sstore\n        /* \"#utility.yul\":20514:20515   */\n      0x01\n        /* \"#utility.yul\":20506:20512   */\n      dup3\n        /* \"#utility.yul\":20502:20516   */\n      add\n        /* \"#utility.yul\":20492:20516   */\n      swap2\n      pop\n        /* \"#utility.yul\":20561:20563   */\n      0x20\n        /* \"#utility.yul\":20550:20559   */\n      dup6\n        /* \"#utility.yul\":20546:20564   */\n      add\n        /* \"#utility.yul\":20533:20564   */\n      swap5\n      pop\n        /* \"#utility.yul\":20407:20411   */\n      0x20\n        /* \"#utility.yul\":20404:20405   */\n      dup2\n        /* \"#utility.yul\":20400:20412   */\n      add\n        /* \"#utility.yul\":20395:20412   */\n      swap1\n      pop\n        /* \"#utility.yul\":20370:20578   */\n      jump(tag_398)\n    tag_400:\n        /* \"#utility.yul\":20606:20612   */\n      dup7\n        /* \"#utility.yul\":20597:20604   */\n      dup4\n        /* \"#utility.yul\":20594:20613   */\n      lt\n        /* \"#utility.yul\":20591:20770   */\n      iszero\n      tag_401\n      jumpi\n        /* \"#utility.yul\":20664:20673   */\n      dup5\n        /* \"#utility.yul\":20659:20662   */\n      dup10\n        /* \"#utility.yul\":20655:20674   */\n      add\n        /* \"#utility.yul\":20649:20675   */\n      mload\n        /* \"#utility.yul\":20707:20755   */\n      tag_402\n        /* \"#utility.yul\":20749:20753   */\n      0x1f\n        /* \"#utility.yul\":20741:20747   */\n      dup10\n        /* \"#utility.yul\":20737:20754   */\n      and\n        /* \"#utility.yul\":20726:20735   */\n      dup3\n        /* \"#utility.yul\":20707:20755   */\n      tag_193\n      jump\t// in\n    tag_402:\n        /* \"#utility.yul\":20699:20705   */\n      dup4\n        /* \"#utility.yul\":20692:20756   */\n      sstore\n        /* \"#utility.yul\":20614:20770   */\n      pop\n        /* \"#utility.yul\":20591:20770   */\n    tag_401:\n        /* \"#utility.yul\":20816:20817   */\n      0x01\n        /* \"#utility.yul\":20812:20813   */\n      0x02\n        /* \"#utility.yul\":20804:20810   */\n      dup9\n        /* \"#utility.yul\":20800:20814   */\n      mul\n        /* \"#utility.yul\":20796:20818   */\n      add\n        /* \"#utility.yul\":20790:20794   */\n      dup9\n        /* \"#utility.yul\":20783:20819   */\n      sstore\n        /* \"#utility.yul\":20218:20829   */\n      pop\n      pop\n      pop\n        /* \"#utility.yul\":20181:21068   */\n    tag_393:\n      pop\n        /* \"#utility.yul\":19771:21074   */\n      pop\n      pop\n      pop\n        /* \"#utility.yul\":19679:21074   */\n      pop\n      pop\n      jump\t// out\n\n    auxdata: 0xa2646970667358221220e044ebc4ee16da9f096e13612eba1516ac9f3cd92e9973a7aa6ca4c8a33df11064736f6c63430008120033\n}\n",
				"bytecode": {
					"linkReferences": {},
					"object": "608060405234801561001057600080fd5b506115e3806100206000396000f3fe608060405234801561001057600080fd5b50600436106100625760003560e01c806305aeeea7146100675780630869cfbc1461009757806318a231a9146100ca5780632de304ed146100e857806333c5d64114610104578063a0303c4114610122575b600080fd5b610081600480360381019061007c9190610b4f565b610140565b60405161008e9190610bbd565b60405180910390f35b6100b160048036038101906100ac9190610c04565b61017f565b6040516100c19493929190610cd0565b60405180910390f35b6100d2610257565b6040516100df9190610fb9565b60405180910390f35b61010260048036038101906100fd9190611110565b610707565b005b61010c610929565b6040516101199190611187565b60405180910390f35b61012a6109d2565b60405161013791906111a2565b60405180910390f35b6002818154811061015057600080fd5b906000526020600020016000915054906101000a900473ffffffffffffffffffffffffffffffffffffffff1681565b60006020528060005260406000206000915090508060000154908060010180546101a8906111ec565b80601f01602080910402602001604051908101604052809291908181526020018280546101d4906111ec565b80156102215780601f106101f657610100808354040283529160200191610221565b820191906000526020600020905b81548152906001019060200180831161020457829003601f168201915b5050505050908060020154908060030160009054906101000a900473ffffffffffffffffffffffffffffffffffffffff16905084565b6060600060015467ffffffffffffffff81111561027757610276610fe5565b5b6040519080825280602002602001820160405280156102b057816020015b61029d6109d8565b8152602001906001900390816102955790505b50905060005b6001548110156106ff57600080600283815481106102d7576102d661121d565b5b9060005260206000200160009054906101000a900473ffffffffffffffffffffffffffffffffffffffff1673ffffffffffffffffffffffffffffffffffffffff1673ffffffffffffffffffffffffffffffffffffffff1681526020019081526020016000206040518060e001604052908160008201548152602001600182018054610361906111ec565b80601f016020809104026020016040519081016040528092919081815260200182805461038d906111ec565b80156103da5780601f106103af576101008083540402835291602001916103da565b820191906000526020600020905b8154815290600101906020018083116103bd57829003601f168201915b50505050508152602001600282015481526020016003820160009054906101000a900473ffffffffffffffffffffffffffffffffffffffff1673ffffffffffffffffffffffffffffffffffffffff1673ffffffffffffffffffffffffffffffffffffffff16815260200160048201805480602002602001604051908101604052809291908181526020016000905b82821015610514578382906000526020600020018054610487906111ec565b80601f01602080910402602001604051908101604052809291908181526020018280546104b3906111ec565b80156105005780601f106104d557610100808354040283529160200191610500565b820191906000526020600020905b8154815290600101906020018083116104e357829003601f168201915b505050505081526020019060010190610468565b50505050815260200160058201805480602002602001604051908101604052809291908181526020016000905b828210156105ed578382906000526020600020018054610560906111ec565b80601f016020809104026020016040519081016040528092919081815260200182805461058c906111ec565b80156105d95780601f106105ae576101008083540402835291602001916105d9565b820191906000526020600020905b8154815290600101906020018083116105bc57829003601f168201915b505050505081526020019060010190610541565b50505050815260200160068201805480602002602001604051908101604052809291908181526020016000905b828210156106c6578382906000526020600020018054610639906111ec565b80601f0160208091040260200160405190810160405280929190818152602001828054610665906111ec565b80156106b25780601f10610687576101008083540402835291602001916106b2565b820191906000526020600020905b81548152906001019060200180831161069557829003601f168201915b50505050508152602001906001019061061a565b50505050815250508282815181106106e1576106e061121d565b5b602002602001018190525080806106f79061127b565b9150506102b6565b508091505090565b61070f610929565b61074e576040517f08c379a00000000000000000000000000000000000000000000000000000000081526004016107459061130f565b60405180910390fd5b60608060606040518060e0016040528060015481526020018681526020018581526020013373ffffffffffffffffffffffffffffffffffffffff168152602001848152602001838152602001828152506000803373ffffffffffffffffffffffffffffffffffffffff1673ffffffffffffffffffffffffffffffffffffffff1681526020019081526020016000206000820151816000015560208201518160010190816107fb91906114db565b506040820151816002015560608201518160030160006101000a81548173ffffffffffffffffffffffffffffffffffffffff021916908373ffffffffffffffffffffffffffffffffffffffff1602179055506080820151816004019080519060200190610869929190610a2b565b5060a0820151816005019080519060200190610886929190610a2b565b5060c08201518160060190805190602001906108a3929190610a2b565b509050506002339080600181540180825580915050600190039060005260206000200160009091909190916101000a81548173ffffffffffffffffffffffffffffffffffffffff021916908373ffffffffffffffffffffffffffffffffffffffff1602179055506001600081548092919061091d9061127b565b91905055505050505050565b600080600090505b6001548110156109c9573373ffffffffffffffffffffffffffffffffffffffff16600282815481106109665761096561121d565b5b9060005260206000200160009054906101000a900473ffffffffffffffffffffffffffffffffffffffff1673ffffffffffffffffffffffffffffffffffffffff16036109b65760009150506109cf565b80806109c19061127b565b915050610931565b50600190505b90565b60015481565b6040518060e00160405280600081526020016060815260200160008152602001600073ffffffffffffffffffffffffffffffffffffffff1681526020016060815260200160608152602001606081525090565b828054828255906000526020600020908101928215610a73579160200282015b82811115610a72578251829081610a6291906114db565b5091602001919060010190610a4b565b5b509050610a809190610a84565b5090565b5b80821115610aa45760008181610a9b9190610aa8565b50600101610a85565b5090565b508054610ab4906111ec565b6000825580601f10610ac65750610ae5565b601f016020900490600052602060002090810190610ae49190610ae8565b5b50565b5b80821115610b01576000816000905550600101610ae9565b5090565b6000604051905090565b600080fd5b600080fd5b6000819050919050565b610b2c81610b19565b8114610b3757600080fd5b50565b600081359050610b4981610b23565b92915050565b600060208284031215610b6557610b64610b0f565b5b6000610b7384828501610b3a565b91505092915050565b600073ffffffffffffffffffffffffffffffffffffffff82169050919050565b6000610ba782610b7c565b9050919050565b610bb781610b9c565b82525050565b6000602082019050610bd26000830184610bae565b92915050565b610be181610b9c565b8114610bec57600080fd5b50565b600081359050610bfe81610bd8565b92915050565b600060208284031215610c1a57610c19610b0f565b5b6000610c2884828501610bef565b91505092915050565b610c3a81610b19565b82525050565b600081519050919050565b600082825260208201905092915050565b60005b83811015610c7a578082015181840152602081019050610c5f565b60008484015250505050565b6000601f19601f8301169050919050565b6000610ca282610c40565b610cac8185610c4b565b9350610cbc818560208601610c5c565b610cc581610c86565b840191505092915050565b6000608082019050610ce56000830187610c31565b8181036020830152610cf78186610c97565b9050610d066040830185610c31565b610d136060830184610bae565b95945050505050565b600081519050919050565b600082825260208201905092915050565b6000819050602082019050919050565b610d5181610b19565b82525050565b600082825260208201905092915050565b6000610d7382610c40565b610d7d8185610d57565b9350610d8d818560208601610c5c565b610d9681610c86565b840191505092915050565b610daa81610b9c565b82525050565b600081519050919050565b600082825260208201905092915050565b6000819050602082019050919050565b6000610de88383610d68565b905092915050565b6000602082019050919050565b6000610e0882610db0565b610e128185610dbb565b935083602082028501610e2485610dcc565b8060005b85811015610e605784840389528151610e418582610ddc565b9450610e4c83610df0565b925060208a01995050600181019050610e28565b50829750879550505050505092915050565b600060e083016000830151610e8a6000860182610d48565b5060208301518482036020860152610ea28282610d68565b9150506040830151610eb76040860182610d48565b506060830151610eca6060860182610da1565b5060808301518482036080860152610ee28282610dfd565b91505060a083015184820360a0860152610efc8282610dfd565b91505060c083015184820360c0860152610f168282610dfd565b9150508091505092915050565b6000610f2f8383610e72565b905092915050565b6000602082019050919050565b6000610f4f82610d1c565b610f598185610d27565b935083602082028501610f6b85610d38565b8060005b85811015610fa75784840389528151610f888582610f23565b9450610f9383610f37565b925060208a01995050600181019050610f6f565b50829750879550505050505092915050565b60006020820190508181036000830152610fd38184610f44565b905092915050565b600080fd5b600080fd5b7f4e487b7100000000000000000000000000000000000000000000000000000000600052604160045260246000fd5b61101d82610c86565b810181811067ffffffffffffffff8211171561103c5761103b610fe5565b5b80604052505050565b600061104f610b05565b905061105b8282611014565b919050565b600067ffffffffffffffff82111561107b5761107a610fe5565b5b61108482610c86565b9050602081019050919050565b82818337600083830152505050565b60006110b36110ae84611060565b611045565b9050828152602081018484840111156110cf576110ce610fe0565b5b6110da848285611091565b509392505050565b600082601f8301126110f7576110f6610fdb565b5b81356111078482602086016110a0565b91505092915050565b6000806040838503121561112757611126610b0f565b5b600083013567ffffffffffffffff81111561114557611144610b14565b5b611151858286016110e2565b925050602061116285828601610b3a565b9150509250929050565b60008115159050919050565b6111818161116c565b82525050565b600060208201905061119c6000830184611178565b92915050565b60006020820190506111b76000830184610c31565b92915050565b7f4e487b7100000000000000000000000000000000000000000000000000000000600052602260045260246000fd5b6000600282049050600182168061120457607f821691505b602082108103611217576112166111bd565b5b50919050565b7f4e487b7100000000000000000000000000000000000000000000000000000000600052603260045260246000fd5b7f4e487b7100000000000000000000000000000000000000000000000000000000600052601160045260246000fd5b600061128682610b19565b91507fffffffffffffffffffffffffffffffffffffffffffffffffffffffffffffffff82036112b8576112b761124c565b5b600182019050919050565b7f50617469656e7420616c72656164792065786973747300000000000000000000600082015250565b60006112f9601683610c4b565b9150611304826112c3565b602082019050919050565b60006020820190508181036000830152611328816112ec565b9050919050565b60008190508160005260206000209050919050565b60006020601f8301049050919050565b600082821b905092915050565b6000600883026113917fffffffffffffffffffffffffffffffffffffffffffffffffffffffffffffffff82611354565b61139b8683611354565b95508019841693508086168417925050509392505050565b6000819050919050565b60006113d86113d36113ce84610b19565b6113b3565b610b19565b9050919050565b6000819050919050565b6113f2836113bd565b6114066113fe826113df565b848454611361565b825550505050565b600090565b61141b61140e565b6114268184846113e9565b505050565b5b8181101561144a5761143f600082611413565b60018101905061142c565b5050565b601f82111561148f576114608161132f565b61146984611344565b81016020851015611478578190505b61148c61148485611344565b83018261142b565b50505b505050565b600082821c905092915050565b60006114b260001984600802611494565b1980831691505092915050565b60006114cb83836114a1565b9150826002028217905092915050565b6114e482610c40565b67ffffffffffffffff8111156114fd576114fc610fe5565b5b61150782546111ec565b61151282828561144e565b600060209050601f8311600181146115455760008415611533578287015190505b61153d85826114bf565b8655506115a5565b601f1984166115538661132f565b60005b8281101561157b57848901518255600182019150602085019450602081019050611556565b868310156115985784890151611594601f8916826114a1565b8355505b6001600288020188555050505b50505050505056fea2646970667358221220e044ebc4ee16da9f096e13612eba1516ac9f3cd92e9973a7aa6ca4c8a33df11064736f6c63430008120033",
					"opcodes": "PUSH1 0x80 PUSH1 0x40 MSTORE CALLVALUE DUP1 ISZERO PUSH2 0x10 JUMPI PUSH1 0x0 DUP1 REVERT JUMPDEST POP PUSH2 0x15E3 DUP1 PUSH2 0x20 PUSH1 0x0 CODECOPY PUSH1 0x0 RETURN INVALID PUSH1 0x80 PUSH1 0x40 MSTORE CALLVALUE DUP1 ISZERO PUSH2 0x10 JUMPI PUSH1 0x0 DUP1 REVERT JUMPDEST POP PUSH1 0x4 CALLDATASIZE LT PUSH2 0x62 JUMPI PUSH1 0x0 CALLDATALOAD PUSH1 0xE0 SHR DUP1 PUSH4 0x5AEEEA7 EQ PUSH2 0x67 JUMPI DUP1 PUSH4 0x869CFBC EQ PUSH2 0x97 JUMPI DUP1 PUSH4 0x18A231A9 EQ PUSH2 0xCA JUMPI DUP1 PUSH4 0x2DE304ED EQ PUSH2 0xE8 JUMPI DUP1 PUSH4 0x33C5D641 EQ PUSH2 0x104 JUMPI DUP1 PUSH4 0xA0303C41 EQ PUSH2 0x122 JUMPI JUMPDEST PUSH1 0x0 DUP1 REVERT JUMPDEST PUSH2 0x81 PUSH1 0x4 DUP1 CALLDATASIZE SUB DUP2 ADD SWAP1 PUSH2 0x7C SWAP2 SWAP1 PUSH2 0xB4F JUMP JUMPDEST PUSH2 0x140 JUMP JUMPDEST PUSH1 0x40 MLOAD PUSH2 0x8E SWAP2 SWAP1 PUSH2 0xBBD JUMP JUMPDEST PUSH1 0x40 MLOAD DUP1 SWAP2 SUB SWAP1 RETURN JUMPDEST PUSH2 0xB1 PUSH1 0x4 DUP1 CALLDATASIZE SUB DUP2 ADD SWAP1 PUSH2 0xAC SWAP2 SWAP1 PUSH2 0xC04 JUMP JUMPDEST PUSH2 0x17F JUMP JUMPDEST PUSH1 0x40 MLOAD PUSH2 0xC1 SWAP5 SWAP4 SWAP3 SWAP2 SWAP1 PUSH2 0xCD0 JUMP JUMPDEST PUSH1 0x40 MLOAD DUP1 SWAP2 SUB SWAP1 RETURN JUMPDEST PUSH2 0xD2 PUSH2 0x257 JUMP JUMPDEST PUSH1 0x40 MLOAD PUSH2 0xDF SWAP2 SWAP1 PUSH2 0xFB9 JUMP JUMPDEST PUSH1 0x40 MLOAD DUP1 SWAP2 SUB SWAP1 RETURN JUMPDEST PUSH2 0x102 PUSH1 0x4 DUP1 CALLDATASIZE SUB DUP2 ADD SWAP1 PUSH2 0xFD SWAP2 SWAP1 PUSH2 0x1110 JUMP JUMPDEST PUSH2 0x707 JUMP JUMPDEST STOP JUMPDEST PUSH2 0x10C PUSH2 0x929 JUMP JUMPDEST PUSH1 0x40 MLOAD PUSH2 0x119 SWAP2 SWAP1 PUSH2 0x1187 JUMP JUMPDEST PUSH1 0x40 MLOAD DUP1 SWAP2 SUB SWAP1 RETURN JUMPDEST PUSH2 0x12A PUSH2 0x9D2 JUMP JUMPDEST PUSH1 0x40 MLOAD PUSH2 0x137 SWAP2 SWAP1 PUSH2 0x11A2 JUMP JUMPDEST PUSH1 0x40 MLOAD DUP1 SWAP2 SUB SWAP1 RETURN JUMPDEST PUSH1 0x2 DUP2 DUP2 SLOAD DUP2 LT PUSH2 0x150 JUMPI PUSH1 0x0 DUP1 REVERT JUMPDEST SWAP1 PUSH1 0x0 MSTORE PUSH1 0x20 PUSH1 0x0 KECCAK256 ADD PUSH1 0x0 SWAP2 POP SLOAD SWAP1 PUSH2 0x100 EXP SWAP1 DIV PUSH20 0xFFFFFFFFFFFFFFFFFFFFFFFFFFFFFFFFFFFFFFFF AND DUP2 JUMP JUMPDEST PUSH1 0x0 PUSH1 0x20 MSTORE DUP1 PUSH1 0x0 MSTORE PUSH1 0x40 PUSH1 0x0 KECCAK256 PUSH1 0x0 SWAP2 POP SWAP1 POP DUP1 PUSH1 0x0 ADD SLOAD SWAP1 DUP1 PUSH1 0x1 ADD DUP1 SLOAD PUSH2 0x1A8 SWAP1 PUSH2 0x11EC JUMP JUMPDEST DUP1 PUSH1 0x1F ADD PUSH1 0x20 DUP1 SWAP2 DIV MUL PUSH1 0x20 ADD PUSH1 0x40 MLOAD SWAP1 DUP2 ADD PUSH1 0x40 MSTORE DUP1 SWAP3 SWAP2 SWAP1 DUP2 DUP2 MSTORE PUSH1 0x20 ADD DUP3 DUP1 SLOAD PUSH2 0x1D4 SWAP1 PUSH2 0x11EC JUMP JUMPDEST DUP1 ISZERO PUSH2 0x221 JUMPI DUP1 PUSH1 0x1F LT PUSH2 0x1F6 JUMPI PUSH2 0x100 DUP1 DUP4 SLOAD DIV MUL DUP4 MSTORE SWAP2 PUSH1 0x20 ADD SWAP2 PUSH2 0x221 JUMP JUMPDEST DUP3 ADD SWAP2 SWAP1 PUSH1 0x0 MSTORE PUSH1 0x20 PUSH1 0x0 KECCAK256 SWAP1 JUMPDEST DUP2 SLOAD DUP2 MSTORE SWAP1 PUSH1 0x1 ADD SWAP1 PUSH1 0x20 ADD DUP1 DUP4 GT PUSH2 0x204 JUMPI DUP3 SWAP1 SUB PUSH1 0x1F AND DUP3 ADD SWAP2 JUMPDEST POP POP POP POP POP SWAP1 DUP1 PUSH1 0x2 ADD SLOAD SWAP1 DUP1 PUSH1 0x3 ADD PUSH1 0x0 SWAP1 SLOAD SWAP1 PUSH2 0x100 EXP SWAP1 DIV PUSH20 0xFFFFFFFFFFFFFFFFFFFFFFFFFFFFFFFFFFFFFFFF AND SWAP1 POP DUP5 JUMP JUMPDEST PUSH1 0x60 PUSH1 0x0 PUSH1 0x1 SLOAD PUSH8 0xFFFFFFFFFFFFFFFF DUP2 GT ISZERO PUSH2 0x277 JUMPI PUSH2 0x276 PUSH2 0xFE5 JUMP JUMPDEST JUMPDEST PUSH1 0x40 MLOAD SWAP1 DUP1 DUP3 MSTORE DUP1 PUSH1 0x20 MUL PUSH1 0x20 ADD DUP3 ADD PUSH1 0x40 MSTORE DUP1 ISZERO PUSH2 0x2B0 JUMPI DUP2 PUSH1 0x20 ADD JUMPDEST PUSH2 0x29D PUSH2 0x9D8 JUMP JUMPDEST DUP2 MSTORE PUSH1 0x20 ADD SWAP1 PUSH1 0x1 SWAP1 SUB SWAP1 DUP2 PUSH2 0x295 JUMPI SWAP1 POP JUMPDEST POP SWAP1 POP PUSH1 0x0 JUMPDEST PUSH1 0x1 SLOAD DUP2 LT ISZERO PUSH2 0x6FF JUMPI PUSH1 0x0 DUP1 PUSH1 0x2 DUP4 DUP2 SLOAD DUP2 LT PUSH2 0x2D7 JUMPI PUSH2 0x2D6 PUSH2 0x121D JUMP JUMPDEST JUMPDEST SWAP1 PUSH1 0x0 MSTORE PUSH1 0x20 PUSH1 0x0 KECCAK256 ADD PUSH1 0x0 SWAP1 SLOAD SWAP1 PUSH2 0x100 EXP SWAP1 DIV PUSH20 0xFFFFFFFFFFFFFFFFFFFFFFFFFFFFFFFFFFFFFFFF AND PUSH20 0xFFFFFFFFFFFFFFFFFFFFFFFFFFFFFFFFFFFFFFFF AND PUSH20 0xFFFFFFFFFFFFFFFFFFFFFFFFFFFFFFFFFFFFFFFF AND DUP2 MSTORE PUSH1 0x20 ADD SWAP1 DUP2 MSTORE PUSH1 0x20 ADD PUSH1 0x0 KECCAK256 PUSH1 0x40 MLOAD DUP1 PUSH1 0xE0 ADD PUSH1 0x40 MSTORE SWAP1 DUP2 PUSH1 0x0 DUP3 ADD SLOAD DUP2 MSTORE PUSH1 0x20 ADD PUSH1 0x1 DUP3 ADD DUP1 SLOAD PUSH2 0x361 SWAP1 PUSH2 0x11EC JUMP JUMPDEST DUP1 PUSH1 0x1F ADD PUSH1 0x20 DUP1 SWAP2 DIV MUL PUSH1 0x20 ADD PUSH1 0x40 MLOAD SWAP1 DUP2 ADD PUSH1 0x40 MSTORE DUP1 SWAP3 SWAP2 SWAP1 DUP2 DUP2 MSTORE PUSH1 0x20 ADD DUP3 DUP1 SLOAD PUSH2 0x38D SWAP1 PUSH2 0x11EC JUMP JUMPDEST DUP1 ISZERO PUSH2 0x3DA JUMPI DUP1 PUSH1 0x1F LT PUSH2 0x3AF JUMPI PUSH2 0x100 DUP1 DUP4 SLOAD DIV MUL DUP4 MSTORE SWAP2 PUSH1 0x20 ADD SWAP2 PUSH2 0x3DA JUMP JUMPDEST DUP3 ADD SWAP2 SWAP1 PUSH1 0x0 MSTORE PUSH1 0x20 PUSH1 0x0 KECCAK256 SWAP1 JUMPDEST DUP2 SLOAD DUP2 MSTORE SWAP1 PUSH1 0x1 ADD SWAP1 PUSH1 0x20 ADD DUP1 DUP4 GT PUSH2 0x3BD JUMPI DUP3 SWAP1 SUB PUSH1 0x1F AND DUP3 ADD SWAP2 JUMPDEST POP POP POP POP POP DUP2 MSTORE PUSH1 0x20 ADD PUSH1 0x2 DUP3 ADD SLOAD DUP2 MSTORE PUSH1 0x20 ADD PUSH1 0x3 DUP3 ADD PUSH1 0x0 SWAP1 SLOAD SWAP1 PUSH2 0x100 EXP SWAP1 DIV PUSH20 0xFFFFFFFFFFFFFFFFFFFFFFFFFFFFFFFFFFFFFFFF AND PUSH20 0xFFFFFFFFFFFFFFFFFFFFFFFFFFFFFFFFFFFFFFFF AND PUSH20 0xFFFFFFFFFFFFFFFFFFFFFFFFFFFFFFFFFFFFFFFF AND DUP2 MSTORE PUSH1 0x20 ADD PUSH1 0x4 DUP3 ADD DUP1 SLOAD DUP1 PUSH1 0x20 MUL PUSH1 0x20 ADD PUSH1 0x40 MLOAD SWAP1 DUP2 ADD PUSH1 0x40 MSTORE DUP1 SWAP3 SWAP2 SWAP1 DUP2 DUP2 MSTORE PUSH1 0x20 ADD PUSH1 0x0 SWAP1 JUMPDEST DUP3 DUP3 LT ISZERO PUSH2 0x514 JUMPI DUP4 DUP3 SWAP1 PUSH1 0x0 MSTORE PUSH1 0x20 PUSH1 0x0 KECCAK256 ADD DUP1 SLOAD PUSH2 0x487 SWAP1 PUSH2 0x11EC JUMP JUMPDEST DUP1 PUSH1 0x1F ADD PUSH1 0x20 DUP1 SWAP2 DIV MUL PUSH1 0x20 ADD PUSH1 0x40 MLOAD SWAP1 DUP2 ADD PUSH1 0x40 MSTORE DUP1 SWAP3 SWAP2 SWAP1 DUP2 DUP2 MSTORE PUSH1 0x20 ADD DUP3 DUP1 SLOAD PUSH2 0x4B3 SWAP1 PUSH2 0x11EC JUMP JUMPDEST DUP1 ISZERO PUSH2 0x500 JUMPI DUP1 PUSH1 0x1F LT PUSH2 0x4D5 JUMPI PUSH2 0x100 DUP1 DUP4 SLOAD DIV MUL DUP4 MSTORE SWAP2 PUSH1 0x20 ADD SWAP2 PUSH2 0x500 JUMP JUMPDEST DUP3 ADD SWAP2 SWAP1 PUSH1 0x0 MSTORE PUSH1 0x20 PUSH1 0x0 KECCAK256 SWAP1 JUMPDEST DUP2 SLOAD DUP2 MSTORE SWAP1 PUSH1 0x1 ADD SWAP1 PUSH1 0x20 ADD DUP1 DUP4 GT PUSH2 0x4E3 JUMPI DUP3 SWAP1 SUB PUSH1 0x1F AND DUP3 ADD SWAP2 JUMPDEST POP POP POP POP POP DUP2 MSTORE PUSH1 0x20 ADD SWAP1 PUSH1 0x1 ADD SWAP1 PUSH2 0x468 JUMP JUMPDEST POP POP POP POP DUP2 MSTORE PUSH1 0x20 ADD PUSH1 0x5 DUP3 ADD DUP1 SLOAD DUP1 PUSH1 0x20 MUL PUSH1 0x20 ADD PUSH1 0x40 MLOAD SWAP1 DUP2 ADD PUSH1 0x40 MSTORE DUP1 SWAP3 SWAP2 SWAP1 DUP2 DUP2 MSTORE PUSH1 0x20 ADD PUSH1 0x0 SWAP1 JUMPDEST DUP3 DUP3 LT ISZERO PUSH2 0x5ED JUMPI DUP4 DUP3 SWAP1 PUSH1 0x0 MSTORE PUSH1 0x20 PUSH1 0x0 KECCAK256 ADD DUP1 SLOAD PUSH2 0x560 SWAP1 PUSH2 0x11EC JUMP JUMPDEST DUP1 PUSH1 0x1F ADD PUSH1 0x20 DUP1 SWAP2 DIV MUL PUSH1 0x20 ADD PUSH1 0x40 MLOAD SWAP1 DUP2 ADD PUSH1 0x40 MSTORE DUP1 SWAP3 SWAP2 SWAP1 DUP2 DUP2 MSTORE PUSH1 0x20 ADD DUP3 DUP1 SLOAD PUSH2 0x58C SWAP1 PUSH2 0x11EC JUMP JUMPDEST DUP1 ISZERO PUSH2 0x5D9 JUMPI DUP1 PUSH1 0x1F LT PUSH2 0x5AE JUMPI PUSH2 0x100 DUP1 DUP4 SLOAD DIV MUL DUP4 MSTORE SWAP2 PUSH1 0x20 ADD SWAP2 PUSH2 0x5D9 JUMP JUMPDEST DUP3 ADD SWAP2 SWAP1 PUSH1 0x0 MSTORE PUSH1 0x20 PUSH1 0x0 KECCAK256 SWAP1 JUMPDEST DUP2 SLOAD DUP2 MSTORE SWAP1 PUSH1 0x1 ADD SWAP1 PUSH1 0x20 ADD DUP1 DUP4 GT PUSH2 0x5BC JUMPI DUP3 SWAP1 SUB PUSH1 0x1F AND DUP3 ADD SWAP2 JUMPDEST POP POP POP POP POP DUP2 MSTORE PUSH1 0x20 ADD SWAP1 PUSH1 0x1 ADD SWAP1 PUSH2 0x541 JUMP JUMPDEST POP POP POP POP DUP2 MSTORE PUSH1 0x20 ADD PUSH1 0x6 DUP3 ADD DUP1 SLOAD DUP1 PUSH1 0x20 MUL PUSH1 0x20 ADD PUSH1 0x40 MLOAD SWAP1 DUP2 ADD PUSH1 0x40 MSTORE DUP1 SWAP3 SWAP2 SWAP1 DUP2 DUP2 MSTORE PUSH1 0x20 ADD PUSH1 0x0 SWAP1 JUMPDEST DUP3 DUP3 LT ISZERO PUSH2 0x6C6 JUMPI DUP4 DUP3 SWAP1 PUSH1 0x0 MSTORE PUSH1 0x20 PUSH1 0x0 KECCAK256 ADD DUP1 SLOAD PUSH2 0x639 SWAP1 PUSH2 0x11EC JUMP JUMPDEST DUP1 PUSH1 0x1F ADD PUSH1 0x20 DUP1 SWAP2 DIV MUL PUSH1 0x20 ADD PUSH1 0x40 MLOAD SWAP1 DUP2 ADD PUSH1 0x40 MSTORE DUP1 SWAP3 SWAP2 SWAP1 DUP2 DUP2 MSTORE PUSH1 0x20 ADD DUP3 DUP1 SLOAD PUSH2 0x665 SWAP1 PUSH2 0x11EC JUMP JUMPDEST DUP1 ISZERO PUSH2 0x6B2 JUMPI DUP1 PUSH1 0x1F LT PUSH2 0x687 JUMPI PUSH2 0x100 DUP1 DUP4 SLOAD DIV MUL DUP4 MSTORE SWAP2 PUSH1 0x20 ADD SWAP2 PUSH2 0x6B2 JUMP JUMPDEST DUP3 ADD SWAP2 SWAP1 PUSH1 0x0 MSTORE PUSH1 0x20 PUSH1 0x0 KECCAK256 SWAP1 JUMPDEST DUP2 SLOAD DUP2 MSTORE SWAP1 PUSH1 0x1 ADD SWAP1 PUSH1 0x20 ADD DUP1 DUP4 GT PUSH2 0x695 JUMPI DUP3 SWAP1 SUB PUSH1 0x1F AND DUP3 ADD SWAP2 JUMPDEST POP POP POP POP POP DUP2 MSTORE PUSH1 0x20 ADD SWAP1 PUSH1 0x1 ADD SWAP1 PUSH2 0x61A JUMP JUMPDEST POP POP POP POP DUP2 MSTORE POP POP DUP3 DUP3 DUP2 MLOAD DUP2 LT PUSH2 0x6E1 JUMPI PUSH2 0x6E0 PUSH2 0x121D JUMP JUMPDEST JUMPDEST PUSH1 0x20 MUL PUSH1 0x20 ADD ADD DUP2 SWAP1 MSTORE POP DUP1 DUP1 PUSH2 0x6F7 SWAP1 PUSH2 0x127B JUMP JUMPDEST SWAP2 POP POP PUSH2 0x2B6 JUMP JUMPDEST POP DUP1 SWAP2 POP POP SWAP1 JUMP JUMPDEST PUSH2 0x70F PUSH2 0x929 JUMP JUMPDEST PUSH2 0x74E JUMPI PUSH1 0x40 MLOAD PUSH32 0x8C379A000000000000000000000000000000000000000000000000000000000 DUP2 MSTORE PUSH1 0x4 ADD PUSH2 0x745 SWAP1 PUSH2 0x130F JUMP JUMPDEST PUSH1 0x40 MLOAD DUP1 SWAP2 SUB SWAP1 REVERT JUMPDEST PUSH1 0x60 DUP1 PUSH1 0x60 PUSH1 0x40 MLOAD DUP1 PUSH1 0xE0 ADD PUSH1 0x40 MSTORE DUP1 PUSH1 0x1 SLOAD DUP2 MSTORE PUSH1 0x20 ADD DUP7 DUP2 MSTORE PUSH1 0x20 ADD DUP6 DUP2 MSTORE PUSH1 0x20 ADD CALLER PUSH20 0xFFFFFFFFFFFFFFFFFFFFFFFFFFFFFFFFFFFFFFFF AND DUP2 MSTORE PUSH1 0x20 ADD DUP5 DUP2 MSTORE PUSH1 0x20 ADD DUP4 DUP2 MSTORE PUSH1 0x20 ADD DUP3 DUP2 MSTORE POP PUSH1 0x0 DUP1 CALLER PUSH20 0xFFFFFFFFFFFFFFFFFFFFFFFFFFFFFFFFFFFFFFFF AND PUSH20 0xFFFFFFFFFFFFFFFFFFFFFFFFFFFFFFFFFFFFFFFF AND DUP2 MSTORE PUSH1 0x20 ADD SWAP1 DUP2 MSTORE PUSH1 0x20 ADD PUSH1 0x0 KECCAK256 PUSH1 0x0 DUP3 ADD MLOAD DUP2 PUSH1 0x0 ADD SSTORE PUSH1 0x20 DUP3 ADD MLOAD DUP2 PUSH1 0x1 ADD SWAP1 DUP2 PUSH2 0x7FB SWAP2 SWAP1 PUSH2 0x14DB JUMP JUMPDEST POP PUSH1 0x40 DUP3 ADD MLOAD DUP2 PUSH1 0x2 ADD SSTORE PUSH1 0x60 DUP3 ADD MLOAD DUP2 PUSH1 0x3 ADD PUSH1 0x0 PUSH2 0x100 EXP DUP2 SLOAD DUP2 PUSH20 0xFFFFFFFFFFFFFFFFFFFFFFFFFFFFFFFFFFFFFFFF MUL NOT AND SWAP1 DUP4 PUSH20 0xFFFFFFFFFFFFFFFFFFFFFFFFFFFFFFFFFFFFFFFF AND MUL OR SWAP1 SSTORE POP PUSH1 0x80 DUP3 ADD MLOAD DUP2 PUSH1 0x4 ADD SWAP1 DUP1 MLOAD SWAP1 PUSH1 0x20 ADD SWAP1 PUSH2 0x869 SWAP3 SWAP2 SWAP1 PUSH2 0xA2B JUMP JUMPDEST POP PUSH1 0xA0 DUP3 ADD MLOAD DUP2 PUSH1 0x5 ADD SWAP1 DUP1 MLOAD SWAP1 PUSH1 0x20 ADD SWAP1 PUSH2 0x886 SWAP3 SWAP2 SWAP1 PUSH2 0xA2B JUMP JUMPDEST POP PUSH1 0xC0 DUP3 ADD MLOAD DUP2 PUSH1 0x6 ADD SWAP1 DUP1 MLOAD SWAP1 PUSH1 0x20 ADD SWAP1 PUSH2 0x8A3 SWAP3 SWAP2 SWAP1 PUSH2 0xA2B JUMP JUMPDEST POP SWAP1 POP POP PUSH1 0x2 CALLER SWAP1 DUP1 PUSH1 0x1 DUP2 SLOAD ADD DUP1 DUP3 SSTORE DUP1 SWAP2 POP POP PUSH1 0x1 SWAP1 SUB SWAP1 PUSH1 0x0 MSTORE PUSH1 0x20 PUSH1 0x0 KECCAK256 ADD PUSH1 0x0 SWAP1 SWAP2 SWAP1 SWAP2 SWAP1 SWAP2 PUSH2 0x100 EXP DUP2 SLOAD DUP2 PUSH20 0xFFFFFFFFFFFFFFFFFFFFFFFFFFFFFFFFFFFFFFFF MUL NOT AND SWAP1 DUP4 PUSH20 0xFFFFFFFFFFFFFFFFFFFFFFFFFFFFFFFFFFFFFFFF AND MUL OR SWAP1 SSTORE POP PUSH1 0x1 PUSH1 0x0 DUP2 SLOAD DUP1 SWAP3 SWAP2 SWAP1 PUSH2 0x91D SWAP1 PUSH2 0x127B JUMP JUMPDEST SWAP2 SWAP1 POP SSTORE POP POP POP POP POP POP JUMP JUMPDEST PUSH1 0x0 DUP1 PUSH1 0x0 SWAP1 POP JUMPDEST PUSH1 0x1 SLOAD DUP2 LT ISZERO PUSH2 0x9C9 JUMPI CALLER PUSH20 0xFFFFFFFFFFFFFFFFFFFFFFFFFFFFFFFFFFFFFFFF AND PUSH1 0x2 DUP3 DUP2 SLOAD DUP2 LT PUSH2 0x966 JUMPI PUSH2 0x965 PUSH2 0x121D JUMP JUMPDEST JUMPDEST SWAP1 PUSH1 0x0 MSTORE PUSH1 0x20 PUSH1 0x0 KECCAK256 ADD PUSH1 0x0 SWAP1 SLOAD SWAP1 PUSH2 0x100 EXP SWAP1 DIV PUSH20 0xFFFFFFFFFFFFFFFFFFFFFFFFFFFFFFFFFFFFFFFF AND PUSH20 0xFFFFFFFFFFFFFFFFFFFFFFFFFFFFFFFFFFFFFFFF AND SUB PUSH2 0x9B6 JUMPI PUSH1 0x0 SWAP2 POP POP PUSH2 0x9CF JUMP JUMPDEST DUP1 DUP1 PUSH2 0x9C1 SWAP1 PUSH2 0x127B JUMP JUMPDEST SWAP2 POP POP PUSH2 0x931 JUMP JUMPDEST POP PUSH1 0x1 SWAP1 POP JUMPDEST SWAP1 JUMP JUMPDEST PUSH1 0x1 SLOAD DUP2 JUMP JUMPDEST PUSH1 0x40 MLOAD DUP1 PUSH1 0xE0 ADD PUSH1 0x40 MSTORE DUP1 PUSH1 0x0 DUP2 MSTORE PUSH1 0x20 ADD PUSH1 0x60 DUP2 MSTORE PUSH1 0x20 ADD PUSH1 0x0 DUP2 MSTORE PUSH1 0x20 ADD PUSH1 0x0 PUSH20 0xFFFFFFFFFFFFFFFFFFFFFFFFFFFFFFFFFFFFFFFF AND DUP2 MSTORE PUSH1 0x20 ADD PUSH1 0x60 DUP2 MSTORE PUSH1 0x20 ADD PUSH1 0x60 DUP2 MSTORE PUSH1 0x20 ADD PUSH1 0x60 DUP2 MSTORE POP SWAP1 JUMP JUMPDEST DUP3 DUP1 SLOAD DUP3 DUP3 SSTORE SWAP1 PUSH1 0x0 MSTORE PUSH1 0x20 PUSH1 0x0 KECCAK256 SWAP1 DUP2 ADD SWAP3 DUP3 ISZERO PUSH2 0xA73 JUMPI SWAP2 PUSH1 0x20 MUL DUP3 ADD JUMPDEST DUP3 DUP2 GT ISZERO PUSH2 0xA72 JUMPI DUP3 MLOAD DUP3 SWAP1 DUP2 PUSH2 0xA62 SWAP2 SWAP1 PUSH2 0x14DB JUMP JUMPDEST POP SWAP2 PUSH1 0x20 ADD SWAP2 SWAP1 PUSH1 0x1 ADD SWAP1 PUSH2 0xA4B JUMP JUMPDEST JUMPDEST POP SWAP1 POP PUSH2 0xA80 SWAP2 SWAP1 PUSH2 0xA84 JUMP JUMPDEST POP SWAP1 JUMP JUMPDEST JUMPDEST DUP1 DUP3 GT ISZERO PUSH2 0xAA4 JUMPI PUSH1 0x0 DUP2 DUP2 PUSH2 0xA9B SWAP2 SWAP1 PUSH2 0xAA8 JUMP JUMPDEST POP PUSH1 0x1 ADD PUSH2 0xA85 JUMP JUMPDEST POP SWAP1 JUMP JUMPDEST POP DUP1 SLOAD PUSH2 0xAB4 SWAP1 PUSH2 0x11EC JUMP JUMPDEST PUSH1 0x0 DUP3 SSTORE DUP1 PUSH1 0x1F LT PUSH2 0xAC6 JUMPI POP PUSH2 0xAE5 JUMP JUMPDEST PUSH1 0x1F ADD PUSH1 0x20 SWAP1 DIV SWAP1 PUSH1 0x0 MSTORE PUSH1 0x20 PUSH1 0x0 KECCAK256 SWAP1 DUP2 ADD SWAP1 PUSH2 0xAE4 SWAP2 SWAP1 PUSH2 0xAE8 JUMP JUMPDEST JUMPDEST POP JUMP JUMPDEST JUMPDEST DUP1 DUP3 GT ISZERO PUSH2 0xB01 JUMPI PUSH1 0x0 DUP2 PUSH1 0x0 SWAP1 SSTORE POP PUSH1 0x1 ADD PUSH2 0xAE9 JUMP JUMPDEST POP SWAP1 JUMP JUMPDEST PUSH1 0x0 PUSH1 0x40 MLOAD SWAP1 POP SWAP1 JUMP JUMPDEST PUSH1 0x0 DUP1 REVERT JUMPDEST PUSH1 0x0 DUP1 REVERT JUMPDEST PUSH1 0x0 DUP2 SWAP1 POP SWAP2 SWAP1 POP JUMP JUMPDEST PUSH2 0xB2C DUP2 PUSH2 0xB19 JUMP JUMPDEST DUP2 EQ PUSH2 0xB37 JUMPI PUSH1 0x0 DUP1 REVERT JUMPDEST POP JUMP JUMPDEST PUSH1 0x0 DUP2 CALLDATALOAD SWAP1 POP PUSH2 0xB49 DUP2 PUSH2 0xB23 JUMP JUMPDEST SWAP3 SWAP2 POP POP JUMP JUMPDEST PUSH1 0x0 PUSH1 0x20 DUP3 DUP5 SUB SLT ISZERO PUSH2 0xB65 JUMPI PUSH2 0xB64 PUSH2 0xB0F JUMP JUMPDEST JUMPDEST PUSH1 0x0 PUSH2 0xB73 DUP5 DUP3 DUP6 ADD PUSH2 0xB3A JUMP JUMPDEST SWAP2 POP POP SWAP3 SWAP2 POP POP JUMP JUMPDEST PUSH1 0x0 PUSH20 0xFFFFFFFFFFFFFFFFFFFFFFFFFFFFFFFFFFFFFFFF DUP3 AND SWAP1 POP SWAP2 SWAP1 POP JUMP JUMPDEST PUSH1 0x0 PUSH2 0xBA7 DUP3 PUSH2 0xB7C JUMP JUMPDEST SWAP1 POP SWAP2 SWAP1 POP JUMP JUMPDEST PUSH2 0xBB7 DUP2 PUSH2 0xB9C JUMP JUMPDEST DUP3 MSTORE POP POP JUMP JUMPDEST PUSH1 0x0 PUSH1 0x20 DUP3 ADD SWAP1 POP PUSH2 0xBD2 PUSH1 0x0 DUP4 ADD DUP5 PUSH2 0xBAE JUMP JUMPDEST SWAP3 SWAP2 POP POP JUMP JUMPDEST PUSH2 0xBE1 DUP2 PUSH2 0xB9C JUMP JUMPDEST DUP2 EQ PUSH2 0xBEC JUMPI PUSH1 0x0 DUP1 REVERT JUMPDEST POP JUMP JUMPDEST PUSH1 0x0 DUP2 CALLDATALOAD SWAP1 POP PUSH2 0xBFE DUP2 PUSH2 0xBD8 JUMP JUMPDEST SWAP3 SWAP2 POP POP JUMP JUMPDEST PUSH1 0x0 PUSH1 0x20 DUP3 DUP5 SUB SLT ISZERO PUSH2 0xC1A JUMPI PUSH2 0xC19 PUSH2 0xB0F JUMP JUMPDEST JUMPDEST PUSH1 0x0 PUSH2 0xC28 DUP5 DUP3 DUP6 ADD PUSH2 0xBEF JUMP JUMPDEST SWAP2 POP POP SWAP3 SWAP2 POP POP JUMP JUMPDEST PUSH2 0xC3A DUP2 PUSH2 0xB19 JUMP JUMPDEST DUP3 MSTORE POP POP JUMP JUMPDEST PUSH1 0x0 DUP2 MLOAD SWAP1 POP SWAP2 SWAP1 POP JUMP JUMPDEST PUSH1 0x0 DUP3 DUP3 MSTORE PUSH1 0x20 DUP3 ADD SWAP1 POP SWAP3 SWAP2 POP POP JUMP JUMPDEST PUSH1 0x0 JUMPDEST DUP4 DUP2 LT ISZERO PUSH2 0xC7A JUMPI DUP1 DUP3 ADD MLOAD DUP2 DUP5 ADD MSTORE PUSH1 0x20 DUP2 ADD SWAP1 POP PUSH2 0xC5F JUMP JUMPDEST PUSH1 0x0 DUP5 DUP5 ADD MSTORE POP POP POP POP JUMP JUMPDEST PUSH1 0x0 PUSH1 0x1F NOT PUSH1 0x1F DUP4 ADD AND SWAP1 POP SWAP2 SWAP1 POP JUMP JUMPDEST PUSH1 0x0 PUSH2 0xCA2 DUP3 PUSH2 0xC40 JUMP JUMPDEST PUSH2 0xCAC DUP2 DUP6 PUSH2 0xC4B JUMP JUMPDEST SWAP4 POP PUSH2 0xCBC DUP2 DUP6 PUSH1 0x20 DUP7 ADD PUSH2 0xC5C JUMP JUMPDEST PUSH2 0xCC5 DUP2 PUSH2 0xC86 JUMP JUMPDEST DUP5 ADD SWAP2 POP POP SWAP3 SWAP2 POP POP JUMP JUMPDEST PUSH1 0x0 PUSH1 0x80 DUP3 ADD SWAP1 POP PUSH2 0xCE5 PUSH1 0x0 DUP4 ADD DUP8 PUSH2 0xC31 JUMP JUMPDEST DUP2 DUP2 SUB PUSH1 0x20 DUP4 ADD MSTORE PUSH2 0xCF7 DUP2 DUP7 PUSH2 0xC97 JUMP JUMPDEST SWAP1 POP PUSH2 0xD06 PUSH1 0x40 DUP4 ADD DUP6 PUSH2 0xC31 JUMP JUMPDEST PUSH2 0xD13 PUSH1 0x60 DUP4 ADD DUP5 PUSH2 0xBAE JUMP JUMPDEST SWAP6 SWAP5 POP POP POP POP POP JUMP JUMPDEST PUSH1 0x0 DUP2 MLOAD SWAP1 POP SWAP2 SWAP1 POP JUMP JUMPDEST PUSH1 0x0 DUP3 DUP3 MSTORE PUSH1 0x20 DUP3 ADD SWAP1 POP SWAP3 SWAP2 POP POP JUMP JUMPDEST PUSH1 0x0 DUP2 SWAP1 POP PUSH1 0x20 DUP3 ADD SWAP1 POP SWAP2 SWAP1 POP JUMP JUMPDEST PUSH2 0xD51 DUP2 PUSH2 0xB19 JUMP JUMPDEST DUP3 MSTORE POP POP JUMP JUMPDEST PUSH1 0x0 DUP3 DUP3 MSTORE PUSH1 0x20 DUP3 ADD SWAP1 POP SWAP3 SWAP2 POP POP JUMP JUMPDEST PUSH1 0x0 PUSH2 0xD73 DUP3 PUSH2 0xC40 JUMP JUMPDEST PUSH2 0xD7D DUP2 DUP6 PUSH2 0xD57 JUMP JUMPDEST SWAP4 POP PUSH2 0xD8D DUP2 DUP6 PUSH1 0x20 DUP7 ADD PUSH2 0xC5C JUMP JUMPDEST PUSH2 0xD96 DUP2 PUSH2 0xC86 JUMP JUMPDEST DUP5 ADD SWAP2 POP POP SWAP3 SWAP2 POP POP JUMP JUMPDEST PUSH2 0xDAA DUP2 PUSH2 0xB9C JUMP JUMPDEST DUP3 MSTORE POP POP JUMP JUMPDEST PUSH1 0x0 DUP2 MLOAD SWAP1 POP SWAP2 SWAP1 POP JUMP JUMPDEST PUSH1 0x0 DUP3 DUP3 MSTORE PUSH1 0x20 DUP3 ADD SWAP1 POP SWAP3 SWAP2 POP POP JUMP JUMPDEST PUSH1 0x0 DUP2 SWAP1 POP PUSH1 0x20 DUP3 ADD SWAP1 POP SWAP2 SWAP1 POP JUMP JUMPDEST PUSH1 0x0 PUSH2 0xDE8 DUP4 DUP4 PUSH2 0xD68 JUMP JUMPDEST SWAP1 POP SWAP3 SWAP2 POP POP JUMP JUMPDEST PUSH1 0x0 PUSH1 0x20 DUP3 ADD SWAP1 POP SWAP2 SWAP1 POP JUMP JUMPDEST PUSH1 0x0 PUSH2 0xE08 DUP3 PUSH2 0xDB0 JUMP JUMPDEST PUSH2 0xE12 DUP2 DUP6 PUSH2 0xDBB JUMP JUMPDEST SWAP4 POP DUP4 PUSH1 0x20 DUP3 MUL DUP6 ADD PUSH2 0xE24 DUP6 PUSH2 0xDCC JUMP JUMPDEST DUP1 PUSH1 0x0 JUMPDEST DUP6 DUP2 LT ISZERO PUSH2 0xE60 JUMPI DUP5 DUP5 SUB DUP10 MSTORE DUP2 MLOAD PUSH2 0xE41 DUP6 DUP3 PUSH2 0xDDC JUMP JUMPDEST SWAP5 POP PUSH2 0xE4C DUP4 PUSH2 0xDF0 JUMP JUMPDEST SWAP3 POP PUSH1 0x20 DUP11 ADD SWAP10 POP POP PUSH1 0x1 DUP2 ADD SWAP1 POP PUSH2 0xE28 JUMP JUMPDEST POP DUP3 SWAP8 POP DUP8 SWAP6 POP POP POP POP POP POP SWAP3 SWAP2 POP POP JUMP JUMPDEST PUSH1 0x0 PUSH1 0xE0 DUP4 ADD PUSH1 0x0 DUP4 ADD MLOAD PUSH2 0xE8A PUSH1 0x0 DUP7 ADD DUP3 PUSH2 0xD48 JUMP JUMPDEST POP PUSH1 0x20 DUP4 ADD MLOAD DUP5 DUP3 SUB PUSH1 0x20 DUP7 ADD MSTORE PUSH2 0xEA2 DUP3 DUP3 PUSH2 0xD68 JUMP JUMPDEST SWAP2 POP POP PUSH1 0x40 DUP4 ADD MLOAD PUSH2 0xEB7 PUSH1 0x40 DUP7 ADD DUP3 PUSH2 0xD48 JUMP JUMPDEST POP PUSH1 0x60 DUP4 ADD MLOAD PUSH2 0xECA PUSH1 0x60 DUP7 ADD DUP3 PUSH2 0xDA1 JUMP JUMPDEST POP PUSH1 0x80 DUP4 ADD MLOAD DUP5 DUP3 SUB PUSH1 0x80 DUP7 ADD MSTORE PUSH2 0xEE2 DUP3 DUP3 PUSH2 0xDFD JUMP JUMPDEST SWAP2 POP POP PUSH1 0xA0 DUP4 ADD MLOAD DUP5 DUP3 SUB PUSH1 0xA0 DUP7 ADD MSTORE PUSH2 0xEFC DUP3 DUP3 PUSH2 0xDFD JUMP JUMPDEST SWAP2 POP POP PUSH1 0xC0 DUP4 ADD MLOAD DUP5 DUP3 SUB PUSH1 0xC0 DUP7 ADD MSTORE PUSH2 0xF16 DUP3 DUP3 PUSH2 0xDFD JUMP JUMPDEST SWAP2 POP POP DUP1 SWAP2 POP POP SWAP3 SWAP2 POP POP JUMP JUMPDEST PUSH1 0x0 PUSH2 0xF2F DUP4 DUP4 PUSH2 0xE72 JUMP JUMPDEST SWAP1 POP SWAP3 SWAP2 POP POP JUMP JUMPDEST PUSH1 0x0 PUSH1 0x20 DUP3 ADD SWAP1 POP SWAP2 SWAP1 POP JUMP JUMPDEST PUSH1 0x0 PUSH2 0xF4F DUP3 PUSH2 0xD1C JUMP JUMPDEST PUSH2 0xF59 DUP2 DUP6 PUSH2 0xD27 JUMP JUMPDEST SWAP4 POP DUP4 PUSH1 0x20 DUP3 MUL DUP6 ADD PUSH2 0xF6B DUP6 PUSH2 0xD38 JUMP JUMPDEST DUP1 PUSH1 0x0 JUMPDEST DUP6 DUP2 LT ISZERO PUSH2 0xFA7 JUMPI DUP5 DUP5 SUB DUP10 MSTORE DUP2 MLOAD PUSH2 0xF88 DUP6 DUP3 PUSH2 0xF23 JUMP JUMPDEST SWAP5 POP PUSH2 0xF93 DUP4 PUSH2 0xF37 JUMP JUMPDEST SWAP3 POP PUSH1 0x20 DUP11 ADD SWAP10 POP POP PUSH1 0x1 DUP2 ADD SWAP1 POP PUSH2 0xF6F JUMP JUMPDEST POP DUP3 SWAP8 POP DUP8 SWAP6 POP POP POP POP POP POP SWAP3 SWAP2 POP POP JUMP JUMPDEST PUSH1 0x0 PUSH1 0x20 DUP3 ADD SWAP1 POP DUP2 DUP2 SUB PUSH1 0x0 DUP4 ADD MSTORE PUSH2 0xFD3 DUP2 DUP5 PUSH2 0xF44 JUMP JUMPDEST SWAP1 POP SWAP3 SWAP2 POP POP JUMP JUMPDEST PUSH1 0x0 DUP1 REVERT JUMPDEST PUSH1 0x0 DUP1 REVERT JUMPDEST PUSH32 0x4E487B7100000000000000000000000000000000000000000000000000000000 PUSH1 0x0 MSTORE PUSH1 0x41 PUSH1 0x4 MSTORE PUSH1 0x24 PUSH1 0x0 REVERT JUMPDEST PUSH2 0x101D DUP3 PUSH2 0xC86 JUMP JUMPDEST DUP2 ADD DUP2 DUP2 LT PUSH8 0xFFFFFFFFFFFFFFFF DUP3 GT OR ISZERO PUSH2 0x103C JUMPI PUSH2 0x103B PUSH2 0xFE5 JUMP JUMPDEST JUMPDEST DUP1 PUSH1 0x40 MSTORE POP POP POP JUMP JUMPDEST PUSH1 0x0 PUSH2 0x104F PUSH2 0xB05 JUMP JUMPDEST SWAP1 POP PUSH2 0x105B DUP3 DUP3 PUSH2 0x1014 JUMP JUMPDEST SWAP2 SWAP1 POP JUMP JUMPDEST PUSH1 0x0 PUSH8 0xFFFFFFFFFFFFFFFF DUP3 GT ISZERO PUSH2 0x107B JUMPI PUSH2 0x107A PUSH2 0xFE5 JUMP JUMPDEST JUMPDEST PUSH2 0x1084 DUP3 PUSH2 0xC86 JUMP JUMPDEST SWAP1 POP PUSH1 0x20 DUP2 ADD SWAP1 POP SWAP2 SWAP1 POP JUMP JUMPDEST DUP3 DUP2 DUP4 CALLDATACOPY PUSH1 0x0 DUP4 DUP4 ADD MSTORE POP POP POP JUMP JUMPDEST PUSH1 0x0 PUSH2 0x10B3 PUSH2 0x10AE DUP5 PUSH2 0x1060 JUMP JUMPDEST PUSH2 0x1045 JUMP JUMPDEST SWAP1 POP DUP3 DUP2 MSTORE PUSH1 0x20 DUP2 ADD DUP5 DUP5 DUP5 ADD GT ISZERO PUSH2 0x10CF JUMPI PUSH2 0x10CE PUSH2 0xFE0 JUMP JUMPDEST JUMPDEST PUSH2 0x10DA DUP5 DUP3 DUP6 PUSH2 0x1091 JUMP JUMPDEST POP SWAP4 SWAP3 POP POP POP JUMP JUMPDEST PUSH1 0x0 DUP3 PUSH1 0x1F DUP4 ADD SLT PUSH2 0x10F7 JUMPI PUSH2 0x10F6 PUSH2 0xFDB JUMP JUMPDEST JUMPDEST DUP2 CALLDATALOAD PUSH2 0x1107 DUP5 DUP3 PUSH1 0x20 DUP7 ADD PUSH2 0x10A0 JUMP JUMPDEST SWAP2 POP POP SWAP3 SWAP2 POP POP JUMP JUMPDEST PUSH1 0x0 DUP1 PUSH1 0x40 DUP4 DUP6 SUB SLT ISZERO PUSH2 0x1127 JUMPI PUSH2 0x1126 PUSH2 0xB0F JUMP JUMPDEST JUMPDEST PUSH1 0x0 DUP4 ADD CALLDATALOAD PUSH8 0xFFFFFFFFFFFFFFFF DUP2 GT ISZERO PUSH2 0x1145 JUMPI PUSH2 0x1144 PUSH2 0xB14 JUMP JUMPDEST JUMPDEST PUSH2 0x1151 DUP6 DUP3 DUP7 ADD PUSH2 0x10E2 JUMP JUMPDEST SWAP3 POP POP PUSH1 0x20 PUSH2 0x1162 DUP6 DUP3 DUP7 ADD PUSH2 0xB3A JUMP JUMPDEST SWAP2 POP POP SWAP3 POP SWAP3 SWAP1 POP JUMP JUMPDEST PUSH1 0x0 DUP2 ISZERO ISZERO SWAP1 POP SWAP2 SWAP1 POP JUMP JUMPDEST PUSH2 0x1181 DUP2 PUSH2 0x116C JUMP JUMPDEST DUP3 MSTORE POP POP JUMP JUMPDEST PUSH1 0x0 PUSH1 0x20 DUP3 ADD SWAP1 POP PUSH2 0x119C PUSH1 0x0 DUP4 ADD DUP5 PUSH2 0x1178 JUMP JUMPDEST SWAP3 SWAP2 POP POP JUMP JUMPDEST PUSH1 0x0 PUSH1 0x20 DUP3 ADD SWAP1 POP PUSH2 0x11B7 PUSH1 0x0 DUP4 ADD DUP5 PUSH2 0xC31 JUMP JUMPDEST SWAP3 SWAP2 POP POP JUMP JUMPDEST PUSH32 0x4E487B7100000000000000000000000000000000000000000000000000000000 PUSH1 0x0 MSTORE PUSH1 0x22 PUSH1 0x4 MSTORE PUSH1 0x24 PUSH1 0x0 REVERT JUMPDEST PUSH1 0x0 PUSH1 0x2 DUP3 DIV SWAP1 POP PUSH1 0x1 DUP3 AND DUP1 PUSH2 0x1204 JUMPI PUSH1 0x7F DUP3 AND SWAP2 POP JUMPDEST PUSH1 0x20 DUP3 LT DUP2 SUB PUSH2 0x1217 JUMPI PUSH2 0x1216 PUSH2 0x11BD JUMP JUMPDEST JUMPDEST POP SWAP2 SWAP1 POP JUMP JUMPDEST PUSH32 0x4E487B7100000000000000000000000000000000000000000000000000000000 PUSH1 0x0 MSTORE PUSH1 0x32 PUSH1 0x4 MSTORE PUSH1 0x24 PUSH1 0x0 REVERT JUMPDEST PUSH32 0x4E487B7100000000000000000000000000000000000000000000000000000000 PUSH1 0x0 MSTORE PUSH1 0x11 PUSH1 0x4 MSTORE PUSH1 0x24 PUSH1 0x0 REVERT JUMPDEST PUSH1 0x0 PUSH2 0x1286 DUP3 PUSH2 0xB19 JUMP JUMPDEST SWAP2 POP PUSH32 0xFFFFFFFFFFFFFFFFFFFFFFFFFFFFFFFFFFFFFFFFFFFFFFFFFFFFFFFFFFFFFFFF DUP3 SUB PUSH2 0x12B8 JUMPI PUSH2 0x12B7 PUSH2 0x124C JUMP JUMPDEST JUMPDEST PUSH1 0x1 DUP3 ADD SWAP1 POP SWAP2 SWAP1 POP JUMP JUMPDEST PUSH32 0x50617469656E7420616C72656164792065786973747300000000000000000000 PUSH1 0x0 DUP3 ADD MSTORE POP JUMP JUMPDEST PUSH1 0x0 PUSH2 0x12F9 PUSH1 0x16 DUP4 PUSH2 0xC4B JUMP JUMPDEST SWAP2 POP PUSH2 0x1304 DUP3 PUSH2 0x12C3 JUMP JUMPDEST PUSH1 0x20 DUP3 ADD SWAP1 POP SWAP2 SWAP1 POP JUMP JUMPDEST PUSH1 0x0 PUSH1 0x20 DUP3 ADD SWAP1 POP DUP2 DUP2 SUB PUSH1 0x0 DUP4 ADD MSTORE PUSH2 0x1328 DUP2 PUSH2 0x12EC JUMP JUMPDEST SWAP1 POP SWAP2 SWAP1 POP JUMP JUMPDEST PUSH1 0x0 DUP2 SWAP1 POP DUP2 PUSH1 0x0 MSTORE PUSH1 0x20 PUSH1 0x0 KECCAK256 SWAP1 POP SWAP2 SWAP1 POP JUMP JUMPDEST PUSH1 0x0 PUSH1 0x20 PUSH1 0x1F DUP4 ADD DIV SWAP1 POP SWAP2 SWAP1 POP JUMP JUMPDEST PUSH1 0x0 DUP3 DUP3 SHL SWAP1 POP SWAP3 SWAP2 POP POP JUMP JUMPDEST PUSH1 0x0 PUSH1 0x8 DUP4 MUL PUSH2 0x1391 PUSH32 0xFFFFFFFFFFFFFFFFFFFFFFFFFFFFFFFFFFFFFFFFFFFFFFFFFFFFFFFFFFFFFFFF DUP3 PUSH2 0x1354 JUMP JUMPDEST PUSH2 0x139B DUP7 DUP4 PUSH2 0x1354 JUMP JUMPDEST SWAP6 POP DUP1 NOT DUP5 AND SWAP4 POP DUP1 DUP7 AND DUP5 OR SWAP3 POP POP POP SWAP4 SWAP3 POP POP POP JUMP JUMPDEST PUSH1 0x0 DUP2 SWAP1 POP SWAP2 SWAP1 POP JUMP JUMPDEST PUSH1 0x0 PUSH2 0x13D8 PUSH2 0x13D3 PUSH2 0x13CE DUP5 PUSH2 0xB19 JUMP JUMPDEST PUSH2 0x13B3 JUMP JUMPDEST PUSH2 0xB19 JUMP JUMPDEST SWAP1 POP SWAP2 SWAP1 POP JUMP JUMPDEST PUSH1 0x0 DUP2 SWAP1 POP SWAP2 SWAP1 POP JUMP JUMPDEST PUSH2 0x13F2 DUP4 PUSH2 0x13BD JUMP JUMPDEST PUSH2 0x1406 PUSH2 0x13FE DUP3 PUSH2 0x13DF JUMP JUMPDEST DUP5 DUP5 SLOAD PUSH2 0x1361 JUMP JUMPDEST DUP3 SSTORE POP POP POP POP JUMP JUMPDEST PUSH1 0x0 SWAP1 JUMP JUMPDEST PUSH2 0x141B PUSH2 0x140E JUMP JUMPDEST PUSH2 0x1426 DUP2 DUP5 DUP5 PUSH2 0x13E9 JUMP JUMPDEST POP POP POP JUMP JUMPDEST JUMPDEST DUP2 DUP2 LT ISZERO PUSH2 0x144A JUMPI PUSH2 0x143F PUSH1 0x0 DUP3 PUSH2 0x1413 JUMP JUMPDEST PUSH1 0x1 DUP2 ADD SWAP1 POP PUSH2 0x142C JUMP JUMPDEST POP POP JUMP JUMPDEST PUSH1 0x1F DUP3 GT ISZERO PUSH2 0x148F JUMPI PUSH2 0x1460 DUP2 PUSH2 0x132F JUMP JUMPDEST PUSH2 0x1469 DUP5 PUSH2 0x1344 JUMP JUMPDEST DUP2 ADD PUSH1 0x20 DUP6 LT ISZERO PUSH2 0x1478 JUMPI DUP2 SWAP1 POP JUMPDEST PUSH2 0x148C PUSH2 0x1484 DUP6 PUSH2 0x1344 JUMP JUMPDEST DUP4 ADD DUP3 PUSH2 0x142B JUMP JUMPDEST POP POP JUMPDEST POP POP POP JUMP JUMPDEST PUSH1 0x0 DUP3 DUP3 SHR SWAP1 POP SWAP3 SWAP2 POP POP JUMP JUMPDEST PUSH1 0x0 PUSH2 0x14B2 PUSH1 0x0 NOT DUP5 PUSH1 0x8 MUL PUSH2 0x1494 JUMP JUMPDEST NOT DUP1 DUP4 AND SWAP2 POP POP SWAP3 SWAP2 POP POP JUMP JUMPDEST PUSH1 0x0 PUSH2 0x14CB DUP4 DUP4 PUSH2 0x14A1 JUMP JUMPDEST SWAP2 POP DUP3 PUSH1 0x2 MUL DUP3 OR SWAP1 POP SWAP3 SWAP2 POP POP JUMP JUMPDEST PUSH2 0x14E4 DUP3 PUSH2 0xC40 JUMP JUMPDEST PUSH8 0xFFFFFFFFFFFFFFFF DUP2 GT ISZERO PUSH2 0x14FD JUMPI PUSH2 0x14FC PUSH2 0xFE5 JUMP JUMPDEST JUMPDEST PUSH2 0x1507 DUP3 SLOAD PUSH2 0x11EC JUMP JUMPDEST PUSH2 0x1512 DUP3 DUP3 DUP6 PUSH2 0x144E JUMP JUMPDEST PUSH1 0x0 PUSH1 0x20 SWAP1 POP PUSH1 0x1F DUP4 GT PUSH1 0x1 DUP2 EQ PUSH2 0x1545 JUMPI PUSH1 0x0 DUP5 ISZERO PUSH2 0x1533 JUMPI DUP3 DUP8 ADD MLOAD SWAP1 POP JUMPDEST PUSH2 0x153D DUP6 DUP3 PUSH2 0x14BF JUMP JUMPDEST DUP7 SSTORE POP PUSH2 0x15A5 JUMP JUMPDEST PUSH1 0x1F NOT DUP5 AND PUSH2 0x1553 DUP7 PUSH2 0x132F JUMP JUMPDEST PUSH1 0x0 JUMPDEST DUP3 DUP2 LT ISZERO PUSH2 0x157B JUMPI DUP5 DUP10 ADD MLOAD DUP3 SSTORE PUSH1 0x1 DUP3 ADD SWAP2 POP PUSH1 0x20 DUP6 ADD SWAP5 POP PUSH1 0x20 DUP2 ADD SWAP1 POP PUSH2 0x1556 JUMP JUMPDEST DUP7 DUP4 LT ISZERO PUSH2 0x1598 JUMPI DUP5 DUP10 ADD MLOAD PUSH2 0x1594 PUSH1 0x1F DUP10 AND DUP3 PUSH2 0x14A1 JUMP JUMPDEST DUP4 SSTORE POP JUMPDEST PUSH1 0x1 PUSH1 0x2 DUP9 MUL ADD DUP9 SSTORE POP POP POP JUMPDEST POP POP POP POP POP POP JUMP INVALID LOG2 PUSH5 0x6970667358 0x22 SLT KECCAK256 0xE0 PREVRANDAO 0xEB 0xC4 0xEE AND 0xDA SWAP16 MULMOD PUSH15 0x13612EBA1516AC9F3CD92E9973A7AA PUSH13 0xA4C8A33DF11064736F6C634300 ADDMOD SLT STOP CALLER "
				},
				"gasEstimates": {
					"creation": {
						"codeDepositCost": "1120600",
						"executionCost": "1167",
						"totalCost": "1121767"
					},
					"external": {
						"getAllPatients()": "infinite",
						"patientAddress(uint256)": "4934",
						"patientCount()": "2517",
						"patientNotExists()": "infinite",
						"patients(address)": "infinite",
						"registerPatient(string,uint256)": "infinite"
					}
				},
				"methodIdentifiers": {
					"getAllPatients()": "18a231a9",
					"patientAddress(uint256)": "05aeeea7",
					"patientCount()": "a0303c41",
					"patientNotExists()": "33c5d641",
					"patients(address)": "0869cfbc",
					"registerPatient(string,uint256)": "2de304ed"
				}
			},
			"storageLayout": {
				"storage": [
					{
						"astId": 24,
						"contract": "Patient.sol:Patient",
						"label": "patients",
						"offset": 0,
						"slot": "0",
						"type": "t_mapping(t_address,t_struct(PatientDetails)19_storage)"
					},
					{
						"astId": 26,
						"contract": "Patient.sol:Patient",
						"label": "patientCount",
						"offset": 0,
						"slot": "1",
						"type": "t_uint256"
					},
					{
						"astId": 29,
						"contract": "Patient.sol:Patient",
						"label": "patientAddress",
						"offset": 0,
						"slot": "2",
						"type": "t_array(t_address)dyn_storage"
					}
				],
				"types": {
					"t_address": {
						"encoding": "inplace",
						"label": "address",
						"numberOfBytes": "20"
					},
					"t_array(t_address)dyn_storage": {
						"base": "t_address",
						"encoding": "dynamic_array",
						"label": "address[]",
						"numberOfBytes": "32"
					},
					"t_array(t_string_storage)dyn_storage": {
						"base": "t_string_storage",
						"encoding": "dynamic_array",
						"label": "string[]",
						"numberOfBytes": "32"
					},
					"t_mapping(t_address,t_struct(PatientDetails)19_storage)": {
						"encoding": "mapping",
						"key": "t_address",
						"label": "mapping(address => struct Patient.PatientDetails)",
						"numberOfBytes": "32",
						"value": "t_struct(PatientDetails)19_storage"
					},
					"t_string_storage": {
						"encoding": "bytes",
						"label": "string",
						"numberOfBytes": "32"
					},
					"t_struct(PatientDetails)19_storage": {
						"encoding": "inplace",
						"label": "struct Patient.PatientDetails",
						"members": [
							{
								"astId": 3,
								"contract": "Patient.sol:Patient",
								"label": "id",
								"offset": 0,
								"slot": "0",
								"type": "t_uint256"
							},
							{
								"astId": 5,
								"contract": "Patient.sol:Patient",
								"label": "name",
								"offset": 0,
								"slot": "1",
								"type": "t_string_storage"
							},
							{
								"astId": 7,
								"contract": "Patient.sol:Patient",
								"label": "age",
								"offset": 0,
								"slot": "2",
								"type": "t_uint256"
							},
							{
								"astId": 9,
								"contract": "Patient.sol:Patient",
								"label": "publicAddress",
								"offset": 0,
								"slot": "3",
								"type": "t_address"
							},
							{
								"astId": 12,
								"contract": "Patient.sol:Patient",
								"label": "diseases",
								"offset": 0,
								"slot": "4",
								"type": "t_array(t_string_storage)dyn_storage"
							},
							{
								"astId": 15,
								"contract": "Patient.sol:Patient",
								"label": "medicines",
								"offset": 0,
								"slot": "5",
								"type": "t_array(t_string_storage)dyn_storage"
							},
							{
								"astId": 18,
								"contract": "Patient.sol:Patient",
								"label": "allowedDoctors",
								"offset": 0,
								"slot": "6",
								"type": "t_array(t_string_storage)dyn_storage"
							}
						],
						"numberOfBytes": "224"
					},
					"t_uint256": {
						"encoding": "inplace",
						"label": "uint256",
						"numberOfBytes": "32"
					}
				}
			},
			"userdoc": {
				"kind": "user",
				"methods": {},
				"version": 1
			}
		}
	}
}