{
	"Patient.sol": {
		"Patient": {
			"abi": [
				{
					"inputs": [
						{
							"internalType": "uint256",
							"name": "id",
							"type": "uint256"
						},
						{
							"internalType": "address",
							"name": "pAddr",
							"type": "address"
						}
					],
					"name": "addMedicineToPatient",
					"outputs": [],
					"stateMutability": "nonpayable",
					"type": "function"
				},
				{
					"inputs": [],
					"name": "getAllPatients",
					"outputs": [
						{
							"components": [
								{
									"internalType": "uint256",
									"name": "id",
									"type": "uint256"
								},
								{
									"internalType": "string",
									"name": "name",
									"type": "string"
								},
								{
									"internalType": "uint256",
									"name": "age",
									"type": "uint256"
								},
								{
									"internalType": "address",
									"name": "publicAddress",
									"type": "address"
								},
								{
									"internalType": "string[]",
									"name": "diseases",
									"type": "string[]"
								},
								{
									"internalType": "uint256[]",
									"name": "medicines",
									"type": "uint256[]"
								},
								{
									"internalType": "string[]",
									"name": "allowedDoctors",
									"type": "string[]"
								}
							],
							"internalType": "struct Patient.PatientDetails[]",
							"name": "",
							"type": "tuple[]"
						}
					],
					"stateMutability": "view",
					"type": "function"
				},
				{
					"inputs": [
						{
							"internalType": "address",
							"name": "pAddr",
							"type": "address"
						},
						{
							"internalType": "string",
							"name": "diseaseName",
							"type": "string"
						}
					],
					"name": "patientAddDisease",
					"outputs": [],
					"stateMutability": "nonpayable",
					"type": "function"
				},
				{
					"inputs": [
						{
							"internalType": "uint256",
							"name": "",
							"type": "uint256"
						}
					],
					"name": "patientAddress",
					"outputs": [
						{
							"internalType": "address",
							"name": "",
							"type": "address"
						}
					],
					"stateMutability": "view",
					"type": "function"
				},
				{
					"inputs": [],
					"name": "patientCount",
					"outputs": [
						{
							"internalType": "uint256",
							"name": "",
							"type": "uint256"
						}
					],
					"stateMutability": "view",
					"type": "function"
				},
				{
					"inputs": [
						{
							"internalType": "address",
							"name": "pAddr",
							"type": "address"
						}
					],
					"name": "patientNotExists",
					"outputs": [
						{
							"internalType": "bool",
							"name": "",
							"type": "bool"
						}
					],
					"stateMutability": "view",
					"type": "function"
				},
				{
					"inputs": [
						{
							"internalType": "address",
							"name": "",
							"type": "address"
						}
					],
					"name": "patients",
					"outputs": [
						{
							"internalType": "uint256",
							"name": "id",
							"type": "uint256"
						},
						{
							"internalType": "string",
							"name": "name",
							"type": "string"
						},
						{
							"internalType": "uint256",
							"name": "age",
							"type": "uint256"
						},
						{
							"internalType": "address",
							"name": "publicAddress",
							"type": "address"
						}
					],
					"stateMutability": "view",
					"type": "function"
				},
				{
					"inputs": [
						{
							"internalType": "string",
							"name": "_name",
							"type": "string"
						},
						{
							"internalType": "uint256",
							"name": "_age",
							"type": "uint256"
						},
						{
							"internalType": "address",
							"name": "pAddr",
							"type": "address"
						}
					],
					"name": "registerPatient",
					"outputs": [],
					"stateMutability": "nonpayable",
					"type": "function"
				}
			],
			"devdoc": {
				"kind": "dev",
				"methods": {},
				"version": 1
			},
			"evm": {
				"assembly": "    /* \"Patient.sol\":57:1859  contract Patient {... */\n  mstore(0x40, 0x80)\n  callvalue\n  dup1\n  iszero\n  tag_1\n  jumpi\n  0x00\n  dup1\n  revert\ntag_1:\n  pop\n  dataSize(sub_0)\n  dup1\n  dataOffset(sub_0)\n  0x00\n  codecopy\n  0x00\n  return\nstop\n\nsub_0: assembly {\n        /* \"Patient.sol\":57:1859  contract Patient {... */\n      mstore(0x40, 0x80)\n      callvalue\n      dup1\n      iszero\n      tag_1\n      jumpi\n      0x00\n      dup1\n      revert\n    tag_1:\n      pop\n      jumpi(tag_2, lt(calldatasize, 0x04))\n      shr(0xe0, calldataload(0x00))\n      dup1\n      0xa0303c41\n      gt\n      tag_11\n      jumpi\n      dup1\n      0xa0303c41\n      eq\n      tag_7\n      jumpi\n      dup1\n      0xa5f097a6\n      eq\n      tag_8\n      jumpi\n      dup1\n      0xc30d742e\n      eq\n      tag_9\n      jumpi\n      dup1\n      0xe359fe04\n      eq\n      tag_10\n      jumpi\n      jump(tag_2)\n    tag_11:\n      dup1\n      0x05aeeea7\n      eq\n      tag_3\n      jumpi\n      dup1\n      0x0869cfbc\n      eq\n      tag_4\n      jumpi\n      dup1\n      0x18a231a9\n      eq\n      tag_5\n      jumpi\n      dup1\n      0x536ded4b\n      eq\n      tag_6\n      jumpi\n    tag_2:\n      0x00\n      dup1\n      revert\n        /* \"Patient.sol\":377:408  address[] public patientAddress */\n    tag_3:\n      tag_12\n      0x04\n      dup1\n      calldatasize\n      sub\n      dup2\n      add\n      swap1\n      tag_13\n      swap2\n      swap1\n      tag_14\n      jump\t// in\n    tag_13:\n      tag_15\n      jump\t// in\n    tag_12:\n      mload(0x40)\n      tag_16\n      swap2\n      swap1\n      tag_17\n      jump\t// in\n    tag_16:\n      mload(0x40)\n      dup1\n      swap2\n      sub\n      swap1\n      return\n        /* \"Patient.sol\":291:341  mapping(address => PatientDetails) public patients */\n    tag_4:\n      tag_18\n      0x04\n      dup1\n      calldatasize\n      sub\n      dup2\n      add\n      swap1\n      tag_19\n      swap2\n      swap1\n      tag_20\n      jump\t// in\n    tag_19:\n      tag_21\n      jump\t// in\n    tag_18:\n      mload(0x40)\n      tag_22\n      swap5\n      swap4\n      swap3\n      swap2\n      swap1\n      tag_23\n      jump\t// in\n    tag_22:\n      mload(0x40)\n      dup1\n      swap2\n      sub\n      swap1\n      return\n        /* \"Patient.sol\":1302:1594  function getAllPatients() public view returns (PatientDetails[] memory) {... */\n    tag_5:\n      tag_24\n      tag_25\n      jump\t// in\n    tag_24:\n      mload(0x40)\n      tag_26\n      swap2\n      swap1\n      tag_27\n      jump\t// in\n    tag_26:\n      mload(0x40)\n      dup1\n      swap2\n      sub\n      swap1\n      return\n        /* \"Patient.sol\":415:664  function patientNotExists(address pAddr) public view returns (bool) {... */\n    tag_6:\n      tag_28\n      0x04\n      dup1\n      calldatasize\n      sub\n      dup2\n      add\n      swap1\n      tag_29\n      swap2\n      swap1\n      tag_20\n      jump\t// in\n    tag_29:\n      tag_30\n      jump\t// in\n    tag_28:\n      mload(0x40)\n      tag_31\n      swap2\n      swap1\n      tag_32\n      jump\t// in\n    tag_31:\n      mload(0x40)\n      dup1\n      swap2\n      sub\n      swap1\n      return\n        /* \"Patient.sol\":347:371  uint public patientCount */\n    tag_7:\n      tag_33\n      tag_34\n      jump\t// in\n    tag_33:\n      mload(0x40)\n      tag_35\n      swap2\n      swap1\n      tag_36\n      jump\t// in\n    tag_35:\n      mload(0x40)\n      dup1\n      swap2\n      sub\n      swap1\n      return\n        /* \"Patient.sol\":1742:1857  function addMedicineToPatient(uint256 id, address pAddr) public {... */\n    tag_8:\n      tag_37\n      0x04\n      dup1\n      calldatasize\n      sub\n      dup2\n      add\n      swap1\n      tag_38\n      swap2\n      swap1\n      tag_39\n      jump\t// in\n    tag_38:\n      tag_40\n      jump\t// in\n    tag_37:\n      stop\n        /* \"Patient.sol\":670:1296  function registerPatient(string memory _name, uint _age, address pAddr) public {... */\n    tag_9:\n      tag_41\n      0x04\n      dup1\n      calldatasize\n      sub\n      dup2\n      add\n      swap1\n      tag_42\n      swap2\n      swap1\n      tag_43\n      jump\t// in\n    tag_42:\n      tag_44\n      jump\t// in\n    tag_41:\n      stop\n        /* \"Patient.sol\":1600:1736  function patientAddDisease(address  pAddr, string memory diseaseName) public {... */\n    tag_10:\n      tag_45\n      0x04\n      dup1\n      calldatasize\n      sub\n      dup2\n      add\n      swap1\n      tag_46\n      swap2\n      swap1\n      tag_47\n      jump\t// in\n    tag_46:\n      tag_48\n      jump\t// in\n    tag_45:\n      stop\n        /* \"Patient.sol\":377:408  address[] public patientAddress */\n    tag_15:\n      0x02\n      dup2\n      dup2\n      sload\n      dup2\n      lt\n      tag_49\n      jumpi\n      0x00\n      dup1\n      revert\n    tag_49:\n      swap1\n      0x00\n      mstore\n      keccak256(0x00, 0x20)\n      add\n      0x00\n      swap2\n      pop\n      sload\n      swap1\n      0x0100\n      exp\n      swap1\n      div\n      0xffffffffffffffffffffffffffffffffffffffff\n      and\n      dup2\n      jump\t// out\n        /* \"Patient.sol\":291:341  mapping(address => PatientDetails) public patients */\n    tag_21:\n      mstore(0x20, 0x00)\n      dup1\n      0x00\n      mstore\n      keccak256(0x00, 0x40)\n      0x00\n      swap2\n      pop\n      swap1\n      pop\n      dup1\n      0x00\n      add\n      sload\n      swap1\n      dup1\n      0x01\n      add\n      dup1\n      sload\n      tag_51\n      swap1\n      tag_52\n      jump\t// in\n    tag_51:\n      dup1\n      0x1f\n      add\n      0x20\n      dup1\n      swap2\n      div\n      mul\n      0x20\n      add\n      mload(0x40)\n      swap1\n      dup2\n      add\n      0x40\n      mstore\n      dup1\n      swap3\n      swap2\n      swap1\n      dup2\n      dup2\n      mstore\n      0x20\n      add\n      dup3\n      dup1\n      sload\n      tag_53\n      swap1\n      tag_52\n      jump\t// in\n    tag_53:\n      dup1\n      iszero\n      tag_54\n      jumpi\n      dup1\n      0x1f\n      lt\n      tag_55\n      jumpi\n      0x0100\n      dup1\n      dup4\n      sload\n      div\n      mul\n      dup4\n      mstore\n      swap2\n      0x20\n      add\n      swap2\n      jump(tag_54)\n    tag_55:\n      dup3\n      add\n      swap2\n      swap1\n      0x00\n      mstore\n      keccak256(0x00, 0x20)\n      swap1\n    tag_56:\n      dup2\n      sload\n      dup2\n      mstore\n      swap1\n      0x01\n      add\n      swap1\n      0x20\n      add\n      dup1\n      dup4\n      gt\n      tag_56\n      jumpi\n      dup3\n      swap1\n      sub\n      0x1f\n      and\n      dup3\n      add\n      swap2\n    tag_54:\n      pop\n      pop\n      pop\n      pop\n      pop\n      swap1\n      dup1\n      0x02\n      add\n      sload\n      swap1\n      dup1\n      0x03\n      add\n      0x00\n      swap1\n      sload\n      swap1\n      0x0100\n      exp\n      swap1\n      div\n      0xffffffffffffffffffffffffffffffffffffffff\n      and\n      swap1\n      pop\n      dup5\n      jump\t// out\n        /* \"Patient.sol\":1302:1594  function getAllPatients() public view returns (PatientDetails[] memory) {... */\n    tag_25:\n        /* \"Patient.sol\":1349:1372  PatientDetails[] memory */\n      0x60\n        /* \"Patient.sol\":1384:1414  PatientDetails[] memory result */\n      0x00\n        /* \"Patient.sol\":1438:1450  patientCount */\n      sload(0x01)\n        /* \"Patient.sol\":1417:1451  new PatientDetails[](patientCount) */\n      0xffffffffffffffff\n      dup2\n      gt\n      iszero\n      tag_58\n      jumpi\n      tag_59\n      tag_60\n      jump\t// in\n    tag_59:\n    tag_58:\n      mload(0x40)\n      swap1\n      dup1\n      dup3\n      mstore\n      dup1\n      0x20\n      mul\n      0x20\n      add\n      dup3\n      add\n      0x40\n      mstore\n      dup1\n      iszero\n      tag_61\n      jumpi\n      dup2\n      0x20\n      add\n    tag_62:\n      tag_63\n      tag_64\n      jump\t// in\n    tag_63:\n      dup2\n      mstore\n      0x20\n      add\n      swap1\n      0x01\n      swap1\n      sub\n      swap1\n      dup2\n      tag_62\n      jumpi\n      swap1\n      pop\n    tag_61:\n      pop\n        /* \"Patient.sol\":1384:1451  PatientDetails[] memory result = new PatientDetails[](patientCount) */\n      swap1\n      pop\n        /* \"Patient.sol\":1466:1472  uint i */\n      0x00\n        /* \"Patient.sol\":1461:1565  for (uint i = 0; i < patientCount; i++) {... */\n    tag_65:\n        /* \"Patient.sol\":1482:1494  patientCount */\n      sload(0x01)\n        /* \"Patient.sol\":1478:1479  i */\n      dup2\n        /* \"Patient.sol\":1478:1494  i < patientCount */\n      lt\n        /* \"Patient.sol\":1461:1565  for (uint i = 0; i < patientCount; i++) {... */\n      iszero\n      tag_66\n      jumpi\n        /* \"Patient.sol\":1527:1535  patients */\n      0x00\n        /* \"Patient.sol\":1527:1554  patients[patientAddress[i]] */\n      dup1\n        /* \"Patient.sol\":1536:1550  patientAddress */\n      0x02\n        /* \"Patient.sol\":1551:1552  i */\n      dup4\n        /* \"Patient.sol\":1536:1553  patientAddress[i] */\n      dup2\n      sload\n      dup2\n      lt\n      tag_68\n      jumpi\n      tag_69\n      tag_70\n      jump\t// in\n    tag_69:\n    tag_68:\n      swap1\n      0x00\n      mstore\n      keccak256(0x00, 0x20)\n      add\n      0x00\n      swap1\n      sload\n      swap1\n      0x0100\n      exp\n      swap1\n      div\n      0xffffffffffffffffffffffffffffffffffffffff\n      and\n        /* \"Patient.sol\":1527:1554  patients[patientAddress[i]] */\n      0xffffffffffffffffffffffffffffffffffffffff\n      and\n      0xffffffffffffffffffffffffffffffffffffffff\n      and\n      dup2\n      mstore\n      0x20\n      add\n      swap1\n      dup2\n      mstore\n      0x20\n      add\n      0x00\n      keccak256\n        /* \"Patient.sol\":1515:1554  result[i] = patients[patientAddress[i]] */\n      mload(0x40)\n      dup1\n      0xe0\n      add\n      0x40\n      mstore\n      swap1\n      dup2\n      0x00\n      dup3\n      add\n      sload\n      dup2\n      mstore\n      0x20\n      add\n      0x01\n      dup3\n      add\n      dup1\n      sload\n      tag_72\n      swap1\n      tag_52\n      jump\t// in\n    tag_72:\n      dup1\n      0x1f\n      add\n      0x20\n      dup1\n      swap2\n      div\n      mul\n      0x20\n      add\n      mload(0x40)\n      swap1\n      dup2\n      add\n      0x40\n      mstore\n      dup1\n      swap3\n      swap2\n      swap1\n      dup2\n      dup2\n      mstore\n      0x20\n      add\n      dup3\n      dup1\n      sload\n      tag_73\n      swap1\n      tag_52\n      jump\t// in\n    tag_73:\n      dup1\n      iszero\n      tag_74\n      jumpi\n      dup1\n      0x1f\n      lt\n      tag_75\n      jumpi\n      0x0100\n      dup1\n      dup4\n      sload\n      div\n      mul\n      dup4\n      mstore\n      swap2\n      0x20\n      add\n      swap2\n      jump(tag_74)\n    tag_75:\n      dup3\n      add\n      swap2\n      swap1\n      0x00\n      mstore\n      keccak256(0x00, 0x20)\n      swap1\n    tag_76:\n      dup2\n      sload\n      dup2\n      mstore\n      swap1\n      0x01\n      add\n      swap1\n      0x20\n      add\n      dup1\n      dup4\n      gt\n      tag_76\n      jumpi\n      dup3\n      swap1\n      sub\n      0x1f\n      and\n      dup3\n      add\n      swap2\n    tag_74:\n      pop\n      pop\n      pop\n      pop\n      pop\n      dup2\n      mstore\n      0x20\n      add\n      0x02\n      dup3\n      add\n      sload\n      dup2\n      mstore\n      0x20\n      add\n      0x03\n      dup3\n      add\n      0x00\n      swap1\n      sload\n      swap1\n      0x0100\n      exp\n      swap1\n      div\n      0xffffffffffffffffffffffffffffffffffffffff\n      and\n      0xffffffffffffffffffffffffffffffffffffffff\n      and\n      0xffffffffffffffffffffffffffffffffffffffff\n      and\n      dup2\n      mstore\n      0x20\n      add\n      0x04\n      dup3\n      add\n      dup1\n      sload\n      dup1\n      0x20\n      mul\n      0x20\n      add\n      mload(0x40)\n      swap1\n      dup2\n      add\n      0x40\n      mstore\n      dup1\n      swap3\n      swap2\n      swap1\n      dup2\n      dup2\n      mstore\n      0x20\n      add\n      0x00\n      swap1\n    tag_77:\n      dup3\n      dup3\n      lt\n      iszero\n      tag_78\n      jumpi\n      dup4\n      dup3\n      swap1\n      0x00\n      mstore\n      keccak256(0x00, 0x20)\n      add\n      dup1\n      sload\n      tag_80\n      swap1\n      tag_52\n      jump\t// in\n    tag_80:\n      dup1\n      0x1f\n      add\n      0x20\n      dup1\n      swap2\n      div\n      mul\n      0x20\n      add\n      mload(0x40)\n      swap1\n      dup2\n      add\n      0x40\n      mstore\n      dup1\n      swap3\n      swap2\n      swap1\n      dup2\n      dup2\n      mstore\n      0x20\n      add\n      dup3\n      dup1\n      sload\n      tag_81\n      swap1\n      tag_52\n      jump\t// in\n    tag_81:\n      dup1\n      iszero\n      tag_82\n      jumpi\n      dup1\n      0x1f\n      lt\n      tag_83\n      jumpi\n      0x0100\n      dup1\n      dup4\n      sload\n      div\n      mul\n      dup4\n      mstore\n      swap2\n      0x20\n      add\n      swap2\n      jump(tag_82)\n    tag_83:\n      dup3\n      add\n      swap2\n      swap1\n      0x00\n      mstore\n      keccak256(0x00, 0x20)\n      swap1\n    tag_84:\n      dup2\n      sload\n      dup2\n      mstore\n      swap1\n      0x01\n      add\n      swap1\n      0x20\n      add\n      dup1\n      dup4\n      gt\n      tag_84\n      jumpi\n      dup3\n      swap1\n      sub\n      0x1f\n      and\n      dup3\n      add\n      swap2\n    tag_82:\n      pop\n      pop\n      pop\n      pop\n      pop\n      dup2\n      mstore\n      0x20\n      add\n      swap1\n      0x01\n      add\n      swap1\n      jump(tag_77)\n    tag_78:\n      pop\n      pop\n      pop\n      pop\n      dup2\n      mstore\n      0x20\n      add\n      0x05\n      dup3\n      add\n      dup1\n      sload\n      dup1\n      0x20\n      mul\n      0x20\n      add\n      mload(0x40)\n      swap1\n      dup2\n      add\n      0x40\n      mstore\n      dup1\n      swap3\n      swap2\n      swap1\n      dup2\n      dup2\n      mstore\n      0x20\n      add\n      dup3\n      dup1\n      sload\n      dup1\n      iszero\n      tag_85\n      jumpi\n      0x20\n      mul\n      dup3\n      add\n      swap2\n      swap1\n      0x00\n      mstore\n      keccak256(0x00, 0x20)\n      swap1\n    tag_86:\n      dup2\n      sload\n      dup2\n      mstore\n      0x20\n      add\n      swap1\n      0x01\n      add\n      swap1\n      dup1\n      dup4\n      gt\n      tag_86\n      jumpi\n    tag_85:\n      pop\n      pop\n      pop\n      pop\n      pop\n      dup2\n      mstore\n      0x20\n      add\n      0x06\n      dup3\n      add\n      dup1\n      sload\n      dup1\n      0x20\n      mul\n      0x20\n      add\n      mload(0x40)\n      swap1\n      dup2\n      add\n      0x40\n      mstore\n      dup1\n      swap3\n      swap2\n      swap1\n      dup2\n      dup2\n      mstore\n      0x20\n      add\n      0x00\n      swap1\n    tag_87:\n      dup3\n      dup3\n      lt\n      iszero\n      tag_88\n      jumpi\n      dup4\n      dup3\n      swap1\n      0x00\n      mstore\n      keccak256(0x00, 0x20)\n      add\n      dup1\n      sload\n      tag_90\n      swap1\n      tag_52\n      jump\t// in\n    tag_90:\n      dup1\n      0x1f\n      add\n      0x20\n      dup1\n      swap2\n      div\n      mul\n      0x20\n      add\n      mload(0x40)\n      swap1\n      dup2\n      add\n      0x40\n      mstore\n      dup1\n      swap3\n      swap2\n      swap1\n      dup2\n      dup2\n      mstore\n      0x20\n      add\n      dup3\n      dup1\n      sload\n      tag_91\n      swap1\n      tag_52\n      jump\t// in\n    tag_91:\n      dup1\n      iszero\n      tag_92\n      jumpi\n      dup1\n      0x1f\n      lt\n      tag_93\n      jumpi\n      0x0100\n      dup1\n      dup4\n      sload\n      div\n      mul\n      dup4\n      mstore\n      swap2\n      0x20\n      add\n      swap2\n      jump(tag_92)\n    tag_93:\n      dup3\n      add\n      swap2\n      swap1\n      0x00\n      mstore\n      keccak256(0x00, 0x20)\n      swap1\n    tag_94:\n      dup2\n      sload\n      dup2\n      mstore\n      swap1\n      0x01\n      add\n      swap1\n      0x20\n      add\n      dup1\n      dup4\n      gt\n      tag_94\n      jumpi\n      dup3\n      swap1\n      sub\n      0x1f\n      and\n      dup3\n      add\n      swap2\n    tag_92:\n      pop\n      pop\n      pop\n      pop\n      pop\n      dup2\n      mstore\n      0x20\n      add\n      swap1\n      0x01\n      add\n      swap1\n      jump(tag_87)\n    tag_88:\n      pop\n      pop\n      pop\n      pop\n      dup2\n      mstore\n      pop\n      pop\n        /* \"Patient.sol\":1515:1521  result */\n      dup3\n        /* \"Patient.sol\":1522:1523  i */\n      dup3\n        /* \"Patient.sol\":1515:1524  result[i] */\n      dup2\n      mload\n      dup2\n      lt\n      tag_95\n      jumpi\n      tag_96\n      tag_70\n      jump\t// in\n    tag_96:\n    tag_95:\n      0x20\n      mul\n      0x20\n      add\n      add\n        /* \"Patient.sol\":1515:1554  result[i] = patients[patientAddress[i]] */\n      dup2\n      swap1\n      mstore\n      pop\n        /* \"Patient.sol\":1496:1499  i++ */\n      dup1\n      dup1\n      tag_97\n      swap1\n      tag_98\n      jump\t// in\n    tag_97:\n      swap2\n      pop\n      pop\n        /* \"Patient.sol\":1461:1565  for (uint i = 0; i < patientCount; i++) {... */\n      jump(tag_65)\n    tag_66:\n      pop\n        /* \"Patient.sol\":1581:1587  result */\n      dup1\n        /* \"Patient.sol\":1574:1587  return result */\n      swap2\n      pop\n      pop\n        /* \"Patient.sol\":1302:1594  function getAllPatients() public view returns (PatientDetails[] memory) {... */\n      swap1\n      jump\t// out\n        /* \"Patient.sol\":415:664  function patientNotExists(address pAddr) public view returns (bool) {... */\n    tag_30:\n        /* \"Patient.sol\":477:481  bool */\n      0x00\n        /* \"Patient.sol\":497:503  uint i */\n      dup1\n        /* \"Patient.sol\":504:505  0 */\n      0x00\n        /* \"Patient.sol\":497:505  uint i=0 */\n      swap1\n      pop\n        /* \"Patient.sol\":493:637  for(uint i=0; i<patientAddress.length; i++) {... */\n    tag_100:\n        /* \"Patient.sol\":509:523  patientAddress */\n      0x02\n        /* \"Patient.sol\":509:530  patientAddress.length */\n      dup1\n      sload\n      swap1\n      pop\n        /* \"Patient.sol\":507:508  i */\n      dup2\n        /* \"Patient.sol\":507:530  i<patientAddress.length */\n      lt\n        /* \"Patient.sol\":493:637  for(uint i=0; i<patientAddress.length; i++) {... */\n      iszero\n      tag_101\n      jumpi\n        /* \"Patient.sol\":575:580  pAddr */\n      dup3\n        /* \"Patient.sol\":554:580  patientAddress[i] == pAddr */\n      0xffffffffffffffffffffffffffffffffffffffff\n      and\n        /* \"Patient.sol\":554:568  patientAddress */\n      0x02\n        /* \"Patient.sol\":569:570  i */\n      dup3\n        /* \"Patient.sol\":554:571  patientAddress[i] */\n      dup2\n      sload\n      dup2\n      lt\n      tag_103\n      jumpi\n      tag_104\n      tag_70\n      jump\t// in\n    tag_104:\n    tag_103:\n      swap1\n      0x00\n      mstore\n      keccak256(0x00, 0x20)\n      add\n      0x00\n      swap1\n      sload\n      swap1\n      0x0100\n      exp\n      swap1\n      div\n      0xffffffffffffffffffffffffffffffffffffffff\n      and\n        /* \"Patient.sol\":554:580  patientAddress[i] == pAddr */\n      0xffffffffffffffffffffffffffffffffffffffff\n      and\n      sub\n        /* \"Patient.sol\":551:627  if(patientAddress[i] == pAddr) {... */\n      tag_106\n      jumpi\n        /* \"Patient.sol\":607:612  false */\n      0x00\n        /* \"Patient.sol\":600:612  return false */\n      swap2\n      pop\n      pop\n      jump(tag_99)\n        /* \"Patient.sol\":551:627  if(patientAddress[i] == pAddr) {... */\n    tag_106:\n        /* \"Patient.sol\":532:535  i++ */\n      dup1\n      dup1\n      tag_107\n      swap1\n      tag_98\n      jump\t// in\n    tag_107:\n      swap2\n      pop\n      pop\n        /* \"Patient.sol\":493:637  for(uint i=0; i<patientAddress.length; i++) {... */\n      jump(tag_100)\n    tag_101:\n      pop\n        /* \"Patient.sol\":653:657  true */\n      0x01\n        /* \"Patient.sol\":646:657  return true */\n      swap1\n      pop\n        /* \"Patient.sol\":415:664  function patientNotExists(address pAddr) public view returns (bool) {... */\n    tag_99:\n      swap2\n      swap1\n      pop\n      jump\t// out\n        /* \"Patient.sol\":347:371  uint public patientCount */\n    tag_34:\n      sload(0x01)\n      dup2\n      jump\t// out\n        /* \"Patient.sol\":1742:1857  function addMedicineToPatient(uint256 id, address pAddr) public {... */\n    tag_40:\n        /* \"Patient.sol\":1816:1824  patients */\n      0x00\n        /* \"Patient.sol\":1816:1831  patients[pAddr] */\n      dup1\n        /* \"Patient.sol\":1825:1830  pAddr */\n      dup3\n        /* \"Patient.sol\":1816:1831  patients[pAddr] */\n      0xffffffffffffffffffffffffffffffffffffffff\n      and\n      0xffffffffffffffffffffffffffffffffffffffff\n      and\n      dup2\n      mstore\n      0x20\n      add\n      swap1\n      dup2\n      mstore\n      0x20\n      add\n      0x00\n      keccak256\n        /* \"Patient.sol\":1816:1841  patients[pAddr].medicines */\n      0x05\n      add\n        /* \"Patient.sol\":1847:1849  id */\n      dup3\n        /* \"Patient.sol\":1816:1850  patients[pAddr].medicines.push(id) */\n      swap1\n      dup1\n      0x01\n      dup2\n      sload\n      add\n      dup1\n      dup3\n      sstore\n      dup1\n      swap2\n      pop\n      pop\n      0x01\n      swap1\n      sub\n      swap1\n      0x00\n      mstore\n      keccak256(0x00, 0x20)\n      add\n      0x00\n      swap1\n      swap2\n      swap1\n      swap2\n      swap1\n      swap2\n      pop\n      sstore\n        /* \"Patient.sol\":1742:1857  function addMedicineToPatient(uint256 id, address pAddr) public {... */\n      pop\n      pop\n      jump\t// out\n        /* \"Patient.sol\":670:1296  function registerPatient(string memory _name, uint _age, address pAddr) public {... */\n    tag_44:\n        /* \"Patient.sol\":767:790  patientNotExists(pAddr) */\n      tag_111\n        /* \"Patient.sol\":784:789  pAddr */\n      dup2\n        /* \"Patient.sol\":767:783  patientNotExists */\n      tag_30\n        /* \"Patient.sol\":767:790  patientNotExists(pAddr) */\n      jump\t// in\n    tag_111:\n        /* \"Patient.sol\":759:817  require(patientNotExists(pAddr), \"Patient already exists\") */\n      tag_112\n      jumpi\n      mload(0x40)\n      0x08c379a000000000000000000000000000000000000000000000000000000000\n      dup2\n      mstore\n      0x04\n      add\n      tag_113\n      swap1\n      tag_114\n      jump\t// in\n    tag_113:\n      mload(0x40)\n      dup1\n      swap2\n      sub\n      swap1\n      revert\n    tag_112:\n        /* \"Patient.sol\":827:851  string[] memory diseases */\n      0x60\n        /* \"Patient.sol\":861:897  uint256[] memory prescribedMedicines */\n      dup1\n        /* \"Patient.sol\":907:937  string[] memory allowedDoctors */\n      0x60\n        /* \"Patient.sol\":965:1229  PatientDetails({... */\n      mload(0x40)\n      dup1\n      0xe0\n      add\n      0x40\n      mstore\n      dup1\n        /* \"Patient.sol\":998:1010  patientCount */\n      sload(0x01)\n        /* \"Patient.sol\":965:1229  PatientDetails({... */\n      dup2\n      mstore\n      0x20\n      add\n        /* \"Patient.sol\":1031:1036  _name */\n      dup8\n        /* \"Patient.sol\":965:1229  PatientDetails({... */\n      dup2\n      mstore\n      0x20\n      add\n        /* \"Patient.sol\":1056:1060  _age */\n      dup7\n        /* \"Patient.sol\":965:1229  PatientDetails({... */\n      dup2\n      mstore\n      0x20\n      add\n        /* \"Patient.sol\":1090:1095  pAddr */\n      dup6\n        /* \"Patient.sol\":965:1229  PatientDetails({... */\n      0xffffffffffffffffffffffffffffffffffffffff\n      and\n      dup2\n      mstore\n      0x20\n      add\n        /* \"Patient.sol\":1120:1128  diseases */\n      dup5\n        /* \"Patient.sol\":965:1229  PatientDetails({... */\n      dup2\n      mstore\n      0x20\n      add\n        /* \"Patient.sol\":1154:1173  prescribedMedicines */\n      dup4\n        /* \"Patient.sol\":965:1229  PatientDetails({... */\n      dup2\n      mstore\n      0x20\n      add\n        /* \"Patient.sol\":1204:1218  allowedDoctors */\n      dup3\n        /* \"Patient.sol\":965:1229  PatientDetails({... */\n      dup2\n      mstore\n      pop\n        /* \"Patient.sol\":947:955  patients */\n      0x00\n        /* \"Patient.sol\":947:962  patients[pAddr] */\n      dup1\n        /* \"Patient.sol\":956:961  pAddr */\n      dup7\n        /* \"Patient.sol\":947:962  patients[pAddr] */\n      0xffffffffffffffffffffffffffffffffffffffff\n      and\n      0xffffffffffffffffffffffffffffffffffffffff\n      and\n      dup2\n      mstore\n      0x20\n      add\n      swap1\n      dup2\n      mstore\n      0x20\n      add\n      0x00\n      keccak256\n        /* \"Patient.sol\":947:1229  patients[pAddr] = PatientDetails({... */\n      0x00\n      dup3\n      add\n      mload\n      dup2\n      0x00\n      add\n      sstore\n      0x20\n      dup3\n      add\n      mload\n      dup2\n      0x01\n      add\n      swap1\n      dup2\n      tag_115\n      swap2\n      swap1\n      tag_116\n      jump\t// in\n    tag_115:\n      pop\n      0x40\n      dup3\n      add\n      mload\n      dup2\n      0x02\n      add\n      sstore\n      0x60\n      dup3\n      add\n      mload\n      dup2\n      0x03\n      add\n      exp(0x0100, 0x00)\n      dup2\n      sload\n      dup2\n      0xffffffffffffffffffffffffffffffffffffffff\n      mul\n      not\n      and\n      swap1\n      dup4\n      0xffffffffffffffffffffffffffffffffffffffff\n      and\n      mul\n      or\n      swap1\n      sstore\n      pop\n      0x80\n      dup3\n      add\n      mload\n      dup2\n      0x04\n      add\n      swap1\n      dup1\n      mload\n      swap1\n      0x20\n      add\n      swap1\n      tag_117\n      swap3\n      swap2\n      swap1\n      tag_118\n      jump\t// in\n    tag_117:\n      pop\n      0xa0\n      dup3\n      add\n      mload\n      dup2\n      0x05\n      add\n      swap1\n      dup1\n      mload\n      swap1\n      0x20\n      add\n      swap1\n      tag_119\n      swap3\n      swap2\n      swap1\n      tag_120\n      jump\t// in\n    tag_119:\n      pop\n      0xc0\n      dup3\n      add\n      mload\n      dup2\n      0x06\n      add\n      swap1\n      dup1\n      mload\n      swap1\n      0x20\n      add\n      swap1\n      tag_121\n      swap3\n      swap2\n      swap1\n      tag_118\n      jump\t// in\n    tag_121:\n      pop\n      swap1\n      pop\n      pop\n        /* \"Patient.sol\":1239:1253  patientAddress */\n      0x02\n        /* \"Patient.sol\":1259:1264  pAddr */\n      dup5\n        /* \"Patient.sol\":1239:1265  patientAddress.push(pAddr) */\n      swap1\n      dup1\n      0x01\n      dup2\n      sload\n      add\n      dup1\n      dup3\n      sstore\n      dup1\n      swap2\n      pop\n      pop\n      0x01\n      swap1\n      sub\n      swap1\n      0x00\n      mstore\n      keccak256(0x00, 0x20)\n      add\n      0x00\n      swap1\n      swap2\n      swap1\n      swap2\n      swap1\n      swap2\n      0x0100\n      exp\n      dup2\n      sload\n      dup2\n      0xffffffffffffffffffffffffffffffffffffffff\n      mul\n      not\n      and\n      swap1\n      dup4\n      0xffffffffffffffffffffffffffffffffffffffff\n      and\n      mul\n      or\n      swap1\n      sstore\n      pop\n        /* \"Patient.sol\":1275:1287  patientCount */\n      0x01\n      0x00\n        /* \"Patient.sol\":1275:1289  patientCount++ */\n      dup2\n      sload\n      dup1\n      swap3\n      swap2\n      swap1\n      tag_123\n      swap1\n      tag_98\n      jump\t// in\n    tag_123:\n      swap2\n      swap1\n      pop\n      sstore\n      pop\n        /* \"Patient.sol\":749:1296  {... */\n      pop\n      pop\n      pop\n        /* \"Patient.sol\":670:1296  function registerPatient(string memory _name, uint _age, address pAddr) public {... */\n      pop\n      pop\n      pop\n      jump\t// out\n        /* \"Patient.sol\":1600:1736  function patientAddDisease(address  pAddr, string memory diseaseName) public {... */\n    tag_48:\n        /* \"Patient.sol\":1687:1695  patients */\n      0x00\n        /* \"Patient.sol\":1687:1702  patients[pAddr] */\n      dup1\n        /* \"Patient.sol\":1696:1701  pAddr */\n      dup4\n        /* \"Patient.sol\":1687:1702  patients[pAddr] */\n      0xffffffffffffffffffffffffffffffffffffffff\n      and\n      0xffffffffffffffffffffffffffffffffffffffff\n      and\n      dup2\n      mstore\n      0x20\n      add\n      swap1\n      dup2\n      mstore\n      0x20\n      add\n      0x00\n      keccak256\n        /* \"Patient.sol\":1687:1711  patients[pAddr].diseases */\n      0x04\n      add\n        /* \"Patient.sol\":1717:1728  diseaseName */\n      dup2\n        /* \"Patient.sol\":1687:1729  patients[pAddr].diseases.push(diseaseName) */\n      swap1\n      dup1\n      0x01\n      dup2\n      sload\n      add\n      dup1\n      dup3\n      sstore\n      dup1\n      swap2\n      pop\n      pop\n      0x01\n      swap1\n      sub\n      swap1\n      0x00\n      mstore\n      keccak256(0x00, 0x20)\n      add\n      0x00\n      swap1\n      swap2\n      swap1\n      swap2\n      swap1\n      swap2\n      pop\n      swap1\n      dup2\n      tag_126\n      swap2\n      swap1\n      tag_116\n      jump\t// in\n    tag_126:\n      pop\n        /* \"Patient.sol\":1600:1736  function patientAddDisease(address  pAddr, string memory diseaseName) public {... */\n      pop\n      pop\n      jump\t// out\n    tag_64:\n      mload(0x40)\n      dup1\n      0xe0\n      add\n      0x40\n      mstore\n      dup1\n      0x00\n      dup2\n      mstore\n      0x20\n      add\n      0x60\n      dup2\n      mstore\n      0x20\n      add\n      0x00\n      dup2\n      mstore\n      0x20\n      add\n      and(0xffffffffffffffffffffffffffffffffffffffff, 0x00)\n      dup2\n      mstore\n      0x20\n      add\n      0x60\n      dup2\n      mstore\n      0x20\n      add\n      0x60\n      dup2\n      mstore\n      0x20\n      add\n      0x60\n      dup2\n      mstore\n      pop\n      swap1\n      jump\t// out\n    tag_118:\n      dup3\n      dup1\n      sload\n      dup3\n      dup3\n      sstore\n      swap1\n      0x00\n      mstore\n      keccak256(0x00, 0x20)\n      swap1\n      dup2\n      add\n      swap3\n      dup3\n      iszero\n      tag_127\n      jumpi\n      swap2\n      0x20\n      mul\n      dup3\n      add\n    tag_128:\n      dup3\n      dup2\n      gt\n      iszero\n      tag_129\n      jumpi\n      dup3\n      mload\n      dup3\n      swap1\n      dup2\n      tag_130\n      swap2\n      swap1\n      tag_116\n      jump\t// in\n    tag_130:\n      pop\n      swap2\n      0x20\n      add\n      swap2\n      swap1\n      0x01\n      add\n      swap1\n      jump(tag_128)\n    tag_129:\n    tag_127:\n      pop\n      swap1\n      pop\n      tag_131\n      swap2\n      swap1\n      tag_132\n      jump\t// in\n    tag_131:\n      pop\n      swap1\n      jump\t// out\n    tag_120:\n      dup3\n      dup1\n      sload\n      dup3\n      dup3\n      sstore\n      swap1\n      0x00\n      mstore\n      keccak256(0x00, 0x20)\n      swap1\n      dup2\n      add\n      swap3\n      dup3\n      iszero\n      tag_133\n      jumpi\n      swap2\n      0x20\n      mul\n      dup3\n      add\n    tag_134:\n      dup3\n      dup2\n      gt\n      iszero\n      tag_135\n      jumpi\n      dup3\n      mload\n      dup3\n      sstore\n      swap2\n      0x20\n      add\n      swap2\n      swap1\n      0x01\n      add\n      swap1\n      jump(tag_134)\n    tag_135:\n    tag_133:\n      pop\n      swap1\n      pop\n      tag_136\n      swap2\n      swap1\n      tag_137\n      jump\t// in\n    tag_136:\n      pop\n      swap1\n      jump\t// out\n    tag_132:\n    tag_138:\n      dup1\n      dup3\n      gt\n      iszero\n      tag_139\n      jumpi\n      0x00\n      dup2\n      dup2\n      tag_140\n      swap2\n      swap1\n      tag_141\n      jump\t// in\n    tag_140:\n      pop\n      0x01\n      add\n      jump(tag_138)\n    tag_139:\n      pop\n      swap1\n      jump\t// out\n    tag_137:\n    tag_142:\n      dup1\n      dup3\n      gt\n      iszero\n      tag_143\n      jumpi\n      0x00\n      dup2\n      0x00\n      swap1\n      sstore\n      pop\n      0x01\n      add\n      jump(tag_142)\n    tag_143:\n      pop\n      swap1\n      jump\t// out\n    tag_141:\n      pop\n      dup1\n      sload\n      tag_144\n      swap1\n      tag_52\n      jump\t// in\n    tag_144:\n      0x00\n      dup3\n      sstore\n      dup1\n      0x1f\n      lt\n      tag_146\n      jumpi\n      pop\n      jump(tag_145)\n    tag_146:\n      0x1f\n      add\n      0x20\n      swap1\n      div\n      swap1\n      0x00\n      mstore\n      keccak256(0x00, 0x20)\n      swap1\n      dup2\n      add\n      swap1\n      tag_147\n      swap2\n      swap1\n      tag_137\n      jump\t// in\n    tag_147:\n    tag_145:\n      pop\n      jump\t// out\n        /* \"#utility.yul\":7:82   */\n    tag_148:\n        /* \"#utility.yul\":40:46   */\n      0x00\n        /* \"#utility.yul\":73:75   */\n      0x40\n        /* \"#utility.yul\":67:76   */\n      mload\n        /* \"#utility.yul\":57:76   */\n      swap1\n      pop\n        /* \"#utility.yul\":7:82   */\n      swap1\n      jump\t// out\n        /* \"#utility.yul\":88:205   */\n    tag_149:\n        /* \"#utility.yul\":197:198   */\n      0x00\n        /* \"#utility.yul\":194:195   */\n      dup1\n        /* \"#utility.yul\":187:199   */\n      revert\n        /* \"#utility.yul\":211:328   */\n    tag_150:\n        /* \"#utility.yul\":320:321   */\n      0x00\n        /* \"#utility.yul\":317:318   */\n      dup1\n        /* \"#utility.yul\":310:322   */\n      revert\n        /* \"#utility.yul\":334:411   */\n    tag_151:\n        /* \"#utility.yul\":371:378   */\n      0x00\n        /* \"#utility.yul\":400:405   */\n      dup2\n        /* \"#utility.yul\":389:405   */\n      swap1\n      pop\n        /* \"#utility.yul\":334:411   */\n      swap2\n      swap1\n      pop\n      jump\t// out\n        /* \"#utility.yul\":417:539   */\n    tag_152:\n        /* \"#utility.yul\":490:514   */\n      tag_223\n        /* \"#utility.yul\":508:513   */\n      dup2\n        /* \"#utility.yul\":490:514   */\n      tag_151\n      jump\t// in\n    tag_223:\n        /* \"#utility.yul\":483:488   */\n      dup2\n        /* \"#utility.yul\":480:515   */\n      eq\n        /* \"#utility.yul\":470:533   */\n      tag_224\n      jumpi\n        /* \"#utility.yul\":529:530   */\n      0x00\n        /* \"#utility.yul\":526:527   */\n      dup1\n        /* \"#utility.yul\":519:531   */\n      revert\n        /* \"#utility.yul\":470:533   */\n    tag_224:\n        /* \"#utility.yul\":417:539   */\n      pop\n      jump\t// out\n        /* \"#utility.yul\":545:684   */\n    tag_153:\n        /* \"#utility.yul\":591:596   */\n      0x00\n        /* \"#utility.yul\":629:635   */\n      dup2\n        /* \"#utility.yul\":616:636   */\n      calldataload\n        /* \"#utility.yul\":607:636   */\n      swap1\n      pop\n        /* \"#utility.yul\":645:678   */\n      tag_226\n        /* \"#utility.yul\":672:677   */\n      dup2\n        /* \"#utility.yul\":645:678   */\n      tag_152\n      jump\t// in\n    tag_226:\n        /* \"#utility.yul\":545:684   */\n      swap3\n      swap2\n      pop\n      pop\n      jump\t// out\n        /* \"#utility.yul\":690:1019   */\n    tag_14:\n        /* \"#utility.yul\":749:755   */\n      0x00\n        /* \"#utility.yul\":798:800   */\n      0x20\n        /* \"#utility.yul\":786:795   */\n      dup3\n        /* \"#utility.yul\":777:784   */\n      dup5\n        /* \"#utility.yul\":773:796   */\n      sub\n        /* \"#utility.yul\":769:801   */\n      slt\n        /* \"#utility.yul\":766:885   */\n      iszero\n      tag_228\n      jumpi\n        /* \"#utility.yul\":804:883   */\n      tag_229\n      tag_149\n      jump\t// in\n    tag_229:\n        /* \"#utility.yul\":766:885   */\n    tag_228:\n        /* \"#utility.yul\":924:925   */\n      0x00\n        /* \"#utility.yul\":949:1002   */\n      tag_230\n        /* \"#utility.yul\":994:1001   */\n      dup5\n        /* \"#utility.yul\":985:991   */\n      dup3\n        /* \"#utility.yul\":974:983   */\n      dup6\n        /* \"#utility.yul\":970:992   */\n      add\n        /* \"#utility.yul\":949:1002   */\n      tag_153\n      jump\t// in\n    tag_230:\n        /* \"#utility.yul\":939:1002   */\n      swap2\n      pop\n        /* \"#utility.yul\":895:1012   */\n      pop\n        /* \"#utility.yul\":690:1019   */\n      swap3\n      swap2\n      pop\n      pop\n      jump\t// out\n        /* \"#utility.yul\":1025:1151   */\n    tag_154:\n        /* \"#utility.yul\":1062:1069   */\n      0x00\n        /* \"#utility.yul\":1102:1144   */\n      0xffffffffffffffffffffffffffffffffffffffff\n        /* \"#utility.yul\":1095:1100   */\n      dup3\n        /* \"#utility.yul\":1091:1145   */\n      and\n        /* \"#utility.yul\":1080:1145   */\n      swap1\n      pop\n        /* \"#utility.yul\":1025:1151   */\n      swap2\n      swap1\n      pop\n      jump\t// out\n        /* \"#utility.yul\":1157:1253   */\n    tag_155:\n        /* \"#utility.yul\":1194:1201   */\n      0x00\n        /* \"#utility.yul\":1223:1247   */\n      tag_233\n        /* \"#utility.yul\":1241:1246   */\n      dup3\n        /* \"#utility.yul\":1223:1247   */\n      tag_154\n      jump\t// in\n    tag_233:\n        /* \"#utility.yul\":1212:1247   */\n      swap1\n      pop\n        /* \"#utility.yul\":1157:1253   */\n      swap2\n      swap1\n      pop\n      jump\t// out\n        /* \"#utility.yul\":1259:1377   */\n    tag_156:\n        /* \"#utility.yul\":1346:1370   */\n      tag_235\n        /* \"#utility.yul\":1364:1369   */\n      dup2\n        /* \"#utility.yul\":1346:1370   */\n      tag_155\n      jump\t// in\n    tag_235:\n        /* \"#utility.yul\":1341:1344   */\n      dup3\n        /* \"#utility.yul\":1334:1371   */\n      mstore\n        /* \"#utility.yul\":1259:1377   */\n      pop\n      pop\n      jump\t// out\n        /* \"#utility.yul\":1383:1605   */\n    tag_17:\n        /* \"#utility.yul\":1476:1480   */\n      0x00\n        /* \"#utility.yul\":1514:1516   */\n      0x20\n        /* \"#utility.yul\":1503:1512   */\n      dup3\n        /* \"#utility.yul\":1499:1517   */\n      add\n        /* \"#utility.yul\":1491:1517   */\n      swap1\n      pop\n        /* \"#utility.yul\":1527:1598   */\n      tag_237\n        /* \"#utility.yul\":1595:1596   */\n      0x00\n        /* \"#utility.yul\":1584:1593   */\n      dup4\n        /* \"#utility.yul\":1580:1597   */\n      add\n        /* \"#utility.yul\":1571:1577   */\n      dup5\n        /* \"#utility.yul\":1527:1598   */\n      tag_156\n      jump\t// in\n    tag_237:\n        /* \"#utility.yul\":1383:1605   */\n      swap3\n      swap2\n      pop\n      pop\n      jump\t// out\n        /* \"#utility.yul\":1611:1733   */\n    tag_157:\n        /* \"#utility.yul\":1684:1708   */\n      tag_239\n        /* \"#utility.yul\":1702:1707   */\n      dup2\n        /* \"#utility.yul\":1684:1708   */\n      tag_155\n      jump\t// in\n    tag_239:\n        /* \"#utility.yul\":1677:1682   */\n      dup2\n        /* \"#utility.yul\":1674:1709   */\n      eq\n        /* \"#utility.yul\":1664:1727   */\n      tag_240\n      jumpi\n        /* \"#utility.yul\":1723:1724   */\n      0x00\n        /* \"#utility.yul\":1720:1721   */\n      dup1\n        /* \"#utility.yul\":1713:1725   */\n      revert\n        /* \"#utility.yul\":1664:1727   */\n    tag_240:\n        /* \"#utility.yul\":1611:1733   */\n      pop\n      jump\t// out\n        /* \"#utility.yul\":1739:1878   */\n    tag_158:\n        /* \"#utility.yul\":1785:1790   */\n      0x00\n        /* \"#utility.yul\":1823:1829   */\n      dup2\n        /* \"#utility.yul\":1810:1830   */\n      calldataload\n        /* \"#utility.yul\":1801:1830   */\n      swap1\n      pop\n        /* \"#utility.yul\":1839:1872   */\n      tag_242\n        /* \"#utility.yul\":1866:1871   */\n      dup2\n        /* \"#utility.yul\":1839:1872   */\n      tag_157\n      jump\t// in\n    tag_242:\n        /* \"#utility.yul\":1739:1878   */\n      swap3\n      swap2\n      pop\n      pop\n      jump\t// out\n        /* \"#utility.yul\":1884:2213   */\n    tag_20:\n        /* \"#utility.yul\":1943:1949   */\n      0x00\n        /* \"#utility.yul\":1992:1994   */\n      0x20\n        /* \"#utility.yul\":1980:1989   */\n      dup3\n        /* \"#utility.yul\":1971:1978   */\n      dup5\n        /* \"#utility.yul\":1967:1990   */\n      sub\n        /* \"#utility.yul\":1963:1995   */\n      slt\n        /* \"#utility.yul\":1960:2079   */\n      iszero\n      tag_244\n      jumpi\n        /* \"#utility.yul\":1998:2077   */\n      tag_245\n      tag_149\n      jump\t// in\n    tag_245:\n        /* \"#utility.yul\":1960:2079   */\n    tag_244:\n        /* \"#utility.yul\":2118:2119   */\n      0x00\n        /* \"#utility.yul\":2143:2196   */\n      tag_246\n        /* \"#utility.yul\":2188:2195   */\n      dup5\n        /* \"#utility.yul\":2179:2185   */\n      dup3\n        /* \"#utility.yul\":2168:2177   */\n      dup6\n        /* \"#utility.yul\":2164:2186   */\n      add\n        /* \"#utility.yul\":2143:2196   */\n      tag_158\n      jump\t// in\n    tag_246:\n        /* \"#utility.yul\":2133:2196   */\n      swap2\n      pop\n        /* \"#utility.yul\":2089:2206   */\n      pop\n        /* \"#utility.yul\":1884:2213   */\n      swap3\n      swap2\n      pop\n      pop\n      jump\t// out\n        /* \"#utility.yul\":2219:2337   */\n    tag_159:\n        /* \"#utility.yul\":2306:2330   */\n      tag_248\n        /* \"#utility.yul\":2324:2329   */\n      dup2\n        /* \"#utility.yul\":2306:2330   */\n      tag_151\n      jump\t// in\n    tag_248:\n        /* \"#utility.yul\":2301:2304   */\n      dup3\n        /* \"#utility.yul\":2294:2331   */\n      mstore\n        /* \"#utility.yul\":2219:2337   */\n      pop\n      pop\n      jump\t// out\n        /* \"#utility.yul\":2343:2442   */\n    tag_160:\n        /* \"#utility.yul\":2395:2401   */\n      0x00\n        /* \"#utility.yul\":2429:2434   */\n      dup2\n        /* \"#utility.yul\":2423:2435   */\n      mload\n        /* \"#utility.yul\":2413:2435   */\n      swap1\n      pop\n        /* \"#utility.yul\":2343:2442   */\n      swap2\n      swap1\n      pop\n      jump\t// out\n        /* \"#utility.yul\":2448:2617   */\n    tag_161:\n        /* \"#utility.yul\":2532:2543   */\n      0x00\n        /* \"#utility.yul\":2566:2572   */\n      dup3\n        /* \"#utility.yul\":2561:2564   */\n      dup3\n        /* \"#utility.yul\":2554:2573   */\n      mstore\n        /* \"#utility.yul\":2606:2610   */\n      0x20\n        /* \"#utility.yul\":2601:2604   */\n      dup3\n        /* \"#utility.yul\":2597:2611   */\n      add\n        /* \"#utility.yul\":2582:2611   */\n      swap1\n      pop\n        /* \"#utility.yul\":2448:2617   */\n      swap3\n      swap2\n      pop\n      pop\n      jump\t// out\n        /* \"#utility.yul\":2623:2869   */\n    tag_162:\n        /* \"#utility.yul\":2704:2705   */\n      0x00\n        /* \"#utility.yul\":2714:2827   */\n    tag_252:\n        /* \"#utility.yul\":2728:2734   */\n      dup4\n        /* \"#utility.yul\":2725:2726   */\n      dup2\n        /* \"#utility.yul\":2722:2735   */\n      lt\n        /* \"#utility.yul\":2714:2827   */\n      iszero\n      tag_254\n      jumpi\n        /* \"#utility.yul\":2813:2814   */\n      dup1\n        /* \"#utility.yul\":2808:2811   */\n      dup3\n        /* \"#utility.yul\":2804:2815   */\n      add\n        /* \"#utility.yul\":2798:2816   */\n      mload\n        /* \"#utility.yul\":2794:2795   */\n      dup2\n        /* \"#utility.yul\":2789:2792   */\n      dup5\n        /* \"#utility.yul\":2785:2796   */\n      add\n        /* \"#utility.yul\":2778:2817   */\n      mstore\n        /* \"#utility.yul\":2750:2752   */\n      0x20\n        /* \"#utility.yul\":2747:2748   */\n      dup2\n        /* \"#utility.yul\":2743:2753   */\n      add\n        /* \"#utility.yul\":2738:2753   */\n      swap1\n      pop\n        /* \"#utility.yul\":2714:2827   */\n      jump(tag_252)\n    tag_254:\n        /* \"#utility.yul\":2861:2862   */\n      0x00\n        /* \"#utility.yul\":2852:2858   */\n      dup5\n        /* \"#utility.yul\":2847:2850   */\n      dup5\n        /* \"#utility.yul\":2843:2859   */\n      add\n        /* \"#utility.yul\":2836:2863   */\n      mstore\n        /* \"#utility.yul\":2685:2869   */\n      pop\n        /* \"#utility.yul\":2623:2869   */\n      pop\n      pop\n      pop\n      jump\t// out\n        /* \"#utility.yul\":2875:2977   */\n    tag_163:\n        /* \"#utility.yul\":2916:2922   */\n      0x00\n        /* \"#utility.yul\":2967:2969   */\n      0x1f\n        /* \"#utility.yul\":2963:2970   */\n      not\n        /* \"#utility.yul\":2958:2960   */\n      0x1f\n        /* \"#utility.yul\":2951:2956   */\n      dup4\n        /* \"#utility.yul\":2947:2961   */\n      add\n        /* \"#utility.yul\":2943:2971   */\n      and\n        /* \"#utility.yul\":2933:2971   */\n      swap1\n      pop\n        /* \"#utility.yul\":2875:2977   */\n      swap2\n      swap1\n      pop\n      jump\t// out\n        /* \"#utility.yul\":2983:3360   */\n    tag_164:\n        /* \"#utility.yul\":3071:3074   */\n      0x00\n        /* \"#utility.yul\":3099:3138   */\n      tag_257\n        /* \"#utility.yul\":3132:3137   */\n      dup3\n        /* \"#utility.yul\":3099:3138   */\n      tag_160\n      jump\t// in\n    tag_257:\n        /* \"#utility.yul\":3154:3225   */\n      tag_258\n        /* \"#utility.yul\":3218:3224   */\n      dup2\n        /* \"#utility.yul\":3213:3216   */\n      dup6\n        /* \"#utility.yul\":3154:3225   */\n      tag_161\n      jump\t// in\n    tag_258:\n        /* \"#utility.yul\":3147:3225   */\n      swap4\n      pop\n        /* \"#utility.yul\":3234:3299   */\n      tag_259\n        /* \"#utility.yul\":3292:3298   */\n      dup2\n        /* \"#utility.yul\":3287:3290   */\n      dup6\n        /* \"#utility.yul\":3280:3284   */\n      0x20\n        /* \"#utility.yul\":3273:3278   */\n      dup7\n        /* \"#utility.yul\":3269:3285   */\n      add\n        /* \"#utility.yul\":3234:3299   */\n      tag_162\n      jump\t// in\n    tag_259:\n        /* \"#utility.yul\":3324:3353   */\n      tag_260\n        /* \"#utility.yul\":3346:3352   */\n      dup2\n        /* \"#utility.yul\":3324:3353   */\n      tag_163\n      jump\t// in\n    tag_260:\n        /* \"#utility.yul\":3319:3322   */\n      dup5\n        /* \"#utility.yul\":3315:3354   */\n      add\n        /* \"#utility.yul\":3308:3354   */\n      swap2\n      pop\n        /* \"#utility.yul\":3075:3360   */\n      pop\n        /* \"#utility.yul\":2983:3360   */\n      swap3\n      swap2\n      pop\n      pop\n      jump\t// out\n        /* \"#utility.yul\":3366:4010   */\n    tag_23:\n        /* \"#utility.yul\":3563:3567   */\n      0x00\n        /* \"#utility.yul\":3601:3604   */\n      0x80\n        /* \"#utility.yul\":3590:3599   */\n      dup3\n        /* \"#utility.yul\":3586:3605   */\n      add\n        /* \"#utility.yul\":3578:3605   */\n      swap1\n      pop\n        /* \"#utility.yul\":3615:3686   */\n      tag_262\n        /* \"#utility.yul\":3683:3684   */\n      0x00\n        /* \"#utility.yul\":3672:3681   */\n      dup4\n        /* \"#utility.yul\":3668:3685   */\n      add\n        /* \"#utility.yul\":3659:3665   */\n      dup8\n        /* \"#utility.yul\":3615:3686   */\n      tag_159\n      jump\t// in\n    tag_262:\n        /* \"#utility.yul\":3733:3742   */\n      dup2\n        /* \"#utility.yul\":3727:3731   */\n      dup2\n        /* \"#utility.yul\":3723:3743   */\n      sub\n        /* \"#utility.yul\":3718:3720   */\n      0x20\n        /* \"#utility.yul\":3707:3716   */\n      dup4\n        /* \"#utility.yul\":3703:3721   */\n      add\n        /* \"#utility.yul\":3696:3744   */\n      mstore\n        /* \"#utility.yul\":3761:3839   */\n      tag_263\n        /* \"#utility.yul\":3834:3838   */\n      dup2\n        /* \"#utility.yul\":3825:3831   */\n      dup7\n        /* \"#utility.yul\":3761:3839   */\n      tag_164\n      jump\t// in\n    tag_263:\n        /* \"#utility.yul\":3753:3839   */\n      swap1\n      pop\n        /* \"#utility.yul\":3849:3921   */\n      tag_264\n        /* \"#utility.yul\":3917:3919   */\n      0x40\n        /* \"#utility.yul\":3906:3915   */\n      dup4\n        /* \"#utility.yul\":3902:3920   */\n      add\n        /* \"#utility.yul\":3893:3899   */\n      dup6\n        /* \"#utility.yul\":3849:3921   */\n      tag_159\n      jump\t// in\n    tag_264:\n        /* \"#utility.yul\":3931:4003   */\n      tag_265\n        /* \"#utility.yul\":3999:4001   */\n      0x60\n        /* \"#utility.yul\":3988:3997   */\n      dup4\n        /* \"#utility.yul\":3984:4002   */\n      add\n        /* \"#utility.yul\":3975:3981   */\n      dup5\n        /* \"#utility.yul\":3931:4003   */\n      tag_156\n      jump\t// in\n    tag_265:\n        /* \"#utility.yul\":3366:4010   */\n      swap6\n      swap5\n      pop\n      pop\n      pop\n      pop\n      pop\n      jump\t// out\n        /* \"#utility.yul\":4016:4160   */\n    tag_165:\n        /* \"#utility.yul\":4113:4119   */\n      0x00\n        /* \"#utility.yul\":4147:4152   */\n      dup2\n        /* \"#utility.yul\":4141:4153   */\n      mload\n        /* \"#utility.yul\":4131:4153   */\n      swap1\n      pop\n        /* \"#utility.yul\":4016:4160   */\n      swap2\n      swap1\n      pop\n      jump\t// out\n        /* \"#utility.yul\":4166:4380   */\n    tag_166:\n        /* \"#utility.yul\":4295:4306   */\n      0x00\n        /* \"#utility.yul\":4329:4335   */\n      dup3\n        /* \"#utility.yul\":4324:4327   */\n      dup3\n        /* \"#utility.yul\":4317:4336   */\n      mstore\n        /* \"#utility.yul\":4369:4373   */\n      0x20\n        /* \"#utility.yul\":4364:4367   */\n      dup3\n        /* \"#utility.yul\":4360:4374   */\n      add\n        /* \"#utility.yul\":4345:4374   */\n      swap1\n      pop\n        /* \"#utility.yul\":4166:4380   */\n      swap3\n      swap2\n      pop\n      pop\n      jump\t// out\n        /* \"#utility.yul\":4386:4548   */\n    tag_167:\n        /* \"#utility.yul\":4483:4487   */\n      0x00\n        /* \"#utility.yul\":4506:4509   */\n      dup2\n        /* \"#utility.yul\":4498:4509   */\n      swap1\n      pop\n        /* \"#utility.yul\":4536:4540   */\n      0x20\n        /* \"#utility.yul\":4531:4534   */\n      dup3\n        /* \"#utility.yul\":4527:4541   */\n      add\n        /* \"#utility.yul\":4519:4541   */\n      swap1\n      pop\n        /* \"#utility.yul\":4386:4548   */\n      swap2\n      swap1\n      pop\n      jump\t// out\n        /* \"#utility.yul\":4554:4662   */\n    tag_168:\n        /* \"#utility.yul\":4631:4655   */\n      tag_270\n        /* \"#utility.yul\":4649:4654   */\n      dup2\n        /* \"#utility.yul\":4631:4655   */\n      tag_151\n      jump\t// in\n    tag_270:\n        /* \"#utility.yul\":4626:4629   */\n      dup3\n        /* \"#utility.yul\":4619:4656   */\n      mstore\n        /* \"#utility.yul\":4554:4662   */\n      pop\n      pop\n      jump\t// out\n        /* \"#utility.yul\":4668:4827   */\n    tag_169:\n        /* \"#utility.yul\":4742:4753   */\n      0x00\n        /* \"#utility.yul\":4776:4782   */\n      dup3\n        /* \"#utility.yul\":4771:4774   */\n      dup3\n        /* \"#utility.yul\":4764:4783   */\n      mstore\n        /* \"#utility.yul\":4816:4820   */\n      0x20\n        /* \"#utility.yul\":4811:4814   */\n      dup3\n        /* \"#utility.yul\":4807:4821   */\n      add\n        /* \"#utility.yul\":4792:4821   */\n      swap1\n      pop\n        /* \"#utility.yul\":4668:4827   */\n      swap3\n      swap2\n      pop\n      pop\n      jump\t// out\n        /* \"#utility.yul\":4833:5190   */\n    tag_170:\n        /* \"#utility.yul\":4911:4914   */\n      0x00\n        /* \"#utility.yul\":4939:4978   */\n      tag_273\n        /* \"#utility.yul\":4972:4977   */\n      dup3\n        /* \"#utility.yul\":4939:4978   */\n      tag_160\n      jump\t// in\n    tag_273:\n        /* \"#utility.yul\":4994:5055   */\n      tag_274\n        /* \"#utility.yul\":5048:5054   */\n      dup2\n        /* \"#utility.yul\":5043:5046   */\n      dup6\n        /* \"#utility.yul\":4994:5055   */\n      tag_169\n      jump\t// in\n    tag_274:\n        /* \"#utility.yul\":4987:5055   */\n      swap4\n      pop\n        /* \"#utility.yul\":5064:5129   */\n      tag_275\n        /* \"#utility.yul\":5122:5128   */\n      dup2\n        /* \"#utility.yul\":5117:5120   */\n      dup6\n        /* \"#utility.yul\":5110:5114   */\n      0x20\n        /* \"#utility.yul\":5103:5108   */\n      dup7\n        /* \"#utility.yul\":5099:5115   */\n      add\n        /* \"#utility.yul\":5064:5129   */\n      tag_162\n      jump\t// in\n    tag_275:\n        /* \"#utility.yul\":5154:5183   */\n      tag_276\n        /* \"#utility.yul\":5176:5182   */\n      dup2\n        /* \"#utility.yul\":5154:5183   */\n      tag_163\n      jump\t// in\n    tag_276:\n        /* \"#utility.yul\":5149:5152   */\n      dup5\n        /* \"#utility.yul\":5145:5184   */\n      add\n        /* \"#utility.yul\":5138:5184   */\n      swap2\n      pop\n        /* \"#utility.yul\":4915:5190   */\n      pop\n        /* \"#utility.yul\":4833:5190   */\n      swap3\n      swap2\n      pop\n      pop\n      jump\t// out\n        /* \"#utility.yul\":5196:5304   */\n    tag_171:\n        /* \"#utility.yul\":5273:5297   */\n      tag_278\n        /* \"#utility.yul\":5291:5296   */\n      dup2\n        /* \"#utility.yul\":5273:5297   */\n      tag_155\n      jump\t// in\n    tag_278:\n        /* \"#utility.yul\":5268:5271   */\n      dup3\n        /* \"#utility.yul\":5261:5298   */\n      mstore\n        /* \"#utility.yul\":5196:5304   */\n      pop\n      pop\n      jump\t// out\n        /* \"#utility.yul\":5310:5434   */\n    tag_172:\n        /* \"#utility.yul\":5387:5393   */\n      0x00\n        /* \"#utility.yul\":5421:5426   */\n      dup2\n        /* \"#utility.yul\":5415:5427   */\n      mload\n        /* \"#utility.yul\":5405:5427   */\n      swap1\n      pop\n        /* \"#utility.yul\":5310:5434   */\n      swap2\n      swap1\n      pop\n      jump\t// out\n        /* \"#utility.yul\":5440:5624   */\n    tag_173:\n        /* \"#utility.yul\":5539:5550   */\n      0x00\n        /* \"#utility.yul\":5573:5579   */\n      dup3\n        /* \"#utility.yul\":5568:5571   */\n      dup3\n        /* \"#utility.yul\":5561:5580   */\n      mstore\n        /* \"#utility.yul\":5613:5617   */\n      0x20\n        /* \"#utility.yul\":5608:5611   */\n      dup3\n        /* \"#utility.yul\":5604:5618   */\n      add\n        /* \"#utility.yul\":5589:5618   */\n      swap1\n      pop\n        /* \"#utility.yul\":5440:5624   */\n      swap3\n      swap2\n      pop\n      pop\n      jump\t// out\n        /* \"#utility.yul\":5630:5772   */\n    tag_174:\n        /* \"#utility.yul\":5707:5711   */\n      0x00\n        /* \"#utility.yul\":5730:5733   */\n      dup2\n        /* \"#utility.yul\":5722:5733   */\n      swap1\n      pop\n        /* \"#utility.yul\":5760:5764   */\n      0x20\n        /* \"#utility.yul\":5755:5758   */\n      dup3\n        /* \"#utility.yul\":5751:5765   */\n      add\n        /* \"#utility.yul\":5743:5765   */\n      swap1\n      pop\n        /* \"#utility.yul\":5630:5772   */\n      swap2\n      swap1\n      pop\n      jump\t// out\n        /* \"#utility.yul\":5778:5974   */\n    tag_175:\n        /* \"#utility.yul\":5867:5877   */\n      0x00\n        /* \"#utility.yul\":5902:5968   */\n      tag_283\n        /* \"#utility.yul\":5964:5967   */\n      dup4\n        /* \"#utility.yul\":5956:5962   */\n      dup4\n        /* \"#utility.yul\":5902:5968   */\n      tag_170\n      jump\t// in\n    tag_283:\n        /* \"#utility.yul\":5888:5968   */\n      swap1\n      pop\n        /* \"#utility.yul\":5778:5974   */\n      swap3\n      swap2\n      pop\n      pop\n      jump\t// out\n        /* \"#utility.yul\":5980:6103   */\n    tag_176:\n        /* \"#utility.yul\":6060:6064   */\n      0x00\n        /* \"#utility.yul\":6092:6096   */\n      0x20\n        /* \"#utility.yul\":6087:6090   */\n      dup3\n        /* \"#utility.yul\":6083:6097   */\n      add\n        /* \"#utility.yul\":6075:6097   */\n      swap1\n      pop\n        /* \"#utility.yul\":5980:6103   */\n      swap2\n      swap1\n      pop\n      jump\t// out\n        /* \"#utility.yul\":6137:7108   */\n    tag_177:\n        /* \"#utility.yul\":6266:6269   */\n      0x00\n        /* \"#utility.yul\":6295:6359   */\n      tag_286\n        /* \"#utility.yul\":6353:6358   */\n      dup3\n        /* \"#utility.yul\":6295:6359   */\n      tag_172\n      jump\t// in\n    tag_286:\n        /* \"#utility.yul\":6375:6461   */\n      tag_287\n        /* \"#utility.yul\":6454:6460   */\n      dup2\n        /* \"#utility.yul\":6449:6452   */\n      dup6\n        /* \"#utility.yul\":6375:6461   */\n      tag_173\n      jump\t// in\n    tag_287:\n        /* \"#utility.yul\":6368:6461   */\n      swap4\n      pop\n        /* \"#utility.yul\":6487:6490   */\n      dup4\n        /* \"#utility.yul\":6532:6536   */\n      0x20\n        /* \"#utility.yul\":6524:6530   */\n      dup3\n        /* \"#utility.yul\":6520:6537   */\n      mul\n        /* \"#utility.yul\":6515:6518   */\n      dup6\n        /* \"#utility.yul\":6511:6538   */\n      add\n        /* \"#utility.yul\":6562:6628   */\n      tag_288\n        /* \"#utility.yul\":6622:6627   */\n      dup6\n        /* \"#utility.yul\":6562:6628   */\n      tag_174\n      jump\t// in\n    tag_288:\n        /* \"#utility.yul\":6651:6658   */\n      dup1\n        /* \"#utility.yul\":6682:6683   */\n      0x00\n        /* \"#utility.yul\":6667:7063   */\n    tag_289:\n        /* \"#utility.yul\":6692:6698   */\n      dup6\n        /* \"#utility.yul\":6689:6690   */\n      dup2\n        /* \"#utility.yul\":6686:6699   */\n      lt\n        /* \"#utility.yul\":6667:7063   */\n      iszero\n      tag_291\n      jumpi\n        /* \"#utility.yul\":6763:6772   */\n      dup5\n        /* \"#utility.yul\":6757:6761   */\n      dup5\n        /* \"#utility.yul\":6753:6773   */\n      sub\n        /* \"#utility.yul\":6748:6751   */\n      dup10\n        /* \"#utility.yul\":6741:6774   */\n      mstore\n        /* \"#utility.yul\":6814:6820   */\n      dup2\n        /* \"#utility.yul\":6808:6821   */\n      mload\n        /* \"#utility.yul\":6842:6926   */\n      tag_292\n        /* \"#utility.yul\":6921:6925   */\n      dup6\n        /* \"#utility.yul\":6906:6919   */\n      dup3\n        /* \"#utility.yul\":6842:6926   */\n      tag_175\n      jump\t// in\n    tag_292:\n        /* \"#utility.yul\":6834:6926   */\n      swap5\n      pop\n        /* \"#utility.yul\":6949:7019   */\n      tag_293\n        /* \"#utility.yul\":7012:7018   */\n      dup4\n        /* \"#utility.yul\":6949:7019   */\n      tag_176\n      jump\t// in\n    tag_293:\n        /* \"#utility.yul\":6939:7019   */\n      swap3\n      pop\n        /* \"#utility.yul\":7048:7052   */\n      0x20\n        /* \"#utility.yul\":7043:7046   */\n      dup11\n        /* \"#utility.yul\":7039:7053   */\n      add\n        /* \"#utility.yul\":7032:7053   */\n      swap10\n      pop\n        /* \"#utility.yul\":6727:7063   */\n      pop\n        /* \"#utility.yul\":6714:6715   */\n      0x01\n        /* \"#utility.yul\":6711:6712   */\n      dup2\n        /* \"#utility.yul\":6707:6716   */\n      add\n        /* \"#utility.yul\":6702:6716   */\n      swap1\n      pop\n        /* \"#utility.yul\":6667:7063   */\n      jump(tag_289)\n    tag_291:\n        /* \"#utility.yul\":6671:6685   */\n      pop\n        /* \"#utility.yul\":7079:7083   */\n      dup3\n        /* \"#utility.yul\":7072:7083   */\n      swap8\n      pop\n        /* \"#utility.yul\":7099:7102   */\n      dup8\n        /* \"#utility.yul\":7092:7102   */\n      swap6\n      pop\n        /* \"#utility.yul\":6271:7108   */\n      pop\n      pop\n      pop\n      pop\n      pop\n        /* \"#utility.yul\":6137:7108   */\n      swap3\n      swap2\n      pop\n      pop\n      jump\t// out\n        /* \"#utility.yul\":7114:7228   */\n    tag_178:\n        /* \"#utility.yul\":7181:7187   */\n      0x00\n        /* \"#utility.yul\":7215:7220   */\n      dup2\n        /* \"#utility.yul\":7209:7221   */\n      mload\n        /* \"#utility.yul\":7199:7221   */\n      swap1\n      pop\n        /* \"#utility.yul\":7114:7228   */\n      swap2\n      swap1\n      pop\n      jump\t// out\n        /* \"#utility.yul\":7234:7408   */\n    tag_179:\n        /* \"#utility.yul\":7323:7334   */\n      0x00\n        /* \"#utility.yul\":7357:7363   */\n      dup3\n        /* \"#utility.yul\":7352:7355   */\n      dup3\n        /* \"#utility.yul\":7345:7364   */\n      mstore\n        /* \"#utility.yul\":7397:7401   */\n      0x20\n        /* \"#utility.yul\":7392:7395   */\n      dup3\n        /* \"#utility.yul\":7388:7402   */\n      add\n        /* \"#utility.yul\":7373:7402   */\n      swap1\n      pop\n        /* \"#utility.yul\":7234:7408   */\n      swap3\n      swap2\n      pop\n      pop\n      jump\t// out\n        /* \"#utility.yul\":7414:7546   */\n    tag_180:\n        /* \"#utility.yul\":7481:7485   */\n      0x00\n        /* \"#utility.yul\":7504:7507   */\n      dup2\n        /* \"#utility.yul\":7496:7507   */\n      swap1\n      pop\n        /* \"#utility.yul\":7534:7538   */\n      0x20\n        /* \"#utility.yul\":7529:7532   */\n      dup3\n        /* \"#utility.yul\":7525:7539   */\n      add\n        /* \"#utility.yul\":7517:7539   */\n      swap1\n      pop\n        /* \"#utility.yul\":7414:7546   */\n      swap2\n      swap1\n      pop\n      jump\t// out\n        /* \"#utility.yul\":7552:7731   */\n    tag_181:\n        /* \"#utility.yul\":7621:7631   */\n      0x00\n        /* \"#utility.yul\":7642:7688   */\n      tag_298\n        /* \"#utility.yul\":7684:7687   */\n      dup4\n        /* \"#utility.yul\":7676:7682   */\n      dup4\n        /* \"#utility.yul\":7642:7688   */\n      tag_168\n      jump\t// in\n    tag_298:\n        /* \"#utility.yul\":7720:7724   */\n      0x20\n        /* \"#utility.yul\":7715:7718   */\n      dup4\n        /* \"#utility.yul\":7711:7725   */\n      add\n        /* \"#utility.yul\":7697:7725   */\n      swap1\n      pop\n        /* \"#utility.yul\":7552:7731   */\n      swap3\n      swap2\n      pop\n      pop\n      jump\t// out\n        /* \"#utility.yul\":7737:7850   */\n    tag_182:\n        /* \"#utility.yul\":7807:7811   */\n      0x00\n        /* \"#utility.yul\":7839:7843   */\n      0x20\n        /* \"#utility.yul\":7834:7837   */\n      dup3\n        /* \"#utility.yul\":7830:7844   */\n      add\n        /* \"#utility.yul\":7822:7844   */\n      swap1\n      pop\n        /* \"#utility.yul\":7737:7850   */\n      swap2\n      swap1\n      pop\n      jump\t// out\n        /* \"#utility.yul\":7886:8598   */\n    tag_183:\n        /* \"#utility.yul\":7995:7998   */\n      0x00\n        /* \"#utility.yul\":8024:8078   */\n      tag_301\n        /* \"#utility.yul\":8072:8077   */\n      dup3\n        /* \"#utility.yul\":8024:8078   */\n      tag_178\n      jump\t// in\n    tag_301:\n        /* \"#utility.yul\":8094:8170   */\n      tag_302\n        /* \"#utility.yul\":8163:8169   */\n      dup2\n        /* \"#utility.yul\":8158:8161   */\n      dup6\n        /* \"#utility.yul\":8094:8170   */\n      tag_179\n      jump\t// in\n    tag_302:\n        /* \"#utility.yul\":8087:8170   */\n      swap4\n      pop\n        /* \"#utility.yul\":8194:8250   */\n      tag_303\n        /* \"#utility.yul\":8244:8249   */\n      dup4\n        /* \"#utility.yul\":8194:8250   */\n      tag_180\n      jump\t// in\n    tag_303:\n        /* \"#utility.yul\":8273:8280   */\n      dup1\n        /* \"#utility.yul\":8304:8305   */\n      0x00\n        /* \"#utility.yul\":8289:8573   */\n    tag_304:\n        /* \"#utility.yul\":8314:8320   */\n      dup4\n        /* \"#utility.yul\":8311:8312   */\n      dup2\n        /* \"#utility.yul\":8308:8321   */\n      lt\n        /* \"#utility.yul\":8289:8573   */\n      iszero\n      tag_306\n      jumpi\n        /* \"#utility.yul\":8390:8396   */\n      dup2\n        /* \"#utility.yul\":8384:8397   */\n      mload\n        /* \"#utility.yul\":8417:8480   */\n      tag_307\n        /* \"#utility.yul\":8476:8479   */\n      dup9\n        /* \"#utility.yul\":8461:8474   */\n      dup3\n        /* \"#utility.yul\":8417:8480   */\n      tag_181\n      jump\t// in\n    tag_307:\n        /* \"#utility.yul\":8410:8480   */\n      swap8\n      pop\n        /* \"#utility.yul\":8503:8563   */\n      tag_308\n        /* \"#utility.yul\":8556:8562   */\n      dup4\n        /* \"#utility.yul\":8503:8563   */\n      tag_182\n      jump\t// in\n    tag_308:\n        /* \"#utility.yul\":8493:8563   */\n      swap3\n      pop\n        /* \"#utility.yul\":8349:8573   */\n      pop\n        /* \"#utility.yul\":8336:8337   */\n      0x01\n        /* \"#utility.yul\":8333:8334   */\n      dup2\n        /* \"#utility.yul\":8329:8338   */\n      add\n        /* \"#utility.yul\":8324:8338   */\n      swap1\n      pop\n        /* \"#utility.yul\":8289:8573   */\n      jump(tag_304)\n    tag_306:\n        /* \"#utility.yul\":8293:8307   */\n      pop\n        /* \"#utility.yul\":8589:8592   */\n      dup6\n        /* \"#utility.yul\":8582:8592   */\n      swap4\n      pop\n        /* \"#utility.yul\":8000:8598   */\n      pop\n      pop\n      pop\n        /* \"#utility.yul\":7886:8598   */\n      swap3\n      swap2\n      pop\n      pop\n      jump\t// out\n        /* \"#utility.yul\":8674:10518   */\n    tag_184:\n        /* \"#utility.yul\":8793:8796   */\n      0x00\n        /* \"#utility.yul\":8829:8833   */\n      0xe0\n        /* \"#utility.yul\":8824:8827   */\n      dup4\n        /* \"#utility.yul\":8820:8834   */\n      add\n        /* \"#utility.yul\":8914:8918   */\n      0x00\n        /* \"#utility.yul\":8907:8912   */\n      dup4\n        /* \"#utility.yul\":8903:8919   */\n      add\n        /* \"#utility.yul\":8897:8920   */\n      mload\n        /* \"#utility.yul\":8933:8996   */\n      tag_310\n        /* \"#utility.yul\":8990:8994   */\n      0x00\n        /* \"#utility.yul\":8985:8988   */\n      dup7\n        /* \"#utility.yul\":8981:8995   */\n      add\n        /* \"#utility.yul\":8967:8979   */\n      dup3\n        /* \"#utility.yul\":8933:8996   */\n      tag_168\n      jump\t// in\n    tag_310:\n        /* \"#utility.yul\":8844:9006   */\n      pop\n        /* \"#utility.yul\":9088:9092   */\n      0x20\n        /* \"#utility.yul\":9081:9086   */\n      dup4\n        /* \"#utility.yul\":9077:9093   */\n      add\n        /* \"#utility.yul\":9071:9094   */\n      mload\n        /* \"#utility.yul\":9141:9144   */\n      dup5\n        /* \"#utility.yul\":9135:9139   */\n      dup3\n        /* \"#utility.yul\":9131:9145   */\n      sub\n        /* \"#utility.yul\":9124:9128   */\n      0x20\n        /* \"#utility.yul\":9119:9122   */\n      dup7\n        /* \"#utility.yul\":9115:9129   */\n      add\n        /* \"#utility.yul\":9108:9146   */\n      mstore\n        /* \"#utility.yul\":9167:9240   */\n      tag_311\n        /* \"#utility.yul\":9235:9239   */\n      dup3\n        /* \"#utility.yul\":9221:9233   */\n      dup3\n        /* \"#utility.yul\":9167:9240   */\n      tag_170\n      jump\t// in\n    tag_311:\n        /* \"#utility.yul\":9159:9240   */\n      swap2\n      pop\n        /* \"#utility.yul\":9016:9251   */\n      pop\n        /* \"#utility.yul\":9332:9336   */\n      0x40\n        /* \"#utility.yul\":9325:9330   */\n      dup4\n        /* \"#utility.yul\":9321:9337   */\n      add\n        /* \"#utility.yul\":9315:9338   */\n      mload\n        /* \"#utility.yul\":9351:9414   */\n      tag_312\n        /* \"#utility.yul\":9408:9412   */\n      0x40\n        /* \"#utility.yul\":9403:9406   */\n      dup7\n        /* \"#utility.yul\":9399:9413   */\n      add\n        /* \"#utility.yul\":9385:9397   */\n      dup3\n        /* \"#utility.yul\":9351:9414   */\n      tag_168\n      jump\t// in\n    tag_312:\n        /* \"#utility.yul\":9261:9424   */\n      pop\n        /* \"#utility.yul\":9515:9519   */\n      0x60\n        /* \"#utility.yul\":9508:9513   */\n      dup4\n        /* \"#utility.yul\":9504:9520   */\n      add\n        /* \"#utility.yul\":9498:9521   */\n      mload\n        /* \"#utility.yul\":9534:9597   */\n      tag_313\n        /* \"#utility.yul\":9591:9595   */\n      0x60\n        /* \"#utility.yul\":9586:9589   */\n      dup7\n        /* \"#utility.yul\":9582:9596   */\n      add\n        /* \"#utility.yul\":9568:9580   */\n      dup3\n        /* \"#utility.yul\":9534:9597   */\n      tag_171\n      jump\t// in\n    tag_313:\n        /* \"#utility.yul\":9434:9607   */\n      pop\n        /* \"#utility.yul\":9693:9697   */\n      0x80\n        /* \"#utility.yul\":9686:9691   */\n      dup4\n        /* \"#utility.yul\":9682:9698   */\n      add\n        /* \"#utility.yul\":9676:9699   */\n      mload\n        /* \"#utility.yul\":9746:9749   */\n      dup5\n        /* \"#utility.yul\":9740:9744   */\n      dup3\n        /* \"#utility.yul\":9736:9750   */\n      sub\n        /* \"#utility.yul\":9729:9733   */\n      0x80\n        /* \"#utility.yul\":9724:9727   */\n      dup7\n        /* \"#utility.yul\":9720:9734   */\n      add\n        /* \"#utility.yul\":9713:9751   */\n      mstore\n        /* \"#utility.yul\":9772:9895   */\n      tag_314\n        /* \"#utility.yul\":9890:9894   */\n      dup3\n        /* \"#utility.yul\":9876:9888   */\n      dup3\n        /* \"#utility.yul\":9772:9895   */\n      tag_177\n      jump\t// in\n    tag_314:\n        /* \"#utility.yul\":9764:9895   */\n      swap2\n      pop\n        /* \"#utility.yul\":9617:9906   */\n      pop\n        /* \"#utility.yul\":9993:9997   */\n      0xa0\n        /* \"#utility.yul\":9986:9991   */\n      dup4\n        /* \"#utility.yul\":9982:9998   */\n      add\n        /* \"#utility.yul\":9976:9999   */\n      mload\n        /* \"#utility.yul\":10046:10049   */\n      dup5\n        /* \"#utility.yul\":10040:10044   */\n      dup3\n        /* \"#utility.yul\":10036:10050   */\n      sub\n        /* \"#utility.yul\":10029:10033   */\n      0xa0\n        /* \"#utility.yul\":10024:10027   */\n      dup7\n        /* \"#utility.yul\":10020:10034   */\n      add\n        /* \"#utility.yul\":10013:10051   */\n      mstore\n        /* \"#utility.yul\":10072:10175   */\n      tag_315\n        /* \"#utility.yul\":10170:10174   */\n      dup3\n        /* \"#utility.yul\":10156:10168   */\n      dup3\n        /* \"#utility.yul\":10072:10175   */\n      tag_183\n      jump\t// in\n    tag_315:\n        /* \"#utility.yul\":10064:10175   */\n      swap2\n      pop\n        /* \"#utility.yul\":9916:10186   */\n      pop\n        /* \"#utility.yul\":10278:10282   */\n      0xc0\n        /* \"#utility.yul\":10271:10276   */\n      dup4\n        /* \"#utility.yul\":10267:10283   */\n      add\n        /* \"#utility.yul\":10261:10284   */\n      mload\n        /* \"#utility.yul\":10331:10334   */\n      dup5\n        /* \"#utility.yul\":10325:10329   */\n      dup3\n        /* \"#utility.yul\":10321:10335   */\n      sub\n        /* \"#utility.yul\":10314:10318   */\n      0xc0\n        /* \"#utility.yul\":10309:10312   */\n      dup7\n        /* \"#utility.yul\":10305:10319   */\n      add\n        /* \"#utility.yul\":10298:10336   */\n      mstore\n        /* \"#utility.yul\":10357:10480   */\n      tag_316\n        /* \"#utility.yul\":10475:10479   */\n      dup3\n        /* \"#utility.yul\":10461:10473   */\n      dup3\n        /* \"#utility.yul\":10357:10480   */\n      tag_177\n      jump\t// in\n    tag_316:\n        /* \"#utility.yul\":10349:10480   */\n      swap2\n      pop\n        /* \"#utility.yul\":10196:10491   */\n      pop\n        /* \"#utility.yul\":10508:10512   */\n      dup1\n        /* \"#utility.yul\":10501:10512   */\n      swap2\n      pop\n        /* \"#utility.yul\":8798:10518   */\n      pop\n        /* \"#utility.yul\":8674:10518   */\n      swap3\n      swap2\n      pop\n      pop\n      jump\t// out\n        /* \"#utility.yul\":10524:10800   */\n    tag_185:\n        /* \"#utility.yul\":10653:10663   */\n      0x00\n        /* \"#utility.yul\":10688:10794   */\n      tag_318\n        /* \"#utility.yul\":10790:10793   */\n      dup4\n        /* \"#utility.yul\":10782:10788   */\n      dup4\n        /* \"#utility.yul\":10688:10794   */\n      tag_184\n      jump\t// in\n    tag_318:\n        /* \"#utility.yul\":10674:10794   */\n      swap1\n      pop\n        /* \"#utility.yul\":10524:10800   */\n      swap3\n      swap2\n      pop\n      pop\n      jump\t// out\n        /* \"#utility.yul\":10806:10949   */\n    tag_186:\n        /* \"#utility.yul\":10906:10910   */\n      0x00\n        /* \"#utility.yul\":10938:10942   */\n      0x20\n        /* \"#utility.yul\":10933:10936   */\n      dup3\n        /* \"#utility.yul\":10929:10943   */\n      add\n        /* \"#utility.yul\":10921:10943   */\n      swap1\n      pop\n        /* \"#utility.yul\":10806:10949   */\n      swap2\n      swap1\n      pop\n      jump\t// out\n        /* \"#utility.yul\":11029:12180   */\n    tag_187:\n        /* \"#utility.yul\":11208:11211   */\n      0x00\n        /* \"#utility.yul\":11237:11321   */\n      tag_321\n        /* \"#utility.yul\":11315:11320   */\n      dup3\n        /* \"#utility.yul\":11237:11321   */\n      tag_165\n      jump\t// in\n    tag_321:\n        /* \"#utility.yul\":11337:11453   */\n      tag_322\n        /* \"#utility.yul\":11446:11452   */\n      dup2\n        /* \"#utility.yul\":11441:11444   */\n      dup6\n        /* \"#utility.yul\":11337:11453   */\n      tag_166\n      jump\t// in\n    tag_322:\n        /* \"#utility.yul\":11330:11453   */\n      swap4\n      pop\n        /* \"#utility.yul\":11479:11482   */\n      dup4\n        /* \"#utility.yul\":11524:11528   */\n      0x20\n        /* \"#utility.yul\":11516:11522   */\n      dup3\n        /* \"#utility.yul\":11512:11529   */\n      mul\n        /* \"#utility.yul\":11507:11510   */\n      dup6\n        /* \"#utility.yul\":11503:11530   */\n      add\n        /* \"#utility.yul\":11554:11640   */\n      tag_323\n        /* \"#utility.yul\":11634:11639   */\n      dup6\n        /* \"#utility.yul\":11554:11640   */\n      tag_167\n      jump\t// in\n    tag_323:\n        /* \"#utility.yul\":11663:11670   */\n      dup1\n        /* \"#utility.yul\":11694:11695   */\n      0x00\n        /* \"#utility.yul\":11679:12135   */\n    tag_324:\n        /* \"#utility.yul\":11704:11710   */\n      dup6\n        /* \"#utility.yul\":11701:11702   */\n      dup2\n        /* \"#utility.yul\":11698:11711   */\n      lt\n        /* \"#utility.yul\":11679:12135   */\n      iszero\n      tag_326\n      jumpi\n        /* \"#utility.yul\":11775:11784   */\n      dup5\n        /* \"#utility.yul\":11769:11773   */\n      dup5\n        /* \"#utility.yul\":11765:11785   */\n      sub\n        /* \"#utility.yul\":11760:11763   */\n      dup10\n        /* \"#utility.yul\":11753:11786   */\n      mstore\n        /* \"#utility.yul\":11826:11832   */\n      dup2\n        /* \"#utility.yul\":11820:11833   */\n      mload\n        /* \"#utility.yul\":11854:11978   */\n      tag_327\n        /* \"#utility.yul\":11973:11977   */\n      dup6\n        /* \"#utility.yul\":11958:11971   */\n      dup3\n        /* \"#utility.yul\":11854:11978   */\n      tag_185\n      jump\t// in\n    tag_327:\n        /* \"#utility.yul\":11846:11978   */\n      swap5\n      pop\n        /* \"#utility.yul\":12001:12091   */\n      tag_328\n        /* \"#utility.yul\":12084:12090   */\n      dup4\n        /* \"#utility.yul\":12001:12091   */\n      tag_186\n      jump\t// in\n    tag_328:\n        /* \"#utility.yul\":11991:12091   */\n      swap3\n      pop\n        /* \"#utility.yul\":12120:12124   */\n      0x20\n        /* \"#utility.yul\":12115:12118   */\n      dup11\n        /* \"#utility.yul\":12111:12125   */\n      add\n        /* \"#utility.yul\":12104:12125   */\n      swap10\n      pop\n        /* \"#utility.yul\":11739:12135   */\n      pop\n        /* \"#utility.yul\":11726:11727   */\n      0x01\n        /* \"#utility.yul\":11723:11724   */\n      dup2\n        /* \"#utility.yul\":11719:11728   */\n      add\n        /* \"#utility.yul\":11714:11728   */\n      swap1\n      pop\n        /* \"#utility.yul\":11679:12135   */\n      jump(tag_324)\n    tag_326:\n        /* \"#utility.yul\":11683:11697   */\n      pop\n        /* \"#utility.yul\":12151:12155   */\n      dup3\n        /* \"#utility.yul\":12144:12155   */\n      swap8\n      pop\n        /* \"#utility.yul\":12171:12174   */\n      dup8\n        /* \"#utility.yul\":12164:12174   */\n      swap6\n      pop\n        /* \"#utility.yul\":11213:12180   */\n      pop\n      pop\n      pop\n      pop\n      pop\n        /* \"#utility.yul\":11029:12180   */\n      swap3\n      swap2\n      pop\n      pop\n      jump\t// out\n        /* \"#utility.yul\":12186:12679   */\n    tag_27:\n        /* \"#utility.yul\":12389:12393   */\n      0x00\n        /* \"#utility.yul\":12427:12429   */\n      0x20\n        /* \"#utility.yul\":12416:12425   */\n      dup3\n        /* \"#utility.yul\":12412:12430   */\n      add\n        /* \"#utility.yul\":12404:12430   */\n      swap1\n      pop\n        /* \"#utility.yul\":12476:12485   */\n      dup2\n        /* \"#utility.yul\":12470:12474   */\n      dup2\n        /* \"#utility.yul\":12466:12486   */\n      sub\n        /* \"#utility.yul\":12462:12463   */\n      0x00\n        /* \"#utility.yul\":12451:12460   */\n      dup4\n        /* \"#utility.yul\":12447:12464   */\n      add\n        /* \"#utility.yul\":12440:12487   */\n      mstore\n        /* \"#utility.yul\":12504:12672   */\n      tag_330\n        /* \"#utility.yul\":12667:12671   */\n      dup2\n        /* \"#utility.yul\":12658:12664   */\n      dup5\n        /* \"#utility.yul\":12504:12672   */\n      tag_187\n      jump\t// in\n    tag_330:\n        /* \"#utility.yul\":12496:12672   */\n      swap1\n      pop\n        /* \"#utility.yul\":12186:12679   */\n      swap3\n      swap2\n      pop\n      pop\n      jump\t// out\n        /* \"#utility.yul\":12685:12775   */\n    tag_188:\n        /* \"#utility.yul\":12719:12726   */\n      0x00\n        /* \"#utility.yul\":12762:12767   */\n      dup2\n        /* \"#utility.yul\":12755:12768   */\n      iszero\n        /* \"#utility.yul\":12748:12769   */\n      iszero\n        /* \"#utility.yul\":12737:12769   */\n      swap1\n      pop\n        /* \"#utility.yul\":12685:12775   */\n      swap2\n      swap1\n      pop\n      jump\t// out\n        /* \"#utility.yul\":12781:12890   */\n    tag_189:\n        /* \"#utility.yul\":12862:12883   */\n      tag_333\n        /* \"#utility.yul\":12877:12882   */\n      dup2\n        /* \"#utility.yul\":12862:12883   */\n      tag_188\n      jump\t// in\n    tag_333:\n        /* \"#utility.yul\":12857:12860   */\n      dup3\n        /* \"#utility.yul\":12850:12884   */\n      mstore\n        /* \"#utility.yul\":12781:12890   */\n      pop\n      pop\n      jump\t// out\n        /* \"#utility.yul\":12896:13106   */\n    tag_32:\n        /* \"#utility.yul\":12983:12987   */\n      0x00\n        /* \"#utility.yul\":13021:13023   */\n      0x20\n        /* \"#utility.yul\":13010:13019   */\n      dup3\n        /* \"#utility.yul\":13006:13024   */\n      add\n        /* \"#utility.yul\":12998:13024   */\n      swap1\n      pop\n        /* \"#utility.yul\":13034:13099   */\n      tag_335\n        /* \"#utility.yul\":13096:13097   */\n      0x00\n        /* \"#utility.yul\":13085:13094   */\n      dup4\n        /* \"#utility.yul\":13081:13098   */\n      add\n        /* \"#utility.yul\":13072:13078   */\n      dup5\n        /* \"#utility.yul\":13034:13099   */\n      tag_189\n      jump\t// in\n    tag_335:\n        /* \"#utility.yul\":12896:13106   */\n      swap3\n      swap2\n      pop\n      pop\n      jump\t// out\n        /* \"#utility.yul\":13112:13334   */\n    tag_36:\n        /* \"#utility.yul\":13205:13209   */\n      0x00\n        /* \"#utility.yul\":13243:13245   */\n      0x20\n        /* \"#utility.yul\":13232:13241   */\n      dup3\n        /* \"#utility.yul\":13228:13246   */\n      add\n        /* \"#utility.yul\":13220:13246   */\n      swap1\n      pop\n        /* \"#utility.yul\":13256:13327   */\n      tag_337\n        /* \"#utility.yul\":13324:13325   */\n      0x00\n        /* \"#utility.yul\":13313:13322   */\n      dup4\n        /* \"#utility.yul\":13309:13326   */\n      add\n        /* \"#utility.yul\":13300:13306   */\n      dup5\n        /* \"#utility.yul\":13256:13327   */\n      tag_159\n      jump\t// in\n    tag_337:\n        /* \"#utility.yul\":13112:13334   */\n      swap3\n      swap2\n      pop\n      pop\n      jump\t// out\n        /* \"#utility.yul\":13340:13814   */\n    tag_39:\n        /* \"#utility.yul\":13408:13414   */\n      0x00\n        /* \"#utility.yul\":13416:13422   */\n      dup1\n        /* \"#utility.yul\":13465:13467   */\n      0x40\n        /* \"#utility.yul\":13453:13462   */\n      dup4\n        /* \"#utility.yul\":13444:13451   */\n      dup6\n        /* \"#utility.yul\":13440:13463   */\n      sub\n        /* \"#utility.yul\":13436:13468   */\n      slt\n        /* \"#utility.yul\":13433:13552   */\n      iszero\n      tag_339\n      jumpi\n        /* \"#utility.yul\":13471:13550   */\n      tag_340\n      tag_149\n      jump\t// in\n    tag_340:\n        /* \"#utility.yul\":13433:13552   */\n    tag_339:\n        /* \"#utility.yul\":13591:13592   */\n      0x00\n        /* \"#utility.yul\":13616:13669   */\n      tag_341\n        /* \"#utility.yul\":13661:13668   */\n      dup6\n        /* \"#utility.yul\":13652:13658   */\n      dup3\n        /* \"#utility.yul\":13641:13650   */\n      dup7\n        /* \"#utility.yul\":13637:13659   */\n      add\n        /* \"#utility.yul\":13616:13669   */\n      tag_153\n      jump\t// in\n    tag_341:\n        /* \"#utility.yul\":13606:13669   */\n      swap3\n      pop\n        /* \"#utility.yul\":13562:13679   */\n      pop\n        /* \"#utility.yul\":13718:13720   */\n      0x20\n        /* \"#utility.yul\":13744:13797   */\n      tag_342\n        /* \"#utility.yul\":13789:13796   */\n      dup6\n        /* \"#utility.yul\":13780:13786   */\n      dup3\n        /* \"#utility.yul\":13769:13778   */\n      dup7\n        /* \"#utility.yul\":13765:13787   */\n      add\n        /* \"#utility.yul\":13744:13797   */\n      tag_158\n      jump\t// in\n    tag_342:\n        /* \"#utility.yul\":13734:13797   */\n      swap2\n      pop\n        /* \"#utility.yul\":13689:13807   */\n      pop\n        /* \"#utility.yul\":13340:13814   */\n      swap3\n      pop\n      swap3\n      swap1\n      pop\n      jump\t// out\n        /* \"#utility.yul\":13820:13937   */\n    tag_190:\n        /* \"#utility.yul\":13929:13930   */\n      0x00\n        /* \"#utility.yul\":13926:13927   */\n      dup1\n        /* \"#utility.yul\":13919:13931   */\n      revert\n        /* \"#utility.yul\":13943:14060   */\n    tag_191:\n        /* \"#utility.yul\":14052:14053   */\n      0x00\n        /* \"#utility.yul\":14049:14050   */\n      dup1\n        /* \"#utility.yul\":14042:14054   */\n      revert\n        /* \"#utility.yul\":14066:14246   */\n    tag_60:\n        /* \"#utility.yul\":14114:14191   */\n      0x4e487b7100000000000000000000000000000000000000000000000000000000\n        /* \"#utility.yul\":14111:14112   */\n      0x00\n        /* \"#utility.yul\":14104:14192   */\n      mstore\n        /* \"#utility.yul\":14211:14215   */\n      0x41\n        /* \"#utility.yul\":14208:14209   */\n      0x04\n        /* \"#utility.yul\":14201:14216   */\n      mstore\n        /* \"#utility.yul\":14235:14239   */\n      0x24\n        /* \"#utility.yul\":14232:14233   */\n      0x00\n        /* \"#utility.yul\":14225:14240   */\n      revert\n        /* \"#utility.yul\":14252:14533   */\n    tag_192:\n        /* \"#utility.yul\":14335:14362   */\n      tag_347\n        /* \"#utility.yul\":14357:14361   */\n      dup3\n        /* \"#utility.yul\":14335:14362   */\n      tag_163\n      jump\t// in\n    tag_347:\n        /* \"#utility.yul\":14327:14333   */\n      dup2\n        /* \"#utility.yul\":14323:14363   */\n      add\n        /* \"#utility.yul\":14465:14471   */\n      dup2\n        /* \"#utility.yul\":14453:14463   */\n      dup2\n        /* \"#utility.yul\":14450:14472   */\n      lt\n        /* \"#utility.yul\":14429:14447   */\n      0xffffffffffffffff\n        /* \"#utility.yul\":14417:14427   */\n      dup3\n        /* \"#utility.yul\":14414:14448   */\n      gt\n        /* \"#utility.yul\":14411:14473   */\n      or\n        /* \"#utility.yul\":14408:14496   */\n      iszero\n      tag_348\n      jumpi\n        /* \"#utility.yul\":14476:14494   */\n      tag_349\n      tag_60\n      jump\t// in\n    tag_349:\n        /* \"#utility.yul\":14408:14496   */\n    tag_348:\n        /* \"#utility.yul\":14516:14526   */\n      dup1\n        /* \"#utility.yul\":14512:14514   */\n      0x40\n        /* \"#utility.yul\":14505:14527   */\n      mstore\n        /* \"#utility.yul\":14295:14533   */\n      pop\n        /* \"#utility.yul\":14252:14533   */\n      pop\n      pop\n      jump\t// out\n        /* \"#utility.yul\":14539:14668   */\n    tag_193:\n        /* \"#utility.yul\":14573:14579   */\n      0x00\n        /* \"#utility.yul\":14600:14620   */\n      tag_351\n      tag_148\n      jump\t// in\n    tag_351:\n        /* \"#utility.yul\":14590:14620   */\n      swap1\n      pop\n        /* \"#utility.yul\":14629:14662   */\n      tag_352\n        /* \"#utility.yul\":14657:14661   */\n      dup3\n        /* \"#utility.yul\":14649:14655   */\n      dup3\n        /* \"#utility.yul\":14629:14662   */\n      tag_192\n      jump\t// in\n    tag_352:\n        /* \"#utility.yul\":14539:14668   */\n      swap2\n      swap1\n      pop\n      jump\t// out\n        /* \"#utility.yul\":14674:14982   */\n    tag_194:\n        /* \"#utility.yul\":14736:14740   */\n      0x00\n        /* \"#utility.yul\":14826:14844   */\n      0xffffffffffffffff\n        /* \"#utility.yul\":14818:14824   */\n      dup3\n        /* \"#utility.yul\":14815:14845   */\n      gt\n        /* \"#utility.yul\":14812:14868   */\n      iszero\n      tag_354\n      jumpi\n        /* \"#utility.yul\":14848:14866   */\n      tag_355\n      tag_60\n      jump\t// in\n    tag_355:\n        /* \"#utility.yul\":14812:14868   */\n    tag_354:\n        /* \"#utility.yul\":14886:14915   */\n      tag_356\n        /* \"#utility.yul\":14908:14914   */\n      dup3\n        /* \"#utility.yul\":14886:14915   */\n      tag_163\n      jump\t// in\n    tag_356:\n        /* \"#utility.yul\":14878:14915   */\n      swap1\n      pop\n        /* \"#utility.yul\":14970:14974   */\n      0x20\n        /* \"#utility.yul\":14964:14968   */\n      dup2\n        /* \"#utility.yul\":14960:14975   */\n      add\n        /* \"#utility.yul\":14952:14975   */\n      swap1\n      pop\n        /* \"#utility.yul\":14674:14982   */\n      swap2\n      swap1\n      pop\n      jump\t// out\n        /* \"#utility.yul\":14988:15134   */\n    tag_195:\n        /* \"#utility.yul\":15085:15091   */\n      dup3\n        /* \"#utility.yul\":15080:15083   */\n      dup2\n        /* \"#utility.yul\":15075:15078   */\n      dup4\n        /* \"#utility.yul\":15062:15092   */\n      calldatacopy\n        /* \"#utility.yul\":15126:15127   */\n      0x00\n        /* \"#utility.yul\":15117:15123   */\n      dup4\n        /* \"#utility.yul\":15112:15115   */\n      dup4\n        /* \"#utility.yul\":15108:15124   */\n      add\n        /* \"#utility.yul\":15101:15128   */\n      mstore\n        /* \"#utility.yul\":14988:15134   */\n      pop\n      pop\n      pop\n      jump\t// out\n        /* \"#utility.yul\":15140:15565   */\n    tag_196:\n        /* \"#utility.yul\":15218:15223   */\n      0x00\n        /* \"#utility.yul\":15243:15309   */\n      tag_359\n        /* \"#utility.yul\":15259:15308   */\n      tag_360\n        /* \"#utility.yul\":15301:15307   */\n      dup5\n        /* \"#utility.yul\":15259:15308   */\n      tag_194\n      jump\t// in\n    tag_360:\n        /* \"#utility.yul\":15243:15309   */\n      tag_193\n      jump\t// in\n    tag_359:\n        /* \"#utility.yul\":15234:15309   */\n      swap1\n      pop\n        /* \"#utility.yul\":15332:15338   */\n      dup3\n        /* \"#utility.yul\":15325:15330   */\n      dup2\n        /* \"#utility.yul\":15318:15339   */\n      mstore\n        /* \"#utility.yul\":15370:15374   */\n      0x20\n        /* \"#utility.yul\":15363:15368   */\n      dup2\n        /* \"#utility.yul\":15359:15375   */\n      add\n        /* \"#utility.yul\":15408:15411   */\n      dup5\n        /* \"#utility.yul\":15399:15405   */\n      dup5\n        /* \"#utility.yul\":15394:15397   */\n      dup5\n        /* \"#utility.yul\":15390:15406   */\n      add\n        /* \"#utility.yul\":15387:15412   */\n      gt\n        /* \"#utility.yul\":15384:15496   */\n      iszero\n      tag_361\n      jumpi\n        /* \"#utility.yul\":15415:15494   */\n      tag_362\n      tag_191\n      jump\t// in\n    tag_362:\n        /* \"#utility.yul\":15384:15496   */\n    tag_361:\n        /* \"#utility.yul\":15505:15559   */\n      tag_363\n        /* \"#utility.yul\":15552:15558   */\n      dup5\n        /* \"#utility.yul\":15547:15550   */\n      dup3\n        /* \"#utility.yul\":15542:15545   */\n      dup6\n        /* \"#utility.yul\":15505:15559   */\n      tag_195\n      jump\t// in\n    tag_363:\n        /* \"#utility.yul\":15224:15565   */\n      pop\n        /* \"#utility.yul\":15140:15565   */\n      swap4\n      swap3\n      pop\n      pop\n      pop\n      jump\t// out\n        /* \"#utility.yul\":15585:15925   */\n    tag_197:\n        /* \"#utility.yul\":15641:15646   */\n      0x00\n        /* \"#utility.yul\":15690:15693   */\n      dup3\n        /* \"#utility.yul\":15683:15687   */\n      0x1f\n        /* \"#utility.yul\":15675:15681   */\n      dup4\n        /* \"#utility.yul\":15671:15688   */\n      add\n        /* \"#utility.yul\":15667:15694   */\n      slt\n        /* \"#utility.yul\":15657:15779   */\n      tag_365\n      jumpi\n        /* \"#utility.yul\":15698:15777   */\n      tag_366\n      tag_190\n      jump\t// in\n    tag_366:\n        /* \"#utility.yul\":15657:15779   */\n    tag_365:\n        /* \"#utility.yul\":15815:15821   */\n      dup2\n        /* \"#utility.yul\":15802:15822   */\n      calldataload\n        /* \"#utility.yul\":15840:15919   */\n      tag_367\n        /* \"#utility.yul\":15915:15918   */\n      dup5\n        /* \"#utility.yul\":15907:15913   */\n      dup3\n        /* \"#utility.yul\":15900:15904   */\n      0x20\n        /* \"#utility.yul\":15892:15898   */\n      dup7\n        /* \"#utility.yul\":15888:15905   */\n      add\n        /* \"#utility.yul\":15840:15919   */\n      tag_196\n      jump\t// in\n    tag_367:\n        /* \"#utility.yul\":15831:15919   */\n      swap2\n      pop\n        /* \"#utility.yul\":15647:15925   */\n      pop\n        /* \"#utility.yul\":15585:15925   */\n      swap3\n      swap2\n      pop\n      pop\n      jump\t// out\n        /* \"#utility.yul\":15931:16730   */\n    tag_43:\n        /* \"#utility.yul\":16018:16024   */\n      0x00\n        /* \"#utility.yul\":16026:16032   */\n      dup1\n        /* \"#utility.yul\":16034:16040   */\n      0x00\n        /* \"#utility.yul\":16083:16085   */\n      0x60\n        /* \"#utility.yul\":16071:16080   */\n      dup5\n        /* \"#utility.yul\":16062:16069   */\n      dup7\n        /* \"#utility.yul\":16058:16081   */\n      sub\n        /* \"#utility.yul\":16054:16086   */\n      slt\n        /* \"#utility.yul\":16051:16170   */\n      iszero\n      tag_369\n      jumpi\n        /* \"#utility.yul\":16089:16168   */\n      tag_370\n      tag_149\n      jump\t// in\n    tag_370:\n        /* \"#utility.yul\":16051:16170   */\n    tag_369:\n        /* \"#utility.yul\":16237:16238   */\n      0x00\n        /* \"#utility.yul\":16226:16235   */\n      dup5\n        /* \"#utility.yul\":16222:16239   */\n      add\n        /* \"#utility.yul\":16209:16240   */\n      calldataload\n        /* \"#utility.yul\":16267:16285   */\n      0xffffffffffffffff\n        /* \"#utility.yul\":16259:16265   */\n      dup2\n        /* \"#utility.yul\":16256:16286   */\n      gt\n        /* \"#utility.yul\":16253:16370   */\n      iszero\n      tag_371\n      jumpi\n        /* \"#utility.yul\":16289:16368   */\n      tag_372\n      tag_150\n      jump\t// in\n    tag_372:\n        /* \"#utility.yul\":16253:16370   */\n    tag_371:\n        /* \"#utility.yul\":16394:16457   */\n      tag_373\n        /* \"#utility.yul\":16449:16456   */\n      dup7\n        /* \"#utility.yul\":16440:16446   */\n      dup3\n        /* \"#utility.yul\":16429:16438   */\n      dup8\n        /* \"#utility.yul\":16425:16447   */\n      add\n        /* \"#utility.yul\":16394:16457   */\n      tag_197\n      jump\t// in\n    tag_373:\n        /* \"#utility.yul\":16384:16457   */\n      swap4\n      pop\n        /* \"#utility.yul\":16180:16467   */\n      pop\n        /* \"#utility.yul\":16506:16508   */\n      0x20\n        /* \"#utility.yul\":16532:16585   */\n      tag_374\n        /* \"#utility.yul\":16577:16584   */\n      dup7\n        /* \"#utility.yul\":16568:16574   */\n      dup3\n        /* \"#utility.yul\":16557:16566   */\n      dup8\n        /* \"#utility.yul\":16553:16575   */\n      add\n        /* \"#utility.yul\":16532:16585   */\n      tag_153\n      jump\t// in\n    tag_374:\n        /* \"#utility.yul\":16522:16585   */\n      swap3\n      pop\n        /* \"#utility.yul\":16477:16595   */\n      pop\n        /* \"#utility.yul\":16634:16636   */\n      0x40\n        /* \"#utility.yul\":16660:16713   */\n      tag_375\n        /* \"#utility.yul\":16705:16712   */\n      dup7\n        /* \"#utility.yul\":16696:16702   */\n      dup3\n        /* \"#utility.yul\":16685:16694   */\n      dup8\n        /* \"#utility.yul\":16681:16703   */\n      add\n        /* \"#utility.yul\":16660:16713   */\n      tag_158\n      jump\t// in\n    tag_375:\n        /* \"#utility.yul\":16650:16713   */\n      swap2\n      pop\n        /* \"#utility.yul\":16605:16723   */\n      pop\n        /* \"#utility.yul\":15931:16730   */\n      swap3\n      pop\n      swap3\n      pop\n      swap3\n      jump\t// out\n        /* \"#utility.yul\":16736:17390   */\n    tag_47:\n        /* \"#utility.yul\":16814:16820   */\n      0x00\n        /* \"#utility.yul\":16822:16828   */\n      dup1\n        /* \"#utility.yul\":16871:16873   */\n      0x40\n        /* \"#utility.yul\":16859:16868   */\n      dup4\n        /* \"#utility.yul\":16850:16857   */\n      dup6\n        /* \"#utility.yul\":16846:16869   */\n      sub\n        /* \"#utility.yul\":16842:16874   */\n      slt\n        /* \"#utility.yul\":16839:16958   */\n      iszero\n      tag_377\n      jumpi\n        /* \"#utility.yul\":16877:16956   */\n      tag_378\n      tag_149\n      jump\t// in\n    tag_378:\n        /* \"#utility.yul\":16839:16958   */\n    tag_377:\n        /* \"#utility.yul\":16997:16998   */\n      0x00\n        /* \"#utility.yul\":17022:17075   */\n      tag_379\n        /* \"#utility.yul\":17067:17074   */\n      dup6\n        /* \"#utility.yul\":17058:17064   */\n      dup3\n        /* \"#utility.yul\":17047:17056   */\n      dup7\n        /* \"#utility.yul\":17043:17065   */\n      add\n        /* \"#utility.yul\":17022:17075   */\n      tag_158\n      jump\t// in\n    tag_379:\n        /* \"#utility.yul\":17012:17075   */\n      swap3\n      pop\n        /* \"#utility.yul\":16968:17085   */\n      pop\n        /* \"#utility.yul\":17152:17154   */\n      0x20\n        /* \"#utility.yul\":17141:17150   */\n      dup4\n        /* \"#utility.yul\":17137:17155   */\n      add\n        /* \"#utility.yul\":17124:17156   */\n      calldataload\n        /* \"#utility.yul\":17183:17201   */\n      0xffffffffffffffff\n        /* \"#utility.yul\":17175:17181   */\n      dup2\n        /* \"#utility.yul\":17172:17202   */\n      gt\n        /* \"#utility.yul\":17169:17286   */\n      iszero\n      tag_380\n      jumpi\n        /* \"#utility.yul\":17205:17284   */\n      tag_381\n      tag_150\n      jump\t// in\n    tag_381:\n        /* \"#utility.yul\":17169:17286   */\n    tag_380:\n        /* \"#utility.yul\":17310:17373   */\n      tag_382\n        /* \"#utility.yul\":17365:17372   */\n      dup6\n        /* \"#utility.yul\":17356:17362   */\n      dup3\n        /* \"#utility.yul\":17345:17354   */\n      dup7\n        /* \"#utility.yul\":17341:17363   */\n      add\n        /* \"#utility.yul\":17310:17373   */\n      tag_197\n      jump\t// in\n    tag_382:\n        /* \"#utility.yul\":17300:17373   */\n      swap2\n      pop\n        /* \"#utility.yul\":17095:17383   */\n      pop\n        /* \"#utility.yul\":16736:17390   */\n      swap3\n      pop\n      swap3\n      swap1\n      pop\n      jump\t// out\n        /* \"#utility.yul\":17396:17576   */\n    tag_198:\n        /* \"#utility.yul\":17444:17521   */\n      0x4e487b7100000000000000000000000000000000000000000000000000000000\n        /* \"#utility.yul\":17441:17442   */\n      0x00\n        /* \"#utility.yul\":17434:17522   */\n      mstore\n        /* \"#utility.yul\":17541:17545   */\n      0x22\n        /* \"#utility.yul\":17538:17539   */\n      0x04\n        /* \"#utility.yul\":17531:17546   */\n      mstore\n        /* \"#utility.yul\":17565:17569   */\n      0x24\n        /* \"#utility.yul\":17562:17563   */\n      0x00\n        /* \"#utility.yul\":17555:17570   */\n      revert\n        /* \"#utility.yul\":17582:17902   */\n    tag_52:\n        /* \"#utility.yul\":17626:17632   */\n      0x00\n        /* \"#utility.yul\":17663:17664   */\n      0x02\n        /* \"#utility.yul\":17657:17661   */\n      dup3\n        /* \"#utility.yul\":17653:17665   */\n      div\n        /* \"#utility.yul\":17643:17665   */\n      swap1\n      pop\n        /* \"#utility.yul\":17710:17711   */\n      0x01\n        /* \"#utility.yul\":17704:17708   */\n      dup3\n        /* \"#utility.yul\":17700:17712   */\n      and\n        /* \"#utility.yul\":17731:17749   */\n      dup1\n        /* \"#utility.yul\":17721:17802   */\n      tag_385\n      jumpi\n        /* \"#utility.yul\":17787:17791   */\n      0x7f\n        /* \"#utility.yul\":17779:17785   */\n      dup3\n        /* \"#utility.yul\":17775:17792   */\n      and\n        /* \"#utility.yul\":17765:17792   */\n      swap2\n      pop\n        /* \"#utility.yul\":17721:17802   */\n    tag_385:\n        /* \"#utility.yul\":17849:17851   */\n      0x20\n        /* \"#utility.yul\":17841:17847   */\n      dup3\n        /* \"#utility.yul\":17838:17852   */\n      lt\n        /* \"#utility.yul\":17818:17836   */\n      dup2\n        /* \"#utility.yul\":17815:17853   */\n      sub\n        /* \"#utility.yul\":17812:17896   */\n      tag_386\n      jumpi\n        /* \"#utility.yul\":17868:17886   */\n      tag_387\n      tag_198\n      jump\t// in\n    tag_387:\n        /* \"#utility.yul\":17812:17896   */\n    tag_386:\n        /* \"#utility.yul\":17633:17902   */\n      pop\n        /* \"#utility.yul\":17582:17902   */\n      swap2\n      swap1\n      pop\n      jump\t// out\n        /* \"#utility.yul\":17908:18088   */\n    tag_70:\n        /* \"#utility.yul\":17956:18033   */\n      0x4e487b7100000000000000000000000000000000000000000000000000000000\n        /* \"#utility.yul\":17953:17954   */\n      0x00\n        /* \"#utility.yul\":17946:18034   */\n      mstore\n        /* \"#utility.yul\":18053:18057   */\n      0x32\n        /* \"#utility.yul\":18050:18051   */\n      0x04\n        /* \"#utility.yul\":18043:18058   */\n      mstore\n        /* \"#utility.yul\":18077:18081   */\n      0x24\n        /* \"#utility.yul\":18074:18075   */\n      0x00\n        /* \"#utility.yul\":18067:18082   */\n      revert\n        /* \"#utility.yul\":18094:18274   */\n    tag_199:\n        /* \"#utility.yul\":18142:18219   */\n      0x4e487b7100000000000000000000000000000000000000000000000000000000\n        /* \"#utility.yul\":18139:18140   */\n      0x00\n        /* \"#utility.yul\":18132:18220   */\n      mstore\n        /* \"#utility.yul\":18239:18243   */\n      0x11\n        /* \"#utility.yul\":18236:18237   */\n      0x04\n        /* \"#utility.yul\":18229:18244   */\n      mstore\n        /* \"#utility.yul\":18263:18267   */\n      0x24\n        /* \"#utility.yul\":18260:18261   */\n      0x00\n        /* \"#utility.yul\":18253:18268   */\n      revert\n        /* \"#utility.yul\":18280:18513   */\n    tag_98:\n        /* \"#utility.yul\":18319:18322   */\n      0x00\n        /* \"#utility.yul\":18342:18366   */\n      tag_391\n        /* \"#utility.yul\":18360:18365   */\n      dup3\n        /* \"#utility.yul\":18342:18366   */\n      tag_151\n      jump\t// in\n    tag_391:\n        /* \"#utility.yul\":18333:18366   */\n      swap2\n      pop\n        /* \"#utility.yul\":18388:18454   */\n      0xffffffffffffffffffffffffffffffffffffffffffffffffffffffffffffffff\n        /* \"#utility.yul\":18381:18386   */\n      dup3\n        /* \"#utility.yul\":18378:18455   */\n      sub\n        /* \"#utility.yul\":18375:18478   */\n      tag_392\n      jumpi\n        /* \"#utility.yul\":18458:18476   */\n      tag_393\n      tag_199\n      jump\t// in\n    tag_393:\n        /* \"#utility.yul\":18375:18478   */\n    tag_392:\n        /* \"#utility.yul\":18505:18506   */\n      0x01\n        /* \"#utility.yul\":18498:18503   */\n      dup3\n        /* \"#utility.yul\":18494:18507   */\n      add\n        /* \"#utility.yul\":18487:18507   */\n      swap1\n      pop\n        /* \"#utility.yul\":18280:18513   */\n      swap2\n      swap1\n      pop\n      jump\t// out\n        /* \"#utility.yul\":18519:18691   */\n    tag_200:\n        /* \"#utility.yul\":18659:18683   */\n      0x50617469656e7420616c72656164792065786973747300000000000000000000\n        /* \"#utility.yul\":18655:18656   */\n      0x00\n        /* \"#utility.yul\":18647:18653   */\n      dup3\n        /* \"#utility.yul\":18643:18657   */\n      add\n        /* \"#utility.yul\":18636:18684   */\n      mstore\n        /* \"#utility.yul\":18519:18691   */\n      pop\n      jump\t// out\n        /* \"#utility.yul\":18697:19063   */\n    tag_201:\n        /* \"#utility.yul\":18839:18842   */\n      0x00\n        /* \"#utility.yul\":18860:18927   */\n      tag_396\n        /* \"#utility.yul\":18924:18926   */\n      0x16\n        /* \"#utility.yul\":18919:18922   */\n      dup4\n        /* \"#utility.yul\":18860:18927   */\n      tag_161\n      jump\t// in\n    tag_396:\n        /* \"#utility.yul\":18853:18927   */\n      swap2\n      pop\n        /* \"#utility.yul\":18936:19029   */\n      tag_397\n        /* \"#utility.yul\":19025:19028   */\n      dup3\n        /* \"#utility.yul\":18936:19029   */\n      tag_200\n      jump\t// in\n    tag_397:\n        /* \"#utility.yul\":19054:19056   */\n      0x20\n        /* \"#utility.yul\":19049:19052   */\n      dup3\n        /* \"#utility.yul\":19045:19057   */\n      add\n        /* \"#utility.yul\":19038:19057   */\n      swap1\n      pop\n        /* \"#utility.yul\":18697:19063   */\n      swap2\n      swap1\n      pop\n      jump\t// out\n        /* \"#utility.yul\":19069:19488   */\n    tag_114:\n        /* \"#utility.yul\":19235:19239   */\n      0x00\n        /* \"#utility.yul\":19273:19275   */\n      0x20\n        /* \"#utility.yul\":19262:19271   */\n      dup3\n        /* \"#utility.yul\":19258:19276   */\n      add\n        /* \"#utility.yul\":19250:19276   */\n      swap1\n      pop\n        /* \"#utility.yul\":19322:19331   */\n      dup2\n        /* \"#utility.yul\":19316:19320   */\n      dup2\n        /* \"#utility.yul\":19312:19332   */\n      sub\n        /* \"#utility.yul\":19308:19309   */\n      0x00\n        /* \"#utility.yul\":19297:19306   */\n      dup4\n        /* \"#utility.yul\":19293:19310   */\n      add\n        /* \"#utility.yul\":19286:19333   */\n      mstore\n        /* \"#utility.yul\":19350:19481   */\n      tag_399\n        /* \"#utility.yul\":19476:19480   */\n      dup2\n        /* \"#utility.yul\":19350:19481   */\n      tag_201\n      jump\t// in\n    tag_399:\n        /* \"#utility.yul\":19342:19481   */\n      swap1\n      pop\n        /* \"#utility.yul\":19069:19488   */\n      swap2\n      swap1\n      pop\n      jump\t// out\n        /* \"#utility.yul\":19494:19635   */\n    tag_202:\n        /* \"#utility.yul\":19543:19547   */\n      0x00\n        /* \"#utility.yul\":19566:19569   */\n      dup2\n        /* \"#utility.yul\":19558:19569   */\n      swap1\n      pop\n        /* \"#utility.yul\":19589:19592   */\n      dup2\n        /* \"#utility.yul\":19586:19587   */\n      0x00\n        /* \"#utility.yul\":19579:19593   */\n      mstore\n        /* \"#utility.yul\":19623:19627   */\n      0x20\n        /* \"#utility.yul\":19620:19621   */\n      0x00\n        /* \"#utility.yul\":19610:19628   */\n      keccak256\n        /* \"#utility.yul\":19602:19628   */\n      swap1\n      pop\n        /* \"#utility.yul\":19494:19635   */\n      swap2\n      swap1\n      pop\n      jump\t// out\n        /* \"#utility.yul\":19641:19734   */\n    tag_203:\n        /* \"#utility.yul\":19678:19684   */\n      0x00\n        /* \"#utility.yul\":19725:19727   */\n      0x20\n        /* \"#utility.yul\":19720:19722   */\n      0x1f\n        /* \"#utility.yul\":19713:19718   */\n      dup4\n        /* \"#utility.yul\":19709:19723   */\n      add\n        /* \"#utility.yul\":19705:19728   */\n      div\n        /* \"#utility.yul\":19695:19728   */\n      swap1\n      pop\n        /* \"#utility.yul\":19641:19734   */\n      swap2\n      swap1\n      pop\n      jump\t// out\n        /* \"#utility.yul\":19740:19847   */\n    tag_204:\n        /* \"#utility.yul\":19784:19792   */\n      0x00\n        /* \"#utility.yul\":19834:19839   */\n      dup3\n        /* \"#utility.yul\":19828:19832   */\n      dup3\n        /* \"#utility.yul\":19824:19840   */\n      shl\n        /* \"#utility.yul\":19803:19840   */\n      swap1\n      pop\n        /* \"#utility.yul\":19740:19847   */\n      swap3\n      swap2\n      pop\n      pop\n      jump\t// out\n        /* \"#utility.yul\":19853:20246   */\n    tag_205:\n        /* \"#utility.yul\":19922:19928   */\n      0x00\n        /* \"#utility.yul\":19972:19973   */\n      0x08\n        /* \"#utility.yul\":19960:19970   */\n      dup4\n        /* \"#utility.yul\":19956:19974   */\n      mul\n        /* \"#utility.yul\":19995:20092   */\n      tag_404\n        /* \"#utility.yul\":20025:20091   */\n      0xffffffffffffffffffffffffffffffffffffffffffffffffffffffffffffffff\n        /* \"#utility.yul\":20014:20023   */\n      dup3\n        /* \"#utility.yul\":19995:20092   */\n      tag_204\n      jump\t// in\n    tag_404:\n        /* \"#utility.yul\":20113:20152   */\n      tag_405\n        /* \"#utility.yul\":20143:20151   */\n      dup7\n        /* \"#utility.yul\":20132:20141   */\n      dup4\n        /* \"#utility.yul\":20113:20152   */\n      tag_204\n      jump\t// in\n    tag_405:\n        /* \"#utility.yul\":20101:20152   */\n      swap6\n      pop\n        /* \"#utility.yul\":20185:20189   */\n      dup1\n        /* \"#utility.yul\":20181:20190   */\n      not\n        /* \"#utility.yul\":20174:20179   */\n      dup5\n        /* \"#utility.yul\":20170:20191   */\n      and\n        /* \"#utility.yul\":20161:20191   */\n      swap4\n      pop\n        /* \"#utility.yul\":20234:20238   */\n      dup1\n        /* \"#utility.yul\":20224:20232   */\n      dup7\n        /* \"#utility.yul\":20220:20239   */\n      and\n        /* \"#utility.yul\":20213:20218   */\n      dup5\n        /* \"#utility.yul\":20210:20240   */\n      or\n        /* \"#utility.yul\":20200:20240   */\n      swap3\n      pop\n        /* \"#utility.yul\":19929:20246   */\n      pop\n      pop\n        /* \"#utility.yul\":19853:20246   */\n      swap4\n      swap3\n      pop\n      pop\n      pop\n      jump\t// out\n        /* \"#utility.yul\":20252:20312   */\n    tag_206:\n        /* \"#utility.yul\":20280:20283   */\n      0x00\n        /* \"#utility.yul\":20301:20306   */\n      dup2\n        /* \"#utility.yul\":20294:20306   */\n      swap1\n      pop\n        /* \"#utility.yul\":20252:20312   */\n      swap2\n      swap1\n      pop\n      jump\t// out\n        /* \"#utility.yul\":20318:20460   */\n    tag_207:\n        /* \"#utility.yul\":20368:20377   */\n      0x00\n        /* \"#utility.yul\":20401:20454   */\n      tag_408\n        /* \"#utility.yul\":20419:20453   */\n      tag_409\n        /* \"#utility.yul\":20428:20452   */\n      tag_410\n        /* \"#utility.yul\":20446:20451   */\n      dup5\n        /* \"#utility.yul\":20428:20452   */\n      tag_151\n      jump\t// in\n    tag_410:\n        /* \"#utility.yul\":20419:20453   */\n      tag_206\n      jump\t// in\n    tag_409:\n        /* \"#utility.yul\":20401:20454   */\n      tag_151\n      jump\t// in\n    tag_408:\n        /* \"#utility.yul\":20388:20454   */\n      swap1\n      pop\n        /* \"#utility.yul\":20318:20460   */\n      swap2\n      swap1\n      pop\n      jump\t// out\n        /* \"#utility.yul\":20466:20541   */\n    tag_208:\n        /* \"#utility.yul\":20509:20512   */\n      0x00\n        /* \"#utility.yul\":20530:20535   */\n      dup2\n        /* \"#utility.yul\":20523:20535   */\n      swap1\n      pop\n        /* \"#utility.yul\":20466:20541   */\n      swap2\n      swap1\n      pop\n      jump\t// out\n        /* \"#utility.yul\":20547:20816   */\n    tag_209:\n        /* \"#utility.yul\":20657:20696   */\n      tag_413\n        /* \"#utility.yul\":20688:20695   */\n      dup4\n        /* \"#utility.yul\":20657:20696   */\n      tag_207\n      jump\t// in\n    tag_413:\n        /* \"#utility.yul\":20718:20809   */\n      tag_414\n        /* \"#utility.yul\":20767:20808   */\n      tag_415\n        /* \"#utility.yul\":20791:20807   */\n      dup3\n        /* \"#utility.yul\":20767:20808   */\n      tag_208\n      jump\t// in\n    tag_415:\n        /* \"#utility.yul\":20759:20765   */\n      dup5\n        /* \"#utility.yul\":20752:20756   */\n      dup5\n        /* \"#utility.yul\":20746:20757   */\n      sload\n        /* \"#utility.yul\":20718:20809   */\n      tag_205\n      jump\t// in\n    tag_414:\n        /* \"#utility.yul\":20712:20716   */\n      dup3\n        /* \"#utility.yul\":20705:20810   */\n      sstore\n        /* \"#utility.yul\":20623:20816   */\n      pop\n        /* \"#utility.yul\":20547:20816   */\n      pop\n      pop\n      pop\n      jump\t// out\n        /* \"#utility.yul\":20822:20895   */\n    tag_210:\n        /* \"#utility.yul\":20867:20870   */\n      0x00\n        /* \"#utility.yul\":20822:20895   */\n      swap1\n      jump\t// out\n        /* \"#utility.yul\":20901:21090   */\n    tag_211:\n        /* \"#utility.yul\":20978:21010   */\n      tag_418\n      tag_210\n      jump\t// in\n    tag_418:\n        /* \"#utility.yul\":21019:21084   */\n      tag_419\n        /* \"#utility.yul\":21077:21083   */\n      dup2\n        /* \"#utility.yul\":21069:21075   */\n      dup5\n        /* \"#utility.yul\":21063:21067   */\n      dup5\n        /* \"#utility.yul\":21019:21084   */\n      tag_209\n      jump\t// in\n    tag_419:\n        /* \"#utility.yul\":20954:21090   */\n      pop\n        /* \"#utility.yul\":20901:21090   */\n      pop\n      pop\n      jump\t// out\n        /* \"#utility.yul\":21096:21282   */\n    tag_212:\n        /* \"#utility.yul\":21156:21276   */\n    tag_421:\n        /* \"#utility.yul\":21173:21176   */\n      dup2\n        /* \"#utility.yul\":21166:21171   */\n      dup2\n        /* \"#utility.yul\":21163:21177   */\n      lt\n        /* \"#utility.yul\":21156:21276   */\n      iszero\n      tag_423\n      jumpi\n        /* \"#utility.yul\":21227:21266   */\n      tag_424\n        /* \"#utility.yul\":21264:21265   */\n      0x00\n        /* \"#utility.yul\":21257:21262   */\n      dup3\n        /* \"#utility.yul\":21227:21266   */\n      tag_211\n      jump\t// in\n    tag_424:\n        /* \"#utility.yul\":21200:21201   */\n      0x01\n        /* \"#utility.yul\":21193:21198   */\n      dup2\n        /* \"#utility.yul\":21189:21202   */\n      add\n        /* \"#utility.yul\":21180:21202   */\n      swap1\n      pop\n        /* \"#utility.yul\":21156:21276   */\n      jump(tag_421)\n    tag_423:\n        /* \"#utility.yul\":21096:21282   */\n      pop\n      pop\n      jump\t// out\n        /* \"#utility.yul\":21288:21831   */\n    tag_213:\n        /* \"#utility.yul\":21389:21391   */\n      0x1f\n        /* \"#utility.yul\":21384:21387   */\n      dup3\n        /* \"#utility.yul\":21381:21392   */\n      gt\n        /* \"#utility.yul\":21378:21824   */\n      iszero\n      tag_426\n      jumpi\n        /* \"#utility.yul\":21423:21461   */\n      tag_427\n        /* \"#utility.yul\":21455:21460   */\n      dup2\n        /* \"#utility.yul\":21423:21461   */\n      tag_202\n      jump\t// in\n    tag_427:\n        /* \"#utility.yul\":21507:21536   */\n      tag_428\n        /* \"#utility.yul\":21525:21535   */\n      dup5\n        /* \"#utility.yul\":21507:21536   */\n      tag_203\n      jump\t// in\n    tag_428:\n        /* \"#utility.yul\":21497:21505   */\n      dup2\n        /* \"#utility.yul\":21493:21537   */\n      add\n        /* \"#utility.yul\":21690:21692   */\n      0x20\n        /* \"#utility.yul\":21678:21688   */\n      dup6\n        /* \"#utility.yul\":21675:21693   */\n      lt\n        /* \"#utility.yul\":21672:21721   */\n      iszero\n      tag_429\n      jumpi\n        /* \"#utility.yul\":21711:21719   */\n      dup2\n        /* \"#utility.yul\":21696:21719   */\n      swap1\n      pop\n        /* \"#utility.yul\":21672:21721   */\n    tag_429:\n        /* \"#utility.yul\":21734:21814   */\n      tag_430\n        /* \"#utility.yul\":21790:21812   */\n      tag_431\n        /* \"#utility.yul\":21808:21811   */\n      dup6\n        /* \"#utility.yul\":21790:21812   */\n      tag_203\n      jump\t// in\n    tag_431:\n        /* \"#utility.yul\":21780:21788   */\n      dup4\n        /* \"#utility.yul\":21776:21813   */\n      add\n        /* \"#utility.yul\":21763:21774   */\n      dup3\n        /* \"#utility.yul\":21734:21814   */\n      tag_212\n      jump\t// in\n    tag_430:\n        /* \"#utility.yul\":21393:21824   */\n      pop\n      pop\n        /* \"#utility.yul\":21378:21824   */\n    tag_426:\n        /* \"#utility.yul\":21288:21831   */\n      pop\n      pop\n      pop\n      jump\t// out\n        /* \"#utility.yul\":21837:21954   */\n    tag_214:\n        /* \"#utility.yul\":21891:21899   */\n      0x00\n        /* \"#utility.yul\":21941:21946   */\n      dup3\n        /* \"#utility.yul\":21935:21939   */\n      dup3\n        /* \"#utility.yul\":21931:21947   */\n      shr\n        /* \"#utility.yul\":21910:21947   */\n      swap1\n      pop\n        /* \"#utility.yul\":21837:21954   */\n      swap3\n      swap2\n      pop\n      pop\n      jump\t// out\n        /* \"#utility.yul\":21960:22129   */\n    tag_215:\n        /* \"#utility.yul\":22004:22010   */\n      0x00\n        /* \"#utility.yul\":22037:22088   */\n      tag_434\n        /* \"#utility.yul\":22085:22086   */\n      0x00\n        /* \"#utility.yul\":22081:22087   */\n      not\n        /* \"#utility.yul\":22073:22078   */\n      dup5\n        /* \"#utility.yul\":22070:22071   */\n      0x08\n        /* \"#utility.yul\":22066:22079   */\n      mul\n        /* \"#utility.yul\":22037:22088   */\n      tag_214\n      jump\t// in\n    tag_434:\n        /* \"#utility.yul\":22033:22089   */\n      not\n        /* \"#utility.yul\":22118:22122   */\n      dup1\n        /* \"#utility.yul\":22112:22116   */\n      dup4\n        /* \"#utility.yul\":22108:22123   */\n      and\n        /* \"#utility.yul\":22098:22123   */\n      swap2\n      pop\n        /* \"#utility.yul\":22011:22129   */\n      pop\n        /* \"#utility.yul\":21960:22129   */\n      swap3\n      swap2\n      pop\n      pop\n      jump\t// out\n        /* \"#utility.yul\":22134:22429   */\n    tag_216:\n        /* \"#utility.yul\":22210:22214   */\n      0x00\n        /* \"#utility.yul\":22356:22385   */\n      tag_436\n        /* \"#utility.yul\":22381:22384   */\n      dup4\n        /* \"#utility.yul\":22375:22379   */\n      dup4\n        /* \"#utility.yul\":22356:22385   */\n      tag_215\n      jump\t// in\n    tag_436:\n        /* \"#utility.yul\":22348:22385   */\n      swap2\n      pop\n        /* \"#utility.yul\":22418:22421   */\n      dup3\n        /* \"#utility.yul\":22415:22416   */\n      0x02\n        /* \"#utility.yul\":22411:22422   */\n      mul\n        /* \"#utility.yul\":22405:22409   */\n      dup3\n        /* \"#utility.yul\":22402:22423   */\n      or\n        /* \"#utility.yul\":22394:22423   */\n      swap1\n      pop\n        /* \"#utility.yul\":22134:22429   */\n      swap3\n      swap2\n      pop\n      pop\n      jump\t// out\n        /* \"#utility.yul\":22434:23829   */\n    tag_116:\n        /* \"#utility.yul\":22551:22588   */\n      tag_438\n        /* \"#utility.yul\":22584:22587   */\n      dup3\n        /* \"#utility.yul\":22551:22588   */\n      tag_160\n      jump\t// in\n    tag_438:\n        /* \"#utility.yul\":22653:22671   */\n      0xffffffffffffffff\n        /* \"#utility.yul\":22645:22651   */\n      dup2\n        /* \"#utility.yul\":22642:22672   */\n      gt\n        /* \"#utility.yul\":22639:22695   */\n      iszero\n      tag_439\n      jumpi\n        /* \"#utility.yul\":22675:22693   */\n      tag_440\n      tag_60\n      jump\t// in\n    tag_440:\n        /* \"#utility.yul\":22639:22695   */\n    tag_439:\n        /* \"#utility.yul\":22719:22757   */\n      tag_441\n        /* \"#utility.yul\":22751:22755   */\n      dup3\n        /* \"#utility.yul\":22745:22756   */\n      sload\n        /* \"#utility.yul\":22719:22757   */\n      tag_52\n      jump\t// in\n    tag_441:\n        /* \"#utility.yul\":22804:22871   */\n      tag_442\n        /* \"#utility.yul\":22864:22870   */\n      dup3\n        /* \"#utility.yul\":22856:22862   */\n      dup3\n        /* \"#utility.yul\":22850:22854   */\n      dup6\n        /* \"#utility.yul\":22804:22871   */\n      tag_213\n      jump\t// in\n    tag_442:\n        /* \"#utility.yul\":22898:22899   */\n      0x00\n        /* \"#utility.yul\":22922:22926   */\n      0x20\n        /* \"#utility.yul\":22909:22926   */\n      swap1\n      pop\n        /* \"#utility.yul\":22954:22956   */\n      0x1f\n        /* \"#utility.yul\":22946:22952   */\n      dup4\n        /* \"#utility.yul\":22943:22957   */\n      gt\n        /* \"#utility.yul\":22971:22972   */\n      0x01\n        /* \"#utility.yul\":22966:23584   */\n      dup2\n      eq\n      tag_444\n      jumpi\n        /* \"#utility.yul\":23628:23629   */\n      0x00\n        /* \"#utility.yul\":23645:23651   */\n      dup5\n        /* \"#utility.yul\":23642:23719   */\n      iszero\n      tag_445\n      jumpi\n        /* \"#utility.yul\":23694:23703   */\n      dup3\n        /* \"#utility.yul\":23689:23692   */\n      dup8\n        /* \"#utility.yul\":23685:23704   */\n      add\n        /* \"#utility.yul\":23679:23705   */\n      mload\n        /* \"#utility.yul\":23670:23705   */\n      swap1\n      pop\n        /* \"#utility.yul\":23642:23719   */\n    tag_445:\n        /* \"#utility.yul\":23745:23812   */\n      tag_446\n        /* \"#utility.yul\":23805:23811   */\n      dup6\n        /* \"#utility.yul\":23798:23803   */\n      dup3\n        /* \"#utility.yul\":23745:23812   */\n      tag_216\n      jump\t// in\n    tag_446:\n        /* \"#utility.yul\":23739:23743   */\n      dup7\n        /* \"#utility.yul\":23732:23813   */\n      sstore\n        /* \"#utility.yul\":23601:23823   */\n      pop\n        /* \"#utility.yul\":22936:23823   */\n      jump(tag_443)\n        /* \"#utility.yul\":22966:23584   */\n    tag_444:\n        /* \"#utility.yul\":23018:23022   */\n      0x1f\n        /* \"#utility.yul\":23014:23023   */\n      not\n        /* \"#utility.yul\":23006:23012   */\n      dup5\n        /* \"#utility.yul\":23002:23024   */\n      and\n        /* \"#utility.yul\":23052:23089   */\n      tag_447\n        /* \"#utility.yul\":23084:23088   */\n      dup7\n        /* \"#utility.yul\":23052:23089   */\n      tag_202\n      jump\t// in\n    tag_447:\n        /* \"#utility.yul\":23111:23112   */\n      0x00\n        /* \"#utility.yul\":23125:23333   */\n    tag_448:\n        /* \"#utility.yul\":23139:23146   */\n      dup3\n        /* \"#utility.yul\":23136:23137   */\n      dup2\n        /* \"#utility.yul\":23133:23147   */\n      lt\n        /* \"#utility.yul\":23125:23333   */\n      iszero\n      tag_450\n      jumpi\n        /* \"#utility.yul\":23218:23227   */\n      dup5\n        /* \"#utility.yul\":23213:23216   */\n      dup10\n        /* \"#utility.yul\":23209:23228   */\n      add\n        /* \"#utility.yul\":23203:23229   */\n      mload\n        /* \"#utility.yul\":23195:23201   */\n      dup3\n        /* \"#utility.yul\":23188:23230   */\n      sstore\n        /* \"#utility.yul\":23269:23270   */\n      0x01\n        /* \"#utility.yul\":23261:23267   */\n      dup3\n        /* \"#utility.yul\":23257:23271   */\n      add\n        /* \"#utility.yul\":23247:23271   */\n      swap2\n      pop\n        /* \"#utility.yul\":23316:23318   */\n      0x20\n        /* \"#utility.yul\":23305:23314   */\n      dup6\n        /* \"#utility.yul\":23301:23319   */\n      add\n        /* \"#utility.yul\":23288:23319   */\n      swap5\n      pop\n        /* \"#utility.yul\":23162:23166   */\n      0x20\n        /* \"#utility.yul\":23159:23160   */\n      dup2\n        /* \"#utility.yul\":23155:23167   */\n      add\n        /* \"#utility.yul\":23150:23167   */\n      swap1\n      pop\n        /* \"#utility.yul\":23125:23333   */\n      jump(tag_448)\n    tag_450:\n        /* \"#utility.yul\":23361:23367   */\n      dup7\n        /* \"#utility.yul\":23352:23359   */\n      dup4\n        /* \"#utility.yul\":23349:23368   */\n      lt\n        /* \"#utility.yul\":23346:23525   */\n      iszero\n      tag_451\n      jumpi\n        /* \"#utility.yul\":23419:23428   */\n      dup5\n        /* \"#utility.yul\":23414:23417   */\n      dup10\n        /* \"#utility.yul\":23410:23429   */\n      add\n        /* \"#utility.yul\":23404:23430   */\n      mload\n        /* \"#utility.yul\":23462:23510   */\n      tag_452\n        /* \"#utility.yul\":23504:23508   */\n      0x1f\n        /* \"#utility.yul\":23496:23502   */\n      dup10\n        /* \"#utility.yul\":23492:23509   */\n      and\n        /* \"#utility.yul\":23481:23490   */\n      dup3\n        /* \"#utility.yul\":23462:23510   */\n      tag_215\n      jump\t// in\n    tag_452:\n        /* \"#utility.yul\":23454:23460   */\n      dup4\n        /* \"#utility.yul\":23447:23511   */\n      sstore\n        /* \"#utility.yul\":23369:23525   */\n      pop\n        /* \"#utility.yul\":23346:23525   */\n    tag_451:\n        /* \"#utility.yul\":23571:23572   */\n      0x01\n        /* \"#utility.yul\":23567:23568   */\n      0x02\n        /* \"#utility.yul\":23559:23565   */\n      dup9\n        /* \"#utility.yul\":23555:23569   */\n      mul\n        /* \"#utility.yul\":23551:23573   */\n      add\n        /* \"#utility.yul\":23545:23549   */\n      dup9\n        /* \"#utility.yul\":23538:23574   */\n      sstore\n        /* \"#utility.yul\":22973:23584   */\n      pop\n      pop\n      pop\n        /* \"#utility.yul\":22936:23823   */\n    tag_443:\n      pop\n        /* \"#utility.yul\":22526:23829   */\n      pop\n      pop\n      pop\n        /* \"#utility.yul\":22434:23829   */\n      pop\n      pop\n      jump\t// out\n\n    auxdata: 0xa26469706673582212206a68ab232411f06f5693e3eb85d9fef050ed0a93c2708f167e4756b81090c1af64736f6c63430008120033\n}\n",
				"bytecode": {
					"linkReferences": {},
					"object": "608060405234801561001057600080fd5b50611868806100206000396000f3fe608060405234801561001057600080fd5b50600436106100885760003560e01c8063a0303c411161005b578063a0303c411461013e578063a5f097a61461015c578063c30d742e14610178578063e359fe041461019457610088565b806305aeeea71461008d5780630869cfbc146100bd57806318a231a9146100f0578063536ded4b1461010e575b600080fd5b6100a760048036038101906100a29190610c76565b6101b0565b6040516100b49190610ce4565b60405180910390f35b6100d760048036038101906100d29190610d2b565b6101ef565b6040516100e79493929190610df7565b60405180910390f35b6100f86102c7565b604051610105919061118f565b60405180910390f35b61012860048036038101906101239190610d2b565b6106f6565b60405161013591906111cc565b60405180910390f35b6101466107a4565b60405161015391906111e7565b60405180910390f35b61017660048036038101906101719190611202565b6107aa565b005b610192600480360381019061018d9190611377565b610816565b005b6101ae60048036038101906101a991906113e6565b610a3a565b005b600281815481106101c057600080fd5b906000526020600020016000915054906101000a900473ffffffffffffffffffffffffffffffffffffffff1681565b600060205280600052604060002060009150905080600001549080600101805461021890611471565b80601f016020809104026020016040519081016040528092919081815260200182805461024490611471565b80156102915780601f1061026657610100808354040283529160200191610291565b820191906000526020600020905b81548152906001019060200180831161027457829003601f168201915b5050505050908060020154908060030160009054906101000a900473ffffffffffffffffffffffffffffffffffffffff16905084565b6060600060015467ffffffffffffffff8111156102e7576102e661124c565b5b60405190808252806020026020018201604052801561032057816020015b61030d610ab2565b8152602001906001900390816103055790505b50905060005b6001548110156106ee5760008060028381548110610347576103466114a2565b5b9060005260206000200160009054906101000a900473ffffffffffffffffffffffffffffffffffffffff1673ffffffffffffffffffffffffffffffffffffffff1673ffffffffffffffffffffffffffffffffffffffff1681526020019081526020016000206040518060e0016040529081600082015481526020016001820180546103d190611471565b80601f01602080910402602001604051908101604052809291908181526020018280546103fd90611471565b801561044a5780601f1061041f5761010080835404028352916020019161044a565b820191906000526020600020905b81548152906001019060200180831161042d57829003601f168201915b50505050508152602001600282015481526020016003820160009054906101000a900473ffffffffffffffffffffffffffffffffffffffff1673ffffffffffffffffffffffffffffffffffffffff1673ffffffffffffffffffffffffffffffffffffffff16815260200160048201805480602002602001604051908101604052809291908181526020016000905b828210156105845783829060005260206000200180546104f790611471565b80601f016020809104026020016040519081016040528092919081815260200182805461052390611471565b80156105705780601f1061054557610100808354040283529160200191610570565b820191906000526020600020905b81548152906001019060200180831161055357829003601f168201915b5050505050815260200190600101906104d8565b505050508152602001600582018054806020026020016040519081016040528092919081815260200182805480156105db57602002820191906000526020600020905b8154815260200190600101908083116105c7575b5050505050815260200160068201805480602002602001604051908101604052809291908181526020016000905b828210156106b557838290600052602060002001805461062890611471565b80601f016020809104026020016040519081016040528092919081815260200182805461065490611471565b80156106a15780601f10610676576101008083540402835291602001916106a1565b820191906000526020600020905b81548152906001019060200180831161068457829003601f168201915b505050505081526020019060010190610609565b50505050815250508282815181106106d0576106cf6114a2565b5b602002602001018190525080806106e690611500565b915050610326565b508091505090565b600080600090505b600280549050811015610799578273ffffffffffffffffffffffffffffffffffffffff1660028281548110610736576107356114a2565b5b9060005260206000200160009054906101000a900473ffffffffffffffffffffffffffffffffffffffff1673ffffffffffffffffffffffffffffffffffffffff160361078657600091505061079f565b808061079190611500565b9150506106fe565b50600190505b919050565b60015481565b6000808273ffffffffffffffffffffffffffffffffffffffff1673ffffffffffffffffffffffffffffffffffffffff1681526020019081526020016000206005018290806001815401808255809150506001900390600052602060002001600090919091909150555050565b61081f816106f6565b61085e576040517f08c379a000000000000000000000000000000000000000000000000000000000815260040161085590611594565b60405180910390fd5b60608060606040518060e0016040528060015481526020018781526020018681526020018573ffffffffffffffffffffffffffffffffffffffff168152602001848152602001838152602001828152506000808673ffffffffffffffffffffffffffffffffffffffff1673ffffffffffffffffffffffffffffffffffffffff16815260200190815260200160002060008201518160000155602082015181600101908161090b9190611760565b506040820151816002015560608201518160030160006101000a81548173ffffffffffffffffffffffffffffffffffffffff021916908373ffffffffffffffffffffffffffffffffffffffff1602179055506080820151816004019080519060200190610979929190610b05565b5060a0820151816005019080519060200190610996929190610b5e565b5060c08201518160060190805190602001906109b3929190610b05565b509050506002849080600181540180825580915050600190039060005260206000200160009091909190916101000a81548173ffffffffffffffffffffffffffffffffffffffff021916908373ffffffffffffffffffffffffffffffffffffffff16021790555060016000815480929190610a2d90611500565b9190505550505050505050565b6000808373ffffffffffffffffffffffffffffffffffffffff1673ffffffffffffffffffffffffffffffffffffffff16815260200190815260200160002060040181908060018154018082558091505060019003906000526020600020016000909190919091509081610aad9190611760565b505050565b6040518060e00160405280600081526020016060815260200160008152602001600073ffffffffffffffffffffffffffffffffffffffff1681526020016060815260200160608152602001606081525090565b828054828255906000526020600020908101928215610b4d579160200282015b82811115610b4c578251829081610b3c9190611760565b5091602001919060010190610b25565b5b509050610b5a9190610bab565b5090565b828054828255906000526020600020908101928215610b9a579160200282015b82811115610b99578251825591602001919060010190610b7e565b5b509050610ba79190610bcf565b5090565b5b80821115610bcb5760008181610bc29190610bec565b50600101610bac565b5090565b5b80821115610be8576000816000905550600101610bd0565b5090565b508054610bf890611471565b6000825580601f10610c0a5750610c29565b601f016020900490600052602060002090810190610c289190610bcf565b5b50565b6000604051905090565b600080fd5b600080fd5b6000819050919050565b610c5381610c40565b8114610c5e57600080fd5b50565b600081359050610c7081610c4a565b92915050565b600060208284031215610c8c57610c8b610c36565b5b6000610c9a84828501610c61565b91505092915050565b600073ffffffffffffffffffffffffffffffffffffffff82169050919050565b6000610cce82610ca3565b9050919050565b610cde81610cc3565b82525050565b6000602082019050610cf96000830184610cd5565b92915050565b610d0881610cc3565b8114610d1357600080fd5b50565b600081359050610d2581610cff565b92915050565b600060208284031215610d4157610d40610c36565b5b6000610d4f84828501610d16565b91505092915050565b610d6181610c40565b82525050565b600081519050919050565b600082825260208201905092915050565b60005b83811015610da1578082015181840152602081019050610d86565b60008484015250505050565b6000601f19601f8301169050919050565b6000610dc982610d67565b610dd38185610d72565b9350610de3818560208601610d83565b610dec81610dad565b840191505092915050565b6000608082019050610e0c6000830187610d58565b8181036020830152610e1e8186610dbe565b9050610e2d6040830185610d58565b610e3a6060830184610cd5565b95945050505050565b600081519050919050565b600082825260208201905092915050565b6000819050602082019050919050565b610e7881610c40565b82525050565b600082825260208201905092915050565b6000610e9a82610d67565b610ea48185610e7e565b9350610eb4818560208601610d83565b610ebd81610dad565b840191505092915050565b610ed181610cc3565b82525050565b600081519050919050565b600082825260208201905092915050565b6000819050602082019050919050565b6000610f0f8383610e8f565b905092915050565b6000602082019050919050565b6000610f2f82610ed7565b610f398185610ee2565b935083602082028501610f4b85610ef3565b8060005b85811015610f875784840389528151610f688582610f03565b9450610f7383610f17565b925060208a01995050600181019050610f4f565b50829750879550505050505092915050565b600081519050919050565b600082825260208201905092915050565b6000819050602082019050919050565b6000610fd18383610e6f565b60208301905092915050565b6000602082019050919050565b6000610ff582610f99565b610fff8185610fa4565b935061100a83610fb5565b8060005b8381101561103b5781516110228882610fc5565b975061102d83610fdd565b92505060018101905061100e565b5085935050505092915050565b600060e0830160008301516110606000860182610e6f565b50602083015184820360208601526110788282610e8f565b915050604083015161108d6040860182610e6f565b5060608301516110a06060860182610ec8565b50608083015184820360808601526110b88282610f24565b91505060a083015184820360a08601526110d28282610fea565b91505060c083015184820360c08601526110ec8282610f24565b9150508091505092915050565b60006111058383611048565b905092915050565b6000602082019050919050565b600061112582610e43565b61112f8185610e4e565b93508360208202850161114185610e5f565b8060005b8581101561117d578484038952815161115e85826110f9565b94506111698361110d565b925060208a01995050600181019050611145565b50829750879550505050505092915050565b600060208201905081810360008301526111a9818461111a565b905092915050565b60008115159050919050565b6111c6816111b1565b82525050565b60006020820190506111e160008301846111bd565b92915050565b60006020820190506111fc6000830184610d58565b92915050565b6000806040838503121561121957611218610c36565b5b600061122785828601610c61565b925050602061123885828601610d16565b9150509250929050565b600080fd5b600080fd5b7f4e487b7100000000000000000000000000000000000000000000000000000000600052604160045260246000fd5b61128482610dad565b810181811067ffffffffffffffff821117156112a3576112a261124c565b5b80604052505050565b60006112b6610c2c565b90506112c2828261127b565b919050565b600067ffffffffffffffff8211156112e2576112e161124c565b5b6112eb82610dad565b9050602081019050919050565b82818337600083830152505050565b600061131a611315846112c7565b6112ac565b90508281526020810184848401111561133657611335611247565b5b6113418482856112f8565b509392505050565b600082601f83011261135e5761135d611242565b5b813561136e848260208601611307565b91505092915050565b6000806000606084860312156113905761138f610c36565b5b600084013567ffffffffffffffff8111156113ae576113ad610c3b565b5b6113ba86828701611349565b93505060206113cb86828701610c61565b92505060406113dc86828701610d16565b9150509250925092565b600080604083850312156113fd576113fc610c36565b5b600061140b85828601610d16565b925050602083013567ffffffffffffffff81111561142c5761142b610c3b565b5b61143885828601611349565b9150509250929050565b7f4e487b7100000000000000000000000000000000000000000000000000000000600052602260045260246000fd5b6000600282049050600182168061148957607f821691505b60208210810361149c5761149b611442565b5b50919050565b7f4e487b7100000000000000000000000000000000000000000000000000000000600052603260045260246000fd5b7f4e487b7100000000000000000000000000000000000000000000000000000000600052601160045260246000fd5b600061150b82610c40565b91507fffffffffffffffffffffffffffffffffffffffffffffffffffffffffffffffff820361153d5761153c6114d1565b5b600182019050919050565b7f50617469656e7420616c72656164792065786973747300000000000000000000600082015250565b600061157e601683610d72565b915061158982611548565b602082019050919050565b600060208201905081810360008301526115ad81611571565b9050919050565b60008190508160005260206000209050919050565b60006020601f8301049050919050565b600082821b905092915050565b6000600883026116167fffffffffffffffffffffffffffffffffffffffffffffffffffffffffffffffff826115d9565b61162086836115d9565b95508019841693508086168417925050509392505050565b6000819050919050565b600061165d61165861165384610c40565b611638565b610c40565b9050919050565b6000819050919050565b61167783611642565b61168b61168382611664565b8484546115e6565b825550505050565b600090565b6116a0611693565b6116ab81848461166e565b505050565b5b818110156116cf576116c4600082611698565b6001810190506116b1565b5050565b601f821115611714576116e5816115b4565b6116ee846115c9565b810160208510156116fd578190505b611711611709856115c9565b8301826116b0565b50505b505050565b600082821c905092915050565b600061173760001984600802611719565b1980831691505092915050565b60006117508383611726565b9150826002028217905092915050565b61176982610d67565b67ffffffffffffffff8111156117825761178161124c565b5b61178c8254611471565b6117978282856116d3565b600060209050601f8311600181146117ca57600084156117b8578287015190505b6117c28582611744565b86555061182a565b601f1984166117d8866115b4565b60005b82811015611800578489015182556001820191506020850194506020810190506117db565b8683101561181d5784890151611819601f891682611726565b8355505b6001600288020188555050505b50505050505056fea26469706673582212206a68ab232411f06f5693e3eb85d9fef050ed0a93c2708f167e4756b81090c1af64736f6c63430008120033",
					"opcodes": "PUSH1 0x80 PUSH1 0x40 MSTORE CALLVALUE DUP1 ISZERO PUSH2 0x10 JUMPI PUSH1 0x0 DUP1 REVERT JUMPDEST POP PUSH2 0x1868 DUP1 PUSH2 0x20 PUSH1 0x0 CODECOPY PUSH1 0x0 RETURN INVALID PUSH1 0x80 PUSH1 0x40 MSTORE CALLVALUE DUP1 ISZERO PUSH2 0x10 JUMPI PUSH1 0x0 DUP1 REVERT JUMPDEST POP PUSH1 0x4 CALLDATASIZE LT PUSH2 0x88 JUMPI PUSH1 0x0 CALLDATALOAD PUSH1 0xE0 SHR DUP1 PUSH4 0xA0303C41 GT PUSH2 0x5B JUMPI DUP1 PUSH4 0xA0303C41 EQ PUSH2 0x13E JUMPI DUP1 PUSH4 0xA5F097A6 EQ PUSH2 0x15C JUMPI DUP1 PUSH4 0xC30D742E EQ PUSH2 0x178 JUMPI DUP1 PUSH4 0xE359FE04 EQ PUSH2 0x194 JUMPI PUSH2 0x88 JUMP JUMPDEST DUP1 PUSH4 0x5AEEEA7 EQ PUSH2 0x8D JUMPI DUP1 PUSH4 0x869CFBC EQ PUSH2 0xBD JUMPI DUP1 PUSH4 0x18A231A9 EQ PUSH2 0xF0 JUMPI DUP1 PUSH4 0x536DED4B EQ PUSH2 0x10E JUMPI JUMPDEST PUSH1 0x0 DUP1 REVERT JUMPDEST PUSH2 0xA7 PUSH1 0x4 DUP1 CALLDATASIZE SUB DUP2 ADD SWAP1 PUSH2 0xA2 SWAP2 SWAP1 PUSH2 0xC76 JUMP JUMPDEST PUSH2 0x1B0 JUMP JUMPDEST PUSH1 0x40 MLOAD PUSH2 0xB4 SWAP2 SWAP1 PUSH2 0xCE4 JUMP JUMPDEST PUSH1 0x40 MLOAD DUP1 SWAP2 SUB SWAP1 RETURN JUMPDEST PUSH2 0xD7 PUSH1 0x4 DUP1 CALLDATASIZE SUB DUP2 ADD SWAP1 PUSH2 0xD2 SWAP2 SWAP1 PUSH2 0xD2B JUMP JUMPDEST PUSH2 0x1EF JUMP JUMPDEST PUSH1 0x40 MLOAD PUSH2 0xE7 SWAP5 SWAP4 SWAP3 SWAP2 SWAP1 PUSH2 0xDF7 JUMP JUMPDEST PUSH1 0x40 MLOAD DUP1 SWAP2 SUB SWAP1 RETURN JUMPDEST PUSH2 0xF8 PUSH2 0x2C7 JUMP JUMPDEST PUSH1 0x40 MLOAD PUSH2 0x105 SWAP2 SWAP1 PUSH2 0x118F JUMP JUMPDEST PUSH1 0x40 MLOAD DUP1 SWAP2 SUB SWAP1 RETURN JUMPDEST PUSH2 0x128 PUSH1 0x4 DUP1 CALLDATASIZE SUB DUP2 ADD SWAP1 PUSH2 0x123 SWAP2 SWAP1 PUSH2 0xD2B JUMP JUMPDEST PUSH2 0x6F6 JUMP JUMPDEST PUSH1 0x40 MLOAD PUSH2 0x135 SWAP2 SWAP1 PUSH2 0x11CC JUMP JUMPDEST PUSH1 0x40 MLOAD DUP1 SWAP2 SUB SWAP1 RETURN JUMPDEST PUSH2 0x146 PUSH2 0x7A4 JUMP JUMPDEST PUSH1 0x40 MLOAD PUSH2 0x153 SWAP2 SWAP1 PUSH2 0x11E7 JUMP JUMPDEST PUSH1 0x40 MLOAD DUP1 SWAP2 SUB SWAP1 RETURN JUMPDEST PUSH2 0x176 PUSH1 0x4 DUP1 CALLDATASIZE SUB DUP2 ADD SWAP1 PUSH2 0x171 SWAP2 SWAP1 PUSH2 0x1202 JUMP JUMPDEST PUSH2 0x7AA JUMP JUMPDEST STOP JUMPDEST PUSH2 0x192 PUSH1 0x4 DUP1 CALLDATASIZE SUB DUP2 ADD SWAP1 PUSH2 0x18D SWAP2 SWAP1 PUSH2 0x1377 JUMP JUMPDEST PUSH2 0x816 JUMP JUMPDEST STOP JUMPDEST PUSH2 0x1AE PUSH1 0x4 DUP1 CALLDATASIZE SUB DUP2 ADD SWAP1 PUSH2 0x1A9 SWAP2 SWAP1 PUSH2 0x13E6 JUMP JUMPDEST PUSH2 0xA3A JUMP JUMPDEST STOP JUMPDEST PUSH1 0x2 DUP2 DUP2 SLOAD DUP2 LT PUSH2 0x1C0 JUMPI PUSH1 0x0 DUP1 REVERT JUMPDEST SWAP1 PUSH1 0x0 MSTORE PUSH1 0x20 PUSH1 0x0 KECCAK256 ADD PUSH1 0x0 SWAP2 POP SLOAD SWAP1 PUSH2 0x100 EXP SWAP1 DIV PUSH20 0xFFFFFFFFFFFFFFFFFFFFFFFFFFFFFFFFFFFFFFFF AND DUP2 JUMP JUMPDEST PUSH1 0x0 PUSH1 0x20 MSTORE DUP1 PUSH1 0x0 MSTORE PUSH1 0x40 PUSH1 0x0 KECCAK256 PUSH1 0x0 SWAP2 POP SWAP1 POP DUP1 PUSH1 0x0 ADD SLOAD SWAP1 DUP1 PUSH1 0x1 ADD DUP1 SLOAD PUSH2 0x218 SWAP1 PUSH2 0x1471 JUMP JUMPDEST DUP1 PUSH1 0x1F ADD PUSH1 0x20 DUP1 SWAP2 DIV MUL PUSH1 0x20 ADD PUSH1 0x40 MLOAD SWAP1 DUP2 ADD PUSH1 0x40 MSTORE DUP1 SWAP3 SWAP2 SWAP1 DUP2 DUP2 MSTORE PUSH1 0x20 ADD DUP3 DUP1 SLOAD PUSH2 0x244 SWAP1 PUSH2 0x1471 JUMP JUMPDEST DUP1 ISZERO PUSH2 0x291 JUMPI DUP1 PUSH1 0x1F LT PUSH2 0x266 JUMPI PUSH2 0x100 DUP1 DUP4 SLOAD DIV MUL DUP4 MSTORE SWAP2 PUSH1 0x20 ADD SWAP2 PUSH2 0x291 JUMP JUMPDEST DUP3 ADD SWAP2 SWAP1 PUSH1 0x0 MSTORE PUSH1 0x20 PUSH1 0x0 KECCAK256 SWAP1 JUMPDEST DUP2 SLOAD DUP2 MSTORE SWAP1 PUSH1 0x1 ADD SWAP1 PUSH1 0x20 ADD DUP1 DUP4 GT PUSH2 0x274 JUMPI DUP3 SWAP1 SUB PUSH1 0x1F AND DUP3 ADD SWAP2 JUMPDEST POP POP POP POP POP SWAP1 DUP1 PUSH1 0x2 ADD SLOAD SWAP1 DUP1 PUSH1 0x3 ADD PUSH1 0x0 SWAP1 SLOAD SWAP1 PUSH2 0x100 EXP SWAP1 DIV PUSH20 0xFFFFFFFFFFFFFFFFFFFFFFFFFFFFFFFFFFFFFFFF AND SWAP1 POP DUP5 JUMP JUMPDEST PUSH1 0x60 PUSH1 0x0 PUSH1 0x1 SLOAD PUSH8 0xFFFFFFFFFFFFFFFF DUP2 GT ISZERO PUSH2 0x2E7 JUMPI PUSH2 0x2E6 PUSH2 0x124C JUMP JUMPDEST JUMPDEST PUSH1 0x40 MLOAD SWAP1 DUP1 DUP3 MSTORE DUP1 PUSH1 0x20 MUL PUSH1 0x20 ADD DUP3 ADD PUSH1 0x40 MSTORE DUP1 ISZERO PUSH2 0x320 JUMPI DUP2 PUSH1 0x20 ADD JUMPDEST PUSH2 0x30D PUSH2 0xAB2 JUMP JUMPDEST DUP2 MSTORE PUSH1 0x20 ADD SWAP1 PUSH1 0x1 SWAP1 SUB SWAP1 DUP2 PUSH2 0x305 JUMPI SWAP1 POP JUMPDEST POP SWAP1 POP PUSH1 0x0 JUMPDEST PUSH1 0x1 SLOAD DUP2 LT ISZERO PUSH2 0x6EE JUMPI PUSH1 0x0 DUP1 PUSH1 0x2 DUP4 DUP2 SLOAD DUP2 LT PUSH2 0x347 JUMPI PUSH2 0x346 PUSH2 0x14A2 JUMP JUMPDEST JUMPDEST SWAP1 PUSH1 0x0 MSTORE PUSH1 0x20 PUSH1 0x0 KECCAK256 ADD PUSH1 0x0 SWAP1 SLOAD SWAP1 PUSH2 0x100 EXP SWAP1 DIV PUSH20 0xFFFFFFFFFFFFFFFFFFFFFFFFFFFFFFFFFFFFFFFF AND PUSH20 0xFFFFFFFFFFFFFFFFFFFFFFFFFFFFFFFFFFFFFFFF AND PUSH20 0xFFFFFFFFFFFFFFFFFFFFFFFFFFFFFFFFFFFFFFFF AND DUP2 MSTORE PUSH1 0x20 ADD SWAP1 DUP2 MSTORE PUSH1 0x20 ADD PUSH1 0x0 KECCAK256 PUSH1 0x40 MLOAD DUP1 PUSH1 0xE0 ADD PUSH1 0x40 MSTORE SWAP1 DUP2 PUSH1 0x0 DUP3 ADD SLOAD DUP2 MSTORE PUSH1 0x20 ADD PUSH1 0x1 DUP3 ADD DUP1 SLOAD PUSH2 0x3D1 SWAP1 PUSH2 0x1471 JUMP JUMPDEST DUP1 PUSH1 0x1F ADD PUSH1 0x20 DUP1 SWAP2 DIV MUL PUSH1 0x20 ADD PUSH1 0x40 MLOAD SWAP1 DUP2 ADD PUSH1 0x40 MSTORE DUP1 SWAP3 SWAP2 SWAP1 DUP2 DUP2 MSTORE PUSH1 0x20 ADD DUP3 DUP1 SLOAD PUSH2 0x3FD SWAP1 PUSH2 0x1471 JUMP JUMPDEST DUP1 ISZERO PUSH2 0x44A JUMPI DUP1 PUSH1 0x1F LT PUSH2 0x41F JUMPI PUSH2 0x100 DUP1 DUP4 SLOAD DIV MUL DUP4 MSTORE SWAP2 PUSH1 0x20 ADD SWAP2 PUSH2 0x44A JUMP JUMPDEST DUP3 ADD SWAP2 SWAP1 PUSH1 0x0 MSTORE PUSH1 0x20 PUSH1 0x0 KECCAK256 SWAP1 JUMPDEST DUP2 SLOAD DUP2 MSTORE SWAP1 PUSH1 0x1 ADD SWAP1 PUSH1 0x20 ADD DUP1 DUP4 GT PUSH2 0x42D JUMPI DUP3 SWAP1 SUB PUSH1 0x1F AND DUP3 ADD SWAP2 JUMPDEST POP POP POP POP POP DUP2 MSTORE PUSH1 0x20 ADD PUSH1 0x2 DUP3 ADD SLOAD DUP2 MSTORE PUSH1 0x20 ADD PUSH1 0x3 DUP3 ADD PUSH1 0x0 SWAP1 SLOAD SWAP1 PUSH2 0x100 EXP SWAP1 DIV PUSH20 0xFFFFFFFFFFFFFFFFFFFFFFFFFFFFFFFFFFFFFFFF AND PUSH20 0xFFFFFFFFFFFFFFFFFFFFFFFFFFFFFFFFFFFFFFFF AND PUSH20 0xFFFFFFFFFFFFFFFFFFFFFFFFFFFFFFFFFFFFFFFF AND DUP2 MSTORE PUSH1 0x20 ADD PUSH1 0x4 DUP3 ADD DUP1 SLOAD DUP1 PUSH1 0x20 MUL PUSH1 0x20 ADD PUSH1 0x40 MLOAD SWAP1 DUP2 ADD PUSH1 0x40 MSTORE DUP1 SWAP3 SWAP2 SWAP1 DUP2 DUP2 MSTORE PUSH1 0x20 ADD PUSH1 0x0 SWAP1 JUMPDEST DUP3 DUP3 LT ISZERO PUSH2 0x584 JUMPI DUP4 DUP3 SWAP1 PUSH1 0x0 MSTORE PUSH1 0x20 PUSH1 0x0 KECCAK256 ADD DUP1 SLOAD PUSH2 0x4F7 SWAP1 PUSH2 0x1471 JUMP JUMPDEST DUP1 PUSH1 0x1F ADD PUSH1 0x20 DUP1 SWAP2 DIV MUL PUSH1 0x20 ADD PUSH1 0x40 MLOAD SWAP1 DUP2 ADD PUSH1 0x40 MSTORE DUP1 SWAP3 SWAP2 SWAP1 DUP2 DUP2 MSTORE PUSH1 0x20 ADD DUP3 DUP1 SLOAD PUSH2 0x523 SWAP1 PUSH2 0x1471 JUMP JUMPDEST DUP1 ISZERO PUSH2 0x570 JUMPI DUP1 PUSH1 0x1F LT PUSH2 0x545 JUMPI PUSH2 0x100 DUP1 DUP4 SLOAD DIV MUL DUP4 MSTORE SWAP2 PUSH1 0x20 ADD SWAP2 PUSH2 0x570 JUMP JUMPDEST DUP3 ADD SWAP2 SWAP1 PUSH1 0x0 MSTORE PUSH1 0x20 PUSH1 0x0 KECCAK256 SWAP1 JUMPDEST DUP2 SLOAD DUP2 MSTORE SWAP1 PUSH1 0x1 ADD SWAP1 PUSH1 0x20 ADD DUP1 DUP4 GT PUSH2 0x553 JUMPI DUP3 SWAP1 SUB PUSH1 0x1F AND DUP3 ADD SWAP2 JUMPDEST POP POP POP POP POP DUP2 MSTORE PUSH1 0x20 ADD SWAP1 PUSH1 0x1 ADD SWAP1 PUSH2 0x4D8 JUMP JUMPDEST POP POP POP POP DUP2 MSTORE PUSH1 0x20 ADD PUSH1 0x5 DUP3 ADD DUP1 SLOAD DUP1 PUSH1 0x20 MUL PUSH1 0x20 ADD PUSH1 0x40 MLOAD SWAP1 DUP2 ADD PUSH1 0x40 MSTORE DUP1 SWAP3 SWAP2 SWAP1 DUP2 DUP2 MSTORE PUSH1 0x20 ADD DUP3 DUP1 SLOAD DUP1 ISZERO PUSH2 0x5DB JUMPI PUSH1 0x20 MUL DUP3 ADD SWAP2 SWAP1 PUSH1 0x0 MSTORE PUSH1 0x20 PUSH1 0x0 KECCAK256 SWAP1 JUMPDEST DUP2 SLOAD DUP2 MSTORE PUSH1 0x20 ADD SWAP1 PUSH1 0x1 ADD SWAP1 DUP1 DUP4 GT PUSH2 0x5C7 JUMPI JUMPDEST POP POP POP POP POP DUP2 MSTORE PUSH1 0x20 ADD PUSH1 0x6 DUP3 ADD DUP1 SLOAD DUP1 PUSH1 0x20 MUL PUSH1 0x20 ADD PUSH1 0x40 MLOAD SWAP1 DUP2 ADD PUSH1 0x40 MSTORE DUP1 SWAP3 SWAP2 SWAP1 DUP2 DUP2 MSTORE PUSH1 0x20 ADD PUSH1 0x0 SWAP1 JUMPDEST DUP3 DUP3 LT ISZERO PUSH2 0x6B5 JUMPI DUP4 DUP3 SWAP1 PUSH1 0x0 MSTORE PUSH1 0x20 PUSH1 0x0 KECCAK256 ADD DUP1 SLOAD PUSH2 0x628 SWAP1 PUSH2 0x1471 JUMP JUMPDEST DUP1 PUSH1 0x1F ADD PUSH1 0x20 DUP1 SWAP2 DIV MUL PUSH1 0x20 ADD PUSH1 0x40 MLOAD SWAP1 DUP2 ADD PUSH1 0x40 MSTORE DUP1 SWAP3 SWAP2 SWAP1 DUP2 DUP2 MSTORE PUSH1 0x20 ADD DUP3 DUP1 SLOAD PUSH2 0x654 SWAP1 PUSH2 0x1471 JUMP JUMPDEST DUP1 ISZERO PUSH2 0x6A1 JUMPI DUP1 PUSH1 0x1F LT PUSH2 0x676 JUMPI PUSH2 0x100 DUP1 DUP4 SLOAD DIV MUL DUP4 MSTORE SWAP2 PUSH1 0x20 ADD SWAP2 PUSH2 0x6A1 JUMP JUMPDEST DUP3 ADD SWAP2 SWAP1 PUSH1 0x0 MSTORE PUSH1 0x20 PUSH1 0x0 KECCAK256 SWAP1 JUMPDEST DUP2 SLOAD DUP2 MSTORE SWAP1 PUSH1 0x1 ADD SWAP1 PUSH1 0x20 ADD DUP1 DUP4 GT PUSH2 0x684 JUMPI DUP3 SWAP1 SUB PUSH1 0x1F AND DUP3 ADD SWAP2 JUMPDEST POP POP POP POP POP DUP2 MSTORE PUSH1 0x20 ADD SWAP1 PUSH1 0x1 ADD SWAP1 PUSH2 0x609 JUMP JUMPDEST POP POP POP POP DUP2 MSTORE POP POP DUP3 DUP3 DUP2 MLOAD DUP2 LT PUSH2 0x6D0 JUMPI PUSH2 0x6CF PUSH2 0x14A2 JUMP JUMPDEST JUMPDEST PUSH1 0x20 MUL PUSH1 0x20 ADD ADD DUP2 SWAP1 MSTORE POP DUP1 DUP1 PUSH2 0x6E6 SWAP1 PUSH2 0x1500 JUMP JUMPDEST SWAP2 POP POP PUSH2 0x326 JUMP JUMPDEST POP DUP1 SWAP2 POP POP SWAP1 JUMP JUMPDEST PUSH1 0x0 DUP1 PUSH1 0x0 SWAP1 POP JUMPDEST PUSH1 0x2 DUP1 SLOAD SWAP1 POP DUP2 LT ISZERO PUSH2 0x799 JUMPI DUP3 PUSH20 0xFFFFFFFFFFFFFFFFFFFFFFFFFFFFFFFFFFFFFFFF AND PUSH1 0x2 DUP3 DUP2 SLOAD DUP2 LT PUSH2 0x736 JUMPI PUSH2 0x735 PUSH2 0x14A2 JUMP JUMPDEST JUMPDEST SWAP1 PUSH1 0x0 MSTORE PUSH1 0x20 PUSH1 0x0 KECCAK256 ADD PUSH1 0x0 SWAP1 SLOAD SWAP1 PUSH2 0x100 EXP SWAP1 DIV PUSH20 0xFFFFFFFFFFFFFFFFFFFFFFFFFFFFFFFFFFFFFFFF AND PUSH20 0xFFFFFFFFFFFFFFFFFFFFFFFFFFFFFFFFFFFFFFFF AND SUB PUSH2 0x786 JUMPI PUSH1 0x0 SWAP2 POP POP PUSH2 0x79F JUMP JUMPDEST DUP1 DUP1 PUSH2 0x791 SWAP1 PUSH2 0x1500 JUMP JUMPDEST SWAP2 POP POP PUSH2 0x6FE JUMP JUMPDEST POP PUSH1 0x1 SWAP1 POP JUMPDEST SWAP2 SWAP1 POP JUMP JUMPDEST PUSH1 0x1 SLOAD DUP2 JUMP JUMPDEST PUSH1 0x0 DUP1 DUP3 PUSH20 0xFFFFFFFFFFFFFFFFFFFFFFFFFFFFFFFFFFFFFFFF AND PUSH20 0xFFFFFFFFFFFFFFFFFFFFFFFFFFFFFFFFFFFFFFFF AND DUP2 MSTORE PUSH1 0x20 ADD SWAP1 DUP2 MSTORE PUSH1 0x20 ADD PUSH1 0x0 KECCAK256 PUSH1 0x5 ADD DUP3 SWAP1 DUP1 PUSH1 0x1 DUP2 SLOAD ADD DUP1 DUP3 SSTORE DUP1 SWAP2 POP POP PUSH1 0x1 SWAP1 SUB SWAP1 PUSH1 0x0 MSTORE PUSH1 0x20 PUSH1 0x0 KECCAK256 ADD PUSH1 0x0 SWAP1 SWAP2 SWAP1 SWAP2 SWAP1 SWAP2 POP SSTORE POP POP JUMP JUMPDEST PUSH2 0x81F DUP2 PUSH2 0x6F6 JUMP JUMPDEST PUSH2 0x85E JUMPI PUSH1 0x40 MLOAD PUSH32 0x8C379A000000000000000000000000000000000000000000000000000000000 DUP2 MSTORE PUSH1 0x4 ADD PUSH2 0x855 SWAP1 PUSH2 0x1594 JUMP JUMPDEST PUSH1 0x40 MLOAD DUP1 SWAP2 SUB SWAP1 REVERT JUMPDEST PUSH1 0x60 DUP1 PUSH1 0x60 PUSH1 0x40 MLOAD DUP1 PUSH1 0xE0 ADD PUSH1 0x40 MSTORE DUP1 PUSH1 0x1 SLOAD DUP2 MSTORE PUSH1 0x20 ADD DUP8 DUP2 MSTORE PUSH1 0x20 ADD DUP7 DUP2 MSTORE PUSH1 0x20 ADD DUP6 PUSH20 0xFFFFFFFFFFFFFFFFFFFFFFFFFFFFFFFFFFFFFFFF AND DUP2 MSTORE PUSH1 0x20 ADD DUP5 DUP2 MSTORE PUSH1 0x20 ADD DUP4 DUP2 MSTORE PUSH1 0x20 ADD DUP3 DUP2 MSTORE POP PUSH1 0x0 DUP1 DUP7 PUSH20 0xFFFFFFFFFFFFFFFFFFFFFFFFFFFFFFFFFFFFFFFF AND PUSH20 0xFFFFFFFFFFFFFFFFFFFFFFFFFFFFFFFFFFFFFFFF AND DUP2 MSTORE PUSH1 0x20 ADD SWAP1 DUP2 MSTORE PUSH1 0x20 ADD PUSH1 0x0 KECCAK256 PUSH1 0x0 DUP3 ADD MLOAD DUP2 PUSH1 0x0 ADD SSTORE PUSH1 0x20 DUP3 ADD MLOAD DUP2 PUSH1 0x1 ADD SWAP1 DUP2 PUSH2 0x90B SWAP2 SWAP1 PUSH2 0x1760 JUMP JUMPDEST POP PUSH1 0x40 DUP3 ADD MLOAD DUP2 PUSH1 0x2 ADD SSTORE PUSH1 0x60 DUP3 ADD MLOAD DUP2 PUSH1 0x3 ADD PUSH1 0x0 PUSH2 0x100 EXP DUP2 SLOAD DUP2 PUSH20 0xFFFFFFFFFFFFFFFFFFFFFFFFFFFFFFFFFFFFFFFF MUL NOT AND SWAP1 DUP4 PUSH20 0xFFFFFFFFFFFFFFFFFFFFFFFFFFFFFFFFFFFFFFFF AND MUL OR SWAP1 SSTORE POP PUSH1 0x80 DUP3 ADD MLOAD DUP2 PUSH1 0x4 ADD SWAP1 DUP1 MLOAD SWAP1 PUSH1 0x20 ADD SWAP1 PUSH2 0x979 SWAP3 SWAP2 SWAP1 PUSH2 0xB05 JUMP JUMPDEST POP PUSH1 0xA0 DUP3 ADD MLOAD DUP2 PUSH1 0x5 ADD SWAP1 DUP1 MLOAD SWAP1 PUSH1 0x20 ADD SWAP1 PUSH2 0x996 SWAP3 SWAP2 SWAP1 PUSH2 0xB5E JUMP JUMPDEST POP PUSH1 0xC0 DUP3 ADD MLOAD DUP2 PUSH1 0x6 ADD SWAP1 DUP1 MLOAD SWAP1 PUSH1 0x20 ADD SWAP1 PUSH2 0x9B3 SWAP3 SWAP2 SWAP1 PUSH2 0xB05 JUMP JUMPDEST POP SWAP1 POP POP PUSH1 0x2 DUP5 SWAP1 DUP1 PUSH1 0x1 DUP2 SLOAD ADD DUP1 DUP3 SSTORE DUP1 SWAP2 POP POP PUSH1 0x1 SWAP1 SUB SWAP1 PUSH1 0x0 MSTORE PUSH1 0x20 PUSH1 0x0 KECCAK256 ADD PUSH1 0x0 SWAP1 SWAP2 SWAP1 SWAP2 SWAP1 SWAP2 PUSH2 0x100 EXP DUP2 SLOAD DUP2 PUSH20 0xFFFFFFFFFFFFFFFFFFFFFFFFFFFFFFFFFFFFFFFF MUL NOT AND SWAP1 DUP4 PUSH20 0xFFFFFFFFFFFFFFFFFFFFFFFFFFFFFFFFFFFFFFFF AND MUL OR SWAP1 SSTORE POP PUSH1 0x1 PUSH1 0x0 DUP2 SLOAD DUP1 SWAP3 SWAP2 SWAP1 PUSH2 0xA2D SWAP1 PUSH2 0x1500 JUMP JUMPDEST SWAP2 SWAP1 POP SSTORE POP POP POP POP POP POP POP JUMP JUMPDEST PUSH1 0x0 DUP1 DUP4 PUSH20 0xFFFFFFFFFFFFFFFFFFFFFFFFFFFFFFFFFFFFFFFF AND PUSH20 0xFFFFFFFFFFFFFFFFFFFFFFFFFFFFFFFFFFFFFFFF AND DUP2 MSTORE PUSH1 0x20 ADD SWAP1 DUP2 MSTORE PUSH1 0x20 ADD PUSH1 0x0 KECCAK256 PUSH1 0x4 ADD DUP2 SWAP1 DUP1 PUSH1 0x1 DUP2 SLOAD ADD DUP1 DUP3 SSTORE DUP1 SWAP2 POP POP PUSH1 0x1 SWAP1 SUB SWAP1 PUSH1 0x0 MSTORE PUSH1 0x20 PUSH1 0x0 KECCAK256 ADD PUSH1 0x0 SWAP1 SWAP2 SWAP1 SWAP2 SWAP1 SWAP2 POP SWAP1 DUP2 PUSH2 0xAAD SWAP2 SWAP1 PUSH2 0x1760 JUMP JUMPDEST POP POP POP JUMP JUMPDEST PUSH1 0x40 MLOAD DUP1 PUSH1 0xE0 ADD PUSH1 0x40 MSTORE DUP1 PUSH1 0x0 DUP2 MSTORE PUSH1 0x20 ADD PUSH1 0x60 DUP2 MSTORE PUSH1 0x20 ADD PUSH1 0x0 DUP2 MSTORE PUSH1 0x20 ADD PUSH1 0x0 PUSH20 0xFFFFFFFFFFFFFFFFFFFFFFFFFFFFFFFFFFFFFFFF AND DUP2 MSTORE PUSH1 0x20 ADD PUSH1 0x60 DUP2 MSTORE PUSH1 0x20 ADD PUSH1 0x60 DUP2 MSTORE PUSH1 0x20 ADD PUSH1 0x60 DUP2 MSTORE POP SWAP1 JUMP JUMPDEST DUP3 DUP1 SLOAD DUP3 DUP3 SSTORE SWAP1 PUSH1 0x0 MSTORE PUSH1 0x20 PUSH1 0x0 KECCAK256 SWAP1 DUP2 ADD SWAP3 DUP3 ISZERO PUSH2 0xB4D JUMPI SWAP2 PUSH1 0x20 MUL DUP3 ADD JUMPDEST DUP3 DUP2 GT ISZERO PUSH2 0xB4C JUMPI DUP3 MLOAD DUP3 SWAP1 DUP2 PUSH2 0xB3C SWAP2 SWAP1 PUSH2 0x1760 JUMP JUMPDEST POP SWAP2 PUSH1 0x20 ADD SWAP2 SWAP1 PUSH1 0x1 ADD SWAP1 PUSH2 0xB25 JUMP JUMPDEST JUMPDEST POP SWAP1 POP PUSH2 0xB5A SWAP2 SWAP1 PUSH2 0xBAB JUMP JUMPDEST POP SWAP1 JUMP JUMPDEST DUP3 DUP1 SLOAD DUP3 DUP3 SSTORE SWAP1 PUSH1 0x0 MSTORE PUSH1 0x20 PUSH1 0x0 KECCAK256 SWAP1 DUP2 ADD SWAP3 DUP3 ISZERO PUSH2 0xB9A JUMPI SWAP2 PUSH1 0x20 MUL DUP3 ADD JUMPDEST DUP3 DUP2 GT ISZERO PUSH2 0xB99 JUMPI DUP3 MLOAD DUP3 SSTORE SWAP2 PUSH1 0x20 ADD SWAP2 SWAP1 PUSH1 0x1 ADD SWAP1 PUSH2 0xB7E JUMP JUMPDEST JUMPDEST POP SWAP1 POP PUSH2 0xBA7 SWAP2 SWAP1 PUSH2 0xBCF JUMP JUMPDEST POP SWAP1 JUMP JUMPDEST JUMPDEST DUP1 DUP3 GT ISZERO PUSH2 0xBCB JUMPI PUSH1 0x0 DUP2 DUP2 PUSH2 0xBC2 SWAP2 SWAP1 PUSH2 0xBEC JUMP JUMPDEST POP PUSH1 0x1 ADD PUSH2 0xBAC JUMP JUMPDEST POP SWAP1 JUMP JUMPDEST JUMPDEST DUP1 DUP3 GT ISZERO PUSH2 0xBE8 JUMPI PUSH1 0x0 DUP2 PUSH1 0x0 SWAP1 SSTORE POP PUSH1 0x1 ADD PUSH2 0xBD0 JUMP JUMPDEST POP SWAP1 JUMP JUMPDEST POP DUP1 SLOAD PUSH2 0xBF8 SWAP1 PUSH2 0x1471 JUMP JUMPDEST PUSH1 0x0 DUP3 SSTORE DUP1 PUSH1 0x1F LT PUSH2 0xC0A JUMPI POP PUSH2 0xC29 JUMP JUMPDEST PUSH1 0x1F ADD PUSH1 0x20 SWAP1 DIV SWAP1 PUSH1 0x0 MSTORE PUSH1 0x20 PUSH1 0x0 KECCAK256 SWAP1 DUP2 ADD SWAP1 PUSH2 0xC28 SWAP2 SWAP1 PUSH2 0xBCF JUMP JUMPDEST JUMPDEST POP JUMP JUMPDEST PUSH1 0x0 PUSH1 0x40 MLOAD SWAP1 POP SWAP1 JUMP JUMPDEST PUSH1 0x0 DUP1 REVERT JUMPDEST PUSH1 0x0 DUP1 REVERT JUMPDEST PUSH1 0x0 DUP2 SWAP1 POP SWAP2 SWAP1 POP JUMP JUMPDEST PUSH2 0xC53 DUP2 PUSH2 0xC40 JUMP JUMPDEST DUP2 EQ PUSH2 0xC5E JUMPI PUSH1 0x0 DUP1 REVERT JUMPDEST POP JUMP JUMPDEST PUSH1 0x0 DUP2 CALLDATALOAD SWAP1 POP PUSH2 0xC70 DUP2 PUSH2 0xC4A JUMP JUMPDEST SWAP3 SWAP2 POP POP JUMP JUMPDEST PUSH1 0x0 PUSH1 0x20 DUP3 DUP5 SUB SLT ISZERO PUSH2 0xC8C JUMPI PUSH2 0xC8B PUSH2 0xC36 JUMP JUMPDEST JUMPDEST PUSH1 0x0 PUSH2 0xC9A DUP5 DUP3 DUP6 ADD PUSH2 0xC61 JUMP JUMPDEST SWAP2 POP POP SWAP3 SWAP2 POP POP JUMP JUMPDEST PUSH1 0x0 PUSH20 0xFFFFFFFFFFFFFFFFFFFFFFFFFFFFFFFFFFFFFFFF DUP3 AND SWAP1 POP SWAP2 SWAP1 POP JUMP JUMPDEST PUSH1 0x0 PUSH2 0xCCE DUP3 PUSH2 0xCA3 JUMP JUMPDEST SWAP1 POP SWAP2 SWAP1 POP JUMP JUMPDEST PUSH2 0xCDE DUP2 PUSH2 0xCC3 JUMP JUMPDEST DUP3 MSTORE POP POP JUMP JUMPDEST PUSH1 0x0 PUSH1 0x20 DUP3 ADD SWAP1 POP PUSH2 0xCF9 PUSH1 0x0 DUP4 ADD DUP5 PUSH2 0xCD5 JUMP JUMPDEST SWAP3 SWAP2 POP POP JUMP JUMPDEST PUSH2 0xD08 DUP2 PUSH2 0xCC3 JUMP JUMPDEST DUP2 EQ PUSH2 0xD13 JUMPI PUSH1 0x0 DUP1 REVERT JUMPDEST POP JUMP JUMPDEST PUSH1 0x0 DUP2 CALLDATALOAD SWAP1 POP PUSH2 0xD25 DUP2 PUSH2 0xCFF JUMP JUMPDEST SWAP3 SWAP2 POP POP JUMP JUMPDEST PUSH1 0x0 PUSH1 0x20 DUP3 DUP5 SUB SLT ISZERO PUSH2 0xD41 JUMPI PUSH2 0xD40 PUSH2 0xC36 JUMP JUMPDEST JUMPDEST PUSH1 0x0 PUSH2 0xD4F DUP5 DUP3 DUP6 ADD PUSH2 0xD16 JUMP JUMPDEST SWAP2 POP POP SWAP3 SWAP2 POP POP JUMP JUMPDEST PUSH2 0xD61 DUP2 PUSH2 0xC40 JUMP JUMPDEST DUP3 MSTORE POP POP JUMP JUMPDEST PUSH1 0x0 DUP2 MLOAD SWAP1 POP SWAP2 SWAP1 POP JUMP JUMPDEST PUSH1 0x0 DUP3 DUP3 MSTORE PUSH1 0x20 DUP3 ADD SWAP1 POP SWAP3 SWAP2 POP POP JUMP JUMPDEST PUSH1 0x0 JUMPDEST DUP4 DUP2 LT ISZERO PUSH2 0xDA1 JUMPI DUP1 DUP3 ADD MLOAD DUP2 DUP5 ADD MSTORE PUSH1 0x20 DUP2 ADD SWAP1 POP PUSH2 0xD86 JUMP JUMPDEST PUSH1 0x0 DUP5 DUP5 ADD MSTORE POP POP POP POP JUMP JUMPDEST PUSH1 0x0 PUSH1 0x1F NOT PUSH1 0x1F DUP4 ADD AND SWAP1 POP SWAP2 SWAP1 POP JUMP JUMPDEST PUSH1 0x0 PUSH2 0xDC9 DUP3 PUSH2 0xD67 JUMP JUMPDEST PUSH2 0xDD3 DUP2 DUP6 PUSH2 0xD72 JUMP JUMPDEST SWAP4 POP PUSH2 0xDE3 DUP2 DUP6 PUSH1 0x20 DUP7 ADD PUSH2 0xD83 JUMP JUMPDEST PUSH2 0xDEC DUP2 PUSH2 0xDAD JUMP JUMPDEST DUP5 ADD SWAP2 POP POP SWAP3 SWAP2 POP POP JUMP JUMPDEST PUSH1 0x0 PUSH1 0x80 DUP3 ADD SWAP1 POP PUSH2 0xE0C PUSH1 0x0 DUP4 ADD DUP8 PUSH2 0xD58 JUMP JUMPDEST DUP2 DUP2 SUB PUSH1 0x20 DUP4 ADD MSTORE PUSH2 0xE1E DUP2 DUP7 PUSH2 0xDBE JUMP JUMPDEST SWAP1 POP PUSH2 0xE2D PUSH1 0x40 DUP4 ADD DUP6 PUSH2 0xD58 JUMP JUMPDEST PUSH2 0xE3A PUSH1 0x60 DUP4 ADD DUP5 PUSH2 0xCD5 JUMP JUMPDEST SWAP6 SWAP5 POP POP POP POP POP JUMP JUMPDEST PUSH1 0x0 DUP2 MLOAD SWAP1 POP SWAP2 SWAP1 POP JUMP JUMPDEST PUSH1 0x0 DUP3 DUP3 MSTORE PUSH1 0x20 DUP3 ADD SWAP1 POP SWAP3 SWAP2 POP POP JUMP JUMPDEST PUSH1 0x0 DUP2 SWAP1 POP PUSH1 0x20 DUP3 ADD SWAP1 POP SWAP2 SWAP1 POP JUMP JUMPDEST PUSH2 0xE78 DUP2 PUSH2 0xC40 JUMP JUMPDEST DUP3 MSTORE POP POP JUMP JUMPDEST PUSH1 0x0 DUP3 DUP3 MSTORE PUSH1 0x20 DUP3 ADD SWAP1 POP SWAP3 SWAP2 POP POP JUMP JUMPDEST PUSH1 0x0 PUSH2 0xE9A DUP3 PUSH2 0xD67 JUMP JUMPDEST PUSH2 0xEA4 DUP2 DUP6 PUSH2 0xE7E JUMP JUMPDEST SWAP4 POP PUSH2 0xEB4 DUP2 DUP6 PUSH1 0x20 DUP7 ADD PUSH2 0xD83 JUMP JUMPDEST PUSH2 0xEBD DUP2 PUSH2 0xDAD JUMP JUMPDEST DUP5 ADD SWAP2 POP POP SWAP3 SWAP2 POP POP JUMP JUMPDEST PUSH2 0xED1 DUP2 PUSH2 0xCC3 JUMP JUMPDEST DUP3 MSTORE POP POP JUMP JUMPDEST PUSH1 0x0 DUP2 MLOAD SWAP1 POP SWAP2 SWAP1 POP JUMP JUMPDEST PUSH1 0x0 DUP3 DUP3 MSTORE PUSH1 0x20 DUP3 ADD SWAP1 POP SWAP3 SWAP2 POP POP JUMP JUMPDEST PUSH1 0x0 DUP2 SWAP1 POP PUSH1 0x20 DUP3 ADD SWAP1 POP SWAP2 SWAP1 POP JUMP JUMPDEST PUSH1 0x0 PUSH2 0xF0F DUP4 DUP4 PUSH2 0xE8F JUMP JUMPDEST SWAP1 POP SWAP3 SWAP2 POP POP JUMP JUMPDEST PUSH1 0x0 PUSH1 0x20 DUP3 ADD SWAP1 POP SWAP2 SWAP1 POP JUMP JUMPDEST PUSH1 0x0 PUSH2 0xF2F DUP3 PUSH2 0xED7 JUMP JUMPDEST PUSH2 0xF39 DUP2 DUP6 PUSH2 0xEE2 JUMP JUMPDEST SWAP4 POP DUP4 PUSH1 0x20 DUP3 MUL DUP6 ADD PUSH2 0xF4B DUP6 PUSH2 0xEF3 JUMP JUMPDEST DUP1 PUSH1 0x0 JUMPDEST DUP6 DUP2 LT ISZERO PUSH2 0xF87 JUMPI DUP5 DUP5 SUB DUP10 MSTORE DUP2 MLOAD PUSH2 0xF68 DUP6 DUP3 PUSH2 0xF03 JUMP JUMPDEST SWAP5 POP PUSH2 0xF73 DUP4 PUSH2 0xF17 JUMP JUMPDEST SWAP3 POP PUSH1 0x20 DUP11 ADD SWAP10 POP POP PUSH1 0x1 DUP2 ADD SWAP1 POP PUSH2 0xF4F JUMP JUMPDEST POP DUP3 SWAP8 POP DUP8 SWAP6 POP POP POP POP POP POP SWAP3 SWAP2 POP POP JUMP JUMPDEST PUSH1 0x0 DUP2 MLOAD SWAP1 POP SWAP2 SWAP1 POP JUMP JUMPDEST PUSH1 0x0 DUP3 DUP3 MSTORE PUSH1 0x20 DUP3 ADD SWAP1 POP SWAP3 SWAP2 POP POP JUMP JUMPDEST PUSH1 0x0 DUP2 SWAP1 POP PUSH1 0x20 DUP3 ADD SWAP1 POP SWAP2 SWAP1 POP JUMP JUMPDEST PUSH1 0x0 PUSH2 0xFD1 DUP4 DUP4 PUSH2 0xE6F JUMP JUMPDEST PUSH1 0x20 DUP4 ADD SWAP1 POP SWAP3 SWAP2 POP POP JUMP JUMPDEST PUSH1 0x0 PUSH1 0x20 DUP3 ADD SWAP1 POP SWAP2 SWAP1 POP JUMP JUMPDEST PUSH1 0x0 PUSH2 0xFF5 DUP3 PUSH2 0xF99 JUMP JUMPDEST PUSH2 0xFFF DUP2 DUP6 PUSH2 0xFA4 JUMP JUMPDEST SWAP4 POP PUSH2 0x100A DUP4 PUSH2 0xFB5 JUMP JUMPDEST DUP1 PUSH1 0x0 JUMPDEST DUP4 DUP2 LT ISZERO PUSH2 0x103B JUMPI DUP2 MLOAD PUSH2 0x1022 DUP9 DUP3 PUSH2 0xFC5 JUMP JUMPDEST SWAP8 POP PUSH2 0x102D DUP4 PUSH2 0xFDD JUMP JUMPDEST SWAP3 POP POP PUSH1 0x1 DUP2 ADD SWAP1 POP PUSH2 0x100E JUMP JUMPDEST POP DUP6 SWAP4 POP POP POP POP SWAP3 SWAP2 POP POP JUMP JUMPDEST PUSH1 0x0 PUSH1 0xE0 DUP4 ADD PUSH1 0x0 DUP4 ADD MLOAD PUSH2 0x1060 PUSH1 0x0 DUP7 ADD DUP3 PUSH2 0xE6F JUMP JUMPDEST POP PUSH1 0x20 DUP4 ADD MLOAD DUP5 DUP3 SUB PUSH1 0x20 DUP7 ADD MSTORE PUSH2 0x1078 DUP3 DUP3 PUSH2 0xE8F JUMP JUMPDEST SWAP2 POP POP PUSH1 0x40 DUP4 ADD MLOAD PUSH2 0x108D PUSH1 0x40 DUP7 ADD DUP3 PUSH2 0xE6F JUMP JUMPDEST POP PUSH1 0x60 DUP4 ADD MLOAD PUSH2 0x10A0 PUSH1 0x60 DUP7 ADD DUP3 PUSH2 0xEC8 JUMP JUMPDEST POP PUSH1 0x80 DUP4 ADD MLOAD DUP5 DUP3 SUB PUSH1 0x80 DUP7 ADD MSTORE PUSH2 0x10B8 DUP3 DUP3 PUSH2 0xF24 JUMP JUMPDEST SWAP2 POP POP PUSH1 0xA0 DUP4 ADD MLOAD DUP5 DUP3 SUB PUSH1 0xA0 DUP7 ADD MSTORE PUSH2 0x10D2 DUP3 DUP3 PUSH2 0xFEA JUMP JUMPDEST SWAP2 POP POP PUSH1 0xC0 DUP4 ADD MLOAD DUP5 DUP3 SUB PUSH1 0xC0 DUP7 ADD MSTORE PUSH2 0x10EC DUP3 DUP3 PUSH2 0xF24 JUMP JUMPDEST SWAP2 POP POP DUP1 SWAP2 POP POP SWAP3 SWAP2 POP POP JUMP JUMPDEST PUSH1 0x0 PUSH2 0x1105 DUP4 DUP4 PUSH2 0x1048 JUMP JUMPDEST SWAP1 POP SWAP3 SWAP2 POP POP JUMP JUMPDEST PUSH1 0x0 PUSH1 0x20 DUP3 ADD SWAP1 POP SWAP2 SWAP1 POP JUMP JUMPDEST PUSH1 0x0 PUSH2 0x1125 DUP3 PUSH2 0xE43 JUMP JUMPDEST PUSH2 0x112F DUP2 DUP6 PUSH2 0xE4E JUMP JUMPDEST SWAP4 POP DUP4 PUSH1 0x20 DUP3 MUL DUP6 ADD PUSH2 0x1141 DUP6 PUSH2 0xE5F JUMP JUMPDEST DUP1 PUSH1 0x0 JUMPDEST DUP6 DUP2 LT ISZERO PUSH2 0x117D JUMPI DUP5 DUP5 SUB DUP10 MSTORE DUP2 MLOAD PUSH2 0x115E DUP6 DUP3 PUSH2 0x10F9 JUMP JUMPDEST SWAP5 POP PUSH2 0x1169 DUP4 PUSH2 0x110D JUMP JUMPDEST SWAP3 POP PUSH1 0x20 DUP11 ADD SWAP10 POP POP PUSH1 0x1 DUP2 ADD SWAP1 POP PUSH2 0x1145 JUMP JUMPDEST POP DUP3 SWAP8 POP DUP8 SWAP6 POP POP POP POP POP POP SWAP3 SWAP2 POP POP JUMP JUMPDEST PUSH1 0x0 PUSH1 0x20 DUP3 ADD SWAP1 POP DUP2 DUP2 SUB PUSH1 0x0 DUP4 ADD MSTORE PUSH2 0x11A9 DUP2 DUP5 PUSH2 0x111A JUMP JUMPDEST SWAP1 POP SWAP3 SWAP2 POP POP JUMP JUMPDEST PUSH1 0x0 DUP2 ISZERO ISZERO SWAP1 POP SWAP2 SWAP1 POP JUMP JUMPDEST PUSH2 0x11C6 DUP2 PUSH2 0x11B1 JUMP JUMPDEST DUP3 MSTORE POP POP JUMP JUMPDEST PUSH1 0x0 PUSH1 0x20 DUP3 ADD SWAP1 POP PUSH2 0x11E1 PUSH1 0x0 DUP4 ADD DUP5 PUSH2 0x11BD JUMP JUMPDEST SWAP3 SWAP2 POP POP JUMP JUMPDEST PUSH1 0x0 PUSH1 0x20 DUP3 ADD SWAP1 POP PUSH2 0x11FC PUSH1 0x0 DUP4 ADD DUP5 PUSH2 0xD58 JUMP JUMPDEST SWAP3 SWAP2 POP POP JUMP JUMPDEST PUSH1 0x0 DUP1 PUSH1 0x40 DUP4 DUP6 SUB SLT ISZERO PUSH2 0x1219 JUMPI PUSH2 0x1218 PUSH2 0xC36 JUMP JUMPDEST JUMPDEST PUSH1 0x0 PUSH2 0x1227 DUP6 DUP3 DUP7 ADD PUSH2 0xC61 JUMP JUMPDEST SWAP3 POP POP PUSH1 0x20 PUSH2 0x1238 DUP6 DUP3 DUP7 ADD PUSH2 0xD16 JUMP JUMPDEST SWAP2 POP POP SWAP3 POP SWAP3 SWAP1 POP JUMP JUMPDEST PUSH1 0x0 DUP1 REVERT JUMPDEST PUSH1 0x0 DUP1 REVERT JUMPDEST PUSH32 0x4E487B7100000000000000000000000000000000000000000000000000000000 PUSH1 0x0 MSTORE PUSH1 0x41 PUSH1 0x4 MSTORE PUSH1 0x24 PUSH1 0x0 REVERT JUMPDEST PUSH2 0x1284 DUP3 PUSH2 0xDAD JUMP JUMPDEST DUP2 ADD DUP2 DUP2 LT PUSH8 0xFFFFFFFFFFFFFFFF DUP3 GT OR ISZERO PUSH2 0x12A3 JUMPI PUSH2 0x12A2 PUSH2 0x124C JUMP JUMPDEST JUMPDEST DUP1 PUSH1 0x40 MSTORE POP POP POP JUMP JUMPDEST PUSH1 0x0 PUSH2 0x12B6 PUSH2 0xC2C JUMP JUMPDEST SWAP1 POP PUSH2 0x12C2 DUP3 DUP3 PUSH2 0x127B JUMP JUMPDEST SWAP2 SWAP1 POP JUMP JUMPDEST PUSH1 0x0 PUSH8 0xFFFFFFFFFFFFFFFF DUP3 GT ISZERO PUSH2 0x12E2 JUMPI PUSH2 0x12E1 PUSH2 0x124C JUMP JUMPDEST JUMPDEST PUSH2 0x12EB DUP3 PUSH2 0xDAD JUMP JUMPDEST SWAP1 POP PUSH1 0x20 DUP2 ADD SWAP1 POP SWAP2 SWAP1 POP JUMP JUMPDEST DUP3 DUP2 DUP4 CALLDATACOPY PUSH1 0x0 DUP4 DUP4 ADD MSTORE POP POP POP JUMP JUMPDEST PUSH1 0x0 PUSH2 0x131A PUSH2 0x1315 DUP5 PUSH2 0x12C7 JUMP JUMPDEST PUSH2 0x12AC JUMP JUMPDEST SWAP1 POP DUP3 DUP2 MSTORE PUSH1 0x20 DUP2 ADD DUP5 DUP5 DUP5 ADD GT ISZERO PUSH2 0x1336 JUMPI PUSH2 0x1335 PUSH2 0x1247 JUMP JUMPDEST JUMPDEST PUSH2 0x1341 DUP5 DUP3 DUP6 PUSH2 0x12F8 JUMP JUMPDEST POP SWAP4 SWAP3 POP POP POP JUMP JUMPDEST PUSH1 0x0 DUP3 PUSH1 0x1F DUP4 ADD SLT PUSH2 0x135E JUMPI PUSH2 0x135D PUSH2 0x1242 JUMP JUMPDEST JUMPDEST DUP2 CALLDATALOAD PUSH2 0x136E DUP5 DUP3 PUSH1 0x20 DUP7 ADD PUSH2 0x1307 JUMP JUMPDEST SWAP2 POP POP SWAP3 SWAP2 POP POP JUMP JUMPDEST PUSH1 0x0 DUP1 PUSH1 0x0 PUSH1 0x60 DUP5 DUP7 SUB SLT ISZERO PUSH2 0x1390 JUMPI PUSH2 0x138F PUSH2 0xC36 JUMP JUMPDEST JUMPDEST PUSH1 0x0 DUP5 ADD CALLDATALOAD PUSH8 0xFFFFFFFFFFFFFFFF DUP2 GT ISZERO PUSH2 0x13AE JUMPI PUSH2 0x13AD PUSH2 0xC3B JUMP JUMPDEST JUMPDEST PUSH2 0x13BA DUP7 DUP3 DUP8 ADD PUSH2 0x1349 JUMP JUMPDEST SWAP4 POP POP PUSH1 0x20 PUSH2 0x13CB DUP7 DUP3 DUP8 ADD PUSH2 0xC61 JUMP JUMPDEST SWAP3 POP POP PUSH1 0x40 PUSH2 0x13DC DUP7 DUP3 DUP8 ADD PUSH2 0xD16 JUMP JUMPDEST SWAP2 POP POP SWAP3 POP SWAP3 POP SWAP3 JUMP JUMPDEST PUSH1 0x0 DUP1 PUSH1 0x40 DUP4 DUP6 SUB SLT ISZERO PUSH2 0x13FD JUMPI PUSH2 0x13FC PUSH2 0xC36 JUMP JUMPDEST JUMPDEST PUSH1 0x0 PUSH2 0x140B DUP6 DUP3 DUP7 ADD PUSH2 0xD16 JUMP JUMPDEST SWAP3 POP POP PUSH1 0x20 DUP4 ADD CALLDATALOAD PUSH8 0xFFFFFFFFFFFFFFFF DUP2 GT ISZERO PUSH2 0x142C JUMPI PUSH2 0x142B PUSH2 0xC3B JUMP JUMPDEST JUMPDEST PUSH2 0x1438 DUP6 DUP3 DUP7 ADD PUSH2 0x1349 JUMP JUMPDEST SWAP2 POP POP SWAP3 POP SWAP3 SWAP1 POP JUMP JUMPDEST PUSH32 0x4E487B7100000000000000000000000000000000000000000000000000000000 PUSH1 0x0 MSTORE PUSH1 0x22 PUSH1 0x4 MSTORE PUSH1 0x24 PUSH1 0x0 REVERT JUMPDEST PUSH1 0x0 PUSH1 0x2 DUP3 DIV SWAP1 POP PUSH1 0x1 DUP3 AND DUP1 PUSH2 0x1489 JUMPI PUSH1 0x7F DUP3 AND SWAP2 POP JUMPDEST PUSH1 0x20 DUP3 LT DUP2 SUB PUSH2 0x149C JUMPI PUSH2 0x149B PUSH2 0x1442 JUMP JUMPDEST JUMPDEST POP SWAP2 SWAP1 POP JUMP JUMPDEST PUSH32 0x4E487B7100000000000000000000000000000000000000000000000000000000 PUSH1 0x0 MSTORE PUSH1 0x32 PUSH1 0x4 MSTORE PUSH1 0x24 PUSH1 0x0 REVERT JUMPDEST PUSH32 0x4E487B7100000000000000000000000000000000000000000000000000000000 PUSH1 0x0 MSTORE PUSH1 0x11 PUSH1 0x4 MSTORE PUSH1 0x24 PUSH1 0x0 REVERT JUMPDEST PUSH1 0x0 PUSH2 0x150B DUP3 PUSH2 0xC40 JUMP JUMPDEST SWAP2 POP PUSH32 0xFFFFFFFFFFFFFFFFFFFFFFFFFFFFFFFFFFFFFFFFFFFFFFFFFFFFFFFFFFFFFFFF DUP3 SUB PUSH2 0x153D JUMPI PUSH2 0x153C PUSH2 0x14D1 JUMP JUMPDEST JUMPDEST PUSH1 0x1 DUP3 ADD SWAP1 POP SWAP2 SWAP1 POP JUMP JUMPDEST PUSH32 0x50617469656E7420616C72656164792065786973747300000000000000000000 PUSH1 0x0 DUP3 ADD MSTORE POP JUMP JUMPDEST PUSH1 0x0 PUSH2 0x157E PUSH1 0x16 DUP4 PUSH2 0xD72 JUMP JUMPDEST SWAP2 POP PUSH2 0x1589 DUP3 PUSH2 0x1548 JUMP JUMPDEST PUSH1 0x20 DUP3 ADD SWAP1 POP SWAP2 SWAP1 POP JUMP JUMPDEST PUSH1 0x0 PUSH1 0x20 DUP3 ADD SWAP1 POP DUP2 DUP2 SUB PUSH1 0x0 DUP4 ADD MSTORE PUSH2 0x15AD DUP2 PUSH2 0x1571 JUMP JUMPDEST SWAP1 POP SWAP2 SWAP1 POP JUMP JUMPDEST PUSH1 0x0 DUP2 SWAP1 POP DUP2 PUSH1 0x0 MSTORE PUSH1 0x20 PUSH1 0x0 KECCAK256 SWAP1 POP SWAP2 SWAP1 POP JUMP JUMPDEST PUSH1 0x0 PUSH1 0x20 PUSH1 0x1F DUP4 ADD DIV SWAP1 POP SWAP2 SWAP1 POP JUMP JUMPDEST PUSH1 0x0 DUP3 DUP3 SHL SWAP1 POP SWAP3 SWAP2 POP POP JUMP JUMPDEST PUSH1 0x0 PUSH1 0x8 DUP4 MUL PUSH2 0x1616 PUSH32 0xFFFFFFFFFFFFFFFFFFFFFFFFFFFFFFFFFFFFFFFFFFFFFFFFFFFFFFFFFFFFFFFF DUP3 PUSH2 0x15D9 JUMP JUMPDEST PUSH2 0x1620 DUP7 DUP4 PUSH2 0x15D9 JUMP JUMPDEST SWAP6 POP DUP1 NOT DUP5 AND SWAP4 POP DUP1 DUP7 AND DUP5 OR SWAP3 POP POP POP SWAP4 SWAP3 POP POP POP JUMP JUMPDEST PUSH1 0x0 DUP2 SWAP1 POP SWAP2 SWAP1 POP JUMP JUMPDEST PUSH1 0x0 PUSH2 0x165D PUSH2 0x1658 PUSH2 0x1653 DUP5 PUSH2 0xC40 JUMP JUMPDEST PUSH2 0x1638 JUMP JUMPDEST PUSH2 0xC40 JUMP JUMPDEST SWAP1 POP SWAP2 SWAP1 POP JUMP JUMPDEST PUSH1 0x0 DUP2 SWAP1 POP SWAP2 SWAP1 POP JUMP JUMPDEST PUSH2 0x1677 DUP4 PUSH2 0x1642 JUMP JUMPDEST PUSH2 0x168B PUSH2 0x1683 DUP3 PUSH2 0x1664 JUMP JUMPDEST DUP5 DUP5 SLOAD PUSH2 0x15E6 JUMP JUMPDEST DUP3 SSTORE POP POP POP POP JUMP JUMPDEST PUSH1 0x0 SWAP1 JUMP JUMPDEST PUSH2 0x16A0 PUSH2 0x1693 JUMP JUMPDEST PUSH2 0x16AB DUP2 DUP5 DUP5 PUSH2 0x166E JUMP JUMPDEST POP POP POP JUMP JUMPDEST JUMPDEST DUP2 DUP2 LT ISZERO PUSH2 0x16CF JUMPI PUSH2 0x16C4 PUSH1 0x0 DUP3 PUSH2 0x1698 JUMP JUMPDEST PUSH1 0x1 DUP2 ADD SWAP1 POP PUSH2 0x16B1 JUMP JUMPDEST POP POP JUMP JUMPDEST PUSH1 0x1F DUP3 GT ISZERO PUSH2 0x1714 JUMPI PUSH2 0x16E5 DUP2 PUSH2 0x15B4 JUMP JUMPDEST PUSH2 0x16EE DUP5 PUSH2 0x15C9 JUMP JUMPDEST DUP2 ADD PUSH1 0x20 DUP6 LT ISZERO PUSH2 0x16FD JUMPI DUP2 SWAP1 POP JUMPDEST PUSH2 0x1711 PUSH2 0x1709 DUP6 PUSH2 0x15C9 JUMP JUMPDEST DUP4 ADD DUP3 PUSH2 0x16B0 JUMP JUMPDEST POP POP JUMPDEST POP POP POP JUMP JUMPDEST PUSH1 0x0 DUP3 DUP3 SHR SWAP1 POP SWAP3 SWAP2 POP POP JUMP JUMPDEST PUSH1 0x0 PUSH2 0x1737 PUSH1 0x0 NOT DUP5 PUSH1 0x8 MUL PUSH2 0x1719 JUMP JUMPDEST NOT DUP1 DUP4 AND SWAP2 POP POP SWAP3 SWAP2 POP POP JUMP JUMPDEST PUSH1 0x0 PUSH2 0x1750 DUP4 DUP4 PUSH2 0x1726 JUMP JUMPDEST SWAP2 POP DUP3 PUSH1 0x2 MUL DUP3 OR SWAP1 POP SWAP3 SWAP2 POP POP JUMP JUMPDEST PUSH2 0x1769 DUP3 PUSH2 0xD67 JUMP JUMPDEST PUSH8 0xFFFFFFFFFFFFFFFF DUP2 GT ISZERO PUSH2 0x1782 JUMPI PUSH2 0x1781 PUSH2 0x124C JUMP JUMPDEST JUMPDEST PUSH2 0x178C DUP3 SLOAD PUSH2 0x1471 JUMP JUMPDEST PUSH2 0x1797 DUP3 DUP3 DUP6 PUSH2 0x16D3 JUMP JUMPDEST PUSH1 0x0 PUSH1 0x20 SWAP1 POP PUSH1 0x1F DUP4 GT PUSH1 0x1 DUP2 EQ PUSH2 0x17CA JUMPI PUSH1 0x0 DUP5 ISZERO PUSH2 0x17B8 JUMPI DUP3 DUP8 ADD MLOAD SWAP1 POP JUMPDEST PUSH2 0x17C2 DUP6 DUP3 PUSH2 0x1744 JUMP JUMPDEST DUP7 SSTORE POP PUSH2 0x182A JUMP JUMPDEST PUSH1 0x1F NOT DUP5 AND PUSH2 0x17D8 DUP7 PUSH2 0x15B4 JUMP JUMPDEST PUSH1 0x0 JUMPDEST DUP3 DUP2 LT ISZERO PUSH2 0x1800 JUMPI DUP5 DUP10 ADD MLOAD DUP3 SSTORE PUSH1 0x1 DUP3 ADD SWAP2 POP PUSH1 0x20 DUP6 ADD SWAP5 POP PUSH1 0x20 DUP2 ADD SWAP1 POP PUSH2 0x17DB JUMP JUMPDEST DUP7 DUP4 LT ISZERO PUSH2 0x181D JUMPI DUP5 DUP10 ADD MLOAD PUSH2 0x1819 PUSH1 0x1F DUP10 AND DUP3 PUSH2 0x1726 JUMP JUMPDEST DUP4 SSTORE POP JUMPDEST PUSH1 0x1 PUSH1 0x2 DUP9 MUL ADD DUP9 SSTORE POP POP POP JUMPDEST POP POP POP POP POP POP JUMP INVALID LOG2 PUSH5 0x6970667358 0x22 SLT KECCAK256 PUSH11 0x68AB232411F06F5693E3EB DUP6 0xD9 INVALID CREATE POP 0xED EXP SWAP4 0xC2 PUSH17 0x8F167E4756B81090C1AF64736F6C634300 ADDMOD SLT STOP CALLER "
				},
				"gasEstimates": {
					"creation": {
						"codeDepositCost": "1249600",
						"executionCost": "1302",
						"totalCost": "1250902"
					},
					"external": {
						"addMedicineToPatient(uint256,address)": "47169",
						"getAllPatients()": "infinite",
						"patientAddDisease(address,string)": "infinite",
						"patientAddress(uint256)": "4957",
						"patientCount()": "2429",
						"patientNotExists(address)": "infinite",
						"patients(address)": "infinite",
						"registerPatient(string,uint256,address)": "infinite"
					}
				},
				"methodIdentifiers": {
					"addMedicineToPatient(uint256,address)": "a5f097a6",
					"getAllPatients()": "18a231a9",
					"patientAddDisease(address,string)": "e359fe04",
					"patientAddress(uint256)": "05aeeea7",
					"patientCount()": "a0303c41",
					"patientNotExists(address)": "536ded4b",
					"patients(address)": "0869cfbc",
					"registerPatient(string,uint256,address)": "c30d742e"
				}
			},
			"storageLayout": {
				"storage": [
					{
						"astId": 24,
						"contract": "Patient.sol:Patient",
						"label": "patients",
						"offset": 0,
						"slot": "0",
						"type": "t_mapping(t_address,t_struct(PatientDetails)19_storage)"
					},
					{
						"astId": 26,
						"contract": "Patient.sol:Patient",
						"label": "patientCount",
						"offset": 0,
						"slot": "1",
						"type": "t_uint256"
					},
					{
						"astId": 29,
						"contract": "Patient.sol:Patient",
						"label": "patientAddress",
						"offset": 0,
						"slot": "2",
						"type": "t_array(t_address)dyn_storage"
					}
				],
				"types": {
					"t_address": {
						"encoding": "inplace",
						"label": "address",
						"numberOfBytes": "20"
					},
					"t_array(t_address)dyn_storage": {
						"base": "t_address",
						"encoding": "dynamic_array",
						"label": "address[]",
						"numberOfBytes": "32"
					},
					"t_array(t_string_storage)dyn_storage": {
						"base": "t_string_storage",
						"encoding": "dynamic_array",
						"label": "string[]",
						"numberOfBytes": "32"
					},
					"t_array(t_uint256)dyn_storage": {
						"base": "t_uint256",
						"encoding": "dynamic_array",
						"label": "uint256[]",
						"numberOfBytes": "32"
					},
					"t_mapping(t_address,t_struct(PatientDetails)19_storage)": {
						"encoding": "mapping",
						"key": "t_address",
						"label": "mapping(address => struct Patient.PatientDetails)",
						"numberOfBytes": "32",
						"value": "t_struct(PatientDetails)19_storage"
					},
					"t_string_storage": {
						"encoding": "bytes",
						"label": "string",
						"numberOfBytes": "32"
					},
					"t_struct(PatientDetails)19_storage": {
						"encoding": "inplace",
						"label": "struct Patient.PatientDetails",
						"members": [
							{
								"astId": 3,
								"contract": "Patient.sol:Patient",
								"label": "id",
								"offset": 0,
								"slot": "0",
								"type": "t_uint256"
							},
							{
								"astId": 5,
								"contract": "Patient.sol:Patient",
								"label": "name",
								"offset": 0,
								"slot": "1",
								"type": "t_string_storage"
							},
							{
								"astId": 7,
								"contract": "Patient.sol:Patient",
								"label": "age",
								"offset": 0,
								"slot": "2",
								"type": "t_uint256"
							},
							{
								"astId": 9,
								"contract": "Patient.sol:Patient",
								"label": "publicAddress",
								"offset": 0,
								"slot": "3",
								"type": "t_address"
							},
							{
								"astId": 12,
								"contract": "Patient.sol:Patient",
								"label": "diseases",
								"offset": 0,
								"slot": "4",
								"type": "t_array(t_string_storage)dyn_storage"
							},
							{
								"astId": 15,
								"contract": "Patient.sol:Patient",
								"label": "medicines",
								"offset": 0,
								"slot": "5",
								"type": "t_array(t_uint256)dyn_storage"
							},
							{
								"astId": 18,
								"contract": "Patient.sol:Patient",
								"label": "allowedDoctors",
								"offset": 0,
								"slot": "6",
								"type": "t_array(t_string_storage)dyn_storage"
							}
						],
						"numberOfBytes": "224"
					},
					"t_uint256": {
						"encoding": "inplace",
						"label": "uint256",
						"numberOfBytes": "32"
					}
				}
			},
			"userdoc": {
				"kind": "user",
				"methods": {},
				"version": 1
			}
		}
	}
}