{
	"Admin.sol": {
		"Admin": {
			"abi": [
				{
					"inputs": [
						{
							"internalType": "string",
							"name": "_name",
							"type": "string"
						}
					],
					"name": "addDisease",
					"outputs": [],
					"stateMutability": "nonpayable",
					"type": "function"
				},
				{
					"inputs": [
						{
							"internalType": "string",
							"name": "_name",
							"type": "string"
						},
						{
							"internalType": "string",
							"name": "_expiryDate",
							"type": "string"
						},
						{
							"internalType": "string",
							"name": "_dose",
							"type": "string"
						},
						{
							"internalType": "string",
							"name": "_price",
							"type": "string"
						}
					],
					"name": "addMedicine",
					"outputs": [],
					"stateMutability": "nonpayable",
					"type": "function"
				},
				{
					"inputs": [
						{
							"internalType": "uint256",
							"name": "id",
							"type": "uint256"
						}
					],
					"name": "checkMedicineExists",
					"outputs": [
						{
							"internalType": "bool",
							"name": "",
							"type": "bool"
						}
					],
					"stateMutability": "view",
					"type": "function"
				},
				{
					"inputs": [
						{
							"internalType": "string",
							"name": "_name",
							"type": "string"
						},
						{
							"internalType": "string",
							"name": "_workAddress",
							"type": "string"
						}
					],
					"name": "createWorkplace",
					"outputs": [],
					"stateMutability": "nonpayable",
					"type": "function"
				},
				{
					"inputs": [
						{
							"internalType": "uint256",
							"name": "",
							"type": "uint256"
						}
					],
					"name": "diseases",
					"outputs": [
						{
							"internalType": "uint256",
							"name": "id",
							"type": "uint256"
						},
						{
							"internalType": "string",
							"name": "name",
							"type": "string"
						}
					],
					"stateMutability": "view",
					"type": "function"
				},
				{
					"inputs": [],
					"name": "getAllDiseases",
					"outputs": [
						{
							"components": [
								{
									"internalType": "uint256",
									"name": "id",
									"type": "uint256"
								},
								{
									"internalType": "string",
									"name": "name",
									"type": "string"
								}
							],
							"internalType": "struct Admin.Disease[]",
							"name": "",
							"type": "tuple[]"
						}
					],
					"stateMutability": "view",
					"type": "function"
				},
				{
					"inputs": [],
					"name": "getAllWorkplaces",
					"outputs": [
						{
							"components": [
								{
									"internalType": "string",
									"name": "name",
									"type": "string"
								},
								{
									"internalType": "string",
									"name": "workAddress",
									"type": "string"
								}
							],
							"internalType": "struct Admin.Workplace[]",
							"name": "",
							"type": "tuple[]"
						}
					],
					"stateMutability": "view",
					"type": "function"
				},
				{
					"inputs": [
						{
							"internalType": "uint256",
							"name": "id",
							"type": "uint256"
						}
					],
					"name": "getDiseaseById",
					"outputs": [
						{
							"internalType": "string",
							"name": "",
							"type": "string"
						}
					],
					"stateMutability": "view",
					"type": "function"
				},
				{
					"inputs": [
						{
							"internalType": "uint256",
							"name": "id",
							"type": "uint256"
						}
					],
					"name": "getMedicine",
					"outputs": [
						{
							"internalType": "string",
							"name": "name",
							"type": "string"
						},
						{
							"internalType": "string",
							"name": "expiryDate",
							"type": "string"
						},
						{
							"internalType": "string",
							"name": "dose",
							"type": "string"
						},
						{
							"internalType": "string",
							"name": "price",
							"type": "string"
						}
					],
					"stateMutability": "view",
					"type": "function"
				},
				{
					"inputs": [
						{
							"internalType": "uint256",
							"name": "",
							"type": "uint256"
						}
					],
					"name": "medicines",
					"outputs": [
						{
							"internalType": "uint256",
							"name": "id",
							"type": "uint256"
						},
						{
							"internalType": "string",
							"name": "name",
							"type": "string"
						},
						{
							"internalType": "string",
							"name": "expiryDate",
							"type": "string"
						},
						{
							"internalType": "string",
							"name": "price",
							"type": "string"
						},
						{
							"internalType": "string",
							"name": "dose",
							"type": "string"
						}
					],
					"stateMutability": "view",
					"type": "function"
				},
				{
					"inputs": [
						{
							"internalType": "uint256",
							"name": "",
							"type": "uint256"
						}
					],
					"name": "workplaces",
					"outputs": [
						{
							"internalType": "string",
							"name": "name",
							"type": "string"
						},
						{
							"internalType": "string",
							"name": "workAddress",
							"type": "string"
						}
					],
					"stateMutability": "view",
					"type": "function"
				}
			],
			"devdoc": {
				"kind": "dev",
				"methods": {},
				"version": 1
			},
			"evm": {
				"assembly": "    /* \"Admin.sol\":55:2189  contract Admin {... */\n  mstore(0x40, 0x80)\n  callvalue\n  dup1\n  iszero\n  tag_1\n  jumpi\n  0x00\n  dup1\n  revert\ntag_1:\n  pop\n  dataSize(sub_0)\n  dup1\n  dataOffset(sub_0)\n  0x00\n  codecopy\n  0x00\n  return\nstop\n\nsub_0: assembly {\n        /* \"Admin.sol\":55:2189  contract Admin {... */\n      mstore(0x40, 0x80)\n      callvalue\n      dup1\n      iszero\n      tag_1\n      jumpi\n      0x00\n      dup1\n      revert\n    tag_1:\n      pop\n      jumpi(tag_2, lt(calldatasize, 0x04))\n      shr(0xe0, calldataload(0x00))\n      dup1\n      0xa6742265\n      gt\n      tag_14\n      jumpi\n      dup1\n      0xa6742265\n      eq\n      tag_8\n      jumpi\n      dup1\n      0xc38831ae\n      eq\n      tag_9\n      jumpi\n      dup1\n      0xc85e766d\n      eq\n      tag_10\n      jumpi\n      dup1\n      0xd47c029c\n      eq\n      tag_11\n      jumpi\n      dup1\n      0xd92631db\n      eq\n      tag_12\n      jumpi\n      dup1\n      0xde7e89c0\n      eq\n      tag_13\n      jumpi\n      jump(tag_2)\n    tag_14:\n      dup1\n      0x020d07a4\n      eq\n      tag_3\n      jumpi\n      dup1\n      0x46459b22\n      eq\n      tag_4\n      jumpi\n      dup1\n      0x5ab2ce22\n      eq\n      tag_5\n      jumpi\n      dup1\n      0x747dcbde\n      eq\n      tag_6\n      jumpi\n      dup1\n      0x9df10db0\n      eq\n      tag_7\n      jumpi\n    tag_2:\n      0x00\n      dup1\n      revert\n        /* \"Admin.sol\":868:1280  function addMedicine(string memory _name, string memory _expiryDate, string memory _dose, string memory _price) public virtual {... */\n    tag_3:\n      tag_15\n      0x04\n      dup1\n      calldatasize\n      sub\n      dup2\n      add\n      swap1\n      tag_16\n      swap2\n      swap1\n      tag_17\n      jump\t// in\n    tag_16:\n      tag_18\n      jump\t// in\n    tag_15:\n      stop\n        /* \"Admin.sol\":503:528  Disease[] public diseases */\n    tag_4:\n      tag_19\n      0x04\n      dup1\n      calldatasize\n      sub\n      dup2\n      add\n      swap1\n      tag_20\n      swap2\n      swap1\n      tag_21\n      jump\t// in\n    tag_20:\n      tag_22\n      jump\t// in\n    tag_19:\n      mload(0x40)\n      tag_23\n      swap3\n      swap2\n      swap1\n      tag_24\n      jump\t// in\n    tag_23:\n      mload(0x40)\n      dup1\n      swap2\n      sub\n      swap1\n      return\n        /* \"Admin.sol\":537:745  function createWorkplace(string memory _name, string memory _workAddress) public virtual  {... */\n    tag_5:\n      tag_25\n      0x04\n      dup1\n      calldatasize\n      sub\n      dup2\n      add\n      swap1\n      tag_26\n      swap2\n      swap1\n      tag_27\n      jump\t// in\n    tag_26:\n      tag_28\n      jump\t// in\n    tag_25:\n      stop\n        /* \"Admin.sol\":1637:1757  function getDiseaseById(uint256 id) public view virtual returns(string memory) {... */\n    tag_6:\n      tag_29\n      0x04\n      dup1\n      calldatasize\n      sub\n      dup2\n      add\n      swap1\n      tag_30\n      swap2\n      swap1\n      tag_21\n      jump\t// in\n    tag_30:\n      tag_31\n      jump\t// in\n    tag_29:\n      mload(0x40)\n      tag_32\n      swap2\n      swap1\n      tag_33\n      jump\t// in\n    tag_32:\n      mload(0x40)\n      dup1\n      swap2\n      sub\n      swap1\n      return\n        /* \"Admin.sol\":1527:1631  function getAllDiseases() public view virtual returns(Disease[] memory) {... */\n    tag_7:\n      tag_34\n      tag_35\n      jump\t// in\n    tag_34:\n      mload(0x40)\n      tag_36\n      swap2\n      swap1\n      tag_37\n      jump\t// in\n    tag_36:\n      mload(0x40)\n      dup1\n      swap2\n      sub\n      swap1\n      return\n        /* \"Admin.sol\":1904:2186  function getMedicine(uint256 id) public view returns (string memory name, string memory expiryDate, string memory dose, string memory price) {... */\n    tag_8:\n      tag_38\n      0x04\n      dup1\n      calldatasize\n      sub\n      dup2\n      add\n      swap1\n      tag_39\n      swap2\n      swap1\n      tag_21\n      jump\t// in\n    tag_39:\n      tag_40\n      jump\t// in\n    tag_38:\n      mload(0x40)\n      tag_41\n      swap5\n      swap4\n      swap3\n      swap2\n      swap1\n      tag_42\n      jump\t// in\n    tag_41:\n      mload(0x40)\n      dup1\n      swap2\n      sub\n      swap1\n      return\n        /* \"Admin.sol\":417:446  Workplace[] public workplaces */\n    tag_9:\n      tag_43\n      0x04\n      dup1\n      calldatasize\n      sub\n      dup2\n      add\n      swap1\n      tag_44\n      swap2\n      swap1\n      tag_21\n      jump\t// in\n    tag_44:\n      tag_45\n      jump\t// in\n    tag_43:\n      mload(0x40)\n      tag_46\n      swap3\n      swap2\n      swap1\n      tag_47\n      jump\t// in\n    tag_46:\n      mload(0x40)\n      dup1\n      swap2\n      sub\n      swap1\n      return\n        /* \"Admin.sol\":452:497  mapping(uint256 => Medicine) public medicines */\n    tag_10:\n      tag_48\n      0x04\n      dup1\n      calldatasize\n      sub\n      dup2\n      add\n      swap1\n      tag_49\n      swap2\n      swap1\n      tag_21\n      jump\t// in\n    tag_49:\n      tag_50\n      jump\t// in\n    tag_48:\n      mload(0x40)\n      tag_51\n      swap6\n      swap5\n      swap4\n      swap3\n      swap2\n      swap1\n      tag_52\n      jump\t// in\n    tag_51:\n      mload(0x40)\n      dup1\n      swap2\n      sub\n      swap1\n      return\n        /* \"Admin.sol\":1287:1521  function addDisease(string memory _name) public virtual {... */\n    tag_11:\n      tag_53\n      0x04\n      dup1\n      calldatasize\n      sub\n      dup2\n      add\n      swap1\n      tag_54\n      swap2\n      swap1\n      tag_55\n      jump\t// in\n    tag_54:\n      tag_56\n      jump\t// in\n    tag_53:\n      stop\n        /* \"Admin.sol\":751:862  function getAllWorkplaces() public view virtual returns (Workplace[] memory) {... */\n    tag_12:\n      tag_57\n      tag_58\n      jump\t// in\n    tag_57:\n      mload(0x40)\n      tag_59\n      swap2\n      swap1\n      tag_60\n      jump\t// in\n    tag_59:\n      mload(0x40)\n      dup1\n      swap2\n      sub\n      swap1\n      return\n        /* \"Admin.sol\":1763:1898  function checkMedicineExists(uint256 id) public view virtual returns (bool) {... */\n    tag_13:\n      tag_61\n      0x04\n      dup1\n      calldatasize\n      sub\n      dup2\n      add\n      swap1\n      tag_62\n      swap2\n      swap1\n      tag_21\n      jump\t// in\n    tag_62:\n      tag_63\n      jump\t// in\n    tag_61:\n      mload(0x40)\n      tag_64\n      swap2\n      swap1\n      tag_65\n      jump\t// in\n    tag_64:\n      mload(0x40)\n      dup1\n      swap2\n      sub\n      swap1\n      return\n        /* \"Admin.sol\":868:1280  function addMedicine(string memory _name, string memory _expiryDate, string memory _dose, string memory _price) public virtual {... */\n    tag_18:\n        /* \"Admin.sol\":1005:1032  Medicine memory newMedicine */\n      0x00\n        /* \"Admin.sol\":1035:1200  Medicine({... */\n      mload(0x40)\n      dup1\n      0xa0\n      add\n      0x40\n      mstore\n      dup1\n        /* \"Admin.sol\":1062:1075  medicineCount */\n      sload(0x00)\n        /* \"Admin.sol\":1035:1200  Medicine({... */\n      dup2\n      mstore\n      0x20\n      add\n        /* \"Admin.sol\":1095:1100  _name */\n      dup7\n        /* \"Admin.sol\":1035:1200  Medicine({... */\n      dup2\n      mstore\n      0x20\n      add\n        /* \"Admin.sol\":1126:1137  _expiryDate */\n      dup6\n        /* \"Admin.sol\":1035:1200  Medicine({... */\n      dup2\n      mstore\n      0x20\n      add\n        /* \"Admin.sol\":1158:1164  _price */\n      dup4\n        /* \"Admin.sol\":1035:1200  Medicine({... */\n      dup2\n      mstore\n      0x20\n      add\n        /* \"Admin.sol\":1184:1189  _dose */\n      dup5\n        /* \"Admin.sol\":1035:1200  Medicine({... */\n      dup2\n      mstore\n      pop\n        /* \"Admin.sol\":1005:1200  Medicine memory newMedicine = Medicine({... */\n      swap1\n      pop\n        /* \"Admin.sol\":1237:1248  newMedicine */\n      dup1\n        /* \"Admin.sol\":1210:1219  medicines */\n      0x03\n        /* \"Admin.sol\":1210:1234  medicines[medicineCount] */\n      0x00\n        /* \"Admin.sol\":1220:1233  medicineCount */\n      dup1\n      sload\n        /* \"Admin.sol\":1210:1234  medicines[medicineCount] */\n      dup2\n      mstore\n      0x20\n      add\n      swap1\n      dup2\n      mstore\n      0x20\n      add\n      0x00\n      keccak256\n        /* \"Admin.sol\":1210:1248  medicines[medicineCount] = newMedicine */\n      0x00\n      dup3\n      add\n      mload\n      dup2\n      0x00\n      add\n      sstore\n      0x20\n      dup3\n      add\n      mload\n      dup2\n      0x01\n      add\n      swap1\n      dup2\n      tag_67\n      swap2\n      swap1\n      tag_68\n      jump\t// in\n    tag_67:\n      pop\n      0x40\n      dup3\n      add\n      mload\n      dup2\n      0x02\n      add\n      swap1\n      dup2\n      tag_69\n      swap2\n      swap1\n      tag_68\n      jump\t// in\n    tag_69:\n      pop\n      0x60\n      dup3\n      add\n      mload\n      dup2\n      0x03\n      add\n      swap1\n      dup2\n      tag_70\n      swap2\n      swap1\n      tag_68\n      jump\t// in\n    tag_70:\n      pop\n      0x80\n      dup3\n      add\n      mload\n      dup2\n      0x04\n      add\n      swap1\n      dup2\n      tag_71\n      swap2\n      swap1\n      tag_68\n      jump\t// in\n    tag_71:\n      pop\n      swap1\n      pop\n      pop\n        /* \"Admin.sol\":1258:1271  medicineCount */\n      0x00\n      dup1\n        /* \"Admin.sol\":1258:1273  medicineCount++ */\n      dup2\n      sload\n      dup1\n      swap3\n      swap2\n      swap1\n      tag_72\n      swap1\n      tag_73\n      jump\t// in\n    tag_72:\n      swap2\n      swap1\n      pop\n      sstore\n      pop\n        /* \"Admin.sol\":995:1280  {... */\n      pop\n        /* \"Admin.sol\":868:1280  function addMedicine(string memory _name, string memory _expiryDate, string memory _dose, string memory _price) public virtual {... */\n      pop\n      pop\n      pop\n      pop\n      jump\t// out\n        /* \"Admin.sol\":503:528  Disease[] public diseases */\n    tag_22:\n      0x04\n      dup2\n      dup2\n      sload\n      dup2\n      lt\n      tag_74\n      jumpi\n      0x00\n      dup1\n      revert\n    tag_74:\n      swap1\n      0x00\n      mstore\n      keccak256(0x00, 0x20)\n      swap1\n      0x02\n      mul\n      add\n      0x00\n      swap2\n      pop\n      swap1\n      pop\n      dup1\n      0x00\n      add\n      sload\n      swap1\n      dup1\n      0x01\n      add\n      dup1\n      sload\n      tag_76\n      swap1\n      tag_77\n      jump\t// in\n    tag_76:\n      dup1\n      0x1f\n      add\n      0x20\n      dup1\n      swap2\n      div\n      mul\n      0x20\n      add\n      mload(0x40)\n      swap1\n      dup2\n      add\n      0x40\n      mstore\n      dup1\n      swap3\n      swap2\n      swap1\n      dup2\n      dup2\n      mstore\n      0x20\n      add\n      dup3\n      dup1\n      sload\n      tag_78\n      swap1\n      tag_77\n      jump\t// in\n    tag_78:\n      dup1\n      iszero\n      tag_79\n      jumpi\n      dup1\n      0x1f\n      lt\n      tag_80\n      jumpi\n      0x0100\n      dup1\n      dup4\n      sload\n      div\n      mul\n      dup4\n      mstore\n      swap2\n      0x20\n      add\n      swap2\n      jump(tag_79)\n    tag_80:\n      dup3\n      add\n      swap2\n      swap1\n      0x00\n      mstore\n      keccak256(0x00, 0x20)\n      swap1\n    tag_81:\n      dup2\n      sload\n      dup2\n      mstore\n      swap1\n      0x01\n      add\n      swap1\n      0x20\n      add\n      dup1\n      dup4\n      gt\n      tag_81\n      jumpi\n      dup3\n      swap1\n      sub\n      0x1f\n      and\n      dup3\n      add\n      swap2\n    tag_79:\n      pop\n      pop\n      pop\n      pop\n      pop\n      swap1\n      pop\n      dup3\n      jump\t// out\n        /* \"Admin.sol\":537:745  function createWorkplace(string memory _name, string memory _workAddress) public virtual  {... */\n    tag_28:\n        /* \"Admin.sol\":637:666  Workplace memory newWorkplace */\n      0x00\n        /* \"Admin.sol\":669:699  Workplace(_name, _workAddress) */\n      mload(0x40)\n      dup1\n      0x40\n      add\n      0x40\n      mstore\n      dup1\n        /* \"Admin.sol\":679:684  _name */\n      dup5\n        /* \"Admin.sol\":669:699  Workplace(_name, _workAddress) */\n      dup2\n      mstore\n      0x20\n      add\n        /* \"Admin.sol\":686:698  _workAddress */\n      dup4\n        /* \"Admin.sol\":669:699  Workplace(_name, _workAddress) */\n      dup2\n      mstore\n      pop\n        /* \"Admin.sol\":637:699  Workplace memory newWorkplace = Workplace(_name, _workAddress) */\n      swap1\n      pop\n        /* \"Admin.sol\":709:719  workplaces */\n      0x02\n        /* \"Admin.sol\":725:737  newWorkplace */\n      dup2\n        /* \"Admin.sol\":709:738  workplaces.push(newWorkplace) */\n      swap1\n      dup1\n      0x01\n      dup2\n      sload\n      add\n      dup1\n      dup3\n      sstore\n      dup1\n      swap2\n      pop\n      pop\n      0x01\n      swap1\n      sub\n      swap1\n      0x00\n      mstore\n      keccak256(0x00, 0x20)\n      swap1\n      0x02\n      mul\n      add\n      0x00\n      swap1\n      swap2\n      swap1\n      swap2\n      swap1\n      swap2\n      pop\n      0x00\n      dup3\n      add\n      mload\n      dup2\n      0x00\n      add\n      swap1\n      dup2\n      tag_84\n      swap2\n      swap1\n      tag_68\n      jump\t// in\n    tag_84:\n      pop\n      0x20\n      dup3\n      add\n      mload\n      dup2\n      0x01\n      add\n      swap1\n      dup2\n      tag_85\n      swap2\n      swap1\n      tag_68\n      jump\t// in\n    tag_85:\n      pop\n      pop\n      pop\n        /* \"Admin.sol\":627:745  {... */\n      pop\n        /* \"Admin.sol\":537:745  function createWorkplace(string memory _name, string memory _workAddress) public virtual  {... */\n      pop\n      pop\n      jump\t// out\n        /* \"Admin.sol\":1637:1757  function getDiseaseById(uint256 id) public view virtual returns(string memory) {... */\n    tag_31:\n        /* \"Admin.sol\":1701:1714  string memory */\n      0x60\n        /* \"Admin.sol\":1733:1741  diseases */\n      0x04\n        /* \"Admin.sol\":1742:1744  id */\n      dup3\n        /* \"Admin.sol\":1733:1745  diseases[id] */\n      dup2\n      sload\n      dup2\n      lt\n      tag_87\n      jumpi\n      tag_88\n      tag_89\n      jump\t// in\n    tag_88:\n    tag_87:\n      swap1\n      0x00\n      mstore\n      keccak256(0x00, 0x20)\n      swap1\n      0x02\n      mul\n      add\n        /* \"Admin.sol\":1733:1750  diseases[id].name */\n      0x01\n      add\n        /* \"Admin.sol\":1726:1750  return diseases[id].name */\n      dup1\n      sload\n      tag_91\n      swap1\n      tag_77\n      jump\t// in\n    tag_91:\n      dup1\n      0x1f\n      add\n      0x20\n      dup1\n      swap2\n      div\n      mul\n      0x20\n      add\n      mload(0x40)\n      swap1\n      dup2\n      add\n      0x40\n      mstore\n      dup1\n      swap3\n      swap2\n      swap1\n      dup2\n      dup2\n      mstore\n      0x20\n      add\n      dup3\n      dup1\n      sload\n      tag_92\n      swap1\n      tag_77\n      jump\t// in\n    tag_92:\n      dup1\n      iszero\n      tag_93\n      jumpi\n      dup1\n      0x1f\n      lt\n      tag_94\n      jumpi\n      0x0100\n      dup1\n      dup4\n      sload\n      div\n      mul\n      dup4\n      mstore\n      swap2\n      0x20\n      add\n      swap2\n      jump(tag_93)\n    tag_94:\n      dup3\n      add\n      swap2\n      swap1\n      0x00\n      mstore\n      keccak256(0x00, 0x20)\n      swap1\n    tag_95:\n      dup2\n      sload\n      dup2\n      mstore\n      swap1\n      0x01\n      add\n      swap1\n      0x20\n      add\n      dup1\n      dup4\n      gt\n      tag_95\n      jumpi\n      dup3\n      swap1\n      sub\n      0x1f\n      and\n      dup3\n      add\n      swap2\n    tag_93:\n      pop\n      pop\n      pop\n      pop\n      pop\n      swap1\n      pop\n        /* \"Admin.sol\":1637:1757  function getDiseaseById(uint256 id) public view virtual returns(string memory) {... */\n      swap2\n      swap1\n      pop\n      jump\t// out\n        /* \"Admin.sol\":1527:1631  function getAllDiseases() public view virtual returns(Disease[] memory) {... */\n    tag_35:\n        /* \"Admin.sol\":1581:1597  Disease[] memory */\n      0x60\n        /* \"Admin.sol\":1616:1624  diseases */\n      0x04\n        /* \"Admin.sol\":1609:1624  return diseases */\n      dup1\n      sload\n      dup1\n      0x20\n      mul\n      0x20\n      add\n      mload(0x40)\n      swap1\n      dup2\n      add\n      0x40\n      mstore\n      dup1\n      swap3\n      swap2\n      swap1\n      dup2\n      dup2\n      mstore\n      0x20\n      add\n      0x00\n      swap1\n    tag_97:\n      dup3\n      dup3\n      lt\n      iszero\n      tag_98\n      jumpi\n      dup4\n      dup3\n      swap1\n      0x00\n      mstore\n      keccak256(0x00, 0x20)\n      swap1\n      0x02\n      mul\n      add\n      mload(0x40)\n      dup1\n      0x40\n      add\n      0x40\n      mstore\n      swap1\n      dup2\n      0x00\n      dup3\n      add\n      sload\n      dup2\n      mstore\n      0x20\n      add\n      0x01\n      dup3\n      add\n      dup1\n      sload\n      tag_100\n      swap1\n      tag_77\n      jump\t// in\n    tag_100:\n      dup1\n      0x1f\n      add\n      0x20\n      dup1\n      swap2\n      div\n      mul\n      0x20\n      add\n      mload(0x40)\n      swap1\n      dup2\n      add\n      0x40\n      mstore\n      dup1\n      swap3\n      swap2\n      swap1\n      dup2\n      dup2\n      mstore\n      0x20\n      add\n      dup3\n      dup1\n      sload\n      tag_101\n      swap1\n      tag_77\n      jump\t// in\n    tag_101:\n      dup1\n      iszero\n      tag_102\n      jumpi\n      dup1\n      0x1f\n      lt\n      tag_103\n      jumpi\n      0x0100\n      dup1\n      dup4\n      sload\n      div\n      mul\n      dup4\n      mstore\n      swap2\n      0x20\n      add\n      swap2\n      jump(tag_102)\n    tag_103:\n      dup3\n      add\n      swap2\n      swap1\n      0x00\n      mstore\n      keccak256(0x00, 0x20)\n      swap1\n    tag_104:\n      dup2\n      sload\n      dup2\n      mstore\n      swap1\n      0x01\n      add\n      swap1\n      0x20\n      add\n      dup1\n      dup4\n      gt\n      tag_104\n      jumpi\n      dup3\n      swap1\n      sub\n      0x1f\n      and\n      dup3\n      add\n      swap2\n    tag_102:\n      pop\n      pop\n      pop\n      pop\n      pop\n      dup2\n      mstore\n      pop\n      pop\n      dup2\n      mstore\n      0x20\n      add\n      swap1\n      0x01\n      add\n      swap1\n      jump(tag_97)\n    tag_98:\n      pop\n      pop\n      pop\n      pop\n      swap1\n      pop\n        /* \"Admin.sol\":1527:1631  function getAllDiseases() public view virtual returns(Disease[] memory) {... */\n      swap1\n      jump\t// out\n        /* \"Admin.sol\":1904:2186  function getMedicine(uint256 id) public view returns (string memory name, string memory expiryDate, string memory dose, string memory price) {... */\n    tag_40:\n        /* \"Admin.sol\":1958:1976  string memory name */\n      0x60\n        /* \"Admin.sol\":1978:2002  string memory expiryDate */\n      dup1\n        /* \"Admin.sol\":2004:2022  string memory dose */\n      0x60\n        /* \"Admin.sol\":2024:2043  string memory price */\n      dup1\n        /* \"Admin.sol\":2055:2079  Medicine memory medicine */\n      0x00\n        /* \"Admin.sol\":2082:2091  medicines */\n      0x03\n        /* \"Admin.sol\":2082:2095  medicines[id] */\n      0x00\n        /* \"Admin.sol\":2092:2094  id */\n      dup8\n        /* \"Admin.sol\":2082:2095  medicines[id] */\n      dup2\n      mstore\n      0x20\n      add\n      swap1\n      dup2\n      mstore\n      0x20\n      add\n      0x00\n      keccak256\n        /* \"Admin.sol\":2055:2095  Medicine memory medicine = medicines[id] */\n      mload(0x40)\n      dup1\n      0xa0\n      add\n      0x40\n      mstore\n      swap1\n      dup2\n      0x00\n      dup3\n      add\n      sload\n      dup2\n      mstore\n      0x20\n      add\n      0x01\n      dup3\n      add\n      dup1\n      sload\n      tag_106\n      swap1\n      tag_77\n      jump\t// in\n    tag_106:\n      dup1\n      0x1f\n      add\n      0x20\n      dup1\n      swap2\n      div\n      mul\n      0x20\n      add\n      mload(0x40)\n      swap1\n      dup2\n      add\n      0x40\n      mstore\n      dup1\n      swap3\n      swap2\n      swap1\n      dup2\n      dup2\n      mstore\n      0x20\n      add\n      dup3\n      dup1\n      sload\n      tag_107\n      swap1\n      tag_77\n      jump\t// in\n    tag_107:\n      dup1\n      iszero\n      tag_108\n      jumpi\n      dup1\n      0x1f\n      lt\n      tag_109\n      jumpi\n      0x0100\n      dup1\n      dup4\n      sload\n      div\n      mul\n      dup4\n      mstore\n      swap2\n      0x20\n      add\n      swap2\n      jump(tag_108)\n    tag_109:\n      dup3\n      add\n      swap2\n      swap1\n      0x00\n      mstore\n      keccak256(0x00, 0x20)\n      swap1\n    tag_110:\n      dup2\n      sload\n      dup2\n      mstore\n      swap1\n      0x01\n      add\n      swap1\n      0x20\n      add\n      dup1\n      dup4\n      gt\n      tag_110\n      jumpi\n      dup3\n      swap1\n      sub\n      0x1f\n      and\n      dup3\n      add\n      swap2\n    tag_108:\n      pop\n      pop\n      pop\n      pop\n      pop\n      dup2\n      mstore\n      0x20\n      add\n      0x02\n      dup3\n      add\n      dup1\n      sload\n      tag_111\n      swap1\n      tag_77\n      jump\t// in\n    tag_111:\n      dup1\n      0x1f\n      add\n      0x20\n      dup1\n      swap2\n      div\n      mul\n      0x20\n      add\n      mload(0x40)\n      swap1\n      dup2\n      add\n      0x40\n      mstore\n      dup1\n      swap3\n      swap2\n      swap1\n      dup2\n      dup2\n      mstore\n      0x20\n      add\n      dup3\n      dup1\n      sload\n      tag_112\n      swap1\n      tag_77\n      jump\t// in\n    tag_112:\n      dup1\n      iszero\n      tag_113\n      jumpi\n      dup1\n      0x1f\n      lt\n      tag_114\n      jumpi\n      0x0100\n      dup1\n      dup4\n      sload\n      div\n      mul\n      dup4\n      mstore\n      swap2\n      0x20\n      add\n      swap2\n      jump(tag_113)\n    tag_114:\n      dup3\n      add\n      swap2\n      swap1\n      0x00\n      mstore\n      keccak256(0x00, 0x20)\n      swap1\n    tag_115:\n      dup2\n      sload\n      dup2\n      mstore\n      swap1\n      0x01\n      add\n      swap1\n      0x20\n      add\n      dup1\n      dup4\n      gt\n      tag_115\n      jumpi\n      dup3\n      swap1\n      sub\n      0x1f\n      and\n      dup3\n      add\n      swap2\n    tag_113:\n      pop\n      pop\n      pop\n      pop\n      pop\n      dup2\n      mstore\n      0x20\n      add\n      0x03\n      dup3\n      add\n      dup1\n      sload\n      tag_116\n      swap1\n      tag_77\n      jump\t// in\n    tag_116:\n      dup1\n      0x1f\n      add\n      0x20\n      dup1\n      swap2\n      div\n      mul\n      0x20\n      add\n      mload(0x40)\n      swap1\n      dup2\n      add\n      0x40\n      mstore\n      dup1\n      swap3\n      swap2\n      swap1\n      dup2\n      dup2\n      mstore\n      0x20\n      add\n      dup3\n      dup1\n      sload\n      tag_117\n      swap1\n      tag_77\n      jump\t// in\n    tag_117:\n      dup1\n      iszero\n      tag_118\n      jumpi\n      dup1\n      0x1f\n      lt\n      tag_119\n      jumpi\n      0x0100\n      dup1\n      dup4\n      sload\n      div\n      mul\n      dup4\n      mstore\n      swap2\n      0x20\n      add\n      swap2\n      jump(tag_118)\n    tag_119:\n      dup3\n      add\n      swap2\n      swap1\n      0x00\n      mstore\n      keccak256(0x00, 0x20)\n      swap1\n    tag_120:\n      dup2\n      sload\n      dup2\n      mstore\n      swap1\n      0x01\n      add\n      swap1\n      0x20\n      add\n      dup1\n      dup4\n      gt\n      tag_120\n      jumpi\n      dup3\n      swap1\n      sub\n      0x1f\n      and\n      dup3\n      add\n      swap2\n    tag_118:\n      pop\n      pop\n      pop\n      pop\n      pop\n      dup2\n      mstore\n      0x20\n      add\n      0x04\n      dup3\n      add\n      dup1\n      sload\n      tag_121\n      swap1\n      tag_77\n      jump\t// in\n    tag_121:\n      dup1\n      0x1f\n      add\n      0x20\n      dup1\n      swap2\n      div\n      mul\n      0x20\n      add\n      mload(0x40)\n      swap1\n      dup2\n      add\n      0x40\n      mstore\n      dup1\n      swap3\n      swap2\n      swap1\n      dup2\n      dup2\n      mstore\n      0x20\n      add\n      dup3\n      dup1\n      sload\n      tag_122\n      swap1\n      tag_77\n      jump\t// in\n    tag_122:\n      dup1\n      iszero\n      tag_123\n      jumpi\n      dup1\n      0x1f\n      lt\n      tag_124\n      jumpi\n      0x0100\n      dup1\n      dup4\n      sload\n      div\n      mul\n      dup4\n      mstore\n      swap2\n      0x20\n      add\n      swap2\n      jump(tag_123)\n    tag_124:\n      dup3\n      add\n      swap2\n      swap1\n      0x00\n      mstore\n      keccak256(0x00, 0x20)\n      swap1\n    tag_125:\n      dup2\n      sload\n      dup2\n      mstore\n      swap1\n      0x01\n      add\n      swap1\n      0x20\n      add\n      dup1\n      dup4\n      gt\n      tag_125\n      jumpi\n      dup3\n      swap1\n      sub\n      0x1f\n      and\n      dup3\n      add\n      swap2\n    tag_123:\n      pop\n      pop\n      pop\n      pop\n      pop\n      dup2\n      mstore\n      pop\n      pop\n      swap1\n      pop\n        /* \"Admin.sol\":2113:2121  medicine */\n      dup1\n        /* \"Admin.sol\":2113:2126  medicine.name */\n      0x20\n      add\n      mload\n        /* \"Admin.sol\":2128:2136  medicine */\n      dup2\n        /* \"Admin.sol\":2128:2147  medicine.expiryDate */\n      0x40\n      add\n      mload\n        /* \"Admin.sol\":2149:2157  medicine */\n      dup3\n        /* \"Admin.sol\":2149:2162  medicine.dose */\n      0x80\n      add\n      mload\n        /* \"Admin.sol\":2164:2172  medicine */\n      dup4\n        /* \"Admin.sol\":2164:2178  medicine.price */\n      0x60\n      add\n      mload\n        /* \"Admin.sol\":2105:2179  return (medicine.name, medicine.expiryDate, medicine.dose, medicine.price) */\n      swap5\n      pop\n      swap5\n      pop\n      swap5\n      pop\n      swap5\n      pop\n      pop\n        /* \"Admin.sol\":1904:2186  function getMedicine(uint256 id) public view returns (string memory name, string memory expiryDate, string memory dose, string memory price) {... */\n      swap2\n      swap4\n      pop\n      swap2\n      swap4\n      jump\t// out\n        /* \"Admin.sol\":417:446  Workplace[] public workplaces */\n    tag_45:\n      0x02\n      dup2\n      dup2\n      sload\n      dup2\n      lt\n      tag_126\n      jumpi\n      0x00\n      dup1\n      revert\n    tag_126:\n      swap1\n      0x00\n      mstore\n      keccak256(0x00, 0x20)\n      swap1\n      0x02\n      mul\n      add\n      0x00\n      swap2\n      pop\n      swap1\n      pop\n      dup1\n      0x00\n      add\n      dup1\n      sload\n      tag_128\n      swap1\n      tag_77\n      jump\t// in\n    tag_128:\n      dup1\n      0x1f\n      add\n      0x20\n      dup1\n      swap2\n      div\n      mul\n      0x20\n      add\n      mload(0x40)\n      swap1\n      dup2\n      add\n      0x40\n      mstore\n      dup1\n      swap3\n      swap2\n      swap1\n      dup2\n      dup2\n      mstore\n      0x20\n      add\n      dup3\n      dup1\n      sload\n      tag_129\n      swap1\n      tag_77\n      jump\t// in\n    tag_129:\n      dup1\n      iszero\n      tag_130\n      jumpi\n      dup1\n      0x1f\n      lt\n      tag_131\n      jumpi\n      0x0100\n      dup1\n      dup4\n      sload\n      div\n      mul\n      dup4\n      mstore\n      swap2\n      0x20\n      add\n      swap2\n      jump(tag_130)\n    tag_131:\n      dup3\n      add\n      swap2\n      swap1\n      0x00\n      mstore\n      keccak256(0x00, 0x20)\n      swap1\n    tag_132:\n      dup2\n      sload\n      dup2\n      mstore\n      swap1\n      0x01\n      add\n      swap1\n      0x20\n      add\n      dup1\n      dup4\n      gt\n      tag_132\n      jumpi\n      dup3\n      swap1\n      sub\n      0x1f\n      and\n      dup3\n      add\n      swap2\n    tag_130:\n      pop\n      pop\n      pop\n      pop\n      pop\n      swap1\n      dup1\n      0x01\n      add\n      dup1\n      sload\n      tag_133\n      swap1\n      tag_77\n      jump\t// in\n    tag_133:\n      dup1\n      0x1f\n      add\n      0x20\n      dup1\n      swap2\n      div\n      mul\n      0x20\n      add\n      mload(0x40)\n      swap1\n      dup2\n      add\n      0x40\n      mstore\n      dup1\n      swap3\n      swap2\n      swap1\n      dup2\n      dup2\n      mstore\n      0x20\n      add\n      dup3\n      dup1\n      sload\n      tag_134\n      swap1\n      tag_77\n      jump\t// in\n    tag_134:\n      dup1\n      iszero\n      tag_135\n      jumpi\n      dup1\n      0x1f\n      lt\n      tag_136\n      jumpi\n      0x0100\n      dup1\n      dup4\n      sload\n      div\n      mul\n      dup4\n      mstore\n      swap2\n      0x20\n      add\n      swap2\n      jump(tag_135)\n    tag_136:\n      dup3\n      add\n      swap2\n      swap1\n      0x00\n      mstore\n      keccak256(0x00, 0x20)\n      swap1\n    tag_137:\n      dup2\n      sload\n      dup2\n      mstore\n      swap1\n      0x01\n      add\n      swap1\n      0x20\n      add\n      dup1\n      dup4\n      gt\n      tag_137\n      jumpi\n      dup3\n      swap1\n      sub\n      0x1f\n      and\n      dup3\n      add\n      swap2\n    tag_135:\n      pop\n      pop\n      pop\n      pop\n      pop\n      swap1\n      pop\n      dup3\n      jump\t// out\n        /* \"Admin.sol\":452:497  mapping(uint256 => Medicine) public medicines */\n    tag_50:\n      mstore(0x20, 0x03)\n      dup1\n      0x00\n      mstore\n      keccak256(0x00, 0x40)\n      0x00\n      swap2\n      pop\n      swap1\n      pop\n      dup1\n      0x00\n      add\n      sload\n      swap1\n      dup1\n      0x01\n      add\n      dup1\n      sload\n      tag_138\n      swap1\n      tag_77\n      jump\t// in\n    tag_138:\n      dup1\n      0x1f\n      add\n      0x20\n      dup1\n      swap2\n      div\n      mul\n      0x20\n      add\n      mload(0x40)\n      swap1\n      dup2\n      add\n      0x40\n      mstore\n      dup1\n      swap3\n      swap2\n      swap1\n      dup2\n      dup2\n      mstore\n      0x20\n      add\n      dup3\n      dup1\n      sload\n      tag_139\n      swap1\n      tag_77\n      jump\t// in\n    tag_139:\n      dup1\n      iszero\n      tag_140\n      jumpi\n      dup1\n      0x1f\n      lt\n      tag_141\n      jumpi\n      0x0100\n      dup1\n      dup4\n      sload\n      div\n      mul\n      dup4\n      mstore\n      swap2\n      0x20\n      add\n      swap2\n      jump(tag_140)\n    tag_141:\n      dup3\n      add\n      swap2\n      swap1\n      0x00\n      mstore\n      keccak256(0x00, 0x20)\n      swap1\n    tag_142:\n      dup2\n      sload\n      dup2\n      mstore\n      swap1\n      0x01\n      add\n      swap1\n      0x20\n      add\n      dup1\n      dup4\n      gt\n      tag_142\n      jumpi\n      dup3\n      swap1\n      sub\n      0x1f\n      and\n      dup3\n      add\n      swap2\n    tag_140:\n      pop\n      pop\n      pop\n      pop\n      pop\n      swap1\n      dup1\n      0x02\n      add\n      dup1\n      sload\n      tag_143\n      swap1\n      tag_77\n      jump\t// in\n    tag_143:\n      dup1\n      0x1f\n      add\n      0x20\n      dup1\n      swap2\n      div\n      mul\n      0x20\n      add\n      mload(0x40)\n      swap1\n      dup2\n      add\n      0x40\n      mstore\n      dup1\n      swap3\n      swap2\n      swap1\n      dup2\n      dup2\n      mstore\n      0x20\n      add\n      dup3\n      dup1\n      sload\n      tag_144\n      swap1\n      tag_77\n      jump\t// in\n    tag_144:\n      dup1\n      iszero\n      tag_145\n      jumpi\n      dup1\n      0x1f\n      lt\n      tag_146\n      jumpi\n      0x0100\n      dup1\n      dup4\n      sload\n      div\n      mul\n      dup4\n      mstore\n      swap2\n      0x20\n      add\n      swap2\n      jump(tag_145)\n    tag_146:\n      dup3\n      add\n      swap2\n      swap1\n      0x00\n      mstore\n      keccak256(0x00, 0x20)\n      swap1\n    tag_147:\n      dup2\n      sload\n      dup2\n      mstore\n      swap1\n      0x01\n      add\n      swap1\n      0x20\n      add\n      dup1\n      dup4\n      gt\n      tag_147\n      jumpi\n      dup3\n      swap1\n      sub\n      0x1f\n      and\n      dup3\n      add\n      swap2\n    tag_145:\n      pop\n      pop\n      pop\n      pop\n      pop\n      swap1\n      dup1\n      0x03\n      add\n      dup1\n      sload\n      tag_148\n      swap1\n      tag_77\n      jump\t// in\n    tag_148:\n      dup1\n      0x1f\n      add\n      0x20\n      dup1\n      swap2\n      div\n      mul\n      0x20\n      add\n      mload(0x40)\n      swap1\n      dup2\n      add\n      0x40\n      mstore\n      dup1\n      swap3\n      swap2\n      swap1\n      dup2\n      dup2\n      mstore\n      0x20\n      add\n      dup3\n      dup1\n      sload\n      tag_149\n      swap1\n      tag_77\n      jump\t// in\n    tag_149:\n      dup1\n      iszero\n      tag_150\n      jumpi\n      dup1\n      0x1f\n      lt\n      tag_151\n      jumpi\n      0x0100\n      dup1\n      dup4\n      sload\n      div\n      mul\n      dup4\n      mstore\n      swap2\n      0x20\n      add\n      swap2\n      jump(tag_150)\n    tag_151:\n      dup3\n      add\n      swap2\n      swap1\n      0x00\n      mstore\n      keccak256(0x00, 0x20)\n      swap1\n    tag_152:\n      dup2\n      sload\n      dup2\n      mstore\n      swap1\n      0x01\n      add\n      swap1\n      0x20\n      add\n      dup1\n      dup4\n      gt\n      tag_152\n      jumpi\n      dup3\n      swap1\n      sub\n      0x1f\n      and\n      dup3\n      add\n      swap2\n    tag_150:\n      pop\n      pop\n      pop\n      pop\n      pop\n      swap1\n      dup1\n      0x04\n      add\n      dup1\n      sload\n      tag_153\n      swap1\n      tag_77\n      jump\t// in\n    tag_153:\n      dup1\n      0x1f\n      add\n      0x20\n      dup1\n      swap2\n      div\n      mul\n      0x20\n      add\n      mload(0x40)\n      swap1\n      dup2\n      add\n      0x40\n      mstore\n      dup1\n      swap3\n      swap2\n      swap1\n      dup2\n      dup2\n      mstore\n      0x20\n      add\n      dup3\n      dup1\n      sload\n      tag_154\n      swap1\n      tag_77\n      jump\t// in\n    tag_154:\n      dup1\n      iszero\n      tag_155\n      jumpi\n      dup1\n      0x1f\n      lt\n      tag_156\n      jumpi\n      0x0100\n      dup1\n      dup4\n      sload\n      div\n      mul\n      dup4\n      mstore\n      swap2\n      0x20\n      add\n      swap2\n      jump(tag_155)\n    tag_156:\n      dup3\n      add\n      swap2\n      swap1\n      0x00\n      mstore\n      keccak256(0x00, 0x20)\n      swap1\n    tag_157:\n      dup2\n      sload\n      dup2\n      mstore\n      swap1\n      0x01\n      add\n      swap1\n      0x20\n      add\n      dup1\n      dup4\n      gt\n      tag_157\n      jumpi\n      dup3\n      swap1\n      sub\n      0x1f\n      and\n      dup3\n      add\n      swap2\n    tag_155:\n      pop\n      pop\n      pop\n      pop\n      pop\n      swap1\n      pop\n      dup6\n      jump\t// out\n        /* \"Admin.sol\":1287:1521  function addDisease(string memory _name) public virtual {... */\n    tag_56:\n        /* \"Admin.sol\":1353:1378  Disease memory newDisease */\n      0x00\n        /* \"Admin.sol\":1381:1455  Disease({... */\n      mload(0x40)\n      dup1\n      0x40\n      add\n      0x40\n      mstore\n      dup1\n        /* \"Admin.sol\":1407:1419  diseaseCount */\n      sload(0x01)\n        /* \"Admin.sol\":1381:1455  Disease({... */\n      dup2\n      mstore\n      0x20\n      add\n        /* \"Admin.sol\":1439:1444  _name */\n      dup4\n        /* \"Admin.sol\":1381:1455  Disease({... */\n      dup2\n      mstore\n      pop\n        /* \"Admin.sol\":1353:1455  Disease memory newDisease = Disease({... */\n      swap1\n      pop\n        /* \"Admin.sol\":1465:1477  diseaseCount */\n      0x01\n      0x00\n        /* \"Admin.sol\":1465:1479  diseaseCount++ */\n      dup2\n      sload\n      dup1\n      swap3\n      swap2\n      swap1\n      tag_159\n      swap1\n      tag_73\n      jump\t// in\n    tag_159:\n      swap2\n      swap1\n      pop\n      sstore\n      pop\n        /* \"Admin.sol\":1489:1497  diseases */\n      0x04\n        /* \"Admin.sol\":1503:1513  newDisease */\n      dup2\n        /* \"Admin.sol\":1489:1514  diseases.push(newDisease) */\n      swap1\n      dup1\n      0x01\n      dup2\n      sload\n      add\n      dup1\n      dup3\n      sstore\n      dup1\n      swap2\n      pop\n      pop\n      0x01\n      swap1\n      sub\n      swap1\n      0x00\n      mstore\n      keccak256(0x00, 0x20)\n      swap1\n      0x02\n      mul\n      add\n      0x00\n      swap1\n      swap2\n      swap1\n      swap2\n      swap1\n      swap2\n      pop\n      0x00\n      dup3\n      add\n      mload\n      dup2\n      0x00\n      add\n      sstore\n      0x20\n      dup3\n      add\n      mload\n      dup2\n      0x01\n      add\n      swap1\n      dup2\n      tag_161\n      swap2\n      swap1\n      tag_68\n      jump\t// in\n    tag_161:\n      pop\n      pop\n      pop\n        /* \"Admin.sol\":1343:1521  {... */\n      pop\n        /* \"Admin.sol\":1287:1521  function addDisease(string memory _name) public virtual {... */\n      pop\n      jump\t// out\n        /* \"Admin.sol\":751:862  function getAllWorkplaces() public view virtual returns (Workplace[] memory) {... */\n    tag_58:\n        /* \"Admin.sol\":808:826  Workplace[] memory */\n      0x60\n        /* \"Admin.sol\":845:855  workplaces */\n      0x02\n        /* \"Admin.sol\":838:855  return workplaces */\n      dup1\n      sload\n      dup1\n      0x20\n      mul\n      0x20\n      add\n      mload(0x40)\n      swap1\n      dup2\n      add\n      0x40\n      mstore\n      dup1\n      swap3\n      swap2\n      swap1\n      dup2\n      dup2\n      mstore\n      0x20\n      add\n      0x00\n      swap1\n    tag_163:\n      dup3\n      dup3\n      lt\n      iszero\n      tag_164\n      jumpi\n      dup4\n      dup3\n      swap1\n      0x00\n      mstore\n      keccak256(0x00, 0x20)\n      swap1\n      0x02\n      mul\n      add\n      mload(0x40)\n      dup1\n      0x40\n      add\n      0x40\n      mstore\n      swap1\n      dup2\n      0x00\n      dup3\n      add\n      dup1\n      sload\n      tag_166\n      swap1\n      tag_77\n      jump\t// in\n    tag_166:\n      dup1\n      0x1f\n      add\n      0x20\n      dup1\n      swap2\n      div\n      mul\n      0x20\n      add\n      mload(0x40)\n      swap1\n      dup2\n      add\n      0x40\n      mstore\n      dup1\n      swap3\n      swap2\n      swap1\n      dup2\n      dup2\n      mstore\n      0x20\n      add\n      dup3\n      dup1\n      sload\n      tag_167\n      swap1\n      tag_77\n      jump\t// in\n    tag_167:\n      dup1\n      iszero\n      tag_168\n      jumpi\n      dup1\n      0x1f\n      lt\n      tag_169\n      jumpi\n      0x0100\n      dup1\n      dup4\n      sload\n      div\n      mul\n      dup4\n      mstore\n      swap2\n      0x20\n      add\n      swap2\n      jump(tag_168)\n    tag_169:\n      dup3\n      add\n      swap2\n      swap1\n      0x00\n      mstore\n      keccak256(0x00, 0x20)\n      swap1\n    tag_170:\n      dup2\n      sload\n      dup2\n      mstore\n      swap1\n      0x01\n      add\n      swap1\n      0x20\n      add\n      dup1\n      dup4\n      gt\n      tag_170\n      jumpi\n      dup3\n      swap1\n      sub\n      0x1f\n      and\n      dup3\n      add\n      swap2\n    tag_168:\n      pop\n      pop\n      pop\n      pop\n      pop\n      dup2\n      mstore\n      0x20\n      add\n      0x01\n      dup3\n      add\n      dup1\n      sload\n      tag_171\n      swap1\n      tag_77\n      jump\t// in\n    tag_171:\n      dup1\n      0x1f\n      add\n      0x20\n      dup1\n      swap2\n      div\n      mul\n      0x20\n      add\n      mload(0x40)\n      swap1\n      dup2\n      add\n      0x40\n      mstore\n      dup1\n      swap3\n      swap2\n      swap1\n      dup2\n      dup2\n      mstore\n      0x20\n      add\n      dup3\n      dup1\n      sload\n      tag_172\n      swap1\n      tag_77\n      jump\t// in\n    tag_172:\n      dup1\n      iszero\n      tag_173\n      jumpi\n      dup1\n      0x1f\n      lt\n      tag_174\n      jumpi\n      0x0100\n      dup1\n      dup4\n      sload\n      div\n      mul\n      dup4\n      mstore\n      swap2\n      0x20\n      add\n      swap2\n      jump(tag_173)\n    tag_174:\n      dup3\n      add\n      swap2\n      swap1\n      0x00\n      mstore\n      keccak256(0x00, 0x20)\n      swap1\n    tag_175:\n      dup2\n      sload\n      dup2\n      mstore\n      swap1\n      0x01\n      add\n      swap1\n      0x20\n      add\n      dup1\n      dup4\n      gt\n      tag_175\n      jumpi\n      dup3\n      swap1\n      sub\n      0x1f\n      and\n      dup3\n      add\n      swap2\n    tag_173:\n      pop\n      pop\n      pop\n      pop\n      pop\n      dup2\n      mstore\n      pop\n      pop\n      dup2\n      mstore\n      0x20\n      add\n      swap1\n      0x01\n      add\n      swap1\n      jump(tag_163)\n    tag_164:\n      pop\n      pop\n      pop\n      pop\n      swap1\n      pop\n        /* \"Admin.sol\":751:862  function getAllWorkplaces() public view virtual returns (Workplace[] memory) {... */\n      swap1\n      jump\t// out\n        /* \"Admin.sol\":1763:1898  function checkMedicineExists(uint256 id) public view virtual returns (bool) {... */\n    tag_63:\n        /* \"Admin.sol\":1833:1837  bool */\n      0x00\n        /* \"Admin.sol\":1890:1891  0 */\n      dup1\n        /* \"Admin.sol\":1861:1870  medicines */\n      0x03\n        /* \"Admin.sol\":1861:1874  medicines[id] */\n      0x00\n        /* \"Admin.sol\":1871:1873  id */\n      dup5\n        /* \"Admin.sol\":1861:1874  medicines[id] */\n      dup2\n      mstore\n      0x20\n      add\n      swap1\n      dup2\n      mstore\n      0x20\n      add\n      0x00\n      keccak256\n        /* \"Admin.sol\":1861:1879  medicines[id].name */\n      0x01\n      add\n        /* \"Admin.sol\":1855:1887  bytes(medicines[id].name).length */\n      dup1\n      sload\n      tag_177\n      swap1\n      tag_77\n      jump\t// in\n    tag_177:\n      swap1\n      pop\n        /* \"Admin.sol\":1855:1891  bytes(medicines[id].name).length > 0 */\n      gt\n        /* \"Admin.sol\":1848:1891  return bytes(medicines[id].name).length > 0 */\n      swap1\n      pop\n        /* \"Admin.sol\":1763:1898  function checkMedicineExists(uint256 id) public view virtual returns (bool) {... */\n      swap2\n      swap1\n      pop\n      jump\t// out\n        /* \"#utility.yul\":7:82   */\n    tag_178:\n        /* \"#utility.yul\":40:46   */\n      0x00\n        /* \"#utility.yul\":73:75   */\n      0x40\n        /* \"#utility.yul\":67:76   */\n      mload\n        /* \"#utility.yul\":57:76   */\n      swap1\n      pop\n        /* \"#utility.yul\":7:82   */\n      swap1\n      jump\t// out\n        /* \"#utility.yul\":88:205   */\n    tag_179:\n        /* \"#utility.yul\":197:198   */\n      0x00\n        /* \"#utility.yul\":194:195   */\n      dup1\n        /* \"#utility.yul\":187:199   */\n      revert\n        /* \"#utility.yul\":211:328   */\n    tag_180:\n        /* \"#utility.yul\":320:321   */\n      0x00\n        /* \"#utility.yul\":317:318   */\n      dup1\n        /* \"#utility.yul\":310:322   */\n      revert\n        /* \"#utility.yul\":334:451   */\n    tag_181:\n        /* \"#utility.yul\":443:444   */\n      0x00\n        /* \"#utility.yul\":440:441   */\n      dup1\n        /* \"#utility.yul\":433:445   */\n      revert\n        /* \"#utility.yul\":457:574   */\n    tag_182:\n        /* \"#utility.yul\":566:567   */\n      0x00\n        /* \"#utility.yul\":563:564   */\n      dup1\n        /* \"#utility.yul\":556:568   */\n      revert\n        /* \"#utility.yul\":580:682   */\n    tag_183:\n        /* \"#utility.yul\":621:627   */\n      0x00\n        /* \"#utility.yul\":672:674   */\n      0x1f\n        /* \"#utility.yul\":668:675   */\n      not\n        /* \"#utility.yul\":663:665   */\n      0x1f\n        /* \"#utility.yul\":656:661   */\n      dup4\n        /* \"#utility.yul\":652:666   */\n      add\n        /* \"#utility.yul\":648:676   */\n      and\n        /* \"#utility.yul\":638:676   */\n      swap1\n      pop\n        /* \"#utility.yul\":580:682   */\n      swap2\n      swap1\n      pop\n      jump\t// out\n        /* \"#utility.yul\":688:868   */\n    tag_184:\n        /* \"#utility.yul\":736:813   */\n      0x4e487b7100000000000000000000000000000000000000000000000000000000\n        /* \"#utility.yul\":733:734   */\n      0x00\n        /* \"#utility.yul\":726:814   */\n      mstore\n        /* \"#utility.yul\":833:837   */\n      0x41\n        /* \"#utility.yul\":830:831   */\n      0x04\n        /* \"#utility.yul\":823:838   */\n      mstore\n        /* \"#utility.yul\":857:861   */\n      0x24\n        /* \"#utility.yul\":854:855   */\n      0x00\n        /* \"#utility.yul\":847:862   */\n      revert\n        /* \"#utility.yul\":874:1155   */\n    tag_185:\n        /* \"#utility.yul\":957:984   */\n      tag_244\n        /* \"#utility.yul\":979:983   */\n      dup3\n        /* \"#utility.yul\":957:984   */\n      tag_183\n      jump\t// in\n    tag_244:\n        /* \"#utility.yul\":949:955   */\n      dup2\n        /* \"#utility.yul\":945:985   */\n      add\n        /* \"#utility.yul\":1087:1093   */\n      dup2\n        /* \"#utility.yul\":1075:1085   */\n      dup2\n        /* \"#utility.yul\":1072:1094   */\n      lt\n        /* \"#utility.yul\":1051:1069   */\n      0xffffffffffffffff\n        /* \"#utility.yul\":1039:1049   */\n      dup3\n        /* \"#utility.yul\":1036:1070   */\n      gt\n        /* \"#utility.yul\":1033:1095   */\n      or\n        /* \"#utility.yul\":1030:1118   */\n      iszero\n      tag_245\n      jumpi\n        /* \"#utility.yul\":1098:1116   */\n      tag_246\n      tag_184\n      jump\t// in\n    tag_246:\n        /* \"#utility.yul\":1030:1118   */\n    tag_245:\n        /* \"#utility.yul\":1138:1148   */\n      dup1\n        /* \"#utility.yul\":1134:1136   */\n      0x40\n        /* \"#utility.yul\":1127:1149   */\n      mstore\n        /* \"#utility.yul\":917:1155   */\n      pop\n        /* \"#utility.yul\":874:1155   */\n      pop\n      pop\n      jump\t// out\n        /* \"#utility.yul\":1161:1290   */\n    tag_186:\n        /* \"#utility.yul\":1195:1201   */\n      0x00\n        /* \"#utility.yul\":1222:1242   */\n      tag_248\n      tag_178\n      jump\t// in\n    tag_248:\n        /* \"#utility.yul\":1212:1242   */\n      swap1\n      pop\n        /* \"#utility.yul\":1251:1284   */\n      tag_249\n        /* \"#utility.yul\":1279:1283   */\n      dup3\n        /* \"#utility.yul\":1271:1277   */\n      dup3\n        /* \"#utility.yul\":1251:1284   */\n      tag_185\n      jump\t// in\n    tag_249:\n        /* \"#utility.yul\":1161:1290   */\n      swap2\n      swap1\n      pop\n      jump\t// out\n        /* \"#utility.yul\":1296:1604   */\n    tag_187:\n        /* \"#utility.yul\":1358:1362   */\n      0x00\n        /* \"#utility.yul\":1448:1466   */\n      0xffffffffffffffff\n        /* \"#utility.yul\":1440:1446   */\n      dup3\n        /* \"#utility.yul\":1437:1467   */\n      gt\n        /* \"#utility.yul\":1434:1490   */\n      iszero\n      tag_251\n      jumpi\n        /* \"#utility.yul\":1470:1488   */\n      tag_252\n      tag_184\n      jump\t// in\n    tag_252:\n        /* \"#utility.yul\":1434:1490   */\n    tag_251:\n        /* \"#utility.yul\":1508:1537   */\n      tag_253\n        /* \"#utility.yul\":1530:1536   */\n      dup3\n        /* \"#utility.yul\":1508:1537   */\n      tag_183\n      jump\t// in\n    tag_253:\n        /* \"#utility.yul\":1500:1537   */\n      swap1\n      pop\n        /* \"#utility.yul\":1592:1596   */\n      0x20\n        /* \"#utility.yul\":1586:1590   */\n      dup2\n        /* \"#utility.yul\":1582:1597   */\n      add\n        /* \"#utility.yul\":1574:1597   */\n      swap1\n      pop\n        /* \"#utility.yul\":1296:1604   */\n      swap2\n      swap1\n      pop\n      jump\t// out\n        /* \"#utility.yul\":1610:1756   */\n    tag_188:\n        /* \"#utility.yul\":1707:1713   */\n      dup3\n        /* \"#utility.yul\":1702:1705   */\n      dup2\n        /* \"#utility.yul\":1697:1700   */\n      dup4\n        /* \"#utility.yul\":1684:1714   */\n      calldatacopy\n        /* \"#utility.yul\":1748:1749   */\n      0x00\n        /* \"#utility.yul\":1739:1745   */\n      dup4\n        /* \"#utility.yul\":1734:1737   */\n      dup4\n        /* \"#utility.yul\":1730:1746   */\n      add\n        /* \"#utility.yul\":1723:1750   */\n      mstore\n        /* \"#utility.yul\":1610:1756   */\n      pop\n      pop\n      pop\n      jump\t// out\n        /* \"#utility.yul\":1762:2187   */\n    tag_189:\n        /* \"#utility.yul\":1840:1845   */\n      0x00\n        /* \"#utility.yul\":1865:1931   */\n      tag_256\n        /* \"#utility.yul\":1881:1930   */\n      tag_257\n        /* \"#utility.yul\":1923:1929   */\n      dup5\n        /* \"#utility.yul\":1881:1930   */\n      tag_187\n      jump\t// in\n    tag_257:\n        /* \"#utility.yul\":1865:1931   */\n      tag_186\n      jump\t// in\n    tag_256:\n        /* \"#utility.yul\":1856:1931   */\n      swap1\n      pop\n        /* \"#utility.yul\":1954:1960   */\n      dup3\n        /* \"#utility.yul\":1947:1952   */\n      dup2\n        /* \"#utility.yul\":1940:1961   */\n      mstore\n        /* \"#utility.yul\":1992:1996   */\n      0x20\n        /* \"#utility.yul\":1985:1990   */\n      dup2\n        /* \"#utility.yul\":1981:1997   */\n      add\n        /* \"#utility.yul\":2030:2033   */\n      dup5\n        /* \"#utility.yul\":2021:2027   */\n      dup5\n        /* \"#utility.yul\":2016:2019   */\n      dup5\n        /* \"#utility.yul\":2012:2028   */\n      add\n        /* \"#utility.yul\":2009:2034   */\n      gt\n        /* \"#utility.yul\":2006:2118   */\n      iszero\n      tag_258\n      jumpi\n        /* \"#utility.yul\":2037:2116   */\n      tag_259\n      tag_182\n      jump\t// in\n    tag_259:\n        /* \"#utility.yul\":2006:2118   */\n    tag_258:\n        /* \"#utility.yul\":2127:2181   */\n      tag_260\n        /* \"#utility.yul\":2174:2180   */\n      dup5\n        /* \"#utility.yul\":2169:2172   */\n      dup3\n        /* \"#utility.yul\":2164:2167   */\n      dup6\n        /* \"#utility.yul\":2127:2181   */\n      tag_188\n      jump\t// in\n    tag_260:\n        /* \"#utility.yul\":1846:2187   */\n      pop\n        /* \"#utility.yul\":1762:2187   */\n      swap4\n      swap3\n      pop\n      pop\n      pop\n      jump\t// out\n        /* \"#utility.yul\":2207:2547   */\n    tag_190:\n        /* \"#utility.yul\":2263:2268   */\n      0x00\n        /* \"#utility.yul\":2312:2315   */\n      dup3\n        /* \"#utility.yul\":2305:2309   */\n      0x1f\n        /* \"#utility.yul\":2297:2303   */\n      dup4\n        /* \"#utility.yul\":2293:2310   */\n      add\n        /* \"#utility.yul\":2289:2316   */\n      slt\n        /* \"#utility.yul\":2279:2401   */\n      tag_262\n      jumpi\n        /* \"#utility.yul\":2320:2399   */\n      tag_263\n      tag_181\n      jump\t// in\n    tag_263:\n        /* \"#utility.yul\":2279:2401   */\n    tag_262:\n        /* \"#utility.yul\":2437:2443   */\n      dup2\n        /* \"#utility.yul\":2424:2444   */\n      calldataload\n        /* \"#utility.yul\":2462:2541   */\n      tag_264\n        /* \"#utility.yul\":2537:2540   */\n      dup5\n        /* \"#utility.yul\":2529:2535   */\n      dup3\n        /* \"#utility.yul\":2522:2526   */\n      0x20\n        /* \"#utility.yul\":2514:2520   */\n      dup7\n        /* \"#utility.yul\":2510:2527   */\n      add\n        /* \"#utility.yul\":2462:2541   */\n      tag_189\n      jump\t// in\n    tag_264:\n        /* \"#utility.yul\":2453:2541   */\n      swap2\n      pop\n        /* \"#utility.yul\":2269:2547   */\n      pop\n        /* \"#utility.yul\":2207:2547   */\n      swap3\n      swap2\n      pop\n      pop\n      jump\t// out\n        /* \"#utility.yul\":2553:4038   */\n    tag_17:\n        /* \"#utility.yul\":2679:2685   */\n      0x00\n        /* \"#utility.yul\":2687:2693   */\n      dup1\n        /* \"#utility.yul\":2695:2701   */\n      0x00\n        /* \"#utility.yul\":2703:2709   */\n      dup1\n        /* \"#utility.yul\":2752:2755   */\n      0x80\n        /* \"#utility.yul\":2740:2749   */\n      dup6\n        /* \"#utility.yul\":2731:2738   */\n      dup8\n        /* \"#utility.yul\":2727:2750   */\n      sub\n        /* \"#utility.yul\":2723:2756   */\n      slt\n        /* \"#utility.yul\":2720:2840   */\n      iszero\n      tag_266\n      jumpi\n        /* \"#utility.yul\":2759:2838   */\n      tag_267\n      tag_179\n      jump\t// in\n    tag_267:\n        /* \"#utility.yul\":2720:2840   */\n    tag_266:\n        /* \"#utility.yul\":2907:2908   */\n      0x00\n        /* \"#utility.yul\":2896:2905   */\n      dup6\n        /* \"#utility.yul\":2892:2909   */\n      add\n        /* \"#utility.yul\":2879:2910   */\n      calldataload\n        /* \"#utility.yul\":2937:2955   */\n      0xffffffffffffffff\n        /* \"#utility.yul\":2929:2935   */\n      dup2\n        /* \"#utility.yul\":2926:2956   */\n      gt\n        /* \"#utility.yul\":2923:3040   */\n      iszero\n      tag_268\n      jumpi\n        /* \"#utility.yul\":2959:3038   */\n      tag_269\n      tag_180\n      jump\t// in\n    tag_269:\n        /* \"#utility.yul\":2923:3040   */\n    tag_268:\n        /* \"#utility.yul\":3064:3127   */\n      tag_270\n        /* \"#utility.yul\":3119:3126   */\n      dup8\n        /* \"#utility.yul\":3110:3116   */\n      dup3\n        /* \"#utility.yul\":3099:3108   */\n      dup9\n        /* \"#utility.yul\":3095:3117   */\n      add\n        /* \"#utility.yul\":3064:3127   */\n      tag_190\n      jump\t// in\n    tag_270:\n        /* \"#utility.yul\":3054:3127   */\n      swap5\n      pop\n        /* \"#utility.yul\":2850:3137   */\n      pop\n        /* \"#utility.yul\":3204:3206   */\n      0x20\n        /* \"#utility.yul\":3193:3202   */\n      dup6\n        /* \"#utility.yul\":3189:3207   */\n      add\n        /* \"#utility.yul\":3176:3208   */\n      calldataload\n        /* \"#utility.yul\":3235:3253   */\n      0xffffffffffffffff\n        /* \"#utility.yul\":3227:3233   */\n      dup2\n        /* \"#utility.yul\":3224:3254   */\n      gt\n        /* \"#utility.yul\":3221:3338   */\n      iszero\n      tag_271\n      jumpi\n        /* \"#utility.yul\":3257:3336   */\n      tag_272\n      tag_180\n      jump\t// in\n    tag_272:\n        /* \"#utility.yul\":3221:3338   */\n    tag_271:\n        /* \"#utility.yul\":3362:3425   */\n      tag_273\n        /* \"#utility.yul\":3417:3424   */\n      dup8\n        /* \"#utility.yul\":3408:3414   */\n      dup3\n        /* \"#utility.yul\":3397:3406   */\n      dup9\n        /* \"#utility.yul\":3393:3415   */\n      add\n        /* \"#utility.yul\":3362:3425   */\n      tag_190\n      jump\t// in\n    tag_273:\n        /* \"#utility.yul\":3352:3425   */\n      swap4\n      pop\n        /* \"#utility.yul\":3147:3435   */\n      pop\n        /* \"#utility.yul\":3502:3504   */\n      0x40\n        /* \"#utility.yul\":3491:3500   */\n      dup6\n        /* \"#utility.yul\":3487:3505   */\n      add\n        /* \"#utility.yul\":3474:3506   */\n      calldataload\n        /* \"#utility.yul\":3533:3551   */\n      0xffffffffffffffff\n        /* \"#utility.yul\":3525:3531   */\n      dup2\n        /* \"#utility.yul\":3522:3552   */\n      gt\n        /* \"#utility.yul\":3519:3636   */\n      iszero\n      tag_274\n      jumpi\n        /* \"#utility.yul\":3555:3634   */\n      tag_275\n      tag_180\n      jump\t// in\n    tag_275:\n        /* \"#utility.yul\":3519:3636   */\n    tag_274:\n        /* \"#utility.yul\":3660:3723   */\n      tag_276\n        /* \"#utility.yul\":3715:3722   */\n      dup8\n        /* \"#utility.yul\":3706:3712   */\n      dup3\n        /* \"#utility.yul\":3695:3704   */\n      dup9\n        /* \"#utility.yul\":3691:3713   */\n      add\n        /* \"#utility.yul\":3660:3723   */\n      tag_190\n      jump\t// in\n    tag_276:\n        /* \"#utility.yul\":3650:3723   */\n      swap3\n      pop\n        /* \"#utility.yul\":3445:3733   */\n      pop\n        /* \"#utility.yul\":3800:3802   */\n      0x60\n        /* \"#utility.yul\":3789:3798   */\n      dup6\n        /* \"#utility.yul\":3785:3803   */\n      add\n        /* \"#utility.yul\":3772:3804   */\n      calldataload\n        /* \"#utility.yul\":3831:3849   */\n      0xffffffffffffffff\n        /* \"#utility.yul\":3823:3829   */\n      dup2\n        /* \"#utility.yul\":3820:3850   */\n      gt\n        /* \"#utility.yul\":3817:3934   */\n      iszero\n      tag_277\n      jumpi\n        /* \"#utility.yul\":3853:3932   */\n      tag_278\n      tag_180\n      jump\t// in\n    tag_278:\n        /* \"#utility.yul\":3817:3934   */\n    tag_277:\n        /* \"#utility.yul\":3958:4021   */\n      tag_279\n        /* \"#utility.yul\":4013:4020   */\n      dup8\n        /* \"#utility.yul\":4004:4010   */\n      dup3\n        /* \"#utility.yul\":3993:4002   */\n      dup9\n        /* \"#utility.yul\":3989:4011   */\n      add\n        /* \"#utility.yul\":3958:4021   */\n      tag_190\n      jump\t// in\n    tag_279:\n        /* \"#utility.yul\":3948:4021   */\n      swap2\n      pop\n        /* \"#utility.yul\":3743:4031   */\n      pop\n        /* \"#utility.yul\":2553:4038   */\n      swap3\n      swap6\n      swap2\n      swap5\n      pop\n      swap3\n      pop\n      jump\t// out\n        /* \"#utility.yul\":4044:4121   */\n    tag_191:\n        /* \"#utility.yul\":4081:4088   */\n      0x00\n        /* \"#utility.yul\":4110:4115   */\n      dup2\n        /* \"#utility.yul\":4099:4115   */\n      swap1\n      pop\n        /* \"#utility.yul\":4044:4121   */\n      swap2\n      swap1\n      pop\n      jump\t// out\n        /* \"#utility.yul\":4127:4249   */\n    tag_192:\n        /* \"#utility.yul\":4200:4224   */\n      tag_282\n        /* \"#utility.yul\":4218:4223   */\n      dup2\n        /* \"#utility.yul\":4200:4224   */\n      tag_191\n      jump\t// in\n    tag_282:\n        /* \"#utility.yul\":4193:4198   */\n      dup2\n        /* \"#utility.yul\":4190:4225   */\n      eq\n        /* \"#utility.yul\":4180:4243   */\n      tag_283\n      jumpi\n        /* \"#utility.yul\":4239:4240   */\n      0x00\n        /* \"#utility.yul\":4236:4237   */\n      dup1\n        /* \"#utility.yul\":4229:4241   */\n      revert\n        /* \"#utility.yul\":4180:4243   */\n    tag_283:\n        /* \"#utility.yul\":4127:4249   */\n      pop\n      jump\t// out\n        /* \"#utility.yul\":4255:4394   */\n    tag_193:\n        /* \"#utility.yul\":4301:4306   */\n      0x00\n        /* \"#utility.yul\":4339:4345   */\n      dup2\n        /* \"#utility.yul\":4326:4346   */\n      calldataload\n        /* \"#utility.yul\":4317:4346   */\n      swap1\n      pop\n        /* \"#utility.yul\":4355:4388   */\n      tag_285\n        /* \"#utility.yul\":4382:4387   */\n      dup2\n        /* \"#utility.yul\":4355:4388   */\n      tag_192\n      jump\t// in\n    tag_285:\n        /* \"#utility.yul\":4255:4394   */\n      swap3\n      swap2\n      pop\n      pop\n      jump\t// out\n        /* \"#utility.yul\":4400:4729   */\n    tag_21:\n        /* \"#utility.yul\":4459:4465   */\n      0x00\n        /* \"#utility.yul\":4508:4510   */\n      0x20\n        /* \"#utility.yul\":4496:4505   */\n      dup3\n        /* \"#utility.yul\":4487:4494   */\n      dup5\n        /* \"#utility.yul\":4483:4506   */\n      sub\n        /* \"#utility.yul\":4479:4511   */\n      slt\n        /* \"#utility.yul\":4476:4595   */\n      iszero\n      tag_287\n      jumpi\n        /* \"#utility.yul\":4514:4593   */\n      tag_288\n      tag_179\n      jump\t// in\n    tag_288:\n        /* \"#utility.yul\":4476:4595   */\n    tag_287:\n        /* \"#utility.yul\":4634:4635   */\n      0x00\n        /* \"#utility.yul\":4659:4712   */\n      tag_289\n        /* \"#utility.yul\":4704:4711   */\n      dup5\n        /* \"#utility.yul\":4695:4701   */\n      dup3\n        /* \"#utility.yul\":4684:4693   */\n      dup6\n        /* \"#utility.yul\":4680:4702   */\n      add\n        /* \"#utility.yul\":4659:4712   */\n      tag_193\n      jump\t// in\n    tag_289:\n        /* \"#utility.yul\":4649:4712   */\n      swap2\n      pop\n        /* \"#utility.yul\":4605:4722   */\n      pop\n        /* \"#utility.yul\":4400:4729   */\n      swap3\n      swap2\n      pop\n      pop\n      jump\t// out\n        /* \"#utility.yul\":4735:4853   */\n    tag_194:\n        /* \"#utility.yul\":4822:4846   */\n      tag_291\n        /* \"#utility.yul\":4840:4845   */\n      dup2\n        /* \"#utility.yul\":4822:4846   */\n      tag_191\n      jump\t// in\n    tag_291:\n        /* \"#utility.yul\":4817:4820   */\n      dup3\n        /* \"#utility.yul\":4810:4847   */\n      mstore\n        /* \"#utility.yul\":4735:4853   */\n      pop\n      pop\n      jump\t// out\n        /* \"#utility.yul\":4859:4958   */\n    tag_195:\n        /* \"#utility.yul\":4911:4917   */\n      0x00\n        /* \"#utility.yul\":4945:4950   */\n      dup2\n        /* \"#utility.yul\":4939:4951   */\n      mload\n        /* \"#utility.yul\":4929:4951   */\n      swap1\n      pop\n        /* \"#utility.yul\":4859:4958   */\n      swap2\n      swap1\n      pop\n      jump\t// out\n        /* \"#utility.yul\":4964:5133   */\n    tag_196:\n        /* \"#utility.yul\":5048:5059   */\n      0x00\n        /* \"#utility.yul\":5082:5088   */\n      dup3\n        /* \"#utility.yul\":5077:5080   */\n      dup3\n        /* \"#utility.yul\":5070:5089   */\n      mstore\n        /* \"#utility.yul\":5122:5126   */\n      0x20\n        /* \"#utility.yul\":5117:5120   */\n      dup3\n        /* \"#utility.yul\":5113:5127   */\n      add\n        /* \"#utility.yul\":5098:5127   */\n      swap1\n      pop\n        /* \"#utility.yul\":4964:5133   */\n      swap3\n      swap2\n      pop\n      pop\n      jump\t// out\n        /* \"#utility.yul\":5139:5385   */\n    tag_197:\n        /* \"#utility.yul\":5220:5221   */\n      0x00\n        /* \"#utility.yul\":5230:5343   */\n    tag_295:\n        /* \"#utility.yul\":5244:5250   */\n      dup4\n        /* \"#utility.yul\":5241:5242   */\n      dup2\n        /* \"#utility.yul\":5238:5251   */\n      lt\n        /* \"#utility.yul\":5230:5343   */\n      iszero\n      tag_297\n      jumpi\n        /* \"#utility.yul\":5329:5330   */\n      dup1\n        /* \"#utility.yul\":5324:5327   */\n      dup3\n        /* \"#utility.yul\":5320:5331   */\n      add\n        /* \"#utility.yul\":5314:5332   */\n      mload\n        /* \"#utility.yul\":5310:5311   */\n      dup2\n        /* \"#utility.yul\":5305:5308   */\n      dup5\n        /* \"#utility.yul\":5301:5312   */\n      add\n        /* \"#utility.yul\":5294:5333   */\n      mstore\n        /* \"#utility.yul\":5266:5268   */\n      0x20\n        /* \"#utility.yul\":5263:5264   */\n      dup2\n        /* \"#utility.yul\":5259:5269   */\n      add\n        /* \"#utility.yul\":5254:5269   */\n      swap1\n      pop\n        /* \"#utility.yul\":5230:5343   */\n      jump(tag_295)\n    tag_297:\n        /* \"#utility.yul\":5377:5378   */\n      0x00\n        /* \"#utility.yul\":5368:5374   */\n      dup5\n        /* \"#utility.yul\":5363:5366   */\n      dup5\n        /* \"#utility.yul\":5359:5375   */\n      add\n        /* \"#utility.yul\":5352:5379   */\n      mstore\n        /* \"#utility.yul\":5201:5385   */\n      pop\n        /* \"#utility.yul\":5139:5385   */\n      pop\n      pop\n      pop\n      jump\t// out\n        /* \"#utility.yul\":5391:5768   */\n    tag_198:\n        /* \"#utility.yul\":5479:5482   */\n      0x00\n        /* \"#utility.yul\":5507:5546   */\n      tag_299\n        /* \"#utility.yul\":5540:5545   */\n      dup3\n        /* \"#utility.yul\":5507:5546   */\n      tag_195\n      jump\t// in\n    tag_299:\n        /* \"#utility.yul\":5562:5633   */\n      tag_300\n        /* \"#utility.yul\":5626:5632   */\n      dup2\n        /* \"#utility.yul\":5621:5624   */\n      dup6\n        /* \"#utility.yul\":5562:5633   */\n      tag_196\n      jump\t// in\n    tag_300:\n        /* \"#utility.yul\":5555:5633   */\n      swap4\n      pop\n        /* \"#utility.yul\":5642:5707   */\n      tag_301\n        /* \"#utility.yul\":5700:5706   */\n      dup2\n        /* \"#utility.yul\":5695:5698   */\n      dup6\n        /* \"#utility.yul\":5688:5692   */\n      0x20\n        /* \"#utility.yul\":5681:5686   */\n      dup7\n        /* \"#utility.yul\":5677:5693   */\n      add\n        /* \"#utility.yul\":5642:5707   */\n      tag_197\n      jump\t// in\n    tag_301:\n        /* \"#utility.yul\":5732:5761   */\n      tag_302\n        /* \"#utility.yul\":5754:5760   */\n      dup2\n        /* \"#utility.yul\":5732:5761   */\n      tag_183\n      jump\t// in\n    tag_302:\n        /* \"#utility.yul\":5727:5730   */\n      dup5\n        /* \"#utility.yul\":5723:5762   */\n      add\n        /* \"#utility.yul\":5716:5762   */\n      swap2\n      pop\n        /* \"#utility.yul\":5483:5768   */\n      pop\n        /* \"#utility.yul\":5391:5768   */\n      swap3\n      swap2\n      pop\n      pop\n      jump\t// out\n        /* \"#utility.yul\":5774:6197   */\n    tag_24:\n        /* \"#utility.yul\":5915:5919   */\n      0x00\n        /* \"#utility.yul\":5953:5955   */\n      0x40\n        /* \"#utility.yul\":5942:5951   */\n      dup3\n        /* \"#utility.yul\":5938:5956   */\n      add\n        /* \"#utility.yul\":5930:5956   */\n      swap1\n      pop\n        /* \"#utility.yul\":5966:6037   */\n      tag_304\n        /* \"#utility.yul\":6034:6035   */\n      0x00\n        /* \"#utility.yul\":6023:6032   */\n      dup4\n        /* \"#utility.yul\":6019:6036   */\n      add\n        /* \"#utility.yul\":6010:6016   */\n      dup6\n        /* \"#utility.yul\":5966:6037   */\n      tag_194\n      jump\t// in\n    tag_304:\n        /* \"#utility.yul\":6084:6093   */\n      dup2\n        /* \"#utility.yul\":6078:6082   */\n      dup2\n        /* \"#utility.yul\":6074:6094   */\n      sub\n        /* \"#utility.yul\":6069:6071   */\n      0x20\n        /* \"#utility.yul\":6058:6067   */\n      dup4\n        /* \"#utility.yul\":6054:6072   */\n      add\n        /* \"#utility.yul\":6047:6095   */\n      mstore\n        /* \"#utility.yul\":6112:6190   */\n      tag_305\n        /* \"#utility.yul\":6185:6189   */\n      dup2\n        /* \"#utility.yul\":6176:6182   */\n      dup5\n        /* \"#utility.yul\":6112:6190   */\n      tag_198\n      jump\t// in\n    tag_305:\n        /* \"#utility.yul\":6104:6190   */\n      swap1\n      pop\n        /* \"#utility.yul\":5774:6197   */\n      swap4\n      swap3\n      pop\n      pop\n      pop\n      jump\t// out\n        /* \"#utility.yul\":6203:7037   */\n    tag_27:\n        /* \"#utility.yul\":6291:6297   */\n      0x00\n        /* \"#utility.yul\":6299:6305   */\n      dup1\n        /* \"#utility.yul\":6348:6350   */\n      0x40\n        /* \"#utility.yul\":6336:6345   */\n      dup4\n        /* \"#utility.yul\":6327:6334   */\n      dup6\n        /* \"#utility.yul\":6323:6346   */\n      sub\n        /* \"#utility.yul\":6319:6351   */\n      slt\n        /* \"#utility.yul\":6316:6435   */\n      iszero\n      tag_307\n      jumpi\n        /* \"#utility.yul\":6354:6433   */\n      tag_308\n      tag_179\n      jump\t// in\n    tag_308:\n        /* \"#utility.yul\":6316:6435   */\n    tag_307:\n        /* \"#utility.yul\":6502:6503   */\n      0x00\n        /* \"#utility.yul\":6491:6500   */\n      dup4\n        /* \"#utility.yul\":6487:6504   */\n      add\n        /* \"#utility.yul\":6474:6505   */\n      calldataload\n        /* \"#utility.yul\":6532:6550   */\n      0xffffffffffffffff\n        /* \"#utility.yul\":6524:6530   */\n      dup2\n        /* \"#utility.yul\":6521:6551   */\n      gt\n        /* \"#utility.yul\":6518:6635   */\n      iszero\n      tag_309\n      jumpi\n        /* \"#utility.yul\":6554:6633   */\n      tag_310\n      tag_180\n      jump\t// in\n    tag_310:\n        /* \"#utility.yul\":6518:6635   */\n    tag_309:\n        /* \"#utility.yul\":6659:6722   */\n      tag_311\n        /* \"#utility.yul\":6714:6721   */\n      dup6\n        /* \"#utility.yul\":6705:6711   */\n      dup3\n        /* \"#utility.yul\":6694:6703   */\n      dup7\n        /* \"#utility.yul\":6690:6712   */\n      add\n        /* \"#utility.yul\":6659:6722   */\n      tag_190\n      jump\t// in\n    tag_311:\n        /* \"#utility.yul\":6649:6722   */\n      swap3\n      pop\n        /* \"#utility.yul\":6445:6732   */\n      pop\n        /* \"#utility.yul\":6799:6801   */\n      0x20\n        /* \"#utility.yul\":6788:6797   */\n      dup4\n        /* \"#utility.yul\":6784:6802   */\n      add\n        /* \"#utility.yul\":6771:6803   */\n      calldataload\n        /* \"#utility.yul\":6830:6848   */\n      0xffffffffffffffff\n        /* \"#utility.yul\":6822:6828   */\n      dup2\n        /* \"#utility.yul\":6819:6849   */\n      gt\n        /* \"#utility.yul\":6816:6933   */\n      iszero\n      tag_312\n      jumpi\n        /* \"#utility.yul\":6852:6931   */\n      tag_313\n      tag_180\n      jump\t// in\n    tag_313:\n        /* \"#utility.yul\":6816:6933   */\n    tag_312:\n        /* \"#utility.yul\":6957:7020   */\n      tag_314\n        /* \"#utility.yul\":7012:7019   */\n      dup6\n        /* \"#utility.yul\":7003:7009   */\n      dup3\n        /* \"#utility.yul\":6992:7001   */\n      dup7\n        /* \"#utility.yul\":6988:7010   */\n      add\n        /* \"#utility.yul\":6957:7020   */\n      tag_190\n      jump\t// in\n    tag_314:\n        /* \"#utility.yul\":6947:7020   */\n      swap2\n      pop\n        /* \"#utility.yul\":6742:7030   */\n      pop\n        /* \"#utility.yul\":6203:7037   */\n      swap3\n      pop\n      swap3\n      swap1\n      pop\n      jump\t// out\n        /* \"#utility.yul\":7043:7356   */\n    tag_33:\n        /* \"#utility.yul\":7156:7160   */\n      0x00\n        /* \"#utility.yul\":7194:7196   */\n      0x20\n        /* \"#utility.yul\":7183:7192   */\n      dup3\n        /* \"#utility.yul\":7179:7197   */\n      add\n        /* \"#utility.yul\":7171:7197   */\n      swap1\n      pop\n        /* \"#utility.yul\":7243:7252   */\n      dup2\n        /* \"#utility.yul\":7237:7241   */\n      dup2\n        /* \"#utility.yul\":7233:7253   */\n      sub\n        /* \"#utility.yul\":7229:7230   */\n      0x00\n        /* \"#utility.yul\":7218:7227   */\n      dup4\n        /* \"#utility.yul\":7214:7231   */\n      add\n        /* \"#utility.yul\":7207:7254   */\n      mstore\n        /* \"#utility.yul\":7271:7349   */\n      tag_316\n        /* \"#utility.yul\":7344:7348   */\n      dup2\n        /* \"#utility.yul\":7335:7341   */\n      dup5\n        /* \"#utility.yul\":7271:7349   */\n      tag_198\n      jump\t// in\n    tag_316:\n        /* \"#utility.yul\":7263:7349   */\n      swap1\n      pop\n        /* \"#utility.yul\":7043:7356   */\n      swap3\n      swap2\n      pop\n      pop\n      jump\t// out\n        /* \"#utility.yul\":7362:7499   */\n    tag_199:\n        /* \"#utility.yul\":7452:7458   */\n      0x00\n        /* \"#utility.yul\":7486:7491   */\n      dup2\n        /* \"#utility.yul\":7480:7492   */\n      mload\n        /* \"#utility.yul\":7470:7492   */\n      swap1\n      pop\n        /* \"#utility.yul\":7362:7499   */\n      swap2\n      swap1\n      pop\n      jump\t// out\n        /* \"#utility.yul\":7505:7712   */\n    tag_200:\n        /* \"#utility.yul\":7627:7638   */\n      0x00\n        /* \"#utility.yul\":7661:7667   */\n      dup3\n        /* \"#utility.yul\":7656:7659   */\n      dup3\n        /* \"#utility.yul\":7649:7668   */\n      mstore\n        /* \"#utility.yul\":7701:7705   */\n      0x20\n        /* \"#utility.yul\":7696:7699   */\n      dup3\n        /* \"#utility.yul\":7692:7706   */\n      add\n        /* \"#utility.yul\":7677:7706   */\n      swap1\n      pop\n        /* \"#utility.yul\":7505:7712   */\n      swap3\n      swap2\n      pop\n      pop\n      jump\t// out\n        /* \"#utility.yul\":7718:7873   */\n    tag_201:\n        /* \"#utility.yul\":7808:7812   */\n      0x00\n        /* \"#utility.yul\":7831:7834   */\n      dup2\n        /* \"#utility.yul\":7823:7834   */\n      swap1\n      pop\n        /* \"#utility.yul\":7861:7865   */\n      0x20\n        /* \"#utility.yul\":7856:7859   */\n      dup3\n        /* \"#utility.yul\":7852:7866   */\n      add\n        /* \"#utility.yul\":7844:7866   */\n      swap1\n      pop\n        /* \"#utility.yul\":7718:7873   */\n      swap2\n      swap1\n      pop\n      jump\t// out\n        /* \"#utility.yul\":7879:7987   */\n    tag_202:\n        /* \"#utility.yul\":7956:7980   */\n      tag_321\n        /* \"#utility.yul\":7974:7979   */\n      dup2\n        /* \"#utility.yul\":7956:7980   */\n      tag_191\n      jump\t// in\n    tag_321:\n        /* \"#utility.yul\":7951:7954   */\n      dup3\n        /* \"#utility.yul\":7944:7981   */\n      mstore\n        /* \"#utility.yul\":7879:7987   */\n      pop\n      pop\n      jump\t// out\n        /* \"#utility.yul\":7993:8152   */\n    tag_203:\n        /* \"#utility.yul\":8067:8078   */\n      0x00\n        /* \"#utility.yul\":8101:8107   */\n      dup3\n        /* \"#utility.yul\":8096:8099   */\n      dup3\n        /* \"#utility.yul\":8089:8108   */\n      mstore\n        /* \"#utility.yul\":8141:8145   */\n      0x20\n        /* \"#utility.yul\":8136:8139   */\n      dup3\n        /* \"#utility.yul\":8132:8146   */\n      add\n        /* \"#utility.yul\":8117:8146   */\n      swap1\n      pop\n        /* \"#utility.yul\":7993:8152   */\n      swap3\n      swap2\n      pop\n      pop\n      jump\t// out\n        /* \"#utility.yul\":8158:8515   */\n    tag_204:\n        /* \"#utility.yul\":8236:8239   */\n      0x00\n        /* \"#utility.yul\":8264:8303   */\n      tag_324\n        /* \"#utility.yul\":8297:8302   */\n      dup3\n        /* \"#utility.yul\":8264:8303   */\n      tag_195\n      jump\t// in\n    tag_324:\n        /* \"#utility.yul\":8319:8380   */\n      tag_325\n        /* \"#utility.yul\":8373:8379   */\n      dup2\n        /* \"#utility.yul\":8368:8371   */\n      dup6\n        /* \"#utility.yul\":8319:8380   */\n      tag_203\n      jump\t// in\n    tag_325:\n        /* \"#utility.yul\":8312:8380   */\n      swap4\n      pop\n        /* \"#utility.yul\":8389:8454   */\n      tag_326\n        /* \"#utility.yul\":8447:8453   */\n      dup2\n        /* \"#utility.yul\":8442:8445   */\n      dup6\n        /* \"#utility.yul\":8435:8439   */\n      0x20\n        /* \"#utility.yul\":8428:8433   */\n      dup7\n        /* \"#utility.yul\":8424:8440   */\n      add\n        /* \"#utility.yul\":8389:8454   */\n      tag_197\n      jump\t// in\n    tag_326:\n        /* \"#utility.yul\":8479:8508   */\n      tag_327\n        /* \"#utility.yul\":8501:8507   */\n      dup2\n        /* \"#utility.yul\":8479:8508   */\n      tag_183\n      jump\t// in\n    tag_327:\n        /* \"#utility.yul\":8474:8477   */\n      dup5\n        /* \"#utility.yul\":8470:8509   */\n      add\n        /* \"#utility.yul\":8463:8509   */\n      swap2\n      pop\n        /* \"#utility.yul\":8240:8515   */\n      pop\n        /* \"#utility.yul\":8158:8515   */\n      swap3\n      swap2\n      pop\n      pop\n      jump\t// out\n        /* \"#utility.yul\":8573:9163   */\n    tag_205:\n        /* \"#utility.yul\":8678:8681   */\n      0x00\n        /* \"#utility.yul\":8714:8718   */\n      0x40\n        /* \"#utility.yul\":8709:8712   */\n      dup4\n        /* \"#utility.yul\":8705:8719   */\n      add\n        /* \"#utility.yul\":8799:8803   */\n      0x00\n        /* \"#utility.yul\":8792:8797   */\n      dup4\n        /* \"#utility.yul\":8788:8804   */\n      add\n        /* \"#utility.yul\":8782:8805   */\n      mload\n        /* \"#utility.yul\":8818:8881   */\n      tag_329\n        /* \"#utility.yul\":8875:8879   */\n      0x00\n        /* \"#utility.yul\":8870:8873   */\n      dup7\n        /* \"#utility.yul\":8866:8880   */\n      add\n        /* \"#utility.yul\":8852:8864   */\n      dup3\n        /* \"#utility.yul\":8818:8881   */\n      tag_202\n      jump\t// in\n    tag_329:\n        /* \"#utility.yul\":8729:8891   */\n      pop\n        /* \"#utility.yul\":8973:8977   */\n      0x20\n        /* \"#utility.yul\":8966:8971   */\n      dup4\n        /* \"#utility.yul\":8962:8978   */\n      add\n        /* \"#utility.yul\":8956:8979   */\n      mload\n        /* \"#utility.yul\":9026:9029   */\n      dup5\n        /* \"#utility.yul\":9020:9024   */\n      dup3\n        /* \"#utility.yul\":9016:9030   */\n      sub\n        /* \"#utility.yul\":9009:9013   */\n      0x20\n        /* \"#utility.yul\":9004:9007   */\n      dup7\n        /* \"#utility.yul\":9000:9014   */\n      add\n        /* \"#utility.yul\":8993:9031   */\n      mstore\n        /* \"#utility.yul\":9052:9125   */\n      tag_330\n        /* \"#utility.yul\":9120:9124   */\n      dup3\n        /* \"#utility.yul\":9106:9118   */\n      dup3\n        /* \"#utility.yul\":9052:9125   */\n      tag_204\n      jump\t// in\n    tag_330:\n        /* \"#utility.yul\":9044:9125   */\n      swap2\n      pop\n        /* \"#utility.yul\":8901:9136   */\n      pop\n        /* \"#utility.yul\":9153:9157   */\n      dup1\n        /* \"#utility.yul\":9146:9157   */\n      swap2\n      pop\n        /* \"#utility.yul\":8683:9163   */\n      pop\n        /* \"#utility.yul\":8573:9163   */\n      swap3\n      swap2\n      pop\n      pop\n      jump\t// out\n        /* \"#utility.yul\":9169:9417   */\n    tag_206:\n        /* \"#utility.yul\":9284:9294   */\n      0x00\n        /* \"#utility.yul\":9319:9411   */\n      tag_332\n        /* \"#utility.yul\":9407:9410   */\n      dup4\n        /* \"#utility.yul\":9399:9405   */\n      dup4\n        /* \"#utility.yul\":9319:9411   */\n      tag_205\n      jump\t// in\n    tag_332:\n        /* \"#utility.yul\":9305:9411   */\n      swap1\n      pop\n        /* \"#utility.yul\":9169:9417   */\n      swap3\n      swap2\n      pop\n      pop\n      jump\t// out\n        /* \"#utility.yul\":9423:9559   */\n    tag_207:\n        /* \"#utility.yul\":9516:9520   */\n      0x00\n        /* \"#utility.yul\":9548:9552   */\n      0x20\n        /* \"#utility.yul\":9543:9546   */\n      dup3\n        /* \"#utility.yul\":9539:9553   */\n      add\n        /* \"#utility.yul\":9531:9553   */\n      swap1\n      pop\n        /* \"#utility.yul\":9423:9559   */\n      swap2\n      swap1\n      pop\n      jump\t// out\n        /* \"#utility.yul\":9621:10716   */\n    tag_208:\n        /* \"#utility.yul\":9786:9789   */\n      0x00\n        /* \"#utility.yul\":9815:9892   */\n      tag_335\n        /* \"#utility.yul\":9886:9891   */\n      dup3\n        /* \"#utility.yul\":9815:9892   */\n      tag_199\n      jump\t// in\n    tag_335:\n        /* \"#utility.yul\":9908:10017   */\n      tag_336\n        /* \"#utility.yul\":10010:10016   */\n      dup2\n        /* \"#utility.yul\":10005:10008   */\n      dup6\n        /* \"#utility.yul\":9908:10017   */\n      tag_200\n      jump\t// in\n    tag_336:\n        /* \"#utility.yul\":9901:10017   */\n      swap4\n      pop\n        /* \"#utility.yul\":10043:10046   */\n      dup4\n        /* \"#utility.yul\":10088:10092   */\n      0x20\n        /* \"#utility.yul\":10080:10086   */\n      dup3\n        /* \"#utility.yul\":10076:10093   */\n      mul\n        /* \"#utility.yul\":10071:10074   */\n      dup6\n        /* \"#utility.yul\":10067:10094   */\n      add\n        /* \"#utility.yul\":10118:10197   */\n      tag_337\n        /* \"#utility.yul\":10191:10196   */\n      dup6\n        /* \"#utility.yul\":10118:10197   */\n      tag_201\n      jump\t// in\n    tag_337:\n        /* \"#utility.yul\":10220:10227   */\n      dup1\n        /* \"#utility.yul\":10251:10252   */\n      0x00\n        /* \"#utility.yul\":10236:10671   */\n    tag_338:\n        /* \"#utility.yul\":10261:10267   */\n      dup6\n        /* \"#utility.yul\":10258:10259   */\n      dup2\n        /* \"#utility.yul\":10255:10268   */\n      lt\n        /* \"#utility.yul\":10236:10671   */\n      iszero\n      tag_340\n      jumpi\n        /* \"#utility.yul\":10332:10341   */\n      dup5\n        /* \"#utility.yul\":10326:10330   */\n      dup5\n        /* \"#utility.yul\":10322:10342   */\n      sub\n        /* \"#utility.yul\":10317:10320   */\n      dup10\n        /* \"#utility.yul\":10310:10343   */\n      mstore\n        /* \"#utility.yul\":10383:10389   */\n      dup2\n        /* \"#utility.yul\":10377:10390   */\n      mload\n        /* \"#utility.yul\":10411:10521   */\n      tag_341\n        /* \"#utility.yul\":10516:10520   */\n      dup6\n        /* \"#utility.yul\":10501:10514   */\n      dup3\n        /* \"#utility.yul\":10411:10521   */\n      tag_206\n      jump\t// in\n    tag_341:\n        /* \"#utility.yul\":10403:10521   */\n      swap5\n      pop\n        /* \"#utility.yul\":10544:10627   */\n      tag_342\n        /* \"#utility.yul\":10620:10626   */\n      dup4\n        /* \"#utility.yul\":10544:10627   */\n      tag_207\n      jump\t// in\n    tag_342:\n        /* \"#utility.yul\":10534:10627   */\n      swap3\n      pop\n        /* \"#utility.yul\":10656:10660   */\n      0x20\n        /* \"#utility.yul\":10651:10654   */\n      dup11\n        /* \"#utility.yul\":10647:10661   */\n      add\n        /* \"#utility.yul\":10640:10661   */\n      swap10\n      pop\n        /* \"#utility.yul\":10296:10671   */\n      pop\n        /* \"#utility.yul\":10283:10284   */\n      0x01\n        /* \"#utility.yul\":10280:10281   */\n      dup2\n        /* \"#utility.yul\":10276:10285   */\n      add\n        /* \"#utility.yul\":10271:10285   */\n      swap1\n      pop\n        /* \"#utility.yul\":10236:10671   */\n      jump(tag_338)\n    tag_340:\n        /* \"#utility.yul\":10240:10254   */\n      pop\n        /* \"#utility.yul\":10687:10691   */\n      dup3\n        /* \"#utility.yul\":10680:10691   */\n      swap8\n      pop\n        /* \"#utility.yul\":10707:10710   */\n      dup8\n        /* \"#utility.yul\":10700:10710   */\n      swap6\n      pop\n        /* \"#utility.yul\":9791:10716   */\n      pop\n      pop\n      pop\n      pop\n      pop\n        /* \"#utility.yul\":9621:10716   */\n      swap3\n      swap2\n      pop\n      pop\n      jump\t// out\n        /* \"#utility.yul\":10722:11187   */\n    tag_37:\n        /* \"#utility.yul\":10911:10915   */\n      0x00\n        /* \"#utility.yul\":10949:10951   */\n      0x20\n        /* \"#utility.yul\":10938:10947   */\n      dup3\n        /* \"#utility.yul\":10934:10952   */\n      add\n        /* \"#utility.yul\":10926:10952   */\n      swap1\n      pop\n        /* \"#utility.yul\":10998:11007   */\n      dup2\n        /* \"#utility.yul\":10992:10996   */\n      dup2\n        /* \"#utility.yul\":10988:11008   */\n      sub\n        /* \"#utility.yul\":10984:10985   */\n      0x00\n        /* \"#utility.yul\":10973:10982   */\n      dup4\n        /* \"#utility.yul\":10969:10986   */\n      add\n        /* \"#utility.yul\":10962:11009   */\n      mstore\n        /* \"#utility.yul\":11026:11180   */\n      tag_344\n        /* \"#utility.yul\":11175:11179   */\n      dup2\n        /* \"#utility.yul\":11166:11172   */\n      dup5\n        /* \"#utility.yul\":11026:11180   */\n      tag_208\n      jump\t// in\n    tag_344:\n        /* \"#utility.yul\":11018:11180   */\n      swap1\n      pop\n        /* \"#utility.yul\":10722:11187   */\n      swap3\n      swap2\n      pop\n      pop\n      jump\t// out\n        /* \"#utility.yul\":11193:12110   */\n    tag_42:\n        /* \"#utility.yul\":11450:11454   */\n      0x00\n        /* \"#utility.yul\":11488:11491   */\n      0x80\n        /* \"#utility.yul\":11477:11486   */\n      dup3\n        /* \"#utility.yul\":11473:11492   */\n      add\n        /* \"#utility.yul\":11465:11492   */\n      swap1\n      pop\n        /* \"#utility.yul\":11538:11547   */\n      dup2\n        /* \"#utility.yul\":11532:11536   */\n      dup2\n        /* \"#utility.yul\":11528:11548   */\n      sub\n        /* \"#utility.yul\":11524:11525   */\n      0x00\n        /* \"#utility.yul\":11513:11522   */\n      dup4\n        /* \"#utility.yul\":11509:11526   */\n      add\n        /* \"#utility.yul\":11502:11549   */\n      mstore\n        /* \"#utility.yul\":11566:11644   */\n      tag_346\n        /* \"#utility.yul\":11639:11643   */\n      dup2\n        /* \"#utility.yul\":11630:11636   */\n      dup8\n        /* \"#utility.yul\":11566:11644   */\n      tag_198\n      jump\t// in\n    tag_346:\n        /* \"#utility.yul\":11558:11644   */\n      swap1\n      pop\n        /* \"#utility.yul\":11691:11700   */\n      dup2\n        /* \"#utility.yul\":11685:11689   */\n      dup2\n        /* \"#utility.yul\":11681:11701   */\n      sub\n        /* \"#utility.yul\":11676:11678   */\n      0x20\n        /* \"#utility.yul\":11665:11674   */\n      dup4\n        /* \"#utility.yul\":11661:11679   */\n      add\n        /* \"#utility.yul\":11654:11702   */\n      mstore\n        /* \"#utility.yul\":11719:11797   */\n      tag_347\n        /* \"#utility.yul\":11792:11796   */\n      dup2\n        /* \"#utility.yul\":11783:11789   */\n      dup7\n        /* \"#utility.yul\":11719:11797   */\n      tag_198\n      jump\t// in\n    tag_347:\n        /* \"#utility.yul\":11711:11797   */\n      swap1\n      pop\n        /* \"#utility.yul\":11844:11853   */\n      dup2\n        /* \"#utility.yul\":11838:11842   */\n      dup2\n        /* \"#utility.yul\":11834:11854   */\n      sub\n        /* \"#utility.yul\":11829:11831   */\n      0x40\n        /* \"#utility.yul\":11818:11827   */\n      dup4\n        /* \"#utility.yul\":11814:11832   */\n      add\n        /* \"#utility.yul\":11807:11855   */\n      mstore\n        /* \"#utility.yul\":11872:11950   */\n      tag_348\n        /* \"#utility.yul\":11945:11949   */\n      dup2\n        /* \"#utility.yul\":11936:11942   */\n      dup6\n        /* \"#utility.yul\":11872:11950   */\n      tag_198\n      jump\t// in\n    tag_348:\n        /* \"#utility.yul\":11864:11950   */\n      swap1\n      pop\n        /* \"#utility.yul\":11997:12006   */\n      dup2\n        /* \"#utility.yul\":11991:11995   */\n      dup2\n        /* \"#utility.yul\":11987:12007   */\n      sub\n        /* \"#utility.yul\":11982:11984   */\n      0x60\n        /* \"#utility.yul\":11971:11980   */\n      dup4\n        /* \"#utility.yul\":11967:11985   */\n      add\n        /* \"#utility.yul\":11960:12008   */\n      mstore\n        /* \"#utility.yul\":12025:12103   */\n      tag_349\n        /* \"#utility.yul\":12098:12102   */\n      dup2\n        /* \"#utility.yul\":12089:12095   */\n      dup5\n        /* \"#utility.yul\":12025:12103   */\n      tag_198\n      jump\t// in\n    tag_349:\n        /* \"#utility.yul\":12017:12103   */\n      swap1\n      pop\n        /* \"#utility.yul\":11193:12110   */\n      swap6\n      swap5\n      pop\n      pop\n      pop\n      pop\n      pop\n      jump\t// out\n        /* \"#utility.yul\":12116:12630   */\n    tag_47:\n        /* \"#utility.yul\":12277:12281   */\n      0x00\n        /* \"#utility.yul\":12315:12317   */\n      0x40\n        /* \"#utility.yul\":12304:12313   */\n      dup3\n        /* \"#utility.yul\":12300:12318   */\n      add\n        /* \"#utility.yul\":12292:12318   */\n      swap1\n      pop\n        /* \"#utility.yul\":12364:12373   */\n      dup2\n        /* \"#utility.yul\":12358:12362   */\n      dup2\n        /* \"#utility.yul\":12354:12374   */\n      sub\n        /* \"#utility.yul\":12350:12351   */\n      0x00\n        /* \"#utility.yul\":12339:12348   */\n      dup4\n        /* \"#utility.yul\":12335:12352   */\n      add\n        /* \"#utility.yul\":12328:12375   */\n      mstore\n        /* \"#utility.yul\":12392:12470   */\n      tag_351\n        /* \"#utility.yul\":12465:12469   */\n      dup2\n        /* \"#utility.yul\":12456:12462   */\n      dup6\n        /* \"#utility.yul\":12392:12470   */\n      tag_198\n      jump\t// in\n    tag_351:\n        /* \"#utility.yul\":12384:12470   */\n      swap1\n      pop\n        /* \"#utility.yul\":12517:12526   */\n      dup2\n        /* \"#utility.yul\":12511:12515   */\n      dup2\n        /* \"#utility.yul\":12507:12527   */\n      sub\n        /* \"#utility.yul\":12502:12504   */\n      0x20\n        /* \"#utility.yul\":12491:12500   */\n      dup4\n        /* \"#utility.yul\":12487:12505   */\n      add\n        /* \"#utility.yul\":12480:12528   */\n      mstore\n        /* \"#utility.yul\":12545:12623   */\n      tag_352\n        /* \"#utility.yul\":12618:12622   */\n      dup2\n        /* \"#utility.yul\":12609:12615   */\n      dup5\n        /* \"#utility.yul\":12545:12623   */\n      tag_198\n      jump\t// in\n    tag_352:\n        /* \"#utility.yul\":12537:12623   */\n      swap1\n      pop\n        /* \"#utility.yul\":12116:12630   */\n      swap4\n      swap3\n      pop\n      pop\n      pop\n      jump\t// out\n        /* \"#utility.yul\":12636:13664   */\n    tag_52:\n        /* \"#utility.yul\":12921:12925   */\n      0x00\n        /* \"#utility.yul\":12959:12962   */\n      0xa0\n        /* \"#utility.yul\":12948:12957   */\n      dup3\n        /* \"#utility.yul\":12944:12963   */\n      add\n        /* \"#utility.yul\":12936:12963   */\n      swap1\n      pop\n        /* \"#utility.yul\":12973:13044   */\n      tag_354\n        /* \"#utility.yul\":13041:13042   */\n      0x00\n        /* \"#utility.yul\":13030:13039   */\n      dup4\n        /* \"#utility.yul\":13026:13043   */\n      add\n        /* \"#utility.yul\":13017:13023   */\n      dup9\n        /* \"#utility.yul\":12973:13044   */\n      tag_194\n      jump\t// in\n    tag_354:\n        /* \"#utility.yul\":13091:13100   */\n      dup2\n        /* \"#utility.yul\":13085:13089   */\n      dup2\n        /* \"#utility.yul\":13081:13101   */\n      sub\n        /* \"#utility.yul\":13076:13078   */\n      0x20\n        /* \"#utility.yul\":13065:13074   */\n      dup4\n        /* \"#utility.yul\":13061:13079   */\n      add\n        /* \"#utility.yul\":13054:13102   */\n      mstore\n        /* \"#utility.yul\":13119:13197   */\n      tag_355\n        /* \"#utility.yul\":13192:13196   */\n      dup2\n        /* \"#utility.yul\":13183:13189   */\n      dup8\n        /* \"#utility.yul\":13119:13197   */\n      tag_198\n      jump\t// in\n    tag_355:\n        /* \"#utility.yul\":13111:13197   */\n      swap1\n      pop\n        /* \"#utility.yul\":13244:13253   */\n      dup2\n        /* \"#utility.yul\":13238:13242   */\n      dup2\n        /* \"#utility.yul\":13234:13254   */\n      sub\n        /* \"#utility.yul\":13229:13231   */\n      0x40\n        /* \"#utility.yul\":13218:13227   */\n      dup4\n        /* \"#utility.yul\":13214:13232   */\n      add\n        /* \"#utility.yul\":13207:13255   */\n      mstore\n        /* \"#utility.yul\":13272:13350   */\n      tag_356\n        /* \"#utility.yul\":13345:13349   */\n      dup2\n        /* \"#utility.yul\":13336:13342   */\n      dup7\n        /* \"#utility.yul\":13272:13350   */\n      tag_198\n      jump\t// in\n    tag_356:\n        /* \"#utility.yul\":13264:13350   */\n      swap1\n      pop\n        /* \"#utility.yul\":13397:13406   */\n      dup2\n        /* \"#utility.yul\":13391:13395   */\n      dup2\n        /* \"#utility.yul\":13387:13407   */\n      sub\n        /* \"#utility.yul\":13382:13384   */\n      0x60\n        /* \"#utility.yul\":13371:13380   */\n      dup4\n        /* \"#utility.yul\":13367:13385   */\n      add\n        /* \"#utility.yul\":13360:13408   */\n      mstore\n        /* \"#utility.yul\":13425:13503   */\n      tag_357\n        /* \"#utility.yul\":13498:13502   */\n      dup2\n        /* \"#utility.yul\":13489:13495   */\n      dup6\n        /* \"#utility.yul\":13425:13503   */\n      tag_198\n      jump\t// in\n    tag_357:\n        /* \"#utility.yul\":13417:13503   */\n      swap1\n      pop\n        /* \"#utility.yul\":13551:13560   */\n      dup2\n        /* \"#utility.yul\":13545:13549   */\n      dup2\n        /* \"#utility.yul\":13541:13561   */\n      sub\n        /* \"#utility.yul\":13535:13538   */\n      0x80\n        /* \"#utility.yul\":13524:13533   */\n      dup4\n        /* \"#utility.yul\":13520:13539   */\n      add\n        /* \"#utility.yul\":13513:13562   */\n      mstore\n        /* \"#utility.yul\":13579:13657   */\n      tag_358\n        /* \"#utility.yul\":13652:13656   */\n      dup2\n        /* \"#utility.yul\":13643:13649   */\n      dup5\n        /* \"#utility.yul\":13579:13657   */\n      tag_198\n      jump\t// in\n    tag_358:\n        /* \"#utility.yul\":13571:13657   */\n      swap1\n      pop\n        /* \"#utility.yul\":12636:13664   */\n      swap7\n      swap6\n      pop\n      pop\n      pop\n      pop\n      pop\n      pop\n      jump\t// out\n        /* \"#utility.yul\":13670:14179   */\n    tag_55:\n        /* \"#utility.yul\":13739:13745   */\n      0x00\n        /* \"#utility.yul\":13788:13790   */\n      0x20\n        /* \"#utility.yul\":13776:13785   */\n      dup3\n        /* \"#utility.yul\":13767:13774   */\n      dup5\n        /* \"#utility.yul\":13763:13786   */\n      sub\n        /* \"#utility.yul\":13759:13791   */\n      slt\n        /* \"#utility.yul\":13756:13875   */\n      iszero\n      tag_360\n      jumpi\n        /* \"#utility.yul\":13794:13873   */\n      tag_361\n      tag_179\n      jump\t// in\n    tag_361:\n        /* \"#utility.yul\":13756:13875   */\n    tag_360:\n        /* \"#utility.yul\":13942:13943   */\n      0x00\n        /* \"#utility.yul\":13931:13940   */\n      dup3\n        /* \"#utility.yul\":13927:13944   */\n      add\n        /* \"#utility.yul\":13914:13945   */\n      calldataload\n        /* \"#utility.yul\":13972:13990   */\n      0xffffffffffffffff\n        /* \"#utility.yul\":13964:13970   */\n      dup2\n        /* \"#utility.yul\":13961:13991   */\n      gt\n        /* \"#utility.yul\":13958:14075   */\n      iszero\n      tag_362\n      jumpi\n        /* \"#utility.yul\":13994:14073   */\n      tag_363\n      tag_180\n      jump\t// in\n    tag_363:\n        /* \"#utility.yul\":13958:14075   */\n    tag_362:\n        /* \"#utility.yul\":14099:14162   */\n      tag_364\n        /* \"#utility.yul\":14154:14161   */\n      dup5\n        /* \"#utility.yul\":14145:14151   */\n      dup3\n        /* \"#utility.yul\":14134:14143   */\n      dup6\n        /* \"#utility.yul\":14130:14152   */\n      add\n        /* \"#utility.yul\":14099:14162   */\n      tag_190\n      jump\t// in\n    tag_364:\n        /* \"#utility.yul\":14089:14162   */\n      swap2\n      pop\n        /* \"#utility.yul\":13885:14172   */\n      pop\n        /* \"#utility.yul\":13670:14179   */\n      swap3\n      swap2\n      pop\n      pop\n      jump\t// out\n        /* \"#utility.yul\":14185:14323   */\n    tag_209:\n        /* \"#utility.yul\":14276:14282   */\n      0x00\n        /* \"#utility.yul\":14310:14315   */\n      dup2\n        /* \"#utility.yul\":14304:14316   */\n      mload\n        /* \"#utility.yul\":14294:14316   */\n      swap1\n      pop\n        /* \"#utility.yul\":14185:14323   */\n      swap2\n      swap1\n      pop\n      jump\t// out\n        /* \"#utility.yul\":14329:14537   */\n    tag_210:\n        /* \"#utility.yul\":14452:14463   */\n      0x00\n        /* \"#utility.yul\":14486:14492   */\n      dup3\n        /* \"#utility.yul\":14481:14484   */\n      dup3\n        /* \"#utility.yul\":14474:14493   */\n      mstore\n        /* \"#utility.yul\":14526:14530   */\n      0x20\n        /* \"#utility.yul\":14521:14524   */\n      dup3\n        /* \"#utility.yul\":14517:14531   */\n      add\n        /* \"#utility.yul\":14502:14531   */\n      swap1\n      pop\n        /* \"#utility.yul\":14329:14537   */\n      swap3\n      swap2\n      pop\n      pop\n      jump\t// out\n        /* \"#utility.yul\":14543:14699   */\n    tag_211:\n        /* \"#utility.yul\":14634:14638   */\n      0x00\n        /* \"#utility.yul\":14657:14660   */\n      dup2\n        /* \"#utility.yul\":14649:14660   */\n      swap1\n      pop\n        /* \"#utility.yul\":14687:14691   */\n      0x20\n        /* \"#utility.yul\":14682:14685   */\n      dup3\n        /* \"#utility.yul\":14678:14692   */\n      add\n        /* \"#utility.yul\":14670:14692   */\n      swap1\n      pop\n        /* \"#utility.yul\":14543:14699   */\n      swap2\n      swap1\n      pop\n      jump\t// out\n        /* \"#utility.yul\":14761:15433   */\n    tag_212:\n        /* \"#utility.yul\":14868:14871   */\n      0x00\n        /* \"#utility.yul\":14904:14908   */\n      0x40\n        /* \"#utility.yul\":14899:14902   */\n      dup4\n        /* \"#utility.yul\":14895:14909   */\n      add\n        /* \"#utility.yul\":14991:14995   */\n      0x00\n        /* \"#utility.yul\":14984:14989   */\n      dup4\n        /* \"#utility.yul\":14980:14996   */\n      add\n        /* \"#utility.yul\":14974:14997   */\n      mload\n        /* \"#utility.yul\":15044:15047   */\n      dup5\n        /* \"#utility.yul\":15038:15042   */\n      dup3\n        /* \"#utility.yul\":15034:15048   */\n      sub\n        /* \"#utility.yul\":15027:15031   */\n      0x00\n        /* \"#utility.yul\":15022:15025   */\n      dup7\n        /* \"#utility.yul\":15018:15032   */\n      add\n        /* \"#utility.yul\":15011:15049   */\n      mstore\n        /* \"#utility.yul\":15070:15143   */\n      tag_369\n        /* \"#utility.yul\":15138:15142   */\n      dup3\n        /* \"#utility.yul\":15124:15136   */\n      dup3\n        /* \"#utility.yul\":15070:15143   */\n      tag_204\n      jump\t// in\n    tag_369:\n        /* \"#utility.yul\":15062:15143   */\n      swap2\n      pop\n        /* \"#utility.yul\":14919:15154   */\n      pop\n        /* \"#utility.yul\":15243:15247   */\n      0x20\n        /* \"#utility.yul\":15236:15241   */\n      dup4\n        /* \"#utility.yul\":15232:15248   */\n      add\n        /* \"#utility.yul\":15226:15249   */\n      mload\n        /* \"#utility.yul\":15296:15299   */\n      dup5\n        /* \"#utility.yul\":15290:15294   */\n      dup3\n        /* \"#utility.yul\":15286:15300   */\n      sub\n        /* \"#utility.yul\":15279:15283   */\n      0x20\n        /* \"#utility.yul\":15274:15277   */\n      dup7\n        /* \"#utility.yul\":15270:15284   */\n      add\n        /* \"#utility.yul\":15263:15301   */\n      mstore\n        /* \"#utility.yul\":15322:15395   */\n      tag_370\n        /* \"#utility.yul\":15390:15394   */\n      dup3\n        /* \"#utility.yul\":15376:15388   */\n      dup3\n        /* \"#utility.yul\":15322:15395   */\n      tag_204\n      jump\t// in\n    tag_370:\n        /* \"#utility.yul\":15314:15395   */\n      swap2\n      pop\n        /* \"#utility.yul\":15164:15406   */\n      pop\n        /* \"#utility.yul\":15423:15427   */\n      dup1\n        /* \"#utility.yul\":15416:15427   */\n      swap2\n      pop\n        /* \"#utility.yul\":14873:15433   */\n      pop\n        /* \"#utility.yul\":14761:15433   */\n      swap3\n      swap2\n      pop\n      pop\n      jump\t// out\n        /* \"#utility.yul\":15439:15691   */\n    tag_213:\n        /* \"#utility.yul\":15556:15566   */\n      0x00\n        /* \"#utility.yul\":15591:15685   */\n      tag_372\n        /* \"#utility.yul\":15681:15684   */\n      dup4\n        /* \"#utility.yul\":15673:15679   */\n      dup4\n        /* \"#utility.yul\":15591:15685   */\n      tag_212\n      jump\t// in\n    tag_372:\n        /* \"#utility.yul\":15577:15685   */\n      swap1\n      pop\n        /* \"#utility.yul\":15439:15691   */\n      swap3\n      swap2\n      pop\n      pop\n      jump\t// out\n        /* \"#utility.yul\":15697:15834   */\n    tag_214:\n        /* \"#utility.yul\":15791:15795   */\n      0x00\n        /* \"#utility.yul\":15823:15827   */\n      0x20\n        /* \"#utility.yul\":15818:15821   */\n      dup3\n        /* \"#utility.yul\":15814:15828   */\n      add\n        /* \"#utility.yul\":15806:15828   */\n      swap1\n      pop\n        /* \"#utility.yul\":15697:15834   */\n      swap2\n      swap1\n      pop\n      jump\t// out\n        /* \"#utility.yul\":15900:17003   */\n    tag_215:\n        /* \"#utility.yul\":16067:16070   */\n      0x00\n        /* \"#utility.yul\":16096:16174   */\n      tag_375\n        /* \"#utility.yul\":16168:16173   */\n      dup3\n        /* \"#utility.yul\":16096:16174   */\n      tag_209\n      jump\t// in\n    tag_375:\n        /* \"#utility.yul\":16190:16300   */\n      tag_376\n        /* \"#utility.yul\":16293:16299   */\n      dup2\n        /* \"#utility.yul\":16288:16291   */\n      dup6\n        /* \"#utility.yul\":16190:16300   */\n      tag_210\n      jump\t// in\n    tag_376:\n        /* \"#utility.yul\":16183:16300   */\n      swap4\n      pop\n        /* \"#utility.yul\":16326:16329   */\n      dup4\n        /* \"#utility.yul\":16371:16375   */\n      0x20\n        /* \"#utility.yul\":16363:16369   */\n      dup3\n        /* \"#utility.yul\":16359:16376   */\n      mul\n        /* \"#utility.yul\":16354:16357   */\n      dup6\n        /* \"#utility.yul\":16350:16377   */\n      add\n        /* \"#utility.yul\":16401:16481   */\n      tag_377\n        /* \"#utility.yul\":16475:16480   */\n      dup6\n        /* \"#utility.yul\":16401:16481   */\n      tag_211\n      jump\t// in\n    tag_377:\n        /* \"#utility.yul\":16504:16511   */\n      dup1\n        /* \"#utility.yul\":16535:16536   */\n      0x00\n        /* \"#utility.yul\":16520:16958   */\n    tag_378:\n        /* \"#utility.yul\":16545:16551   */\n      dup6\n        /* \"#utility.yul\":16542:16543   */\n      dup2\n        /* \"#utility.yul\":16539:16552   */\n      lt\n        /* \"#utility.yul\":16520:16958   */\n      iszero\n      tag_380\n      jumpi\n        /* \"#utility.yul\":16616:16625   */\n      dup5\n        /* \"#utility.yul\":16610:16614   */\n      dup5\n        /* \"#utility.yul\":16606:16626   */\n      sub\n        /* \"#utility.yul\":16601:16604   */\n      dup10\n        /* \"#utility.yul\":16594:16627   */\n      mstore\n        /* \"#utility.yul\":16667:16673   */\n      dup2\n        /* \"#utility.yul\":16661:16674   */\n      mload\n        /* \"#utility.yul\":16695:16807   */\n      tag_381\n        /* \"#utility.yul\":16802:16806   */\n      dup6\n        /* \"#utility.yul\":16787:16800   */\n      dup3\n        /* \"#utility.yul\":16695:16807   */\n      tag_213\n      jump\t// in\n    tag_381:\n        /* \"#utility.yul\":16687:16807   */\n      swap5\n      pop\n        /* \"#utility.yul\":16830:16914   */\n      tag_382\n        /* \"#utility.yul\":16907:16913   */\n      dup4\n        /* \"#utility.yul\":16830:16914   */\n      tag_214\n      jump\t// in\n    tag_382:\n        /* \"#utility.yul\":16820:16914   */\n      swap3\n      pop\n        /* \"#utility.yul\":16943:16947   */\n      0x20\n        /* \"#utility.yul\":16938:16941   */\n      dup11\n        /* \"#utility.yul\":16934:16948   */\n      add\n        /* \"#utility.yul\":16927:16948   */\n      swap10\n      pop\n        /* \"#utility.yul\":16580:16958   */\n      pop\n        /* \"#utility.yul\":16567:16568   */\n      0x01\n        /* \"#utility.yul\":16564:16565   */\n      dup2\n        /* \"#utility.yul\":16560:16569   */\n      add\n        /* \"#utility.yul\":16555:16569   */\n      swap1\n      pop\n        /* \"#utility.yul\":16520:16958   */\n      jump(tag_378)\n    tag_380:\n        /* \"#utility.yul\":16524:16538   */\n      pop\n        /* \"#utility.yul\":16974:16978   */\n      dup3\n        /* \"#utility.yul\":16967:16978   */\n      swap8\n      pop\n        /* \"#utility.yul\":16994:16997   */\n      dup8\n        /* \"#utility.yul\":16987:16997   */\n      swap6\n      pop\n        /* \"#utility.yul\":16072:17003   */\n      pop\n      pop\n      pop\n      pop\n      pop\n        /* \"#utility.yul\":15900:17003   */\n      swap3\n      swap2\n      pop\n      pop\n      jump\t// out\n        /* \"#utility.yul\":17009:17478   */\n    tag_60:\n        /* \"#utility.yul\":17200:17204   */\n      0x00\n        /* \"#utility.yul\":17238:17240   */\n      0x20\n        /* \"#utility.yul\":17227:17236   */\n      dup3\n        /* \"#utility.yul\":17223:17241   */\n      add\n        /* \"#utility.yul\":17215:17241   */\n      swap1\n      pop\n        /* \"#utility.yul\":17287:17296   */\n      dup2\n        /* \"#utility.yul\":17281:17285   */\n      dup2\n        /* \"#utility.yul\":17277:17297   */\n      sub\n        /* \"#utility.yul\":17273:17274   */\n      0x00\n        /* \"#utility.yul\":17262:17271   */\n      dup4\n        /* \"#utility.yul\":17258:17275   */\n      add\n        /* \"#utility.yul\":17251:17298   */\n      mstore\n        /* \"#utility.yul\":17315:17471   */\n      tag_384\n        /* \"#utility.yul\":17466:17470   */\n      dup2\n        /* \"#utility.yul\":17457:17463   */\n      dup5\n        /* \"#utility.yul\":17315:17471   */\n      tag_215\n      jump\t// in\n    tag_384:\n        /* \"#utility.yul\":17307:17471   */\n      swap1\n      pop\n        /* \"#utility.yul\":17009:17478   */\n      swap3\n      swap2\n      pop\n      pop\n      jump\t// out\n        /* \"#utility.yul\":17484:17574   */\n    tag_216:\n        /* \"#utility.yul\":17518:17525   */\n      0x00\n        /* \"#utility.yul\":17561:17566   */\n      dup2\n        /* \"#utility.yul\":17554:17567   */\n      iszero\n        /* \"#utility.yul\":17547:17568   */\n      iszero\n        /* \"#utility.yul\":17536:17568   */\n      swap1\n      pop\n        /* \"#utility.yul\":17484:17574   */\n      swap2\n      swap1\n      pop\n      jump\t// out\n        /* \"#utility.yul\":17580:17689   */\n    tag_217:\n        /* \"#utility.yul\":17661:17682   */\n      tag_387\n        /* \"#utility.yul\":17676:17681   */\n      dup2\n        /* \"#utility.yul\":17661:17682   */\n      tag_216\n      jump\t// in\n    tag_387:\n        /* \"#utility.yul\":17656:17659   */\n      dup3\n        /* \"#utility.yul\":17649:17683   */\n      mstore\n        /* \"#utility.yul\":17580:17689   */\n      pop\n      pop\n      jump\t// out\n        /* \"#utility.yul\":17695:17905   */\n    tag_65:\n        /* \"#utility.yul\":17782:17786   */\n      0x00\n        /* \"#utility.yul\":17820:17822   */\n      0x20\n        /* \"#utility.yul\":17809:17818   */\n      dup3\n        /* \"#utility.yul\":17805:17823   */\n      add\n        /* \"#utility.yul\":17797:17823   */\n      swap1\n      pop\n        /* \"#utility.yul\":17833:17898   */\n      tag_389\n        /* \"#utility.yul\":17895:17896   */\n      0x00\n        /* \"#utility.yul\":17884:17893   */\n      dup4\n        /* \"#utility.yul\":17880:17897   */\n      add\n        /* \"#utility.yul\":17871:17877   */\n      dup5\n        /* \"#utility.yul\":17833:17898   */\n      tag_217\n      jump\t// in\n    tag_389:\n        /* \"#utility.yul\":17695:17905   */\n      swap3\n      swap2\n      pop\n      pop\n      jump\t// out\n        /* \"#utility.yul\":17911:18091   */\n    tag_218:\n        /* \"#utility.yul\":17959:18036   */\n      0x4e487b7100000000000000000000000000000000000000000000000000000000\n        /* \"#utility.yul\":17956:17957   */\n      0x00\n        /* \"#utility.yul\":17949:18037   */\n      mstore\n        /* \"#utility.yul\":18056:18060   */\n      0x22\n        /* \"#utility.yul\":18053:18054   */\n      0x04\n        /* \"#utility.yul\":18046:18061   */\n      mstore\n        /* \"#utility.yul\":18080:18084   */\n      0x24\n        /* \"#utility.yul\":18077:18078   */\n      0x00\n        /* \"#utility.yul\":18070:18085   */\n      revert\n        /* \"#utility.yul\":18097:18417   */\n    tag_77:\n        /* \"#utility.yul\":18141:18147   */\n      0x00\n        /* \"#utility.yul\":18178:18179   */\n      0x02\n        /* \"#utility.yul\":18172:18176   */\n      dup3\n        /* \"#utility.yul\":18168:18180   */\n      div\n        /* \"#utility.yul\":18158:18180   */\n      swap1\n      pop\n        /* \"#utility.yul\":18225:18226   */\n      0x01\n        /* \"#utility.yul\":18219:18223   */\n      dup3\n        /* \"#utility.yul\":18215:18227   */\n      and\n        /* \"#utility.yul\":18246:18264   */\n      dup1\n        /* \"#utility.yul\":18236:18317   */\n      tag_392\n      jumpi\n        /* \"#utility.yul\":18302:18306   */\n      0x7f\n        /* \"#utility.yul\":18294:18300   */\n      dup3\n        /* \"#utility.yul\":18290:18307   */\n      and\n        /* \"#utility.yul\":18280:18307   */\n      swap2\n      pop\n        /* \"#utility.yul\":18236:18317   */\n    tag_392:\n        /* \"#utility.yul\":18364:18366   */\n      0x20\n        /* \"#utility.yul\":18356:18362   */\n      dup3\n        /* \"#utility.yul\":18353:18367   */\n      lt\n        /* \"#utility.yul\":18333:18351   */\n      dup2\n        /* \"#utility.yul\":18330:18368   */\n      sub\n        /* \"#utility.yul\":18327:18411   */\n      tag_393\n      jumpi\n        /* \"#utility.yul\":18383:18401   */\n      tag_394\n      tag_218\n      jump\t// in\n    tag_394:\n        /* \"#utility.yul\":18327:18411   */\n    tag_393:\n        /* \"#utility.yul\":18148:18417   */\n      pop\n        /* \"#utility.yul\":18097:18417   */\n      swap2\n      swap1\n      pop\n      jump\t// out\n        /* \"#utility.yul\":18423:18564   */\n    tag_219:\n        /* \"#utility.yul\":18472:18476   */\n      0x00\n        /* \"#utility.yul\":18495:18498   */\n      dup2\n        /* \"#utility.yul\":18487:18498   */\n      swap1\n      pop\n        /* \"#utility.yul\":18518:18521   */\n      dup2\n        /* \"#utility.yul\":18515:18516   */\n      0x00\n        /* \"#utility.yul\":18508:18522   */\n      mstore\n        /* \"#utility.yul\":18552:18556   */\n      0x20\n        /* \"#utility.yul\":18549:18550   */\n      0x00\n        /* \"#utility.yul\":18539:18557   */\n      keccak256\n        /* \"#utility.yul\":18531:18557   */\n      swap1\n      pop\n        /* \"#utility.yul\":18423:18564   */\n      swap2\n      swap1\n      pop\n      jump\t// out\n        /* \"#utility.yul\":18570:18663   */\n    tag_220:\n        /* \"#utility.yul\":18607:18613   */\n      0x00\n        /* \"#utility.yul\":18654:18656   */\n      0x20\n        /* \"#utility.yul\":18649:18651   */\n      0x1f\n        /* \"#utility.yul\":18642:18647   */\n      dup4\n        /* \"#utility.yul\":18638:18652   */\n      add\n        /* \"#utility.yul\":18634:18657   */\n      div\n        /* \"#utility.yul\":18624:18657   */\n      swap1\n      pop\n        /* \"#utility.yul\":18570:18663   */\n      swap2\n      swap1\n      pop\n      jump\t// out\n        /* \"#utility.yul\":18669:18776   */\n    tag_221:\n        /* \"#utility.yul\":18713:18721   */\n      0x00\n        /* \"#utility.yul\":18763:18768   */\n      dup3\n        /* \"#utility.yul\":18757:18761   */\n      dup3\n        /* \"#utility.yul\":18753:18769   */\n      shl\n        /* \"#utility.yul\":18732:18769   */\n      swap1\n      pop\n        /* \"#utility.yul\":18669:18776   */\n      swap3\n      swap2\n      pop\n      pop\n      jump\t// out\n        /* \"#utility.yul\":18782:19175   */\n    tag_222:\n        /* \"#utility.yul\":18851:18857   */\n      0x00\n        /* \"#utility.yul\":18901:18902   */\n      0x08\n        /* \"#utility.yul\":18889:18899   */\n      dup4\n        /* \"#utility.yul\":18885:18903   */\n      mul\n        /* \"#utility.yul\":18924:19021   */\n      tag_399\n        /* \"#utility.yul\":18954:19020   */\n      0xffffffffffffffffffffffffffffffffffffffffffffffffffffffffffffffff\n        /* \"#utility.yul\":18943:18952   */\n      dup3\n        /* \"#utility.yul\":18924:19021   */\n      tag_221\n      jump\t// in\n    tag_399:\n        /* \"#utility.yul\":19042:19081   */\n      tag_400\n        /* \"#utility.yul\":19072:19080   */\n      dup7\n        /* \"#utility.yul\":19061:19070   */\n      dup4\n        /* \"#utility.yul\":19042:19081   */\n      tag_221\n      jump\t// in\n    tag_400:\n        /* \"#utility.yul\":19030:19081   */\n      swap6\n      pop\n        /* \"#utility.yul\":19114:19118   */\n      dup1\n        /* \"#utility.yul\":19110:19119   */\n      not\n        /* \"#utility.yul\":19103:19108   */\n      dup5\n        /* \"#utility.yul\":19099:19120   */\n      and\n        /* \"#utility.yul\":19090:19120   */\n      swap4\n      pop\n        /* \"#utility.yul\":19163:19167   */\n      dup1\n        /* \"#utility.yul\":19153:19161   */\n      dup7\n        /* \"#utility.yul\":19149:19168   */\n      and\n        /* \"#utility.yul\":19142:19147   */\n      dup5\n        /* \"#utility.yul\":19139:19169   */\n      or\n        /* \"#utility.yul\":19129:19169   */\n      swap3\n      pop\n        /* \"#utility.yul\":18858:19175   */\n      pop\n      pop\n        /* \"#utility.yul\":18782:19175   */\n      swap4\n      swap3\n      pop\n      pop\n      pop\n      jump\t// out\n        /* \"#utility.yul\":19181:19241   */\n    tag_223:\n        /* \"#utility.yul\":19209:19212   */\n      0x00\n        /* \"#utility.yul\":19230:19235   */\n      dup2\n        /* \"#utility.yul\":19223:19235   */\n      swap1\n      pop\n        /* \"#utility.yul\":19181:19241   */\n      swap2\n      swap1\n      pop\n      jump\t// out\n        /* \"#utility.yul\":19247:19389   */\n    tag_224:\n        /* \"#utility.yul\":19297:19306   */\n      0x00\n        /* \"#utility.yul\":19330:19383   */\n      tag_403\n        /* \"#utility.yul\":19348:19382   */\n      tag_404\n        /* \"#utility.yul\":19357:19381   */\n      tag_405\n        /* \"#utility.yul\":19375:19380   */\n      dup5\n        /* \"#utility.yul\":19357:19381   */\n      tag_191\n      jump\t// in\n    tag_405:\n        /* \"#utility.yul\":19348:19382   */\n      tag_223\n      jump\t// in\n    tag_404:\n        /* \"#utility.yul\":19330:19383   */\n      tag_191\n      jump\t// in\n    tag_403:\n        /* \"#utility.yul\":19317:19383   */\n      swap1\n      pop\n        /* \"#utility.yul\":19247:19389   */\n      swap2\n      swap1\n      pop\n      jump\t// out\n        /* \"#utility.yul\":19395:19470   */\n    tag_225:\n        /* \"#utility.yul\":19438:19441   */\n      0x00\n        /* \"#utility.yul\":19459:19464   */\n      dup2\n        /* \"#utility.yul\":19452:19464   */\n      swap1\n      pop\n        /* \"#utility.yul\":19395:19470   */\n      swap2\n      swap1\n      pop\n      jump\t// out\n        /* \"#utility.yul\":19476:19745   */\n    tag_226:\n        /* \"#utility.yul\":19586:19625   */\n      tag_408\n        /* \"#utility.yul\":19617:19624   */\n      dup4\n        /* \"#utility.yul\":19586:19625   */\n      tag_224\n      jump\t// in\n    tag_408:\n        /* \"#utility.yul\":19647:19738   */\n      tag_409\n        /* \"#utility.yul\":19696:19737   */\n      tag_410\n        /* \"#utility.yul\":19720:19736   */\n      dup3\n        /* \"#utility.yul\":19696:19737   */\n      tag_225\n      jump\t// in\n    tag_410:\n        /* \"#utility.yul\":19688:19694   */\n      dup5\n        /* \"#utility.yul\":19681:19685   */\n      dup5\n        /* \"#utility.yul\":19675:19686   */\n      sload\n        /* \"#utility.yul\":19647:19738   */\n      tag_222\n      jump\t// in\n    tag_409:\n        /* \"#utility.yul\":19641:19645   */\n      dup3\n        /* \"#utility.yul\":19634:19739   */\n      sstore\n        /* \"#utility.yul\":19552:19745   */\n      pop\n        /* \"#utility.yul\":19476:19745   */\n      pop\n      pop\n      pop\n      jump\t// out\n        /* \"#utility.yul\":19751:19824   */\n    tag_227:\n        /* \"#utility.yul\":19796:19799   */\n      0x00\n        /* \"#utility.yul\":19751:19824   */\n      swap1\n      jump\t// out\n        /* \"#utility.yul\":19830:20019   */\n    tag_228:\n        /* \"#utility.yul\":19907:19939   */\n      tag_413\n      tag_227\n      jump\t// in\n    tag_413:\n        /* \"#utility.yul\":19948:20013   */\n      tag_414\n        /* \"#utility.yul\":20006:20012   */\n      dup2\n        /* \"#utility.yul\":19998:20004   */\n      dup5\n        /* \"#utility.yul\":19992:19996   */\n      dup5\n        /* \"#utility.yul\":19948:20013   */\n      tag_226\n      jump\t// in\n    tag_414:\n        /* \"#utility.yul\":19883:20019   */\n      pop\n        /* \"#utility.yul\":19830:20019   */\n      pop\n      pop\n      jump\t// out\n        /* \"#utility.yul\":20025:20211   */\n    tag_229:\n        /* \"#utility.yul\":20085:20205   */\n    tag_416:\n        /* \"#utility.yul\":20102:20105   */\n      dup2\n        /* \"#utility.yul\":20095:20100   */\n      dup2\n        /* \"#utility.yul\":20092:20106   */\n      lt\n        /* \"#utility.yul\":20085:20205   */\n      iszero\n      tag_418\n      jumpi\n        /* \"#utility.yul\":20156:20195   */\n      tag_419\n        /* \"#utility.yul\":20193:20194   */\n      0x00\n        /* \"#utility.yul\":20186:20191   */\n      dup3\n        /* \"#utility.yul\":20156:20195   */\n      tag_228\n      jump\t// in\n    tag_419:\n        /* \"#utility.yul\":20129:20130   */\n      0x01\n        /* \"#utility.yul\":20122:20127   */\n      dup2\n        /* \"#utility.yul\":20118:20131   */\n      add\n        /* \"#utility.yul\":20109:20131   */\n      swap1\n      pop\n        /* \"#utility.yul\":20085:20205   */\n      jump(tag_416)\n    tag_418:\n        /* \"#utility.yul\":20025:20211   */\n      pop\n      pop\n      jump\t// out\n        /* \"#utility.yul\":20217:20760   */\n    tag_230:\n        /* \"#utility.yul\":20318:20320   */\n      0x1f\n        /* \"#utility.yul\":20313:20316   */\n      dup3\n        /* \"#utility.yul\":20310:20321   */\n      gt\n        /* \"#utility.yul\":20307:20753   */\n      iszero\n      tag_421\n      jumpi\n        /* \"#utility.yul\":20352:20390   */\n      tag_422\n        /* \"#utility.yul\":20384:20389   */\n      dup2\n        /* \"#utility.yul\":20352:20390   */\n      tag_219\n      jump\t// in\n    tag_422:\n        /* \"#utility.yul\":20436:20465   */\n      tag_423\n        /* \"#utility.yul\":20454:20464   */\n      dup5\n        /* \"#utility.yul\":20436:20465   */\n      tag_220\n      jump\t// in\n    tag_423:\n        /* \"#utility.yul\":20426:20434   */\n      dup2\n        /* \"#utility.yul\":20422:20466   */\n      add\n        /* \"#utility.yul\":20619:20621   */\n      0x20\n        /* \"#utility.yul\":20607:20617   */\n      dup6\n        /* \"#utility.yul\":20604:20622   */\n      lt\n        /* \"#utility.yul\":20601:20650   */\n      iszero\n      tag_424\n      jumpi\n        /* \"#utility.yul\":20640:20648   */\n      dup2\n        /* \"#utility.yul\":20625:20648   */\n      swap1\n      pop\n        /* \"#utility.yul\":20601:20650   */\n    tag_424:\n        /* \"#utility.yul\":20663:20743   */\n      tag_425\n        /* \"#utility.yul\":20719:20741   */\n      tag_426\n        /* \"#utility.yul\":20737:20740   */\n      dup6\n        /* \"#utility.yul\":20719:20741   */\n      tag_220\n      jump\t// in\n    tag_426:\n        /* \"#utility.yul\":20709:20717   */\n      dup4\n        /* \"#utility.yul\":20705:20742   */\n      add\n        /* \"#utility.yul\":20692:20703   */\n      dup3\n        /* \"#utility.yul\":20663:20743   */\n      tag_229\n      jump\t// in\n    tag_425:\n        /* \"#utility.yul\":20322:20753   */\n      pop\n      pop\n        /* \"#utility.yul\":20307:20753   */\n    tag_421:\n        /* \"#utility.yul\":20217:20760   */\n      pop\n      pop\n      pop\n      jump\t// out\n        /* \"#utility.yul\":20766:20883   */\n    tag_231:\n        /* \"#utility.yul\":20820:20828   */\n      0x00\n        /* \"#utility.yul\":20870:20875   */\n      dup3\n        /* \"#utility.yul\":20864:20868   */\n      dup3\n        /* \"#utility.yul\":20860:20876   */\n      shr\n        /* \"#utility.yul\":20839:20876   */\n      swap1\n      pop\n        /* \"#utility.yul\":20766:20883   */\n      swap3\n      swap2\n      pop\n      pop\n      jump\t// out\n        /* \"#utility.yul\":20889:21058   */\n    tag_232:\n        /* \"#utility.yul\":20933:20939   */\n      0x00\n        /* \"#utility.yul\":20966:21017   */\n      tag_429\n        /* \"#utility.yul\":21014:21015   */\n      0x00\n        /* \"#utility.yul\":21010:21016   */\n      not\n        /* \"#utility.yul\":21002:21007   */\n      dup5\n        /* \"#utility.yul\":20999:21000   */\n      0x08\n        /* \"#utility.yul\":20995:21008   */\n      mul\n        /* \"#utility.yul\":20966:21017   */\n      tag_231\n      jump\t// in\n    tag_429:\n        /* \"#utility.yul\":20962:21018   */\n      not\n        /* \"#utility.yul\":21047:21051   */\n      dup1\n        /* \"#utility.yul\":21041:21045   */\n      dup4\n        /* \"#utility.yul\":21037:21052   */\n      and\n        /* \"#utility.yul\":21027:21052   */\n      swap2\n      pop\n        /* \"#utility.yul\":20940:21058   */\n      pop\n        /* \"#utility.yul\":20889:21058   */\n      swap3\n      swap2\n      pop\n      pop\n      jump\t// out\n        /* \"#utility.yul\":21063:21358   */\n    tag_233:\n        /* \"#utility.yul\":21139:21143   */\n      0x00\n        /* \"#utility.yul\":21285:21314   */\n      tag_431\n        /* \"#utility.yul\":21310:21313   */\n      dup4\n        /* \"#utility.yul\":21304:21308   */\n      dup4\n        /* \"#utility.yul\":21285:21314   */\n      tag_232\n      jump\t// in\n    tag_431:\n        /* \"#utility.yul\":21277:21314   */\n      swap2\n      pop\n        /* \"#utility.yul\":21347:21350   */\n      dup3\n        /* \"#utility.yul\":21344:21345   */\n      0x02\n        /* \"#utility.yul\":21340:21351   */\n      mul\n        /* \"#utility.yul\":21334:21338   */\n      dup3\n        /* \"#utility.yul\":21331:21352   */\n      or\n        /* \"#utility.yul\":21323:21352   */\n      swap1\n      pop\n        /* \"#utility.yul\":21063:21358   */\n      swap3\n      swap2\n      pop\n      pop\n      jump\t// out\n        /* \"#utility.yul\":21363:22758   */\n    tag_68:\n        /* \"#utility.yul\":21480:21517   */\n      tag_433\n        /* \"#utility.yul\":21513:21516   */\n      dup3\n        /* \"#utility.yul\":21480:21517   */\n      tag_195\n      jump\t// in\n    tag_433:\n        /* \"#utility.yul\":21582:21600   */\n      0xffffffffffffffff\n        /* \"#utility.yul\":21574:21580   */\n      dup2\n        /* \"#utility.yul\":21571:21601   */\n      gt\n        /* \"#utility.yul\":21568:21624   */\n      iszero\n      tag_434\n      jumpi\n        /* \"#utility.yul\":21604:21622   */\n      tag_435\n      tag_184\n      jump\t// in\n    tag_435:\n        /* \"#utility.yul\":21568:21624   */\n    tag_434:\n        /* \"#utility.yul\":21648:21686   */\n      tag_436\n        /* \"#utility.yul\":21680:21684   */\n      dup3\n        /* \"#utility.yul\":21674:21685   */\n      sload\n        /* \"#utility.yul\":21648:21686   */\n      tag_77\n      jump\t// in\n    tag_436:\n        /* \"#utility.yul\":21733:21800   */\n      tag_437\n        /* \"#utility.yul\":21793:21799   */\n      dup3\n        /* \"#utility.yul\":21785:21791   */\n      dup3\n        /* \"#utility.yul\":21779:21783   */\n      dup6\n        /* \"#utility.yul\":21733:21800   */\n      tag_230\n      jump\t// in\n    tag_437:\n        /* \"#utility.yul\":21827:21828   */\n      0x00\n        /* \"#utility.yul\":21851:21855   */\n      0x20\n        /* \"#utility.yul\":21838:21855   */\n      swap1\n      pop\n        /* \"#utility.yul\":21883:21885   */\n      0x1f\n        /* \"#utility.yul\":21875:21881   */\n      dup4\n        /* \"#utility.yul\":21872:21886   */\n      gt\n        /* \"#utility.yul\":21900:21901   */\n      0x01\n        /* \"#utility.yul\":21895:22513   */\n      dup2\n      eq\n      tag_439\n      jumpi\n        /* \"#utility.yul\":22557:22558   */\n      0x00\n        /* \"#utility.yul\":22574:22580   */\n      dup5\n        /* \"#utility.yul\":22571:22648   */\n      iszero\n      tag_440\n      jumpi\n        /* \"#utility.yul\":22623:22632   */\n      dup3\n        /* \"#utility.yul\":22618:22621   */\n      dup8\n        /* \"#utility.yul\":22614:22633   */\n      add\n        /* \"#utility.yul\":22608:22634   */\n      mload\n        /* \"#utility.yul\":22599:22634   */\n      swap1\n      pop\n        /* \"#utility.yul\":22571:22648   */\n    tag_440:\n        /* \"#utility.yul\":22674:22741   */\n      tag_441\n        /* \"#utility.yul\":22734:22740   */\n      dup6\n        /* \"#utility.yul\":22727:22732   */\n      dup3\n        /* \"#utility.yul\":22674:22741   */\n      tag_233\n      jump\t// in\n    tag_441:\n        /* \"#utility.yul\":22668:22672   */\n      dup7\n        /* \"#utility.yul\":22661:22742   */\n      sstore\n        /* \"#utility.yul\":22530:22752   */\n      pop\n        /* \"#utility.yul\":21865:22752   */\n      jump(tag_438)\n        /* \"#utility.yul\":21895:22513   */\n    tag_439:\n        /* \"#utility.yul\":21947:21951   */\n      0x1f\n        /* \"#utility.yul\":21943:21952   */\n      not\n        /* \"#utility.yul\":21935:21941   */\n      dup5\n        /* \"#utility.yul\":21931:21953   */\n      and\n        /* \"#utility.yul\":21981:22018   */\n      tag_442\n        /* \"#utility.yul\":22013:22017   */\n      dup7\n        /* \"#utility.yul\":21981:22018   */\n      tag_219\n      jump\t// in\n    tag_442:\n        /* \"#utility.yul\":22040:22041   */\n      0x00\n        /* \"#utility.yul\":22054:22262   */\n    tag_443:\n        /* \"#utility.yul\":22068:22075   */\n      dup3\n        /* \"#utility.yul\":22065:22066   */\n      dup2\n        /* \"#utility.yul\":22062:22076   */\n      lt\n        /* \"#utility.yul\":22054:22262   */\n      iszero\n      tag_445\n      jumpi\n        /* \"#utility.yul\":22147:22156   */\n      dup5\n        /* \"#utility.yul\":22142:22145   */\n      dup10\n        /* \"#utility.yul\":22138:22157   */\n      add\n        /* \"#utility.yul\":22132:22158   */\n      mload\n        /* \"#utility.yul\":22124:22130   */\n      dup3\n        /* \"#utility.yul\":22117:22159   */\n      sstore\n        /* \"#utility.yul\":22198:22199   */\n      0x01\n        /* \"#utility.yul\":22190:22196   */\n      dup3\n        /* \"#utility.yul\":22186:22200   */\n      add\n        /* \"#utility.yul\":22176:22200   */\n      swap2\n      pop\n        /* \"#utility.yul\":22245:22247   */\n      0x20\n        /* \"#utility.yul\":22234:22243   */\n      dup6\n        /* \"#utility.yul\":22230:22248   */\n      add\n        /* \"#utility.yul\":22217:22248   */\n      swap5\n      pop\n        /* \"#utility.yul\":22091:22095   */\n      0x20\n        /* \"#utility.yul\":22088:22089   */\n      dup2\n        /* \"#utility.yul\":22084:22096   */\n      add\n        /* \"#utility.yul\":22079:22096   */\n      swap1\n      pop\n        /* \"#utility.yul\":22054:22262   */\n      jump(tag_443)\n    tag_445:\n        /* \"#utility.yul\":22290:22296   */\n      dup7\n        /* \"#utility.yul\":22281:22288   */\n      dup4\n        /* \"#utility.yul\":22278:22297   */\n      lt\n        /* \"#utility.yul\":22275:22454   */\n      iszero\n      tag_446\n      jumpi\n        /* \"#utility.yul\":22348:22357   */\n      dup5\n        /* \"#utility.yul\":22343:22346   */\n      dup10\n        /* \"#utility.yul\":22339:22358   */\n      add\n        /* \"#utility.yul\":22333:22359   */\n      mload\n        /* \"#utility.yul\":22391:22439   */\n      tag_447\n        /* \"#utility.yul\":22433:22437   */\n      0x1f\n        /* \"#utility.yul\":22425:22431   */\n      dup10\n        /* \"#utility.yul\":22421:22438   */\n      and\n        /* \"#utility.yul\":22410:22419   */\n      dup3\n        /* \"#utility.yul\":22391:22439   */\n      tag_232\n      jump\t// in\n    tag_447:\n        /* \"#utility.yul\":22383:22389   */\n      dup4\n        /* \"#utility.yul\":22376:22440   */\n      sstore\n        /* \"#utility.yul\":22298:22454   */\n      pop\n        /* \"#utility.yul\":22275:22454   */\n    tag_446:\n        /* \"#utility.yul\":22500:22501   */\n      0x01\n        /* \"#utility.yul\":22496:22497   */\n      0x02\n        /* \"#utility.yul\":22488:22494   */\n      dup9\n        /* \"#utility.yul\":22484:22498   */\n      mul\n        /* \"#utility.yul\":22480:22502   */\n      add\n        /* \"#utility.yul\":22474:22478   */\n      dup9\n        /* \"#utility.yul\":22467:22503   */\n      sstore\n        /* \"#utility.yul\":21902:22513   */\n      pop\n      pop\n      pop\n        /* \"#utility.yul\":21865:22752   */\n    tag_438:\n      pop\n        /* \"#utility.yul\":21455:22758   */\n      pop\n      pop\n      pop\n        /* \"#utility.yul\":21363:22758   */\n      pop\n      pop\n      jump\t// out\n        /* \"#utility.yul\":22764:22944   */\n    tag_234:\n        /* \"#utility.yul\":22812:22889   */\n      0x4e487b7100000000000000000000000000000000000000000000000000000000\n        /* \"#utility.yul\":22809:22810   */\n      0x00\n        /* \"#utility.yul\":22802:22890   */\n      mstore\n        /* \"#utility.yul\":22909:22913   */\n      0x11\n        /* \"#utility.yul\":22906:22907   */\n      0x04\n        /* \"#utility.yul\":22899:22914   */\n      mstore\n        /* \"#utility.yul\":22933:22937   */\n      0x24\n        /* \"#utility.yul\":22930:22931   */\n      0x00\n        /* \"#utility.yul\":22923:22938   */\n      revert\n        /* \"#utility.yul\":22950:23183   */\n    tag_73:\n        /* \"#utility.yul\":22989:22992   */\n      0x00\n        /* \"#utility.yul\":23012:23036   */\n      tag_450\n        /* \"#utility.yul\":23030:23035   */\n      dup3\n        /* \"#utility.yul\":23012:23036   */\n      tag_191\n      jump\t// in\n    tag_450:\n        /* \"#utility.yul\":23003:23036   */\n      swap2\n      pop\n        /* \"#utility.yul\":23058:23124   */\n      0xffffffffffffffffffffffffffffffffffffffffffffffffffffffffffffffff\n        /* \"#utility.yul\":23051:23056   */\n      dup3\n        /* \"#utility.yul\":23048:23125   */\n      sub\n        /* \"#utility.yul\":23045:23148   */\n      tag_451\n      jumpi\n        /* \"#utility.yul\":23128:23146   */\n      tag_452\n      tag_234\n      jump\t// in\n    tag_452:\n        /* \"#utility.yul\":23045:23148   */\n    tag_451:\n        /* \"#utility.yul\":23175:23176   */\n      0x01\n        /* \"#utility.yul\":23168:23173   */\n      dup3\n        /* \"#utility.yul\":23164:23177   */\n      add\n        /* \"#utility.yul\":23157:23177   */\n      swap1\n      pop\n        /* \"#utility.yul\":22950:23183   */\n      swap2\n      swap1\n      pop\n      jump\t// out\n        /* \"#utility.yul\":23189:23369   */\n    tag_89:\n        /* \"#utility.yul\":23237:23314   */\n      0x4e487b7100000000000000000000000000000000000000000000000000000000\n        /* \"#utility.yul\":23234:23235   */\n      0x00\n        /* \"#utility.yul\":23227:23315   */\n      mstore\n        /* \"#utility.yul\":23334:23338   */\n      0x32\n        /* \"#utility.yul\":23331:23332   */\n      0x04\n        /* \"#utility.yul\":23324:23339   */\n      mstore\n        /* \"#utility.yul\":23358:23362   */\n      0x24\n        /* \"#utility.yul\":23355:23356   */\n      0x00\n        /* \"#utility.yul\":23348:23363   */\n      revert\n\n    auxdata: 0xa2646970667358221220ac85bed083c1629cc9856f198bce82eb4fdc3c660152a88d390f03939de847e964736f6c63430008120033\n}\n",
				"bytecode": {
					"linkReferences": {},
					"object": "608060405234801561001057600080fd5b50611a4e806100206000396000f3fe608060405234801561001057600080fd5b50600436106100a95760003560e01c8063a674226511610071578063a674226514610165578063c38831ae14610198578063c85e766d146101c9578063d47c029c146101fd578063d92631db14610219578063de7e89c014610237576100a9565b8063020d07a4146100ae57806346459b22146100ca5780635ab2ce22146100fb578063747dcbde146101175780639df10db014610147575b600080fd5b6100c860048036038101906100c39190610fda565b610267565b005b6100e460048036038101906100df91906110e7565b61032c565b6040516100f29291906111a2565b60405180910390f35b610115600480360381019061011091906111d2565b6103e8565b005b610131600480360381019061012c91906110e7565b610460565b60405161013e919061124a565b60405180910390f35b61014f610517565b60405161015c91906113c4565b60405180910390f35b61017f600480360381019061017a91906110e7565b610612565b60405161018f94939291906113e6565b60405180910390f35b6101b260048036038101906101ad91906110e7565b6108b0565b6040516101c0929190611447565b60405180910390f35b6101e360048036038101906101de91906110e7565b6109f4565b6040516101f495949392919061147e565b60405180910390f35b610217600480360381019061021291906114ed565b610c4a565b005b610221610ccf565b60405161022e919061163c565b60405180910390f35b610251600480360381019061024c91906110e7565b610e52565b60405161025e9190611679565b60405180910390f35b60006040518060a0016040528060005481526020018681526020018581526020018381526020018481525090508060036000805481526020019081526020016000206000820151816000015560208201518160010190816102c891906118a0565b5060408201518160020190816102de91906118a0565b5060608201518160030190816102f491906118a0565b50608082015181600401908161030a91906118a0565b50905050600080815480929190610320906119a1565b91905055505050505050565b6004818154811061033c57600080fd5b9060005260206000209060020201600091509050806000015490806001018054610365906116c3565b80601f0160208091040260200160405190810160405280929190818152602001828054610391906116c3565b80156103de5780601f106103b3576101008083540402835291602001916103de565b820191906000526020600020905b8154815290600101906020018083116103c157829003601f168201915b5050505050905082565b600060405180604001604052808481526020018381525090506002819080600181540180825580915050600190039060005260206000209060020201600090919091909150600082015181600001908161044291906118a0565b50602082015181600101908161045891906118a0565b505050505050565b606060048281548110610476576104756119e9565b5b90600052602060002090600202016001018054610492906116c3565b80601f01602080910402602001604051908101604052809291908181526020018280546104be906116c3565b801561050b5780601f106104e05761010080835404028352916020019161050b565b820191906000526020600020905b8154815290600101906020018083116104ee57829003601f168201915b50505050509050919050565b60606004805480602002602001604051908101604052809291908181526020016000905b82821015610609578382906000526020600020906002020160405180604001604052908160008201548152602001600182018054610578906116c3565b80601f01602080910402602001604051908101604052809291908181526020018280546105a4906116c3565b80156105f15780601f106105c6576101008083540402835291602001916105f1565b820191906000526020600020905b8154815290600101906020018083116105d457829003601f168201915b5050505050815250508152602001906001019061053b565b50505050905090565b6060806060806000600360008781526020019081526020016000206040518060a001604052908160008201548152602001600182018054610652906116c3565b80601f016020809104026020016040519081016040528092919081815260200182805461067e906116c3565b80156106cb5780601f106106a0576101008083540402835291602001916106cb565b820191906000526020600020905b8154815290600101906020018083116106ae57829003601f168201915b505050505081526020016002820180546106e4906116c3565b80601f0160208091040260200160405190810160405280929190818152602001828054610710906116c3565b801561075d5780601f106107325761010080835404028352916020019161075d565b820191906000526020600020905b81548152906001019060200180831161074057829003601f168201915b50505050508152602001600382018054610776906116c3565b80601f01602080910402602001604051908101604052809291908181526020018280546107a2906116c3565b80156107ef5780601f106107c4576101008083540402835291602001916107ef565b820191906000526020600020905b8154815290600101906020018083116107d257829003601f168201915b50505050508152602001600482018054610808906116c3565b80601f0160208091040260200160405190810160405280929190818152602001828054610834906116c3565b80156108815780601f1061085657610100808354040283529160200191610881565b820191906000526020600020905b81548152906001019060200180831161086457829003601f168201915b505050505081525050905080602001518160400151826080015183606001519450945094509450509193509193565b600281815481106108c057600080fd5b90600052602060002090600202016000915090508060000180546108e3906116c3565b80601f016020809104026020016040519081016040528092919081815260200182805461090f906116c3565b801561095c5780601f106109315761010080835404028352916020019161095c565b820191906000526020600020905b81548152906001019060200180831161093f57829003601f168201915b505050505090806001018054610971906116c3565b80601f016020809104026020016040519081016040528092919081815260200182805461099d906116c3565b80156109ea5780601f106109bf576101008083540402835291602001916109ea565b820191906000526020600020905b8154815290600101906020018083116109cd57829003601f168201915b5050505050905082565b6003602052806000526040600020600091509050806000015490806001018054610a1d906116c3565b80601f0160208091040260200160405190810160405280929190818152602001828054610a49906116c3565b8015610a965780601f10610a6b57610100808354040283529160200191610a96565b820191906000526020600020905b815481529060010190602001808311610a7957829003601f168201915b505050505090806002018054610aab906116c3565b80601f0160208091040260200160405190810160405280929190818152602001828054610ad7906116c3565b8015610b245780601f10610af957610100808354040283529160200191610b24565b820191906000526020600020905b815481529060010190602001808311610b0757829003601f168201915b505050505090806003018054610b39906116c3565b80601f0160208091040260200160405190810160405280929190818152602001828054610b65906116c3565b8015610bb25780601f10610b8757610100808354040283529160200191610bb2565b820191906000526020600020905b815481529060010190602001808311610b9557829003601f168201915b505050505090806004018054610bc7906116c3565b80601f0160208091040260200160405190810160405280929190818152602001828054610bf3906116c3565b8015610c405780601f10610c1557610100808354040283529160200191610c40565b820191906000526020600020905b815481529060010190602001808311610c2357829003601f168201915b5050505050905085565b60006040518060400160405280600154815260200183815250905060016000815480929190610c78906119a1565b91905055506004819080600181540180825580915050600190039060005260206000209060020201600090919091909150600082015181600001556020820151816001019081610cc891906118a0565b5050505050565b60606002805480602002602001604051908101604052809291908181526020016000905b82821015610e495783829060005260206000209060020201604051806040016040529081600082018054610d26906116c3565b80601f0160208091040260200160405190810160405280929190818152602001828054610d52906116c3565b8015610d9f5780601f10610d7457610100808354040283529160200191610d9f565b820191906000526020600020905b815481529060010190602001808311610d8257829003601f168201915b50505050508152602001600182018054610db8906116c3565b80601f0160208091040260200160405190810160405280929190818152602001828054610de4906116c3565b8015610e315780601f10610e0657610100808354040283529160200191610e31565b820191906000526020600020905b815481529060010190602001808311610e1457829003601f168201915b50505050508152505081526020019060010190610cf3565b50505050905090565b600080600360008481526020019081526020016000206001018054610e76906116c3565b9050119050919050565b6000604051905090565b600080fd5b600080fd5b600080fd5b600080fd5b6000601f19601f8301169050919050565b7f4e487b7100000000000000000000000000000000000000000000000000000000600052604160045260246000fd5b610ee782610e9e565b810181811067ffffffffffffffff82111715610f0657610f05610eaf565b5b80604052505050565b6000610f19610e80565b9050610f258282610ede565b919050565b600067ffffffffffffffff821115610f4557610f44610eaf565b5b610f4e82610e9e565b9050602081019050919050565b82818337600083830152505050565b6000610f7d610f7884610f2a565b610f0f565b905082815260208101848484011115610f9957610f98610e99565b5b610fa4848285610f5b565b509392505050565b600082601f830112610fc157610fc0610e94565b5b8135610fd1848260208601610f6a565b91505092915050565b60008060008060808587031215610ff457610ff3610e8a565b5b600085013567ffffffffffffffff81111561101257611011610e8f565b5b61101e87828801610fac565b945050602085013567ffffffffffffffff81111561103f5761103e610e8f565b5b61104b87828801610fac565b935050604085013567ffffffffffffffff81111561106c5761106b610e8f565b5b61107887828801610fac565b925050606085013567ffffffffffffffff81111561109957611098610e8f565b5b6110a587828801610fac565b91505092959194509250565b6000819050919050565b6110c4816110b1565b81146110cf57600080fd5b50565b6000813590506110e1816110bb565b92915050565b6000602082840312156110fd576110fc610e8a565b5b600061110b848285016110d2565b91505092915050565b61111d816110b1565b82525050565b600081519050919050565b600082825260208201905092915050565b60005b8381101561115d578082015181840152602081019050611142565b60008484015250505050565b600061117482611123565b61117e818561112e565b935061118e81856020860161113f565b61119781610e9e565b840191505092915050565b60006040820190506111b76000830185611114565b81810360208301526111c98184611169565b90509392505050565b600080604083850312156111e9576111e8610e8a565b5b600083013567ffffffffffffffff81111561120757611206610e8f565b5b61121385828601610fac565b925050602083013567ffffffffffffffff81111561123457611233610e8f565b5b61124085828601610fac565b9150509250929050565b600060208201905081810360008301526112648184611169565b905092915050565b600081519050919050565b600082825260208201905092915050565b6000819050602082019050919050565b6112a1816110b1565b82525050565b600082825260208201905092915050565b60006112c382611123565b6112cd81856112a7565b93506112dd81856020860161113f565b6112e681610e9e565b840191505092915050565b60006040830160008301516113096000860182611298565b506020830151848203602086015261132182826112b8565b9150508091505092915050565b600061133a83836112f1565b905092915050565b6000602082019050919050565b600061135a8261126c565b6113648185611277565b93508360208202850161137685611288565b8060005b858110156113b25784840389528151611393858261132e565b945061139e83611342565b925060208a0199505060018101905061137a565b50829750879550505050505092915050565b600060208201905081810360008301526113de818461134f565b905092915050565b600060808201905081810360008301526114008187611169565b905081810360208301526114148186611169565b905081810360408301526114288185611169565b9050818103606083015261143c8184611169565b905095945050505050565b600060408201905081810360008301526114618185611169565b905081810360208301526114758184611169565b90509392505050565b600060a0820190506114936000830188611114565b81810360208301526114a58187611169565b905081810360408301526114b98186611169565b905081810360608301526114cd8185611169565b905081810360808301526114e18184611169565b90509695505050505050565b60006020828403121561150357611502610e8a565b5b600082013567ffffffffffffffff81111561152157611520610e8f565b5b61152d84828501610fac565b91505092915050565b600081519050919050565b600082825260208201905092915050565b6000819050602082019050919050565b6000604083016000830151848203600086015261157f82826112b8565b9150506020830151848203602086015261159982826112b8565b9150508091505092915050565b60006115b28383611562565b905092915050565b6000602082019050919050565b60006115d282611536565b6115dc8185611541565b9350836020820285016115ee85611552565b8060005b8581101561162a578484038952815161160b85826115a6565b9450611616836115ba565b925060208a019950506001810190506115f2565b50829750879550505050505092915050565b6000602082019050818103600083015261165681846115c7565b905092915050565b60008115159050919050565b6116738161165e565b82525050565b600060208201905061168e600083018461166a565b92915050565b7f4e487b7100000000000000000000000000000000000000000000000000000000600052602260045260246000fd5b600060028204905060018216806116db57607f821691505b6020821081036116ee576116ed611694565b5b50919050565b60008190508160005260206000209050919050565b60006020601f8301049050919050565b600082821b905092915050565b6000600883026117567fffffffffffffffffffffffffffffffffffffffffffffffffffffffffffffffff82611719565b6117608683611719565b95508019841693508086168417925050509392505050565b6000819050919050565b600061179d611798611793846110b1565b611778565b6110b1565b9050919050565b6000819050919050565b6117b783611782565b6117cb6117c3826117a4565b848454611726565b825550505050565b600090565b6117e06117d3565b6117eb8184846117ae565b505050565b5b8181101561180f576118046000826117d8565b6001810190506117f1565b5050565b601f82111561185457611825816116f4565b61182e84611709565b8101602085101561183d578190505b61185161184985611709565b8301826117f0565b50505b505050565b600082821c905092915050565b600061187760001984600802611859565b1980831691505092915050565b60006118908383611866565b9150826002028217905092915050565b6118a982611123565b67ffffffffffffffff8111156118c2576118c1610eaf565b5b6118cc82546116c3565b6118d7828285611813565b600060209050601f83116001811461190a57600084156118f8578287015190505b6119028582611884565b86555061196a565b601f198416611918866116f4565b60005b828110156119405784890151825560018201915060208501945060208101905061191b565b8683101561195d5784890151611959601f891682611866565b8355505b6001600288020188555050505b505050505050565b7f4e487b7100000000000000000000000000000000000000000000000000000000600052601160045260246000fd5b60006119ac826110b1565b91507fffffffffffffffffffffffffffffffffffffffffffffffffffffffffffffffff82036119de576119dd611972565b5b600182019050919050565b7f4e487b7100000000000000000000000000000000000000000000000000000000600052603260045260246000fdfea2646970667358221220ac85bed083c1629cc9856f198bce82eb4fdc3c660152a88d390f03939de847e964736f6c63430008120033",
					"opcodes": "PUSH1 0x80 PUSH1 0x40 MSTORE CALLVALUE DUP1 ISZERO PUSH2 0x10 JUMPI PUSH1 0x0 DUP1 REVERT JUMPDEST POP PUSH2 0x1A4E DUP1 PUSH2 0x20 PUSH1 0x0 CODECOPY PUSH1 0x0 RETURN INVALID PUSH1 0x80 PUSH1 0x40 MSTORE CALLVALUE DUP1 ISZERO PUSH2 0x10 JUMPI PUSH1 0x0 DUP1 REVERT JUMPDEST POP PUSH1 0x4 CALLDATASIZE LT PUSH2 0xA9 JUMPI PUSH1 0x0 CALLDATALOAD PUSH1 0xE0 SHR DUP1 PUSH4 0xA6742265 GT PUSH2 0x71 JUMPI DUP1 PUSH4 0xA6742265 EQ PUSH2 0x165 JUMPI DUP1 PUSH4 0xC38831AE EQ PUSH2 0x198 JUMPI DUP1 PUSH4 0xC85E766D EQ PUSH2 0x1C9 JUMPI DUP1 PUSH4 0xD47C029C EQ PUSH2 0x1FD JUMPI DUP1 PUSH4 0xD92631DB EQ PUSH2 0x219 JUMPI DUP1 PUSH4 0xDE7E89C0 EQ PUSH2 0x237 JUMPI PUSH2 0xA9 JUMP JUMPDEST DUP1 PUSH4 0x20D07A4 EQ PUSH2 0xAE JUMPI DUP1 PUSH4 0x46459B22 EQ PUSH2 0xCA JUMPI DUP1 PUSH4 0x5AB2CE22 EQ PUSH2 0xFB JUMPI DUP1 PUSH4 0x747DCBDE EQ PUSH2 0x117 JUMPI DUP1 PUSH4 0x9DF10DB0 EQ PUSH2 0x147 JUMPI JUMPDEST PUSH1 0x0 DUP1 REVERT JUMPDEST PUSH2 0xC8 PUSH1 0x4 DUP1 CALLDATASIZE SUB DUP2 ADD SWAP1 PUSH2 0xC3 SWAP2 SWAP1 PUSH2 0xFDA JUMP JUMPDEST PUSH2 0x267 JUMP JUMPDEST STOP JUMPDEST PUSH2 0xE4 PUSH1 0x4 DUP1 CALLDATASIZE SUB DUP2 ADD SWAP1 PUSH2 0xDF SWAP2 SWAP1 PUSH2 0x10E7 JUMP JUMPDEST PUSH2 0x32C JUMP JUMPDEST PUSH1 0x40 MLOAD PUSH2 0xF2 SWAP3 SWAP2 SWAP1 PUSH2 0x11A2 JUMP JUMPDEST PUSH1 0x40 MLOAD DUP1 SWAP2 SUB SWAP1 RETURN JUMPDEST PUSH2 0x115 PUSH1 0x4 DUP1 CALLDATASIZE SUB DUP2 ADD SWAP1 PUSH2 0x110 SWAP2 SWAP1 PUSH2 0x11D2 JUMP JUMPDEST PUSH2 0x3E8 JUMP JUMPDEST STOP JUMPDEST PUSH2 0x131 PUSH1 0x4 DUP1 CALLDATASIZE SUB DUP2 ADD SWAP1 PUSH2 0x12C SWAP2 SWAP1 PUSH2 0x10E7 JUMP JUMPDEST PUSH2 0x460 JUMP JUMPDEST PUSH1 0x40 MLOAD PUSH2 0x13E SWAP2 SWAP1 PUSH2 0x124A JUMP JUMPDEST PUSH1 0x40 MLOAD DUP1 SWAP2 SUB SWAP1 RETURN JUMPDEST PUSH2 0x14F PUSH2 0x517 JUMP JUMPDEST PUSH1 0x40 MLOAD PUSH2 0x15C SWAP2 SWAP1 PUSH2 0x13C4 JUMP JUMPDEST PUSH1 0x40 MLOAD DUP1 SWAP2 SUB SWAP1 RETURN JUMPDEST PUSH2 0x17F PUSH1 0x4 DUP1 CALLDATASIZE SUB DUP2 ADD SWAP1 PUSH2 0x17A SWAP2 SWAP1 PUSH2 0x10E7 JUMP JUMPDEST PUSH2 0x612 JUMP JUMPDEST PUSH1 0x40 MLOAD PUSH2 0x18F SWAP5 SWAP4 SWAP3 SWAP2 SWAP1 PUSH2 0x13E6 JUMP JUMPDEST PUSH1 0x40 MLOAD DUP1 SWAP2 SUB SWAP1 RETURN JUMPDEST PUSH2 0x1B2 PUSH1 0x4 DUP1 CALLDATASIZE SUB DUP2 ADD SWAP1 PUSH2 0x1AD SWAP2 SWAP1 PUSH2 0x10E7 JUMP JUMPDEST PUSH2 0x8B0 JUMP JUMPDEST PUSH1 0x40 MLOAD PUSH2 0x1C0 SWAP3 SWAP2 SWAP1 PUSH2 0x1447 JUMP JUMPDEST PUSH1 0x40 MLOAD DUP1 SWAP2 SUB SWAP1 RETURN JUMPDEST PUSH2 0x1E3 PUSH1 0x4 DUP1 CALLDATASIZE SUB DUP2 ADD SWAP1 PUSH2 0x1DE SWAP2 SWAP1 PUSH2 0x10E7 JUMP JUMPDEST PUSH2 0x9F4 JUMP JUMPDEST PUSH1 0x40 MLOAD PUSH2 0x1F4 SWAP6 SWAP5 SWAP4 SWAP3 SWAP2 SWAP1 PUSH2 0x147E JUMP JUMPDEST PUSH1 0x40 MLOAD DUP1 SWAP2 SUB SWAP1 RETURN JUMPDEST PUSH2 0x217 PUSH1 0x4 DUP1 CALLDATASIZE SUB DUP2 ADD SWAP1 PUSH2 0x212 SWAP2 SWAP1 PUSH2 0x14ED JUMP JUMPDEST PUSH2 0xC4A JUMP JUMPDEST STOP JUMPDEST PUSH2 0x221 PUSH2 0xCCF JUMP JUMPDEST PUSH1 0x40 MLOAD PUSH2 0x22E SWAP2 SWAP1 PUSH2 0x163C JUMP JUMPDEST PUSH1 0x40 MLOAD DUP1 SWAP2 SUB SWAP1 RETURN JUMPDEST PUSH2 0x251 PUSH1 0x4 DUP1 CALLDATASIZE SUB DUP2 ADD SWAP1 PUSH2 0x24C SWAP2 SWAP1 PUSH2 0x10E7 JUMP JUMPDEST PUSH2 0xE52 JUMP JUMPDEST PUSH1 0x40 MLOAD PUSH2 0x25E SWAP2 SWAP1 PUSH2 0x1679 JUMP JUMPDEST PUSH1 0x40 MLOAD DUP1 SWAP2 SUB SWAP1 RETURN JUMPDEST PUSH1 0x0 PUSH1 0x40 MLOAD DUP1 PUSH1 0xA0 ADD PUSH1 0x40 MSTORE DUP1 PUSH1 0x0 SLOAD DUP2 MSTORE PUSH1 0x20 ADD DUP7 DUP2 MSTORE PUSH1 0x20 ADD DUP6 DUP2 MSTORE PUSH1 0x20 ADD DUP4 DUP2 MSTORE PUSH1 0x20 ADD DUP5 DUP2 MSTORE POP SWAP1 POP DUP1 PUSH1 0x3 PUSH1 0x0 DUP1 SLOAD DUP2 MSTORE PUSH1 0x20 ADD SWAP1 DUP2 MSTORE PUSH1 0x20 ADD PUSH1 0x0 KECCAK256 PUSH1 0x0 DUP3 ADD MLOAD DUP2 PUSH1 0x0 ADD SSTORE PUSH1 0x20 DUP3 ADD MLOAD DUP2 PUSH1 0x1 ADD SWAP1 DUP2 PUSH2 0x2C8 SWAP2 SWAP1 PUSH2 0x18A0 JUMP JUMPDEST POP PUSH1 0x40 DUP3 ADD MLOAD DUP2 PUSH1 0x2 ADD SWAP1 DUP2 PUSH2 0x2DE SWAP2 SWAP1 PUSH2 0x18A0 JUMP JUMPDEST POP PUSH1 0x60 DUP3 ADD MLOAD DUP2 PUSH1 0x3 ADD SWAP1 DUP2 PUSH2 0x2F4 SWAP2 SWAP1 PUSH2 0x18A0 JUMP JUMPDEST POP PUSH1 0x80 DUP3 ADD MLOAD DUP2 PUSH1 0x4 ADD SWAP1 DUP2 PUSH2 0x30A SWAP2 SWAP1 PUSH2 0x18A0 JUMP JUMPDEST POP SWAP1 POP POP PUSH1 0x0 DUP1 DUP2 SLOAD DUP1 SWAP3 SWAP2 SWAP1 PUSH2 0x320 SWAP1 PUSH2 0x19A1 JUMP JUMPDEST SWAP2 SWAP1 POP SSTORE POP POP POP POP POP POP JUMP JUMPDEST PUSH1 0x4 DUP2 DUP2 SLOAD DUP2 LT PUSH2 0x33C JUMPI PUSH1 0x0 DUP1 REVERT JUMPDEST SWAP1 PUSH1 0x0 MSTORE PUSH1 0x20 PUSH1 0x0 KECCAK256 SWAP1 PUSH1 0x2 MUL ADD PUSH1 0x0 SWAP2 POP SWAP1 POP DUP1 PUSH1 0x0 ADD SLOAD SWAP1 DUP1 PUSH1 0x1 ADD DUP1 SLOAD PUSH2 0x365 SWAP1 PUSH2 0x16C3 JUMP JUMPDEST DUP1 PUSH1 0x1F ADD PUSH1 0x20 DUP1 SWAP2 DIV MUL PUSH1 0x20 ADD PUSH1 0x40 MLOAD SWAP1 DUP2 ADD PUSH1 0x40 MSTORE DUP1 SWAP3 SWAP2 SWAP1 DUP2 DUP2 MSTORE PUSH1 0x20 ADD DUP3 DUP1 SLOAD PUSH2 0x391 SWAP1 PUSH2 0x16C3 JUMP JUMPDEST DUP1 ISZERO PUSH2 0x3DE JUMPI DUP1 PUSH1 0x1F LT PUSH2 0x3B3 JUMPI PUSH2 0x100 DUP1 DUP4 SLOAD DIV MUL DUP4 MSTORE SWAP2 PUSH1 0x20 ADD SWAP2 PUSH2 0x3DE JUMP JUMPDEST DUP3 ADD SWAP2 SWAP1 PUSH1 0x0 MSTORE PUSH1 0x20 PUSH1 0x0 KECCAK256 SWAP1 JUMPDEST DUP2 SLOAD DUP2 MSTORE SWAP1 PUSH1 0x1 ADD SWAP1 PUSH1 0x20 ADD DUP1 DUP4 GT PUSH2 0x3C1 JUMPI DUP3 SWAP1 SUB PUSH1 0x1F AND DUP3 ADD SWAP2 JUMPDEST POP POP POP POP POP SWAP1 POP DUP3 JUMP JUMPDEST PUSH1 0x0 PUSH1 0x40 MLOAD DUP1 PUSH1 0x40 ADD PUSH1 0x40 MSTORE DUP1 DUP5 DUP2 MSTORE PUSH1 0x20 ADD DUP4 DUP2 MSTORE POP SWAP1 POP PUSH1 0x2 DUP2 SWAP1 DUP1 PUSH1 0x1 DUP2 SLOAD ADD DUP1 DUP3 SSTORE DUP1 SWAP2 POP POP PUSH1 0x1 SWAP1 SUB SWAP1 PUSH1 0x0 MSTORE PUSH1 0x20 PUSH1 0x0 KECCAK256 SWAP1 PUSH1 0x2 MUL ADD PUSH1 0x0 SWAP1 SWAP2 SWAP1 SWAP2 SWAP1 SWAP2 POP PUSH1 0x0 DUP3 ADD MLOAD DUP2 PUSH1 0x0 ADD SWAP1 DUP2 PUSH2 0x442 SWAP2 SWAP1 PUSH2 0x18A0 JUMP JUMPDEST POP PUSH1 0x20 DUP3 ADD MLOAD DUP2 PUSH1 0x1 ADD SWAP1 DUP2 PUSH2 0x458 SWAP2 SWAP1 PUSH2 0x18A0 JUMP JUMPDEST POP POP POP POP POP POP JUMP JUMPDEST PUSH1 0x60 PUSH1 0x4 DUP3 DUP2 SLOAD DUP2 LT PUSH2 0x476 JUMPI PUSH2 0x475 PUSH2 0x19E9 JUMP JUMPDEST JUMPDEST SWAP1 PUSH1 0x0 MSTORE PUSH1 0x20 PUSH1 0x0 KECCAK256 SWAP1 PUSH1 0x2 MUL ADD PUSH1 0x1 ADD DUP1 SLOAD PUSH2 0x492 SWAP1 PUSH2 0x16C3 JUMP JUMPDEST DUP1 PUSH1 0x1F ADD PUSH1 0x20 DUP1 SWAP2 DIV MUL PUSH1 0x20 ADD PUSH1 0x40 MLOAD SWAP1 DUP2 ADD PUSH1 0x40 MSTORE DUP1 SWAP3 SWAP2 SWAP1 DUP2 DUP2 MSTORE PUSH1 0x20 ADD DUP3 DUP1 SLOAD PUSH2 0x4BE SWAP1 PUSH2 0x16C3 JUMP JUMPDEST DUP1 ISZERO PUSH2 0x50B JUMPI DUP1 PUSH1 0x1F LT PUSH2 0x4E0 JUMPI PUSH2 0x100 DUP1 DUP4 SLOAD DIV MUL DUP4 MSTORE SWAP2 PUSH1 0x20 ADD SWAP2 PUSH2 0x50B JUMP JUMPDEST DUP3 ADD SWAP2 SWAP1 PUSH1 0x0 MSTORE PUSH1 0x20 PUSH1 0x0 KECCAK256 SWAP1 JUMPDEST DUP2 SLOAD DUP2 MSTORE SWAP1 PUSH1 0x1 ADD SWAP1 PUSH1 0x20 ADD DUP1 DUP4 GT PUSH2 0x4EE JUMPI DUP3 SWAP1 SUB PUSH1 0x1F AND DUP3 ADD SWAP2 JUMPDEST POP POP POP POP POP SWAP1 POP SWAP2 SWAP1 POP JUMP JUMPDEST PUSH1 0x60 PUSH1 0x4 DUP1 SLOAD DUP1 PUSH1 0x20 MUL PUSH1 0x20 ADD PUSH1 0x40 MLOAD SWAP1 DUP2 ADD PUSH1 0x40 MSTORE DUP1 SWAP3 SWAP2 SWAP1 DUP2 DUP2 MSTORE PUSH1 0x20 ADD PUSH1 0x0 SWAP1 JUMPDEST DUP3 DUP3 LT ISZERO PUSH2 0x609 JUMPI DUP4 DUP3 SWAP1 PUSH1 0x0 MSTORE PUSH1 0x20 PUSH1 0x0 KECCAK256 SWAP1 PUSH1 0x2 MUL ADD PUSH1 0x40 MLOAD DUP1 PUSH1 0x40 ADD PUSH1 0x40 MSTORE SWAP1 DUP2 PUSH1 0x0 DUP3 ADD SLOAD DUP2 MSTORE PUSH1 0x20 ADD PUSH1 0x1 DUP3 ADD DUP1 SLOAD PUSH2 0x578 SWAP1 PUSH2 0x16C3 JUMP JUMPDEST DUP1 PUSH1 0x1F ADD PUSH1 0x20 DUP1 SWAP2 DIV MUL PUSH1 0x20 ADD PUSH1 0x40 MLOAD SWAP1 DUP2 ADD PUSH1 0x40 MSTORE DUP1 SWAP3 SWAP2 SWAP1 DUP2 DUP2 MSTORE PUSH1 0x20 ADD DUP3 DUP1 SLOAD PUSH2 0x5A4 SWAP1 PUSH2 0x16C3 JUMP JUMPDEST DUP1 ISZERO PUSH2 0x5F1 JUMPI DUP1 PUSH1 0x1F LT PUSH2 0x5C6 JUMPI PUSH2 0x100 DUP1 DUP4 SLOAD DIV MUL DUP4 MSTORE SWAP2 PUSH1 0x20 ADD SWAP2 PUSH2 0x5F1 JUMP JUMPDEST DUP3 ADD SWAP2 SWAP1 PUSH1 0x0 MSTORE PUSH1 0x20 PUSH1 0x0 KECCAK256 SWAP1 JUMPDEST DUP2 SLOAD DUP2 MSTORE SWAP1 PUSH1 0x1 ADD SWAP1 PUSH1 0x20 ADD DUP1 DUP4 GT PUSH2 0x5D4 JUMPI DUP3 SWAP1 SUB PUSH1 0x1F AND DUP3 ADD SWAP2 JUMPDEST POP POP POP POP POP DUP2 MSTORE POP POP DUP2 MSTORE PUSH1 0x20 ADD SWAP1 PUSH1 0x1 ADD SWAP1 PUSH2 0x53B JUMP JUMPDEST POP POP POP POP SWAP1 POP SWAP1 JUMP JUMPDEST PUSH1 0x60 DUP1 PUSH1 0x60 DUP1 PUSH1 0x0 PUSH1 0x3 PUSH1 0x0 DUP8 DUP2 MSTORE PUSH1 0x20 ADD SWAP1 DUP2 MSTORE PUSH1 0x20 ADD PUSH1 0x0 KECCAK256 PUSH1 0x40 MLOAD DUP1 PUSH1 0xA0 ADD PUSH1 0x40 MSTORE SWAP1 DUP2 PUSH1 0x0 DUP3 ADD SLOAD DUP2 MSTORE PUSH1 0x20 ADD PUSH1 0x1 DUP3 ADD DUP1 SLOAD PUSH2 0x652 SWAP1 PUSH2 0x16C3 JUMP JUMPDEST DUP1 PUSH1 0x1F ADD PUSH1 0x20 DUP1 SWAP2 DIV MUL PUSH1 0x20 ADD PUSH1 0x40 MLOAD SWAP1 DUP2 ADD PUSH1 0x40 MSTORE DUP1 SWAP3 SWAP2 SWAP1 DUP2 DUP2 MSTORE PUSH1 0x20 ADD DUP3 DUP1 SLOAD PUSH2 0x67E SWAP1 PUSH2 0x16C3 JUMP JUMPDEST DUP1 ISZERO PUSH2 0x6CB JUMPI DUP1 PUSH1 0x1F LT PUSH2 0x6A0 JUMPI PUSH2 0x100 DUP1 DUP4 SLOAD DIV MUL DUP4 MSTORE SWAP2 PUSH1 0x20 ADD SWAP2 PUSH2 0x6CB JUMP JUMPDEST DUP3 ADD SWAP2 SWAP1 PUSH1 0x0 MSTORE PUSH1 0x20 PUSH1 0x0 KECCAK256 SWAP1 JUMPDEST DUP2 SLOAD DUP2 MSTORE SWAP1 PUSH1 0x1 ADD SWAP1 PUSH1 0x20 ADD DUP1 DUP4 GT PUSH2 0x6AE JUMPI DUP3 SWAP1 SUB PUSH1 0x1F AND DUP3 ADD SWAP2 JUMPDEST POP POP POP POP POP DUP2 MSTORE PUSH1 0x20 ADD PUSH1 0x2 DUP3 ADD DUP1 SLOAD PUSH2 0x6E4 SWAP1 PUSH2 0x16C3 JUMP JUMPDEST DUP1 PUSH1 0x1F ADD PUSH1 0x20 DUP1 SWAP2 DIV MUL PUSH1 0x20 ADD PUSH1 0x40 MLOAD SWAP1 DUP2 ADD PUSH1 0x40 MSTORE DUP1 SWAP3 SWAP2 SWAP1 DUP2 DUP2 MSTORE PUSH1 0x20 ADD DUP3 DUP1 SLOAD PUSH2 0x710 SWAP1 PUSH2 0x16C3 JUMP JUMPDEST DUP1 ISZERO PUSH2 0x75D JUMPI DUP1 PUSH1 0x1F LT PUSH2 0x732 JUMPI PUSH2 0x100 DUP1 DUP4 SLOAD DIV MUL DUP4 MSTORE SWAP2 PUSH1 0x20 ADD SWAP2 PUSH2 0x75D JUMP JUMPDEST DUP3 ADD SWAP2 SWAP1 PUSH1 0x0 MSTORE PUSH1 0x20 PUSH1 0x0 KECCAK256 SWAP1 JUMPDEST DUP2 SLOAD DUP2 MSTORE SWAP1 PUSH1 0x1 ADD SWAP1 PUSH1 0x20 ADD DUP1 DUP4 GT PUSH2 0x740 JUMPI DUP3 SWAP1 SUB PUSH1 0x1F AND DUP3 ADD SWAP2 JUMPDEST POP POP POP POP POP DUP2 MSTORE PUSH1 0x20 ADD PUSH1 0x3 DUP3 ADD DUP1 SLOAD PUSH2 0x776 SWAP1 PUSH2 0x16C3 JUMP JUMPDEST DUP1 PUSH1 0x1F ADD PUSH1 0x20 DUP1 SWAP2 DIV MUL PUSH1 0x20 ADD PUSH1 0x40 MLOAD SWAP1 DUP2 ADD PUSH1 0x40 MSTORE DUP1 SWAP3 SWAP2 SWAP1 DUP2 DUP2 MSTORE PUSH1 0x20 ADD DUP3 DUP1 SLOAD PUSH2 0x7A2 SWAP1 PUSH2 0x16C3 JUMP JUMPDEST DUP1 ISZERO PUSH2 0x7EF JUMPI DUP1 PUSH1 0x1F LT PUSH2 0x7C4 JUMPI PUSH2 0x100 DUP1 DUP4 SLOAD DIV MUL DUP4 MSTORE SWAP2 PUSH1 0x20 ADD SWAP2 PUSH2 0x7EF JUMP JUMPDEST DUP3 ADD SWAP2 SWAP1 PUSH1 0x0 MSTORE PUSH1 0x20 PUSH1 0x0 KECCAK256 SWAP1 JUMPDEST DUP2 SLOAD DUP2 MSTORE SWAP1 PUSH1 0x1 ADD SWAP1 PUSH1 0x20 ADD DUP1 DUP4 GT PUSH2 0x7D2 JUMPI DUP3 SWAP1 SUB PUSH1 0x1F AND DUP3 ADD SWAP2 JUMPDEST POP POP POP POP POP DUP2 MSTORE PUSH1 0x20 ADD PUSH1 0x4 DUP3 ADD DUP1 SLOAD PUSH2 0x808 SWAP1 PUSH2 0x16C3 JUMP JUMPDEST DUP1 PUSH1 0x1F ADD PUSH1 0x20 DUP1 SWAP2 DIV MUL PUSH1 0x20 ADD PUSH1 0x40 MLOAD SWAP1 DUP2 ADD PUSH1 0x40 MSTORE DUP1 SWAP3 SWAP2 SWAP1 DUP2 DUP2 MSTORE PUSH1 0x20 ADD DUP3 DUP1 SLOAD PUSH2 0x834 SWAP1 PUSH2 0x16C3 JUMP JUMPDEST DUP1 ISZERO PUSH2 0x881 JUMPI DUP1 PUSH1 0x1F LT PUSH2 0x856 JUMPI PUSH2 0x100 DUP1 DUP4 SLOAD DIV MUL DUP4 MSTORE SWAP2 PUSH1 0x20 ADD SWAP2 PUSH2 0x881 JUMP JUMPDEST DUP3 ADD SWAP2 SWAP1 PUSH1 0x0 MSTORE PUSH1 0x20 PUSH1 0x0 KECCAK256 SWAP1 JUMPDEST DUP2 SLOAD DUP2 MSTORE SWAP1 PUSH1 0x1 ADD SWAP1 PUSH1 0x20 ADD DUP1 DUP4 GT PUSH2 0x864 JUMPI DUP3 SWAP1 SUB PUSH1 0x1F AND DUP3 ADD SWAP2 JUMPDEST POP POP POP POP POP DUP2 MSTORE POP POP SWAP1 POP DUP1 PUSH1 0x20 ADD MLOAD DUP2 PUSH1 0x40 ADD MLOAD DUP3 PUSH1 0x80 ADD MLOAD DUP4 PUSH1 0x60 ADD MLOAD SWAP5 POP SWAP5 POP SWAP5 POP SWAP5 POP POP SWAP2 SWAP4 POP SWAP2 SWAP4 JUMP JUMPDEST PUSH1 0x2 DUP2 DUP2 SLOAD DUP2 LT PUSH2 0x8C0 JUMPI PUSH1 0x0 DUP1 REVERT JUMPDEST SWAP1 PUSH1 0x0 MSTORE PUSH1 0x20 PUSH1 0x0 KECCAK256 SWAP1 PUSH1 0x2 MUL ADD PUSH1 0x0 SWAP2 POP SWAP1 POP DUP1 PUSH1 0x0 ADD DUP1 SLOAD PUSH2 0x8E3 SWAP1 PUSH2 0x16C3 JUMP JUMPDEST DUP1 PUSH1 0x1F ADD PUSH1 0x20 DUP1 SWAP2 DIV MUL PUSH1 0x20 ADD PUSH1 0x40 MLOAD SWAP1 DUP2 ADD PUSH1 0x40 MSTORE DUP1 SWAP3 SWAP2 SWAP1 DUP2 DUP2 MSTORE PUSH1 0x20 ADD DUP3 DUP1 SLOAD PUSH2 0x90F SWAP1 PUSH2 0x16C3 JUMP JUMPDEST DUP1 ISZERO PUSH2 0x95C JUMPI DUP1 PUSH1 0x1F LT PUSH2 0x931 JUMPI PUSH2 0x100 DUP1 DUP4 SLOAD DIV MUL DUP4 MSTORE SWAP2 PUSH1 0x20 ADD SWAP2 PUSH2 0x95C JUMP JUMPDEST DUP3 ADD SWAP2 SWAP1 PUSH1 0x0 MSTORE PUSH1 0x20 PUSH1 0x0 KECCAK256 SWAP1 JUMPDEST DUP2 SLOAD DUP2 MSTORE SWAP1 PUSH1 0x1 ADD SWAP1 PUSH1 0x20 ADD DUP1 DUP4 GT PUSH2 0x93F JUMPI DUP3 SWAP1 SUB PUSH1 0x1F AND DUP3 ADD SWAP2 JUMPDEST POP POP POP POP POP SWAP1 DUP1 PUSH1 0x1 ADD DUP1 SLOAD PUSH2 0x971 SWAP1 PUSH2 0x16C3 JUMP JUMPDEST DUP1 PUSH1 0x1F ADD PUSH1 0x20 DUP1 SWAP2 DIV MUL PUSH1 0x20 ADD PUSH1 0x40 MLOAD SWAP1 DUP2 ADD PUSH1 0x40 MSTORE DUP1 SWAP3 SWAP2 SWAP1 DUP2 DUP2 MSTORE PUSH1 0x20 ADD DUP3 DUP1 SLOAD PUSH2 0x99D SWAP1 PUSH2 0x16C3 JUMP JUMPDEST DUP1 ISZERO PUSH2 0x9EA JUMPI DUP1 PUSH1 0x1F LT PUSH2 0x9BF JUMPI PUSH2 0x100 DUP1 DUP4 SLOAD DIV MUL DUP4 MSTORE SWAP2 PUSH1 0x20 ADD SWAP2 PUSH2 0x9EA JUMP JUMPDEST DUP3 ADD SWAP2 SWAP1 PUSH1 0x0 MSTORE PUSH1 0x20 PUSH1 0x0 KECCAK256 SWAP1 JUMPDEST DUP2 SLOAD DUP2 MSTORE SWAP1 PUSH1 0x1 ADD SWAP1 PUSH1 0x20 ADD DUP1 DUP4 GT PUSH2 0x9CD JUMPI DUP3 SWAP1 SUB PUSH1 0x1F AND DUP3 ADD SWAP2 JUMPDEST POP POP POP POP POP SWAP1 POP DUP3 JUMP JUMPDEST PUSH1 0x3 PUSH1 0x20 MSTORE DUP1 PUSH1 0x0 MSTORE PUSH1 0x40 PUSH1 0x0 KECCAK256 PUSH1 0x0 SWAP2 POP SWAP1 POP DUP1 PUSH1 0x0 ADD SLOAD SWAP1 DUP1 PUSH1 0x1 ADD DUP1 SLOAD PUSH2 0xA1D SWAP1 PUSH2 0x16C3 JUMP JUMPDEST DUP1 PUSH1 0x1F ADD PUSH1 0x20 DUP1 SWAP2 DIV MUL PUSH1 0x20 ADD PUSH1 0x40 MLOAD SWAP1 DUP2 ADD PUSH1 0x40 MSTORE DUP1 SWAP3 SWAP2 SWAP1 DUP2 DUP2 MSTORE PUSH1 0x20 ADD DUP3 DUP1 SLOAD PUSH2 0xA49 SWAP1 PUSH2 0x16C3 JUMP JUMPDEST DUP1 ISZERO PUSH2 0xA96 JUMPI DUP1 PUSH1 0x1F LT PUSH2 0xA6B JUMPI PUSH2 0x100 DUP1 DUP4 SLOAD DIV MUL DUP4 MSTORE SWAP2 PUSH1 0x20 ADD SWAP2 PUSH2 0xA96 JUMP JUMPDEST DUP3 ADD SWAP2 SWAP1 PUSH1 0x0 MSTORE PUSH1 0x20 PUSH1 0x0 KECCAK256 SWAP1 JUMPDEST DUP2 SLOAD DUP2 MSTORE SWAP1 PUSH1 0x1 ADD SWAP1 PUSH1 0x20 ADD DUP1 DUP4 GT PUSH2 0xA79 JUMPI DUP3 SWAP1 SUB PUSH1 0x1F AND DUP3 ADD SWAP2 JUMPDEST POP POP POP POP POP SWAP1 DUP1 PUSH1 0x2 ADD DUP1 SLOAD PUSH2 0xAAB SWAP1 PUSH2 0x16C3 JUMP JUMPDEST DUP1 PUSH1 0x1F ADD PUSH1 0x20 DUP1 SWAP2 DIV MUL PUSH1 0x20 ADD PUSH1 0x40 MLOAD SWAP1 DUP2 ADD PUSH1 0x40 MSTORE DUP1 SWAP3 SWAP2 SWAP1 DUP2 DUP2 MSTORE PUSH1 0x20 ADD DUP3 DUP1 SLOAD PUSH2 0xAD7 SWAP1 PUSH2 0x16C3 JUMP JUMPDEST DUP1 ISZERO PUSH2 0xB24 JUMPI DUP1 PUSH1 0x1F LT PUSH2 0xAF9 JUMPI PUSH2 0x100 DUP1 DUP4 SLOAD DIV MUL DUP4 MSTORE SWAP2 PUSH1 0x20 ADD SWAP2 PUSH2 0xB24 JUMP JUMPDEST DUP3 ADD SWAP2 SWAP1 PUSH1 0x0 MSTORE PUSH1 0x20 PUSH1 0x0 KECCAK256 SWAP1 JUMPDEST DUP2 SLOAD DUP2 MSTORE SWAP1 PUSH1 0x1 ADD SWAP1 PUSH1 0x20 ADD DUP1 DUP4 GT PUSH2 0xB07 JUMPI DUP3 SWAP1 SUB PUSH1 0x1F AND DUP3 ADD SWAP2 JUMPDEST POP POP POP POP POP SWAP1 DUP1 PUSH1 0x3 ADD DUP1 SLOAD PUSH2 0xB39 SWAP1 PUSH2 0x16C3 JUMP JUMPDEST DUP1 PUSH1 0x1F ADD PUSH1 0x20 DUP1 SWAP2 DIV MUL PUSH1 0x20 ADD PUSH1 0x40 MLOAD SWAP1 DUP2 ADD PUSH1 0x40 MSTORE DUP1 SWAP3 SWAP2 SWAP1 DUP2 DUP2 MSTORE PUSH1 0x20 ADD DUP3 DUP1 SLOAD PUSH2 0xB65 SWAP1 PUSH2 0x16C3 JUMP JUMPDEST DUP1 ISZERO PUSH2 0xBB2 JUMPI DUP1 PUSH1 0x1F LT PUSH2 0xB87 JUMPI PUSH2 0x100 DUP1 DUP4 SLOAD DIV MUL DUP4 MSTORE SWAP2 PUSH1 0x20 ADD SWAP2 PUSH2 0xBB2 JUMP JUMPDEST DUP3 ADD SWAP2 SWAP1 PUSH1 0x0 MSTORE PUSH1 0x20 PUSH1 0x0 KECCAK256 SWAP1 JUMPDEST DUP2 SLOAD DUP2 MSTORE SWAP1 PUSH1 0x1 ADD SWAP1 PUSH1 0x20 ADD DUP1 DUP4 GT PUSH2 0xB95 JUMPI DUP3 SWAP1 SUB PUSH1 0x1F AND DUP3 ADD SWAP2 JUMPDEST POP POP POP POP POP SWAP1 DUP1 PUSH1 0x4 ADD DUP1 SLOAD PUSH2 0xBC7 SWAP1 PUSH2 0x16C3 JUMP JUMPDEST DUP1 PUSH1 0x1F ADD PUSH1 0x20 DUP1 SWAP2 DIV MUL PUSH1 0x20 ADD PUSH1 0x40 MLOAD SWAP1 DUP2 ADD PUSH1 0x40 MSTORE DUP1 SWAP3 SWAP2 SWAP1 DUP2 DUP2 MSTORE PUSH1 0x20 ADD DUP3 DUP1 SLOAD PUSH2 0xBF3 SWAP1 PUSH2 0x16C3 JUMP JUMPDEST DUP1 ISZERO PUSH2 0xC40 JUMPI DUP1 PUSH1 0x1F LT PUSH2 0xC15 JUMPI PUSH2 0x100 DUP1 DUP4 SLOAD DIV MUL DUP4 MSTORE SWAP2 PUSH1 0x20 ADD SWAP2 PUSH2 0xC40 JUMP JUMPDEST DUP3 ADD SWAP2 SWAP1 PUSH1 0x0 MSTORE PUSH1 0x20 PUSH1 0x0 KECCAK256 SWAP1 JUMPDEST DUP2 SLOAD DUP2 MSTORE SWAP1 PUSH1 0x1 ADD SWAP1 PUSH1 0x20 ADD DUP1 DUP4 GT PUSH2 0xC23 JUMPI DUP3 SWAP1 SUB PUSH1 0x1F AND DUP3 ADD SWAP2 JUMPDEST POP POP POP POP POP SWAP1 POP DUP6 JUMP JUMPDEST PUSH1 0x0 PUSH1 0x40 MLOAD DUP1 PUSH1 0x40 ADD PUSH1 0x40 MSTORE DUP1 PUSH1 0x1 SLOAD DUP2 MSTORE PUSH1 0x20 ADD DUP4 DUP2 MSTORE POP SWAP1 POP PUSH1 0x1 PUSH1 0x0 DUP2 SLOAD DUP1 SWAP3 SWAP2 SWAP1 PUSH2 0xC78 SWAP1 PUSH2 0x19A1 JUMP JUMPDEST SWAP2 SWAP1 POP SSTORE POP PUSH1 0x4 DUP2 SWAP1 DUP1 PUSH1 0x1 DUP2 SLOAD ADD DUP1 DUP3 SSTORE DUP1 SWAP2 POP POP PUSH1 0x1 SWAP1 SUB SWAP1 PUSH1 0x0 MSTORE PUSH1 0x20 PUSH1 0x0 KECCAK256 SWAP1 PUSH1 0x2 MUL ADD PUSH1 0x0 SWAP1 SWAP2 SWAP1 SWAP2 SWAP1 SWAP2 POP PUSH1 0x0 DUP3 ADD MLOAD DUP2 PUSH1 0x0 ADD SSTORE PUSH1 0x20 DUP3 ADD MLOAD DUP2 PUSH1 0x1 ADD SWAP1 DUP2 PUSH2 0xCC8 SWAP2 SWAP1 PUSH2 0x18A0 JUMP JUMPDEST POP POP POP POP POP JUMP JUMPDEST PUSH1 0x60 PUSH1 0x2 DUP1 SLOAD DUP1 PUSH1 0x20 MUL PUSH1 0x20 ADD PUSH1 0x40 MLOAD SWAP1 DUP2 ADD PUSH1 0x40 MSTORE DUP1 SWAP3 SWAP2 SWAP1 DUP2 DUP2 MSTORE PUSH1 0x20 ADD PUSH1 0x0 SWAP1 JUMPDEST DUP3 DUP3 LT ISZERO PUSH2 0xE49 JUMPI DUP4 DUP3 SWAP1 PUSH1 0x0 MSTORE PUSH1 0x20 PUSH1 0x0 KECCAK256 SWAP1 PUSH1 0x2 MUL ADD PUSH1 0x40 MLOAD DUP1 PUSH1 0x40 ADD PUSH1 0x40 MSTORE SWAP1 DUP2 PUSH1 0x0 DUP3 ADD DUP1 SLOAD PUSH2 0xD26 SWAP1 PUSH2 0x16C3 JUMP JUMPDEST DUP1 PUSH1 0x1F ADD PUSH1 0x20 DUP1 SWAP2 DIV MUL PUSH1 0x20 ADD PUSH1 0x40 MLOAD SWAP1 DUP2 ADD PUSH1 0x40 MSTORE DUP1 SWAP3 SWAP2 SWAP1 DUP2 DUP2 MSTORE PUSH1 0x20 ADD DUP3 DUP1 SLOAD PUSH2 0xD52 SWAP1 PUSH2 0x16C3 JUMP JUMPDEST DUP1 ISZERO PUSH2 0xD9F JUMPI DUP1 PUSH1 0x1F LT PUSH2 0xD74 JUMPI PUSH2 0x100 DUP1 DUP4 SLOAD DIV MUL DUP4 MSTORE SWAP2 PUSH1 0x20 ADD SWAP2 PUSH2 0xD9F JUMP JUMPDEST DUP3 ADD SWAP2 SWAP1 PUSH1 0x0 MSTORE PUSH1 0x20 PUSH1 0x0 KECCAK256 SWAP1 JUMPDEST DUP2 SLOAD DUP2 MSTORE SWAP1 PUSH1 0x1 ADD SWAP1 PUSH1 0x20 ADD DUP1 DUP4 GT PUSH2 0xD82 JUMPI DUP3 SWAP1 SUB PUSH1 0x1F AND DUP3 ADD SWAP2 JUMPDEST POP POP POP POP POP DUP2 MSTORE PUSH1 0x20 ADD PUSH1 0x1 DUP3 ADD DUP1 SLOAD PUSH2 0xDB8 SWAP1 PUSH2 0x16C3 JUMP JUMPDEST DUP1 PUSH1 0x1F ADD PUSH1 0x20 DUP1 SWAP2 DIV MUL PUSH1 0x20 ADD PUSH1 0x40 MLOAD SWAP1 DUP2 ADD PUSH1 0x40 MSTORE DUP1 SWAP3 SWAP2 SWAP1 DUP2 DUP2 MSTORE PUSH1 0x20 ADD DUP3 DUP1 SLOAD PUSH2 0xDE4 SWAP1 PUSH2 0x16C3 JUMP JUMPDEST DUP1 ISZERO PUSH2 0xE31 JUMPI DUP1 PUSH1 0x1F LT PUSH2 0xE06 JUMPI PUSH2 0x100 DUP1 DUP4 SLOAD DIV MUL DUP4 MSTORE SWAP2 PUSH1 0x20 ADD SWAP2 PUSH2 0xE31 JUMP JUMPDEST DUP3 ADD SWAP2 SWAP1 PUSH1 0x0 MSTORE PUSH1 0x20 PUSH1 0x0 KECCAK256 SWAP1 JUMPDEST DUP2 SLOAD DUP2 MSTORE SWAP1 PUSH1 0x1 ADD SWAP1 PUSH1 0x20 ADD DUP1 DUP4 GT PUSH2 0xE14 JUMPI DUP3 SWAP1 SUB PUSH1 0x1F AND DUP3 ADD SWAP2 JUMPDEST POP POP POP POP POP DUP2 MSTORE POP POP DUP2 MSTORE PUSH1 0x20 ADD SWAP1 PUSH1 0x1 ADD SWAP1 PUSH2 0xCF3 JUMP JUMPDEST POP POP POP POP SWAP1 POP SWAP1 JUMP JUMPDEST PUSH1 0x0 DUP1 PUSH1 0x3 PUSH1 0x0 DUP5 DUP2 MSTORE PUSH1 0x20 ADD SWAP1 DUP2 MSTORE PUSH1 0x20 ADD PUSH1 0x0 KECCAK256 PUSH1 0x1 ADD DUP1 SLOAD PUSH2 0xE76 SWAP1 PUSH2 0x16C3 JUMP JUMPDEST SWAP1 POP GT SWAP1 POP SWAP2 SWAP1 POP JUMP JUMPDEST PUSH1 0x0 PUSH1 0x40 MLOAD SWAP1 POP SWAP1 JUMP JUMPDEST PUSH1 0x0 DUP1 REVERT JUMPDEST PUSH1 0x0 DUP1 REVERT JUMPDEST PUSH1 0x0 DUP1 REVERT JUMPDEST PUSH1 0x0 DUP1 REVERT JUMPDEST PUSH1 0x0 PUSH1 0x1F NOT PUSH1 0x1F DUP4 ADD AND SWAP1 POP SWAP2 SWAP1 POP JUMP JUMPDEST PUSH32 0x4E487B7100000000000000000000000000000000000000000000000000000000 PUSH1 0x0 MSTORE PUSH1 0x41 PUSH1 0x4 MSTORE PUSH1 0x24 PUSH1 0x0 REVERT JUMPDEST PUSH2 0xEE7 DUP3 PUSH2 0xE9E JUMP JUMPDEST DUP2 ADD DUP2 DUP2 LT PUSH8 0xFFFFFFFFFFFFFFFF DUP3 GT OR ISZERO PUSH2 0xF06 JUMPI PUSH2 0xF05 PUSH2 0xEAF JUMP JUMPDEST JUMPDEST DUP1 PUSH1 0x40 MSTORE POP POP POP JUMP JUMPDEST PUSH1 0x0 PUSH2 0xF19 PUSH2 0xE80 JUMP JUMPDEST SWAP1 POP PUSH2 0xF25 DUP3 DUP3 PUSH2 0xEDE JUMP JUMPDEST SWAP2 SWAP1 POP JUMP JUMPDEST PUSH1 0x0 PUSH8 0xFFFFFFFFFFFFFFFF DUP3 GT ISZERO PUSH2 0xF45 JUMPI PUSH2 0xF44 PUSH2 0xEAF JUMP JUMPDEST JUMPDEST PUSH2 0xF4E DUP3 PUSH2 0xE9E JUMP JUMPDEST SWAP1 POP PUSH1 0x20 DUP2 ADD SWAP1 POP SWAP2 SWAP1 POP JUMP JUMPDEST DUP3 DUP2 DUP4 CALLDATACOPY PUSH1 0x0 DUP4 DUP4 ADD MSTORE POP POP POP JUMP JUMPDEST PUSH1 0x0 PUSH2 0xF7D PUSH2 0xF78 DUP5 PUSH2 0xF2A JUMP JUMPDEST PUSH2 0xF0F JUMP JUMPDEST SWAP1 POP DUP3 DUP2 MSTORE PUSH1 0x20 DUP2 ADD DUP5 DUP5 DUP5 ADD GT ISZERO PUSH2 0xF99 JUMPI PUSH2 0xF98 PUSH2 0xE99 JUMP JUMPDEST JUMPDEST PUSH2 0xFA4 DUP5 DUP3 DUP6 PUSH2 0xF5B JUMP JUMPDEST POP SWAP4 SWAP3 POP POP POP JUMP JUMPDEST PUSH1 0x0 DUP3 PUSH1 0x1F DUP4 ADD SLT PUSH2 0xFC1 JUMPI PUSH2 0xFC0 PUSH2 0xE94 JUMP JUMPDEST JUMPDEST DUP2 CALLDATALOAD PUSH2 0xFD1 DUP5 DUP3 PUSH1 0x20 DUP7 ADD PUSH2 0xF6A JUMP JUMPDEST SWAP2 POP POP SWAP3 SWAP2 POP POP JUMP JUMPDEST PUSH1 0x0 DUP1 PUSH1 0x0 DUP1 PUSH1 0x80 DUP6 DUP8 SUB SLT ISZERO PUSH2 0xFF4 JUMPI PUSH2 0xFF3 PUSH2 0xE8A JUMP JUMPDEST JUMPDEST PUSH1 0x0 DUP6 ADD CALLDATALOAD PUSH8 0xFFFFFFFFFFFFFFFF DUP2 GT ISZERO PUSH2 0x1012 JUMPI PUSH2 0x1011 PUSH2 0xE8F JUMP JUMPDEST JUMPDEST PUSH2 0x101E DUP8 DUP3 DUP9 ADD PUSH2 0xFAC JUMP JUMPDEST SWAP5 POP POP PUSH1 0x20 DUP6 ADD CALLDATALOAD PUSH8 0xFFFFFFFFFFFFFFFF DUP2 GT ISZERO PUSH2 0x103F JUMPI PUSH2 0x103E PUSH2 0xE8F JUMP JUMPDEST JUMPDEST PUSH2 0x104B DUP8 DUP3 DUP9 ADD PUSH2 0xFAC JUMP JUMPDEST SWAP4 POP POP PUSH1 0x40 DUP6 ADD CALLDATALOAD PUSH8 0xFFFFFFFFFFFFFFFF DUP2 GT ISZERO PUSH2 0x106C JUMPI PUSH2 0x106B PUSH2 0xE8F JUMP JUMPDEST JUMPDEST PUSH2 0x1078 DUP8 DUP3 DUP9 ADD PUSH2 0xFAC JUMP JUMPDEST SWAP3 POP POP PUSH1 0x60 DUP6 ADD CALLDATALOAD PUSH8 0xFFFFFFFFFFFFFFFF DUP2 GT ISZERO PUSH2 0x1099 JUMPI PUSH2 0x1098 PUSH2 0xE8F JUMP JUMPDEST JUMPDEST PUSH2 0x10A5 DUP8 DUP3 DUP9 ADD PUSH2 0xFAC JUMP JUMPDEST SWAP2 POP POP SWAP3 SWAP6 SWAP2 SWAP5 POP SWAP3 POP JUMP JUMPDEST PUSH1 0x0 DUP2 SWAP1 POP SWAP2 SWAP1 POP JUMP JUMPDEST PUSH2 0x10C4 DUP2 PUSH2 0x10B1 JUMP JUMPDEST DUP2 EQ PUSH2 0x10CF JUMPI PUSH1 0x0 DUP1 REVERT JUMPDEST POP JUMP JUMPDEST PUSH1 0x0 DUP2 CALLDATALOAD SWAP1 POP PUSH2 0x10E1 DUP2 PUSH2 0x10BB JUMP JUMPDEST SWAP3 SWAP2 POP POP JUMP JUMPDEST PUSH1 0x0 PUSH1 0x20 DUP3 DUP5 SUB SLT ISZERO PUSH2 0x10FD JUMPI PUSH2 0x10FC PUSH2 0xE8A JUMP JUMPDEST JUMPDEST PUSH1 0x0 PUSH2 0x110B DUP5 DUP3 DUP6 ADD PUSH2 0x10D2 JUMP JUMPDEST SWAP2 POP POP SWAP3 SWAP2 POP POP JUMP JUMPDEST PUSH2 0x111D DUP2 PUSH2 0x10B1 JUMP JUMPDEST DUP3 MSTORE POP POP JUMP JUMPDEST PUSH1 0x0 DUP2 MLOAD SWAP1 POP SWAP2 SWAP1 POP JUMP JUMPDEST PUSH1 0x0 DUP3 DUP3 MSTORE PUSH1 0x20 DUP3 ADD SWAP1 POP SWAP3 SWAP2 POP POP JUMP JUMPDEST PUSH1 0x0 JUMPDEST DUP4 DUP2 LT ISZERO PUSH2 0x115D JUMPI DUP1 DUP3 ADD MLOAD DUP2 DUP5 ADD MSTORE PUSH1 0x20 DUP2 ADD SWAP1 POP PUSH2 0x1142 JUMP JUMPDEST PUSH1 0x0 DUP5 DUP5 ADD MSTORE POP POP POP POP JUMP JUMPDEST PUSH1 0x0 PUSH2 0x1174 DUP3 PUSH2 0x1123 JUMP JUMPDEST PUSH2 0x117E DUP2 DUP6 PUSH2 0x112E JUMP JUMPDEST SWAP4 POP PUSH2 0x118E DUP2 DUP6 PUSH1 0x20 DUP7 ADD PUSH2 0x113F JUMP JUMPDEST PUSH2 0x1197 DUP2 PUSH2 0xE9E JUMP JUMPDEST DUP5 ADD SWAP2 POP POP SWAP3 SWAP2 POP POP JUMP JUMPDEST PUSH1 0x0 PUSH1 0x40 DUP3 ADD SWAP1 POP PUSH2 0x11B7 PUSH1 0x0 DUP4 ADD DUP6 PUSH2 0x1114 JUMP JUMPDEST DUP2 DUP2 SUB PUSH1 0x20 DUP4 ADD MSTORE PUSH2 0x11C9 DUP2 DUP5 PUSH2 0x1169 JUMP JUMPDEST SWAP1 POP SWAP4 SWAP3 POP POP POP JUMP JUMPDEST PUSH1 0x0 DUP1 PUSH1 0x40 DUP4 DUP6 SUB SLT ISZERO PUSH2 0x11E9 JUMPI PUSH2 0x11E8 PUSH2 0xE8A JUMP JUMPDEST JUMPDEST PUSH1 0x0 DUP4 ADD CALLDATALOAD PUSH8 0xFFFFFFFFFFFFFFFF DUP2 GT ISZERO PUSH2 0x1207 JUMPI PUSH2 0x1206 PUSH2 0xE8F JUMP JUMPDEST JUMPDEST PUSH2 0x1213 DUP6 DUP3 DUP7 ADD PUSH2 0xFAC JUMP JUMPDEST SWAP3 POP POP PUSH1 0x20 DUP4 ADD CALLDATALOAD PUSH8 0xFFFFFFFFFFFFFFFF DUP2 GT ISZERO PUSH2 0x1234 JUMPI PUSH2 0x1233 PUSH2 0xE8F JUMP JUMPDEST JUMPDEST PUSH2 0x1240 DUP6 DUP3 DUP7 ADD PUSH2 0xFAC JUMP JUMPDEST SWAP2 POP POP SWAP3 POP SWAP3 SWAP1 POP JUMP JUMPDEST PUSH1 0x0 PUSH1 0x20 DUP3 ADD SWAP1 POP DUP2 DUP2 SUB PUSH1 0x0 DUP4 ADD MSTORE PUSH2 0x1264 DUP2 DUP5 PUSH2 0x1169 JUMP JUMPDEST SWAP1 POP SWAP3 SWAP2 POP POP JUMP JUMPDEST PUSH1 0x0 DUP2 MLOAD SWAP1 POP SWAP2 SWAP1 POP JUMP JUMPDEST PUSH1 0x0 DUP3 DUP3 MSTORE PUSH1 0x20 DUP3 ADD SWAP1 POP SWAP3 SWAP2 POP POP JUMP JUMPDEST PUSH1 0x0 DUP2 SWAP1 POP PUSH1 0x20 DUP3 ADD SWAP1 POP SWAP2 SWAP1 POP JUMP JUMPDEST PUSH2 0x12A1 DUP2 PUSH2 0x10B1 JUMP JUMPDEST DUP3 MSTORE POP POP JUMP JUMPDEST PUSH1 0x0 DUP3 DUP3 MSTORE PUSH1 0x20 DUP3 ADD SWAP1 POP SWAP3 SWAP2 POP POP JUMP JUMPDEST PUSH1 0x0 PUSH2 0x12C3 DUP3 PUSH2 0x1123 JUMP JUMPDEST PUSH2 0x12CD DUP2 DUP6 PUSH2 0x12A7 JUMP JUMPDEST SWAP4 POP PUSH2 0x12DD DUP2 DUP6 PUSH1 0x20 DUP7 ADD PUSH2 0x113F JUMP JUMPDEST PUSH2 0x12E6 DUP2 PUSH2 0xE9E JUMP JUMPDEST DUP5 ADD SWAP2 POP POP SWAP3 SWAP2 POP POP JUMP JUMPDEST PUSH1 0x0 PUSH1 0x40 DUP4 ADD PUSH1 0x0 DUP4 ADD MLOAD PUSH2 0x1309 PUSH1 0x0 DUP7 ADD DUP3 PUSH2 0x1298 JUMP JUMPDEST POP PUSH1 0x20 DUP4 ADD MLOAD DUP5 DUP3 SUB PUSH1 0x20 DUP7 ADD MSTORE PUSH2 0x1321 DUP3 DUP3 PUSH2 0x12B8 JUMP JUMPDEST SWAP2 POP POP DUP1 SWAP2 POP POP SWAP3 SWAP2 POP POP JUMP JUMPDEST PUSH1 0x0 PUSH2 0x133A DUP4 DUP4 PUSH2 0x12F1 JUMP JUMPDEST SWAP1 POP SWAP3 SWAP2 POP POP JUMP JUMPDEST PUSH1 0x0 PUSH1 0x20 DUP3 ADD SWAP1 POP SWAP2 SWAP1 POP JUMP JUMPDEST PUSH1 0x0 PUSH2 0x135A DUP3 PUSH2 0x126C JUMP JUMPDEST PUSH2 0x1364 DUP2 DUP6 PUSH2 0x1277 JUMP JUMPDEST SWAP4 POP DUP4 PUSH1 0x20 DUP3 MUL DUP6 ADD PUSH2 0x1376 DUP6 PUSH2 0x1288 JUMP JUMPDEST DUP1 PUSH1 0x0 JUMPDEST DUP6 DUP2 LT ISZERO PUSH2 0x13B2 JUMPI DUP5 DUP5 SUB DUP10 MSTORE DUP2 MLOAD PUSH2 0x1393 DUP6 DUP3 PUSH2 0x132E JUMP JUMPDEST SWAP5 POP PUSH2 0x139E DUP4 PUSH2 0x1342 JUMP JUMPDEST SWAP3 POP PUSH1 0x20 DUP11 ADD SWAP10 POP POP PUSH1 0x1 DUP2 ADD SWAP1 POP PUSH2 0x137A JUMP JUMPDEST POP DUP3 SWAP8 POP DUP8 SWAP6 POP POP POP POP POP POP SWAP3 SWAP2 POP POP JUMP JUMPDEST PUSH1 0x0 PUSH1 0x20 DUP3 ADD SWAP1 POP DUP2 DUP2 SUB PUSH1 0x0 DUP4 ADD MSTORE PUSH2 0x13DE DUP2 DUP5 PUSH2 0x134F JUMP JUMPDEST SWAP1 POP SWAP3 SWAP2 POP POP JUMP JUMPDEST PUSH1 0x0 PUSH1 0x80 DUP3 ADD SWAP1 POP DUP2 DUP2 SUB PUSH1 0x0 DUP4 ADD MSTORE PUSH2 0x1400 DUP2 DUP8 PUSH2 0x1169 JUMP JUMPDEST SWAP1 POP DUP2 DUP2 SUB PUSH1 0x20 DUP4 ADD MSTORE PUSH2 0x1414 DUP2 DUP7 PUSH2 0x1169 JUMP JUMPDEST SWAP1 POP DUP2 DUP2 SUB PUSH1 0x40 DUP4 ADD MSTORE PUSH2 0x1428 DUP2 DUP6 PUSH2 0x1169 JUMP JUMPDEST SWAP1 POP DUP2 DUP2 SUB PUSH1 0x60 DUP4 ADD MSTORE PUSH2 0x143C DUP2 DUP5 PUSH2 0x1169 JUMP JUMPDEST SWAP1 POP SWAP6 SWAP5 POP POP POP POP POP JUMP JUMPDEST PUSH1 0x0 PUSH1 0x40 DUP3 ADD SWAP1 POP DUP2 DUP2 SUB PUSH1 0x0 DUP4 ADD MSTORE PUSH2 0x1461 DUP2 DUP6 PUSH2 0x1169 JUMP JUMPDEST SWAP1 POP DUP2 DUP2 SUB PUSH1 0x20 DUP4 ADD MSTORE PUSH2 0x1475 DUP2 DUP5 PUSH2 0x1169 JUMP JUMPDEST SWAP1 POP SWAP4 SWAP3 POP POP POP JUMP JUMPDEST PUSH1 0x0 PUSH1 0xA0 DUP3 ADD SWAP1 POP PUSH2 0x1493 PUSH1 0x0 DUP4 ADD DUP9 PUSH2 0x1114 JUMP JUMPDEST DUP2 DUP2 SUB PUSH1 0x20 DUP4 ADD MSTORE PUSH2 0x14A5 DUP2 DUP8 PUSH2 0x1169 JUMP JUMPDEST SWAP1 POP DUP2 DUP2 SUB PUSH1 0x40 DUP4 ADD MSTORE PUSH2 0x14B9 DUP2 DUP7 PUSH2 0x1169 JUMP JUMPDEST SWAP1 POP DUP2 DUP2 SUB PUSH1 0x60 DUP4 ADD MSTORE PUSH2 0x14CD DUP2 DUP6 PUSH2 0x1169 JUMP JUMPDEST SWAP1 POP DUP2 DUP2 SUB PUSH1 0x80 DUP4 ADD MSTORE PUSH2 0x14E1 DUP2 DUP5 PUSH2 0x1169 JUMP JUMPDEST SWAP1 POP SWAP7 SWAP6 POP POP POP POP POP POP JUMP JUMPDEST PUSH1 0x0 PUSH1 0x20 DUP3 DUP5 SUB SLT ISZERO PUSH2 0x1503 JUMPI PUSH2 0x1502 PUSH2 0xE8A JUMP JUMPDEST JUMPDEST PUSH1 0x0 DUP3 ADD CALLDATALOAD PUSH8 0xFFFFFFFFFFFFFFFF DUP2 GT ISZERO PUSH2 0x1521 JUMPI PUSH2 0x1520 PUSH2 0xE8F JUMP JUMPDEST JUMPDEST PUSH2 0x152D DUP5 DUP3 DUP6 ADD PUSH2 0xFAC JUMP JUMPDEST SWAP2 POP POP SWAP3 SWAP2 POP POP JUMP JUMPDEST PUSH1 0x0 DUP2 MLOAD SWAP1 POP SWAP2 SWAP1 POP JUMP JUMPDEST PUSH1 0x0 DUP3 DUP3 MSTORE PUSH1 0x20 DUP3 ADD SWAP1 POP SWAP3 SWAP2 POP POP JUMP JUMPDEST PUSH1 0x0 DUP2 SWAP1 POP PUSH1 0x20 DUP3 ADD SWAP1 POP SWAP2 SWAP1 POP JUMP JUMPDEST PUSH1 0x0 PUSH1 0x40 DUP4 ADD PUSH1 0x0 DUP4 ADD MLOAD DUP5 DUP3 SUB PUSH1 0x0 DUP7 ADD MSTORE PUSH2 0x157F DUP3 DUP3 PUSH2 0x12B8 JUMP JUMPDEST SWAP2 POP POP PUSH1 0x20 DUP4 ADD MLOAD DUP5 DUP3 SUB PUSH1 0x20 DUP7 ADD MSTORE PUSH2 0x1599 DUP3 DUP3 PUSH2 0x12B8 JUMP JUMPDEST SWAP2 POP POP DUP1 SWAP2 POP POP SWAP3 SWAP2 POP POP JUMP JUMPDEST PUSH1 0x0 PUSH2 0x15B2 DUP4 DUP4 PUSH2 0x1562 JUMP JUMPDEST SWAP1 POP SWAP3 SWAP2 POP POP JUMP JUMPDEST PUSH1 0x0 PUSH1 0x20 DUP3 ADD SWAP1 POP SWAP2 SWAP1 POP JUMP JUMPDEST PUSH1 0x0 PUSH2 0x15D2 DUP3 PUSH2 0x1536 JUMP JUMPDEST PUSH2 0x15DC DUP2 DUP6 PUSH2 0x1541 JUMP JUMPDEST SWAP4 POP DUP4 PUSH1 0x20 DUP3 MUL DUP6 ADD PUSH2 0x15EE DUP6 PUSH2 0x1552 JUMP JUMPDEST DUP1 PUSH1 0x0 JUMPDEST DUP6 DUP2 LT ISZERO PUSH2 0x162A JUMPI DUP5 DUP5 SUB DUP10 MSTORE DUP2 MLOAD PUSH2 0x160B DUP6 DUP3 PUSH2 0x15A6 JUMP JUMPDEST SWAP5 POP PUSH2 0x1616 DUP4 PUSH2 0x15BA JUMP JUMPDEST SWAP3 POP PUSH1 0x20 DUP11 ADD SWAP10 POP POP PUSH1 0x1 DUP2 ADD SWAP1 POP PUSH2 0x15F2 JUMP JUMPDEST POP DUP3 SWAP8 POP DUP8 SWAP6 POP POP POP POP POP POP SWAP3 SWAP2 POP POP JUMP JUMPDEST PUSH1 0x0 PUSH1 0x20 DUP3 ADD SWAP1 POP DUP2 DUP2 SUB PUSH1 0x0 DUP4 ADD MSTORE PUSH2 0x1656 DUP2 DUP5 PUSH2 0x15C7 JUMP JUMPDEST SWAP1 POP SWAP3 SWAP2 POP POP JUMP JUMPDEST PUSH1 0x0 DUP2 ISZERO ISZERO SWAP1 POP SWAP2 SWAP1 POP JUMP JUMPDEST PUSH2 0x1673 DUP2 PUSH2 0x165E JUMP JUMPDEST DUP3 MSTORE POP POP JUMP JUMPDEST PUSH1 0x0 PUSH1 0x20 DUP3 ADD SWAP1 POP PUSH2 0x168E PUSH1 0x0 DUP4 ADD DUP5 PUSH2 0x166A JUMP JUMPDEST SWAP3 SWAP2 POP POP JUMP JUMPDEST PUSH32 0x4E487B7100000000000000000000000000000000000000000000000000000000 PUSH1 0x0 MSTORE PUSH1 0x22 PUSH1 0x4 MSTORE PUSH1 0x24 PUSH1 0x0 REVERT JUMPDEST PUSH1 0x0 PUSH1 0x2 DUP3 DIV SWAP1 POP PUSH1 0x1 DUP3 AND DUP1 PUSH2 0x16DB JUMPI PUSH1 0x7F DUP3 AND SWAP2 POP JUMPDEST PUSH1 0x20 DUP3 LT DUP2 SUB PUSH2 0x16EE JUMPI PUSH2 0x16ED PUSH2 0x1694 JUMP JUMPDEST JUMPDEST POP SWAP2 SWAP1 POP JUMP JUMPDEST PUSH1 0x0 DUP2 SWAP1 POP DUP2 PUSH1 0x0 MSTORE PUSH1 0x20 PUSH1 0x0 KECCAK256 SWAP1 POP SWAP2 SWAP1 POP JUMP JUMPDEST PUSH1 0x0 PUSH1 0x20 PUSH1 0x1F DUP4 ADD DIV SWAP1 POP SWAP2 SWAP1 POP JUMP JUMPDEST PUSH1 0x0 DUP3 DUP3 SHL SWAP1 POP SWAP3 SWAP2 POP POP JUMP JUMPDEST PUSH1 0x0 PUSH1 0x8 DUP4 MUL PUSH2 0x1756 PUSH32 0xFFFFFFFFFFFFFFFFFFFFFFFFFFFFFFFFFFFFFFFFFFFFFFFFFFFFFFFFFFFFFFFF DUP3 PUSH2 0x1719 JUMP JUMPDEST PUSH2 0x1760 DUP7 DUP4 PUSH2 0x1719 JUMP JUMPDEST SWAP6 POP DUP1 NOT DUP5 AND SWAP4 POP DUP1 DUP7 AND DUP5 OR SWAP3 POP POP POP SWAP4 SWAP3 POP POP POP JUMP JUMPDEST PUSH1 0x0 DUP2 SWAP1 POP SWAP2 SWAP1 POP JUMP JUMPDEST PUSH1 0x0 PUSH2 0x179D PUSH2 0x1798 PUSH2 0x1793 DUP5 PUSH2 0x10B1 JUMP JUMPDEST PUSH2 0x1778 JUMP JUMPDEST PUSH2 0x10B1 JUMP JUMPDEST SWAP1 POP SWAP2 SWAP1 POP JUMP JUMPDEST PUSH1 0x0 DUP2 SWAP1 POP SWAP2 SWAP1 POP JUMP JUMPDEST PUSH2 0x17B7 DUP4 PUSH2 0x1782 JUMP JUMPDEST PUSH2 0x17CB PUSH2 0x17C3 DUP3 PUSH2 0x17A4 JUMP JUMPDEST DUP5 DUP5 SLOAD PUSH2 0x1726 JUMP JUMPDEST DUP3 SSTORE POP POP POP POP JUMP JUMPDEST PUSH1 0x0 SWAP1 JUMP JUMPDEST PUSH2 0x17E0 PUSH2 0x17D3 JUMP JUMPDEST PUSH2 0x17EB DUP2 DUP5 DUP5 PUSH2 0x17AE JUMP JUMPDEST POP POP POP JUMP JUMPDEST JUMPDEST DUP2 DUP2 LT ISZERO PUSH2 0x180F JUMPI PUSH2 0x1804 PUSH1 0x0 DUP3 PUSH2 0x17D8 JUMP JUMPDEST PUSH1 0x1 DUP2 ADD SWAP1 POP PUSH2 0x17F1 JUMP JUMPDEST POP POP JUMP JUMPDEST PUSH1 0x1F DUP3 GT ISZERO PUSH2 0x1854 JUMPI PUSH2 0x1825 DUP2 PUSH2 0x16F4 JUMP JUMPDEST PUSH2 0x182E DUP5 PUSH2 0x1709 JUMP JUMPDEST DUP2 ADD PUSH1 0x20 DUP6 LT ISZERO PUSH2 0x183D JUMPI DUP2 SWAP1 POP JUMPDEST PUSH2 0x1851 PUSH2 0x1849 DUP6 PUSH2 0x1709 JUMP JUMPDEST DUP4 ADD DUP3 PUSH2 0x17F0 JUMP JUMPDEST POP POP JUMPDEST POP POP POP JUMP JUMPDEST PUSH1 0x0 DUP3 DUP3 SHR SWAP1 POP SWAP3 SWAP2 POP POP JUMP JUMPDEST PUSH1 0x0 PUSH2 0x1877 PUSH1 0x0 NOT DUP5 PUSH1 0x8 MUL PUSH2 0x1859 JUMP JUMPDEST NOT DUP1 DUP4 AND SWAP2 POP POP SWAP3 SWAP2 POP POP JUMP JUMPDEST PUSH1 0x0 PUSH2 0x1890 DUP4 DUP4 PUSH2 0x1866 JUMP JUMPDEST SWAP2 POP DUP3 PUSH1 0x2 MUL DUP3 OR SWAP1 POP SWAP3 SWAP2 POP POP JUMP JUMPDEST PUSH2 0x18A9 DUP3 PUSH2 0x1123 JUMP JUMPDEST PUSH8 0xFFFFFFFFFFFFFFFF DUP2 GT ISZERO PUSH2 0x18C2 JUMPI PUSH2 0x18C1 PUSH2 0xEAF JUMP JUMPDEST JUMPDEST PUSH2 0x18CC DUP3 SLOAD PUSH2 0x16C3 JUMP JUMPDEST PUSH2 0x18D7 DUP3 DUP3 DUP6 PUSH2 0x1813 JUMP JUMPDEST PUSH1 0x0 PUSH1 0x20 SWAP1 POP PUSH1 0x1F DUP4 GT PUSH1 0x1 DUP2 EQ PUSH2 0x190A JUMPI PUSH1 0x0 DUP5 ISZERO PUSH2 0x18F8 JUMPI DUP3 DUP8 ADD MLOAD SWAP1 POP JUMPDEST PUSH2 0x1902 DUP6 DUP3 PUSH2 0x1884 JUMP JUMPDEST DUP7 SSTORE POP PUSH2 0x196A JUMP JUMPDEST PUSH1 0x1F NOT DUP5 AND PUSH2 0x1918 DUP7 PUSH2 0x16F4 JUMP JUMPDEST PUSH1 0x0 JUMPDEST DUP3 DUP2 LT ISZERO PUSH2 0x1940 JUMPI DUP5 DUP10 ADD MLOAD DUP3 SSTORE PUSH1 0x1 DUP3 ADD SWAP2 POP PUSH1 0x20 DUP6 ADD SWAP5 POP PUSH1 0x20 DUP2 ADD SWAP1 POP PUSH2 0x191B JUMP JUMPDEST DUP7 DUP4 LT ISZERO PUSH2 0x195D JUMPI DUP5 DUP10 ADD MLOAD PUSH2 0x1959 PUSH1 0x1F DUP10 AND DUP3 PUSH2 0x1866 JUMP JUMPDEST DUP4 SSTORE POP JUMPDEST PUSH1 0x1 PUSH1 0x2 DUP9 MUL ADD DUP9 SSTORE POP POP POP JUMPDEST POP POP POP POP POP POP JUMP JUMPDEST PUSH32 0x4E487B7100000000000000000000000000000000000000000000000000000000 PUSH1 0x0 MSTORE PUSH1 0x11 PUSH1 0x4 MSTORE PUSH1 0x24 PUSH1 0x0 REVERT JUMPDEST PUSH1 0x0 PUSH2 0x19AC DUP3 PUSH2 0x10B1 JUMP JUMPDEST SWAP2 POP PUSH32 0xFFFFFFFFFFFFFFFFFFFFFFFFFFFFFFFFFFFFFFFFFFFFFFFFFFFFFFFFFFFFFFFF DUP3 SUB PUSH2 0x19DE JUMPI PUSH2 0x19DD PUSH2 0x1972 JUMP JUMPDEST JUMPDEST PUSH1 0x1 DUP3 ADD SWAP1 POP SWAP2 SWAP1 POP JUMP JUMPDEST PUSH32 0x4E487B7100000000000000000000000000000000000000000000000000000000 PUSH1 0x0 MSTORE PUSH1 0x32 PUSH1 0x4 MSTORE PUSH1 0x24 PUSH1 0x0 REVERT INVALID LOG2 PUSH5 0x6970667358 0x22 SLT KECCAK256 0xAC DUP6 0xBE 0xD0 DUP4 0xC1 PUSH3 0x9CC985 PUSH16 0x198BCE82EB4FDC3C660152A88D390F03 SWAP4 SWAP14 0xE8 SELFBALANCE 0xE9 PUSH5 0x736F6C6343 STOP ADDMOD SLT STOP CALLER "
				},
				"gasEstimates": {
					"creation": {
						"codeDepositCost": "1346800",
						"executionCost": "1403",
						"totalCost": "1348203"
					},
					"external": {
						"addDisease(string)": "infinite",
						"addMedicine(string,string,string,string)": "infinite",
						"checkMedicineExists(uint256)": "3041",
						"createWorkplace(string,string)": "infinite",
						"diseases(uint256)": "infinite",
						"getAllDiseases()": "infinite",
						"getAllWorkplaces()": "infinite",
						"getDiseaseById(uint256)": "infinite",
						"getMedicine(uint256)": "infinite",
						"medicines(uint256)": "infinite",
						"workplaces(uint256)": "infinite"
					}
				},
				"methodIdentifiers": {
					"addDisease(string)": "d47c029c",
					"addMedicine(string,string,string,string)": "020d07a4",
					"checkMedicineExists(uint256)": "de7e89c0",
					"createWorkplace(string,string)": "5ab2ce22",
					"diseases(uint256)": "46459b22",
					"getAllDiseases()": "9df10db0",
					"getAllWorkplaces()": "d92631db",
					"getDiseaseById(uint256)": "747dcbde",
					"getMedicine(uint256)": "a6742265",
					"medicines(uint256)": "c85e766d",
					"workplaces(uint256)": "c38831ae"
				}
			},
			"storageLayout": {
				"storage": [
					{
						"astId": 24,
						"contract": "Admin.sol:Admin",
						"label": "medicineCount",
						"offset": 0,
						"slot": "0",
						"type": "t_uint256"
					},
					{
						"astId": 26,
						"contract": "Admin.sol:Admin",
						"label": "diseaseCount",
						"offset": 0,
						"slot": "1",
						"type": "t_uint256"
					},
					{
						"astId": 30,
						"contract": "Admin.sol:Admin",
						"label": "workplaces",
						"offset": 0,
						"slot": "2",
						"type": "t_array(t_struct(Workplace)6_storage)dyn_storage"
					},
					{
						"astId": 35,
						"contract": "Admin.sol:Admin",
						"label": "medicines",
						"offset": 0,
						"slot": "3",
						"type": "t_mapping(t_uint256,t_struct(Medicine)17_storage)"
					},
					{
						"astId": 39,
						"contract": "Admin.sol:Admin",
						"label": "diseases",
						"offset": 0,
						"slot": "4",
						"type": "t_array(t_struct(Disease)22_storage)dyn_storage"
					}
				],
				"types": {
					"t_array(t_struct(Disease)22_storage)dyn_storage": {
						"base": "t_struct(Disease)22_storage",
						"encoding": "dynamic_array",
						"label": "struct Admin.Disease[]",
						"numberOfBytes": "32"
					},
					"t_array(t_struct(Workplace)6_storage)dyn_storage": {
						"base": "t_struct(Workplace)6_storage",
						"encoding": "dynamic_array",
						"label": "struct Admin.Workplace[]",
						"numberOfBytes": "32"
					},
					"t_mapping(t_uint256,t_struct(Medicine)17_storage)": {
						"encoding": "mapping",
						"key": "t_uint256",
						"label": "mapping(uint256 => struct Admin.Medicine)",
						"numberOfBytes": "32",
						"value": "t_struct(Medicine)17_storage"
					},
					"t_string_storage": {
						"encoding": "bytes",
						"label": "string",
						"numberOfBytes": "32"
					},
					"t_struct(Disease)22_storage": {
						"encoding": "inplace",
						"label": "struct Admin.Disease",
						"members": [
							{
								"astId": 19,
								"contract": "Admin.sol:Admin",
								"label": "id",
								"offset": 0,
								"slot": "0",
								"type": "t_uint256"
							},
							{
								"astId": 21,
								"contract": "Admin.sol:Admin",
								"label": "name",
								"offset": 0,
								"slot": "1",
								"type": "t_string_storage"
							}
						],
						"numberOfBytes": "64"
					},
					"t_struct(Medicine)17_storage": {
						"encoding": "inplace",
						"label": "struct Admin.Medicine",
						"members": [
							{
								"astId": 8,
								"contract": "Admin.sol:Admin",
								"label": "id",
								"offset": 0,
								"slot": "0",
								"type": "t_uint256"
							},
							{
								"astId": 10,
								"contract": "Admin.sol:Admin",
								"label": "name",
								"offset": 0,
								"slot": "1",
								"type": "t_string_storage"
							},
							{
								"astId": 12,
								"contract": "Admin.sol:Admin",
								"label": "expiryDate",
								"offset": 0,
								"slot": "2",
								"type": "t_string_storage"
							},
							{
								"astId": 14,
								"contract": "Admin.sol:Admin",
								"label": "price",
								"offset": 0,
								"slot": "3",
								"type": "t_string_storage"
							},
							{
								"astId": 16,
								"contract": "Admin.sol:Admin",
								"label": "dose",
								"offset": 0,
								"slot": "4",
								"type": "t_string_storage"
							}
						],
						"numberOfBytes": "160"
					},
					"t_struct(Workplace)6_storage": {
						"encoding": "inplace",
						"label": "struct Admin.Workplace",
						"members": [
							{
								"astId": 3,
								"contract": "Admin.sol:Admin",
								"label": "name",
								"offset": 0,
								"slot": "0",
								"type": "t_string_storage"
							},
							{
								"astId": 5,
								"contract": "Admin.sol:Admin",
								"label": "workAddress",
								"offset": 0,
								"slot": "1",
								"type": "t_string_storage"
							}
						],
						"numberOfBytes": "64"
					},
					"t_uint256": {
						"encoding": "inplace",
						"label": "uint256",
						"numberOfBytes": "32"
					}
				}
			},
			"userdoc": {
				"kind": "user",
				"methods": {},
				"version": 1
			}
		}
	}
}