{
	"Admin.sol": {
		"Admin": {
			"abi": [
				{
					"inputs": [
						{
							"internalType": "string",
							"name": "_name",
							"type": "string"
						},
						{
							"internalType": "string",
							"name": "_workAddress",
							"type": "string"
						}
					],
					"name": "createWorkplace",
					"outputs": [],
					"stateMutability": "nonpayable",
					"type": "function"
				},
				{
					"inputs": [],
					"name": "getAllWorkplaces",
					"outputs": [
						{
							"components": [
								{
									"internalType": "string",
									"name": "name",
									"type": "string"
								},
								{
									"internalType": "string",
									"name": "workAddress",
									"type": "string"
								}
							],
							"internalType": "struct Admin.Workplace[]",
							"name": "",
							"type": "tuple[]"
						}
					],
					"stateMutability": "view",
					"type": "function"
				},
				{
					"inputs": [
						{
							"internalType": "uint256",
							"name": "",
							"type": "uint256"
						}
					],
					"name": "workplaces",
					"outputs": [
						{
							"internalType": "string",
							"name": "name",
							"type": "string"
						},
						{
							"internalType": "string",
							"name": "workAddress",
							"type": "string"
						}
					],
					"stateMutability": "view",
					"type": "function"
				}
			],
			"devdoc": {
				"kind": "dev",
				"methods": {},
				"version": 1
			},
			"evm": {
				"assembly": "    /* \"Admin.sol\":25:491  contract Admin {... */\n  mstore(0x40, 0x80)\n  callvalue\n  dup1\n  iszero\n  tag_1\n  jumpi\n  0x00\n  dup1\n  revert\ntag_1:\n  pop\n  dataSize(sub_0)\n  dup1\n  dataOffset(sub_0)\n  0x00\n  codecopy\n  0x00\n  return\nstop\n\nsub_0: assembly {\n        /* \"Admin.sol\":25:491  contract Admin {... */\n      mstore(0x40, 0x80)\n      callvalue\n      dup1\n      iszero\n      tag_1\n      jumpi\n      0x00\n      dup1\n      revert\n    tag_1:\n      pop\n      jumpi(tag_2, lt(calldatasize, 0x04))\n      shr(0xe0, calldataload(0x00))\n      dup1\n      0x5ab2ce22\n      eq\n      tag_3\n      jumpi\n      dup1\n      0xc38831ae\n      eq\n      tag_4\n      jumpi\n      dup1\n      0xd92631db\n      eq\n      tag_5\n      jumpi\n    tag_2:\n      0x00\n      dup1\n      revert\n        /* \"Admin.sol\":164:372  function createWorkplace(string memory _name, string memory _workAddress) public virtual  {... */\n    tag_3:\n      tag_6\n      0x04\n      dup1\n      calldatasize\n      sub\n      dup2\n      add\n      swap1\n      tag_7\n      swap2\n      swap1\n      tag_8\n      jump\t// in\n    tag_7:\n      tag_9\n      jump\t// in\n    tag_6:\n      stop\n        /* \"Admin.sol\":126:155  Workplace[] public workplaces */\n    tag_4:\n      tag_10\n      0x04\n      dup1\n      calldatasize\n      sub\n      dup2\n      add\n      swap1\n      tag_11\n      swap2\n      swap1\n      tag_12\n      jump\t// in\n    tag_11:\n      tag_13\n      jump\t// in\n    tag_10:\n      mload(0x40)\n      tag_14\n      swap3\n      swap2\n      swap1\n      tag_15\n      jump\t// in\n    tag_14:\n      mload(0x40)\n      dup1\n      swap2\n      sub\n      swap1\n      return\n        /* \"Admin.sol\":378:489  function getAllWorkplaces() public view virtual returns (Workplace[] memory) {... */\n    tag_5:\n      tag_16\n      tag_17\n      jump\t// in\n    tag_16:\n      mload(0x40)\n      tag_18\n      swap2\n      swap1\n      tag_19\n      jump\t// in\n    tag_18:\n      mload(0x40)\n      dup1\n      swap2\n      sub\n      swap1\n      return\n        /* \"Admin.sol\":164:372  function createWorkplace(string memory _name, string memory _workAddress) public virtual  {... */\n    tag_9:\n        /* \"Admin.sol\":264:293  Workplace memory newWorkplace */\n      0x00\n        /* \"Admin.sol\":296:326  Workplace(_name, _workAddress) */\n      mload(0x40)\n      dup1\n      0x40\n      add\n      0x40\n      mstore\n      dup1\n        /* \"Admin.sol\":306:311  _name */\n      dup5\n        /* \"Admin.sol\":296:326  Workplace(_name, _workAddress) */\n      dup2\n      mstore\n      0x20\n      add\n        /* \"Admin.sol\":313:325  _workAddress */\n      dup4\n        /* \"Admin.sol\":296:326  Workplace(_name, _workAddress) */\n      dup2\n      mstore\n      pop\n        /* \"Admin.sol\":264:326  Workplace memory newWorkplace = Workplace(_name, _workAddress) */\n      swap1\n      pop\n        /* \"Admin.sol\":336:346  workplaces */\n      0x00\n        /* \"Admin.sol\":352:364  newWorkplace */\n      dup2\n        /* \"Admin.sol\":336:365  workplaces.push(newWorkplace) */\n      swap1\n      dup1\n      0x01\n      dup2\n      sload\n      add\n      dup1\n      dup3\n      sstore\n      dup1\n      swap2\n      pop\n      pop\n      0x01\n      swap1\n      sub\n      swap1\n      0x00\n      mstore\n      keccak256(0x00, 0x20)\n      swap1\n      0x02\n      mul\n      add\n      0x00\n      swap1\n      swap2\n      swap1\n      swap2\n      swap1\n      swap2\n      pop\n      0x00\n      dup3\n      add\n      mload\n      dup2\n      0x00\n      add\n      swap1\n      dup2\n      tag_22\n      swap2\n      swap1\n      tag_23\n      jump\t// in\n    tag_22:\n      pop\n      0x20\n      dup3\n      add\n      mload\n      dup2\n      0x01\n      add\n      swap1\n      dup2\n      tag_24\n      swap2\n      swap1\n      tag_23\n      jump\t// in\n    tag_24:\n      pop\n      pop\n      pop\n        /* \"Admin.sol\":254:372  {... */\n      pop\n        /* \"Admin.sol\":164:372  function createWorkplace(string memory _name, string memory _workAddress) public virtual  {... */\n      pop\n      pop\n      jump\t// out\n        /* \"Admin.sol\":126:155  Workplace[] public workplaces */\n    tag_13:\n      0x00\n      dup2\n      dup2\n      sload\n      dup2\n      lt\n      tag_25\n      jumpi\n      0x00\n      dup1\n      revert\n    tag_25:\n      swap1\n      0x00\n      mstore\n      keccak256(0x00, 0x20)\n      swap1\n      0x02\n      mul\n      add\n      0x00\n      swap2\n      pop\n      swap1\n      pop\n      dup1\n      0x00\n      add\n      dup1\n      sload\n      tag_27\n      swap1\n      tag_28\n      jump\t// in\n    tag_27:\n      dup1\n      0x1f\n      add\n      0x20\n      dup1\n      swap2\n      div\n      mul\n      0x20\n      add\n      mload(0x40)\n      swap1\n      dup2\n      add\n      0x40\n      mstore\n      dup1\n      swap3\n      swap2\n      swap1\n      dup2\n      dup2\n      mstore\n      0x20\n      add\n      dup3\n      dup1\n      sload\n      tag_29\n      swap1\n      tag_28\n      jump\t// in\n    tag_29:\n      dup1\n      iszero\n      tag_30\n      jumpi\n      dup1\n      0x1f\n      lt\n      tag_31\n      jumpi\n      0x0100\n      dup1\n      dup4\n      sload\n      div\n      mul\n      dup4\n      mstore\n      swap2\n      0x20\n      add\n      swap2\n      jump(tag_30)\n    tag_31:\n      dup3\n      add\n      swap2\n      swap1\n      0x00\n      mstore\n      keccak256(0x00, 0x20)\n      swap1\n    tag_32:\n      dup2\n      sload\n      dup2\n      mstore\n      swap1\n      0x01\n      add\n      swap1\n      0x20\n      add\n      dup1\n      dup4\n      gt\n      tag_32\n      jumpi\n      dup3\n      swap1\n      sub\n      0x1f\n      and\n      dup3\n      add\n      swap2\n    tag_30:\n      pop\n      pop\n      pop\n      pop\n      pop\n      swap1\n      dup1\n      0x01\n      add\n      dup1\n      sload\n      tag_33\n      swap1\n      tag_28\n      jump\t// in\n    tag_33:\n      dup1\n      0x1f\n      add\n      0x20\n      dup1\n      swap2\n      div\n      mul\n      0x20\n      add\n      mload(0x40)\n      swap1\n      dup2\n      add\n      0x40\n      mstore\n      dup1\n      swap3\n      swap2\n      swap1\n      dup2\n      dup2\n      mstore\n      0x20\n      add\n      dup3\n      dup1\n      sload\n      tag_34\n      swap1\n      tag_28\n      jump\t// in\n    tag_34:\n      dup1\n      iszero\n      tag_35\n      jumpi\n      dup1\n      0x1f\n      lt\n      tag_36\n      jumpi\n      0x0100\n      dup1\n      dup4\n      sload\n      div\n      mul\n      dup4\n      mstore\n      swap2\n      0x20\n      add\n      swap2\n      jump(tag_35)\n    tag_36:\n      dup3\n      add\n      swap2\n      swap1\n      0x00\n      mstore\n      keccak256(0x00, 0x20)\n      swap1\n    tag_37:\n      dup2\n      sload\n      dup2\n      mstore\n      swap1\n      0x01\n      add\n      swap1\n      0x20\n      add\n      dup1\n      dup4\n      gt\n      tag_37\n      jumpi\n      dup3\n      swap1\n      sub\n      0x1f\n      and\n      dup3\n      add\n      swap2\n    tag_35:\n      pop\n      pop\n      pop\n      pop\n      pop\n      swap1\n      pop\n      dup3\n      jump\t// out\n        /* \"Admin.sol\":378:489  function getAllWorkplaces() public view virtual returns (Workplace[] memory) {... */\n    tag_17:\n        /* \"Admin.sol\":435:453  Workplace[] memory */\n      0x60\n        /* \"Admin.sol\":472:482  workplaces */\n      0x00\n        /* \"Admin.sol\":465:482  return workplaces */\n      dup1\n      sload\n      dup1\n      0x20\n      mul\n      0x20\n      add\n      mload(0x40)\n      swap1\n      dup2\n      add\n      0x40\n      mstore\n      dup1\n      swap3\n      swap2\n      swap1\n      dup2\n      dup2\n      mstore\n      0x20\n      add\n      0x00\n      swap1\n    tag_39:\n      dup3\n      dup3\n      lt\n      iszero\n      tag_40\n      jumpi\n      dup4\n      dup3\n      swap1\n      0x00\n      mstore\n      keccak256(0x00, 0x20)\n      swap1\n      0x02\n      mul\n      add\n      mload(0x40)\n      dup1\n      0x40\n      add\n      0x40\n      mstore\n      swap1\n      dup2\n      0x00\n      dup3\n      add\n      dup1\n      sload\n      tag_42\n      swap1\n      tag_28\n      jump\t// in\n    tag_42:\n      dup1\n      0x1f\n      add\n      0x20\n      dup1\n      swap2\n      div\n      mul\n      0x20\n      add\n      mload(0x40)\n      swap1\n      dup2\n      add\n      0x40\n      mstore\n      dup1\n      swap3\n      swap2\n      swap1\n      dup2\n      dup2\n      mstore\n      0x20\n      add\n      dup3\n      dup1\n      sload\n      tag_43\n      swap1\n      tag_28\n      jump\t// in\n    tag_43:\n      dup1\n      iszero\n      tag_44\n      jumpi\n      dup1\n      0x1f\n      lt\n      tag_45\n      jumpi\n      0x0100\n      dup1\n      dup4\n      sload\n      div\n      mul\n      dup4\n      mstore\n      swap2\n      0x20\n      add\n      swap2\n      jump(tag_44)\n    tag_45:\n      dup3\n      add\n      swap2\n      swap1\n      0x00\n      mstore\n      keccak256(0x00, 0x20)\n      swap1\n    tag_46:\n      dup2\n      sload\n      dup2\n      mstore\n      swap1\n      0x01\n      add\n      swap1\n      0x20\n      add\n      dup1\n      dup4\n      gt\n      tag_46\n      jumpi\n      dup3\n      swap1\n      sub\n      0x1f\n      and\n      dup3\n      add\n      swap2\n    tag_44:\n      pop\n      pop\n      pop\n      pop\n      pop\n      dup2\n      mstore\n      0x20\n      add\n      0x01\n      dup3\n      add\n      dup1\n      sload\n      tag_47\n      swap1\n      tag_28\n      jump\t// in\n    tag_47:\n      dup1\n      0x1f\n      add\n      0x20\n      dup1\n      swap2\n      div\n      mul\n      0x20\n      add\n      mload(0x40)\n      swap1\n      dup2\n      add\n      0x40\n      mstore\n      dup1\n      swap3\n      swap2\n      swap1\n      dup2\n      dup2\n      mstore\n      0x20\n      add\n      dup3\n      dup1\n      sload\n      tag_48\n      swap1\n      tag_28\n      jump\t// in\n    tag_48:\n      dup1\n      iszero\n      tag_49\n      jumpi\n      dup1\n      0x1f\n      lt\n      tag_50\n      jumpi\n      0x0100\n      dup1\n      dup4\n      sload\n      div\n      mul\n      dup4\n      mstore\n      swap2\n      0x20\n      add\n      swap2\n      jump(tag_49)\n    tag_50:\n      dup3\n      add\n      swap2\n      swap1\n      0x00\n      mstore\n      keccak256(0x00, 0x20)\n      swap1\n    tag_51:\n      dup2\n      sload\n      dup2\n      mstore\n      swap1\n      0x01\n      add\n      swap1\n      0x20\n      add\n      dup1\n      dup4\n      gt\n      tag_51\n      jumpi\n      dup3\n      swap1\n      sub\n      0x1f\n      and\n      dup3\n      add\n      swap2\n    tag_49:\n      pop\n      pop\n      pop\n      pop\n      pop\n      dup2\n      mstore\n      pop\n      pop\n      dup2\n      mstore\n      0x20\n      add\n      swap1\n      0x01\n      add\n      swap1\n      jump(tag_39)\n    tag_40:\n      pop\n      pop\n      pop\n      pop\n      swap1\n      pop\n        /* \"Admin.sol\":378:489  function getAllWorkplaces() public view virtual returns (Workplace[] memory) {... */\n      swap1\n      jump\t// out\n        /* \"#utility.yul\":7:82   */\n    tag_52:\n        /* \"#utility.yul\":40:46   */\n      0x00\n        /* \"#utility.yul\":73:75   */\n      0x40\n        /* \"#utility.yul\":67:76   */\n      mload\n        /* \"#utility.yul\":57:76   */\n      swap1\n      pop\n        /* \"#utility.yul\":7:82   */\n      swap1\n      jump\t// out\n        /* \"#utility.yul\":88:205   */\n    tag_53:\n        /* \"#utility.yul\":197:198   */\n      0x00\n        /* \"#utility.yul\":194:195   */\n      dup1\n        /* \"#utility.yul\":187:199   */\n      revert\n        /* \"#utility.yul\":211:328   */\n    tag_54:\n        /* \"#utility.yul\":320:321   */\n      0x00\n        /* \"#utility.yul\":317:318   */\n      dup1\n        /* \"#utility.yul\":310:322   */\n      revert\n        /* \"#utility.yul\":334:451   */\n    tag_55:\n        /* \"#utility.yul\":443:444   */\n      0x00\n        /* \"#utility.yul\":440:441   */\n      dup1\n        /* \"#utility.yul\":433:445   */\n      revert\n        /* \"#utility.yul\":457:574   */\n    tag_56:\n        /* \"#utility.yul\":566:567   */\n      0x00\n        /* \"#utility.yul\":563:564   */\n      dup1\n        /* \"#utility.yul\":556:568   */\n      revert\n        /* \"#utility.yul\":580:682   */\n    tag_57:\n        /* \"#utility.yul\":621:627   */\n      0x00\n        /* \"#utility.yul\":672:674   */\n      0x1f\n        /* \"#utility.yul\":668:675   */\n      not\n        /* \"#utility.yul\":663:665   */\n      0x1f\n        /* \"#utility.yul\":656:661   */\n      dup4\n        /* \"#utility.yul\":652:666   */\n      add\n        /* \"#utility.yul\":648:676   */\n      and\n        /* \"#utility.yul\":638:676   */\n      swap1\n      pop\n        /* \"#utility.yul\":580:682   */\n      swap2\n      swap1\n      pop\n      jump\t// out\n        /* \"#utility.yul\":688:868   */\n    tag_58:\n        /* \"#utility.yul\":736:813   */\n      0x4e487b7100000000000000000000000000000000000000000000000000000000\n        /* \"#utility.yul\":733:734   */\n      0x00\n        /* \"#utility.yul\":726:814   */\n      mstore\n        /* \"#utility.yul\":833:837   */\n      0x41\n        /* \"#utility.yul\":830:831   */\n      0x04\n        /* \"#utility.yul\":823:838   */\n      mstore\n        /* \"#utility.yul\":857:861   */\n      0x24\n        /* \"#utility.yul\":854:855   */\n      0x00\n        /* \"#utility.yul\":847:862   */\n      revert\n        /* \"#utility.yul\":874:1155   */\n    tag_59:\n        /* \"#utility.yul\":957:984   */\n      tag_106\n        /* \"#utility.yul\":979:983   */\n      dup3\n        /* \"#utility.yul\":957:984   */\n      tag_57\n      jump\t// in\n    tag_106:\n        /* \"#utility.yul\":949:955   */\n      dup2\n        /* \"#utility.yul\":945:985   */\n      add\n        /* \"#utility.yul\":1087:1093   */\n      dup2\n        /* \"#utility.yul\":1075:1085   */\n      dup2\n        /* \"#utility.yul\":1072:1094   */\n      lt\n        /* \"#utility.yul\":1051:1069   */\n      0xffffffffffffffff\n        /* \"#utility.yul\":1039:1049   */\n      dup3\n        /* \"#utility.yul\":1036:1070   */\n      gt\n        /* \"#utility.yul\":1033:1095   */\n      or\n        /* \"#utility.yul\":1030:1118   */\n      iszero\n      tag_107\n      jumpi\n        /* \"#utility.yul\":1098:1116   */\n      tag_108\n      tag_58\n      jump\t// in\n    tag_108:\n        /* \"#utility.yul\":1030:1118   */\n    tag_107:\n        /* \"#utility.yul\":1138:1148   */\n      dup1\n        /* \"#utility.yul\":1134:1136   */\n      0x40\n        /* \"#utility.yul\":1127:1149   */\n      mstore\n        /* \"#utility.yul\":917:1155   */\n      pop\n        /* \"#utility.yul\":874:1155   */\n      pop\n      pop\n      jump\t// out\n        /* \"#utility.yul\":1161:1290   */\n    tag_60:\n        /* \"#utility.yul\":1195:1201   */\n      0x00\n        /* \"#utility.yul\":1222:1242   */\n      tag_110\n      tag_52\n      jump\t// in\n    tag_110:\n        /* \"#utility.yul\":1212:1242   */\n      swap1\n      pop\n        /* \"#utility.yul\":1251:1284   */\n      tag_111\n        /* \"#utility.yul\":1279:1283   */\n      dup3\n        /* \"#utility.yul\":1271:1277   */\n      dup3\n        /* \"#utility.yul\":1251:1284   */\n      tag_59\n      jump\t// in\n    tag_111:\n        /* \"#utility.yul\":1161:1290   */\n      swap2\n      swap1\n      pop\n      jump\t// out\n        /* \"#utility.yul\":1296:1604   */\n    tag_61:\n        /* \"#utility.yul\":1358:1362   */\n      0x00\n        /* \"#utility.yul\":1448:1466   */\n      0xffffffffffffffff\n        /* \"#utility.yul\":1440:1446   */\n      dup3\n        /* \"#utility.yul\":1437:1467   */\n      gt\n        /* \"#utility.yul\":1434:1490   */\n      iszero\n      tag_113\n      jumpi\n        /* \"#utility.yul\":1470:1488   */\n      tag_114\n      tag_58\n      jump\t// in\n    tag_114:\n        /* \"#utility.yul\":1434:1490   */\n    tag_113:\n        /* \"#utility.yul\":1508:1537   */\n      tag_115\n        /* \"#utility.yul\":1530:1536   */\n      dup3\n        /* \"#utility.yul\":1508:1537   */\n      tag_57\n      jump\t// in\n    tag_115:\n        /* \"#utility.yul\":1500:1537   */\n      swap1\n      pop\n        /* \"#utility.yul\":1592:1596   */\n      0x20\n        /* \"#utility.yul\":1586:1590   */\n      dup2\n        /* \"#utility.yul\":1582:1597   */\n      add\n        /* \"#utility.yul\":1574:1597   */\n      swap1\n      pop\n        /* \"#utility.yul\":1296:1604   */\n      swap2\n      swap1\n      pop\n      jump\t// out\n        /* \"#utility.yul\":1610:1756   */\n    tag_62:\n        /* \"#utility.yul\":1707:1713   */\n      dup3\n        /* \"#utility.yul\":1702:1705   */\n      dup2\n        /* \"#utility.yul\":1697:1700   */\n      dup4\n        /* \"#utility.yul\":1684:1714   */\n      calldatacopy\n        /* \"#utility.yul\":1748:1749   */\n      0x00\n        /* \"#utility.yul\":1739:1745   */\n      dup4\n        /* \"#utility.yul\":1734:1737   */\n      dup4\n        /* \"#utility.yul\":1730:1746   */\n      add\n        /* \"#utility.yul\":1723:1750   */\n      mstore\n        /* \"#utility.yul\":1610:1756   */\n      pop\n      pop\n      pop\n      jump\t// out\n        /* \"#utility.yul\":1762:2187   */\n    tag_63:\n        /* \"#utility.yul\":1840:1845   */\n      0x00\n        /* \"#utility.yul\":1865:1931   */\n      tag_118\n        /* \"#utility.yul\":1881:1930   */\n      tag_119\n        /* \"#utility.yul\":1923:1929   */\n      dup5\n        /* \"#utility.yul\":1881:1930   */\n      tag_61\n      jump\t// in\n    tag_119:\n        /* \"#utility.yul\":1865:1931   */\n      tag_60\n      jump\t// in\n    tag_118:\n        /* \"#utility.yul\":1856:1931   */\n      swap1\n      pop\n        /* \"#utility.yul\":1954:1960   */\n      dup3\n        /* \"#utility.yul\":1947:1952   */\n      dup2\n        /* \"#utility.yul\":1940:1961   */\n      mstore\n        /* \"#utility.yul\":1992:1996   */\n      0x20\n        /* \"#utility.yul\":1985:1990   */\n      dup2\n        /* \"#utility.yul\":1981:1997   */\n      add\n        /* \"#utility.yul\":2030:2033   */\n      dup5\n        /* \"#utility.yul\":2021:2027   */\n      dup5\n        /* \"#utility.yul\":2016:2019   */\n      dup5\n        /* \"#utility.yul\":2012:2028   */\n      add\n        /* \"#utility.yul\":2009:2034   */\n      gt\n        /* \"#utility.yul\":2006:2118   */\n      iszero\n      tag_120\n      jumpi\n        /* \"#utility.yul\":2037:2116   */\n      tag_121\n      tag_56\n      jump\t// in\n    tag_121:\n        /* \"#utility.yul\":2006:2118   */\n    tag_120:\n        /* \"#utility.yul\":2127:2181   */\n      tag_122\n        /* \"#utility.yul\":2174:2180   */\n      dup5\n        /* \"#utility.yul\":2169:2172   */\n      dup3\n        /* \"#utility.yul\":2164:2167   */\n      dup6\n        /* \"#utility.yul\":2127:2181   */\n      tag_62\n      jump\t// in\n    tag_122:\n        /* \"#utility.yul\":1846:2187   */\n      pop\n        /* \"#utility.yul\":1762:2187   */\n      swap4\n      swap3\n      pop\n      pop\n      pop\n      jump\t// out\n        /* \"#utility.yul\":2207:2547   */\n    tag_64:\n        /* \"#utility.yul\":2263:2268   */\n      0x00\n        /* \"#utility.yul\":2312:2315   */\n      dup3\n        /* \"#utility.yul\":2305:2309   */\n      0x1f\n        /* \"#utility.yul\":2297:2303   */\n      dup4\n        /* \"#utility.yul\":2293:2310   */\n      add\n        /* \"#utility.yul\":2289:2316   */\n      slt\n        /* \"#utility.yul\":2279:2401   */\n      tag_124\n      jumpi\n        /* \"#utility.yul\":2320:2399   */\n      tag_125\n      tag_55\n      jump\t// in\n    tag_125:\n        /* \"#utility.yul\":2279:2401   */\n    tag_124:\n        /* \"#utility.yul\":2437:2443   */\n      dup2\n        /* \"#utility.yul\":2424:2444   */\n      calldataload\n        /* \"#utility.yul\":2462:2541   */\n      tag_126\n        /* \"#utility.yul\":2537:2540   */\n      dup5\n        /* \"#utility.yul\":2529:2535   */\n      dup3\n        /* \"#utility.yul\":2522:2526   */\n      0x20\n        /* \"#utility.yul\":2514:2520   */\n      dup7\n        /* \"#utility.yul\":2510:2527   */\n      add\n        /* \"#utility.yul\":2462:2541   */\n      tag_63\n      jump\t// in\n    tag_126:\n        /* \"#utility.yul\":2453:2541   */\n      swap2\n      pop\n        /* \"#utility.yul\":2269:2547   */\n      pop\n        /* \"#utility.yul\":2207:2547   */\n      swap3\n      swap2\n      pop\n      pop\n      jump\t// out\n        /* \"#utility.yul\":2553:3387   */\n    tag_8:\n        /* \"#utility.yul\":2641:2647   */\n      0x00\n        /* \"#utility.yul\":2649:2655   */\n      dup1\n        /* \"#utility.yul\":2698:2700   */\n      0x40\n        /* \"#utility.yul\":2686:2695   */\n      dup4\n        /* \"#utility.yul\":2677:2684   */\n      dup6\n        /* \"#utility.yul\":2673:2696   */\n      sub\n        /* \"#utility.yul\":2669:2701   */\n      slt\n        /* \"#utility.yul\":2666:2785   */\n      iszero\n      tag_128\n      jumpi\n        /* \"#utility.yul\":2704:2783   */\n      tag_129\n      tag_53\n      jump\t// in\n    tag_129:\n        /* \"#utility.yul\":2666:2785   */\n    tag_128:\n        /* \"#utility.yul\":2852:2853   */\n      0x00\n        /* \"#utility.yul\":2841:2850   */\n      dup4\n        /* \"#utility.yul\":2837:2854   */\n      add\n        /* \"#utility.yul\":2824:2855   */\n      calldataload\n        /* \"#utility.yul\":2882:2900   */\n      0xffffffffffffffff\n        /* \"#utility.yul\":2874:2880   */\n      dup2\n        /* \"#utility.yul\":2871:2901   */\n      gt\n        /* \"#utility.yul\":2868:2985   */\n      iszero\n      tag_130\n      jumpi\n        /* \"#utility.yul\":2904:2983   */\n      tag_131\n      tag_54\n      jump\t// in\n    tag_131:\n        /* \"#utility.yul\":2868:2985   */\n    tag_130:\n        /* \"#utility.yul\":3009:3072   */\n      tag_132\n        /* \"#utility.yul\":3064:3071   */\n      dup6\n        /* \"#utility.yul\":3055:3061   */\n      dup3\n        /* \"#utility.yul\":3044:3053   */\n      dup7\n        /* \"#utility.yul\":3040:3062   */\n      add\n        /* \"#utility.yul\":3009:3072   */\n      tag_64\n      jump\t// in\n    tag_132:\n        /* \"#utility.yul\":2999:3072   */\n      swap3\n      pop\n        /* \"#utility.yul\":2795:3082   */\n      pop\n        /* \"#utility.yul\":3149:3151   */\n      0x20\n        /* \"#utility.yul\":3138:3147   */\n      dup4\n        /* \"#utility.yul\":3134:3152   */\n      add\n        /* \"#utility.yul\":3121:3153   */\n      calldataload\n        /* \"#utility.yul\":3180:3198   */\n      0xffffffffffffffff\n        /* \"#utility.yul\":3172:3178   */\n      dup2\n        /* \"#utility.yul\":3169:3199   */\n      gt\n        /* \"#utility.yul\":3166:3283   */\n      iszero\n      tag_133\n      jumpi\n        /* \"#utility.yul\":3202:3281   */\n      tag_134\n      tag_54\n      jump\t// in\n    tag_134:\n        /* \"#utility.yul\":3166:3283   */\n    tag_133:\n        /* \"#utility.yul\":3307:3370   */\n      tag_135\n        /* \"#utility.yul\":3362:3369   */\n      dup6\n        /* \"#utility.yul\":3353:3359   */\n      dup3\n        /* \"#utility.yul\":3342:3351   */\n      dup7\n        /* \"#utility.yul\":3338:3360   */\n      add\n        /* \"#utility.yul\":3307:3370   */\n      tag_64\n      jump\t// in\n    tag_135:\n        /* \"#utility.yul\":3297:3370   */\n      swap2\n      pop\n        /* \"#utility.yul\":3092:3380   */\n      pop\n        /* \"#utility.yul\":2553:3387   */\n      swap3\n      pop\n      swap3\n      swap1\n      pop\n      jump\t// out\n        /* \"#utility.yul\":3393:3470   */\n    tag_65:\n        /* \"#utility.yul\":3430:3437   */\n      0x00\n        /* \"#utility.yul\":3459:3464   */\n      dup2\n        /* \"#utility.yul\":3448:3464   */\n      swap1\n      pop\n        /* \"#utility.yul\":3393:3470   */\n      swap2\n      swap1\n      pop\n      jump\t// out\n        /* \"#utility.yul\":3476:3598   */\n    tag_66:\n        /* \"#utility.yul\":3549:3573   */\n      tag_138\n        /* \"#utility.yul\":3567:3572   */\n      dup2\n        /* \"#utility.yul\":3549:3573   */\n      tag_65\n      jump\t// in\n    tag_138:\n        /* \"#utility.yul\":3542:3547   */\n      dup2\n        /* \"#utility.yul\":3539:3574   */\n      eq\n        /* \"#utility.yul\":3529:3592   */\n      tag_139\n      jumpi\n        /* \"#utility.yul\":3588:3589   */\n      0x00\n        /* \"#utility.yul\":3585:3586   */\n      dup1\n        /* \"#utility.yul\":3578:3590   */\n      revert\n        /* \"#utility.yul\":3529:3592   */\n    tag_139:\n        /* \"#utility.yul\":3476:3598   */\n      pop\n      jump\t// out\n        /* \"#utility.yul\":3604:3743   */\n    tag_67:\n        /* \"#utility.yul\":3650:3655   */\n      0x00\n        /* \"#utility.yul\":3688:3694   */\n      dup2\n        /* \"#utility.yul\":3675:3695   */\n      calldataload\n        /* \"#utility.yul\":3666:3695   */\n      swap1\n      pop\n        /* \"#utility.yul\":3704:3737   */\n      tag_141\n        /* \"#utility.yul\":3731:3736   */\n      dup2\n        /* \"#utility.yul\":3704:3737   */\n      tag_66\n      jump\t// in\n    tag_141:\n        /* \"#utility.yul\":3604:3743   */\n      swap3\n      swap2\n      pop\n      pop\n      jump\t// out\n        /* \"#utility.yul\":3749:4078   */\n    tag_12:\n        /* \"#utility.yul\":3808:3814   */\n      0x00\n        /* \"#utility.yul\":3857:3859   */\n      0x20\n        /* \"#utility.yul\":3845:3854   */\n      dup3\n        /* \"#utility.yul\":3836:3843   */\n      dup5\n        /* \"#utility.yul\":3832:3855   */\n      sub\n        /* \"#utility.yul\":3828:3860   */\n      slt\n        /* \"#utility.yul\":3825:3944   */\n      iszero\n      tag_143\n      jumpi\n        /* \"#utility.yul\":3863:3942   */\n      tag_144\n      tag_53\n      jump\t// in\n    tag_144:\n        /* \"#utility.yul\":3825:3944   */\n    tag_143:\n        /* \"#utility.yul\":3983:3984   */\n      0x00\n        /* \"#utility.yul\":4008:4061   */\n      tag_145\n        /* \"#utility.yul\":4053:4060   */\n      dup5\n        /* \"#utility.yul\":4044:4050   */\n      dup3\n        /* \"#utility.yul\":4033:4042   */\n      dup6\n        /* \"#utility.yul\":4029:4051   */\n      add\n        /* \"#utility.yul\":4008:4061   */\n      tag_67\n      jump\t// in\n    tag_145:\n        /* \"#utility.yul\":3998:4061   */\n      swap2\n      pop\n        /* \"#utility.yul\":3954:4071   */\n      pop\n        /* \"#utility.yul\":3749:4078   */\n      swap3\n      swap2\n      pop\n      pop\n      jump\t// out\n        /* \"#utility.yul\":4084:4183   */\n    tag_68:\n        /* \"#utility.yul\":4136:4142   */\n      0x00\n        /* \"#utility.yul\":4170:4175   */\n      dup2\n        /* \"#utility.yul\":4164:4176   */\n      mload\n        /* \"#utility.yul\":4154:4176   */\n      swap1\n      pop\n        /* \"#utility.yul\":4084:4183   */\n      swap2\n      swap1\n      pop\n      jump\t// out\n        /* \"#utility.yul\":4189:4358   */\n    tag_69:\n        /* \"#utility.yul\":4273:4284   */\n      0x00\n        /* \"#utility.yul\":4307:4313   */\n      dup3\n        /* \"#utility.yul\":4302:4305   */\n      dup3\n        /* \"#utility.yul\":4295:4314   */\n      mstore\n        /* \"#utility.yul\":4347:4351   */\n      0x20\n        /* \"#utility.yul\":4342:4345   */\n      dup3\n        /* \"#utility.yul\":4338:4352   */\n      add\n        /* \"#utility.yul\":4323:4352   */\n      swap1\n      pop\n        /* \"#utility.yul\":4189:4358   */\n      swap3\n      swap2\n      pop\n      pop\n      jump\t// out\n        /* \"#utility.yul\":4364:4610   */\n    tag_70:\n        /* \"#utility.yul\":4445:4446   */\n      0x00\n        /* \"#utility.yul\":4455:4568   */\n    tag_149:\n        /* \"#utility.yul\":4469:4475   */\n      dup4\n        /* \"#utility.yul\":4466:4467   */\n      dup2\n        /* \"#utility.yul\":4463:4476   */\n      lt\n        /* \"#utility.yul\":4455:4568   */\n      iszero\n      tag_151\n      jumpi\n        /* \"#utility.yul\":4554:4555   */\n      dup1\n        /* \"#utility.yul\":4549:4552   */\n      dup3\n        /* \"#utility.yul\":4545:4556   */\n      add\n        /* \"#utility.yul\":4539:4557   */\n      mload\n        /* \"#utility.yul\":4535:4536   */\n      dup2\n        /* \"#utility.yul\":4530:4533   */\n      dup5\n        /* \"#utility.yul\":4526:4537   */\n      add\n        /* \"#utility.yul\":4519:4558   */\n      mstore\n        /* \"#utility.yul\":4491:4493   */\n      0x20\n        /* \"#utility.yul\":4488:4489   */\n      dup2\n        /* \"#utility.yul\":4484:4494   */\n      add\n        /* \"#utility.yul\":4479:4494   */\n      swap1\n      pop\n        /* \"#utility.yul\":4455:4568   */\n      jump(tag_149)\n    tag_151:\n        /* \"#utility.yul\":4602:4603   */\n      0x00\n        /* \"#utility.yul\":4593:4599   */\n      dup5\n        /* \"#utility.yul\":4588:4591   */\n      dup5\n        /* \"#utility.yul\":4584:4600   */\n      add\n        /* \"#utility.yul\":4577:4604   */\n      mstore\n        /* \"#utility.yul\":4426:4610   */\n      pop\n        /* \"#utility.yul\":4364:4610   */\n      pop\n      pop\n      pop\n      jump\t// out\n        /* \"#utility.yul\":4616:4993   */\n    tag_71:\n        /* \"#utility.yul\":4704:4707   */\n      0x00\n        /* \"#utility.yul\":4732:4771   */\n      tag_153\n        /* \"#utility.yul\":4765:4770   */\n      dup3\n        /* \"#utility.yul\":4732:4771   */\n      tag_68\n      jump\t// in\n    tag_153:\n        /* \"#utility.yul\":4787:4858   */\n      tag_154\n        /* \"#utility.yul\":4851:4857   */\n      dup2\n        /* \"#utility.yul\":4846:4849   */\n      dup6\n        /* \"#utility.yul\":4787:4858   */\n      tag_69\n      jump\t// in\n    tag_154:\n        /* \"#utility.yul\":4780:4858   */\n      swap4\n      pop\n        /* \"#utility.yul\":4867:4932   */\n      tag_155\n        /* \"#utility.yul\":4925:4931   */\n      dup2\n        /* \"#utility.yul\":4920:4923   */\n      dup6\n        /* \"#utility.yul\":4913:4917   */\n      0x20\n        /* \"#utility.yul\":4906:4911   */\n      dup7\n        /* \"#utility.yul\":4902:4918   */\n      add\n        /* \"#utility.yul\":4867:4932   */\n      tag_70\n      jump\t// in\n    tag_155:\n        /* \"#utility.yul\":4957:4986   */\n      tag_156\n        /* \"#utility.yul\":4979:4985   */\n      dup2\n        /* \"#utility.yul\":4957:4986   */\n      tag_57\n      jump\t// in\n    tag_156:\n        /* \"#utility.yul\":4952:4955   */\n      dup5\n        /* \"#utility.yul\":4948:4987   */\n      add\n        /* \"#utility.yul\":4941:4987   */\n      swap2\n      pop\n        /* \"#utility.yul\":4708:4993   */\n      pop\n        /* \"#utility.yul\":4616:4993   */\n      swap3\n      swap2\n      pop\n      pop\n      jump\t// out\n        /* \"#utility.yul\":4999:5513   */\n    tag_15:\n        /* \"#utility.yul\":5160:5164   */\n      0x00\n        /* \"#utility.yul\":5198:5200   */\n      0x40\n        /* \"#utility.yul\":5187:5196   */\n      dup3\n        /* \"#utility.yul\":5183:5201   */\n      add\n        /* \"#utility.yul\":5175:5201   */\n      swap1\n      pop\n        /* \"#utility.yul\":5247:5256   */\n      dup2\n        /* \"#utility.yul\":5241:5245   */\n      dup2\n        /* \"#utility.yul\":5237:5257   */\n      sub\n        /* \"#utility.yul\":5233:5234   */\n      0x00\n        /* \"#utility.yul\":5222:5231   */\n      dup4\n        /* \"#utility.yul\":5218:5235   */\n      add\n        /* \"#utility.yul\":5211:5258   */\n      mstore\n        /* \"#utility.yul\":5275:5353   */\n      tag_158\n        /* \"#utility.yul\":5348:5352   */\n      dup2\n        /* \"#utility.yul\":5339:5345   */\n      dup6\n        /* \"#utility.yul\":5275:5353   */\n      tag_71\n      jump\t// in\n    tag_158:\n        /* \"#utility.yul\":5267:5353   */\n      swap1\n      pop\n        /* \"#utility.yul\":5400:5409   */\n      dup2\n        /* \"#utility.yul\":5394:5398   */\n      dup2\n        /* \"#utility.yul\":5390:5410   */\n      sub\n        /* \"#utility.yul\":5385:5387   */\n      0x20\n        /* \"#utility.yul\":5374:5383   */\n      dup4\n        /* \"#utility.yul\":5370:5388   */\n      add\n        /* \"#utility.yul\":5363:5411   */\n      mstore\n        /* \"#utility.yul\":5428:5506   */\n      tag_159\n        /* \"#utility.yul\":5501:5505   */\n      dup2\n        /* \"#utility.yul\":5492:5498   */\n      dup5\n        /* \"#utility.yul\":5428:5506   */\n      tag_71\n      jump\t// in\n    tag_159:\n        /* \"#utility.yul\":5420:5506   */\n      swap1\n      pop\n        /* \"#utility.yul\":4999:5513   */\n      swap4\n      swap3\n      pop\n      pop\n      pop\n      jump\t// out\n        /* \"#utility.yul\":5519:5657   */\n    tag_72:\n        /* \"#utility.yul\":5610:5616   */\n      0x00\n        /* \"#utility.yul\":5644:5649   */\n      dup2\n        /* \"#utility.yul\":5638:5650   */\n      mload\n        /* \"#utility.yul\":5628:5650   */\n      swap1\n      pop\n        /* \"#utility.yul\":5519:5657   */\n      swap2\n      swap1\n      pop\n      jump\t// out\n        /* \"#utility.yul\":5663:5871   */\n    tag_73:\n        /* \"#utility.yul\":5786:5797   */\n      0x00\n        /* \"#utility.yul\":5820:5826   */\n      dup3\n        /* \"#utility.yul\":5815:5818   */\n      dup3\n        /* \"#utility.yul\":5808:5827   */\n      mstore\n        /* \"#utility.yul\":5860:5864   */\n      0x20\n        /* \"#utility.yul\":5855:5858   */\n      dup3\n        /* \"#utility.yul\":5851:5865   */\n      add\n        /* \"#utility.yul\":5836:5865   */\n      swap1\n      pop\n        /* \"#utility.yul\":5663:5871   */\n      swap3\n      swap2\n      pop\n      pop\n      jump\t// out\n        /* \"#utility.yul\":5877:6033   */\n    tag_74:\n        /* \"#utility.yul\":5968:5972   */\n      0x00\n        /* \"#utility.yul\":5991:5994   */\n      dup2\n        /* \"#utility.yul\":5983:5994   */\n      swap1\n      pop\n        /* \"#utility.yul\":6021:6025   */\n      0x20\n        /* \"#utility.yul\":6016:6019   */\n      dup3\n        /* \"#utility.yul\":6012:6026   */\n      add\n        /* \"#utility.yul\":6004:6026   */\n      swap1\n      pop\n        /* \"#utility.yul\":5877:6033   */\n      swap2\n      swap1\n      pop\n      jump\t// out\n        /* \"#utility.yul\":6039:6198   */\n    tag_75:\n        /* \"#utility.yul\":6113:6124   */\n      0x00\n        /* \"#utility.yul\":6147:6153   */\n      dup3\n        /* \"#utility.yul\":6142:6145   */\n      dup3\n        /* \"#utility.yul\":6135:6154   */\n      mstore\n        /* \"#utility.yul\":6187:6191   */\n      0x20\n        /* \"#utility.yul\":6182:6185   */\n      dup3\n        /* \"#utility.yul\":6178:6192   */\n      add\n        /* \"#utility.yul\":6163:6192   */\n      swap1\n      pop\n        /* \"#utility.yul\":6039:6198   */\n      swap3\n      swap2\n      pop\n      pop\n      jump\t// out\n        /* \"#utility.yul\":6204:6561   */\n    tag_76:\n        /* \"#utility.yul\":6282:6285   */\n      0x00\n        /* \"#utility.yul\":6310:6349   */\n      tag_165\n        /* \"#utility.yul\":6343:6348   */\n      dup3\n        /* \"#utility.yul\":6310:6349   */\n      tag_68\n      jump\t// in\n    tag_165:\n        /* \"#utility.yul\":6365:6426   */\n      tag_166\n        /* \"#utility.yul\":6419:6425   */\n      dup2\n        /* \"#utility.yul\":6414:6417   */\n      dup6\n        /* \"#utility.yul\":6365:6426   */\n      tag_75\n      jump\t// in\n    tag_166:\n        /* \"#utility.yul\":6358:6426   */\n      swap4\n      pop\n        /* \"#utility.yul\":6435:6500   */\n      tag_167\n        /* \"#utility.yul\":6493:6499   */\n      dup2\n        /* \"#utility.yul\":6488:6491   */\n      dup6\n        /* \"#utility.yul\":6481:6485   */\n      0x20\n        /* \"#utility.yul\":6474:6479   */\n      dup7\n        /* \"#utility.yul\":6470:6486   */\n      add\n        /* \"#utility.yul\":6435:6500   */\n      tag_70\n      jump\t// in\n    tag_167:\n        /* \"#utility.yul\":6525:6554   */\n      tag_168\n        /* \"#utility.yul\":6547:6553   */\n      dup2\n        /* \"#utility.yul\":6525:6554   */\n      tag_57\n      jump\t// in\n    tag_168:\n        /* \"#utility.yul\":6520:6523   */\n      dup5\n        /* \"#utility.yul\":6516:6555   */\n      add\n        /* \"#utility.yul\":6509:6555   */\n      swap2\n      pop\n        /* \"#utility.yul\":6286:6561   */\n      pop\n        /* \"#utility.yul\":6204:6561   */\n      swap3\n      swap2\n      pop\n      pop\n      jump\t// out\n        /* \"#utility.yul\":6623:7295   */\n    tag_77:\n        /* \"#utility.yul\":6730:6733   */\n      0x00\n        /* \"#utility.yul\":6766:6770   */\n      0x40\n        /* \"#utility.yul\":6761:6764   */\n      dup4\n        /* \"#utility.yul\":6757:6771   */\n      add\n        /* \"#utility.yul\":6853:6857   */\n      0x00\n        /* \"#utility.yul\":6846:6851   */\n      dup4\n        /* \"#utility.yul\":6842:6858   */\n      add\n        /* \"#utility.yul\":6836:6859   */\n      mload\n        /* \"#utility.yul\":6906:6909   */\n      dup5\n        /* \"#utility.yul\":6900:6904   */\n      dup3\n        /* \"#utility.yul\":6896:6910   */\n      sub\n        /* \"#utility.yul\":6889:6893   */\n      0x00\n        /* \"#utility.yul\":6884:6887   */\n      dup7\n        /* \"#utility.yul\":6880:6894   */\n      add\n        /* \"#utility.yul\":6873:6911   */\n      mstore\n        /* \"#utility.yul\":6932:7005   */\n      tag_170\n        /* \"#utility.yul\":7000:7004   */\n      dup3\n        /* \"#utility.yul\":6986:6998   */\n      dup3\n        /* \"#utility.yul\":6932:7005   */\n      tag_76\n      jump\t// in\n    tag_170:\n        /* \"#utility.yul\":6924:7005   */\n      swap2\n      pop\n        /* \"#utility.yul\":6781:7016   */\n      pop\n        /* \"#utility.yul\":7105:7109   */\n      0x20\n        /* \"#utility.yul\":7098:7103   */\n      dup4\n        /* \"#utility.yul\":7094:7110   */\n      add\n        /* \"#utility.yul\":7088:7111   */\n      mload\n        /* \"#utility.yul\":7158:7161   */\n      dup5\n        /* \"#utility.yul\":7152:7156   */\n      dup3\n        /* \"#utility.yul\":7148:7162   */\n      sub\n        /* \"#utility.yul\":7141:7145   */\n      0x20\n        /* \"#utility.yul\":7136:7139   */\n      dup7\n        /* \"#utility.yul\":7132:7146   */\n      add\n        /* \"#utility.yul\":7125:7163   */\n      mstore\n        /* \"#utility.yul\":7184:7257   */\n      tag_171\n        /* \"#utility.yul\":7252:7256   */\n      dup3\n        /* \"#utility.yul\":7238:7250   */\n      dup3\n        /* \"#utility.yul\":7184:7257   */\n      tag_76\n      jump\t// in\n    tag_171:\n        /* \"#utility.yul\":7176:7257   */\n      swap2\n      pop\n        /* \"#utility.yul\":7026:7268   */\n      pop\n        /* \"#utility.yul\":7285:7289   */\n      dup1\n        /* \"#utility.yul\":7278:7289   */\n      swap2\n      pop\n        /* \"#utility.yul\":6735:7295   */\n      pop\n        /* \"#utility.yul\":6623:7295   */\n      swap3\n      swap2\n      pop\n      pop\n      jump\t// out\n        /* \"#utility.yul\":7301:7553   */\n    tag_78:\n        /* \"#utility.yul\":7418:7428   */\n      0x00\n        /* \"#utility.yul\":7453:7547   */\n      tag_173\n        /* \"#utility.yul\":7543:7546   */\n      dup4\n        /* \"#utility.yul\":7535:7541   */\n      dup4\n        /* \"#utility.yul\":7453:7547   */\n      tag_77\n      jump\t// in\n    tag_173:\n        /* \"#utility.yul\":7439:7547   */\n      swap1\n      pop\n        /* \"#utility.yul\":7301:7553   */\n      swap3\n      swap2\n      pop\n      pop\n      jump\t// out\n        /* \"#utility.yul\":7559:7696   */\n    tag_79:\n        /* \"#utility.yul\":7653:7657   */\n      0x00\n        /* \"#utility.yul\":7685:7689   */\n      0x20\n        /* \"#utility.yul\":7680:7683   */\n      dup3\n        /* \"#utility.yul\":7676:7690   */\n      add\n        /* \"#utility.yul\":7668:7690   */\n      swap1\n      pop\n        /* \"#utility.yul\":7559:7696   */\n      swap2\n      swap1\n      pop\n      jump\t// out\n        /* \"#utility.yul\":7762:8865   */\n    tag_80:\n        /* \"#utility.yul\":7929:7932   */\n      0x00\n        /* \"#utility.yul\":7958:8036   */\n      tag_176\n        /* \"#utility.yul\":8030:8035   */\n      dup3\n        /* \"#utility.yul\":7958:8036   */\n      tag_72\n      jump\t// in\n    tag_176:\n        /* \"#utility.yul\":8052:8162   */\n      tag_177\n        /* \"#utility.yul\":8155:8161   */\n      dup2\n        /* \"#utility.yul\":8150:8153   */\n      dup6\n        /* \"#utility.yul\":8052:8162   */\n      tag_73\n      jump\t// in\n    tag_177:\n        /* \"#utility.yul\":8045:8162   */\n      swap4\n      pop\n        /* \"#utility.yul\":8188:8191   */\n      dup4\n        /* \"#utility.yul\":8233:8237   */\n      0x20\n        /* \"#utility.yul\":8225:8231   */\n      dup3\n        /* \"#utility.yul\":8221:8238   */\n      mul\n        /* \"#utility.yul\":8216:8219   */\n      dup6\n        /* \"#utility.yul\":8212:8239   */\n      add\n        /* \"#utility.yul\":8263:8343   */\n      tag_178\n        /* \"#utility.yul\":8337:8342   */\n      dup6\n        /* \"#utility.yul\":8263:8343   */\n      tag_74\n      jump\t// in\n    tag_178:\n        /* \"#utility.yul\":8366:8373   */\n      dup1\n        /* \"#utility.yul\":8397:8398   */\n      0x00\n        /* \"#utility.yul\":8382:8820   */\n    tag_179:\n        /* \"#utility.yul\":8407:8413   */\n      dup6\n        /* \"#utility.yul\":8404:8405   */\n      dup2\n        /* \"#utility.yul\":8401:8414   */\n      lt\n        /* \"#utility.yul\":8382:8820   */\n      iszero\n      tag_181\n      jumpi\n        /* \"#utility.yul\":8478:8487   */\n      dup5\n        /* \"#utility.yul\":8472:8476   */\n      dup5\n        /* \"#utility.yul\":8468:8488   */\n      sub\n        /* \"#utility.yul\":8463:8466   */\n      dup10\n        /* \"#utility.yul\":8456:8489   */\n      mstore\n        /* \"#utility.yul\":8529:8535   */\n      dup2\n        /* \"#utility.yul\":8523:8536   */\n      mload\n        /* \"#utility.yul\":8557:8669   */\n      tag_182\n        /* \"#utility.yul\":8664:8668   */\n      dup6\n        /* \"#utility.yul\":8649:8662   */\n      dup3\n        /* \"#utility.yul\":8557:8669   */\n      tag_78\n      jump\t// in\n    tag_182:\n        /* \"#utility.yul\":8549:8669   */\n      swap5\n      pop\n        /* \"#utility.yul\":8692:8776   */\n      tag_183\n        /* \"#utility.yul\":8769:8775   */\n      dup4\n        /* \"#utility.yul\":8692:8776   */\n      tag_79\n      jump\t// in\n    tag_183:\n        /* \"#utility.yul\":8682:8776   */\n      swap3\n      pop\n        /* \"#utility.yul\":8805:8809   */\n      0x20\n        /* \"#utility.yul\":8800:8803   */\n      dup11\n        /* \"#utility.yul\":8796:8810   */\n      add\n        /* \"#utility.yul\":8789:8810   */\n      swap10\n      pop\n        /* \"#utility.yul\":8442:8820   */\n      pop\n        /* \"#utility.yul\":8429:8430   */\n      0x01\n        /* \"#utility.yul\":8426:8427   */\n      dup2\n        /* \"#utility.yul\":8422:8431   */\n      add\n        /* \"#utility.yul\":8417:8431   */\n      swap1\n      pop\n        /* \"#utility.yul\":8382:8820   */\n      jump(tag_179)\n    tag_181:\n        /* \"#utility.yul\":8386:8400   */\n      pop\n        /* \"#utility.yul\":8836:8840   */\n      dup3\n        /* \"#utility.yul\":8829:8840   */\n      swap8\n      pop\n        /* \"#utility.yul\":8856:8859   */\n      dup8\n        /* \"#utility.yul\":8849:8859   */\n      swap6\n      pop\n        /* \"#utility.yul\":7934:8865   */\n      pop\n      pop\n      pop\n      pop\n      pop\n        /* \"#utility.yul\":7762:8865   */\n      swap3\n      swap2\n      pop\n      pop\n      jump\t// out\n        /* \"#utility.yul\":8871:9340   */\n    tag_19:\n        /* \"#utility.yul\":9062:9066   */\n      0x00\n        /* \"#utility.yul\":9100:9102   */\n      0x20\n        /* \"#utility.yul\":9089:9098   */\n      dup3\n        /* \"#utility.yul\":9085:9103   */\n      add\n        /* \"#utility.yul\":9077:9103   */\n      swap1\n      pop\n        /* \"#utility.yul\":9149:9158   */\n      dup2\n        /* \"#utility.yul\":9143:9147   */\n      dup2\n        /* \"#utility.yul\":9139:9159   */\n      sub\n        /* \"#utility.yul\":9135:9136   */\n      0x00\n        /* \"#utility.yul\":9124:9133   */\n      dup4\n        /* \"#utility.yul\":9120:9137   */\n      add\n        /* \"#utility.yul\":9113:9160   */\n      mstore\n        /* \"#utility.yul\":9177:9333   */\n      tag_185\n        /* \"#utility.yul\":9328:9332   */\n      dup2\n        /* \"#utility.yul\":9319:9325   */\n      dup5\n        /* \"#utility.yul\":9177:9333   */\n      tag_80\n      jump\t// in\n    tag_185:\n        /* \"#utility.yul\":9169:9333   */\n      swap1\n      pop\n        /* \"#utility.yul\":8871:9340   */\n      swap3\n      swap2\n      pop\n      pop\n      jump\t// out\n        /* \"#utility.yul\":9346:9526   */\n    tag_81:\n        /* \"#utility.yul\":9394:9471   */\n      0x4e487b7100000000000000000000000000000000000000000000000000000000\n        /* \"#utility.yul\":9391:9392   */\n      0x00\n        /* \"#utility.yul\":9384:9472   */\n      mstore\n        /* \"#utility.yul\":9491:9495   */\n      0x22\n        /* \"#utility.yul\":9488:9489   */\n      0x04\n        /* \"#utility.yul\":9481:9496   */\n      mstore\n        /* \"#utility.yul\":9515:9519   */\n      0x24\n        /* \"#utility.yul\":9512:9513   */\n      0x00\n        /* \"#utility.yul\":9505:9520   */\n      revert\n        /* \"#utility.yul\":9532:9852   */\n    tag_28:\n        /* \"#utility.yul\":9576:9582   */\n      0x00\n        /* \"#utility.yul\":9613:9614   */\n      0x02\n        /* \"#utility.yul\":9607:9611   */\n      dup3\n        /* \"#utility.yul\":9603:9615   */\n      div\n        /* \"#utility.yul\":9593:9615   */\n      swap1\n      pop\n        /* \"#utility.yul\":9660:9661   */\n      0x01\n        /* \"#utility.yul\":9654:9658   */\n      dup3\n        /* \"#utility.yul\":9650:9662   */\n      and\n        /* \"#utility.yul\":9681:9699   */\n      dup1\n        /* \"#utility.yul\":9671:9752   */\n      tag_188\n      jumpi\n        /* \"#utility.yul\":9737:9741   */\n      0x7f\n        /* \"#utility.yul\":9729:9735   */\n      dup3\n        /* \"#utility.yul\":9725:9742   */\n      and\n        /* \"#utility.yul\":9715:9742   */\n      swap2\n      pop\n        /* \"#utility.yul\":9671:9752   */\n    tag_188:\n        /* \"#utility.yul\":9799:9801   */\n      0x20\n        /* \"#utility.yul\":9791:9797   */\n      dup3\n        /* \"#utility.yul\":9788:9802   */\n      lt\n        /* \"#utility.yul\":9768:9786   */\n      dup2\n        /* \"#utility.yul\":9765:9803   */\n      sub\n        /* \"#utility.yul\":9762:9846   */\n      tag_189\n      jumpi\n        /* \"#utility.yul\":9818:9836   */\n      tag_190\n      tag_81\n      jump\t// in\n    tag_190:\n        /* \"#utility.yul\":9762:9846   */\n    tag_189:\n        /* \"#utility.yul\":9583:9852   */\n      pop\n        /* \"#utility.yul\":9532:9852   */\n      swap2\n      swap1\n      pop\n      jump\t// out\n        /* \"#utility.yul\":9858:9999   */\n    tag_82:\n        /* \"#utility.yul\":9907:9911   */\n      0x00\n        /* \"#utility.yul\":9930:9933   */\n      dup2\n        /* \"#utility.yul\":9922:9933   */\n      swap1\n      pop\n        /* \"#utility.yul\":9953:9956   */\n      dup2\n        /* \"#utility.yul\":9950:9951   */\n      0x00\n        /* \"#utility.yul\":9943:9957   */\n      mstore\n        /* \"#utility.yul\":9987:9991   */\n      0x20\n        /* \"#utility.yul\":9984:9985   */\n      0x00\n        /* \"#utility.yul\":9974:9992   */\n      keccak256\n        /* \"#utility.yul\":9966:9992   */\n      swap1\n      pop\n        /* \"#utility.yul\":9858:9999   */\n      swap2\n      swap1\n      pop\n      jump\t// out\n        /* \"#utility.yul\":10005:10098   */\n    tag_83:\n        /* \"#utility.yul\":10042:10048   */\n      0x00\n        /* \"#utility.yul\":10089:10091   */\n      0x20\n        /* \"#utility.yul\":10084:10086   */\n      0x1f\n        /* \"#utility.yul\":10077:10082   */\n      dup4\n        /* \"#utility.yul\":10073:10087   */\n      add\n        /* \"#utility.yul\":10069:10092   */\n      div\n        /* \"#utility.yul\":10059:10092   */\n      swap1\n      pop\n        /* \"#utility.yul\":10005:10098   */\n      swap2\n      swap1\n      pop\n      jump\t// out\n        /* \"#utility.yul\":10104:10211   */\n    tag_84:\n        /* \"#utility.yul\":10148:10156   */\n      0x00\n        /* \"#utility.yul\":10198:10203   */\n      dup3\n        /* \"#utility.yul\":10192:10196   */\n      dup3\n        /* \"#utility.yul\":10188:10204   */\n      shl\n        /* \"#utility.yul\":10167:10204   */\n      swap1\n      pop\n        /* \"#utility.yul\":10104:10211   */\n      swap3\n      swap2\n      pop\n      pop\n      jump\t// out\n        /* \"#utility.yul\":10217:10610   */\n    tag_85:\n        /* \"#utility.yul\":10286:10292   */\n      0x00\n        /* \"#utility.yul\":10336:10337   */\n      0x08\n        /* \"#utility.yul\":10324:10334   */\n      dup4\n        /* \"#utility.yul\":10320:10338   */\n      mul\n        /* \"#utility.yul\":10359:10456   */\n      tag_195\n        /* \"#utility.yul\":10389:10455   */\n      0xffffffffffffffffffffffffffffffffffffffffffffffffffffffffffffffff\n        /* \"#utility.yul\":10378:10387   */\n      dup3\n        /* \"#utility.yul\":10359:10456   */\n      tag_84\n      jump\t// in\n    tag_195:\n        /* \"#utility.yul\":10477:10516   */\n      tag_196\n        /* \"#utility.yul\":10507:10515   */\n      dup7\n        /* \"#utility.yul\":10496:10505   */\n      dup4\n        /* \"#utility.yul\":10477:10516   */\n      tag_84\n      jump\t// in\n    tag_196:\n        /* \"#utility.yul\":10465:10516   */\n      swap6\n      pop\n        /* \"#utility.yul\":10549:10553   */\n      dup1\n        /* \"#utility.yul\":10545:10554   */\n      not\n        /* \"#utility.yul\":10538:10543   */\n      dup5\n        /* \"#utility.yul\":10534:10555   */\n      and\n        /* \"#utility.yul\":10525:10555   */\n      swap4\n      pop\n        /* \"#utility.yul\":10598:10602   */\n      dup1\n        /* \"#utility.yul\":10588:10596   */\n      dup7\n        /* \"#utility.yul\":10584:10603   */\n      and\n        /* \"#utility.yul\":10577:10582   */\n      dup5\n        /* \"#utility.yul\":10574:10604   */\n      or\n        /* \"#utility.yul\":10564:10604   */\n      swap3\n      pop\n        /* \"#utility.yul\":10293:10610   */\n      pop\n      pop\n        /* \"#utility.yul\":10217:10610   */\n      swap4\n      swap3\n      pop\n      pop\n      pop\n      jump\t// out\n        /* \"#utility.yul\":10616:10676   */\n    tag_86:\n        /* \"#utility.yul\":10644:10647   */\n      0x00\n        /* \"#utility.yul\":10665:10670   */\n      dup2\n        /* \"#utility.yul\":10658:10670   */\n      swap1\n      pop\n        /* \"#utility.yul\":10616:10676   */\n      swap2\n      swap1\n      pop\n      jump\t// out\n        /* \"#utility.yul\":10682:10824   */\n    tag_87:\n        /* \"#utility.yul\":10732:10741   */\n      0x00\n        /* \"#utility.yul\":10765:10818   */\n      tag_199\n        /* \"#utility.yul\":10783:10817   */\n      tag_200\n        /* \"#utility.yul\":10792:10816   */\n      tag_201\n        /* \"#utility.yul\":10810:10815   */\n      dup5\n        /* \"#utility.yul\":10792:10816   */\n      tag_65\n      jump\t// in\n    tag_201:\n        /* \"#utility.yul\":10783:10817   */\n      tag_86\n      jump\t// in\n    tag_200:\n        /* \"#utility.yul\":10765:10818   */\n      tag_65\n      jump\t// in\n    tag_199:\n        /* \"#utility.yul\":10752:10818   */\n      swap1\n      pop\n        /* \"#utility.yul\":10682:10824   */\n      swap2\n      swap1\n      pop\n      jump\t// out\n        /* \"#utility.yul\":10830:10905   */\n    tag_88:\n        /* \"#utility.yul\":10873:10876   */\n      0x00\n        /* \"#utility.yul\":10894:10899   */\n      dup2\n        /* \"#utility.yul\":10887:10899   */\n      swap1\n      pop\n        /* \"#utility.yul\":10830:10905   */\n      swap2\n      swap1\n      pop\n      jump\t// out\n        /* \"#utility.yul\":10911:11180   */\n    tag_89:\n        /* \"#utility.yul\":11021:11060   */\n      tag_204\n        /* \"#utility.yul\":11052:11059   */\n      dup4\n        /* \"#utility.yul\":11021:11060   */\n      tag_87\n      jump\t// in\n    tag_204:\n        /* \"#utility.yul\":11082:11173   */\n      tag_205\n        /* \"#utility.yul\":11131:11172   */\n      tag_206\n        /* \"#utility.yul\":11155:11171   */\n      dup3\n        /* \"#utility.yul\":11131:11172   */\n      tag_88\n      jump\t// in\n    tag_206:\n        /* \"#utility.yul\":11123:11129   */\n      dup5\n        /* \"#utility.yul\":11116:11120   */\n      dup5\n        /* \"#utility.yul\":11110:11121   */\n      sload\n        /* \"#utility.yul\":11082:11173   */\n      tag_85\n      jump\t// in\n    tag_205:\n        /* \"#utility.yul\":11076:11080   */\n      dup3\n        /* \"#utility.yul\":11069:11174   */\n      sstore\n        /* \"#utility.yul\":10987:11180   */\n      pop\n        /* \"#utility.yul\":10911:11180   */\n      pop\n      pop\n      pop\n      jump\t// out\n        /* \"#utility.yul\":11186:11259   */\n    tag_90:\n        /* \"#utility.yul\":11231:11234   */\n      0x00\n        /* \"#utility.yul\":11186:11259   */\n      swap1\n      jump\t// out\n        /* \"#utility.yul\":11265:11454   */\n    tag_91:\n        /* \"#utility.yul\":11342:11374   */\n      tag_209\n      tag_90\n      jump\t// in\n    tag_209:\n        /* \"#utility.yul\":11383:11448   */\n      tag_210\n        /* \"#utility.yul\":11441:11447   */\n      dup2\n        /* \"#utility.yul\":11433:11439   */\n      dup5\n        /* \"#utility.yul\":11427:11431   */\n      dup5\n        /* \"#utility.yul\":11383:11448   */\n      tag_89\n      jump\t// in\n    tag_210:\n        /* \"#utility.yul\":11318:11454   */\n      pop\n        /* \"#utility.yul\":11265:11454   */\n      pop\n      pop\n      jump\t// out\n        /* \"#utility.yul\":11460:11646   */\n    tag_92:\n        /* \"#utility.yul\":11520:11640   */\n    tag_212:\n        /* \"#utility.yul\":11537:11540   */\n      dup2\n        /* \"#utility.yul\":11530:11535   */\n      dup2\n        /* \"#utility.yul\":11527:11541   */\n      lt\n        /* \"#utility.yul\":11520:11640   */\n      iszero\n      tag_214\n      jumpi\n        /* \"#utility.yul\":11591:11630   */\n      tag_215\n        /* \"#utility.yul\":11628:11629   */\n      0x00\n        /* \"#utility.yul\":11621:11626   */\n      dup3\n        /* \"#utility.yul\":11591:11630   */\n      tag_91\n      jump\t// in\n    tag_215:\n        /* \"#utility.yul\":11564:11565   */\n      0x01\n        /* \"#utility.yul\":11557:11562   */\n      dup2\n        /* \"#utility.yul\":11553:11566   */\n      add\n        /* \"#utility.yul\":11544:11566   */\n      swap1\n      pop\n        /* \"#utility.yul\":11520:11640   */\n      jump(tag_212)\n    tag_214:\n        /* \"#utility.yul\":11460:11646   */\n      pop\n      pop\n      jump\t// out\n        /* \"#utility.yul\":11652:12195   */\n    tag_93:\n        /* \"#utility.yul\":11753:11755   */\n      0x1f\n        /* \"#utility.yul\":11748:11751   */\n      dup3\n        /* \"#utility.yul\":11745:11756   */\n      gt\n        /* \"#utility.yul\":11742:12188   */\n      iszero\n      tag_217\n      jumpi\n        /* \"#utility.yul\":11787:11825   */\n      tag_218\n        /* \"#utility.yul\":11819:11824   */\n      dup2\n        /* \"#utility.yul\":11787:11825   */\n      tag_82\n      jump\t// in\n    tag_218:\n        /* \"#utility.yul\":11871:11900   */\n      tag_219\n        /* \"#utility.yul\":11889:11899   */\n      dup5\n        /* \"#utility.yul\":11871:11900   */\n      tag_83\n      jump\t// in\n    tag_219:\n        /* \"#utility.yul\":11861:11869   */\n      dup2\n        /* \"#utility.yul\":11857:11901   */\n      add\n        /* \"#utility.yul\":12054:12056   */\n      0x20\n        /* \"#utility.yul\":12042:12052   */\n      dup6\n        /* \"#utility.yul\":12039:12057   */\n      lt\n        /* \"#utility.yul\":12036:12085   */\n      iszero\n      tag_220\n      jumpi\n        /* \"#utility.yul\":12075:12083   */\n      dup2\n        /* \"#utility.yul\":12060:12083   */\n      swap1\n      pop\n        /* \"#utility.yul\":12036:12085   */\n    tag_220:\n        /* \"#utility.yul\":12098:12178   */\n      tag_221\n        /* \"#utility.yul\":12154:12176   */\n      tag_222\n        /* \"#utility.yul\":12172:12175   */\n      dup6\n        /* \"#utility.yul\":12154:12176   */\n      tag_83\n      jump\t// in\n    tag_222:\n        /* \"#utility.yul\":12144:12152   */\n      dup4\n        /* \"#utility.yul\":12140:12177   */\n      add\n        /* \"#utility.yul\":12127:12138   */\n      dup3\n        /* \"#utility.yul\":12098:12178   */\n      tag_92\n      jump\t// in\n    tag_221:\n        /* \"#utility.yul\":11757:12188   */\n      pop\n      pop\n        /* \"#utility.yul\":11742:12188   */\n    tag_217:\n        /* \"#utility.yul\":11652:12195   */\n      pop\n      pop\n      pop\n      jump\t// out\n        /* \"#utility.yul\":12201:12318   */\n    tag_94:\n        /* \"#utility.yul\":12255:12263   */\n      0x00\n        /* \"#utility.yul\":12305:12310   */\n      dup3\n        /* \"#utility.yul\":12299:12303   */\n      dup3\n        /* \"#utility.yul\":12295:12311   */\n      shr\n        /* \"#utility.yul\":12274:12311   */\n      swap1\n      pop\n        /* \"#utility.yul\":12201:12318   */\n      swap3\n      swap2\n      pop\n      pop\n      jump\t// out\n        /* \"#utility.yul\":12324:12493   */\n    tag_95:\n        /* \"#utility.yul\":12368:12374   */\n      0x00\n        /* \"#utility.yul\":12401:12452   */\n      tag_225\n        /* \"#utility.yul\":12449:12450   */\n      0x00\n        /* \"#utility.yul\":12445:12451   */\n      not\n        /* \"#utility.yul\":12437:12442   */\n      dup5\n        /* \"#utility.yul\":12434:12435   */\n      0x08\n        /* \"#utility.yul\":12430:12443   */\n      mul\n        /* \"#utility.yul\":12401:12452   */\n      tag_94\n      jump\t// in\n    tag_225:\n        /* \"#utility.yul\":12397:12453   */\n      not\n        /* \"#utility.yul\":12482:12486   */\n      dup1\n        /* \"#utility.yul\":12476:12480   */\n      dup4\n        /* \"#utility.yul\":12472:12487   */\n      and\n        /* \"#utility.yul\":12462:12487   */\n      swap2\n      pop\n        /* \"#utility.yul\":12375:12493   */\n      pop\n        /* \"#utility.yul\":12324:12493   */\n      swap3\n      swap2\n      pop\n      pop\n      jump\t// out\n        /* \"#utility.yul\":12498:12793   */\n    tag_96:\n        /* \"#utility.yul\":12574:12578   */\n      0x00\n        /* \"#utility.yul\":12720:12749   */\n      tag_227\n        /* \"#utility.yul\":12745:12748   */\n      dup4\n        /* \"#utility.yul\":12739:12743   */\n      dup4\n        /* \"#utility.yul\":12720:12749   */\n      tag_95\n      jump\t// in\n    tag_227:\n        /* \"#utility.yul\":12712:12749   */\n      swap2\n      pop\n        /* \"#utility.yul\":12782:12785   */\n      dup3\n        /* \"#utility.yul\":12779:12780   */\n      0x02\n        /* \"#utility.yul\":12775:12786   */\n      mul\n        /* \"#utility.yul\":12769:12773   */\n      dup3\n        /* \"#utility.yul\":12766:12787   */\n      or\n        /* \"#utility.yul\":12758:12787   */\n      swap1\n      pop\n        /* \"#utility.yul\":12498:12793   */\n      swap3\n      swap2\n      pop\n      pop\n      jump\t// out\n        /* \"#utility.yul\":12798:14193   */\n    tag_23:\n        /* \"#utility.yul\":12915:12952   */\n      tag_229\n        /* \"#utility.yul\":12948:12951   */\n      dup3\n        /* \"#utility.yul\":12915:12952   */\n      tag_68\n      jump\t// in\n    tag_229:\n        /* \"#utility.yul\":13017:13035   */\n      0xffffffffffffffff\n        /* \"#utility.yul\":13009:13015   */\n      dup2\n        /* \"#utility.yul\":13006:13036   */\n      gt\n        /* \"#utility.yul\":13003:13059   */\n      iszero\n      tag_230\n      jumpi\n        /* \"#utility.yul\":13039:13057   */\n      tag_231\n      tag_58\n      jump\t// in\n    tag_231:\n        /* \"#utility.yul\":13003:13059   */\n    tag_230:\n        /* \"#utility.yul\":13083:13121   */\n      tag_232\n        /* \"#utility.yul\":13115:13119   */\n      dup3\n        /* \"#utility.yul\":13109:13120   */\n      sload\n        /* \"#utility.yul\":13083:13121   */\n      tag_28\n      jump\t// in\n    tag_232:\n        /* \"#utility.yul\":13168:13235   */\n      tag_233\n        /* \"#utility.yul\":13228:13234   */\n      dup3\n        /* \"#utility.yul\":13220:13226   */\n      dup3\n        /* \"#utility.yul\":13214:13218   */\n      dup6\n        /* \"#utility.yul\":13168:13235   */\n      tag_93\n      jump\t// in\n    tag_233:\n        /* \"#utility.yul\":13262:13263   */\n      0x00\n        /* \"#utility.yul\":13286:13290   */\n      0x20\n        /* \"#utility.yul\":13273:13290   */\n      swap1\n      pop\n        /* \"#utility.yul\":13318:13320   */\n      0x1f\n        /* \"#utility.yul\":13310:13316   */\n      dup4\n        /* \"#utility.yul\":13307:13321   */\n      gt\n        /* \"#utility.yul\":13335:13336   */\n      0x01\n        /* \"#utility.yul\":13330:13948   */\n      dup2\n      eq\n      tag_235\n      jumpi\n        /* \"#utility.yul\":13992:13993   */\n      0x00\n        /* \"#utility.yul\":14009:14015   */\n      dup5\n        /* \"#utility.yul\":14006:14083   */\n      iszero\n      tag_236\n      jumpi\n        /* \"#utility.yul\":14058:14067   */\n      dup3\n        /* \"#utility.yul\":14053:14056   */\n      dup8\n        /* \"#utility.yul\":14049:14068   */\n      add\n        /* \"#utility.yul\":14043:14069   */\n      mload\n        /* \"#utility.yul\":14034:14069   */\n      swap1\n      pop\n        /* \"#utility.yul\":14006:14083   */\n    tag_236:\n        /* \"#utility.yul\":14109:14176   */\n      tag_237\n        /* \"#utility.yul\":14169:14175   */\n      dup6\n        /* \"#utility.yul\":14162:14167   */\n      dup3\n        /* \"#utility.yul\":14109:14176   */\n      tag_96\n      jump\t// in\n    tag_237:\n        /* \"#utility.yul\":14103:14107   */\n      dup7\n        /* \"#utility.yul\":14096:14177   */\n      sstore\n        /* \"#utility.yul\":13965:14187   */\n      pop\n        /* \"#utility.yul\":13300:14187   */\n      jump(tag_234)\n        /* \"#utility.yul\":13330:13948   */\n    tag_235:\n        /* \"#utility.yul\":13382:13386   */\n      0x1f\n        /* \"#utility.yul\":13378:13387   */\n      not\n        /* \"#utility.yul\":13370:13376   */\n      dup5\n        /* \"#utility.yul\":13366:13388   */\n      and\n        /* \"#utility.yul\":13416:13453   */\n      tag_238\n        /* \"#utility.yul\":13448:13452   */\n      dup7\n        /* \"#utility.yul\":13416:13453   */\n      tag_82\n      jump\t// in\n    tag_238:\n        /* \"#utility.yul\":13475:13476   */\n      0x00\n        /* \"#utility.yul\":13489:13697   */\n    tag_239:\n        /* \"#utility.yul\":13503:13510   */\n      dup3\n        /* \"#utility.yul\":13500:13501   */\n      dup2\n        /* \"#utility.yul\":13497:13511   */\n      lt\n        /* \"#utility.yul\":13489:13697   */\n      iszero\n      tag_241\n      jumpi\n        /* \"#utility.yul\":13582:13591   */\n      dup5\n        /* \"#utility.yul\":13577:13580   */\n      dup10\n        /* \"#utility.yul\":13573:13592   */\n      add\n        /* \"#utility.yul\":13567:13593   */\n      mload\n        /* \"#utility.yul\":13559:13565   */\n      dup3\n        /* \"#utility.yul\":13552:13594   */\n      sstore\n        /* \"#utility.yul\":13633:13634   */\n      0x01\n        /* \"#utility.yul\":13625:13631   */\n      dup3\n        /* \"#utility.yul\":13621:13635   */\n      add\n        /* \"#utility.yul\":13611:13635   */\n      swap2\n      pop\n        /* \"#utility.yul\":13680:13682   */\n      0x20\n        /* \"#utility.yul\":13669:13678   */\n      dup6\n        /* \"#utility.yul\":13665:13683   */\n      add\n        /* \"#utility.yul\":13652:13683   */\n      swap5\n      pop\n        /* \"#utility.yul\":13526:13530   */\n      0x20\n        /* \"#utility.yul\":13523:13524   */\n      dup2\n        /* \"#utility.yul\":13519:13531   */\n      add\n        /* \"#utility.yul\":13514:13531   */\n      swap1\n      pop\n        /* \"#utility.yul\":13489:13697   */\n      jump(tag_239)\n    tag_241:\n        /* \"#utility.yul\":13725:13731   */\n      dup7\n        /* \"#utility.yul\":13716:13723   */\n      dup4\n        /* \"#utility.yul\":13713:13732   */\n      lt\n        /* \"#utility.yul\":13710:13889   */\n      iszero\n      tag_242\n      jumpi\n        /* \"#utility.yul\":13783:13792   */\n      dup5\n        /* \"#utility.yul\":13778:13781   */\n      dup10\n        /* \"#utility.yul\":13774:13793   */\n      add\n        /* \"#utility.yul\":13768:13794   */\n      mload\n        /* \"#utility.yul\":13826:13874   */\n      tag_243\n        /* \"#utility.yul\":13868:13872   */\n      0x1f\n        /* \"#utility.yul\":13860:13866   */\n      dup10\n        /* \"#utility.yul\":13856:13873   */\n      and\n        /* \"#utility.yul\":13845:13854   */\n      dup3\n        /* \"#utility.yul\":13826:13874   */\n      tag_95\n      jump\t// in\n    tag_243:\n        /* \"#utility.yul\":13818:13824   */\n      dup4\n        /* \"#utility.yul\":13811:13875   */\n      sstore\n        /* \"#utility.yul\":13733:13889   */\n      pop\n        /* \"#utility.yul\":13710:13889   */\n    tag_242:\n        /* \"#utility.yul\":13935:13936   */\n      0x01\n        /* \"#utility.yul\":13931:13932   */\n      0x02\n        /* \"#utility.yul\":13923:13929   */\n      dup9\n        /* \"#utility.yul\":13919:13933   */\n      mul\n        /* \"#utility.yul\":13915:13937   */\n      add\n        /* \"#utility.yul\":13909:13913   */\n      dup9\n        /* \"#utility.yul\":13902:13938   */\n      sstore\n        /* \"#utility.yul\":13337:13948   */\n      pop\n      pop\n      pop\n        /* \"#utility.yul\":13300:14187   */\n    tag_234:\n      pop\n        /* \"#utility.yul\":12890:14193   */\n      pop\n      pop\n      pop\n        /* \"#utility.yul\":12798:14193   */\n      pop\n      pop\n      jump\t// out\n\n    auxdata: 0xa2646970667358221220e7690665a3fa099d55894a00dcac82c13a871b4b651cce30961776e69073ee8d64736f6c63430008120033\n}\n",
				"bytecode": {
					"linkReferences": {},
					"object": "608060405234801561001057600080fd5b50610b61806100206000396000f3fe608060405234801561001057600080fd5b50600436106100415760003560e01c80635ab2ce2214610046578063c38831ae14610062578063d92631db14610093575b600080fd5b610060600480360381019061005b919061054a565b6100b1565b005b61007c600480360381019061007791906105f8565b610129565b60405161008a9291906106a4565b60405180910390f35b61009b61026d565b6040516100a8919061082b565b60405180910390f35b600060405180604001604052808481526020018381525090506000819080600181540180825580915050600190039060005260206000209060020201600090919091909150600082015181600001908161010b9190610a59565b5060208201518160010190816101219190610a59565b505050505050565b6000818154811061013957600080fd5b906000526020600020906002020160009150905080600001805461015c9061087c565b80601f01602080910402602001604051908101604052809291908181526020018280546101889061087c565b80156101d55780601f106101aa576101008083540402835291602001916101d5565b820191906000526020600020905b8154815290600101906020018083116101b857829003601f168201915b5050505050908060010180546101ea9061087c565b80601f01602080910402602001604051908101604052809291908181526020018280546102169061087c565b80156102635780601f1061023857610100808354040283529160200191610263565b820191906000526020600020905b81548152906001019060200180831161024657829003601f168201915b5050505050905082565b60606000805480602002602001604051908101604052809291908181526020016000905b828210156103e757838290600052602060002090600202016040518060400160405290816000820180546102c49061087c565b80601f01602080910402602001604051908101604052809291908181526020018280546102f09061087c565b801561033d5780601f106103125761010080835404028352916020019161033d565b820191906000526020600020905b81548152906001019060200180831161032057829003601f168201915b505050505081526020016001820180546103569061087c565b80601f01602080910402602001604051908101604052809291908181526020018280546103829061087c565b80156103cf5780601f106103a4576101008083540402835291602001916103cf565b820191906000526020600020905b8154815290600101906020018083116103b257829003601f168201915b50505050508152505081526020019060010190610291565b50505050905090565b6000604051905090565b600080fd5b600080fd5b600080fd5b600080fd5b6000601f19601f8301169050919050565b7f4e487b7100000000000000000000000000000000000000000000000000000000600052604160045260246000fd5b6104578261040e565b810181811067ffffffffffffffff821117156104765761047561041f565b5b80604052505050565b60006104896103f0565b9050610495828261044e565b919050565b600067ffffffffffffffff8211156104b5576104b461041f565b5b6104be8261040e565b9050602081019050919050565b82818337600083830152505050565b60006104ed6104e88461049a565b61047f565b90508281526020810184848401111561050957610508610409565b5b6105148482856104cb565b509392505050565b600082601f83011261053157610530610404565b5b81356105418482602086016104da565b91505092915050565b60008060408385031215610561576105606103fa565b5b600083013567ffffffffffffffff81111561057f5761057e6103ff565b5b61058b8582860161051c565b925050602083013567ffffffffffffffff8111156105ac576105ab6103ff565b5b6105b88582860161051c565b9150509250929050565b6000819050919050565b6105d5816105c2565b81146105e057600080fd5b50565b6000813590506105f2816105cc565b92915050565b60006020828403121561060e5761060d6103fa565b5b600061061c848285016105e3565b91505092915050565b600081519050919050565b600082825260208201905092915050565b60005b8381101561065f578082015181840152602081019050610644565b60008484015250505050565b600061067682610625565b6106808185610630565b9350610690818560208601610641565b6106998161040e565b840191505092915050565b600060408201905081810360008301526106be818561066b565b905081810360208301526106d2818461066b565b90509392505050565b600081519050919050565b600082825260208201905092915050565b6000819050602082019050919050565b600082825260208201905092915050565b600061072382610625565b61072d8185610707565b935061073d818560208601610641565b6107468161040e565b840191505092915050565b6000604083016000830151848203600086015261076e8282610718565b915050602083015184820360208601526107888282610718565b9150508091505092915050565b60006107a18383610751565b905092915050565b6000602082019050919050565b60006107c1826106db565b6107cb81856106e6565b9350836020820285016107dd856106f7565b8060005b8581101561081957848403895281516107fa8582610795565b9450610805836107a9565b925060208a019950506001810190506107e1565b50829750879550505050505092915050565b6000602082019050818103600083015261084581846107b6565b905092915050565b7f4e487b7100000000000000000000000000000000000000000000000000000000600052602260045260246000fd5b6000600282049050600182168061089457607f821691505b6020821081036108a7576108a661084d565b5b50919050565b60008190508160005260206000209050919050565b60006020601f8301049050919050565b600082821b905092915050565b60006008830261090f7fffffffffffffffffffffffffffffffffffffffffffffffffffffffffffffffff826108d2565b61091986836108d2565b95508019841693508086168417925050509392505050565b6000819050919050565b600061095661095161094c846105c2565b610931565b6105c2565b9050919050565b6000819050919050565b6109708361093b565b61098461097c8261095d565b8484546108df565b825550505050565b600090565b61099961098c565b6109a4818484610967565b505050565b5b818110156109c8576109bd600082610991565b6001810190506109aa565b5050565b601f821115610a0d576109de816108ad565b6109e7846108c2565b810160208510156109f6578190505b610a0a610a02856108c2565b8301826109a9565b50505b505050565b600082821c905092915050565b6000610a3060001984600802610a12565b1980831691505092915050565b6000610a498383610a1f565b9150826002028217905092915050565b610a6282610625565b67ffffffffffffffff811115610a7b57610a7a61041f565b5b610a85825461087c565b610a908282856109cc565b600060209050601f831160018114610ac35760008415610ab1578287015190505b610abb8582610a3d565b865550610b23565b601f198416610ad1866108ad565b60005b82811015610af957848901518255600182019150602085019450602081019050610ad4565b86831015610b165784890151610b12601f891682610a1f565b8355505b6001600288020188555050505b50505050505056fea2646970667358221220e7690665a3fa099d55894a00dcac82c13a871b4b651cce30961776e69073ee8d64736f6c63430008120033",
					"opcodes": "PUSH1 0x80 PUSH1 0x40 MSTORE CALLVALUE DUP1 ISZERO PUSH2 0x10 JUMPI PUSH1 0x0 DUP1 REVERT JUMPDEST POP PUSH2 0xB61 DUP1 PUSH2 0x20 PUSH1 0x0 CODECOPY PUSH1 0x0 RETURN INVALID PUSH1 0x80 PUSH1 0x40 MSTORE CALLVALUE DUP1 ISZERO PUSH2 0x10 JUMPI PUSH1 0x0 DUP1 REVERT JUMPDEST POP PUSH1 0x4 CALLDATASIZE LT PUSH2 0x41 JUMPI PUSH1 0x0 CALLDATALOAD PUSH1 0xE0 SHR DUP1 PUSH4 0x5AB2CE22 EQ PUSH2 0x46 JUMPI DUP1 PUSH4 0xC38831AE EQ PUSH2 0x62 JUMPI DUP1 PUSH4 0xD92631DB EQ PUSH2 0x93 JUMPI JUMPDEST PUSH1 0x0 DUP1 REVERT JUMPDEST PUSH2 0x60 PUSH1 0x4 DUP1 CALLDATASIZE SUB DUP2 ADD SWAP1 PUSH2 0x5B SWAP2 SWAP1 PUSH2 0x54A JUMP JUMPDEST PUSH2 0xB1 JUMP JUMPDEST STOP JUMPDEST PUSH2 0x7C PUSH1 0x4 DUP1 CALLDATASIZE SUB DUP2 ADD SWAP1 PUSH2 0x77 SWAP2 SWAP1 PUSH2 0x5F8 JUMP JUMPDEST PUSH2 0x129 JUMP JUMPDEST PUSH1 0x40 MLOAD PUSH2 0x8A SWAP3 SWAP2 SWAP1 PUSH2 0x6A4 JUMP JUMPDEST PUSH1 0x40 MLOAD DUP1 SWAP2 SUB SWAP1 RETURN JUMPDEST PUSH2 0x9B PUSH2 0x26D JUMP JUMPDEST PUSH1 0x40 MLOAD PUSH2 0xA8 SWAP2 SWAP1 PUSH2 0x82B JUMP JUMPDEST PUSH1 0x40 MLOAD DUP1 SWAP2 SUB SWAP1 RETURN JUMPDEST PUSH1 0x0 PUSH1 0x40 MLOAD DUP1 PUSH1 0x40 ADD PUSH1 0x40 MSTORE DUP1 DUP5 DUP2 MSTORE PUSH1 0x20 ADD DUP4 DUP2 MSTORE POP SWAP1 POP PUSH1 0x0 DUP2 SWAP1 DUP1 PUSH1 0x1 DUP2 SLOAD ADD DUP1 DUP3 SSTORE DUP1 SWAP2 POP POP PUSH1 0x1 SWAP1 SUB SWAP1 PUSH1 0x0 MSTORE PUSH1 0x20 PUSH1 0x0 KECCAK256 SWAP1 PUSH1 0x2 MUL ADD PUSH1 0x0 SWAP1 SWAP2 SWAP1 SWAP2 SWAP1 SWAP2 POP PUSH1 0x0 DUP3 ADD MLOAD DUP2 PUSH1 0x0 ADD SWAP1 DUP2 PUSH2 0x10B SWAP2 SWAP1 PUSH2 0xA59 JUMP JUMPDEST POP PUSH1 0x20 DUP3 ADD MLOAD DUP2 PUSH1 0x1 ADD SWAP1 DUP2 PUSH2 0x121 SWAP2 SWAP1 PUSH2 0xA59 JUMP JUMPDEST POP POP POP POP POP POP JUMP JUMPDEST PUSH1 0x0 DUP2 DUP2 SLOAD DUP2 LT PUSH2 0x139 JUMPI PUSH1 0x0 DUP1 REVERT JUMPDEST SWAP1 PUSH1 0x0 MSTORE PUSH1 0x20 PUSH1 0x0 KECCAK256 SWAP1 PUSH1 0x2 MUL ADD PUSH1 0x0 SWAP2 POP SWAP1 POP DUP1 PUSH1 0x0 ADD DUP1 SLOAD PUSH2 0x15C SWAP1 PUSH2 0x87C JUMP JUMPDEST DUP1 PUSH1 0x1F ADD PUSH1 0x20 DUP1 SWAP2 DIV MUL PUSH1 0x20 ADD PUSH1 0x40 MLOAD SWAP1 DUP2 ADD PUSH1 0x40 MSTORE DUP1 SWAP3 SWAP2 SWAP1 DUP2 DUP2 MSTORE PUSH1 0x20 ADD DUP3 DUP1 SLOAD PUSH2 0x188 SWAP1 PUSH2 0x87C JUMP JUMPDEST DUP1 ISZERO PUSH2 0x1D5 JUMPI DUP1 PUSH1 0x1F LT PUSH2 0x1AA JUMPI PUSH2 0x100 DUP1 DUP4 SLOAD DIV MUL DUP4 MSTORE SWAP2 PUSH1 0x20 ADD SWAP2 PUSH2 0x1D5 JUMP JUMPDEST DUP3 ADD SWAP2 SWAP1 PUSH1 0x0 MSTORE PUSH1 0x20 PUSH1 0x0 KECCAK256 SWAP1 JUMPDEST DUP2 SLOAD DUP2 MSTORE SWAP1 PUSH1 0x1 ADD SWAP1 PUSH1 0x20 ADD DUP1 DUP4 GT PUSH2 0x1B8 JUMPI DUP3 SWAP1 SUB PUSH1 0x1F AND DUP3 ADD SWAP2 JUMPDEST POP POP POP POP POP SWAP1 DUP1 PUSH1 0x1 ADD DUP1 SLOAD PUSH2 0x1EA SWAP1 PUSH2 0x87C JUMP JUMPDEST DUP1 PUSH1 0x1F ADD PUSH1 0x20 DUP1 SWAP2 DIV MUL PUSH1 0x20 ADD PUSH1 0x40 MLOAD SWAP1 DUP2 ADD PUSH1 0x40 MSTORE DUP1 SWAP3 SWAP2 SWAP1 DUP2 DUP2 MSTORE PUSH1 0x20 ADD DUP3 DUP1 SLOAD PUSH2 0x216 SWAP1 PUSH2 0x87C JUMP JUMPDEST DUP1 ISZERO PUSH2 0x263 JUMPI DUP1 PUSH1 0x1F LT PUSH2 0x238 JUMPI PUSH2 0x100 DUP1 DUP4 SLOAD DIV MUL DUP4 MSTORE SWAP2 PUSH1 0x20 ADD SWAP2 PUSH2 0x263 JUMP JUMPDEST DUP3 ADD SWAP2 SWAP1 PUSH1 0x0 MSTORE PUSH1 0x20 PUSH1 0x0 KECCAK256 SWAP1 JUMPDEST DUP2 SLOAD DUP2 MSTORE SWAP1 PUSH1 0x1 ADD SWAP1 PUSH1 0x20 ADD DUP1 DUP4 GT PUSH2 0x246 JUMPI DUP3 SWAP1 SUB PUSH1 0x1F AND DUP3 ADD SWAP2 JUMPDEST POP POP POP POP POP SWAP1 POP DUP3 JUMP JUMPDEST PUSH1 0x60 PUSH1 0x0 DUP1 SLOAD DUP1 PUSH1 0x20 MUL PUSH1 0x20 ADD PUSH1 0x40 MLOAD SWAP1 DUP2 ADD PUSH1 0x40 MSTORE DUP1 SWAP3 SWAP2 SWAP1 DUP2 DUP2 MSTORE PUSH1 0x20 ADD PUSH1 0x0 SWAP1 JUMPDEST DUP3 DUP3 LT ISZERO PUSH2 0x3E7 JUMPI DUP4 DUP3 SWAP1 PUSH1 0x0 MSTORE PUSH1 0x20 PUSH1 0x0 KECCAK256 SWAP1 PUSH1 0x2 MUL ADD PUSH1 0x40 MLOAD DUP1 PUSH1 0x40 ADD PUSH1 0x40 MSTORE SWAP1 DUP2 PUSH1 0x0 DUP3 ADD DUP1 SLOAD PUSH2 0x2C4 SWAP1 PUSH2 0x87C JUMP JUMPDEST DUP1 PUSH1 0x1F ADD PUSH1 0x20 DUP1 SWAP2 DIV MUL PUSH1 0x20 ADD PUSH1 0x40 MLOAD SWAP1 DUP2 ADD PUSH1 0x40 MSTORE DUP1 SWAP3 SWAP2 SWAP1 DUP2 DUP2 MSTORE PUSH1 0x20 ADD DUP3 DUP1 SLOAD PUSH2 0x2F0 SWAP1 PUSH2 0x87C JUMP JUMPDEST DUP1 ISZERO PUSH2 0x33D JUMPI DUP1 PUSH1 0x1F LT PUSH2 0x312 JUMPI PUSH2 0x100 DUP1 DUP4 SLOAD DIV MUL DUP4 MSTORE SWAP2 PUSH1 0x20 ADD SWAP2 PUSH2 0x33D JUMP JUMPDEST DUP3 ADD SWAP2 SWAP1 PUSH1 0x0 MSTORE PUSH1 0x20 PUSH1 0x0 KECCAK256 SWAP1 JUMPDEST DUP2 SLOAD DUP2 MSTORE SWAP1 PUSH1 0x1 ADD SWAP1 PUSH1 0x20 ADD DUP1 DUP4 GT PUSH2 0x320 JUMPI DUP3 SWAP1 SUB PUSH1 0x1F AND DUP3 ADD SWAP2 JUMPDEST POP POP POP POP POP DUP2 MSTORE PUSH1 0x20 ADD PUSH1 0x1 DUP3 ADD DUP1 SLOAD PUSH2 0x356 SWAP1 PUSH2 0x87C JUMP JUMPDEST DUP1 PUSH1 0x1F ADD PUSH1 0x20 DUP1 SWAP2 DIV MUL PUSH1 0x20 ADD PUSH1 0x40 MLOAD SWAP1 DUP2 ADD PUSH1 0x40 MSTORE DUP1 SWAP3 SWAP2 SWAP1 DUP2 DUP2 MSTORE PUSH1 0x20 ADD DUP3 DUP1 SLOAD PUSH2 0x382 SWAP1 PUSH2 0x87C JUMP JUMPDEST DUP1 ISZERO PUSH2 0x3CF JUMPI DUP1 PUSH1 0x1F LT PUSH2 0x3A4 JUMPI PUSH2 0x100 DUP1 DUP4 SLOAD DIV MUL DUP4 MSTORE SWAP2 PUSH1 0x20 ADD SWAP2 PUSH2 0x3CF JUMP JUMPDEST DUP3 ADD SWAP2 SWAP1 PUSH1 0x0 MSTORE PUSH1 0x20 PUSH1 0x0 KECCAK256 SWAP1 JUMPDEST DUP2 SLOAD DUP2 MSTORE SWAP1 PUSH1 0x1 ADD SWAP1 PUSH1 0x20 ADD DUP1 DUP4 GT PUSH2 0x3B2 JUMPI DUP3 SWAP1 SUB PUSH1 0x1F AND DUP3 ADD SWAP2 JUMPDEST POP POP POP POP POP DUP2 MSTORE POP POP DUP2 MSTORE PUSH1 0x20 ADD SWAP1 PUSH1 0x1 ADD SWAP1 PUSH2 0x291 JUMP JUMPDEST POP POP POP POP SWAP1 POP SWAP1 JUMP JUMPDEST PUSH1 0x0 PUSH1 0x40 MLOAD SWAP1 POP SWAP1 JUMP JUMPDEST PUSH1 0x0 DUP1 REVERT JUMPDEST PUSH1 0x0 DUP1 REVERT JUMPDEST PUSH1 0x0 DUP1 REVERT JUMPDEST PUSH1 0x0 DUP1 REVERT JUMPDEST PUSH1 0x0 PUSH1 0x1F NOT PUSH1 0x1F DUP4 ADD AND SWAP1 POP SWAP2 SWAP1 POP JUMP JUMPDEST PUSH32 0x4E487B7100000000000000000000000000000000000000000000000000000000 PUSH1 0x0 MSTORE PUSH1 0x41 PUSH1 0x4 MSTORE PUSH1 0x24 PUSH1 0x0 REVERT JUMPDEST PUSH2 0x457 DUP3 PUSH2 0x40E JUMP JUMPDEST DUP2 ADD DUP2 DUP2 LT PUSH8 0xFFFFFFFFFFFFFFFF DUP3 GT OR ISZERO PUSH2 0x476 JUMPI PUSH2 0x475 PUSH2 0x41F JUMP JUMPDEST JUMPDEST DUP1 PUSH1 0x40 MSTORE POP POP POP JUMP JUMPDEST PUSH1 0x0 PUSH2 0x489 PUSH2 0x3F0 JUMP JUMPDEST SWAP1 POP PUSH2 0x495 DUP3 DUP3 PUSH2 0x44E JUMP JUMPDEST SWAP2 SWAP1 POP JUMP JUMPDEST PUSH1 0x0 PUSH8 0xFFFFFFFFFFFFFFFF DUP3 GT ISZERO PUSH2 0x4B5 JUMPI PUSH2 0x4B4 PUSH2 0x41F JUMP JUMPDEST JUMPDEST PUSH2 0x4BE DUP3 PUSH2 0x40E JUMP JUMPDEST SWAP1 POP PUSH1 0x20 DUP2 ADD SWAP1 POP SWAP2 SWAP1 POP JUMP JUMPDEST DUP3 DUP2 DUP4 CALLDATACOPY PUSH1 0x0 DUP4 DUP4 ADD MSTORE POP POP POP JUMP JUMPDEST PUSH1 0x0 PUSH2 0x4ED PUSH2 0x4E8 DUP5 PUSH2 0x49A JUMP JUMPDEST PUSH2 0x47F JUMP JUMPDEST SWAP1 POP DUP3 DUP2 MSTORE PUSH1 0x20 DUP2 ADD DUP5 DUP5 DUP5 ADD GT ISZERO PUSH2 0x509 JUMPI PUSH2 0x508 PUSH2 0x409 JUMP JUMPDEST JUMPDEST PUSH2 0x514 DUP5 DUP3 DUP6 PUSH2 0x4CB JUMP JUMPDEST POP SWAP4 SWAP3 POP POP POP JUMP JUMPDEST PUSH1 0x0 DUP3 PUSH1 0x1F DUP4 ADD SLT PUSH2 0x531 JUMPI PUSH2 0x530 PUSH2 0x404 JUMP JUMPDEST JUMPDEST DUP2 CALLDATALOAD PUSH2 0x541 DUP5 DUP3 PUSH1 0x20 DUP7 ADD PUSH2 0x4DA JUMP JUMPDEST SWAP2 POP POP SWAP3 SWAP2 POP POP JUMP JUMPDEST PUSH1 0x0 DUP1 PUSH1 0x40 DUP4 DUP6 SUB SLT ISZERO PUSH2 0x561 JUMPI PUSH2 0x560 PUSH2 0x3FA JUMP JUMPDEST JUMPDEST PUSH1 0x0 DUP4 ADD CALLDATALOAD PUSH8 0xFFFFFFFFFFFFFFFF DUP2 GT ISZERO PUSH2 0x57F JUMPI PUSH2 0x57E PUSH2 0x3FF JUMP JUMPDEST JUMPDEST PUSH2 0x58B DUP6 DUP3 DUP7 ADD PUSH2 0x51C JUMP JUMPDEST SWAP3 POP POP PUSH1 0x20 DUP4 ADD CALLDATALOAD PUSH8 0xFFFFFFFFFFFFFFFF DUP2 GT ISZERO PUSH2 0x5AC JUMPI PUSH2 0x5AB PUSH2 0x3FF JUMP JUMPDEST JUMPDEST PUSH2 0x5B8 DUP6 DUP3 DUP7 ADD PUSH2 0x51C JUMP JUMPDEST SWAP2 POP POP SWAP3 POP SWAP3 SWAP1 POP JUMP JUMPDEST PUSH1 0x0 DUP2 SWAP1 POP SWAP2 SWAP1 POP JUMP JUMPDEST PUSH2 0x5D5 DUP2 PUSH2 0x5C2 JUMP JUMPDEST DUP2 EQ PUSH2 0x5E0 JUMPI PUSH1 0x0 DUP1 REVERT JUMPDEST POP JUMP JUMPDEST PUSH1 0x0 DUP2 CALLDATALOAD SWAP1 POP PUSH2 0x5F2 DUP2 PUSH2 0x5CC JUMP JUMPDEST SWAP3 SWAP2 POP POP JUMP JUMPDEST PUSH1 0x0 PUSH1 0x20 DUP3 DUP5 SUB SLT ISZERO PUSH2 0x60E JUMPI PUSH2 0x60D PUSH2 0x3FA JUMP JUMPDEST JUMPDEST PUSH1 0x0 PUSH2 0x61C DUP5 DUP3 DUP6 ADD PUSH2 0x5E3 JUMP JUMPDEST SWAP2 POP POP SWAP3 SWAP2 POP POP JUMP JUMPDEST PUSH1 0x0 DUP2 MLOAD SWAP1 POP SWAP2 SWAP1 POP JUMP JUMPDEST PUSH1 0x0 DUP3 DUP3 MSTORE PUSH1 0x20 DUP3 ADD SWAP1 POP SWAP3 SWAP2 POP POP JUMP JUMPDEST PUSH1 0x0 JUMPDEST DUP4 DUP2 LT ISZERO PUSH2 0x65F JUMPI DUP1 DUP3 ADD MLOAD DUP2 DUP5 ADD MSTORE PUSH1 0x20 DUP2 ADD SWAP1 POP PUSH2 0x644 JUMP JUMPDEST PUSH1 0x0 DUP5 DUP5 ADD MSTORE POP POP POP POP JUMP JUMPDEST PUSH1 0x0 PUSH2 0x676 DUP3 PUSH2 0x625 JUMP JUMPDEST PUSH2 0x680 DUP2 DUP6 PUSH2 0x630 JUMP JUMPDEST SWAP4 POP PUSH2 0x690 DUP2 DUP6 PUSH1 0x20 DUP7 ADD PUSH2 0x641 JUMP JUMPDEST PUSH2 0x699 DUP2 PUSH2 0x40E JUMP JUMPDEST DUP5 ADD SWAP2 POP POP SWAP3 SWAP2 POP POP JUMP JUMPDEST PUSH1 0x0 PUSH1 0x40 DUP3 ADD SWAP1 POP DUP2 DUP2 SUB PUSH1 0x0 DUP4 ADD MSTORE PUSH2 0x6BE DUP2 DUP6 PUSH2 0x66B JUMP JUMPDEST SWAP1 POP DUP2 DUP2 SUB PUSH1 0x20 DUP4 ADD MSTORE PUSH2 0x6D2 DUP2 DUP5 PUSH2 0x66B JUMP JUMPDEST SWAP1 POP SWAP4 SWAP3 POP POP POP JUMP JUMPDEST PUSH1 0x0 DUP2 MLOAD SWAP1 POP SWAP2 SWAP1 POP JUMP JUMPDEST PUSH1 0x0 DUP3 DUP3 MSTORE PUSH1 0x20 DUP3 ADD SWAP1 POP SWAP3 SWAP2 POP POP JUMP JUMPDEST PUSH1 0x0 DUP2 SWAP1 POP PUSH1 0x20 DUP3 ADD SWAP1 POP SWAP2 SWAP1 POP JUMP JUMPDEST PUSH1 0x0 DUP3 DUP3 MSTORE PUSH1 0x20 DUP3 ADD SWAP1 POP SWAP3 SWAP2 POP POP JUMP JUMPDEST PUSH1 0x0 PUSH2 0x723 DUP3 PUSH2 0x625 JUMP JUMPDEST PUSH2 0x72D DUP2 DUP6 PUSH2 0x707 JUMP JUMPDEST SWAP4 POP PUSH2 0x73D DUP2 DUP6 PUSH1 0x20 DUP7 ADD PUSH2 0x641 JUMP JUMPDEST PUSH2 0x746 DUP2 PUSH2 0x40E JUMP JUMPDEST DUP5 ADD SWAP2 POP POP SWAP3 SWAP2 POP POP JUMP JUMPDEST PUSH1 0x0 PUSH1 0x40 DUP4 ADD PUSH1 0x0 DUP4 ADD MLOAD DUP5 DUP3 SUB PUSH1 0x0 DUP7 ADD MSTORE PUSH2 0x76E DUP3 DUP3 PUSH2 0x718 JUMP JUMPDEST SWAP2 POP POP PUSH1 0x20 DUP4 ADD MLOAD DUP5 DUP3 SUB PUSH1 0x20 DUP7 ADD MSTORE PUSH2 0x788 DUP3 DUP3 PUSH2 0x718 JUMP JUMPDEST SWAP2 POP POP DUP1 SWAP2 POP POP SWAP3 SWAP2 POP POP JUMP JUMPDEST PUSH1 0x0 PUSH2 0x7A1 DUP4 DUP4 PUSH2 0x751 JUMP JUMPDEST SWAP1 POP SWAP3 SWAP2 POP POP JUMP JUMPDEST PUSH1 0x0 PUSH1 0x20 DUP3 ADD SWAP1 POP SWAP2 SWAP1 POP JUMP JUMPDEST PUSH1 0x0 PUSH2 0x7C1 DUP3 PUSH2 0x6DB JUMP JUMPDEST PUSH2 0x7CB DUP2 DUP6 PUSH2 0x6E6 JUMP JUMPDEST SWAP4 POP DUP4 PUSH1 0x20 DUP3 MUL DUP6 ADD PUSH2 0x7DD DUP6 PUSH2 0x6F7 JUMP JUMPDEST DUP1 PUSH1 0x0 JUMPDEST DUP6 DUP2 LT ISZERO PUSH2 0x819 JUMPI DUP5 DUP5 SUB DUP10 MSTORE DUP2 MLOAD PUSH2 0x7FA DUP6 DUP3 PUSH2 0x795 JUMP JUMPDEST SWAP5 POP PUSH2 0x805 DUP4 PUSH2 0x7A9 JUMP JUMPDEST SWAP3 POP PUSH1 0x20 DUP11 ADD SWAP10 POP POP PUSH1 0x1 DUP2 ADD SWAP1 POP PUSH2 0x7E1 JUMP JUMPDEST POP DUP3 SWAP8 POP DUP8 SWAP6 POP POP POP POP POP POP SWAP3 SWAP2 POP POP JUMP JUMPDEST PUSH1 0x0 PUSH1 0x20 DUP3 ADD SWAP1 POP DUP2 DUP2 SUB PUSH1 0x0 DUP4 ADD MSTORE PUSH2 0x845 DUP2 DUP5 PUSH2 0x7B6 JUMP JUMPDEST SWAP1 POP SWAP3 SWAP2 POP POP JUMP JUMPDEST PUSH32 0x4E487B7100000000000000000000000000000000000000000000000000000000 PUSH1 0x0 MSTORE PUSH1 0x22 PUSH1 0x4 MSTORE PUSH1 0x24 PUSH1 0x0 REVERT JUMPDEST PUSH1 0x0 PUSH1 0x2 DUP3 DIV SWAP1 POP PUSH1 0x1 DUP3 AND DUP1 PUSH2 0x894 JUMPI PUSH1 0x7F DUP3 AND SWAP2 POP JUMPDEST PUSH1 0x20 DUP3 LT DUP2 SUB PUSH2 0x8A7 JUMPI PUSH2 0x8A6 PUSH2 0x84D JUMP JUMPDEST JUMPDEST POP SWAP2 SWAP1 POP JUMP JUMPDEST PUSH1 0x0 DUP2 SWAP1 POP DUP2 PUSH1 0x0 MSTORE PUSH1 0x20 PUSH1 0x0 KECCAK256 SWAP1 POP SWAP2 SWAP1 POP JUMP JUMPDEST PUSH1 0x0 PUSH1 0x20 PUSH1 0x1F DUP4 ADD DIV SWAP1 POP SWAP2 SWAP1 POP JUMP JUMPDEST PUSH1 0x0 DUP3 DUP3 SHL SWAP1 POP SWAP3 SWAP2 POP POP JUMP JUMPDEST PUSH1 0x0 PUSH1 0x8 DUP4 MUL PUSH2 0x90F PUSH32 0xFFFFFFFFFFFFFFFFFFFFFFFFFFFFFFFFFFFFFFFFFFFFFFFFFFFFFFFFFFFFFFFF DUP3 PUSH2 0x8D2 JUMP JUMPDEST PUSH2 0x919 DUP7 DUP4 PUSH2 0x8D2 JUMP JUMPDEST SWAP6 POP DUP1 NOT DUP5 AND SWAP4 POP DUP1 DUP7 AND DUP5 OR SWAP3 POP POP POP SWAP4 SWAP3 POP POP POP JUMP JUMPDEST PUSH1 0x0 DUP2 SWAP1 POP SWAP2 SWAP1 POP JUMP JUMPDEST PUSH1 0x0 PUSH2 0x956 PUSH2 0x951 PUSH2 0x94C DUP5 PUSH2 0x5C2 JUMP JUMPDEST PUSH2 0x931 JUMP JUMPDEST PUSH2 0x5C2 JUMP JUMPDEST SWAP1 POP SWAP2 SWAP1 POP JUMP JUMPDEST PUSH1 0x0 DUP2 SWAP1 POP SWAP2 SWAP1 POP JUMP JUMPDEST PUSH2 0x970 DUP4 PUSH2 0x93B JUMP JUMPDEST PUSH2 0x984 PUSH2 0x97C DUP3 PUSH2 0x95D JUMP JUMPDEST DUP5 DUP5 SLOAD PUSH2 0x8DF JUMP JUMPDEST DUP3 SSTORE POP POP POP POP JUMP JUMPDEST PUSH1 0x0 SWAP1 JUMP JUMPDEST PUSH2 0x999 PUSH2 0x98C JUMP JUMPDEST PUSH2 0x9A4 DUP2 DUP5 DUP5 PUSH2 0x967 JUMP JUMPDEST POP POP POP JUMP JUMPDEST JUMPDEST DUP2 DUP2 LT ISZERO PUSH2 0x9C8 JUMPI PUSH2 0x9BD PUSH1 0x0 DUP3 PUSH2 0x991 JUMP JUMPDEST PUSH1 0x1 DUP2 ADD SWAP1 POP PUSH2 0x9AA JUMP JUMPDEST POP POP JUMP JUMPDEST PUSH1 0x1F DUP3 GT ISZERO PUSH2 0xA0D JUMPI PUSH2 0x9DE DUP2 PUSH2 0x8AD JUMP JUMPDEST PUSH2 0x9E7 DUP5 PUSH2 0x8C2 JUMP JUMPDEST DUP2 ADD PUSH1 0x20 DUP6 LT ISZERO PUSH2 0x9F6 JUMPI DUP2 SWAP1 POP JUMPDEST PUSH2 0xA0A PUSH2 0xA02 DUP6 PUSH2 0x8C2 JUMP JUMPDEST DUP4 ADD DUP3 PUSH2 0x9A9 JUMP JUMPDEST POP POP JUMPDEST POP POP POP JUMP JUMPDEST PUSH1 0x0 DUP3 DUP3 SHR SWAP1 POP SWAP3 SWAP2 POP POP JUMP JUMPDEST PUSH1 0x0 PUSH2 0xA30 PUSH1 0x0 NOT DUP5 PUSH1 0x8 MUL PUSH2 0xA12 JUMP JUMPDEST NOT DUP1 DUP4 AND SWAP2 POP POP SWAP3 SWAP2 POP POP JUMP JUMPDEST PUSH1 0x0 PUSH2 0xA49 DUP4 DUP4 PUSH2 0xA1F JUMP JUMPDEST SWAP2 POP DUP3 PUSH1 0x2 MUL DUP3 OR SWAP1 POP SWAP3 SWAP2 POP POP JUMP JUMPDEST PUSH2 0xA62 DUP3 PUSH2 0x625 JUMP JUMPDEST PUSH8 0xFFFFFFFFFFFFFFFF DUP2 GT ISZERO PUSH2 0xA7B JUMPI PUSH2 0xA7A PUSH2 0x41F JUMP JUMPDEST JUMPDEST PUSH2 0xA85 DUP3 SLOAD PUSH2 0x87C JUMP JUMPDEST PUSH2 0xA90 DUP3 DUP3 DUP6 PUSH2 0x9CC JUMP JUMPDEST PUSH1 0x0 PUSH1 0x20 SWAP1 POP PUSH1 0x1F DUP4 GT PUSH1 0x1 DUP2 EQ PUSH2 0xAC3 JUMPI PUSH1 0x0 DUP5 ISZERO PUSH2 0xAB1 JUMPI DUP3 DUP8 ADD MLOAD SWAP1 POP JUMPDEST PUSH2 0xABB DUP6 DUP3 PUSH2 0xA3D JUMP JUMPDEST DUP7 SSTORE POP PUSH2 0xB23 JUMP JUMPDEST PUSH1 0x1F NOT DUP5 AND PUSH2 0xAD1 DUP7 PUSH2 0x8AD JUMP JUMPDEST PUSH1 0x0 JUMPDEST DUP3 DUP2 LT ISZERO PUSH2 0xAF9 JUMPI DUP5 DUP10 ADD MLOAD DUP3 SSTORE PUSH1 0x1 DUP3 ADD SWAP2 POP PUSH1 0x20 DUP6 ADD SWAP5 POP PUSH1 0x20 DUP2 ADD SWAP1 POP PUSH2 0xAD4 JUMP JUMPDEST DUP7 DUP4 LT ISZERO PUSH2 0xB16 JUMPI DUP5 DUP10 ADD MLOAD PUSH2 0xB12 PUSH1 0x1F DUP10 AND DUP3 PUSH2 0xA1F JUMP JUMPDEST DUP4 SSTORE POP JUMPDEST PUSH1 0x1 PUSH1 0x2 DUP9 MUL ADD DUP9 SSTORE POP POP POP JUMPDEST POP POP POP POP POP POP JUMP INVALID LOG2 PUSH5 0x6970667358 0x22 SLT KECCAK256 0xE7 PUSH10 0x665A3FA099D55894A00 0xDC 0xAC DUP3 0xC1 GASPRICE DUP8 SHL 0x4B PUSH6 0x1CCE30961776 0xE6 SWAP1 PUSH20 0xEE8D64736F6C6343000812003300000000000000 "
				},
				"gasEstimates": {
					"creation": {
						"codeDepositCost": "582600",
						"executionCost": "619",
						"totalCost": "583219"
					},
					"external": {
						"createWorkplace(string,string)": "infinite",
						"getAllWorkplaces()": "infinite",
						"workplaces(uint256)": "infinite"
					}
				},
				"methodIdentifiers": {
					"createWorkplace(string,string)": "5ab2ce22",
					"getAllWorkplaces()": "d92631db",
					"workplaces(uint256)": "c38831ae"
				}
			},
			"storageLayout": {
				"storage": [
					{
						"astId": 10,
						"contract": "Admin.sol:Admin",
						"label": "workplaces",
						"offset": 0,
						"slot": "0",
						"type": "t_array(t_struct(Workplace)6_storage)dyn_storage"
					}
				],
				"types": {
					"t_array(t_struct(Workplace)6_storage)dyn_storage": {
						"base": "t_struct(Workplace)6_storage",
						"encoding": "dynamic_array",
						"label": "struct Admin.Workplace[]",
						"numberOfBytes": "32"
					},
					"t_string_storage": {
						"encoding": "bytes",
						"label": "string",
						"numberOfBytes": "32"
					},
					"t_struct(Workplace)6_storage": {
						"encoding": "inplace",
						"label": "struct Admin.Workplace",
						"members": [
							{
								"astId": 3,
								"contract": "Admin.sol:Admin",
								"label": "name",
								"offset": 0,
								"slot": "0",
								"type": "t_string_storage"
							},
							{
								"astId": 5,
								"contract": "Admin.sol:Admin",
								"label": "workAddress",
								"offset": 0,
								"slot": "1",
								"type": "t_string_storage"
							}
						],
						"numberOfBytes": "64"
					}
				}
			},
			"userdoc": {
				"kind": "user",
				"methods": {},
				"version": 1
			}
		}
	}
}