{
	"Admin.sol": {
		"Admin": {
			"abi": [
				{
					"inputs": [
						{
							"internalType": "string",
							"name": "_name",
							"type": "string"
						}
					],
					"name": "addDisease",
					"outputs": [],
					"stateMutability": "nonpayable",
					"type": "function"
				},
				{
					"inputs": [
						{
							"internalType": "string",
							"name": "_name",
							"type": "string"
						},
						{
							"internalType": "string",
							"name": "_expiryDate",
							"type": "string"
						},
						{
							"internalType": "string",
							"name": "_dose",
							"type": "string"
						},
						{
							"internalType": "string",
							"name": "_price",
							"type": "string"
						}
					],
					"name": "addMedicine",
					"outputs": [],
					"stateMutability": "nonpayable",
					"type": "function"
				},
				{
					"inputs": [
						{
							"internalType": "string",
							"name": "_name",
							"type": "string"
						},
						{
							"internalType": "string",
							"name": "_workAddress",
							"type": "string"
						}
					],
					"name": "createWorkplace",
					"outputs": [],
					"stateMutability": "nonpayable",
					"type": "function"
				},
				{
					"inputs": [
						{
							"internalType": "uint256",
							"name": "",
							"type": "uint256"
						}
					],
					"name": "diseases",
					"outputs": [
						{
							"internalType": "uint256",
							"name": "id",
							"type": "uint256"
						},
						{
							"internalType": "string",
							"name": "name",
							"type": "string"
						}
					],
					"stateMutability": "view",
					"type": "function"
				},
				{
					"inputs": [],
					"name": "getAllDiseases",
					"outputs": [
						{
							"components": [
								{
									"internalType": "uint256",
									"name": "id",
									"type": "uint256"
								},
								{
									"internalType": "string",
									"name": "name",
									"type": "string"
								}
							],
							"internalType": "struct Admin.Disease[]",
							"name": "",
							"type": "tuple[]"
						}
					],
					"stateMutability": "view",
					"type": "function"
				},
				{
					"inputs": [],
					"name": "getAllMedicines",
					"outputs": [
						{
							"components": [
								{
									"internalType": "uint256",
									"name": "id",
									"type": "uint256"
								},
								{
									"internalType": "string",
									"name": "name",
									"type": "string"
								},
								{
									"internalType": "string",
									"name": "expiryDate",
									"type": "string"
								},
								{
									"internalType": "string",
									"name": "price",
									"type": "string"
								},
								{
									"internalType": "string",
									"name": "dose",
									"type": "string"
								}
							],
							"internalType": "struct Admin.Medicine[]",
							"name": "",
							"type": "tuple[]"
						}
					],
					"stateMutability": "view",
					"type": "function"
				},
				{
					"inputs": [],
					"name": "getAllWorkplaces",
					"outputs": [
						{
							"components": [
								{
									"internalType": "string",
									"name": "name",
									"type": "string"
								},
								{
									"internalType": "string",
									"name": "workAddress",
									"type": "string"
								}
							],
							"internalType": "struct Admin.Workplace[]",
							"name": "",
							"type": "tuple[]"
						}
					],
					"stateMutability": "view",
					"type": "function"
				},
				{
					"inputs": [
						{
							"internalType": "uint256",
							"name": "id",
							"type": "uint256"
						}
					],
					"name": "getDiseaseById",
					"outputs": [
						{
							"internalType": "string",
							"name": "",
							"type": "string"
						}
					],
					"stateMutability": "view",
					"type": "function"
				},
				{
					"inputs": [
						{
							"internalType": "uint256",
							"name": "",
							"type": "uint256"
						}
					],
					"name": "medicines",
					"outputs": [
						{
							"internalType": "uint256",
							"name": "id",
							"type": "uint256"
						},
						{
							"internalType": "string",
							"name": "name",
							"type": "string"
						},
						{
							"internalType": "string",
							"name": "expiryDate",
							"type": "string"
						},
						{
							"internalType": "string",
							"name": "price",
							"type": "string"
						},
						{
							"internalType": "string",
							"name": "dose",
							"type": "string"
						}
					],
					"stateMutability": "view",
					"type": "function"
				},
				{
					"inputs": [
						{
							"internalType": "uint256",
							"name": "",
							"type": "uint256"
						}
					],
					"name": "workplaces",
					"outputs": [
						{
							"internalType": "string",
							"name": "name",
							"type": "string"
						},
						{
							"internalType": "string",
							"name": "workAddress",
							"type": "string"
						}
					],
					"stateMutability": "view",
					"type": "function"
				}
			],
			"devdoc": {
				"kind": "dev",
				"methods": {},
				"version": 1
			},
			"evm": {
				"assembly": "    /* \"Admin.sol\":25:1813  contract Admin {... */\n  mstore(0x40, 0x80)\n  callvalue\n  dup1\n  iszero\n  tag_1\n  jumpi\n  0x00\n  dup1\n  revert\ntag_1:\n  pop\n  dataSize(sub_0)\n  dup1\n  dataOffset(sub_0)\n  0x00\n  codecopy\n  0x00\n  return\nstop\n\nsub_0: assembly {\n        /* \"Admin.sol\":25:1813  contract Admin {... */\n      mstore(0x40, 0x80)\n      callvalue\n      dup1\n      iszero\n      tag_1\n      jumpi\n      0x00\n      dup1\n      revert\n    tag_1:\n      pop\n      jumpi(tag_2, lt(calldatasize, 0x04))\n      shr(0xe0, calldataload(0x00))\n      dup1\n      0x9df10db0\n      gt\n      tag_13\n      jumpi\n      dup1\n      0x9df10db0\n      eq\n      tag_8\n      jumpi\n      dup1\n      0xc38831ae\n      eq\n      tag_9\n      jumpi\n      dup1\n      0xc85e766d\n      eq\n      tag_10\n      jumpi\n      dup1\n      0xd47c029c\n      eq\n      tag_11\n      jumpi\n      dup1\n      0xd92631db\n      eq\n      tag_12\n      jumpi\n      jump(tag_2)\n    tag_13:\n      dup1\n      0x020d07a4\n      eq\n      tag_3\n      jumpi\n      dup1\n      0x46459b22\n      eq\n      tag_4\n      jumpi\n      dup1\n      0x5ab2ce22\n      eq\n      tag_5\n      jumpi\n      dup1\n      0x68f2b1d2\n      eq\n      tag_6\n      jumpi\n      dup1\n      0x747dcbde\n      eq\n      tag_7\n      jumpi\n    tag_2:\n      0x00\n      dup1\n      revert\n        /* \"Admin.sol\":820:1221  function addMedicine(string memory _name, string memory _expiryDate, string memory _dose, string memory _price) public virtual {... */\n    tag_3:\n      tag_14\n      0x04\n      dup1\n      calldatasize\n      sub\n      dup2\n      add\n      swap1\n      tag_15\n      swap2\n      swap1\n      tag_16\n      jump\t// in\n    tag_15:\n      tag_17\n      jump\t// in\n    tag_14:\n      stop\n        /* \"Admin.sol\":455:480  Disease[] public diseases */\n    tag_4:\n      tag_18\n      0x04\n      dup1\n      calldatasize\n      sub\n      dup2\n      add\n      swap1\n      tag_19\n      swap2\n      swap1\n      tag_20\n      jump\t// in\n    tag_19:\n      tag_21\n      jump\t// in\n    tag_18:\n      mload(0x40)\n      tag_22\n      swap3\n      swap2\n      swap1\n      tag_23\n      jump\t// in\n    tag_22:\n      mload(0x40)\n      dup1\n      swap2\n      sub\n      swap1\n      return\n        /* \"Admin.sol\":489:697  function createWorkplace(string memory _name, string memory _workAddress) public virtual  {... */\n    tag_5:\n      tag_24\n      0x04\n      dup1\n      calldatasize\n      sub\n      dup2\n      add\n      swap1\n      tag_25\n      swap2\n      swap1\n      tag_26\n      jump\t// in\n    tag_25:\n      tag_27\n      jump\t// in\n    tag_24:\n      stop\n        /* \"Admin.sol\":1227:1334  function getAllMedicines() public view virtual returns(Medicine[] memory) {... */\n    tag_6:\n      tag_28\n      tag_29\n      jump\t// in\n    tag_28:\n      mload(0x40)\n      tag_30\n      swap2\n      swap1\n      tag_31\n      jump\t// in\n    tag_30:\n      mload(0x40)\n      dup1\n      swap2\n      sub\n      swap1\n      return\n        /* \"Admin.sol\":1690:1810  function getDiseaseById(uint256 id) public view virtual returns(string memory) {... */\n    tag_7:\n      tag_32\n      0x04\n      dup1\n      calldatasize\n      sub\n      dup2\n      add\n      swap1\n      tag_33\n      swap2\n      swap1\n      tag_20\n      jump\t// in\n    tag_33:\n      tag_34\n      jump\t// in\n    tag_32:\n      mload(0x40)\n      tag_35\n      swap2\n      swap1\n      tag_36\n      jump\t// in\n    tag_35:\n      mload(0x40)\n      dup1\n      swap2\n      sub\n      swap1\n      return\n        /* \"Admin.sol\":1580:1684  function getAllDiseases() public view virtual returns(Disease[] memory) {... */\n    tag_8:\n      tag_37\n      tag_38\n      jump\t// in\n    tag_37:\n      mload(0x40)\n      tag_39\n      swap2\n      swap1\n      tag_40\n      jump\t// in\n    tag_39:\n      mload(0x40)\n      dup1\n      swap2\n      sub\n      swap1\n      return\n        /* \"Admin.sol\":387:416  Workplace[] public workplaces */\n    tag_9:\n      tag_41\n      0x04\n      dup1\n      calldatasize\n      sub\n      dup2\n      add\n      swap1\n      tag_42\n      swap2\n      swap1\n      tag_20\n      jump\t// in\n    tag_42:\n      tag_43\n      jump\t// in\n    tag_41:\n      mload(0x40)\n      tag_44\n      swap3\n      swap2\n      swap1\n      tag_45\n      jump\t// in\n    tag_44:\n      mload(0x40)\n      dup1\n      swap2\n      sub\n      swap1\n      return\n        /* \"Admin.sol\":422:449  Medicine[] public medicines */\n    tag_10:\n      tag_46\n      0x04\n      dup1\n      calldatasize\n      sub\n      dup2\n      add\n      swap1\n      tag_47\n      swap2\n      swap1\n      tag_20\n      jump\t// in\n    tag_47:\n      tag_48\n      jump\t// in\n    tag_46:\n      mload(0x40)\n      tag_49\n      swap6\n      swap5\n      swap4\n      swap3\n      swap2\n      swap1\n      tag_50\n      jump\t// in\n    tag_49:\n      mload(0x40)\n      dup1\n      swap2\n      sub\n      swap1\n      return\n        /* \"Admin.sol\":1340:1574  function addDisease(string memory _name) public virtual {... */\n    tag_11:\n      tag_51\n      0x04\n      dup1\n      calldatasize\n      sub\n      dup2\n      add\n      swap1\n      tag_52\n      swap2\n      swap1\n      tag_53\n      jump\t// in\n    tag_52:\n      tag_54\n      jump\t// in\n    tag_51:\n      stop\n        /* \"Admin.sol\":703:814  function getAllWorkplaces() public view virtual returns (Workplace[] memory) {... */\n    tag_12:\n      tag_55\n      tag_56\n      jump\t// in\n    tag_55:\n      mload(0x40)\n      tag_57\n      swap2\n      swap1\n      tag_58\n      jump\t// in\n    tag_57:\n      mload(0x40)\n      dup1\n      swap2\n      sub\n      swap1\n      return\n        /* \"Admin.sol\":820:1221  function addMedicine(string memory _name, string memory _expiryDate, string memory _dose, string memory _price) public virtual {... */\n    tag_17:\n        /* \"Admin.sol\":957:984  Medicine memory newMedicine */\n      0x00\n        /* \"Admin.sol\":987:1152  Medicine({... */\n      mload(0x40)\n      dup1\n      0xa0\n      add\n      0x40\n      mstore\n      dup1\n        /* \"Admin.sol\":1014:1027  medicineCount */\n      sload(0x00)\n        /* \"Admin.sol\":987:1152  Medicine({... */\n      dup2\n      mstore\n      0x20\n      add\n        /* \"Admin.sol\":1047:1052  _name */\n      dup7\n        /* \"Admin.sol\":987:1152  Medicine({... */\n      dup2\n      mstore\n      0x20\n      add\n        /* \"Admin.sol\":1078:1089  _expiryDate */\n      dup6\n        /* \"Admin.sol\":987:1152  Medicine({... */\n      dup2\n      mstore\n      0x20\n      add\n        /* \"Admin.sol\":1110:1116  _price */\n      dup4\n        /* \"Admin.sol\":987:1152  Medicine({... */\n      dup2\n      mstore\n      0x20\n      add\n        /* \"Admin.sol\":1136:1141  _dose */\n      dup5\n        /* \"Admin.sol\":987:1152  Medicine({... */\n      dup2\n      mstore\n      pop\n        /* \"Admin.sol\":957:1152  Medicine memory newMedicine = Medicine({... */\n      swap1\n      pop\n        /* \"Admin.sol\":1162:1175  medicineCount */\n      0x00\n      dup1\n        /* \"Admin.sol\":1162:1177  medicineCount++ */\n      dup2\n      sload\n      dup1\n      swap3\n      swap2\n      swap1\n      tag_60\n      swap1\n      tag_61\n      jump\t// in\n    tag_60:\n      swap2\n      swap1\n      pop\n      sstore\n      pop\n        /* \"Admin.sol\":1187:1196  medicines */\n      0x03\n        /* \"Admin.sol\":1202:1213  newMedicine */\n      dup2\n        /* \"Admin.sol\":1187:1214  medicines.push(newMedicine) */\n      swap1\n      dup1\n      0x01\n      dup2\n      sload\n      add\n      dup1\n      dup3\n      sstore\n      dup1\n      swap2\n      pop\n      pop\n      0x01\n      swap1\n      sub\n      swap1\n      0x00\n      mstore\n      keccak256(0x00, 0x20)\n      swap1\n      0x05\n      mul\n      add\n      0x00\n      swap1\n      swap2\n      swap1\n      swap2\n      swap1\n      swap2\n      pop\n      0x00\n      dup3\n      add\n      mload\n      dup2\n      0x00\n      add\n      sstore\n      0x20\n      dup3\n      add\n      mload\n      dup2\n      0x01\n      add\n      swap1\n      dup2\n      tag_63\n      swap2\n      swap1\n      tag_64\n      jump\t// in\n    tag_63:\n      pop\n      0x40\n      dup3\n      add\n      mload\n      dup2\n      0x02\n      add\n      swap1\n      dup2\n      tag_65\n      swap2\n      swap1\n      tag_64\n      jump\t// in\n    tag_65:\n      pop\n      0x60\n      dup3\n      add\n      mload\n      dup2\n      0x03\n      add\n      swap1\n      dup2\n      tag_66\n      swap2\n      swap1\n      tag_64\n      jump\t// in\n    tag_66:\n      pop\n      0x80\n      dup3\n      add\n      mload\n      dup2\n      0x04\n      add\n      swap1\n      dup2\n      tag_67\n      swap2\n      swap1\n      tag_64\n      jump\t// in\n    tag_67:\n      pop\n      pop\n      pop\n        /* \"Admin.sol\":947:1221  {... */\n      pop\n        /* \"Admin.sol\":820:1221  function addMedicine(string memory _name, string memory _expiryDate, string memory _dose, string memory _price) public virtual {... */\n      pop\n      pop\n      pop\n      pop\n      jump\t// out\n        /* \"Admin.sol\":455:480  Disease[] public diseases */\n    tag_21:\n      0x04\n      dup2\n      dup2\n      sload\n      dup2\n      lt\n      tag_68\n      jumpi\n      0x00\n      dup1\n      revert\n    tag_68:\n      swap1\n      0x00\n      mstore\n      keccak256(0x00, 0x20)\n      swap1\n      0x02\n      mul\n      add\n      0x00\n      swap2\n      pop\n      swap1\n      pop\n      dup1\n      0x00\n      add\n      sload\n      swap1\n      dup1\n      0x01\n      add\n      dup1\n      sload\n      tag_70\n      swap1\n      tag_71\n      jump\t// in\n    tag_70:\n      dup1\n      0x1f\n      add\n      0x20\n      dup1\n      swap2\n      div\n      mul\n      0x20\n      add\n      mload(0x40)\n      swap1\n      dup2\n      add\n      0x40\n      mstore\n      dup1\n      swap3\n      swap2\n      swap1\n      dup2\n      dup2\n      mstore\n      0x20\n      add\n      dup3\n      dup1\n      sload\n      tag_72\n      swap1\n      tag_71\n      jump\t// in\n    tag_72:\n      dup1\n      iszero\n      tag_73\n      jumpi\n      dup1\n      0x1f\n      lt\n      tag_74\n      jumpi\n      0x0100\n      dup1\n      dup4\n      sload\n      div\n      mul\n      dup4\n      mstore\n      swap2\n      0x20\n      add\n      swap2\n      jump(tag_73)\n    tag_74:\n      dup3\n      add\n      swap2\n      swap1\n      0x00\n      mstore\n      keccak256(0x00, 0x20)\n      swap1\n    tag_75:\n      dup2\n      sload\n      dup2\n      mstore\n      swap1\n      0x01\n      add\n      swap1\n      0x20\n      add\n      dup1\n      dup4\n      gt\n      tag_75\n      jumpi\n      dup3\n      swap1\n      sub\n      0x1f\n      and\n      dup3\n      add\n      swap2\n    tag_73:\n      pop\n      pop\n      pop\n      pop\n      pop\n      swap1\n      pop\n      dup3\n      jump\t// out\n        /* \"Admin.sol\":489:697  function createWorkplace(string memory _name, string memory _workAddress) public virtual  {... */\n    tag_27:\n        /* \"Admin.sol\":589:618  Workplace memory newWorkplace */\n      0x00\n        /* \"Admin.sol\":621:651  Workplace(_name, _workAddress) */\n      mload(0x40)\n      dup1\n      0x40\n      add\n      0x40\n      mstore\n      dup1\n        /* \"Admin.sol\":631:636  _name */\n      dup5\n        /* \"Admin.sol\":621:651  Workplace(_name, _workAddress) */\n      dup2\n      mstore\n      0x20\n      add\n        /* \"Admin.sol\":638:650  _workAddress */\n      dup4\n        /* \"Admin.sol\":621:651  Workplace(_name, _workAddress) */\n      dup2\n      mstore\n      pop\n        /* \"Admin.sol\":589:651  Workplace memory newWorkplace = Workplace(_name, _workAddress) */\n      swap1\n      pop\n        /* \"Admin.sol\":661:671  workplaces */\n      0x02\n        /* \"Admin.sol\":677:689  newWorkplace */\n      dup2\n        /* \"Admin.sol\":661:690  workplaces.push(newWorkplace) */\n      swap1\n      dup1\n      0x01\n      dup2\n      sload\n      add\n      dup1\n      dup3\n      sstore\n      dup1\n      swap2\n      pop\n      pop\n      0x01\n      swap1\n      sub\n      swap1\n      0x00\n      mstore\n      keccak256(0x00, 0x20)\n      swap1\n      0x02\n      mul\n      add\n      0x00\n      swap1\n      swap2\n      swap1\n      swap2\n      swap1\n      swap2\n      pop\n      0x00\n      dup3\n      add\n      mload\n      dup2\n      0x00\n      add\n      swap1\n      dup2\n      tag_78\n      swap2\n      swap1\n      tag_64\n      jump\t// in\n    tag_78:\n      pop\n      0x20\n      dup3\n      add\n      mload\n      dup2\n      0x01\n      add\n      swap1\n      dup2\n      tag_79\n      swap2\n      swap1\n      tag_64\n      jump\t// in\n    tag_79:\n      pop\n      pop\n      pop\n        /* \"Admin.sol\":579:697  {... */\n      pop\n        /* \"Admin.sol\":489:697  function createWorkplace(string memory _name, string memory _workAddress) public virtual  {... */\n      pop\n      pop\n      jump\t// out\n        /* \"Admin.sol\":1227:1334  function getAllMedicines() public view virtual returns(Medicine[] memory) {... */\n    tag_29:\n        /* \"Admin.sol\":1282:1299  Medicine[] memory */\n      0x60\n        /* \"Admin.sol\":1318:1327  medicines */\n      0x03\n        /* \"Admin.sol\":1311:1327  return medicines */\n      dup1\n      sload\n      dup1\n      0x20\n      mul\n      0x20\n      add\n      mload(0x40)\n      swap1\n      dup2\n      add\n      0x40\n      mstore\n      dup1\n      swap3\n      swap2\n      swap1\n      dup2\n      dup2\n      mstore\n      0x20\n      add\n      0x00\n      swap1\n    tag_81:\n      dup3\n      dup3\n      lt\n      iszero\n      tag_82\n      jumpi\n      dup4\n      dup3\n      swap1\n      0x00\n      mstore\n      keccak256(0x00, 0x20)\n      swap1\n      0x05\n      mul\n      add\n      mload(0x40)\n      dup1\n      0xa0\n      add\n      0x40\n      mstore\n      swap1\n      dup2\n      0x00\n      dup3\n      add\n      sload\n      dup2\n      mstore\n      0x20\n      add\n      0x01\n      dup3\n      add\n      dup1\n      sload\n      tag_84\n      swap1\n      tag_71\n      jump\t// in\n    tag_84:\n      dup1\n      0x1f\n      add\n      0x20\n      dup1\n      swap2\n      div\n      mul\n      0x20\n      add\n      mload(0x40)\n      swap1\n      dup2\n      add\n      0x40\n      mstore\n      dup1\n      swap3\n      swap2\n      swap1\n      dup2\n      dup2\n      mstore\n      0x20\n      add\n      dup3\n      dup1\n      sload\n      tag_85\n      swap1\n      tag_71\n      jump\t// in\n    tag_85:\n      dup1\n      iszero\n      tag_86\n      jumpi\n      dup1\n      0x1f\n      lt\n      tag_87\n      jumpi\n      0x0100\n      dup1\n      dup4\n      sload\n      div\n      mul\n      dup4\n      mstore\n      swap2\n      0x20\n      add\n      swap2\n      jump(tag_86)\n    tag_87:\n      dup3\n      add\n      swap2\n      swap1\n      0x00\n      mstore\n      keccak256(0x00, 0x20)\n      swap1\n    tag_88:\n      dup2\n      sload\n      dup2\n      mstore\n      swap1\n      0x01\n      add\n      swap1\n      0x20\n      add\n      dup1\n      dup4\n      gt\n      tag_88\n      jumpi\n      dup3\n      swap1\n      sub\n      0x1f\n      and\n      dup3\n      add\n      swap2\n    tag_86:\n      pop\n      pop\n      pop\n      pop\n      pop\n      dup2\n      mstore\n      0x20\n      add\n      0x02\n      dup3\n      add\n      dup1\n      sload\n      tag_89\n      swap1\n      tag_71\n      jump\t// in\n    tag_89:\n      dup1\n      0x1f\n      add\n      0x20\n      dup1\n      swap2\n      div\n      mul\n      0x20\n      add\n      mload(0x40)\n      swap1\n      dup2\n      add\n      0x40\n      mstore\n      dup1\n      swap3\n      swap2\n      swap1\n      dup2\n      dup2\n      mstore\n      0x20\n      add\n      dup3\n      dup1\n      sload\n      tag_90\n      swap1\n      tag_71\n      jump\t// in\n    tag_90:\n      dup1\n      iszero\n      tag_91\n      jumpi\n      dup1\n      0x1f\n      lt\n      tag_92\n      jumpi\n      0x0100\n      dup1\n      dup4\n      sload\n      div\n      mul\n      dup4\n      mstore\n      swap2\n      0x20\n      add\n      swap2\n      jump(tag_91)\n    tag_92:\n      dup3\n      add\n      swap2\n      swap1\n      0x00\n      mstore\n      keccak256(0x00, 0x20)\n      swap1\n    tag_93:\n      dup2\n      sload\n      dup2\n      mstore\n      swap1\n      0x01\n      add\n      swap1\n      0x20\n      add\n      dup1\n      dup4\n      gt\n      tag_93\n      jumpi\n      dup3\n      swap1\n      sub\n      0x1f\n      and\n      dup3\n      add\n      swap2\n    tag_91:\n      pop\n      pop\n      pop\n      pop\n      pop\n      dup2\n      mstore\n      0x20\n      add\n      0x03\n      dup3\n      add\n      dup1\n      sload\n      tag_94\n      swap1\n      tag_71\n      jump\t// in\n    tag_94:\n      dup1\n      0x1f\n      add\n      0x20\n      dup1\n      swap2\n      div\n      mul\n      0x20\n      add\n      mload(0x40)\n      swap1\n      dup2\n      add\n      0x40\n      mstore\n      dup1\n      swap3\n      swap2\n      swap1\n      dup2\n      dup2\n      mstore\n      0x20\n      add\n      dup3\n      dup1\n      sload\n      tag_95\n      swap1\n      tag_71\n      jump\t// in\n    tag_95:\n      dup1\n      iszero\n      tag_96\n      jumpi\n      dup1\n      0x1f\n      lt\n      tag_97\n      jumpi\n      0x0100\n      dup1\n      dup4\n      sload\n      div\n      mul\n      dup4\n      mstore\n      swap2\n      0x20\n      add\n      swap2\n      jump(tag_96)\n    tag_97:\n      dup3\n      add\n      swap2\n      swap1\n      0x00\n      mstore\n      keccak256(0x00, 0x20)\n      swap1\n    tag_98:\n      dup2\n      sload\n      dup2\n      mstore\n      swap1\n      0x01\n      add\n      swap1\n      0x20\n      add\n      dup1\n      dup4\n      gt\n      tag_98\n      jumpi\n      dup3\n      swap1\n      sub\n      0x1f\n      and\n      dup3\n      add\n      swap2\n    tag_96:\n      pop\n      pop\n      pop\n      pop\n      pop\n      dup2\n      mstore\n      0x20\n      add\n      0x04\n      dup3\n      add\n      dup1\n      sload\n      tag_99\n      swap1\n      tag_71\n      jump\t// in\n    tag_99:\n      dup1\n      0x1f\n      add\n      0x20\n      dup1\n      swap2\n      div\n      mul\n      0x20\n      add\n      mload(0x40)\n      swap1\n      dup2\n      add\n      0x40\n      mstore\n      dup1\n      swap3\n      swap2\n      swap1\n      dup2\n      dup2\n      mstore\n      0x20\n      add\n      dup3\n      dup1\n      sload\n      tag_100\n      swap1\n      tag_71\n      jump\t// in\n    tag_100:\n      dup1\n      iszero\n      tag_101\n      jumpi\n      dup1\n      0x1f\n      lt\n      tag_102\n      jumpi\n      0x0100\n      dup1\n      dup4\n      sload\n      div\n      mul\n      dup4\n      mstore\n      swap2\n      0x20\n      add\n      swap2\n      jump(tag_101)\n    tag_102:\n      dup3\n      add\n      swap2\n      swap1\n      0x00\n      mstore\n      keccak256(0x00, 0x20)\n      swap1\n    tag_103:\n      dup2\n      sload\n      dup2\n      mstore\n      swap1\n      0x01\n      add\n      swap1\n      0x20\n      add\n      dup1\n      dup4\n      gt\n      tag_103\n      jumpi\n      dup3\n      swap1\n      sub\n      0x1f\n      and\n      dup3\n      add\n      swap2\n    tag_101:\n      pop\n      pop\n      pop\n      pop\n      pop\n      dup2\n      mstore\n      pop\n      pop\n      dup2\n      mstore\n      0x20\n      add\n      swap1\n      0x01\n      add\n      swap1\n      jump(tag_81)\n    tag_82:\n      pop\n      pop\n      pop\n      pop\n      swap1\n      pop\n        /* \"Admin.sol\":1227:1334  function getAllMedicines() public view virtual returns(Medicine[] memory) {... */\n      swap1\n      jump\t// out\n        /* \"Admin.sol\":1690:1810  function getDiseaseById(uint256 id) public view virtual returns(string memory) {... */\n    tag_34:\n        /* \"Admin.sol\":1754:1767  string memory */\n      0x60\n        /* \"Admin.sol\":1786:1794  diseases */\n      0x04\n        /* \"Admin.sol\":1795:1797  id */\n      dup3\n        /* \"Admin.sol\":1786:1798  diseases[id] */\n      dup2\n      sload\n      dup2\n      lt\n      tag_105\n      jumpi\n      tag_106\n      tag_107\n      jump\t// in\n    tag_106:\n    tag_105:\n      swap1\n      0x00\n      mstore\n      keccak256(0x00, 0x20)\n      swap1\n      0x02\n      mul\n      add\n        /* \"Admin.sol\":1786:1803  diseases[id].name */\n      0x01\n      add\n        /* \"Admin.sol\":1779:1803  return diseases[id].name */\n      dup1\n      sload\n      tag_109\n      swap1\n      tag_71\n      jump\t// in\n    tag_109:\n      dup1\n      0x1f\n      add\n      0x20\n      dup1\n      swap2\n      div\n      mul\n      0x20\n      add\n      mload(0x40)\n      swap1\n      dup2\n      add\n      0x40\n      mstore\n      dup1\n      swap3\n      swap2\n      swap1\n      dup2\n      dup2\n      mstore\n      0x20\n      add\n      dup3\n      dup1\n      sload\n      tag_110\n      swap1\n      tag_71\n      jump\t// in\n    tag_110:\n      dup1\n      iszero\n      tag_111\n      jumpi\n      dup1\n      0x1f\n      lt\n      tag_112\n      jumpi\n      0x0100\n      dup1\n      dup4\n      sload\n      div\n      mul\n      dup4\n      mstore\n      swap2\n      0x20\n      add\n      swap2\n      jump(tag_111)\n    tag_112:\n      dup3\n      add\n      swap2\n      swap1\n      0x00\n      mstore\n      keccak256(0x00, 0x20)\n      swap1\n    tag_113:\n      dup2\n      sload\n      dup2\n      mstore\n      swap1\n      0x01\n      add\n      swap1\n      0x20\n      add\n      dup1\n      dup4\n      gt\n      tag_113\n      jumpi\n      dup3\n      swap1\n      sub\n      0x1f\n      and\n      dup3\n      add\n      swap2\n    tag_111:\n      pop\n      pop\n      pop\n      pop\n      pop\n      swap1\n      pop\n        /* \"Admin.sol\":1690:1810  function getDiseaseById(uint256 id) public view virtual returns(string memory) {... */\n      swap2\n      swap1\n      pop\n      jump\t// out\n        /* \"Admin.sol\":1580:1684  function getAllDiseases() public view virtual returns(Disease[] memory) {... */\n    tag_38:\n        /* \"Admin.sol\":1634:1650  Disease[] memory */\n      0x60\n        /* \"Admin.sol\":1669:1677  diseases */\n      0x04\n        /* \"Admin.sol\":1662:1677  return diseases */\n      dup1\n      sload\n      dup1\n      0x20\n      mul\n      0x20\n      add\n      mload(0x40)\n      swap1\n      dup2\n      add\n      0x40\n      mstore\n      dup1\n      swap3\n      swap2\n      swap1\n      dup2\n      dup2\n      mstore\n      0x20\n      add\n      0x00\n      swap1\n    tag_115:\n      dup3\n      dup3\n      lt\n      iszero\n      tag_116\n      jumpi\n      dup4\n      dup3\n      swap1\n      0x00\n      mstore\n      keccak256(0x00, 0x20)\n      swap1\n      0x02\n      mul\n      add\n      mload(0x40)\n      dup1\n      0x40\n      add\n      0x40\n      mstore\n      swap1\n      dup2\n      0x00\n      dup3\n      add\n      sload\n      dup2\n      mstore\n      0x20\n      add\n      0x01\n      dup3\n      add\n      dup1\n      sload\n      tag_118\n      swap1\n      tag_71\n      jump\t// in\n    tag_118:\n      dup1\n      0x1f\n      add\n      0x20\n      dup1\n      swap2\n      div\n      mul\n      0x20\n      add\n      mload(0x40)\n      swap1\n      dup2\n      add\n      0x40\n      mstore\n      dup1\n      swap3\n      swap2\n      swap1\n      dup2\n      dup2\n      mstore\n      0x20\n      add\n      dup3\n      dup1\n      sload\n      tag_119\n      swap1\n      tag_71\n      jump\t// in\n    tag_119:\n      dup1\n      iszero\n      tag_120\n      jumpi\n      dup1\n      0x1f\n      lt\n      tag_121\n      jumpi\n      0x0100\n      dup1\n      dup4\n      sload\n      div\n      mul\n      dup4\n      mstore\n      swap2\n      0x20\n      add\n      swap2\n      jump(tag_120)\n    tag_121:\n      dup3\n      add\n      swap2\n      swap1\n      0x00\n      mstore\n      keccak256(0x00, 0x20)\n      swap1\n    tag_122:\n      dup2\n      sload\n      dup2\n      mstore\n      swap1\n      0x01\n      add\n      swap1\n      0x20\n      add\n      dup1\n      dup4\n      gt\n      tag_122\n      jumpi\n      dup3\n      swap1\n      sub\n      0x1f\n      and\n      dup3\n      add\n      swap2\n    tag_120:\n      pop\n      pop\n      pop\n      pop\n      pop\n      dup2\n      mstore\n      pop\n      pop\n      dup2\n      mstore\n      0x20\n      add\n      swap1\n      0x01\n      add\n      swap1\n      jump(tag_115)\n    tag_116:\n      pop\n      pop\n      pop\n      pop\n      swap1\n      pop\n        /* \"Admin.sol\":1580:1684  function getAllDiseases() public view virtual returns(Disease[] memory) {... */\n      swap1\n      jump\t// out\n        /* \"Admin.sol\":387:416  Workplace[] public workplaces */\n    tag_43:\n      0x02\n      dup2\n      dup2\n      sload\n      dup2\n      lt\n      tag_123\n      jumpi\n      0x00\n      dup1\n      revert\n    tag_123:\n      swap1\n      0x00\n      mstore\n      keccak256(0x00, 0x20)\n      swap1\n      0x02\n      mul\n      add\n      0x00\n      swap2\n      pop\n      swap1\n      pop\n      dup1\n      0x00\n      add\n      dup1\n      sload\n      tag_125\n      swap1\n      tag_71\n      jump\t// in\n    tag_125:\n      dup1\n      0x1f\n      add\n      0x20\n      dup1\n      swap2\n      div\n      mul\n      0x20\n      add\n      mload(0x40)\n      swap1\n      dup2\n      add\n      0x40\n      mstore\n      dup1\n      swap3\n      swap2\n      swap1\n      dup2\n      dup2\n      mstore\n      0x20\n      add\n      dup3\n      dup1\n      sload\n      tag_126\n      swap1\n      tag_71\n      jump\t// in\n    tag_126:\n      dup1\n      iszero\n      tag_127\n      jumpi\n      dup1\n      0x1f\n      lt\n      tag_128\n      jumpi\n      0x0100\n      dup1\n      dup4\n      sload\n      div\n      mul\n      dup4\n      mstore\n      swap2\n      0x20\n      add\n      swap2\n      jump(tag_127)\n    tag_128:\n      dup3\n      add\n      swap2\n      swap1\n      0x00\n      mstore\n      keccak256(0x00, 0x20)\n      swap1\n    tag_129:\n      dup2\n      sload\n      dup2\n      mstore\n      swap1\n      0x01\n      add\n      swap1\n      0x20\n      add\n      dup1\n      dup4\n      gt\n      tag_129\n      jumpi\n      dup3\n      swap1\n      sub\n      0x1f\n      and\n      dup3\n      add\n      swap2\n    tag_127:\n      pop\n      pop\n      pop\n      pop\n      pop\n      swap1\n      dup1\n      0x01\n      add\n      dup1\n      sload\n      tag_130\n      swap1\n      tag_71\n      jump\t// in\n    tag_130:\n      dup1\n      0x1f\n      add\n      0x20\n      dup1\n      swap2\n      div\n      mul\n      0x20\n      add\n      mload(0x40)\n      swap1\n      dup2\n      add\n      0x40\n      mstore\n      dup1\n      swap3\n      swap2\n      swap1\n      dup2\n      dup2\n      mstore\n      0x20\n      add\n      dup3\n      dup1\n      sload\n      tag_131\n      swap1\n      tag_71\n      jump\t// in\n    tag_131:\n      dup1\n      iszero\n      tag_132\n      jumpi\n      dup1\n      0x1f\n      lt\n      tag_133\n      jumpi\n      0x0100\n      dup1\n      dup4\n      sload\n      div\n      mul\n      dup4\n      mstore\n      swap2\n      0x20\n      add\n      swap2\n      jump(tag_132)\n    tag_133:\n      dup3\n      add\n      swap2\n      swap1\n      0x00\n      mstore\n      keccak256(0x00, 0x20)\n      swap1\n    tag_134:\n      dup2\n      sload\n      dup2\n      mstore\n      swap1\n      0x01\n      add\n      swap1\n      0x20\n      add\n      dup1\n      dup4\n      gt\n      tag_134\n      jumpi\n      dup3\n      swap1\n      sub\n      0x1f\n      and\n      dup3\n      add\n      swap2\n    tag_132:\n      pop\n      pop\n      pop\n      pop\n      pop\n      swap1\n      pop\n      dup3\n      jump\t// out\n        /* \"Admin.sol\":422:449  Medicine[] public medicines */\n    tag_48:\n      0x03\n      dup2\n      dup2\n      sload\n      dup2\n      lt\n      tag_135\n      jumpi\n      0x00\n      dup1\n      revert\n    tag_135:\n      swap1\n      0x00\n      mstore\n      keccak256(0x00, 0x20)\n      swap1\n      0x05\n      mul\n      add\n      0x00\n      swap2\n      pop\n      swap1\n      pop\n      dup1\n      0x00\n      add\n      sload\n      swap1\n      dup1\n      0x01\n      add\n      dup1\n      sload\n      tag_137\n      swap1\n      tag_71\n      jump\t// in\n    tag_137:\n      dup1\n      0x1f\n      add\n      0x20\n      dup1\n      swap2\n      div\n      mul\n      0x20\n      add\n      mload(0x40)\n      swap1\n      dup2\n      add\n      0x40\n      mstore\n      dup1\n      swap3\n      swap2\n      swap1\n      dup2\n      dup2\n      mstore\n      0x20\n      add\n      dup3\n      dup1\n      sload\n      tag_138\n      swap1\n      tag_71\n      jump\t// in\n    tag_138:\n      dup1\n      iszero\n      tag_139\n      jumpi\n      dup1\n      0x1f\n      lt\n      tag_140\n      jumpi\n      0x0100\n      dup1\n      dup4\n      sload\n      div\n      mul\n      dup4\n      mstore\n      swap2\n      0x20\n      add\n      swap2\n      jump(tag_139)\n    tag_140:\n      dup3\n      add\n      swap2\n      swap1\n      0x00\n      mstore\n      keccak256(0x00, 0x20)\n      swap1\n    tag_141:\n      dup2\n      sload\n      dup2\n      mstore\n      swap1\n      0x01\n      add\n      swap1\n      0x20\n      add\n      dup1\n      dup4\n      gt\n      tag_141\n      jumpi\n      dup3\n      swap1\n      sub\n      0x1f\n      and\n      dup3\n      add\n      swap2\n    tag_139:\n      pop\n      pop\n      pop\n      pop\n      pop\n      swap1\n      dup1\n      0x02\n      add\n      dup1\n      sload\n      tag_142\n      swap1\n      tag_71\n      jump\t// in\n    tag_142:\n      dup1\n      0x1f\n      add\n      0x20\n      dup1\n      swap2\n      div\n      mul\n      0x20\n      add\n      mload(0x40)\n      swap1\n      dup2\n      add\n      0x40\n      mstore\n      dup1\n      swap3\n      swap2\n      swap1\n      dup2\n      dup2\n      mstore\n      0x20\n      add\n      dup3\n      dup1\n      sload\n      tag_143\n      swap1\n      tag_71\n      jump\t// in\n    tag_143:\n      dup1\n      iszero\n      tag_144\n      jumpi\n      dup1\n      0x1f\n      lt\n      tag_145\n      jumpi\n      0x0100\n      dup1\n      dup4\n      sload\n      div\n      mul\n      dup4\n      mstore\n      swap2\n      0x20\n      add\n      swap2\n      jump(tag_144)\n    tag_145:\n      dup3\n      add\n      swap2\n      swap1\n      0x00\n      mstore\n      keccak256(0x00, 0x20)\n      swap1\n    tag_146:\n      dup2\n      sload\n      dup2\n      mstore\n      swap1\n      0x01\n      add\n      swap1\n      0x20\n      add\n      dup1\n      dup4\n      gt\n      tag_146\n      jumpi\n      dup3\n      swap1\n      sub\n      0x1f\n      and\n      dup3\n      add\n      swap2\n    tag_144:\n      pop\n      pop\n      pop\n      pop\n      pop\n      swap1\n      dup1\n      0x03\n      add\n      dup1\n      sload\n      tag_147\n      swap1\n      tag_71\n      jump\t// in\n    tag_147:\n      dup1\n      0x1f\n      add\n      0x20\n      dup1\n      swap2\n      div\n      mul\n      0x20\n      add\n      mload(0x40)\n      swap1\n      dup2\n      add\n      0x40\n      mstore\n      dup1\n      swap3\n      swap2\n      swap1\n      dup2\n      dup2\n      mstore\n      0x20\n      add\n      dup3\n      dup1\n      sload\n      tag_148\n      swap1\n      tag_71\n      jump\t// in\n    tag_148:\n      dup1\n      iszero\n      tag_149\n      jumpi\n      dup1\n      0x1f\n      lt\n      tag_150\n      jumpi\n      0x0100\n      dup1\n      dup4\n      sload\n      div\n      mul\n      dup4\n      mstore\n      swap2\n      0x20\n      add\n      swap2\n      jump(tag_149)\n    tag_150:\n      dup3\n      add\n      swap2\n      swap1\n      0x00\n      mstore\n      keccak256(0x00, 0x20)\n      swap1\n    tag_151:\n      dup2\n      sload\n      dup2\n      mstore\n      swap1\n      0x01\n      add\n      swap1\n      0x20\n      add\n      dup1\n      dup4\n      gt\n      tag_151\n      jumpi\n      dup3\n      swap1\n      sub\n      0x1f\n      and\n      dup3\n      add\n      swap2\n    tag_149:\n      pop\n      pop\n      pop\n      pop\n      pop\n      swap1\n      dup1\n      0x04\n      add\n      dup1\n      sload\n      tag_152\n      swap1\n      tag_71\n      jump\t// in\n    tag_152:\n      dup1\n      0x1f\n      add\n      0x20\n      dup1\n      swap2\n      div\n      mul\n      0x20\n      add\n      mload(0x40)\n      swap1\n      dup2\n      add\n      0x40\n      mstore\n      dup1\n      swap3\n      swap2\n      swap1\n      dup2\n      dup2\n      mstore\n      0x20\n      add\n      dup3\n      dup1\n      sload\n      tag_153\n      swap1\n      tag_71\n      jump\t// in\n    tag_153:\n      dup1\n      iszero\n      tag_154\n      jumpi\n      dup1\n      0x1f\n      lt\n      tag_155\n      jumpi\n      0x0100\n      dup1\n      dup4\n      sload\n      div\n      mul\n      dup4\n      mstore\n      swap2\n      0x20\n      add\n      swap2\n      jump(tag_154)\n    tag_155:\n      dup3\n      add\n      swap2\n      swap1\n      0x00\n      mstore\n      keccak256(0x00, 0x20)\n      swap1\n    tag_156:\n      dup2\n      sload\n      dup2\n      mstore\n      swap1\n      0x01\n      add\n      swap1\n      0x20\n      add\n      dup1\n      dup4\n      gt\n      tag_156\n      jumpi\n      dup3\n      swap1\n      sub\n      0x1f\n      and\n      dup3\n      add\n      swap2\n    tag_154:\n      pop\n      pop\n      pop\n      pop\n      pop\n      swap1\n      pop\n      dup6\n      jump\t// out\n        /* \"Admin.sol\":1340:1574  function addDisease(string memory _name) public virtual {... */\n    tag_54:\n        /* \"Admin.sol\":1406:1431  Disease memory newDisease */\n      0x00\n        /* \"Admin.sol\":1434:1508  Disease({... */\n      mload(0x40)\n      dup1\n      0x40\n      add\n      0x40\n      mstore\n      dup1\n        /* \"Admin.sol\":1460:1472  diseaseCount */\n      sload(0x01)\n        /* \"Admin.sol\":1434:1508  Disease({... */\n      dup2\n      mstore\n      0x20\n      add\n        /* \"Admin.sol\":1492:1497  _name */\n      dup4\n        /* \"Admin.sol\":1434:1508  Disease({... */\n      dup2\n      mstore\n      pop\n        /* \"Admin.sol\":1406:1508  Disease memory newDisease = Disease({... */\n      swap1\n      pop\n        /* \"Admin.sol\":1518:1530  diseaseCount */\n      0x01\n      0x00\n        /* \"Admin.sol\":1518:1532  diseaseCount++ */\n      dup2\n      sload\n      dup1\n      swap3\n      swap2\n      swap1\n      tag_158\n      swap1\n      tag_61\n      jump\t// in\n    tag_158:\n      swap2\n      swap1\n      pop\n      sstore\n      pop\n        /* \"Admin.sol\":1542:1550  diseases */\n      0x04\n        /* \"Admin.sol\":1556:1566  newDisease */\n      dup2\n        /* \"Admin.sol\":1542:1567  diseases.push(newDisease) */\n      swap1\n      dup1\n      0x01\n      dup2\n      sload\n      add\n      dup1\n      dup3\n      sstore\n      dup1\n      swap2\n      pop\n      pop\n      0x01\n      swap1\n      sub\n      swap1\n      0x00\n      mstore\n      keccak256(0x00, 0x20)\n      swap1\n      0x02\n      mul\n      add\n      0x00\n      swap1\n      swap2\n      swap1\n      swap2\n      swap1\n      swap2\n      pop\n      0x00\n      dup3\n      add\n      mload\n      dup2\n      0x00\n      add\n      sstore\n      0x20\n      dup3\n      add\n      mload\n      dup2\n      0x01\n      add\n      swap1\n      dup2\n      tag_160\n      swap2\n      swap1\n      tag_64\n      jump\t// in\n    tag_160:\n      pop\n      pop\n      pop\n        /* \"Admin.sol\":1396:1574  {... */\n      pop\n        /* \"Admin.sol\":1340:1574  function addDisease(string memory _name) public virtual {... */\n      pop\n      jump\t// out\n        /* \"Admin.sol\":703:814  function getAllWorkplaces() public view virtual returns (Workplace[] memory) {... */\n    tag_56:\n        /* \"Admin.sol\":760:778  Workplace[] memory */\n      0x60\n        /* \"Admin.sol\":797:807  workplaces */\n      0x02\n        /* \"Admin.sol\":790:807  return workplaces */\n      dup1\n      sload\n      dup1\n      0x20\n      mul\n      0x20\n      add\n      mload(0x40)\n      swap1\n      dup2\n      add\n      0x40\n      mstore\n      dup1\n      swap3\n      swap2\n      swap1\n      dup2\n      dup2\n      mstore\n      0x20\n      add\n      0x00\n      swap1\n    tag_162:\n      dup3\n      dup3\n      lt\n      iszero\n      tag_163\n      jumpi\n      dup4\n      dup3\n      swap1\n      0x00\n      mstore\n      keccak256(0x00, 0x20)\n      swap1\n      0x02\n      mul\n      add\n      mload(0x40)\n      dup1\n      0x40\n      add\n      0x40\n      mstore\n      swap1\n      dup2\n      0x00\n      dup3\n      add\n      dup1\n      sload\n      tag_165\n      swap1\n      tag_71\n      jump\t// in\n    tag_165:\n      dup1\n      0x1f\n      add\n      0x20\n      dup1\n      swap2\n      div\n      mul\n      0x20\n      add\n      mload(0x40)\n      swap1\n      dup2\n      add\n      0x40\n      mstore\n      dup1\n      swap3\n      swap2\n      swap1\n      dup2\n      dup2\n      mstore\n      0x20\n      add\n      dup3\n      dup1\n      sload\n      tag_166\n      swap1\n      tag_71\n      jump\t// in\n    tag_166:\n      dup1\n      iszero\n      tag_167\n      jumpi\n      dup1\n      0x1f\n      lt\n      tag_168\n      jumpi\n      0x0100\n      dup1\n      dup4\n      sload\n      div\n      mul\n      dup4\n      mstore\n      swap2\n      0x20\n      add\n      swap2\n      jump(tag_167)\n    tag_168:\n      dup3\n      add\n      swap2\n      swap1\n      0x00\n      mstore\n      keccak256(0x00, 0x20)\n      swap1\n    tag_169:\n      dup2\n      sload\n      dup2\n      mstore\n      swap1\n      0x01\n      add\n      swap1\n      0x20\n      add\n      dup1\n      dup4\n      gt\n      tag_169\n      jumpi\n      dup3\n      swap1\n      sub\n      0x1f\n      and\n      dup3\n      add\n      swap2\n    tag_167:\n      pop\n      pop\n      pop\n      pop\n      pop\n      dup2\n      mstore\n      0x20\n      add\n      0x01\n      dup3\n      add\n      dup1\n      sload\n      tag_170\n      swap1\n      tag_71\n      jump\t// in\n    tag_170:\n      dup1\n      0x1f\n      add\n      0x20\n      dup1\n      swap2\n      div\n      mul\n      0x20\n      add\n      mload(0x40)\n      swap1\n      dup2\n      add\n      0x40\n      mstore\n      dup1\n      swap3\n      swap2\n      swap1\n      dup2\n      dup2\n      mstore\n      0x20\n      add\n      dup3\n      dup1\n      sload\n      tag_171\n      swap1\n      tag_71\n      jump\t// in\n    tag_171:\n      dup1\n      iszero\n      tag_172\n      jumpi\n      dup1\n      0x1f\n      lt\n      tag_173\n      jumpi\n      0x0100\n      dup1\n      dup4\n      sload\n      div\n      mul\n      dup4\n      mstore\n      swap2\n      0x20\n      add\n      swap2\n      jump(tag_172)\n    tag_173:\n      dup3\n      add\n      swap2\n      swap1\n      0x00\n      mstore\n      keccak256(0x00, 0x20)\n      swap1\n    tag_174:\n      dup2\n      sload\n      dup2\n      mstore\n      swap1\n      0x01\n      add\n      swap1\n      0x20\n      add\n      dup1\n      dup4\n      gt\n      tag_174\n      jumpi\n      dup3\n      swap1\n      sub\n      0x1f\n      and\n      dup3\n      add\n      swap2\n    tag_172:\n      pop\n      pop\n      pop\n      pop\n      pop\n      dup2\n      mstore\n      pop\n      pop\n      dup2\n      mstore\n      0x20\n      add\n      swap1\n      0x01\n      add\n      swap1\n      jump(tag_162)\n    tag_163:\n      pop\n      pop\n      pop\n      pop\n      swap1\n      pop\n        /* \"Admin.sol\":703:814  function getAllWorkplaces() public view virtual returns (Workplace[] memory) {... */\n      swap1\n      jump\t// out\n        /* \"#utility.yul\":7:82   */\n    tag_175:\n        /* \"#utility.yul\":40:46   */\n      0x00\n        /* \"#utility.yul\":73:75   */\n      0x40\n        /* \"#utility.yul\":67:76   */\n      mload\n        /* \"#utility.yul\":57:76   */\n      swap1\n      pop\n        /* \"#utility.yul\":7:82   */\n      swap1\n      jump\t// out\n        /* \"#utility.yul\":88:205   */\n    tag_176:\n        /* \"#utility.yul\":197:198   */\n      0x00\n        /* \"#utility.yul\":194:195   */\n      dup1\n        /* \"#utility.yul\":187:199   */\n      revert\n        /* \"#utility.yul\":211:328   */\n    tag_177:\n        /* \"#utility.yul\":320:321   */\n      0x00\n        /* \"#utility.yul\":317:318   */\n      dup1\n        /* \"#utility.yul\":310:322   */\n      revert\n        /* \"#utility.yul\":334:451   */\n    tag_178:\n        /* \"#utility.yul\":443:444   */\n      0x00\n        /* \"#utility.yul\":440:441   */\n      dup1\n        /* \"#utility.yul\":433:445   */\n      revert\n        /* \"#utility.yul\":457:574   */\n    tag_179:\n        /* \"#utility.yul\":566:567   */\n      0x00\n        /* \"#utility.yul\":563:564   */\n      dup1\n        /* \"#utility.yul\":556:568   */\n      revert\n        /* \"#utility.yul\":580:682   */\n    tag_180:\n        /* \"#utility.yul\":621:627   */\n      0x00\n        /* \"#utility.yul\":672:674   */\n      0x1f\n        /* \"#utility.yul\":668:675   */\n      not\n        /* \"#utility.yul\":663:665   */\n      0x1f\n        /* \"#utility.yul\":656:661   */\n      dup4\n        /* \"#utility.yul\":652:666   */\n      add\n        /* \"#utility.yul\":648:676   */\n      and\n        /* \"#utility.yul\":638:676   */\n      swap1\n      pop\n        /* \"#utility.yul\":580:682   */\n      swap2\n      swap1\n      pop\n      jump\t// out\n        /* \"#utility.yul\":688:868   */\n    tag_181:\n        /* \"#utility.yul\":736:813   */\n      0x4e487b7100000000000000000000000000000000000000000000000000000000\n        /* \"#utility.yul\":733:734   */\n      0x00\n        /* \"#utility.yul\":726:814   */\n      mstore\n        /* \"#utility.yul\":833:837   */\n      0x41\n        /* \"#utility.yul\":830:831   */\n      0x04\n        /* \"#utility.yul\":823:838   */\n      mstore\n        /* \"#utility.yul\":857:861   */\n      0x24\n        /* \"#utility.yul\":854:855   */\n      0x00\n        /* \"#utility.yul\":847:862   */\n      revert\n        /* \"#utility.yul\":874:1155   */\n    tag_182:\n        /* \"#utility.yul\":957:984   */\n      tag_246\n        /* \"#utility.yul\":979:983   */\n      dup3\n        /* \"#utility.yul\":957:984   */\n      tag_180\n      jump\t// in\n    tag_246:\n        /* \"#utility.yul\":949:955   */\n      dup2\n        /* \"#utility.yul\":945:985   */\n      add\n        /* \"#utility.yul\":1087:1093   */\n      dup2\n        /* \"#utility.yul\":1075:1085   */\n      dup2\n        /* \"#utility.yul\":1072:1094   */\n      lt\n        /* \"#utility.yul\":1051:1069   */\n      0xffffffffffffffff\n        /* \"#utility.yul\":1039:1049   */\n      dup3\n        /* \"#utility.yul\":1036:1070   */\n      gt\n        /* \"#utility.yul\":1033:1095   */\n      or\n        /* \"#utility.yul\":1030:1118   */\n      iszero\n      tag_247\n      jumpi\n        /* \"#utility.yul\":1098:1116   */\n      tag_248\n      tag_181\n      jump\t// in\n    tag_248:\n        /* \"#utility.yul\":1030:1118   */\n    tag_247:\n        /* \"#utility.yul\":1138:1148   */\n      dup1\n        /* \"#utility.yul\":1134:1136   */\n      0x40\n        /* \"#utility.yul\":1127:1149   */\n      mstore\n        /* \"#utility.yul\":917:1155   */\n      pop\n        /* \"#utility.yul\":874:1155   */\n      pop\n      pop\n      jump\t// out\n        /* \"#utility.yul\":1161:1290   */\n    tag_183:\n        /* \"#utility.yul\":1195:1201   */\n      0x00\n        /* \"#utility.yul\":1222:1242   */\n      tag_250\n      tag_175\n      jump\t// in\n    tag_250:\n        /* \"#utility.yul\":1212:1242   */\n      swap1\n      pop\n        /* \"#utility.yul\":1251:1284   */\n      tag_251\n        /* \"#utility.yul\":1279:1283   */\n      dup3\n        /* \"#utility.yul\":1271:1277   */\n      dup3\n        /* \"#utility.yul\":1251:1284   */\n      tag_182\n      jump\t// in\n    tag_251:\n        /* \"#utility.yul\":1161:1290   */\n      swap2\n      swap1\n      pop\n      jump\t// out\n        /* \"#utility.yul\":1296:1604   */\n    tag_184:\n        /* \"#utility.yul\":1358:1362   */\n      0x00\n        /* \"#utility.yul\":1448:1466   */\n      0xffffffffffffffff\n        /* \"#utility.yul\":1440:1446   */\n      dup3\n        /* \"#utility.yul\":1437:1467   */\n      gt\n        /* \"#utility.yul\":1434:1490   */\n      iszero\n      tag_253\n      jumpi\n        /* \"#utility.yul\":1470:1488   */\n      tag_254\n      tag_181\n      jump\t// in\n    tag_254:\n        /* \"#utility.yul\":1434:1490   */\n    tag_253:\n        /* \"#utility.yul\":1508:1537   */\n      tag_255\n        /* \"#utility.yul\":1530:1536   */\n      dup3\n        /* \"#utility.yul\":1508:1537   */\n      tag_180\n      jump\t// in\n    tag_255:\n        /* \"#utility.yul\":1500:1537   */\n      swap1\n      pop\n        /* \"#utility.yul\":1592:1596   */\n      0x20\n        /* \"#utility.yul\":1586:1590   */\n      dup2\n        /* \"#utility.yul\":1582:1597   */\n      add\n        /* \"#utility.yul\":1574:1597   */\n      swap1\n      pop\n        /* \"#utility.yul\":1296:1604   */\n      swap2\n      swap1\n      pop\n      jump\t// out\n        /* \"#utility.yul\":1610:1756   */\n    tag_185:\n        /* \"#utility.yul\":1707:1713   */\n      dup3\n        /* \"#utility.yul\":1702:1705   */\n      dup2\n        /* \"#utility.yul\":1697:1700   */\n      dup4\n        /* \"#utility.yul\":1684:1714   */\n      calldatacopy\n        /* \"#utility.yul\":1748:1749   */\n      0x00\n        /* \"#utility.yul\":1739:1745   */\n      dup4\n        /* \"#utility.yul\":1734:1737   */\n      dup4\n        /* \"#utility.yul\":1730:1746   */\n      add\n        /* \"#utility.yul\":1723:1750   */\n      mstore\n        /* \"#utility.yul\":1610:1756   */\n      pop\n      pop\n      pop\n      jump\t// out\n        /* \"#utility.yul\":1762:2187   */\n    tag_186:\n        /* \"#utility.yul\":1840:1845   */\n      0x00\n        /* \"#utility.yul\":1865:1931   */\n      tag_258\n        /* \"#utility.yul\":1881:1930   */\n      tag_259\n        /* \"#utility.yul\":1923:1929   */\n      dup5\n        /* \"#utility.yul\":1881:1930   */\n      tag_184\n      jump\t// in\n    tag_259:\n        /* \"#utility.yul\":1865:1931   */\n      tag_183\n      jump\t// in\n    tag_258:\n        /* \"#utility.yul\":1856:1931   */\n      swap1\n      pop\n        /* \"#utility.yul\":1954:1960   */\n      dup3\n        /* \"#utility.yul\":1947:1952   */\n      dup2\n        /* \"#utility.yul\":1940:1961   */\n      mstore\n        /* \"#utility.yul\":1992:1996   */\n      0x20\n        /* \"#utility.yul\":1985:1990   */\n      dup2\n        /* \"#utility.yul\":1981:1997   */\n      add\n        /* \"#utility.yul\":2030:2033   */\n      dup5\n        /* \"#utility.yul\":2021:2027   */\n      dup5\n        /* \"#utility.yul\":2016:2019   */\n      dup5\n        /* \"#utility.yul\":2012:2028   */\n      add\n        /* \"#utility.yul\":2009:2034   */\n      gt\n        /* \"#utility.yul\":2006:2118   */\n      iszero\n      tag_260\n      jumpi\n        /* \"#utility.yul\":2037:2116   */\n      tag_261\n      tag_179\n      jump\t// in\n    tag_261:\n        /* \"#utility.yul\":2006:2118   */\n    tag_260:\n        /* \"#utility.yul\":2127:2181   */\n      tag_262\n        /* \"#utility.yul\":2174:2180   */\n      dup5\n        /* \"#utility.yul\":2169:2172   */\n      dup3\n        /* \"#utility.yul\":2164:2167   */\n      dup6\n        /* \"#utility.yul\":2127:2181   */\n      tag_185\n      jump\t// in\n    tag_262:\n        /* \"#utility.yul\":1846:2187   */\n      pop\n        /* \"#utility.yul\":1762:2187   */\n      swap4\n      swap3\n      pop\n      pop\n      pop\n      jump\t// out\n        /* \"#utility.yul\":2207:2547   */\n    tag_187:\n        /* \"#utility.yul\":2263:2268   */\n      0x00\n        /* \"#utility.yul\":2312:2315   */\n      dup3\n        /* \"#utility.yul\":2305:2309   */\n      0x1f\n        /* \"#utility.yul\":2297:2303   */\n      dup4\n        /* \"#utility.yul\":2293:2310   */\n      add\n        /* \"#utility.yul\":2289:2316   */\n      slt\n        /* \"#utility.yul\":2279:2401   */\n      tag_264\n      jumpi\n        /* \"#utility.yul\":2320:2399   */\n      tag_265\n      tag_178\n      jump\t// in\n    tag_265:\n        /* \"#utility.yul\":2279:2401   */\n    tag_264:\n        /* \"#utility.yul\":2437:2443   */\n      dup2\n        /* \"#utility.yul\":2424:2444   */\n      calldataload\n        /* \"#utility.yul\":2462:2541   */\n      tag_266\n        /* \"#utility.yul\":2537:2540   */\n      dup5\n        /* \"#utility.yul\":2529:2535   */\n      dup3\n        /* \"#utility.yul\":2522:2526   */\n      0x20\n        /* \"#utility.yul\":2514:2520   */\n      dup7\n        /* \"#utility.yul\":2510:2527   */\n      add\n        /* \"#utility.yul\":2462:2541   */\n      tag_186\n      jump\t// in\n    tag_266:\n        /* \"#utility.yul\":2453:2541   */\n      swap2\n      pop\n        /* \"#utility.yul\":2269:2547   */\n      pop\n        /* \"#utility.yul\":2207:2547   */\n      swap3\n      swap2\n      pop\n      pop\n      jump\t// out\n        /* \"#utility.yul\":2553:4038   */\n    tag_16:\n        /* \"#utility.yul\":2679:2685   */\n      0x00\n        /* \"#utility.yul\":2687:2693   */\n      dup1\n        /* \"#utility.yul\":2695:2701   */\n      0x00\n        /* \"#utility.yul\":2703:2709   */\n      dup1\n        /* \"#utility.yul\":2752:2755   */\n      0x80\n        /* \"#utility.yul\":2740:2749   */\n      dup6\n        /* \"#utility.yul\":2731:2738   */\n      dup8\n        /* \"#utility.yul\":2727:2750   */\n      sub\n        /* \"#utility.yul\":2723:2756   */\n      slt\n        /* \"#utility.yul\":2720:2840   */\n      iszero\n      tag_268\n      jumpi\n        /* \"#utility.yul\":2759:2838   */\n      tag_269\n      tag_176\n      jump\t// in\n    tag_269:\n        /* \"#utility.yul\":2720:2840   */\n    tag_268:\n        /* \"#utility.yul\":2907:2908   */\n      0x00\n        /* \"#utility.yul\":2896:2905   */\n      dup6\n        /* \"#utility.yul\":2892:2909   */\n      add\n        /* \"#utility.yul\":2879:2910   */\n      calldataload\n        /* \"#utility.yul\":2937:2955   */\n      0xffffffffffffffff\n        /* \"#utility.yul\":2929:2935   */\n      dup2\n        /* \"#utility.yul\":2926:2956   */\n      gt\n        /* \"#utility.yul\":2923:3040   */\n      iszero\n      tag_270\n      jumpi\n        /* \"#utility.yul\":2959:3038   */\n      tag_271\n      tag_177\n      jump\t// in\n    tag_271:\n        /* \"#utility.yul\":2923:3040   */\n    tag_270:\n        /* \"#utility.yul\":3064:3127   */\n      tag_272\n        /* \"#utility.yul\":3119:3126   */\n      dup8\n        /* \"#utility.yul\":3110:3116   */\n      dup3\n        /* \"#utility.yul\":3099:3108   */\n      dup9\n        /* \"#utility.yul\":3095:3117   */\n      add\n        /* \"#utility.yul\":3064:3127   */\n      tag_187\n      jump\t// in\n    tag_272:\n        /* \"#utility.yul\":3054:3127   */\n      swap5\n      pop\n        /* \"#utility.yul\":2850:3137   */\n      pop\n        /* \"#utility.yul\":3204:3206   */\n      0x20\n        /* \"#utility.yul\":3193:3202   */\n      dup6\n        /* \"#utility.yul\":3189:3207   */\n      add\n        /* \"#utility.yul\":3176:3208   */\n      calldataload\n        /* \"#utility.yul\":3235:3253   */\n      0xffffffffffffffff\n        /* \"#utility.yul\":3227:3233   */\n      dup2\n        /* \"#utility.yul\":3224:3254   */\n      gt\n        /* \"#utility.yul\":3221:3338   */\n      iszero\n      tag_273\n      jumpi\n        /* \"#utility.yul\":3257:3336   */\n      tag_274\n      tag_177\n      jump\t// in\n    tag_274:\n        /* \"#utility.yul\":3221:3338   */\n    tag_273:\n        /* \"#utility.yul\":3362:3425   */\n      tag_275\n        /* \"#utility.yul\":3417:3424   */\n      dup8\n        /* \"#utility.yul\":3408:3414   */\n      dup3\n        /* \"#utility.yul\":3397:3406   */\n      dup9\n        /* \"#utility.yul\":3393:3415   */\n      add\n        /* \"#utility.yul\":3362:3425   */\n      tag_187\n      jump\t// in\n    tag_275:\n        /* \"#utility.yul\":3352:3425   */\n      swap4\n      pop\n        /* \"#utility.yul\":3147:3435   */\n      pop\n        /* \"#utility.yul\":3502:3504   */\n      0x40\n        /* \"#utility.yul\":3491:3500   */\n      dup6\n        /* \"#utility.yul\":3487:3505   */\n      add\n        /* \"#utility.yul\":3474:3506   */\n      calldataload\n        /* \"#utility.yul\":3533:3551   */\n      0xffffffffffffffff\n        /* \"#utility.yul\":3525:3531   */\n      dup2\n        /* \"#utility.yul\":3522:3552   */\n      gt\n        /* \"#utility.yul\":3519:3636   */\n      iszero\n      tag_276\n      jumpi\n        /* \"#utility.yul\":3555:3634   */\n      tag_277\n      tag_177\n      jump\t// in\n    tag_277:\n        /* \"#utility.yul\":3519:3636   */\n    tag_276:\n        /* \"#utility.yul\":3660:3723   */\n      tag_278\n        /* \"#utility.yul\":3715:3722   */\n      dup8\n        /* \"#utility.yul\":3706:3712   */\n      dup3\n        /* \"#utility.yul\":3695:3704   */\n      dup9\n        /* \"#utility.yul\":3691:3713   */\n      add\n        /* \"#utility.yul\":3660:3723   */\n      tag_187\n      jump\t// in\n    tag_278:\n        /* \"#utility.yul\":3650:3723   */\n      swap3\n      pop\n        /* \"#utility.yul\":3445:3733   */\n      pop\n        /* \"#utility.yul\":3800:3802   */\n      0x60\n        /* \"#utility.yul\":3789:3798   */\n      dup6\n        /* \"#utility.yul\":3785:3803   */\n      add\n        /* \"#utility.yul\":3772:3804   */\n      calldataload\n        /* \"#utility.yul\":3831:3849   */\n      0xffffffffffffffff\n        /* \"#utility.yul\":3823:3829   */\n      dup2\n        /* \"#utility.yul\":3820:3850   */\n      gt\n        /* \"#utility.yul\":3817:3934   */\n      iszero\n      tag_279\n      jumpi\n        /* \"#utility.yul\":3853:3932   */\n      tag_280\n      tag_177\n      jump\t// in\n    tag_280:\n        /* \"#utility.yul\":3817:3934   */\n    tag_279:\n        /* \"#utility.yul\":3958:4021   */\n      tag_281\n        /* \"#utility.yul\":4013:4020   */\n      dup8\n        /* \"#utility.yul\":4004:4010   */\n      dup3\n        /* \"#utility.yul\":3993:4002   */\n      dup9\n        /* \"#utility.yul\":3989:4011   */\n      add\n        /* \"#utility.yul\":3958:4021   */\n      tag_187\n      jump\t// in\n    tag_281:\n        /* \"#utility.yul\":3948:4021   */\n      swap2\n      pop\n        /* \"#utility.yul\":3743:4031   */\n      pop\n        /* \"#utility.yul\":2553:4038   */\n      swap3\n      swap6\n      swap2\n      swap5\n      pop\n      swap3\n      pop\n      jump\t// out\n        /* \"#utility.yul\":4044:4121   */\n    tag_188:\n        /* \"#utility.yul\":4081:4088   */\n      0x00\n        /* \"#utility.yul\":4110:4115   */\n      dup2\n        /* \"#utility.yul\":4099:4115   */\n      swap1\n      pop\n        /* \"#utility.yul\":4044:4121   */\n      swap2\n      swap1\n      pop\n      jump\t// out\n        /* \"#utility.yul\":4127:4249   */\n    tag_189:\n        /* \"#utility.yul\":4200:4224   */\n      tag_284\n        /* \"#utility.yul\":4218:4223   */\n      dup2\n        /* \"#utility.yul\":4200:4224   */\n      tag_188\n      jump\t// in\n    tag_284:\n        /* \"#utility.yul\":4193:4198   */\n      dup2\n        /* \"#utility.yul\":4190:4225   */\n      eq\n        /* \"#utility.yul\":4180:4243   */\n      tag_285\n      jumpi\n        /* \"#utility.yul\":4239:4240   */\n      0x00\n        /* \"#utility.yul\":4236:4237   */\n      dup1\n        /* \"#utility.yul\":4229:4241   */\n      revert\n        /* \"#utility.yul\":4180:4243   */\n    tag_285:\n        /* \"#utility.yul\":4127:4249   */\n      pop\n      jump\t// out\n        /* \"#utility.yul\":4255:4394   */\n    tag_190:\n        /* \"#utility.yul\":4301:4306   */\n      0x00\n        /* \"#utility.yul\":4339:4345   */\n      dup2\n        /* \"#utility.yul\":4326:4346   */\n      calldataload\n        /* \"#utility.yul\":4317:4346   */\n      swap1\n      pop\n        /* \"#utility.yul\":4355:4388   */\n      tag_287\n        /* \"#utility.yul\":4382:4387   */\n      dup2\n        /* \"#utility.yul\":4355:4388   */\n      tag_189\n      jump\t// in\n    tag_287:\n        /* \"#utility.yul\":4255:4394   */\n      swap3\n      swap2\n      pop\n      pop\n      jump\t// out\n        /* \"#utility.yul\":4400:4729   */\n    tag_20:\n        /* \"#utility.yul\":4459:4465   */\n      0x00\n        /* \"#utility.yul\":4508:4510   */\n      0x20\n        /* \"#utility.yul\":4496:4505   */\n      dup3\n        /* \"#utility.yul\":4487:4494   */\n      dup5\n        /* \"#utility.yul\":4483:4506   */\n      sub\n        /* \"#utility.yul\":4479:4511   */\n      slt\n        /* \"#utility.yul\":4476:4595   */\n      iszero\n      tag_289\n      jumpi\n        /* \"#utility.yul\":4514:4593   */\n      tag_290\n      tag_176\n      jump\t// in\n    tag_290:\n        /* \"#utility.yul\":4476:4595   */\n    tag_289:\n        /* \"#utility.yul\":4634:4635   */\n      0x00\n        /* \"#utility.yul\":4659:4712   */\n      tag_291\n        /* \"#utility.yul\":4704:4711   */\n      dup5\n        /* \"#utility.yul\":4695:4701   */\n      dup3\n        /* \"#utility.yul\":4684:4693   */\n      dup6\n        /* \"#utility.yul\":4680:4702   */\n      add\n        /* \"#utility.yul\":4659:4712   */\n      tag_190\n      jump\t// in\n    tag_291:\n        /* \"#utility.yul\":4649:4712   */\n      swap2\n      pop\n        /* \"#utility.yul\":4605:4722   */\n      pop\n        /* \"#utility.yul\":4400:4729   */\n      swap3\n      swap2\n      pop\n      pop\n      jump\t// out\n        /* \"#utility.yul\":4735:4853   */\n    tag_191:\n        /* \"#utility.yul\":4822:4846   */\n      tag_293\n        /* \"#utility.yul\":4840:4845   */\n      dup2\n        /* \"#utility.yul\":4822:4846   */\n      tag_188\n      jump\t// in\n    tag_293:\n        /* \"#utility.yul\":4817:4820   */\n      dup3\n        /* \"#utility.yul\":4810:4847   */\n      mstore\n        /* \"#utility.yul\":4735:4853   */\n      pop\n      pop\n      jump\t// out\n        /* \"#utility.yul\":4859:4958   */\n    tag_192:\n        /* \"#utility.yul\":4911:4917   */\n      0x00\n        /* \"#utility.yul\":4945:4950   */\n      dup2\n        /* \"#utility.yul\":4939:4951   */\n      mload\n        /* \"#utility.yul\":4929:4951   */\n      swap1\n      pop\n        /* \"#utility.yul\":4859:4958   */\n      swap2\n      swap1\n      pop\n      jump\t// out\n        /* \"#utility.yul\":4964:5133   */\n    tag_193:\n        /* \"#utility.yul\":5048:5059   */\n      0x00\n        /* \"#utility.yul\":5082:5088   */\n      dup3\n        /* \"#utility.yul\":5077:5080   */\n      dup3\n        /* \"#utility.yul\":5070:5089   */\n      mstore\n        /* \"#utility.yul\":5122:5126   */\n      0x20\n        /* \"#utility.yul\":5117:5120   */\n      dup3\n        /* \"#utility.yul\":5113:5127   */\n      add\n        /* \"#utility.yul\":5098:5127   */\n      swap1\n      pop\n        /* \"#utility.yul\":4964:5133   */\n      swap3\n      swap2\n      pop\n      pop\n      jump\t// out\n        /* \"#utility.yul\":5139:5385   */\n    tag_194:\n        /* \"#utility.yul\":5220:5221   */\n      0x00\n        /* \"#utility.yul\":5230:5343   */\n    tag_297:\n        /* \"#utility.yul\":5244:5250   */\n      dup4\n        /* \"#utility.yul\":5241:5242   */\n      dup2\n        /* \"#utility.yul\":5238:5251   */\n      lt\n        /* \"#utility.yul\":5230:5343   */\n      iszero\n      tag_299\n      jumpi\n        /* \"#utility.yul\":5329:5330   */\n      dup1\n        /* \"#utility.yul\":5324:5327   */\n      dup3\n        /* \"#utility.yul\":5320:5331   */\n      add\n        /* \"#utility.yul\":5314:5332   */\n      mload\n        /* \"#utility.yul\":5310:5311   */\n      dup2\n        /* \"#utility.yul\":5305:5308   */\n      dup5\n        /* \"#utility.yul\":5301:5312   */\n      add\n        /* \"#utility.yul\":5294:5333   */\n      mstore\n        /* \"#utility.yul\":5266:5268   */\n      0x20\n        /* \"#utility.yul\":5263:5264   */\n      dup2\n        /* \"#utility.yul\":5259:5269   */\n      add\n        /* \"#utility.yul\":5254:5269   */\n      swap1\n      pop\n        /* \"#utility.yul\":5230:5343   */\n      jump(tag_297)\n    tag_299:\n        /* \"#utility.yul\":5377:5378   */\n      0x00\n        /* \"#utility.yul\":5368:5374   */\n      dup5\n        /* \"#utility.yul\":5363:5366   */\n      dup5\n        /* \"#utility.yul\":5359:5375   */\n      add\n        /* \"#utility.yul\":5352:5379   */\n      mstore\n        /* \"#utility.yul\":5201:5385   */\n      pop\n        /* \"#utility.yul\":5139:5385   */\n      pop\n      pop\n      pop\n      jump\t// out\n        /* \"#utility.yul\":5391:5768   */\n    tag_195:\n        /* \"#utility.yul\":5479:5482   */\n      0x00\n        /* \"#utility.yul\":5507:5546   */\n      tag_301\n        /* \"#utility.yul\":5540:5545   */\n      dup3\n        /* \"#utility.yul\":5507:5546   */\n      tag_192\n      jump\t// in\n    tag_301:\n        /* \"#utility.yul\":5562:5633   */\n      tag_302\n        /* \"#utility.yul\":5626:5632   */\n      dup2\n        /* \"#utility.yul\":5621:5624   */\n      dup6\n        /* \"#utility.yul\":5562:5633   */\n      tag_193\n      jump\t// in\n    tag_302:\n        /* \"#utility.yul\":5555:5633   */\n      swap4\n      pop\n        /* \"#utility.yul\":5642:5707   */\n      tag_303\n        /* \"#utility.yul\":5700:5706   */\n      dup2\n        /* \"#utility.yul\":5695:5698   */\n      dup6\n        /* \"#utility.yul\":5688:5692   */\n      0x20\n        /* \"#utility.yul\":5681:5686   */\n      dup7\n        /* \"#utility.yul\":5677:5693   */\n      add\n        /* \"#utility.yul\":5642:5707   */\n      tag_194\n      jump\t// in\n    tag_303:\n        /* \"#utility.yul\":5732:5761   */\n      tag_304\n        /* \"#utility.yul\":5754:5760   */\n      dup2\n        /* \"#utility.yul\":5732:5761   */\n      tag_180\n      jump\t// in\n    tag_304:\n        /* \"#utility.yul\":5727:5730   */\n      dup5\n        /* \"#utility.yul\":5723:5762   */\n      add\n        /* \"#utility.yul\":5716:5762   */\n      swap2\n      pop\n        /* \"#utility.yul\":5483:5768   */\n      pop\n        /* \"#utility.yul\":5391:5768   */\n      swap3\n      swap2\n      pop\n      pop\n      jump\t// out\n        /* \"#utility.yul\":5774:6197   */\n    tag_23:\n        /* \"#utility.yul\":5915:5919   */\n      0x00\n        /* \"#utility.yul\":5953:5955   */\n      0x40\n        /* \"#utility.yul\":5942:5951   */\n      dup3\n        /* \"#utility.yul\":5938:5956   */\n      add\n        /* \"#utility.yul\":5930:5956   */\n      swap1\n      pop\n        /* \"#utility.yul\":5966:6037   */\n      tag_306\n        /* \"#utility.yul\":6034:6035   */\n      0x00\n        /* \"#utility.yul\":6023:6032   */\n      dup4\n        /* \"#utility.yul\":6019:6036   */\n      add\n        /* \"#utility.yul\":6010:6016   */\n      dup6\n        /* \"#utility.yul\":5966:6037   */\n      tag_191\n      jump\t// in\n    tag_306:\n        /* \"#utility.yul\":6084:6093   */\n      dup2\n        /* \"#utility.yul\":6078:6082   */\n      dup2\n        /* \"#utility.yul\":6074:6094   */\n      sub\n        /* \"#utility.yul\":6069:6071   */\n      0x20\n        /* \"#utility.yul\":6058:6067   */\n      dup4\n        /* \"#utility.yul\":6054:6072   */\n      add\n        /* \"#utility.yul\":6047:6095   */\n      mstore\n        /* \"#utility.yul\":6112:6190   */\n      tag_307\n        /* \"#utility.yul\":6185:6189   */\n      dup2\n        /* \"#utility.yul\":6176:6182   */\n      dup5\n        /* \"#utility.yul\":6112:6190   */\n      tag_195\n      jump\t// in\n    tag_307:\n        /* \"#utility.yul\":6104:6190   */\n      swap1\n      pop\n        /* \"#utility.yul\":5774:6197   */\n      swap4\n      swap3\n      pop\n      pop\n      pop\n      jump\t// out\n        /* \"#utility.yul\":6203:7037   */\n    tag_26:\n        /* \"#utility.yul\":6291:6297   */\n      0x00\n        /* \"#utility.yul\":6299:6305   */\n      dup1\n        /* \"#utility.yul\":6348:6350   */\n      0x40\n        /* \"#utility.yul\":6336:6345   */\n      dup4\n        /* \"#utility.yul\":6327:6334   */\n      dup6\n        /* \"#utility.yul\":6323:6346   */\n      sub\n        /* \"#utility.yul\":6319:6351   */\n      slt\n        /* \"#utility.yul\":6316:6435   */\n      iszero\n      tag_309\n      jumpi\n        /* \"#utility.yul\":6354:6433   */\n      tag_310\n      tag_176\n      jump\t// in\n    tag_310:\n        /* \"#utility.yul\":6316:6435   */\n    tag_309:\n        /* \"#utility.yul\":6502:6503   */\n      0x00\n        /* \"#utility.yul\":6491:6500   */\n      dup4\n        /* \"#utility.yul\":6487:6504   */\n      add\n        /* \"#utility.yul\":6474:6505   */\n      calldataload\n        /* \"#utility.yul\":6532:6550   */\n      0xffffffffffffffff\n        /* \"#utility.yul\":6524:6530   */\n      dup2\n        /* \"#utility.yul\":6521:6551   */\n      gt\n        /* \"#utility.yul\":6518:6635   */\n      iszero\n      tag_311\n      jumpi\n        /* \"#utility.yul\":6554:6633   */\n      tag_312\n      tag_177\n      jump\t// in\n    tag_312:\n        /* \"#utility.yul\":6518:6635   */\n    tag_311:\n        /* \"#utility.yul\":6659:6722   */\n      tag_313\n        /* \"#utility.yul\":6714:6721   */\n      dup6\n        /* \"#utility.yul\":6705:6711   */\n      dup3\n        /* \"#utility.yul\":6694:6703   */\n      dup7\n        /* \"#utility.yul\":6690:6712   */\n      add\n        /* \"#utility.yul\":6659:6722   */\n      tag_187\n      jump\t// in\n    tag_313:\n        /* \"#utility.yul\":6649:6722   */\n      swap3\n      pop\n        /* \"#utility.yul\":6445:6732   */\n      pop\n        /* \"#utility.yul\":6799:6801   */\n      0x20\n        /* \"#utility.yul\":6788:6797   */\n      dup4\n        /* \"#utility.yul\":6784:6802   */\n      add\n        /* \"#utility.yul\":6771:6803   */\n      calldataload\n        /* \"#utility.yul\":6830:6848   */\n      0xffffffffffffffff\n        /* \"#utility.yul\":6822:6828   */\n      dup2\n        /* \"#utility.yul\":6819:6849   */\n      gt\n        /* \"#utility.yul\":6816:6933   */\n      iszero\n      tag_314\n      jumpi\n        /* \"#utility.yul\":6852:6931   */\n      tag_315\n      tag_177\n      jump\t// in\n    tag_315:\n        /* \"#utility.yul\":6816:6933   */\n    tag_314:\n        /* \"#utility.yul\":6957:7020   */\n      tag_316\n        /* \"#utility.yul\":7012:7019   */\n      dup6\n        /* \"#utility.yul\":7003:7009   */\n      dup3\n        /* \"#utility.yul\":6992:7001   */\n      dup7\n        /* \"#utility.yul\":6988:7010   */\n      add\n        /* \"#utility.yul\":6957:7020   */\n      tag_187\n      jump\t// in\n    tag_316:\n        /* \"#utility.yul\":6947:7020   */\n      swap2\n      pop\n        /* \"#utility.yul\":6742:7030   */\n      pop\n        /* \"#utility.yul\":6203:7037   */\n      swap3\n      pop\n      swap3\n      swap1\n      pop\n      jump\t// out\n        /* \"#utility.yul\":7043:7181   */\n    tag_196:\n        /* \"#utility.yul\":7134:7140   */\n      0x00\n        /* \"#utility.yul\":7168:7173   */\n      dup2\n        /* \"#utility.yul\":7162:7174   */\n      mload\n        /* \"#utility.yul\":7152:7174   */\n      swap1\n      pop\n        /* \"#utility.yul\":7043:7181   */\n      swap2\n      swap1\n      pop\n      jump\t// out\n        /* \"#utility.yul\":7187:7395   */\n    tag_197:\n        /* \"#utility.yul\":7310:7321   */\n      0x00\n        /* \"#utility.yul\":7344:7350   */\n      dup3\n        /* \"#utility.yul\":7339:7342   */\n      dup3\n        /* \"#utility.yul\":7332:7351   */\n      mstore\n        /* \"#utility.yul\":7384:7388   */\n      0x20\n        /* \"#utility.yul\":7379:7382   */\n      dup3\n        /* \"#utility.yul\":7375:7389   */\n      add\n        /* \"#utility.yul\":7360:7389   */\n      swap1\n      pop\n        /* \"#utility.yul\":7187:7395   */\n      swap3\n      swap2\n      pop\n      pop\n      jump\t// out\n        /* \"#utility.yul\":7401:7557   */\n    tag_198:\n        /* \"#utility.yul\":7492:7496   */\n      0x00\n        /* \"#utility.yul\":7515:7518   */\n      dup2\n        /* \"#utility.yul\":7507:7518   */\n      swap1\n      pop\n        /* \"#utility.yul\":7545:7549   */\n      0x20\n        /* \"#utility.yul\":7540:7543   */\n      dup3\n        /* \"#utility.yul\":7536:7550   */\n      add\n        /* \"#utility.yul\":7528:7550   */\n      swap1\n      pop\n        /* \"#utility.yul\":7401:7557   */\n      swap2\n      swap1\n      pop\n      jump\t// out\n        /* \"#utility.yul\":7563:7671   */\n    tag_199:\n        /* \"#utility.yul\":7640:7664   */\n      tag_321\n        /* \"#utility.yul\":7658:7663   */\n      dup2\n        /* \"#utility.yul\":7640:7664   */\n      tag_188\n      jump\t// in\n    tag_321:\n        /* \"#utility.yul\":7635:7638   */\n      dup3\n        /* \"#utility.yul\":7628:7665   */\n      mstore\n        /* \"#utility.yul\":7563:7671   */\n      pop\n      pop\n      jump\t// out\n        /* \"#utility.yul\":7677:7836   */\n    tag_200:\n        /* \"#utility.yul\":7751:7762   */\n      0x00\n        /* \"#utility.yul\":7785:7791   */\n      dup3\n        /* \"#utility.yul\":7780:7783   */\n      dup3\n        /* \"#utility.yul\":7773:7792   */\n      mstore\n        /* \"#utility.yul\":7825:7829   */\n      0x20\n        /* \"#utility.yul\":7820:7823   */\n      dup3\n        /* \"#utility.yul\":7816:7830   */\n      add\n        /* \"#utility.yul\":7801:7830   */\n      swap1\n      pop\n        /* \"#utility.yul\":7677:7836   */\n      swap3\n      swap2\n      pop\n      pop\n      jump\t// out\n        /* \"#utility.yul\":7842:8199   */\n    tag_201:\n        /* \"#utility.yul\":7920:7923   */\n      0x00\n        /* \"#utility.yul\":7948:7987   */\n      tag_324\n        /* \"#utility.yul\":7981:7986   */\n      dup3\n        /* \"#utility.yul\":7948:7987   */\n      tag_192\n      jump\t// in\n    tag_324:\n        /* \"#utility.yul\":8003:8064   */\n      tag_325\n        /* \"#utility.yul\":8057:8063   */\n      dup2\n        /* \"#utility.yul\":8052:8055   */\n      dup6\n        /* \"#utility.yul\":8003:8064   */\n      tag_200\n      jump\t// in\n    tag_325:\n        /* \"#utility.yul\":7996:8064   */\n      swap4\n      pop\n        /* \"#utility.yul\":8073:8138   */\n      tag_326\n        /* \"#utility.yul\":8131:8137   */\n      dup2\n        /* \"#utility.yul\":8126:8129   */\n      dup6\n        /* \"#utility.yul\":8119:8123   */\n      0x20\n        /* \"#utility.yul\":8112:8117   */\n      dup7\n        /* \"#utility.yul\":8108:8124   */\n      add\n        /* \"#utility.yul\":8073:8138   */\n      tag_194\n      jump\t// in\n    tag_326:\n        /* \"#utility.yul\":8163:8192   */\n      tag_327\n        /* \"#utility.yul\":8185:8191   */\n      dup2\n        /* \"#utility.yul\":8163:8192   */\n      tag_180\n      jump\t// in\n    tag_327:\n        /* \"#utility.yul\":8158:8161   */\n      dup5\n        /* \"#utility.yul\":8154:8193   */\n      add\n        /* \"#utility.yul\":8147:8193   */\n      swap2\n      pop\n        /* \"#utility.yul\":7924:8199   */\n      pop\n        /* \"#utility.yul\":7842:8199   */\n      swap3\n      swap2\n      pop\n      pop\n      jump\t// out\n        /* \"#utility.yul\":8259:9593   */\n    tag_202:\n        /* \"#utility.yul\":8366:8369   */\n      0x00\n        /* \"#utility.yul\":8402:8406   */\n      0xa0\n        /* \"#utility.yul\":8397:8400   */\n      dup4\n        /* \"#utility.yul\":8393:8407   */\n      add\n        /* \"#utility.yul\":8487:8491   */\n      0x00\n        /* \"#utility.yul\":8480:8485   */\n      dup4\n        /* \"#utility.yul\":8476:8492   */\n      add\n        /* \"#utility.yul\":8470:8493   */\n      mload\n        /* \"#utility.yul\":8506:8569   */\n      tag_329\n        /* \"#utility.yul\":8563:8567   */\n      0x00\n        /* \"#utility.yul\":8558:8561   */\n      dup7\n        /* \"#utility.yul\":8554:8568   */\n      add\n        /* \"#utility.yul\":8540:8552   */\n      dup3\n        /* \"#utility.yul\":8506:8569   */\n      tag_199\n      jump\t// in\n    tag_329:\n        /* \"#utility.yul\":8417:8579   */\n      pop\n        /* \"#utility.yul\":8661:8665   */\n      0x20\n        /* \"#utility.yul\":8654:8659   */\n      dup4\n        /* \"#utility.yul\":8650:8666   */\n      add\n        /* \"#utility.yul\":8644:8667   */\n      mload\n        /* \"#utility.yul\":8714:8717   */\n      dup5\n        /* \"#utility.yul\":8708:8712   */\n      dup3\n        /* \"#utility.yul\":8704:8718   */\n      sub\n        /* \"#utility.yul\":8697:8701   */\n      0x20\n        /* \"#utility.yul\":8692:8695   */\n      dup7\n        /* \"#utility.yul\":8688:8702   */\n      add\n        /* \"#utility.yul\":8681:8719   */\n      mstore\n        /* \"#utility.yul\":8740:8813   */\n      tag_330\n        /* \"#utility.yul\":8808:8812   */\n      dup3\n        /* \"#utility.yul\":8794:8806   */\n      dup3\n        /* \"#utility.yul\":8740:8813   */\n      tag_201\n      jump\t// in\n    tag_330:\n        /* \"#utility.yul\":8732:8813   */\n      swap2\n      pop\n        /* \"#utility.yul\":8589:8824   */\n      pop\n        /* \"#utility.yul\":8912:8916   */\n      0x40\n        /* \"#utility.yul\":8905:8910   */\n      dup4\n        /* \"#utility.yul\":8901:8917   */\n      add\n        /* \"#utility.yul\":8895:8918   */\n      mload\n        /* \"#utility.yul\":8965:8968   */\n      dup5\n        /* \"#utility.yul\":8959:8963   */\n      dup3\n        /* \"#utility.yul\":8955:8969   */\n      sub\n        /* \"#utility.yul\":8948:8952   */\n      0x40\n        /* \"#utility.yul\":8943:8946   */\n      dup7\n        /* \"#utility.yul\":8939:8953   */\n      add\n        /* \"#utility.yul\":8932:8970   */\n      mstore\n        /* \"#utility.yul\":8991:9064   */\n      tag_331\n        /* \"#utility.yul\":9059:9063   */\n      dup3\n        /* \"#utility.yul\":9045:9057   */\n      dup3\n        /* \"#utility.yul\":8991:9064   */\n      tag_201\n      jump\t// in\n    tag_331:\n        /* \"#utility.yul\":8983:9064   */\n      swap2\n      pop\n        /* \"#utility.yul\":8834:9075   */\n      pop\n        /* \"#utility.yul\":9158:9162   */\n      0x60\n        /* \"#utility.yul\":9151:9156   */\n      dup4\n        /* \"#utility.yul\":9147:9163   */\n      add\n        /* \"#utility.yul\":9141:9164   */\n      mload\n        /* \"#utility.yul\":9211:9214   */\n      dup5\n        /* \"#utility.yul\":9205:9209   */\n      dup3\n        /* \"#utility.yul\":9201:9215   */\n      sub\n        /* \"#utility.yul\":9194:9198   */\n      0x60\n        /* \"#utility.yul\":9189:9192   */\n      dup7\n        /* \"#utility.yul\":9185:9199   */\n      add\n        /* \"#utility.yul\":9178:9216   */\n      mstore\n        /* \"#utility.yul\":9237:9310   */\n      tag_332\n        /* \"#utility.yul\":9305:9309   */\n      dup3\n        /* \"#utility.yul\":9291:9303   */\n      dup3\n        /* \"#utility.yul\":9237:9310   */\n      tag_201\n      jump\t// in\n    tag_332:\n        /* \"#utility.yul\":9229:9310   */\n      swap2\n      pop\n        /* \"#utility.yul\":9085:9321   */\n      pop\n        /* \"#utility.yul\":9403:9407   */\n      0x80\n        /* \"#utility.yul\":9396:9401   */\n      dup4\n        /* \"#utility.yul\":9392:9408   */\n      add\n        /* \"#utility.yul\":9386:9409   */\n      mload\n        /* \"#utility.yul\":9456:9459   */\n      dup5\n        /* \"#utility.yul\":9450:9454   */\n      dup3\n        /* \"#utility.yul\":9446:9460   */\n      sub\n        /* \"#utility.yul\":9439:9443   */\n      0x80\n        /* \"#utility.yul\":9434:9437   */\n      dup7\n        /* \"#utility.yul\":9430:9444   */\n      add\n        /* \"#utility.yul\":9423:9461   */\n      mstore\n        /* \"#utility.yul\":9482:9555   */\n      tag_333\n        /* \"#utility.yul\":9550:9554   */\n      dup3\n        /* \"#utility.yul\":9536:9548   */\n      dup3\n        /* \"#utility.yul\":9482:9555   */\n      tag_201\n      jump\t// in\n    tag_333:\n        /* \"#utility.yul\":9474:9555   */\n      swap2\n      pop\n        /* \"#utility.yul\":9331:9566   */\n      pop\n        /* \"#utility.yul\":9583:9587   */\n      dup1\n        /* \"#utility.yul\":9576:9587   */\n      swap2\n      pop\n        /* \"#utility.yul\":8371:9593   */\n      pop\n        /* \"#utility.yul\":8259:9593   */\n      swap3\n      swap2\n      pop\n      pop\n      jump\t// out\n        /* \"#utility.yul\":9599:9851   */\n    tag_203:\n        /* \"#utility.yul\":9716:9726   */\n      0x00\n        /* \"#utility.yul\":9751:9845   */\n      tag_335\n        /* \"#utility.yul\":9841:9844   */\n      dup4\n        /* \"#utility.yul\":9833:9839   */\n      dup4\n        /* \"#utility.yul\":9751:9845   */\n      tag_202\n      jump\t// in\n    tag_335:\n        /* \"#utility.yul\":9737:9845   */\n      swap1\n      pop\n        /* \"#utility.yul\":9599:9851   */\n      swap3\n      swap2\n      pop\n      pop\n      jump\t// out\n        /* \"#utility.yul\":9857:9994   */\n    tag_204:\n        /* \"#utility.yul\":9951:9955   */\n      0x00\n        /* \"#utility.yul\":9983:9987   */\n      0x20\n        /* \"#utility.yul\":9978:9981   */\n      dup3\n        /* \"#utility.yul\":9974:9988   */\n      add\n        /* \"#utility.yul\":9966:9988   */\n      swap1\n      pop\n        /* \"#utility.yul\":9857:9994   */\n      swap2\n      swap1\n      pop\n      jump\t// out\n        /* \"#utility.yul\":10058:11161   */\n    tag_205:\n        /* \"#utility.yul\":10225:10228   */\n      0x00\n        /* \"#utility.yul\":10254:10332   */\n      tag_338\n        /* \"#utility.yul\":10326:10331   */\n      dup3\n        /* \"#utility.yul\":10254:10332   */\n      tag_196\n      jump\t// in\n    tag_338:\n        /* \"#utility.yul\":10348:10458   */\n      tag_339\n        /* \"#utility.yul\":10451:10457   */\n      dup2\n        /* \"#utility.yul\":10446:10449   */\n      dup6\n        /* \"#utility.yul\":10348:10458   */\n      tag_197\n      jump\t// in\n    tag_339:\n        /* \"#utility.yul\":10341:10458   */\n      swap4\n      pop\n        /* \"#utility.yul\":10484:10487   */\n      dup4\n        /* \"#utility.yul\":10529:10533   */\n      0x20\n        /* \"#utility.yul\":10521:10527   */\n      dup3\n        /* \"#utility.yul\":10517:10534   */\n      mul\n        /* \"#utility.yul\":10512:10515   */\n      dup6\n        /* \"#utility.yul\":10508:10535   */\n      add\n        /* \"#utility.yul\":10559:10639   */\n      tag_340\n        /* \"#utility.yul\":10633:10638   */\n      dup6\n        /* \"#utility.yul\":10559:10639   */\n      tag_198\n      jump\t// in\n    tag_340:\n        /* \"#utility.yul\":10662:10669   */\n      dup1\n        /* \"#utility.yul\":10693:10694   */\n      0x00\n        /* \"#utility.yul\":10678:11116   */\n    tag_341:\n        /* \"#utility.yul\":10703:10709   */\n      dup6\n        /* \"#utility.yul\":10700:10701   */\n      dup2\n        /* \"#utility.yul\":10697:10710   */\n      lt\n        /* \"#utility.yul\":10678:11116   */\n      iszero\n      tag_343\n      jumpi\n        /* \"#utility.yul\":10774:10783   */\n      dup5\n        /* \"#utility.yul\":10768:10772   */\n      dup5\n        /* \"#utility.yul\":10764:10784   */\n      sub\n        /* \"#utility.yul\":10759:10762   */\n      dup10\n        /* \"#utility.yul\":10752:10785   */\n      mstore\n        /* \"#utility.yul\":10825:10831   */\n      dup2\n        /* \"#utility.yul\":10819:10832   */\n      mload\n        /* \"#utility.yul\":10853:10965   */\n      tag_344\n        /* \"#utility.yul\":10960:10964   */\n      dup6\n        /* \"#utility.yul\":10945:10958   */\n      dup3\n        /* \"#utility.yul\":10853:10965   */\n      tag_203\n      jump\t// in\n    tag_344:\n        /* \"#utility.yul\":10845:10965   */\n      swap5\n      pop\n        /* \"#utility.yul\":10988:11072   */\n      tag_345\n        /* \"#utility.yul\":11065:11071   */\n      dup4\n        /* \"#utility.yul\":10988:11072   */\n      tag_204\n      jump\t// in\n    tag_345:\n        /* \"#utility.yul\":10978:11072   */\n      swap3\n      pop\n        /* \"#utility.yul\":11101:11105   */\n      0x20\n        /* \"#utility.yul\":11096:11099   */\n      dup11\n        /* \"#utility.yul\":11092:11106   */\n      add\n        /* \"#utility.yul\":11085:11106   */\n      swap10\n      pop\n        /* \"#utility.yul\":10738:11116   */\n      pop\n        /* \"#utility.yul\":10725:10726   */\n      0x01\n        /* \"#utility.yul\":10722:10723   */\n      dup2\n        /* \"#utility.yul\":10718:10727   */\n      add\n        /* \"#utility.yul\":10713:10727   */\n      swap1\n      pop\n        /* \"#utility.yul\":10678:11116   */\n      jump(tag_341)\n    tag_343:\n        /* \"#utility.yul\":10682:10696   */\n      pop\n        /* \"#utility.yul\":11132:11136   */\n      dup3\n        /* \"#utility.yul\":11125:11136   */\n      swap8\n      pop\n        /* \"#utility.yul\":11152:11155   */\n      dup8\n        /* \"#utility.yul\":11145:11155   */\n      swap6\n      pop\n        /* \"#utility.yul\":10230:11161   */\n      pop\n      pop\n      pop\n      pop\n      pop\n        /* \"#utility.yul\":10058:11161   */\n      swap3\n      swap2\n      pop\n      pop\n      jump\t// out\n        /* \"#utility.yul\":11167:11636   */\n    tag_31:\n        /* \"#utility.yul\":11358:11362   */\n      0x00\n        /* \"#utility.yul\":11396:11398   */\n      0x20\n        /* \"#utility.yul\":11385:11394   */\n      dup3\n        /* \"#utility.yul\":11381:11399   */\n      add\n        /* \"#utility.yul\":11373:11399   */\n      swap1\n      pop\n        /* \"#utility.yul\":11445:11454   */\n      dup2\n        /* \"#utility.yul\":11439:11443   */\n      dup2\n        /* \"#utility.yul\":11435:11455   */\n      sub\n        /* \"#utility.yul\":11431:11432   */\n      0x00\n        /* \"#utility.yul\":11420:11429   */\n      dup4\n        /* \"#utility.yul\":11416:11433   */\n      add\n        /* \"#utility.yul\":11409:11456   */\n      mstore\n        /* \"#utility.yul\":11473:11629   */\n      tag_347\n        /* \"#utility.yul\":11624:11628   */\n      dup2\n        /* \"#utility.yul\":11615:11621   */\n      dup5\n        /* \"#utility.yul\":11473:11629   */\n      tag_205\n      jump\t// in\n    tag_347:\n        /* \"#utility.yul\":11465:11629   */\n      swap1\n      pop\n        /* \"#utility.yul\":11167:11636   */\n      swap3\n      swap2\n      pop\n      pop\n      jump\t// out\n        /* \"#utility.yul\":11642:11955   */\n    tag_36:\n        /* \"#utility.yul\":11755:11759   */\n      0x00\n        /* \"#utility.yul\":11793:11795   */\n      0x20\n        /* \"#utility.yul\":11782:11791   */\n      dup3\n        /* \"#utility.yul\":11778:11796   */\n      add\n        /* \"#utility.yul\":11770:11796   */\n      swap1\n      pop\n        /* \"#utility.yul\":11842:11851   */\n      dup2\n        /* \"#utility.yul\":11836:11840   */\n      dup2\n        /* \"#utility.yul\":11832:11852   */\n      sub\n        /* \"#utility.yul\":11828:11829   */\n      0x00\n        /* \"#utility.yul\":11817:11826   */\n      dup4\n        /* \"#utility.yul\":11813:11830   */\n      add\n        /* \"#utility.yul\":11806:11853   */\n      mstore\n        /* \"#utility.yul\":11870:11948   */\n      tag_349\n        /* \"#utility.yul\":11943:11947   */\n      dup2\n        /* \"#utility.yul\":11934:11940   */\n      dup5\n        /* \"#utility.yul\":11870:11948   */\n      tag_195\n      jump\t// in\n    tag_349:\n        /* \"#utility.yul\":11862:11948   */\n      swap1\n      pop\n        /* \"#utility.yul\":11642:11955   */\n      swap3\n      swap2\n      pop\n      pop\n      jump\t// out\n        /* \"#utility.yul\":11961:12098   */\n    tag_206:\n        /* \"#utility.yul\":12051:12057   */\n      0x00\n        /* \"#utility.yul\":12085:12090   */\n      dup2\n        /* \"#utility.yul\":12079:12091   */\n      mload\n        /* \"#utility.yul\":12069:12091   */\n      swap1\n      pop\n        /* \"#utility.yul\":11961:12098   */\n      swap2\n      swap1\n      pop\n      jump\t// out\n        /* \"#utility.yul\":12104:12311   */\n    tag_207:\n        /* \"#utility.yul\":12226:12237   */\n      0x00\n        /* \"#utility.yul\":12260:12266   */\n      dup3\n        /* \"#utility.yul\":12255:12258   */\n      dup3\n        /* \"#utility.yul\":12248:12267   */\n      mstore\n        /* \"#utility.yul\":12300:12304   */\n      0x20\n        /* \"#utility.yul\":12295:12298   */\n      dup3\n        /* \"#utility.yul\":12291:12305   */\n      add\n        /* \"#utility.yul\":12276:12305   */\n      swap1\n      pop\n        /* \"#utility.yul\":12104:12311   */\n      swap3\n      swap2\n      pop\n      pop\n      jump\t// out\n        /* \"#utility.yul\":12317:12472   */\n    tag_208:\n        /* \"#utility.yul\":12407:12411   */\n      0x00\n        /* \"#utility.yul\":12430:12433   */\n      dup2\n        /* \"#utility.yul\":12422:12433   */\n      swap1\n      pop\n        /* \"#utility.yul\":12460:12464   */\n      0x20\n        /* \"#utility.yul\":12455:12458   */\n      dup3\n        /* \"#utility.yul\":12451:12465   */\n      add\n        /* \"#utility.yul\":12443:12465   */\n      swap1\n      pop\n        /* \"#utility.yul\":12317:12472   */\n      swap2\n      swap1\n      pop\n      jump\t// out\n        /* \"#utility.yul\":12530:13120   */\n    tag_209:\n        /* \"#utility.yul\":12635:12638   */\n      0x00\n        /* \"#utility.yul\":12671:12675   */\n      0x40\n        /* \"#utility.yul\":12666:12669   */\n      dup4\n        /* \"#utility.yul\":12662:12676   */\n      add\n        /* \"#utility.yul\":12756:12760   */\n      0x00\n        /* \"#utility.yul\":12749:12754   */\n      dup4\n        /* \"#utility.yul\":12745:12761   */\n      add\n        /* \"#utility.yul\":12739:12762   */\n      mload\n        /* \"#utility.yul\":12775:12838   */\n      tag_354\n        /* \"#utility.yul\":12832:12836   */\n      0x00\n        /* \"#utility.yul\":12827:12830   */\n      dup7\n        /* \"#utility.yul\":12823:12837   */\n      add\n        /* \"#utility.yul\":12809:12821   */\n      dup3\n        /* \"#utility.yul\":12775:12838   */\n      tag_199\n      jump\t// in\n    tag_354:\n        /* \"#utility.yul\":12686:12848   */\n      pop\n        /* \"#utility.yul\":12930:12934   */\n      0x20\n        /* \"#utility.yul\":12923:12928   */\n      dup4\n        /* \"#utility.yul\":12919:12935   */\n      add\n        /* \"#utility.yul\":12913:12936   */\n      mload\n        /* \"#utility.yul\":12983:12986   */\n      dup5\n        /* \"#utility.yul\":12977:12981   */\n      dup3\n        /* \"#utility.yul\":12973:12987   */\n      sub\n        /* \"#utility.yul\":12966:12970   */\n      0x20\n        /* \"#utility.yul\":12961:12964   */\n      dup7\n        /* \"#utility.yul\":12957:12971   */\n      add\n        /* \"#utility.yul\":12950:12988   */\n      mstore\n        /* \"#utility.yul\":13009:13082   */\n      tag_355\n        /* \"#utility.yul\":13077:13081   */\n      dup3\n        /* \"#utility.yul\":13063:13075   */\n      dup3\n        /* \"#utility.yul\":13009:13082   */\n      tag_201\n      jump\t// in\n    tag_355:\n        /* \"#utility.yul\":13001:13082   */\n      swap2\n      pop\n        /* \"#utility.yul\":12858:13093   */\n      pop\n        /* \"#utility.yul\":13110:13114   */\n      dup1\n        /* \"#utility.yul\":13103:13114   */\n      swap2\n      pop\n        /* \"#utility.yul\":12640:13120   */\n      pop\n        /* \"#utility.yul\":12530:13120   */\n      swap3\n      swap2\n      pop\n      pop\n      jump\t// out\n        /* \"#utility.yul\":13126:13374   */\n    tag_210:\n        /* \"#utility.yul\":13241:13251   */\n      0x00\n        /* \"#utility.yul\":13276:13368   */\n      tag_357\n        /* \"#utility.yul\":13364:13367   */\n      dup4\n        /* \"#utility.yul\":13356:13362   */\n      dup4\n        /* \"#utility.yul\":13276:13368   */\n      tag_209\n      jump\t// in\n    tag_357:\n        /* \"#utility.yul\":13262:13368   */\n      swap1\n      pop\n        /* \"#utility.yul\":13126:13374   */\n      swap3\n      swap2\n      pop\n      pop\n      jump\t// out\n        /* \"#utility.yul\":13380:13516   */\n    tag_211:\n        /* \"#utility.yul\":13473:13477   */\n      0x00\n        /* \"#utility.yul\":13505:13509   */\n      0x20\n        /* \"#utility.yul\":13500:13503   */\n      dup3\n        /* \"#utility.yul\":13496:13510   */\n      add\n        /* \"#utility.yul\":13488:13510   */\n      swap1\n      pop\n        /* \"#utility.yul\":13380:13516   */\n      swap2\n      swap1\n      pop\n      jump\t// out\n        /* \"#utility.yul\":13578:14673   */\n    tag_212:\n        /* \"#utility.yul\":13743:13746   */\n      0x00\n        /* \"#utility.yul\":13772:13849   */\n      tag_360\n        /* \"#utility.yul\":13843:13848   */\n      dup3\n        /* \"#utility.yul\":13772:13849   */\n      tag_206\n      jump\t// in\n    tag_360:\n        /* \"#utility.yul\":13865:13974   */\n      tag_361\n        /* \"#utility.yul\":13967:13973   */\n      dup2\n        /* \"#utility.yul\":13962:13965   */\n      dup6\n        /* \"#utility.yul\":13865:13974   */\n      tag_207\n      jump\t// in\n    tag_361:\n        /* \"#utility.yul\":13858:13974   */\n      swap4\n      pop\n        /* \"#utility.yul\":14000:14003   */\n      dup4\n        /* \"#utility.yul\":14045:14049   */\n      0x20\n        /* \"#utility.yul\":14037:14043   */\n      dup3\n        /* \"#utility.yul\":14033:14050   */\n      mul\n        /* \"#utility.yul\":14028:14031   */\n      dup6\n        /* \"#utility.yul\":14024:14051   */\n      add\n        /* \"#utility.yul\":14075:14154   */\n      tag_362\n        /* \"#utility.yul\":14148:14153   */\n      dup6\n        /* \"#utility.yul\":14075:14154   */\n      tag_208\n      jump\t// in\n    tag_362:\n        /* \"#utility.yul\":14177:14184   */\n      dup1\n        /* \"#utility.yul\":14208:14209   */\n      0x00\n        /* \"#utility.yul\":14193:14628   */\n    tag_363:\n        /* \"#utility.yul\":14218:14224   */\n      dup6\n        /* \"#utility.yul\":14215:14216   */\n      dup2\n        /* \"#utility.yul\":14212:14225   */\n      lt\n        /* \"#utility.yul\":14193:14628   */\n      iszero\n      tag_365\n      jumpi\n        /* \"#utility.yul\":14289:14298   */\n      dup5\n        /* \"#utility.yul\":14283:14287   */\n      dup5\n        /* \"#utility.yul\":14279:14299   */\n      sub\n        /* \"#utility.yul\":14274:14277   */\n      dup10\n        /* \"#utility.yul\":14267:14300   */\n      mstore\n        /* \"#utility.yul\":14340:14346   */\n      dup2\n        /* \"#utility.yul\":14334:14347   */\n      mload\n        /* \"#utility.yul\":14368:14478   */\n      tag_366\n        /* \"#utility.yul\":14473:14477   */\n      dup6\n        /* \"#utility.yul\":14458:14471   */\n      dup3\n        /* \"#utility.yul\":14368:14478   */\n      tag_210\n      jump\t// in\n    tag_366:\n        /* \"#utility.yul\":14360:14478   */\n      swap5\n      pop\n        /* \"#utility.yul\":14501:14584   */\n      tag_367\n        /* \"#utility.yul\":14577:14583   */\n      dup4\n        /* \"#utility.yul\":14501:14584   */\n      tag_211\n      jump\t// in\n    tag_367:\n        /* \"#utility.yul\":14491:14584   */\n      swap3\n      pop\n        /* \"#utility.yul\":14613:14617   */\n      0x20\n        /* \"#utility.yul\":14608:14611   */\n      dup11\n        /* \"#utility.yul\":14604:14618   */\n      add\n        /* \"#utility.yul\":14597:14618   */\n      swap10\n      pop\n        /* \"#utility.yul\":14253:14628   */\n      pop\n        /* \"#utility.yul\":14240:14241   */\n      0x01\n        /* \"#utility.yul\":14237:14238   */\n      dup2\n        /* \"#utility.yul\":14233:14242   */\n      add\n        /* \"#utility.yul\":14228:14242   */\n      swap1\n      pop\n        /* \"#utility.yul\":14193:14628   */\n      jump(tag_363)\n    tag_365:\n        /* \"#utility.yul\":14197:14211   */\n      pop\n        /* \"#utility.yul\":14644:14648   */\n      dup3\n        /* \"#utility.yul\":14637:14648   */\n      swap8\n      pop\n        /* \"#utility.yul\":14664:14667   */\n      dup8\n        /* \"#utility.yul\":14657:14667   */\n      swap6\n      pop\n        /* \"#utility.yul\":13748:14673   */\n      pop\n      pop\n      pop\n      pop\n      pop\n        /* \"#utility.yul\":13578:14673   */\n      swap3\n      swap2\n      pop\n      pop\n      jump\t// out\n        /* \"#utility.yul\":14679:15144   */\n    tag_40:\n        /* \"#utility.yul\":14868:14872   */\n      0x00\n        /* \"#utility.yul\":14906:14908   */\n      0x20\n        /* \"#utility.yul\":14895:14904   */\n      dup3\n        /* \"#utility.yul\":14891:14909   */\n      add\n        /* \"#utility.yul\":14883:14909   */\n      swap1\n      pop\n        /* \"#utility.yul\":14955:14964   */\n      dup2\n        /* \"#utility.yul\":14949:14953   */\n      dup2\n        /* \"#utility.yul\":14945:14965   */\n      sub\n        /* \"#utility.yul\":14941:14942   */\n      0x00\n        /* \"#utility.yul\":14930:14939   */\n      dup4\n        /* \"#utility.yul\":14926:14943   */\n      add\n        /* \"#utility.yul\":14919:14966   */\n      mstore\n        /* \"#utility.yul\":14983:15137   */\n      tag_369\n        /* \"#utility.yul\":15132:15136   */\n      dup2\n        /* \"#utility.yul\":15123:15129   */\n      dup5\n        /* \"#utility.yul\":14983:15137   */\n      tag_212\n      jump\t// in\n    tag_369:\n        /* \"#utility.yul\":14975:15137   */\n      swap1\n      pop\n        /* \"#utility.yul\":14679:15144   */\n      swap3\n      swap2\n      pop\n      pop\n      jump\t// out\n        /* \"#utility.yul\":15150:15664   */\n    tag_45:\n        /* \"#utility.yul\":15311:15315   */\n      0x00\n        /* \"#utility.yul\":15349:15351   */\n      0x40\n        /* \"#utility.yul\":15338:15347   */\n      dup3\n        /* \"#utility.yul\":15334:15352   */\n      add\n        /* \"#utility.yul\":15326:15352   */\n      swap1\n      pop\n        /* \"#utility.yul\":15398:15407   */\n      dup2\n        /* \"#utility.yul\":15392:15396   */\n      dup2\n        /* \"#utility.yul\":15388:15408   */\n      sub\n        /* \"#utility.yul\":15384:15385   */\n      0x00\n        /* \"#utility.yul\":15373:15382   */\n      dup4\n        /* \"#utility.yul\":15369:15386   */\n      add\n        /* \"#utility.yul\":15362:15409   */\n      mstore\n        /* \"#utility.yul\":15426:15504   */\n      tag_371\n        /* \"#utility.yul\":15499:15503   */\n      dup2\n        /* \"#utility.yul\":15490:15496   */\n      dup6\n        /* \"#utility.yul\":15426:15504   */\n      tag_195\n      jump\t// in\n    tag_371:\n        /* \"#utility.yul\":15418:15504   */\n      swap1\n      pop\n        /* \"#utility.yul\":15551:15560   */\n      dup2\n        /* \"#utility.yul\":15545:15549   */\n      dup2\n        /* \"#utility.yul\":15541:15561   */\n      sub\n        /* \"#utility.yul\":15536:15538   */\n      0x20\n        /* \"#utility.yul\":15525:15534   */\n      dup4\n        /* \"#utility.yul\":15521:15539   */\n      add\n        /* \"#utility.yul\":15514:15562   */\n      mstore\n        /* \"#utility.yul\":15579:15657   */\n      tag_372\n        /* \"#utility.yul\":15652:15656   */\n      dup2\n        /* \"#utility.yul\":15643:15649   */\n      dup5\n        /* \"#utility.yul\":15579:15657   */\n      tag_195\n      jump\t// in\n    tag_372:\n        /* \"#utility.yul\":15571:15657   */\n      swap1\n      pop\n        /* \"#utility.yul\":15150:15664   */\n      swap4\n      swap3\n      pop\n      pop\n      pop\n      jump\t// out\n        /* \"#utility.yul\":15670:16698   */\n    tag_50:\n        /* \"#utility.yul\":15955:15959   */\n      0x00\n        /* \"#utility.yul\":15993:15996   */\n      0xa0\n        /* \"#utility.yul\":15982:15991   */\n      dup3\n        /* \"#utility.yul\":15978:15997   */\n      add\n        /* \"#utility.yul\":15970:15997   */\n      swap1\n      pop\n        /* \"#utility.yul\":16007:16078   */\n      tag_374\n        /* \"#utility.yul\":16075:16076   */\n      0x00\n        /* \"#utility.yul\":16064:16073   */\n      dup4\n        /* \"#utility.yul\":16060:16077   */\n      add\n        /* \"#utility.yul\":16051:16057   */\n      dup9\n        /* \"#utility.yul\":16007:16078   */\n      tag_191\n      jump\t// in\n    tag_374:\n        /* \"#utility.yul\":16125:16134   */\n      dup2\n        /* \"#utility.yul\":16119:16123   */\n      dup2\n        /* \"#utility.yul\":16115:16135   */\n      sub\n        /* \"#utility.yul\":16110:16112   */\n      0x20\n        /* \"#utility.yul\":16099:16108   */\n      dup4\n        /* \"#utility.yul\":16095:16113   */\n      add\n        /* \"#utility.yul\":16088:16136   */\n      mstore\n        /* \"#utility.yul\":16153:16231   */\n      tag_375\n        /* \"#utility.yul\":16226:16230   */\n      dup2\n        /* \"#utility.yul\":16217:16223   */\n      dup8\n        /* \"#utility.yul\":16153:16231   */\n      tag_195\n      jump\t// in\n    tag_375:\n        /* \"#utility.yul\":16145:16231   */\n      swap1\n      pop\n        /* \"#utility.yul\":16278:16287   */\n      dup2\n        /* \"#utility.yul\":16272:16276   */\n      dup2\n        /* \"#utility.yul\":16268:16288   */\n      sub\n        /* \"#utility.yul\":16263:16265   */\n      0x40\n        /* \"#utility.yul\":16252:16261   */\n      dup4\n        /* \"#utility.yul\":16248:16266   */\n      add\n        /* \"#utility.yul\":16241:16289   */\n      mstore\n        /* \"#utility.yul\":16306:16384   */\n      tag_376\n        /* \"#utility.yul\":16379:16383   */\n      dup2\n        /* \"#utility.yul\":16370:16376   */\n      dup7\n        /* \"#utility.yul\":16306:16384   */\n      tag_195\n      jump\t// in\n    tag_376:\n        /* \"#utility.yul\":16298:16384   */\n      swap1\n      pop\n        /* \"#utility.yul\":16431:16440   */\n      dup2\n        /* \"#utility.yul\":16425:16429   */\n      dup2\n        /* \"#utility.yul\":16421:16441   */\n      sub\n        /* \"#utility.yul\":16416:16418   */\n      0x60\n        /* \"#utility.yul\":16405:16414   */\n      dup4\n        /* \"#utility.yul\":16401:16419   */\n      add\n        /* \"#utility.yul\":16394:16442   */\n      mstore\n        /* \"#utility.yul\":16459:16537   */\n      tag_377\n        /* \"#utility.yul\":16532:16536   */\n      dup2\n        /* \"#utility.yul\":16523:16529   */\n      dup6\n        /* \"#utility.yul\":16459:16537   */\n      tag_195\n      jump\t// in\n    tag_377:\n        /* \"#utility.yul\":16451:16537   */\n      swap1\n      pop\n        /* \"#utility.yul\":16585:16594   */\n      dup2\n        /* \"#utility.yul\":16579:16583   */\n      dup2\n        /* \"#utility.yul\":16575:16595   */\n      sub\n        /* \"#utility.yul\":16569:16572   */\n      0x80\n        /* \"#utility.yul\":16558:16567   */\n      dup4\n        /* \"#utility.yul\":16554:16573   */\n      add\n        /* \"#utility.yul\":16547:16596   */\n      mstore\n        /* \"#utility.yul\":16613:16691   */\n      tag_378\n        /* \"#utility.yul\":16686:16690   */\n      dup2\n        /* \"#utility.yul\":16677:16683   */\n      dup5\n        /* \"#utility.yul\":16613:16691   */\n      tag_195\n      jump\t// in\n    tag_378:\n        /* \"#utility.yul\":16605:16691   */\n      swap1\n      pop\n        /* \"#utility.yul\":15670:16698   */\n      swap7\n      swap6\n      pop\n      pop\n      pop\n      pop\n      pop\n      pop\n      jump\t// out\n        /* \"#utility.yul\":16704:17213   */\n    tag_53:\n        /* \"#utility.yul\":16773:16779   */\n      0x00\n        /* \"#utility.yul\":16822:16824   */\n      0x20\n        /* \"#utility.yul\":16810:16819   */\n      dup3\n        /* \"#utility.yul\":16801:16808   */\n      dup5\n        /* \"#utility.yul\":16797:16820   */\n      sub\n        /* \"#utility.yul\":16793:16825   */\n      slt\n        /* \"#utility.yul\":16790:16909   */\n      iszero\n      tag_380\n      jumpi\n        /* \"#utility.yul\":16828:16907   */\n      tag_381\n      tag_176\n      jump\t// in\n    tag_381:\n        /* \"#utility.yul\":16790:16909   */\n    tag_380:\n        /* \"#utility.yul\":16976:16977   */\n      0x00\n        /* \"#utility.yul\":16965:16974   */\n      dup3\n        /* \"#utility.yul\":16961:16978   */\n      add\n        /* \"#utility.yul\":16948:16979   */\n      calldataload\n        /* \"#utility.yul\":17006:17024   */\n      0xffffffffffffffff\n        /* \"#utility.yul\":16998:17004   */\n      dup2\n        /* \"#utility.yul\":16995:17025   */\n      gt\n        /* \"#utility.yul\":16992:17109   */\n      iszero\n      tag_382\n      jumpi\n        /* \"#utility.yul\":17028:17107   */\n      tag_383\n      tag_177\n      jump\t// in\n    tag_383:\n        /* \"#utility.yul\":16992:17109   */\n    tag_382:\n        /* \"#utility.yul\":17133:17196   */\n      tag_384\n        /* \"#utility.yul\":17188:17195   */\n      dup5\n        /* \"#utility.yul\":17179:17185   */\n      dup3\n        /* \"#utility.yul\":17168:17177   */\n      dup6\n        /* \"#utility.yul\":17164:17186   */\n      add\n        /* \"#utility.yul\":17133:17196   */\n      tag_187\n      jump\t// in\n    tag_384:\n        /* \"#utility.yul\":17123:17196   */\n      swap2\n      pop\n        /* \"#utility.yul\":16919:17206   */\n      pop\n        /* \"#utility.yul\":16704:17213   */\n      swap3\n      swap2\n      pop\n      pop\n      jump\t// out\n        /* \"#utility.yul\":17219:17357   */\n    tag_213:\n        /* \"#utility.yul\":17310:17316   */\n      0x00\n        /* \"#utility.yul\":17344:17349   */\n      dup2\n        /* \"#utility.yul\":17338:17350   */\n      mload\n        /* \"#utility.yul\":17328:17350   */\n      swap1\n      pop\n        /* \"#utility.yul\":17219:17357   */\n      swap2\n      swap1\n      pop\n      jump\t// out\n        /* \"#utility.yul\":17363:17571   */\n    tag_214:\n        /* \"#utility.yul\":17486:17497   */\n      0x00\n        /* \"#utility.yul\":17520:17526   */\n      dup3\n        /* \"#utility.yul\":17515:17518   */\n      dup3\n        /* \"#utility.yul\":17508:17527   */\n      mstore\n        /* \"#utility.yul\":17560:17564   */\n      0x20\n        /* \"#utility.yul\":17555:17558   */\n      dup3\n        /* \"#utility.yul\":17551:17565   */\n      add\n        /* \"#utility.yul\":17536:17565   */\n      swap1\n      pop\n        /* \"#utility.yul\":17363:17571   */\n      swap3\n      swap2\n      pop\n      pop\n      jump\t// out\n        /* \"#utility.yul\":17577:17733   */\n    tag_215:\n        /* \"#utility.yul\":17668:17672   */\n      0x00\n        /* \"#utility.yul\":17691:17694   */\n      dup2\n        /* \"#utility.yul\":17683:17694   */\n      swap1\n      pop\n        /* \"#utility.yul\":17721:17725   */\n      0x20\n        /* \"#utility.yul\":17716:17719   */\n      dup3\n        /* \"#utility.yul\":17712:17726   */\n      add\n        /* \"#utility.yul\":17704:17726   */\n      swap1\n      pop\n        /* \"#utility.yul\":17577:17733   */\n      swap2\n      swap1\n      pop\n      jump\t// out\n        /* \"#utility.yul\":17795:18467   */\n    tag_216:\n        /* \"#utility.yul\":17902:17905   */\n      0x00\n        /* \"#utility.yul\":17938:17942   */\n      0x40\n        /* \"#utility.yul\":17933:17936   */\n      dup4\n        /* \"#utility.yul\":17929:17943   */\n      add\n        /* \"#utility.yul\":18025:18029   */\n      0x00\n        /* \"#utility.yul\":18018:18023   */\n      dup4\n        /* \"#utility.yul\":18014:18030   */\n      add\n        /* \"#utility.yul\":18008:18031   */\n      mload\n        /* \"#utility.yul\":18078:18081   */\n      dup5\n        /* \"#utility.yul\":18072:18076   */\n      dup3\n        /* \"#utility.yul\":18068:18082   */\n      sub\n        /* \"#utility.yul\":18061:18065   */\n      0x00\n        /* \"#utility.yul\":18056:18059   */\n      dup7\n        /* \"#utility.yul\":18052:18066   */\n      add\n        /* \"#utility.yul\":18045:18083   */\n      mstore\n        /* \"#utility.yul\":18104:18177   */\n      tag_389\n        /* \"#utility.yul\":18172:18176   */\n      dup3\n        /* \"#utility.yul\":18158:18170   */\n      dup3\n        /* \"#utility.yul\":18104:18177   */\n      tag_201\n      jump\t// in\n    tag_389:\n        /* \"#utility.yul\":18096:18177   */\n      swap2\n      pop\n        /* \"#utility.yul\":17953:18188   */\n      pop\n        /* \"#utility.yul\":18277:18281   */\n      0x20\n        /* \"#utility.yul\":18270:18275   */\n      dup4\n        /* \"#utility.yul\":18266:18282   */\n      add\n        /* \"#utility.yul\":18260:18283   */\n      mload\n        /* \"#utility.yul\":18330:18333   */\n      dup5\n        /* \"#utility.yul\":18324:18328   */\n      dup3\n        /* \"#utility.yul\":18320:18334   */\n      sub\n        /* \"#utility.yul\":18313:18317   */\n      0x20\n        /* \"#utility.yul\":18308:18311   */\n      dup7\n        /* \"#utility.yul\":18304:18318   */\n      add\n        /* \"#utility.yul\":18297:18335   */\n      mstore\n        /* \"#utility.yul\":18356:18429   */\n      tag_390\n        /* \"#utility.yul\":18424:18428   */\n      dup3\n        /* \"#utility.yul\":18410:18422   */\n      dup3\n        /* \"#utility.yul\":18356:18429   */\n      tag_201\n      jump\t// in\n    tag_390:\n        /* \"#utility.yul\":18348:18429   */\n      swap2\n      pop\n        /* \"#utility.yul\":18198:18440   */\n      pop\n        /* \"#utility.yul\":18457:18461   */\n      dup1\n        /* \"#utility.yul\":18450:18461   */\n      swap2\n      pop\n        /* \"#utility.yul\":17907:18467   */\n      pop\n        /* \"#utility.yul\":17795:18467   */\n      swap3\n      swap2\n      pop\n      pop\n      jump\t// out\n        /* \"#utility.yul\":18473:18725   */\n    tag_217:\n        /* \"#utility.yul\":18590:18600   */\n      0x00\n        /* \"#utility.yul\":18625:18719   */\n      tag_392\n        /* \"#utility.yul\":18715:18718   */\n      dup4\n        /* \"#utility.yul\":18707:18713   */\n      dup4\n        /* \"#utility.yul\":18625:18719   */\n      tag_216\n      jump\t// in\n    tag_392:\n        /* \"#utility.yul\":18611:18719   */\n      swap1\n      pop\n        /* \"#utility.yul\":18473:18725   */\n      swap3\n      swap2\n      pop\n      pop\n      jump\t// out\n        /* \"#utility.yul\":18731:18868   */\n    tag_218:\n        /* \"#utility.yul\":18825:18829   */\n      0x00\n        /* \"#utility.yul\":18857:18861   */\n      0x20\n        /* \"#utility.yul\":18852:18855   */\n      dup3\n        /* \"#utility.yul\":18848:18862   */\n      add\n        /* \"#utility.yul\":18840:18862   */\n      swap1\n      pop\n        /* \"#utility.yul\":18731:18868   */\n      swap2\n      swap1\n      pop\n      jump\t// out\n        /* \"#utility.yul\":18934:20037   */\n    tag_219:\n        /* \"#utility.yul\":19101:19104   */\n      0x00\n        /* \"#utility.yul\":19130:19208   */\n      tag_395\n        /* \"#utility.yul\":19202:19207   */\n      dup3\n        /* \"#utility.yul\":19130:19208   */\n      tag_213\n      jump\t// in\n    tag_395:\n        /* \"#utility.yul\":19224:19334   */\n      tag_396\n        /* \"#utility.yul\":19327:19333   */\n      dup2\n        /* \"#utility.yul\":19322:19325   */\n      dup6\n        /* \"#utility.yul\":19224:19334   */\n      tag_214\n      jump\t// in\n    tag_396:\n        /* \"#utility.yul\":19217:19334   */\n      swap4\n      pop\n        /* \"#utility.yul\":19360:19363   */\n      dup4\n        /* \"#utility.yul\":19405:19409   */\n      0x20\n        /* \"#utility.yul\":19397:19403   */\n      dup3\n        /* \"#utility.yul\":19393:19410   */\n      mul\n        /* \"#utility.yul\":19388:19391   */\n      dup6\n        /* \"#utility.yul\":19384:19411   */\n      add\n        /* \"#utility.yul\":19435:19515   */\n      tag_397\n        /* \"#utility.yul\":19509:19514   */\n      dup6\n        /* \"#utility.yul\":19435:19515   */\n      tag_215\n      jump\t// in\n    tag_397:\n        /* \"#utility.yul\":19538:19545   */\n      dup1\n        /* \"#utility.yul\":19569:19570   */\n      0x00\n        /* \"#utility.yul\":19554:19992   */\n    tag_398:\n        /* \"#utility.yul\":19579:19585   */\n      dup6\n        /* \"#utility.yul\":19576:19577   */\n      dup2\n        /* \"#utility.yul\":19573:19586   */\n      lt\n        /* \"#utility.yul\":19554:19992   */\n      iszero\n      tag_400\n      jumpi\n        /* \"#utility.yul\":19650:19659   */\n      dup5\n        /* \"#utility.yul\":19644:19648   */\n      dup5\n        /* \"#utility.yul\":19640:19660   */\n      sub\n        /* \"#utility.yul\":19635:19638   */\n      dup10\n        /* \"#utility.yul\":19628:19661   */\n      mstore\n        /* \"#utility.yul\":19701:19707   */\n      dup2\n        /* \"#utility.yul\":19695:19708   */\n      mload\n        /* \"#utility.yul\":19729:19841   */\n      tag_401\n        /* \"#utility.yul\":19836:19840   */\n      dup6\n        /* \"#utility.yul\":19821:19834   */\n      dup3\n        /* \"#utility.yul\":19729:19841   */\n      tag_217\n      jump\t// in\n    tag_401:\n        /* \"#utility.yul\":19721:19841   */\n      swap5\n      pop\n        /* \"#utility.yul\":19864:19948   */\n      tag_402\n        /* \"#utility.yul\":19941:19947   */\n      dup4\n        /* \"#utility.yul\":19864:19948   */\n      tag_218\n      jump\t// in\n    tag_402:\n        /* \"#utility.yul\":19854:19948   */\n      swap3\n      pop\n        /* \"#utility.yul\":19977:19981   */\n      0x20\n        /* \"#utility.yul\":19972:19975   */\n      dup11\n        /* \"#utility.yul\":19968:19982   */\n      add\n        /* \"#utility.yul\":19961:19982   */\n      swap10\n      pop\n        /* \"#utility.yul\":19614:19992   */\n      pop\n        /* \"#utility.yul\":19601:19602   */\n      0x01\n        /* \"#utility.yul\":19598:19599   */\n      dup2\n        /* \"#utility.yul\":19594:19603   */\n      add\n        /* \"#utility.yul\":19589:19603   */\n      swap1\n      pop\n        /* \"#utility.yul\":19554:19992   */\n      jump(tag_398)\n    tag_400:\n        /* \"#utility.yul\":19558:19572   */\n      pop\n        /* \"#utility.yul\":20008:20012   */\n      dup3\n        /* \"#utility.yul\":20001:20012   */\n      swap8\n      pop\n        /* \"#utility.yul\":20028:20031   */\n      dup8\n        /* \"#utility.yul\":20021:20031   */\n      swap6\n      pop\n        /* \"#utility.yul\":19106:20037   */\n      pop\n      pop\n      pop\n      pop\n      pop\n        /* \"#utility.yul\":18934:20037   */\n      swap3\n      swap2\n      pop\n      pop\n      jump\t// out\n        /* \"#utility.yul\":20043:20512   */\n    tag_58:\n        /* \"#utility.yul\":20234:20238   */\n      0x00\n        /* \"#utility.yul\":20272:20274   */\n      0x20\n        /* \"#utility.yul\":20261:20270   */\n      dup3\n        /* \"#utility.yul\":20257:20275   */\n      add\n        /* \"#utility.yul\":20249:20275   */\n      swap1\n      pop\n        /* \"#utility.yul\":20321:20330   */\n      dup2\n        /* \"#utility.yul\":20315:20319   */\n      dup2\n        /* \"#utility.yul\":20311:20331   */\n      sub\n        /* \"#utility.yul\":20307:20308   */\n      0x00\n        /* \"#utility.yul\":20296:20305   */\n      dup4\n        /* \"#utility.yul\":20292:20309   */\n      add\n        /* \"#utility.yul\":20285:20332   */\n      mstore\n        /* \"#utility.yul\":20349:20505   */\n      tag_404\n        /* \"#utility.yul\":20500:20504   */\n      dup2\n        /* \"#utility.yul\":20491:20497   */\n      dup5\n        /* \"#utility.yul\":20349:20505   */\n      tag_219\n      jump\t// in\n    tag_404:\n        /* \"#utility.yul\":20341:20505   */\n      swap1\n      pop\n        /* \"#utility.yul\":20043:20512   */\n      swap3\n      swap2\n      pop\n      pop\n      jump\t// out\n        /* \"#utility.yul\":20518:20698   */\n    tag_220:\n        /* \"#utility.yul\":20566:20643   */\n      0x4e487b7100000000000000000000000000000000000000000000000000000000\n        /* \"#utility.yul\":20563:20564   */\n      0x00\n        /* \"#utility.yul\":20556:20644   */\n      mstore\n        /* \"#utility.yul\":20663:20667   */\n      0x11\n        /* \"#utility.yul\":20660:20661   */\n      0x04\n        /* \"#utility.yul\":20653:20668   */\n      mstore\n        /* \"#utility.yul\":20687:20691   */\n      0x24\n        /* \"#utility.yul\":20684:20685   */\n      0x00\n        /* \"#utility.yul\":20677:20692   */\n      revert\n        /* \"#utility.yul\":20704:20937   */\n    tag_61:\n        /* \"#utility.yul\":20743:20746   */\n      0x00\n        /* \"#utility.yul\":20766:20790   */\n      tag_407\n        /* \"#utility.yul\":20784:20789   */\n      dup3\n        /* \"#utility.yul\":20766:20790   */\n      tag_188\n      jump\t// in\n    tag_407:\n        /* \"#utility.yul\":20757:20790   */\n      swap2\n      pop\n        /* \"#utility.yul\":20812:20878   */\n      0xffffffffffffffffffffffffffffffffffffffffffffffffffffffffffffffff\n        /* \"#utility.yul\":20805:20810   */\n      dup3\n        /* \"#utility.yul\":20802:20879   */\n      sub\n        /* \"#utility.yul\":20799:20902   */\n      tag_408\n      jumpi\n        /* \"#utility.yul\":20882:20900   */\n      tag_409\n      tag_220\n      jump\t// in\n    tag_409:\n        /* \"#utility.yul\":20799:20902   */\n    tag_408:\n        /* \"#utility.yul\":20929:20930   */\n      0x01\n        /* \"#utility.yul\":20922:20927   */\n      dup3\n        /* \"#utility.yul\":20918:20931   */\n      add\n        /* \"#utility.yul\":20911:20931   */\n      swap1\n      pop\n        /* \"#utility.yul\":20704:20937   */\n      swap2\n      swap1\n      pop\n      jump\t// out\n        /* \"#utility.yul\":20943:21123   */\n    tag_221:\n        /* \"#utility.yul\":20991:21068   */\n      0x4e487b7100000000000000000000000000000000000000000000000000000000\n        /* \"#utility.yul\":20988:20989   */\n      0x00\n        /* \"#utility.yul\":20981:21069   */\n      mstore\n        /* \"#utility.yul\":21088:21092   */\n      0x22\n        /* \"#utility.yul\":21085:21086   */\n      0x04\n        /* \"#utility.yul\":21078:21093   */\n      mstore\n        /* \"#utility.yul\":21112:21116   */\n      0x24\n        /* \"#utility.yul\":21109:21110   */\n      0x00\n        /* \"#utility.yul\":21102:21117   */\n      revert\n        /* \"#utility.yul\":21129:21449   */\n    tag_71:\n        /* \"#utility.yul\":21173:21179   */\n      0x00\n        /* \"#utility.yul\":21210:21211   */\n      0x02\n        /* \"#utility.yul\":21204:21208   */\n      dup3\n        /* \"#utility.yul\":21200:21212   */\n      div\n        /* \"#utility.yul\":21190:21212   */\n      swap1\n      pop\n        /* \"#utility.yul\":21257:21258   */\n      0x01\n        /* \"#utility.yul\":21251:21255   */\n      dup3\n        /* \"#utility.yul\":21247:21259   */\n      and\n        /* \"#utility.yul\":21278:21296   */\n      dup1\n        /* \"#utility.yul\":21268:21349   */\n      tag_412\n      jumpi\n        /* \"#utility.yul\":21334:21338   */\n      0x7f\n        /* \"#utility.yul\":21326:21332   */\n      dup3\n        /* \"#utility.yul\":21322:21339   */\n      and\n        /* \"#utility.yul\":21312:21339   */\n      swap2\n      pop\n        /* \"#utility.yul\":21268:21349   */\n    tag_412:\n        /* \"#utility.yul\":21396:21398   */\n      0x20\n        /* \"#utility.yul\":21388:21394   */\n      dup3\n        /* \"#utility.yul\":21385:21399   */\n      lt\n        /* \"#utility.yul\":21365:21383   */\n      dup2\n        /* \"#utility.yul\":21362:21400   */\n      sub\n        /* \"#utility.yul\":21359:21443   */\n      tag_413\n      jumpi\n        /* \"#utility.yul\":21415:21433   */\n      tag_414\n      tag_221\n      jump\t// in\n    tag_414:\n        /* \"#utility.yul\":21359:21443   */\n    tag_413:\n        /* \"#utility.yul\":21180:21449   */\n      pop\n        /* \"#utility.yul\":21129:21449   */\n      swap2\n      swap1\n      pop\n      jump\t// out\n        /* \"#utility.yul\":21455:21596   */\n    tag_222:\n        /* \"#utility.yul\":21504:21508   */\n      0x00\n        /* \"#utility.yul\":21527:21530   */\n      dup2\n        /* \"#utility.yul\":21519:21530   */\n      swap1\n      pop\n        /* \"#utility.yul\":21550:21553   */\n      dup2\n        /* \"#utility.yul\":21547:21548   */\n      0x00\n        /* \"#utility.yul\":21540:21554   */\n      mstore\n        /* \"#utility.yul\":21584:21588   */\n      0x20\n        /* \"#utility.yul\":21581:21582   */\n      0x00\n        /* \"#utility.yul\":21571:21589   */\n      keccak256\n        /* \"#utility.yul\":21563:21589   */\n      swap1\n      pop\n        /* \"#utility.yul\":21455:21596   */\n      swap2\n      swap1\n      pop\n      jump\t// out\n        /* \"#utility.yul\":21602:21695   */\n    tag_223:\n        /* \"#utility.yul\":21639:21645   */\n      0x00\n        /* \"#utility.yul\":21686:21688   */\n      0x20\n        /* \"#utility.yul\":21681:21683   */\n      0x1f\n        /* \"#utility.yul\":21674:21679   */\n      dup4\n        /* \"#utility.yul\":21670:21684   */\n      add\n        /* \"#utility.yul\":21666:21689   */\n      div\n        /* \"#utility.yul\":21656:21689   */\n      swap1\n      pop\n        /* \"#utility.yul\":21602:21695   */\n      swap2\n      swap1\n      pop\n      jump\t// out\n        /* \"#utility.yul\":21701:21808   */\n    tag_224:\n        /* \"#utility.yul\":21745:21753   */\n      0x00\n        /* \"#utility.yul\":21795:21800   */\n      dup3\n        /* \"#utility.yul\":21789:21793   */\n      dup3\n        /* \"#utility.yul\":21785:21801   */\n      shl\n        /* \"#utility.yul\":21764:21801   */\n      swap1\n      pop\n        /* \"#utility.yul\":21701:21808   */\n      swap3\n      swap2\n      pop\n      pop\n      jump\t// out\n        /* \"#utility.yul\":21814:22207   */\n    tag_225:\n        /* \"#utility.yul\":21883:21889   */\n      0x00\n        /* \"#utility.yul\":21933:21934   */\n      0x08\n        /* \"#utility.yul\":21921:21931   */\n      dup4\n        /* \"#utility.yul\":21917:21935   */\n      mul\n        /* \"#utility.yul\":21956:22053   */\n      tag_419\n        /* \"#utility.yul\":21986:22052   */\n      0xffffffffffffffffffffffffffffffffffffffffffffffffffffffffffffffff\n        /* \"#utility.yul\":21975:21984   */\n      dup3\n        /* \"#utility.yul\":21956:22053   */\n      tag_224\n      jump\t// in\n    tag_419:\n        /* \"#utility.yul\":22074:22113   */\n      tag_420\n        /* \"#utility.yul\":22104:22112   */\n      dup7\n        /* \"#utility.yul\":22093:22102   */\n      dup4\n        /* \"#utility.yul\":22074:22113   */\n      tag_224\n      jump\t// in\n    tag_420:\n        /* \"#utility.yul\":22062:22113   */\n      swap6\n      pop\n        /* \"#utility.yul\":22146:22150   */\n      dup1\n        /* \"#utility.yul\":22142:22151   */\n      not\n        /* \"#utility.yul\":22135:22140   */\n      dup5\n        /* \"#utility.yul\":22131:22152   */\n      and\n        /* \"#utility.yul\":22122:22152   */\n      swap4\n      pop\n        /* \"#utility.yul\":22195:22199   */\n      dup1\n        /* \"#utility.yul\":22185:22193   */\n      dup7\n        /* \"#utility.yul\":22181:22200   */\n      and\n        /* \"#utility.yul\":22174:22179   */\n      dup5\n        /* \"#utility.yul\":22171:22201   */\n      or\n        /* \"#utility.yul\":22161:22201   */\n      swap3\n      pop\n        /* \"#utility.yul\":21890:22207   */\n      pop\n      pop\n        /* \"#utility.yul\":21814:22207   */\n      swap4\n      swap3\n      pop\n      pop\n      pop\n      jump\t// out\n        /* \"#utility.yul\":22213:22273   */\n    tag_226:\n        /* \"#utility.yul\":22241:22244   */\n      0x00\n        /* \"#utility.yul\":22262:22267   */\n      dup2\n        /* \"#utility.yul\":22255:22267   */\n      swap1\n      pop\n        /* \"#utility.yul\":22213:22273   */\n      swap2\n      swap1\n      pop\n      jump\t// out\n        /* \"#utility.yul\":22279:22421   */\n    tag_227:\n        /* \"#utility.yul\":22329:22338   */\n      0x00\n        /* \"#utility.yul\":22362:22415   */\n      tag_423\n        /* \"#utility.yul\":22380:22414   */\n      tag_424\n        /* \"#utility.yul\":22389:22413   */\n      tag_425\n        /* \"#utility.yul\":22407:22412   */\n      dup5\n        /* \"#utility.yul\":22389:22413   */\n      tag_188\n      jump\t// in\n    tag_425:\n        /* \"#utility.yul\":22380:22414   */\n      tag_226\n      jump\t// in\n    tag_424:\n        /* \"#utility.yul\":22362:22415   */\n      tag_188\n      jump\t// in\n    tag_423:\n        /* \"#utility.yul\":22349:22415   */\n      swap1\n      pop\n        /* \"#utility.yul\":22279:22421   */\n      swap2\n      swap1\n      pop\n      jump\t// out\n        /* \"#utility.yul\":22427:22502   */\n    tag_228:\n        /* \"#utility.yul\":22470:22473   */\n      0x00\n        /* \"#utility.yul\":22491:22496   */\n      dup2\n        /* \"#utility.yul\":22484:22496   */\n      swap1\n      pop\n        /* \"#utility.yul\":22427:22502   */\n      swap2\n      swap1\n      pop\n      jump\t// out\n        /* \"#utility.yul\":22508:22777   */\n    tag_229:\n        /* \"#utility.yul\":22618:22657   */\n      tag_428\n        /* \"#utility.yul\":22649:22656   */\n      dup4\n        /* \"#utility.yul\":22618:22657   */\n      tag_227\n      jump\t// in\n    tag_428:\n        /* \"#utility.yul\":22679:22770   */\n      tag_429\n        /* \"#utility.yul\":22728:22769   */\n      tag_430\n        /* \"#utility.yul\":22752:22768   */\n      dup3\n        /* \"#utility.yul\":22728:22769   */\n      tag_228\n      jump\t// in\n    tag_430:\n        /* \"#utility.yul\":22720:22726   */\n      dup5\n        /* \"#utility.yul\":22713:22717   */\n      dup5\n        /* \"#utility.yul\":22707:22718   */\n      sload\n        /* \"#utility.yul\":22679:22770   */\n      tag_225\n      jump\t// in\n    tag_429:\n        /* \"#utility.yul\":22673:22677   */\n      dup3\n        /* \"#utility.yul\":22666:22771   */\n      sstore\n        /* \"#utility.yul\":22584:22777   */\n      pop\n        /* \"#utility.yul\":22508:22777   */\n      pop\n      pop\n      pop\n      jump\t// out\n        /* \"#utility.yul\":22783:22856   */\n    tag_230:\n        /* \"#utility.yul\":22828:22831   */\n      0x00\n        /* \"#utility.yul\":22783:22856   */\n      swap1\n      jump\t// out\n        /* \"#utility.yul\":22862:23051   */\n    tag_231:\n        /* \"#utility.yul\":22939:22971   */\n      tag_433\n      tag_230\n      jump\t// in\n    tag_433:\n        /* \"#utility.yul\":22980:23045   */\n      tag_434\n        /* \"#utility.yul\":23038:23044   */\n      dup2\n        /* \"#utility.yul\":23030:23036   */\n      dup5\n        /* \"#utility.yul\":23024:23028   */\n      dup5\n        /* \"#utility.yul\":22980:23045   */\n      tag_229\n      jump\t// in\n    tag_434:\n        /* \"#utility.yul\":22915:23051   */\n      pop\n        /* \"#utility.yul\":22862:23051   */\n      pop\n      pop\n      jump\t// out\n        /* \"#utility.yul\":23057:23243   */\n    tag_232:\n        /* \"#utility.yul\":23117:23237   */\n    tag_436:\n        /* \"#utility.yul\":23134:23137   */\n      dup2\n        /* \"#utility.yul\":23127:23132   */\n      dup2\n        /* \"#utility.yul\":23124:23138   */\n      lt\n        /* \"#utility.yul\":23117:23237   */\n      iszero\n      tag_438\n      jumpi\n        /* \"#utility.yul\":23188:23227   */\n      tag_439\n        /* \"#utility.yul\":23225:23226   */\n      0x00\n        /* \"#utility.yul\":23218:23223   */\n      dup3\n        /* \"#utility.yul\":23188:23227   */\n      tag_231\n      jump\t// in\n    tag_439:\n        /* \"#utility.yul\":23161:23162   */\n      0x01\n        /* \"#utility.yul\":23154:23159   */\n      dup2\n        /* \"#utility.yul\":23150:23163   */\n      add\n        /* \"#utility.yul\":23141:23163   */\n      swap1\n      pop\n        /* \"#utility.yul\":23117:23237   */\n      jump(tag_436)\n    tag_438:\n        /* \"#utility.yul\":23057:23243   */\n      pop\n      pop\n      jump\t// out\n        /* \"#utility.yul\":23249:23792   */\n    tag_233:\n        /* \"#utility.yul\":23350:23352   */\n      0x1f\n        /* \"#utility.yul\":23345:23348   */\n      dup3\n        /* \"#utility.yul\":23342:23353   */\n      gt\n        /* \"#utility.yul\":23339:23785   */\n      iszero\n      tag_441\n      jumpi\n        /* \"#utility.yul\":23384:23422   */\n      tag_442\n        /* \"#utility.yul\":23416:23421   */\n      dup2\n        /* \"#utility.yul\":23384:23422   */\n      tag_222\n      jump\t// in\n    tag_442:\n        /* \"#utility.yul\":23468:23497   */\n      tag_443\n        /* \"#utility.yul\":23486:23496   */\n      dup5\n        /* \"#utility.yul\":23468:23497   */\n      tag_223\n      jump\t// in\n    tag_443:\n        /* \"#utility.yul\":23458:23466   */\n      dup2\n        /* \"#utility.yul\":23454:23498   */\n      add\n        /* \"#utility.yul\":23651:23653   */\n      0x20\n        /* \"#utility.yul\":23639:23649   */\n      dup6\n        /* \"#utility.yul\":23636:23654   */\n      lt\n        /* \"#utility.yul\":23633:23682   */\n      iszero\n      tag_444\n      jumpi\n        /* \"#utility.yul\":23672:23680   */\n      dup2\n        /* \"#utility.yul\":23657:23680   */\n      swap1\n      pop\n        /* \"#utility.yul\":23633:23682   */\n    tag_444:\n        /* \"#utility.yul\":23695:23775   */\n      tag_445\n        /* \"#utility.yul\":23751:23773   */\n      tag_446\n        /* \"#utility.yul\":23769:23772   */\n      dup6\n        /* \"#utility.yul\":23751:23773   */\n      tag_223\n      jump\t// in\n    tag_446:\n        /* \"#utility.yul\":23741:23749   */\n      dup4\n        /* \"#utility.yul\":23737:23774   */\n      add\n        /* \"#utility.yul\":23724:23735   */\n      dup3\n        /* \"#utility.yul\":23695:23775   */\n      tag_232\n      jump\t// in\n    tag_445:\n        /* \"#utility.yul\":23354:23785   */\n      pop\n      pop\n        /* \"#utility.yul\":23339:23785   */\n    tag_441:\n        /* \"#utility.yul\":23249:23792   */\n      pop\n      pop\n      pop\n      jump\t// out\n        /* \"#utility.yul\":23798:23915   */\n    tag_234:\n        /* \"#utility.yul\":23852:23860   */\n      0x00\n        /* \"#utility.yul\":23902:23907   */\n      dup3\n        /* \"#utility.yul\":23896:23900   */\n      dup3\n        /* \"#utility.yul\":23892:23908   */\n      shr\n        /* \"#utility.yul\":23871:23908   */\n      swap1\n      pop\n        /* \"#utility.yul\":23798:23915   */\n      swap3\n      swap2\n      pop\n      pop\n      jump\t// out\n        /* \"#utility.yul\":23921:24090   */\n    tag_235:\n        /* \"#utility.yul\":23965:23971   */\n      0x00\n        /* \"#utility.yul\":23998:24049   */\n      tag_449\n        /* \"#utility.yul\":24046:24047   */\n      0x00\n        /* \"#utility.yul\":24042:24048   */\n      not\n        /* \"#utility.yul\":24034:24039   */\n      dup5\n        /* \"#utility.yul\":24031:24032   */\n      0x08\n        /* \"#utility.yul\":24027:24040   */\n      mul\n        /* \"#utility.yul\":23998:24049   */\n      tag_234\n      jump\t// in\n    tag_449:\n        /* \"#utility.yul\":23994:24050   */\n      not\n        /* \"#utility.yul\":24079:24083   */\n      dup1\n        /* \"#utility.yul\":24073:24077   */\n      dup4\n        /* \"#utility.yul\":24069:24084   */\n      and\n        /* \"#utility.yul\":24059:24084   */\n      swap2\n      pop\n        /* \"#utility.yul\":23972:24090   */\n      pop\n        /* \"#utility.yul\":23921:24090   */\n      swap3\n      swap2\n      pop\n      pop\n      jump\t// out\n        /* \"#utility.yul\":24095:24390   */\n    tag_236:\n        /* \"#utility.yul\":24171:24175   */\n      0x00\n        /* \"#utility.yul\":24317:24346   */\n      tag_451\n        /* \"#utility.yul\":24342:24345   */\n      dup4\n        /* \"#utility.yul\":24336:24340   */\n      dup4\n        /* \"#utility.yul\":24317:24346   */\n      tag_235\n      jump\t// in\n    tag_451:\n        /* \"#utility.yul\":24309:24346   */\n      swap2\n      pop\n        /* \"#utility.yul\":24379:24382   */\n      dup3\n        /* \"#utility.yul\":24376:24377   */\n      0x02\n        /* \"#utility.yul\":24372:24383   */\n      mul\n        /* \"#utility.yul\":24366:24370   */\n      dup3\n        /* \"#utility.yul\":24363:24384   */\n      or\n        /* \"#utility.yul\":24355:24384   */\n      swap1\n      pop\n        /* \"#utility.yul\":24095:24390   */\n      swap3\n      swap2\n      pop\n      pop\n      jump\t// out\n        /* \"#utility.yul\":24395:25790   */\n    tag_64:\n        /* \"#utility.yul\":24512:24549   */\n      tag_453\n        /* \"#utility.yul\":24545:24548   */\n      dup3\n        /* \"#utility.yul\":24512:24549   */\n      tag_192\n      jump\t// in\n    tag_453:\n        /* \"#utility.yul\":24614:24632   */\n      0xffffffffffffffff\n        /* \"#utility.yul\":24606:24612   */\n      dup2\n        /* \"#utility.yul\":24603:24633   */\n      gt\n        /* \"#utility.yul\":24600:24656   */\n      iszero\n      tag_454\n      jumpi\n        /* \"#utility.yul\":24636:24654   */\n      tag_455\n      tag_181\n      jump\t// in\n    tag_455:\n        /* \"#utility.yul\":24600:24656   */\n    tag_454:\n        /* \"#utility.yul\":24680:24718   */\n      tag_456\n        /* \"#utility.yul\":24712:24716   */\n      dup3\n        /* \"#utility.yul\":24706:24717   */\n      sload\n        /* \"#utility.yul\":24680:24718   */\n      tag_71\n      jump\t// in\n    tag_456:\n        /* \"#utility.yul\":24765:24832   */\n      tag_457\n        /* \"#utility.yul\":24825:24831   */\n      dup3\n        /* \"#utility.yul\":24817:24823   */\n      dup3\n        /* \"#utility.yul\":24811:24815   */\n      dup6\n        /* \"#utility.yul\":24765:24832   */\n      tag_233\n      jump\t// in\n    tag_457:\n        /* \"#utility.yul\":24859:24860   */\n      0x00\n        /* \"#utility.yul\":24883:24887   */\n      0x20\n        /* \"#utility.yul\":24870:24887   */\n      swap1\n      pop\n        /* \"#utility.yul\":24915:24917   */\n      0x1f\n        /* \"#utility.yul\":24907:24913   */\n      dup4\n        /* \"#utility.yul\":24904:24918   */\n      gt\n        /* \"#utility.yul\":24932:24933   */\n      0x01\n        /* \"#utility.yul\":24927:25545   */\n      dup2\n      eq\n      tag_459\n      jumpi\n        /* \"#utility.yul\":25589:25590   */\n      0x00\n        /* \"#utility.yul\":25606:25612   */\n      dup5\n        /* \"#utility.yul\":25603:25680   */\n      iszero\n      tag_460\n      jumpi\n        /* \"#utility.yul\":25655:25664   */\n      dup3\n        /* \"#utility.yul\":25650:25653   */\n      dup8\n        /* \"#utility.yul\":25646:25665   */\n      add\n        /* \"#utility.yul\":25640:25666   */\n      mload\n        /* \"#utility.yul\":25631:25666   */\n      swap1\n      pop\n        /* \"#utility.yul\":25603:25680   */\n    tag_460:\n        /* \"#utility.yul\":25706:25773   */\n      tag_461\n        /* \"#utility.yul\":25766:25772   */\n      dup6\n        /* \"#utility.yul\":25759:25764   */\n      dup3\n        /* \"#utility.yul\":25706:25773   */\n      tag_236\n      jump\t// in\n    tag_461:\n        /* \"#utility.yul\":25700:25704   */\n      dup7\n        /* \"#utility.yul\":25693:25774   */\n      sstore\n        /* \"#utility.yul\":25562:25784   */\n      pop\n        /* \"#utility.yul\":24897:25784   */\n      jump(tag_458)\n        /* \"#utility.yul\":24927:25545   */\n    tag_459:\n        /* \"#utility.yul\":24979:24983   */\n      0x1f\n        /* \"#utility.yul\":24975:24984   */\n      not\n        /* \"#utility.yul\":24967:24973   */\n      dup5\n        /* \"#utility.yul\":24963:24985   */\n      and\n        /* \"#utility.yul\":25013:25050   */\n      tag_462\n        /* \"#utility.yul\":25045:25049   */\n      dup7\n        /* \"#utility.yul\":25013:25050   */\n      tag_222\n      jump\t// in\n    tag_462:\n        /* \"#utility.yul\":25072:25073   */\n      0x00\n        /* \"#utility.yul\":25086:25294   */\n    tag_463:\n        /* \"#utility.yul\":25100:25107   */\n      dup3\n        /* \"#utility.yul\":25097:25098   */\n      dup2\n        /* \"#utility.yul\":25094:25108   */\n      lt\n        /* \"#utility.yul\":25086:25294   */\n      iszero\n      tag_465\n      jumpi\n        /* \"#utility.yul\":25179:25188   */\n      dup5\n        /* \"#utility.yul\":25174:25177   */\n      dup10\n        /* \"#utility.yul\":25170:25189   */\n      add\n        /* \"#utility.yul\":25164:25190   */\n      mload\n        /* \"#utility.yul\":25156:25162   */\n      dup3\n        /* \"#utility.yul\":25149:25191   */\n      sstore\n        /* \"#utility.yul\":25230:25231   */\n      0x01\n        /* \"#utility.yul\":25222:25228   */\n      dup3\n        /* \"#utility.yul\":25218:25232   */\n      add\n        /* \"#utility.yul\":25208:25232   */\n      swap2\n      pop\n        /* \"#utility.yul\":25277:25279   */\n      0x20\n        /* \"#utility.yul\":25266:25275   */\n      dup6\n        /* \"#utility.yul\":25262:25280   */\n      add\n        /* \"#utility.yul\":25249:25280   */\n      swap5\n      pop\n        /* \"#utility.yul\":25123:25127   */\n      0x20\n        /* \"#utility.yul\":25120:25121   */\n      dup2\n        /* \"#utility.yul\":25116:25128   */\n      add\n        /* \"#utility.yul\":25111:25128   */\n      swap1\n      pop\n        /* \"#utility.yul\":25086:25294   */\n      jump(tag_463)\n    tag_465:\n        /* \"#utility.yul\":25322:25328   */\n      dup7\n        /* \"#utility.yul\":25313:25320   */\n      dup4\n        /* \"#utility.yul\":25310:25329   */\n      lt\n        /* \"#utility.yul\":25307:25486   */\n      iszero\n      tag_466\n      jumpi\n        /* \"#utility.yul\":25380:25389   */\n      dup5\n        /* \"#utility.yul\":25375:25378   */\n      dup10\n        /* \"#utility.yul\":25371:25390   */\n      add\n        /* \"#utility.yul\":25365:25391   */\n      mload\n        /* \"#utility.yul\":25423:25471   */\n      tag_467\n        /* \"#utility.yul\":25465:25469   */\n      0x1f\n        /* \"#utility.yul\":25457:25463   */\n      dup10\n        /* \"#utility.yul\":25453:25470   */\n      and\n        /* \"#utility.yul\":25442:25451   */\n      dup3\n        /* \"#utility.yul\":25423:25471   */\n      tag_235\n      jump\t// in\n    tag_467:\n        /* \"#utility.yul\":25415:25421   */\n      dup4\n        /* \"#utility.yul\":25408:25472   */\n      sstore\n        /* \"#utility.yul\":25330:25486   */\n      pop\n        /* \"#utility.yul\":25307:25486   */\n    tag_466:\n        /* \"#utility.yul\":25532:25533   */\n      0x01\n        /* \"#utility.yul\":25528:25529   */\n      0x02\n        /* \"#utility.yul\":25520:25526   */\n      dup9\n        /* \"#utility.yul\":25516:25530   */\n      mul\n        /* \"#utility.yul\":25512:25534   */\n      add\n        /* \"#utility.yul\":25506:25510   */\n      dup9\n        /* \"#utility.yul\":25499:25535   */\n      sstore\n        /* \"#utility.yul\":24934:25545   */\n      pop\n      pop\n      pop\n        /* \"#utility.yul\":24897:25784   */\n    tag_458:\n      pop\n        /* \"#utility.yul\":24487:25790   */\n      pop\n      pop\n      pop\n        /* \"#utility.yul\":24395:25790   */\n      pop\n      pop\n      jump\t// out\n        /* \"#utility.yul\":25796:25976   */\n    tag_107:\n        /* \"#utility.yul\":25844:25921   */\n      0x4e487b7100000000000000000000000000000000000000000000000000000000\n        /* \"#utility.yul\":25841:25842   */\n      0x00\n        /* \"#utility.yul\":25834:25922   */\n      mstore\n        /* \"#utility.yul\":25941:25945   */\n      0x32\n        /* \"#utility.yul\":25938:25939   */\n      0x04\n        /* \"#utility.yul\":25931:25946   */\n      mstore\n        /* \"#utility.yul\":25965:25969   */\n      0x24\n        /* \"#utility.yul\":25962:25963   */\n      0x00\n        /* \"#utility.yul\":25955:25970   */\n      revert\n\n    auxdata: 0xa2646970667358221220c0fb3ad136ef41c03da9a84e6acf7076376ea851dd98a932caa69797f113522b64736f6c63430008120033\n}\n",
				"bytecode": {
					"linkReferences": {},
					"object": "608060405234801561001057600080fd5b50611ae1806100206000396000f3fe608060405234801561001057600080fd5b506004361061009e5760003560e01c80639df10db0116100665780639df10db01461015a578063c38831ae14610178578063c85e766d146101a9578063d47c029c146101dd578063d92631db146101f95761009e565b8063020d07a4146100a357806346459b22146100bf5780635ab2ce22146100f057806368f2b1d21461010c578063747dcbde1461012a575b600080fd5b6100bd60048036038101906100b89190610f95565b610217565b005b6100d960048036038101906100d491906110a2565b6102f2565b6040516100e792919061115d565b60405180910390f35b61010a6004803603810190610105919061118d565b6103ae565b005b610114610426565b60405161012191906113ab565b60405180910390f35b610144600480360381019061013f91906110a2565b6106d7565b60405161015191906113cd565b60405180910390f35b61016261078e565b60405161016f91906114ee565b60405180910390f35b610192600480360381019061018d91906110a2565b610889565b6040516101a0929190611510565b60405180910390f35b6101c360048036038101906101be91906110a2565b6109cd565b6040516101d4959493929190611547565b60405180910390f35b6101f760048036038101906101f291906115b6565b610c33565b005b610201610cb8565b60405161020e9190611705565b60405180910390f35b60006040518060a00160405280600054815260200186815260200185815260200183815260200184815250905060008081548092919061025690611756565b919050555060038190806001815401808255809150506001900390600052602060002090600502016000909190919091506000820151816000015560208201518160010190816102a691906119aa565b5060408201518160020190816102bc91906119aa565b5060608201518160030190816102d291906119aa565b5060808201518160040190816102e891906119aa565b5050505050505050565b6004818154811061030257600080fd5b906000526020600020906002020160009150905080600001549080600101805461032b906117cd565b80601f0160208091040260200160405190810160405280929190818152602001828054610357906117cd565b80156103a45780601f10610379576101008083540402835291602001916103a4565b820191906000526020600020905b81548152906001019060200180831161038757829003601f168201915b5050505050905082565b600060405180604001604052808481526020018381525090506002819080600181540180825580915050600190039060005260206000209060020201600090919091909150600082015181600001908161040891906119aa565b50602082015181600101908161041e91906119aa565b505050505050565b60606003805480602002602001604051908101604052809291908181526020016000905b828210156106ce57838290600052602060002090600502016040518060a001604052908160008201548152602001600182018054610487906117cd565b80601f01602080910402602001604051908101604052809291908181526020018280546104b3906117cd565b80156105005780601f106104d557610100808354040283529160200191610500565b820191906000526020600020905b8154815290600101906020018083116104e357829003601f168201915b50505050508152602001600282018054610519906117cd565b80601f0160208091040260200160405190810160405280929190818152602001828054610545906117cd565b80156105925780601f1061056757610100808354040283529160200191610592565b820191906000526020600020905b81548152906001019060200180831161057557829003601f168201915b505050505081526020016003820180546105ab906117cd565b80601f01602080910402602001604051908101604052809291908181526020018280546105d7906117cd565b80156106245780601f106105f957610100808354040283529160200191610624565b820191906000526020600020905b81548152906001019060200180831161060757829003601f168201915b5050505050815260200160048201805461063d906117cd565b80601f0160208091040260200160405190810160405280929190818152602001828054610669906117cd565b80156106b65780601f1061068b576101008083540402835291602001916106b6565b820191906000526020600020905b81548152906001019060200180831161069957829003601f168201915b5050505050815250508152602001906001019061044a565b50505050905090565b6060600482815481106106ed576106ec611a7c565b5b90600052602060002090600202016001018054610709906117cd565b80601f0160208091040260200160405190810160405280929190818152602001828054610735906117cd565b80156107825780601f1061075757610100808354040283529160200191610782565b820191906000526020600020905b81548152906001019060200180831161076557829003601f168201915b50505050509050919050565b60606004805480602002602001604051908101604052809291908181526020016000905b828210156108805783829060005260206000209060020201604051806040016040529081600082015481526020016001820180546107ef906117cd565b80601f016020809104026020016040519081016040528092919081815260200182805461081b906117cd565b80156108685780601f1061083d57610100808354040283529160200191610868565b820191906000526020600020905b81548152906001019060200180831161084b57829003601f168201915b505050505081525050815260200190600101906107b2565b50505050905090565b6002818154811061089957600080fd5b90600052602060002090600202016000915090508060000180546108bc906117cd565b80601f01602080910402602001604051908101604052809291908181526020018280546108e8906117cd565b80156109355780601f1061090a57610100808354040283529160200191610935565b820191906000526020600020905b81548152906001019060200180831161091857829003601f168201915b50505050509080600101805461094a906117cd565b80601f0160208091040260200160405190810160405280929190818152602001828054610976906117cd565b80156109c35780601f10610998576101008083540402835291602001916109c3565b820191906000526020600020905b8154815290600101906020018083116109a657829003601f168201915b5050505050905082565b600381815481106109dd57600080fd5b9060005260206000209060050201600091509050806000015490806001018054610a06906117cd565b80601f0160208091040260200160405190810160405280929190818152602001828054610a32906117cd565b8015610a7f5780601f10610a5457610100808354040283529160200191610a7f565b820191906000526020600020905b815481529060010190602001808311610a6257829003601f168201915b505050505090806002018054610a94906117cd565b80601f0160208091040260200160405190810160405280929190818152602001828054610ac0906117cd565b8015610b0d5780601f10610ae257610100808354040283529160200191610b0d565b820191906000526020600020905b815481529060010190602001808311610af057829003601f168201915b505050505090806003018054610b22906117cd565b80601f0160208091040260200160405190810160405280929190818152602001828054610b4e906117cd565b8015610b9b5780601f10610b7057610100808354040283529160200191610b9b565b820191906000526020600020905b815481529060010190602001808311610b7e57829003601f168201915b505050505090806004018054610bb0906117cd565b80601f0160208091040260200160405190810160405280929190818152602001828054610bdc906117cd565b8015610c295780601f10610bfe57610100808354040283529160200191610c29565b820191906000526020600020905b815481529060010190602001808311610c0c57829003601f168201915b5050505050905085565b60006040518060400160405280600154815260200183815250905060016000815480929190610c6190611756565b91905055506004819080600181540180825580915050600190039060005260206000209060020201600090919091909150600082015181600001556020820151816001019081610cb191906119aa565b5050505050565b60606002805480602002602001604051908101604052809291908181526020016000905b82821015610e325783829060005260206000209060020201604051806040016040529081600082018054610d0f906117cd565b80601f0160208091040260200160405190810160405280929190818152602001828054610d3b906117cd565b8015610d885780601f10610d5d57610100808354040283529160200191610d88565b820191906000526020600020905b815481529060010190602001808311610d6b57829003601f168201915b50505050508152602001600182018054610da1906117cd565b80601f0160208091040260200160405190810160405280929190818152602001828054610dcd906117cd565b8015610e1a5780601f10610def57610100808354040283529160200191610e1a565b820191906000526020600020905b815481529060010190602001808311610dfd57829003601f168201915b50505050508152505081526020019060010190610cdc565b50505050905090565b6000604051905090565b600080fd5b600080fd5b600080fd5b600080fd5b6000601f19601f8301169050919050565b7f4e487b7100000000000000000000000000000000000000000000000000000000600052604160045260246000fd5b610ea282610e59565b810181811067ffffffffffffffff82111715610ec157610ec0610e6a565b5b80604052505050565b6000610ed4610e3b565b9050610ee08282610e99565b919050565b600067ffffffffffffffff821115610f0057610eff610e6a565b5b610f0982610e59565b9050602081019050919050565b82818337600083830152505050565b6000610f38610f3384610ee5565b610eca565b905082815260208101848484011115610f5457610f53610e54565b5b610f5f848285610f16565b509392505050565b600082601f830112610f7c57610f7b610e4f565b5b8135610f8c848260208601610f25565b91505092915050565b60008060008060808587031215610faf57610fae610e45565b5b600085013567ffffffffffffffff811115610fcd57610fcc610e4a565b5b610fd987828801610f67565b945050602085013567ffffffffffffffff811115610ffa57610ff9610e4a565b5b61100687828801610f67565b935050604085013567ffffffffffffffff81111561102757611026610e4a565b5b61103387828801610f67565b925050606085013567ffffffffffffffff81111561105457611053610e4a565b5b61106087828801610f67565b91505092959194509250565b6000819050919050565b61107f8161106c565b811461108a57600080fd5b50565b60008135905061109c81611076565b92915050565b6000602082840312156110b8576110b7610e45565b5b60006110c68482850161108d565b91505092915050565b6110d88161106c565b82525050565b600081519050919050565b600082825260208201905092915050565b60005b838110156111185780820151818401526020810190506110fd565b60008484015250505050565b600061112f826110de565b61113981856110e9565b93506111498185602086016110fa565b61115281610e59565b840191505092915050565b600060408201905061117260008301856110cf565b81810360208301526111848184611124565b90509392505050565b600080604083850312156111a4576111a3610e45565b5b600083013567ffffffffffffffff8111156111c2576111c1610e4a565b5b6111ce85828601610f67565b925050602083013567ffffffffffffffff8111156111ef576111ee610e4a565b5b6111fb85828601610f67565b9150509250929050565b600081519050919050565b600082825260208201905092915050565b6000819050602082019050919050565b61123a8161106c565b82525050565b600082825260208201905092915050565b600061125c826110de565b6112668185611240565b93506112768185602086016110fa565b61127f81610e59565b840191505092915050565b600060a0830160008301516112a26000860182611231565b50602083015184820360208601526112ba8282611251565b915050604083015184820360408601526112d48282611251565b915050606083015184820360608601526112ee8282611251565b915050608083015184820360808601526113088282611251565b9150508091505092915050565b6000611321838361128a565b905092915050565b6000602082019050919050565b600061134182611205565b61134b8185611210565b93508360208202850161135d85611221565b8060005b85811015611399578484038952815161137a8582611315565b945061138583611329565b925060208a01995050600181019050611361565b50829750879550505050505092915050565b600060208201905081810360008301526113c58184611336565b905092915050565b600060208201905081810360008301526113e78184611124565b905092915050565b600081519050919050565b600082825260208201905092915050565b6000819050602082019050919050565b60006040830160008301516114336000860182611231565b506020830151848203602086015261144b8282611251565b9150508091505092915050565b6000611464838361141b565b905092915050565b6000602082019050919050565b6000611484826113ef565b61148e81856113fa565b9350836020820285016114a08561140b565b8060005b858110156114dc57848403895281516114bd8582611458565b94506114c88361146c565b925060208a019950506001810190506114a4565b50829750879550505050505092915050565b600060208201905081810360008301526115088184611479565b905092915050565b6000604082019050818103600083015261152a8185611124565b9050818103602083015261153e8184611124565b90509392505050565b600060a08201905061155c60008301886110cf565b818103602083015261156e8187611124565b905081810360408301526115828186611124565b905081810360608301526115968185611124565b905081810360808301526115aa8184611124565b90509695505050505050565b6000602082840312156115cc576115cb610e45565b5b600082013567ffffffffffffffff8111156115ea576115e9610e4a565b5b6115f684828501610f67565b91505092915050565b600081519050919050565b600082825260208201905092915050565b6000819050602082019050919050565b600060408301600083015184820360008601526116488282611251565b915050602083015184820360208601526116628282611251565b9150508091505092915050565b600061167b838361162b565b905092915050565b6000602082019050919050565b600061169b826115ff565b6116a5818561160a565b9350836020820285016116b78561161b565b8060005b858110156116f357848403895281516116d4858261166f565b94506116df83611683565b925060208a019950506001810190506116bb565b50829750879550505050505092915050565b6000602082019050818103600083015261171f8184611690565b905092915050565b7f4e487b7100000000000000000000000000000000000000000000000000000000600052601160045260246000fd5b60006117618261106c565b91507fffffffffffffffffffffffffffffffffffffffffffffffffffffffffffffffff820361179357611792611727565b5b600182019050919050565b7f4e487b7100000000000000000000000000000000000000000000000000000000600052602260045260246000fd5b600060028204905060018216806117e557607f821691505b6020821081036117f8576117f761179e565b5b50919050565b60008190508160005260206000209050919050565b60006020601f8301049050919050565b600082821b905092915050565b6000600883026118607fffffffffffffffffffffffffffffffffffffffffffffffffffffffffffffffff82611823565b61186a8683611823565b95508019841693508086168417925050509392505050565b6000819050919050565b60006118a76118a261189d8461106c565b611882565b61106c565b9050919050565b6000819050919050565b6118c18361188c565b6118d56118cd826118ae565b848454611830565b825550505050565b600090565b6118ea6118dd565b6118f58184846118b8565b505050565b5b818110156119195761190e6000826118e2565b6001810190506118fb565b5050565b601f82111561195e5761192f816117fe565b61193884611813565b81016020851015611947578190505b61195b61195385611813565b8301826118fa565b50505b505050565b600082821c905092915050565b600061198160001984600802611963565b1980831691505092915050565b600061199a8383611970565b9150826002028217905092915050565b6119b3826110de565b67ffffffffffffffff8111156119cc576119cb610e6a565b5b6119d682546117cd565b6119e182828561191d565b600060209050601f831160018114611a145760008415611a02578287015190505b611a0c858261198e565b865550611a74565b601f198416611a22866117fe565b60005b82811015611a4a57848901518255600182019150602085019450602081019050611a25565b86831015611a675784890151611a63601f891682611970565b8355505b6001600288020188555050505b505050505050565b7f4e487b7100000000000000000000000000000000000000000000000000000000600052603260045260246000fdfea2646970667358221220c0fb3ad136ef41c03da9a84e6acf7076376ea851dd98a932caa69797f113522b64736f6c63430008120033",
					"opcodes": "PUSH1 0x80 PUSH1 0x40 MSTORE CALLVALUE DUP1 ISZERO PUSH2 0x10 JUMPI PUSH1 0x0 DUP1 REVERT JUMPDEST POP PUSH2 0x1AE1 DUP1 PUSH2 0x20 PUSH1 0x0 CODECOPY PUSH1 0x0 RETURN INVALID PUSH1 0x80 PUSH1 0x40 MSTORE CALLVALUE DUP1 ISZERO PUSH2 0x10 JUMPI PUSH1 0x0 DUP1 REVERT JUMPDEST POP PUSH1 0x4 CALLDATASIZE LT PUSH2 0x9E JUMPI PUSH1 0x0 CALLDATALOAD PUSH1 0xE0 SHR DUP1 PUSH4 0x9DF10DB0 GT PUSH2 0x66 JUMPI DUP1 PUSH4 0x9DF10DB0 EQ PUSH2 0x15A JUMPI DUP1 PUSH4 0xC38831AE EQ PUSH2 0x178 JUMPI DUP1 PUSH4 0xC85E766D EQ PUSH2 0x1A9 JUMPI DUP1 PUSH4 0xD47C029C EQ PUSH2 0x1DD JUMPI DUP1 PUSH4 0xD92631DB EQ PUSH2 0x1F9 JUMPI PUSH2 0x9E JUMP JUMPDEST DUP1 PUSH4 0x20D07A4 EQ PUSH2 0xA3 JUMPI DUP1 PUSH4 0x46459B22 EQ PUSH2 0xBF JUMPI DUP1 PUSH4 0x5AB2CE22 EQ PUSH2 0xF0 JUMPI DUP1 PUSH4 0x68F2B1D2 EQ PUSH2 0x10C JUMPI DUP1 PUSH4 0x747DCBDE EQ PUSH2 0x12A JUMPI JUMPDEST PUSH1 0x0 DUP1 REVERT JUMPDEST PUSH2 0xBD PUSH1 0x4 DUP1 CALLDATASIZE SUB DUP2 ADD SWAP1 PUSH2 0xB8 SWAP2 SWAP1 PUSH2 0xF95 JUMP JUMPDEST PUSH2 0x217 JUMP JUMPDEST STOP JUMPDEST PUSH2 0xD9 PUSH1 0x4 DUP1 CALLDATASIZE SUB DUP2 ADD SWAP1 PUSH2 0xD4 SWAP2 SWAP1 PUSH2 0x10A2 JUMP JUMPDEST PUSH2 0x2F2 JUMP JUMPDEST PUSH1 0x40 MLOAD PUSH2 0xE7 SWAP3 SWAP2 SWAP1 PUSH2 0x115D JUMP JUMPDEST PUSH1 0x40 MLOAD DUP1 SWAP2 SUB SWAP1 RETURN JUMPDEST PUSH2 0x10A PUSH1 0x4 DUP1 CALLDATASIZE SUB DUP2 ADD SWAP1 PUSH2 0x105 SWAP2 SWAP1 PUSH2 0x118D JUMP JUMPDEST PUSH2 0x3AE JUMP JUMPDEST STOP JUMPDEST PUSH2 0x114 PUSH2 0x426 JUMP JUMPDEST PUSH1 0x40 MLOAD PUSH2 0x121 SWAP2 SWAP1 PUSH2 0x13AB JUMP JUMPDEST PUSH1 0x40 MLOAD DUP1 SWAP2 SUB SWAP1 RETURN JUMPDEST PUSH2 0x144 PUSH1 0x4 DUP1 CALLDATASIZE SUB DUP2 ADD SWAP1 PUSH2 0x13F SWAP2 SWAP1 PUSH2 0x10A2 JUMP JUMPDEST PUSH2 0x6D7 JUMP JUMPDEST PUSH1 0x40 MLOAD PUSH2 0x151 SWAP2 SWAP1 PUSH2 0x13CD JUMP JUMPDEST PUSH1 0x40 MLOAD DUP1 SWAP2 SUB SWAP1 RETURN JUMPDEST PUSH2 0x162 PUSH2 0x78E JUMP JUMPDEST PUSH1 0x40 MLOAD PUSH2 0x16F SWAP2 SWAP1 PUSH2 0x14EE JUMP JUMPDEST PUSH1 0x40 MLOAD DUP1 SWAP2 SUB SWAP1 RETURN JUMPDEST PUSH2 0x192 PUSH1 0x4 DUP1 CALLDATASIZE SUB DUP2 ADD SWAP1 PUSH2 0x18D SWAP2 SWAP1 PUSH2 0x10A2 JUMP JUMPDEST PUSH2 0x889 JUMP JUMPDEST PUSH1 0x40 MLOAD PUSH2 0x1A0 SWAP3 SWAP2 SWAP1 PUSH2 0x1510 JUMP JUMPDEST PUSH1 0x40 MLOAD DUP1 SWAP2 SUB SWAP1 RETURN JUMPDEST PUSH2 0x1C3 PUSH1 0x4 DUP1 CALLDATASIZE SUB DUP2 ADD SWAP1 PUSH2 0x1BE SWAP2 SWAP1 PUSH2 0x10A2 JUMP JUMPDEST PUSH2 0x9CD JUMP JUMPDEST PUSH1 0x40 MLOAD PUSH2 0x1D4 SWAP6 SWAP5 SWAP4 SWAP3 SWAP2 SWAP1 PUSH2 0x1547 JUMP JUMPDEST PUSH1 0x40 MLOAD DUP1 SWAP2 SUB SWAP1 RETURN JUMPDEST PUSH2 0x1F7 PUSH1 0x4 DUP1 CALLDATASIZE SUB DUP2 ADD SWAP1 PUSH2 0x1F2 SWAP2 SWAP1 PUSH2 0x15B6 JUMP JUMPDEST PUSH2 0xC33 JUMP JUMPDEST STOP JUMPDEST PUSH2 0x201 PUSH2 0xCB8 JUMP JUMPDEST PUSH1 0x40 MLOAD PUSH2 0x20E SWAP2 SWAP1 PUSH2 0x1705 JUMP JUMPDEST PUSH1 0x40 MLOAD DUP1 SWAP2 SUB SWAP1 RETURN JUMPDEST PUSH1 0x0 PUSH1 0x40 MLOAD DUP1 PUSH1 0xA0 ADD PUSH1 0x40 MSTORE DUP1 PUSH1 0x0 SLOAD DUP2 MSTORE PUSH1 0x20 ADD DUP7 DUP2 MSTORE PUSH1 0x20 ADD DUP6 DUP2 MSTORE PUSH1 0x20 ADD DUP4 DUP2 MSTORE PUSH1 0x20 ADD DUP5 DUP2 MSTORE POP SWAP1 POP PUSH1 0x0 DUP1 DUP2 SLOAD DUP1 SWAP3 SWAP2 SWAP1 PUSH2 0x256 SWAP1 PUSH2 0x1756 JUMP JUMPDEST SWAP2 SWAP1 POP SSTORE POP PUSH1 0x3 DUP2 SWAP1 DUP1 PUSH1 0x1 DUP2 SLOAD ADD DUP1 DUP3 SSTORE DUP1 SWAP2 POP POP PUSH1 0x1 SWAP1 SUB SWAP1 PUSH1 0x0 MSTORE PUSH1 0x20 PUSH1 0x0 KECCAK256 SWAP1 PUSH1 0x5 MUL ADD PUSH1 0x0 SWAP1 SWAP2 SWAP1 SWAP2 SWAP1 SWAP2 POP PUSH1 0x0 DUP3 ADD MLOAD DUP2 PUSH1 0x0 ADD SSTORE PUSH1 0x20 DUP3 ADD MLOAD DUP2 PUSH1 0x1 ADD SWAP1 DUP2 PUSH2 0x2A6 SWAP2 SWAP1 PUSH2 0x19AA JUMP JUMPDEST POP PUSH1 0x40 DUP3 ADD MLOAD DUP2 PUSH1 0x2 ADD SWAP1 DUP2 PUSH2 0x2BC SWAP2 SWAP1 PUSH2 0x19AA JUMP JUMPDEST POP PUSH1 0x60 DUP3 ADD MLOAD DUP2 PUSH1 0x3 ADD SWAP1 DUP2 PUSH2 0x2D2 SWAP2 SWAP1 PUSH2 0x19AA JUMP JUMPDEST POP PUSH1 0x80 DUP3 ADD MLOAD DUP2 PUSH1 0x4 ADD SWAP1 DUP2 PUSH2 0x2E8 SWAP2 SWAP1 PUSH2 0x19AA JUMP JUMPDEST POP POP POP POP POP POP POP POP JUMP JUMPDEST PUSH1 0x4 DUP2 DUP2 SLOAD DUP2 LT PUSH2 0x302 JUMPI PUSH1 0x0 DUP1 REVERT JUMPDEST SWAP1 PUSH1 0x0 MSTORE PUSH1 0x20 PUSH1 0x0 KECCAK256 SWAP1 PUSH1 0x2 MUL ADD PUSH1 0x0 SWAP2 POP SWAP1 POP DUP1 PUSH1 0x0 ADD SLOAD SWAP1 DUP1 PUSH1 0x1 ADD DUP1 SLOAD PUSH2 0x32B SWAP1 PUSH2 0x17CD JUMP JUMPDEST DUP1 PUSH1 0x1F ADD PUSH1 0x20 DUP1 SWAP2 DIV MUL PUSH1 0x20 ADD PUSH1 0x40 MLOAD SWAP1 DUP2 ADD PUSH1 0x40 MSTORE DUP1 SWAP3 SWAP2 SWAP1 DUP2 DUP2 MSTORE PUSH1 0x20 ADD DUP3 DUP1 SLOAD PUSH2 0x357 SWAP1 PUSH2 0x17CD JUMP JUMPDEST DUP1 ISZERO PUSH2 0x3A4 JUMPI DUP1 PUSH1 0x1F LT PUSH2 0x379 JUMPI PUSH2 0x100 DUP1 DUP4 SLOAD DIV MUL DUP4 MSTORE SWAP2 PUSH1 0x20 ADD SWAP2 PUSH2 0x3A4 JUMP JUMPDEST DUP3 ADD SWAP2 SWAP1 PUSH1 0x0 MSTORE PUSH1 0x20 PUSH1 0x0 KECCAK256 SWAP1 JUMPDEST DUP2 SLOAD DUP2 MSTORE SWAP1 PUSH1 0x1 ADD SWAP1 PUSH1 0x20 ADD DUP1 DUP4 GT PUSH2 0x387 JUMPI DUP3 SWAP1 SUB PUSH1 0x1F AND DUP3 ADD SWAP2 JUMPDEST POP POP POP POP POP SWAP1 POP DUP3 JUMP JUMPDEST PUSH1 0x0 PUSH1 0x40 MLOAD DUP1 PUSH1 0x40 ADD PUSH1 0x40 MSTORE DUP1 DUP5 DUP2 MSTORE PUSH1 0x20 ADD DUP4 DUP2 MSTORE POP SWAP1 POP PUSH1 0x2 DUP2 SWAP1 DUP1 PUSH1 0x1 DUP2 SLOAD ADD DUP1 DUP3 SSTORE DUP1 SWAP2 POP POP PUSH1 0x1 SWAP1 SUB SWAP1 PUSH1 0x0 MSTORE PUSH1 0x20 PUSH1 0x0 KECCAK256 SWAP1 PUSH1 0x2 MUL ADD PUSH1 0x0 SWAP1 SWAP2 SWAP1 SWAP2 SWAP1 SWAP2 POP PUSH1 0x0 DUP3 ADD MLOAD DUP2 PUSH1 0x0 ADD SWAP1 DUP2 PUSH2 0x408 SWAP2 SWAP1 PUSH2 0x19AA JUMP JUMPDEST POP PUSH1 0x20 DUP3 ADD MLOAD DUP2 PUSH1 0x1 ADD SWAP1 DUP2 PUSH2 0x41E SWAP2 SWAP1 PUSH2 0x19AA JUMP JUMPDEST POP POP POP POP POP POP JUMP JUMPDEST PUSH1 0x60 PUSH1 0x3 DUP1 SLOAD DUP1 PUSH1 0x20 MUL PUSH1 0x20 ADD PUSH1 0x40 MLOAD SWAP1 DUP2 ADD PUSH1 0x40 MSTORE DUP1 SWAP3 SWAP2 SWAP1 DUP2 DUP2 MSTORE PUSH1 0x20 ADD PUSH1 0x0 SWAP1 JUMPDEST DUP3 DUP3 LT ISZERO PUSH2 0x6CE JUMPI DUP4 DUP3 SWAP1 PUSH1 0x0 MSTORE PUSH1 0x20 PUSH1 0x0 KECCAK256 SWAP1 PUSH1 0x5 MUL ADD PUSH1 0x40 MLOAD DUP1 PUSH1 0xA0 ADD PUSH1 0x40 MSTORE SWAP1 DUP2 PUSH1 0x0 DUP3 ADD SLOAD DUP2 MSTORE PUSH1 0x20 ADD PUSH1 0x1 DUP3 ADD DUP1 SLOAD PUSH2 0x487 SWAP1 PUSH2 0x17CD JUMP JUMPDEST DUP1 PUSH1 0x1F ADD PUSH1 0x20 DUP1 SWAP2 DIV MUL PUSH1 0x20 ADD PUSH1 0x40 MLOAD SWAP1 DUP2 ADD PUSH1 0x40 MSTORE DUP1 SWAP3 SWAP2 SWAP1 DUP2 DUP2 MSTORE PUSH1 0x20 ADD DUP3 DUP1 SLOAD PUSH2 0x4B3 SWAP1 PUSH2 0x17CD JUMP JUMPDEST DUP1 ISZERO PUSH2 0x500 JUMPI DUP1 PUSH1 0x1F LT PUSH2 0x4D5 JUMPI PUSH2 0x100 DUP1 DUP4 SLOAD DIV MUL DUP4 MSTORE SWAP2 PUSH1 0x20 ADD SWAP2 PUSH2 0x500 JUMP JUMPDEST DUP3 ADD SWAP2 SWAP1 PUSH1 0x0 MSTORE PUSH1 0x20 PUSH1 0x0 KECCAK256 SWAP1 JUMPDEST DUP2 SLOAD DUP2 MSTORE SWAP1 PUSH1 0x1 ADD SWAP1 PUSH1 0x20 ADD DUP1 DUP4 GT PUSH2 0x4E3 JUMPI DUP3 SWAP1 SUB PUSH1 0x1F AND DUP3 ADD SWAP2 JUMPDEST POP POP POP POP POP DUP2 MSTORE PUSH1 0x20 ADD PUSH1 0x2 DUP3 ADD DUP1 SLOAD PUSH2 0x519 SWAP1 PUSH2 0x17CD JUMP JUMPDEST DUP1 PUSH1 0x1F ADD PUSH1 0x20 DUP1 SWAP2 DIV MUL PUSH1 0x20 ADD PUSH1 0x40 MLOAD SWAP1 DUP2 ADD PUSH1 0x40 MSTORE DUP1 SWAP3 SWAP2 SWAP1 DUP2 DUP2 MSTORE PUSH1 0x20 ADD DUP3 DUP1 SLOAD PUSH2 0x545 SWAP1 PUSH2 0x17CD JUMP JUMPDEST DUP1 ISZERO PUSH2 0x592 JUMPI DUP1 PUSH1 0x1F LT PUSH2 0x567 JUMPI PUSH2 0x100 DUP1 DUP4 SLOAD DIV MUL DUP4 MSTORE SWAP2 PUSH1 0x20 ADD SWAP2 PUSH2 0x592 JUMP JUMPDEST DUP3 ADD SWAP2 SWAP1 PUSH1 0x0 MSTORE PUSH1 0x20 PUSH1 0x0 KECCAK256 SWAP1 JUMPDEST DUP2 SLOAD DUP2 MSTORE SWAP1 PUSH1 0x1 ADD SWAP1 PUSH1 0x20 ADD DUP1 DUP4 GT PUSH2 0x575 JUMPI DUP3 SWAP1 SUB PUSH1 0x1F AND DUP3 ADD SWAP2 JUMPDEST POP POP POP POP POP DUP2 MSTORE PUSH1 0x20 ADD PUSH1 0x3 DUP3 ADD DUP1 SLOAD PUSH2 0x5AB SWAP1 PUSH2 0x17CD JUMP JUMPDEST DUP1 PUSH1 0x1F ADD PUSH1 0x20 DUP1 SWAP2 DIV MUL PUSH1 0x20 ADD PUSH1 0x40 MLOAD SWAP1 DUP2 ADD PUSH1 0x40 MSTORE DUP1 SWAP3 SWAP2 SWAP1 DUP2 DUP2 MSTORE PUSH1 0x20 ADD DUP3 DUP1 SLOAD PUSH2 0x5D7 SWAP1 PUSH2 0x17CD JUMP JUMPDEST DUP1 ISZERO PUSH2 0x624 JUMPI DUP1 PUSH1 0x1F LT PUSH2 0x5F9 JUMPI PUSH2 0x100 DUP1 DUP4 SLOAD DIV MUL DUP4 MSTORE SWAP2 PUSH1 0x20 ADD SWAP2 PUSH2 0x624 JUMP JUMPDEST DUP3 ADD SWAP2 SWAP1 PUSH1 0x0 MSTORE PUSH1 0x20 PUSH1 0x0 KECCAK256 SWAP1 JUMPDEST DUP2 SLOAD DUP2 MSTORE SWAP1 PUSH1 0x1 ADD SWAP1 PUSH1 0x20 ADD DUP1 DUP4 GT PUSH2 0x607 JUMPI DUP3 SWAP1 SUB PUSH1 0x1F AND DUP3 ADD SWAP2 JUMPDEST POP POP POP POP POP DUP2 MSTORE PUSH1 0x20 ADD PUSH1 0x4 DUP3 ADD DUP1 SLOAD PUSH2 0x63D SWAP1 PUSH2 0x17CD JUMP JUMPDEST DUP1 PUSH1 0x1F ADD PUSH1 0x20 DUP1 SWAP2 DIV MUL PUSH1 0x20 ADD PUSH1 0x40 MLOAD SWAP1 DUP2 ADD PUSH1 0x40 MSTORE DUP1 SWAP3 SWAP2 SWAP1 DUP2 DUP2 MSTORE PUSH1 0x20 ADD DUP3 DUP1 SLOAD PUSH2 0x669 SWAP1 PUSH2 0x17CD JUMP JUMPDEST DUP1 ISZERO PUSH2 0x6B6 JUMPI DUP1 PUSH1 0x1F LT PUSH2 0x68B JUMPI PUSH2 0x100 DUP1 DUP4 SLOAD DIV MUL DUP4 MSTORE SWAP2 PUSH1 0x20 ADD SWAP2 PUSH2 0x6B6 JUMP JUMPDEST DUP3 ADD SWAP2 SWAP1 PUSH1 0x0 MSTORE PUSH1 0x20 PUSH1 0x0 KECCAK256 SWAP1 JUMPDEST DUP2 SLOAD DUP2 MSTORE SWAP1 PUSH1 0x1 ADD SWAP1 PUSH1 0x20 ADD DUP1 DUP4 GT PUSH2 0x699 JUMPI DUP3 SWAP1 SUB PUSH1 0x1F AND DUP3 ADD SWAP2 JUMPDEST POP POP POP POP POP DUP2 MSTORE POP POP DUP2 MSTORE PUSH1 0x20 ADD SWAP1 PUSH1 0x1 ADD SWAP1 PUSH2 0x44A JUMP JUMPDEST POP POP POP POP SWAP1 POP SWAP1 JUMP JUMPDEST PUSH1 0x60 PUSH1 0x4 DUP3 DUP2 SLOAD DUP2 LT PUSH2 0x6ED JUMPI PUSH2 0x6EC PUSH2 0x1A7C JUMP JUMPDEST JUMPDEST SWAP1 PUSH1 0x0 MSTORE PUSH1 0x20 PUSH1 0x0 KECCAK256 SWAP1 PUSH1 0x2 MUL ADD PUSH1 0x1 ADD DUP1 SLOAD PUSH2 0x709 SWAP1 PUSH2 0x17CD JUMP JUMPDEST DUP1 PUSH1 0x1F ADD PUSH1 0x20 DUP1 SWAP2 DIV MUL PUSH1 0x20 ADD PUSH1 0x40 MLOAD SWAP1 DUP2 ADD PUSH1 0x40 MSTORE DUP1 SWAP3 SWAP2 SWAP1 DUP2 DUP2 MSTORE PUSH1 0x20 ADD DUP3 DUP1 SLOAD PUSH2 0x735 SWAP1 PUSH2 0x17CD JUMP JUMPDEST DUP1 ISZERO PUSH2 0x782 JUMPI DUP1 PUSH1 0x1F LT PUSH2 0x757 JUMPI PUSH2 0x100 DUP1 DUP4 SLOAD DIV MUL DUP4 MSTORE SWAP2 PUSH1 0x20 ADD SWAP2 PUSH2 0x782 JUMP JUMPDEST DUP3 ADD SWAP2 SWAP1 PUSH1 0x0 MSTORE PUSH1 0x20 PUSH1 0x0 KECCAK256 SWAP1 JUMPDEST DUP2 SLOAD DUP2 MSTORE SWAP1 PUSH1 0x1 ADD SWAP1 PUSH1 0x20 ADD DUP1 DUP4 GT PUSH2 0x765 JUMPI DUP3 SWAP1 SUB PUSH1 0x1F AND DUP3 ADD SWAP2 JUMPDEST POP POP POP POP POP SWAP1 POP SWAP2 SWAP1 POP JUMP JUMPDEST PUSH1 0x60 PUSH1 0x4 DUP1 SLOAD DUP1 PUSH1 0x20 MUL PUSH1 0x20 ADD PUSH1 0x40 MLOAD SWAP1 DUP2 ADD PUSH1 0x40 MSTORE DUP1 SWAP3 SWAP2 SWAP1 DUP2 DUP2 MSTORE PUSH1 0x20 ADD PUSH1 0x0 SWAP1 JUMPDEST DUP3 DUP3 LT ISZERO PUSH2 0x880 JUMPI DUP4 DUP3 SWAP1 PUSH1 0x0 MSTORE PUSH1 0x20 PUSH1 0x0 KECCAK256 SWAP1 PUSH1 0x2 MUL ADD PUSH1 0x40 MLOAD DUP1 PUSH1 0x40 ADD PUSH1 0x40 MSTORE SWAP1 DUP2 PUSH1 0x0 DUP3 ADD SLOAD DUP2 MSTORE PUSH1 0x20 ADD PUSH1 0x1 DUP3 ADD DUP1 SLOAD PUSH2 0x7EF SWAP1 PUSH2 0x17CD JUMP JUMPDEST DUP1 PUSH1 0x1F ADD PUSH1 0x20 DUP1 SWAP2 DIV MUL PUSH1 0x20 ADD PUSH1 0x40 MLOAD SWAP1 DUP2 ADD PUSH1 0x40 MSTORE DUP1 SWAP3 SWAP2 SWAP1 DUP2 DUP2 MSTORE PUSH1 0x20 ADD DUP3 DUP1 SLOAD PUSH2 0x81B SWAP1 PUSH2 0x17CD JUMP JUMPDEST DUP1 ISZERO PUSH2 0x868 JUMPI DUP1 PUSH1 0x1F LT PUSH2 0x83D JUMPI PUSH2 0x100 DUP1 DUP4 SLOAD DIV MUL DUP4 MSTORE SWAP2 PUSH1 0x20 ADD SWAP2 PUSH2 0x868 JUMP JUMPDEST DUP3 ADD SWAP2 SWAP1 PUSH1 0x0 MSTORE PUSH1 0x20 PUSH1 0x0 KECCAK256 SWAP1 JUMPDEST DUP2 SLOAD DUP2 MSTORE SWAP1 PUSH1 0x1 ADD SWAP1 PUSH1 0x20 ADD DUP1 DUP4 GT PUSH2 0x84B JUMPI DUP3 SWAP1 SUB PUSH1 0x1F AND DUP3 ADD SWAP2 JUMPDEST POP POP POP POP POP DUP2 MSTORE POP POP DUP2 MSTORE PUSH1 0x20 ADD SWAP1 PUSH1 0x1 ADD SWAP1 PUSH2 0x7B2 JUMP JUMPDEST POP POP POP POP SWAP1 POP SWAP1 JUMP JUMPDEST PUSH1 0x2 DUP2 DUP2 SLOAD DUP2 LT PUSH2 0x899 JUMPI PUSH1 0x0 DUP1 REVERT JUMPDEST SWAP1 PUSH1 0x0 MSTORE PUSH1 0x20 PUSH1 0x0 KECCAK256 SWAP1 PUSH1 0x2 MUL ADD PUSH1 0x0 SWAP2 POP SWAP1 POP DUP1 PUSH1 0x0 ADD DUP1 SLOAD PUSH2 0x8BC SWAP1 PUSH2 0x17CD JUMP JUMPDEST DUP1 PUSH1 0x1F ADD PUSH1 0x20 DUP1 SWAP2 DIV MUL PUSH1 0x20 ADD PUSH1 0x40 MLOAD SWAP1 DUP2 ADD PUSH1 0x40 MSTORE DUP1 SWAP3 SWAP2 SWAP1 DUP2 DUP2 MSTORE PUSH1 0x20 ADD DUP3 DUP1 SLOAD PUSH2 0x8E8 SWAP1 PUSH2 0x17CD JUMP JUMPDEST DUP1 ISZERO PUSH2 0x935 JUMPI DUP1 PUSH1 0x1F LT PUSH2 0x90A JUMPI PUSH2 0x100 DUP1 DUP4 SLOAD DIV MUL DUP4 MSTORE SWAP2 PUSH1 0x20 ADD SWAP2 PUSH2 0x935 JUMP JUMPDEST DUP3 ADD SWAP2 SWAP1 PUSH1 0x0 MSTORE PUSH1 0x20 PUSH1 0x0 KECCAK256 SWAP1 JUMPDEST DUP2 SLOAD DUP2 MSTORE SWAP1 PUSH1 0x1 ADD SWAP1 PUSH1 0x20 ADD DUP1 DUP4 GT PUSH2 0x918 JUMPI DUP3 SWAP1 SUB PUSH1 0x1F AND DUP3 ADD SWAP2 JUMPDEST POP POP POP POP POP SWAP1 DUP1 PUSH1 0x1 ADD DUP1 SLOAD PUSH2 0x94A SWAP1 PUSH2 0x17CD JUMP JUMPDEST DUP1 PUSH1 0x1F ADD PUSH1 0x20 DUP1 SWAP2 DIV MUL PUSH1 0x20 ADD PUSH1 0x40 MLOAD SWAP1 DUP2 ADD PUSH1 0x40 MSTORE DUP1 SWAP3 SWAP2 SWAP1 DUP2 DUP2 MSTORE PUSH1 0x20 ADD DUP3 DUP1 SLOAD PUSH2 0x976 SWAP1 PUSH2 0x17CD JUMP JUMPDEST DUP1 ISZERO PUSH2 0x9C3 JUMPI DUP1 PUSH1 0x1F LT PUSH2 0x998 JUMPI PUSH2 0x100 DUP1 DUP4 SLOAD DIV MUL DUP4 MSTORE SWAP2 PUSH1 0x20 ADD SWAP2 PUSH2 0x9C3 JUMP JUMPDEST DUP3 ADD SWAP2 SWAP1 PUSH1 0x0 MSTORE PUSH1 0x20 PUSH1 0x0 KECCAK256 SWAP1 JUMPDEST DUP2 SLOAD DUP2 MSTORE SWAP1 PUSH1 0x1 ADD SWAP1 PUSH1 0x20 ADD DUP1 DUP4 GT PUSH2 0x9A6 JUMPI DUP3 SWAP1 SUB PUSH1 0x1F AND DUP3 ADD SWAP2 JUMPDEST POP POP POP POP POP SWAP1 POP DUP3 JUMP JUMPDEST PUSH1 0x3 DUP2 DUP2 SLOAD DUP2 LT PUSH2 0x9DD JUMPI PUSH1 0x0 DUP1 REVERT JUMPDEST SWAP1 PUSH1 0x0 MSTORE PUSH1 0x20 PUSH1 0x0 KECCAK256 SWAP1 PUSH1 0x5 MUL ADD PUSH1 0x0 SWAP2 POP SWAP1 POP DUP1 PUSH1 0x0 ADD SLOAD SWAP1 DUP1 PUSH1 0x1 ADD DUP1 SLOAD PUSH2 0xA06 SWAP1 PUSH2 0x17CD JUMP JUMPDEST DUP1 PUSH1 0x1F ADD PUSH1 0x20 DUP1 SWAP2 DIV MUL PUSH1 0x20 ADD PUSH1 0x40 MLOAD SWAP1 DUP2 ADD PUSH1 0x40 MSTORE DUP1 SWAP3 SWAP2 SWAP1 DUP2 DUP2 MSTORE PUSH1 0x20 ADD DUP3 DUP1 SLOAD PUSH2 0xA32 SWAP1 PUSH2 0x17CD JUMP JUMPDEST DUP1 ISZERO PUSH2 0xA7F JUMPI DUP1 PUSH1 0x1F LT PUSH2 0xA54 JUMPI PUSH2 0x100 DUP1 DUP4 SLOAD DIV MUL DUP4 MSTORE SWAP2 PUSH1 0x20 ADD SWAP2 PUSH2 0xA7F JUMP JUMPDEST DUP3 ADD SWAP2 SWAP1 PUSH1 0x0 MSTORE PUSH1 0x20 PUSH1 0x0 KECCAK256 SWAP1 JUMPDEST DUP2 SLOAD DUP2 MSTORE SWAP1 PUSH1 0x1 ADD SWAP1 PUSH1 0x20 ADD DUP1 DUP4 GT PUSH2 0xA62 JUMPI DUP3 SWAP1 SUB PUSH1 0x1F AND DUP3 ADD SWAP2 JUMPDEST POP POP POP POP POP SWAP1 DUP1 PUSH1 0x2 ADD DUP1 SLOAD PUSH2 0xA94 SWAP1 PUSH2 0x17CD JUMP JUMPDEST DUP1 PUSH1 0x1F ADD PUSH1 0x20 DUP1 SWAP2 DIV MUL PUSH1 0x20 ADD PUSH1 0x40 MLOAD SWAP1 DUP2 ADD PUSH1 0x40 MSTORE DUP1 SWAP3 SWAP2 SWAP1 DUP2 DUP2 MSTORE PUSH1 0x20 ADD DUP3 DUP1 SLOAD PUSH2 0xAC0 SWAP1 PUSH2 0x17CD JUMP JUMPDEST DUP1 ISZERO PUSH2 0xB0D JUMPI DUP1 PUSH1 0x1F LT PUSH2 0xAE2 JUMPI PUSH2 0x100 DUP1 DUP4 SLOAD DIV MUL DUP4 MSTORE SWAP2 PUSH1 0x20 ADD SWAP2 PUSH2 0xB0D JUMP JUMPDEST DUP3 ADD SWAP2 SWAP1 PUSH1 0x0 MSTORE PUSH1 0x20 PUSH1 0x0 KECCAK256 SWAP1 JUMPDEST DUP2 SLOAD DUP2 MSTORE SWAP1 PUSH1 0x1 ADD SWAP1 PUSH1 0x20 ADD DUP1 DUP4 GT PUSH2 0xAF0 JUMPI DUP3 SWAP1 SUB PUSH1 0x1F AND DUP3 ADD SWAP2 JUMPDEST POP POP POP POP POP SWAP1 DUP1 PUSH1 0x3 ADD DUP1 SLOAD PUSH2 0xB22 SWAP1 PUSH2 0x17CD JUMP JUMPDEST DUP1 PUSH1 0x1F ADD PUSH1 0x20 DUP1 SWAP2 DIV MUL PUSH1 0x20 ADD PUSH1 0x40 MLOAD SWAP1 DUP2 ADD PUSH1 0x40 MSTORE DUP1 SWAP3 SWAP2 SWAP1 DUP2 DUP2 MSTORE PUSH1 0x20 ADD DUP3 DUP1 SLOAD PUSH2 0xB4E SWAP1 PUSH2 0x17CD JUMP JUMPDEST DUP1 ISZERO PUSH2 0xB9B JUMPI DUP1 PUSH1 0x1F LT PUSH2 0xB70 JUMPI PUSH2 0x100 DUP1 DUP4 SLOAD DIV MUL DUP4 MSTORE SWAP2 PUSH1 0x20 ADD SWAP2 PUSH2 0xB9B JUMP JUMPDEST DUP3 ADD SWAP2 SWAP1 PUSH1 0x0 MSTORE PUSH1 0x20 PUSH1 0x0 KECCAK256 SWAP1 JUMPDEST DUP2 SLOAD DUP2 MSTORE SWAP1 PUSH1 0x1 ADD SWAP1 PUSH1 0x20 ADD DUP1 DUP4 GT PUSH2 0xB7E JUMPI DUP3 SWAP1 SUB PUSH1 0x1F AND DUP3 ADD SWAP2 JUMPDEST POP POP POP POP POP SWAP1 DUP1 PUSH1 0x4 ADD DUP1 SLOAD PUSH2 0xBB0 SWAP1 PUSH2 0x17CD JUMP JUMPDEST DUP1 PUSH1 0x1F ADD PUSH1 0x20 DUP1 SWAP2 DIV MUL PUSH1 0x20 ADD PUSH1 0x40 MLOAD SWAP1 DUP2 ADD PUSH1 0x40 MSTORE DUP1 SWAP3 SWAP2 SWAP1 DUP2 DUP2 MSTORE PUSH1 0x20 ADD DUP3 DUP1 SLOAD PUSH2 0xBDC SWAP1 PUSH2 0x17CD JUMP JUMPDEST DUP1 ISZERO PUSH2 0xC29 JUMPI DUP1 PUSH1 0x1F LT PUSH2 0xBFE JUMPI PUSH2 0x100 DUP1 DUP4 SLOAD DIV MUL DUP4 MSTORE SWAP2 PUSH1 0x20 ADD SWAP2 PUSH2 0xC29 JUMP JUMPDEST DUP3 ADD SWAP2 SWAP1 PUSH1 0x0 MSTORE PUSH1 0x20 PUSH1 0x0 KECCAK256 SWAP1 JUMPDEST DUP2 SLOAD DUP2 MSTORE SWAP1 PUSH1 0x1 ADD SWAP1 PUSH1 0x20 ADD DUP1 DUP4 GT PUSH2 0xC0C JUMPI DUP3 SWAP1 SUB PUSH1 0x1F AND DUP3 ADD SWAP2 JUMPDEST POP POP POP POP POP SWAP1 POP DUP6 JUMP JUMPDEST PUSH1 0x0 PUSH1 0x40 MLOAD DUP1 PUSH1 0x40 ADD PUSH1 0x40 MSTORE DUP1 PUSH1 0x1 SLOAD DUP2 MSTORE PUSH1 0x20 ADD DUP4 DUP2 MSTORE POP SWAP1 POP PUSH1 0x1 PUSH1 0x0 DUP2 SLOAD DUP1 SWAP3 SWAP2 SWAP1 PUSH2 0xC61 SWAP1 PUSH2 0x1756 JUMP JUMPDEST SWAP2 SWAP1 POP SSTORE POP PUSH1 0x4 DUP2 SWAP1 DUP1 PUSH1 0x1 DUP2 SLOAD ADD DUP1 DUP3 SSTORE DUP1 SWAP2 POP POP PUSH1 0x1 SWAP1 SUB SWAP1 PUSH1 0x0 MSTORE PUSH1 0x20 PUSH1 0x0 KECCAK256 SWAP1 PUSH1 0x2 MUL ADD PUSH1 0x0 SWAP1 SWAP2 SWAP1 SWAP2 SWAP1 SWAP2 POP PUSH1 0x0 DUP3 ADD MLOAD DUP2 PUSH1 0x0 ADD SSTORE PUSH1 0x20 DUP3 ADD MLOAD DUP2 PUSH1 0x1 ADD SWAP1 DUP2 PUSH2 0xCB1 SWAP2 SWAP1 PUSH2 0x19AA JUMP JUMPDEST POP POP POP POP POP JUMP JUMPDEST PUSH1 0x60 PUSH1 0x2 DUP1 SLOAD DUP1 PUSH1 0x20 MUL PUSH1 0x20 ADD PUSH1 0x40 MLOAD SWAP1 DUP2 ADD PUSH1 0x40 MSTORE DUP1 SWAP3 SWAP2 SWAP1 DUP2 DUP2 MSTORE PUSH1 0x20 ADD PUSH1 0x0 SWAP1 JUMPDEST DUP3 DUP3 LT ISZERO PUSH2 0xE32 JUMPI DUP4 DUP3 SWAP1 PUSH1 0x0 MSTORE PUSH1 0x20 PUSH1 0x0 KECCAK256 SWAP1 PUSH1 0x2 MUL ADD PUSH1 0x40 MLOAD DUP1 PUSH1 0x40 ADD PUSH1 0x40 MSTORE SWAP1 DUP2 PUSH1 0x0 DUP3 ADD DUP1 SLOAD PUSH2 0xD0F SWAP1 PUSH2 0x17CD JUMP JUMPDEST DUP1 PUSH1 0x1F ADD PUSH1 0x20 DUP1 SWAP2 DIV MUL PUSH1 0x20 ADD PUSH1 0x40 MLOAD SWAP1 DUP2 ADD PUSH1 0x40 MSTORE DUP1 SWAP3 SWAP2 SWAP1 DUP2 DUP2 MSTORE PUSH1 0x20 ADD DUP3 DUP1 SLOAD PUSH2 0xD3B SWAP1 PUSH2 0x17CD JUMP JUMPDEST DUP1 ISZERO PUSH2 0xD88 JUMPI DUP1 PUSH1 0x1F LT PUSH2 0xD5D JUMPI PUSH2 0x100 DUP1 DUP4 SLOAD DIV MUL DUP4 MSTORE SWAP2 PUSH1 0x20 ADD SWAP2 PUSH2 0xD88 JUMP JUMPDEST DUP3 ADD SWAP2 SWAP1 PUSH1 0x0 MSTORE PUSH1 0x20 PUSH1 0x0 KECCAK256 SWAP1 JUMPDEST DUP2 SLOAD DUP2 MSTORE SWAP1 PUSH1 0x1 ADD SWAP1 PUSH1 0x20 ADD DUP1 DUP4 GT PUSH2 0xD6B JUMPI DUP3 SWAP1 SUB PUSH1 0x1F AND DUP3 ADD SWAP2 JUMPDEST POP POP POP POP POP DUP2 MSTORE PUSH1 0x20 ADD PUSH1 0x1 DUP3 ADD DUP1 SLOAD PUSH2 0xDA1 SWAP1 PUSH2 0x17CD JUMP JUMPDEST DUP1 PUSH1 0x1F ADD PUSH1 0x20 DUP1 SWAP2 DIV MUL PUSH1 0x20 ADD PUSH1 0x40 MLOAD SWAP1 DUP2 ADD PUSH1 0x40 MSTORE DUP1 SWAP3 SWAP2 SWAP1 DUP2 DUP2 MSTORE PUSH1 0x20 ADD DUP3 DUP1 SLOAD PUSH2 0xDCD SWAP1 PUSH2 0x17CD JUMP JUMPDEST DUP1 ISZERO PUSH2 0xE1A JUMPI DUP1 PUSH1 0x1F LT PUSH2 0xDEF JUMPI PUSH2 0x100 DUP1 DUP4 SLOAD DIV MUL DUP4 MSTORE SWAP2 PUSH1 0x20 ADD SWAP2 PUSH2 0xE1A JUMP JUMPDEST DUP3 ADD SWAP2 SWAP1 PUSH1 0x0 MSTORE PUSH1 0x20 PUSH1 0x0 KECCAK256 SWAP1 JUMPDEST DUP2 SLOAD DUP2 MSTORE SWAP1 PUSH1 0x1 ADD SWAP1 PUSH1 0x20 ADD DUP1 DUP4 GT PUSH2 0xDFD JUMPI DUP3 SWAP1 SUB PUSH1 0x1F AND DUP3 ADD SWAP2 JUMPDEST POP POP POP POP POP DUP2 MSTORE POP POP DUP2 MSTORE PUSH1 0x20 ADD SWAP1 PUSH1 0x1 ADD SWAP1 PUSH2 0xCDC JUMP JUMPDEST POP POP POP POP SWAP1 POP SWAP1 JUMP JUMPDEST PUSH1 0x0 PUSH1 0x40 MLOAD SWAP1 POP SWAP1 JUMP JUMPDEST PUSH1 0x0 DUP1 REVERT JUMPDEST PUSH1 0x0 DUP1 REVERT JUMPDEST PUSH1 0x0 DUP1 REVERT JUMPDEST PUSH1 0x0 DUP1 REVERT JUMPDEST PUSH1 0x0 PUSH1 0x1F NOT PUSH1 0x1F DUP4 ADD AND SWAP1 POP SWAP2 SWAP1 POP JUMP JUMPDEST PUSH32 0x4E487B7100000000000000000000000000000000000000000000000000000000 PUSH1 0x0 MSTORE PUSH1 0x41 PUSH1 0x4 MSTORE PUSH1 0x24 PUSH1 0x0 REVERT JUMPDEST PUSH2 0xEA2 DUP3 PUSH2 0xE59 JUMP JUMPDEST DUP2 ADD DUP2 DUP2 LT PUSH8 0xFFFFFFFFFFFFFFFF DUP3 GT OR ISZERO PUSH2 0xEC1 JUMPI PUSH2 0xEC0 PUSH2 0xE6A JUMP JUMPDEST JUMPDEST DUP1 PUSH1 0x40 MSTORE POP POP POP JUMP JUMPDEST PUSH1 0x0 PUSH2 0xED4 PUSH2 0xE3B JUMP JUMPDEST SWAP1 POP PUSH2 0xEE0 DUP3 DUP3 PUSH2 0xE99 JUMP JUMPDEST SWAP2 SWAP1 POP JUMP JUMPDEST PUSH1 0x0 PUSH8 0xFFFFFFFFFFFFFFFF DUP3 GT ISZERO PUSH2 0xF00 JUMPI PUSH2 0xEFF PUSH2 0xE6A JUMP JUMPDEST JUMPDEST PUSH2 0xF09 DUP3 PUSH2 0xE59 JUMP JUMPDEST SWAP1 POP PUSH1 0x20 DUP2 ADD SWAP1 POP SWAP2 SWAP1 POP JUMP JUMPDEST DUP3 DUP2 DUP4 CALLDATACOPY PUSH1 0x0 DUP4 DUP4 ADD MSTORE POP POP POP JUMP JUMPDEST PUSH1 0x0 PUSH2 0xF38 PUSH2 0xF33 DUP5 PUSH2 0xEE5 JUMP JUMPDEST PUSH2 0xECA JUMP JUMPDEST SWAP1 POP DUP3 DUP2 MSTORE PUSH1 0x20 DUP2 ADD DUP5 DUP5 DUP5 ADD GT ISZERO PUSH2 0xF54 JUMPI PUSH2 0xF53 PUSH2 0xE54 JUMP JUMPDEST JUMPDEST PUSH2 0xF5F DUP5 DUP3 DUP6 PUSH2 0xF16 JUMP JUMPDEST POP SWAP4 SWAP3 POP POP POP JUMP JUMPDEST PUSH1 0x0 DUP3 PUSH1 0x1F DUP4 ADD SLT PUSH2 0xF7C JUMPI PUSH2 0xF7B PUSH2 0xE4F JUMP JUMPDEST JUMPDEST DUP2 CALLDATALOAD PUSH2 0xF8C DUP5 DUP3 PUSH1 0x20 DUP7 ADD PUSH2 0xF25 JUMP JUMPDEST SWAP2 POP POP SWAP3 SWAP2 POP POP JUMP JUMPDEST PUSH1 0x0 DUP1 PUSH1 0x0 DUP1 PUSH1 0x80 DUP6 DUP8 SUB SLT ISZERO PUSH2 0xFAF JUMPI PUSH2 0xFAE PUSH2 0xE45 JUMP JUMPDEST JUMPDEST PUSH1 0x0 DUP6 ADD CALLDATALOAD PUSH8 0xFFFFFFFFFFFFFFFF DUP2 GT ISZERO PUSH2 0xFCD JUMPI PUSH2 0xFCC PUSH2 0xE4A JUMP JUMPDEST JUMPDEST PUSH2 0xFD9 DUP8 DUP3 DUP9 ADD PUSH2 0xF67 JUMP JUMPDEST SWAP5 POP POP PUSH1 0x20 DUP6 ADD CALLDATALOAD PUSH8 0xFFFFFFFFFFFFFFFF DUP2 GT ISZERO PUSH2 0xFFA JUMPI PUSH2 0xFF9 PUSH2 0xE4A JUMP JUMPDEST JUMPDEST PUSH2 0x1006 DUP8 DUP3 DUP9 ADD PUSH2 0xF67 JUMP JUMPDEST SWAP4 POP POP PUSH1 0x40 DUP6 ADD CALLDATALOAD PUSH8 0xFFFFFFFFFFFFFFFF DUP2 GT ISZERO PUSH2 0x1027 JUMPI PUSH2 0x1026 PUSH2 0xE4A JUMP JUMPDEST JUMPDEST PUSH2 0x1033 DUP8 DUP3 DUP9 ADD PUSH2 0xF67 JUMP JUMPDEST SWAP3 POP POP PUSH1 0x60 DUP6 ADD CALLDATALOAD PUSH8 0xFFFFFFFFFFFFFFFF DUP2 GT ISZERO PUSH2 0x1054 JUMPI PUSH2 0x1053 PUSH2 0xE4A JUMP JUMPDEST JUMPDEST PUSH2 0x1060 DUP8 DUP3 DUP9 ADD PUSH2 0xF67 JUMP JUMPDEST SWAP2 POP POP SWAP3 SWAP6 SWAP2 SWAP5 POP SWAP3 POP JUMP JUMPDEST PUSH1 0x0 DUP2 SWAP1 POP SWAP2 SWAP1 POP JUMP JUMPDEST PUSH2 0x107F DUP2 PUSH2 0x106C JUMP JUMPDEST DUP2 EQ PUSH2 0x108A JUMPI PUSH1 0x0 DUP1 REVERT JUMPDEST POP JUMP JUMPDEST PUSH1 0x0 DUP2 CALLDATALOAD SWAP1 POP PUSH2 0x109C DUP2 PUSH2 0x1076 JUMP JUMPDEST SWAP3 SWAP2 POP POP JUMP JUMPDEST PUSH1 0x0 PUSH1 0x20 DUP3 DUP5 SUB SLT ISZERO PUSH2 0x10B8 JUMPI PUSH2 0x10B7 PUSH2 0xE45 JUMP JUMPDEST JUMPDEST PUSH1 0x0 PUSH2 0x10C6 DUP5 DUP3 DUP6 ADD PUSH2 0x108D JUMP JUMPDEST SWAP2 POP POP SWAP3 SWAP2 POP POP JUMP JUMPDEST PUSH2 0x10D8 DUP2 PUSH2 0x106C JUMP JUMPDEST DUP3 MSTORE POP POP JUMP JUMPDEST PUSH1 0x0 DUP2 MLOAD SWAP1 POP SWAP2 SWAP1 POP JUMP JUMPDEST PUSH1 0x0 DUP3 DUP3 MSTORE PUSH1 0x20 DUP3 ADD SWAP1 POP SWAP3 SWAP2 POP POP JUMP JUMPDEST PUSH1 0x0 JUMPDEST DUP4 DUP2 LT ISZERO PUSH2 0x1118 JUMPI DUP1 DUP3 ADD MLOAD DUP2 DUP5 ADD MSTORE PUSH1 0x20 DUP2 ADD SWAP1 POP PUSH2 0x10FD JUMP JUMPDEST PUSH1 0x0 DUP5 DUP5 ADD MSTORE POP POP POP POP JUMP JUMPDEST PUSH1 0x0 PUSH2 0x112F DUP3 PUSH2 0x10DE JUMP JUMPDEST PUSH2 0x1139 DUP2 DUP6 PUSH2 0x10E9 JUMP JUMPDEST SWAP4 POP PUSH2 0x1149 DUP2 DUP6 PUSH1 0x20 DUP7 ADD PUSH2 0x10FA JUMP JUMPDEST PUSH2 0x1152 DUP2 PUSH2 0xE59 JUMP JUMPDEST DUP5 ADD SWAP2 POP POP SWAP3 SWAP2 POP POP JUMP JUMPDEST PUSH1 0x0 PUSH1 0x40 DUP3 ADD SWAP1 POP PUSH2 0x1172 PUSH1 0x0 DUP4 ADD DUP6 PUSH2 0x10CF JUMP JUMPDEST DUP2 DUP2 SUB PUSH1 0x20 DUP4 ADD MSTORE PUSH2 0x1184 DUP2 DUP5 PUSH2 0x1124 JUMP JUMPDEST SWAP1 POP SWAP4 SWAP3 POP POP POP JUMP JUMPDEST PUSH1 0x0 DUP1 PUSH1 0x40 DUP4 DUP6 SUB SLT ISZERO PUSH2 0x11A4 JUMPI PUSH2 0x11A3 PUSH2 0xE45 JUMP JUMPDEST JUMPDEST PUSH1 0x0 DUP4 ADD CALLDATALOAD PUSH8 0xFFFFFFFFFFFFFFFF DUP2 GT ISZERO PUSH2 0x11C2 JUMPI PUSH2 0x11C1 PUSH2 0xE4A JUMP JUMPDEST JUMPDEST PUSH2 0x11CE DUP6 DUP3 DUP7 ADD PUSH2 0xF67 JUMP JUMPDEST SWAP3 POP POP PUSH1 0x20 DUP4 ADD CALLDATALOAD PUSH8 0xFFFFFFFFFFFFFFFF DUP2 GT ISZERO PUSH2 0x11EF JUMPI PUSH2 0x11EE PUSH2 0xE4A JUMP JUMPDEST JUMPDEST PUSH2 0x11FB DUP6 DUP3 DUP7 ADD PUSH2 0xF67 JUMP JUMPDEST SWAP2 POP POP SWAP3 POP SWAP3 SWAP1 POP JUMP JUMPDEST PUSH1 0x0 DUP2 MLOAD SWAP1 POP SWAP2 SWAP1 POP JUMP JUMPDEST PUSH1 0x0 DUP3 DUP3 MSTORE PUSH1 0x20 DUP3 ADD SWAP1 POP SWAP3 SWAP2 POP POP JUMP JUMPDEST PUSH1 0x0 DUP2 SWAP1 POP PUSH1 0x20 DUP3 ADD SWAP1 POP SWAP2 SWAP1 POP JUMP JUMPDEST PUSH2 0x123A DUP2 PUSH2 0x106C JUMP JUMPDEST DUP3 MSTORE POP POP JUMP JUMPDEST PUSH1 0x0 DUP3 DUP3 MSTORE PUSH1 0x20 DUP3 ADD SWAP1 POP SWAP3 SWAP2 POP POP JUMP JUMPDEST PUSH1 0x0 PUSH2 0x125C DUP3 PUSH2 0x10DE JUMP JUMPDEST PUSH2 0x1266 DUP2 DUP6 PUSH2 0x1240 JUMP JUMPDEST SWAP4 POP PUSH2 0x1276 DUP2 DUP6 PUSH1 0x20 DUP7 ADD PUSH2 0x10FA JUMP JUMPDEST PUSH2 0x127F DUP2 PUSH2 0xE59 JUMP JUMPDEST DUP5 ADD SWAP2 POP POP SWAP3 SWAP2 POP POP JUMP JUMPDEST PUSH1 0x0 PUSH1 0xA0 DUP4 ADD PUSH1 0x0 DUP4 ADD MLOAD PUSH2 0x12A2 PUSH1 0x0 DUP7 ADD DUP3 PUSH2 0x1231 JUMP JUMPDEST POP PUSH1 0x20 DUP4 ADD MLOAD DUP5 DUP3 SUB PUSH1 0x20 DUP7 ADD MSTORE PUSH2 0x12BA DUP3 DUP3 PUSH2 0x1251 JUMP JUMPDEST SWAP2 POP POP PUSH1 0x40 DUP4 ADD MLOAD DUP5 DUP3 SUB PUSH1 0x40 DUP7 ADD MSTORE PUSH2 0x12D4 DUP3 DUP3 PUSH2 0x1251 JUMP JUMPDEST SWAP2 POP POP PUSH1 0x60 DUP4 ADD MLOAD DUP5 DUP3 SUB PUSH1 0x60 DUP7 ADD MSTORE PUSH2 0x12EE DUP3 DUP3 PUSH2 0x1251 JUMP JUMPDEST SWAP2 POP POP PUSH1 0x80 DUP4 ADD MLOAD DUP5 DUP3 SUB PUSH1 0x80 DUP7 ADD MSTORE PUSH2 0x1308 DUP3 DUP3 PUSH2 0x1251 JUMP JUMPDEST SWAP2 POP POP DUP1 SWAP2 POP POP SWAP3 SWAP2 POP POP JUMP JUMPDEST PUSH1 0x0 PUSH2 0x1321 DUP4 DUP4 PUSH2 0x128A JUMP JUMPDEST SWAP1 POP SWAP3 SWAP2 POP POP JUMP JUMPDEST PUSH1 0x0 PUSH1 0x20 DUP3 ADD SWAP1 POP SWAP2 SWAP1 POP JUMP JUMPDEST PUSH1 0x0 PUSH2 0x1341 DUP3 PUSH2 0x1205 JUMP JUMPDEST PUSH2 0x134B DUP2 DUP6 PUSH2 0x1210 JUMP JUMPDEST SWAP4 POP DUP4 PUSH1 0x20 DUP3 MUL DUP6 ADD PUSH2 0x135D DUP6 PUSH2 0x1221 JUMP JUMPDEST DUP1 PUSH1 0x0 JUMPDEST DUP6 DUP2 LT ISZERO PUSH2 0x1399 JUMPI DUP5 DUP5 SUB DUP10 MSTORE DUP2 MLOAD PUSH2 0x137A DUP6 DUP3 PUSH2 0x1315 JUMP JUMPDEST SWAP5 POP PUSH2 0x1385 DUP4 PUSH2 0x1329 JUMP JUMPDEST SWAP3 POP PUSH1 0x20 DUP11 ADD SWAP10 POP POP PUSH1 0x1 DUP2 ADD SWAP1 POP PUSH2 0x1361 JUMP JUMPDEST POP DUP3 SWAP8 POP DUP8 SWAP6 POP POP POP POP POP POP SWAP3 SWAP2 POP POP JUMP JUMPDEST PUSH1 0x0 PUSH1 0x20 DUP3 ADD SWAP1 POP DUP2 DUP2 SUB PUSH1 0x0 DUP4 ADD MSTORE PUSH2 0x13C5 DUP2 DUP5 PUSH2 0x1336 JUMP JUMPDEST SWAP1 POP SWAP3 SWAP2 POP POP JUMP JUMPDEST PUSH1 0x0 PUSH1 0x20 DUP3 ADD SWAP1 POP DUP2 DUP2 SUB PUSH1 0x0 DUP4 ADD MSTORE PUSH2 0x13E7 DUP2 DUP5 PUSH2 0x1124 JUMP JUMPDEST SWAP1 POP SWAP3 SWAP2 POP POP JUMP JUMPDEST PUSH1 0x0 DUP2 MLOAD SWAP1 POP SWAP2 SWAP1 POP JUMP JUMPDEST PUSH1 0x0 DUP3 DUP3 MSTORE PUSH1 0x20 DUP3 ADD SWAP1 POP SWAP3 SWAP2 POP POP JUMP JUMPDEST PUSH1 0x0 DUP2 SWAP1 POP PUSH1 0x20 DUP3 ADD SWAP1 POP SWAP2 SWAP1 POP JUMP JUMPDEST PUSH1 0x0 PUSH1 0x40 DUP4 ADD PUSH1 0x0 DUP4 ADD MLOAD PUSH2 0x1433 PUSH1 0x0 DUP7 ADD DUP3 PUSH2 0x1231 JUMP JUMPDEST POP PUSH1 0x20 DUP4 ADD MLOAD DUP5 DUP3 SUB PUSH1 0x20 DUP7 ADD MSTORE PUSH2 0x144B DUP3 DUP3 PUSH2 0x1251 JUMP JUMPDEST SWAP2 POP POP DUP1 SWAP2 POP POP SWAP3 SWAP2 POP POP JUMP JUMPDEST PUSH1 0x0 PUSH2 0x1464 DUP4 DUP4 PUSH2 0x141B JUMP JUMPDEST SWAP1 POP SWAP3 SWAP2 POP POP JUMP JUMPDEST PUSH1 0x0 PUSH1 0x20 DUP3 ADD SWAP1 POP SWAP2 SWAP1 POP JUMP JUMPDEST PUSH1 0x0 PUSH2 0x1484 DUP3 PUSH2 0x13EF JUMP JUMPDEST PUSH2 0x148E DUP2 DUP6 PUSH2 0x13FA JUMP JUMPDEST SWAP4 POP DUP4 PUSH1 0x20 DUP3 MUL DUP6 ADD PUSH2 0x14A0 DUP6 PUSH2 0x140B JUMP JUMPDEST DUP1 PUSH1 0x0 JUMPDEST DUP6 DUP2 LT ISZERO PUSH2 0x14DC JUMPI DUP5 DUP5 SUB DUP10 MSTORE DUP2 MLOAD PUSH2 0x14BD DUP6 DUP3 PUSH2 0x1458 JUMP JUMPDEST SWAP5 POP PUSH2 0x14C8 DUP4 PUSH2 0x146C JUMP JUMPDEST SWAP3 POP PUSH1 0x20 DUP11 ADD SWAP10 POP POP PUSH1 0x1 DUP2 ADD SWAP1 POP PUSH2 0x14A4 JUMP JUMPDEST POP DUP3 SWAP8 POP DUP8 SWAP6 POP POP POP POP POP POP SWAP3 SWAP2 POP POP JUMP JUMPDEST PUSH1 0x0 PUSH1 0x20 DUP3 ADD SWAP1 POP DUP2 DUP2 SUB PUSH1 0x0 DUP4 ADD MSTORE PUSH2 0x1508 DUP2 DUP5 PUSH2 0x1479 JUMP JUMPDEST SWAP1 POP SWAP3 SWAP2 POP POP JUMP JUMPDEST PUSH1 0x0 PUSH1 0x40 DUP3 ADD SWAP1 POP DUP2 DUP2 SUB PUSH1 0x0 DUP4 ADD MSTORE PUSH2 0x152A DUP2 DUP6 PUSH2 0x1124 JUMP JUMPDEST SWAP1 POP DUP2 DUP2 SUB PUSH1 0x20 DUP4 ADD MSTORE PUSH2 0x153E DUP2 DUP5 PUSH2 0x1124 JUMP JUMPDEST SWAP1 POP SWAP4 SWAP3 POP POP POP JUMP JUMPDEST PUSH1 0x0 PUSH1 0xA0 DUP3 ADD SWAP1 POP PUSH2 0x155C PUSH1 0x0 DUP4 ADD DUP9 PUSH2 0x10CF JUMP JUMPDEST DUP2 DUP2 SUB PUSH1 0x20 DUP4 ADD MSTORE PUSH2 0x156E DUP2 DUP8 PUSH2 0x1124 JUMP JUMPDEST SWAP1 POP DUP2 DUP2 SUB PUSH1 0x40 DUP4 ADD MSTORE PUSH2 0x1582 DUP2 DUP7 PUSH2 0x1124 JUMP JUMPDEST SWAP1 POP DUP2 DUP2 SUB PUSH1 0x60 DUP4 ADD MSTORE PUSH2 0x1596 DUP2 DUP6 PUSH2 0x1124 JUMP JUMPDEST SWAP1 POP DUP2 DUP2 SUB PUSH1 0x80 DUP4 ADD MSTORE PUSH2 0x15AA DUP2 DUP5 PUSH2 0x1124 JUMP JUMPDEST SWAP1 POP SWAP7 SWAP6 POP POP POP POP POP POP JUMP JUMPDEST PUSH1 0x0 PUSH1 0x20 DUP3 DUP5 SUB SLT ISZERO PUSH2 0x15CC JUMPI PUSH2 0x15CB PUSH2 0xE45 JUMP JUMPDEST JUMPDEST PUSH1 0x0 DUP3 ADD CALLDATALOAD PUSH8 0xFFFFFFFFFFFFFFFF DUP2 GT ISZERO PUSH2 0x15EA JUMPI PUSH2 0x15E9 PUSH2 0xE4A JUMP JUMPDEST JUMPDEST PUSH2 0x15F6 DUP5 DUP3 DUP6 ADD PUSH2 0xF67 JUMP JUMPDEST SWAP2 POP POP SWAP3 SWAP2 POP POP JUMP JUMPDEST PUSH1 0x0 DUP2 MLOAD SWAP1 POP SWAP2 SWAP1 POP JUMP JUMPDEST PUSH1 0x0 DUP3 DUP3 MSTORE PUSH1 0x20 DUP3 ADD SWAP1 POP SWAP3 SWAP2 POP POP JUMP JUMPDEST PUSH1 0x0 DUP2 SWAP1 POP PUSH1 0x20 DUP3 ADD SWAP1 POP SWAP2 SWAP1 POP JUMP JUMPDEST PUSH1 0x0 PUSH1 0x40 DUP4 ADD PUSH1 0x0 DUP4 ADD MLOAD DUP5 DUP3 SUB PUSH1 0x0 DUP7 ADD MSTORE PUSH2 0x1648 DUP3 DUP3 PUSH2 0x1251 JUMP JUMPDEST SWAP2 POP POP PUSH1 0x20 DUP4 ADD MLOAD DUP5 DUP3 SUB PUSH1 0x20 DUP7 ADD MSTORE PUSH2 0x1662 DUP3 DUP3 PUSH2 0x1251 JUMP JUMPDEST SWAP2 POP POP DUP1 SWAP2 POP POP SWAP3 SWAP2 POP POP JUMP JUMPDEST PUSH1 0x0 PUSH2 0x167B DUP4 DUP4 PUSH2 0x162B JUMP JUMPDEST SWAP1 POP SWAP3 SWAP2 POP POP JUMP JUMPDEST PUSH1 0x0 PUSH1 0x20 DUP3 ADD SWAP1 POP SWAP2 SWAP1 POP JUMP JUMPDEST PUSH1 0x0 PUSH2 0x169B DUP3 PUSH2 0x15FF JUMP JUMPDEST PUSH2 0x16A5 DUP2 DUP6 PUSH2 0x160A JUMP JUMPDEST SWAP4 POP DUP4 PUSH1 0x20 DUP3 MUL DUP6 ADD PUSH2 0x16B7 DUP6 PUSH2 0x161B JUMP JUMPDEST DUP1 PUSH1 0x0 JUMPDEST DUP6 DUP2 LT ISZERO PUSH2 0x16F3 JUMPI DUP5 DUP5 SUB DUP10 MSTORE DUP2 MLOAD PUSH2 0x16D4 DUP6 DUP3 PUSH2 0x166F JUMP JUMPDEST SWAP5 POP PUSH2 0x16DF DUP4 PUSH2 0x1683 JUMP JUMPDEST SWAP3 POP PUSH1 0x20 DUP11 ADD SWAP10 POP POP PUSH1 0x1 DUP2 ADD SWAP1 POP PUSH2 0x16BB JUMP JUMPDEST POP DUP3 SWAP8 POP DUP8 SWAP6 POP POP POP POP POP POP SWAP3 SWAP2 POP POP JUMP JUMPDEST PUSH1 0x0 PUSH1 0x20 DUP3 ADD SWAP1 POP DUP2 DUP2 SUB PUSH1 0x0 DUP4 ADD MSTORE PUSH2 0x171F DUP2 DUP5 PUSH2 0x1690 JUMP JUMPDEST SWAP1 POP SWAP3 SWAP2 POP POP JUMP JUMPDEST PUSH32 0x4E487B7100000000000000000000000000000000000000000000000000000000 PUSH1 0x0 MSTORE PUSH1 0x11 PUSH1 0x4 MSTORE PUSH1 0x24 PUSH1 0x0 REVERT JUMPDEST PUSH1 0x0 PUSH2 0x1761 DUP3 PUSH2 0x106C JUMP JUMPDEST SWAP2 POP PUSH32 0xFFFFFFFFFFFFFFFFFFFFFFFFFFFFFFFFFFFFFFFFFFFFFFFFFFFFFFFFFFFFFFFF DUP3 SUB PUSH2 0x1793 JUMPI PUSH2 0x1792 PUSH2 0x1727 JUMP JUMPDEST JUMPDEST PUSH1 0x1 DUP3 ADD SWAP1 POP SWAP2 SWAP1 POP JUMP JUMPDEST PUSH32 0x4E487B7100000000000000000000000000000000000000000000000000000000 PUSH1 0x0 MSTORE PUSH1 0x22 PUSH1 0x4 MSTORE PUSH1 0x24 PUSH1 0x0 REVERT JUMPDEST PUSH1 0x0 PUSH1 0x2 DUP3 DIV SWAP1 POP PUSH1 0x1 DUP3 AND DUP1 PUSH2 0x17E5 JUMPI PUSH1 0x7F DUP3 AND SWAP2 POP JUMPDEST PUSH1 0x20 DUP3 LT DUP2 SUB PUSH2 0x17F8 JUMPI PUSH2 0x17F7 PUSH2 0x179E JUMP JUMPDEST JUMPDEST POP SWAP2 SWAP1 POP JUMP JUMPDEST PUSH1 0x0 DUP2 SWAP1 POP DUP2 PUSH1 0x0 MSTORE PUSH1 0x20 PUSH1 0x0 KECCAK256 SWAP1 POP SWAP2 SWAP1 POP JUMP JUMPDEST PUSH1 0x0 PUSH1 0x20 PUSH1 0x1F DUP4 ADD DIV SWAP1 POP SWAP2 SWAP1 POP JUMP JUMPDEST PUSH1 0x0 DUP3 DUP3 SHL SWAP1 POP SWAP3 SWAP2 POP POP JUMP JUMPDEST PUSH1 0x0 PUSH1 0x8 DUP4 MUL PUSH2 0x1860 PUSH32 0xFFFFFFFFFFFFFFFFFFFFFFFFFFFFFFFFFFFFFFFFFFFFFFFFFFFFFFFFFFFFFFFF DUP3 PUSH2 0x1823 JUMP JUMPDEST PUSH2 0x186A DUP7 DUP4 PUSH2 0x1823 JUMP JUMPDEST SWAP6 POP DUP1 NOT DUP5 AND SWAP4 POP DUP1 DUP7 AND DUP5 OR SWAP3 POP POP POP SWAP4 SWAP3 POP POP POP JUMP JUMPDEST PUSH1 0x0 DUP2 SWAP1 POP SWAP2 SWAP1 POP JUMP JUMPDEST PUSH1 0x0 PUSH2 0x18A7 PUSH2 0x18A2 PUSH2 0x189D DUP5 PUSH2 0x106C JUMP JUMPDEST PUSH2 0x1882 JUMP JUMPDEST PUSH2 0x106C JUMP JUMPDEST SWAP1 POP SWAP2 SWAP1 POP JUMP JUMPDEST PUSH1 0x0 DUP2 SWAP1 POP SWAP2 SWAP1 POP JUMP JUMPDEST PUSH2 0x18C1 DUP4 PUSH2 0x188C JUMP JUMPDEST PUSH2 0x18D5 PUSH2 0x18CD DUP3 PUSH2 0x18AE JUMP JUMPDEST DUP5 DUP5 SLOAD PUSH2 0x1830 JUMP JUMPDEST DUP3 SSTORE POP POP POP POP JUMP JUMPDEST PUSH1 0x0 SWAP1 JUMP JUMPDEST PUSH2 0x18EA PUSH2 0x18DD JUMP JUMPDEST PUSH2 0x18F5 DUP2 DUP5 DUP5 PUSH2 0x18B8 JUMP JUMPDEST POP POP POP JUMP JUMPDEST JUMPDEST DUP2 DUP2 LT ISZERO PUSH2 0x1919 JUMPI PUSH2 0x190E PUSH1 0x0 DUP3 PUSH2 0x18E2 JUMP JUMPDEST PUSH1 0x1 DUP2 ADD SWAP1 POP PUSH2 0x18FB JUMP JUMPDEST POP POP JUMP JUMPDEST PUSH1 0x1F DUP3 GT ISZERO PUSH2 0x195E JUMPI PUSH2 0x192F DUP2 PUSH2 0x17FE JUMP JUMPDEST PUSH2 0x1938 DUP5 PUSH2 0x1813 JUMP JUMPDEST DUP2 ADD PUSH1 0x20 DUP6 LT ISZERO PUSH2 0x1947 JUMPI DUP2 SWAP1 POP JUMPDEST PUSH2 0x195B PUSH2 0x1953 DUP6 PUSH2 0x1813 JUMP JUMPDEST DUP4 ADD DUP3 PUSH2 0x18FA JUMP JUMPDEST POP POP JUMPDEST POP POP POP JUMP JUMPDEST PUSH1 0x0 DUP3 DUP3 SHR SWAP1 POP SWAP3 SWAP2 POP POP JUMP JUMPDEST PUSH1 0x0 PUSH2 0x1981 PUSH1 0x0 NOT DUP5 PUSH1 0x8 MUL PUSH2 0x1963 JUMP JUMPDEST NOT DUP1 DUP4 AND SWAP2 POP POP SWAP3 SWAP2 POP POP JUMP JUMPDEST PUSH1 0x0 PUSH2 0x199A DUP4 DUP4 PUSH2 0x1970 JUMP JUMPDEST SWAP2 POP DUP3 PUSH1 0x2 MUL DUP3 OR SWAP1 POP SWAP3 SWAP2 POP POP JUMP JUMPDEST PUSH2 0x19B3 DUP3 PUSH2 0x10DE JUMP JUMPDEST PUSH8 0xFFFFFFFFFFFFFFFF DUP2 GT ISZERO PUSH2 0x19CC JUMPI PUSH2 0x19CB PUSH2 0xE6A JUMP JUMPDEST JUMPDEST PUSH2 0x19D6 DUP3 SLOAD PUSH2 0x17CD JUMP JUMPDEST PUSH2 0x19E1 DUP3 DUP3 DUP6 PUSH2 0x191D JUMP JUMPDEST PUSH1 0x0 PUSH1 0x20 SWAP1 POP PUSH1 0x1F DUP4 GT PUSH1 0x1 DUP2 EQ PUSH2 0x1A14 JUMPI PUSH1 0x0 DUP5 ISZERO PUSH2 0x1A02 JUMPI DUP3 DUP8 ADD MLOAD SWAP1 POP JUMPDEST PUSH2 0x1A0C DUP6 DUP3 PUSH2 0x198E JUMP JUMPDEST DUP7 SSTORE POP PUSH2 0x1A74 JUMP JUMPDEST PUSH1 0x1F NOT DUP5 AND PUSH2 0x1A22 DUP7 PUSH2 0x17FE JUMP JUMPDEST PUSH1 0x0 JUMPDEST DUP3 DUP2 LT ISZERO PUSH2 0x1A4A JUMPI DUP5 DUP10 ADD MLOAD DUP3 SSTORE PUSH1 0x1 DUP3 ADD SWAP2 POP PUSH1 0x20 DUP6 ADD SWAP5 POP PUSH1 0x20 DUP2 ADD SWAP1 POP PUSH2 0x1A25 JUMP JUMPDEST DUP7 DUP4 LT ISZERO PUSH2 0x1A67 JUMPI DUP5 DUP10 ADD MLOAD PUSH2 0x1A63 PUSH1 0x1F DUP10 AND DUP3 PUSH2 0x1970 JUMP JUMPDEST DUP4 SSTORE POP JUMPDEST PUSH1 0x1 PUSH1 0x2 DUP9 MUL ADD DUP9 SSTORE POP POP POP JUMPDEST POP POP POP POP POP POP JUMP JUMPDEST PUSH32 0x4E487B7100000000000000000000000000000000000000000000000000000000 PUSH1 0x0 MSTORE PUSH1 0x32 PUSH1 0x4 MSTORE PUSH1 0x24 PUSH1 0x0 REVERT INVALID LOG2 PUSH5 0x6970667358 0x22 SLT KECCAK256 0xC0 0xFB GASPRICE 0xD1 CALLDATASIZE 0xEF COINBASE 0xC0 RETURNDATASIZE 0xA9 0xA8 0x4E PUSH11 0xCF7076376EA851DD98A932 0xCA 0xA6 SWAP8 SWAP8 CALL SGT MSTORE 0x2B PUSH5 0x736F6C6343 STOP ADDMOD SLT STOP CALLER "
				},
				"gasEstimates": {
					"creation": {
						"codeDepositCost": "1376200",
						"executionCost": "1438",
						"totalCost": "1377638"
					},
					"external": {
						"addDisease(string)": "infinite",
						"addMedicine(string,string,string,string)": "infinite",
						"createWorkplace(string,string)": "infinite",
						"diseases(uint256)": "infinite",
						"getAllDiseases()": "infinite",
						"getAllMedicines()": "infinite",
						"getAllWorkplaces()": "infinite",
						"getDiseaseById(uint256)": "infinite",
						"medicines(uint256)": "infinite",
						"workplaces(uint256)": "infinite"
					}
				},
				"methodIdentifiers": {
					"addDisease(string)": "d47c029c",
					"addMedicine(string,string,string,string)": "020d07a4",
					"createWorkplace(string,string)": "5ab2ce22",
					"diseases(uint256)": "46459b22",
					"getAllDiseases()": "9df10db0",
					"getAllMedicines()": "68f2b1d2",
					"getAllWorkplaces()": "d92631db",
					"getDiseaseById(uint256)": "747dcbde",
					"medicines(uint256)": "c85e766d",
					"workplaces(uint256)": "c38831ae"
				}
			},
			"storageLayout": {
				"storage": [
					{
						"astId": 24,
						"contract": "Admin.sol:Admin",
						"label": "medicineCount",
						"offset": 0,
						"slot": "0",
						"type": "t_uint256"
					},
					{
						"astId": 26,
						"contract": "Admin.sol:Admin",
						"label": "diseaseCount",
						"offset": 0,
						"slot": "1",
						"type": "t_uint256"
					},
					{
						"astId": 30,
						"contract": "Admin.sol:Admin",
						"label": "workplaces",
						"offset": 0,
						"slot": "2",
						"type": "t_array(t_struct(Workplace)6_storage)dyn_storage"
					},
					{
						"astId": 34,
						"contract": "Admin.sol:Admin",
						"label": "medicines",
						"offset": 0,
						"slot": "3",
						"type": "t_array(t_struct(Medicine)17_storage)dyn_storage"
					},
					{
						"astId": 38,
						"contract": "Admin.sol:Admin",
						"label": "diseases",
						"offset": 0,
						"slot": "4",
						"type": "t_array(t_struct(Disease)22_storage)dyn_storage"
					}
				],
				"types": {
					"t_array(t_struct(Disease)22_storage)dyn_storage": {
						"base": "t_struct(Disease)22_storage",
						"encoding": "dynamic_array",
						"label": "struct Admin.Disease[]",
						"numberOfBytes": "32"
					},
					"t_array(t_struct(Medicine)17_storage)dyn_storage": {
						"base": "t_struct(Medicine)17_storage",
						"encoding": "dynamic_array",
						"label": "struct Admin.Medicine[]",
						"numberOfBytes": "32"
					},
					"t_array(t_struct(Workplace)6_storage)dyn_storage": {
						"base": "t_struct(Workplace)6_storage",
						"encoding": "dynamic_array",
						"label": "struct Admin.Workplace[]",
						"numberOfBytes": "32"
					},
					"t_string_storage": {
						"encoding": "bytes",
						"label": "string",
						"numberOfBytes": "32"
					},
					"t_struct(Disease)22_storage": {
						"encoding": "inplace",
						"label": "struct Admin.Disease",
						"members": [
							{
								"astId": 19,
								"contract": "Admin.sol:Admin",
								"label": "id",
								"offset": 0,
								"slot": "0",
								"type": "t_uint256"
							},
							{
								"astId": 21,
								"contract": "Admin.sol:Admin",
								"label": "name",
								"offset": 0,
								"slot": "1",
								"type": "t_string_storage"
							}
						],
						"numberOfBytes": "64"
					},
					"t_struct(Medicine)17_storage": {
						"encoding": "inplace",
						"label": "struct Admin.Medicine",
						"members": [
							{
								"astId": 8,
								"contract": "Admin.sol:Admin",
								"label": "id",
								"offset": 0,
								"slot": "0",
								"type": "t_uint256"
							},
							{
								"astId": 10,
								"contract": "Admin.sol:Admin",
								"label": "name",
								"offset": 0,
								"slot": "1",
								"type": "t_string_storage"
							},
							{
								"astId": 12,
								"contract": "Admin.sol:Admin",
								"label": "expiryDate",
								"offset": 0,
								"slot": "2",
								"type": "t_string_storage"
							},
							{
								"astId": 14,
								"contract": "Admin.sol:Admin",
								"label": "price",
								"offset": 0,
								"slot": "3",
								"type": "t_string_storage"
							},
							{
								"astId": 16,
								"contract": "Admin.sol:Admin",
								"label": "dose",
								"offset": 0,
								"slot": "4",
								"type": "t_string_storage"
							}
						],
						"numberOfBytes": "160"
					},
					"t_struct(Workplace)6_storage": {
						"encoding": "inplace",
						"label": "struct Admin.Workplace",
						"members": [
							{
								"astId": 3,
								"contract": "Admin.sol:Admin",
								"label": "name",
								"offset": 0,
								"slot": "0",
								"type": "t_string_storage"
							},
							{
								"astId": 5,
								"contract": "Admin.sol:Admin",
								"label": "workAddress",
								"offset": 0,
								"slot": "1",
								"type": "t_string_storage"
							}
						],
						"numberOfBytes": "64"
					},
					"t_uint256": {
						"encoding": "inplace",
						"label": "uint256",
						"numberOfBytes": "32"
					}
				}
			},
			"userdoc": {
				"kind": "user",
				"methods": {},
				"version": 1
			}
		}
	}
}