{
	"Doctor.sol": {
		"Doctor": {
			"abi": [
				{
					"inputs": [
						{
							"internalType": "string",
							"name": "_name",
							"type": "string"
						}
					],
					"name": "addDisease",
					"outputs": [],
					"stateMutability": "nonpayable",
					"type": "function"
				},
				{
					"inputs": [
						{
							"internalType": "string",
							"name": "_name",
							"type": "string"
						},
						{
							"internalType": "string",
							"name": "_expiryDate",
							"type": "string"
						},
						{
							"internalType": "string",
							"name": "_dose",
							"type": "string"
						},
						{
							"internalType": "string",
							"name": "_price",
							"type": "string"
						}
					],
					"name": "addMedicine",
					"outputs": [],
					"stateMutability": "nonpayable",
					"type": "function"
				},
				{
					"inputs": [
						{
							"internalType": "string",
							"name": "_name",
							"type": "string"
						},
						{
							"internalType": "string",
							"name": "_workAddress",
							"type": "string"
						}
					],
					"name": "createWorkplace",
					"outputs": [],
					"stateMutability": "nonpayable",
					"type": "function"
				},
				{
					"inputs": [
						{
							"internalType": "uint256",
							"name": "",
							"type": "uint256"
						}
					],
					"name": "diseases",
					"outputs": [
						{
							"internalType": "uint256",
							"name": "id",
							"type": "uint256"
						},
						{
							"internalType": "string",
							"name": "name",
							"type": "string"
						}
					],
					"stateMutability": "view",
					"type": "function"
				},
				{
					"inputs": [
						{
							"internalType": "uint256",
							"name": "",
							"type": "uint256"
						}
					],
					"name": "doctorAddress",
					"outputs": [
						{
							"internalType": "address",
							"name": "",
							"type": "address"
						}
					],
					"stateMutability": "view",
					"type": "function"
				},
				{
					"inputs": [],
					"name": "doctorCount",
					"outputs": [
						{
							"internalType": "uint256",
							"name": "",
							"type": "uint256"
						}
					],
					"stateMutability": "view",
					"type": "function"
				},
				{
					"inputs": [
						{
							"internalType": "address",
							"name": "dAddr",
							"type": "address"
						}
					],
					"name": "doctorNotExists",
					"outputs": [
						{
							"internalType": "bool",
							"name": "",
							"type": "bool"
						}
					],
					"stateMutability": "view",
					"type": "function"
				},
				{
					"inputs": [
						{
							"internalType": "address",
							"name": "",
							"type": "address"
						}
					],
					"name": "doctors",
					"outputs": [
						{
							"internalType": "uint256",
							"name": "id",
							"type": "uint256"
						},
						{
							"internalType": "string",
							"name": "name",
							"type": "string"
						},
						{
							"internalType": "string",
							"name": "qualification",
							"type": "string"
						},
						{
							"internalType": "address",
							"name": "doctor",
							"type": "address"
						},
						{
							"internalType": "uint256",
							"name": "workPlace",
							"type": "uint256"
						}
					],
					"stateMutability": "view",
					"type": "function"
				},
				{
					"inputs": [],
					"name": "getAllDiseases",
					"outputs": [
						{
							"components": [
								{
									"internalType": "uint256",
									"name": "id",
									"type": "uint256"
								},
								{
									"internalType": "string",
									"name": "name",
									"type": "string"
								}
							],
							"internalType": "struct Admin.Disease[]",
							"name": "",
							"type": "tuple[]"
						}
					],
					"stateMutability": "view",
					"type": "function"
				},
				{
					"inputs": [],
					"name": "getAllDoctors",
					"outputs": [
						{
							"components": [
								{
									"internalType": "uint256",
									"name": "id",
									"type": "uint256"
								},
								{
									"internalType": "string",
									"name": "name",
									"type": "string"
								},
								{
									"internalType": "string",
									"name": "qualification",
									"type": "string"
								},
								{
									"internalType": "address",
									"name": "doctor",
									"type": "address"
								},
								{
									"internalType": "uint256",
									"name": "workPlace",
									"type": "uint256"
								}
							],
							"internalType": "struct Doctor.DoctorDetails[]",
							"name": "",
							"type": "tuple[]"
						}
					],
					"stateMutability": "view",
					"type": "function"
				},
				{
					"inputs": [],
					"name": "getAllMedicines",
					"outputs": [
						{
							"components": [
								{
									"internalType": "uint256",
									"name": "id",
									"type": "uint256"
								},
								{
									"internalType": "string",
									"name": "name",
									"type": "string"
								},
								{
									"internalType": "string",
									"name": "expiryDate",
									"type": "string"
								},
								{
									"internalType": "string",
									"name": "price",
									"type": "string"
								},
								{
									"internalType": "string",
									"name": "dose",
									"type": "string"
								}
							],
							"internalType": "struct Admin.Medicine[]",
							"name": "",
							"type": "tuple[]"
						}
					],
					"stateMutability": "view",
					"type": "function"
				},
				{
					"inputs": [],
					"name": "getAllWorkplaces",
					"outputs": [
						{
							"components": [
								{
									"internalType": "string",
									"name": "name",
									"type": "string"
								},
								{
									"internalType": "string",
									"name": "workAddress",
									"type": "string"
								}
							],
							"internalType": "struct Admin.Workplace[]",
							"name": "",
							"type": "tuple[]"
						}
					],
					"stateMutability": "view",
					"type": "function"
				},
				{
					"inputs": [
						{
							"internalType": "uint256",
							"name": "id",
							"type": "uint256"
						}
					],
					"name": "getDiseaseById",
					"outputs": [
						{
							"internalType": "string",
							"name": "",
							"type": "string"
						}
					],
					"stateMutability": "view",
					"type": "function"
				},
				{
					"inputs": [
						{
							"internalType": "uint256",
							"name": "",
							"type": "uint256"
						}
					],
					"name": "medicines",
					"outputs": [
						{
							"internalType": "uint256",
							"name": "id",
							"type": "uint256"
						},
						{
							"internalType": "string",
							"name": "name",
							"type": "string"
						},
						{
							"internalType": "string",
							"name": "expiryDate",
							"type": "string"
						},
						{
							"internalType": "string",
							"name": "price",
							"type": "string"
						},
						{
							"internalType": "string",
							"name": "dose",
							"type": "string"
						}
					],
					"stateMutability": "view",
					"type": "function"
				},
				{
					"inputs": [
						{
							"internalType": "string",
							"name": "_name",
							"type": "string"
						},
						{
							"internalType": "string",
							"name": "_qualification",
							"type": "string"
						},
						{
							"internalType": "uint256",
							"name": "_workplaceIndex",
							"type": "uint256"
						},
						{
							"internalType": "address",
							"name": "dAddr",
							"type": "address"
						}
					],
					"name": "registerDoctor",
					"outputs": [],
					"stateMutability": "nonpayable",
					"type": "function"
				},
				{
					"inputs": [
						{
							"internalType": "uint256",
							"name": "",
							"type": "uint256"
						}
					],
					"name": "workplaces",
					"outputs": [
						{
							"internalType": "string",
							"name": "name",
							"type": "string"
						},
						{
							"internalType": "string",
							"name": "workAddress",
							"type": "string"
						}
					],
					"stateMutability": "view",
					"type": "function"
				}
			],
			"devdoc": {
				"kind": "dev",
				"methods": {},
				"version": 1
			},
			"evm": {
				"assembly": "    /* \"Doctor.sol\":49:1245  contract Doctor is Admin {... */\n  mstore(0x40, 0x80)\n  callvalue\n  dup1\n  iszero\n  tag_1\n  jumpi\n  0x00\n  dup1\n  revert\ntag_1:\n  pop\n  dataSize(sub_0)\n  dup1\n  dataOffset(sub_0)\n  0x00\n  codecopy\n  0x00\n  return\nstop\n\nsub_0: assembly {\n        /* \"Doctor.sol\":49:1245  contract Doctor is Admin {... */\n      mstore(0x40, 0x80)\n      callvalue\n      dup1\n      iszero\n      tag_1\n      jumpi\n      0x00\n      dup1\n      revert\n    tag_1:\n      pop\n      jumpi(tag_2, lt(calldatasize, 0x04))\n      shr(0xe0, calldataload(0x00))\n      dup1\n      0x9df10db0\n      gt\n      tag_19\n      jumpi\n      dup1\n      0xd47c029c\n      gt\n      tag_20\n      jumpi\n      dup1\n      0xd47c029c\n      eq\n      tag_15\n      jumpi\n      dup1\n      0xd92631db\n      eq\n      tag_16\n      jumpi\n      dup1\n      0xf0d95090\n      eq\n      tag_17\n      jumpi\n      dup1\n      0xf3c674ac\n      eq\n      tag_18\n      jumpi\n      jump(tag_2)\n    tag_20:\n      dup1\n      0x9df10db0\n      eq\n      tag_11\n      jumpi\n      dup1\n      0xa9583c22\n      eq\n      tag_12\n      jumpi\n      dup1\n      0xc38831ae\n      eq\n      tag_13\n      jumpi\n      dup1\n      0xc85e766d\n      eq\n      tag_14\n      jumpi\n      jump(tag_2)\n    tag_19:\n      dup1\n      0x68f2b1d2\n      gt\n      tag_21\n      jumpi\n      dup1\n      0x68f2b1d2\n      eq\n      tag_7\n      jumpi\n      dup1\n      0x747dcbde\n      eq\n      tag_8\n      jumpi\n      dup1\n      0x78522bc4\n      eq\n      tag_9\n      jumpi\n      dup1\n      0x801d4a95\n      eq\n      tag_10\n      jumpi\n      jump(tag_2)\n    tag_21:\n      dup1\n      0x020d07a4\n      eq\n      tag_3\n      jumpi\n      dup1\n      0x46459b22\n      eq\n      tag_4\n      jumpi\n      dup1\n      0x59bf95f7\n      eq\n      tag_5\n      jumpi\n      dup1\n      0x5ab2ce22\n      eq\n      tag_6\n      jumpi\n    tag_2:\n      0x00\n      dup1\n      revert\n        /* \"Admin.sol\":820:1221  function addMedicine(string memory _name, string memory _expiryDate, string memory _dose, string memory _price) public virtual {... */\n    tag_3:\n      tag_22\n      0x04\n      dup1\n      calldatasize\n      sub\n      dup2\n      add\n      swap1\n      tag_23\n      swap2\n      swap1\n      tag_24\n      jump\t// in\n    tag_23:\n      tag_25\n      jump\t// in\n    tag_22:\n      stop\n        /* \"Admin.sol\":455:480  Disease[] public diseases */\n    tag_4:\n      tag_26\n      0x04\n      dup1\n      calldatasize\n      sub\n      dup2\n      add\n      swap1\n      tag_27\n      swap2\n      swap1\n      tag_28\n      jump\t// in\n    tag_27:\n      tag_29\n      jump\t// in\n    tag_26:\n      mload(0x40)\n      tag_30\n      swap3\n      swap2\n      swap1\n      tag_31\n      jump\t// in\n    tag_30:\n      mload(0x40)\n      dup1\n      swap2\n      sub\n      swap1\n      return\n        /* \"Doctor.sol\":316:346  address[] public doctorAddress */\n    tag_5:\n      tag_32\n      0x04\n      dup1\n      calldatasize\n      sub\n      dup2\n      add\n      swap1\n      tag_33\n      swap2\n      swap1\n      tag_28\n      jump\t// in\n    tag_33:\n      tag_34\n      jump\t// in\n    tag_32:\n      mload(0x40)\n      tag_35\n      swap2\n      swap1\n      tag_36\n      jump\t// in\n    tag_35:\n      mload(0x40)\n      dup1\n      swap2\n      sub\n      swap1\n      return\n        /* \"Admin.sol\":489:697  function createWorkplace(string memory _name, string memory _workAddress) public virtual  {... */\n    tag_6:\n      tag_37\n      0x04\n      dup1\n      calldatasize\n      sub\n      dup2\n      add\n      swap1\n      tag_38\n      swap2\n      swap1\n      tag_39\n      jump\t// in\n    tag_38:\n      tag_40\n      jump\t// in\n    tag_37:\n      stop\n        /* \"Admin.sol\":1227:1334  function getAllMedicines() public view virtual returns(Medicine[] memory) {... */\n    tag_7:\n      tag_41\n      tag_42\n      jump\t// in\n    tag_41:\n      mload(0x40)\n      tag_43\n      swap2\n      swap1\n      tag_44\n      jump\t// in\n    tag_43:\n      mload(0x40)\n      dup1\n      swap2\n      sub\n      swap1\n      return\n        /* \"Admin.sol\":1690:1810  function getDiseaseById(uint256 id) public view virtual returns(string memory) {... */\n    tag_8:\n      tag_45\n      0x04\n      dup1\n      calldatasize\n      sub\n      dup2\n      add\n      swap1\n      tag_46\n      swap2\n      swap1\n      tag_28\n      jump\t// in\n    tag_46:\n      tag_47\n      jump\t// in\n    tag_45:\n      mload(0x40)\n      tag_48\n      swap2\n      swap1\n      tag_49\n      jump\t// in\n    tag_48:\n      mload(0x40)\n      dup1\n      swap2\n      sub\n      swap1\n      return\n        /* \"Doctor.sol\":287:310  uint public doctorCount */\n    tag_9:\n      tag_50\n      tag_51\n      jump\t// in\n    tag_50:\n      mload(0x40)\n      tag_52\n      swap2\n      swap1\n      tag_53\n      jump\t// in\n    tag_52:\n      mload(0x40)\n      dup1\n      swap2\n      sub\n      swap1\n      return\n        /* \"Doctor.sol\":353:590  function doctorNotExists(address dAddr) public view returns (bool) {... */\n    tag_10:\n      tag_54\n      0x04\n      dup1\n      calldatasize\n      sub\n      dup2\n      add\n      swap1\n      tag_55\n      swap2\n      swap1\n      tag_56\n      jump\t// in\n    tag_55:\n      tag_57\n      jump\t// in\n    tag_54:\n      mload(0x40)\n      tag_58\n      swap2\n      swap1\n      tag_59\n      jump\t// in\n    tag_58:\n      mload(0x40)\n      dup1\n      swap2\n      sub\n      swap1\n      return\n        /* \"Admin.sol\":1580:1684  function getAllDiseases() public view virtual returns(Disease[] memory) {... */\n    tag_11:\n      tag_60\n      tag_61\n      jump\t// in\n    tag_60:\n      mload(0x40)\n      tag_62\n      swap2\n      swap1\n      tag_63\n      jump\t// in\n    tag_62:\n      mload(0x40)\n      dup1\n      swap2\n      sub\n      swap1\n      return\n        /* \"Doctor.sol\":233:281  mapping(address => DoctorDetails) public doctors */\n    tag_12:\n      tag_64\n      0x04\n      dup1\n      calldatasize\n      sub\n      dup2\n      add\n      swap1\n      tag_65\n      swap2\n      swap1\n      tag_56\n      jump\t// in\n    tag_65:\n      tag_66\n      jump\t// in\n    tag_64:\n      mload(0x40)\n      tag_67\n      swap6\n      swap5\n      swap4\n      swap3\n      swap2\n      swap1\n      tag_68\n      jump\t// in\n    tag_67:\n      mload(0x40)\n      dup1\n      swap2\n      sub\n      swap1\n      return\n        /* \"Admin.sol\":387:416  Workplace[] public workplaces */\n    tag_13:\n      tag_69\n      0x04\n      dup1\n      calldatasize\n      sub\n      dup2\n      add\n      swap1\n      tag_70\n      swap2\n      swap1\n      tag_28\n      jump\t// in\n    tag_70:\n      tag_71\n      jump\t// in\n    tag_69:\n      mload(0x40)\n      tag_72\n      swap3\n      swap2\n      swap1\n      tag_73\n      jump\t// in\n    tag_72:\n      mload(0x40)\n      dup1\n      swap2\n      sub\n      swap1\n      return\n        /* \"Admin.sol\":422:449  Medicine[] public medicines */\n    tag_14:\n      tag_74\n      0x04\n      dup1\n      calldatasize\n      sub\n      dup2\n      add\n      swap1\n      tag_75\n      swap2\n      swap1\n      tag_28\n      jump\t// in\n    tag_75:\n      tag_76\n      jump\t// in\n    tag_74:\n      mload(0x40)\n      tag_77\n      swap6\n      swap5\n      swap4\n      swap3\n      swap2\n      swap1\n      tag_78\n      jump\t// in\n    tag_77:\n      mload(0x40)\n      dup1\n      swap2\n      sub\n      swap1\n      return\n        /* \"Admin.sol\":1340:1574  function addDisease(string memory _name) public virtual {... */\n    tag_15:\n      tag_79\n      0x04\n      dup1\n      calldatasize\n      sub\n      dup2\n      add\n      swap1\n      tag_80\n      swap2\n      swap1\n      tag_81\n      jump\t// in\n    tag_80:\n      tag_82\n      jump\t// in\n    tag_79:\n      stop\n        /* \"Admin.sol\":703:814  function getAllWorkplaces() public view virtual returns (Workplace[] memory) {... */\n    tag_16:\n      tag_83\n      tag_84\n      jump\t// in\n    tag_83:\n      mload(0x40)\n      tag_85\n      swap2\n      swap1\n      tag_86\n      jump\t// in\n    tag_85:\n      mload(0x40)\n      dup1\n      swap2\n      sub\n      swap1\n      return\n        /* \"Doctor.sol\":959:1243  function getAllDoctors() public view returns (DoctorDetails[] memory) {... */\n    tag_17:\n      tag_87\n      tag_88\n      jump\t// in\n    tag_87:\n      mload(0x40)\n      tag_89\n      swap2\n      swap1\n      tag_90\n      jump\t// in\n    tag_89:\n      mload(0x40)\n      dup1\n      swap2\n      sub\n      swap1\n      return\n        /* \"Doctor.sol\":596:953  function registerDoctor(string memory _name, string memory _qualification, uint256 _workplaceIndex, address dAddr) public {... */\n    tag_18:\n      tag_91\n      0x04\n      dup1\n      calldatasize\n      sub\n      dup2\n      add\n      swap1\n      tag_92\n      swap2\n      swap1\n      tag_93\n      jump\t// in\n    tag_92:\n      tag_94\n      jump\t// in\n    tag_91:\n      stop\n        /* \"Admin.sol\":820:1221  function addMedicine(string memory _name, string memory _expiryDate, string memory _dose, string memory _price) public virtual {... */\n    tag_25:\n        /* \"Admin.sol\":957:984  Medicine memory newMedicine */\n      0x00\n        /* \"Admin.sol\":987:1152  Medicine({... */\n      mload(0x40)\n      dup1\n      0xa0\n      add\n      0x40\n      mstore\n      dup1\n        /* \"Admin.sol\":1014:1027  medicineCount */\n      sload(0x00)\n        /* \"Admin.sol\":987:1152  Medicine({... */\n      dup2\n      mstore\n      0x20\n      add\n        /* \"Admin.sol\":1047:1052  _name */\n      dup7\n        /* \"Admin.sol\":987:1152  Medicine({... */\n      dup2\n      mstore\n      0x20\n      add\n        /* \"Admin.sol\":1078:1089  _expiryDate */\n      dup6\n        /* \"Admin.sol\":987:1152  Medicine({... */\n      dup2\n      mstore\n      0x20\n      add\n        /* \"Admin.sol\":1110:1116  _price */\n      dup4\n        /* \"Admin.sol\":987:1152  Medicine({... */\n      dup2\n      mstore\n      0x20\n      add\n        /* \"Admin.sol\":1136:1141  _dose */\n      dup5\n        /* \"Admin.sol\":987:1152  Medicine({... */\n      dup2\n      mstore\n      pop\n        /* \"Admin.sol\":957:1152  Medicine memory newMedicine = Medicine({... */\n      swap1\n      pop\n        /* \"Admin.sol\":1162:1175  medicineCount */\n      0x00\n      dup1\n        /* \"Admin.sol\":1162:1177  medicineCount++ */\n      dup2\n      sload\n      dup1\n      swap3\n      swap2\n      swap1\n      tag_96\n      swap1\n      tag_97\n      jump\t// in\n    tag_96:\n      swap2\n      swap1\n      pop\n      sstore\n      pop\n        /* \"Admin.sol\":1187:1196  medicines */\n      0x03\n        /* \"Admin.sol\":1202:1213  newMedicine */\n      dup2\n        /* \"Admin.sol\":1187:1214  medicines.push(newMedicine) */\n      swap1\n      dup1\n      0x01\n      dup2\n      sload\n      add\n      dup1\n      dup3\n      sstore\n      dup1\n      swap2\n      pop\n      pop\n      0x01\n      swap1\n      sub\n      swap1\n      0x00\n      mstore\n      keccak256(0x00, 0x20)\n      swap1\n      0x05\n      mul\n      add\n      0x00\n      swap1\n      swap2\n      swap1\n      swap2\n      swap1\n      swap2\n      pop\n      0x00\n      dup3\n      add\n      mload\n      dup2\n      0x00\n      add\n      sstore\n      0x20\n      dup3\n      add\n      mload\n      dup2\n      0x01\n      add\n      swap1\n      dup2\n      tag_99\n      swap2\n      swap1\n      tag_100\n      jump\t// in\n    tag_99:\n      pop\n      0x40\n      dup3\n      add\n      mload\n      dup2\n      0x02\n      add\n      swap1\n      dup2\n      tag_101\n      swap2\n      swap1\n      tag_100\n      jump\t// in\n    tag_101:\n      pop\n      0x60\n      dup3\n      add\n      mload\n      dup2\n      0x03\n      add\n      swap1\n      dup2\n      tag_102\n      swap2\n      swap1\n      tag_100\n      jump\t// in\n    tag_102:\n      pop\n      0x80\n      dup3\n      add\n      mload\n      dup2\n      0x04\n      add\n      swap1\n      dup2\n      tag_103\n      swap2\n      swap1\n      tag_100\n      jump\t// in\n    tag_103:\n      pop\n      pop\n      pop\n        /* \"Admin.sol\":947:1221  {... */\n      pop\n        /* \"Admin.sol\":820:1221  function addMedicine(string memory _name, string memory _expiryDate, string memory _dose, string memory _price) public virtual {... */\n      pop\n      pop\n      pop\n      pop\n      jump\t// out\n        /* \"Admin.sol\":455:480  Disease[] public diseases */\n    tag_29:\n      0x04\n      dup2\n      dup2\n      sload\n      dup2\n      lt\n      tag_104\n      jumpi\n      0x00\n      dup1\n      revert\n    tag_104:\n      swap1\n      0x00\n      mstore\n      keccak256(0x00, 0x20)\n      swap1\n      0x02\n      mul\n      add\n      0x00\n      swap2\n      pop\n      swap1\n      pop\n      dup1\n      0x00\n      add\n      sload\n      swap1\n      dup1\n      0x01\n      add\n      dup1\n      sload\n      tag_106\n      swap1\n      tag_107\n      jump\t// in\n    tag_106:\n      dup1\n      0x1f\n      add\n      0x20\n      dup1\n      swap2\n      div\n      mul\n      0x20\n      add\n      mload(0x40)\n      swap1\n      dup2\n      add\n      0x40\n      mstore\n      dup1\n      swap3\n      swap2\n      swap1\n      dup2\n      dup2\n      mstore\n      0x20\n      add\n      dup3\n      dup1\n      sload\n      tag_108\n      swap1\n      tag_107\n      jump\t// in\n    tag_108:\n      dup1\n      iszero\n      tag_109\n      jumpi\n      dup1\n      0x1f\n      lt\n      tag_110\n      jumpi\n      0x0100\n      dup1\n      dup4\n      sload\n      div\n      mul\n      dup4\n      mstore\n      swap2\n      0x20\n      add\n      swap2\n      jump(tag_109)\n    tag_110:\n      dup3\n      add\n      swap2\n      swap1\n      0x00\n      mstore\n      keccak256(0x00, 0x20)\n      swap1\n    tag_111:\n      dup2\n      sload\n      dup2\n      mstore\n      swap1\n      0x01\n      add\n      swap1\n      0x20\n      add\n      dup1\n      dup4\n      gt\n      tag_111\n      jumpi\n      dup3\n      swap1\n      sub\n      0x1f\n      and\n      dup3\n      add\n      swap2\n    tag_109:\n      pop\n      pop\n      pop\n      pop\n      pop\n      swap1\n      pop\n      dup3\n      jump\t// out\n        /* \"Doctor.sol\":316:346  address[] public doctorAddress */\n    tag_34:\n      0x07\n      dup2\n      dup2\n      sload\n      dup2\n      lt\n      tag_112\n      jumpi\n      0x00\n      dup1\n      revert\n    tag_112:\n      swap1\n      0x00\n      mstore\n      keccak256(0x00, 0x20)\n      add\n      0x00\n      swap2\n      pop\n      sload\n      swap1\n      0x0100\n      exp\n      swap1\n      div\n      0xffffffffffffffffffffffffffffffffffffffff\n      and\n      dup2\n      jump\t// out\n        /* \"Admin.sol\":489:697  function createWorkplace(string memory _name, string memory _workAddress) public virtual  {... */\n    tag_40:\n        /* \"Admin.sol\":589:618  Workplace memory newWorkplace */\n      0x00\n        /* \"Admin.sol\":621:651  Workplace(_name, _workAddress) */\n      mload(0x40)\n      dup1\n      0x40\n      add\n      0x40\n      mstore\n      dup1\n        /* \"Admin.sol\":631:636  _name */\n      dup5\n        /* \"Admin.sol\":621:651  Workplace(_name, _workAddress) */\n      dup2\n      mstore\n      0x20\n      add\n        /* \"Admin.sol\":638:650  _workAddress */\n      dup4\n        /* \"Admin.sol\":621:651  Workplace(_name, _workAddress) */\n      dup2\n      mstore\n      pop\n        /* \"Admin.sol\":589:651  Workplace memory newWorkplace = Workplace(_name, _workAddress) */\n      swap1\n      pop\n        /* \"Admin.sol\":661:671  workplaces */\n      0x02\n        /* \"Admin.sol\":677:689  newWorkplace */\n      dup2\n        /* \"Admin.sol\":661:690  workplaces.push(newWorkplace) */\n      swap1\n      dup1\n      0x01\n      dup2\n      sload\n      add\n      dup1\n      dup3\n      sstore\n      dup1\n      swap2\n      pop\n      pop\n      0x01\n      swap1\n      sub\n      swap1\n      0x00\n      mstore\n      keccak256(0x00, 0x20)\n      swap1\n      0x02\n      mul\n      add\n      0x00\n      swap1\n      swap2\n      swap1\n      swap2\n      swap1\n      swap2\n      pop\n      0x00\n      dup3\n      add\n      mload\n      dup2\n      0x00\n      add\n      swap1\n      dup2\n      tag_116\n      swap2\n      swap1\n      tag_100\n      jump\t// in\n    tag_116:\n      pop\n      0x20\n      dup3\n      add\n      mload\n      dup2\n      0x01\n      add\n      swap1\n      dup2\n      tag_117\n      swap2\n      swap1\n      tag_100\n      jump\t// in\n    tag_117:\n      pop\n      pop\n      pop\n        /* \"Admin.sol\":579:697  {... */\n      pop\n        /* \"Admin.sol\":489:697  function createWorkplace(string memory _name, string memory _workAddress) public virtual  {... */\n      pop\n      pop\n      jump\t// out\n        /* \"Admin.sol\":1227:1334  function getAllMedicines() public view virtual returns(Medicine[] memory) {... */\n    tag_42:\n        /* \"Admin.sol\":1282:1299  Medicine[] memory */\n      0x60\n        /* \"Admin.sol\":1318:1327  medicines */\n      0x03\n        /* \"Admin.sol\":1311:1327  return medicines */\n      dup1\n      sload\n      dup1\n      0x20\n      mul\n      0x20\n      add\n      mload(0x40)\n      swap1\n      dup2\n      add\n      0x40\n      mstore\n      dup1\n      swap3\n      swap2\n      swap1\n      dup2\n      dup2\n      mstore\n      0x20\n      add\n      0x00\n      swap1\n    tag_119:\n      dup3\n      dup3\n      lt\n      iszero\n      tag_120\n      jumpi\n      dup4\n      dup3\n      swap1\n      0x00\n      mstore\n      keccak256(0x00, 0x20)\n      swap1\n      0x05\n      mul\n      add\n      mload(0x40)\n      dup1\n      0xa0\n      add\n      0x40\n      mstore\n      swap1\n      dup2\n      0x00\n      dup3\n      add\n      sload\n      dup2\n      mstore\n      0x20\n      add\n      0x01\n      dup3\n      add\n      dup1\n      sload\n      tag_122\n      swap1\n      tag_107\n      jump\t// in\n    tag_122:\n      dup1\n      0x1f\n      add\n      0x20\n      dup1\n      swap2\n      div\n      mul\n      0x20\n      add\n      mload(0x40)\n      swap1\n      dup2\n      add\n      0x40\n      mstore\n      dup1\n      swap3\n      swap2\n      swap1\n      dup2\n      dup2\n      mstore\n      0x20\n      add\n      dup3\n      dup1\n      sload\n      tag_123\n      swap1\n      tag_107\n      jump\t// in\n    tag_123:\n      dup1\n      iszero\n      tag_124\n      jumpi\n      dup1\n      0x1f\n      lt\n      tag_125\n      jumpi\n      0x0100\n      dup1\n      dup4\n      sload\n      div\n      mul\n      dup4\n      mstore\n      swap2\n      0x20\n      add\n      swap2\n      jump(tag_124)\n    tag_125:\n      dup3\n      add\n      swap2\n      swap1\n      0x00\n      mstore\n      keccak256(0x00, 0x20)\n      swap1\n    tag_126:\n      dup2\n      sload\n      dup2\n      mstore\n      swap1\n      0x01\n      add\n      swap1\n      0x20\n      add\n      dup1\n      dup4\n      gt\n      tag_126\n      jumpi\n      dup3\n      swap1\n      sub\n      0x1f\n      and\n      dup3\n      add\n      swap2\n    tag_124:\n      pop\n      pop\n      pop\n      pop\n      pop\n      dup2\n      mstore\n      0x20\n      add\n      0x02\n      dup3\n      add\n      dup1\n      sload\n      tag_127\n      swap1\n      tag_107\n      jump\t// in\n    tag_127:\n      dup1\n      0x1f\n      add\n      0x20\n      dup1\n      swap2\n      div\n      mul\n      0x20\n      add\n      mload(0x40)\n      swap1\n      dup2\n      add\n      0x40\n      mstore\n      dup1\n      swap3\n      swap2\n      swap1\n      dup2\n      dup2\n      mstore\n      0x20\n      add\n      dup3\n      dup1\n      sload\n      tag_128\n      swap1\n      tag_107\n      jump\t// in\n    tag_128:\n      dup1\n      iszero\n      tag_129\n      jumpi\n      dup1\n      0x1f\n      lt\n      tag_130\n      jumpi\n      0x0100\n      dup1\n      dup4\n      sload\n      div\n      mul\n      dup4\n      mstore\n      swap2\n      0x20\n      add\n      swap2\n      jump(tag_129)\n    tag_130:\n      dup3\n      add\n      swap2\n      swap1\n      0x00\n      mstore\n      keccak256(0x00, 0x20)\n      swap1\n    tag_131:\n      dup2\n      sload\n      dup2\n      mstore\n      swap1\n      0x01\n      add\n      swap1\n      0x20\n      add\n      dup1\n      dup4\n      gt\n      tag_131\n      jumpi\n      dup3\n      swap1\n      sub\n      0x1f\n      and\n      dup3\n      add\n      swap2\n    tag_129:\n      pop\n      pop\n      pop\n      pop\n      pop\n      dup2\n      mstore\n      0x20\n      add\n      0x03\n      dup3\n      add\n      dup1\n      sload\n      tag_132\n      swap1\n      tag_107\n      jump\t// in\n    tag_132:\n      dup1\n      0x1f\n      add\n      0x20\n      dup1\n      swap2\n      div\n      mul\n      0x20\n      add\n      mload(0x40)\n      swap1\n      dup2\n      add\n      0x40\n      mstore\n      dup1\n      swap3\n      swap2\n      swap1\n      dup2\n      dup2\n      mstore\n      0x20\n      add\n      dup3\n      dup1\n      sload\n      tag_133\n      swap1\n      tag_107\n      jump\t// in\n    tag_133:\n      dup1\n      iszero\n      tag_134\n      jumpi\n      dup1\n      0x1f\n      lt\n      tag_135\n      jumpi\n      0x0100\n      dup1\n      dup4\n      sload\n      div\n      mul\n      dup4\n      mstore\n      swap2\n      0x20\n      add\n      swap2\n      jump(tag_134)\n    tag_135:\n      dup3\n      add\n      swap2\n      swap1\n      0x00\n      mstore\n      keccak256(0x00, 0x20)\n      swap1\n    tag_136:\n      dup2\n      sload\n      dup2\n      mstore\n      swap1\n      0x01\n      add\n      swap1\n      0x20\n      add\n      dup1\n      dup4\n      gt\n      tag_136\n      jumpi\n      dup3\n      swap1\n      sub\n      0x1f\n      and\n      dup3\n      add\n      swap2\n    tag_134:\n      pop\n      pop\n      pop\n      pop\n      pop\n      dup2\n      mstore\n      0x20\n      add\n      0x04\n      dup3\n      add\n      dup1\n      sload\n      tag_137\n      swap1\n      tag_107\n      jump\t// in\n    tag_137:\n      dup1\n      0x1f\n      add\n      0x20\n      dup1\n      swap2\n      div\n      mul\n      0x20\n      add\n      mload(0x40)\n      swap1\n      dup2\n      add\n      0x40\n      mstore\n      dup1\n      swap3\n      swap2\n      swap1\n      dup2\n      dup2\n      mstore\n      0x20\n      add\n      dup3\n      dup1\n      sload\n      tag_138\n      swap1\n      tag_107\n      jump\t// in\n    tag_138:\n      dup1\n      iszero\n      tag_139\n      jumpi\n      dup1\n      0x1f\n      lt\n      tag_140\n      jumpi\n      0x0100\n      dup1\n      dup4\n      sload\n      div\n      mul\n      dup4\n      mstore\n      swap2\n      0x20\n      add\n      swap2\n      jump(tag_139)\n    tag_140:\n      dup3\n      add\n      swap2\n      swap1\n      0x00\n      mstore\n      keccak256(0x00, 0x20)\n      swap1\n    tag_141:\n      dup2\n      sload\n      dup2\n      mstore\n      swap1\n      0x01\n      add\n      swap1\n      0x20\n      add\n      dup1\n      dup4\n      gt\n      tag_141\n      jumpi\n      dup3\n      swap1\n      sub\n      0x1f\n      and\n      dup3\n      add\n      swap2\n    tag_139:\n      pop\n      pop\n      pop\n      pop\n      pop\n      dup2\n      mstore\n      pop\n      pop\n      dup2\n      mstore\n      0x20\n      add\n      swap1\n      0x01\n      add\n      swap1\n      jump(tag_119)\n    tag_120:\n      pop\n      pop\n      pop\n      pop\n      swap1\n      pop\n        /* \"Admin.sol\":1227:1334  function getAllMedicines() public view virtual returns(Medicine[] memory) {... */\n      swap1\n      jump\t// out\n        /* \"Admin.sol\":1690:1810  function getDiseaseById(uint256 id) public view virtual returns(string memory) {... */\n    tag_47:\n        /* \"Admin.sol\":1754:1767  string memory */\n      0x60\n        /* \"Admin.sol\":1786:1794  diseases */\n      0x04\n        /* \"Admin.sol\":1795:1797  id */\n      dup3\n        /* \"Admin.sol\":1786:1798  diseases[id] */\n      dup2\n      sload\n      dup2\n      lt\n      tag_143\n      jumpi\n      tag_144\n      tag_145\n      jump\t// in\n    tag_144:\n    tag_143:\n      swap1\n      0x00\n      mstore\n      keccak256(0x00, 0x20)\n      swap1\n      0x02\n      mul\n      add\n        /* \"Admin.sol\":1786:1803  diseases[id].name */\n      0x01\n      add\n        /* \"Admin.sol\":1779:1803  return diseases[id].name */\n      dup1\n      sload\n      tag_147\n      swap1\n      tag_107\n      jump\t// in\n    tag_147:\n      dup1\n      0x1f\n      add\n      0x20\n      dup1\n      swap2\n      div\n      mul\n      0x20\n      add\n      mload(0x40)\n      swap1\n      dup2\n      add\n      0x40\n      mstore\n      dup1\n      swap3\n      swap2\n      swap1\n      dup2\n      dup2\n      mstore\n      0x20\n      add\n      dup3\n      dup1\n      sload\n      tag_148\n      swap1\n      tag_107\n      jump\t// in\n    tag_148:\n      dup1\n      iszero\n      tag_149\n      jumpi\n      dup1\n      0x1f\n      lt\n      tag_150\n      jumpi\n      0x0100\n      dup1\n      dup4\n      sload\n      div\n      mul\n      dup4\n      mstore\n      swap2\n      0x20\n      add\n      swap2\n      jump(tag_149)\n    tag_150:\n      dup3\n      add\n      swap2\n      swap1\n      0x00\n      mstore\n      keccak256(0x00, 0x20)\n      swap1\n    tag_151:\n      dup2\n      sload\n      dup2\n      mstore\n      swap1\n      0x01\n      add\n      swap1\n      0x20\n      add\n      dup1\n      dup4\n      gt\n      tag_151\n      jumpi\n      dup3\n      swap1\n      sub\n      0x1f\n      and\n      dup3\n      add\n      swap2\n    tag_149:\n      pop\n      pop\n      pop\n      pop\n      pop\n      swap1\n      pop\n        /* \"Admin.sol\":1690:1810  function getDiseaseById(uint256 id) public view virtual returns(string memory) {... */\n      swap2\n      swap1\n      pop\n      jump\t// out\n        /* \"Doctor.sol\":287:310  uint public doctorCount */\n    tag_51:\n      sload(0x06)\n      dup2\n      jump\t// out\n        /* \"Doctor.sol\":353:590  function doctorNotExists(address dAddr) public view returns (bool) {... */\n    tag_57:\n        /* \"Doctor.sol\":414:418  bool */\n      0x00\n        /* \"Doctor.sol\":434:440  uint i */\n      dup1\n        /* \"Doctor.sol\":441:442  0 */\n      0x00\n        /* \"Doctor.sol\":434:442  uint i=0 */\n      swap1\n      pop\n        /* \"Doctor.sol\":430:563  for(uint i=0; i<doctorCount; i++) {... */\n    tag_153:\n        /* \"Doctor.sol\":446:457  doctorCount */\n      sload(0x06)\n        /* \"Doctor.sol\":444:445  i */\n      dup2\n        /* \"Doctor.sol\":444:457  i<doctorCount */\n      lt\n        /* \"Doctor.sol\":430:563  for(uint i=0; i<doctorCount; i++) {... */\n      iszero\n      tag_154\n      jumpi\n        /* \"Doctor.sol\":501:506  dAddr */\n      dup3\n        /* \"Doctor.sol\":481:506  doctorAddress[i] == dAddr */\n      0xffffffffffffffffffffffffffffffffffffffff\n      and\n        /* \"Doctor.sol\":481:494  doctorAddress */\n      0x07\n        /* \"Doctor.sol\":495:496  i */\n      dup3\n        /* \"Doctor.sol\":481:497  doctorAddress[i] */\n      dup2\n      sload\n      dup2\n      lt\n      tag_156\n      jumpi\n      tag_157\n      tag_145\n      jump\t// in\n    tag_157:\n    tag_156:\n      swap1\n      0x00\n      mstore\n      keccak256(0x00, 0x20)\n      add\n      0x00\n      swap1\n      sload\n      swap1\n      0x0100\n      exp\n      swap1\n      div\n      0xffffffffffffffffffffffffffffffffffffffff\n      and\n        /* \"Doctor.sol\":481:506  doctorAddress[i] == dAddr */\n      0xffffffffffffffffffffffffffffffffffffffff\n      and\n      sub\n        /* \"Doctor.sol\":478:553  if(doctorAddress[i] == dAddr) {... */\n      tag_159\n      jumpi\n        /* \"Doctor.sol\":533:538  false */\n      0x00\n        /* \"Doctor.sol\":526:538  return false */\n      swap2\n      pop\n      pop\n      jump(tag_152)\n        /* \"Doctor.sol\":478:553  if(doctorAddress[i] == dAddr) {... */\n    tag_159:\n        /* \"Doctor.sol\":459:462  i++ */\n      dup1\n      dup1\n      tag_160\n      swap1\n      tag_97\n      jump\t// in\n    tag_160:\n      swap2\n      pop\n      pop\n        /* \"Doctor.sol\":430:563  for(uint i=0; i<doctorCount; i++) {... */\n      jump(tag_153)\n    tag_154:\n      pop\n        /* \"Doctor.sol\":579:583  true */\n      0x01\n        /* \"Doctor.sol\":572:583  return true */\n      swap1\n      pop\n        /* \"Doctor.sol\":353:590  function doctorNotExists(address dAddr) public view returns (bool) {... */\n    tag_152:\n      swap2\n      swap1\n      pop\n      jump\t// out\n        /* \"Admin.sol\":1580:1684  function getAllDiseases() public view virtual returns(Disease[] memory) {... */\n    tag_61:\n        /* \"Admin.sol\":1634:1650  Disease[] memory */\n      0x60\n        /* \"Admin.sol\":1669:1677  diseases */\n      0x04\n        /* \"Admin.sol\":1662:1677  return diseases */\n      dup1\n      sload\n      dup1\n      0x20\n      mul\n      0x20\n      add\n      mload(0x40)\n      swap1\n      dup2\n      add\n      0x40\n      mstore\n      dup1\n      swap3\n      swap2\n      swap1\n      dup2\n      dup2\n      mstore\n      0x20\n      add\n      0x00\n      swap1\n    tag_162:\n      dup3\n      dup3\n      lt\n      iszero\n      tag_163\n      jumpi\n      dup4\n      dup3\n      swap1\n      0x00\n      mstore\n      keccak256(0x00, 0x20)\n      swap1\n      0x02\n      mul\n      add\n      mload(0x40)\n      dup1\n      0x40\n      add\n      0x40\n      mstore\n      swap1\n      dup2\n      0x00\n      dup3\n      add\n      sload\n      dup2\n      mstore\n      0x20\n      add\n      0x01\n      dup3\n      add\n      dup1\n      sload\n      tag_165\n      swap1\n      tag_107\n      jump\t// in\n    tag_165:\n      dup1\n      0x1f\n      add\n      0x20\n      dup1\n      swap2\n      div\n      mul\n      0x20\n      add\n      mload(0x40)\n      swap1\n      dup2\n      add\n      0x40\n      mstore\n      dup1\n      swap3\n      swap2\n      swap1\n      dup2\n      dup2\n      mstore\n      0x20\n      add\n      dup3\n      dup1\n      sload\n      tag_166\n      swap1\n      tag_107\n      jump\t// in\n    tag_166:\n      dup1\n      iszero\n      tag_167\n      jumpi\n      dup1\n      0x1f\n      lt\n      tag_168\n      jumpi\n      0x0100\n      dup1\n      dup4\n      sload\n      div\n      mul\n      dup4\n      mstore\n      swap2\n      0x20\n      add\n      swap2\n      jump(tag_167)\n    tag_168:\n      dup3\n      add\n      swap2\n      swap1\n      0x00\n      mstore\n      keccak256(0x00, 0x20)\n      swap1\n    tag_169:\n      dup2\n      sload\n      dup2\n      mstore\n      swap1\n      0x01\n      add\n      swap1\n      0x20\n      add\n      dup1\n      dup4\n      gt\n      tag_169\n      jumpi\n      dup3\n      swap1\n      sub\n      0x1f\n      and\n      dup3\n      add\n      swap2\n    tag_167:\n      pop\n      pop\n      pop\n      pop\n      pop\n      dup2\n      mstore\n      pop\n      pop\n      dup2\n      mstore\n      0x20\n      add\n      swap1\n      0x01\n      add\n      swap1\n      jump(tag_162)\n    tag_163:\n      pop\n      pop\n      pop\n      pop\n      swap1\n      pop\n        /* \"Admin.sol\":1580:1684  function getAllDiseases() public view virtual returns(Disease[] memory) {... */\n      swap1\n      jump\t// out\n        /* \"Doctor.sol\":233:281  mapping(address => DoctorDetails) public doctors */\n    tag_66:\n      mstore(0x20, 0x05)\n      dup1\n      0x00\n      mstore\n      keccak256(0x00, 0x40)\n      0x00\n      swap2\n      pop\n      swap1\n      pop\n      dup1\n      0x00\n      add\n      sload\n      swap1\n      dup1\n      0x01\n      add\n      dup1\n      sload\n      tag_170\n      swap1\n      tag_107\n      jump\t// in\n    tag_170:\n      dup1\n      0x1f\n      add\n      0x20\n      dup1\n      swap2\n      div\n      mul\n      0x20\n      add\n      mload(0x40)\n      swap1\n      dup2\n      add\n      0x40\n      mstore\n      dup1\n      swap3\n      swap2\n      swap1\n      dup2\n      dup2\n      mstore\n      0x20\n      add\n      dup3\n      dup1\n      sload\n      tag_171\n      swap1\n      tag_107\n      jump\t// in\n    tag_171:\n      dup1\n      iszero\n      tag_172\n      jumpi\n      dup1\n      0x1f\n      lt\n      tag_173\n      jumpi\n      0x0100\n      dup1\n      dup4\n      sload\n      div\n      mul\n      dup4\n      mstore\n      swap2\n      0x20\n      add\n      swap2\n      jump(tag_172)\n    tag_173:\n      dup3\n      add\n      swap2\n      swap1\n      0x00\n      mstore\n      keccak256(0x00, 0x20)\n      swap1\n    tag_174:\n      dup2\n      sload\n      dup2\n      mstore\n      swap1\n      0x01\n      add\n      swap1\n      0x20\n      add\n      dup1\n      dup4\n      gt\n      tag_174\n      jumpi\n      dup3\n      swap1\n      sub\n      0x1f\n      and\n      dup3\n      add\n      swap2\n    tag_172:\n      pop\n      pop\n      pop\n      pop\n      pop\n      swap1\n      dup1\n      0x02\n      add\n      dup1\n      sload\n      tag_175\n      swap1\n      tag_107\n      jump\t// in\n    tag_175:\n      dup1\n      0x1f\n      add\n      0x20\n      dup1\n      swap2\n      div\n      mul\n      0x20\n      add\n      mload(0x40)\n      swap1\n      dup2\n      add\n      0x40\n      mstore\n      dup1\n      swap3\n      swap2\n      swap1\n      dup2\n      dup2\n      mstore\n      0x20\n      add\n      dup3\n      dup1\n      sload\n      tag_176\n      swap1\n      tag_107\n      jump\t// in\n    tag_176:\n      dup1\n      iszero\n      tag_177\n      jumpi\n      dup1\n      0x1f\n      lt\n      tag_178\n      jumpi\n      0x0100\n      dup1\n      dup4\n      sload\n      div\n      mul\n      dup4\n      mstore\n      swap2\n      0x20\n      add\n      swap2\n      jump(tag_177)\n    tag_178:\n      dup3\n      add\n      swap2\n      swap1\n      0x00\n      mstore\n      keccak256(0x00, 0x20)\n      swap1\n    tag_179:\n      dup2\n      sload\n      dup2\n      mstore\n      swap1\n      0x01\n      add\n      swap1\n      0x20\n      add\n      dup1\n      dup4\n      gt\n      tag_179\n      jumpi\n      dup3\n      swap1\n      sub\n      0x1f\n      and\n      dup3\n      add\n      swap2\n    tag_177:\n      pop\n      pop\n      pop\n      pop\n      pop\n      swap1\n      dup1\n      0x03\n      add\n      0x00\n      swap1\n      sload\n      swap1\n      0x0100\n      exp\n      swap1\n      div\n      0xffffffffffffffffffffffffffffffffffffffff\n      and\n      swap1\n      dup1\n      0x04\n      add\n      sload\n      swap1\n      pop\n      dup6\n      jump\t// out\n        /* \"Admin.sol\":387:416  Workplace[] public workplaces */\n    tag_71:\n      0x02\n      dup2\n      dup2\n      sload\n      dup2\n      lt\n      tag_180\n      jumpi\n      0x00\n      dup1\n      revert\n    tag_180:\n      swap1\n      0x00\n      mstore\n      keccak256(0x00, 0x20)\n      swap1\n      0x02\n      mul\n      add\n      0x00\n      swap2\n      pop\n      swap1\n      pop\n      dup1\n      0x00\n      add\n      dup1\n      sload\n      tag_182\n      swap1\n      tag_107\n      jump\t// in\n    tag_182:\n      dup1\n      0x1f\n      add\n      0x20\n      dup1\n      swap2\n      div\n      mul\n      0x20\n      add\n      mload(0x40)\n      swap1\n      dup2\n      add\n      0x40\n      mstore\n      dup1\n      swap3\n      swap2\n      swap1\n      dup2\n      dup2\n      mstore\n      0x20\n      add\n      dup3\n      dup1\n      sload\n      tag_183\n      swap1\n      tag_107\n      jump\t// in\n    tag_183:\n      dup1\n      iszero\n      tag_184\n      jumpi\n      dup1\n      0x1f\n      lt\n      tag_185\n      jumpi\n      0x0100\n      dup1\n      dup4\n      sload\n      div\n      mul\n      dup4\n      mstore\n      swap2\n      0x20\n      add\n      swap2\n      jump(tag_184)\n    tag_185:\n      dup3\n      add\n      swap2\n      swap1\n      0x00\n      mstore\n      keccak256(0x00, 0x20)\n      swap1\n    tag_186:\n      dup2\n      sload\n      dup2\n      mstore\n      swap1\n      0x01\n      add\n      swap1\n      0x20\n      add\n      dup1\n      dup4\n      gt\n      tag_186\n      jumpi\n      dup3\n      swap1\n      sub\n      0x1f\n      and\n      dup3\n      add\n      swap2\n    tag_184:\n      pop\n      pop\n      pop\n      pop\n      pop\n      swap1\n      dup1\n      0x01\n      add\n      dup1\n      sload\n      tag_187\n      swap1\n      tag_107\n      jump\t// in\n    tag_187:\n      dup1\n      0x1f\n      add\n      0x20\n      dup1\n      swap2\n      div\n      mul\n      0x20\n      add\n      mload(0x40)\n      swap1\n      dup2\n      add\n      0x40\n      mstore\n      dup1\n      swap3\n      swap2\n      swap1\n      dup2\n      dup2\n      mstore\n      0x20\n      add\n      dup3\n      dup1\n      sload\n      tag_188\n      swap1\n      tag_107\n      jump\t// in\n    tag_188:\n      dup1\n      iszero\n      tag_189\n      jumpi\n      dup1\n      0x1f\n      lt\n      tag_190\n      jumpi\n      0x0100\n      dup1\n      dup4\n      sload\n      div\n      mul\n      dup4\n      mstore\n      swap2\n      0x20\n      add\n      swap2\n      jump(tag_189)\n    tag_190:\n      dup3\n      add\n      swap2\n      swap1\n      0x00\n      mstore\n      keccak256(0x00, 0x20)\n      swap1\n    tag_191:\n      dup2\n      sload\n      dup2\n      mstore\n      swap1\n      0x01\n      add\n      swap1\n      0x20\n      add\n      dup1\n      dup4\n      gt\n      tag_191\n      jumpi\n      dup3\n      swap1\n      sub\n      0x1f\n      and\n      dup3\n      add\n      swap2\n    tag_189:\n      pop\n      pop\n      pop\n      pop\n      pop\n      swap1\n      pop\n      dup3\n      jump\t// out\n        /* \"Admin.sol\":422:449  Medicine[] public medicines */\n    tag_76:\n      0x03\n      dup2\n      dup2\n      sload\n      dup2\n      lt\n      tag_192\n      jumpi\n      0x00\n      dup1\n      revert\n    tag_192:\n      swap1\n      0x00\n      mstore\n      keccak256(0x00, 0x20)\n      swap1\n      0x05\n      mul\n      add\n      0x00\n      swap2\n      pop\n      swap1\n      pop\n      dup1\n      0x00\n      add\n      sload\n      swap1\n      dup1\n      0x01\n      add\n      dup1\n      sload\n      tag_194\n      swap1\n      tag_107\n      jump\t// in\n    tag_194:\n      dup1\n      0x1f\n      add\n      0x20\n      dup1\n      swap2\n      div\n      mul\n      0x20\n      add\n      mload(0x40)\n      swap1\n      dup2\n      add\n      0x40\n      mstore\n      dup1\n      swap3\n      swap2\n      swap1\n      dup2\n      dup2\n      mstore\n      0x20\n      add\n      dup3\n      dup1\n      sload\n      tag_195\n      swap1\n      tag_107\n      jump\t// in\n    tag_195:\n      dup1\n      iszero\n      tag_196\n      jumpi\n      dup1\n      0x1f\n      lt\n      tag_197\n      jumpi\n      0x0100\n      dup1\n      dup4\n      sload\n      div\n      mul\n      dup4\n      mstore\n      swap2\n      0x20\n      add\n      swap2\n      jump(tag_196)\n    tag_197:\n      dup3\n      add\n      swap2\n      swap1\n      0x00\n      mstore\n      keccak256(0x00, 0x20)\n      swap1\n    tag_198:\n      dup2\n      sload\n      dup2\n      mstore\n      swap1\n      0x01\n      add\n      swap1\n      0x20\n      add\n      dup1\n      dup4\n      gt\n      tag_198\n      jumpi\n      dup3\n      swap1\n      sub\n      0x1f\n      and\n      dup3\n      add\n      swap2\n    tag_196:\n      pop\n      pop\n      pop\n      pop\n      pop\n      swap1\n      dup1\n      0x02\n      add\n      dup1\n      sload\n      tag_199\n      swap1\n      tag_107\n      jump\t// in\n    tag_199:\n      dup1\n      0x1f\n      add\n      0x20\n      dup1\n      swap2\n      div\n      mul\n      0x20\n      add\n      mload(0x40)\n      swap1\n      dup2\n      add\n      0x40\n      mstore\n      dup1\n      swap3\n      swap2\n      swap1\n      dup2\n      dup2\n      mstore\n      0x20\n      add\n      dup3\n      dup1\n      sload\n      tag_200\n      swap1\n      tag_107\n      jump\t// in\n    tag_200:\n      dup1\n      iszero\n      tag_201\n      jumpi\n      dup1\n      0x1f\n      lt\n      tag_202\n      jumpi\n      0x0100\n      dup1\n      dup4\n      sload\n      div\n      mul\n      dup4\n      mstore\n      swap2\n      0x20\n      add\n      swap2\n      jump(tag_201)\n    tag_202:\n      dup3\n      add\n      swap2\n      swap1\n      0x00\n      mstore\n      keccak256(0x00, 0x20)\n      swap1\n    tag_203:\n      dup2\n      sload\n      dup2\n      mstore\n      swap1\n      0x01\n      add\n      swap1\n      0x20\n      add\n      dup1\n      dup4\n      gt\n      tag_203\n      jumpi\n      dup3\n      swap1\n      sub\n      0x1f\n      and\n      dup3\n      add\n      swap2\n    tag_201:\n      pop\n      pop\n      pop\n      pop\n      pop\n      swap1\n      dup1\n      0x03\n      add\n      dup1\n      sload\n      tag_204\n      swap1\n      tag_107\n      jump\t// in\n    tag_204:\n      dup1\n      0x1f\n      add\n      0x20\n      dup1\n      swap2\n      div\n      mul\n      0x20\n      add\n      mload(0x40)\n      swap1\n      dup2\n      add\n      0x40\n      mstore\n      dup1\n      swap3\n      swap2\n      swap1\n      dup2\n      dup2\n      mstore\n      0x20\n      add\n      dup3\n      dup1\n      sload\n      tag_205\n      swap1\n      tag_107\n      jump\t// in\n    tag_205:\n      dup1\n      iszero\n      tag_206\n      jumpi\n      dup1\n      0x1f\n      lt\n      tag_207\n      jumpi\n      0x0100\n      dup1\n      dup4\n      sload\n      div\n      mul\n      dup4\n      mstore\n      swap2\n      0x20\n      add\n      swap2\n      jump(tag_206)\n    tag_207:\n      dup3\n      add\n      swap2\n      swap1\n      0x00\n      mstore\n      keccak256(0x00, 0x20)\n      swap1\n    tag_208:\n      dup2\n      sload\n      dup2\n      mstore\n      swap1\n      0x01\n      add\n      swap1\n      0x20\n      add\n      dup1\n      dup4\n      gt\n      tag_208\n      jumpi\n      dup3\n      swap1\n      sub\n      0x1f\n      and\n      dup3\n      add\n      swap2\n    tag_206:\n      pop\n      pop\n      pop\n      pop\n      pop\n      swap1\n      dup1\n      0x04\n      add\n      dup1\n      sload\n      tag_209\n      swap1\n      tag_107\n      jump\t// in\n    tag_209:\n      dup1\n      0x1f\n      add\n      0x20\n      dup1\n      swap2\n      div\n      mul\n      0x20\n      add\n      mload(0x40)\n      swap1\n      dup2\n      add\n      0x40\n      mstore\n      dup1\n      swap3\n      swap2\n      swap1\n      dup2\n      dup2\n      mstore\n      0x20\n      add\n      dup3\n      dup1\n      sload\n      tag_210\n      swap1\n      tag_107\n      jump\t// in\n    tag_210:\n      dup1\n      iszero\n      tag_211\n      jumpi\n      dup1\n      0x1f\n      lt\n      tag_212\n      jumpi\n      0x0100\n      dup1\n      dup4\n      sload\n      div\n      mul\n      dup4\n      mstore\n      swap2\n      0x20\n      add\n      swap2\n      jump(tag_211)\n    tag_212:\n      dup3\n      add\n      swap2\n      swap1\n      0x00\n      mstore\n      keccak256(0x00, 0x20)\n      swap1\n    tag_213:\n      dup2\n      sload\n      dup2\n      mstore\n      swap1\n      0x01\n      add\n      swap1\n      0x20\n      add\n      dup1\n      dup4\n      gt\n      tag_213\n      jumpi\n      dup3\n      swap1\n      sub\n      0x1f\n      and\n      dup3\n      add\n      swap2\n    tag_211:\n      pop\n      pop\n      pop\n      pop\n      pop\n      swap1\n      pop\n      dup6\n      jump\t// out\n        /* \"Admin.sol\":1340:1574  function addDisease(string memory _name) public virtual {... */\n    tag_82:\n        /* \"Admin.sol\":1406:1431  Disease memory newDisease */\n      0x00\n        /* \"Admin.sol\":1434:1508  Disease({... */\n      mload(0x40)\n      dup1\n      0x40\n      add\n      0x40\n      mstore\n      dup1\n        /* \"Admin.sol\":1460:1472  diseaseCount */\n      sload(0x01)\n        /* \"Admin.sol\":1434:1508  Disease({... */\n      dup2\n      mstore\n      0x20\n      add\n        /* \"Admin.sol\":1492:1497  _name */\n      dup4\n        /* \"Admin.sol\":1434:1508  Disease({... */\n      dup2\n      mstore\n      pop\n        /* \"Admin.sol\":1406:1508  Disease memory newDisease = Disease({... */\n      swap1\n      pop\n        /* \"Admin.sol\":1518:1530  diseaseCount */\n      0x01\n      0x00\n        /* \"Admin.sol\":1518:1532  diseaseCount++ */\n      dup2\n      sload\n      dup1\n      swap3\n      swap2\n      swap1\n      tag_215\n      swap1\n      tag_97\n      jump\t// in\n    tag_215:\n      swap2\n      swap1\n      pop\n      sstore\n      pop\n        /* \"Admin.sol\":1542:1550  diseases */\n      0x04\n        /* \"Admin.sol\":1556:1566  newDisease */\n      dup2\n        /* \"Admin.sol\":1542:1567  diseases.push(newDisease) */\n      swap1\n      dup1\n      0x01\n      dup2\n      sload\n      add\n      dup1\n      dup3\n      sstore\n      dup1\n      swap2\n      pop\n      pop\n      0x01\n      swap1\n      sub\n      swap1\n      0x00\n      mstore\n      keccak256(0x00, 0x20)\n      swap1\n      0x02\n      mul\n      add\n      0x00\n      swap1\n      swap2\n      swap1\n      swap2\n      swap1\n      swap2\n      pop\n      0x00\n      dup3\n      add\n      mload\n      dup2\n      0x00\n      add\n      sstore\n      0x20\n      dup3\n      add\n      mload\n      dup2\n      0x01\n      add\n      swap1\n      dup2\n      tag_217\n      swap2\n      swap1\n      tag_100\n      jump\t// in\n    tag_217:\n      pop\n      pop\n      pop\n        /* \"Admin.sol\":1396:1574  {... */\n      pop\n        /* \"Admin.sol\":1340:1574  function addDisease(string memory _name) public virtual {... */\n      pop\n      jump\t// out\n        /* \"Admin.sol\":703:814  function getAllWorkplaces() public view virtual returns (Workplace[] memory) {... */\n    tag_84:\n        /* \"Admin.sol\":760:778  Workplace[] memory */\n      0x60\n        /* \"Admin.sol\":797:807  workplaces */\n      0x02\n        /* \"Admin.sol\":790:807  return workplaces */\n      dup1\n      sload\n      dup1\n      0x20\n      mul\n      0x20\n      add\n      mload(0x40)\n      swap1\n      dup2\n      add\n      0x40\n      mstore\n      dup1\n      swap3\n      swap2\n      swap1\n      dup2\n      dup2\n      mstore\n      0x20\n      add\n      0x00\n      swap1\n    tag_219:\n      dup3\n      dup3\n      lt\n      iszero\n      tag_220\n      jumpi\n      dup4\n      dup3\n      swap1\n      0x00\n      mstore\n      keccak256(0x00, 0x20)\n      swap1\n      0x02\n      mul\n      add\n      mload(0x40)\n      dup1\n      0x40\n      add\n      0x40\n      mstore\n      swap1\n      dup2\n      0x00\n      dup3\n      add\n      dup1\n      sload\n      tag_222\n      swap1\n      tag_107\n      jump\t// in\n    tag_222:\n      dup1\n      0x1f\n      add\n      0x20\n      dup1\n      swap2\n      div\n      mul\n      0x20\n      add\n      mload(0x40)\n      swap1\n      dup2\n      add\n      0x40\n      mstore\n      dup1\n      swap3\n      swap2\n      swap1\n      dup2\n      dup2\n      mstore\n      0x20\n      add\n      dup3\n      dup1\n      sload\n      tag_223\n      swap1\n      tag_107\n      jump\t// in\n    tag_223:\n      dup1\n      iszero\n      tag_224\n      jumpi\n      dup1\n      0x1f\n      lt\n      tag_225\n      jumpi\n      0x0100\n      dup1\n      dup4\n      sload\n      div\n      mul\n      dup4\n      mstore\n      swap2\n      0x20\n      add\n      swap2\n      jump(tag_224)\n    tag_225:\n      dup3\n      add\n      swap2\n      swap1\n      0x00\n      mstore\n      keccak256(0x00, 0x20)\n      swap1\n    tag_226:\n      dup2\n      sload\n      dup2\n      mstore\n      swap1\n      0x01\n      add\n      swap1\n      0x20\n      add\n      dup1\n      dup4\n      gt\n      tag_226\n      jumpi\n      dup3\n      swap1\n      sub\n      0x1f\n      and\n      dup3\n      add\n      swap2\n    tag_224:\n      pop\n      pop\n      pop\n      pop\n      pop\n      dup2\n      mstore\n      0x20\n      add\n      0x01\n      dup3\n      add\n      dup1\n      sload\n      tag_227\n      swap1\n      tag_107\n      jump\t// in\n    tag_227:\n      dup1\n      0x1f\n      add\n      0x20\n      dup1\n      swap2\n      div\n      mul\n      0x20\n      add\n      mload(0x40)\n      swap1\n      dup2\n      add\n      0x40\n      mstore\n      dup1\n      swap3\n      swap2\n      swap1\n      dup2\n      dup2\n      mstore\n      0x20\n      add\n      dup3\n      dup1\n      sload\n      tag_228\n      swap1\n      tag_107\n      jump\t// in\n    tag_228:\n      dup1\n      iszero\n      tag_229\n      jumpi\n      dup1\n      0x1f\n      lt\n      tag_230\n      jumpi\n      0x0100\n      dup1\n      dup4\n      sload\n      div\n      mul\n      dup4\n      mstore\n      swap2\n      0x20\n      add\n      swap2\n      jump(tag_229)\n    tag_230:\n      dup3\n      add\n      swap2\n      swap1\n      0x00\n      mstore\n      keccak256(0x00, 0x20)\n      swap1\n    tag_231:\n      dup2\n      sload\n      dup2\n      mstore\n      swap1\n      0x01\n      add\n      swap1\n      0x20\n      add\n      dup1\n      dup4\n      gt\n      tag_231\n      jumpi\n      dup3\n      swap1\n      sub\n      0x1f\n      and\n      dup3\n      add\n      swap2\n    tag_229:\n      pop\n      pop\n      pop\n      pop\n      pop\n      dup2\n      mstore\n      pop\n      pop\n      dup2\n      mstore\n      0x20\n      add\n      swap1\n      0x01\n      add\n      swap1\n      jump(tag_219)\n    tag_220:\n      pop\n      pop\n      pop\n      pop\n      swap1\n      pop\n        /* \"Admin.sol\":703:814  function getAllWorkplaces() public view virtual returns (Workplace[] memory) {... */\n      swap1\n      jump\t// out\n        /* \"Doctor.sol\":959:1243  function getAllDoctors() public view returns (DoctorDetails[] memory) {... */\n    tag_88:\n        /* \"Doctor.sol\":1005:1027  DoctorDetails[] memory */\n      0x60\n        /* \"Doctor.sol\":1039:1068  DoctorDetails[] memory result */\n      0x00\n        /* \"Doctor.sol\":1091:1102  doctorCount */\n      sload(0x06)\n        /* \"Doctor.sol\":1071:1103  new DoctorDetails[](doctorCount) */\n      0xffffffffffffffff\n      dup2\n      gt\n      iszero\n      tag_233\n      jumpi\n      tag_234\n      tag_235\n      jump\t// in\n    tag_234:\n    tag_233:\n      mload(0x40)\n      swap1\n      dup1\n      dup3\n      mstore\n      dup1\n      0x20\n      mul\n      0x20\n      add\n      dup3\n      add\n      0x40\n      mstore\n      dup1\n      iszero\n      tag_236\n      jumpi\n      dup2\n      0x20\n      add\n    tag_237:\n      tag_238\n      tag_239\n      jump\t// in\n    tag_238:\n      dup2\n      mstore\n      0x20\n      add\n      swap1\n      0x01\n      swap1\n      sub\n      swap1\n      dup2\n      tag_237\n      jumpi\n      swap1\n      pop\n    tag_236:\n      pop\n        /* \"Doctor.sol\":1039:1103  DoctorDetails[] memory result = new DoctorDetails[](doctorCount) */\n      swap1\n      pop\n        /* \"Doctor.sol\":1118:1124  uint i */\n      0x00\n        /* \"Doctor.sol\":1113:1214  for (uint i = 0; i < doctorCount; i++) {... */\n    tag_240:\n        /* \"Doctor.sol\":1134:1145  doctorCount */\n      sload(0x06)\n        /* \"Doctor.sol\":1130:1131  i */\n      dup2\n        /* \"Doctor.sol\":1130:1145  i < doctorCount */\n      lt\n        /* \"Doctor.sol\":1113:1214  for (uint i = 0; i < doctorCount; i++) {... */\n      iszero\n      tag_241\n      jumpi\n        /* \"Doctor.sol\":1178:1185  doctors */\n      0x05\n        /* \"Doctor.sol\":1178:1203  doctors[doctorAddress[i]] */\n      0x00\n        /* \"Doctor.sol\":1186:1199  doctorAddress */\n      0x07\n        /* \"Doctor.sol\":1200:1201  i */\n      dup4\n        /* \"Doctor.sol\":1186:1202  doctorAddress[i] */\n      dup2\n      sload\n      dup2\n      lt\n      tag_243\n      jumpi\n      tag_244\n      tag_145\n      jump\t// in\n    tag_244:\n    tag_243:\n      swap1\n      0x00\n      mstore\n      keccak256(0x00, 0x20)\n      add\n      0x00\n      swap1\n      sload\n      swap1\n      0x0100\n      exp\n      swap1\n      div\n      0xffffffffffffffffffffffffffffffffffffffff\n      and\n        /* \"Doctor.sol\":1178:1203  doctors[doctorAddress[i]] */\n      0xffffffffffffffffffffffffffffffffffffffff\n      and\n      0xffffffffffffffffffffffffffffffffffffffff\n      and\n      dup2\n      mstore\n      0x20\n      add\n      swap1\n      dup2\n      mstore\n      0x20\n      add\n      0x00\n      keccak256\n        /* \"Doctor.sol\":1166:1203  result[i] = doctors[doctorAddress[i]] */\n      mload(0x40)\n      dup1\n      0xa0\n      add\n      0x40\n      mstore\n      swap1\n      dup2\n      0x00\n      dup3\n      add\n      sload\n      dup2\n      mstore\n      0x20\n      add\n      0x01\n      dup3\n      add\n      dup1\n      sload\n      tag_246\n      swap1\n      tag_107\n      jump\t// in\n    tag_246:\n      dup1\n      0x1f\n      add\n      0x20\n      dup1\n      swap2\n      div\n      mul\n      0x20\n      add\n      mload(0x40)\n      swap1\n      dup2\n      add\n      0x40\n      mstore\n      dup1\n      swap3\n      swap2\n      swap1\n      dup2\n      dup2\n      mstore\n      0x20\n      add\n      dup3\n      dup1\n      sload\n      tag_247\n      swap1\n      tag_107\n      jump\t// in\n    tag_247:\n      dup1\n      iszero\n      tag_248\n      jumpi\n      dup1\n      0x1f\n      lt\n      tag_249\n      jumpi\n      0x0100\n      dup1\n      dup4\n      sload\n      div\n      mul\n      dup4\n      mstore\n      swap2\n      0x20\n      add\n      swap2\n      jump(tag_248)\n    tag_249:\n      dup3\n      add\n      swap2\n      swap1\n      0x00\n      mstore\n      keccak256(0x00, 0x20)\n      swap1\n    tag_250:\n      dup2\n      sload\n      dup2\n      mstore\n      swap1\n      0x01\n      add\n      swap1\n      0x20\n      add\n      dup1\n      dup4\n      gt\n      tag_250\n      jumpi\n      dup3\n      swap1\n      sub\n      0x1f\n      and\n      dup3\n      add\n      swap2\n    tag_248:\n      pop\n      pop\n      pop\n      pop\n      pop\n      dup2\n      mstore\n      0x20\n      add\n      0x02\n      dup3\n      add\n      dup1\n      sload\n      tag_251\n      swap1\n      tag_107\n      jump\t// in\n    tag_251:\n      dup1\n      0x1f\n      add\n      0x20\n      dup1\n      swap2\n      div\n      mul\n      0x20\n      add\n      mload(0x40)\n      swap1\n      dup2\n      add\n      0x40\n      mstore\n      dup1\n      swap3\n      swap2\n      swap1\n      dup2\n      dup2\n      mstore\n      0x20\n      add\n      dup3\n      dup1\n      sload\n      tag_252\n      swap1\n      tag_107\n      jump\t// in\n    tag_252:\n      dup1\n      iszero\n      tag_253\n      jumpi\n      dup1\n      0x1f\n      lt\n      tag_254\n      jumpi\n      0x0100\n      dup1\n      dup4\n      sload\n      div\n      mul\n      dup4\n      mstore\n      swap2\n      0x20\n      add\n      swap2\n      jump(tag_253)\n    tag_254:\n      dup3\n      add\n      swap2\n      swap1\n      0x00\n      mstore\n      keccak256(0x00, 0x20)\n      swap1\n    tag_255:\n      dup2\n      sload\n      dup2\n      mstore\n      swap1\n      0x01\n      add\n      swap1\n      0x20\n      add\n      dup1\n      dup4\n      gt\n      tag_255\n      jumpi\n      dup3\n      swap1\n      sub\n      0x1f\n      and\n      dup3\n      add\n      swap2\n    tag_253:\n      pop\n      pop\n      pop\n      pop\n      pop\n      dup2\n      mstore\n      0x20\n      add\n      0x03\n      dup3\n      add\n      0x00\n      swap1\n      sload\n      swap1\n      0x0100\n      exp\n      swap1\n      div\n      0xffffffffffffffffffffffffffffffffffffffff\n      and\n      0xffffffffffffffffffffffffffffffffffffffff\n      and\n      0xffffffffffffffffffffffffffffffffffffffff\n      and\n      dup2\n      mstore\n      0x20\n      add\n      0x04\n      dup3\n      add\n      sload\n      dup2\n      mstore\n      pop\n      pop\n        /* \"Doctor.sol\":1166:1172  result */\n      dup3\n        /* \"Doctor.sol\":1173:1174  i */\n      dup3\n        /* \"Doctor.sol\":1166:1175  result[i] */\n      dup2\n      mload\n      dup2\n      lt\n      tag_256\n      jumpi\n      tag_257\n      tag_145\n      jump\t// in\n    tag_257:\n    tag_256:\n      0x20\n      mul\n      0x20\n      add\n      add\n        /* \"Doctor.sol\":1166:1203  result[i] = doctors[doctorAddress[i]] */\n      dup2\n      swap1\n      mstore\n      pop\n        /* \"Doctor.sol\":1147:1150  i++ */\n      dup1\n      dup1\n      tag_258\n      swap1\n      tag_97\n      jump\t// in\n    tag_258:\n      swap2\n      pop\n      pop\n        /* \"Doctor.sol\":1113:1214  for (uint i = 0; i < doctorCount; i++) {... */\n      jump(tag_240)\n    tag_241:\n      pop\n        /* \"Doctor.sol\":1230:1236  result */\n      dup1\n        /* \"Doctor.sol\":1223:1236  return result */\n      swap2\n      pop\n      pop\n        /* \"Doctor.sol\":959:1243  function getAllDoctors() public view returns (DoctorDetails[] memory) {... */\n      swap1\n      jump\t// out\n        /* \"Doctor.sol\":596:953  function registerDoctor(string memory _name, string memory _qualification, uint256 _workplaceIndex, address dAddr) public {... */\n    tag_94:\n        /* \"Doctor.sol\":736:758  doctorNotExists(dAddr) */\n      tag_260\n        /* \"Doctor.sol\":752:757  dAddr */\n      dup2\n        /* \"Doctor.sol\":736:751  doctorNotExists */\n      tag_57\n        /* \"Doctor.sol\":736:758  doctorNotExists(dAddr) */\n      jump\t// in\n    tag_260:\n        /* \"Doctor.sol\":728:788  require(doctorNotExists(dAddr), \"Doctor already registered\") */\n      tag_261\n      jumpi\n      mload(0x40)\n      0x08c379a000000000000000000000000000000000000000000000000000000000\n      dup2\n      mstore\n      0x04\n      add\n      tag_262\n      swap1\n      tag_263\n      jump\t// in\n    tag_262:\n      mload(0x40)\n      dup1\n      swap2\n      sub\n      swap1\n      revert\n    tag_261:\n        /* \"Doctor.sol\":815:888  DoctorDetails(doctorCount, _name, _qualification, dAddr, _workplaceIndex) */\n      mload(0x40)\n      dup1\n      0xa0\n      add\n      0x40\n      mstore\n      dup1\n        /* \"Doctor.sol\":829:840  doctorCount */\n      sload(0x06)\n        /* \"Doctor.sol\":815:888  DoctorDetails(doctorCount, _name, _qualification, dAddr, _workplaceIndex) */\n      dup2\n      mstore\n      0x20\n      add\n        /* \"Doctor.sol\":842:847  _name */\n      dup6\n        /* \"Doctor.sol\":815:888  DoctorDetails(doctorCount, _name, _qualification, dAddr, _workplaceIndex) */\n      dup2\n      mstore\n      0x20\n      add\n        /* \"Doctor.sol\":849:863  _qualification */\n      dup5\n        /* \"Doctor.sol\":815:888  DoctorDetails(doctorCount, _name, _qualification, dAddr, _workplaceIndex) */\n      dup2\n      mstore\n      0x20\n      add\n        /* \"Doctor.sol\":865:870  dAddr */\n      dup3\n        /* \"Doctor.sol\":815:888  DoctorDetails(doctorCount, _name, _qualification, dAddr, _workplaceIndex) */\n      0xffffffffffffffffffffffffffffffffffffffff\n      and\n      dup2\n      mstore\n      0x20\n      add\n        /* \"Doctor.sol\":872:887  _workplaceIndex */\n      dup4\n        /* \"Doctor.sol\":815:888  DoctorDetails(doctorCount, _name, _qualification, dAddr, _workplaceIndex) */\n      dup2\n      mstore\n      pop\n        /* \"Doctor.sol\":798:805  doctors */\n      0x05\n        /* \"Doctor.sol\":798:812  doctors[dAddr] */\n      0x00\n        /* \"Doctor.sol\":806:811  dAddr */\n      dup4\n        /* \"Doctor.sol\":798:812  doctors[dAddr] */\n      0xffffffffffffffffffffffffffffffffffffffff\n      and\n      0xffffffffffffffffffffffffffffffffffffffff\n      and\n      dup2\n      mstore\n      0x20\n      add\n      swap1\n      dup2\n      mstore\n      0x20\n      add\n      0x00\n      keccak256\n        /* \"Doctor.sol\":798:888  doctors[dAddr] = DoctorDetails(doctorCount, _name, _qualification, dAddr, _workplaceIndex) */\n      0x00\n      dup3\n      add\n      mload\n      dup2\n      0x00\n      add\n      sstore\n      0x20\n      dup3\n      add\n      mload\n      dup2\n      0x01\n      add\n      swap1\n      dup2\n      tag_264\n      swap2\n      swap1\n      tag_100\n      jump\t// in\n    tag_264:\n      pop\n      0x40\n      dup3\n      add\n      mload\n      dup2\n      0x02\n      add\n      swap1\n      dup2\n      tag_265\n      swap2\n      swap1\n      tag_100\n      jump\t// in\n    tag_265:\n      pop\n      0x60\n      dup3\n      add\n      mload\n      dup2\n      0x03\n      add\n      exp(0x0100, 0x00)\n      dup2\n      sload\n      dup2\n      0xffffffffffffffffffffffffffffffffffffffff\n      mul\n      not\n      and\n      swap1\n      dup4\n      0xffffffffffffffffffffffffffffffffffffffff\n      and\n      mul\n      or\n      swap1\n      sstore\n      pop\n      0x80\n      dup3\n      add\n      mload\n      dup2\n      0x04\n      add\n      sstore\n      swap1\n      pop\n      pop\n        /* \"Doctor.sol\":898:911  doctorAddress */\n      0x07\n        /* \"Doctor.sol\":917:922  dAddr */\n      dup2\n        /* \"Doctor.sol\":898:923  doctorAddress.push(dAddr) */\n      swap1\n      dup1\n      0x01\n      dup2\n      sload\n      add\n      dup1\n      dup3\n      sstore\n      dup1\n      swap2\n      pop\n      pop\n      0x01\n      swap1\n      sub\n      swap1\n      0x00\n      mstore\n      keccak256(0x00, 0x20)\n      add\n      0x00\n      swap1\n      swap2\n      swap1\n      swap2\n      swap1\n      swap2\n      0x0100\n      exp\n      dup2\n      sload\n      dup2\n      0xffffffffffffffffffffffffffffffffffffffff\n      mul\n      not\n      and\n      swap1\n      dup4\n      0xffffffffffffffffffffffffffffffffffffffff\n      and\n      mul\n      or\n      swap1\n      sstore\n      pop\n        /* \"Doctor.sol\":933:944  doctorCount */\n      0x06\n      0x00\n        /* \"Doctor.sol\":933:946  doctorCount++ */\n      dup2\n      sload\n      dup1\n      swap3\n      swap2\n      swap1\n      tag_267\n      swap1\n      tag_97\n      jump\t// in\n    tag_267:\n      swap2\n      swap1\n      pop\n      sstore\n      pop\n        /* \"Doctor.sol\":596:953  function registerDoctor(string memory _name, string memory _qualification, uint256 _workplaceIndex, address dAddr) public {... */\n      pop\n      pop\n      pop\n      pop\n      jump\t// out\n    tag_239:\n      mload(0x40)\n      dup1\n      0xa0\n      add\n      0x40\n      mstore\n      dup1\n      0x00\n      dup2\n      mstore\n      0x20\n      add\n      0x60\n      dup2\n      mstore\n      0x20\n      add\n      0x60\n      dup2\n      mstore\n      0x20\n      add\n      and(0xffffffffffffffffffffffffffffffffffffffff, 0x00)\n      dup2\n      mstore\n      0x20\n      add\n      0x00\n      dup2\n      mstore\n      pop\n      swap1\n      jump\t// out\n        /* \"#utility.yul\":7:82   */\n    tag_268:\n        /* \"#utility.yul\":40:46   */\n      0x00\n        /* \"#utility.yul\":73:75   */\n      0x40\n        /* \"#utility.yul\":67:76   */\n      mload\n        /* \"#utility.yul\":57:76   */\n      swap1\n      pop\n        /* \"#utility.yul\":7:82   */\n      swap1\n      jump\t// out\n        /* \"#utility.yul\":88:205   */\n    tag_269:\n        /* \"#utility.yul\":197:198   */\n      0x00\n        /* \"#utility.yul\":194:195   */\n      dup1\n        /* \"#utility.yul\":187:199   */\n      revert\n        /* \"#utility.yul\":211:328   */\n    tag_270:\n        /* \"#utility.yul\":320:321   */\n      0x00\n        /* \"#utility.yul\":317:318   */\n      dup1\n        /* \"#utility.yul\":310:322   */\n      revert\n        /* \"#utility.yul\":334:451   */\n    tag_271:\n        /* \"#utility.yul\":443:444   */\n      0x00\n        /* \"#utility.yul\":440:441   */\n      dup1\n        /* \"#utility.yul\":433:445   */\n      revert\n        /* \"#utility.yul\":457:574   */\n    tag_272:\n        /* \"#utility.yul\":566:567   */\n      0x00\n        /* \"#utility.yul\":563:564   */\n      dup1\n        /* \"#utility.yul\":556:568   */\n      revert\n        /* \"#utility.yul\":580:682   */\n    tag_273:\n        /* \"#utility.yul\":621:627   */\n      0x00\n        /* \"#utility.yul\":672:674   */\n      0x1f\n        /* \"#utility.yul\":668:675   */\n      not\n        /* \"#utility.yul\":663:665   */\n      0x1f\n        /* \"#utility.yul\":656:661   */\n      dup4\n        /* \"#utility.yul\":652:666   */\n      add\n        /* \"#utility.yul\":648:676   */\n      and\n        /* \"#utility.yul\":638:676   */\n      swap1\n      pop\n        /* \"#utility.yul\":580:682   */\n      swap2\n      swap1\n      pop\n      jump\t// out\n        /* \"#utility.yul\":688:868   */\n    tag_235:\n        /* \"#utility.yul\":736:813   */\n      0x4e487b7100000000000000000000000000000000000000000000000000000000\n        /* \"#utility.yul\":733:734   */\n      0x00\n        /* \"#utility.yul\":726:814   */\n      mstore\n        /* \"#utility.yul\":833:837   */\n      0x41\n        /* \"#utility.yul\":830:831   */\n      0x04\n        /* \"#utility.yul\":823:838   */\n      mstore\n        /* \"#utility.yul\":857:861   */\n      0x24\n        /* \"#utility.yul\":854:855   */\n      0x00\n        /* \"#utility.yul\":847:862   */\n      revert\n        /* \"#utility.yul\":874:1155   */\n    tag_274:\n        /* \"#utility.yul\":957:984   */\n      tag_355\n        /* \"#utility.yul\":979:983   */\n      dup3\n        /* \"#utility.yul\":957:984   */\n      tag_273\n      jump\t// in\n    tag_355:\n        /* \"#utility.yul\":949:955   */\n      dup2\n        /* \"#utility.yul\":945:985   */\n      add\n        /* \"#utility.yul\":1087:1093   */\n      dup2\n        /* \"#utility.yul\":1075:1085   */\n      dup2\n        /* \"#utility.yul\":1072:1094   */\n      lt\n        /* \"#utility.yul\":1051:1069   */\n      0xffffffffffffffff\n        /* \"#utility.yul\":1039:1049   */\n      dup3\n        /* \"#utility.yul\":1036:1070   */\n      gt\n        /* \"#utility.yul\":1033:1095   */\n      or\n        /* \"#utility.yul\":1030:1118   */\n      iszero\n      tag_356\n      jumpi\n        /* \"#utility.yul\":1098:1116   */\n      tag_357\n      tag_235\n      jump\t// in\n    tag_357:\n        /* \"#utility.yul\":1030:1118   */\n    tag_356:\n        /* \"#utility.yul\":1138:1148   */\n      dup1\n        /* \"#utility.yul\":1134:1136   */\n      0x40\n        /* \"#utility.yul\":1127:1149   */\n      mstore\n        /* \"#utility.yul\":917:1155   */\n      pop\n        /* \"#utility.yul\":874:1155   */\n      pop\n      pop\n      jump\t// out\n        /* \"#utility.yul\":1161:1290   */\n    tag_275:\n        /* \"#utility.yul\":1195:1201   */\n      0x00\n        /* \"#utility.yul\":1222:1242   */\n      tag_359\n      tag_268\n      jump\t// in\n    tag_359:\n        /* \"#utility.yul\":1212:1242   */\n      swap1\n      pop\n        /* \"#utility.yul\":1251:1284   */\n      tag_360\n        /* \"#utility.yul\":1279:1283   */\n      dup3\n        /* \"#utility.yul\":1271:1277   */\n      dup3\n        /* \"#utility.yul\":1251:1284   */\n      tag_274\n      jump\t// in\n    tag_360:\n        /* \"#utility.yul\":1161:1290   */\n      swap2\n      swap1\n      pop\n      jump\t// out\n        /* \"#utility.yul\":1296:1604   */\n    tag_276:\n        /* \"#utility.yul\":1358:1362   */\n      0x00\n        /* \"#utility.yul\":1448:1466   */\n      0xffffffffffffffff\n        /* \"#utility.yul\":1440:1446   */\n      dup3\n        /* \"#utility.yul\":1437:1467   */\n      gt\n        /* \"#utility.yul\":1434:1490   */\n      iszero\n      tag_362\n      jumpi\n        /* \"#utility.yul\":1470:1488   */\n      tag_363\n      tag_235\n      jump\t// in\n    tag_363:\n        /* \"#utility.yul\":1434:1490   */\n    tag_362:\n        /* \"#utility.yul\":1508:1537   */\n      tag_364\n        /* \"#utility.yul\":1530:1536   */\n      dup3\n        /* \"#utility.yul\":1508:1537   */\n      tag_273\n      jump\t// in\n    tag_364:\n        /* \"#utility.yul\":1500:1537   */\n      swap1\n      pop\n        /* \"#utility.yul\":1592:1596   */\n      0x20\n        /* \"#utility.yul\":1586:1590   */\n      dup2\n        /* \"#utility.yul\":1582:1597   */\n      add\n        /* \"#utility.yul\":1574:1597   */\n      swap1\n      pop\n        /* \"#utility.yul\":1296:1604   */\n      swap2\n      swap1\n      pop\n      jump\t// out\n        /* \"#utility.yul\":1610:1756   */\n    tag_277:\n        /* \"#utility.yul\":1707:1713   */\n      dup3\n        /* \"#utility.yul\":1702:1705   */\n      dup2\n        /* \"#utility.yul\":1697:1700   */\n      dup4\n        /* \"#utility.yul\":1684:1714   */\n      calldatacopy\n        /* \"#utility.yul\":1748:1749   */\n      0x00\n        /* \"#utility.yul\":1739:1745   */\n      dup4\n        /* \"#utility.yul\":1734:1737   */\n      dup4\n        /* \"#utility.yul\":1730:1746   */\n      add\n        /* \"#utility.yul\":1723:1750   */\n      mstore\n        /* \"#utility.yul\":1610:1756   */\n      pop\n      pop\n      pop\n      jump\t// out\n        /* \"#utility.yul\":1762:2187   */\n    tag_278:\n        /* \"#utility.yul\":1840:1845   */\n      0x00\n        /* \"#utility.yul\":1865:1931   */\n      tag_367\n        /* \"#utility.yul\":1881:1930   */\n      tag_368\n        /* \"#utility.yul\":1923:1929   */\n      dup5\n        /* \"#utility.yul\":1881:1930   */\n      tag_276\n      jump\t// in\n    tag_368:\n        /* \"#utility.yul\":1865:1931   */\n      tag_275\n      jump\t// in\n    tag_367:\n        /* \"#utility.yul\":1856:1931   */\n      swap1\n      pop\n        /* \"#utility.yul\":1954:1960   */\n      dup3\n        /* \"#utility.yul\":1947:1952   */\n      dup2\n        /* \"#utility.yul\":1940:1961   */\n      mstore\n        /* \"#utility.yul\":1992:1996   */\n      0x20\n        /* \"#utility.yul\":1985:1990   */\n      dup2\n        /* \"#utility.yul\":1981:1997   */\n      add\n        /* \"#utility.yul\":2030:2033   */\n      dup5\n        /* \"#utility.yul\":2021:2027   */\n      dup5\n        /* \"#utility.yul\":2016:2019   */\n      dup5\n        /* \"#utility.yul\":2012:2028   */\n      add\n        /* \"#utility.yul\":2009:2034   */\n      gt\n        /* \"#utility.yul\":2006:2118   */\n      iszero\n      tag_369\n      jumpi\n        /* \"#utility.yul\":2037:2116   */\n      tag_370\n      tag_272\n      jump\t// in\n    tag_370:\n        /* \"#utility.yul\":2006:2118   */\n    tag_369:\n        /* \"#utility.yul\":2127:2181   */\n      tag_371\n        /* \"#utility.yul\":2174:2180   */\n      dup5\n        /* \"#utility.yul\":2169:2172   */\n      dup3\n        /* \"#utility.yul\":2164:2167   */\n      dup6\n        /* \"#utility.yul\":2127:2181   */\n      tag_277\n      jump\t// in\n    tag_371:\n        /* \"#utility.yul\":1846:2187   */\n      pop\n        /* \"#utility.yul\":1762:2187   */\n      swap4\n      swap3\n      pop\n      pop\n      pop\n      jump\t// out\n        /* \"#utility.yul\":2207:2547   */\n    tag_279:\n        /* \"#utility.yul\":2263:2268   */\n      0x00\n        /* \"#utility.yul\":2312:2315   */\n      dup3\n        /* \"#utility.yul\":2305:2309   */\n      0x1f\n        /* \"#utility.yul\":2297:2303   */\n      dup4\n        /* \"#utility.yul\":2293:2310   */\n      add\n        /* \"#utility.yul\":2289:2316   */\n      slt\n        /* \"#utility.yul\":2279:2401   */\n      tag_373\n      jumpi\n        /* \"#utility.yul\":2320:2399   */\n      tag_374\n      tag_271\n      jump\t// in\n    tag_374:\n        /* \"#utility.yul\":2279:2401   */\n    tag_373:\n        /* \"#utility.yul\":2437:2443   */\n      dup2\n        /* \"#utility.yul\":2424:2444   */\n      calldataload\n        /* \"#utility.yul\":2462:2541   */\n      tag_375\n        /* \"#utility.yul\":2537:2540   */\n      dup5\n        /* \"#utility.yul\":2529:2535   */\n      dup3\n        /* \"#utility.yul\":2522:2526   */\n      0x20\n        /* \"#utility.yul\":2514:2520   */\n      dup7\n        /* \"#utility.yul\":2510:2527   */\n      add\n        /* \"#utility.yul\":2462:2541   */\n      tag_278\n      jump\t// in\n    tag_375:\n        /* \"#utility.yul\":2453:2541   */\n      swap2\n      pop\n        /* \"#utility.yul\":2269:2547   */\n      pop\n        /* \"#utility.yul\":2207:2547   */\n      swap3\n      swap2\n      pop\n      pop\n      jump\t// out\n        /* \"#utility.yul\":2553:4038   */\n    tag_24:\n        /* \"#utility.yul\":2679:2685   */\n      0x00\n        /* \"#utility.yul\":2687:2693   */\n      dup1\n        /* \"#utility.yul\":2695:2701   */\n      0x00\n        /* \"#utility.yul\":2703:2709   */\n      dup1\n        /* \"#utility.yul\":2752:2755   */\n      0x80\n        /* \"#utility.yul\":2740:2749   */\n      dup6\n        /* \"#utility.yul\":2731:2738   */\n      dup8\n        /* \"#utility.yul\":2727:2750   */\n      sub\n        /* \"#utility.yul\":2723:2756   */\n      slt\n        /* \"#utility.yul\":2720:2840   */\n      iszero\n      tag_377\n      jumpi\n        /* \"#utility.yul\":2759:2838   */\n      tag_378\n      tag_269\n      jump\t// in\n    tag_378:\n        /* \"#utility.yul\":2720:2840   */\n    tag_377:\n        /* \"#utility.yul\":2907:2908   */\n      0x00\n        /* \"#utility.yul\":2896:2905   */\n      dup6\n        /* \"#utility.yul\":2892:2909   */\n      add\n        /* \"#utility.yul\":2879:2910   */\n      calldataload\n        /* \"#utility.yul\":2937:2955   */\n      0xffffffffffffffff\n        /* \"#utility.yul\":2929:2935   */\n      dup2\n        /* \"#utility.yul\":2926:2956   */\n      gt\n        /* \"#utility.yul\":2923:3040   */\n      iszero\n      tag_379\n      jumpi\n        /* \"#utility.yul\":2959:3038   */\n      tag_380\n      tag_270\n      jump\t// in\n    tag_380:\n        /* \"#utility.yul\":2923:3040   */\n    tag_379:\n        /* \"#utility.yul\":3064:3127   */\n      tag_381\n        /* \"#utility.yul\":3119:3126   */\n      dup8\n        /* \"#utility.yul\":3110:3116   */\n      dup3\n        /* \"#utility.yul\":3099:3108   */\n      dup9\n        /* \"#utility.yul\":3095:3117   */\n      add\n        /* \"#utility.yul\":3064:3127   */\n      tag_279\n      jump\t// in\n    tag_381:\n        /* \"#utility.yul\":3054:3127   */\n      swap5\n      pop\n        /* \"#utility.yul\":2850:3137   */\n      pop\n        /* \"#utility.yul\":3204:3206   */\n      0x20\n        /* \"#utility.yul\":3193:3202   */\n      dup6\n        /* \"#utility.yul\":3189:3207   */\n      add\n        /* \"#utility.yul\":3176:3208   */\n      calldataload\n        /* \"#utility.yul\":3235:3253   */\n      0xffffffffffffffff\n        /* \"#utility.yul\":3227:3233   */\n      dup2\n        /* \"#utility.yul\":3224:3254   */\n      gt\n        /* \"#utility.yul\":3221:3338   */\n      iszero\n      tag_382\n      jumpi\n        /* \"#utility.yul\":3257:3336   */\n      tag_383\n      tag_270\n      jump\t// in\n    tag_383:\n        /* \"#utility.yul\":3221:3338   */\n    tag_382:\n        /* \"#utility.yul\":3362:3425   */\n      tag_384\n        /* \"#utility.yul\":3417:3424   */\n      dup8\n        /* \"#utility.yul\":3408:3414   */\n      dup3\n        /* \"#utility.yul\":3397:3406   */\n      dup9\n        /* \"#utility.yul\":3393:3415   */\n      add\n        /* \"#utility.yul\":3362:3425   */\n      tag_279\n      jump\t// in\n    tag_384:\n        /* \"#utility.yul\":3352:3425   */\n      swap4\n      pop\n        /* \"#utility.yul\":3147:3435   */\n      pop\n        /* \"#utility.yul\":3502:3504   */\n      0x40\n        /* \"#utility.yul\":3491:3500   */\n      dup6\n        /* \"#utility.yul\":3487:3505   */\n      add\n        /* \"#utility.yul\":3474:3506   */\n      calldataload\n        /* \"#utility.yul\":3533:3551   */\n      0xffffffffffffffff\n        /* \"#utility.yul\":3525:3531   */\n      dup2\n        /* \"#utility.yul\":3522:3552   */\n      gt\n        /* \"#utility.yul\":3519:3636   */\n      iszero\n      tag_385\n      jumpi\n        /* \"#utility.yul\":3555:3634   */\n      tag_386\n      tag_270\n      jump\t// in\n    tag_386:\n        /* \"#utility.yul\":3519:3636   */\n    tag_385:\n        /* \"#utility.yul\":3660:3723   */\n      tag_387\n        /* \"#utility.yul\":3715:3722   */\n      dup8\n        /* \"#utility.yul\":3706:3712   */\n      dup3\n        /* \"#utility.yul\":3695:3704   */\n      dup9\n        /* \"#utility.yul\":3691:3713   */\n      add\n        /* \"#utility.yul\":3660:3723   */\n      tag_279\n      jump\t// in\n    tag_387:\n        /* \"#utility.yul\":3650:3723   */\n      swap3\n      pop\n        /* \"#utility.yul\":3445:3733   */\n      pop\n        /* \"#utility.yul\":3800:3802   */\n      0x60\n        /* \"#utility.yul\":3789:3798   */\n      dup6\n        /* \"#utility.yul\":3785:3803   */\n      add\n        /* \"#utility.yul\":3772:3804   */\n      calldataload\n        /* \"#utility.yul\":3831:3849   */\n      0xffffffffffffffff\n        /* \"#utility.yul\":3823:3829   */\n      dup2\n        /* \"#utility.yul\":3820:3850   */\n      gt\n        /* \"#utility.yul\":3817:3934   */\n      iszero\n      tag_388\n      jumpi\n        /* \"#utility.yul\":3853:3932   */\n      tag_389\n      tag_270\n      jump\t// in\n    tag_389:\n        /* \"#utility.yul\":3817:3934   */\n    tag_388:\n        /* \"#utility.yul\":3958:4021   */\n      tag_390\n        /* \"#utility.yul\":4013:4020   */\n      dup8\n        /* \"#utility.yul\":4004:4010   */\n      dup3\n        /* \"#utility.yul\":3993:4002   */\n      dup9\n        /* \"#utility.yul\":3989:4011   */\n      add\n        /* \"#utility.yul\":3958:4021   */\n      tag_279\n      jump\t// in\n    tag_390:\n        /* \"#utility.yul\":3948:4021   */\n      swap2\n      pop\n        /* \"#utility.yul\":3743:4031   */\n      pop\n        /* \"#utility.yul\":2553:4038   */\n      swap3\n      swap6\n      swap2\n      swap5\n      pop\n      swap3\n      pop\n      jump\t// out\n        /* \"#utility.yul\":4044:4121   */\n    tag_280:\n        /* \"#utility.yul\":4081:4088   */\n      0x00\n        /* \"#utility.yul\":4110:4115   */\n      dup2\n        /* \"#utility.yul\":4099:4115   */\n      swap1\n      pop\n        /* \"#utility.yul\":4044:4121   */\n      swap2\n      swap1\n      pop\n      jump\t// out\n        /* \"#utility.yul\":4127:4249   */\n    tag_281:\n        /* \"#utility.yul\":4200:4224   */\n      tag_393\n        /* \"#utility.yul\":4218:4223   */\n      dup2\n        /* \"#utility.yul\":4200:4224   */\n      tag_280\n      jump\t// in\n    tag_393:\n        /* \"#utility.yul\":4193:4198   */\n      dup2\n        /* \"#utility.yul\":4190:4225   */\n      eq\n        /* \"#utility.yul\":4180:4243   */\n      tag_394\n      jumpi\n        /* \"#utility.yul\":4239:4240   */\n      0x00\n        /* \"#utility.yul\":4236:4237   */\n      dup1\n        /* \"#utility.yul\":4229:4241   */\n      revert\n        /* \"#utility.yul\":4180:4243   */\n    tag_394:\n        /* \"#utility.yul\":4127:4249   */\n      pop\n      jump\t// out\n        /* \"#utility.yul\":4255:4394   */\n    tag_282:\n        /* \"#utility.yul\":4301:4306   */\n      0x00\n        /* \"#utility.yul\":4339:4345   */\n      dup2\n        /* \"#utility.yul\":4326:4346   */\n      calldataload\n        /* \"#utility.yul\":4317:4346   */\n      swap1\n      pop\n        /* \"#utility.yul\":4355:4388   */\n      tag_396\n        /* \"#utility.yul\":4382:4387   */\n      dup2\n        /* \"#utility.yul\":4355:4388   */\n      tag_281\n      jump\t// in\n    tag_396:\n        /* \"#utility.yul\":4255:4394   */\n      swap3\n      swap2\n      pop\n      pop\n      jump\t// out\n        /* \"#utility.yul\":4400:4729   */\n    tag_28:\n        /* \"#utility.yul\":4459:4465   */\n      0x00\n        /* \"#utility.yul\":4508:4510   */\n      0x20\n        /* \"#utility.yul\":4496:4505   */\n      dup3\n        /* \"#utility.yul\":4487:4494   */\n      dup5\n        /* \"#utility.yul\":4483:4506   */\n      sub\n        /* \"#utility.yul\":4479:4511   */\n      slt\n        /* \"#utility.yul\":4476:4595   */\n      iszero\n      tag_398\n      jumpi\n        /* \"#utility.yul\":4514:4593   */\n      tag_399\n      tag_269\n      jump\t// in\n    tag_399:\n        /* \"#utility.yul\":4476:4595   */\n    tag_398:\n        /* \"#utility.yul\":4634:4635   */\n      0x00\n        /* \"#utility.yul\":4659:4712   */\n      tag_400\n        /* \"#utility.yul\":4704:4711   */\n      dup5\n        /* \"#utility.yul\":4695:4701   */\n      dup3\n        /* \"#utility.yul\":4684:4693   */\n      dup6\n        /* \"#utility.yul\":4680:4702   */\n      add\n        /* \"#utility.yul\":4659:4712   */\n      tag_282\n      jump\t// in\n    tag_400:\n        /* \"#utility.yul\":4649:4712   */\n      swap2\n      pop\n        /* \"#utility.yul\":4605:4722   */\n      pop\n        /* \"#utility.yul\":4400:4729   */\n      swap3\n      swap2\n      pop\n      pop\n      jump\t// out\n        /* \"#utility.yul\":4735:4853   */\n    tag_283:\n        /* \"#utility.yul\":4822:4846   */\n      tag_402\n        /* \"#utility.yul\":4840:4845   */\n      dup2\n        /* \"#utility.yul\":4822:4846   */\n      tag_280\n      jump\t// in\n    tag_402:\n        /* \"#utility.yul\":4817:4820   */\n      dup3\n        /* \"#utility.yul\":4810:4847   */\n      mstore\n        /* \"#utility.yul\":4735:4853   */\n      pop\n      pop\n      jump\t// out\n        /* \"#utility.yul\":4859:4958   */\n    tag_284:\n        /* \"#utility.yul\":4911:4917   */\n      0x00\n        /* \"#utility.yul\":4945:4950   */\n      dup2\n        /* \"#utility.yul\":4939:4951   */\n      mload\n        /* \"#utility.yul\":4929:4951   */\n      swap1\n      pop\n        /* \"#utility.yul\":4859:4958   */\n      swap2\n      swap1\n      pop\n      jump\t// out\n        /* \"#utility.yul\":4964:5133   */\n    tag_285:\n        /* \"#utility.yul\":5048:5059   */\n      0x00\n        /* \"#utility.yul\":5082:5088   */\n      dup3\n        /* \"#utility.yul\":5077:5080   */\n      dup3\n        /* \"#utility.yul\":5070:5089   */\n      mstore\n        /* \"#utility.yul\":5122:5126   */\n      0x20\n        /* \"#utility.yul\":5117:5120   */\n      dup3\n        /* \"#utility.yul\":5113:5127   */\n      add\n        /* \"#utility.yul\":5098:5127   */\n      swap1\n      pop\n        /* \"#utility.yul\":4964:5133   */\n      swap3\n      swap2\n      pop\n      pop\n      jump\t// out\n        /* \"#utility.yul\":5139:5385   */\n    tag_286:\n        /* \"#utility.yul\":5220:5221   */\n      0x00\n        /* \"#utility.yul\":5230:5343   */\n    tag_406:\n        /* \"#utility.yul\":5244:5250   */\n      dup4\n        /* \"#utility.yul\":5241:5242   */\n      dup2\n        /* \"#utility.yul\":5238:5251   */\n      lt\n        /* \"#utility.yul\":5230:5343   */\n      iszero\n      tag_408\n      jumpi\n        /* \"#utility.yul\":5329:5330   */\n      dup1\n        /* \"#utility.yul\":5324:5327   */\n      dup3\n        /* \"#utility.yul\":5320:5331   */\n      add\n        /* \"#utility.yul\":5314:5332   */\n      mload\n        /* \"#utility.yul\":5310:5311   */\n      dup2\n        /* \"#utility.yul\":5305:5308   */\n      dup5\n        /* \"#utility.yul\":5301:5312   */\n      add\n        /* \"#utility.yul\":5294:5333   */\n      mstore\n        /* \"#utility.yul\":5266:5268   */\n      0x20\n        /* \"#utility.yul\":5263:5264   */\n      dup2\n        /* \"#utility.yul\":5259:5269   */\n      add\n        /* \"#utility.yul\":5254:5269   */\n      swap1\n      pop\n        /* \"#utility.yul\":5230:5343   */\n      jump(tag_406)\n    tag_408:\n        /* \"#utility.yul\":5377:5378   */\n      0x00\n        /* \"#utility.yul\":5368:5374   */\n      dup5\n        /* \"#utility.yul\":5363:5366   */\n      dup5\n        /* \"#utility.yul\":5359:5375   */\n      add\n        /* \"#utility.yul\":5352:5379   */\n      mstore\n        /* \"#utility.yul\":5201:5385   */\n      pop\n        /* \"#utility.yul\":5139:5385   */\n      pop\n      pop\n      pop\n      jump\t// out\n        /* \"#utility.yul\":5391:5768   */\n    tag_287:\n        /* \"#utility.yul\":5479:5482   */\n      0x00\n        /* \"#utility.yul\":5507:5546   */\n      tag_410\n        /* \"#utility.yul\":5540:5545   */\n      dup3\n        /* \"#utility.yul\":5507:5546   */\n      tag_284\n      jump\t// in\n    tag_410:\n        /* \"#utility.yul\":5562:5633   */\n      tag_411\n        /* \"#utility.yul\":5626:5632   */\n      dup2\n        /* \"#utility.yul\":5621:5624   */\n      dup6\n        /* \"#utility.yul\":5562:5633   */\n      tag_285\n      jump\t// in\n    tag_411:\n        /* \"#utility.yul\":5555:5633   */\n      swap4\n      pop\n        /* \"#utility.yul\":5642:5707   */\n      tag_412\n        /* \"#utility.yul\":5700:5706   */\n      dup2\n        /* \"#utility.yul\":5695:5698   */\n      dup6\n        /* \"#utility.yul\":5688:5692   */\n      0x20\n        /* \"#utility.yul\":5681:5686   */\n      dup7\n        /* \"#utility.yul\":5677:5693   */\n      add\n        /* \"#utility.yul\":5642:5707   */\n      tag_286\n      jump\t// in\n    tag_412:\n        /* \"#utility.yul\":5732:5761   */\n      tag_413\n        /* \"#utility.yul\":5754:5760   */\n      dup2\n        /* \"#utility.yul\":5732:5761   */\n      tag_273\n      jump\t// in\n    tag_413:\n        /* \"#utility.yul\":5727:5730   */\n      dup5\n        /* \"#utility.yul\":5723:5762   */\n      add\n        /* \"#utility.yul\":5716:5762   */\n      swap2\n      pop\n        /* \"#utility.yul\":5483:5768   */\n      pop\n        /* \"#utility.yul\":5391:5768   */\n      swap3\n      swap2\n      pop\n      pop\n      jump\t// out\n        /* \"#utility.yul\":5774:6197   */\n    tag_31:\n        /* \"#utility.yul\":5915:5919   */\n      0x00\n        /* \"#utility.yul\":5953:5955   */\n      0x40\n        /* \"#utility.yul\":5942:5951   */\n      dup3\n        /* \"#utility.yul\":5938:5956   */\n      add\n        /* \"#utility.yul\":5930:5956   */\n      swap1\n      pop\n        /* \"#utility.yul\":5966:6037   */\n      tag_415\n        /* \"#utility.yul\":6034:6035   */\n      0x00\n        /* \"#utility.yul\":6023:6032   */\n      dup4\n        /* \"#utility.yul\":6019:6036   */\n      add\n        /* \"#utility.yul\":6010:6016   */\n      dup6\n        /* \"#utility.yul\":5966:6037   */\n      tag_283\n      jump\t// in\n    tag_415:\n        /* \"#utility.yul\":6084:6093   */\n      dup2\n        /* \"#utility.yul\":6078:6082   */\n      dup2\n        /* \"#utility.yul\":6074:6094   */\n      sub\n        /* \"#utility.yul\":6069:6071   */\n      0x20\n        /* \"#utility.yul\":6058:6067   */\n      dup4\n        /* \"#utility.yul\":6054:6072   */\n      add\n        /* \"#utility.yul\":6047:6095   */\n      mstore\n        /* \"#utility.yul\":6112:6190   */\n      tag_416\n        /* \"#utility.yul\":6185:6189   */\n      dup2\n        /* \"#utility.yul\":6176:6182   */\n      dup5\n        /* \"#utility.yul\":6112:6190   */\n      tag_287\n      jump\t// in\n    tag_416:\n        /* \"#utility.yul\":6104:6190   */\n      swap1\n      pop\n        /* \"#utility.yul\":5774:6197   */\n      swap4\n      swap3\n      pop\n      pop\n      pop\n      jump\t// out\n        /* \"#utility.yul\":6203:6329   */\n    tag_288:\n        /* \"#utility.yul\":6240:6247   */\n      0x00\n        /* \"#utility.yul\":6280:6322   */\n      0xffffffffffffffffffffffffffffffffffffffff\n        /* \"#utility.yul\":6273:6278   */\n      dup3\n        /* \"#utility.yul\":6269:6323   */\n      and\n        /* \"#utility.yul\":6258:6323   */\n      swap1\n      pop\n        /* \"#utility.yul\":6203:6329   */\n      swap2\n      swap1\n      pop\n      jump\t// out\n        /* \"#utility.yul\":6335:6431   */\n    tag_289:\n        /* \"#utility.yul\":6372:6379   */\n      0x00\n        /* \"#utility.yul\":6401:6425   */\n      tag_419\n        /* \"#utility.yul\":6419:6424   */\n      dup3\n        /* \"#utility.yul\":6401:6425   */\n      tag_288\n      jump\t// in\n    tag_419:\n        /* \"#utility.yul\":6390:6425   */\n      swap1\n      pop\n        /* \"#utility.yul\":6335:6431   */\n      swap2\n      swap1\n      pop\n      jump\t// out\n        /* \"#utility.yul\":6437:6555   */\n    tag_290:\n        /* \"#utility.yul\":6524:6548   */\n      tag_421\n        /* \"#utility.yul\":6542:6547   */\n      dup2\n        /* \"#utility.yul\":6524:6548   */\n      tag_289\n      jump\t// in\n    tag_421:\n        /* \"#utility.yul\":6519:6522   */\n      dup3\n        /* \"#utility.yul\":6512:6549   */\n      mstore\n        /* \"#utility.yul\":6437:6555   */\n      pop\n      pop\n      jump\t// out\n        /* \"#utility.yul\":6561:6783   */\n    tag_36:\n        /* \"#utility.yul\":6654:6658   */\n      0x00\n        /* \"#utility.yul\":6692:6694   */\n      0x20\n        /* \"#utility.yul\":6681:6690   */\n      dup3\n        /* \"#utility.yul\":6677:6695   */\n      add\n        /* \"#utility.yul\":6669:6695   */\n      swap1\n      pop\n        /* \"#utility.yul\":6705:6776   */\n      tag_423\n        /* \"#utility.yul\":6773:6774   */\n      0x00\n        /* \"#utility.yul\":6762:6771   */\n      dup4\n        /* \"#utility.yul\":6758:6775   */\n      add\n        /* \"#utility.yul\":6749:6755   */\n      dup5\n        /* \"#utility.yul\":6705:6776   */\n      tag_290\n      jump\t// in\n    tag_423:\n        /* \"#utility.yul\":6561:6783   */\n      swap3\n      swap2\n      pop\n      pop\n      jump\t// out\n        /* \"#utility.yul\":6789:7623   */\n    tag_39:\n        /* \"#utility.yul\":6877:6883   */\n      0x00\n        /* \"#utility.yul\":6885:6891   */\n      dup1\n        /* \"#utility.yul\":6934:6936   */\n      0x40\n        /* \"#utility.yul\":6922:6931   */\n      dup4\n        /* \"#utility.yul\":6913:6920   */\n      dup6\n        /* \"#utility.yul\":6909:6932   */\n      sub\n        /* \"#utility.yul\":6905:6937   */\n      slt\n        /* \"#utility.yul\":6902:7021   */\n      iszero\n      tag_425\n      jumpi\n        /* \"#utility.yul\":6940:7019   */\n      tag_426\n      tag_269\n      jump\t// in\n    tag_426:\n        /* \"#utility.yul\":6902:7021   */\n    tag_425:\n        /* \"#utility.yul\":7088:7089   */\n      0x00\n        /* \"#utility.yul\":7077:7086   */\n      dup4\n        /* \"#utility.yul\":7073:7090   */\n      add\n        /* \"#utility.yul\":7060:7091   */\n      calldataload\n        /* \"#utility.yul\":7118:7136   */\n      0xffffffffffffffff\n        /* \"#utility.yul\":7110:7116   */\n      dup2\n        /* \"#utility.yul\":7107:7137   */\n      gt\n        /* \"#utility.yul\":7104:7221   */\n      iszero\n      tag_427\n      jumpi\n        /* \"#utility.yul\":7140:7219   */\n      tag_428\n      tag_270\n      jump\t// in\n    tag_428:\n        /* \"#utility.yul\":7104:7221   */\n    tag_427:\n        /* \"#utility.yul\":7245:7308   */\n      tag_429\n        /* \"#utility.yul\":7300:7307   */\n      dup6\n        /* \"#utility.yul\":7291:7297   */\n      dup3\n        /* \"#utility.yul\":7280:7289   */\n      dup7\n        /* \"#utility.yul\":7276:7298   */\n      add\n        /* \"#utility.yul\":7245:7308   */\n      tag_279\n      jump\t// in\n    tag_429:\n        /* \"#utility.yul\":7235:7308   */\n      swap3\n      pop\n        /* \"#utility.yul\":7031:7318   */\n      pop\n        /* \"#utility.yul\":7385:7387   */\n      0x20\n        /* \"#utility.yul\":7374:7383   */\n      dup4\n        /* \"#utility.yul\":7370:7388   */\n      add\n        /* \"#utility.yul\":7357:7389   */\n      calldataload\n        /* \"#utility.yul\":7416:7434   */\n      0xffffffffffffffff\n        /* \"#utility.yul\":7408:7414   */\n      dup2\n        /* \"#utility.yul\":7405:7435   */\n      gt\n        /* \"#utility.yul\":7402:7519   */\n      iszero\n      tag_430\n      jumpi\n        /* \"#utility.yul\":7438:7517   */\n      tag_431\n      tag_270\n      jump\t// in\n    tag_431:\n        /* \"#utility.yul\":7402:7519   */\n    tag_430:\n        /* \"#utility.yul\":7543:7606   */\n      tag_432\n        /* \"#utility.yul\":7598:7605   */\n      dup6\n        /* \"#utility.yul\":7589:7595   */\n      dup3\n        /* \"#utility.yul\":7578:7587   */\n      dup7\n        /* \"#utility.yul\":7574:7596   */\n      add\n        /* \"#utility.yul\":7543:7606   */\n      tag_279\n      jump\t// in\n    tag_432:\n        /* \"#utility.yul\":7533:7606   */\n      swap2\n      pop\n        /* \"#utility.yul\":7328:7616   */\n      pop\n        /* \"#utility.yul\":6789:7623   */\n      swap3\n      pop\n      swap3\n      swap1\n      pop\n      jump\t// out\n        /* \"#utility.yul\":7629:7767   */\n    tag_291:\n        /* \"#utility.yul\":7720:7726   */\n      0x00\n        /* \"#utility.yul\":7754:7759   */\n      dup2\n        /* \"#utility.yul\":7748:7760   */\n      mload\n        /* \"#utility.yul\":7738:7760   */\n      swap1\n      pop\n        /* \"#utility.yul\":7629:7767   */\n      swap2\n      swap1\n      pop\n      jump\t// out\n        /* \"#utility.yul\":7773:7981   */\n    tag_292:\n        /* \"#utility.yul\":7896:7907   */\n      0x00\n        /* \"#utility.yul\":7930:7936   */\n      dup3\n        /* \"#utility.yul\":7925:7928   */\n      dup3\n        /* \"#utility.yul\":7918:7937   */\n      mstore\n        /* \"#utility.yul\":7970:7974   */\n      0x20\n        /* \"#utility.yul\":7965:7968   */\n      dup3\n        /* \"#utility.yul\":7961:7975   */\n      add\n        /* \"#utility.yul\":7946:7975   */\n      swap1\n      pop\n        /* \"#utility.yul\":7773:7981   */\n      swap3\n      swap2\n      pop\n      pop\n      jump\t// out\n        /* \"#utility.yul\":7987:8143   */\n    tag_293:\n        /* \"#utility.yul\":8078:8082   */\n      0x00\n        /* \"#utility.yul\":8101:8104   */\n      dup2\n        /* \"#utility.yul\":8093:8104   */\n      swap1\n      pop\n        /* \"#utility.yul\":8131:8135   */\n      0x20\n        /* \"#utility.yul\":8126:8129   */\n      dup3\n        /* \"#utility.yul\":8122:8136   */\n      add\n        /* \"#utility.yul\":8114:8136   */\n      swap1\n      pop\n        /* \"#utility.yul\":7987:8143   */\n      swap2\n      swap1\n      pop\n      jump\t// out\n        /* \"#utility.yul\":8149:8257   */\n    tag_294:\n        /* \"#utility.yul\":8226:8250   */\n      tag_437\n        /* \"#utility.yul\":8244:8249   */\n      dup2\n        /* \"#utility.yul\":8226:8250   */\n      tag_280\n      jump\t// in\n    tag_437:\n        /* \"#utility.yul\":8221:8224   */\n      dup3\n        /* \"#utility.yul\":8214:8251   */\n      mstore\n        /* \"#utility.yul\":8149:8257   */\n      pop\n      pop\n      jump\t// out\n        /* \"#utility.yul\":8263:8422   */\n    tag_295:\n        /* \"#utility.yul\":8337:8348   */\n      0x00\n        /* \"#utility.yul\":8371:8377   */\n      dup3\n        /* \"#utility.yul\":8366:8369   */\n      dup3\n        /* \"#utility.yul\":8359:8378   */\n      mstore\n        /* \"#utility.yul\":8411:8415   */\n      0x20\n        /* \"#utility.yul\":8406:8409   */\n      dup3\n        /* \"#utility.yul\":8402:8416   */\n      add\n        /* \"#utility.yul\":8387:8416   */\n      swap1\n      pop\n        /* \"#utility.yul\":8263:8422   */\n      swap3\n      swap2\n      pop\n      pop\n      jump\t// out\n        /* \"#utility.yul\":8428:8785   */\n    tag_296:\n        /* \"#utility.yul\":8506:8509   */\n      0x00\n        /* \"#utility.yul\":8534:8573   */\n      tag_440\n        /* \"#utility.yul\":8567:8572   */\n      dup3\n        /* \"#utility.yul\":8534:8573   */\n      tag_284\n      jump\t// in\n    tag_440:\n        /* \"#utility.yul\":8589:8650   */\n      tag_441\n        /* \"#utility.yul\":8643:8649   */\n      dup2\n        /* \"#utility.yul\":8638:8641   */\n      dup6\n        /* \"#utility.yul\":8589:8650   */\n      tag_295\n      jump\t// in\n    tag_441:\n        /* \"#utility.yul\":8582:8650   */\n      swap4\n      pop\n        /* \"#utility.yul\":8659:8724   */\n      tag_442\n        /* \"#utility.yul\":8717:8723   */\n      dup2\n        /* \"#utility.yul\":8712:8715   */\n      dup6\n        /* \"#utility.yul\":8705:8709   */\n      0x20\n        /* \"#utility.yul\":8698:8703   */\n      dup7\n        /* \"#utility.yul\":8694:8710   */\n      add\n        /* \"#utility.yul\":8659:8724   */\n      tag_286\n      jump\t// in\n    tag_442:\n        /* \"#utility.yul\":8749:8778   */\n      tag_443\n        /* \"#utility.yul\":8771:8777   */\n      dup2\n        /* \"#utility.yul\":8749:8778   */\n      tag_273\n      jump\t// in\n    tag_443:\n        /* \"#utility.yul\":8744:8747   */\n      dup5\n        /* \"#utility.yul\":8740:8779   */\n      add\n        /* \"#utility.yul\":8733:8779   */\n      swap2\n      pop\n        /* \"#utility.yul\":8510:8785   */\n      pop\n        /* \"#utility.yul\":8428:8785   */\n      swap3\n      swap2\n      pop\n      pop\n      jump\t// out\n        /* \"#utility.yul\":8845:10179   */\n    tag_297:\n        /* \"#utility.yul\":8952:8955   */\n      0x00\n        /* \"#utility.yul\":8988:8992   */\n      0xa0\n        /* \"#utility.yul\":8983:8986   */\n      dup4\n        /* \"#utility.yul\":8979:8993   */\n      add\n        /* \"#utility.yul\":9073:9077   */\n      0x00\n        /* \"#utility.yul\":9066:9071   */\n      dup4\n        /* \"#utility.yul\":9062:9078   */\n      add\n        /* \"#utility.yul\":9056:9079   */\n      mload\n        /* \"#utility.yul\":9092:9155   */\n      tag_445\n        /* \"#utility.yul\":9149:9153   */\n      0x00\n        /* \"#utility.yul\":9144:9147   */\n      dup7\n        /* \"#utility.yul\":9140:9154   */\n      add\n        /* \"#utility.yul\":9126:9138   */\n      dup3\n        /* \"#utility.yul\":9092:9155   */\n      tag_294\n      jump\t// in\n    tag_445:\n        /* \"#utility.yul\":9003:9165   */\n      pop\n        /* \"#utility.yul\":9247:9251   */\n      0x20\n        /* \"#utility.yul\":9240:9245   */\n      dup4\n        /* \"#utility.yul\":9236:9252   */\n      add\n        /* \"#utility.yul\":9230:9253   */\n      mload\n        /* \"#utility.yul\":9300:9303   */\n      dup5\n        /* \"#utility.yul\":9294:9298   */\n      dup3\n        /* \"#utility.yul\":9290:9304   */\n      sub\n        /* \"#utility.yul\":9283:9287   */\n      0x20\n        /* \"#utility.yul\":9278:9281   */\n      dup7\n        /* \"#utility.yul\":9274:9288   */\n      add\n        /* \"#utility.yul\":9267:9305   */\n      mstore\n        /* \"#utility.yul\":9326:9399   */\n      tag_446\n        /* \"#utility.yul\":9394:9398   */\n      dup3\n        /* \"#utility.yul\":9380:9392   */\n      dup3\n        /* \"#utility.yul\":9326:9399   */\n      tag_296\n      jump\t// in\n    tag_446:\n        /* \"#utility.yul\":9318:9399   */\n      swap2\n      pop\n        /* \"#utility.yul\":9175:9410   */\n      pop\n        /* \"#utility.yul\":9498:9502   */\n      0x40\n        /* \"#utility.yul\":9491:9496   */\n      dup4\n        /* \"#utility.yul\":9487:9503   */\n      add\n        /* \"#utility.yul\":9481:9504   */\n      mload\n        /* \"#utility.yul\":9551:9554   */\n      dup5\n        /* \"#utility.yul\":9545:9549   */\n      dup3\n        /* \"#utility.yul\":9541:9555   */\n      sub\n        /* \"#utility.yul\":9534:9538   */\n      0x40\n        /* \"#utility.yul\":9529:9532   */\n      dup7\n        /* \"#utility.yul\":9525:9539   */\n      add\n        /* \"#utility.yul\":9518:9556   */\n      mstore\n        /* \"#utility.yul\":9577:9650   */\n      tag_447\n        /* \"#utility.yul\":9645:9649   */\n      dup3\n        /* \"#utility.yul\":9631:9643   */\n      dup3\n        /* \"#utility.yul\":9577:9650   */\n      tag_296\n      jump\t// in\n    tag_447:\n        /* \"#utility.yul\":9569:9650   */\n      swap2\n      pop\n        /* \"#utility.yul\":9420:9661   */\n      pop\n        /* \"#utility.yul\":9744:9748   */\n      0x60\n        /* \"#utility.yul\":9737:9742   */\n      dup4\n        /* \"#utility.yul\":9733:9749   */\n      add\n        /* \"#utility.yul\":9727:9750   */\n      mload\n        /* \"#utility.yul\":9797:9800   */\n      dup5\n        /* \"#utility.yul\":9791:9795   */\n      dup3\n        /* \"#utility.yul\":9787:9801   */\n      sub\n        /* \"#utility.yul\":9780:9784   */\n      0x60\n        /* \"#utility.yul\":9775:9778   */\n      dup7\n        /* \"#utility.yul\":9771:9785   */\n      add\n        /* \"#utility.yul\":9764:9802   */\n      mstore\n        /* \"#utility.yul\":9823:9896   */\n      tag_448\n        /* \"#utility.yul\":9891:9895   */\n      dup3\n        /* \"#utility.yul\":9877:9889   */\n      dup3\n        /* \"#utility.yul\":9823:9896   */\n      tag_296\n      jump\t// in\n    tag_448:\n        /* \"#utility.yul\":9815:9896   */\n      swap2\n      pop\n        /* \"#utility.yul\":9671:9907   */\n      pop\n        /* \"#utility.yul\":9989:9993   */\n      0x80\n        /* \"#utility.yul\":9982:9987   */\n      dup4\n        /* \"#utility.yul\":9978:9994   */\n      add\n        /* \"#utility.yul\":9972:9995   */\n      mload\n        /* \"#utility.yul\":10042:10045   */\n      dup5\n        /* \"#utility.yul\":10036:10040   */\n      dup3\n        /* \"#utility.yul\":10032:10046   */\n      sub\n        /* \"#utility.yul\":10025:10029   */\n      0x80\n        /* \"#utility.yul\":10020:10023   */\n      dup7\n        /* \"#utility.yul\":10016:10030   */\n      add\n        /* \"#utility.yul\":10009:10047   */\n      mstore\n        /* \"#utility.yul\":10068:10141   */\n      tag_449\n        /* \"#utility.yul\":10136:10140   */\n      dup3\n        /* \"#utility.yul\":10122:10134   */\n      dup3\n        /* \"#utility.yul\":10068:10141   */\n      tag_296\n      jump\t// in\n    tag_449:\n        /* \"#utility.yul\":10060:10141   */\n      swap2\n      pop\n        /* \"#utility.yul\":9917:10152   */\n      pop\n        /* \"#utility.yul\":10169:10173   */\n      dup1\n        /* \"#utility.yul\":10162:10173   */\n      swap2\n      pop\n        /* \"#utility.yul\":8957:10179   */\n      pop\n        /* \"#utility.yul\":8845:10179   */\n      swap3\n      swap2\n      pop\n      pop\n      jump\t// out\n        /* \"#utility.yul\":10185:10437   */\n    tag_298:\n        /* \"#utility.yul\":10302:10312   */\n      0x00\n        /* \"#utility.yul\":10337:10431   */\n      tag_451\n        /* \"#utility.yul\":10427:10430   */\n      dup4\n        /* \"#utility.yul\":10419:10425   */\n      dup4\n        /* \"#utility.yul\":10337:10431   */\n      tag_297\n      jump\t// in\n    tag_451:\n        /* \"#utility.yul\":10323:10431   */\n      swap1\n      pop\n        /* \"#utility.yul\":10185:10437   */\n      swap3\n      swap2\n      pop\n      pop\n      jump\t// out\n        /* \"#utility.yul\":10443:10580   */\n    tag_299:\n        /* \"#utility.yul\":10537:10541   */\n      0x00\n        /* \"#utility.yul\":10569:10573   */\n      0x20\n        /* \"#utility.yul\":10564:10567   */\n      dup3\n        /* \"#utility.yul\":10560:10574   */\n      add\n        /* \"#utility.yul\":10552:10574   */\n      swap1\n      pop\n        /* \"#utility.yul\":10443:10580   */\n      swap2\n      swap1\n      pop\n      jump\t// out\n        /* \"#utility.yul\":10644:11747   */\n    tag_300:\n        /* \"#utility.yul\":10811:10814   */\n      0x00\n        /* \"#utility.yul\":10840:10918   */\n      tag_454\n        /* \"#utility.yul\":10912:10917   */\n      dup3\n        /* \"#utility.yul\":10840:10918   */\n      tag_291\n      jump\t// in\n    tag_454:\n        /* \"#utility.yul\":10934:11044   */\n      tag_455\n        /* \"#utility.yul\":11037:11043   */\n      dup2\n        /* \"#utility.yul\":11032:11035   */\n      dup6\n        /* \"#utility.yul\":10934:11044   */\n      tag_292\n      jump\t// in\n    tag_455:\n        /* \"#utility.yul\":10927:11044   */\n      swap4\n      pop\n        /* \"#utility.yul\":11070:11073   */\n      dup4\n        /* \"#utility.yul\":11115:11119   */\n      0x20\n        /* \"#utility.yul\":11107:11113   */\n      dup3\n        /* \"#utility.yul\":11103:11120   */\n      mul\n        /* \"#utility.yul\":11098:11101   */\n      dup6\n        /* \"#utility.yul\":11094:11121   */\n      add\n        /* \"#utility.yul\":11145:11225   */\n      tag_456\n        /* \"#utility.yul\":11219:11224   */\n      dup6\n        /* \"#utility.yul\":11145:11225   */\n      tag_293\n      jump\t// in\n    tag_456:\n        /* \"#utility.yul\":11248:11255   */\n      dup1\n        /* \"#utility.yul\":11279:11280   */\n      0x00\n        /* \"#utility.yul\":11264:11702   */\n    tag_457:\n        /* \"#utility.yul\":11289:11295   */\n      dup6\n        /* \"#utility.yul\":11286:11287   */\n      dup2\n        /* \"#utility.yul\":11283:11296   */\n      lt\n        /* \"#utility.yul\":11264:11702   */\n      iszero\n      tag_459\n      jumpi\n        /* \"#utility.yul\":11360:11369   */\n      dup5\n        /* \"#utility.yul\":11354:11358   */\n      dup5\n        /* \"#utility.yul\":11350:11370   */\n      sub\n        /* \"#utility.yul\":11345:11348   */\n      dup10\n        /* \"#utility.yul\":11338:11371   */\n      mstore\n        /* \"#utility.yul\":11411:11417   */\n      dup2\n        /* \"#utility.yul\":11405:11418   */\n      mload\n        /* \"#utility.yul\":11439:11551   */\n      tag_460\n        /* \"#utility.yul\":11546:11550   */\n      dup6\n        /* \"#utility.yul\":11531:11544   */\n      dup3\n        /* \"#utility.yul\":11439:11551   */\n      tag_298\n      jump\t// in\n    tag_460:\n        /* \"#utility.yul\":11431:11551   */\n      swap5\n      pop\n        /* \"#utility.yul\":11574:11658   */\n      tag_461\n        /* \"#utility.yul\":11651:11657   */\n      dup4\n        /* \"#utility.yul\":11574:11658   */\n      tag_299\n      jump\t// in\n    tag_461:\n        /* \"#utility.yul\":11564:11658   */\n      swap3\n      pop\n        /* \"#utility.yul\":11687:11691   */\n      0x20\n        /* \"#utility.yul\":11682:11685   */\n      dup11\n        /* \"#utility.yul\":11678:11692   */\n      add\n        /* \"#utility.yul\":11671:11692   */\n      swap10\n      pop\n        /* \"#utility.yul\":11324:11702   */\n      pop\n        /* \"#utility.yul\":11311:11312   */\n      0x01\n        /* \"#utility.yul\":11308:11309   */\n      dup2\n        /* \"#utility.yul\":11304:11313   */\n      add\n        /* \"#utility.yul\":11299:11313   */\n      swap1\n      pop\n        /* \"#utility.yul\":11264:11702   */\n      jump(tag_457)\n    tag_459:\n        /* \"#utility.yul\":11268:11282   */\n      pop\n        /* \"#utility.yul\":11718:11722   */\n      dup3\n        /* \"#utility.yul\":11711:11722   */\n      swap8\n      pop\n        /* \"#utility.yul\":11738:11741   */\n      dup8\n        /* \"#utility.yul\":11731:11741   */\n      swap6\n      pop\n        /* \"#utility.yul\":10816:11747   */\n      pop\n      pop\n      pop\n      pop\n      pop\n        /* \"#utility.yul\":10644:11747   */\n      swap3\n      swap2\n      pop\n      pop\n      jump\t// out\n        /* \"#utility.yul\":11753:12222   */\n    tag_44:\n        /* \"#utility.yul\":11944:11948   */\n      0x00\n        /* \"#utility.yul\":11982:11984   */\n      0x20\n        /* \"#utility.yul\":11971:11980   */\n      dup3\n        /* \"#utility.yul\":11967:11985   */\n      add\n        /* \"#utility.yul\":11959:11985   */\n      swap1\n      pop\n        /* \"#utility.yul\":12031:12040   */\n      dup2\n        /* \"#utility.yul\":12025:12029   */\n      dup2\n        /* \"#utility.yul\":12021:12041   */\n      sub\n        /* \"#utility.yul\":12017:12018   */\n      0x00\n        /* \"#utility.yul\":12006:12015   */\n      dup4\n        /* \"#utility.yul\":12002:12019   */\n      add\n        /* \"#utility.yul\":11995:12042   */\n      mstore\n        /* \"#utility.yul\":12059:12215   */\n      tag_463\n        /* \"#utility.yul\":12210:12214   */\n      dup2\n        /* \"#utility.yul\":12201:12207   */\n      dup5\n        /* \"#utility.yul\":12059:12215   */\n      tag_300\n      jump\t// in\n    tag_463:\n        /* \"#utility.yul\":12051:12215   */\n      swap1\n      pop\n        /* \"#utility.yul\":11753:12222   */\n      swap3\n      swap2\n      pop\n      pop\n      jump\t// out\n        /* \"#utility.yul\":12228:12541   */\n    tag_49:\n        /* \"#utility.yul\":12341:12345   */\n      0x00\n        /* \"#utility.yul\":12379:12381   */\n      0x20\n        /* \"#utility.yul\":12368:12377   */\n      dup3\n        /* \"#utility.yul\":12364:12382   */\n      add\n        /* \"#utility.yul\":12356:12382   */\n      swap1\n      pop\n        /* \"#utility.yul\":12428:12437   */\n      dup2\n        /* \"#utility.yul\":12422:12426   */\n      dup2\n        /* \"#utility.yul\":12418:12438   */\n      sub\n        /* \"#utility.yul\":12414:12415   */\n      0x00\n        /* \"#utility.yul\":12403:12412   */\n      dup4\n        /* \"#utility.yul\":12399:12416   */\n      add\n        /* \"#utility.yul\":12392:12439   */\n      mstore\n        /* \"#utility.yul\":12456:12534   */\n      tag_465\n        /* \"#utility.yul\":12529:12533   */\n      dup2\n        /* \"#utility.yul\":12520:12526   */\n      dup5\n        /* \"#utility.yul\":12456:12534   */\n      tag_287\n      jump\t// in\n    tag_465:\n        /* \"#utility.yul\":12448:12534   */\n      swap1\n      pop\n        /* \"#utility.yul\":12228:12541   */\n      swap3\n      swap2\n      pop\n      pop\n      jump\t// out\n        /* \"#utility.yul\":12547:12769   */\n    tag_53:\n        /* \"#utility.yul\":12640:12644   */\n      0x00\n        /* \"#utility.yul\":12678:12680   */\n      0x20\n        /* \"#utility.yul\":12667:12676   */\n      dup3\n        /* \"#utility.yul\":12663:12681   */\n      add\n        /* \"#utility.yul\":12655:12681   */\n      swap1\n      pop\n        /* \"#utility.yul\":12691:12762   */\n      tag_467\n        /* \"#utility.yul\":12759:12760   */\n      0x00\n        /* \"#utility.yul\":12748:12757   */\n      dup4\n        /* \"#utility.yul\":12744:12761   */\n      add\n        /* \"#utility.yul\":12735:12741   */\n      dup5\n        /* \"#utility.yul\":12691:12762   */\n      tag_283\n      jump\t// in\n    tag_467:\n        /* \"#utility.yul\":12547:12769   */\n      swap3\n      swap2\n      pop\n      pop\n      jump\t// out\n        /* \"#utility.yul\":12775:12897   */\n    tag_301:\n        /* \"#utility.yul\":12848:12872   */\n      tag_469\n        /* \"#utility.yul\":12866:12871   */\n      dup2\n        /* \"#utility.yul\":12848:12872   */\n      tag_289\n      jump\t// in\n    tag_469:\n        /* \"#utility.yul\":12841:12846   */\n      dup2\n        /* \"#utility.yul\":12838:12873   */\n      eq\n        /* \"#utility.yul\":12828:12891   */\n      tag_470\n      jumpi\n        /* \"#utility.yul\":12887:12888   */\n      0x00\n        /* \"#utility.yul\":12884:12885   */\n      dup1\n        /* \"#utility.yul\":12877:12889   */\n      revert\n        /* \"#utility.yul\":12828:12891   */\n    tag_470:\n        /* \"#utility.yul\":12775:12897   */\n      pop\n      jump\t// out\n        /* \"#utility.yul\":12903:13042   */\n    tag_302:\n        /* \"#utility.yul\":12949:12954   */\n      0x00\n        /* \"#utility.yul\":12987:12993   */\n      dup2\n        /* \"#utility.yul\":12974:12994   */\n      calldataload\n        /* \"#utility.yul\":12965:12994   */\n      swap1\n      pop\n        /* \"#utility.yul\":13003:13036   */\n      tag_472\n        /* \"#utility.yul\":13030:13035   */\n      dup2\n        /* \"#utility.yul\":13003:13036   */\n      tag_301\n      jump\t// in\n    tag_472:\n        /* \"#utility.yul\":12903:13042   */\n      swap3\n      swap2\n      pop\n      pop\n      jump\t// out\n        /* \"#utility.yul\":13048:13377   */\n    tag_56:\n        /* \"#utility.yul\":13107:13113   */\n      0x00\n        /* \"#utility.yul\":13156:13158   */\n      0x20\n        /* \"#utility.yul\":13144:13153   */\n      dup3\n        /* \"#utility.yul\":13135:13142   */\n      dup5\n        /* \"#utility.yul\":13131:13154   */\n      sub\n        /* \"#utility.yul\":13127:13159   */\n      slt\n        /* \"#utility.yul\":13124:13243   */\n      iszero\n      tag_474\n      jumpi\n        /* \"#utility.yul\":13162:13241   */\n      tag_475\n      tag_269\n      jump\t// in\n    tag_475:\n        /* \"#utility.yul\":13124:13243   */\n    tag_474:\n        /* \"#utility.yul\":13282:13283   */\n      0x00\n        /* \"#utility.yul\":13307:13360   */\n      tag_476\n        /* \"#utility.yul\":13352:13359   */\n      dup5\n        /* \"#utility.yul\":13343:13349   */\n      dup3\n        /* \"#utility.yul\":13332:13341   */\n      dup6\n        /* \"#utility.yul\":13328:13350   */\n      add\n        /* \"#utility.yul\":13307:13360   */\n      tag_302\n      jump\t// in\n    tag_476:\n        /* \"#utility.yul\":13297:13360   */\n      swap2\n      pop\n        /* \"#utility.yul\":13253:13370   */\n      pop\n        /* \"#utility.yul\":13048:13377   */\n      swap3\n      swap2\n      pop\n      pop\n      jump\t// out\n        /* \"#utility.yul\":13383:13473   */\n    tag_303:\n        /* \"#utility.yul\":13417:13424   */\n      0x00\n        /* \"#utility.yul\":13460:13465   */\n      dup2\n        /* \"#utility.yul\":13453:13466   */\n      iszero\n        /* \"#utility.yul\":13446:13467   */\n      iszero\n        /* \"#utility.yul\":13435:13467   */\n      swap1\n      pop\n        /* \"#utility.yul\":13383:13473   */\n      swap2\n      swap1\n      pop\n      jump\t// out\n        /* \"#utility.yul\":13479:13588   */\n    tag_304:\n        /* \"#utility.yul\":13560:13581   */\n      tag_479\n        /* \"#utility.yul\":13575:13580   */\n      dup2\n        /* \"#utility.yul\":13560:13581   */\n      tag_303\n      jump\t// in\n    tag_479:\n        /* \"#utility.yul\":13555:13558   */\n      dup3\n        /* \"#utility.yul\":13548:13582   */\n      mstore\n        /* \"#utility.yul\":13479:13588   */\n      pop\n      pop\n      jump\t// out\n        /* \"#utility.yul\":13594:13804   */\n    tag_59:\n        /* \"#utility.yul\":13681:13685   */\n      0x00\n        /* \"#utility.yul\":13719:13721   */\n      0x20\n        /* \"#utility.yul\":13708:13717   */\n      dup3\n        /* \"#utility.yul\":13704:13722   */\n      add\n        /* \"#utility.yul\":13696:13722   */\n      swap1\n      pop\n        /* \"#utility.yul\":13732:13797   */\n      tag_481\n        /* \"#utility.yul\":13794:13795   */\n      0x00\n        /* \"#utility.yul\":13783:13792   */\n      dup4\n        /* \"#utility.yul\":13779:13796   */\n      add\n        /* \"#utility.yul\":13770:13776   */\n      dup5\n        /* \"#utility.yul\":13732:13797   */\n      tag_304\n      jump\t// in\n    tag_481:\n        /* \"#utility.yul\":13594:13804   */\n      swap3\n      swap2\n      pop\n      pop\n      jump\t// out\n        /* \"#utility.yul\":13810:13947   */\n    tag_305:\n        /* \"#utility.yul\":13900:13906   */\n      0x00\n        /* \"#utility.yul\":13934:13939   */\n      dup2\n        /* \"#utility.yul\":13928:13940   */\n      mload\n        /* \"#utility.yul\":13918:13940   */\n      swap1\n      pop\n        /* \"#utility.yul\":13810:13947   */\n      swap2\n      swap1\n      pop\n      jump\t// out\n        /* \"#utility.yul\":13953:14160   */\n    tag_306:\n        /* \"#utility.yul\":14075:14086   */\n      0x00\n        /* \"#utility.yul\":14109:14115   */\n      dup3\n        /* \"#utility.yul\":14104:14107   */\n      dup3\n        /* \"#utility.yul\":14097:14116   */\n      mstore\n        /* \"#utility.yul\":14149:14153   */\n      0x20\n        /* \"#utility.yul\":14144:14147   */\n      dup3\n        /* \"#utility.yul\":14140:14154   */\n      add\n        /* \"#utility.yul\":14125:14154   */\n      swap1\n      pop\n        /* \"#utility.yul\":13953:14160   */\n      swap3\n      swap2\n      pop\n      pop\n      jump\t// out\n        /* \"#utility.yul\":14166:14321   */\n    tag_307:\n        /* \"#utility.yul\":14256:14260   */\n      0x00\n        /* \"#utility.yul\":14279:14282   */\n      dup2\n        /* \"#utility.yul\":14271:14282   */\n      swap1\n      pop\n        /* \"#utility.yul\":14309:14313   */\n      0x20\n        /* \"#utility.yul\":14304:14307   */\n      dup3\n        /* \"#utility.yul\":14300:14314   */\n      add\n        /* \"#utility.yul\":14292:14314   */\n      swap1\n      pop\n        /* \"#utility.yul\":14166:14321   */\n      swap2\n      swap1\n      pop\n      jump\t// out\n        /* \"#utility.yul\":14379:14969   */\n    tag_308:\n        /* \"#utility.yul\":14484:14487   */\n      0x00\n        /* \"#utility.yul\":14520:14524   */\n      0x40\n        /* \"#utility.yul\":14515:14518   */\n      dup4\n        /* \"#utility.yul\":14511:14525   */\n      add\n        /* \"#utility.yul\":14605:14609   */\n      0x00\n        /* \"#utility.yul\":14598:14603   */\n      dup4\n        /* \"#utility.yul\":14594:14610   */\n      add\n        /* \"#utility.yul\":14588:14611   */\n      mload\n        /* \"#utility.yul\":14624:14687   */\n      tag_486\n        /* \"#utility.yul\":14681:14685   */\n      0x00\n        /* \"#utility.yul\":14676:14679   */\n      dup7\n        /* \"#utility.yul\":14672:14686   */\n      add\n        /* \"#utility.yul\":14658:14670   */\n      dup3\n        /* \"#utility.yul\":14624:14687   */\n      tag_294\n      jump\t// in\n    tag_486:\n        /* \"#utility.yul\":14535:14697   */\n      pop\n        /* \"#utility.yul\":14779:14783   */\n      0x20\n        /* \"#utility.yul\":14772:14777   */\n      dup4\n        /* \"#utility.yul\":14768:14784   */\n      add\n        /* \"#utility.yul\":14762:14785   */\n      mload\n        /* \"#utility.yul\":14832:14835   */\n      dup5\n        /* \"#utility.yul\":14826:14830   */\n      dup3\n        /* \"#utility.yul\":14822:14836   */\n      sub\n        /* \"#utility.yul\":14815:14819   */\n      0x20\n        /* \"#utility.yul\":14810:14813   */\n      dup7\n        /* \"#utility.yul\":14806:14820   */\n      add\n        /* \"#utility.yul\":14799:14837   */\n      mstore\n        /* \"#utility.yul\":14858:14931   */\n      tag_487\n        /* \"#utility.yul\":14926:14930   */\n      dup3\n        /* \"#utility.yul\":14912:14924   */\n      dup3\n        /* \"#utility.yul\":14858:14931   */\n      tag_296\n      jump\t// in\n    tag_487:\n        /* \"#utility.yul\":14850:14931   */\n      swap2\n      pop\n        /* \"#utility.yul\":14707:14942   */\n      pop\n        /* \"#utility.yul\":14959:14963   */\n      dup1\n        /* \"#utility.yul\":14952:14963   */\n      swap2\n      pop\n        /* \"#utility.yul\":14489:14969   */\n      pop\n        /* \"#utility.yul\":14379:14969   */\n      swap3\n      swap2\n      pop\n      pop\n      jump\t// out\n        /* \"#utility.yul\":14975:15223   */\n    tag_309:\n        /* \"#utility.yul\":15090:15100   */\n      0x00\n        /* \"#utility.yul\":15125:15217   */\n      tag_489\n        /* \"#utility.yul\":15213:15216   */\n      dup4\n        /* \"#utility.yul\":15205:15211   */\n      dup4\n        /* \"#utility.yul\":15125:15217   */\n      tag_308\n      jump\t// in\n    tag_489:\n        /* \"#utility.yul\":15111:15217   */\n      swap1\n      pop\n        /* \"#utility.yul\":14975:15223   */\n      swap3\n      swap2\n      pop\n      pop\n      jump\t// out\n        /* \"#utility.yul\":15229:15365   */\n    tag_310:\n        /* \"#utility.yul\":15322:15326   */\n      0x00\n        /* \"#utility.yul\":15354:15358   */\n      0x20\n        /* \"#utility.yul\":15349:15352   */\n      dup3\n        /* \"#utility.yul\":15345:15359   */\n      add\n        /* \"#utility.yul\":15337:15359   */\n      swap1\n      pop\n        /* \"#utility.yul\":15229:15365   */\n      swap2\n      swap1\n      pop\n      jump\t// out\n        /* \"#utility.yul\":15427:16522   */\n    tag_311:\n        /* \"#utility.yul\":15592:15595   */\n      0x00\n        /* \"#utility.yul\":15621:15698   */\n      tag_492\n        /* \"#utility.yul\":15692:15697   */\n      dup3\n        /* \"#utility.yul\":15621:15698   */\n      tag_305\n      jump\t// in\n    tag_492:\n        /* \"#utility.yul\":15714:15823   */\n      tag_493\n        /* \"#utility.yul\":15816:15822   */\n      dup2\n        /* \"#utility.yul\":15811:15814   */\n      dup6\n        /* \"#utility.yul\":15714:15823   */\n      tag_306\n      jump\t// in\n    tag_493:\n        /* \"#utility.yul\":15707:15823   */\n      swap4\n      pop\n        /* \"#utility.yul\":15849:15852   */\n      dup4\n        /* \"#utility.yul\":15894:15898   */\n      0x20\n        /* \"#utility.yul\":15886:15892   */\n      dup3\n        /* \"#utility.yul\":15882:15899   */\n      mul\n        /* \"#utility.yul\":15877:15880   */\n      dup6\n        /* \"#utility.yul\":15873:15900   */\n      add\n        /* \"#utility.yul\":15924:16003   */\n      tag_494\n        /* \"#utility.yul\":15997:16002   */\n      dup6\n        /* \"#utility.yul\":15924:16003   */\n      tag_307\n      jump\t// in\n    tag_494:\n        /* \"#utility.yul\":16026:16033   */\n      dup1\n        /* \"#utility.yul\":16057:16058   */\n      0x00\n        /* \"#utility.yul\":16042:16477   */\n    tag_495:\n        /* \"#utility.yul\":16067:16073   */\n      dup6\n        /* \"#utility.yul\":16064:16065   */\n      dup2\n        /* \"#utility.yul\":16061:16074   */\n      lt\n        /* \"#utility.yul\":16042:16477   */\n      iszero\n      tag_497\n      jumpi\n        /* \"#utility.yul\":16138:16147   */\n      dup5\n        /* \"#utility.yul\":16132:16136   */\n      dup5\n        /* \"#utility.yul\":16128:16148   */\n      sub\n        /* \"#utility.yul\":16123:16126   */\n      dup10\n        /* \"#utility.yul\":16116:16149   */\n      mstore\n        /* \"#utility.yul\":16189:16195   */\n      dup2\n        /* \"#utility.yul\":16183:16196   */\n      mload\n        /* \"#utility.yul\":16217:16327   */\n      tag_498\n        /* \"#utility.yul\":16322:16326   */\n      dup6\n        /* \"#utility.yul\":16307:16320   */\n      dup3\n        /* \"#utility.yul\":16217:16327   */\n      tag_309\n      jump\t// in\n    tag_498:\n        /* \"#utility.yul\":16209:16327   */\n      swap5\n      pop\n        /* \"#utility.yul\":16350:16433   */\n      tag_499\n        /* \"#utility.yul\":16426:16432   */\n      dup4\n        /* \"#utility.yul\":16350:16433   */\n      tag_310\n      jump\t// in\n    tag_499:\n        /* \"#utility.yul\":16340:16433   */\n      swap3\n      pop\n        /* \"#utility.yul\":16462:16466   */\n      0x20\n        /* \"#utility.yul\":16457:16460   */\n      dup11\n        /* \"#utility.yul\":16453:16467   */\n      add\n        /* \"#utility.yul\":16446:16467   */\n      swap10\n      pop\n        /* \"#utility.yul\":16102:16477   */\n      pop\n        /* \"#utility.yul\":16089:16090   */\n      0x01\n        /* \"#utility.yul\":16086:16087   */\n      dup2\n        /* \"#utility.yul\":16082:16091   */\n      add\n        /* \"#utility.yul\":16077:16091   */\n      swap1\n      pop\n        /* \"#utility.yul\":16042:16477   */\n      jump(tag_495)\n    tag_497:\n        /* \"#utility.yul\":16046:16060   */\n      pop\n        /* \"#utility.yul\":16493:16497   */\n      dup3\n        /* \"#utility.yul\":16486:16497   */\n      swap8\n      pop\n        /* \"#utility.yul\":16513:16516   */\n      dup8\n        /* \"#utility.yul\":16506:16516   */\n      swap6\n      pop\n        /* \"#utility.yul\":15597:16522   */\n      pop\n      pop\n      pop\n      pop\n      pop\n        /* \"#utility.yul\":15427:16522   */\n      swap3\n      swap2\n      pop\n      pop\n      jump\t// out\n        /* \"#utility.yul\":16528:16993   */\n    tag_63:\n        /* \"#utility.yul\":16717:16721   */\n      0x00\n        /* \"#utility.yul\":16755:16757   */\n      0x20\n        /* \"#utility.yul\":16744:16753   */\n      dup3\n        /* \"#utility.yul\":16740:16758   */\n      add\n        /* \"#utility.yul\":16732:16758   */\n      swap1\n      pop\n        /* \"#utility.yul\":16804:16813   */\n      dup2\n        /* \"#utility.yul\":16798:16802   */\n      dup2\n        /* \"#utility.yul\":16794:16814   */\n      sub\n        /* \"#utility.yul\":16790:16791   */\n      0x00\n        /* \"#utility.yul\":16779:16788   */\n      dup4\n        /* \"#utility.yul\":16775:16792   */\n      add\n        /* \"#utility.yul\":16768:16815   */\n      mstore\n        /* \"#utility.yul\":16832:16986   */\n      tag_501\n        /* \"#utility.yul\":16981:16985   */\n      dup2\n        /* \"#utility.yul\":16972:16978   */\n      dup5\n        /* \"#utility.yul\":16832:16986   */\n      tag_311\n      jump\t// in\n    tag_501:\n        /* \"#utility.yul\":16824:16986   */\n      swap1\n      pop\n        /* \"#utility.yul\":16528:16993   */\n      swap3\n      swap2\n      pop\n      pop\n      jump\t// out\n        /* \"#utility.yul\":16999:17845   */\n    tag_68:\n        /* \"#utility.yul\":17244:17248   */\n      0x00\n        /* \"#utility.yul\":17282:17285   */\n      0xa0\n        /* \"#utility.yul\":17271:17280   */\n      dup3\n        /* \"#utility.yul\":17267:17286   */\n      add\n        /* \"#utility.yul\":17259:17286   */\n      swap1\n      pop\n        /* \"#utility.yul\":17296:17367   */\n      tag_503\n        /* \"#utility.yul\":17364:17365   */\n      0x00\n        /* \"#utility.yul\":17353:17362   */\n      dup4\n        /* \"#utility.yul\":17349:17366   */\n      add\n        /* \"#utility.yul\":17340:17346   */\n      dup9\n        /* \"#utility.yul\":17296:17367   */\n      tag_283\n      jump\t// in\n    tag_503:\n        /* \"#utility.yul\":17414:17423   */\n      dup2\n        /* \"#utility.yul\":17408:17412   */\n      dup2\n        /* \"#utility.yul\":17404:17424   */\n      sub\n        /* \"#utility.yul\":17399:17401   */\n      0x20\n        /* \"#utility.yul\":17388:17397   */\n      dup4\n        /* \"#utility.yul\":17384:17402   */\n      add\n        /* \"#utility.yul\":17377:17425   */\n      mstore\n        /* \"#utility.yul\":17442:17520   */\n      tag_504\n        /* \"#utility.yul\":17515:17519   */\n      dup2\n        /* \"#utility.yul\":17506:17512   */\n      dup8\n        /* \"#utility.yul\":17442:17520   */\n      tag_287\n      jump\t// in\n    tag_504:\n        /* \"#utility.yul\":17434:17520   */\n      swap1\n      pop\n        /* \"#utility.yul\":17567:17576   */\n      dup2\n        /* \"#utility.yul\":17561:17565   */\n      dup2\n        /* \"#utility.yul\":17557:17577   */\n      sub\n        /* \"#utility.yul\":17552:17554   */\n      0x40\n        /* \"#utility.yul\":17541:17550   */\n      dup4\n        /* \"#utility.yul\":17537:17555   */\n      add\n        /* \"#utility.yul\":17530:17578   */\n      mstore\n        /* \"#utility.yul\":17595:17673   */\n      tag_505\n        /* \"#utility.yul\":17668:17672   */\n      dup2\n        /* \"#utility.yul\":17659:17665   */\n      dup7\n        /* \"#utility.yul\":17595:17673   */\n      tag_287\n      jump\t// in\n    tag_505:\n        /* \"#utility.yul\":17587:17673   */\n      swap1\n      pop\n        /* \"#utility.yul\":17683:17755   */\n      tag_506\n        /* \"#utility.yul\":17751:17753   */\n      0x60\n        /* \"#utility.yul\":17740:17749   */\n      dup4\n        /* \"#utility.yul\":17736:17754   */\n      add\n        /* \"#utility.yul\":17727:17733   */\n      dup6\n        /* \"#utility.yul\":17683:17755   */\n      tag_290\n      jump\t// in\n    tag_506:\n        /* \"#utility.yul\":17765:17838   */\n      tag_507\n        /* \"#utility.yul\":17833:17836   */\n      0x80\n        /* \"#utility.yul\":17822:17831   */\n      dup4\n        /* \"#utility.yul\":17818:17837   */\n      add\n        /* \"#utility.yul\":17809:17815   */\n      dup5\n        /* \"#utility.yul\":17765:17838   */\n      tag_283\n      jump\t// in\n    tag_507:\n        /* \"#utility.yul\":16999:17845   */\n      swap7\n      swap6\n      pop\n      pop\n      pop\n      pop\n      pop\n      pop\n      jump\t// out\n        /* \"#utility.yul\":17851:18365   */\n    tag_73:\n        /* \"#utility.yul\":18012:18016   */\n      0x00\n        /* \"#utility.yul\":18050:18052   */\n      0x40\n        /* \"#utility.yul\":18039:18048   */\n      dup3\n        /* \"#utility.yul\":18035:18053   */\n      add\n        /* \"#utility.yul\":18027:18053   */\n      swap1\n      pop\n        /* \"#utility.yul\":18099:18108   */\n      dup2\n        /* \"#utility.yul\":18093:18097   */\n      dup2\n        /* \"#utility.yul\":18089:18109   */\n      sub\n        /* \"#utility.yul\":18085:18086   */\n      0x00\n        /* \"#utility.yul\":18074:18083   */\n      dup4\n        /* \"#utility.yul\":18070:18087   */\n      add\n        /* \"#utility.yul\":18063:18110   */\n      mstore\n        /* \"#utility.yul\":18127:18205   */\n      tag_509\n        /* \"#utility.yul\":18200:18204   */\n      dup2\n        /* \"#utility.yul\":18191:18197   */\n      dup6\n        /* \"#utility.yul\":18127:18205   */\n      tag_287\n      jump\t// in\n    tag_509:\n        /* \"#utility.yul\":18119:18205   */\n      swap1\n      pop\n        /* \"#utility.yul\":18252:18261   */\n      dup2\n        /* \"#utility.yul\":18246:18250   */\n      dup2\n        /* \"#utility.yul\":18242:18262   */\n      sub\n        /* \"#utility.yul\":18237:18239   */\n      0x20\n        /* \"#utility.yul\":18226:18235   */\n      dup4\n        /* \"#utility.yul\":18222:18240   */\n      add\n        /* \"#utility.yul\":18215:18263   */\n      mstore\n        /* \"#utility.yul\":18280:18358   */\n      tag_510\n        /* \"#utility.yul\":18353:18357   */\n      dup2\n        /* \"#utility.yul\":18344:18350   */\n      dup5\n        /* \"#utility.yul\":18280:18358   */\n      tag_287\n      jump\t// in\n    tag_510:\n        /* \"#utility.yul\":18272:18358   */\n      swap1\n      pop\n        /* \"#utility.yul\":17851:18365   */\n      swap4\n      swap3\n      pop\n      pop\n      pop\n      jump\t// out\n        /* \"#utility.yul\":18371:19399   */\n    tag_78:\n        /* \"#utility.yul\":18656:18660   */\n      0x00\n        /* \"#utility.yul\":18694:18697   */\n      0xa0\n        /* \"#utility.yul\":18683:18692   */\n      dup3\n        /* \"#utility.yul\":18679:18698   */\n      add\n        /* \"#utility.yul\":18671:18698   */\n      swap1\n      pop\n        /* \"#utility.yul\":18708:18779   */\n      tag_512\n        /* \"#utility.yul\":18776:18777   */\n      0x00\n        /* \"#utility.yul\":18765:18774   */\n      dup4\n        /* \"#utility.yul\":18761:18778   */\n      add\n        /* \"#utility.yul\":18752:18758   */\n      dup9\n        /* \"#utility.yul\":18708:18779   */\n      tag_283\n      jump\t// in\n    tag_512:\n        /* \"#utility.yul\":18826:18835   */\n      dup2\n        /* \"#utility.yul\":18820:18824   */\n      dup2\n        /* \"#utility.yul\":18816:18836   */\n      sub\n        /* \"#utility.yul\":18811:18813   */\n      0x20\n        /* \"#utility.yul\":18800:18809   */\n      dup4\n        /* \"#utility.yul\":18796:18814   */\n      add\n        /* \"#utility.yul\":18789:18837   */\n      mstore\n        /* \"#utility.yul\":18854:18932   */\n      tag_513\n        /* \"#utility.yul\":18927:18931   */\n      dup2\n        /* \"#utility.yul\":18918:18924   */\n      dup8\n        /* \"#utility.yul\":18854:18932   */\n      tag_287\n      jump\t// in\n    tag_513:\n        /* \"#utility.yul\":18846:18932   */\n      swap1\n      pop\n        /* \"#utility.yul\":18979:18988   */\n      dup2\n        /* \"#utility.yul\":18973:18977   */\n      dup2\n        /* \"#utility.yul\":18969:18989   */\n      sub\n        /* \"#utility.yul\":18964:18966   */\n      0x40\n        /* \"#utility.yul\":18953:18962   */\n      dup4\n        /* \"#utility.yul\":18949:18967   */\n      add\n        /* \"#utility.yul\":18942:18990   */\n      mstore\n        /* \"#utility.yul\":19007:19085   */\n      tag_514\n        /* \"#utility.yul\":19080:19084   */\n      dup2\n        /* \"#utility.yul\":19071:19077   */\n      dup7\n        /* \"#utility.yul\":19007:19085   */\n      tag_287\n      jump\t// in\n    tag_514:\n        /* \"#utility.yul\":18999:19085   */\n      swap1\n      pop\n        /* \"#utility.yul\":19132:19141   */\n      dup2\n        /* \"#utility.yul\":19126:19130   */\n      dup2\n        /* \"#utility.yul\":19122:19142   */\n      sub\n        /* \"#utility.yul\":19117:19119   */\n      0x60\n        /* \"#utility.yul\":19106:19115   */\n      dup4\n        /* \"#utility.yul\":19102:19120   */\n      add\n        /* \"#utility.yul\":19095:19143   */\n      mstore\n        /* \"#utility.yul\":19160:19238   */\n      tag_515\n        /* \"#utility.yul\":19233:19237   */\n      dup2\n        /* \"#utility.yul\":19224:19230   */\n      dup6\n        /* \"#utility.yul\":19160:19238   */\n      tag_287\n      jump\t// in\n    tag_515:\n        /* \"#utility.yul\":19152:19238   */\n      swap1\n      pop\n        /* \"#utility.yul\":19286:19295   */\n      dup2\n        /* \"#utility.yul\":19280:19284   */\n      dup2\n        /* \"#utility.yul\":19276:19296   */\n      sub\n        /* \"#utility.yul\":19270:19273   */\n      0x80\n        /* \"#utility.yul\":19259:19268   */\n      dup4\n        /* \"#utility.yul\":19255:19274   */\n      add\n        /* \"#utility.yul\":19248:19297   */\n      mstore\n        /* \"#utility.yul\":19314:19392   */\n      tag_516\n        /* \"#utility.yul\":19387:19391   */\n      dup2\n        /* \"#utility.yul\":19378:19384   */\n      dup5\n        /* \"#utility.yul\":19314:19392   */\n      tag_287\n      jump\t// in\n    tag_516:\n        /* \"#utility.yul\":19306:19392   */\n      swap1\n      pop\n        /* \"#utility.yul\":18371:19399   */\n      swap7\n      swap6\n      pop\n      pop\n      pop\n      pop\n      pop\n      pop\n      jump\t// out\n        /* \"#utility.yul\":19405:19914   */\n    tag_81:\n        /* \"#utility.yul\":19474:19480   */\n      0x00\n        /* \"#utility.yul\":19523:19525   */\n      0x20\n        /* \"#utility.yul\":19511:19520   */\n      dup3\n        /* \"#utility.yul\":19502:19509   */\n      dup5\n        /* \"#utility.yul\":19498:19521   */\n      sub\n        /* \"#utility.yul\":19494:19526   */\n      slt\n        /* \"#utility.yul\":19491:19610   */\n      iszero\n      tag_518\n      jumpi\n        /* \"#utility.yul\":19529:19608   */\n      tag_519\n      tag_269\n      jump\t// in\n    tag_519:\n        /* \"#utility.yul\":19491:19610   */\n    tag_518:\n        /* \"#utility.yul\":19677:19678   */\n      0x00\n        /* \"#utility.yul\":19666:19675   */\n      dup3\n        /* \"#utility.yul\":19662:19679   */\n      add\n        /* \"#utility.yul\":19649:19680   */\n      calldataload\n        /* \"#utility.yul\":19707:19725   */\n      0xffffffffffffffff\n        /* \"#utility.yul\":19699:19705   */\n      dup2\n        /* \"#utility.yul\":19696:19726   */\n      gt\n        /* \"#utility.yul\":19693:19810   */\n      iszero\n      tag_520\n      jumpi\n        /* \"#utility.yul\":19729:19808   */\n      tag_521\n      tag_270\n      jump\t// in\n    tag_521:\n        /* \"#utility.yul\":19693:19810   */\n    tag_520:\n        /* \"#utility.yul\":19834:19897   */\n      tag_522\n        /* \"#utility.yul\":19889:19896   */\n      dup5\n        /* \"#utility.yul\":19880:19886   */\n      dup3\n        /* \"#utility.yul\":19869:19878   */\n      dup6\n        /* \"#utility.yul\":19865:19887   */\n      add\n        /* \"#utility.yul\":19834:19897   */\n      tag_279\n      jump\t// in\n    tag_522:\n        /* \"#utility.yul\":19824:19897   */\n      swap2\n      pop\n        /* \"#utility.yul\":19620:19907   */\n      pop\n        /* \"#utility.yul\":19405:19914   */\n      swap3\n      swap2\n      pop\n      pop\n      jump\t// out\n        /* \"#utility.yul\":19920:20058   */\n    tag_312:\n        /* \"#utility.yul\":20011:20017   */\n      0x00\n        /* \"#utility.yul\":20045:20050   */\n      dup2\n        /* \"#utility.yul\":20039:20051   */\n      mload\n        /* \"#utility.yul\":20029:20051   */\n      swap1\n      pop\n        /* \"#utility.yul\":19920:20058   */\n      swap2\n      swap1\n      pop\n      jump\t// out\n        /* \"#utility.yul\":20064:20272   */\n    tag_313:\n        /* \"#utility.yul\":20187:20198   */\n      0x00\n        /* \"#utility.yul\":20221:20227   */\n      dup3\n        /* \"#utility.yul\":20216:20219   */\n      dup3\n        /* \"#utility.yul\":20209:20228   */\n      mstore\n        /* \"#utility.yul\":20261:20265   */\n      0x20\n        /* \"#utility.yul\":20256:20259   */\n      dup3\n        /* \"#utility.yul\":20252:20266   */\n      add\n        /* \"#utility.yul\":20237:20266   */\n      swap1\n      pop\n        /* \"#utility.yul\":20064:20272   */\n      swap3\n      swap2\n      pop\n      pop\n      jump\t// out\n        /* \"#utility.yul\":20278:20434   */\n    tag_314:\n        /* \"#utility.yul\":20369:20373   */\n      0x00\n        /* \"#utility.yul\":20392:20395   */\n      dup2\n        /* \"#utility.yul\":20384:20395   */\n      swap1\n      pop\n        /* \"#utility.yul\":20422:20426   */\n      0x20\n        /* \"#utility.yul\":20417:20420   */\n      dup3\n        /* \"#utility.yul\":20413:20427   */\n      add\n        /* \"#utility.yul\":20405:20427   */\n      swap1\n      pop\n        /* \"#utility.yul\":20278:20434   */\n      swap2\n      swap1\n      pop\n      jump\t// out\n        /* \"#utility.yul\":20496:21168   */\n    tag_315:\n        /* \"#utility.yul\":20603:20606   */\n      0x00\n        /* \"#utility.yul\":20639:20643   */\n      0x40\n        /* \"#utility.yul\":20634:20637   */\n      dup4\n        /* \"#utility.yul\":20630:20644   */\n      add\n        /* \"#utility.yul\":20726:20730   */\n      0x00\n        /* \"#utility.yul\":20719:20724   */\n      dup4\n        /* \"#utility.yul\":20715:20731   */\n      add\n        /* \"#utility.yul\":20709:20732   */\n      mload\n        /* \"#utility.yul\":20779:20782   */\n      dup5\n        /* \"#utility.yul\":20773:20777   */\n      dup3\n        /* \"#utility.yul\":20769:20783   */\n      sub\n        /* \"#utility.yul\":20762:20766   */\n      0x00\n        /* \"#utility.yul\":20757:20760   */\n      dup7\n        /* \"#utility.yul\":20753:20767   */\n      add\n        /* \"#utility.yul\":20746:20784   */\n      mstore\n        /* \"#utility.yul\":20805:20878   */\n      tag_527\n        /* \"#utility.yul\":20873:20877   */\n      dup3\n        /* \"#utility.yul\":20859:20871   */\n      dup3\n        /* \"#utility.yul\":20805:20878   */\n      tag_296\n      jump\t// in\n    tag_527:\n        /* \"#utility.yul\":20797:20878   */\n      swap2\n      pop\n        /* \"#utility.yul\":20654:20889   */\n      pop\n        /* \"#utility.yul\":20978:20982   */\n      0x20\n        /* \"#utility.yul\":20971:20976   */\n      dup4\n        /* \"#utility.yul\":20967:20983   */\n      add\n        /* \"#utility.yul\":20961:20984   */\n      mload\n        /* \"#utility.yul\":21031:21034   */\n      dup5\n        /* \"#utility.yul\":21025:21029   */\n      dup3\n        /* \"#utility.yul\":21021:21035   */\n      sub\n        /* \"#utility.yul\":21014:21018   */\n      0x20\n        /* \"#utility.yul\":21009:21012   */\n      dup7\n        /* \"#utility.yul\":21005:21019   */\n      add\n        /* \"#utility.yul\":20998:21036   */\n      mstore\n        /* \"#utility.yul\":21057:21130   */\n      tag_528\n        /* \"#utility.yul\":21125:21129   */\n      dup3\n        /* \"#utility.yul\":21111:21123   */\n      dup3\n        /* \"#utility.yul\":21057:21130   */\n      tag_296\n      jump\t// in\n    tag_528:\n        /* \"#utility.yul\":21049:21130   */\n      swap2\n      pop\n        /* \"#utility.yul\":20899:21141   */\n      pop\n        /* \"#utility.yul\":21158:21162   */\n      dup1\n        /* \"#utility.yul\":21151:21162   */\n      swap2\n      pop\n        /* \"#utility.yul\":20608:21168   */\n      pop\n        /* \"#utility.yul\":20496:21168   */\n      swap3\n      swap2\n      pop\n      pop\n      jump\t// out\n        /* \"#utility.yul\":21174:21426   */\n    tag_316:\n        /* \"#utility.yul\":21291:21301   */\n      0x00\n        /* \"#utility.yul\":21326:21420   */\n      tag_530\n        /* \"#utility.yul\":21416:21419   */\n      dup4\n        /* \"#utility.yul\":21408:21414   */\n      dup4\n        /* \"#utility.yul\":21326:21420   */\n      tag_315\n      jump\t// in\n    tag_530:\n        /* \"#utility.yul\":21312:21420   */\n      swap1\n      pop\n        /* \"#utility.yul\":21174:21426   */\n      swap3\n      swap2\n      pop\n      pop\n      jump\t// out\n        /* \"#utility.yul\":21432:21569   */\n    tag_317:\n        /* \"#utility.yul\":21526:21530   */\n      0x00\n        /* \"#utility.yul\":21558:21562   */\n      0x20\n        /* \"#utility.yul\":21553:21556   */\n      dup3\n        /* \"#utility.yul\":21549:21563   */\n      add\n        /* \"#utility.yul\":21541:21563   */\n      swap1\n      pop\n        /* \"#utility.yul\":21432:21569   */\n      swap2\n      swap1\n      pop\n      jump\t// out\n        /* \"#utility.yul\":21635:22738   */\n    tag_318:\n        /* \"#utility.yul\":21802:21805   */\n      0x00\n        /* \"#utility.yul\":21831:21909   */\n      tag_533\n        /* \"#utility.yul\":21903:21908   */\n      dup3\n        /* \"#utility.yul\":21831:21909   */\n      tag_312\n      jump\t// in\n    tag_533:\n        /* \"#utility.yul\":21925:22035   */\n      tag_534\n        /* \"#utility.yul\":22028:22034   */\n      dup2\n        /* \"#utility.yul\":22023:22026   */\n      dup6\n        /* \"#utility.yul\":21925:22035   */\n      tag_313\n      jump\t// in\n    tag_534:\n        /* \"#utility.yul\":21918:22035   */\n      swap4\n      pop\n        /* \"#utility.yul\":22061:22064   */\n      dup4\n        /* \"#utility.yul\":22106:22110   */\n      0x20\n        /* \"#utility.yul\":22098:22104   */\n      dup3\n        /* \"#utility.yul\":22094:22111   */\n      mul\n        /* \"#utility.yul\":22089:22092   */\n      dup6\n        /* \"#utility.yul\":22085:22112   */\n      add\n        /* \"#utility.yul\":22136:22216   */\n      tag_535\n        /* \"#utility.yul\":22210:22215   */\n      dup6\n        /* \"#utility.yul\":22136:22216   */\n      tag_314\n      jump\t// in\n    tag_535:\n        /* \"#utility.yul\":22239:22246   */\n      dup1\n        /* \"#utility.yul\":22270:22271   */\n      0x00\n        /* \"#utility.yul\":22255:22693   */\n    tag_536:\n        /* \"#utility.yul\":22280:22286   */\n      dup6\n        /* \"#utility.yul\":22277:22278   */\n      dup2\n        /* \"#utility.yul\":22274:22287   */\n      lt\n        /* \"#utility.yul\":22255:22693   */\n      iszero\n      tag_538\n      jumpi\n        /* \"#utility.yul\":22351:22360   */\n      dup5\n        /* \"#utility.yul\":22345:22349   */\n      dup5\n        /* \"#utility.yul\":22341:22361   */\n      sub\n        /* \"#utility.yul\":22336:22339   */\n      dup10\n        /* \"#utility.yul\":22329:22362   */\n      mstore\n        /* \"#utility.yul\":22402:22408   */\n      dup2\n        /* \"#utility.yul\":22396:22409   */\n      mload\n        /* \"#utility.yul\":22430:22542   */\n      tag_539\n        /* \"#utility.yul\":22537:22541   */\n      dup6\n        /* \"#utility.yul\":22522:22535   */\n      dup3\n        /* \"#utility.yul\":22430:22542   */\n      tag_316\n      jump\t// in\n    tag_539:\n        /* \"#utility.yul\":22422:22542   */\n      swap5\n      pop\n        /* \"#utility.yul\":22565:22649   */\n      tag_540\n        /* \"#utility.yul\":22642:22648   */\n      dup4\n        /* \"#utility.yul\":22565:22649   */\n      tag_317\n      jump\t// in\n    tag_540:\n        /* \"#utility.yul\":22555:22649   */\n      swap3\n      pop\n        /* \"#utility.yul\":22678:22682   */\n      0x20\n        /* \"#utility.yul\":22673:22676   */\n      dup11\n        /* \"#utility.yul\":22669:22683   */\n      add\n        /* \"#utility.yul\":22662:22683   */\n      swap10\n      pop\n        /* \"#utility.yul\":22315:22693   */\n      pop\n        /* \"#utility.yul\":22302:22303   */\n      0x01\n        /* \"#utility.yul\":22299:22300   */\n      dup2\n        /* \"#utility.yul\":22295:22304   */\n      add\n        /* \"#utility.yul\":22290:22304   */\n      swap1\n      pop\n        /* \"#utility.yul\":22255:22693   */\n      jump(tag_536)\n    tag_538:\n        /* \"#utility.yul\":22259:22273   */\n      pop\n        /* \"#utility.yul\":22709:22713   */\n      dup3\n        /* \"#utility.yul\":22702:22713   */\n      swap8\n      pop\n        /* \"#utility.yul\":22729:22732   */\n      dup8\n        /* \"#utility.yul\":22722:22732   */\n      swap6\n      pop\n        /* \"#utility.yul\":21807:22738   */\n      pop\n      pop\n      pop\n      pop\n      pop\n        /* \"#utility.yul\":21635:22738   */\n      swap3\n      swap2\n      pop\n      pop\n      jump\t// out\n        /* \"#utility.yul\":22744:23213   */\n    tag_86:\n        /* \"#utility.yul\":22935:22939   */\n      0x00\n        /* \"#utility.yul\":22973:22975   */\n      0x20\n        /* \"#utility.yul\":22962:22971   */\n      dup3\n        /* \"#utility.yul\":22958:22976   */\n      add\n        /* \"#utility.yul\":22950:22976   */\n      swap1\n      pop\n        /* \"#utility.yul\":23022:23031   */\n      dup2\n        /* \"#utility.yul\":23016:23020   */\n      dup2\n        /* \"#utility.yul\":23012:23032   */\n      sub\n        /* \"#utility.yul\":23008:23009   */\n      0x00\n        /* \"#utility.yul\":22997:23006   */\n      dup4\n        /* \"#utility.yul\":22993:23010   */\n      add\n        /* \"#utility.yul\":22986:23033   */\n      mstore\n        /* \"#utility.yul\":23050:23206   */\n      tag_542\n        /* \"#utility.yul\":23201:23205   */\n      dup2\n        /* \"#utility.yul\":23192:23198   */\n      dup5\n        /* \"#utility.yul\":23050:23206   */\n      tag_318\n      jump\t// in\n    tag_542:\n        /* \"#utility.yul\":23042:23206   */\n      swap1\n      pop\n        /* \"#utility.yul\":22744:23213   */\n      swap3\n      swap2\n      pop\n      pop\n      jump\t// out\n        /* \"#utility.yul\":23219:23363   */\n    tag_319:\n        /* \"#utility.yul\":23316:23322   */\n      0x00\n        /* \"#utility.yul\":23350:23355   */\n      dup2\n        /* \"#utility.yul\":23344:23356   */\n      mload\n        /* \"#utility.yul\":23334:23356   */\n      swap1\n      pop\n        /* \"#utility.yul\":23219:23363   */\n      swap2\n      swap1\n      pop\n      jump\t// out\n        /* \"#utility.yul\":23369:23583   */\n    tag_320:\n        /* \"#utility.yul\":23498:23509   */\n      0x00\n        /* \"#utility.yul\":23532:23538   */\n      dup3\n        /* \"#utility.yul\":23527:23530   */\n      dup3\n        /* \"#utility.yul\":23520:23539   */\n      mstore\n        /* \"#utility.yul\":23572:23576   */\n      0x20\n        /* \"#utility.yul\":23567:23570   */\n      dup3\n        /* \"#utility.yul\":23563:23577   */\n      add\n        /* \"#utility.yul\":23548:23577   */\n      swap1\n      pop\n        /* \"#utility.yul\":23369:23583   */\n      swap3\n      swap2\n      pop\n      pop\n      jump\t// out\n        /* \"#utility.yul\":23589:23751   */\n    tag_321:\n        /* \"#utility.yul\":23686:23690   */\n      0x00\n        /* \"#utility.yul\":23709:23712   */\n      dup2\n        /* \"#utility.yul\":23701:23712   */\n      swap1\n      pop\n        /* \"#utility.yul\":23739:23743   */\n      0x20\n        /* \"#utility.yul\":23734:23737   */\n      dup3\n        /* \"#utility.yul\":23730:23744   */\n      add\n        /* \"#utility.yul\":23722:23744   */\n      swap1\n      pop\n        /* \"#utility.yul\":23589:23751   */\n      swap2\n      swap1\n      pop\n      jump\t// out\n        /* \"#utility.yul\":23757:23865   */\n    tag_322:\n        /* \"#utility.yul\":23834:23858   */\n      tag_547\n        /* \"#utility.yul\":23852:23857   */\n      dup2\n        /* \"#utility.yul\":23834:23858   */\n      tag_289\n      jump\t// in\n    tag_547:\n        /* \"#utility.yul\":23829:23832   */\n      dup3\n        /* \"#utility.yul\":23822:23859   */\n      mstore\n        /* \"#utility.yul\":23757:23865   */\n      pop\n      pop\n      jump\t// out\n        /* \"#utility.yul\":23937:25150   */\n    tag_323:\n        /* \"#utility.yul\":24056:24059   */\n      0x00\n        /* \"#utility.yul\":24092:24096   */\n      0xa0\n        /* \"#utility.yul\":24087:24090   */\n      dup4\n        /* \"#utility.yul\":24083:24097   */\n      add\n        /* \"#utility.yul\":24177:24181   */\n      0x00\n        /* \"#utility.yul\":24170:24175   */\n      dup4\n        /* \"#utility.yul\":24166:24182   */\n      add\n        /* \"#utility.yul\":24160:24183   */\n      mload\n        /* \"#utility.yul\":24196:24259   */\n      tag_549\n        /* \"#utility.yul\":24253:24257   */\n      0x00\n        /* \"#utility.yul\":24248:24251   */\n      dup7\n        /* \"#utility.yul\":24244:24258   */\n      add\n        /* \"#utility.yul\":24230:24242   */\n      dup3\n        /* \"#utility.yul\":24196:24259   */\n      tag_294\n      jump\t// in\n    tag_549:\n        /* \"#utility.yul\":24107:24269   */\n      pop\n        /* \"#utility.yul\":24351:24355   */\n      0x20\n        /* \"#utility.yul\":24344:24349   */\n      dup4\n        /* \"#utility.yul\":24340:24356   */\n      add\n        /* \"#utility.yul\":24334:24357   */\n      mload\n        /* \"#utility.yul\":24404:24407   */\n      dup5\n        /* \"#utility.yul\":24398:24402   */\n      dup3\n        /* \"#utility.yul\":24394:24408   */\n      sub\n        /* \"#utility.yul\":24387:24391   */\n      0x20\n        /* \"#utility.yul\":24382:24385   */\n      dup7\n        /* \"#utility.yul\":24378:24392   */\n      add\n        /* \"#utility.yul\":24371:24409   */\n      mstore\n        /* \"#utility.yul\":24430:24503   */\n      tag_550\n        /* \"#utility.yul\":24498:24502   */\n      dup3\n        /* \"#utility.yul\":24484:24496   */\n      dup3\n        /* \"#utility.yul\":24430:24503   */\n      tag_296\n      jump\t// in\n    tag_550:\n        /* \"#utility.yul\":24422:24503   */\n      swap2\n      pop\n        /* \"#utility.yul\":24279:24514   */\n      pop\n        /* \"#utility.yul\":24605:24609   */\n      0x40\n        /* \"#utility.yul\":24598:24603   */\n      dup4\n        /* \"#utility.yul\":24594:24610   */\n      add\n        /* \"#utility.yul\":24588:24611   */\n      mload\n        /* \"#utility.yul\":24658:24661   */\n      dup5\n        /* \"#utility.yul\":24652:24656   */\n      dup3\n        /* \"#utility.yul\":24648:24662   */\n      sub\n        /* \"#utility.yul\":24641:24645   */\n      0x40\n        /* \"#utility.yul\":24636:24639   */\n      dup7\n        /* \"#utility.yul\":24632:24646   */\n      add\n        /* \"#utility.yul\":24625:24663   */\n      mstore\n        /* \"#utility.yul\":24684:24757   */\n      tag_551\n        /* \"#utility.yul\":24752:24756   */\n      dup3\n        /* \"#utility.yul\":24738:24750   */\n      dup3\n        /* \"#utility.yul\":24684:24757   */\n      tag_296\n      jump\t// in\n    tag_551:\n        /* \"#utility.yul\":24676:24757   */\n      swap2\n      pop\n        /* \"#utility.yul\":24524:24768   */\n      pop\n        /* \"#utility.yul\":24852:24856   */\n      0x60\n        /* \"#utility.yul\":24845:24850   */\n      dup4\n        /* \"#utility.yul\":24841:24857   */\n      add\n        /* \"#utility.yul\":24835:24858   */\n      mload\n        /* \"#utility.yul\":24871:24934   */\n      tag_552\n        /* \"#utility.yul\":24928:24932   */\n      0x60\n        /* \"#utility.yul\":24923:24926   */\n      dup7\n        /* \"#utility.yul\":24919:24933   */\n      add\n        /* \"#utility.yul\":24905:24917   */\n      dup3\n        /* \"#utility.yul\":24871:24934   */\n      tag_322\n      jump\t// in\n    tag_552:\n        /* \"#utility.yul\":24778:24944   */\n      pop\n        /* \"#utility.yul\":25031:25035   */\n      0x80\n        /* \"#utility.yul\":25024:25029   */\n      dup4\n        /* \"#utility.yul\":25020:25036   */\n      add\n        /* \"#utility.yul\":25014:25037   */\n      mload\n        /* \"#utility.yul\":25050:25113   */\n      tag_553\n        /* \"#utility.yul\":25107:25111   */\n      0x80\n        /* \"#utility.yul\":25102:25105   */\n      dup7\n        /* \"#utility.yul\":25098:25112   */\n      add\n        /* \"#utility.yul\":25084:25096   */\n      dup3\n        /* \"#utility.yul\":25050:25113   */\n      tag_294\n      jump\t// in\n    tag_553:\n        /* \"#utility.yul\":24954:25123   */\n      pop\n        /* \"#utility.yul\":25140:25144   */\n      dup1\n        /* \"#utility.yul\":25133:25144   */\n      swap2\n      pop\n        /* \"#utility.yul\":24061:25150   */\n      pop\n        /* \"#utility.yul\":23937:25150   */\n      swap3\n      swap2\n      pop\n      pop\n      jump\t// out\n        /* \"#utility.yul\":25156:25432   */\n    tag_324:\n        /* \"#utility.yul\":25285:25295   */\n      0x00\n        /* \"#utility.yul\":25320:25426   */\n      tag_555\n        /* \"#utility.yul\":25422:25425   */\n      dup4\n        /* \"#utility.yul\":25414:25420   */\n      dup4\n        /* \"#utility.yul\":25320:25426   */\n      tag_323\n      jump\t// in\n    tag_555:\n        /* \"#utility.yul\":25306:25426   */\n      swap1\n      pop\n        /* \"#utility.yul\":25156:25432   */\n      swap3\n      swap2\n      pop\n      pop\n      jump\t// out\n        /* \"#utility.yul\":25438:25581   */\n    tag_325:\n        /* \"#utility.yul\":25538:25542   */\n      0x00\n        /* \"#utility.yul\":25570:25574   */\n      0x20\n        /* \"#utility.yul\":25565:25568   */\n      dup3\n        /* \"#utility.yul\":25561:25575   */\n      add\n        /* \"#utility.yul\":25553:25575   */\n      swap1\n      pop\n        /* \"#utility.yul\":25438:25581   */\n      swap2\n      swap1\n      pop\n      jump\t// out\n        /* \"#utility.yul\":25657:26808   */\n    tag_326:\n        /* \"#utility.yul\":25836:25839   */\n      0x00\n        /* \"#utility.yul\":25865:25949   */\n      tag_558\n        /* \"#utility.yul\":25943:25948   */\n      dup3\n        /* \"#utility.yul\":25865:25949   */\n      tag_319\n      jump\t// in\n    tag_558:\n        /* \"#utility.yul\":25965:26081   */\n      tag_559\n        /* \"#utility.yul\":26074:26080   */\n      dup2\n        /* \"#utility.yul\":26069:26072   */\n      dup6\n        /* \"#utility.yul\":25965:26081   */\n      tag_320\n      jump\t// in\n    tag_559:\n        /* \"#utility.yul\":25958:26081   */\n      swap4\n      pop\n        /* \"#utility.yul\":26107:26110   */\n      dup4\n        /* \"#utility.yul\":26152:26156   */\n      0x20\n        /* \"#utility.yul\":26144:26150   */\n      dup3\n        /* \"#utility.yul\":26140:26157   */\n      mul\n        /* \"#utility.yul\":26135:26138   */\n      dup6\n        /* \"#utility.yul\":26131:26158   */\n      add\n        /* \"#utility.yul\":26182:26268   */\n      tag_560\n        /* \"#utility.yul\":26262:26267   */\n      dup6\n        /* \"#utility.yul\":26182:26268   */\n      tag_321\n      jump\t// in\n    tag_560:\n        /* \"#utility.yul\":26291:26298   */\n      dup1\n        /* \"#utility.yul\":26322:26323   */\n      0x00\n        /* \"#utility.yul\":26307:26763   */\n    tag_561:\n        /* \"#utility.yul\":26332:26338   */\n      dup6\n        /* \"#utility.yul\":26329:26330   */\n      dup2\n        /* \"#utility.yul\":26326:26339   */\n      lt\n        /* \"#utility.yul\":26307:26763   */\n      iszero\n      tag_563\n      jumpi\n        /* \"#utility.yul\":26403:26412   */\n      dup5\n        /* \"#utility.yul\":26397:26401   */\n      dup5\n        /* \"#utility.yul\":26393:26413   */\n      sub\n        /* \"#utility.yul\":26388:26391   */\n      dup10\n        /* \"#utility.yul\":26381:26414   */\n      mstore\n        /* \"#utility.yul\":26454:26460   */\n      dup2\n        /* \"#utility.yul\":26448:26461   */\n      mload\n        /* \"#utility.yul\":26482:26606   */\n      tag_564\n        /* \"#utility.yul\":26601:26605   */\n      dup6\n        /* \"#utility.yul\":26586:26599   */\n      dup3\n        /* \"#utility.yul\":26482:26606   */\n      tag_324\n      jump\t// in\n    tag_564:\n        /* \"#utility.yul\":26474:26606   */\n      swap5\n      pop\n        /* \"#utility.yul\":26629:26719   */\n      tag_565\n        /* \"#utility.yul\":26712:26718   */\n      dup4\n        /* \"#utility.yul\":26629:26719   */\n      tag_325\n      jump\t// in\n    tag_565:\n        /* \"#utility.yul\":26619:26719   */\n      swap3\n      pop\n        /* \"#utility.yul\":26748:26752   */\n      0x20\n        /* \"#utility.yul\":26743:26746   */\n      dup11\n        /* \"#utility.yul\":26739:26753   */\n      add\n        /* \"#utility.yul\":26732:26753   */\n      swap10\n      pop\n        /* \"#utility.yul\":26367:26763   */\n      pop\n        /* \"#utility.yul\":26354:26355   */\n      0x01\n        /* \"#utility.yul\":26351:26352   */\n      dup2\n        /* \"#utility.yul\":26347:26356   */\n      add\n        /* \"#utility.yul\":26342:26356   */\n      swap1\n      pop\n        /* \"#utility.yul\":26307:26763   */\n      jump(tag_561)\n    tag_563:\n        /* \"#utility.yul\":26311:26325   */\n      pop\n        /* \"#utility.yul\":26779:26783   */\n      dup3\n        /* \"#utility.yul\":26772:26783   */\n      swap8\n      pop\n        /* \"#utility.yul\":26799:26802   */\n      dup8\n        /* \"#utility.yul\":26792:26802   */\n      swap6\n      pop\n        /* \"#utility.yul\":25841:26808   */\n      pop\n      pop\n      pop\n      pop\n      pop\n        /* \"#utility.yul\":25657:26808   */\n      swap3\n      swap2\n      pop\n      pop\n      jump\t// out\n        /* \"#utility.yul\":26814:27307   */\n    tag_90:\n        /* \"#utility.yul\":27017:27021   */\n      0x00\n        /* \"#utility.yul\":27055:27057   */\n      0x20\n        /* \"#utility.yul\":27044:27053   */\n      dup3\n        /* \"#utility.yul\":27040:27058   */\n      add\n        /* \"#utility.yul\":27032:27058   */\n      swap1\n      pop\n        /* \"#utility.yul\":27104:27113   */\n      dup2\n        /* \"#utility.yul\":27098:27102   */\n      dup2\n        /* \"#utility.yul\":27094:27114   */\n      sub\n        /* \"#utility.yul\":27090:27091   */\n      0x00\n        /* \"#utility.yul\":27079:27088   */\n      dup4\n        /* \"#utility.yul\":27075:27092   */\n      add\n        /* \"#utility.yul\":27068:27115   */\n      mstore\n        /* \"#utility.yul\":27132:27300   */\n      tag_567\n        /* \"#utility.yul\":27295:27299   */\n      dup2\n        /* \"#utility.yul\":27286:27292   */\n      dup5\n        /* \"#utility.yul\":27132:27300   */\n      tag_326\n      jump\t// in\n    tag_567:\n        /* \"#utility.yul\":27124:27300   */\n      swap1\n      pop\n        /* \"#utility.yul\":26814:27307   */\n      swap3\n      swap2\n      pop\n      pop\n      jump\t// out\n        /* \"#utility.yul\":27313:28438   */\n    tag_93:\n        /* \"#utility.yul\":27419:27425   */\n      0x00\n        /* \"#utility.yul\":27427:27433   */\n      dup1\n        /* \"#utility.yul\":27435:27441   */\n      0x00\n        /* \"#utility.yul\":27443:27449   */\n      dup1\n        /* \"#utility.yul\":27492:27495   */\n      0x80\n        /* \"#utility.yul\":27480:27489   */\n      dup6\n        /* \"#utility.yul\":27471:27478   */\n      dup8\n        /* \"#utility.yul\":27467:27490   */\n      sub\n        /* \"#utility.yul\":27463:27496   */\n      slt\n        /* \"#utility.yul\":27460:27580   */\n      iszero\n      tag_569\n      jumpi\n        /* \"#utility.yul\":27499:27578   */\n      tag_570\n      tag_269\n      jump\t// in\n    tag_570:\n        /* \"#utility.yul\":27460:27580   */\n    tag_569:\n        /* \"#utility.yul\":27647:27648   */\n      0x00\n        /* \"#utility.yul\":27636:27645   */\n      dup6\n        /* \"#utility.yul\":27632:27649   */\n      add\n        /* \"#utility.yul\":27619:27650   */\n      calldataload\n        /* \"#utility.yul\":27677:27695   */\n      0xffffffffffffffff\n        /* \"#utility.yul\":27669:27675   */\n      dup2\n        /* \"#utility.yul\":27666:27696   */\n      gt\n        /* \"#utility.yul\":27663:27780   */\n      iszero\n      tag_571\n      jumpi\n        /* \"#utility.yul\":27699:27778   */\n      tag_572\n      tag_270\n      jump\t// in\n    tag_572:\n        /* \"#utility.yul\":27663:27780   */\n    tag_571:\n        /* \"#utility.yul\":27804:27867   */\n      tag_573\n        /* \"#utility.yul\":27859:27866   */\n      dup8\n        /* \"#utility.yul\":27850:27856   */\n      dup3\n        /* \"#utility.yul\":27839:27848   */\n      dup9\n        /* \"#utility.yul\":27835:27857   */\n      add\n        /* \"#utility.yul\":27804:27867   */\n      tag_279\n      jump\t// in\n    tag_573:\n        /* \"#utility.yul\":27794:27867   */\n      swap5\n      pop\n        /* \"#utility.yul\":27590:27877   */\n      pop\n        /* \"#utility.yul\":27944:27946   */\n      0x20\n        /* \"#utility.yul\":27933:27942   */\n      dup6\n        /* \"#utility.yul\":27929:27947   */\n      add\n        /* \"#utility.yul\":27916:27948   */\n      calldataload\n        /* \"#utility.yul\":27975:27993   */\n      0xffffffffffffffff\n        /* \"#utility.yul\":27967:27973   */\n      dup2\n        /* \"#utility.yul\":27964:27994   */\n      gt\n        /* \"#utility.yul\":27961:28078   */\n      iszero\n      tag_574\n      jumpi\n        /* \"#utility.yul\":27997:28076   */\n      tag_575\n      tag_270\n      jump\t// in\n    tag_575:\n        /* \"#utility.yul\":27961:28078   */\n    tag_574:\n        /* \"#utility.yul\":28102:28165   */\n      tag_576\n        /* \"#utility.yul\":28157:28164   */\n      dup8\n        /* \"#utility.yul\":28148:28154   */\n      dup3\n        /* \"#utility.yul\":28137:28146   */\n      dup9\n        /* \"#utility.yul\":28133:28155   */\n      add\n        /* \"#utility.yul\":28102:28165   */\n      tag_279\n      jump\t// in\n    tag_576:\n        /* \"#utility.yul\":28092:28165   */\n      swap4\n      pop\n        /* \"#utility.yul\":27887:28175   */\n      pop\n        /* \"#utility.yul\":28214:28216   */\n      0x40\n        /* \"#utility.yul\":28240:28293   */\n      tag_577\n        /* \"#utility.yul\":28285:28292   */\n      dup8\n        /* \"#utility.yul\":28276:28282   */\n      dup3\n        /* \"#utility.yul\":28265:28274   */\n      dup9\n        /* \"#utility.yul\":28261:28283   */\n      add\n        /* \"#utility.yul\":28240:28293   */\n      tag_282\n      jump\t// in\n    tag_577:\n        /* \"#utility.yul\":28230:28293   */\n      swap3\n      pop\n        /* \"#utility.yul\":28185:28303   */\n      pop\n        /* \"#utility.yul\":28342:28344   */\n      0x60\n        /* \"#utility.yul\":28368:28421   */\n      tag_578\n        /* \"#utility.yul\":28413:28420   */\n      dup8\n        /* \"#utility.yul\":28404:28410   */\n      dup3\n        /* \"#utility.yul\":28393:28402   */\n      dup9\n        /* \"#utility.yul\":28389:28411   */\n      add\n        /* \"#utility.yul\":28368:28421   */\n      tag_302\n      jump\t// in\n    tag_578:\n        /* \"#utility.yul\":28358:28421   */\n      swap2\n      pop\n        /* \"#utility.yul\":28313:28431   */\n      pop\n        /* \"#utility.yul\":27313:28438   */\n      swap3\n      swap6\n      swap2\n      swap5\n      pop\n      swap3\n      pop\n      jump\t// out\n        /* \"#utility.yul\":28444:28624   */\n    tag_327:\n        /* \"#utility.yul\":28492:28569   */\n      0x4e487b7100000000000000000000000000000000000000000000000000000000\n        /* \"#utility.yul\":28489:28490   */\n      0x00\n        /* \"#utility.yul\":28482:28570   */\n      mstore\n        /* \"#utility.yul\":28589:28593   */\n      0x11\n        /* \"#utility.yul\":28586:28587   */\n      0x04\n        /* \"#utility.yul\":28579:28594   */\n      mstore\n        /* \"#utility.yul\":28613:28617   */\n      0x24\n        /* \"#utility.yul\":28610:28611   */\n      0x00\n        /* \"#utility.yul\":28603:28618   */\n      revert\n        /* \"#utility.yul\":28630:28863   */\n    tag_97:\n        /* \"#utility.yul\":28669:28672   */\n      0x00\n        /* \"#utility.yul\":28692:28716   */\n      tag_581\n        /* \"#utility.yul\":28710:28715   */\n      dup3\n        /* \"#utility.yul\":28692:28716   */\n      tag_280\n      jump\t// in\n    tag_581:\n        /* \"#utility.yul\":28683:28716   */\n      swap2\n      pop\n        /* \"#utility.yul\":28738:28804   */\n      0xffffffffffffffffffffffffffffffffffffffffffffffffffffffffffffffff\n        /* \"#utility.yul\":28731:28736   */\n      dup3\n        /* \"#utility.yul\":28728:28805   */\n      sub\n        /* \"#utility.yul\":28725:28828   */\n      tag_582\n      jumpi\n        /* \"#utility.yul\":28808:28826   */\n      tag_583\n      tag_327\n      jump\t// in\n    tag_583:\n        /* \"#utility.yul\":28725:28828   */\n    tag_582:\n        /* \"#utility.yul\":28855:28856   */\n      0x01\n        /* \"#utility.yul\":28848:28853   */\n      dup3\n        /* \"#utility.yul\":28844:28857   */\n      add\n        /* \"#utility.yul\":28837:28857   */\n      swap1\n      pop\n        /* \"#utility.yul\":28630:28863   */\n      swap2\n      swap1\n      pop\n      jump\t// out\n        /* \"#utility.yul\":28869:29049   */\n    tag_328:\n        /* \"#utility.yul\":28917:28994   */\n      0x4e487b7100000000000000000000000000000000000000000000000000000000\n        /* \"#utility.yul\":28914:28915   */\n      0x00\n        /* \"#utility.yul\":28907:28995   */\n      mstore\n        /* \"#utility.yul\":29014:29018   */\n      0x22\n        /* \"#utility.yul\":29011:29012   */\n      0x04\n        /* \"#utility.yul\":29004:29019   */\n      mstore\n        /* \"#utility.yul\":29038:29042   */\n      0x24\n        /* \"#utility.yul\":29035:29036   */\n      0x00\n        /* \"#utility.yul\":29028:29043   */\n      revert\n        /* \"#utility.yul\":29055:29375   */\n    tag_107:\n        /* \"#utility.yul\":29099:29105   */\n      0x00\n        /* \"#utility.yul\":29136:29137   */\n      0x02\n        /* \"#utility.yul\":29130:29134   */\n      dup3\n        /* \"#utility.yul\":29126:29138   */\n      div\n        /* \"#utility.yul\":29116:29138   */\n      swap1\n      pop\n        /* \"#utility.yul\":29183:29184   */\n      0x01\n        /* \"#utility.yul\":29177:29181   */\n      dup3\n        /* \"#utility.yul\":29173:29185   */\n      and\n        /* \"#utility.yul\":29204:29222   */\n      dup1\n        /* \"#utility.yul\":29194:29275   */\n      tag_586\n      jumpi\n        /* \"#utility.yul\":29260:29264   */\n      0x7f\n        /* \"#utility.yul\":29252:29258   */\n      dup3\n        /* \"#utility.yul\":29248:29265   */\n      and\n        /* \"#utility.yul\":29238:29265   */\n      swap2\n      pop\n        /* \"#utility.yul\":29194:29275   */\n    tag_586:\n        /* \"#utility.yul\":29322:29324   */\n      0x20\n        /* \"#utility.yul\":29314:29320   */\n      dup3\n        /* \"#utility.yul\":29311:29325   */\n      lt\n        /* \"#utility.yul\":29291:29309   */\n      dup2\n        /* \"#utility.yul\":29288:29326   */\n      sub\n        /* \"#utility.yul\":29285:29369   */\n      tag_587\n      jumpi\n        /* \"#utility.yul\":29341:29359   */\n      tag_588\n      tag_328\n      jump\t// in\n    tag_588:\n        /* \"#utility.yul\":29285:29369   */\n    tag_587:\n        /* \"#utility.yul\":29106:29375   */\n      pop\n        /* \"#utility.yul\":29055:29375   */\n      swap2\n      swap1\n      pop\n      jump\t// out\n        /* \"#utility.yul\":29381:29522   */\n    tag_329:\n        /* \"#utility.yul\":29430:29434   */\n      0x00\n        /* \"#utility.yul\":29453:29456   */\n      dup2\n        /* \"#utility.yul\":29445:29456   */\n      swap1\n      pop\n        /* \"#utility.yul\":29476:29479   */\n      dup2\n        /* \"#utility.yul\":29473:29474   */\n      0x00\n        /* \"#utility.yul\":29466:29480   */\n      mstore\n        /* \"#utility.yul\":29510:29514   */\n      0x20\n        /* \"#utility.yul\":29507:29508   */\n      0x00\n        /* \"#utility.yul\":29497:29515   */\n      keccak256\n        /* \"#utility.yul\":29489:29515   */\n      swap1\n      pop\n        /* \"#utility.yul\":29381:29522   */\n      swap2\n      swap1\n      pop\n      jump\t// out\n        /* \"#utility.yul\":29528:29621   */\n    tag_330:\n        /* \"#utility.yul\":29565:29571   */\n      0x00\n        /* \"#utility.yul\":29612:29614   */\n      0x20\n        /* \"#utility.yul\":29607:29609   */\n      0x1f\n        /* \"#utility.yul\":29600:29605   */\n      dup4\n        /* \"#utility.yul\":29596:29610   */\n      add\n        /* \"#utility.yul\":29592:29615   */\n      div\n        /* \"#utility.yul\":29582:29615   */\n      swap1\n      pop\n        /* \"#utility.yul\":29528:29621   */\n      swap2\n      swap1\n      pop\n      jump\t// out\n        /* \"#utility.yul\":29627:29734   */\n    tag_331:\n        /* \"#utility.yul\":29671:29679   */\n      0x00\n        /* \"#utility.yul\":29721:29726   */\n      dup3\n        /* \"#utility.yul\":29715:29719   */\n      dup3\n        /* \"#utility.yul\":29711:29727   */\n      shl\n        /* \"#utility.yul\":29690:29727   */\n      swap1\n      pop\n        /* \"#utility.yul\":29627:29734   */\n      swap3\n      swap2\n      pop\n      pop\n      jump\t// out\n        /* \"#utility.yul\":29740:30133   */\n    tag_332:\n        /* \"#utility.yul\":29809:29815   */\n      0x00\n        /* \"#utility.yul\":29859:29860   */\n      0x08\n        /* \"#utility.yul\":29847:29857   */\n      dup4\n        /* \"#utility.yul\":29843:29861   */\n      mul\n        /* \"#utility.yul\":29882:29979   */\n      tag_593\n        /* \"#utility.yul\":29912:29978   */\n      0xffffffffffffffffffffffffffffffffffffffffffffffffffffffffffffffff\n        /* \"#utility.yul\":29901:29910   */\n      dup3\n        /* \"#utility.yul\":29882:29979   */\n      tag_331\n      jump\t// in\n    tag_593:\n        /* \"#utility.yul\":30000:30039   */\n      tag_594\n        /* \"#utility.yul\":30030:30038   */\n      dup7\n        /* \"#utility.yul\":30019:30028   */\n      dup4\n        /* \"#utility.yul\":30000:30039   */\n      tag_331\n      jump\t// in\n    tag_594:\n        /* \"#utility.yul\":29988:30039   */\n      swap6\n      pop\n        /* \"#utility.yul\":30072:30076   */\n      dup1\n        /* \"#utility.yul\":30068:30077   */\n      not\n        /* \"#utility.yul\":30061:30066   */\n      dup5\n        /* \"#utility.yul\":30057:30078   */\n      and\n        /* \"#utility.yul\":30048:30078   */\n      swap4\n      pop\n        /* \"#utility.yul\":30121:30125   */\n      dup1\n        /* \"#utility.yul\":30111:30119   */\n      dup7\n        /* \"#utility.yul\":30107:30126   */\n      and\n        /* \"#utility.yul\":30100:30105   */\n      dup5\n        /* \"#utility.yul\":30097:30127   */\n      or\n        /* \"#utility.yul\":30087:30127   */\n      swap3\n      pop\n        /* \"#utility.yul\":29816:30133   */\n      pop\n      pop\n        /* \"#utility.yul\":29740:30133   */\n      swap4\n      swap3\n      pop\n      pop\n      pop\n      jump\t// out\n        /* \"#utility.yul\":30139:30199   */\n    tag_333:\n        /* \"#utility.yul\":30167:30170   */\n      0x00\n        /* \"#utility.yul\":30188:30193   */\n      dup2\n        /* \"#utility.yul\":30181:30193   */\n      swap1\n      pop\n        /* \"#utility.yul\":30139:30199   */\n      swap2\n      swap1\n      pop\n      jump\t// out\n        /* \"#utility.yul\":30205:30347   */\n    tag_334:\n        /* \"#utility.yul\":30255:30264   */\n      0x00\n        /* \"#utility.yul\":30288:30341   */\n      tag_597\n        /* \"#utility.yul\":30306:30340   */\n      tag_598\n        /* \"#utility.yul\":30315:30339   */\n      tag_599\n        /* \"#utility.yul\":30333:30338   */\n      dup5\n        /* \"#utility.yul\":30315:30339   */\n      tag_280\n      jump\t// in\n    tag_599:\n        /* \"#utility.yul\":30306:30340   */\n      tag_333\n      jump\t// in\n    tag_598:\n        /* \"#utility.yul\":30288:30341   */\n      tag_280\n      jump\t// in\n    tag_597:\n        /* \"#utility.yul\":30275:30341   */\n      swap1\n      pop\n        /* \"#utility.yul\":30205:30347   */\n      swap2\n      swap1\n      pop\n      jump\t// out\n        /* \"#utility.yul\":30353:30428   */\n    tag_335:\n        /* \"#utility.yul\":30396:30399   */\n      0x00\n        /* \"#utility.yul\":30417:30422   */\n      dup2\n        /* \"#utility.yul\":30410:30422   */\n      swap1\n      pop\n        /* \"#utility.yul\":30353:30428   */\n      swap2\n      swap1\n      pop\n      jump\t// out\n        /* \"#utility.yul\":30434:30703   */\n    tag_336:\n        /* \"#utility.yul\":30544:30583   */\n      tag_602\n        /* \"#utility.yul\":30575:30582   */\n      dup4\n        /* \"#utility.yul\":30544:30583   */\n      tag_334\n      jump\t// in\n    tag_602:\n        /* \"#utility.yul\":30605:30696   */\n      tag_603\n        /* \"#utility.yul\":30654:30695   */\n      tag_604\n        /* \"#utility.yul\":30678:30694   */\n      dup3\n        /* \"#utility.yul\":30654:30695   */\n      tag_335\n      jump\t// in\n    tag_604:\n        /* \"#utility.yul\":30646:30652   */\n      dup5\n        /* \"#utility.yul\":30639:30643   */\n      dup5\n        /* \"#utility.yul\":30633:30644   */\n      sload\n        /* \"#utility.yul\":30605:30696   */\n      tag_332\n      jump\t// in\n    tag_603:\n        /* \"#utility.yul\":30599:30603   */\n      dup3\n        /* \"#utility.yul\":30592:30697   */\n      sstore\n        /* \"#utility.yul\":30510:30703   */\n      pop\n        /* \"#utility.yul\":30434:30703   */\n      pop\n      pop\n      pop\n      jump\t// out\n        /* \"#utility.yul\":30709:30782   */\n    tag_337:\n        /* \"#utility.yul\":30754:30757   */\n      0x00\n        /* \"#utility.yul\":30709:30782   */\n      swap1\n      jump\t// out\n        /* \"#utility.yul\":30788:30977   */\n    tag_338:\n        /* \"#utility.yul\":30865:30897   */\n      tag_607\n      tag_337\n      jump\t// in\n    tag_607:\n        /* \"#utility.yul\":30906:30971   */\n      tag_608\n        /* \"#utility.yul\":30964:30970   */\n      dup2\n        /* \"#utility.yul\":30956:30962   */\n      dup5\n        /* \"#utility.yul\":30950:30954   */\n      dup5\n        /* \"#utility.yul\":30906:30971   */\n      tag_336\n      jump\t// in\n    tag_608:\n        /* \"#utility.yul\":30841:30977   */\n      pop\n        /* \"#utility.yul\":30788:30977   */\n      pop\n      pop\n      jump\t// out\n        /* \"#utility.yul\":30983:31169   */\n    tag_339:\n        /* \"#utility.yul\":31043:31163   */\n    tag_610:\n        /* \"#utility.yul\":31060:31063   */\n      dup2\n        /* \"#utility.yul\":31053:31058   */\n      dup2\n        /* \"#utility.yul\":31050:31064   */\n      lt\n        /* \"#utility.yul\":31043:31163   */\n      iszero\n      tag_612\n      jumpi\n        /* \"#utility.yul\":31114:31153   */\n      tag_613\n        /* \"#utility.yul\":31151:31152   */\n      0x00\n        /* \"#utility.yul\":31144:31149   */\n      dup3\n        /* \"#utility.yul\":31114:31153   */\n      tag_338\n      jump\t// in\n    tag_613:\n        /* \"#utility.yul\":31087:31088   */\n      0x01\n        /* \"#utility.yul\":31080:31085   */\n      dup2\n        /* \"#utility.yul\":31076:31089   */\n      add\n        /* \"#utility.yul\":31067:31089   */\n      swap1\n      pop\n        /* \"#utility.yul\":31043:31163   */\n      jump(tag_610)\n    tag_612:\n        /* \"#utility.yul\":30983:31169   */\n      pop\n      pop\n      jump\t// out\n        /* \"#utility.yul\":31175:31718   */\n    tag_340:\n        /* \"#utility.yul\":31276:31278   */\n      0x1f\n        /* \"#utility.yul\":31271:31274   */\n      dup3\n        /* \"#utility.yul\":31268:31279   */\n      gt\n        /* \"#utility.yul\":31265:31711   */\n      iszero\n      tag_615\n      jumpi\n        /* \"#utility.yul\":31310:31348   */\n      tag_616\n        /* \"#utility.yul\":31342:31347   */\n      dup2\n        /* \"#utility.yul\":31310:31348   */\n      tag_329\n      jump\t// in\n    tag_616:\n        /* \"#utility.yul\":31394:31423   */\n      tag_617\n        /* \"#utility.yul\":31412:31422   */\n      dup5\n        /* \"#utility.yul\":31394:31423   */\n      tag_330\n      jump\t// in\n    tag_617:\n        /* \"#utility.yul\":31384:31392   */\n      dup2\n        /* \"#utility.yul\":31380:31424   */\n      add\n        /* \"#utility.yul\":31577:31579   */\n      0x20\n        /* \"#utility.yul\":31565:31575   */\n      dup6\n        /* \"#utility.yul\":31562:31580   */\n      lt\n        /* \"#utility.yul\":31559:31608   */\n      iszero\n      tag_618\n      jumpi\n        /* \"#utility.yul\":31598:31606   */\n      dup2\n        /* \"#utility.yul\":31583:31606   */\n      swap1\n      pop\n        /* \"#utility.yul\":31559:31608   */\n    tag_618:\n        /* \"#utility.yul\":31621:31701   */\n      tag_619\n        /* \"#utility.yul\":31677:31699   */\n      tag_620\n        /* \"#utility.yul\":31695:31698   */\n      dup6\n        /* \"#utility.yul\":31677:31699   */\n      tag_330\n      jump\t// in\n    tag_620:\n        /* \"#utility.yul\":31667:31675   */\n      dup4\n        /* \"#utility.yul\":31663:31700   */\n      add\n        /* \"#utility.yul\":31650:31661   */\n      dup3\n        /* \"#utility.yul\":31621:31701   */\n      tag_339\n      jump\t// in\n    tag_619:\n        /* \"#utility.yul\":31280:31711   */\n      pop\n      pop\n        /* \"#utility.yul\":31265:31711   */\n    tag_615:\n        /* \"#utility.yul\":31175:31718   */\n      pop\n      pop\n      pop\n      jump\t// out\n        /* \"#utility.yul\":31724:31841   */\n    tag_341:\n        /* \"#utility.yul\":31778:31786   */\n      0x00\n        /* \"#utility.yul\":31828:31833   */\n      dup3\n        /* \"#utility.yul\":31822:31826   */\n      dup3\n        /* \"#utility.yul\":31818:31834   */\n      shr\n        /* \"#utility.yul\":31797:31834   */\n      swap1\n      pop\n        /* \"#utility.yul\":31724:31841   */\n      swap3\n      swap2\n      pop\n      pop\n      jump\t// out\n        /* \"#utility.yul\":31847:32016   */\n    tag_342:\n        /* \"#utility.yul\":31891:31897   */\n      0x00\n        /* \"#utility.yul\":31924:31975   */\n      tag_623\n        /* \"#utility.yul\":31972:31973   */\n      0x00\n        /* \"#utility.yul\":31968:31974   */\n      not\n        /* \"#utility.yul\":31960:31965   */\n      dup5\n        /* \"#utility.yul\":31957:31958   */\n      0x08\n        /* \"#utility.yul\":31953:31966   */\n      mul\n        /* \"#utility.yul\":31924:31975   */\n      tag_341\n      jump\t// in\n    tag_623:\n        /* \"#utility.yul\":31920:31976   */\n      not\n        /* \"#utility.yul\":32005:32009   */\n      dup1\n        /* \"#utility.yul\":31999:32003   */\n      dup4\n        /* \"#utility.yul\":31995:32010   */\n      and\n        /* \"#utility.yul\":31985:32010   */\n      swap2\n      pop\n        /* \"#utility.yul\":31898:32016   */\n      pop\n        /* \"#utility.yul\":31847:32016   */\n      swap3\n      swap2\n      pop\n      pop\n      jump\t// out\n        /* \"#utility.yul\":32021:32316   */\n    tag_343:\n        /* \"#utility.yul\":32097:32101   */\n      0x00\n        /* \"#utility.yul\":32243:32272   */\n      tag_625\n        /* \"#utility.yul\":32268:32271   */\n      dup4\n        /* \"#utility.yul\":32262:32266   */\n      dup4\n        /* \"#utility.yul\":32243:32272   */\n      tag_342\n      jump\t// in\n    tag_625:\n        /* \"#utility.yul\":32235:32272   */\n      swap2\n      pop\n        /* \"#utility.yul\":32305:32308   */\n      dup3\n        /* \"#utility.yul\":32302:32303   */\n      0x02\n        /* \"#utility.yul\":32298:32309   */\n      mul\n        /* \"#utility.yul\":32292:32296   */\n      dup3\n        /* \"#utility.yul\":32289:32310   */\n      or\n        /* \"#utility.yul\":32281:32310   */\n      swap1\n      pop\n        /* \"#utility.yul\":32021:32316   */\n      swap3\n      swap2\n      pop\n      pop\n      jump\t// out\n        /* \"#utility.yul\":32321:33716   */\n    tag_100:\n        /* \"#utility.yul\":32438:32475   */\n      tag_627\n        /* \"#utility.yul\":32471:32474   */\n      dup3\n        /* \"#utility.yul\":32438:32475   */\n      tag_284\n      jump\t// in\n    tag_627:\n        /* \"#utility.yul\":32540:32558   */\n      0xffffffffffffffff\n        /* \"#utility.yul\":32532:32538   */\n      dup2\n        /* \"#utility.yul\":32529:32559   */\n      gt\n        /* \"#utility.yul\":32526:32582   */\n      iszero\n      tag_628\n      jumpi\n        /* \"#utility.yul\":32562:32580   */\n      tag_629\n      tag_235\n      jump\t// in\n    tag_629:\n        /* \"#utility.yul\":32526:32582   */\n    tag_628:\n        /* \"#utility.yul\":32606:32644   */\n      tag_630\n        /* \"#utility.yul\":32638:32642   */\n      dup3\n        /* \"#utility.yul\":32632:32643   */\n      sload\n        /* \"#utility.yul\":32606:32644   */\n      tag_107\n      jump\t// in\n    tag_630:\n        /* \"#utility.yul\":32691:32758   */\n      tag_631\n        /* \"#utility.yul\":32751:32757   */\n      dup3\n        /* \"#utility.yul\":32743:32749   */\n      dup3\n        /* \"#utility.yul\":32737:32741   */\n      dup6\n        /* \"#utility.yul\":32691:32758   */\n      tag_340\n      jump\t// in\n    tag_631:\n        /* \"#utility.yul\":32785:32786   */\n      0x00\n        /* \"#utility.yul\":32809:32813   */\n      0x20\n        /* \"#utility.yul\":32796:32813   */\n      swap1\n      pop\n        /* \"#utility.yul\":32841:32843   */\n      0x1f\n        /* \"#utility.yul\":32833:32839   */\n      dup4\n        /* \"#utility.yul\":32830:32844   */\n      gt\n        /* \"#utility.yul\":32858:32859   */\n      0x01\n        /* \"#utility.yul\":32853:33471   */\n      dup2\n      eq\n      tag_633\n      jumpi\n        /* \"#utility.yul\":33515:33516   */\n      0x00\n        /* \"#utility.yul\":33532:33538   */\n      dup5\n        /* \"#utility.yul\":33529:33606   */\n      iszero\n      tag_634\n      jumpi\n        /* \"#utility.yul\":33581:33590   */\n      dup3\n        /* \"#utility.yul\":33576:33579   */\n      dup8\n        /* \"#utility.yul\":33572:33591   */\n      add\n        /* \"#utility.yul\":33566:33592   */\n      mload\n        /* \"#utility.yul\":33557:33592   */\n      swap1\n      pop\n        /* \"#utility.yul\":33529:33606   */\n    tag_634:\n        /* \"#utility.yul\":33632:33699   */\n      tag_635\n        /* \"#utility.yul\":33692:33698   */\n      dup6\n        /* \"#utility.yul\":33685:33690   */\n      dup3\n        /* \"#utility.yul\":33632:33699   */\n      tag_343\n      jump\t// in\n    tag_635:\n        /* \"#utility.yul\":33626:33630   */\n      dup7\n        /* \"#utility.yul\":33619:33700   */\n      sstore\n        /* \"#utility.yul\":33488:33710   */\n      pop\n        /* \"#utility.yul\":32823:33710   */\n      jump(tag_632)\n        /* \"#utility.yul\":32853:33471   */\n    tag_633:\n        /* \"#utility.yul\":32905:32909   */\n      0x1f\n        /* \"#utility.yul\":32901:32910   */\n      not\n        /* \"#utility.yul\":32893:32899   */\n      dup5\n        /* \"#utility.yul\":32889:32911   */\n      and\n        /* \"#utility.yul\":32939:32976   */\n      tag_636\n        /* \"#utility.yul\":32971:32975   */\n      dup7\n        /* \"#utility.yul\":32939:32976   */\n      tag_329\n      jump\t// in\n    tag_636:\n        /* \"#utility.yul\":32998:32999   */\n      0x00\n        /* \"#utility.yul\":33012:33220   */\n    tag_637:\n        /* \"#utility.yul\":33026:33033   */\n      dup3\n        /* \"#utility.yul\":33023:33024   */\n      dup2\n        /* \"#utility.yul\":33020:33034   */\n      lt\n        /* \"#utility.yul\":33012:33220   */\n      iszero\n      tag_639\n      jumpi\n        /* \"#utility.yul\":33105:33114   */\n      dup5\n        /* \"#utility.yul\":33100:33103   */\n      dup10\n        /* \"#utility.yul\":33096:33115   */\n      add\n        /* \"#utility.yul\":33090:33116   */\n      mload\n        /* \"#utility.yul\":33082:33088   */\n      dup3\n        /* \"#utility.yul\":33075:33117   */\n      sstore\n        /* \"#utility.yul\":33156:33157   */\n      0x01\n        /* \"#utility.yul\":33148:33154   */\n      dup3\n        /* \"#utility.yul\":33144:33158   */\n      add\n        /* \"#utility.yul\":33134:33158   */\n      swap2\n      pop\n        /* \"#utility.yul\":33203:33205   */\n      0x20\n        /* \"#utility.yul\":33192:33201   */\n      dup6\n        /* \"#utility.yul\":33188:33206   */\n      add\n        /* \"#utility.yul\":33175:33206   */\n      swap5\n      pop\n        /* \"#utility.yul\":33049:33053   */\n      0x20\n        /* \"#utility.yul\":33046:33047   */\n      dup2\n        /* \"#utility.yul\":33042:33054   */\n      add\n        /* \"#utility.yul\":33037:33054   */\n      swap1\n      pop\n        /* \"#utility.yul\":33012:33220   */\n      jump(tag_637)\n    tag_639:\n        /* \"#utility.yul\":33248:33254   */\n      dup7\n        /* \"#utility.yul\":33239:33246   */\n      dup4\n        /* \"#utility.yul\":33236:33255   */\n      lt\n        /* \"#utility.yul\":33233:33412   */\n      iszero\n      tag_640\n      jumpi\n        /* \"#utility.yul\":33306:33315   */\n      dup5\n        /* \"#utility.yul\":33301:33304   */\n      dup10\n        /* \"#utility.yul\":33297:33316   */\n      add\n        /* \"#utility.yul\":33291:33317   */\n      mload\n        /* \"#utility.yul\":33349:33397   */\n      tag_641\n        /* \"#utility.yul\":33391:33395   */\n      0x1f\n        /* \"#utility.yul\":33383:33389   */\n      dup10\n        /* \"#utility.yul\":33379:33396   */\n      and\n        /* \"#utility.yul\":33368:33377   */\n      dup3\n        /* \"#utility.yul\":33349:33397   */\n      tag_342\n      jump\t// in\n    tag_641:\n        /* \"#utility.yul\":33341:33347   */\n      dup4\n        /* \"#utility.yul\":33334:33398   */\n      sstore\n        /* \"#utility.yul\":33256:33412   */\n      pop\n        /* \"#utility.yul\":33233:33412   */\n    tag_640:\n        /* \"#utility.yul\":33458:33459   */\n      0x01\n        /* \"#utility.yul\":33454:33455   */\n      0x02\n        /* \"#utility.yul\":33446:33452   */\n      dup9\n        /* \"#utility.yul\":33442:33456   */\n      mul\n        /* \"#utility.yul\":33438:33460   */\n      add\n        /* \"#utility.yul\":33432:33436   */\n      dup9\n        /* \"#utility.yul\":33425:33461   */\n      sstore\n        /* \"#utility.yul\":32860:33471   */\n      pop\n      pop\n      pop\n        /* \"#utility.yul\":32823:33710   */\n    tag_632:\n      pop\n        /* \"#utility.yul\":32413:33716   */\n      pop\n      pop\n      pop\n        /* \"#utility.yul\":32321:33716   */\n      pop\n      pop\n      jump\t// out\n        /* \"#utility.yul\":33722:33902   */\n    tag_145:\n        /* \"#utility.yul\":33770:33847   */\n      0x4e487b7100000000000000000000000000000000000000000000000000000000\n        /* \"#utility.yul\":33767:33768   */\n      0x00\n        /* \"#utility.yul\":33760:33848   */\n      mstore\n        /* \"#utility.yul\":33867:33871   */\n      0x32\n        /* \"#utility.yul\":33864:33865   */\n      0x04\n        /* \"#utility.yul\":33857:33872   */\n      mstore\n        /* \"#utility.yul\":33891:33895   */\n      0x24\n        /* \"#utility.yul\":33888:33889   */\n      0x00\n        /* \"#utility.yul\":33881:33896   */\n      revert\n        /* \"#utility.yul\":33908:34083   */\n    tag_344:\n        /* \"#utility.yul\":34048:34075   */\n      0x446f63746f7220616c7265616479207265676973746572656400000000000000\n        /* \"#utility.yul\":34044:34045   */\n      0x00\n        /* \"#utility.yul\":34036:34042   */\n      dup3\n        /* \"#utility.yul\":34032:34046   */\n      add\n        /* \"#utility.yul\":34025:34076   */\n      mstore\n        /* \"#utility.yul\":33908:34083   */\n      pop\n      jump\t// out\n        /* \"#utility.yul\":34089:34455   */\n    tag_345:\n        /* \"#utility.yul\":34231:34234   */\n      0x00\n        /* \"#utility.yul\":34252:34319   */\n      tag_645\n        /* \"#utility.yul\":34316:34318   */\n      0x19\n        /* \"#utility.yul\":34311:34314   */\n      dup4\n        /* \"#utility.yul\":34252:34319   */\n      tag_285\n      jump\t// in\n    tag_645:\n        /* \"#utility.yul\":34245:34319   */\n      swap2\n      pop\n        /* \"#utility.yul\":34328:34421   */\n      tag_646\n        /* \"#utility.yul\":34417:34420   */\n      dup3\n        /* \"#utility.yul\":34328:34421   */\n      tag_344\n      jump\t// in\n    tag_646:\n        /* \"#utility.yul\":34446:34448   */\n      0x20\n        /* \"#utility.yul\":34441:34444   */\n      dup3\n        /* \"#utility.yul\":34437:34449   */\n      add\n        /* \"#utility.yul\":34430:34449   */\n      swap1\n      pop\n        /* \"#utility.yul\":34089:34455   */\n      swap2\n      swap1\n      pop\n      jump\t// out\n        /* \"#utility.yul\":34461:34880   */\n    tag_263:\n        /* \"#utility.yul\":34627:34631   */\n      0x00\n        /* \"#utility.yul\":34665:34667   */\n      0x20\n        /* \"#utility.yul\":34654:34663   */\n      dup3\n        /* \"#utility.yul\":34650:34668   */\n      add\n        /* \"#utility.yul\":34642:34668   */\n      swap1\n      pop\n        /* \"#utility.yul\":34714:34723   */\n      dup2\n        /* \"#utility.yul\":34708:34712   */\n      dup2\n        /* \"#utility.yul\":34704:34724   */\n      sub\n        /* \"#utility.yul\":34700:34701   */\n      0x00\n        /* \"#utility.yul\":34689:34698   */\n      dup4\n        /* \"#utility.yul\":34685:34702   */\n      add\n        /* \"#utility.yul\":34678:34725   */\n      mstore\n        /* \"#utility.yul\":34742:34873   */\n      tag_648\n        /* \"#utility.yul\":34868:34872   */\n      dup2\n        /* \"#utility.yul\":34742:34873   */\n      tag_345\n      jump\t// in\n    tag_648:\n        /* \"#utility.yul\":34734:34873   */\n      swap1\n      pop\n        /* \"#utility.yul\":34461:34880   */\n      swap2\n      swap1\n      pop\n      jump\t// out\n\n    auxdata: 0xa2646970667358221220bf131d81e4ca820277e6a15bdcc4d95690d459864deb28458535e61169920f2564736f6c63430008120033\n}\n",
				"bytecode": {
					"linkReferences": {},
					"object": "608060405234801561001057600080fd5b50612735806100206000396000f3fe608060405234801561001057600080fd5b50600436106101005760003560e01c80639df10db011610097578063d47c029c11610066578063d47c029c146102f1578063d92631db1461030d578063f0d950901461032b578063f3c674ac1461034957610100565b80639df10db01461023a578063a9583c2214610258578063c38831ae1461028c578063c85e766d146102bd57610100565b806368f2b1d2116100d357806368f2b1d21461019e578063747dcbde146101bc57806378522bc4146101ec578063801d4a951461020a57610100565b8063020d07a41461010557806346459b221461012157806359bf95f7146101525780635ab2ce2214610182575b600080fd5b61011f600480360381019061011a9190611807565b610365565b005b61013b60048036038101906101369190611914565b610440565b6040516101499291906119cf565b60405180910390f35b61016c60048036038101906101679190611914565b6104fc565b6040516101799190611a40565b60405180910390f35b61019c60048036038101906101979190611a5b565b61053b565b005b6101a66105b3565b6040516101b39190611c79565b60405180910390f35b6101d660048036038101906101d19190611914565b610864565b6040516101e39190611c9b565b60405180910390f35b6101f461091b565b6040516102019190611cbd565b60405180910390f35b610224600480360381019061021f9190611d04565b610921565b6040516102319190611d4c565b60405180910390f35b6102426109cc565b60405161024f9190611e66565b60405180910390f35b610272600480360381019061026d9190611d04565b610ac7565b604051610283959493929190611e88565b60405180910390f35b6102a660048036038101906102a19190611914565b610c2d565b6040516102b4929190611ee9565b60405180910390f35b6102d760048036038101906102d29190611914565b610d71565b6040516102e8959493929190611f20565b60405180910390f35b61030b60048036038101906103069190611f8f565b610fd7565b005b61031561105c565b60405161032291906120de565b60405180910390f35b6103336111df565b604051610340919061224e565b60405180910390f35b610363600480360381019061035e9190612270565b611497565b005b60006040518060a0016040528060005481526020018681526020018581526020018381526020018481525090506000808154809291906103a49061233e565b919050555060038190806001815401808255809150506001900390600052602060002090600502016000909190919091506000820151816000015560208201518160010190816103f49190612592565b50604082015181600201908161040a9190612592565b5060608201518160030190816104209190612592565b5060808201518160040190816104369190612592565b5050505050505050565b6004818154811061045057600080fd5b9060005260206000209060020201600091509050806000015490806001018054610479906123b5565b80601f01602080910402602001604051908101604052809291908181526020018280546104a5906123b5565b80156104f25780601f106104c7576101008083540402835291602001916104f2565b820191906000526020600020905b8154815290600101906020018083116104d557829003601f168201915b5050505050905082565b6007818154811061050c57600080fd5b906000526020600020016000915054906101000a900473ffffffffffffffffffffffffffffffffffffffff1681565b60006040518060400160405280848152602001838152509050600281908060018154018082558091505060019003906000526020600020906002020160009091909190915060008201518160000190816105959190612592565b5060208201518160010190816105ab9190612592565b505050505050565b60606003805480602002602001604051908101604052809291908181526020016000905b8282101561085b57838290600052602060002090600502016040518060a001604052908160008201548152602001600182018054610614906123b5565b80601f0160208091040260200160405190810160405280929190818152602001828054610640906123b5565b801561068d5780601f106106625761010080835404028352916020019161068d565b820191906000526020600020905b81548152906001019060200180831161067057829003601f168201915b505050505081526020016002820180546106a6906123b5565b80601f01602080910402602001604051908101604052809291908181526020018280546106d2906123b5565b801561071f5780601f106106f45761010080835404028352916020019161071f565b820191906000526020600020905b81548152906001019060200180831161070257829003601f168201915b50505050508152602001600382018054610738906123b5565b80601f0160208091040260200160405190810160405280929190818152602001828054610764906123b5565b80156107b15780601f10610786576101008083540402835291602001916107b1565b820191906000526020600020905b81548152906001019060200180831161079457829003601f168201915b505050505081526020016004820180546107ca906123b5565b80601f01602080910402602001604051908101604052809291908181526020018280546107f6906123b5565b80156108435780601f1061081857610100808354040283529160200191610843565b820191906000526020600020905b81548152906001019060200180831161082657829003601f168201915b505050505081525050815260200190600101906105d7565b50505050905090565b60606004828154811061087a57610879612664565b5b90600052602060002090600202016001018054610896906123b5565b80601f01602080910402602001604051908101604052809291908181526020018280546108c2906123b5565b801561090f5780601f106108e45761010080835404028352916020019161090f565b820191906000526020600020905b8154815290600101906020018083116108f257829003601f168201915b50505050509050919050565b60065481565b600080600090505b6006548110156109c1578273ffffffffffffffffffffffffffffffffffffffff166007828154811061095e5761095d612664565b5b9060005260206000200160009054906101000a900473ffffffffffffffffffffffffffffffffffffffff1673ffffffffffffffffffffffffffffffffffffffff16036109ae5760009150506109c7565b80806109b99061233e565b915050610929565b50600190505b919050565b60606004805480602002602001604051908101604052809291908181526020016000905b82821015610abe578382906000526020600020906002020160405180604001604052908160008201548152602001600182018054610a2d906123b5565b80601f0160208091040260200160405190810160405280929190818152602001828054610a59906123b5565b8015610aa65780601f10610a7b57610100808354040283529160200191610aa6565b820191906000526020600020905b815481529060010190602001808311610a8957829003601f168201915b505050505081525050815260200190600101906109f0565b50505050905090565b6005602052806000526040600020600091509050806000015490806001018054610af0906123b5565b80601f0160208091040260200160405190810160405280929190818152602001828054610b1c906123b5565b8015610b695780601f10610b3e57610100808354040283529160200191610b69565b820191906000526020600020905b815481529060010190602001808311610b4c57829003601f168201915b505050505090806002018054610b7e906123b5565b80601f0160208091040260200160405190810160405280929190818152602001828054610baa906123b5565b8015610bf75780601f10610bcc57610100808354040283529160200191610bf7565b820191906000526020600020905b815481529060010190602001808311610bda57829003601f168201915b5050505050908060030160009054906101000a900473ffffffffffffffffffffffffffffffffffffffff16908060040154905085565b60028181548110610c3d57600080fd5b9060005260206000209060020201600091509050806000018054610c60906123b5565b80601f0160208091040260200160405190810160405280929190818152602001828054610c8c906123b5565b8015610cd95780601f10610cae57610100808354040283529160200191610cd9565b820191906000526020600020905b815481529060010190602001808311610cbc57829003601f168201915b505050505090806001018054610cee906123b5565b80601f0160208091040260200160405190810160405280929190818152602001828054610d1a906123b5565b8015610d675780601f10610d3c57610100808354040283529160200191610d67565b820191906000526020600020905b815481529060010190602001808311610d4a57829003601f168201915b5050505050905082565b60038181548110610d8157600080fd5b9060005260206000209060050201600091509050806000015490806001018054610daa906123b5565b80601f0160208091040260200160405190810160405280929190818152602001828054610dd6906123b5565b8015610e235780601f10610df857610100808354040283529160200191610e23565b820191906000526020600020905b815481529060010190602001808311610e0657829003601f168201915b505050505090806002018054610e38906123b5565b80601f0160208091040260200160405190810160405280929190818152602001828054610e64906123b5565b8015610eb15780601f10610e8657610100808354040283529160200191610eb1565b820191906000526020600020905b815481529060010190602001808311610e9457829003601f168201915b505050505090806003018054610ec6906123b5565b80601f0160208091040260200160405190810160405280929190818152602001828054610ef2906123b5565b8015610f3f5780601f10610f1457610100808354040283529160200191610f3f565b820191906000526020600020905b815481529060010190602001808311610f2257829003601f168201915b505050505090806004018054610f54906123b5565b80601f0160208091040260200160405190810160405280929190818152602001828054610f80906123b5565b8015610fcd5780601f10610fa257610100808354040283529160200191610fcd565b820191906000526020600020905b815481529060010190602001808311610fb057829003601f168201915b5050505050905085565b600060405180604001604052806001548152602001838152509050600160008154809291906110059061233e565b919050555060048190806001815401808255809150506001900390600052602060002090600202016000909190919091506000820151816000015560208201518160010190816110559190612592565b5050505050565b60606002805480602002602001604051908101604052809291908181526020016000905b828210156111d657838290600052602060002090600202016040518060400160405290816000820180546110b3906123b5565b80601f01602080910402602001604051908101604052809291908181526020018280546110df906123b5565b801561112c5780601f106111015761010080835404028352916020019161112c565b820191906000526020600020905b81548152906001019060200180831161110f57829003601f168201915b50505050508152602001600182018054611145906123b5565b80601f0160208091040260200160405190810160405280929190818152602001828054611171906123b5565b80156111be5780601f10611193576101008083540402835291602001916111be565b820191906000526020600020905b8154815290600101906020018083116111a157829003601f168201915b50505050508152505081526020019060010190611080565b50505050905090565b6060600060065467ffffffffffffffff8111156111ff576111fe6116dc565b5b60405190808252806020026020018201604052801561123857816020015b611225611668565b81526020019060019003908161121d5790505b50905060005b60065481101561148f5760056000600783815481106112605761125f612664565b5b9060005260206000200160009054906101000a900473ffffffffffffffffffffffffffffffffffffffff1673ffffffffffffffffffffffffffffffffffffffff1673ffffffffffffffffffffffffffffffffffffffff1681526020019081526020016000206040518060a0016040529081600082015481526020016001820180546112ea906123b5565b80601f0160208091040260200160405190810160405280929190818152602001828054611316906123b5565b80156113635780601f1061133857610100808354040283529160200191611363565b820191906000526020600020905b81548152906001019060200180831161134657829003601f168201915b5050505050815260200160028201805461137c906123b5565b80601f01602080910402602001604051908101604052809291908181526020018280546113a8906123b5565b80156113f55780601f106113ca576101008083540402835291602001916113f5565b820191906000526020600020905b8154815290600101906020018083116113d857829003601f168201915b505050505081526020016003820160009054906101000a900473ffffffffffffffffffffffffffffffffffffffff1673ffffffffffffffffffffffffffffffffffffffff1673ffffffffffffffffffffffffffffffffffffffff16815260200160048201548152505082828151811061147157611470612664565b5b602002602001018190525080806114879061233e565b91505061123e565b508091505090565b6114a081610921565b6114df576040517f08c379a00000000000000000000000000000000000000000000000000000000081526004016114d6906126df565b60405180910390fd5b6040518060a0016040528060065481526020018581526020018481526020018273ffffffffffffffffffffffffffffffffffffffff16815260200183815250600560008373ffffffffffffffffffffffffffffffffffffffff1673ffffffffffffffffffffffffffffffffffffffff16815260200190815260200160002060008201518160000155602082015181600101908161157c9190612592565b5060408201518160020190816115929190612592565b5060608201518160030160006101000a81548173ffffffffffffffffffffffffffffffffffffffff021916908373ffffffffffffffffffffffffffffffffffffffff160217905550608082015181600401559050506007819080600181540180825580915050600190039060005260206000200160009091909190916101000a81548173ffffffffffffffffffffffffffffffffffffffff021916908373ffffffffffffffffffffffffffffffffffffffff1602179055506006600081548092919061165d9061233e565b919050555050505050565b6040518060a00160405280600081526020016060815260200160608152602001600073ffffffffffffffffffffffffffffffffffffffff168152602001600081525090565b6000604051905090565b600080fd5b600080fd5b600080fd5b600080fd5b6000601f19601f8301169050919050565b7f4e487b7100000000000000000000000000000000000000000000000000000000600052604160045260246000fd5b611714826116cb565b810181811067ffffffffffffffff82111715611733576117326116dc565b5b80604052505050565b60006117466116ad565b9050611752828261170b565b919050565b600067ffffffffffffffff821115611772576117716116dc565b5b61177b826116cb565b9050602081019050919050565b82818337600083830152505050565b60006117aa6117a584611757565b61173c565b9050828152602081018484840111156117c6576117c56116c6565b5b6117d1848285611788565b509392505050565b600082601f8301126117ee576117ed6116c1565b5b81356117fe848260208601611797565b91505092915050565b60008060008060808587031215611821576118206116b7565b5b600085013567ffffffffffffffff81111561183f5761183e6116bc565b5b61184b878288016117d9565b945050602085013567ffffffffffffffff81111561186c5761186b6116bc565b5b611878878288016117d9565b935050604085013567ffffffffffffffff811115611899576118986116bc565b5b6118a5878288016117d9565b925050606085013567ffffffffffffffff8111156118c6576118c56116bc565b5b6118d2878288016117d9565b91505092959194509250565b6000819050919050565b6118f1816118de565b81146118fc57600080fd5b50565b60008135905061190e816118e8565b92915050565b60006020828403121561192a576119296116b7565b5b6000611938848285016118ff565b91505092915050565b61194a816118de565b82525050565b600081519050919050565b600082825260208201905092915050565b60005b8381101561198a57808201518184015260208101905061196f565b60008484015250505050565b60006119a182611950565b6119ab818561195b565b93506119bb81856020860161196c565b6119c4816116cb565b840191505092915050565b60006040820190506119e46000830185611941565b81810360208301526119f68184611996565b90509392505050565b600073ffffffffffffffffffffffffffffffffffffffff82169050919050565b6000611a2a826119ff565b9050919050565b611a3a81611a1f565b82525050565b6000602082019050611a556000830184611a31565b92915050565b60008060408385031215611a7257611a716116b7565b5b600083013567ffffffffffffffff811115611a9057611a8f6116bc565b5b611a9c858286016117d9565b925050602083013567ffffffffffffffff811115611abd57611abc6116bc565b5b611ac9858286016117d9565b9150509250929050565b600081519050919050565b600082825260208201905092915050565b6000819050602082019050919050565b611b08816118de565b82525050565b600082825260208201905092915050565b6000611b2a82611950565b611b348185611b0e565b9350611b4481856020860161196c565b611b4d816116cb565b840191505092915050565b600060a083016000830151611b706000860182611aff565b5060208301518482036020860152611b888282611b1f565b91505060408301518482036040860152611ba28282611b1f565b91505060608301518482036060860152611bbc8282611b1f565b91505060808301518482036080860152611bd68282611b1f565b9150508091505092915050565b6000611bef8383611b58565b905092915050565b6000602082019050919050565b6000611c0f82611ad3565b611c198185611ade565b935083602082028501611c2b85611aef565b8060005b85811015611c675784840389528151611c488582611be3565b9450611c5383611bf7565b925060208a01995050600181019050611c2f565b50829750879550505050505092915050565b60006020820190508181036000830152611c938184611c04565b905092915050565b60006020820190508181036000830152611cb58184611996565b905092915050565b6000602082019050611cd26000830184611941565b92915050565b611ce181611a1f565b8114611cec57600080fd5b50565b600081359050611cfe81611cd8565b92915050565b600060208284031215611d1a57611d196116b7565b5b6000611d2884828501611cef565b91505092915050565b60008115159050919050565b611d4681611d31565b82525050565b6000602082019050611d616000830184611d3d565b92915050565b600081519050919050565b600082825260208201905092915050565b6000819050602082019050919050565b6000604083016000830151611dab6000860182611aff565b5060208301518482036020860152611dc38282611b1f565b9150508091505092915050565b6000611ddc8383611d93565b905092915050565b6000602082019050919050565b6000611dfc82611d67565b611e068185611d72565b935083602082028501611e1885611d83565b8060005b85811015611e545784840389528151611e358582611dd0565b9450611e4083611de4565b925060208a01995050600181019050611e1c565b50829750879550505050505092915050565b60006020820190508181036000830152611e808184611df1565b905092915050565b600060a082019050611e9d6000830188611941565b8181036020830152611eaf8187611996565b90508181036040830152611ec38186611996565b9050611ed26060830185611a31565b611edf6080830184611941565b9695505050505050565b60006040820190508181036000830152611f038185611996565b90508181036020830152611f178184611996565b90509392505050565b600060a082019050611f356000830188611941565b8181036020830152611f478187611996565b90508181036040830152611f5b8186611996565b90508181036060830152611f6f8185611996565b90508181036080830152611f838184611996565b90509695505050505050565b600060208284031215611fa557611fa46116b7565b5b600082013567ffffffffffffffff811115611fc357611fc26116bc565b5b611fcf848285016117d9565b91505092915050565b600081519050919050565b600082825260208201905092915050565b6000819050602082019050919050565b600060408301600083015184820360008601526120218282611b1f565b9150506020830151848203602086015261203b8282611b1f565b9150508091505092915050565b60006120548383612004565b905092915050565b6000602082019050919050565b600061207482611fd8565b61207e8185611fe3565b93508360208202850161209085611ff4565b8060005b858110156120cc57848403895281516120ad8582612048565b94506120b88361205c565b925060208a01995050600181019050612094565b50829750879550505050505092915050565b600060208201905081810360008301526120f88184612069565b905092915050565b600081519050919050565b600082825260208201905092915050565b6000819050602082019050919050565b61213581611a1f565b82525050565b600060a0830160008301516121536000860182611aff565b506020830151848203602086015261216b8282611b1f565b915050604083015184820360408601526121858282611b1f565b915050606083015161219a606086018261212c565b5060808301516121ad6080860182611aff565b508091505092915050565b60006121c4838361213b565b905092915050565b6000602082019050919050565b60006121e482612100565b6121ee818561210b565b9350836020820285016122008561211c565b8060005b8581101561223c578484038952815161221d85826121b8565b9450612228836121cc565b925060208a01995050600181019050612204565b50829750879550505050505092915050565b6000602082019050818103600083015261226881846121d9565b905092915050565b6000806000806080858703121561228a576122896116b7565b5b600085013567ffffffffffffffff8111156122a8576122a76116bc565b5b6122b4878288016117d9565b945050602085013567ffffffffffffffff8111156122d5576122d46116bc565b5b6122e1878288016117d9565b93505060406122f2878288016118ff565b925050606061230387828801611cef565b91505092959194509250565b7f4e487b7100000000000000000000000000000000000000000000000000000000600052601160045260246000fd5b6000612349826118de565b91507fffffffffffffffffffffffffffffffffffffffffffffffffffffffffffffffff820361237b5761237a61230f565b5b600182019050919050565b7f4e487b7100000000000000000000000000000000000000000000000000000000600052602260045260246000fd5b600060028204905060018216806123cd57607f821691505b6020821081036123e0576123df612386565b5b50919050565b60008190508160005260206000209050919050565b60006020601f8301049050919050565b600082821b905092915050565b6000600883026124487fffffffffffffffffffffffffffffffffffffffffffffffffffffffffffffffff8261240b565b612452868361240b565b95508019841693508086168417925050509392505050565b6000819050919050565b600061248f61248a612485846118de565b61246a565b6118de565b9050919050565b6000819050919050565b6124a983612474565b6124bd6124b582612496565b848454612418565b825550505050565b600090565b6124d26124c5565b6124dd8184846124a0565b505050565b5b81811015612501576124f66000826124ca565b6001810190506124e3565b5050565b601f82111561254657612517816123e6565b612520846123fb565b8101602085101561252f578190505b61254361253b856123fb565b8301826124e2565b50505b505050565b600082821c905092915050565b60006125696000198460080261254b565b1980831691505092915050565b60006125828383612558565b9150826002028217905092915050565b61259b82611950565b67ffffffffffffffff8111156125b4576125b36116dc565b5b6125be82546123b5565b6125c9828285612505565b600060209050601f8311600181146125fc57600084156125ea578287015190505b6125f48582612576565b86555061265c565b601f19841661260a866123e6565b60005b828110156126325784890151825560018201915060208501945060208101905061260d565b8683101561264f578489015161264b601f891682612558565b8355505b6001600288020188555050505b505050505050565b7f4e487b7100000000000000000000000000000000000000000000000000000000600052603260045260246000fd5b7f446f63746f7220616c7265616479207265676973746572656400000000000000600082015250565b60006126c960198361195b565b91506126d482612693565b602082019050919050565b600060208201905081810360008301526126f8816126bc565b905091905056fea2646970667358221220bf131d81e4ca820277e6a15bdcc4d95690d459864deb28458535e61169920f2564736f6c63430008120033",
					"opcodes": "PUSH1 0x80 PUSH1 0x40 MSTORE CALLVALUE DUP1 ISZERO PUSH2 0x10 JUMPI PUSH1 0x0 DUP1 REVERT JUMPDEST POP PUSH2 0x2735 DUP1 PUSH2 0x20 PUSH1 0x0 CODECOPY PUSH1 0x0 RETURN INVALID PUSH1 0x80 PUSH1 0x40 MSTORE CALLVALUE DUP1 ISZERO PUSH2 0x10 JUMPI PUSH1 0x0 DUP1 REVERT JUMPDEST POP PUSH1 0x4 CALLDATASIZE LT PUSH2 0x100 JUMPI PUSH1 0x0 CALLDATALOAD PUSH1 0xE0 SHR DUP1 PUSH4 0x9DF10DB0 GT PUSH2 0x97 JUMPI DUP1 PUSH4 0xD47C029C GT PUSH2 0x66 JUMPI DUP1 PUSH4 0xD47C029C EQ PUSH2 0x2F1 JUMPI DUP1 PUSH4 0xD92631DB EQ PUSH2 0x30D JUMPI DUP1 PUSH4 0xF0D95090 EQ PUSH2 0x32B JUMPI DUP1 PUSH4 0xF3C674AC EQ PUSH2 0x349 JUMPI PUSH2 0x100 JUMP JUMPDEST DUP1 PUSH4 0x9DF10DB0 EQ PUSH2 0x23A JUMPI DUP1 PUSH4 0xA9583C22 EQ PUSH2 0x258 JUMPI DUP1 PUSH4 0xC38831AE EQ PUSH2 0x28C JUMPI DUP1 PUSH4 0xC85E766D EQ PUSH2 0x2BD JUMPI PUSH2 0x100 JUMP JUMPDEST DUP1 PUSH4 0x68F2B1D2 GT PUSH2 0xD3 JUMPI DUP1 PUSH4 0x68F2B1D2 EQ PUSH2 0x19E JUMPI DUP1 PUSH4 0x747DCBDE EQ PUSH2 0x1BC JUMPI DUP1 PUSH4 0x78522BC4 EQ PUSH2 0x1EC JUMPI DUP1 PUSH4 0x801D4A95 EQ PUSH2 0x20A JUMPI PUSH2 0x100 JUMP JUMPDEST DUP1 PUSH4 0x20D07A4 EQ PUSH2 0x105 JUMPI DUP1 PUSH4 0x46459B22 EQ PUSH2 0x121 JUMPI DUP1 PUSH4 0x59BF95F7 EQ PUSH2 0x152 JUMPI DUP1 PUSH4 0x5AB2CE22 EQ PUSH2 0x182 JUMPI JUMPDEST PUSH1 0x0 DUP1 REVERT JUMPDEST PUSH2 0x11F PUSH1 0x4 DUP1 CALLDATASIZE SUB DUP2 ADD SWAP1 PUSH2 0x11A SWAP2 SWAP1 PUSH2 0x1807 JUMP JUMPDEST PUSH2 0x365 JUMP JUMPDEST STOP JUMPDEST PUSH2 0x13B PUSH1 0x4 DUP1 CALLDATASIZE SUB DUP2 ADD SWAP1 PUSH2 0x136 SWAP2 SWAP1 PUSH2 0x1914 JUMP JUMPDEST PUSH2 0x440 JUMP JUMPDEST PUSH1 0x40 MLOAD PUSH2 0x149 SWAP3 SWAP2 SWAP1 PUSH2 0x19CF JUMP JUMPDEST PUSH1 0x40 MLOAD DUP1 SWAP2 SUB SWAP1 RETURN JUMPDEST PUSH2 0x16C PUSH1 0x4 DUP1 CALLDATASIZE SUB DUP2 ADD SWAP1 PUSH2 0x167 SWAP2 SWAP1 PUSH2 0x1914 JUMP JUMPDEST PUSH2 0x4FC JUMP JUMPDEST PUSH1 0x40 MLOAD PUSH2 0x179 SWAP2 SWAP1 PUSH2 0x1A40 JUMP JUMPDEST PUSH1 0x40 MLOAD DUP1 SWAP2 SUB SWAP1 RETURN JUMPDEST PUSH2 0x19C PUSH1 0x4 DUP1 CALLDATASIZE SUB DUP2 ADD SWAP1 PUSH2 0x197 SWAP2 SWAP1 PUSH2 0x1A5B JUMP JUMPDEST PUSH2 0x53B JUMP JUMPDEST STOP JUMPDEST PUSH2 0x1A6 PUSH2 0x5B3 JUMP JUMPDEST PUSH1 0x40 MLOAD PUSH2 0x1B3 SWAP2 SWAP1 PUSH2 0x1C79 JUMP JUMPDEST PUSH1 0x40 MLOAD DUP1 SWAP2 SUB SWAP1 RETURN JUMPDEST PUSH2 0x1D6 PUSH1 0x4 DUP1 CALLDATASIZE SUB DUP2 ADD SWAP1 PUSH2 0x1D1 SWAP2 SWAP1 PUSH2 0x1914 JUMP JUMPDEST PUSH2 0x864 JUMP JUMPDEST PUSH1 0x40 MLOAD PUSH2 0x1E3 SWAP2 SWAP1 PUSH2 0x1C9B JUMP JUMPDEST PUSH1 0x40 MLOAD DUP1 SWAP2 SUB SWAP1 RETURN JUMPDEST PUSH2 0x1F4 PUSH2 0x91B JUMP JUMPDEST PUSH1 0x40 MLOAD PUSH2 0x201 SWAP2 SWAP1 PUSH2 0x1CBD JUMP JUMPDEST PUSH1 0x40 MLOAD DUP1 SWAP2 SUB SWAP1 RETURN JUMPDEST PUSH2 0x224 PUSH1 0x4 DUP1 CALLDATASIZE SUB DUP2 ADD SWAP1 PUSH2 0x21F SWAP2 SWAP1 PUSH2 0x1D04 JUMP JUMPDEST PUSH2 0x921 JUMP JUMPDEST PUSH1 0x40 MLOAD PUSH2 0x231 SWAP2 SWAP1 PUSH2 0x1D4C JUMP JUMPDEST PUSH1 0x40 MLOAD DUP1 SWAP2 SUB SWAP1 RETURN JUMPDEST PUSH2 0x242 PUSH2 0x9CC JUMP JUMPDEST PUSH1 0x40 MLOAD PUSH2 0x24F SWAP2 SWAP1 PUSH2 0x1E66 JUMP JUMPDEST PUSH1 0x40 MLOAD DUP1 SWAP2 SUB SWAP1 RETURN JUMPDEST PUSH2 0x272 PUSH1 0x4 DUP1 CALLDATASIZE SUB DUP2 ADD SWAP1 PUSH2 0x26D SWAP2 SWAP1 PUSH2 0x1D04 JUMP JUMPDEST PUSH2 0xAC7 JUMP JUMPDEST PUSH1 0x40 MLOAD PUSH2 0x283 SWAP6 SWAP5 SWAP4 SWAP3 SWAP2 SWAP1 PUSH2 0x1E88 JUMP JUMPDEST PUSH1 0x40 MLOAD DUP1 SWAP2 SUB SWAP1 RETURN JUMPDEST PUSH2 0x2A6 PUSH1 0x4 DUP1 CALLDATASIZE SUB DUP2 ADD SWAP1 PUSH2 0x2A1 SWAP2 SWAP1 PUSH2 0x1914 JUMP JUMPDEST PUSH2 0xC2D JUMP JUMPDEST PUSH1 0x40 MLOAD PUSH2 0x2B4 SWAP3 SWAP2 SWAP1 PUSH2 0x1EE9 JUMP JUMPDEST PUSH1 0x40 MLOAD DUP1 SWAP2 SUB SWAP1 RETURN JUMPDEST PUSH2 0x2D7 PUSH1 0x4 DUP1 CALLDATASIZE SUB DUP2 ADD SWAP1 PUSH2 0x2D2 SWAP2 SWAP1 PUSH2 0x1914 JUMP JUMPDEST PUSH2 0xD71 JUMP JUMPDEST PUSH1 0x40 MLOAD PUSH2 0x2E8 SWAP6 SWAP5 SWAP4 SWAP3 SWAP2 SWAP1 PUSH2 0x1F20 JUMP JUMPDEST PUSH1 0x40 MLOAD DUP1 SWAP2 SUB SWAP1 RETURN JUMPDEST PUSH2 0x30B PUSH1 0x4 DUP1 CALLDATASIZE SUB DUP2 ADD SWAP1 PUSH2 0x306 SWAP2 SWAP1 PUSH2 0x1F8F JUMP JUMPDEST PUSH2 0xFD7 JUMP JUMPDEST STOP JUMPDEST PUSH2 0x315 PUSH2 0x105C JUMP JUMPDEST PUSH1 0x40 MLOAD PUSH2 0x322 SWAP2 SWAP1 PUSH2 0x20DE JUMP JUMPDEST PUSH1 0x40 MLOAD DUP1 SWAP2 SUB SWAP1 RETURN JUMPDEST PUSH2 0x333 PUSH2 0x11DF JUMP JUMPDEST PUSH1 0x40 MLOAD PUSH2 0x340 SWAP2 SWAP1 PUSH2 0x224E JUMP JUMPDEST PUSH1 0x40 MLOAD DUP1 SWAP2 SUB SWAP1 RETURN JUMPDEST PUSH2 0x363 PUSH1 0x4 DUP1 CALLDATASIZE SUB DUP2 ADD SWAP1 PUSH2 0x35E SWAP2 SWAP1 PUSH2 0x2270 JUMP JUMPDEST PUSH2 0x1497 JUMP JUMPDEST STOP JUMPDEST PUSH1 0x0 PUSH1 0x40 MLOAD DUP1 PUSH1 0xA0 ADD PUSH1 0x40 MSTORE DUP1 PUSH1 0x0 SLOAD DUP2 MSTORE PUSH1 0x20 ADD DUP7 DUP2 MSTORE PUSH1 0x20 ADD DUP6 DUP2 MSTORE PUSH1 0x20 ADD DUP4 DUP2 MSTORE PUSH1 0x20 ADD DUP5 DUP2 MSTORE POP SWAP1 POP PUSH1 0x0 DUP1 DUP2 SLOAD DUP1 SWAP3 SWAP2 SWAP1 PUSH2 0x3A4 SWAP1 PUSH2 0x233E JUMP JUMPDEST SWAP2 SWAP1 POP SSTORE POP PUSH1 0x3 DUP2 SWAP1 DUP1 PUSH1 0x1 DUP2 SLOAD ADD DUP1 DUP3 SSTORE DUP1 SWAP2 POP POP PUSH1 0x1 SWAP1 SUB SWAP1 PUSH1 0x0 MSTORE PUSH1 0x20 PUSH1 0x0 KECCAK256 SWAP1 PUSH1 0x5 MUL ADD PUSH1 0x0 SWAP1 SWAP2 SWAP1 SWAP2 SWAP1 SWAP2 POP PUSH1 0x0 DUP3 ADD MLOAD DUP2 PUSH1 0x0 ADD SSTORE PUSH1 0x20 DUP3 ADD MLOAD DUP2 PUSH1 0x1 ADD SWAP1 DUP2 PUSH2 0x3F4 SWAP2 SWAP1 PUSH2 0x2592 JUMP JUMPDEST POP PUSH1 0x40 DUP3 ADD MLOAD DUP2 PUSH1 0x2 ADD SWAP1 DUP2 PUSH2 0x40A SWAP2 SWAP1 PUSH2 0x2592 JUMP JUMPDEST POP PUSH1 0x60 DUP3 ADD MLOAD DUP2 PUSH1 0x3 ADD SWAP1 DUP2 PUSH2 0x420 SWAP2 SWAP1 PUSH2 0x2592 JUMP JUMPDEST POP PUSH1 0x80 DUP3 ADD MLOAD DUP2 PUSH1 0x4 ADD SWAP1 DUP2 PUSH2 0x436 SWAP2 SWAP1 PUSH2 0x2592 JUMP JUMPDEST POP POP POP POP POP POP POP POP JUMP JUMPDEST PUSH1 0x4 DUP2 DUP2 SLOAD DUP2 LT PUSH2 0x450 JUMPI PUSH1 0x0 DUP1 REVERT JUMPDEST SWAP1 PUSH1 0x0 MSTORE PUSH1 0x20 PUSH1 0x0 KECCAK256 SWAP1 PUSH1 0x2 MUL ADD PUSH1 0x0 SWAP2 POP SWAP1 POP DUP1 PUSH1 0x0 ADD SLOAD SWAP1 DUP1 PUSH1 0x1 ADD DUP1 SLOAD PUSH2 0x479 SWAP1 PUSH2 0x23B5 JUMP JUMPDEST DUP1 PUSH1 0x1F ADD PUSH1 0x20 DUP1 SWAP2 DIV MUL PUSH1 0x20 ADD PUSH1 0x40 MLOAD SWAP1 DUP2 ADD PUSH1 0x40 MSTORE DUP1 SWAP3 SWAP2 SWAP1 DUP2 DUP2 MSTORE PUSH1 0x20 ADD DUP3 DUP1 SLOAD PUSH2 0x4A5 SWAP1 PUSH2 0x23B5 JUMP JUMPDEST DUP1 ISZERO PUSH2 0x4F2 JUMPI DUP1 PUSH1 0x1F LT PUSH2 0x4C7 JUMPI PUSH2 0x100 DUP1 DUP4 SLOAD DIV MUL DUP4 MSTORE SWAP2 PUSH1 0x20 ADD SWAP2 PUSH2 0x4F2 JUMP JUMPDEST DUP3 ADD SWAP2 SWAP1 PUSH1 0x0 MSTORE PUSH1 0x20 PUSH1 0x0 KECCAK256 SWAP1 JUMPDEST DUP2 SLOAD DUP2 MSTORE SWAP1 PUSH1 0x1 ADD SWAP1 PUSH1 0x20 ADD DUP1 DUP4 GT PUSH2 0x4D5 JUMPI DUP3 SWAP1 SUB PUSH1 0x1F AND DUP3 ADD SWAP2 JUMPDEST POP POP POP POP POP SWAP1 POP DUP3 JUMP JUMPDEST PUSH1 0x7 DUP2 DUP2 SLOAD DUP2 LT PUSH2 0x50C JUMPI PUSH1 0x0 DUP1 REVERT JUMPDEST SWAP1 PUSH1 0x0 MSTORE PUSH1 0x20 PUSH1 0x0 KECCAK256 ADD PUSH1 0x0 SWAP2 POP SLOAD SWAP1 PUSH2 0x100 EXP SWAP1 DIV PUSH20 0xFFFFFFFFFFFFFFFFFFFFFFFFFFFFFFFFFFFFFFFF AND DUP2 JUMP JUMPDEST PUSH1 0x0 PUSH1 0x40 MLOAD DUP1 PUSH1 0x40 ADD PUSH1 0x40 MSTORE DUP1 DUP5 DUP2 MSTORE PUSH1 0x20 ADD DUP4 DUP2 MSTORE POP SWAP1 POP PUSH1 0x2 DUP2 SWAP1 DUP1 PUSH1 0x1 DUP2 SLOAD ADD DUP1 DUP3 SSTORE DUP1 SWAP2 POP POP PUSH1 0x1 SWAP1 SUB SWAP1 PUSH1 0x0 MSTORE PUSH1 0x20 PUSH1 0x0 KECCAK256 SWAP1 PUSH1 0x2 MUL ADD PUSH1 0x0 SWAP1 SWAP2 SWAP1 SWAP2 SWAP1 SWAP2 POP PUSH1 0x0 DUP3 ADD MLOAD DUP2 PUSH1 0x0 ADD SWAP1 DUP2 PUSH2 0x595 SWAP2 SWAP1 PUSH2 0x2592 JUMP JUMPDEST POP PUSH1 0x20 DUP3 ADD MLOAD DUP2 PUSH1 0x1 ADD SWAP1 DUP2 PUSH2 0x5AB SWAP2 SWAP1 PUSH2 0x2592 JUMP JUMPDEST POP POP POP POP POP POP JUMP JUMPDEST PUSH1 0x60 PUSH1 0x3 DUP1 SLOAD DUP1 PUSH1 0x20 MUL PUSH1 0x20 ADD PUSH1 0x40 MLOAD SWAP1 DUP2 ADD PUSH1 0x40 MSTORE DUP1 SWAP3 SWAP2 SWAP1 DUP2 DUP2 MSTORE PUSH1 0x20 ADD PUSH1 0x0 SWAP1 JUMPDEST DUP3 DUP3 LT ISZERO PUSH2 0x85B JUMPI DUP4 DUP3 SWAP1 PUSH1 0x0 MSTORE PUSH1 0x20 PUSH1 0x0 KECCAK256 SWAP1 PUSH1 0x5 MUL ADD PUSH1 0x40 MLOAD DUP1 PUSH1 0xA0 ADD PUSH1 0x40 MSTORE SWAP1 DUP2 PUSH1 0x0 DUP3 ADD SLOAD DUP2 MSTORE PUSH1 0x20 ADD PUSH1 0x1 DUP3 ADD DUP1 SLOAD PUSH2 0x614 SWAP1 PUSH2 0x23B5 JUMP JUMPDEST DUP1 PUSH1 0x1F ADD PUSH1 0x20 DUP1 SWAP2 DIV MUL PUSH1 0x20 ADD PUSH1 0x40 MLOAD SWAP1 DUP2 ADD PUSH1 0x40 MSTORE DUP1 SWAP3 SWAP2 SWAP1 DUP2 DUP2 MSTORE PUSH1 0x20 ADD DUP3 DUP1 SLOAD PUSH2 0x640 SWAP1 PUSH2 0x23B5 JUMP JUMPDEST DUP1 ISZERO PUSH2 0x68D JUMPI DUP1 PUSH1 0x1F LT PUSH2 0x662 JUMPI PUSH2 0x100 DUP1 DUP4 SLOAD DIV MUL DUP4 MSTORE SWAP2 PUSH1 0x20 ADD SWAP2 PUSH2 0x68D JUMP JUMPDEST DUP3 ADD SWAP2 SWAP1 PUSH1 0x0 MSTORE PUSH1 0x20 PUSH1 0x0 KECCAK256 SWAP1 JUMPDEST DUP2 SLOAD DUP2 MSTORE SWAP1 PUSH1 0x1 ADD SWAP1 PUSH1 0x20 ADD DUP1 DUP4 GT PUSH2 0x670 JUMPI DUP3 SWAP1 SUB PUSH1 0x1F AND DUP3 ADD SWAP2 JUMPDEST POP POP POP POP POP DUP2 MSTORE PUSH1 0x20 ADD PUSH1 0x2 DUP3 ADD DUP1 SLOAD PUSH2 0x6A6 SWAP1 PUSH2 0x23B5 JUMP JUMPDEST DUP1 PUSH1 0x1F ADD PUSH1 0x20 DUP1 SWAP2 DIV MUL PUSH1 0x20 ADD PUSH1 0x40 MLOAD SWAP1 DUP2 ADD PUSH1 0x40 MSTORE DUP1 SWAP3 SWAP2 SWAP1 DUP2 DUP2 MSTORE PUSH1 0x20 ADD DUP3 DUP1 SLOAD PUSH2 0x6D2 SWAP1 PUSH2 0x23B5 JUMP JUMPDEST DUP1 ISZERO PUSH2 0x71F JUMPI DUP1 PUSH1 0x1F LT PUSH2 0x6F4 JUMPI PUSH2 0x100 DUP1 DUP4 SLOAD DIV MUL DUP4 MSTORE SWAP2 PUSH1 0x20 ADD SWAP2 PUSH2 0x71F JUMP JUMPDEST DUP3 ADD SWAP2 SWAP1 PUSH1 0x0 MSTORE PUSH1 0x20 PUSH1 0x0 KECCAK256 SWAP1 JUMPDEST DUP2 SLOAD DUP2 MSTORE SWAP1 PUSH1 0x1 ADD SWAP1 PUSH1 0x20 ADD DUP1 DUP4 GT PUSH2 0x702 JUMPI DUP3 SWAP1 SUB PUSH1 0x1F AND DUP3 ADD SWAP2 JUMPDEST POP POP POP POP POP DUP2 MSTORE PUSH1 0x20 ADD PUSH1 0x3 DUP3 ADD DUP1 SLOAD PUSH2 0x738 SWAP1 PUSH2 0x23B5 JUMP JUMPDEST DUP1 PUSH1 0x1F ADD PUSH1 0x20 DUP1 SWAP2 DIV MUL PUSH1 0x20 ADD PUSH1 0x40 MLOAD SWAP1 DUP2 ADD PUSH1 0x40 MSTORE DUP1 SWAP3 SWAP2 SWAP1 DUP2 DUP2 MSTORE PUSH1 0x20 ADD DUP3 DUP1 SLOAD PUSH2 0x764 SWAP1 PUSH2 0x23B5 JUMP JUMPDEST DUP1 ISZERO PUSH2 0x7B1 JUMPI DUP1 PUSH1 0x1F LT PUSH2 0x786 JUMPI PUSH2 0x100 DUP1 DUP4 SLOAD DIV MUL DUP4 MSTORE SWAP2 PUSH1 0x20 ADD SWAP2 PUSH2 0x7B1 JUMP JUMPDEST DUP3 ADD SWAP2 SWAP1 PUSH1 0x0 MSTORE PUSH1 0x20 PUSH1 0x0 KECCAK256 SWAP1 JUMPDEST DUP2 SLOAD DUP2 MSTORE SWAP1 PUSH1 0x1 ADD SWAP1 PUSH1 0x20 ADD DUP1 DUP4 GT PUSH2 0x794 JUMPI DUP3 SWAP1 SUB PUSH1 0x1F AND DUP3 ADD SWAP2 JUMPDEST POP POP POP POP POP DUP2 MSTORE PUSH1 0x20 ADD PUSH1 0x4 DUP3 ADD DUP1 SLOAD PUSH2 0x7CA SWAP1 PUSH2 0x23B5 JUMP JUMPDEST DUP1 PUSH1 0x1F ADD PUSH1 0x20 DUP1 SWAP2 DIV MUL PUSH1 0x20 ADD PUSH1 0x40 MLOAD SWAP1 DUP2 ADD PUSH1 0x40 MSTORE DUP1 SWAP3 SWAP2 SWAP1 DUP2 DUP2 MSTORE PUSH1 0x20 ADD DUP3 DUP1 SLOAD PUSH2 0x7F6 SWAP1 PUSH2 0x23B5 JUMP JUMPDEST DUP1 ISZERO PUSH2 0x843 JUMPI DUP1 PUSH1 0x1F LT PUSH2 0x818 JUMPI PUSH2 0x100 DUP1 DUP4 SLOAD DIV MUL DUP4 MSTORE SWAP2 PUSH1 0x20 ADD SWAP2 PUSH2 0x843 JUMP JUMPDEST DUP3 ADD SWAP2 SWAP1 PUSH1 0x0 MSTORE PUSH1 0x20 PUSH1 0x0 KECCAK256 SWAP1 JUMPDEST DUP2 SLOAD DUP2 MSTORE SWAP1 PUSH1 0x1 ADD SWAP1 PUSH1 0x20 ADD DUP1 DUP4 GT PUSH2 0x826 JUMPI DUP3 SWAP1 SUB PUSH1 0x1F AND DUP3 ADD SWAP2 JUMPDEST POP POP POP POP POP DUP2 MSTORE POP POP DUP2 MSTORE PUSH1 0x20 ADD SWAP1 PUSH1 0x1 ADD SWAP1 PUSH2 0x5D7 JUMP JUMPDEST POP POP POP POP SWAP1 POP SWAP1 JUMP JUMPDEST PUSH1 0x60 PUSH1 0x4 DUP3 DUP2 SLOAD DUP2 LT PUSH2 0x87A JUMPI PUSH2 0x879 PUSH2 0x2664 JUMP JUMPDEST JUMPDEST SWAP1 PUSH1 0x0 MSTORE PUSH1 0x20 PUSH1 0x0 KECCAK256 SWAP1 PUSH1 0x2 MUL ADD PUSH1 0x1 ADD DUP1 SLOAD PUSH2 0x896 SWAP1 PUSH2 0x23B5 JUMP JUMPDEST DUP1 PUSH1 0x1F ADD PUSH1 0x20 DUP1 SWAP2 DIV MUL PUSH1 0x20 ADD PUSH1 0x40 MLOAD SWAP1 DUP2 ADD PUSH1 0x40 MSTORE DUP1 SWAP3 SWAP2 SWAP1 DUP2 DUP2 MSTORE PUSH1 0x20 ADD DUP3 DUP1 SLOAD PUSH2 0x8C2 SWAP1 PUSH2 0x23B5 JUMP JUMPDEST DUP1 ISZERO PUSH2 0x90F JUMPI DUP1 PUSH1 0x1F LT PUSH2 0x8E4 JUMPI PUSH2 0x100 DUP1 DUP4 SLOAD DIV MUL DUP4 MSTORE SWAP2 PUSH1 0x20 ADD SWAP2 PUSH2 0x90F JUMP JUMPDEST DUP3 ADD SWAP2 SWAP1 PUSH1 0x0 MSTORE PUSH1 0x20 PUSH1 0x0 KECCAK256 SWAP1 JUMPDEST DUP2 SLOAD DUP2 MSTORE SWAP1 PUSH1 0x1 ADD SWAP1 PUSH1 0x20 ADD DUP1 DUP4 GT PUSH2 0x8F2 JUMPI DUP3 SWAP1 SUB PUSH1 0x1F AND DUP3 ADD SWAP2 JUMPDEST POP POP POP POP POP SWAP1 POP SWAP2 SWAP1 POP JUMP JUMPDEST PUSH1 0x6 SLOAD DUP2 JUMP JUMPDEST PUSH1 0x0 DUP1 PUSH1 0x0 SWAP1 POP JUMPDEST PUSH1 0x6 SLOAD DUP2 LT ISZERO PUSH2 0x9C1 JUMPI DUP3 PUSH20 0xFFFFFFFFFFFFFFFFFFFFFFFFFFFFFFFFFFFFFFFF AND PUSH1 0x7 DUP3 DUP2 SLOAD DUP2 LT PUSH2 0x95E JUMPI PUSH2 0x95D PUSH2 0x2664 JUMP JUMPDEST JUMPDEST SWAP1 PUSH1 0x0 MSTORE PUSH1 0x20 PUSH1 0x0 KECCAK256 ADD PUSH1 0x0 SWAP1 SLOAD SWAP1 PUSH2 0x100 EXP SWAP1 DIV PUSH20 0xFFFFFFFFFFFFFFFFFFFFFFFFFFFFFFFFFFFFFFFF AND PUSH20 0xFFFFFFFFFFFFFFFFFFFFFFFFFFFFFFFFFFFFFFFF AND SUB PUSH2 0x9AE JUMPI PUSH1 0x0 SWAP2 POP POP PUSH2 0x9C7 JUMP JUMPDEST DUP1 DUP1 PUSH2 0x9B9 SWAP1 PUSH2 0x233E JUMP JUMPDEST SWAP2 POP POP PUSH2 0x929 JUMP JUMPDEST POP PUSH1 0x1 SWAP1 POP JUMPDEST SWAP2 SWAP1 POP JUMP JUMPDEST PUSH1 0x60 PUSH1 0x4 DUP1 SLOAD DUP1 PUSH1 0x20 MUL PUSH1 0x20 ADD PUSH1 0x40 MLOAD SWAP1 DUP2 ADD PUSH1 0x40 MSTORE DUP1 SWAP3 SWAP2 SWAP1 DUP2 DUP2 MSTORE PUSH1 0x20 ADD PUSH1 0x0 SWAP1 JUMPDEST DUP3 DUP3 LT ISZERO PUSH2 0xABE JUMPI DUP4 DUP3 SWAP1 PUSH1 0x0 MSTORE PUSH1 0x20 PUSH1 0x0 KECCAK256 SWAP1 PUSH1 0x2 MUL ADD PUSH1 0x40 MLOAD DUP1 PUSH1 0x40 ADD PUSH1 0x40 MSTORE SWAP1 DUP2 PUSH1 0x0 DUP3 ADD SLOAD DUP2 MSTORE PUSH1 0x20 ADD PUSH1 0x1 DUP3 ADD DUP1 SLOAD PUSH2 0xA2D SWAP1 PUSH2 0x23B5 JUMP JUMPDEST DUP1 PUSH1 0x1F ADD PUSH1 0x20 DUP1 SWAP2 DIV MUL PUSH1 0x20 ADD PUSH1 0x40 MLOAD SWAP1 DUP2 ADD PUSH1 0x40 MSTORE DUP1 SWAP3 SWAP2 SWAP1 DUP2 DUP2 MSTORE PUSH1 0x20 ADD DUP3 DUP1 SLOAD PUSH2 0xA59 SWAP1 PUSH2 0x23B5 JUMP JUMPDEST DUP1 ISZERO PUSH2 0xAA6 JUMPI DUP1 PUSH1 0x1F LT PUSH2 0xA7B JUMPI PUSH2 0x100 DUP1 DUP4 SLOAD DIV MUL DUP4 MSTORE SWAP2 PUSH1 0x20 ADD SWAP2 PUSH2 0xAA6 JUMP JUMPDEST DUP3 ADD SWAP2 SWAP1 PUSH1 0x0 MSTORE PUSH1 0x20 PUSH1 0x0 KECCAK256 SWAP1 JUMPDEST DUP2 SLOAD DUP2 MSTORE SWAP1 PUSH1 0x1 ADD SWAP1 PUSH1 0x20 ADD DUP1 DUP4 GT PUSH2 0xA89 JUMPI DUP3 SWAP1 SUB PUSH1 0x1F AND DUP3 ADD SWAP2 JUMPDEST POP POP POP POP POP DUP2 MSTORE POP POP DUP2 MSTORE PUSH1 0x20 ADD SWAP1 PUSH1 0x1 ADD SWAP1 PUSH2 0x9F0 JUMP JUMPDEST POP POP POP POP SWAP1 POP SWAP1 JUMP JUMPDEST PUSH1 0x5 PUSH1 0x20 MSTORE DUP1 PUSH1 0x0 MSTORE PUSH1 0x40 PUSH1 0x0 KECCAK256 PUSH1 0x0 SWAP2 POP SWAP1 POP DUP1 PUSH1 0x0 ADD SLOAD SWAP1 DUP1 PUSH1 0x1 ADD DUP1 SLOAD PUSH2 0xAF0 SWAP1 PUSH2 0x23B5 JUMP JUMPDEST DUP1 PUSH1 0x1F ADD PUSH1 0x20 DUP1 SWAP2 DIV MUL PUSH1 0x20 ADD PUSH1 0x40 MLOAD SWAP1 DUP2 ADD PUSH1 0x40 MSTORE DUP1 SWAP3 SWAP2 SWAP1 DUP2 DUP2 MSTORE PUSH1 0x20 ADD DUP3 DUP1 SLOAD PUSH2 0xB1C SWAP1 PUSH2 0x23B5 JUMP JUMPDEST DUP1 ISZERO PUSH2 0xB69 JUMPI DUP1 PUSH1 0x1F LT PUSH2 0xB3E JUMPI PUSH2 0x100 DUP1 DUP4 SLOAD DIV MUL DUP4 MSTORE SWAP2 PUSH1 0x20 ADD SWAP2 PUSH2 0xB69 JUMP JUMPDEST DUP3 ADD SWAP2 SWAP1 PUSH1 0x0 MSTORE PUSH1 0x20 PUSH1 0x0 KECCAK256 SWAP1 JUMPDEST DUP2 SLOAD DUP2 MSTORE SWAP1 PUSH1 0x1 ADD SWAP1 PUSH1 0x20 ADD DUP1 DUP4 GT PUSH2 0xB4C JUMPI DUP3 SWAP1 SUB PUSH1 0x1F AND DUP3 ADD SWAP2 JUMPDEST POP POP POP POP POP SWAP1 DUP1 PUSH1 0x2 ADD DUP1 SLOAD PUSH2 0xB7E SWAP1 PUSH2 0x23B5 JUMP JUMPDEST DUP1 PUSH1 0x1F ADD PUSH1 0x20 DUP1 SWAP2 DIV MUL PUSH1 0x20 ADD PUSH1 0x40 MLOAD SWAP1 DUP2 ADD PUSH1 0x40 MSTORE DUP1 SWAP3 SWAP2 SWAP1 DUP2 DUP2 MSTORE PUSH1 0x20 ADD DUP3 DUP1 SLOAD PUSH2 0xBAA SWAP1 PUSH2 0x23B5 JUMP JUMPDEST DUP1 ISZERO PUSH2 0xBF7 JUMPI DUP1 PUSH1 0x1F LT PUSH2 0xBCC JUMPI PUSH2 0x100 DUP1 DUP4 SLOAD DIV MUL DUP4 MSTORE SWAP2 PUSH1 0x20 ADD SWAP2 PUSH2 0xBF7 JUMP JUMPDEST DUP3 ADD SWAP2 SWAP1 PUSH1 0x0 MSTORE PUSH1 0x20 PUSH1 0x0 KECCAK256 SWAP1 JUMPDEST DUP2 SLOAD DUP2 MSTORE SWAP1 PUSH1 0x1 ADD SWAP1 PUSH1 0x20 ADD DUP1 DUP4 GT PUSH2 0xBDA JUMPI DUP3 SWAP1 SUB PUSH1 0x1F AND DUP3 ADD SWAP2 JUMPDEST POP POP POP POP POP SWAP1 DUP1 PUSH1 0x3 ADD PUSH1 0x0 SWAP1 SLOAD SWAP1 PUSH2 0x100 EXP SWAP1 DIV PUSH20 0xFFFFFFFFFFFFFFFFFFFFFFFFFFFFFFFFFFFFFFFF AND SWAP1 DUP1 PUSH1 0x4 ADD SLOAD SWAP1 POP DUP6 JUMP JUMPDEST PUSH1 0x2 DUP2 DUP2 SLOAD DUP2 LT PUSH2 0xC3D JUMPI PUSH1 0x0 DUP1 REVERT JUMPDEST SWAP1 PUSH1 0x0 MSTORE PUSH1 0x20 PUSH1 0x0 KECCAK256 SWAP1 PUSH1 0x2 MUL ADD PUSH1 0x0 SWAP2 POP SWAP1 POP DUP1 PUSH1 0x0 ADD DUP1 SLOAD PUSH2 0xC60 SWAP1 PUSH2 0x23B5 JUMP JUMPDEST DUP1 PUSH1 0x1F ADD PUSH1 0x20 DUP1 SWAP2 DIV MUL PUSH1 0x20 ADD PUSH1 0x40 MLOAD SWAP1 DUP2 ADD PUSH1 0x40 MSTORE DUP1 SWAP3 SWAP2 SWAP1 DUP2 DUP2 MSTORE PUSH1 0x20 ADD DUP3 DUP1 SLOAD PUSH2 0xC8C SWAP1 PUSH2 0x23B5 JUMP JUMPDEST DUP1 ISZERO PUSH2 0xCD9 JUMPI DUP1 PUSH1 0x1F LT PUSH2 0xCAE JUMPI PUSH2 0x100 DUP1 DUP4 SLOAD DIV MUL DUP4 MSTORE SWAP2 PUSH1 0x20 ADD SWAP2 PUSH2 0xCD9 JUMP JUMPDEST DUP3 ADD SWAP2 SWAP1 PUSH1 0x0 MSTORE PUSH1 0x20 PUSH1 0x0 KECCAK256 SWAP1 JUMPDEST DUP2 SLOAD DUP2 MSTORE SWAP1 PUSH1 0x1 ADD SWAP1 PUSH1 0x20 ADD DUP1 DUP4 GT PUSH2 0xCBC JUMPI DUP3 SWAP1 SUB PUSH1 0x1F AND DUP3 ADD SWAP2 JUMPDEST POP POP POP POP POP SWAP1 DUP1 PUSH1 0x1 ADD DUP1 SLOAD PUSH2 0xCEE SWAP1 PUSH2 0x23B5 JUMP JUMPDEST DUP1 PUSH1 0x1F ADD PUSH1 0x20 DUP1 SWAP2 DIV MUL PUSH1 0x20 ADD PUSH1 0x40 MLOAD SWAP1 DUP2 ADD PUSH1 0x40 MSTORE DUP1 SWAP3 SWAP2 SWAP1 DUP2 DUP2 MSTORE PUSH1 0x20 ADD DUP3 DUP1 SLOAD PUSH2 0xD1A SWAP1 PUSH2 0x23B5 JUMP JUMPDEST DUP1 ISZERO PUSH2 0xD67 JUMPI DUP1 PUSH1 0x1F LT PUSH2 0xD3C JUMPI PUSH2 0x100 DUP1 DUP4 SLOAD DIV MUL DUP4 MSTORE SWAP2 PUSH1 0x20 ADD SWAP2 PUSH2 0xD67 JUMP JUMPDEST DUP3 ADD SWAP2 SWAP1 PUSH1 0x0 MSTORE PUSH1 0x20 PUSH1 0x0 KECCAK256 SWAP1 JUMPDEST DUP2 SLOAD DUP2 MSTORE SWAP1 PUSH1 0x1 ADD SWAP1 PUSH1 0x20 ADD DUP1 DUP4 GT PUSH2 0xD4A JUMPI DUP3 SWAP1 SUB PUSH1 0x1F AND DUP3 ADD SWAP2 JUMPDEST POP POP POP POP POP SWAP1 POP DUP3 JUMP JUMPDEST PUSH1 0x3 DUP2 DUP2 SLOAD DUP2 LT PUSH2 0xD81 JUMPI PUSH1 0x0 DUP1 REVERT JUMPDEST SWAP1 PUSH1 0x0 MSTORE PUSH1 0x20 PUSH1 0x0 KECCAK256 SWAP1 PUSH1 0x5 MUL ADD PUSH1 0x0 SWAP2 POP SWAP1 POP DUP1 PUSH1 0x0 ADD SLOAD SWAP1 DUP1 PUSH1 0x1 ADD DUP1 SLOAD PUSH2 0xDAA SWAP1 PUSH2 0x23B5 JUMP JUMPDEST DUP1 PUSH1 0x1F ADD PUSH1 0x20 DUP1 SWAP2 DIV MUL PUSH1 0x20 ADD PUSH1 0x40 MLOAD SWAP1 DUP2 ADD PUSH1 0x40 MSTORE DUP1 SWAP3 SWAP2 SWAP1 DUP2 DUP2 MSTORE PUSH1 0x20 ADD DUP3 DUP1 SLOAD PUSH2 0xDD6 SWAP1 PUSH2 0x23B5 JUMP JUMPDEST DUP1 ISZERO PUSH2 0xE23 JUMPI DUP1 PUSH1 0x1F LT PUSH2 0xDF8 JUMPI PUSH2 0x100 DUP1 DUP4 SLOAD DIV MUL DUP4 MSTORE SWAP2 PUSH1 0x20 ADD SWAP2 PUSH2 0xE23 JUMP JUMPDEST DUP3 ADD SWAP2 SWAP1 PUSH1 0x0 MSTORE PUSH1 0x20 PUSH1 0x0 KECCAK256 SWAP1 JUMPDEST DUP2 SLOAD DUP2 MSTORE SWAP1 PUSH1 0x1 ADD SWAP1 PUSH1 0x20 ADD DUP1 DUP4 GT PUSH2 0xE06 JUMPI DUP3 SWAP1 SUB PUSH1 0x1F AND DUP3 ADD SWAP2 JUMPDEST POP POP POP POP POP SWAP1 DUP1 PUSH1 0x2 ADD DUP1 SLOAD PUSH2 0xE38 SWAP1 PUSH2 0x23B5 JUMP JUMPDEST DUP1 PUSH1 0x1F ADD PUSH1 0x20 DUP1 SWAP2 DIV MUL PUSH1 0x20 ADD PUSH1 0x40 MLOAD SWAP1 DUP2 ADD PUSH1 0x40 MSTORE DUP1 SWAP3 SWAP2 SWAP1 DUP2 DUP2 MSTORE PUSH1 0x20 ADD DUP3 DUP1 SLOAD PUSH2 0xE64 SWAP1 PUSH2 0x23B5 JUMP JUMPDEST DUP1 ISZERO PUSH2 0xEB1 JUMPI DUP1 PUSH1 0x1F LT PUSH2 0xE86 JUMPI PUSH2 0x100 DUP1 DUP4 SLOAD DIV MUL DUP4 MSTORE SWAP2 PUSH1 0x20 ADD SWAP2 PUSH2 0xEB1 JUMP JUMPDEST DUP3 ADD SWAP2 SWAP1 PUSH1 0x0 MSTORE PUSH1 0x20 PUSH1 0x0 KECCAK256 SWAP1 JUMPDEST DUP2 SLOAD DUP2 MSTORE SWAP1 PUSH1 0x1 ADD SWAP1 PUSH1 0x20 ADD DUP1 DUP4 GT PUSH2 0xE94 JUMPI DUP3 SWAP1 SUB PUSH1 0x1F AND DUP3 ADD SWAP2 JUMPDEST POP POP POP POP POP SWAP1 DUP1 PUSH1 0x3 ADD DUP1 SLOAD PUSH2 0xEC6 SWAP1 PUSH2 0x23B5 JUMP JUMPDEST DUP1 PUSH1 0x1F ADD PUSH1 0x20 DUP1 SWAP2 DIV MUL PUSH1 0x20 ADD PUSH1 0x40 MLOAD SWAP1 DUP2 ADD PUSH1 0x40 MSTORE DUP1 SWAP3 SWAP2 SWAP1 DUP2 DUP2 MSTORE PUSH1 0x20 ADD DUP3 DUP1 SLOAD PUSH2 0xEF2 SWAP1 PUSH2 0x23B5 JUMP JUMPDEST DUP1 ISZERO PUSH2 0xF3F JUMPI DUP1 PUSH1 0x1F LT PUSH2 0xF14 JUMPI PUSH2 0x100 DUP1 DUP4 SLOAD DIV MUL DUP4 MSTORE SWAP2 PUSH1 0x20 ADD SWAP2 PUSH2 0xF3F JUMP JUMPDEST DUP3 ADD SWAP2 SWAP1 PUSH1 0x0 MSTORE PUSH1 0x20 PUSH1 0x0 KECCAK256 SWAP1 JUMPDEST DUP2 SLOAD DUP2 MSTORE SWAP1 PUSH1 0x1 ADD SWAP1 PUSH1 0x20 ADD DUP1 DUP4 GT PUSH2 0xF22 JUMPI DUP3 SWAP1 SUB PUSH1 0x1F AND DUP3 ADD SWAP2 JUMPDEST POP POP POP POP POP SWAP1 DUP1 PUSH1 0x4 ADD DUP1 SLOAD PUSH2 0xF54 SWAP1 PUSH2 0x23B5 JUMP JUMPDEST DUP1 PUSH1 0x1F ADD PUSH1 0x20 DUP1 SWAP2 DIV MUL PUSH1 0x20 ADD PUSH1 0x40 MLOAD SWAP1 DUP2 ADD PUSH1 0x40 MSTORE DUP1 SWAP3 SWAP2 SWAP1 DUP2 DUP2 MSTORE PUSH1 0x20 ADD DUP3 DUP1 SLOAD PUSH2 0xF80 SWAP1 PUSH2 0x23B5 JUMP JUMPDEST DUP1 ISZERO PUSH2 0xFCD JUMPI DUP1 PUSH1 0x1F LT PUSH2 0xFA2 JUMPI PUSH2 0x100 DUP1 DUP4 SLOAD DIV MUL DUP4 MSTORE SWAP2 PUSH1 0x20 ADD SWAP2 PUSH2 0xFCD JUMP JUMPDEST DUP3 ADD SWAP2 SWAP1 PUSH1 0x0 MSTORE PUSH1 0x20 PUSH1 0x0 KECCAK256 SWAP1 JUMPDEST DUP2 SLOAD DUP2 MSTORE SWAP1 PUSH1 0x1 ADD SWAP1 PUSH1 0x20 ADD DUP1 DUP4 GT PUSH2 0xFB0 JUMPI DUP3 SWAP1 SUB PUSH1 0x1F AND DUP3 ADD SWAP2 JUMPDEST POP POP POP POP POP SWAP1 POP DUP6 JUMP JUMPDEST PUSH1 0x0 PUSH1 0x40 MLOAD DUP1 PUSH1 0x40 ADD PUSH1 0x40 MSTORE DUP1 PUSH1 0x1 SLOAD DUP2 MSTORE PUSH1 0x20 ADD DUP4 DUP2 MSTORE POP SWAP1 POP PUSH1 0x1 PUSH1 0x0 DUP2 SLOAD DUP1 SWAP3 SWAP2 SWAP1 PUSH2 0x1005 SWAP1 PUSH2 0x233E JUMP JUMPDEST SWAP2 SWAP1 POP SSTORE POP PUSH1 0x4 DUP2 SWAP1 DUP1 PUSH1 0x1 DUP2 SLOAD ADD DUP1 DUP3 SSTORE DUP1 SWAP2 POP POP PUSH1 0x1 SWAP1 SUB SWAP1 PUSH1 0x0 MSTORE PUSH1 0x20 PUSH1 0x0 KECCAK256 SWAP1 PUSH1 0x2 MUL ADD PUSH1 0x0 SWAP1 SWAP2 SWAP1 SWAP2 SWAP1 SWAP2 POP PUSH1 0x0 DUP3 ADD MLOAD DUP2 PUSH1 0x0 ADD SSTORE PUSH1 0x20 DUP3 ADD MLOAD DUP2 PUSH1 0x1 ADD SWAP1 DUP2 PUSH2 0x1055 SWAP2 SWAP1 PUSH2 0x2592 JUMP JUMPDEST POP POP POP POP POP JUMP JUMPDEST PUSH1 0x60 PUSH1 0x2 DUP1 SLOAD DUP1 PUSH1 0x20 MUL PUSH1 0x20 ADD PUSH1 0x40 MLOAD SWAP1 DUP2 ADD PUSH1 0x40 MSTORE DUP1 SWAP3 SWAP2 SWAP1 DUP2 DUP2 MSTORE PUSH1 0x20 ADD PUSH1 0x0 SWAP1 JUMPDEST DUP3 DUP3 LT ISZERO PUSH2 0x11D6 JUMPI DUP4 DUP3 SWAP1 PUSH1 0x0 MSTORE PUSH1 0x20 PUSH1 0x0 KECCAK256 SWAP1 PUSH1 0x2 MUL ADD PUSH1 0x40 MLOAD DUP1 PUSH1 0x40 ADD PUSH1 0x40 MSTORE SWAP1 DUP2 PUSH1 0x0 DUP3 ADD DUP1 SLOAD PUSH2 0x10B3 SWAP1 PUSH2 0x23B5 JUMP JUMPDEST DUP1 PUSH1 0x1F ADD PUSH1 0x20 DUP1 SWAP2 DIV MUL PUSH1 0x20 ADD PUSH1 0x40 MLOAD SWAP1 DUP2 ADD PUSH1 0x40 MSTORE DUP1 SWAP3 SWAP2 SWAP1 DUP2 DUP2 MSTORE PUSH1 0x20 ADD DUP3 DUP1 SLOAD PUSH2 0x10DF SWAP1 PUSH2 0x23B5 JUMP JUMPDEST DUP1 ISZERO PUSH2 0x112C JUMPI DUP1 PUSH1 0x1F LT PUSH2 0x1101 JUMPI PUSH2 0x100 DUP1 DUP4 SLOAD DIV MUL DUP4 MSTORE SWAP2 PUSH1 0x20 ADD SWAP2 PUSH2 0x112C JUMP JUMPDEST DUP3 ADD SWAP2 SWAP1 PUSH1 0x0 MSTORE PUSH1 0x20 PUSH1 0x0 KECCAK256 SWAP1 JUMPDEST DUP2 SLOAD DUP2 MSTORE SWAP1 PUSH1 0x1 ADD SWAP1 PUSH1 0x20 ADD DUP1 DUP4 GT PUSH2 0x110F JUMPI DUP3 SWAP1 SUB PUSH1 0x1F AND DUP3 ADD SWAP2 JUMPDEST POP POP POP POP POP DUP2 MSTORE PUSH1 0x20 ADD PUSH1 0x1 DUP3 ADD DUP1 SLOAD PUSH2 0x1145 SWAP1 PUSH2 0x23B5 JUMP JUMPDEST DUP1 PUSH1 0x1F ADD PUSH1 0x20 DUP1 SWAP2 DIV MUL PUSH1 0x20 ADD PUSH1 0x40 MLOAD SWAP1 DUP2 ADD PUSH1 0x40 MSTORE DUP1 SWAP3 SWAP2 SWAP1 DUP2 DUP2 MSTORE PUSH1 0x20 ADD DUP3 DUP1 SLOAD PUSH2 0x1171 SWAP1 PUSH2 0x23B5 JUMP JUMPDEST DUP1 ISZERO PUSH2 0x11BE JUMPI DUP1 PUSH1 0x1F LT PUSH2 0x1193 JUMPI PUSH2 0x100 DUP1 DUP4 SLOAD DIV MUL DUP4 MSTORE SWAP2 PUSH1 0x20 ADD SWAP2 PUSH2 0x11BE JUMP JUMPDEST DUP3 ADD SWAP2 SWAP1 PUSH1 0x0 MSTORE PUSH1 0x20 PUSH1 0x0 KECCAK256 SWAP1 JUMPDEST DUP2 SLOAD DUP2 MSTORE SWAP1 PUSH1 0x1 ADD SWAP1 PUSH1 0x20 ADD DUP1 DUP4 GT PUSH2 0x11A1 JUMPI DUP3 SWAP1 SUB PUSH1 0x1F AND DUP3 ADD SWAP2 JUMPDEST POP POP POP POP POP DUP2 MSTORE POP POP DUP2 MSTORE PUSH1 0x20 ADD SWAP1 PUSH1 0x1 ADD SWAP1 PUSH2 0x1080 JUMP JUMPDEST POP POP POP POP SWAP1 POP SWAP1 JUMP JUMPDEST PUSH1 0x60 PUSH1 0x0 PUSH1 0x6 SLOAD PUSH8 0xFFFFFFFFFFFFFFFF DUP2 GT ISZERO PUSH2 0x11FF JUMPI PUSH2 0x11FE PUSH2 0x16DC JUMP JUMPDEST JUMPDEST PUSH1 0x40 MLOAD SWAP1 DUP1 DUP3 MSTORE DUP1 PUSH1 0x20 MUL PUSH1 0x20 ADD DUP3 ADD PUSH1 0x40 MSTORE DUP1 ISZERO PUSH2 0x1238 JUMPI DUP2 PUSH1 0x20 ADD JUMPDEST PUSH2 0x1225 PUSH2 0x1668 JUMP JUMPDEST DUP2 MSTORE PUSH1 0x20 ADD SWAP1 PUSH1 0x1 SWAP1 SUB SWAP1 DUP2 PUSH2 0x121D JUMPI SWAP1 POP JUMPDEST POP SWAP1 POP PUSH1 0x0 JUMPDEST PUSH1 0x6 SLOAD DUP2 LT ISZERO PUSH2 0x148F JUMPI PUSH1 0x5 PUSH1 0x0 PUSH1 0x7 DUP4 DUP2 SLOAD DUP2 LT PUSH2 0x1260 JUMPI PUSH2 0x125F PUSH2 0x2664 JUMP JUMPDEST JUMPDEST SWAP1 PUSH1 0x0 MSTORE PUSH1 0x20 PUSH1 0x0 KECCAK256 ADD PUSH1 0x0 SWAP1 SLOAD SWAP1 PUSH2 0x100 EXP SWAP1 DIV PUSH20 0xFFFFFFFFFFFFFFFFFFFFFFFFFFFFFFFFFFFFFFFF AND PUSH20 0xFFFFFFFFFFFFFFFFFFFFFFFFFFFFFFFFFFFFFFFF AND PUSH20 0xFFFFFFFFFFFFFFFFFFFFFFFFFFFFFFFFFFFFFFFF AND DUP2 MSTORE PUSH1 0x20 ADD SWAP1 DUP2 MSTORE PUSH1 0x20 ADD PUSH1 0x0 KECCAK256 PUSH1 0x40 MLOAD DUP1 PUSH1 0xA0 ADD PUSH1 0x40 MSTORE SWAP1 DUP2 PUSH1 0x0 DUP3 ADD SLOAD DUP2 MSTORE PUSH1 0x20 ADD PUSH1 0x1 DUP3 ADD DUP1 SLOAD PUSH2 0x12EA SWAP1 PUSH2 0x23B5 JUMP JUMPDEST DUP1 PUSH1 0x1F ADD PUSH1 0x20 DUP1 SWAP2 DIV MUL PUSH1 0x20 ADD PUSH1 0x40 MLOAD SWAP1 DUP2 ADD PUSH1 0x40 MSTORE DUP1 SWAP3 SWAP2 SWAP1 DUP2 DUP2 MSTORE PUSH1 0x20 ADD DUP3 DUP1 SLOAD PUSH2 0x1316 SWAP1 PUSH2 0x23B5 JUMP JUMPDEST DUP1 ISZERO PUSH2 0x1363 JUMPI DUP1 PUSH1 0x1F LT PUSH2 0x1338 JUMPI PUSH2 0x100 DUP1 DUP4 SLOAD DIV MUL DUP4 MSTORE SWAP2 PUSH1 0x20 ADD SWAP2 PUSH2 0x1363 JUMP JUMPDEST DUP3 ADD SWAP2 SWAP1 PUSH1 0x0 MSTORE PUSH1 0x20 PUSH1 0x0 KECCAK256 SWAP1 JUMPDEST DUP2 SLOAD DUP2 MSTORE SWAP1 PUSH1 0x1 ADD SWAP1 PUSH1 0x20 ADD DUP1 DUP4 GT PUSH2 0x1346 JUMPI DUP3 SWAP1 SUB PUSH1 0x1F AND DUP3 ADD SWAP2 JUMPDEST POP POP POP POP POP DUP2 MSTORE PUSH1 0x20 ADD PUSH1 0x2 DUP3 ADD DUP1 SLOAD PUSH2 0x137C SWAP1 PUSH2 0x23B5 JUMP JUMPDEST DUP1 PUSH1 0x1F ADD PUSH1 0x20 DUP1 SWAP2 DIV MUL PUSH1 0x20 ADD PUSH1 0x40 MLOAD SWAP1 DUP2 ADD PUSH1 0x40 MSTORE DUP1 SWAP3 SWAP2 SWAP1 DUP2 DUP2 MSTORE PUSH1 0x20 ADD DUP3 DUP1 SLOAD PUSH2 0x13A8 SWAP1 PUSH2 0x23B5 JUMP JUMPDEST DUP1 ISZERO PUSH2 0x13F5 JUMPI DUP1 PUSH1 0x1F LT PUSH2 0x13CA JUMPI PUSH2 0x100 DUP1 DUP4 SLOAD DIV MUL DUP4 MSTORE SWAP2 PUSH1 0x20 ADD SWAP2 PUSH2 0x13F5 JUMP JUMPDEST DUP3 ADD SWAP2 SWAP1 PUSH1 0x0 MSTORE PUSH1 0x20 PUSH1 0x0 KECCAK256 SWAP1 JUMPDEST DUP2 SLOAD DUP2 MSTORE SWAP1 PUSH1 0x1 ADD SWAP1 PUSH1 0x20 ADD DUP1 DUP4 GT PUSH2 0x13D8 JUMPI DUP3 SWAP1 SUB PUSH1 0x1F AND DUP3 ADD SWAP2 JUMPDEST POP POP POP POP POP DUP2 MSTORE PUSH1 0x20 ADD PUSH1 0x3 DUP3 ADD PUSH1 0x0 SWAP1 SLOAD SWAP1 PUSH2 0x100 EXP SWAP1 DIV PUSH20 0xFFFFFFFFFFFFFFFFFFFFFFFFFFFFFFFFFFFFFFFF AND PUSH20 0xFFFFFFFFFFFFFFFFFFFFFFFFFFFFFFFFFFFFFFFF AND PUSH20 0xFFFFFFFFFFFFFFFFFFFFFFFFFFFFFFFFFFFFFFFF AND DUP2 MSTORE PUSH1 0x20 ADD PUSH1 0x4 DUP3 ADD SLOAD DUP2 MSTORE POP POP DUP3 DUP3 DUP2 MLOAD DUP2 LT PUSH2 0x1471 JUMPI PUSH2 0x1470 PUSH2 0x2664 JUMP JUMPDEST JUMPDEST PUSH1 0x20 MUL PUSH1 0x20 ADD ADD DUP2 SWAP1 MSTORE POP DUP1 DUP1 PUSH2 0x1487 SWAP1 PUSH2 0x233E JUMP JUMPDEST SWAP2 POP POP PUSH2 0x123E JUMP JUMPDEST POP DUP1 SWAP2 POP POP SWAP1 JUMP JUMPDEST PUSH2 0x14A0 DUP2 PUSH2 0x921 JUMP JUMPDEST PUSH2 0x14DF JUMPI PUSH1 0x40 MLOAD PUSH32 0x8C379A000000000000000000000000000000000000000000000000000000000 DUP2 MSTORE PUSH1 0x4 ADD PUSH2 0x14D6 SWAP1 PUSH2 0x26DF JUMP JUMPDEST PUSH1 0x40 MLOAD DUP1 SWAP2 SUB SWAP1 REVERT JUMPDEST PUSH1 0x40 MLOAD DUP1 PUSH1 0xA0 ADD PUSH1 0x40 MSTORE DUP1 PUSH1 0x6 SLOAD DUP2 MSTORE PUSH1 0x20 ADD DUP6 DUP2 MSTORE PUSH1 0x20 ADD DUP5 DUP2 MSTORE PUSH1 0x20 ADD DUP3 PUSH20 0xFFFFFFFFFFFFFFFFFFFFFFFFFFFFFFFFFFFFFFFF AND DUP2 MSTORE PUSH1 0x20 ADD DUP4 DUP2 MSTORE POP PUSH1 0x5 PUSH1 0x0 DUP4 PUSH20 0xFFFFFFFFFFFFFFFFFFFFFFFFFFFFFFFFFFFFFFFF AND PUSH20 0xFFFFFFFFFFFFFFFFFFFFFFFFFFFFFFFFFFFFFFFF AND DUP2 MSTORE PUSH1 0x20 ADD SWAP1 DUP2 MSTORE PUSH1 0x20 ADD PUSH1 0x0 KECCAK256 PUSH1 0x0 DUP3 ADD MLOAD DUP2 PUSH1 0x0 ADD SSTORE PUSH1 0x20 DUP3 ADD MLOAD DUP2 PUSH1 0x1 ADD SWAP1 DUP2 PUSH2 0x157C SWAP2 SWAP1 PUSH2 0x2592 JUMP JUMPDEST POP PUSH1 0x40 DUP3 ADD MLOAD DUP2 PUSH1 0x2 ADD SWAP1 DUP2 PUSH2 0x1592 SWAP2 SWAP1 PUSH2 0x2592 JUMP JUMPDEST POP PUSH1 0x60 DUP3 ADD MLOAD DUP2 PUSH1 0x3 ADD PUSH1 0x0 PUSH2 0x100 EXP DUP2 SLOAD DUP2 PUSH20 0xFFFFFFFFFFFFFFFFFFFFFFFFFFFFFFFFFFFFFFFF MUL NOT AND SWAP1 DUP4 PUSH20 0xFFFFFFFFFFFFFFFFFFFFFFFFFFFFFFFFFFFFFFFF AND MUL OR SWAP1 SSTORE POP PUSH1 0x80 DUP3 ADD MLOAD DUP2 PUSH1 0x4 ADD SSTORE SWAP1 POP POP PUSH1 0x7 DUP2 SWAP1 DUP1 PUSH1 0x1 DUP2 SLOAD ADD DUP1 DUP3 SSTORE DUP1 SWAP2 POP POP PUSH1 0x1 SWAP1 SUB SWAP1 PUSH1 0x0 MSTORE PUSH1 0x20 PUSH1 0x0 KECCAK256 ADD PUSH1 0x0 SWAP1 SWAP2 SWAP1 SWAP2 SWAP1 SWAP2 PUSH2 0x100 EXP DUP2 SLOAD DUP2 PUSH20 0xFFFFFFFFFFFFFFFFFFFFFFFFFFFFFFFFFFFFFFFF MUL NOT AND SWAP1 DUP4 PUSH20 0xFFFFFFFFFFFFFFFFFFFFFFFFFFFFFFFFFFFFFFFF AND MUL OR SWAP1 SSTORE POP PUSH1 0x6 PUSH1 0x0 DUP2 SLOAD DUP1 SWAP3 SWAP2 SWAP1 PUSH2 0x165D SWAP1 PUSH2 0x233E JUMP JUMPDEST SWAP2 SWAP1 POP SSTORE POP POP POP POP POP JUMP JUMPDEST PUSH1 0x40 MLOAD DUP1 PUSH1 0xA0 ADD PUSH1 0x40 MSTORE DUP1 PUSH1 0x0 DUP2 MSTORE PUSH1 0x20 ADD PUSH1 0x60 DUP2 MSTORE PUSH1 0x20 ADD PUSH1 0x60 DUP2 MSTORE PUSH1 0x20 ADD PUSH1 0x0 PUSH20 0xFFFFFFFFFFFFFFFFFFFFFFFFFFFFFFFFFFFFFFFF AND DUP2 MSTORE PUSH1 0x20 ADD PUSH1 0x0 DUP2 MSTORE POP SWAP1 JUMP JUMPDEST PUSH1 0x0 PUSH1 0x40 MLOAD SWAP1 POP SWAP1 JUMP JUMPDEST PUSH1 0x0 DUP1 REVERT JUMPDEST PUSH1 0x0 DUP1 REVERT JUMPDEST PUSH1 0x0 DUP1 REVERT JUMPDEST PUSH1 0x0 DUP1 REVERT JUMPDEST PUSH1 0x0 PUSH1 0x1F NOT PUSH1 0x1F DUP4 ADD AND SWAP1 POP SWAP2 SWAP1 POP JUMP JUMPDEST PUSH32 0x4E487B7100000000000000000000000000000000000000000000000000000000 PUSH1 0x0 MSTORE PUSH1 0x41 PUSH1 0x4 MSTORE PUSH1 0x24 PUSH1 0x0 REVERT JUMPDEST PUSH2 0x1714 DUP3 PUSH2 0x16CB JUMP JUMPDEST DUP2 ADD DUP2 DUP2 LT PUSH8 0xFFFFFFFFFFFFFFFF DUP3 GT OR ISZERO PUSH2 0x1733 JUMPI PUSH2 0x1732 PUSH2 0x16DC JUMP JUMPDEST JUMPDEST DUP1 PUSH1 0x40 MSTORE POP POP POP JUMP JUMPDEST PUSH1 0x0 PUSH2 0x1746 PUSH2 0x16AD JUMP JUMPDEST SWAP1 POP PUSH2 0x1752 DUP3 DUP3 PUSH2 0x170B JUMP JUMPDEST SWAP2 SWAP1 POP JUMP JUMPDEST PUSH1 0x0 PUSH8 0xFFFFFFFFFFFFFFFF DUP3 GT ISZERO PUSH2 0x1772 JUMPI PUSH2 0x1771 PUSH2 0x16DC JUMP JUMPDEST JUMPDEST PUSH2 0x177B DUP3 PUSH2 0x16CB JUMP JUMPDEST SWAP1 POP PUSH1 0x20 DUP2 ADD SWAP1 POP SWAP2 SWAP1 POP JUMP JUMPDEST DUP3 DUP2 DUP4 CALLDATACOPY PUSH1 0x0 DUP4 DUP4 ADD MSTORE POP POP POP JUMP JUMPDEST PUSH1 0x0 PUSH2 0x17AA PUSH2 0x17A5 DUP5 PUSH2 0x1757 JUMP JUMPDEST PUSH2 0x173C JUMP JUMPDEST SWAP1 POP DUP3 DUP2 MSTORE PUSH1 0x20 DUP2 ADD DUP5 DUP5 DUP5 ADD GT ISZERO PUSH2 0x17C6 JUMPI PUSH2 0x17C5 PUSH2 0x16C6 JUMP JUMPDEST JUMPDEST PUSH2 0x17D1 DUP5 DUP3 DUP6 PUSH2 0x1788 JUMP JUMPDEST POP SWAP4 SWAP3 POP POP POP JUMP JUMPDEST PUSH1 0x0 DUP3 PUSH1 0x1F DUP4 ADD SLT PUSH2 0x17EE JUMPI PUSH2 0x17ED PUSH2 0x16C1 JUMP JUMPDEST JUMPDEST DUP2 CALLDATALOAD PUSH2 0x17FE DUP5 DUP3 PUSH1 0x20 DUP7 ADD PUSH2 0x1797 JUMP JUMPDEST SWAP2 POP POP SWAP3 SWAP2 POP POP JUMP JUMPDEST PUSH1 0x0 DUP1 PUSH1 0x0 DUP1 PUSH1 0x80 DUP6 DUP8 SUB SLT ISZERO PUSH2 0x1821 JUMPI PUSH2 0x1820 PUSH2 0x16B7 JUMP JUMPDEST JUMPDEST PUSH1 0x0 DUP6 ADD CALLDATALOAD PUSH8 0xFFFFFFFFFFFFFFFF DUP2 GT ISZERO PUSH2 0x183F JUMPI PUSH2 0x183E PUSH2 0x16BC JUMP JUMPDEST JUMPDEST PUSH2 0x184B DUP8 DUP3 DUP9 ADD PUSH2 0x17D9 JUMP JUMPDEST SWAP5 POP POP PUSH1 0x20 DUP6 ADD CALLDATALOAD PUSH8 0xFFFFFFFFFFFFFFFF DUP2 GT ISZERO PUSH2 0x186C JUMPI PUSH2 0x186B PUSH2 0x16BC JUMP JUMPDEST JUMPDEST PUSH2 0x1878 DUP8 DUP3 DUP9 ADD PUSH2 0x17D9 JUMP JUMPDEST SWAP4 POP POP PUSH1 0x40 DUP6 ADD CALLDATALOAD PUSH8 0xFFFFFFFFFFFFFFFF DUP2 GT ISZERO PUSH2 0x1899 JUMPI PUSH2 0x1898 PUSH2 0x16BC JUMP JUMPDEST JUMPDEST PUSH2 0x18A5 DUP8 DUP3 DUP9 ADD PUSH2 0x17D9 JUMP JUMPDEST SWAP3 POP POP PUSH1 0x60 DUP6 ADD CALLDATALOAD PUSH8 0xFFFFFFFFFFFFFFFF DUP2 GT ISZERO PUSH2 0x18C6 JUMPI PUSH2 0x18C5 PUSH2 0x16BC JUMP JUMPDEST JUMPDEST PUSH2 0x18D2 DUP8 DUP3 DUP9 ADD PUSH2 0x17D9 JUMP JUMPDEST SWAP2 POP POP SWAP3 SWAP6 SWAP2 SWAP5 POP SWAP3 POP JUMP JUMPDEST PUSH1 0x0 DUP2 SWAP1 POP SWAP2 SWAP1 POP JUMP JUMPDEST PUSH2 0x18F1 DUP2 PUSH2 0x18DE JUMP JUMPDEST DUP2 EQ PUSH2 0x18FC JUMPI PUSH1 0x0 DUP1 REVERT JUMPDEST POP JUMP JUMPDEST PUSH1 0x0 DUP2 CALLDATALOAD SWAP1 POP PUSH2 0x190E DUP2 PUSH2 0x18E8 JUMP JUMPDEST SWAP3 SWAP2 POP POP JUMP JUMPDEST PUSH1 0x0 PUSH1 0x20 DUP3 DUP5 SUB SLT ISZERO PUSH2 0x192A JUMPI PUSH2 0x1929 PUSH2 0x16B7 JUMP JUMPDEST JUMPDEST PUSH1 0x0 PUSH2 0x1938 DUP5 DUP3 DUP6 ADD PUSH2 0x18FF JUMP JUMPDEST SWAP2 POP POP SWAP3 SWAP2 POP POP JUMP JUMPDEST PUSH2 0x194A DUP2 PUSH2 0x18DE JUMP JUMPDEST DUP3 MSTORE POP POP JUMP JUMPDEST PUSH1 0x0 DUP2 MLOAD SWAP1 POP SWAP2 SWAP1 POP JUMP JUMPDEST PUSH1 0x0 DUP3 DUP3 MSTORE PUSH1 0x20 DUP3 ADD SWAP1 POP SWAP3 SWAP2 POP POP JUMP JUMPDEST PUSH1 0x0 JUMPDEST DUP4 DUP2 LT ISZERO PUSH2 0x198A JUMPI DUP1 DUP3 ADD MLOAD DUP2 DUP5 ADD MSTORE PUSH1 0x20 DUP2 ADD SWAP1 POP PUSH2 0x196F JUMP JUMPDEST PUSH1 0x0 DUP5 DUP5 ADD MSTORE POP POP POP POP JUMP JUMPDEST PUSH1 0x0 PUSH2 0x19A1 DUP3 PUSH2 0x1950 JUMP JUMPDEST PUSH2 0x19AB DUP2 DUP6 PUSH2 0x195B JUMP JUMPDEST SWAP4 POP PUSH2 0x19BB DUP2 DUP6 PUSH1 0x20 DUP7 ADD PUSH2 0x196C JUMP JUMPDEST PUSH2 0x19C4 DUP2 PUSH2 0x16CB JUMP JUMPDEST DUP5 ADD SWAP2 POP POP SWAP3 SWAP2 POP POP JUMP JUMPDEST PUSH1 0x0 PUSH1 0x40 DUP3 ADD SWAP1 POP PUSH2 0x19E4 PUSH1 0x0 DUP4 ADD DUP6 PUSH2 0x1941 JUMP JUMPDEST DUP2 DUP2 SUB PUSH1 0x20 DUP4 ADD MSTORE PUSH2 0x19F6 DUP2 DUP5 PUSH2 0x1996 JUMP JUMPDEST SWAP1 POP SWAP4 SWAP3 POP POP POP JUMP JUMPDEST PUSH1 0x0 PUSH20 0xFFFFFFFFFFFFFFFFFFFFFFFFFFFFFFFFFFFFFFFF DUP3 AND SWAP1 POP SWAP2 SWAP1 POP JUMP JUMPDEST PUSH1 0x0 PUSH2 0x1A2A DUP3 PUSH2 0x19FF JUMP JUMPDEST SWAP1 POP SWAP2 SWAP1 POP JUMP JUMPDEST PUSH2 0x1A3A DUP2 PUSH2 0x1A1F JUMP JUMPDEST DUP3 MSTORE POP POP JUMP JUMPDEST PUSH1 0x0 PUSH1 0x20 DUP3 ADD SWAP1 POP PUSH2 0x1A55 PUSH1 0x0 DUP4 ADD DUP5 PUSH2 0x1A31 JUMP JUMPDEST SWAP3 SWAP2 POP POP JUMP JUMPDEST PUSH1 0x0 DUP1 PUSH1 0x40 DUP4 DUP6 SUB SLT ISZERO PUSH2 0x1A72 JUMPI PUSH2 0x1A71 PUSH2 0x16B7 JUMP JUMPDEST JUMPDEST PUSH1 0x0 DUP4 ADD CALLDATALOAD PUSH8 0xFFFFFFFFFFFFFFFF DUP2 GT ISZERO PUSH2 0x1A90 JUMPI PUSH2 0x1A8F PUSH2 0x16BC JUMP JUMPDEST JUMPDEST PUSH2 0x1A9C DUP6 DUP3 DUP7 ADD PUSH2 0x17D9 JUMP JUMPDEST SWAP3 POP POP PUSH1 0x20 DUP4 ADD CALLDATALOAD PUSH8 0xFFFFFFFFFFFFFFFF DUP2 GT ISZERO PUSH2 0x1ABD JUMPI PUSH2 0x1ABC PUSH2 0x16BC JUMP JUMPDEST JUMPDEST PUSH2 0x1AC9 DUP6 DUP3 DUP7 ADD PUSH2 0x17D9 JUMP JUMPDEST SWAP2 POP POP SWAP3 POP SWAP3 SWAP1 POP JUMP JUMPDEST PUSH1 0x0 DUP2 MLOAD SWAP1 POP SWAP2 SWAP1 POP JUMP JUMPDEST PUSH1 0x0 DUP3 DUP3 MSTORE PUSH1 0x20 DUP3 ADD SWAP1 POP SWAP3 SWAP2 POP POP JUMP JUMPDEST PUSH1 0x0 DUP2 SWAP1 POP PUSH1 0x20 DUP3 ADD SWAP1 POP SWAP2 SWAP1 POP JUMP JUMPDEST PUSH2 0x1B08 DUP2 PUSH2 0x18DE JUMP JUMPDEST DUP3 MSTORE POP POP JUMP JUMPDEST PUSH1 0x0 DUP3 DUP3 MSTORE PUSH1 0x20 DUP3 ADD SWAP1 POP SWAP3 SWAP2 POP POP JUMP JUMPDEST PUSH1 0x0 PUSH2 0x1B2A DUP3 PUSH2 0x1950 JUMP JUMPDEST PUSH2 0x1B34 DUP2 DUP6 PUSH2 0x1B0E JUMP JUMPDEST SWAP4 POP PUSH2 0x1B44 DUP2 DUP6 PUSH1 0x20 DUP7 ADD PUSH2 0x196C JUMP JUMPDEST PUSH2 0x1B4D DUP2 PUSH2 0x16CB JUMP JUMPDEST DUP5 ADD SWAP2 POP POP SWAP3 SWAP2 POP POP JUMP JUMPDEST PUSH1 0x0 PUSH1 0xA0 DUP4 ADD PUSH1 0x0 DUP4 ADD MLOAD PUSH2 0x1B70 PUSH1 0x0 DUP7 ADD DUP3 PUSH2 0x1AFF JUMP JUMPDEST POP PUSH1 0x20 DUP4 ADD MLOAD DUP5 DUP3 SUB PUSH1 0x20 DUP7 ADD MSTORE PUSH2 0x1B88 DUP3 DUP3 PUSH2 0x1B1F JUMP JUMPDEST SWAP2 POP POP PUSH1 0x40 DUP4 ADD MLOAD DUP5 DUP3 SUB PUSH1 0x40 DUP7 ADD MSTORE PUSH2 0x1BA2 DUP3 DUP3 PUSH2 0x1B1F JUMP JUMPDEST SWAP2 POP POP PUSH1 0x60 DUP4 ADD MLOAD DUP5 DUP3 SUB PUSH1 0x60 DUP7 ADD MSTORE PUSH2 0x1BBC DUP3 DUP3 PUSH2 0x1B1F JUMP JUMPDEST SWAP2 POP POP PUSH1 0x80 DUP4 ADD MLOAD DUP5 DUP3 SUB PUSH1 0x80 DUP7 ADD MSTORE PUSH2 0x1BD6 DUP3 DUP3 PUSH2 0x1B1F JUMP JUMPDEST SWAP2 POP POP DUP1 SWAP2 POP POP SWAP3 SWAP2 POP POP JUMP JUMPDEST PUSH1 0x0 PUSH2 0x1BEF DUP4 DUP4 PUSH2 0x1B58 JUMP JUMPDEST SWAP1 POP SWAP3 SWAP2 POP POP JUMP JUMPDEST PUSH1 0x0 PUSH1 0x20 DUP3 ADD SWAP1 POP SWAP2 SWAP1 POP JUMP JUMPDEST PUSH1 0x0 PUSH2 0x1C0F DUP3 PUSH2 0x1AD3 JUMP JUMPDEST PUSH2 0x1C19 DUP2 DUP6 PUSH2 0x1ADE JUMP JUMPDEST SWAP4 POP DUP4 PUSH1 0x20 DUP3 MUL DUP6 ADD PUSH2 0x1C2B DUP6 PUSH2 0x1AEF JUMP JUMPDEST DUP1 PUSH1 0x0 JUMPDEST DUP6 DUP2 LT ISZERO PUSH2 0x1C67 JUMPI DUP5 DUP5 SUB DUP10 MSTORE DUP2 MLOAD PUSH2 0x1C48 DUP6 DUP3 PUSH2 0x1BE3 JUMP JUMPDEST SWAP5 POP PUSH2 0x1C53 DUP4 PUSH2 0x1BF7 JUMP JUMPDEST SWAP3 POP PUSH1 0x20 DUP11 ADD SWAP10 POP POP PUSH1 0x1 DUP2 ADD SWAP1 POP PUSH2 0x1C2F JUMP JUMPDEST POP DUP3 SWAP8 POP DUP8 SWAP6 POP POP POP POP POP POP SWAP3 SWAP2 POP POP JUMP JUMPDEST PUSH1 0x0 PUSH1 0x20 DUP3 ADD SWAP1 POP DUP2 DUP2 SUB PUSH1 0x0 DUP4 ADD MSTORE PUSH2 0x1C93 DUP2 DUP5 PUSH2 0x1C04 JUMP JUMPDEST SWAP1 POP SWAP3 SWAP2 POP POP JUMP JUMPDEST PUSH1 0x0 PUSH1 0x20 DUP3 ADD SWAP1 POP DUP2 DUP2 SUB PUSH1 0x0 DUP4 ADD MSTORE PUSH2 0x1CB5 DUP2 DUP5 PUSH2 0x1996 JUMP JUMPDEST SWAP1 POP SWAP3 SWAP2 POP POP JUMP JUMPDEST PUSH1 0x0 PUSH1 0x20 DUP3 ADD SWAP1 POP PUSH2 0x1CD2 PUSH1 0x0 DUP4 ADD DUP5 PUSH2 0x1941 JUMP JUMPDEST SWAP3 SWAP2 POP POP JUMP JUMPDEST PUSH2 0x1CE1 DUP2 PUSH2 0x1A1F JUMP JUMPDEST DUP2 EQ PUSH2 0x1CEC JUMPI PUSH1 0x0 DUP1 REVERT JUMPDEST POP JUMP JUMPDEST PUSH1 0x0 DUP2 CALLDATALOAD SWAP1 POP PUSH2 0x1CFE DUP2 PUSH2 0x1CD8 JUMP JUMPDEST SWAP3 SWAP2 POP POP JUMP JUMPDEST PUSH1 0x0 PUSH1 0x20 DUP3 DUP5 SUB SLT ISZERO PUSH2 0x1D1A JUMPI PUSH2 0x1D19 PUSH2 0x16B7 JUMP JUMPDEST JUMPDEST PUSH1 0x0 PUSH2 0x1D28 DUP5 DUP3 DUP6 ADD PUSH2 0x1CEF JUMP JUMPDEST SWAP2 POP POP SWAP3 SWAP2 POP POP JUMP JUMPDEST PUSH1 0x0 DUP2 ISZERO ISZERO SWAP1 POP SWAP2 SWAP1 POP JUMP JUMPDEST PUSH2 0x1D46 DUP2 PUSH2 0x1D31 JUMP JUMPDEST DUP3 MSTORE POP POP JUMP JUMPDEST PUSH1 0x0 PUSH1 0x20 DUP3 ADD SWAP1 POP PUSH2 0x1D61 PUSH1 0x0 DUP4 ADD DUP5 PUSH2 0x1D3D JUMP JUMPDEST SWAP3 SWAP2 POP POP JUMP JUMPDEST PUSH1 0x0 DUP2 MLOAD SWAP1 POP SWAP2 SWAP1 POP JUMP JUMPDEST PUSH1 0x0 DUP3 DUP3 MSTORE PUSH1 0x20 DUP3 ADD SWAP1 POP SWAP3 SWAP2 POP POP JUMP JUMPDEST PUSH1 0x0 DUP2 SWAP1 POP PUSH1 0x20 DUP3 ADD SWAP1 POP SWAP2 SWAP1 POP JUMP JUMPDEST PUSH1 0x0 PUSH1 0x40 DUP4 ADD PUSH1 0x0 DUP4 ADD MLOAD PUSH2 0x1DAB PUSH1 0x0 DUP7 ADD DUP3 PUSH2 0x1AFF JUMP JUMPDEST POP PUSH1 0x20 DUP4 ADD MLOAD DUP5 DUP3 SUB PUSH1 0x20 DUP7 ADD MSTORE PUSH2 0x1DC3 DUP3 DUP3 PUSH2 0x1B1F JUMP JUMPDEST SWAP2 POP POP DUP1 SWAP2 POP POP SWAP3 SWAP2 POP POP JUMP JUMPDEST PUSH1 0x0 PUSH2 0x1DDC DUP4 DUP4 PUSH2 0x1D93 JUMP JUMPDEST SWAP1 POP SWAP3 SWAP2 POP POP JUMP JUMPDEST PUSH1 0x0 PUSH1 0x20 DUP3 ADD SWAP1 POP SWAP2 SWAP1 POP JUMP JUMPDEST PUSH1 0x0 PUSH2 0x1DFC DUP3 PUSH2 0x1D67 JUMP JUMPDEST PUSH2 0x1E06 DUP2 DUP6 PUSH2 0x1D72 JUMP JUMPDEST SWAP4 POP DUP4 PUSH1 0x20 DUP3 MUL DUP6 ADD PUSH2 0x1E18 DUP6 PUSH2 0x1D83 JUMP JUMPDEST DUP1 PUSH1 0x0 JUMPDEST DUP6 DUP2 LT ISZERO PUSH2 0x1E54 JUMPI DUP5 DUP5 SUB DUP10 MSTORE DUP2 MLOAD PUSH2 0x1E35 DUP6 DUP3 PUSH2 0x1DD0 JUMP JUMPDEST SWAP5 POP PUSH2 0x1E40 DUP4 PUSH2 0x1DE4 JUMP JUMPDEST SWAP3 POP PUSH1 0x20 DUP11 ADD SWAP10 POP POP PUSH1 0x1 DUP2 ADD SWAP1 POP PUSH2 0x1E1C JUMP JUMPDEST POP DUP3 SWAP8 POP DUP8 SWAP6 POP POP POP POP POP POP SWAP3 SWAP2 POP POP JUMP JUMPDEST PUSH1 0x0 PUSH1 0x20 DUP3 ADD SWAP1 POP DUP2 DUP2 SUB PUSH1 0x0 DUP4 ADD MSTORE PUSH2 0x1E80 DUP2 DUP5 PUSH2 0x1DF1 JUMP JUMPDEST SWAP1 POP SWAP3 SWAP2 POP POP JUMP JUMPDEST PUSH1 0x0 PUSH1 0xA0 DUP3 ADD SWAP1 POP PUSH2 0x1E9D PUSH1 0x0 DUP4 ADD DUP9 PUSH2 0x1941 JUMP JUMPDEST DUP2 DUP2 SUB PUSH1 0x20 DUP4 ADD MSTORE PUSH2 0x1EAF DUP2 DUP8 PUSH2 0x1996 JUMP JUMPDEST SWAP1 POP DUP2 DUP2 SUB PUSH1 0x40 DUP4 ADD MSTORE PUSH2 0x1EC3 DUP2 DUP7 PUSH2 0x1996 JUMP JUMPDEST SWAP1 POP PUSH2 0x1ED2 PUSH1 0x60 DUP4 ADD DUP6 PUSH2 0x1A31 JUMP JUMPDEST PUSH2 0x1EDF PUSH1 0x80 DUP4 ADD DUP5 PUSH2 0x1941 JUMP JUMPDEST SWAP7 SWAP6 POP POP POP POP POP POP JUMP JUMPDEST PUSH1 0x0 PUSH1 0x40 DUP3 ADD SWAP1 POP DUP2 DUP2 SUB PUSH1 0x0 DUP4 ADD MSTORE PUSH2 0x1F03 DUP2 DUP6 PUSH2 0x1996 JUMP JUMPDEST SWAP1 POP DUP2 DUP2 SUB PUSH1 0x20 DUP4 ADD MSTORE PUSH2 0x1F17 DUP2 DUP5 PUSH2 0x1996 JUMP JUMPDEST SWAP1 POP SWAP4 SWAP3 POP POP POP JUMP JUMPDEST PUSH1 0x0 PUSH1 0xA0 DUP3 ADD SWAP1 POP PUSH2 0x1F35 PUSH1 0x0 DUP4 ADD DUP9 PUSH2 0x1941 JUMP JUMPDEST DUP2 DUP2 SUB PUSH1 0x20 DUP4 ADD MSTORE PUSH2 0x1F47 DUP2 DUP8 PUSH2 0x1996 JUMP JUMPDEST SWAP1 POP DUP2 DUP2 SUB PUSH1 0x40 DUP4 ADD MSTORE PUSH2 0x1F5B DUP2 DUP7 PUSH2 0x1996 JUMP JUMPDEST SWAP1 POP DUP2 DUP2 SUB PUSH1 0x60 DUP4 ADD MSTORE PUSH2 0x1F6F DUP2 DUP6 PUSH2 0x1996 JUMP JUMPDEST SWAP1 POP DUP2 DUP2 SUB PUSH1 0x80 DUP4 ADD MSTORE PUSH2 0x1F83 DUP2 DUP5 PUSH2 0x1996 JUMP JUMPDEST SWAP1 POP SWAP7 SWAP6 POP POP POP POP POP POP JUMP JUMPDEST PUSH1 0x0 PUSH1 0x20 DUP3 DUP5 SUB SLT ISZERO PUSH2 0x1FA5 JUMPI PUSH2 0x1FA4 PUSH2 0x16B7 JUMP JUMPDEST JUMPDEST PUSH1 0x0 DUP3 ADD CALLDATALOAD PUSH8 0xFFFFFFFFFFFFFFFF DUP2 GT ISZERO PUSH2 0x1FC3 JUMPI PUSH2 0x1FC2 PUSH2 0x16BC JUMP JUMPDEST JUMPDEST PUSH2 0x1FCF DUP5 DUP3 DUP6 ADD PUSH2 0x17D9 JUMP JUMPDEST SWAP2 POP POP SWAP3 SWAP2 POP POP JUMP JUMPDEST PUSH1 0x0 DUP2 MLOAD SWAP1 POP SWAP2 SWAP1 POP JUMP JUMPDEST PUSH1 0x0 DUP3 DUP3 MSTORE PUSH1 0x20 DUP3 ADD SWAP1 POP SWAP3 SWAP2 POP POP JUMP JUMPDEST PUSH1 0x0 DUP2 SWAP1 POP PUSH1 0x20 DUP3 ADD SWAP1 POP SWAP2 SWAP1 POP JUMP JUMPDEST PUSH1 0x0 PUSH1 0x40 DUP4 ADD PUSH1 0x0 DUP4 ADD MLOAD DUP5 DUP3 SUB PUSH1 0x0 DUP7 ADD MSTORE PUSH2 0x2021 DUP3 DUP3 PUSH2 0x1B1F JUMP JUMPDEST SWAP2 POP POP PUSH1 0x20 DUP4 ADD MLOAD DUP5 DUP3 SUB PUSH1 0x20 DUP7 ADD MSTORE PUSH2 0x203B DUP3 DUP3 PUSH2 0x1B1F JUMP JUMPDEST SWAP2 POP POP DUP1 SWAP2 POP POP SWAP3 SWAP2 POP POP JUMP JUMPDEST PUSH1 0x0 PUSH2 0x2054 DUP4 DUP4 PUSH2 0x2004 JUMP JUMPDEST SWAP1 POP SWAP3 SWAP2 POP POP JUMP JUMPDEST PUSH1 0x0 PUSH1 0x20 DUP3 ADD SWAP1 POP SWAP2 SWAP1 POP JUMP JUMPDEST PUSH1 0x0 PUSH2 0x2074 DUP3 PUSH2 0x1FD8 JUMP JUMPDEST PUSH2 0x207E DUP2 DUP6 PUSH2 0x1FE3 JUMP JUMPDEST SWAP4 POP DUP4 PUSH1 0x20 DUP3 MUL DUP6 ADD PUSH2 0x2090 DUP6 PUSH2 0x1FF4 JUMP JUMPDEST DUP1 PUSH1 0x0 JUMPDEST DUP6 DUP2 LT ISZERO PUSH2 0x20CC JUMPI DUP5 DUP5 SUB DUP10 MSTORE DUP2 MLOAD PUSH2 0x20AD DUP6 DUP3 PUSH2 0x2048 JUMP JUMPDEST SWAP5 POP PUSH2 0x20B8 DUP4 PUSH2 0x205C JUMP JUMPDEST SWAP3 POP PUSH1 0x20 DUP11 ADD SWAP10 POP POP PUSH1 0x1 DUP2 ADD SWAP1 POP PUSH2 0x2094 JUMP JUMPDEST POP DUP3 SWAP8 POP DUP8 SWAP6 POP POP POP POP POP POP SWAP3 SWAP2 POP POP JUMP JUMPDEST PUSH1 0x0 PUSH1 0x20 DUP3 ADD SWAP1 POP DUP2 DUP2 SUB PUSH1 0x0 DUP4 ADD MSTORE PUSH2 0x20F8 DUP2 DUP5 PUSH2 0x2069 JUMP JUMPDEST SWAP1 POP SWAP3 SWAP2 POP POP JUMP JUMPDEST PUSH1 0x0 DUP2 MLOAD SWAP1 POP SWAP2 SWAP1 POP JUMP JUMPDEST PUSH1 0x0 DUP3 DUP3 MSTORE PUSH1 0x20 DUP3 ADD SWAP1 POP SWAP3 SWAP2 POP POP JUMP JUMPDEST PUSH1 0x0 DUP2 SWAP1 POP PUSH1 0x20 DUP3 ADD SWAP1 POP SWAP2 SWAP1 POP JUMP JUMPDEST PUSH2 0x2135 DUP2 PUSH2 0x1A1F JUMP JUMPDEST DUP3 MSTORE POP POP JUMP JUMPDEST PUSH1 0x0 PUSH1 0xA0 DUP4 ADD PUSH1 0x0 DUP4 ADD MLOAD PUSH2 0x2153 PUSH1 0x0 DUP7 ADD DUP3 PUSH2 0x1AFF JUMP JUMPDEST POP PUSH1 0x20 DUP4 ADD MLOAD DUP5 DUP3 SUB PUSH1 0x20 DUP7 ADD MSTORE PUSH2 0x216B DUP3 DUP3 PUSH2 0x1B1F JUMP JUMPDEST SWAP2 POP POP PUSH1 0x40 DUP4 ADD MLOAD DUP5 DUP3 SUB PUSH1 0x40 DUP7 ADD MSTORE PUSH2 0x2185 DUP3 DUP3 PUSH2 0x1B1F JUMP JUMPDEST SWAP2 POP POP PUSH1 0x60 DUP4 ADD MLOAD PUSH2 0x219A PUSH1 0x60 DUP7 ADD DUP3 PUSH2 0x212C JUMP JUMPDEST POP PUSH1 0x80 DUP4 ADD MLOAD PUSH2 0x21AD PUSH1 0x80 DUP7 ADD DUP3 PUSH2 0x1AFF JUMP JUMPDEST POP DUP1 SWAP2 POP POP SWAP3 SWAP2 POP POP JUMP JUMPDEST PUSH1 0x0 PUSH2 0x21C4 DUP4 DUP4 PUSH2 0x213B JUMP JUMPDEST SWAP1 POP SWAP3 SWAP2 POP POP JUMP JUMPDEST PUSH1 0x0 PUSH1 0x20 DUP3 ADD SWAP1 POP SWAP2 SWAP1 POP JUMP JUMPDEST PUSH1 0x0 PUSH2 0x21E4 DUP3 PUSH2 0x2100 JUMP JUMPDEST PUSH2 0x21EE DUP2 DUP6 PUSH2 0x210B JUMP JUMPDEST SWAP4 POP DUP4 PUSH1 0x20 DUP3 MUL DUP6 ADD PUSH2 0x2200 DUP6 PUSH2 0x211C JUMP JUMPDEST DUP1 PUSH1 0x0 JUMPDEST DUP6 DUP2 LT ISZERO PUSH2 0x223C JUMPI DUP5 DUP5 SUB DUP10 MSTORE DUP2 MLOAD PUSH2 0x221D DUP6 DUP3 PUSH2 0x21B8 JUMP JUMPDEST SWAP5 POP PUSH2 0x2228 DUP4 PUSH2 0x21CC JUMP JUMPDEST SWAP3 POP PUSH1 0x20 DUP11 ADD SWAP10 POP POP PUSH1 0x1 DUP2 ADD SWAP1 POP PUSH2 0x2204 JUMP JUMPDEST POP DUP3 SWAP8 POP DUP8 SWAP6 POP POP POP POP POP POP SWAP3 SWAP2 POP POP JUMP JUMPDEST PUSH1 0x0 PUSH1 0x20 DUP3 ADD SWAP1 POP DUP2 DUP2 SUB PUSH1 0x0 DUP4 ADD MSTORE PUSH2 0x2268 DUP2 DUP5 PUSH2 0x21D9 JUMP JUMPDEST SWAP1 POP SWAP3 SWAP2 POP POP JUMP JUMPDEST PUSH1 0x0 DUP1 PUSH1 0x0 DUP1 PUSH1 0x80 DUP6 DUP8 SUB SLT ISZERO PUSH2 0x228A JUMPI PUSH2 0x2289 PUSH2 0x16B7 JUMP JUMPDEST JUMPDEST PUSH1 0x0 DUP6 ADD CALLDATALOAD PUSH8 0xFFFFFFFFFFFFFFFF DUP2 GT ISZERO PUSH2 0x22A8 JUMPI PUSH2 0x22A7 PUSH2 0x16BC JUMP JUMPDEST JUMPDEST PUSH2 0x22B4 DUP8 DUP3 DUP9 ADD PUSH2 0x17D9 JUMP JUMPDEST SWAP5 POP POP PUSH1 0x20 DUP6 ADD CALLDATALOAD PUSH8 0xFFFFFFFFFFFFFFFF DUP2 GT ISZERO PUSH2 0x22D5 JUMPI PUSH2 0x22D4 PUSH2 0x16BC JUMP JUMPDEST JUMPDEST PUSH2 0x22E1 DUP8 DUP3 DUP9 ADD PUSH2 0x17D9 JUMP JUMPDEST SWAP4 POP POP PUSH1 0x40 PUSH2 0x22F2 DUP8 DUP3 DUP9 ADD PUSH2 0x18FF JUMP JUMPDEST SWAP3 POP POP PUSH1 0x60 PUSH2 0x2303 DUP8 DUP3 DUP9 ADD PUSH2 0x1CEF JUMP JUMPDEST SWAP2 POP POP SWAP3 SWAP6 SWAP2 SWAP5 POP SWAP3 POP JUMP JUMPDEST PUSH32 0x4E487B7100000000000000000000000000000000000000000000000000000000 PUSH1 0x0 MSTORE PUSH1 0x11 PUSH1 0x4 MSTORE PUSH1 0x24 PUSH1 0x0 REVERT JUMPDEST PUSH1 0x0 PUSH2 0x2349 DUP3 PUSH2 0x18DE JUMP JUMPDEST SWAP2 POP PUSH32 0xFFFFFFFFFFFFFFFFFFFFFFFFFFFFFFFFFFFFFFFFFFFFFFFFFFFFFFFFFFFFFFFF DUP3 SUB PUSH2 0x237B JUMPI PUSH2 0x237A PUSH2 0x230F JUMP JUMPDEST JUMPDEST PUSH1 0x1 DUP3 ADD SWAP1 POP SWAP2 SWAP1 POP JUMP JUMPDEST PUSH32 0x4E487B7100000000000000000000000000000000000000000000000000000000 PUSH1 0x0 MSTORE PUSH1 0x22 PUSH1 0x4 MSTORE PUSH1 0x24 PUSH1 0x0 REVERT JUMPDEST PUSH1 0x0 PUSH1 0x2 DUP3 DIV SWAP1 POP PUSH1 0x1 DUP3 AND DUP1 PUSH2 0x23CD JUMPI PUSH1 0x7F DUP3 AND SWAP2 POP JUMPDEST PUSH1 0x20 DUP3 LT DUP2 SUB PUSH2 0x23E0 JUMPI PUSH2 0x23DF PUSH2 0x2386 JUMP JUMPDEST JUMPDEST POP SWAP2 SWAP1 POP JUMP JUMPDEST PUSH1 0x0 DUP2 SWAP1 POP DUP2 PUSH1 0x0 MSTORE PUSH1 0x20 PUSH1 0x0 KECCAK256 SWAP1 POP SWAP2 SWAP1 POP JUMP JUMPDEST PUSH1 0x0 PUSH1 0x20 PUSH1 0x1F DUP4 ADD DIV SWAP1 POP SWAP2 SWAP1 POP JUMP JUMPDEST PUSH1 0x0 DUP3 DUP3 SHL SWAP1 POP SWAP3 SWAP2 POP POP JUMP JUMPDEST PUSH1 0x0 PUSH1 0x8 DUP4 MUL PUSH2 0x2448 PUSH32 0xFFFFFFFFFFFFFFFFFFFFFFFFFFFFFFFFFFFFFFFFFFFFFFFFFFFFFFFFFFFFFFFF DUP3 PUSH2 0x240B JUMP JUMPDEST PUSH2 0x2452 DUP7 DUP4 PUSH2 0x240B JUMP JUMPDEST SWAP6 POP DUP1 NOT DUP5 AND SWAP4 POP DUP1 DUP7 AND DUP5 OR SWAP3 POP POP POP SWAP4 SWAP3 POP POP POP JUMP JUMPDEST PUSH1 0x0 DUP2 SWAP1 POP SWAP2 SWAP1 POP JUMP JUMPDEST PUSH1 0x0 PUSH2 0x248F PUSH2 0x248A PUSH2 0x2485 DUP5 PUSH2 0x18DE JUMP JUMPDEST PUSH2 0x246A JUMP JUMPDEST PUSH2 0x18DE JUMP JUMPDEST SWAP1 POP SWAP2 SWAP1 POP JUMP JUMPDEST PUSH1 0x0 DUP2 SWAP1 POP SWAP2 SWAP1 POP JUMP JUMPDEST PUSH2 0x24A9 DUP4 PUSH2 0x2474 JUMP JUMPDEST PUSH2 0x24BD PUSH2 0x24B5 DUP3 PUSH2 0x2496 JUMP JUMPDEST DUP5 DUP5 SLOAD PUSH2 0x2418 JUMP JUMPDEST DUP3 SSTORE POP POP POP POP JUMP JUMPDEST PUSH1 0x0 SWAP1 JUMP JUMPDEST PUSH2 0x24D2 PUSH2 0x24C5 JUMP JUMPDEST PUSH2 0x24DD DUP2 DUP5 DUP5 PUSH2 0x24A0 JUMP JUMPDEST POP POP POP JUMP JUMPDEST JUMPDEST DUP2 DUP2 LT ISZERO PUSH2 0x2501 JUMPI PUSH2 0x24F6 PUSH1 0x0 DUP3 PUSH2 0x24CA JUMP JUMPDEST PUSH1 0x1 DUP2 ADD SWAP1 POP PUSH2 0x24E3 JUMP JUMPDEST POP POP JUMP JUMPDEST PUSH1 0x1F DUP3 GT ISZERO PUSH2 0x2546 JUMPI PUSH2 0x2517 DUP2 PUSH2 0x23E6 JUMP JUMPDEST PUSH2 0x2520 DUP5 PUSH2 0x23FB JUMP JUMPDEST DUP2 ADD PUSH1 0x20 DUP6 LT ISZERO PUSH2 0x252F JUMPI DUP2 SWAP1 POP JUMPDEST PUSH2 0x2543 PUSH2 0x253B DUP6 PUSH2 0x23FB JUMP JUMPDEST DUP4 ADD DUP3 PUSH2 0x24E2 JUMP JUMPDEST POP POP JUMPDEST POP POP POP JUMP JUMPDEST PUSH1 0x0 DUP3 DUP3 SHR SWAP1 POP SWAP3 SWAP2 POP POP JUMP JUMPDEST PUSH1 0x0 PUSH2 0x2569 PUSH1 0x0 NOT DUP5 PUSH1 0x8 MUL PUSH2 0x254B JUMP JUMPDEST NOT DUP1 DUP4 AND SWAP2 POP POP SWAP3 SWAP2 POP POP JUMP JUMPDEST PUSH1 0x0 PUSH2 0x2582 DUP4 DUP4 PUSH2 0x2558 JUMP JUMPDEST SWAP2 POP DUP3 PUSH1 0x2 MUL DUP3 OR SWAP1 POP SWAP3 SWAP2 POP POP JUMP JUMPDEST PUSH2 0x259B DUP3 PUSH2 0x1950 JUMP JUMPDEST PUSH8 0xFFFFFFFFFFFFFFFF DUP2 GT ISZERO PUSH2 0x25B4 JUMPI PUSH2 0x25B3 PUSH2 0x16DC JUMP JUMPDEST JUMPDEST PUSH2 0x25BE DUP3 SLOAD PUSH2 0x23B5 JUMP JUMPDEST PUSH2 0x25C9 DUP3 DUP3 DUP6 PUSH2 0x2505 JUMP JUMPDEST PUSH1 0x0 PUSH1 0x20 SWAP1 POP PUSH1 0x1F DUP4 GT PUSH1 0x1 DUP2 EQ PUSH2 0x25FC JUMPI PUSH1 0x0 DUP5 ISZERO PUSH2 0x25EA JUMPI DUP3 DUP8 ADD MLOAD SWAP1 POP JUMPDEST PUSH2 0x25F4 DUP6 DUP3 PUSH2 0x2576 JUMP JUMPDEST DUP7 SSTORE POP PUSH2 0x265C JUMP JUMPDEST PUSH1 0x1F NOT DUP5 AND PUSH2 0x260A DUP7 PUSH2 0x23E6 JUMP JUMPDEST PUSH1 0x0 JUMPDEST DUP3 DUP2 LT ISZERO PUSH2 0x2632 JUMPI DUP5 DUP10 ADD MLOAD DUP3 SSTORE PUSH1 0x1 DUP3 ADD SWAP2 POP PUSH1 0x20 DUP6 ADD SWAP5 POP PUSH1 0x20 DUP2 ADD SWAP1 POP PUSH2 0x260D JUMP JUMPDEST DUP7 DUP4 LT ISZERO PUSH2 0x264F JUMPI DUP5 DUP10 ADD MLOAD PUSH2 0x264B PUSH1 0x1F DUP10 AND DUP3 PUSH2 0x2558 JUMP JUMPDEST DUP4 SSTORE POP JUMPDEST PUSH1 0x1 PUSH1 0x2 DUP9 MUL ADD DUP9 SSTORE POP POP POP JUMPDEST POP POP POP POP POP POP JUMP JUMPDEST PUSH32 0x4E487B7100000000000000000000000000000000000000000000000000000000 PUSH1 0x0 MSTORE PUSH1 0x32 PUSH1 0x4 MSTORE PUSH1 0x24 PUSH1 0x0 REVERT JUMPDEST PUSH32 0x446F63746F7220616C7265616479207265676973746572656400000000000000 PUSH1 0x0 DUP3 ADD MSTORE POP JUMP JUMPDEST PUSH1 0x0 PUSH2 0x26C9 PUSH1 0x19 DUP4 PUSH2 0x195B JUMP JUMPDEST SWAP2 POP PUSH2 0x26D4 DUP3 PUSH2 0x2693 JUMP JUMPDEST PUSH1 0x20 DUP3 ADD SWAP1 POP SWAP2 SWAP1 POP JUMP JUMPDEST PUSH1 0x0 PUSH1 0x20 DUP3 ADD SWAP1 POP DUP2 DUP2 SUB PUSH1 0x0 DUP4 ADD MSTORE PUSH2 0x26F8 DUP2 PUSH2 0x26BC JUMP JUMPDEST SWAP1 POP SWAP2 SWAP1 POP JUMP INVALID LOG2 PUSH5 0x6970667358 0x22 SLT KECCAK256 0xBF SGT SAR DUP2 0xE4 0xCA DUP3 MUL PUSH24 0xE6A15BDCC4D95690D459864DEB28458535E61169920F2564 PUSH20 0x6F6C634300081200330000000000000000000000 "
				},
				"gasEstimates": {
					"creation": {
						"codeDepositCost": "2007400",
						"executionCost": "2127",
						"totalCost": "2009527"
					},
					"external": {
						"addDisease(string)": "infinite",
						"addMedicine(string,string,string,string)": "infinite",
						"createWorkplace(string,string)": "infinite",
						"diseases(uint256)": "infinite",
						"doctorAddress(uint256)": "5024",
						"doctorCount()": "2496",
						"doctorNotExists(address)": "infinite",
						"doctors(address)": "infinite",
						"getAllDiseases()": "infinite",
						"getAllDoctors()": "infinite",
						"getAllMedicines()": "infinite",
						"getAllWorkplaces()": "infinite",
						"getDiseaseById(uint256)": "infinite",
						"medicines(uint256)": "infinite",
						"registerDoctor(string,string,uint256,address)": "infinite",
						"workplaces(uint256)": "infinite"
					}
				},
				"methodIdentifiers": {
					"addDisease(string)": "d47c029c",
					"addMedicine(string,string,string,string)": "020d07a4",
					"createWorkplace(string,string)": "5ab2ce22",
					"diseases(uint256)": "46459b22",
					"doctorAddress(uint256)": "59bf95f7",
					"doctorCount()": "78522bc4",
					"doctorNotExists(address)": "801d4a95",
					"doctors(address)": "a9583c22",
					"getAllDiseases()": "9df10db0",
					"getAllDoctors()": "f0d95090",
					"getAllMedicines()": "68f2b1d2",
					"getAllWorkplaces()": "d92631db",
					"getDiseaseById(uint256)": "747dcbde",
					"medicines(uint256)": "c85e766d",
					"registerDoctor(string,string,uint256,address)": "f3c674ac",
					"workplaces(uint256)": "c38831ae"
				}
			},
			"storageLayout": {
				"storage": [
					{
						"astId": 24,
						"contract": "Doctor.sol:Doctor",
						"label": "medicineCount",
						"offset": 0,
						"slot": "0",
						"type": "t_uint256"
					},
					{
						"astId": 26,
						"contract": "Doctor.sol:Doctor",
						"label": "diseaseCount",
						"offset": 0,
						"slot": "1",
						"type": "t_uint256"
					},
					{
						"astId": 30,
						"contract": "Doctor.sol:Doctor",
						"label": "workplaces",
						"offset": 0,
						"slot": "2",
						"type": "t_array(t_struct(Workplace)6_storage)dyn_storage"
					},
					{
						"astId": 34,
						"contract": "Doctor.sol:Doctor",
						"label": "medicines",
						"offset": 0,
						"slot": "3",
						"type": "t_array(t_struct(Medicine)17_storage)dyn_storage"
					},
					{
						"astId": 38,
						"contract": "Doctor.sol:Doctor",
						"label": "diseases",
						"offset": 0,
						"slot": "4",
						"type": "t_array(t_struct(Disease)22_storage)dyn_storage"
					},
					{
						"astId": 180,
						"contract": "Doctor.sol:Doctor",
						"label": "doctors",
						"offset": 0,
						"slot": "5",
						"type": "t_mapping(t_address,t_struct(DoctorDetails)175_storage)"
					},
					{
						"astId": 182,
						"contract": "Doctor.sol:Doctor",
						"label": "doctorCount",
						"offset": 0,
						"slot": "6",
						"type": "t_uint256"
					},
					{
						"astId": 185,
						"contract": "Doctor.sol:Doctor",
						"label": "doctorAddress",
						"offset": 0,
						"slot": "7",
						"type": "t_array(t_address)dyn_storage"
					}
				],
				"types": {
					"t_address": {
						"encoding": "inplace",
						"label": "address",
						"numberOfBytes": "20"
					},
					"t_array(t_address)dyn_storage": {
						"base": "t_address",
						"encoding": "dynamic_array",
						"label": "address[]",
						"numberOfBytes": "32"
					},
					"t_array(t_struct(Disease)22_storage)dyn_storage": {
						"base": "t_struct(Disease)22_storage",
						"encoding": "dynamic_array",
						"label": "struct Admin.Disease[]",
						"numberOfBytes": "32"
					},
					"t_array(t_struct(Medicine)17_storage)dyn_storage": {
						"base": "t_struct(Medicine)17_storage",
						"encoding": "dynamic_array",
						"label": "struct Admin.Medicine[]",
						"numberOfBytes": "32"
					},
					"t_array(t_struct(Workplace)6_storage)dyn_storage": {
						"base": "t_struct(Workplace)6_storage",
						"encoding": "dynamic_array",
						"label": "struct Admin.Workplace[]",
						"numberOfBytes": "32"
					},
					"t_mapping(t_address,t_struct(DoctorDetails)175_storage)": {
						"encoding": "mapping",
						"key": "t_address",
						"label": "mapping(address => struct Doctor.DoctorDetails)",
						"numberOfBytes": "32",
						"value": "t_struct(DoctorDetails)175_storage"
					},
					"t_string_storage": {
						"encoding": "bytes",
						"label": "string",
						"numberOfBytes": "32"
					},
					"t_struct(Disease)22_storage": {
						"encoding": "inplace",
						"label": "struct Admin.Disease",
						"members": [
							{
								"astId": 19,
								"contract": "Doctor.sol:Doctor",
								"label": "id",
								"offset": 0,
								"slot": "0",
								"type": "t_uint256"
							},
							{
								"astId": 21,
								"contract": "Doctor.sol:Doctor",
								"label": "name",
								"offset": 0,
								"slot": "1",
								"type": "t_string_storage"
							}
						],
						"numberOfBytes": "64"
					},
					"t_struct(DoctorDetails)175_storage": {
						"encoding": "inplace",
						"label": "struct Doctor.DoctorDetails",
						"members": [
							{
								"astId": 166,
								"contract": "Doctor.sol:Doctor",
								"label": "id",
								"offset": 0,
								"slot": "0",
								"type": "t_uint256"
							},
							{
								"astId": 168,
								"contract": "Doctor.sol:Doctor",
								"label": "name",
								"offset": 0,
								"slot": "1",
								"type": "t_string_storage"
							},
							{
								"astId": 170,
								"contract": "Doctor.sol:Doctor",
								"label": "qualification",
								"offset": 0,
								"slot": "2",
								"type": "t_string_storage"
							},
							{
								"astId": 172,
								"contract": "Doctor.sol:Doctor",
								"label": "doctor",
								"offset": 0,
								"slot": "3",
								"type": "t_address"
							},
							{
								"astId": 174,
								"contract": "Doctor.sol:Doctor",
								"label": "workPlace",
								"offset": 0,
								"slot": "4",
								"type": "t_uint256"
							}
						],
						"numberOfBytes": "160"
					},
					"t_struct(Medicine)17_storage": {
						"encoding": "inplace",
						"label": "struct Admin.Medicine",
						"members": [
							{
								"astId": 8,
								"contract": "Doctor.sol:Doctor",
								"label": "id",
								"offset": 0,
								"slot": "0",
								"type": "t_uint256"
							},
							{
								"astId": 10,
								"contract": "Doctor.sol:Doctor",
								"label": "name",
								"offset": 0,
								"slot": "1",
								"type": "t_string_storage"
							},
							{
								"astId": 12,
								"contract": "Doctor.sol:Doctor",
								"label": "expiryDate",
								"offset": 0,
								"slot": "2",
								"type": "t_string_storage"
							},
							{
								"astId": 14,
								"contract": "Doctor.sol:Doctor",
								"label": "price",
								"offset": 0,
								"slot": "3",
								"type": "t_string_storage"
							},
							{
								"astId": 16,
								"contract": "Doctor.sol:Doctor",
								"label": "dose",
								"offset": 0,
								"slot": "4",
								"type": "t_string_storage"
							}
						],
						"numberOfBytes": "160"
					},
					"t_struct(Workplace)6_storage": {
						"encoding": "inplace",
						"label": "struct Admin.Workplace",
						"members": [
							{
								"astId": 3,
								"contract": "Doctor.sol:Doctor",
								"label": "name",
								"offset": 0,
								"slot": "0",
								"type": "t_string_storage"
							},
							{
								"astId": 5,
								"contract": "Doctor.sol:Doctor",
								"label": "workAddress",
								"offset": 0,
								"slot": "1",
								"type": "t_string_storage"
							}
						],
						"numberOfBytes": "64"
					},
					"t_uint256": {
						"encoding": "inplace",
						"label": "uint256",
						"numberOfBytes": "32"
					}
				}
			},
			"userdoc": {
				"kind": "user",
				"methods": {},
				"version": 1
			}
		}
	}
}