{
	"medicalContract2.sol": {
		"MedicalRecords": {
			"abi": [
				{
					"inputs": [],
					"stateMutability": "nonpayable",
					"type": "constructor"
				},
				{
					"anonymous": false,
					"inputs": [
						{
							"indexed": false,
							"internalType": "uint256",
							"name": "id",
							"type": "uint256"
						},
						{
							"indexed": false,
							"internalType": "string",
							"name": "name",
							"type": "string"
						},
						{
							"indexed": false,
							"internalType": "string",
							"name": "qualification",
							"type": "string"
						},
						{
							"indexed": false,
							"internalType": "address",
							"name": "doctor",
							"type": "address"
						},
						{
							"indexed": false,
							"internalType": "uint256",
							"name": "workplaceIndex",
							"type": "uint256"
						}
					],
					"name": "DoctorRegistered",
					"type": "event"
				},
				{
					"inputs": [
						{
							"internalType": "string",
							"name": "_name",
							"type": "string"
						},
						{
							"internalType": "string",
							"name": "_workAddress",
							"type": "string"
						}
					],
					"name": "createWorkplace",
					"outputs": [],
					"stateMutability": "nonpayable",
					"type": "function"
				},
				{
					"inputs": [
						{
							"internalType": "uint256",
							"name": "",
							"type": "uint256"
						}
					],
					"name": "doctorAddress",
					"outputs": [
						{
							"internalType": "address",
							"name": "",
							"type": "address"
						}
					],
					"stateMutability": "view",
					"type": "function"
				},
				{
					"inputs": [],
					"name": "doctorCount",
					"outputs": [
						{
							"internalType": "uint256",
							"name": "",
							"type": "uint256"
						}
					],
					"stateMutability": "view",
					"type": "function"
				},
				{
					"inputs": [],
					"name": "doctorNotExists",
					"outputs": [
						{
							"internalType": "bool",
							"name": "",
							"type": "bool"
						}
					],
					"stateMutability": "view",
					"type": "function"
				},
				{
					"inputs": [
						{
							"internalType": "address",
							"name": "",
							"type": "address"
						}
					],
					"name": "doctors",
					"outputs": [
						{
							"internalType": "uint256",
							"name": "id",
							"type": "uint256"
						},
						{
							"internalType": "string",
							"name": "name",
							"type": "string"
						},
						{
							"internalType": "string",
							"name": "qualification",
							"type": "string"
						},
						{
							"internalType": "address",
							"name": "doctor",
							"type": "address"
						},
						{
							"internalType": "uint256",
							"name": "workPlace",
							"type": "uint256"
						}
					],
					"stateMutability": "view",
					"type": "function"
				},
				{
					"inputs": [],
					"name": "getAllDoctors",
					"outputs": [
						{
							"components": [
								{
									"internalType": "uint256",
									"name": "id",
									"type": "uint256"
								},
								{
									"internalType": "string",
									"name": "name",
									"type": "string"
								},
								{
									"internalType": "string",
									"name": "qualification",
									"type": "string"
								},
								{
									"internalType": "address",
									"name": "doctor",
									"type": "address"
								},
								{
									"internalType": "uint256",
									"name": "workPlace",
									"type": "uint256"
								}
							],
							"internalType": "struct MedicalRecords.Doctor[]",
							"name": "",
							"type": "tuple[]"
						}
					],
					"stateMutability": "view",
					"type": "function"
				},
				{
					"inputs": [],
					"name": "getAllPatients",
					"outputs": [
						{
							"components": [
								{
									"internalType": "uint256",
									"name": "id",
									"type": "uint256"
								},
								{
									"internalType": "string",
									"name": "name",
									"type": "string"
								},
								{
									"internalType": "uint256",
									"name": "age",
									"type": "uint256"
								},
								{
									"internalType": "address",
									"name": "publicAddress",
									"type": "address"
								},
								{
									"internalType": "string[]",
									"name": "diseases",
									"type": "string[]"
								},
								{
									"internalType": "string[]",
									"name": "medicines",
									"type": "string[]"
								},
								{
									"internalType": "string[]",
									"name": "allowedDoctors",
									"type": "string[]"
								}
							],
							"internalType": "struct MedicalRecords.Patient[]",
							"name": "",
							"type": "tuple[]"
						}
					],
					"stateMutability": "view",
					"type": "function"
				},
				{
					"inputs": [],
					"name": "getAllWorkplaces",
					"outputs": [
						{
							"components": [
								{
									"internalType": "uint256",
									"name": "id",
									"type": "uint256"
								},
								{
									"internalType": "string",
									"name": "name",
									"type": "string"
								},
								{
									"internalType": "string",
									"name": "workAddress",
									"type": "string"
								}
							],
							"internalType": "struct MedicalRecords.Workplace[]",
							"name": "",
							"type": "tuple[]"
						}
					],
					"stateMutability": "view",
					"type": "function"
				},
				{
					"inputs": [],
					"name": "medicineCount",
					"outputs": [
						{
							"internalType": "uint256",
							"name": "",
							"type": "uint256"
						}
					],
					"stateMutability": "view",
					"type": "function"
				},
				{
					"inputs": [
						{
							"internalType": "uint256",
							"name": "",
							"type": "uint256"
						}
					],
					"name": "medicines",
					"outputs": [
						{
							"internalType": "uint256",
							"name": "id",
							"type": "uint256"
						},
						{
							"internalType": "string",
							"name": "name",
							"type": "string"
						},
						{
							"internalType": "uint256",
							"name": "expiryDate",
							"type": "uint256"
						},
						{
							"internalType": "uint256",
							"name": "dose",
							"type": "uint256"
						},
						{
							"internalType": "uint256",
							"name": "price",
							"type": "uint256"
						}
					],
					"stateMutability": "view",
					"type": "function"
				},
				{
					"inputs": [
						{
							"internalType": "uint256",
							"name": "",
							"type": "uint256"
						}
					],
					"name": "patientAddress",
					"outputs": [
						{
							"internalType": "address",
							"name": "",
							"type": "address"
						}
					],
					"stateMutability": "view",
					"type": "function"
				},
				{
					"inputs": [],
					"name": "patientCount",
					"outputs": [
						{
							"internalType": "uint256",
							"name": "",
							"type": "uint256"
						}
					],
					"stateMutability": "view",
					"type": "function"
				},
				{
					"inputs": [],
					"name": "patientNotExists",
					"outputs": [
						{
							"internalType": "bool",
							"name": "",
							"type": "bool"
						}
					],
					"stateMutability": "view",
					"type": "function"
				},
				{
					"inputs": [
						{
							"internalType": "address",
							"name": "",
							"type": "address"
						}
					],
					"name": "patients",
					"outputs": [
						{
							"internalType": "uint256",
							"name": "id",
							"type": "uint256"
						},
						{
							"internalType": "string",
							"name": "name",
							"type": "string"
						},
						{
							"internalType": "uint256",
							"name": "age",
							"type": "uint256"
						},
						{
							"internalType": "address",
							"name": "publicAddress",
							"type": "address"
						}
					],
					"stateMutability": "view",
					"type": "function"
				},
				{
					"inputs": [
						{
							"internalType": "string",
							"name": "_name",
							"type": "string"
						},
						{
							"internalType": "string",
							"name": "_qualification",
							"type": "string"
						},
						{
							"internalType": "uint256",
							"name": "_workplaceIndex",
							"type": "uint256"
						}
					],
					"name": "registerDoctor",
					"outputs": [],
					"stateMutability": "nonpayable",
					"type": "function"
				},
				{
					"inputs": [
						{
							"internalType": "string",
							"name": "_name",
							"type": "string"
						},
						{
							"internalType": "uint256",
							"name": "_age",
							"type": "uint256"
						}
					],
					"name": "registerPatient",
					"outputs": [],
					"stateMutability": "nonpayable",
					"type": "function"
				},
				{
					"inputs": [],
					"name": "workplaceCount",
					"outputs": [
						{
							"internalType": "uint256",
							"name": "",
							"type": "uint256"
						}
					],
					"stateMutability": "view",
					"type": "function"
				},
				{
					"inputs": [
						{
							"internalType": "uint256",
							"name": "_workplaceIndex",
							"type": "uint256"
						}
					],
					"name": "workplaceExists",
					"outputs": [
						{
							"internalType": "bool",
							"name": "",
							"type": "bool"
						}
					],
					"stateMutability": "view",
					"type": "function"
				},
				{
					"inputs": [
						{
							"internalType": "uint256",
							"name": "",
							"type": "uint256"
						}
					],
					"name": "workplaces",
					"outputs": [
						{
							"internalType": "uint256",
							"name": "id",
							"type": "uint256"
						},
						{
							"internalType": "string",
							"name": "name",
							"type": "string"
						},
						{
							"internalType": "string",
							"name": "workAddress",
							"type": "string"
						}
					],
					"stateMutability": "view",
					"type": "function"
				}
			],
			"devdoc": {
				"kind": "dev",
				"methods": {},
				"version": 1
			},
			"evm": {
				"assembly": "    /* \"medicalContract2.sol\":26:4186  contract MedicalRecords {... */\n  mstore(0x40, 0x80)\n    /* \"medicalContract2.sol\":1080:1129  constructor() {... */\n  callvalue\n  dup1\n  iszero\n  tag_1\n  jumpi\n  0x00\n  dup1\n  revert\ntag_1:\n  pop\n    /* \"medicalContract2.sol\":1112:1122  msg.sender */\n  caller\n    /* \"medicalContract2.sol\":1104:1109  owner */\n  0x00\n  dup1\n    /* \"medicalContract2.sol\":1104:1122  owner = msg.sender */\n  0x0100\n  exp\n  dup2\n  sload\n  dup2\n  0xffffffffffffffffffffffffffffffffffffffff\n  mul\n  not\n  and\n  swap1\n  dup4\n  0xffffffffffffffffffffffffffffffffffffffff\n  and\n  mul\n  or\n  swap1\n  sstore\n  pop\n    /* \"medicalContract2.sol\":26:4186  contract MedicalRecords {... */\n  dataSize(sub_0)\n  dup1\n  dataOffset(sub_0)\n  0x00\n  codecopy\n  0x00\n  return\nstop\n\nsub_0: assembly {\n        /* \"medicalContract2.sol\":26:4186  contract MedicalRecords {... */\n      mstore(0x40, 0x80)\n      callvalue\n      dup1\n      iszero\n      tag_1\n      jumpi\n      0x00\n      dup1\n      revert\n    tag_1:\n      pop\n      jumpi(tag_2, lt(calldatasize, 0x04))\n      shr(0xe0, calldataload(0x00))\n      dup1\n      0x78522bc4\n      gt\n      tag_22\n      jumpi\n      dup1\n      0xbae1eee8\n      gt\n      tag_23\n      jumpi\n      dup1\n      0xbae1eee8\n      eq\n      tag_17\n      jumpi\n      dup1\n      0xc38831ae\n      eq\n      tag_18\n      jumpi\n      dup1\n      0xc85e766d\n      eq\n      tag_19\n      jumpi\n      dup1\n      0xd92631db\n      eq\n      tag_20\n      jumpi\n      dup1\n      0xf0d95090\n      eq\n      tag_21\n      jumpi\n      jump(tag_2)\n    tag_23:\n      dup1\n      0x78522bc4\n      eq\n      tag_12\n      jumpi\n      dup1\n      0x87446b6e\n      eq\n      tag_13\n      jumpi\n      dup1\n      0xa0303c41\n      eq\n      tag_14\n      jumpi\n      dup1\n      0xa9583c22\n      eq\n      tag_15\n      jumpi\n      dup1\n      0xbac33aa2\n      eq\n      tag_16\n      jumpi\n      jump(tag_2)\n    tag_22:\n      dup1\n      0x33c5d641\n      gt\n      tag_24\n      jumpi\n      dup1\n      0x33c5d641\n      eq\n      tag_7\n      jumpi\n      dup1\n      0x4dafd490\n      eq\n      tag_8\n      jumpi\n      dup1\n      0x59bf95f7\n      eq\n      tag_9\n      jumpi\n      dup1\n      0x5ab2ce22\n      eq\n      tag_10\n      jumpi\n      dup1\n      0x77518ce6\n      eq\n      tag_11\n      jumpi\n      jump(tag_2)\n    tag_24:\n      dup1\n      0x05aeeea7\n      eq\n      tag_3\n      jumpi\n      dup1\n      0x0869cfbc\n      eq\n      tag_4\n      jumpi\n      dup1\n      0x18a231a9\n      eq\n      tag_5\n      jumpi\n      dup1\n      0x2de304ed\n      eq\n      tag_6\n      jumpi\n    tag_2:\n      0x00\n      dup1\n      revert\n        /* \"medicalContract2.sol\":1037:1068  address[] public patientAddress */\n    tag_3:\n      tag_25\n      0x04\n      dup1\n      calldatasize\n      sub\n      dup2\n      add\n      swap1\n      tag_26\n      swap2\n      swap1\n      tag_27\n      jump\t// in\n    tag_26:\n      tag_28\n      jump\t// in\n    tag_25:\n      mload(0x40)\n      tag_29\n      swap2\n      swap1\n      tag_30\n      jump\t// in\n    tag_29:\n      mload(0x40)\n      dup1\n      swap2\n      sub\n      swap1\n      return\n        /* \"medicalContract2.sol\":721:764  mapping(address => Patient) public patients */\n    tag_4:\n      tag_31\n      0x04\n      dup1\n      calldatasize\n      sub\n      dup2\n      add\n      swap1\n      tag_32\n      swap2\n      swap1\n      tag_33\n      jump\t// in\n    tag_32:\n      tag_34\n      jump\t// in\n    tag_31:\n      mload(0x40)\n      tag_35\n      swap5\n      swap4\n      swap3\n      swap2\n      swap1\n      tag_36\n      jump\t// in\n    tag_35:\n      mload(0x40)\n      dup1\n      swap2\n      sub\n      swap1\n      return\n        /* \"medicalContract2.sol\":3913:4184  function getAllPatients() public view returns (Patient[] memory) {... */\n    tag_5:\n      tag_37\n      tag_38\n      jump\t// in\n    tag_37:\n      mload(0x40)\n      tag_39\n      swap2\n      swap1\n      tag_40\n      jump\t// in\n    tag_39:\n      mload(0x40)\n      dup1\n      swap2\n      sub\n      swap1\n      return\n        /* \"medicalContract2.sol\":2550:3063  function registerPatient(string memory _name, uint _age) public {... */\n    tag_6:\n      tag_41\n      0x04\n      dup1\n      calldatasize\n      sub\n      dup2\n      add\n      swap1\n      tag_42\n      swap2\n      swap1\n      tag_43\n      jump\t// in\n    tag_42:\n      tag_44\n      jump\t// in\n    tag_41:\n      stop\n        /* \"medicalContract2.sol\":1786:2018  function patientNotExists() public view returns (bool) {... */\n    tag_7:\n      tag_45\n      tag_46\n      jump\t// in\n    tag_45:\n      mload(0x40)\n      tag_47\n      swap2\n      swap1\n      tag_48\n      jump\t// in\n    tag_47:\n      mload(0x40)\n      dup1\n      swap2\n      sub\n      swap1\n      return\n        /* \"medicalContract2.sol\":938:963  uint public medicineCount */\n    tag_8:\n      tag_49\n      tag_50\n      jump\t// in\n    tag_49:\n      mload(0x40)\n      tag_51\n      swap2\n      swap1\n      tag_52\n      jump\t// in\n    tag_51:\n      mload(0x40)\n      dup1\n      swap2\n      sub\n      swap1\n      return\n        /* \"medicalContract2.sol\":1001:1031  address[] public doctorAddress */\n    tag_9:\n      tag_53\n      0x04\n      dup1\n      calldatasize\n      sub\n      dup2\n      add\n      swap1\n      tag_54\n      swap2\n      swap1\n      tag_27\n      jump\t// in\n    tag_54:\n      tag_55\n      jump\t// in\n    tag_53:\n      mload(0x40)\n      tag_56\n      swap2\n      swap1\n      tag_30\n      jump\t// in\n    tag_56:\n      mload(0x40)\n      dup1\n      swap2\n      sub\n      swap1\n      return\n        /* \"medicalContract2.sol\":3069:3355  function createWorkplace(string memory _name, string memory _workAddress) public onlyOwner {... */\n    tag_10:\n      tag_57\n      0x04\n      dup1\n      calldatasize\n      sub\n      dup2\n      add\n      swap1\n      tag_58\n      swap2\n      swap1\n      tag_59\n      jump\t// in\n    tag_58:\n      tag_60\n      jump\t// in\n    tag_57:\n      stop\n        /* \"medicalContract2.sol\":969:995  uint public workplaceCount */\n    tag_11:\n      tag_61\n      tag_62\n      jump\t// in\n    tag_61:\n      mload(0x40)\n      tag_63\n      swap2\n      swap1\n      tag_52\n      jump\t// in\n    tag_63:\n      mload(0x40)\n      dup1\n      swap2\n      sub\n      swap1\n      return\n        /* \"medicalContract2.sol\":879:902  uint public doctorCount */\n    tag_12:\n      tag_64\n      tag_65\n      jump\t// in\n    tag_64:\n      mload(0x40)\n      tag_66\n      swap2\n      swap1\n      tag_52\n      jump\t// in\n    tag_66:\n      mload(0x40)\n      dup1\n      swap2\n      sub\n      swap1\n      return\n        /* \"medicalContract2.sol\":2023:2544  function registerDoctor(string memory _name, string memory _qualification, uint256 _workplaceIndex) public {... */\n    tag_13:\n      tag_67\n      0x04\n      dup1\n      calldatasize\n      sub\n      dup2\n      add\n      swap1\n      tag_68\n      swap2\n      swap1\n      tag_69\n      jump\t// in\n    tag_68:\n      tag_70\n      jump\t// in\n    tag_67:\n      stop\n        /* \"medicalContract2.sol\":908:932  uint public patientCount */\n    tag_14:\n      tag_71\n      tag_72\n      jump\t// in\n    tag_71:\n      mload(0x40)\n      tag_73\n      swap2\n      swap1\n      tag_52\n      jump\t// in\n    tag_73:\n      mload(0x40)\n      dup1\n      swap2\n      sub\n      swap1\n      return\n        /* \"medicalContract2.sol\":674:715  mapping(address => Doctor) public doctors */\n    tag_15:\n      tag_74\n      0x04\n      dup1\n      calldatasize\n      sub\n      dup2\n      add\n      swap1\n      tag_75\n      swap2\n      swap1\n      tag_33\n      jump\t// in\n    tag_75:\n      tag_76\n      jump\t// in\n    tag_74:\n      mload(0x40)\n      tag_77\n      swap6\n      swap5\n      swap4\n      swap3\n      swap2\n      swap1\n      tag_78\n      jump\t// in\n    tag_77:\n      mload(0x40)\n      dup1\n      swap2\n      sub\n      swap1\n      return\n        /* \"medicalContract2.sol\":1385:1545  function workplaceExists(uint256 _workplaceIndex) public view returns (bool) {... */\n    tag_16:\n      tag_79\n      0x04\n      dup1\n      calldatasize\n      sub\n      dup2\n      add\n      swap1\n      tag_80\n      swap2\n      swap1\n      tag_27\n      jump\t// in\n    tag_80:\n      tag_81\n      jump\t// in\n    tag_79:\n      mload(0x40)\n      tag_82\n      swap2\n      swap1\n      tag_48\n      jump\t// in\n    tag_82:\n      mload(0x40)\n      dup1\n      swap2\n      sub\n      swap1\n      return\n        /* \"medicalContract2.sol\":1551:1780  function doctorNotExists() public view returns (bool) {... */\n    tag_17:\n      tag_83\n      tag_84\n      jump\t// in\n    tag_83:\n      mload(0x40)\n      tag_85\n      swap2\n      swap1\n      tag_48\n      jump\t// in\n    tag_85:\n      mload(0x40)\n      dup1\n      swap2\n      sub\n      swap1\n      return\n        /* \"medicalContract2.sol\":821:868  mapping(uint256 => Workplace) public workplaces */\n    tag_18:\n      tag_86\n      0x04\n      dup1\n      calldatasize\n      sub\n      dup2\n      add\n      swap1\n      tag_87\n      swap2\n      swap1\n      tag_27\n      jump\t// in\n    tag_87:\n      tag_88\n      jump\t// in\n    tag_86:\n      mload(0x40)\n      tag_89\n      swap4\n      swap3\n      swap2\n      swap1\n      tag_90\n      jump\t// in\n    tag_89:\n      mload(0x40)\n      dup1\n      swap2\n      sub\n      swap1\n      return\n        /* \"medicalContract2.sol\":770:815  mapping(uint256 => Medicine) public medicines */\n    tag_19:\n      tag_91\n      0x04\n      dup1\n      calldatasize\n      sub\n      dup2\n      add\n      swap1\n      tag_92\n      swap2\n      swap1\n      tag_27\n      jump\t// in\n    tag_92:\n      tag_93\n      jump\t// in\n    tag_91:\n      mload(0x40)\n      tag_94\n      swap6\n      swap5\n      swap4\n      swap3\n      swap2\n      swap1\n      tag_95\n      jump\t// in\n    tag_94:\n      mload(0x40)\n      dup1\n      swap2\n      sub\n      swap1\n      return\n        /* \"medicalContract2.sol\":3361:3638  function getAllWorkplaces() public view returns (Workplace[] memory) {... */\n    tag_20:\n      tag_96\n      tag_97\n      jump\t// in\n    tag_96:\n      mload(0x40)\n      tag_98\n      swap2\n      swap1\n      tag_99\n      jump\t// in\n    tag_98:\n      mload(0x40)\n      dup1\n      swap2\n      sub\n      swap1\n      return\n        /* \"medicalContract2.sol\":3644:3907  function getAllDoctors() public view returns (Doctor[] memory) {... */\n    tag_21:\n      tag_100\n      tag_101\n      jump\t// in\n    tag_100:\n      mload(0x40)\n      tag_102\n      swap2\n      swap1\n      tag_103\n      jump\t// in\n    tag_102:\n      mload(0x40)\n      dup1\n      swap2\n      sub\n      swap1\n      return\n        /* \"medicalContract2.sol\":1037:1068  address[] public patientAddress */\n    tag_28:\n      0x0a\n      dup2\n      dup2\n      sload\n      dup2\n      lt\n      tag_104\n      jumpi\n      0x00\n      dup1\n      revert\n    tag_104:\n      swap1\n      0x00\n      mstore\n      keccak256(0x00, 0x20)\n      add\n      0x00\n      swap2\n      pop\n      sload\n      swap1\n      0x0100\n      exp\n      swap1\n      div\n      0xffffffffffffffffffffffffffffffffffffffff\n      and\n      dup2\n      jump\t// out\n        /* \"medicalContract2.sol\":721:764  mapping(address => Patient) public patients */\n    tag_34:\n      mstore(0x20, 0x02)\n      dup1\n      0x00\n      mstore\n      keccak256(0x00, 0x40)\n      0x00\n      swap2\n      pop\n      swap1\n      pop\n      dup1\n      0x00\n      add\n      sload\n      swap1\n      dup1\n      0x01\n      add\n      dup1\n      sload\n      tag_106\n      swap1\n      tag_107\n      jump\t// in\n    tag_106:\n      dup1\n      0x1f\n      add\n      0x20\n      dup1\n      swap2\n      div\n      mul\n      0x20\n      add\n      mload(0x40)\n      swap1\n      dup2\n      add\n      0x40\n      mstore\n      dup1\n      swap3\n      swap2\n      swap1\n      dup2\n      dup2\n      mstore\n      0x20\n      add\n      dup3\n      dup1\n      sload\n      tag_108\n      swap1\n      tag_107\n      jump\t// in\n    tag_108:\n      dup1\n      iszero\n      tag_109\n      jumpi\n      dup1\n      0x1f\n      lt\n      tag_110\n      jumpi\n      0x0100\n      dup1\n      dup4\n      sload\n      div\n      mul\n      dup4\n      mstore\n      swap2\n      0x20\n      add\n      swap2\n      jump(tag_109)\n    tag_110:\n      dup3\n      add\n      swap2\n      swap1\n      0x00\n      mstore\n      keccak256(0x00, 0x20)\n      swap1\n    tag_111:\n      dup2\n      sload\n      dup2\n      mstore\n      swap1\n      0x01\n      add\n      swap1\n      0x20\n      add\n      dup1\n      dup4\n      gt\n      tag_111\n      jumpi\n      dup3\n      swap1\n      sub\n      0x1f\n      and\n      dup3\n      add\n      swap2\n    tag_109:\n      pop\n      pop\n      pop\n      pop\n      pop\n      swap1\n      dup1\n      0x02\n      add\n      sload\n      swap1\n      dup1\n      0x03\n      add\n      0x00\n      swap1\n      sload\n      swap1\n      0x0100\n      exp\n      swap1\n      div\n      0xffffffffffffffffffffffffffffffffffffffff\n      and\n      swap1\n      pop\n      dup5\n      jump\t// out\n        /* \"medicalContract2.sol\":3913:4184  function getAllPatients() public view returns (Patient[] memory) {... */\n    tag_38:\n        /* \"medicalContract2.sol\":3960:3976  Patient[] memory */\n      0x60\n        /* \"medicalContract2.sol\":3988:4011  Patient[] memory result */\n      0x00\n        /* \"medicalContract2.sol\":4028:4040  patientCount */\n      sload(0x06)\n        /* \"medicalContract2.sol\":4014:4041  new Patient[](patientCount) */\n      0xffffffffffffffff\n      dup2\n      gt\n      iszero\n      tag_113\n      jumpi\n      tag_114\n      tag_115\n      jump\t// in\n    tag_114:\n    tag_113:\n      mload(0x40)\n      swap1\n      dup1\n      dup3\n      mstore\n      dup1\n      0x20\n      mul\n      0x20\n      add\n      dup3\n      add\n      0x40\n      mstore\n      dup1\n      iszero\n      tag_116\n      jumpi\n      dup2\n      0x20\n      add\n    tag_117:\n      tag_118\n      tag_119\n      jump\t// in\n    tag_118:\n      dup2\n      mstore\n      0x20\n      add\n      swap1\n      0x01\n      swap1\n      sub\n      swap1\n      dup2\n      tag_117\n      jumpi\n      swap1\n      pop\n    tag_116:\n      pop\n        /* \"medicalContract2.sol\":3988:4041  Patient[] memory result = new Patient[](patientCount) */\n      swap1\n      pop\n        /* \"medicalContract2.sol\":4056:4062  uint i */\n      0x00\n        /* \"medicalContract2.sol\":4051:4155  for (uint i = 0; i < patientCount; i++) {... */\n    tag_120:\n        /* \"medicalContract2.sol\":4072:4084  patientCount */\n      sload(0x06)\n        /* \"medicalContract2.sol\":4068:4069  i */\n      dup2\n        /* \"medicalContract2.sol\":4068:4084  i < patientCount */\n      lt\n        /* \"medicalContract2.sol\":4051:4155  for (uint i = 0; i < patientCount; i++) {... */\n      iszero\n      tag_121\n      jumpi\n        /* \"medicalContract2.sol\":4117:4125  patients */\n      0x02\n        /* \"medicalContract2.sol\":4117:4144  patients[patientAddress[i]] */\n      0x00\n        /* \"medicalContract2.sol\":4126:4140  patientAddress */\n      0x0a\n        /* \"medicalContract2.sol\":4141:4142  i */\n      dup4\n        /* \"medicalContract2.sol\":4126:4143  patientAddress[i] */\n      dup2\n      sload\n      dup2\n      lt\n      tag_123\n      jumpi\n      tag_124\n      tag_125\n      jump\t// in\n    tag_124:\n    tag_123:\n      swap1\n      0x00\n      mstore\n      keccak256(0x00, 0x20)\n      add\n      0x00\n      swap1\n      sload\n      swap1\n      0x0100\n      exp\n      swap1\n      div\n      0xffffffffffffffffffffffffffffffffffffffff\n      and\n        /* \"medicalContract2.sol\":4117:4144  patients[patientAddress[i]] */\n      0xffffffffffffffffffffffffffffffffffffffff\n      and\n      0xffffffffffffffffffffffffffffffffffffffff\n      and\n      dup2\n      mstore\n      0x20\n      add\n      swap1\n      dup2\n      mstore\n      0x20\n      add\n      0x00\n      keccak256\n        /* \"medicalContract2.sol\":4105:4144  result[i] = patients[patientAddress[i]] */\n      mload(0x40)\n      dup1\n      0xe0\n      add\n      0x40\n      mstore\n      swap1\n      dup2\n      0x00\n      dup3\n      add\n      sload\n      dup2\n      mstore\n      0x20\n      add\n      0x01\n      dup3\n      add\n      dup1\n      sload\n      tag_127\n      swap1\n      tag_107\n      jump\t// in\n    tag_127:\n      dup1\n      0x1f\n      add\n      0x20\n      dup1\n      swap2\n      div\n      mul\n      0x20\n      add\n      mload(0x40)\n      swap1\n      dup2\n      add\n      0x40\n      mstore\n      dup1\n      swap3\n      swap2\n      swap1\n      dup2\n      dup2\n      mstore\n      0x20\n      add\n      dup3\n      dup1\n      sload\n      tag_128\n      swap1\n      tag_107\n      jump\t// in\n    tag_128:\n      dup1\n      iszero\n      tag_129\n      jumpi\n      dup1\n      0x1f\n      lt\n      tag_130\n      jumpi\n      0x0100\n      dup1\n      dup4\n      sload\n      div\n      mul\n      dup4\n      mstore\n      swap2\n      0x20\n      add\n      swap2\n      jump(tag_129)\n    tag_130:\n      dup3\n      add\n      swap2\n      swap1\n      0x00\n      mstore\n      keccak256(0x00, 0x20)\n      swap1\n    tag_131:\n      dup2\n      sload\n      dup2\n      mstore\n      swap1\n      0x01\n      add\n      swap1\n      0x20\n      add\n      dup1\n      dup4\n      gt\n      tag_131\n      jumpi\n      dup3\n      swap1\n      sub\n      0x1f\n      and\n      dup3\n      add\n      swap2\n    tag_129:\n      pop\n      pop\n      pop\n      pop\n      pop\n      dup2\n      mstore\n      0x20\n      add\n      0x02\n      dup3\n      add\n      sload\n      dup2\n      mstore\n      0x20\n      add\n      0x03\n      dup3\n      add\n      0x00\n      swap1\n      sload\n      swap1\n      0x0100\n      exp\n      swap1\n      div\n      0xffffffffffffffffffffffffffffffffffffffff\n      and\n      0xffffffffffffffffffffffffffffffffffffffff\n      and\n      0xffffffffffffffffffffffffffffffffffffffff\n      and\n      dup2\n      mstore\n      0x20\n      add\n      0x04\n      dup3\n      add\n      dup1\n      sload\n      dup1\n      0x20\n      mul\n      0x20\n      add\n      mload(0x40)\n      swap1\n      dup2\n      add\n      0x40\n      mstore\n      dup1\n      swap3\n      swap2\n      swap1\n      dup2\n      dup2\n      mstore\n      0x20\n      add\n      0x00\n      swap1\n    tag_132:\n      dup3\n      dup3\n      lt\n      iszero\n      tag_133\n      jumpi\n      dup4\n      dup3\n      swap1\n      0x00\n      mstore\n      keccak256(0x00, 0x20)\n      add\n      dup1\n      sload\n      tag_135\n      swap1\n      tag_107\n      jump\t// in\n    tag_135:\n      dup1\n      0x1f\n      add\n      0x20\n      dup1\n      swap2\n      div\n      mul\n      0x20\n      add\n      mload(0x40)\n      swap1\n      dup2\n      add\n      0x40\n      mstore\n      dup1\n      swap3\n      swap2\n      swap1\n      dup2\n      dup2\n      mstore\n      0x20\n      add\n      dup3\n      dup1\n      sload\n      tag_136\n      swap1\n      tag_107\n      jump\t// in\n    tag_136:\n      dup1\n      iszero\n      tag_137\n      jumpi\n      dup1\n      0x1f\n      lt\n      tag_138\n      jumpi\n      0x0100\n      dup1\n      dup4\n      sload\n      div\n      mul\n      dup4\n      mstore\n      swap2\n      0x20\n      add\n      swap2\n      jump(tag_137)\n    tag_138:\n      dup3\n      add\n      swap2\n      swap1\n      0x00\n      mstore\n      keccak256(0x00, 0x20)\n      swap1\n    tag_139:\n      dup2\n      sload\n      dup2\n      mstore\n      swap1\n      0x01\n      add\n      swap1\n      0x20\n      add\n      dup1\n      dup4\n      gt\n      tag_139\n      jumpi\n      dup3\n      swap1\n      sub\n      0x1f\n      and\n      dup3\n      add\n      swap2\n    tag_137:\n      pop\n      pop\n      pop\n      pop\n      pop\n      dup2\n      mstore\n      0x20\n      add\n      swap1\n      0x01\n      add\n      swap1\n      jump(tag_132)\n    tag_133:\n      pop\n      pop\n      pop\n      pop\n      dup2\n      mstore\n      0x20\n      add\n      0x05\n      dup3\n      add\n      dup1\n      sload\n      dup1\n      0x20\n      mul\n      0x20\n      add\n      mload(0x40)\n      swap1\n      dup2\n      add\n      0x40\n      mstore\n      dup1\n      swap3\n      swap2\n      swap1\n      dup2\n      dup2\n      mstore\n      0x20\n      add\n      0x00\n      swap1\n    tag_140:\n      dup3\n      dup3\n      lt\n      iszero\n      tag_141\n      jumpi\n      dup4\n      dup3\n      swap1\n      0x00\n      mstore\n      keccak256(0x00, 0x20)\n      add\n      dup1\n      sload\n      tag_143\n      swap1\n      tag_107\n      jump\t// in\n    tag_143:\n      dup1\n      0x1f\n      add\n      0x20\n      dup1\n      swap2\n      div\n      mul\n      0x20\n      add\n      mload(0x40)\n      swap1\n      dup2\n      add\n      0x40\n      mstore\n      dup1\n      swap3\n      swap2\n      swap1\n      dup2\n      dup2\n      mstore\n      0x20\n      add\n      dup3\n      dup1\n      sload\n      tag_144\n      swap1\n      tag_107\n      jump\t// in\n    tag_144:\n      dup1\n      iszero\n      tag_145\n      jumpi\n      dup1\n      0x1f\n      lt\n      tag_146\n      jumpi\n      0x0100\n      dup1\n      dup4\n      sload\n      div\n      mul\n      dup4\n      mstore\n      swap2\n      0x20\n      add\n      swap2\n      jump(tag_145)\n    tag_146:\n      dup3\n      add\n      swap2\n      swap1\n      0x00\n      mstore\n      keccak256(0x00, 0x20)\n      swap1\n    tag_147:\n      dup2\n      sload\n      dup2\n      mstore\n      swap1\n      0x01\n      add\n      swap1\n      0x20\n      add\n      dup1\n      dup4\n      gt\n      tag_147\n      jumpi\n      dup3\n      swap1\n      sub\n      0x1f\n      and\n      dup3\n      add\n      swap2\n    tag_145:\n      pop\n      pop\n      pop\n      pop\n      pop\n      dup2\n      mstore\n      0x20\n      add\n      swap1\n      0x01\n      add\n      swap1\n      jump(tag_140)\n    tag_141:\n      pop\n      pop\n      pop\n      pop\n      dup2\n      mstore\n      0x20\n      add\n      0x06\n      dup3\n      add\n      dup1\n      sload\n      dup1\n      0x20\n      mul\n      0x20\n      add\n      mload(0x40)\n      swap1\n      dup2\n      add\n      0x40\n      mstore\n      dup1\n      swap3\n      swap2\n      swap1\n      dup2\n      dup2\n      mstore\n      0x20\n      add\n      0x00\n      swap1\n    tag_148:\n      dup3\n      dup3\n      lt\n      iszero\n      tag_149\n      jumpi\n      dup4\n      dup3\n      swap1\n      0x00\n      mstore\n      keccak256(0x00, 0x20)\n      add\n      dup1\n      sload\n      tag_151\n      swap1\n      tag_107\n      jump\t// in\n    tag_151:\n      dup1\n      0x1f\n      add\n      0x20\n      dup1\n      swap2\n      div\n      mul\n      0x20\n      add\n      mload(0x40)\n      swap1\n      dup2\n      add\n      0x40\n      mstore\n      dup1\n      swap3\n      swap2\n      swap1\n      dup2\n      dup2\n      mstore\n      0x20\n      add\n      dup3\n      dup1\n      sload\n      tag_152\n      swap1\n      tag_107\n      jump\t// in\n    tag_152:\n      dup1\n      iszero\n      tag_153\n      jumpi\n      dup1\n      0x1f\n      lt\n      tag_154\n      jumpi\n      0x0100\n      dup1\n      dup4\n      sload\n      div\n      mul\n      dup4\n      mstore\n      swap2\n      0x20\n      add\n      swap2\n      jump(tag_153)\n    tag_154:\n      dup3\n      add\n      swap2\n      swap1\n      0x00\n      mstore\n      keccak256(0x00, 0x20)\n      swap1\n    tag_155:\n      dup2\n      sload\n      dup2\n      mstore\n      swap1\n      0x01\n      add\n      swap1\n      0x20\n      add\n      dup1\n      dup4\n      gt\n      tag_155\n      jumpi\n      dup3\n      swap1\n      sub\n      0x1f\n      and\n      dup3\n      add\n      swap2\n    tag_153:\n      pop\n      pop\n      pop\n      pop\n      pop\n      dup2\n      mstore\n      0x20\n      add\n      swap1\n      0x01\n      add\n      swap1\n      jump(tag_148)\n    tag_149:\n      pop\n      pop\n      pop\n      pop\n      dup2\n      mstore\n      pop\n      pop\n        /* \"medicalContract2.sol\":4105:4111  result */\n      dup3\n        /* \"medicalContract2.sol\":4112:4113  i */\n      dup3\n        /* \"medicalContract2.sol\":4105:4114  result[i] */\n      dup2\n      mload\n      dup2\n      lt\n      tag_156\n      jumpi\n      tag_157\n      tag_125\n      jump\t// in\n    tag_157:\n    tag_156:\n      0x20\n      mul\n      0x20\n      add\n      add\n        /* \"medicalContract2.sol\":4105:4144  result[i] = patients[patientAddress[i]] */\n      dup2\n      swap1\n      mstore\n      pop\n        /* \"medicalContract2.sol\":4086:4089  i++ */\n      dup1\n      dup1\n      tag_158\n      swap1\n      tag_159\n      jump\t// in\n    tag_158:\n      swap2\n      pop\n      pop\n        /* \"medicalContract2.sol\":4051:4155  for (uint i = 0; i < patientCount; i++) {... */\n      jump(tag_120)\n    tag_121:\n      pop\n        /* \"medicalContract2.sol\":4171:4177  result */\n      dup1\n        /* \"medicalContract2.sol\":4164:4177  return result */\n      swap2\n      pop\n      pop\n        /* \"medicalContract2.sol\":3913:4184  function getAllPatients() public view returns (Patient[] memory) {... */\n      swap1\n      jump\t// out\n        /* \"medicalContract2.sol\":2550:3063  function registerPatient(string memory _name, uint _age) public {... */\n    tag_44:\n        /* \"medicalContract2.sol\":2632:2650  patientNotExists() */\n      tag_161\n        /* \"medicalContract2.sol\":2632:2648  patientNotExists */\n      tag_46\n        /* \"medicalContract2.sol\":2632:2650  patientNotExists() */\n      jump\t// in\n    tag_161:\n        /* \"medicalContract2.sol\":2624:2677  require(patientNotExists(), \"Patient already exists\") */\n      tag_162\n      jumpi\n      mload(0x40)\n      0x08c379a000000000000000000000000000000000000000000000000000000000\n      dup2\n      mstore\n      0x04\n      add\n      tag_163\n      swap1\n      tag_164\n      jump\t// in\n    tag_163:\n      mload(0x40)\n      dup1\n      swap2\n      sub\n      swap1\n      revert\n    tag_162:\n        /* \"medicalContract2.sol\":2687:2711  string[] memory diseases */\n      0x60\n        /* \"medicalContract2.sol\":2721:2756  string[] memory prescribedMedicines */\n      dup1\n        /* \"medicalContract2.sol\":2766:2796  string[] memory allowedDoctors */\n      0x60\n        /* \"medicalContract2.sol\":2829:2991  Patient({id: patientCount, name: _name, age: _age, publicAddress: msg.sender, diseases: diseases, medicines: prescribedMedicines, allowedDoctors: allowedDoctors}) */\n      mload(0x40)\n      dup1\n      0xe0\n      add\n      0x40\n      mstore\n      dup1\n        /* \"medicalContract2.sol\":2842:2854  patientCount */\n      sload(0x06)\n        /* \"medicalContract2.sol\":2829:2991  Patient({id: patientCount, name: _name, age: _age, publicAddress: msg.sender, diseases: diseases, medicines: prescribedMedicines, allowedDoctors: allowedDoctors}) */\n      dup2\n      mstore\n      0x20\n      add\n        /* \"medicalContract2.sol\":2862:2867  _name */\n      dup7\n        /* \"medicalContract2.sol\":2829:2991  Patient({id: patientCount, name: _name, age: _age, publicAddress: msg.sender, diseases: diseases, medicines: prescribedMedicines, allowedDoctors: allowedDoctors}) */\n      dup2\n      mstore\n      0x20\n      add\n        /* \"medicalContract2.sol\":2874:2878  _age */\n      dup6\n        /* \"medicalContract2.sol\":2829:2991  Patient({id: patientCount, name: _name, age: _age, publicAddress: msg.sender, diseases: diseases, medicines: prescribedMedicines, allowedDoctors: allowedDoctors}) */\n      dup2\n      mstore\n      0x20\n      add\n        /* \"medicalContract2.sol\":2895:2905  msg.sender */\n      caller\n        /* \"medicalContract2.sol\":2829:2991  Patient({id: patientCount, name: _name, age: _age, publicAddress: msg.sender, diseases: diseases, medicines: prescribedMedicines, allowedDoctors: allowedDoctors}) */\n      0xffffffffffffffffffffffffffffffffffffffff\n      and\n      dup2\n      mstore\n      0x20\n      add\n        /* \"medicalContract2.sol\":2917:2925  diseases */\n      dup5\n        /* \"medicalContract2.sol\":2829:2991  Patient({id: patientCount, name: _name, age: _age, publicAddress: msg.sender, diseases: diseases, medicines: prescribedMedicines, allowedDoctors: allowedDoctors}) */\n      dup2\n      mstore\n      0x20\n      add\n        /* \"medicalContract2.sol\":2938:2957  prescribedMedicines */\n      dup4\n        /* \"medicalContract2.sol\":2829:2991  Patient({id: patientCount, name: _name, age: _age, publicAddress: msg.sender, diseases: diseases, medicines: prescribedMedicines, allowedDoctors: allowedDoctors}) */\n      dup2\n      mstore\n      0x20\n      add\n        /* \"medicalContract2.sol\":2975:2989  allowedDoctors */\n      dup3\n        /* \"medicalContract2.sol\":2829:2991  Patient({id: patientCount, name: _name, age: _age, publicAddress: msg.sender, diseases: diseases, medicines: prescribedMedicines, allowedDoctors: allowedDoctors}) */\n      dup2\n      mstore\n      pop\n        /* \"medicalContract2.sol\":2806:2814  patients */\n      0x02\n        /* \"medicalContract2.sol\":2806:2826  patients[msg.sender] */\n      0x00\n        /* \"medicalContract2.sol\":2815:2825  msg.sender */\n      caller\n        /* \"medicalContract2.sol\":2806:2826  patients[msg.sender] */\n      0xffffffffffffffffffffffffffffffffffffffff\n      and\n      0xffffffffffffffffffffffffffffffffffffffff\n      and\n      dup2\n      mstore\n      0x20\n      add\n      swap1\n      dup2\n      mstore\n      0x20\n      add\n      0x00\n      keccak256\n        /* \"medicalContract2.sol\":2806:2991  patients[msg.sender] = Patient({id: patientCount, name: _name, age: _age, publicAddress: msg.sender, diseases: diseases, medicines: prescribedMedicines, allowedDoctors: allowedDoctors}) */\n      0x00\n      dup3\n      add\n      mload\n      dup2\n      0x00\n      add\n      sstore\n      0x20\n      dup3\n      add\n      mload\n      dup2\n      0x01\n      add\n      swap1\n      dup2\n      tag_165\n      swap2\n      swap1\n      tag_166\n      jump\t// in\n    tag_165:\n      pop\n      0x40\n      dup3\n      add\n      mload\n      dup2\n      0x02\n      add\n      sstore\n      0x60\n      dup3\n      add\n      mload\n      dup2\n      0x03\n      add\n      exp(0x0100, 0x00)\n      dup2\n      sload\n      dup2\n      0xffffffffffffffffffffffffffffffffffffffff\n      mul\n      not\n      and\n      swap1\n      dup4\n      0xffffffffffffffffffffffffffffffffffffffff\n      and\n      mul\n      or\n      swap1\n      sstore\n      pop\n      0x80\n      dup3\n      add\n      mload\n      dup2\n      0x04\n      add\n      swap1\n      dup1\n      mload\n      swap1\n      0x20\n      add\n      swap1\n      tag_167\n      swap3\n      swap2\n      swap1\n      tag_168\n      jump\t// in\n    tag_167:\n      pop\n      0xa0\n      dup3\n      add\n      mload\n      dup2\n      0x05\n      add\n      swap1\n      dup1\n      mload\n      swap1\n      0x20\n      add\n      swap1\n      tag_169\n      swap3\n      swap2\n      swap1\n      tag_168\n      jump\t// in\n    tag_169:\n      pop\n      0xc0\n      dup3\n      add\n      mload\n      dup2\n      0x06\n      add\n      swap1\n      dup1\n      mload\n      swap1\n      0x20\n      add\n      swap1\n      tag_170\n      swap3\n      swap2\n      swap1\n      tag_168\n      jump\t// in\n    tag_170:\n      pop\n      swap1\n      pop\n      pop\n        /* \"medicalContract2.sol\":3001:3015  patientAddress */\n      0x0a\n        /* \"medicalContract2.sol\":3021:3031  msg.sender */\n      caller\n        /* \"medicalContract2.sol\":3001:3032  patientAddress.push(msg.sender) */\n      swap1\n      dup1\n      0x01\n      dup2\n      sload\n      add\n      dup1\n      dup3\n      sstore\n      dup1\n      swap2\n      pop\n      pop\n      0x01\n      swap1\n      sub\n      swap1\n      0x00\n      mstore\n      keccak256(0x00, 0x20)\n      add\n      0x00\n      swap1\n      swap2\n      swap1\n      swap2\n      swap1\n      swap2\n      0x0100\n      exp\n      dup2\n      sload\n      dup2\n      0xffffffffffffffffffffffffffffffffffffffff\n      mul\n      not\n      and\n      swap1\n      dup4\n      0xffffffffffffffffffffffffffffffffffffffff\n      and\n      mul\n      or\n      swap1\n      sstore\n      pop\n        /* \"medicalContract2.sol\":3042:3054  patientCount */\n      0x06\n      0x00\n        /* \"medicalContract2.sol\":3042:3056  patientCount++ */\n      dup2\n      sload\n      dup1\n      swap3\n      swap2\n      swap1\n      tag_172\n      swap1\n      tag_159\n      jump\t// in\n    tag_172:\n      swap2\n      swap1\n      pop\n      sstore\n      pop\n        /* \"medicalContract2.sol\":2614:3063  {... */\n      pop\n      pop\n      pop\n        /* \"medicalContract2.sol\":2550:3063  function registerPatient(string memory _name, uint _age) public {... */\n      pop\n      pop\n      jump\t// out\n        /* \"medicalContract2.sol\":1786:2018  function patientNotExists() public view returns (bool) {... */\n    tag_46:\n        /* \"medicalContract2.sol\":1835:1839  bool */\n      0x00\n        /* \"medicalContract2.sol\":1855:1861  uint i */\n      dup1\n        /* \"medicalContract2.sol\":1862:1863  0 */\n      0x00\n        /* \"medicalContract2.sol\":1855:1863  uint i=0 */\n      swap1\n      pop\n        /* \"medicalContract2.sol\":1851:1991  for(uint i=0; i<patientCount; i++) {... */\n    tag_174:\n        /* \"medicalContract2.sol\":1867:1879  patientCount */\n      sload(0x06)\n        /* \"medicalContract2.sol\":1865:1866  i */\n      dup2\n        /* \"medicalContract2.sol\":1865:1879  i<patientCount */\n      lt\n        /* \"medicalContract2.sol\":1851:1991  for(uint i=0; i<patientCount; i++) {... */\n      iszero\n      tag_175\n      jumpi\n        /* \"medicalContract2.sol\":1924:1934  msg.sender */\n      caller\n        /* \"medicalContract2.sol\":1903:1934  patientAddress[i] == msg.sender */\n      0xffffffffffffffffffffffffffffffffffffffff\n      and\n        /* \"medicalContract2.sol\":1903:1917  patientAddress */\n      0x0a\n        /* \"medicalContract2.sol\":1918:1919  i */\n      dup3\n        /* \"medicalContract2.sol\":1903:1920  patientAddress[i] */\n      dup2\n      sload\n      dup2\n      lt\n      tag_177\n      jumpi\n      tag_178\n      tag_125\n      jump\t// in\n    tag_178:\n    tag_177:\n      swap1\n      0x00\n      mstore\n      keccak256(0x00, 0x20)\n      add\n      0x00\n      swap1\n      sload\n      swap1\n      0x0100\n      exp\n      swap1\n      div\n      0xffffffffffffffffffffffffffffffffffffffff\n      and\n        /* \"medicalContract2.sol\":1903:1934  patientAddress[i] == msg.sender */\n      0xffffffffffffffffffffffffffffffffffffffff\n      and\n      sub\n        /* \"medicalContract2.sol\":1900:1981  if(patientAddress[i] == msg.sender) {... */\n      tag_180\n      jumpi\n        /* \"medicalContract2.sol\":1961:1966  false */\n      0x00\n        /* \"medicalContract2.sol\":1954:1966  return false */\n      swap2\n      pop\n      pop\n      jump(tag_173)\n        /* \"medicalContract2.sol\":1900:1981  if(patientAddress[i] == msg.sender) {... */\n    tag_180:\n        /* \"medicalContract2.sol\":1881:1884  i++ */\n      dup1\n      dup1\n      tag_181\n      swap1\n      tag_159\n      jump\t// in\n    tag_181:\n      swap2\n      pop\n      pop\n        /* \"medicalContract2.sol\":1851:1991  for(uint i=0; i<patientCount; i++) {... */\n      jump(tag_174)\n    tag_175:\n      pop\n        /* \"medicalContract2.sol\":2007:2011  true */\n      0x01\n        /* \"medicalContract2.sol\":2000:2011  return true */\n      swap1\n      pop\n        /* \"medicalContract2.sol\":1786:2018  function patientNotExists() public view returns (bool) {... */\n    tag_173:\n      swap1\n      jump\t// out\n        /* \"medicalContract2.sol\":938:963  uint public medicineCount */\n    tag_50:\n      sload(0x07)\n      dup2\n      jump\t// out\n        /* \"medicalContract2.sol\":1001:1031  address[] public doctorAddress */\n    tag_55:\n      0x09\n      dup2\n      dup2\n      sload\n      dup2\n      lt\n      tag_182\n      jumpi\n      0x00\n      dup1\n      revert\n    tag_182:\n      swap1\n      0x00\n      mstore\n      keccak256(0x00, 0x20)\n      add\n      0x00\n      swap2\n      pop\n      sload\n      swap1\n      0x0100\n      exp\n      swap1\n      div\n      0xffffffffffffffffffffffffffffffffffffffff\n      and\n      dup2\n      jump\t// out\n        /* \"medicalContract2.sol\":3069:3355  function createWorkplace(string memory _name, string memory _workAddress) public onlyOwner {... */\n    tag_60:\n        /* \"medicalContract2.sol\":1188:1193  owner */\n      0x00\n      dup1\n      sload\n      swap1\n      0x0100\n      exp\n      swap1\n      div\n      0xffffffffffffffffffffffffffffffffffffffff\n      and\n        /* \"medicalContract2.sol\":1174:1193  msg.sender == owner */\n      0xffffffffffffffffffffffffffffffffffffffff\n      and\n        /* \"medicalContract2.sol\":1174:1184  msg.sender */\n      caller\n        /* \"medicalContract2.sol\":1174:1193  msg.sender == owner */\n      0xffffffffffffffffffffffffffffffffffffffff\n      and\n      eq\n        /* \"medicalContract2.sol\":1166:1246  require(msg.sender == owner, \"Only the contract owner can perform this action.\") */\n      tag_185\n      jumpi\n      mload(0x40)\n      0x08c379a000000000000000000000000000000000000000000000000000000000\n      dup2\n      mstore\n      0x04\n      add\n      tag_186\n      swap1\n      tag_187\n      jump\t// in\n    tag_186:\n      mload(0x40)\n      dup1\n      swap2\n      sub\n      swap1\n      revert\n    tag_185:\n        /* \"medicalContract2.sol\":3200:3201  0 */\n      0x00\n        /* \"medicalContract2.sol\":3184:3189  _name */\n      dup3\n        /* \"medicalContract2.sol\":3178:3197  bytes(_name).length */\n      mload\n        /* \"medicalContract2.sol\":3178:3201  bytes(_name).length > 0 */\n      gt\n        /* \"medicalContract2.sol\":3170:3237  require(bytes(_name).length > 0, \"Workplace name cannot be empty.\") */\n      tag_189\n      jumpi\n      mload(0x40)\n      0x08c379a000000000000000000000000000000000000000000000000000000000\n      dup2\n      mstore\n      0x04\n      add\n      tag_190\n      swap1\n      tag_191\n      jump\t// in\n    tag_190:\n      mload(0x40)\n      dup1\n      swap2\n      sub\n      swap1\n      revert\n    tag_189:\n        /* \"medicalContract2.sol\":3247:3261  workplaceCount */\n      0x08\n      0x00\n        /* \"medicalContract2.sol\":3247:3263  workplaceCount++ */\n      dup2\n      sload\n      dup1\n      swap3\n      swap2\n      swap1\n      tag_192\n      swap1\n      tag_159\n      jump\t// in\n    tag_192:\n      swap2\n      swap1\n      pop\n      sstore\n      pop\n        /* \"medicalContract2.sol\":3302:3348  Workplace(workplaceCount, _name, _workAddress) */\n      mload(0x40)\n      dup1\n      0x60\n      add\n      0x40\n      mstore\n      dup1\n        /* \"medicalContract2.sol\":3312:3326  workplaceCount */\n      sload(0x08)\n        /* \"medicalContract2.sol\":3302:3348  Workplace(workplaceCount, _name, _workAddress) */\n      dup2\n      mstore\n      0x20\n      add\n        /* \"medicalContract2.sol\":3328:3333  _name */\n      dup4\n        /* \"medicalContract2.sol\":3302:3348  Workplace(workplaceCount, _name, _workAddress) */\n      dup2\n      mstore\n      0x20\n      add\n        /* \"medicalContract2.sol\":3335:3347  _workAddress */\n      dup3\n        /* \"medicalContract2.sol\":3302:3348  Workplace(workplaceCount, _name, _workAddress) */\n      dup2\n      mstore\n      pop\n        /* \"medicalContract2.sol\":3273:3283  workplaces */\n      0x04\n        /* \"medicalContract2.sol\":3273:3299  workplaces[workplaceCount] */\n      0x00\n        /* \"medicalContract2.sol\":3284:3298  workplaceCount */\n      sload(0x08)\n        /* \"medicalContract2.sol\":3273:3299  workplaces[workplaceCount] */\n      dup2\n      mstore\n      0x20\n      add\n      swap1\n      dup2\n      mstore\n      0x20\n      add\n      0x00\n      keccak256\n        /* \"medicalContract2.sol\":3273:3348  workplaces[workplaceCount] = Workplace(workplaceCount, _name, _workAddress) */\n      0x00\n      dup3\n      add\n      mload\n      dup2\n      0x00\n      add\n      sstore\n      0x20\n      dup3\n      add\n      mload\n      dup2\n      0x01\n      add\n      swap1\n      dup2\n      tag_193\n      swap2\n      swap1\n      tag_166\n      jump\t// in\n    tag_193:\n      pop\n      0x40\n      dup3\n      add\n      mload\n      dup2\n      0x02\n      add\n      swap1\n      dup2\n      tag_194\n      swap2\n      swap1\n      tag_166\n      jump\t// in\n    tag_194:\n      pop\n      swap1\n      pop\n      pop\n        /* \"medicalContract2.sol\":3069:3355  function createWorkplace(string memory _name, string memory _workAddress) public onlyOwner {... */\n      pop\n      pop\n      jump\t// out\n        /* \"medicalContract2.sol\":969:995  uint public workplaceCount */\n    tag_62:\n      sload(0x08)\n      dup2\n      jump\t// out\n        /* \"medicalContract2.sol\":879:902  uint public doctorCount */\n    tag_65:\n      sload(0x05)\n      dup2\n      jump\t// out\n        /* \"medicalContract2.sol\":2023:2544  function registerDoctor(string memory _name, string memory _qualification, uint256 _workplaceIndex) public {... */\n    tag_70:\n        /* \"medicalContract2.sol\":2148:2180  workplaceExists(_workplaceIndex) */\n      tag_196\n        /* \"medicalContract2.sol\":2164:2179  _workplaceIndex */\n      dup2\n        /* \"medicalContract2.sol\":2148:2163  workplaceExists */\n      tag_81\n        /* \"medicalContract2.sol\":2148:2180  workplaceExists(_workplaceIndex) */\n      jump\t// in\n    tag_196:\n        /* \"medicalContract2.sol\":2140:2210  require(workplaceExists(_workplaceIndex), \"Workplace does not exist.\") */\n      tag_197\n      jumpi\n      mload(0x40)\n      0x08c379a000000000000000000000000000000000000000000000000000000000\n      dup2\n      mstore\n      0x04\n      add\n      tag_198\n      swap1\n      tag_199\n      jump\t// in\n    tag_198:\n      mload(0x40)\n      dup1\n      swap2\n      sub\n      swap1\n      revert\n    tag_197:\n        /* \"medicalContract2.sol\":2228:2245  doctorNotExists() */\n      tag_200\n        /* \"medicalContract2.sol\":2228:2243  doctorNotExists */\n      tag_84\n        /* \"medicalContract2.sol\":2228:2245  doctorNotExists() */\n      jump\t// in\n    tag_200:\n        /* \"medicalContract2.sol\":2220:2275  require(doctorNotExists(), \"Doctor already registered\") */\n      tag_201\n      jumpi\n      mload(0x40)\n      0x08c379a000000000000000000000000000000000000000000000000000000000\n      dup2\n      mstore\n      0x04\n      add\n      tag_202\n      swap1\n      tag_203\n      jump\t// in\n    tag_202:\n      mload(0x40)\n      dup1\n      swap2\n      sub\n      swap1\n      revert\n    tag_201:\n        /* \"medicalContract2.sol\":2307:2378  Doctor(doctorCount, _name, _qualification, msg.sender, _workplaceIndex) */\n      mload(0x40)\n      dup1\n      0xa0\n      add\n      0x40\n      mstore\n      dup1\n        /* \"medicalContract2.sol\":2314:2325  doctorCount */\n      sload(0x05)\n        /* \"medicalContract2.sol\":2307:2378  Doctor(doctorCount, _name, _qualification, msg.sender, _workplaceIndex) */\n      dup2\n      mstore\n      0x20\n      add\n        /* \"medicalContract2.sol\":2327:2332  _name */\n      dup5\n        /* \"medicalContract2.sol\":2307:2378  Doctor(doctorCount, _name, _qualification, msg.sender, _workplaceIndex) */\n      dup2\n      mstore\n      0x20\n      add\n        /* \"medicalContract2.sol\":2334:2348  _qualification */\n      dup4\n        /* \"medicalContract2.sol\":2307:2378  Doctor(doctorCount, _name, _qualification, msg.sender, _workplaceIndex) */\n      dup2\n      mstore\n      0x20\n      add\n        /* \"medicalContract2.sol\":2350:2360  msg.sender */\n      caller\n        /* \"medicalContract2.sol\":2307:2378  Doctor(doctorCount, _name, _qualification, msg.sender, _workplaceIndex) */\n      0xffffffffffffffffffffffffffffffffffffffff\n      and\n      dup2\n      mstore\n      0x20\n      add\n        /* \"medicalContract2.sol\":2362:2377  _workplaceIndex */\n      dup3\n        /* \"medicalContract2.sol\":2307:2378  Doctor(doctorCount, _name, _qualification, msg.sender, _workplaceIndex) */\n      dup2\n      mstore\n      pop\n        /* \"medicalContract2.sol\":2285:2292  doctors */\n      0x01\n        /* \"medicalContract2.sol\":2285:2304  doctors[msg.sender] */\n      0x00\n        /* \"medicalContract2.sol\":2293:2303  msg.sender */\n      caller\n        /* \"medicalContract2.sol\":2285:2304  doctors[msg.sender] */\n      0xffffffffffffffffffffffffffffffffffffffff\n      and\n      0xffffffffffffffffffffffffffffffffffffffff\n      and\n      dup2\n      mstore\n      0x20\n      add\n      swap1\n      dup2\n      mstore\n      0x20\n      add\n      0x00\n      keccak256\n        /* \"medicalContract2.sol\":2285:2378  doctors[msg.sender] = Doctor(doctorCount, _name, _qualification, msg.sender, _workplaceIndex) */\n      0x00\n      dup3\n      add\n      mload\n      dup2\n      0x00\n      add\n      sstore\n      0x20\n      dup3\n      add\n      mload\n      dup2\n      0x01\n      add\n      swap1\n      dup2\n      tag_204\n      swap2\n      swap1\n      tag_166\n      jump\t// in\n    tag_204:\n      pop\n      0x40\n      dup3\n      add\n      mload\n      dup2\n      0x02\n      add\n      swap1\n      dup2\n      tag_205\n      swap2\n      swap1\n      tag_166\n      jump\t// in\n    tag_205:\n      pop\n      0x60\n      dup3\n      add\n      mload\n      dup2\n      0x03\n      add\n      exp(0x0100, 0x00)\n      dup2\n      sload\n      dup2\n      0xffffffffffffffffffffffffffffffffffffffff\n      mul\n      not\n      and\n      swap1\n      dup4\n      0xffffffffffffffffffffffffffffffffffffffff\n      and\n      mul\n      or\n      swap1\n      sstore\n      pop\n      0x80\n      dup3\n      add\n      mload\n      dup2\n      0x04\n      add\n      sstore\n      swap1\n      pop\n      pop\n        /* \"medicalContract2.sol\":2388:2401  doctorAddress */\n      0x09\n        /* \"medicalContract2.sol\":2407:2417  msg.sender */\n      caller\n        /* \"medicalContract2.sol\":2388:2418  doctorAddress.push(msg.sender) */\n      swap1\n      dup1\n      0x01\n      dup2\n      sload\n      add\n      dup1\n      dup3\n      sstore\n      dup1\n      swap2\n      pop\n      pop\n      0x01\n      swap1\n      sub\n      swap1\n      0x00\n      mstore\n      keccak256(0x00, 0x20)\n      add\n      0x00\n      swap1\n      swap2\n      swap1\n      swap2\n      swap1\n      swap2\n      0x0100\n      exp\n      dup2\n      sload\n      dup2\n      0xffffffffffffffffffffffffffffffffffffffff\n      mul\n      not\n      and\n      swap1\n      dup4\n      0xffffffffffffffffffffffffffffffffffffffff\n      and\n      mul\n      or\n      swap1\n      sstore\n      pop\n        /* \"medicalContract2.sol\":2428:2439  doctorCount */\n      0x05\n      0x00\n        /* \"medicalContract2.sol\":2428:2441  doctorCount++ */\n      dup2\n      sload\n      dup1\n      swap3\n      swap2\n      swap1\n      tag_207\n      swap1\n      tag_159\n      jump\t// in\n    tag_207:\n      swap2\n      swap1\n      pop\n      sstore\n      pop\n        /* \"medicalContract2.sol\":2456:2537  DoctorRegistered(doctorCount, _name, _qualification, msg.sender, _workplaceIndex) */\n      0xa45d1ae6be42a8b22c1641c21768b3bc0c668438ec620628d71ae5c171fc5d5f\n        /* \"medicalContract2.sol\":2473:2484  doctorCount */\n      sload(0x05)\n        /* \"medicalContract2.sol\":2486:2491  _name */\n      dup5\n        /* \"medicalContract2.sol\":2493:2507  _qualification */\n      dup5\n        /* \"medicalContract2.sol\":2509:2519  msg.sender */\n      caller\n        /* \"medicalContract2.sol\":2521:2536  _workplaceIndex */\n      dup6\n        /* \"medicalContract2.sol\":2456:2537  DoctorRegistered(doctorCount, _name, _qualification, msg.sender, _workplaceIndex) */\n      mload(0x40)\n      tag_208\n      swap6\n      swap5\n      swap4\n      swap3\n      swap2\n      swap1\n      tag_78\n      jump\t// in\n    tag_208:\n      mload(0x40)\n      dup1\n      swap2\n      sub\n      swap1\n      log1\n        /* \"medicalContract2.sol\":2023:2544  function registerDoctor(string memory _name, string memory _qualification, uint256 _workplaceIndex) public {... */\n      pop\n      pop\n      pop\n      jump\t// out\n        /* \"medicalContract2.sol\":908:932  uint public patientCount */\n    tag_72:\n      sload(0x06)\n      dup2\n      jump\t// out\n        /* \"medicalContract2.sol\":674:715  mapping(address => Doctor) public doctors */\n    tag_76:\n      mstore(0x20, 0x01)\n      dup1\n      0x00\n      mstore\n      keccak256(0x00, 0x40)\n      0x00\n      swap2\n      pop\n      swap1\n      pop\n      dup1\n      0x00\n      add\n      sload\n      swap1\n      dup1\n      0x01\n      add\n      dup1\n      sload\n      tag_209\n      swap1\n      tag_107\n      jump\t// in\n    tag_209:\n      dup1\n      0x1f\n      add\n      0x20\n      dup1\n      swap2\n      div\n      mul\n      0x20\n      add\n      mload(0x40)\n      swap1\n      dup2\n      add\n      0x40\n      mstore\n      dup1\n      swap3\n      swap2\n      swap1\n      dup2\n      dup2\n      mstore\n      0x20\n      add\n      dup3\n      dup1\n      sload\n      tag_210\n      swap1\n      tag_107\n      jump\t// in\n    tag_210:\n      dup1\n      iszero\n      tag_211\n      jumpi\n      dup1\n      0x1f\n      lt\n      tag_212\n      jumpi\n      0x0100\n      dup1\n      dup4\n      sload\n      div\n      mul\n      dup4\n      mstore\n      swap2\n      0x20\n      add\n      swap2\n      jump(tag_211)\n    tag_212:\n      dup3\n      add\n      swap2\n      swap1\n      0x00\n      mstore\n      keccak256(0x00, 0x20)\n      swap1\n    tag_213:\n      dup2\n      sload\n      dup2\n      mstore\n      swap1\n      0x01\n      add\n      swap1\n      0x20\n      add\n      dup1\n      dup4\n      gt\n      tag_213\n      jumpi\n      dup3\n      swap1\n      sub\n      0x1f\n      and\n      dup3\n      add\n      swap2\n    tag_211:\n      pop\n      pop\n      pop\n      pop\n      pop\n      swap1\n      dup1\n      0x02\n      add\n      dup1\n      sload\n      tag_214\n      swap1\n      tag_107\n      jump\t// in\n    tag_214:\n      dup1\n      0x1f\n      add\n      0x20\n      dup1\n      swap2\n      div\n      mul\n      0x20\n      add\n      mload(0x40)\n      swap1\n      dup2\n      add\n      0x40\n      mstore\n      dup1\n      swap3\n      swap2\n      swap1\n      dup2\n      dup2\n      mstore\n      0x20\n      add\n      dup3\n      dup1\n      sload\n      tag_215\n      swap1\n      tag_107\n      jump\t// in\n    tag_215:\n      dup1\n      iszero\n      tag_216\n      jumpi\n      dup1\n      0x1f\n      lt\n      tag_217\n      jumpi\n      0x0100\n      dup1\n      dup4\n      sload\n      div\n      mul\n      dup4\n      mstore\n      swap2\n      0x20\n      add\n      swap2\n      jump(tag_216)\n    tag_217:\n      dup3\n      add\n      swap2\n      swap1\n      0x00\n      mstore\n      keccak256(0x00, 0x20)\n      swap1\n    tag_218:\n      dup2\n      sload\n      dup2\n      mstore\n      swap1\n      0x01\n      add\n      swap1\n      0x20\n      add\n      dup1\n      dup4\n      gt\n      tag_218\n      jumpi\n      dup3\n      swap1\n      sub\n      0x1f\n      and\n      dup3\n      add\n      swap2\n    tag_216:\n      pop\n      pop\n      pop\n      pop\n      pop\n      swap1\n      dup1\n      0x03\n      add\n      0x00\n      swap1\n      sload\n      swap1\n      0x0100\n      exp\n      swap1\n      div\n      0xffffffffffffffffffffffffffffffffffffffff\n      and\n      swap1\n      dup1\n      0x04\n      add\n      sload\n      swap1\n      pop\n      dup6\n      jump\t// out\n        /* \"medicalContract2.sol\":1385:1545  function workplaceExists(uint256 _workplaceIndex) public view returns (bool) {... */\n    tag_81:\n        /* \"medicalContract2.sol\":1456:1460  bool */\n      0x00\n        /* \"medicalContract2.sol\":1499:1500  0 */\n      dup1\n        /* \"medicalContract2.sol\":1480:1495  _workplaceIndex */\n      dup3\n        /* \"medicalContract2.sol\":1480:1500  _workplaceIndex >= 0 */\n      lt\n      iszero\n        /* \"medicalContract2.sol\":1480:1537  _workplaceIndex >= 0 && _workplaceIndex <= workplaceCount */\n      dup1\n      iszero\n      tag_220\n      jumpi\n      pop\n        /* \"medicalContract2.sol\":1523:1537  workplaceCount */\n      sload(0x08)\n        /* \"medicalContract2.sol\":1504:1519  _workplaceIndex */\n      dup3\n        /* \"medicalContract2.sol\":1504:1537  _workplaceIndex <= workplaceCount */\n      gt\n      iszero\n        /* \"medicalContract2.sol\":1480:1537  _workplaceIndex >= 0 && _workplaceIndex <= workplaceCount */\n    tag_220:\n        /* \"medicalContract2.sol\":1472:1538  return (_workplaceIndex >= 0 && _workplaceIndex <= workplaceCount) */\n      swap1\n      pop\n        /* \"medicalContract2.sol\":1385:1545  function workplaceExists(uint256 _workplaceIndex) public view returns (bool) {... */\n      swap2\n      swap1\n      pop\n      jump\t// out\n        /* \"medicalContract2.sol\":1551:1780  function doctorNotExists() public view returns (bool) {... */\n    tag_84:\n        /* \"medicalContract2.sol\":1599:1603  bool */\n      0x00\n        /* \"medicalContract2.sol\":1619:1625  uint i */\n      dup1\n        /* \"medicalContract2.sol\":1626:1627  0 */\n      0x00\n        /* \"medicalContract2.sol\":1619:1627  uint i=0 */\n      swap1\n      pop\n        /* \"medicalContract2.sol\":1615:1753  for(uint i=0; i<doctorCount; i++) {... */\n    tag_222:\n        /* \"medicalContract2.sol\":1631:1642  doctorCount */\n      sload(0x05)\n        /* \"medicalContract2.sol\":1629:1630  i */\n      dup2\n        /* \"medicalContract2.sol\":1629:1642  i<doctorCount */\n      lt\n        /* \"medicalContract2.sol\":1615:1753  for(uint i=0; i<doctorCount; i++) {... */\n      iszero\n      tag_223\n      jumpi\n        /* \"medicalContract2.sol\":1686:1696  msg.sender */\n      caller\n        /* \"medicalContract2.sol\":1666:1696  doctorAddress[i] == msg.sender */\n      0xffffffffffffffffffffffffffffffffffffffff\n      and\n        /* \"medicalContract2.sol\":1666:1679  doctorAddress */\n      0x09\n        /* \"medicalContract2.sol\":1680:1681  i */\n      dup3\n        /* \"medicalContract2.sol\":1666:1682  doctorAddress[i] */\n      dup2\n      sload\n      dup2\n      lt\n      tag_225\n      jumpi\n      tag_226\n      tag_125\n      jump\t// in\n    tag_226:\n    tag_225:\n      swap1\n      0x00\n      mstore\n      keccak256(0x00, 0x20)\n      add\n      0x00\n      swap1\n      sload\n      swap1\n      0x0100\n      exp\n      swap1\n      div\n      0xffffffffffffffffffffffffffffffffffffffff\n      and\n        /* \"medicalContract2.sol\":1666:1696  doctorAddress[i] == msg.sender */\n      0xffffffffffffffffffffffffffffffffffffffff\n      and\n      sub\n        /* \"medicalContract2.sol\":1663:1743  if(doctorAddress[i] == msg.sender) {... */\n      tag_228\n      jumpi\n        /* \"medicalContract2.sol\":1723:1728  false */\n      0x00\n        /* \"medicalContract2.sol\":1716:1728  return false */\n      swap2\n      pop\n      pop\n      jump(tag_221)\n        /* \"medicalContract2.sol\":1663:1743  if(doctorAddress[i] == msg.sender) {... */\n    tag_228:\n        /* \"medicalContract2.sol\":1644:1647  i++ */\n      dup1\n      dup1\n      tag_229\n      swap1\n      tag_159\n      jump\t// in\n    tag_229:\n      swap2\n      pop\n      pop\n        /* \"medicalContract2.sol\":1615:1753  for(uint i=0; i<doctorCount; i++) {... */\n      jump(tag_222)\n    tag_223:\n      pop\n        /* \"medicalContract2.sol\":1769:1773  true */\n      0x01\n        /* \"medicalContract2.sol\":1762:1773  return true */\n      swap1\n      pop\n        /* \"medicalContract2.sol\":1551:1780  function doctorNotExists() public view returns (bool) {... */\n    tag_221:\n      swap1\n      jump\t// out\n        /* \"medicalContract2.sol\":821:868  mapping(uint256 => Workplace) public workplaces */\n    tag_88:\n      mstore(0x20, 0x04)\n      dup1\n      0x00\n      mstore\n      keccak256(0x00, 0x40)\n      0x00\n      swap2\n      pop\n      swap1\n      pop\n      dup1\n      0x00\n      add\n      sload\n      swap1\n      dup1\n      0x01\n      add\n      dup1\n      sload\n      tag_230\n      swap1\n      tag_107\n      jump\t// in\n    tag_230:\n      dup1\n      0x1f\n      add\n      0x20\n      dup1\n      swap2\n      div\n      mul\n      0x20\n      add\n      mload(0x40)\n      swap1\n      dup2\n      add\n      0x40\n      mstore\n      dup1\n      swap3\n      swap2\n      swap1\n      dup2\n      dup2\n      mstore\n      0x20\n      add\n      dup3\n      dup1\n      sload\n      tag_231\n      swap1\n      tag_107\n      jump\t// in\n    tag_231:\n      dup1\n      iszero\n      tag_232\n      jumpi\n      dup1\n      0x1f\n      lt\n      tag_233\n      jumpi\n      0x0100\n      dup1\n      dup4\n      sload\n      div\n      mul\n      dup4\n      mstore\n      swap2\n      0x20\n      add\n      swap2\n      jump(tag_232)\n    tag_233:\n      dup3\n      add\n      swap2\n      swap1\n      0x00\n      mstore\n      keccak256(0x00, 0x20)\n      swap1\n    tag_234:\n      dup2\n      sload\n      dup2\n      mstore\n      swap1\n      0x01\n      add\n      swap1\n      0x20\n      add\n      dup1\n      dup4\n      gt\n      tag_234\n      jumpi\n      dup3\n      swap1\n      sub\n      0x1f\n      and\n      dup3\n      add\n      swap2\n    tag_232:\n      pop\n      pop\n      pop\n      pop\n      pop\n      swap1\n      dup1\n      0x02\n      add\n      dup1\n      sload\n      tag_235\n      swap1\n      tag_107\n      jump\t// in\n    tag_235:\n      dup1\n      0x1f\n      add\n      0x20\n      dup1\n      swap2\n      div\n      mul\n      0x20\n      add\n      mload(0x40)\n      swap1\n      dup2\n      add\n      0x40\n      mstore\n      dup1\n      swap3\n      swap2\n      swap1\n      dup2\n      dup2\n      mstore\n      0x20\n      add\n      dup3\n      dup1\n      sload\n      tag_236\n      swap1\n      tag_107\n      jump\t// in\n    tag_236:\n      dup1\n      iszero\n      tag_237\n      jumpi\n      dup1\n      0x1f\n      lt\n      tag_238\n      jumpi\n      0x0100\n      dup1\n      dup4\n      sload\n      div\n      mul\n      dup4\n      mstore\n      swap2\n      0x20\n      add\n      swap2\n      jump(tag_237)\n    tag_238:\n      dup3\n      add\n      swap2\n      swap1\n      0x00\n      mstore\n      keccak256(0x00, 0x20)\n      swap1\n    tag_239:\n      dup2\n      sload\n      dup2\n      mstore\n      swap1\n      0x01\n      add\n      swap1\n      0x20\n      add\n      dup1\n      dup4\n      gt\n      tag_239\n      jumpi\n      dup3\n      swap1\n      sub\n      0x1f\n      and\n      dup3\n      add\n      swap2\n    tag_237:\n      pop\n      pop\n      pop\n      pop\n      pop\n      swap1\n      pop\n      dup4\n      jump\t// out\n        /* \"medicalContract2.sol\":770:815  mapping(uint256 => Medicine) public medicines */\n    tag_93:\n      mstore(0x20, 0x03)\n      dup1\n      0x00\n      mstore\n      keccak256(0x00, 0x40)\n      0x00\n      swap2\n      pop\n      swap1\n      pop\n      dup1\n      0x00\n      add\n      sload\n      swap1\n      dup1\n      0x01\n      add\n      dup1\n      sload\n      tag_240\n      swap1\n      tag_107\n      jump\t// in\n    tag_240:\n      dup1\n      0x1f\n      add\n      0x20\n      dup1\n      swap2\n      div\n      mul\n      0x20\n      add\n      mload(0x40)\n      swap1\n      dup2\n      add\n      0x40\n      mstore\n      dup1\n      swap3\n      swap2\n      swap1\n      dup2\n      dup2\n      mstore\n      0x20\n      add\n      dup3\n      dup1\n      sload\n      tag_241\n      swap1\n      tag_107\n      jump\t// in\n    tag_241:\n      dup1\n      iszero\n      tag_242\n      jumpi\n      dup1\n      0x1f\n      lt\n      tag_243\n      jumpi\n      0x0100\n      dup1\n      dup4\n      sload\n      div\n      mul\n      dup4\n      mstore\n      swap2\n      0x20\n      add\n      swap2\n      jump(tag_242)\n    tag_243:\n      dup3\n      add\n      swap2\n      swap1\n      0x00\n      mstore\n      keccak256(0x00, 0x20)\n      swap1\n    tag_244:\n      dup2\n      sload\n      dup2\n      mstore\n      swap1\n      0x01\n      add\n      swap1\n      0x20\n      add\n      dup1\n      dup4\n      gt\n      tag_244\n      jumpi\n      dup3\n      swap1\n      sub\n      0x1f\n      and\n      dup3\n      add\n      swap2\n    tag_242:\n      pop\n      pop\n      pop\n      pop\n      pop\n      swap1\n      dup1\n      0x02\n      add\n      sload\n      swap1\n      dup1\n      0x03\n      add\n      sload\n      swap1\n      dup1\n      0x04\n      add\n      sload\n      swap1\n      pop\n      dup6\n      jump\t// out\n        /* \"medicalContract2.sol\":3361:3638  function getAllWorkplaces() public view returns (Workplace[] memory) {... */\n    tag_97:\n        /* \"medicalContract2.sol\":3410:3428  Workplace[] memory */\n      0x60\n        /* \"medicalContract2.sol\":3440:3465  Workplace[] memory result */\n      0x00\n        /* \"medicalContract2.sol\":3484:3498  workplaceCount */\n      sload(0x08)\n        /* \"medicalContract2.sol\":3468:3499  new Workplace[](workplaceCount) */\n      0xffffffffffffffff\n      dup2\n      gt\n      iszero\n      tag_246\n      jumpi\n      tag_247\n      tag_115\n      jump\t// in\n    tag_247:\n    tag_246:\n      mload(0x40)\n      swap1\n      dup1\n      dup3\n      mstore\n      dup1\n      0x20\n      mul\n      0x20\n      add\n      dup3\n      add\n      0x40\n      mstore\n      dup1\n      iszero\n      tag_248\n      jumpi\n      dup2\n      0x20\n      add\n    tag_249:\n      tag_250\n      tag_251\n      jump\t// in\n    tag_250:\n      dup2\n      mstore\n      0x20\n      add\n      swap1\n      0x01\n      swap1\n      sub\n      swap1\n      dup2\n      tag_249\n      jumpi\n      swap1\n      pop\n    tag_248:\n      pop\n        /* \"medicalContract2.sol\":3440:3499  Workplace[] memory result = new Workplace[](workplaceCount) */\n      swap1\n      pop\n        /* \"medicalContract2.sol\":3514:3523  uint256 i */\n      0x00\n        /* \"medicalContract2.sol\":3526:3527  1 */\n      0x01\n        /* \"medicalContract2.sol\":3514:3527  uint256 i = 1 */\n      swap1\n      pop\n        /* \"medicalContract2.sol\":3509:3609  for (uint256 i = 1; i <= workplaceCount; i++) {... */\n    tag_252:\n        /* \"medicalContract2.sol\":3534:3548  workplaceCount */\n      sload(0x08)\n        /* \"medicalContract2.sol\":3529:3530  i */\n      dup2\n        /* \"medicalContract2.sol\":3529:3548  i <= workplaceCount */\n      gt\n        /* \"medicalContract2.sol\":3509:3609  for (uint256 i = 1; i <= workplaceCount; i++) {... */\n      tag_253\n      jumpi\n        /* \"medicalContract2.sol\":3585:3595  workplaces */\n      0x04\n        /* \"medicalContract2.sol\":3585:3598  workplaces[i] */\n      0x00\n        /* \"medicalContract2.sol\":3596:3597  i */\n      dup3\n        /* \"medicalContract2.sol\":3585:3598  workplaces[i] */\n      dup2\n      mstore\n      0x20\n      add\n      swap1\n      dup2\n      mstore\n      0x20\n      add\n      0x00\n      keccak256\n        /* \"medicalContract2.sol\":3569:3598  result[i - 1] = workplaces[i] */\n      mload(0x40)\n      dup1\n      0x60\n      add\n      0x40\n      mstore\n      swap1\n      dup2\n      0x00\n      dup3\n      add\n      sload\n      dup2\n      mstore\n      0x20\n      add\n      0x01\n      dup3\n      add\n      dup1\n      sload\n      tag_255\n      swap1\n      tag_107\n      jump\t// in\n    tag_255:\n      dup1\n      0x1f\n      add\n      0x20\n      dup1\n      swap2\n      div\n      mul\n      0x20\n      add\n      mload(0x40)\n      swap1\n      dup2\n      add\n      0x40\n      mstore\n      dup1\n      swap3\n      swap2\n      swap1\n      dup2\n      dup2\n      mstore\n      0x20\n      add\n      dup3\n      dup1\n      sload\n      tag_256\n      swap1\n      tag_107\n      jump\t// in\n    tag_256:\n      dup1\n      iszero\n      tag_257\n      jumpi\n      dup1\n      0x1f\n      lt\n      tag_258\n      jumpi\n      0x0100\n      dup1\n      dup4\n      sload\n      div\n      mul\n      dup4\n      mstore\n      swap2\n      0x20\n      add\n      swap2\n      jump(tag_257)\n    tag_258:\n      dup3\n      add\n      swap2\n      swap1\n      0x00\n      mstore\n      keccak256(0x00, 0x20)\n      swap1\n    tag_259:\n      dup2\n      sload\n      dup2\n      mstore\n      swap1\n      0x01\n      add\n      swap1\n      0x20\n      add\n      dup1\n      dup4\n      gt\n      tag_259\n      jumpi\n      dup3\n      swap1\n      sub\n      0x1f\n      and\n      dup3\n      add\n      swap2\n    tag_257:\n      pop\n      pop\n      pop\n      pop\n      pop\n      dup2\n      mstore\n      0x20\n      add\n      0x02\n      dup3\n      add\n      dup1\n      sload\n      tag_260\n      swap1\n      tag_107\n      jump\t// in\n    tag_260:\n      dup1\n      0x1f\n      add\n      0x20\n      dup1\n      swap2\n      div\n      mul\n      0x20\n      add\n      mload(0x40)\n      swap1\n      dup2\n      add\n      0x40\n      mstore\n      dup1\n      swap3\n      swap2\n      swap1\n      dup2\n      dup2\n      mstore\n      0x20\n      add\n      dup3\n      dup1\n      sload\n      tag_261\n      swap1\n      tag_107\n      jump\t// in\n    tag_261:\n      dup1\n      iszero\n      tag_262\n      jumpi\n      dup1\n      0x1f\n      lt\n      tag_263\n      jumpi\n      0x0100\n      dup1\n      dup4\n      sload\n      div\n      mul\n      dup4\n      mstore\n      swap2\n      0x20\n      add\n      swap2\n      jump(tag_262)\n    tag_263:\n      dup3\n      add\n      swap2\n      swap1\n      0x00\n      mstore\n      keccak256(0x00, 0x20)\n      swap1\n    tag_264:\n      dup2\n      sload\n      dup2\n      mstore\n      swap1\n      0x01\n      add\n      swap1\n      0x20\n      add\n      dup1\n      dup4\n      gt\n      tag_264\n      jumpi\n      dup3\n      swap1\n      sub\n      0x1f\n      and\n      dup3\n      add\n      swap2\n    tag_262:\n      pop\n      pop\n      pop\n      pop\n      pop\n      dup2\n      mstore\n      pop\n      pop\n        /* \"medicalContract2.sol\":3569:3575  result */\n      dup3\n        /* \"medicalContract2.sol\":3580:3581  1 */\n      0x01\n        /* \"medicalContract2.sol\":3576:3577  i */\n      dup4\n        /* \"medicalContract2.sol\":3576:3581  i - 1 */\n      tag_265\n      swap2\n      swap1\n      tag_266\n      jump\t// in\n    tag_265:\n        /* \"medicalContract2.sol\":3569:3582  result[i - 1] */\n      dup2\n      mload\n      dup2\n      lt\n      tag_267\n      jumpi\n      tag_268\n      tag_125\n      jump\t// in\n    tag_268:\n    tag_267:\n      0x20\n      mul\n      0x20\n      add\n      add\n        /* \"medicalContract2.sol\":3569:3598  result[i - 1] = workplaces[i] */\n      dup2\n      swap1\n      mstore\n      pop\n        /* \"medicalContract2.sol\":3550:3553  i++ */\n      dup1\n      dup1\n      tag_269\n      swap1\n      tag_159\n      jump\t// in\n    tag_269:\n      swap2\n      pop\n      pop\n        /* \"medicalContract2.sol\":3509:3609  for (uint256 i = 1; i <= workplaceCount; i++) {... */\n      jump(tag_252)\n    tag_253:\n      pop\n        /* \"medicalContract2.sol\":3625:3631  result */\n      dup1\n        /* \"medicalContract2.sol\":3618:3631  return result */\n      swap2\n      pop\n      pop\n        /* \"medicalContract2.sol\":3361:3638  function getAllWorkplaces() public view returns (Workplace[] memory) {... */\n      swap1\n      jump\t// out\n        /* \"medicalContract2.sol\":3644:3907  function getAllDoctors() public view returns (Doctor[] memory) {... */\n    tag_101:\n        /* \"medicalContract2.sol\":3690:3705  Doctor[] memory */\n      0x60\n        /* \"medicalContract2.sol\":3717:3739  Doctor[] memory result */\n      0x00\n        /* \"medicalContract2.sol\":3755:3766  doctorCount */\n      sload(0x05)\n        /* \"medicalContract2.sol\":3742:3767  new Doctor[](doctorCount) */\n      0xffffffffffffffff\n      dup2\n      gt\n      iszero\n      tag_271\n      jumpi\n      tag_272\n      tag_115\n      jump\t// in\n    tag_272:\n    tag_271:\n      mload(0x40)\n      swap1\n      dup1\n      dup3\n      mstore\n      dup1\n      0x20\n      mul\n      0x20\n      add\n      dup3\n      add\n      0x40\n      mstore\n      dup1\n      iszero\n      tag_273\n      jumpi\n      dup2\n      0x20\n      add\n    tag_274:\n      tag_275\n      tag_276\n      jump\t// in\n    tag_275:\n      dup2\n      mstore\n      0x20\n      add\n      swap1\n      0x01\n      swap1\n      sub\n      swap1\n      dup2\n      tag_274\n      jumpi\n      swap1\n      pop\n    tag_273:\n      pop\n        /* \"medicalContract2.sol\":3717:3767  Doctor[] memory result = new Doctor[](doctorCount) */\n      swap1\n      pop\n        /* \"medicalContract2.sol\":3782:3788  uint i */\n      0x00\n        /* \"medicalContract2.sol\":3777:3878  for (uint i = 0; i < doctorCount; i++) {... */\n    tag_277:\n        /* \"medicalContract2.sol\":3798:3809  doctorCount */\n      sload(0x05)\n        /* \"medicalContract2.sol\":3794:3795  i */\n      dup2\n        /* \"medicalContract2.sol\":3794:3809  i < doctorCount */\n      lt\n        /* \"medicalContract2.sol\":3777:3878  for (uint i = 0; i < doctorCount; i++) {... */\n      iszero\n      tag_278\n      jumpi\n        /* \"medicalContract2.sol\":3842:3849  doctors */\n      0x01\n        /* \"medicalContract2.sol\":3842:3867  doctors[doctorAddress[i]] */\n      0x00\n        /* \"medicalContract2.sol\":3850:3863  doctorAddress */\n      0x09\n        /* \"medicalContract2.sol\":3864:3865  i */\n      dup4\n        /* \"medicalContract2.sol\":3850:3866  doctorAddress[i] */\n      dup2\n      sload\n      dup2\n      lt\n      tag_280\n      jumpi\n      tag_281\n      tag_125\n      jump\t// in\n    tag_281:\n    tag_280:\n      swap1\n      0x00\n      mstore\n      keccak256(0x00, 0x20)\n      add\n      0x00\n      swap1\n      sload\n      swap1\n      0x0100\n      exp\n      swap1\n      div\n      0xffffffffffffffffffffffffffffffffffffffff\n      and\n        /* \"medicalContract2.sol\":3842:3867  doctors[doctorAddress[i]] */\n      0xffffffffffffffffffffffffffffffffffffffff\n      and\n      0xffffffffffffffffffffffffffffffffffffffff\n      and\n      dup2\n      mstore\n      0x20\n      add\n      swap1\n      dup2\n      mstore\n      0x20\n      add\n      0x00\n      keccak256\n        /* \"medicalContract2.sol\":3830:3867  result[i] = doctors[doctorAddress[i]] */\n      mload(0x40)\n      dup1\n      0xa0\n      add\n      0x40\n      mstore\n      swap1\n      dup2\n      0x00\n      dup3\n      add\n      sload\n      dup2\n      mstore\n      0x20\n      add\n      0x01\n      dup3\n      add\n      dup1\n      sload\n      tag_283\n      swap1\n      tag_107\n      jump\t// in\n    tag_283:\n      dup1\n      0x1f\n      add\n      0x20\n      dup1\n      swap2\n      div\n      mul\n      0x20\n      add\n      mload(0x40)\n      swap1\n      dup2\n      add\n      0x40\n      mstore\n      dup1\n      swap3\n      swap2\n      swap1\n      dup2\n      dup2\n      mstore\n      0x20\n      add\n      dup3\n      dup1\n      sload\n      tag_284\n      swap1\n      tag_107\n      jump\t// in\n    tag_284:\n      dup1\n      iszero\n      tag_285\n      jumpi\n      dup1\n      0x1f\n      lt\n      tag_286\n      jumpi\n      0x0100\n      dup1\n      dup4\n      sload\n      div\n      mul\n      dup4\n      mstore\n      swap2\n      0x20\n      add\n      swap2\n      jump(tag_285)\n    tag_286:\n      dup3\n      add\n      swap2\n      swap1\n      0x00\n      mstore\n      keccak256(0x00, 0x20)\n      swap1\n    tag_287:\n      dup2\n      sload\n      dup2\n      mstore\n      swap1\n      0x01\n      add\n      swap1\n      0x20\n      add\n      dup1\n      dup4\n      gt\n      tag_287\n      jumpi\n      dup3\n      swap1\n      sub\n      0x1f\n      and\n      dup3\n      add\n      swap2\n    tag_285:\n      pop\n      pop\n      pop\n      pop\n      pop\n      dup2\n      mstore\n      0x20\n      add\n      0x02\n      dup3\n      add\n      dup1\n      sload\n      tag_288\n      swap1\n      tag_107\n      jump\t// in\n    tag_288:\n      dup1\n      0x1f\n      add\n      0x20\n      dup1\n      swap2\n      div\n      mul\n      0x20\n      add\n      mload(0x40)\n      swap1\n      dup2\n      add\n      0x40\n      mstore\n      dup1\n      swap3\n      swap2\n      swap1\n      dup2\n      dup2\n      mstore\n      0x20\n      add\n      dup3\n      dup1\n      sload\n      tag_289\n      swap1\n      tag_107\n      jump\t// in\n    tag_289:\n      dup1\n      iszero\n      tag_290\n      jumpi\n      dup1\n      0x1f\n      lt\n      tag_291\n      jumpi\n      0x0100\n      dup1\n      dup4\n      sload\n      div\n      mul\n      dup4\n      mstore\n      swap2\n      0x20\n      add\n      swap2\n      jump(tag_290)\n    tag_291:\n      dup3\n      add\n      swap2\n      swap1\n      0x00\n      mstore\n      keccak256(0x00, 0x20)\n      swap1\n    tag_292:\n      dup2\n      sload\n      dup2\n      mstore\n      swap1\n      0x01\n      add\n      swap1\n      0x20\n      add\n      dup1\n      dup4\n      gt\n      tag_292\n      jumpi\n      dup3\n      swap1\n      sub\n      0x1f\n      and\n      dup3\n      add\n      swap2\n    tag_290:\n      pop\n      pop\n      pop\n      pop\n      pop\n      dup2\n      mstore\n      0x20\n      add\n      0x03\n      dup3\n      add\n      0x00\n      swap1\n      sload\n      swap1\n      0x0100\n      exp\n      swap1\n      div\n      0xffffffffffffffffffffffffffffffffffffffff\n      and\n      0xffffffffffffffffffffffffffffffffffffffff\n      and\n      0xffffffffffffffffffffffffffffffffffffffff\n      and\n      dup2\n      mstore\n      0x20\n      add\n      0x04\n      dup3\n      add\n      sload\n      dup2\n      mstore\n      pop\n      pop\n        /* \"medicalContract2.sol\":3830:3836  result */\n      dup3\n        /* \"medicalContract2.sol\":3837:3838  i */\n      dup3\n        /* \"medicalContract2.sol\":3830:3839  result[i] */\n      dup2\n      mload\n      dup2\n      lt\n      tag_293\n      jumpi\n      tag_294\n      tag_125\n      jump\t// in\n    tag_294:\n    tag_293:\n      0x20\n      mul\n      0x20\n      add\n      add\n        /* \"medicalContract2.sol\":3830:3867  result[i] = doctors[doctorAddress[i]] */\n      dup2\n      swap1\n      mstore\n      pop\n        /* \"medicalContract2.sol\":3811:3814  i++ */\n      dup1\n      dup1\n      tag_295\n      swap1\n      tag_159\n      jump\t// in\n    tag_295:\n      swap2\n      pop\n      pop\n        /* \"medicalContract2.sol\":3777:3878  for (uint i = 0; i < doctorCount; i++) {... */\n      jump(tag_277)\n    tag_278:\n      pop\n        /* \"medicalContract2.sol\":3894:3900  result */\n      dup1\n        /* \"medicalContract2.sol\":3887:3900  return result */\n      swap2\n      pop\n      pop\n        /* \"medicalContract2.sol\":3644:3907  function getAllDoctors() public view returns (Doctor[] memory) {... */\n      swap1\n      jump\t// out\n    tag_119:\n      mload(0x40)\n      dup1\n      0xe0\n      add\n      0x40\n      mstore\n      dup1\n      0x00\n      dup2\n      mstore\n      0x20\n      add\n      0x60\n      dup2\n      mstore\n      0x20\n      add\n      0x00\n      dup2\n      mstore\n      0x20\n      add\n      and(0xffffffffffffffffffffffffffffffffffffffff, 0x00)\n      dup2\n      mstore\n      0x20\n      add\n      0x60\n      dup2\n      mstore\n      0x20\n      add\n      0x60\n      dup2\n      mstore\n      0x20\n      add\n      0x60\n      dup2\n      mstore\n      pop\n      swap1\n      jump\t// out\n    tag_168:\n      dup3\n      dup1\n      sload\n      dup3\n      dup3\n      sstore\n      swap1\n      0x00\n      mstore\n      keccak256(0x00, 0x20)\n      swap1\n      dup2\n      add\n      swap3\n      dup3\n      iszero\n      tag_296\n      jumpi\n      swap2\n      0x20\n      mul\n      dup3\n      add\n    tag_297:\n      dup3\n      dup2\n      gt\n      iszero\n      tag_298\n      jumpi\n      dup3\n      mload\n      dup3\n      swap1\n      dup2\n      tag_299\n      swap2\n      swap1\n      tag_166\n      jump\t// in\n    tag_299:\n      pop\n      swap2\n      0x20\n      add\n      swap2\n      swap1\n      0x01\n      add\n      swap1\n      jump(tag_297)\n    tag_298:\n    tag_296:\n      pop\n      swap1\n      pop\n      tag_300\n      swap2\n      swap1\n      tag_301\n      jump\t// in\n    tag_300:\n      pop\n      swap1\n      jump\t// out\n    tag_251:\n      mload(0x40)\n      dup1\n      0x60\n      add\n      0x40\n      mstore\n      dup1\n      0x00\n      dup2\n      mstore\n      0x20\n      add\n      0x60\n      dup2\n      mstore\n      0x20\n      add\n      0x60\n      dup2\n      mstore\n      pop\n      swap1\n      jump\t// out\n    tag_276:\n      mload(0x40)\n      dup1\n      0xa0\n      add\n      0x40\n      mstore\n      dup1\n      0x00\n      dup2\n      mstore\n      0x20\n      add\n      0x60\n      dup2\n      mstore\n      0x20\n      add\n      0x60\n      dup2\n      mstore\n      0x20\n      add\n      and(0xffffffffffffffffffffffffffffffffffffffff, 0x00)\n      dup2\n      mstore\n      0x20\n      add\n      0x00\n      dup2\n      mstore\n      pop\n      swap1\n      jump\t// out\n    tag_301:\n    tag_302:\n      dup1\n      dup3\n      gt\n      iszero\n      tag_303\n      jumpi\n      0x00\n      dup2\n      dup2\n      tag_304\n      swap2\n      swap1\n      tag_305\n      jump\t// in\n    tag_304:\n      pop\n      0x01\n      add\n      jump(tag_302)\n    tag_303:\n      pop\n      swap1\n      jump\t// out\n    tag_305:\n      pop\n      dup1\n      sload\n      tag_306\n      swap1\n      tag_107\n      jump\t// in\n    tag_306:\n      0x00\n      dup3\n      sstore\n      dup1\n      0x1f\n      lt\n      tag_308\n      jumpi\n      pop\n      jump(tag_307)\n    tag_308:\n      0x1f\n      add\n      0x20\n      swap1\n      div\n      swap1\n      0x00\n      mstore\n      keccak256(0x00, 0x20)\n      swap1\n      dup2\n      add\n      swap1\n      tag_309\n      swap2\n      swap1\n      tag_310\n      jump\t// in\n    tag_309:\n    tag_307:\n      pop\n      jump\t// out\n    tag_310:\n    tag_311:\n      dup1\n      dup3\n      gt\n      iszero\n      tag_312\n      jumpi\n      0x00\n      dup2\n      0x00\n      swap1\n      sstore\n      pop\n      0x01\n      add\n      jump(tag_311)\n    tag_312:\n      pop\n      swap1\n      jump\t// out\n        /* \"#utility.yul\":7:82   */\n    tag_313:\n        /* \"#utility.yul\":40:46   */\n      0x00\n        /* \"#utility.yul\":73:75   */\n      0x40\n        /* \"#utility.yul\":67:76   */\n      mload\n        /* \"#utility.yul\":57:76   */\n      swap1\n      pop\n        /* \"#utility.yul\":7:82   */\n      swap1\n      jump\t// out\n        /* \"#utility.yul\":88:205   */\n    tag_314:\n        /* \"#utility.yul\":197:198   */\n      0x00\n        /* \"#utility.yul\":194:195   */\n      dup1\n        /* \"#utility.yul\":187:199   */\n      revert\n        /* \"#utility.yul\":211:328   */\n    tag_315:\n        /* \"#utility.yul\":320:321   */\n      0x00\n        /* \"#utility.yul\":317:318   */\n      dup1\n        /* \"#utility.yul\":310:322   */\n      revert\n        /* \"#utility.yul\":334:411   */\n    tag_316:\n        /* \"#utility.yul\":371:378   */\n      0x00\n        /* \"#utility.yul\":400:405   */\n      dup2\n        /* \"#utility.yul\":389:405   */\n      swap1\n      pop\n        /* \"#utility.yul\":334:411   */\n      swap2\n      swap1\n      pop\n      jump\t// out\n        /* \"#utility.yul\":417:539   */\n    tag_317:\n        /* \"#utility.yul\":490:514   */\n      tag_404\n        /* \"#utility.yul\":508:513   */\n      dup2\n        /* \"#utility.yul\":490:514   */\n      tag_316\n      jump\t// in\n    tag_404:\n        /* \"#utility.yul\":483:488   */\n      dup2\n        /* \"#utility.yul\":480:515   */\n      eq\n        /* \"#utility.yul\":470:533   */\n      tag_405\n      jumpi\n        /* \"#utility.yul\":529:530   */\n      0x00\n        /* \"#utility.yul\":526:527   */\n      dup1\n        /* \"#utility.yul\":519:531   */\n      revert\n        /* \"#utility.yul\":470:533   */\n    tag_405:\n        /* \"#utility.yul\":417:539   */\n      pop\n      jump\t// out\n        /* \"#utility.yul\":545:684   */\n    tag_318:\n        /* \"#utility.yul\":591:596   */\n      0x00\n        /* \"#utility.yul\":629:635   */\n      dup2\n        /* \"#utility.yul\":616:636   */\n      calldataload\n        /* \"#utility.yul\":607:636   */\n      swap1\n      pop\n        /* \"#utility.yul\":645:678   */\n      tag_407\n        /* \"#utility.yul\":672:677   */\n      dup2\n        /* \"#utility.yul\":645:678   */\n      tag_317\n      jump\t// in\n    tag_407:\n        /* \"#utility.yul\":545:684   */\n      swap3\n      swap2\n      pop\n      pop\n      jump\t// out\n        /* \"#utility.yul\":690:1019   */\n    tag_27:\n        /* \"#utility.yul\":749:755   */\n      0x00\n        /* \"#utility.yul\":798:800   */\n      0x20\n        /* \"#utility.yul\":786:795   */\n      dup3\n        /* \"#utility.yul\":777:784   */\n      dup5\n        /* \"#utility.yul\":773:796   */\n      sub\n        /* \"#utility.yul\":769:801   */\n      slt\n        /* \"#utility.yul\":766:885   */\n      iszero\n      tag_409\n      jumpi\n        /* \"#utility.yul\":804:883   */\n      tag_410\n      tag_314\n      jump\t// in\n    tag_410:\n        /* \"#utility.yul\":766:885   */\n    tag_409:\n        /* \"#utility.yul\":924:925   */\n      0x00\n        /* \"#utility.yul\":949:1002   */\n      tag_411\n        /* \"#utility.yul\":994:1001   */\n      dup5\n        /* \"#utility.yul\":985:991   */\n      dup3\n        /* \"#utility.yul\":974:983   */\n      dup6\n        /* \"#utility.yul\":970:992   */\n      add\n        /* \"#utility.yul\":949:1002   */\n      tag_318\n      jump\t// in\n    tag_411:\n        /* \"#utility.yul\":939:1002   */\n      swap2\n      pop\n        /* \"#utility.yul\":895:1012   */\n      pop\n        /* \"#utility.yul\":690:1019   */\n      swap3\n      swap2\n      pop\n      pop\n      jump\t// out\n        /* \"#utility.yul\":1025:1151   */\n    tag_319:\n        /* \"#utility.yul\":1062:1069   */\n      0x00\n        /* \"#utility.yul\":1102:1144   */\n      0xffffffffffffffffffffffffffffffffffffffff\n        /* \"#utility.yul\":1095:1100   */\n      dup3\n        /* \"#utility.yul\":1091:1145   */\n      and\n        /* \"#utility.yul\":1080:1145   */\n      swap1\n      pop\n        /* \"#utility.yul\":1025:1151   */\n      swap2\n      swap1\n      pop\n      jump\t// out\n        /* \"#utility.yul\":1157:1253   */\n    tag_320:\n        /* \"#utility.yul\":1194:1201   */\n      0x00\n        /* \"#utility.yul\":1223:1247   */\n      tag_414\n        /* \"#utility.yul\":1241:1246   */\n      dup3\n        /* \"#utility.yul\":1223:1247   */\n      tag_319\n      jump\t// in\n    tag_414:\n        /* \"#utility.yul\":1212:1247   */\n      swap1\n      pop\n        /* \"#utility.yul\":1157:1253   */\n      swap2\n      swap1\n      pop\n      jump\t// out\n        /* \"#utility.yul\":1259:1377   */\n    tag_321:\n        /* \"#utility.yul\":1346:1370   */\n      tag_416\n        /* \"#utility.yul\":1364:1369   */\n      dup2\n        /* \"#utility.yul\":1346:1370   */\n      tag_320\n      jump\t// in\n    tag_416:\n        /* \"#utility.yul\":1341:1344   */\n      dup3\n        /* \"#utility.yul\":1334:1371   */\n      mstore\n        /* \"#utility.yul\":1259:1377   */\n      pop\n      pop\n      jump\t// out\n        /* \"#utility.yul\":1383:1605   */\n    tag_30:\n        /* \"#utility.yul\":1476:1480   */\n      0x00\n        /* \"#utility.yul\":1514:1516   */\n      0x20\n        /* \"#utility.yul\":1503:1512   */\n      dup3\n        /* \"#utility.yul\":1499:1517   */\n      add\n        /* \"#utility.yul\":1491:1517   */\n      swap1\n      pop\n        /* \"#utility.yul\":1527:1598   */\n      tag_418\n        /* \"#utility.yul\":1595:1596   */\n      0x00\n        /* \"#utility.yul\":1584:1593   */\n      dup4\n        /* \"#utility.yul\":1580:1597   */\n      add\n        /* \"#utility.yul\":1571:1577   */\n      dup5\n        /* \"#utility.yul\":1527:1598   */\n      tag_321\n      jump\t// in\n    tag_418:\n        /* \"#utility.yul\":1383:1605   */\n      swap3\n      swap2\n      pop\n      pop\n      jump\t// out\n        /* \"#utility.yul\":1611:1733   */\n    tag_322:\n        /* \"#utility.yul\":1684:1708   */\n      tag_420\n        /* \"#utility.yul\":1702:1707   */\n      dup2\n        /* \"#utility.yul\":1684:1708   */\n      tag_320\n      jump\t// in\n    tag_420:\n        /* \"#utility.yul\":1677:1682   */\n      dup2\n        /* \"#utility.yul\":1674:1709   */\n      eq\n        /* \"#utility.yul\":1664:1727   */\n      tag_421\n      jumpi\n        /* \"#utility.yul\":1723:1724   */\n      0x00\n        /* \"#utility.yul\":1720:1721   */\n      dup1\n        /* \"#utility.yul\":1713:1725   */\n      revert\n        /* \"#utility.yul\":1664:1727   */\n    tag_421:\n        /* \"#utility.yul\":1611:1733   */\n      pop\n      jump\t// out\n        /* \"#utility.yul\":1739:1878   */\n    tag_323:\n        /* \"#utility.yul\":1785:1790   */\n      0x00\n        /* \"#utility.yul\":1823:1829   */\n      dup2\n        /* \"#utility.yul\":1810:1830   */\n      calldataload\n        /* \"#utility.yul\":1801:1830   */\n      swap1\n      pop\n        /* \"#utility.yul\":1839:1872   */\n      tag_423\n        /* \"#utility.yul\":1866:1871   */\n      dup2\n        /* \"#utility.yul\":1839:1872   */\n      tag_322\n      jump\t// in\n    tag_423:\n        /* \"#utility.yul\":1739:1878   */\n      swap3\n      swap2\n      pop\n      pop\n      jump\t// out\n        /* \"#utility.yul\":1884:2213   */\n    tag_33:\n        /* \"#utility.yul\":1943:1949   */\n      0x00\n        /* \"#utility.yul\":1992:1994   */\n      0x20\n        /* \"#utility.yul\":1980:1989   */\n      dup3\n        /* \"#utility.yul\":1971:1978   */\n      dup5\n        /* \"#utility.yul\":1967:1990   */\n      sub\n        /* \"#utility.yul\":1963:1995   */\n      slt\n        /* \"#utility.yul\":1960:2079   */\n      iszero\n      tag_425\n      jumpi\n        /* \"#utility.yul\":1998:2077   */\n      tag_426\n      tag_314\n      jump\t// in\n    tag_426:\n        /* \"#utility.yul\":1960:2079   */\n    tag_425:\n        /* \"#utility.yul\":2118:2119   */\n      0x00\n        /* \"#utility.yul\":2143:2196   */\n      tag_427\n        /* \"#utility.yul\":2188:2195   */\n      dup5\n        /* \"#utility.yul\":2179:2185   */\n      dup3\n        /* \"#utility.yul\":2168:2177   */\n      dup6\n        /* \"#utility.yul\":2164:2186   */\n      add\n        /* \"#utility.yul\":2143:2196   */\n      tag_323\n      jump\t// in\n    tag_427:\n        /* \"#utility.yul\":2133:2196   */\n      swap2\n      pop\n        /* \"#utility.yul\":2089:2206   */\n      pop\n        /* \"#utility.yul\":1884:2213   */\n      swap3\n      swap2\n      pop\n      pop\n      jump\t// out\n        /* \"#utility.yul\":2219:2337   */\n    tag_324:\n        /* \"#utility.yul\":2306:2330   */\n      tag_429\n        /* \"#utility.yul\":2324:2329   */\n      dup2\n        /* \"#utility.yul\":2306:2330   */\n      tag_316\n      jump\t// in\n    tag_429:\n        /* \"#utility.yul\":2301:2304   */\n      dup3\n        /* \"#utility.yul\":2294:2331   */\n      mstore\n        /* \"#utility.yul\":2219:2337   */\n      pop\n      pop\n      jump\t// out\n        /* \"#utility.yul\":2343:2442   */\n    tag_325:\n        /* \"#utility.yul\":2395:2401   */\n      0x00\n        /* \"#utility.yul\":2429:2434   */\n      dup2\n        /* \"#utility.yul\":2423:2435   */\n      mload\n        /* \"#utility.yul\":2413:2435   */\n      swap1\n      pop\n        /* \"#utility.yul\":2343:2442   */\n      swap2\n      swap1\n      pop\n      jump\t// out\n        /* \"#utility.yul\":2448:2617   */\n    tag_326:\n        /* \"#utility.yul\":2532:2543   */\n      0x00\n        /* \"#utility.yul\":2566:2572   */\n      dup3\n        /* \"#utility.yul\":2561:2564   */\n      dup3\n        /* \"#utility.yul\":2554:2573   */\n      mstore\n        /* \"#utility.yul\":2606:2610   */\n      0x20\n        /* \"#utility.yul\":2601:2604   */\n      dup3\n        /* \"#utility.yul\":2597:2611   */\n      add\n        /* \"#utility.yul\":2582:2611   */\n      swap1\n      pop\n        /* \"#utility.yul\":2448:2617   */\n      swap3\n      swap2\n      pop\n      pop\n      jump\t// out\n        /* \"#utility.yul\":2623:2869   */\n    tag_327:\n        /* \"#utility.yul\":2704:2705   */\n      0x00\n        /* \"#utility.yul\":2714:2827   */\n    tag_433:\n        /* \"#utility.yul\":2728:2734   */\n      dup4\n        /* \"#utility.yul\":2725:2726   */\n      dup2\n        /* \"#utility.yul\":2722:2735   */\n      lt\n        /* \"#utility.yul\":2714:2827   */\n      iszero\n      tag_435\n      jumpi\n        /* \"#utility.yul\":2813:2814   */\n      dup1\n        /* \"#utility.yul\":2808:2811   */\n      dup3\n        /* \"#utility.yul\":2804:2815   */\n      add\n        /* \"#utility.yul\":2798:2816   */\n      mload\n        /* \"#utility.yul\":2794:2795   */\n      dup2\n        /* \"#utility.yul\":2789:2792   */\n      dup5\n        /* \"#utility.yul\":2785:2796   */\n      add\n        /* \"#utility.yul\":2778:2817   */\n      mstore\n        /* \"#utility.yul\":2750:2752   */\n      0x20\n        /* \"#utility.yul\":2747:2748   */\n      dup2\n        /* \"#utility.yul\":2743:2753   */\n      add\n        /* \"#utility.yul\":2738:2753   */\n      swap1\n      pop\n        /* \"#utility.yul\":2714:2827   */\n      jump(tag_433)\n    tag_435:\n        /* \"#utility.yul\":2861:2862   */\n      0x00\n        /* \"#utility.yul\":2852:2858   */\n      dup5\n        /* \"#utility.yul\":2847:2850   */\n      dup5\n        /* \"#utility.yul\":2843:2859   */\n      add\n        /* \"#utility.yul\":2836:2863   */\n      mstore\n        /* \"#utility.yul\":2685:2869   */\n      pop\n        /* \"#utility.yul\":2623:2869   */\n      pop\n      pop\n      pop\n      jump\t// out\n        /* \"#utility.yul\":2875:2977   */\n    tag_328:\n        /* \"#utility.yul\":2916:2922   */\n      0x00\n        /* \"#utility.yul\":2967:2969   */\n      0x1f\n        /* \"#utility.yul\":2963:2970   */\n      not\n        /* \"#utility.yul\":2958:2960   */\n      0x1f\n        /* \"#utility.yul\":2951:2956   */\n      dup4\n        /* \"#utility.yul\":2947:2961   */\n      add\n        /* \"#utility.yul\":2943:2971   */\n      and\n        /* \"#utility.yul\":2933:2971   */\n      swap1\n      pop\n        /* \"#utility.yul\":2875:2977   */\n      swap2\n      swap1\n      pop\n      jump\t// out\n        /* \"#utility.yul\":2983:3360   */\n    tag_329:\n        /* \"#utility.yul\":3071:3074   */\n      0x00\n        /* \"#utility.yul\":3099:3138   */\n      tag_438\n        /* \"#utility.yul\":3132:3137   */\n      dup3\n        /* \"#utility.yul\":3099:3138   */\n      tag_325\n      jump\t// in\n    tag_438:\n        /* \"#utility.yul\":3154:3225   */\n      tag_439\n        /* \"#utility.yul\":3218:3224   */\n      dup2\n        /* \"#utility.yul\":3213:3216   */\n      dup6\n        /* \"#utility.yul\":3154:3225   */\n      tag_326\n      jump\t// in\n    tag_439:\n        /* \"#utility.yul\":3147:3225   */\n      swap4\n      pop\n        /* \"#utility.yul\":3234:3299   */\n      tag_440\n        /* \"#utility.yul\":3292:3298   */\n      dup2\n        /* \"#utility.yul\":3287:3290   */\n      dup6\n        /* \"#utility.yul\":3280:3284   */\n      0x20\n        /* \"#utility.yul\":3273:3278   */\n      dup7\n        /* \"#utility.yul\":3269:3285   */\n      add\n        /* \"#utility.yul\":3234:3299   */\n      tag_327\n      jump\t// in\n    tag_440:\n        /* \"#utility.yul\":3324:3353   */\n      tag_441\n        /* \"#utility.yul\":3346:3352   */\n      dup2\n        /* \"#utility.yul\":3324:3353   */\n      tag_328\n      jump\t// in\n    tag_441:\n        /* \"#utility.yul\":3319:3322   */\n      dup5\n        /* \"#utility.yul\":3315:3354   */\n      add\n        /* \"#utility.yul\":3308:3354   */\n      swap2\n      pop\n        /* \"#utility.yul\":3075:3360   */\n      pop\n        /* \"#utility.yul\":2983:3360   */\n      swap3\n      swap2\n      pop\n      pop\n      jump\t// out\n        /* \"#utility.yul\":3366:4010   */\n    tag_36:\n        /* \"#utility.yul\":3563:3567   */\n      0x00\n        /* \"#utility.yul\":3601:3604   */\n      0x80\n        /* \"#utility.yul\":3590:3599   */\n      dup3\n        /* \"#utility.yul\":3586:3605   */\n      add\n        /* \"#utility.yul\":3578:3605   */\n      swap1\n      pop\n        /* \"#utility.yul\":3615:3686   */\n      tag_443\n        /* \"#utility.yul\":3683:3684   */\n      0x00\n        /* \"#utility.yul\":3672:3681   */\n      dup4\n        /* \"#utility.yul\":3668:3685   */\n      add\n        /* \"#utility.yul\":3659:3665   */\n      dup8\n        /* \"#utility.yul\":3615:3686   */\n      tag_324\n      jump\t// in\n    tag_443:\n        /* \"#utility.yul\":3733:3742   */\n      dup2\n        /* \"#utility.yul\":3727:3731   */\n      dup2\n        /* \"#utility.yul\":3723:3743   */\n      sub\n        /* \"#utility.yul\":3718:3720   */\n      0x20\n        /* \"#utility.yul\":3707:3716   */\n      dup4\n        /* \"#utility.yul\":3703:3721   */\n      add\n        /* \"#utility.yul\":3696:3744   */\n      mstore\n        /* \"#utility.yul\":3761:3839   */\n      tag_444\n        /* \"#utility.yul\":3834:3838   */\n      dup2\n        /* \"#utility.yul\":3825:3831   */\n      dup7\n        /* \"#utility.yul\":3761:3839   */\n      tag_329\n      jump\t// in\n    tag_444:\n        /* \"#utility.yul\":3753:3839   */\n      swap1\n      pop\n        /* \"#utility.yul\":3849:3921   */\n      tag_445\n        /* \"#utility.yul\":3917:3919   */\n      0x40\n        /* \"#utility.yul\":3906:3915   */\n      dup4\n        /* \"#utility.yul\":3902:3920   */\n      add\n        /* \"#utility.yul\":3893:3899   */\n      dup6\n        /* \"#utility.yul\":3849:3921   */\n      tag_324\n      jump\t// in\n    tag_445:\n        /* \"#utility.yul\":3931:4003   */\n      tag_446\n        /* \"#utility.yul\":3999:4001   */\n      0x60\n        /* \"#utility.yul\":3988:3997   */\n      dup4\n        /* \"#utility.yul\":3984:4002   */\n      add\n        /* \"#utility.yul\":3975:3981   */\n      dup5\n        /* \"#utility.yul\":3931:4003   */\n      tag_321\n      jump\t// in\n    tag_446:\n        /* \"#utility.yul\":3366:4010   */\n      swap6\n      swap5\n      pop\n      pop\n      pop\n      pop\n      pop\n      jump\t// out\n        /* \"#utility.yul\":4016:4153   */\n    tag_330:\n        /* \"#utility.yul\":4106:4112   */\n      0x00\n        /* \"#utility.yul\":4140:4145   */\n      dup2\n        /* \"#utility.yul\":4134:4146   */\n      mload\n        /* \"#utility.yul\":4124:4146   */\n      swap1\n      pop\n        /* \"#utility.yul\":4016:4153   */\n      swap2\n      swap1\n      pop\n      jump\t// out\n        /* \"#utility.yul\":4159:4366   */\n    tag_331:\n        /* \"#utility.yul\":4281:4292   */\n      0x00\n        /* \"#utility.yul\":4315:4321   */\n      dup3\n        /* \"#utility.yul\":4310:4313   */\n      dup3\n        /* \"#utility.yul\":4303:4322   */\n      mstore\n        /* \"#utility.yul\":4355:4359   */\n      0x20\n        /* \"#utility.yul\":4350:4353   */\n      dup3\n        /* \"#utility.yul\":4346:4360   */\n      add\n        /* \"#utility.yul\":4331:4360   */\n      swap1\n      pop\n        /* \"#utility.yul\":4159:4366   */\n      swap3\n      swap2\n      pop\n      pop\n      jump\t// out\n        /* \"#utility.yul\":4372:4527   */\n    tag_332:\n        /* \"#utility.yul\":4462:4466   */\n      0x00\n        /* \"#utility.yul\":4485:4488   */\n      dup2\n        /* \"#utility.yul\":4477:4488   */\n      swap1\n      pop\n        /* \"#utility.yul\":4515:4519   */\n      0x20\n        /* \"#utility.yul\":4510:4513   */\n      dup3\n        /* \"#utility.yul\":4506:4520   */\n      add\n        /* \"#utility.yul\":4498:4520   */\n      swap1\n      pop\n        /* \"#utility.yul\":4372:4527   */\n      swap2\n      swap1\n      pop\n      jump\t// out\n        /* \"#utility.yul\":4533:4641   */\n    tag_333:\n        /* \"#utility.yul\":4610:4634   */\n      tag_451\n        /* \"#utility.yul\":4628:4633   */\n      dup2\n        /* \"#utility.yul\":4610:4634   */\n      tag_316\n      jump\t// in\n    tag_451:\n        /* \"#utility.yul\":4605:4608   */\n      dup3\n        /* \"#utility.yul\":4598:4635   */\n      mstore\n        /* \"#utility.yul\":4533:4641   */\n      pop\n      pop\n      jump\t// out\n        /* \"#utility.yul\":4647:4806   */\n    tag_334:\n        /* \"#utility.yul\":4721:4732   */\n      0x00\n        /* \"#utility.yul\":4755:4761   */\n      dup3\n        /* \"#utility.yul\":4750:4753   */\n      dup3\n        /* \"#utility.yul\":4743:4762   */\n      mstore\n        /* \"#utility.yul\":4795:4799   */\n      0x20\n        /* \"#utility.yul\":4790:4793   */\n      dup3\n        /* \"#utility.yul\":4786:4800   */\n      add\n        /* \"#utility.yul\":4771:4800   */\n      swap1\n      pop\n        /* \"#utility.yul\":4647:4806   */\n      swap3\n      swap2\n      pop\n      pop\n      jump\t// out\n        /* \"#utility.yul\":4812:5169   */\n    tag_335:\n        /* \"#utility.yul\":4890:4893   */\n      0x00\n        /* \"#utility.yul\":4918:4957   */\n      tag_454\n        /* \"#utility.yul\":4951:4956   */\n      dup3\n        /* \"#utility.yul\":4918:4957   */\n      tag_325\n      jump\t// in\n    tag_454:\n        /* \"#utility.yul\":4973:5034   */\n      tag_455\n        /* \"#utility.yul\":5027:5033   */\n      dup2\n        /* \"#utility.yul\":5022:5025   */\n      dup6\n        /* \"#utility.yul\":4973:5034   */\n      tag_334\n      jump\t// in\n    tag_455:\n        /* \"#utility.yul\":4966:5034   */\n      swap4\n      pop\n        /* \"#utility.yul\":5043:5108   */\n      tag_456\n        /* \"#utility.yul\":5101:5107   */\n      dup2\n        /* \"#utility.yul\":5096:5099   */\n      dup6\n        /* \"#utility.yul\":5089:5093   */\n      0x20\n        /* \"#utility.yul\":5082:5087   */\n      dup7\n        /* \"#utility.yul\":5078:5094   */\n      add\n        /* \"#utility.yul\":5043:5108   */\n      tag_327\n      jump\t// in\n    tag_456:\n        /* \"#utility.yul\":5133:5162   */\n      tag_457\n        /* \"#utility.yul\":5155:5161   */\n      dup2\n        /* \"#utility.yul\":5133:5162   */\n      tag_328\n      jump\t// in\n    tag_457:\n        /* \"#utility.yul\":5128:5131   */\n      dup5\n        /* \"#utility.yul\":5124:5163   */\n      add\n        /* \"#utility.yul\":5117:5163   */\n      swap2\n      pop\n        /* \"#utility.yul\":4894:5169   */\n      pop\n        /* \"#utility.yul\":4812:5169   */\n      swap3\n      swap2\n      pop\n      pop\n      jump\t// out\n        /* \"#utility.yul\":5175:5283   */\n    tag_336:\n        /* \"#utility.yul\":5252:5276   */\n      tag_459\n        /* \"#utility.yul\":5270:5275   */\n      dup2\n        /* \"#utility.yul\":5252:5276   */\n      tag_320\n      jump\t// in\n    tag_459:\n        /* \"#utility.yul\":5247:5250   */\n      dup3\n        /* \"#utility.yul\":5240:5277   */\n      mstore\n        /* \"#utility.yul\":5175:5283   */\n      pop\n      pop\n      jump\t// out\n        /* \"#utility.yul\":5289:5413   */\n    tag_337:\n        /* \"#utility.yul\":5366:5372   */\n      0x00\n        /* \"#utility.yul\":5400:5405   */\n      dup2\n        /* \"#utility.yul\":5394:5406   */\n      mload\n        /* \"#utility.yul\":5384:5406   */\n      swap1\n      pop\n        /* \"#utility.yul\":5289:5413   */\n      swap2\n      swap1\n      pop\n      jump\t// out\n        /* \"#utility.yul\":5419:5603   */\n    tag_338:\n        /* \"#utility.yul\":5518:5529   */\n      0x00\n        /* \"#utility.yul\":5552:5558   */\n      dup3\n        /* \"#utility.yul\":5547:5550   */\n      dup3\n        /* \"#utility.yul\":5540:5559   */\n      mstore\n        /* \"#utility.yul\":5592:5596   */\n      0x20\n        /* \"#utility.yul\":5587:5590   */\n      dup3\n        /* \"#utility.yul\":5583:5597   */\n      add\n        /* \"#utility.yul\":5568:5597   */\n      swap1\n      pop\n        /* \"#utility.yul\":5419:5603   */\n      swap3\n      swap2\n      pop\n      pop\n      jump\t// out\n        /* \"#utility.yul\":5609:5751   */\n    tag_339:\n        /* \"#utility.yul\":5686:5690   */\n      0x00\n        /* \"#utility.yul\":5709:5712   */\n      dup2\n        /* \"#utility.yul\":5701:5712   */\n      swap1\n      pop\n        /* \"#utility.yul\":5739:5743   */\n      0x20\n        /* \"#utility.yul\":5734:5737   */\n      dup3\n        /* \"#utility.yul\":5730:5744   */\n      add\n        /* \"#utility.yul\":5722:5744   */\n      swap1\n      pop\n        /* \"#utility.yul\":5609:5751   */\n      swap2\n      swap1\n      pop\n      jump\t// out\n        /* \"#utility.yul\":5757:5953   */\n    tag_340:\n        /* \"#utility.yul\":5846:5856   */\n      0x00\n        /* \"#utility.yul\":5881:5947   */\n      tag_464\n        /* \"#utility.yul\":5943:5946   */\n      dup4\n        /* \"#utility.yul\":5935:5941   */\n      dup4\n        /* \"#utility.yul\":5881:5947   */\n      tag_335\n      jump\t// in\n    tag_464:\n        /* \"#utility.yul\":5867:5947   */\n      swap1\n      pop\n        /* \"#utility.yul\":5757:5953   */\n      swap3\n      swap2\n      pop\n      pop\n      jump\t// out\n        /* \"#utility.yul\":5959:6082   */\n    tag_341:\n        /* \"#utility.yul\":6039:6043   */\n      0x00\n        /* \"#utility.yul\":6071:6075   */\n      0x20\n        /* \"#utility.yul\":6066:6069   */\n      dup3\n        /* \"#utility.yul\":6062:6076   */\n      add\n        /* \"#utility.yul\":6054:6076   */\n      swap1\n      pop\n        /* \"#utility.yul\":5959:6082   */\n      swap2\n      swap1\n      pop\n      jump\t// out\n        /* \"#utility.yul\":6116:7087   */\n    tag_342:\n        /* \"#utility.yul\":6245:6248   */\n      0x00\n        /* \"#utility.yul\":6274:6338   */\n      tag_467\n        /* \"#utility.yul\":6332:6337   */\n      dup3\n        /* \"#utility.yul\":6274:6338   */\n      tag_337\n      jump\t// in\n    tag_467:\n        /* \"#utility.yul\":6354:6440   */\n      tag_468\n        /* \"#utility.yul\":6433:6439   */\n      dup2\n        /* \"#utility.yul\":6428:6431   */\n      dup6\n        /* \"#utility.yul\":6354:6440   */\n      tag_338\n      jump\t// in\n    tag_468:\n        /* \"#utility.yul\":6347:6440   */\n      swap4\n      pop\n        /* \"#utility.yul\":6466:6469   */\n      dup4\n        /* \"#utility.yul\":6511:6515   */\n      0x20\n        /* \"#utility.yul\":6503:6509   */\n      dup3\n        /* \"#utility.yul\":6499:6516   */\n      mul\n        /* \"#utility.yul\":6494:6497   */\n      dup6\n        /* \"#utility.yul\":6490:6517   */\n      add\n        /* \"#utility.yul\":6541:6607   */\n      tag_469\n        /* \"#utility.yul\":6601:6606   */\n      dup6\n        /* \"#utility.yul\":6541:6607   */\n      tag_339\n      jump\t// in\n    tag_469:\n        /* \"#utility.yul\":6630:6637   */\n      dup1\n        /* \"#utility.yul\":6661:6662   */\n      0x00\n        /* \"#utility.yul\":6646:7042   */\n    tag_470:\n        /* \"#utility.yul\":6671:6677   */\n      dup6\n        /* \"#utility.yul\":6668:6669   */\n      dup2\n        /* \"#utility.yul\":6665:6678   */\n      lt\n        /* \"#utility.yul\":6646:7042   */\n      iszero\n      tag_472\n      jumpi\n        /* \"#utility.yul\":6742:6751   */\n      dup5\n        /* \"#utility.yul\":6736:6740   */\n      dup5\n        /* \"#utility.yul\":6732:6752   */\n      sub\n        /* \"#utility.yul\":6727:6730   */\n      dup10\n        /* \"#utility.yul\":6720:6753   */\n      mstore\n        /* \"#utility.yul\":6793:6799   */\n      dup2\n        /* \"#utility.yul\":6787:6800   */\n      mload\n        /* \"#utility.yul\":6821:6905   */\n      tag_473\n        /* \"#utility.yul\":6900:6904   */\n      dup6\n        /* \"#utility.yul\":6885:6898   */\n      dup3\n        /* \"#utility.yul\":6821:6905   */\n      tag_340\n      jump\t// in\n    tag_473:\n        /* \"#utility.yul\":6813:6905   */\n      swap5\n      pop\n        /* \"#utility.yul\":6928:6998   */\n      tag_474\n        /* \"#utility.yul\":6991:6997   */\n      dup4\n        /* \"#utility.yul\":6928:6998   */\n      tag_341\n      jump\t// in\n    tag_474:\n        /* \"#utility.yul\":6918:6998   */\n      swap3\n      pop\n        /* \"#utility.yul\":7027:7031   */\n      0x20\n        /* \"#utility.yul\":7022:7025   */\n      dup11\n        /* \"#utility.yul\":7018:7032   */\n      add\n        /* \"#utility.yul\":7011:7032   */\n      swap10\n      pop\n        /* \"#utility.yul\":6706:7042   */\n      pop\n        /* \"#utility.yul\":6693:6694   */\n      0x01\n        /* \"#utility.yul\":6690:6691   */\n      dup2\n        /* \"#utility.yul\":6686:6695   */\n      add\n        /* \"#utility.yul\":6681:6695   */\n      swap1\n      pop\n        /* \"#utility.yul\":6646:7042   */\n      jump(tag_470)\n    tag_472:\n        /* \"#utility.yul\":6650:6664   */\n      pop\n        /* \"#utility.yul\":7058:7062   */\n      dup3\n        /* \"#utility.yul\":7051:7062   */\n      swap8\n      pop\n        /* \"#utility.yul\":7078:7081   */\n      dup8\n        /* \"#utility.yul\":7071:7081   */\n      swap6\n      pop\n        /* \"#utility.yul\":6250:7087   */\n      pop\n      pop\n      pop\n      pop\n      pop\n        /* \"#utility.yul\":6116:7087   */\n      swap3\n      swap2\n      pop\n      pop\n      jump\t// out\n        /* \"#utility.yul\":7163:9013   */\n    tag_343:\n        /* \"#utility.yul\":7268:7271   */\n      0x00\n        /* \"#utility.yul\":7304:7308   */\n      0xe0\n        /* \"#utility.yul\":7299:7302   */\n      dup4\n        /* \"#utility.yul\":7295:7309   */\n      add\n        /* \"#utility.yul\":7389:7393   */\n      0x00\n        /* \"#utility.yul\":7382:7387   */\n      dup4\n        /* \"#utility.yul\":7378:7394   */\n      add\n        /* \"#utility.yul\":7372:7395   */\n      mload\n        /* \"#utility.yul\":7408:7471   */\n      tag_476\n        /* \"#utility.yul\":7465:7469   */\n      0x00\n        /* \"#utility.yul\":7460:7463   */\n      dup7\n        /* \"#utility.yul\":7456:7470   */\n      add\n        /* \"#utility.yul\":7442:7454   */\n      dup3\n        /* \"#utility.yul\":7408:7471   */\n      tag_333\n      jump\t// in\n    tag_476:\n        /* \"#utility.yul\":7319:7481   */\n      pop\n        /* \"#utility.yul\":7563:7567   */\n      0x20\n        /* \"#utility.yul\":7556:7561   */\n      dup4\n        /* \"#utility.yul\":7552:7568   */\n      add\n        /* \"#utility.yul\":7546:7569   */\n      mload\n        /* \"#utility.yul\":7616:7619   */\n      dup5\n        /* \"#utility.yul\":7610:7614   */\n      dup3\n        /* \"#utility.yul\":7606:7620   */\n      sub\n        /* \"#utility.yul\":7599:7603   */\n      0x20\n        /* \"#utility.yul\":7594:7597   */\n      dup7\n        /* \"#utility.yul\":7590:7604   */\n      add\n        /* \"#utility.yul\":7583:7621   */\n      mstore\n        /* \"#utility.yul\":7642:7715   */\n      tag_477\n        /* \"#utility.yul\":7710:7714   */\n      dup3\n        /* \"#utility.yul\":7696:7708   */\n      dup3\n        /* \"#utility.yul\":7642:7715   */\n      tag_335\n      jump\t// in\n    tag_477:\n        /* \"#utility.yul\":7634:7715   */\n      swap2\n      pop\n        /* \"#utility.yul\":7491:7726   */\n      pop\n        /* \"#utility.yul\":7807:7811   */\n      0x40\n        /* \"#utility.yul\":7800:7805   */\n      dup4\n        /* \"#utility.yul\":7796:7812   */\n      add\n        /* \"#utility.yul\":7790:7813   */\n      mload\n        /* \"#utility.yul\":7826:7889   */\n      tag_478\n        /* \"#utility.yul\":7883:7887   */\n      0x40\n        /* \"#utility.yul\":7878:7881   */\n      dup7\n        /* \"#utility.yul\":7874:7888   */\n      add\n        /* \"#utility.yul\":7860:7872   */\n      dup3\n        /* \"#utility.yul\":7826:7889   */\n      tag_333\n      jump\t// in\n    tag_478:\n        /* \"#utility.yul\":7736:7899   */\n      pop\n        /* \"#utility.yul\":7990:7994   */\n      0x60\n        /* \"#utility.yul\":7983:7988   */\n      dup4\n        /* \"#utility.yul\":7979:7995   */\n      add\n        /* \"#utility.yul\":7973:7996   */\n      mload\n        /* \"#utility.yul\":8009:8072   */\n      tag_479\n        /* \"#utility.yul\":8066:8070   */\n      0x60\n        /* \"#utility.yul\":8061:8064   */\n      dup7\n        /* \"#utility.yul\":8057:8071   */\n      add\n        /* \"#utility.yul\":8043:8055   */\n      dup3\n        /* \"#utility.yul\":8009:8072   */\n      tag_336\n      jump\t// in\n    tag_479:\n        /* \"#utility.yul\":7909:8082   */\n      pop\n        /* \"#utility.yul\":8168:8172   */\n      0x80\n        /* \"#utility.yul\":8161:8166   */\n      dup4\n        /* \"#utility.yul\":8157:8173   */\n      add\n        /* \"#utility.yul\":8151:8174   */\n      mload\n        /* \"#utility.yul\":8221:8224   */\n      dup5\n        /* \"#utility.yul\":8215:8219   */\n      dup3\n        /* \"#utility.yul\":8211:8225   */\n      sub\n        /* \"#utility.yul\":8204:8208   */\n      0x80\n        /* \"#utility.yul\":8199:8202   */\n      dup7\n        /* \"#utility.yul\":8195:8209   */\n      add\n        /* \"#utility.yul\":8188:8226   */\n      mstore\n        /* \"#utility.yul\":8247:8370   */\n      tag_480\n        /* \"#utility.yul\":8365:8369   */\n      dup3\n        /* \"#utility.yul\":8351:8363   */\n      dup3\n        /* \"#utility.yul\":8247:8370   */\n      tag_342\n      jump\t// in\n    tag_480:\n        /* \"#utility.yul\":8239:8370   */\n      swap2\n      pop\n        /* \"#utility.yul\":8092:8381   */\n      pop\n        /* \"#utility.yul\":8468:8472   */\n      0xa0\n        /* \"#utility.yul\":8461:8466   */\n      dup4\n        /* \"#utility.yul\":8457:8473   */\n      add\n        /* \"#utility.yul\":8451:8474   */\n      mload\n        /* \"#utility.yul\":8521:8524   */\n      dup5\n        /* \"#utility.yul\":8515:8519   */\n      dup3\n        /* \"#utility.yul\":8511:8525   */\n      sub\n        /* \"#utility.yul\":8504:8508   */\n      0xa0\n        /* \"#utility.yul\":8499:8502   */\n      dup7\n        /* \"#utility.yul\":8495:8509   */\n      add\n        /* \"#utility.yul\":8488:8526   */\n      mstore\n        /* \"#utility.yul\":8547:8670   */\n      tag_481\n        /* \"#utility.yul\":8665:8669   */\n      dup3\n        /* \"#utility.yul\":8651:8663   */\n      dup3\n        /* \"#utility.yul\":8547:8670   */\n      tag_342\n      jump\t// in\n    tag_481:\n        /* \"#utility.yul\":8539:8670   */\n      swap2\n      pop\n        /* \"#utility.yul\":8391:8681   */\n      pop\n        /* \"#utility.yul\":8773:8777   */\n      0xc0\n        /* \"#utility.yul\":8766:8771   */\n      dup4\n        /* \"#utility.yul\":8762:8778   */\n      add\n        /* \"#utility.yul\":8756:8779   */\n      mload\n        /* \"#utility.yul\":8826:8829   */\n      dup5\n        /* \"#utility.yul\":8820:8824   */\n      dup3\n        /* \"#utility.yul\":8816:8830   */\n      sub\n        /* \"#utility.yul\":8809:8813   */\n      0xc0\n        /* \"#utility.yul\":8804:8807   */\n      dup7\n        /* \"#utility.yul\":8800:8814   */\n      add\n        /* \"#utility.yul\":8793:8831   */\n      mstore\n        /* \"#utility.yul\":8852:8975   */\n      tag_482\n        /* \"#utility.yul\":8970:8974   */\n      dup3\n        /* \"#utility.yul\":8956:8968   */\n      dup3\n        /* \"#utility.yul\":8852:8975   */\n      tag_342\n      jump\t// in\n    tag_482:\n        /* \"#utility.yul\":8844:8975   */\n      swap2\n      pop\n        /* \"#utility.yul\":8691:8986   */\n      pop\n        /* \"#utility.yul\":9003:9007   */\n      dup1\n        /* \"#utility.yul\":8996:9007   */\n      swap2\n      pop\n        /* \"#utility.yul\":7273:9013   */\n      pop\n        /* \"#utility.yul\":7163:9013   */\n      swap3\n      swap2\n      pop\n      pop\n      jump\t// out\n        /* \"#utility.yul\":9019:9267   */\n    tag_344:\n        /* \"#utility.yul\":9134:9144   */\n      0x00\n        /* \"#utility.yul\":9169:9261   */\n      tag_484\n        /* \"#utility.yul\":9257:9260   */\n      dup4\n        /* \"#utility.yul\":9249:9255   */\n      dup4\n        /* \"#utility.yul\":9169:9261   */\n      tag_343\n      jump\t// in\n    tag_484:\n        /* \"#utility.yul\":9155:9261   */\n      swap1\n      pop\n        /* \"#utility.yul\":9019:9267   */\n      swap3\n      swap2\n      pop\n      pop\n      jump\t// out\n        /* \"#utility.yul\":9273:9409   */\n    tag_345:\n        /* \"#utility.yul\":9366:9370   */\n      0x00\n        /* \"#utility.yul\":9398:9402   */\n      0x20\n        /* \"#utility.yul\":9393:9396   */\n      dup3\n        /* \"#utility.yul\":9389:9403   */\n      add\n        /* \"#utility.yul\":9381:9403   */\n      swap1\n      pop\n        /* \"#utility.yul\":9273:9409   */\n      swap2\n      swap1\n      pop\n      jump\t// out\n        /* \"#utility.yul\":9489:10584   */\n    tag_346:\n        /* \"#utility.yul\":9654:9657   */\n      0x00\n        /* \"#utility.yul\":9683:9760   */\n      tag_487\n        /* \"#utility.yul\":9754:9759   */\n      dup3\n        /* \"#utility.yul\":9683:9760   */\n      tag_330\n      jump\t// in\n    tag_487:\n        /* \"#utility.yul\":9776:9885   */\n      tag_488\n        /* \"#utility.yul\":9878:9884   */\n      dup2\n        /* \"#utility.yul\":9873:9876   */\n      dup6\n        /* \"#utility.yul\":9776:9885   */\n      tag_331\n      jump\t// in\n    tag_488:\n        /* \"#utility.yul\":9769:9885   */\n      swap4\n      pop\n        /* \"#utility.yul\":9911:9914   */\n      dup4\n        /* \"#utility.yul\":9956:9960   */\n      0x20\n        /* \"#utility.yul\":9948:9954   */\n      dup3\n        /* \"#utility.yul\":9944:9961   */\n      mul\n        /* \"#utility.yul\":9939:9942   */\n      dup6\n        /* \"#utility.yul\":9935:9962   */\n      add\n        /* \"#utility.yul\":9986:10065   */\n      tag_489\n        /* \"#utility.yul\":10059:10064   */\n      dup6\n        /* \"#utility.yul\":9986:10065   */\n      tag_332\n      jump\t// in\n    tag_489:\n        /* \"#utility.yul\":10088:10095   */\n      dup1\n        /* \"#utility.yul\":10119:10120   */\n      0x00\n        /* \"#utility.yul\":10104:10539   */\n    tag_490:\n        /* \"#utility.yul\":10129:10135   */\n      dup6\n        /* \"#utility.yul\":10126:10127   */\n      dup2\n        /* \"#utility.yul\":10123:10136   */\n      lt\n        /* \"#utility.yul\":10104:10539   */\n      iszero\n      tag_492\n      jumpi\n        /* \"#utility.yul\":10200:10209   */\n      dup5\n        /* \"#utility.yul\":10194:10198   */\n      dup5\n        /* \"#utility.yul\":10190:10210   */\n      sub\n        /* \"#utility.yul\":10185:10188   */\n      dup10\n        /* \"#utility.yul\":10178:10211   */\n      mstore\n        /* \"#utility.yul\":10251:10257   */\n      dup2\n        /* \"#utility.yul\":10245:10258   */\n      mload\n        /* \"#utility.yul\":10279:10389   */\n      tag_493\n        /* \"#utility.yul\":10384:10388   */\n      dup6\n        /* \"#utility.yul\":10369:10382   */\n      dup3\n        /* \"#utility.yul\":10279:10389   */\n      tag_344\n      jump\t// in\n    tag_493:\n        /* \"#utility.yul\":10271:10389   */\n      swap5\n      pop\n        /* \"#utility.yul\":10412:10495   */\n      tag_494\n        /* \"#utility.yul\":10488:10494   */\n      dup4\n        /* \"#utility.yul\":10412:10495   */\n      tag_345\n      jump\t// in\n    tag_494:\n        /* \"#utility.yul\":10402:10495   */\n      swap3\n      pop\n        /* \"#utility.yul\":10524:10528   */\n      0x20\n        /* \"#utility.yul\":10519:10522   */\n      dup11\n        /* \"#utility.yul\":10515:10529   */\n      add\n        /* \"#utility.yul\":10508:10529   */\n      swap10\n      pop\n        /* \"#utility.yul\":10164:10539   */\n      pop\n        /* \"#utility.yul\":10151:10152   */\n      0x01\n        /* \"#utility.yul\":10148:10149   */\n      dup2\n        /* \"#utility.yul\":10144:10153   */\n      add\n        /* \"#utility.yul\":10139:10153   */\n      swap1\n      pop\n        /* \"#utility.yul\":10104:10539   */\n      jump(tag_490)\n    tag_492:\n        /* \"#utility.yul\":10108:10122   */\n      pop\n        /* \"#utility.yul\":10555:10559   */\n      dup3\n        /* \"#utility.yul\":10548:10559   */\n      swap8\n      pop\n        /* \"#utility.yul\":10575:10578   */\n      dup8\n        /* \"#utility.yul\":10568:10578   */\n      swap6\n      pop\n        /* \"#utility.yul\":9659:10584   */\n      pop\n      pop\n      pop\n      pop\n      pop\n        /* \"#utility.yul\":9489:10584   */\n      swap3\n      swap2\n      pop\n      pop\n      jump\t// out\n        /* \"#utility.yul\":10590:11055   */\n    tag_40:\n        /* \"#utility.yul\":10779:10783   */\n      0x00\n        /* \"#utility.yul\":10817:10819   */\n      0x20\n        /* \"#utility.yul\":10806:10815   */\n      dup3\n        /* \"#utility.yul\":10802:10820   */\n      add\n        /* \"#utility.yul\":10794:10820   */\n      swap1\n      pop\n        /* \"#utility.yul\":10866:10875   */\n      dup2\n        /* \"#utility.yul\":10860:10864   */\n      dup2\n        /* \"#utility.yul\":10856:10876   */\n      sub\n        /* \"#utility.yul\":10852:10853   */\n      0x00\n        /* \"#utility.yul\":10841:10850   */\n      dup4\n        /* \"#utility.yul\":10837:10854   */\n      add\n        /* \"#utility.yul\":10830:10877   */\n      mstore\n        /* \"#utility.yul\":10894:11048   */\n      tag_496\n        /* \"#utility.yul\":11043:11047   */\n      dup2\n        /* \"#utility.yul\":11034:11040   */\n      dup5\n        /* \"#utility.yul\":10894:11048   */\n      tag_346\n      jump\t// in\n    tag_496:\n        /* \"#utility.yul\":10886:11048   */\n      swap1\n      pop\n        /* \"#utility.yul\":10590:11055   */\n      swap3\n      swap2\n      pop\n      pop\n      jump\t// out\n        /* \"#utility.yul\":11061:11178   */\n    tag_347:\n        /* \"#utility.yul\":11170:11171   */\n      0x00\n        /* \"#utility.yul\":11167:11168   */\n      dup1\n        /* \"#utility.yul\":11160:11172   */\n      revert\n        /* \"#utility.yul\":11184:11301   */\n    tag_348:\n        /* \"#utility.yul\":11293:11294   */\n      0x00\n        /* \"#utility.yul\":11290:11291   */\n      dup1\n        /* \"#utility.yul\":11283:11295   */\n      revert\n        /* \"#utility.yul\":11307:11487   */\n    tag_115:\n        /* \"#utility.yul\":11355:11432   */\n      0x4e487b7100000000000000000000000000000000000000000000000000000000\n        /* \"#utility.yul\":11352:11353   */\n      0x00\n        /* \"#utility.yul\":11345:11433   */\n      mstore\n        /* \"#utility.yul\":11452:11456   */\n      0x41\n        /* \"#utility.yul\":11449:11450   */\n      0x04\n        /* \"#utility.yul\":11442:11457   */\n      mstore\n        /* \"#utility.yul\":11476:11480   */\n      0x24\n        /* \"#utility.yul\":11473:11474   */\n      0x00\n        /* \"#utility.yul\":11466:11481   */\n      revert\n        /* \"#utility.yul\":11493:11774   */\n    tag_349:\n        /* \"#utility.yul\":11576:11603   */\n      tag_501\n        /* \"#utility.yul\":11598:11602   */\n      dup3\n        /* \"#utility.yul\":11576:11603   */\n      tag_328\n      jump\t// in\n    tag_501:\n        /* \"#utility.yul\":11568:11574   */\n      dup2\n        /* \"#utility.yul\":11564:11604   */\n      add\n        /* \"#utility.yul\":11706:11712   */\n      dup2\n        /* \"#utility.yul\":11694:11704   */\n      dup2\n        /* \"#utility.yul\":11691:11713   */\n      lt\n        /* \"#utility.yul\":11670:11688   */\n      0xffffffffffffffff\n        /* \"#utility.yul\":11658:11668   */\n      dup3\n        /* \"#utility.yul\":11655:11689   */\n      gt\n        /* \"#utility.yul\":11652:11714   */\n      or\n        /* \"#utility.yul\":11649:11737   */\n      iszero\n      tag_502\n      jumpi\n        /* \"#utility.yul\":11717:11735   */\n      tag_503\n      tag_115\n      jump\t// in\n    tag_503:\n        /* \"#utility.yul\":11649:11737   */\n    tag_502:\n        /* \"#utility.yul\":11757:11767   */\n      dup1\n        /* \"#utility.yul\":11753:11755   */\n      0x40\n        /* \"#utility.yul\":11746:11768   */\n      mstore\n        /* \"#utility.yul\":11536:11774   */\n      pop\n        /* \"#utility.yul\":11493:11774   */\n      pop\n      pop\n      jump\t// out\n        /* \"#utility.yul\":11780:11909   */\n    tag_350:\n        /* \"#utility.yul\":11814:11820   */\n      0x00\n        /* \"#utility.yul\":11841:11861   */\n      tag_505\n      tag_313\n      jump\t// in\n    tag_505:\n        /* \"#utility.yul\":11831:11861   */\n      swap1\n      pop\n        /* \"#utility.yul\":11870:11903   */\n      tag_506\n        /* \"#utility.yul\":11898:11902   */\n      dup3\n        /* \"#utility.yul\":11890:11896   */\n      dup3\n        /* \"#utility.yul\":11870:11903   */\n      tag_349\n      jump\t// in\n    tag_506:\n        /* \"#utility.yul\":11780:11909   */\n      swap2\n      swap1\n      pop\n      jump\t// out\n        /* \"#utility.yul\":11915:12223   */\n    tag_351:\n        /* \"#utility.yul\":11977:11981   */\n      0x00\n        /* \"#utility.yul\":12067:12085   */\n      0xffffffffffffffff\n        /* \"#utility.yul\":12059:12065   */\n      dup3\n        /* \"#utility.yul\":12056:12086   */\n      gt\n        /* \"#utility.yul\":12053:12109   */\n      iszero\n      tag_508\n      jumpi\n        /* \"#utility.yul\":12089:12107   */\n      tag_509\n      tag_115\n      jump\t// in\n    tag_509:\n        /* \"#utility.yul\":12053:12109   */\n    tag_508:\n        /* \"#utility.yul\":12127:12156   */\n      tag_510\n        /* \"#utility.yul\":12149:12155   */\n      dup3\n        /* \"#utility.yul\":12127:12156   */\n      tag_328\n      jump\t// in\n    tag_510:\n        /* \"#utility.yul\":12119:12156   */\n      swap1\n      pop\n        /* \"#utility.yul\":12211:12215   */\n      0x20\n        /* \"#utility.yul\":12205:12209   */\n      dup2\n        /* \"#utility.yul\":12201:12216   */\n      add\n        /* \"#utility.yul\":12193:12216   */\n      swap1\n      pop\n        /* \"#utility.yul\":11915:12223   */\n      swap2\n      swap1\n      pop\n      jump\t// out\n        /* \"#utility.yul\":12229:12375   */\n    tag_352:\n        /* \"#utility.yul\":12326:12332   */\n      dup3\n        /* \"#utility.yul\":12321:12324   */\n      dup2\n        /* \"#utility.yul\":12316:12319   */\n      dup4\n        /* \"#utility.yul\":12303:12333   */\n      calldatacopy\n        /* \"#utility.yul\":12367:12368   */\n      0x00\n        /* \"#utility.yul\":12358:12364   */\n      dup4\n        /* \"#utility.yul\":12353:12356   */\n      dup4\n        /* \"#utility.yul\":12349:12365   */\n      add\n        /* \"#utility.yul\":12342:12369   */\n      mstore\n        /* \"#utility.yul\":12229:12375   */\n      pop\n      pop\n      pop\n      jump\t// out\n        /* \"#utility.yul\":12381:12806   */\n    tag_353:\n        /* \"#utility.yul\":12459:12464   */\n      0x00\n        /* \"#utility.yul\":12484:12550   */\n      tag_513\n        /* \"#utility.yul\":12500:12549   */\n      tag_514\n        /* \"#utility.yul\":12542:12548   */\n      dup5\n        /* \"#utility.yul\":12500:12549   */\n      tag_351\n      jump\t// in\n    tag_514:\n        /* \"#utility.yul\":12484:12550   */\n      tag_350\n      jump\t// in\n    tag_513:\n        /* \"#utility.yul\":12475:12550   */\n      swap1\n      pop\n        /* \"#utility.yul\":12573:12579   */\n      dup3\n        /* \"#utility.yul\":12566:12571   */\n      dup2\n        /* \"#utility.yul\":12559:12580   */\n      mstore\n        /* \"#utility.yul\":12611:12615   */\n      0x20\n        /* \"#utility.yul\":12604:12609   */\n      dup2\n        /* \"#utility.yul\":12600:12616   */\n      add\n        /* \"#utility.yul\":12649:12652   */\n      dup5\n        /* \"#utility.yul\":12640:12646   */\n      dup5\n        /* \"#utility.yul\":12635:12638   */\n      dup5\n        /* \"#utility.yul\":12631:12647   */\n      add\n        /* \"#utility.yul\":12628:12653   */\n      gt\n        /* \"#utility.yul\":12625:12737   */\n      iszero\n      tag_515\n      jumpi\n        /* \"#utility.yul\":12656:12735   */\n      tag_516\n      tag_348\n      jump\t// in\n    tag_516:\n        /* \"#utility.yul\":12625:12737   */\n    tag_515:\n        /* \"#utility.yul\":12746:12800   */\n      tag_517\n        /* \"#utility.yul\":12793:12799   */\n      dup5\n        /* \"#utility.yul\":12788:12791   */\n      dup3\n        /* \"#utility.yul\":12783:12786   */\n      dup6\n        /* \"#utility.yul\":12746:12800   */\n      tag_352\n      jump\t// in\n    tag_517:\n        /* \"#utility.yul\":12465:12806   */\n      pop\n        /* \"#utility.yul\":12381:12806   */\n      swap4\n      swap3\n      pop\n      pop\n      pop\n      jump\t// out\n        /* \"#utility.yul\":12826:13166   */\n    tag_354:\n        /* \"#utility.yul\":12882:12887   */\n      0x00\n        /* \"#utility.yul\":12931:12934   */\n      dup3\n        /* \"#utility.yul\":12924:12928   */\n      0x1f\n        /* \"#utility.yul\":12916:12922   */\n      dup4\n        /* \"#utility.yul\":12912:12929   */\n      add\n        /* \"#utility.yul\":12908:12935   */\n      slt\n        /* \"#utility.yul\":12898:13020   */\n      tag_519\n      jumpi\n        /* \"#utility.yul\":12939:13018   */\n      tag_520\n      tag_347\n      jump\t// in\n    tag_520:\n        /* \"#utility.yul\":12898:13020   */\n    tag_519:\n        /* \"#utility.yul\":13056:13062   */\n      dup2\n        /* \"#utility.yul\":13043:13063   */\n      calldataload\n        /* \"#utility.yul\":13081:13160   */\n      tag_521\n        /* \"#utility.yul\":13156:13159   */\n      dup5\n        /* \"#utility.yul\":13148:13154   */\n      dup3\n        /* \"#utility.yul\":13141:13145   */\n      0x20\n        /* \"#utility.yul\":13133:13139   */\n      dup7\n        /* \"#utility.yul\":13129:13146   */\n      add\n        /* \"#utility.yul\":13081:13160   */\n      tag_353\n      jump\t// in\n    tag_521:\n        /* \"#utility.yul\":13072:13160   */\n      swap2\n      pop\n        /* \"#utility.yul\":12888:13166   */\n      pop\n        /* \"#utility.yul\":12826:13166   */\n      swap3\n      swap2\n      pop\n      pop\n      jump\t// out\n        /* \"#utility.yul\":13172:13826   */\n    tag_43:\n        /* \"#utility.yul\":13250:13256   */\n      0x00\n        /* \"#utility.yul\":13258:13264   */\n      dup1\n        /* \"#utility.yul\":13307:13309   */\n      0x40\n        /* \"#utility.yul\":13295:13304   */\n      dup4\n        /* \"#utility.yul\":13286:13293   */\n      dup6\n        /* \"#utility.yul\":13282:13305   */\n      sub\n        /* \"#utility.yul\":13278:13310   */\n      slt\n        /* \"#utility.yul\":13275:13394   */\n      iszero\n      tag_523\n      jumpi\n        /* \"#utility.yul\":13313:13392   */\n      tag_524\n      tag_314\n      jump\t// in\n    tag_524:\n        /* \"#utility.yul\":13275:13394   */\n    tag_523:\n        /* \"#utility.yul\":13461:13462   */\n      0x00\n        /* \"#utility.yul\":13450:13459   */\n      dup4\n        /* \"#utility.yul\":13446:13463   */\n      add\n        /* \"#utility.yul\":13433:13464   */\n      calldataload\n        /* \"#utility.yul\":13491:13509   */\n      0xffffffffffffffff\n        /* \"#utility.yul\":13483:13489   */\n      dup2\n        /* \"#utility.yul\":13480:13510   */\n      gt\n        /* \"#utility.yul\":13477:13594   */\n      iszero\n      tag_525\n      jumpi\n        /* \"#utility.yul\":13513:13592   */\n      tag_526\n      tag_315\n      jump\t// in\n    tag_526:\n        /* \"#utility.yul\":13477:13594   */\n    tag_525:\n        /* \"#utility.yul\":13618:13681   */\n      tag_527\n        /* \"#utility.yul\":13673:13680   */\n      dup6\n        /* \"#utility.yul\":13664:13670   */\n      dup3\n        /* \"#utility.yul\":13653:13662   */\n      dup7\n        /* \"#utility.yul\":13649:13671   */\n      add\n        /* \"#utility.yul\":13618:13681   */\n      tag_354\n      jump\t// in\n    tag_527:\n        /* \"#utility.yul\":13608:13681   */\n      swap3\n      pop\n        /* \"#utility.yul\":13404:13691   */\n      pop\n        /* \"#utility.yul\":13730:13732   */\n      0x20\n        /* \"#utility.yul\":13756:13809   */\n      tag_528\n        /* \"#utility.yul\":13801:13808   */\n      dup6\n        /* \"#utility.yul\":13792:13798   */\n      dup3\n        /* \"#utility.yul\":13781:13790   */\n      dup7\n        /* \"#utility.yul\":13777:13799   */\n      add\n        /* \"#utility.yul\":13756:13809   */\n      tag_318\n      jump\t// in\n    tag_528:\n        /* \"#utility.yul\":13746:13809   */\n      swap2\n      pop\n        /* \"#utility.yul\":13701:13819   */\n      pop\n        /* \"#utility.yul\":13172:13826   */\n      swap3\n      pop\n      swap3\n      swap1\n      pop\n      jump\t// out\n        /* \"#utility.yul\":13832:13922   */\n    tag_355:\n        /* \"#utility.yul\":13866:13873   */\n      0x00\n        /* \"#utility.yul\":13909:13914   */\n      dup2\n        /* \"#utility.yul\":13902:13915   */\n      iszero\n        /* \"#utility.yul\":13895:13916   */\n      iszero\n        /* \"#utility.yul\":13884:13916   */\n      swap1\n      pop\n        /* \"#utility.yul\":13832:13922   */\n      swap2\n      swap1\n      pop\n      jump\t// out\n        /* \"#utility.yul\":13928:14037   */\n    tag_356:\n        /* \"#utility.yul\":14009:14030   */\n      tag_531\n        /* \"#utility.yul\":14024:14029   */\n      dup2\n        /* \"#utility.yul\":14009:14030   */\n      tag_355\n      jump\t// in\n    tag_531:\n        /* \"#utility.yul\":14004:14007   */\n      dup3\n        /* \"#utility.yul\":13997:14031   */\n      mstore\n        /* \"#utility.yul\":13928:14037   */\n      pop\n      pop\n      jump\t// out\n        /* \"#utility.yul\":14043:14253   */\n    tag_48:\n        /* \"#utility.yul\":14130:14134   */\n      0x00\n        /* \"#utility.yul\":14168:14170   */\n      0x20\n        /* \"#utility.yul\":14157:14166   */\n      dup3\n        /* \"#utility.yul\":14153:14171   */\n      add\n        /* \"#utility.yul\":14145:14171   */\n      swap1\n      pop\n        /* \"#utility.yul\":14181:14246   */\n      tag_533\n        /* \"#utility.yul\":14243:14244   */\n      0x00\n        /* \"#utility.yul\":14232:14241   */\n      dup4\n        /* \"#utility.yul\":14228:14245   */\n      add\n        /* \"#utility.yul\":14219:14225   */\n      dup5\n        /* \"#utility.yul\":14181:14246   */\n      tag_356\n      jump\t// in\n    tag_533:\n        /* \"#utility.yul\":14043:14253   */\n      swap3\n      swap2\n      pop\n      pop\n      jump\t// out\n        /* \"#utility.yul\":14259:14481   */\n    tag_52:\n        /* \"#utility.yul\":14352:14356   */\n      0x00\n        /* \"#utility.yul\":14390:14392   */\n      0x20\n        /* \"#utility.yul\":14379:14388   */\n      dup3\n        /* \"#utility.yul\":14375:14393   */\n      add\n        /* \"#utility.yul\":14367:14393   */\n      swap1\n      pop\n        /* \"#utility.yul\":14403:14474   */\n      tag_535\n        /* \"#utility.yul\":14471:14472   */\n      0x00\n        /* \"#utility.yul\":14460:14469   */\n      dup4\n        /* \"#utility.yul\":14456:14473   */\n      add\n        /* \"#utility.yul\":14447:14453   */\n      dup5\n        /* \"#utility.yul\":14403:14474   */\n      tag_324\n      jump\t// in\n    tag_535:\n        /* \"#utility.yul\":14259:14481   */\n      swap3\n      swap2\n      pop\n      pop\n      jump\t// out\n        /* \"#utility.yul\":14487:15321   */\n    tag_59:\n        /* \"#utility.yul\":14575:14581   */\n      0x00\n        /* \"#utility.yul\":14583:14589   */\n      dup1\n        /* \"#utility.yul\":14632:14634   */\n      0x40\n        /* \"#utility.yul\":14620:14629   */\n      dup4\n        /* \"#utility.yul\":14611:14618   */\n      dup6\n        /* \"#utility.yul\":14607:14630   */\n      sub\n        /* \"#utility.yul\":14603:14635   */\n      slt\n        /* \"#utility.yul\":14600:14719   */\n      iszero\n      tag_537\n      jumpi\n        /* \"#utility.yul\":14638:14717   */\n      tag_538\n      tag_314\n      jump\t// in\n    tag_538:\n        /* \"#utility.yul\":14600:14719   */\n    tag_537:\n        /* \"#utility.yul\":14786:14787   */\n      0x00\n        /* \"#utility.yul\":14775:14784   */\n      dup4\n        /* \"#utility.yul\":14771:14788   */\n      add\n        /* \"#utility.yul\":14758:14789   */\n      calldataload\n        /* \"#utility.yul\":14816:14834   */\n      0xffffffffffffffff\n        /* \"#utility.yul\":14808:14814   */\n      dup2\n        /* \"#utility.yul\":14805:14835   */\n      gt\n        /* \"#utility.yul\":14802:14919   */\n      iszero\n      tag_539\n      jumpi\n        /* \"#utility.yul\":14838:14917   */\n      tag_540\n      tag_315\n      jump\t// in\n    tag_540:\n        /* \"#utility.yul\":14802:14919   */\n    tag_539:\n        /* \"#utility.yul\":14943:15006   */\n      tag_541\n        /* \"#utility.yul\":14998:15005   */\n      dup6\n        /* \"#utility.yul\":14989:14995   */\n      dup3\n        /* \"#utility.yul\":14978:14987   */\n      dup7\n        /* \"#utility.yul\":14974:14996   */\n      add\n        /* \"#utility.yul\":14943:15006   */\n      tag_354\n      jump\t// in\n    tag_541:\n        /* \"#utility.yul\":14933:15006   */\n      swap3\n      pop\n        /* \"#utility.yul\":14729:15016   */\n      pop\n        /* \"#utility.yul\":15083:15085   */\n      0x20\n        /* \"#utility.yul\":15072:15081   */\n      dup4\n        /* \"#utility.yul\":15068:15086   */\n      add\n        /* \"#utility.yul\":15055:15087   */\n      calldataload\n        /* \"#utility.yul\":15114:15132   */\n      0xffffffffffffffff\n        /* \"#utility.yul\":15106:15112   */\n      dup2\n        /* \"#utility.yul\":15103:15133   */\n      gt\n        /* \"#utility.yul\":15100:15217   */\n      iszero\n      tag_542\n      jumpi\n        /* \"#utility.yul\":15136:15215   */\n      tag_543\n      tag_315\n      jump\t// in\n    tag_543:\n        /* \"#utility.yul\":15100:15217   */\n    tag_542:\n        /* \"#utility.yul\":15241:15304   */\n      tag_544\n        /* \"#utility.yul\":15296:15303   */\n      dup6\n        /* \"#utility.yul\":15287:15293   */\n      dup3\n        /* \"#utility.yul\":15276:15285   */\n      dup7\n        /* \"#utility.yul\":15272:15294   */\n      add\n        /* \"#utility.yul\":15241:15304   */\n      tag_354\n      jump\t// in\n    tag_544:\n        /* \"#utility.yul\":15231:15304   */\n      swap2\n      pop\n        /* \"#utility.yul\":15026:15314   */\n      pop\n        /* \"#utility.yul\":14487:15321   */\n      swap3\n      pop\n      swap3\n      swap1\n      pop\n      jump\t// out\n        /* \"#utility.yul\":15327:16306   */\n    tag_69:\n        /* \"#utility.yul\":15424:15430   */\n      0x00\n        /* \"#utility.yul\":15432:15438   */\n      dup1\n        /* \"#utility.yul\":15440:15446   */\n      0x00\n        /* \"#utility.yul\":15489:15491   */\n      0x60\n        /* \"#utility.yul\":15477:15486   */\n      dup5\n        /* \"#utility.yul\":15468:15475   */\n      dup7\n        /* \"#utility.yul\":15464:15487   */\n      sub\n        /* \"#utility.yul\":15460:15492   */\n      slt\n        /* \"#utility.yul\":15457:15576   */\n      iszero\n      tag_546\n      jumpi\n        /* \"#utility.yul\":15495:15574   */\n      tag_547\n      tag_314\n      jump\t// in\n    tag_547:\n        /* \"#utility.yul\":15457:15576   */\n    tag_546:\n        /* \"#utility.yul\":15643:15644   */\n      0x00\n        /* \"#utility.yul\":15632:15641   */\n      dup5\n        /* \"#utility.yul\":15628:15645   */\n      add\n        /* \"#utility.yul\":15615:15646   */\n      calldataload\n        /* \"#utility.yul\":15673:15691   */\n      0xffffffffffffffff\n        /* \"#utility.yul\":15665:15671   */\n      dup2\n        /* \"#utility.yul\":15662:15692   */\n      gt\n        /* \"#utility.yul\":15659:15776   */\n      iszero\n      tag_548\n      jumpi\n        /* \"#utility.yul\":15695:15774   */\n      tag_549\n      tag_315\n      jump\t// in\n    tag_549:\n        /* \"#utility.yul\":15659:15776   */\n    tag_548:\n        /* \"#utility.yul\":15800:15863   */\n      tag_550\n        /* \"#utility.yul\":15855:15862   */\n      dup7\n        /* \"#utility.yul\":15846:15852   */\n      dup3\n        /* \"#utility.yul\":15835:15844   */\n      dup8\n        /* \"#utility.yul\":15831:15853   */\n      add\n        /* \"#utility.yul\":15800:15863   */\n      tag_354\n      jump\t// in\n    tag_550:\n        /* \"#utility.yul\":15790:15863   */\n      swap4\n      pop\n        /* \"#utility.yul\":15586:15873   */\n      pop\n        /* \"#utility.yul\":15940:15942   */\n      0x20\n        /* \"#utility.yul\":15929:15938   */\n      dup5\n        /* \"#utility.yul\":15925:15943   */\n      add\n        /* \"#utility.yul\":15912:15944   */\n      calldataload\n        /* \"#utility.yul\":15971:15989   */\n      0xffffffffffffffff\n        /* \"#utility.yul\":15963:15969   */\n      dup2\n        /* \"#utility.yul\":15960:15990   */\n      gt\n        /* \"#utility.yul\":15957:16074   */\n      iszero\n      tag_551\n      jumpi\n        /* \"#utility.yul\":15993:16072   */\n      tag_552\n      tag_315\n      jump\t// in\n    tag_552:\n        /* \"#utility.yul\":15957:16074   */\n    tag_551:\n        /* \"#utility.yul\":16098:16161   */\n      tag_553\n        /* \"#utility.yul\":16153:16160   */\n      dup7\n        /* \"#utility.yul\":16144:16150   */\n      dup3\n        /* \"#utility.yul\":16133:16142   */\n      dup8\n        /* \"#utility.yul\":16129:16151   */\n      add\n        /* \"#utility.yul\":16098:16161   */\n      tag_354\n      jump\t// in\n    tag_553:\n        /* \"#utility.yul\":16088:16161   */\n      swap3\n      pop\n        /* \"#utility.yul\":15883:16171   */\n      pop\n        /* \"#utility.yul\":16210:16212   */\n      0x40\n        /* \"#utility.yul\":16236:16289   */\n      tag_554\n        /* \"#utility.yul\":16281:16288   */\n      dup7\n        /* \"#utility.yul\":16272:16278   */\n      dup3\n        /* \"#utility.yul\":16261:16270   */\n      dup8\n        /* \"#utility.yul\":16257:16279   */\n      add\n        /* \"#utility.yul\":16236:16289   */\n      tag_318\n      jump\t// in\n    tag_554:\n        /* \"#utility.yul\":16226:16289   */\n      swap2\n      pop\n        /* \"#utility.yul\":16181:16299   */\n      pop\n        /* \"#utility.yul\":15327:16306   */\n      swap3\n      pop\n      swap3\n      pop\n      swap3\n      jump\t// out\n        /* \"#utility.yul\":16312:17158   */\n    tag_78:\n        /* \"#utility.yul\":16557:16561   */\n      0x00\n        /* \"#utility.yul\":16595:16598   */\n      0xa0\n        /* \"#utility.yul\":16584:16593   */\n      dup3\n        /* \"#utility.yul\":16580:16599   */\n      add\n        /* \"#utility.yul\":16572:16599   */\n      swap1\n      pop\n        /* \"#utility.yul\":16609:16680   */\n      tag_556\n        /* \"#utility.yul\":16677:16678   */\n      0x00\n        /* \"#utility.yul\":16666:16675   */\n      dup4\n        /* \"#utility.yul\":16662:16679   */\n      add\n        /* \"#utility.yul\":16653:16659   */\n      dup9\n        /* \"#utility.yul\":16609:16680   */\n      tag_324\n      jump\t// in\n    tag_556:\n        /* \"#utility.yul\":16727:16736   */\n      dup2\n        /* \"#utility.yul\":16721:16725   */\n      dup2\n        /* \"#utility.yul\":16717:16737   */\n      sub\n        /* \"#utility.yul\":16712:16714   */\n      0x20\n        /* \"#utility.yul\":16701:16710   */\n      dup4\n        /* \"#utility.yul\":16697:16715   */\n      add\n        /* \"#utility.yul\":16690:16738   */\n      mstore\n        /* \"#utility.yul\":16755:16833   */\n      tag_557\n        /* \"#utility.yul\":16828:16832   */\n      dup2\n        /* \"#utility.yul\":16819:16825   */\n      dup8\n        /* \"#utility.yul\":16755:16833   */\n      tag_329\n      jump\t// in\n    tag_557:\n        /* \"#utility.yul\":16747:16833   */\n      swap1\n      pop\n        /* \"#utility.yul\":16880:16889   */\n      dup2\n        /* \"#utility.yul\":16874:16878   */\n      dup2\n        /* \"#utility.yul\":16870:16890   */\n      sub\n        /* \"#utility.yul\":16865:16867   */\n      0x40\n        /* \"#utility.yul\":16854:16863   */\n      dup4\n        /* \"#utility.yul\":16850:16868   */\n      add\n        /* \"#utility.yul\":16843:16891   */\n      mstore\n        /* \"#utility.yul\":16908:16986   */\n      tag_558\n        /* \"#utility.yul\":16981:16985   */\n      dup2\n        /* \"#utility.yul\":16972:16978   */\n      dup7\n        /* \"#utility.yul\":16908:16986   */\n      tag_329\n      jump\t// in\n    tag_558:\n        /* \"#utility.yul\":16900:16986   */\n      swap1\n      pop\n        /* \"#utility.yul\":16996:17068   */\n      tag_559\n        /* \"#utility.yul\":17064:17066   */\n      0x60\n        /* \"#utility.yul\":17053:17062   */\n      dup4\n        /* \"#utility.yul\":17049:17067   */\n      add\n        /* \"#utility.yul\":17040:17046   */\n      dup6\n        /* \"#utility.yul\":16996:17068   */\n      tag_321\n      jump\t// in\n    tag_559:\n        /* \"#utility.yul\":17078:17151   */\n      tag_560\n        /* \"#utility.yul\":17146:17149   */\n      0x80\n        /* \"#utility.yul\":17135:17144   */\n      dup4\n        /* \"#utility.yul\":17131:17150   */\n      add\n        /* \"#utility.yul\":17122:17128   */\n      dup5\n        /* \"#utility.yul\":17078:17151   */\n      tag_324\n      jump\t// in\n    tag_560:\n        /* \"#utility.yul\":16312:17158   */\n      swap7\n      swap6\n      pop\n      pop\n      pop\n      pop\n      pop\n      pop\n      jump\t// out\n        /* \"#utility.yul\":17164:17788   */\n    tag_90:\n        /* \"#utility.yul\":17353:17357   */\n      0x00\n        /* \"#utility.yul\":17391:17393   */\n      0x60\n        /* \"#utility.yul\":17380:17389   */\n      dup3\n        /* \"#utility.yul\":17376:17394   */\n      add\n        /* \"#utility.yul\":17368:17394   */\n      swap1\n      pop\n        /* \"#utility.yul\":17404:17475   */\n      tag_562\n        /* \"#utility.yul\":17472:17473   */\n      0x00\n        /* \"#utility.yul\":17461:17470   */\n      dup4\n        /* \"#utility.yul\":17457:17474   */\n      add\n        /* \"#utility.yul\":17448:17454   */\n      dup7\n        /* \"#utility.yul\":17404:17475   */\n      tag_324\n      jump\t// in\n    tag_562:\n        /* \"#utility.yul\":17522:17531   */\n      dup2\n        /* \"#utility.yul\":17516:17520   */\n      dup2\n        /* \"#utility.yul\":17512:17532   */\n      sub\n        /* \"#utility.yul\":17507:17509   */\n      0x20\n        /* \"#utility.yul\":17496:17505   */\n      dup4\n        /* \"#utility.yul\":17492:17510   */\n      add\n        /* \"#utility.yul\":17485:17533   */\n      mstore\n        /* \"#utility.yul\":17550:17628   */\n      tag_563\n        /* \"#utility.yul\":17623:17627   */\n      dup2\n        /* \"#utility.yul\":17614:17620   */\n      dup6\n        /* \"#utility.yul\":17550:17628   */\n      tag_329\n      jump\t// in\n    tag_563:\n        /* \"#utility.yul\":17542:17628   */\n      swap1\n      pop\n        /* \"#utility.yul\":17675:17684   */\n      dup2\n        /* \"#utility.yul\":17669:17673   */\n      dup2\n        /* \"#utility.yul\":17665:17685   */\n      sub\n        /* \"#utility.yul\":17660:17662   */\n      0x40\n        /* \"#utility.yul\":17649:17658   */\n      dup4\n        /* \"#utility.yul\":17645:17663   */\n      add\n        /* \"#utility.yul\":17638:17686   */\n      mstore\n        /* \"#utility.yul\":17703:17781   */\n      tag_564\n        /* \"#utility.yul\":17776:17780   */\n      dup2\n        /* \"#utility.yul\":17767:17773   */\n      dup5\n        /* \"#utility.yul\":17703:17781   */\n      tag_329\n      jump\t// in\n    tag_564:\n        /* \"#utility.yul\":17695:17781   */\n      swap1\n      pop\n        /* \"#utility.yul\":17164:17788   */\n      swap5\n      swap4\n      pop\n      pop\n      pop\n      pop\n      jump\t// out\n        /* \"#utility.yul\":17794:18549   */\n    tag_95:\n        /* \"#utility.yul\":18019:18023   */\n      0x00\n        /* \"#utility.yul\":18057:18060   */\n      0xa0\n        /* \"#utility.yul\":18046:18055   */\n      dup3\n        /* \"#utility.yul\":18042:18061   */\n      add\n        /* \"#utility.yul\":18034:18061   */\n      swap1\n      pop\n        /* \"#utility.yul\":18071:18142   */\n      tag_566\n        /* \"#utility.yul\":18139:18140   */\n      0x00\n        /* \"#utility.yul\":18128:18137   */\n      dup4\n        /* \"#utility.yul\":18124:18141   */\n      add\n        /* \"#utility.yul\":18115:18121   */\n      dup9\n        /* \"#utility.yul\":18071:18142   */\n      tag_324\n      jump\t// in\n    tag_566:\n        /* \"#utility.yul\":18189:18198   */\n      dup2\n        /* \"#utility.yul\":18183:18187   */\n      dup2\n        /* \"#utility.yul\":18179:18199   */\n      sub\n        /* \"#utility.yul\":18174:18176   */\n      0x20\n        /* \"#utility.yul\":18163:18172   */\n      dup4\n        /* \"#utility.yul\":18159:18177   */\n      add\n        /* \"#utility.yul\":18152:18200   */\n      mstore\n        /* \"#utility.yul\":18217:18295   */\n      tag_567\n        /* \"#utility.yul\":18290:18294   */\n      dup2\n        /* \"#utility.yul\":18281:18287   */\n      dup8\n        /* \"#utility.yul\":18217:18295   */\n      tag_329\n      jump\t// in\n    tag_567:\n        /* \"#utility.yul\":18209:18295   */\n      swap1\n      pop\n        /* \"#utility.yul\":18305:18377   */\n      tag_568\n        /* \"#utility.yul\":18373:18375   */\n      0x40\n        /* \"#utility.yul\":18362:18371   */\n      dup4\n        /* \"#utility.yul\":18358:18376   */\n      add\n        /* \"#utility.yul\":18349:18355   */\n      dup7\n        /* \"#utility.yul\":18305:18377   */\n      tag_324\n      jump\t// in\n    tag_568:\n        /* \"#utility.yul\":18387:18459   */\n      tag_569\n        /* \"#utility.yul\":18455:18457   */\n      0x60\n        /* \"#utility.yul\":18444:18453   */\n      dup4\n        /* \"#utility.yul\":18440:18458   */\n      add\n        /* \"#utility.yul\":18431:18437   */\n      dup6\n        /* \"#utility.yul\":18387:18459   */\n      tag_324\n      jump\t// in\n    tag_569:\n        /* \"#utility.yul\":18469:18542   */\n      tag_570\n        /* \"#utility.yul\":18537:18540   */\n      0x80\n        /* \"#utility.yul\":18526:18535   */\n      dup4\n        /* \"#utility.yul\":18522:18541   */\n      add\n        /* \"#utility.yul\":18513:18519   */\n      dup5\n        /* \"#utility.yul\":18469:18542   */\n      tag_324\n      jump\t// in\n    tag_570:\n        /* \"#utility.yul\":17794:18549   */\n      swap7\n      swap6\n      pop\n      pop\n      pop\n      pop\n      pop\n      pop\n      jump\t// out\n        /* \"#utility.yul\":18555:18694   */\n    tag_357:\n        /* \"#utility.yul\":18647:18653   */\n      0x00\n        /* \"#utility.yul\":18681:18686   */\n      dup2\n        /* \"#utility.yul\":18675:18687   */\n      mload\n        /* \"#utility.yul\":18665:18687   */\n      swap1\n      pop\n        /* \"#utility.yul\":18555:18694   */\n      swap2\n      swap1\n      pop\n      jump\t// out\n        /* \"#utility.yul\":18700:18909   */\n    tag_358:\n        /* \"#utility.yul\":18824:18835   */\n      0x00\n        /* \"#utility.yul\":18858:18864   */\n      dup3\n        /* \"#utility.yul\":18853:18856   */\n      dup3\n        /* \"#utility.yul\":18846:18865   */\n      mstore\n        /* \"#utility.yul\":18898:18902   */\n      0x20\n        /* \"#utility.yul\":18893:18896   */\n      dup3\n        /* \"#utility.yul\":18889:18903   */\n      add\n        /* \"#utility.yul\":18874:18903   */\n      swap1\n      pop\n        /* \"#utility.yul\":18700:18909   */\n      swap3\n      swap2\n      pop\n      pop\n      jump\t// out\n        /* \"#utility.yul\":18915:19072   */\n    tag_359:\n        /* \"#utility.yul\":19007:19011   */\n      0x00\n        /* \"#utility.yul\":19030:19033   */\n      dup2\n        /* \"#utility.yul\":19022:19033   */\n      swap1\n      pop\n        /* \"#utility.yul\":19060:19064   */\n      0x20\n        /* \"#utility.yul\":19055:19058   */\n      dup3\n        /* \"#utility.yul\":19051:19065   */\n      add\n        /* \"#utility.yul\":19043:19065   */\n      swap1\n      pop\n        /* \"#utility.yul\":18915:19072   */\n      swap2\n      swap1\n      pop\n      jump\t// out\n        /* \"#utility.yul\":19152:19998   */\n    tag_360:\n        /* \"#utility.yul\":19261:19264   */\n      0x00\n        /* \"#utility.yul\":19297:19301   */\n      0x60\n        /* \"#utility.yul\":19292:19295   */\n      dup4\n        /* \"#utility.yul\":19288:19302   */\n      add\n        /* \"#utility.yul\":19382:19386   */\n      0x00\n        /* \"#utility.yul\":19375:19380   */\n      dup4\n        /* \"#utility.yul\":19371:19387   */\n      add\n        /* \"#utility.yul\":19365:19388   */\n      mload\n        /* \"#utility.yul\":19401:19464   */\n      tag_575\n        /* \"#utility.yul\":19458:19462   */\n      0x00\n        /* \"#utility.yul\":19453:19456   */\n      dup7\n        /* \"#utility.yul\":19449:19463   */\n      add\n        /* \"#utility.yul\":19435:19447   */\n      dup3\n        /* \"#utility.yul\":19401:19464   */\n      tag_333\n      jump\t// in\n    tag_575:\n        /* \"#utility.yul\":19312:19474   */\n      pop\n        /* \"#utility.yul\":19556:19560   */\n      0x20\n        /* \"#utility.yul\":19549:19554   */\n      dup4\n        /* \"#utility.yul\":19545:19561   */\n      add\n        /* \"#utility.yul\":19539:19562   */\n      mload\n        /* \"#utility.yul\":19609:19612   */\n      dup5\n        /* \"#utility.yul\":19603:19607   */\n      dup3\n        /* \"#utility.yul\":19599:19613   */\n      sub\n        /* \"#utility.yul\":19592:19596   */\n      0x20\n        /* \"#utility.yul\":19587:19590   */\n      dup7\n        /* \"#utility.yul\":19583:19597   */\n      add\n        /* \"#utility.yul\":19576:19614   */\n      mstore\n        /* \"#utility.yul\":19635:19708   */\n      tag_576\n        /* \"#utility.yul\":19703:19707   */\n      dup3\n        /* \"#utility.yul\":19689:19701   */\n      dup3\n        /* \"#utility.yul\":19635:19708   */\n      tag_335\n      jump\t// in\n    tag_576:\n        /* \"#utility.yul\":19627:19708   */\n      swap2\n      pop\n        /* \"#utility.yul\":19484:19719   */\n      pop\n        /* \"#utility.yul\":19808:19812   */\n      0x40\n        /* \"#utility.yul\":19801:19806   */\n      dup4\n        /* \"#utility.yul\":19797:19813   */\n      add\n        /* \"#utility.yul\":19791:19814   */\n      mload\n        /* \"#utility.yul\":19861:19864   */\n      dup5\n        /* \"#utility.yul\":19855:19859   */\n      dup3\n        /* \"#utility.yul\":19851:19865   */\n      sub\n        /* \"#utility.yul\":19844:19848   */\n      0x40\n        /* \"#utility.yul\":19839:19842   */\n      dup7\n        /* \"#utility.yul\":19835:19849   */\n      add\n        /* \"#utility.yul\":19828:19866   */\n      mstore\n        /* \"#utility.yul\":19887:19960   */\n      tag_577\n        /* \"#utility.yul\":19955:19959   */\n      dup3\n        /* \"#utility.yul\":19941:19953   */\n      dup3\n        /* \"#utility.yul\":19887:19960   */\n      tag_335\n      jump\t// in\n    tag_577:\n        /* \"#utility.yul\":19879:19960   */\n      swap2\n      pop\n        /* \"#utility.yul\":19729:19971   */\n      pop\n        /* \"#utility.yul\":19988:19992   */\n      dup1\n        /* \"#utility.yul\":19981:19992   */\n      swap2\n      pop\n        /* \"#utility.yul\":19266:19998   */\n      pop\n        /* \"#utility.yul\":19152:19998   */\n      swap3\n      swap2\n      pop\n      pop\n      jump\t// out\n        /* \"#utility.yul\":20004:20260   */\n    tag_361:\n        /* \"#utility.yul\":20123:20133   */\n      0x00\n        /* \"#utility.yul\":20158:20254   */\n      tag_579\n        /* \"#utility.yul\":20250:20253   */\n      dup4\n        /* \"#utility.yul\":20242:20248   */\n      dup4\n        /* \"#utility.yul\":20158:20254   */\n      tag_360\n      jump\t// in\n    tag_579:\n        /* \"#utility.yul\":20144:20254   */\n      swap1\n      pop\n        /* \"#utility.yul\":20004:20260   */\n      swap3\n      swap2\n      pop\n      pop\n      jump\t// out\n        /* \"#utility.yul\":20266:20404   */\n    tag_362:\n        /* \"#utility.yul\":20361:20365   */\n      0x00\n        /* \"#utility.yul\":20393:20397   */\n      0x20\n        /* \"#utility.yul\":20388:20391   */\n      dup3\n        /* \"#utility.yul\":20384:20398   */\n      add\n        /* \"#utility.yul\":20376:20398   */\n      swap1\n      pop\n        /* \"#utility.yul\":20266:20404   */\n      swap2\n      swap1\n      pop\n      jump\t// out\n        /* \"#utility.yul\":20488:21599   */\n    tag_363:\n        /* \"#utility.yul\":20657:20660   */\n      0x00\n        /* \"#utility.yul\":20686:20765   */\n      tag_582\n        /* \"#utility.yul\":20759:20764   */\n      dup3\n        /* \"#utility.yul\":20686:20765   */\n      tag_357\n      jump\t// in\n    tag_582:\n        /* \"#utility.yul\":20781:20892   */\n      tag_583\n        /* \"#utility.yul\":20885:20891   */\n      dup2\n        /* \"#utility.yul\":20880:20883   */\n      dup6\n        /* \"#utility.yul\":20781:20892   */\n      tag_358\n      jump\t// in\n    tag_583:\n        /* \"#utility.yul\":20774:20892   */\n      swap4\n      pop\n        /* \"#utility.yul\":20918:20921   */\n      dup4\n        /* \"#utility.yul\":20963:20967   */\n      0x20\n        /* \"#utility.yul\":20955:20961   */\n      dup3\n        /* \"#utility.yul\":20951:20968   */\n      mul\n        /* \"#utility.yul\":20946:20949   */\n      dup6\n        /* \"#utility.yul\":20942:20969   */\n      add\n        /* \"#utility.yul\":20993:21074   */\n      tag_584\n        /* \"#utility.yul\":21068:21073   */\n      dup6\n        /* \"#utility.yul\":20993:21074   */\n      tag_359\n      jump\t// in\n    tag_584:\n        /* \"#utility.yul\":21097:21104   */\n      dup1\n        /* \"#utility.yul\":21128:21129   */\n      0x00\n        /* \"#utility.yul\":21113:21554   */\n    tag_585:\n        /* \"#utility.yul\":21138:21144   */\n      dup6\n        /* \"#utility.yul\":21135:21136   */\n      dup2\n        /* \"#utility.yul\":21132:21145   */\n      lt\n        /* \"#utility.yul\":21113:21554   */\n      iszero\n      tag_587\n      jumpi\n        /* \"#utility.yul\":21209:21218   */\n      dup5\n        /* \"#utility.yul\":21203:21207   */\n      dup5\n        /* \"#utility.yul\":21199:21219   */\n      sub\n        /* \"#utility.yul\":21194:21197   */\n      dup10\n        /* \"#utility.yul\":21187:21220   */\n      mstore\n        /* \"#utility.yul\":21260:21266   */\n      dup2\n        /* \"#utility.yul\":21254:21267   */\n      mload\n        /* \"#utility.yul\":21288:21402   */\n      tag_588\n        /* \"#utility.yul\":21397:21401   */\n      dup6\n        /* \"#utility.yul\":21382:21395   */\n      dup3\n        /* \"#utility.yul\":21288:21402   */\n      tag_361\n      jump\t// in\n    tag_588:\n        /* \"#utility.yul\":21280:21402   */\n      swap5\n      pop\n        /* \"#utility.yul\":21425:21510   */\n      tag_589\n        /* \"#utility.yul\":21503:21509   */\n      dup4\n        /* \"#utility.yul\":21425:21510   */\n      tag_362\n      jump\t// in\n    tag_589:\n        /* \"#utility.yul\":21415:21510   */\n      swap3\n      pop\n        /* \"#utility.yul\":21539:21543   */\n      0x20\n        /* \"#utility.yul\":21534:21537   */\n      dup11\n        /* \"#utility.yul\":21530:21544   */\n      add\n        /* \"#utility.yul\":21523:21544   */\n      swap10\n      pop\n        /* \"#utility.yul\":21173:21554   */\n      pop\n        /* \"#utility.yul\":21160:21161   */\n      0x01\n        /* \"#utility.yul\":21157:21158   */\n      dup2\n        /* \"#utility.yul\":21153:21162   */\n      add\n        /* \"#utility.yul\":21148:21162   */\n      swap1\n      pop\n        /* \"#utility.yul\":21113:21554   */\n      jump(tag_585)\n    tag_587:\n        /* \"#utility.yul\":21117:21131   */\n      pop\n        /* \"#utility.yul\":21570:21574   */\n      dup3\n        /* \"#utility.yul\":21563:21574   */\n      swap8\n      pop\n        /* \"#utility.yul\":21590:21593   */\n      dup8\n        /* \"#utility.yul\":21583:21593   */\n      swap6\n      pop\n        /* \"#utility.yul\":20662:21599   */\n      pop\n      pop\n      pop\n      pop\n      pop\n        /* \"#utility.yul\":20488:21599   */\n      swap3\n      swap2\n      pop\n      pop\n      jump\t// out\n        /* \"#utility.yul\":21605:22078   */\n    tag_99:\n        /* \"#utility.yul\":21798:21802   */\n      0x00\n        /* \"#utility.yul\":21836:21838   */\n      0x20\n        /* \"#utility.yul\":21825:21834   */\n      dup3\n        /* \"#utility.yul\":21821:21839   */\n      add\n        /* \"#utility.yul\":21813:21839   */\n      swap1\n      pop\n        /* \"#utility.yul\":21885:21894   */\n      dup2\n        /* \"#utility.yul\":21879:21883   */\n      dup2\n        /* \"#utility.yul\":21875:21895   */\n      sub\n        /* \"#utility.yul\":21871:21872   */\n      0x00\n        /* \"#utility.yul\":21860:21869   */\n      dup4\n        /* \"#utility.yul\":21856:21873   */\n      add\n        /* \"#utility.yul\":21849:21896   */\n      mstore\n        /* \"#utility.yul\":21913:22071   */\n      tag_591\n        /* \"#utility.yul\":22066:22070   */\n      dup2\n        /* \"#utility.yul\":22057:22063   */\n      dup5\n        /* \"#utility.yul\":21913:22071   */\n      tag_363\n      jump\t// in\n    tag_591:\n        /* \"#utility.yul\":21905:22071   */\n      swap1\n      pop\n        /* \"#utility.yul\":21605:22078   */\n      swap3\n      swap2\n      pop\n      pop\n      jump\t// out\n        /* \"#utility.yul\":22084:22220   */\n    tag_364:\n        /* \"#utility.yul\":22173:22179   */\n      0x00\n        /* \"#utility.yul\":22207:22212   */\n      dup2\n        /* \"#utility.yul\":22201:22213   */\n      mload\n        /* \"#utility.yul\":22191:22213   */\n      swap1\n      pop\n        /* \"#utility.yul\":22084:22220   */\n      swap2\n      swap1\n      pop\n      jump\t// out\n        /* \"#utility.yul\":22226:22432   */\n    tag_365:\n        /* \"#utility.yul\":22347:22358   */\n      0x00\n        /* \"#utility.yul\":22381:22387   */\n      dup3\n        /* \"#utility.yul\":22376:22379   */\n      dup3\n        /* \"#utility.yul\":22369:22388   */\n      mstore\n        /* \"#utility.yul\":22421:22425   */\n      0x20\n        /* \"#utility.yul\":22416:22419   */\n      dup3\n        /* \"#utility.yul\":22412:22426   */\n      add\n        /* \"#utility.yul\":22397:22426   */\n      swap1\n      pop\n        /* \"#utility.yul\":22226:22432   */\n      swap3\n      swap2\n      pop\n      pop\n      jump\t// out\n        /* \"#utility.yul\":22438:22592   */\n    tag_366:\n        /* \"#utility.yul\":22527:22531   */\n      0x00\n        /* \"#utility.yul\":22550:22553   */\n      dup2\n        /* \"#utility.yul\":22542:22553   */\n      swap1\n      pop\n        /* \"#utility.yul\":22580:22584   */\n      0x20\n        /* \"#utility.yul\":22575:22578   */\n      dup3\n        /* \"#utility.yul\":22571:22585   */\n      add\n        /* \"#utility.yul\":22563:22585   */\n      swap1\n      pop\n        /* \"#utility.yul\":22438:22592   */\n      swap2\n      swap1\n      pop\n      jump\t// out\n        /* \"#utility.yul\":22666:23863   */\n    tag_367:\n        /* \"#utility.yul\":22769:22772   */\n      0x00\n        /* \"#utility.yul\":22805:22809   */\n      0xa0\n        /* \"#utility.yul\":22800:22803   */\n      dup4\n        /* \"#utility.yul\":22796:22810   */\n      add\n        /* \"#utility.yul\":22890:22894   */\n      0x00\n        /* \"#utility.yul\":22883:22888   */\n      dup4\n        /* \"#utility.yul\":22879:22895   */\n      add\n        /* \"#utility.yul\":22873:22896   */\n      mload\n        /* \"#utility.yul\":22909:22972   */\n      tag_596\n        /* \"#utility.yul\":22966:22970   */\n      0x00\n        /* \"#utility.yul\":22961:22964   */\n      dup7\n        /* \"#utility.yul\":22957:22971   */\n      add\n        /* \"#utility.yul\":22943:22955   */\n      dup3\n        /* \"#utility.yul\":22909:22972   */\n      tag_333\n      jump\t// in\n    tag_596:\n        /* \"#utility.yul\":22820:22982   */\n      pop\n        /* \"#utility.yul\":23064:23068   */\n      0x20\n        /* \"#utility.yul\":23057:23062   */\n      dup4\n        /* \"#utility.yul\":23053:23069   */\n      add\n        /* \"#utility.yul\":23047:23070   */\n      mload\n        /* \"#utility.yul\":23117:23120   */\n      dup5\n        /* \"#utility.yul\":23111:23115   */\n      dup3\n        /* \"#utility.yul\":23107:23121   */\n      sub\n        /* \"#utility.yul\":23100:23104   */\n      0x20\n        /* \"#utility.yul\":23095:23098   */\n      dup7\n        /* \"#utility.yul\":23091:23105   */\n      add\n        /* \"#utility.yul\":23084:23122   */\n      mstore\n        /* \"#utility.yul\":23143:23216   */\n      tag_597\n        /* \"#utility.yul\":23211:23215   */\n      dup3\n        /* \"#utility.yul\":23197:23209   */\n      dup3\n        /* \"#utility.yul\":23143:23216   */\n      tag_335\n      jump\t// in\n    tag_597:\n        /* \"#utility.yul\":23135:23216   */\n      swap2\n      pop\n        /* \"#utility.yul\":22992:23227   */\n      pop\n        /* \"#utility.yul\":23318:23322   */\n      0x40\n        /* \"#utility.yul\":23311:23316   */\n      dup4\n        /* \"#utility.yul\":23307:23323   */\n      add\n        /* \"#utility.yul\":23301:23324   */\n      mload\n        /* \"#utility.yul\":23371:23374   */\n      dup5\n        /* \"#utility.yul\":23365:23369   */\n      dup3\n        /* \"#utility.yul\":23361:23375   */\n      sub\n        /* \"#utility.yul\":23354:23358   */\n      0x40\n        /* \"#utility.yul\":23349:23352   */\n      dup7\n        /* \"#utility.yul\":23345:23359   */\n      add\n        /* \"#utility.yul\":23338:23376   */\n      mstore\n        /* \"#utility.yul\":23397:23470   */\n      tag_598\n        /* \"#utility.yul\":23465:23469   */\n      dup3\n        /* \"#utility.yul\":23451:23463   */\n      dup3\n        /* \"#utility.yul\":23397:23470   */\n      tag_335\n      jump\t// in\n    tag_598:\n        /* \"#utility.yul\":23389:23470   */\n      swap2\n      pop\n        /* \"#utility.yul\":23237:23481   */\n      pop\n        /* \"#utility.yul\":23565:23569   */\n      0x60\n        /* \"#utility.yul\":23558:23563   */\n      dup4\n        /* \"#utility.yul\":23554:23570   */\n      add\n        /* \"#utility.yul\":23548:23571   */\n      mload\n        /* \"#utility.yul\":23584:23647   */\n      tag_599\n        /* \"#utility.yul\":23641:23645   */\n      0x60\n        /* \"#utility.yul\":23636:23639   */\n      dup7\n        /* \"#utility.yul\":23632:23646   */\n      add\n        /* \"#utility.yul\":23618:23630   */\n      dup3\n        /* \"#utility.yul\":23584:23647   */\n      tag_336\n      jump\t// in\n    tag_599:\n        /* \"#utility.yul\":23491:23657   */\n      pop\n        /* \"#utility.yul\":23744:23748   */\n      0x80\n        /* \"#utility.yul\":23737:23742   */\n      dup4\n        /* \"#utility.yul\":23733:23749   */\n      add\n        /* \"#utility.yul\":23727:23750   */\n      mload\n        /* \"#utility.yul\":23763:23826   */\n      tag_600\n        /* \"#utility.yul\":23820:23824   */\n      0x80\n        /* \"#utility.yul\":23815:23818   */\n      dup7\n        /* \"#utility.yul\":23811:23825   */\n      add\n        /* \"#utility.yul\":23797:23809   */\n      dup3\n        /* \"#utility.yul\":23763:23826   */\n      tag_333\n      jump\t// in\n    tag_600:\n        /* \"#utility.yul\":23667:23836   */\n      pop\n        /* \"#utility.yul\":23853:23857   */\n      dup1\n        /* \"#utility.yul\":23846:23857   */\n      swap2\n      pop\n        /* \"#utility.yul\":22774:23863   */\n      pop\n        /* \"#utility.yul\":22666:23863   */\n      swap3\n      swap2\n      pop\n      pop\n      jump\t// out\n        /* \"#utility.yul\":23869:24113   */\n    tag_368:\n        /* \"#utility.yul\":23982:23992   */\n      0x00\n        /* \"#utility.yul\":24017:24107   */\n      tag_602\n        /* \"#utility.yul\":24103:24106   */\n      dup4\n        /* \"#utility.yul\":24095:24101   */\n      dup4\n        /* \"#utility.yul\":24017:24107   */\n      tag_367\n      jump\t// in\n    tag_602:\n        /* \"#utility.yul\":24003:24107   */\n      swap1\n      pop\n        /* \"#utility.yul\":23869:24113   */\n      swap3\n      swap2\n      pop\n      pop\n      jump\t// out\n        /* \"#utility.yul\":24119:24254   */\n    tag_369:\n        /* \"#utility.yul\":24211:24215   */\n      0x00\n        /* \"#utility.yul\":24243:24247   */\n      0x20\n        /* \"#utility.yul\":24238:24241   */\n      dup3\n        /* \"#utility.yul\":24234:24248   */\n      add\n        /* \"#utility.yul\":24226:24248   */\n      swap1\n      pop\n        /* \"#utility.yul\":24119:24254   */\n      swap2\n      swap1\n      pop\n      jump\t// out\n        /* \"#utility.yul\":24332:25419   */\n    tag_370:\n        /* \"#utility.yul\":24495:24498   */\n      0x00\n        /* \"#utility.yul\":24524:24600   */\n      tag_605\n        /* \"#utility.yul\":24594:24599   */\n      dup3\n        /* \"#utility.yul\":24524:24600   */\n      tag_364\n      jump\t// in\n    tag_605:\n        /* \"#utility.yul\":24616:24724   */\n      tag_606\n        /* \"#utility.yul\":24717:24723   */\n      dup2\n        /* \"#utility.yul\":24712:24715   */\n      dup6\n        /* \"#utility.yul\":24616:24724   */\n      tag_365\n      jump\t// in\n    tag_606:\n        /* \"#utility.yul\":24609:24724   */\n      swap4\n      pop\n        /* \"#utility.yul\":24750:24753   */\n      dup4\n        /* \"#utility.yul\":24795:24799   */\n      0x20\n        /* \"#utility.yul\":24787:24793   */\n      dup3\n        /* \"#utility.yul\":24783:24800   */\n      mul\n        /* \"#utility.yul\":24778:24781   */\n      dup6\n        /* \"#utility.yul\":24774:24801   */\n      add\n        /* \"#utility.yul\":24825:24903   */\n      tag_607\n        /* \"#utility.yul\":24897:24902   */\n      dup6\n        /* \"#utility.yul\":24825:24903   */\n      tag_366\n      jump\t// in\n    tag_607:\n        /* \"#utility.yul\":24926:24933   */\n      dup1\n        /* \"#utility.yul\":24957:24958   */\n      0x00\n        /* \"#utility.yul\":24942:25374   */\n    tag_608:\n        /* \"#utility.yul\":24967:24973   */\n      dup6\n        /* \"#utility.yul\":24964:24965   */\n      dup2\n        /* \"#utility.yul\":24961:24974   */\n      lt\n        /* \"#utility.yul\":24942:25374   */\n      iszero\n      tag_610\n      jumpi\n        /* \"#utility.yul\":25038:25047   */\n      dup5\n        /* \"#utility.yul\":25032:25036   */\n      dup5\n        /* \"#utility.yul\":25028:25048   */\n      sub\n        /* \"#utility.yul\":25023:25026   */\n      dup10\n        /* \"#utility.yul\":25016:25049   */\n      mstore\n        /* \"#utility.yul\":25089:25095   */\n      dup2\n        /* \"#utility.yul\":25083:25096   */\n      mload\n        /* \"#utility.yul\":25117:25225   */\n      tag_611\n        /* \"#utility.yul\":25220:25224   */\n      dup6\n        /* \"#utility.yul\":25205:25218   */\n      dup3\n        /* \"#utility.yul\":25117:25225   */\n      tag_368\n      jump\t// in\n    tag_611:\n        /* \"#utility.yul\":25109:25225   */\n      swap5\n      pop\n        /* \"#utility.yul\":25248:25330   */\n      tag_612\n        /* \"#utility.yul\":25323:25329   */\n      dup4\n        /* \"#utility.yul\":25248:25330   */\n      tag_369\n      jump\t// in\n    tag_612:\n        /* \"#utility.yul\":25238:25330   */\n      swap3\n      pop\n        /* \"#utility.yul\":25359:25363   */\n      0x20\n        /* \"#utility.yul\":25354:25357   */\n      dup11\n        /* \"#utility.yul\":25350:25364   */\n      add\n        /* \"#utility.yul\":25343:25364   */\n      swap10\n      pop\n        /* \"#utility.yul\":25002:25374   */\n      pop\n        /* \"#utility.yul\":24989:24990   */\n      0x01\n        /* \"#utility.yul\":24986:24987   */\n      dup2\n        /* \"#utility.yul\":24982:24991   */\n      add\n        /* \"#utility.yul\":24977:24991   */\n      swap1\n      pop\n        /* \"#utility.yul\":24942:25374   */\n      jump(tag_608)\n    tag_610:\n        /* \"#utility.yul\":24946:24960   */\n      pop\n        /* \"#utility.yul\":25390:25394   */\n      dup3\n        /* \"#utility.yul\":25383:25394   */\n      swap8\n      pop\n        /* \"#utility.yul\":25410:25413   */\n      dup8\n        /* \"#utility.yul\":25403:25413   */\n      swap6\n      pop\n        /* \"#utility.yul\":24500:25419   */\n      pop\n      pop\n      pop\n      pop\n      pop\n        /* \"#utility.yul\":24332:25419   */\n      swap3\n      swap2\n      pop\n      pop\n      jump\t// out\n        /* \"#utility.yul\":25425:25886   */\n    tag_103:\n        /* \"#utility.yul\":25612:25616   */\n      0x00\n        /* \"#utility.yul\":25650:25652   */\n      0x20\n        /* \"#utility.yul\":25639:25648   */\n      dup3\n        /* \"#utility.yul\":25635:25653   */\n      add\n        /* \"#utility.yul\":25627:25653   */\n      swap1\n      pop\n        /* \"#utility.yul\":25699:25708   */\n      dup2\n        /* \"#utility.yul\":25693:25697   */\n      dup2\n        /* \"#utility.yul\":25689:25709   */\n      sub\n        /* \"#utility.yul\":25685:25686   */\n      0x00\n        /* \"#utility.yul\":25674:25683   */\n      dup4\n        /* \"#utility.yul\":25670:25687   */\n      add\n        /* \"#utility.yul\":25663:25710   */\n      mstore\n        /* \"#utility.yul\":25727:25879   */\n      tag_614\n        /* \"#utility.yul\":25874:25878   */\n      dup2\n        /* \"#utility.yul\":25865:25871   */\n      dup5\n        /* \"#utility.yul\":25727:25879   */\n      tag_370\n      jump\t// in\n    tag_614:\n        /* \"#utility.yul\":25719:25879   */\n      swap1\n      pop\n        /* \"#utility.yul\":25425:25886   */\n      swap3\n      swap2\n      pop\n      pop\n      jump\t// out\n        /* \"#utility.yul\":25892:26072   */\n    tag_371:\n        /* \"#utility.yul\":25940:26017   */\n      0x4e487b7100000000000000000000000000000000000000000000000000000000\n        /* \"#utility.yul\":25937:25938   */\n      0x00\n        /* \"#utility.yul\":25930:26018   */\n      mstore\n        /* \"#utility.yul\":26037:26041   */\n      0x22\n        /* \"#utility.yul\":26034:26035   */\n      0x04\n        /* \"#utility.yul\":26027:26042   */\n      mstore\n        /* \"#utility.yul\":26061:26065   */\n      0x24\n        /* \"#utility.yul\":26058:26059   */\n      0x00\n        /* \"#utility.yul\":26051:26066   */\n      revert\n        /* \"#utility.yul\":26078:26398   */\n    tag_107:\n        /* \"#utility.yul\":26122:26128   */\n      0x00\n        /* \"#utility.yul\":26159:26160   */\n      0x02\n        /* \"#utility.yul\":26153:26157   */\n      dup3\n        /* \"#utility.yul\":26149:26161   */\n      div\n        /* \"#utility.yul\":26139:26161   */\n      swap1\n      pop\n        /* \"#utility.yul\":26206:26207   */\n      0x01\n        /* \"#utility.yul\":26200:26204   */\n      dup3\n        /* \"#utility.yul\":26196:26208   */\n      and\n        /* \"#utility.yul\":26227:26245   */\n      dup1\n        /* \"#utility.yul\":26217:26298   */\n      tag_617\n      jumpi\n        /* \"#utility.yul\":26283:26287   */\n      0x7f\n        /* \"#utility.yul\":26275:26281   */\n      dup3\n        /* \"#utility.yul\":26271:26288   */\n      and\n        /* \"#utility.yul\":26261:26288   */\n      swap2\n      pop\n        /* \"#utility.yul\":26217:26298   */\n    tag_617:\n        /* \"#utility.yul\":26345:26347   */\n      0x20\n        /* \"#utility.yul\":26337:26343   */\n      dup3\n        /* \"#utility.yul\":26334:26348   */\n      lt\n        /* \"#utility.yul\":26314:26332   */\n      dup2\n        /* \"#utility.yul\":26311:26349   */\n      sub\n        /* \"#utility.yul\":26308:26392   */\n      tag_618\n      jumpi\n        /* \"#utility.yul\":26364:26382   */\n      tag_619\n      tag_371\n      jump\t// in\n    tag_619:\n        /* \"#utility.yul\":26308:26392   */\n    tag_618:\n        /* \"#utility.yul\":26129:26398   */\n      pop\n        /* \"#utility.yul\":26078:26398   */\n      swap2\n      swap1\n      pop\n      jump\t// out\n        /* \"#utility.yul\":26404:26584   */\n    tag_125:\n        /* \"#utility.yul\":26452:26529   */\n      0x4e487b7100000000000000000000000000000000000000000000000000000000\n        /* \"#utility.yul\":26449:26450   */\n      0x00\n        /* \"#utility.yul\":26442:26530   */\n      mstore\n        /* \"#utility.yul\":26549:26553   */\n      0x32\n        /* \"#utility.yul\":26546:26547   */\n      0x04\n        /* \"#utility.yul\":26539:26554   */\n      mstore\n        /* \"#utility.yul\":26573:26577   */\n      0x24\n        /* \"#utility.yul\":26570:26571   */\n      0x00\n        /* \"#utility.yul\":26563:26578   */\n      revert\n        /* \"#utility.yul\":26590:26770   */\n    tag_372:\n        /* \"#utility.yul\":26638:26715   */\n      0x4e487b7100000000000000000000000000000000000000000000000000000000\n        /* \"#utility.yul\":26635:26636   */\n      0x00\n        /* \"#utility.yul\":26628:26716   */\n      mstore\n        /* \"#utility.yul\":26735:26739   */\n      0x11\n        /* \"#utility.yul\":26732:26733   */\n      0x04\n        /* \"#utility.yul\":26725:26740   */\n      mstore\n        /* \"#utility.yul\":26759:26763   */\n      0x24\n        /* \"#utility.yul\":26756:26757   */\n      0x00\n        /* \"#utility.yul\":26749:26764   */\n      revert\n        /* \"#utility.yul\":26776:27009   */\n    tag_159:\n        /* \"#utility.yul\":26815:26818   */\n      0x00\n        /* \"#utility.yul\":26838:26862   */\n      tag_623\n        /* \"#utility.yul\":26856:26861   */\n      dup3\n        /* \"#utility.yul\":26838:26862   */\n      tag_316\n      jump\t// in\n    tag_623:\n        /* \"#utility.yul\":26829:26862   */\n      swap2\n      pop\n        /* \"#utility.yul\":26884:26950   */\n      0xffffffffffffffffffffffffffffffffffffffffffffffffffffffffffffffff\n        /* \"#utility.yul\":26877:26882   */\n      dup3\n        /* \"#utility.yul\":26874:26951   */\n      sub\n        /* \"#utility.yul\":26871:26974   */\n      tag_624\n      jumpi\n        /* \"#utility.yul\":26954:26972   */\n      tag_625\n      tag_372\n      jump\t// in\n    tag_625:\n        /* \"#utility.yul\":26871:26974   */\n    tag_624:\n        /* \"#utility.yul\":27001:27002   */\n      0x01\n        /* \"#utility.yul\":26994:26999   */\n      dup3\n        /* \"#utility.yul\":26990:27003   */\n      add\n        /* \"#utility.yul\":26983:27003   */\n      swap1\n      pop\n        /* \"#utility.yul\":26776:27009   */\n      swap2\n      swap1\n      pop\n      jump\t// out\n        /* \"#utility.yul\":27015:27187   */\n    tag_373:\n        /* \"#utility.yul\":27155:27179   */\n      0x50617469656e7420616c72656164792065786973747300000000000000000000\n        /* \"#utility.yul\":27151:27152   */\n      0x00\n        /* \"#utility.yul\":27143:27149   */\n      dup3\n        /* \"#utility.yul\":27139:27153   */\n      add\n        /* \"#utility.yul\":27132:27180   */\n      mstore\n        /* \"#utility.yul\":27015:27187   */\n      pop\n      jump\t// out\n        /* \"#utility.yul\":27193:27559   */\n    tag_374:\n        /* \"#utility.yul\":27335:27338   */\n      0x00\n        /* \"#utility.yul\":27356:27423   */\n      tag_628\n        /* \"#utility.yul\":27420:27422   */\n      0x16\n        /* \"#utility.yul\":27415:27418   */\n      dup4\n        /* \"#utility.yul\":27356:27423   */\n      tag_326\n      jump\t// in\n    tag_628:\n        /* \"#utility.yul\":27349:27423   */\n      swap2\n      pop\n        /* \"#utility.yul\":27432:27525   */\n      tag_629\n        /* \"#utility.yul\":27521:27524   */\n      dup3\n        /* \"#utility.yul\":27432:27525   */\n      tag_373\n      jump\t// in\n    tag_629:\n        /* \"#utility.yul\":27550:27552   */\n      0x20\n        /* \"#utility.yul\":27545:27548   */\n      dup3\n        /* \"#utility.yul\":27541:27553   */\n      add\n        /* \"#utility.yul\":27534:27553   */\n      swap1\n      pop\n        /* \"#utility.yul\":27193:27559   */\n      swap2\n      swap1\n      pop\n      jump\t// out\n        /* \"#utility.yul\":27565:27984   */\n    tag_164:\n        /* \"#utility.yul\":27731:27735   */\n      0x00\n        /* \"#utility.yul\":27769:27771   */\n      0x20\n        /* \"#utility.yul\":27758:27767   */\n      dup3\n        /* \"#utility.yul\":27754:27772   */\n      add\n        /* \"#utility.yul\":27746:27772   */\n      swap1\n      pop\n        /* \"#utility.yul\":27818:27827   */\n      dup2\n        /* \"#utility.yul\":27812:27816   */\n      dup2\n        /* \"#utility.yul\":27808:27828   */\n      sub\n        /* \"#utility.yul\":27804:27805   */\n      0x00\n        /* \"#utility.yul\":27793:27802   */\n      dup4\n        /* \"#utility.yul\":27789:27806   */\n      add\n        /* \"#utility.yul\":27782:27829   */\n      mstore\n        /* \"#utility.yul\":27846:27977   */\n      tag_631\n        /* \"#utility.yul\":27972:27976   */\n      dup2\n        /* \"#utility.yul\":27846:27977   */\n      tag_374\n      jump\t// in\n    tag_631:\n        /* \"#utility.yul\":27838:27977   */\n      swap1\n      pop\n        /* \"#utility.yul\":27565:27984   */\n      swap2\n      swap1\n      pop\n      jump\t// out\n        /* \"#utility.yul\":27990:28131   */\n    tag_375:\n        /* \"#utility.yul\":28039:28043   */\n      0x00\n        /* \"#utility.yul\":28062:28065   */\n      dup2\n        /* \"#utility.yul\":28054:28065   */\n      swap1\n      pop\n        /* \"#utility.yul\":28085:28088   */\n      dup2\n        /* \"#utility.yul\":28082:28083   */\n      0x00\n        /* \"#utility.yul\":28075:28089   */\n      mstore\n        /* \"#utility.yul\":28119:28123   */\n      0x20\n        /* \"#utility.yul\":28116:28117   */\n      0x00\n        /* \"#utility.yul\":28106:28124   */\n      keccak256\n        /* \"#utility.yul\":28098:28124   */\n      swap1\n      pop\n        /* \"#utility.yul\":27990:28131   */\n      swap2\n      swap1\n      pop\n      jump\t// out\n        /* \"#utility.yul\":28137:28230   */\n    tag_376:\n        /* \"#utility.yul\":28174:28180   */\n      0x00\n        /* \"#utility.yul\":28221:28223   */\n      0x20\n        /* \"#utility.yul\":28216:28218   */\n      0x1f\n        /* \"#utility.yul\":28209:28214   */\n      dup4\n        /* \"#utility.yul\":28205:28219   */\n      add\n        /* \"#utility.yul\":28201:28224   */\n      div\n        /* \"#utility.yul\":28191:28224   */\n      swap1\n      pop\n        /* \"#utility.yul\":28137:28230   */\n      swap2\n      swap1\n      pop\n      jump\t// out\n        /* \"#utility.yul\":28236:28343   */\n    tag_377:\n        /* \"#utility.yul\":28280:28288   */\n      0x00\n        /* \"#utility.yul\":28330:28335   */\n      dup3\n        /* \"#utility.yul\":28324:28328   */\n      dup3\n        /* \"#utility.yul\":28320:28336   */\n      shl\n        /* \"#utility.yul\":28299:28336   */\n      swap1\n      pop\n        /* \"#utility.yul\":28236:28343   */\n      swap3\n      swap2\n      pop\n      pop\n      jump\t// out\n        /* \"#utility.yul\":28349:28742   */\n    tag_378:\n        /* \"#utility.yul\":28418:28424   */\n      0x00\n        /* \"#utility.yul\":28468:28469   */\n      0x08\n        /* \"#utility.yul\":28456:28466   */\n      dup4\n        /* \"#utility.yul\":28452:28470   */\n      mul\n        /* \"#utility.yul\":28491:28588   */\n      tag_636\n        /* \"#utility.yul\":28521:28587   */\n      0xffffffffffffffffffffffffffffffffffffffffffffffffffffffffffffffff\n        /* \"#utility.yul\":28510:28519   */\n      dup3\n        /* \"#utility.yul\":28491:28588   */\n      tag_377\n      jump\t// in\n    tag_636:\n        /* \"#utility.yul\":28609:28648   */\n      tag_637\n        /* \"#utility.yul\":28639:28647   */\n      dup7\n        /* \"#utility.yul\":28628:28637   */\n      dup4\n        /* \"#utility.yul\":28609:28648   */\n      tag_377\n      jump\t// in\n    tag_637:\n        /* \"#utility.yul\":28597:28648   */\n      swap6\n      pop\n        /* \"#utility.yul\":28681:28685   */\n      dup1\n        /* \"#utility.yul\":28677:28686   */\n      not\n        /* \"#utility.yul\":28670:28675   */\n      dup5\n        /* \"#utility.yul\":28666:28687   */\n      and\n        /* \"#utility.yul\":28657:28687   */\n      swap4\n      pop\n        /* \"#utility.yul\":28730:28734   */\n      dup1\n        /* \"#utility.yul\":28720:28728   */\n      dup7\n        /* \"#utility.yul\":28716:28735   */\n      and\n        /* \"#utility.yul\":28709:28714   */\n      dup5\n        /* \"#utility.yul\":28706:28736   */\n      or\n        /* \"#utility.yul\":28696:28736   */\n      swap3\n      pop\n        /* \"#utility.yul\":28425:28742   */\n      pop\n      pop\n        /* \"#utility.yul\":28349:28742   */\n      swap4\n      swap3\n      pop\n      pop\n      pop\n      jump\t// out\n        /* \"#utility.yul\":28748:28808   */\n    tag_379:\n        /* \"#utility.yul\":28776:28779   */\n      0x00\n        /* \"#utility.yul\":28797:28802   */\n      dup2\n        /* \"#utility.yul\":28790:28802   */\n      swap1\n      pop\n        /* \"#utility.yul\":28748:28808   */\n      swap2\n      swap1\n      pop\n      jump\t// out\n        /* \"#utility.yul\":28814:28956   */\n    tag_380:\n        /* \"#utility.yul\":28864:28873   */\n      0x00\n        /* \"#utility.yul\":28897:28950   */\n      tag_640\n        /* \"#utility.yul\":28915:28949   */\n      tag_641\n        /* \"#utility.yul\":28924:28948   */\n      tag_642\n        /* \"#utility.yul\":28942:28947   */\n      dup5\n        /* \"#utility.yul\":28924:28948   */\n      tag_316\n      jump\t// in\n    tag_642:\n        /* \"#utility.yul\":28915:28949   */\n      tag_379\n      jump\t// in\n    tag_641:\n        /* \"#utility.yul\":28897:28950   */\n      tag_316\n      jump\t// in\n    tag_640:\n        /* \"#utility.yul\":28884:28950   */\n      swap1\n      pop\n        /* \"#utility.yul\":28814:28956   */\n      swap2\n      swap1\n      pop\n      jump\t// out\n        /* \"#utility.yul\":28962:29037   */\n    tag_381:\n        /* \"#utility.yul\":29005:29008   */\n      0x00\n        /* \"#utility.yul\":29026:29031   */\n      dup2\n        /* \"#utility.yul\":29019:29031   */\n      swap1\n      pop\n        /* \"#utility.yul\":28962:29037   */\n      swap2\n      swap1\n      pop\n      jump\t// out\n        /* \"#utility.yul\":29043:29312   */\n    tag_382:\n        /* \"#utility.yul\":29153:29192   */\n      tag_645\n        /* \"#utility.yul\":29184:29191   */\n      dup4\n        /* \"#utility.yul\":29153:29192   */\n      tag_380\n      jump\t// in\n    tag_645:\n        /* \"#utility.yul\":29214:29305   */\n      tag_646\n        /* \"#utility.yul\":29263:29304   */\n      tag_647\n        /* \"#utility.yul\":29287:29303   */\n      dup3\n        /* \"#utility.yul\":29263:29304   */\n      tag_381\n      jump\t// in\n    tag_647:\n        /* \"#utility.yul\":29255:29261   */\n      dup5\n        /* \"#utility.yul\":29248:29252   */\n      dup5\n        /* \"#utility.yul\":29242:29253   */\n      sload\n        /* \"#utility.yul\":29214:29305   */\n      tag_378\n      jump\t// in\n    tag_646:\n        /* \"#utility.yul\":29208:29212   */\n      dup3\n        /* \"#utility.yul\":29201:29306   */\n      sstore\n        /* \"#utility.yul\":29119:29312   */\n      pop\n        /* \"#utility.yul\":29043:29312   */\n      pop\n      pop\n      pop\n      jump\t// out\n        /* \"#utility.yul\":29318:29391   */\n    tag_383:\n        /* \"#utility.yul\":29363:29366   */\n      0x00\n        /* \"#utility.yul\":29318:29391   */\n      swap1\n      jump\t// out\n        /* \"#utility.yul\":29397:29586   */\n    tag_384:\n        /* \"#utility.yul\":29474:29506   */\n      tag_650\n      tag_383\n      jump\t// in\n    tag_650:\n        /* \"#utility.yul\":29515:29580   */\n      tag_651\n        /* \"#utility.yul\":29573:29579   */\n      dup2\n        /* \"#utility.yul\":29565:29571   */\n      dup5\n        /* \"#utility.yul\":29559:29563   */\n      dup5\n        /* \"#utility.yul\":29515:29580   */\n      tag_382\n      jump\t// in\n    tag_651:\n        /* \"#utility.yul\":29450:29586   */\n      pop\n        /* \"#utility.yul\":29397:29586   */\n      pop\n      pop\n      jump\t// out\n        /* \"#utility.yul\":29592:29778   */\n    tag_385:\n        /* \"#utility.yul\":29652:29772   */\n    tag_653:\n        /* \"#utility.yul\":29669:29672   */\n      dup2\n        /* \"#utility.yul\":29662:29667   */\n      dup2\n        /* \"#utility.yul\":29659:29673   */\n      lt\n        /* \"#utility.yul\":29652:29772   */\n      iszero\n      tag_655\n      jumpi\n        /* \"#utility.yul\":29723:29762   */\n      tag_656\n        /* \"#utility.yul\":29760:29761   */\n      0x00\n        /* \"#utility.yul\":29753:29758   */\n      dup3\n        /* \"#utility.yul\":29723:29762   */\n      tag_384\n      jump\t// in\n    tag_656:\n        /* \"#utility.yul\":29696:29697   */\n      0x01\n        /* \"#utility.yul\":29689:29694   */\n      dup2\n        /* \"#utility.yul\":29685:29698   */\n      add\n        /* \"#utility.yul\":29676:29698   */\n      swap1\n      pop\n        /* \"#utility.yul\":29652:29772   */\n      jump(tag_653)\n    tag_655:\n        /* \"#utility.yul\":29592:29778   */\n      pop\n      pop\n      jump\t// out\n        /* \"#utility.yul\":29784:30327   */\n    tag_386:\n        /* \"#utility.yul\":29885:29887   */\n      0x1f\n        /* \"#utility.yul\":29880:29883   */\n      dup3\n        /* \"#utility.yul\":29877:29888   */\n      gt\n        /* \"#utility.yul\":29874:30320   */\n      iszero\n      tag_658\n      jumpi\n        /* \"#utility.yul\":29919:29957   */\n      tag_659\n        /* \"#utility.yul\":29951:29956   */\n      dup2\n        /* \"#utility.yul\":29919:29957   */\n      tag_375\n      jump\t// in\n    tag_659:\n        /* \"#utility.yul\":30003:30032   */\n      tag_660\n        /* \"#utility.yul\":30021:30031   */\n      dup5\n        /* \"#utility.yul\":30003:30032   */\n      tag_376\n      jump\t// in\n    tag_660:\n        /* \"#utility.yul\":29993:30001   */\n      dup2\n        /* \"#utility.yul\":29989:30033   */\n      add\n        /* \"#utility.yul\":30186:30188   */\n      0x20\n        /* \"#utility.yul\":30174:30184   */\n      dup6\n        /* \"#utility.yul\":30171:30189   */\n      lt\n        /* \"#utility.yul\":30168:30217   */\n      iszero\n      tag_661\n      jumpi\n        /* \"#utility.yul\":30207:30215   */\n      dup2\n        /* \"#utility.yul\":30192:30215   */\n      swap1\n      pop\n        /* \"#utility.yul\":30168:30217   */\n    tag_661:\n        /* \"#utility.yul\":30230:30310   */\n      tag_662\n        /* \"#utility.yul\":30286:30308   */\n      tag_663\n        /* \"#utility.yul\":30304:30307   */\n      dup6\n        /* \"#utility.yul\":30286:30308   */\n      tag_376\n      jump\t// in\n    tag_663:\n        /* \"#utility.yul\":30276:30284   */\n      dup4\n        /* \"#utility.yul\":30272:30309   */\n      add\n        /* \"#utility.yul\":30259:30270   */\n      dup3\n        /* \"#utility.yul\":30230:30310   */\n      tag_385\n      jump\t// in\n    tag_662:\n        /* \"#utility.yul\":29889:30320   */\n      pop\n      pop\n        /* \"#utility.yul\":29874:30320   */\n    tag_658:\n        /* \"#utility.yul\":29784:30327   */\n      pop\n      pop\n      pop\n      jump\t// out\n        /* \"#utility.yul\":30333:30450   */\n    tag_387:\n        /* \"#utility.yul\":30387:30395   */\n      0x00\n        /* \"#utility.yul\":30437:30442   */\n      dup3\n        /* \"#utility.yul\":30431:30435   */\n      dup3\n        /* \"#utility.yul\":30427:30443   */\n      shr\n        /* \"#utility.yul\":30406:30443   */\n      swap1\n      pop\n        /* \"#utility.yul\":30333:30450   */\n      swap3\n      swap2\n      pop\n      pop\n      jump\t// out\n        /* \"#utility.yul\":30456:30625   */\n    tag_388:\n        /* \"#utility.yul\":30500:30506   */\n      0x00\n        /* \"#utility.yul\":30533:30584   */\n      tag_666\n        /* \"#utility.yul\":30581:30582   */\n      0x00\n        /* \"#utility.yul\":30577:30583   */\n      not\n        /* \"#utility.yul\":30569:30574   */\n      dup5\n        /* \"#utility.yul\":30566:30567   */\n      0x08\n        /* \"#utility.yul\":30562:30575   */\n      mul\n        /* \"#utility.yul\":30533:30584   */\n      tag_387\n      jump\t// in\n    tag_666:\n        /* \"#utility.yul\":30529:30585   */\n      not\n        /* \"#utility.yul\":30614:30618   */\n      dup1\n        /* \"#utility.yul\":30608:30612   */\n      dup4\n        /* \"#utility.yul\":30604:30619   */\n      and\n        /* \"#utility.yul\":30594:30619   */\n      swap2\n      pop\n        /* \"#utility.yul\":30507:30625   */\n      pop\n        /* \"#utility.yul\":30456:30625   */\n      swap3\n      swap2\n      pop\n      pop\n      jump\t// out\n        /* \"#utility.yul\":30630:30925   */\n    tag_389:\n        /* \"#utility.yul\":30706:30710   */\n      0x00\n        /* \"#utility.yul\":30852:30881   */\n      tag_668\n        /* \"#utility.yul\":30877:30880   */\n      dup4\n        /* \"#utility.yul\":30871:30875   */\n      dup4\n        /* \"#utility.yul\":30852:30881   */\n      tag_388\n      jump\t// in\n    tag_668:\n        /* \"#utility.yul\":30844:30881   */\n      swap2\n      pop\n        /* \"#utility.yul\":30914:30917   */\n      dup3\n        /* \"#utility.yul\":30911:30912   */\n      0x02\n        /* \"#utility.yul\":30907:30918   */\n      mul\n        /* \"#utility.yul\":30901:30905   */\n      dup3\n        /* \"#utility.yul\":30898:30919   */\n      or\n        /* \"#utility.yul\":30890:30919   */\n      swap1\n      pop\n        /* \"#utility.yul\":30630:30925   */\n      swap3\n      swap2\n      pop\n      pop\n      jump\t// out\n        /* \"#utility.yul\":30930:32325   */\n    tag_166:\n        /* \"#utility.yul\":31047:31084   */\n      tag_670\n        /* \"#utility.yul\":31080:31083   */\n      dup3\n        /* \"#utility.yul\":31047:31084   */\n      tag_325\n      jump\t// in\n    tag_670:\n        /* \"#utility.yul\":31149:31167   */\n      0xffffffffffffffff\n        /* \"#utility.yul\":31141:31147   */\n      dup2\n        /* \"#utility.yul\":31138:31168   */\n      gt\n        /* \"#utility.yul\":31135:31191   */\n      iszero\n      tag_671\n      jumpi\n        /* \"#utility.yul\":31171:31189   */\n      tag_672\n      tag_115\n      jump\t// in\n    tag_672:\n        /* \"#utility.yul\":31135:31191   */\n    tag_671:\n        /* \"#utility.yul\":31215:31253   */\n      tag_673\n        /* \"#utility.yul\":31247:31251   */\n      dup3\n        /* \"#utility.yul\":31241:31252   */\n      sload\n        /* \"#utility.yul\":31215:31253   */\n      tag_107\n      jump\t// in\n    tag_673:\n        /* \"#utility.yul\":31300:31367   */\n      tag_674\n        /* \"#utility.yul\":31360:31366   */\n      dup3\n        /* \"#utility.yul\":31352:31358   */\n      dup3\n        /* \"#utility.yul\":31346:31350   */\n      dup6\n        /* \"#utility.yul\":31300:31367   */\n      tag_386\n      jump\t// in\n    tag_674:\n        /* \"#utility.yul\":31394:31395   */\n      0x00\n        /* \"#utility.yul\":31418:31422   */\n      0x20\n        /* \"#utility.yul\":31405:31422   */\n      swap1\n      pop\n        /* \"#utility.yul\":31450:31452   */\n      0x1f\n        /* \"#utility.yul\":31442:31448   */\n      dup4\n        /* \"#utility.yul\":31439:31453   */\n      gt\n        /* \"#utility.yul\":31467:31468   */\n      0x01\n        /* \"#utility.yul\":31462:32080   */\n      dup2\n      eq\n      tag_676\n      jumpi\n        /* \"#utility.yul\":32124:32125   */\n      0x00\n        /* \"#utility.yul\":32141:32147   */\n      dup5\n        /* \"#utility.yul\":32138:32215   */\n      iszero\n      tag_677\n      jumpi\n        /* \"#utility.yul\":32190:32199   */\n      dup3\n        /* \"#utility.yul\":32185:32188   */\n      dup8\n        /* \"#utility.yul\":32181:32200   */\n      add\n        /* \"#utility.yul\":32175:32201   */\n      mload\n        /* \"#utility.yul\":32166:32201   */\n      swap1\n      pop\n        /* \"#utility.yul\":32138:32215   */\n    tag_677:\n        /* \"#utility.yul\":32241:32308   */\n      tag_678\n        /* \"#utility.yul\":32301:32307   */\n      dup6\n        /* \"#utility.yul\":32294:32299   */\n      dup3\n        /* \"#utility.yul\":32241:32308   */\n      tag_389\n      jump\t// in\n    tag_678:\n        /* \"#utility.yul\":32235:32239   */\n      dup7\n        /* \"#utility.yul\":32228:32309   */\n      sstore\n        /* \"#utility.yul\":32097:32319   */\n      pop\n        /* \"#utility.yul\":31432:32319   */\n      jump(tag_675)\n        /* \"#utility.yul\":31462:32080   */\n    tag_676:\n        /* \"#utility.yul\":31514:31518   */\n      0x1f\n        /* \"#utility.yul\":31510:31519   */\n      not\n        /* \"#utility.yul\":31502:31508   */\n      dup5\n        /* \"#utility.yul\":31498:31520   */\n      and\n        /* \"#utility.yul\":31548:31585   */\n      tag_679\n        /* \"#utility.yul\":31580:31584   */\n      dup7\n        /* \"#utility.yul\":31548:31585   */\n      tag_375\n      jump\t// in\n    tag_679:\n        /* \"#utility.yul\":31607:31608   */\n      0x00\n        /* \"#utility.yul\":31621:31829   */\n    tag_680:\n        /* \"#utility.yul\":31635:31642   */\n      dup3\n        /* \"#utility.yul\":31632:31633   */\n      dup2\n        /* \"#utility.yul\":31629:31643   */\n      lt\n        /* \"#utility.yul\":31621:31829   */\n      iszero\n      tag_682\n      jumpi\n        /* \"#utility.yul\":31714:31723   */\n      dup5\n        /* \"#utility.yul\":31709:31712   */\n      dup10\n        /* \"#utility.yul\":31705:31724   */\n      add\n        /* \"#utility.yul\":31699:31725   */\n      mload\n        /* \"#utility.yul\":31691:31697   */\n      dup3\n        /* \"#utility.yul\":31684:31726   */\n      sstore\n        /* \"#utility.yul\":31765:31766   */\n      0x01\n        /* \"#utility.yul\":31757:31763   */\n      dup3\n        /* \"#utility.yul\":31753:31767   */\n      add\n        /* \"#utility.yul\":31743:31767   */\n      swap2\n      pop\n        /* \"#utility.yul\":31812:31814   */\n      0x20\n        /* \"#utility.yul\":31801:31810   */\n      dup6\n        /* \"#utility.yul\":31797:31815   */\n      add\n        /* \"#utility.yul\":31784:31815   */\n      swap5\n      pop\n        /* \"#utility.yul\":31658:31662   */\n      0x20\n        /* \"#utility.yul\":31655:31656   */\n      dup2\n        /* \"#utility.yul\":31651:31663   */\n      add\n        /* \"#utility.yul\":31646:31663   */\n      swap1\n      pop\n        /* \"#utility.yul\":31621:31829   */\n      jump(tag_680)\n    tag_682:\n        /* \"#utility.yul\":31857:31863   */\n      dup7\n        /* \"#utility.yul\":31848:31855   */\n      dup4\n        /* \"#utility.yul\":31845:31864   */\n      lt\n        /* \"#utility.yul\":31842:32021   */\n      iszero\n      tag_683\n      jumpi\n        /* \"#utility.yul\":31915:31924   */\n      dup5\n        /* \"#utility.yul\":31910:31913   */\n      dup10\n        /* \"#utility.yul\":31906:31925   */\n      add\n        /* \"#utility.yul\":31900:31926   */\n      mload\n        /* \"#utility.yul\":31958:32006   */\n      tag_684\n        /* \"#utility.yul\":32000:32004   */\n      0x1f\n        /* \"#utility.yul\":31992:31998   */\n      dup10\n        /* \"#utility.yul\":31988:32005   */\n      and\n        /* \"#utility.yul\":31977:31986   */\n      dup3\n        /* \"#utility.yul\":31958:32006   */\n      tag_388\n      jump\t// in\n    tag_684:\n        /* \"#utility.yul\":31950:31956   */\n      dup4\n        /* \"#utility.yul\":31943:32007   */\n      sstore\n        /* \"#utility.yul\":31865:32021   */\n      pop\n        /* \"#utility.yul\":31842:32021   */\n    tag_683:\n        /* \"#utility.yul\":32067:32068   */\n      0x01\n        /* \"#utility.yul\":32063:32064   */\n      0x02\n        /* \"#utility.yul\":32055:32061   */\n      dup9\n        /* \"#utility.yul\":32051:32065   */\n      mul\n        /* \"#utility.yul\":32047:32069   */\n      add\n        /* \"#utility.yul\":32041:32045   */\n      dup9\n        /* \"#utility.yul\":32034:32070   */\n      sstore\n        /* \"#utility.yul\":31469:32080   */\n      pop\n      pop\n      pop\n        /* \"#utility.yul\":31432:32319   */\n    tag_675:\n      pop\n        /* \"#utility.yul\":31022:32325   */\n      pop\n      pop\n      pop\n        /* \"#utility.yul\":30930:32325   */\n      pop\n      pop\n      jump\t// out\n        /* \"#utility.yul\":32331:32566   */\n    tag_390:\n        /* \"#utility.yul\":32471:32505   */\n      0x4f6e6c792074686520636f6e7472616374206f776e65722063616e2070657266\n        /* \"#utility.yul\":32467:32468   */\n      0x00\n        /* \"#utility.yul\":32459:32465   */\n      dup3\n        /* \"#utility.yul\":32455:32469   */\n      add\n        /* \"#utility.yul\":32448:32506   */\n      mstore\n        /* \"#utility.yul\":32540:32558   */\n      0x6f726d207468697320616374696f6e2e00000000000000000000000000000000\n        /* \"#utility.yul\":32535:32537   */\n      0x20\n        /* \"#utility.yul\":32527:32533   */\n      dup3\n        /* \"#utility.yul\":32523:32538   */\n      add\n        /* \"#utility.yul\":32516:32559   */\n      mstore\n        /* \"#utility.yul\":32331:32566   */\n      pop\n      jump\t// out\n        /* \"#utility.yul\":32572:32938   */\n    tag_391:\n        /* \"#utility.yul\":32714:32717   */\n      0x00\n        /* \"#utility.yul\":32735:32802   */\n      tag_687\n        /* \"#utility.yul\":32799:32801   */\n      0x30\n        /* \"#utility.yul\":32794:32797   */\n      dup4\n        /* \"#utility.yul\":32735:32802   */\n      tag_326\n      jump\t// in\n    tag_687:\n        /* \"#utility.yul\":32728:32802   */\n      swap2\n      pop\n        /* \"#utility.yul\":32811:32904   */\n      tag_688\n        /* \"#utility.yul\":32900:32903   */\n      dup3\n        /* \"#utility.yul\":32811:32904   */\n      tag_390\n      jump\t// in\n    tag_688:\n        /* \"#utility.yul\":32929:32931   */\n      0x40\n        /* \"#utility.yul\":32924:32927   */\n      dup3\n        /* \"#utility.yul\":32920:32932   */\n      add\n        /* \"#utility.yul\":32913:32932   */\n      swap1\n      pop\n        /* \"#utility.yul\":32572:32938   */\n      swap2\n      swap1\n      pop\n      jump\t// out\n        /* \"#utility.yul\":32944:33363   */\n    tag_187:\n        /* \"#utility.yul\":33110:33114   */\n      0x00\n        /* \"#utility.yul\":33148:33150   */\n      0x20\n        /* \"#utility.yul\":33137:33146   */\n      dup3\n        /* \"#utility.yul\":33133:33151   */\n      add\n        /* \"#utility.yul\":33125:33151   */\n      swap1\n      pop\n        /* \"#utility.yul\":33197:33206   */\n      dup2\n        /* \"#utility.yul\":33191:33195   */\n      dup2\n        /* \"#utility.yul\":33187:33207   */\n      sub\n        /* \"#utility.yul\":33183:33184   */\n      0x00\n        /* \"#utility.yul\":33172:33181   */\n      dup4\n        /* \"#utility.yul\":33168:33185   */\n      add\n        /* \"#utility.yul\":33161:33208   */\n      mstore\n        /* \"#utility.yul\":33225:33356   */\n      tag_690\n        /* \"#utility.yul\":33351:33355   */\n      dup2\n        /* \"#utility.yul\":33225:33356   */\n      tag_391\n      jump\t// in\n    tag_690:\n        /* \"#utility.yul\":33217:33356   */\n      swap1\n      pop\n        /* \"#utility.yul\":32944:33363   */\n      swap2\n      swap1\n      pop\n      jump\t// out\n        /* \"#utility.yul\":33369:33550   */\n    tag_392:\n        /* \"#utility.yul\":33509:33542   */\n      0x576f726b706c616365206e616d652063616e6e6f7420626520656d7074792e00\n        /* \"#utility.yul\":33505:33506   */\n      0x00\n        /* \"#utility.yul\":33497:33503   */\n      dup3\n        /* \"#utility.yul\":33493:33507   */\n      add\n        /* \"#utility.yul\":33486:33543   */\n      mstore\n        /* \"#utility.yul\":33369:33550   */\n      pop\n      jump\t// out\n        /* \"#utility.yul\":33556:33922   */\n    tag_393:\n        /* \"#utility.yul\":33698:33701   */\n      0x00\n        /* \"#utility.yul\":33719:33786   */\n      tag_693\n        /* \"#utility.yul\":33783:33785   */\n      0x1f\n        /* \"#utility.yul\":33778:33781   */\n      dup4\n        /* \"#utility.yul\":33719:33786   */\n      tag_326\n      jump\t// in\n    tag_693:\n        /* \"#utility.yul\":33712:33786   */\n      swap2\n      pop\n        /* \"#utility.yul\":33795:33888   */\n      tag_694\n        /* \"#utility.yul\":33884:33887   */\n      dup3\n        /* \"#utility.yul\":33795:33888   */\n      tag_392\n      jump\t// in\n    tag_694:\n        /* \"#utility.yul\":33913:33915   */\n      0x20\n        /* \"#utility.yul\":33908:33911   */\n      dup3\n        /* \"#utility.yul\":33904:33916   */\n      add\n        /* \"#utility.yul\":33897:33916   */\n      swap1\n      pop\n        /* \"#utility.yul\":33556:33922   */\n      swap2\n      swap1\n      pop\n      jump\t// out\n        /* \"#utility.yul\":33928:34347   */\n    tag_191:\n        /* \"#utility.yul\":34094:34098   */\n      0x00\n        /* \"#utility.yul\":34132:34134   */\n      0x20\n        /* \"#utility.yul\":34121:34130   */\n      dup3\n        /* \"#utility.yul\":34117:34135   */\n      add\n        /* \"#utility.yul\":34109:34135   */\n      swap1\n      pop\n        /* \"#utility.yul\":34181:34190   */\n      dup2\n        /* \"#utility.yul\":34175:34179   */\n      dup2\n        /* \"#utility.yul\":34171:34191   */\n      sub\n        /* \"#utility.yul\":34167:34168   */\n      0x00\n        /* \"#utility.yul\":34156:34165   */\n      dup4\n        /* \"#utility.yul\":34152:34169   */\n      add\n        /* \"#utility.yul\":34145:34192   */\n      mstore\n        /* \"#utility.yul\":34209:34340   */\n      tag_696\n        /* \"#utility.yul\":34335:34339   */\n      dup2\n        /* \"#utility.yul\":34209:34340   */\n      tag_393\n      jump\t// in\n    tag_696:\n        /* \"#utility.yul\":34201:34340   */\n      swap1\n      pop\n        /* \"#utility.yul\":33928:34347   */\n      swap2\n      swap1\n      pop\n      jump\t// out\n        /* \"#utility.yul\":34353:34528   */\n    tag_394:\n        /* \"#utility.yul\":34493:34520   */\n      0x576f726b706c61636520646f6573206e6f742065786973742e00000000000000\n        /* \"#utility.yul\":34489:34490   */\n      0x00\n        /* \"#utility.yul\":34481:34487   */\n      dup3\n        /* \"#utility.yul\":34477:34491   */\n      add\n        /* \"#utility.yul\":34470:34521   */\n      mstore\n        /* \"#utility.yul\":34353:34528   */\n      pop\n      jump\t// out\n        /* \"#utility.yul\":34534:34900   */\n    tag_395:\n        /* \"#utility.yul\":34676:34679   */\n      0x00\n        /* \"#utility.yul\":34697:34764   */\n      tag_699\n        /* \"#utility.yul\":34761:34763   */\n      0x19\n        /* \"#utility.yul\":34756:34759   */\n      dup4\n        /* \"#utility.yul\":34697:34764   */\n      tag_326\n      jump\t// in\n    tag_699:\n        /* \"#utility.yul\":34690:34764   */\n      swap2\n      pop\n        /* \"#utility.yul\":34773:34866   */\n      tag_700\n        /* \"#utility.yul\":34862:34865   */\n      dup3\n        /* \"#utility.yul\":34773:34866   */\n      tag_394\n      jump\t// in\n    tag_700:\n        /* \"#utility.yul\":34891:34893   */\n      0x20\n        /* \"#utility.yul\":34886:34889   */\n      dup3\n        /* \"#utility.yul\":34882:34894   */\n      add\n        /* \"#utility.yul\":34875:34894   */\n      swap1\n      pop\n        /* \"#utility.yul\":34534:34900   */\n      swap2\n      swap1\n      pop\n      jump\t// out\n        /* \"#utility.yul\":34906:35325   */\n    tag_199:\n        /* \"#utility.yul\":35072:35076   */\n      0x00\n        /* \"#utility.yul\":35110:35112   */\n      0x20\n        /* \"#utility.yul\":35099:35108   */\n      dup3\n        /* \"#utility.yul\":35095:35113   */\n      add\n        /* \"#utility.yul\":35087:35113   */\n      swap1\n      pop\n        /* \"#utility.yul\":35159:35168   */\n      dup2\n        /* \"#utility.yul\":35153:35157   */\n      dup2\n        /* \"#utility.yul\":35149:35169   */\n      sub\n        /* \"#utility.yul\":35145:35146   */\n      0x00\n        /* \"#utility.yul\":35134:35143   */\n      dup4\n        /* \"#utility.yul\":35130:35147   */\n      add\n        /* \"#utility.yul\":35123:35170   */\n      mstore\n        /* \"#utility.yul\":35187:35318   */\n      tag_702\n        /* \"#utility.yul\":35313:35317   */\n      dup2\n        /* \"#utility.yul\":35187:35318   */\n      tag_395\n      jump\t// in\n    tag_702:\n        /* \"#utility.yul\":35179:35318   */\n      swap1\n      pop\n        /* \"#utility.yul\":34906:35325   */\n      swap2\n      swap1\n      pop\n      jump\t// out\n        /* \"#utility.yul\":35331:35506   */\n    tag_396:\n        /* \"#utility.yul\":35471:35498   */\n      0x446f63746f7220616c7265616479207265676973746572656400000000000000\n        /* \"#utility.yul\":35467:35468   */\n      0x00\n        /* \"#utility.yul\":35459:35465   */\n      dup3\n        /* \"#utility.yul\":35455:35469   */\n      add\n        /* \"#utility.yul\":35448:35499   */\n      mstore\n        /* \"#utility.yul\":35331:35506   */\n      pop\n      jump\t// out\n        /* \"#utility.yul\":35512:35878   */\n    tag_397:\n        /* \"#utility.yul\":35654:35657   */\n      0x00\n        /* \"#utility.yul\":35675:35742   */\n      tag_705\n        /* \"#utility.yul\":35739:35741   */\n      0x19\n        /* \"#utility.yul\":35734:35737   */\n      dup4\n        /* \"#utility.yul\":35675:35742   */\n      tag_326\n      jump\t// in\n    tag_705:\n        /* \"#utility.yul\":35668:35742   */\n      swap2\n      pop\n        /* \"#utility.yul\":35751:35844   */\n      tag_706\n        /* \"#utility.yul\":35840:35843   */\n      dup3\n        /* \"#utility.yul\":35751:35844   */\n      tag_396\n      jump\t// in\n    tag_706:\n        /* \"#utility.yul\":35869:35871   */\n      0x20\n        /* \"#utility.yul\":35864:35867   */\n      dup3\n        /* \"#utility.yul\":35860:35872   */\n      add\n        /* \"#utility.yul\":35853:35872   */\n      swap1\n      pop\n        /* \"#utility.yul\":35512:35878   */\n      swap2\n      swap1\n      pop\n      jump\t// out\n        /* \"#utility.yul\":35884:36303   */\n    tag_203:\n        /* \"#utility.yul\":36050:36054   */\n      0x00\n        /* \"#utility.yul\":36088:36090   */\n      0x20\n        /* \"#utility.yul\":36077:36086   */\n      dup3\n        /* \"#utility.yul\":36073:36091   */\n      add\n        /* \"#utility.yul\":36065:36091   */\n      swap1\n      pop\n        /* \"#utility.yul\":36137:36146   */\n      dup2\n        /* \"#utility.yul\":36131:36135   */\n      dup2\n        /* \"#utility.yul\":36127:36147   */\n      sub\n        /* \"#utility.yul\":36123:36124   */\n      0x00\n        /* \"#utility.yul\":36112:36121   */\n      dup4\n        /* \"#utility.yul\":36108:36125   */\n      add\n        /* \"#utility.yul\":36101:36148   */\n      mstore\n        /* \"#utility.yul\":36165:36296   */\n      tag_708\n        /* \"#utility.yul\":36291:36295   */\n      dup2\n        /* \"#utility.yul\":36165:36296   */\n      tag_397\n      jump\t// in\n    tag_708:\n        /* \"#utility.yul\":36157:36296   */\n      swap1\n      pop\n        /* \"#utility.yul\":35884:36303   */\n      swap2\n      swap1\n      pop\n      jump\t// out\n        /* \"#utility.yul\":36309:36503   */\n    tag_266:\n        /* \"#utility.yul\":36349:36353   */\n      0x00\n        /* \"#utility.yul\":36369:36389   */\n      tag_710\n        /* \"#utility.yul\":36387:36388   */\n      dup3\n        /* \"#utility.yul\":36369:36389   */\n      tag_316\n      jump\t// in\n    tag_710:\n        /* \"#utility.yul\":36364:36389   */\n      swap2\n      pop\n        /* \"#utility.yul\":36403:36423   */\n      tag_711\n        /* \"#utility.yul\":36421:36422   */\n      dup4\n        /* \"#utility.yul\":36403:36423   */\n      tag_316\n      jump\t// in\n    tag_711:\n        /* \"#utility.yul\":36398:36423   */\n      swap3\n      pop\n        /* \"#utility.yul\":36447:36448   */\n      dup3\n        /* \"#utility.yul\":36444:36445   */\n      dup3\n        /* \"#utility.yul\":36440:36449   */\n      sub\n        /* \"#utility.yul\":36432:36449   */\n      swap1\n      pop\n        /* \"#utility.yul\":36471:36472   */\n      dup2\n        /* \"#utility.yul\":36465:36469   */\n      dup2\n        /* \"#utility.yul\":36462:36473   */\n      gt\n        /* \"#utility.yul\":36459:36496   */\n      iszero\n      tag_712\n      jumpi\n        /* \"#utility.yul\":36476:36494   */\n      tag_713\n      tag_372\n      jump\t// in\n    tag_713:\n        /* \"#utility.yul\":36459:36496   */\n    tag_712:\n        /* \"#utility.yul\":36309:36503   */\n      swap3\n      swap2\n      pop\n      pop\n      jump\t// out\n\n    auxdata: 0xa26469706673582212200079cd5483c69278ad0992839ee257c6dcb6c9e690c0c59a79085022d1cdda4d64736f6c63430008120033\n}\n",
				"bytecode": {
					"linkReferences": {},
					"object": "608060405234801561001057600080fd5b50336000806101000a81548173ffffffffffffffffffffffffffffffffffffffff021916908373ffffffffffffffffffffffffffffffffffffffff160217905550612c72806100606000396000f3fe608060405234801561001057600080fd5b50600436106101215760003560e01c806378522bc4116100ad578063bae1eee811610071578063bae1eee814610325578063c38831ae14610343578063c85e766d14610375578063d92631db146103a9578063f0d95090146103c757610121565b806378522bc41461026957806387446b6e14610287578063a0303c41146102a3578063a9583c22146102c1578063bac33aa2146102f557610121565b806333c5d641116100f457806333c5d641146101c35780634dafd490146101e157806359bf95f7146101ff5780635ab2ce221461022f57806377518ce61461024b57610121565b806305aeeea7146101265780630869cfbc1461015657806318a231a9146101895780632de304ed146101a7575b600080fd5b610140600480360381019061013b9190611b35565b6103e5565b60405161014d9190611ba3565b60405180910390f35b610170600480360381019061016b9190611bea565b610424565b6040516101809493929190611cb6565b60405180910390f35b6101916104fc565b60405161019e9190611f9f565b60405180910390f35b6101c160048036038101906101bc91906120f6565b6109ad565b005b6101cb610bd0565b6040516101d8919061216d565b60405180910390f35b6101e9610c79565b6040516101f69190612188565b60405180910390f35b61021960048036038101906102149190611b35565b610c7f565b6040516102269190611ba3565b60405180910390f35b610249600480360381019061024491906121a3565b610cbe565b005b610253610e17565b6040516102609190612188565b60405180910390f35b610271610e1d565b60405161027e9190612188565b60405180910390f35b6102a1600480360381019061029c919061221b565b610e23565b005b6102ab61107b565b6040516102b89190612188565b60405180910390f35b6102db60048036038101906102d69190611bea565b611081565b6040516102ec9594939291906122a6565b60405180910390f35b61030f600480360381019061030a9190611b35565b6111e7565b60405161031c919061216d565b60405180910390f35b61032d611202565b60405161033a919061216d565b60405180910390f35b61035d60048036038101906103589190611b35565b6112ab565b60405161036c93929190612307565b60405180910390f35b61038f600480360381019061038a9190611b35565b6113e5565b6040516103a095949392919061234c565b60405180910390f35b6103b16114a3565b6040516103be91906124bf565b60405180910390f35b6103cf6116a0565b6040516103dc9190612620565b60405180910390f35b600a81815481106103f557600080fd5b906000526020600020016000915054906101000a900473ffffffffffffffffffffffffffffffffffffffff1681565b600260205280600052604060002060009150905080600001549080600101805461044d90612671565b80601f016020809104026020016040519081016040528092919081815260200182805461047990612671565b80156104c65780601f1061049b576101008083540402835291602001916104c6565b820191906000526020600020905b8154815290600101906020018083116104a957829003601f168201915b5050505050908060020154908060030160009054906101000a900473ffffffffffffffffffffffffffffffffffffffff16905084565b6060600060065467ffffffffffffffff81111561051c5761051b611fcb565b5b60405190808252806020026020018201604052801561055557816020015b610542611958565b81526020019060019003908161053a5790505b50905060005b6006548110156109a55760026000600a838154811061057d5761057c6126a2565b5b9060005260206000200160009054906101000a900473ffffffffffffffffffffffffffffffffffffffff1673ffffffffffffffffffffffffffffffffffffffff1673ffffffffffffffffffffffffffffffffffffffff1681526020019081526020016000206040518060e00160405290816000820154815260200160018201805461060790612671565b80601f016020809104026020016040519081016040528092919081815260200182805461063390612671565b80156106805780601f1061065557610100808354040283529160200191610680565b820191906000526020600020905b81548152906001019060200180831161066357829003601f168201915b50505050508152602001600282015481526020016003820160009054906101000a900473ffffffffffffffffffffffffffffffffffffffff1673ffffffffffffffffffffffffffffffffffffffff1673ffffffffffffffffffffffffffffffffffffffff16815260200160048201805480602002602001604051908101604052809291908181526020016000905b828210156107ba57838290600052602060002001805461072d90612671565b80601f016020809104026020016040519081016040528092919081815260200182805461075990612671565b80156107a65780601f1061077b576101008083540402835291602001916107a6565b820191906000526020600020905b81548152906001019060200180831161078957829003601f168201915b50505050508152602001906001019061070e565b50505050815260200160058201805480602002602001604051908101604052809291908181526020016000905b8282101561089357838290600052602060002001805461080690612671565b80601f016020809104026020016040519081016040528092919081815260200182805461083290612671565b801561087f5780601f106108545761010080835404028352916020019161087f565b820191906000526020600020905b81548152906001019060200180831161086257829003601f168201915b5050505050815260200190600101906107e7565b50505050815260200160068201805480602002602001604051908101604052809291908181526020016000905b8282101561096c5783829060005260206000200180546108df90612671565b80601f016020809104026020016040519081016040528092919081815260200182805461090b90612671565b80156109585780601f1061092d57610100808354040283529160200191610958565b820191906000526020600020905b81548152906001019060200180831161093b57829003601f168201915b5050505050815260200190600101906108c0565b5050505081525050828281518110610987576109866126a2565b5b6020026020010181905250808061099d90612700565b91505061055b565b508091505090565b6109b5610bd0565b6109f4576040517f08c379a00000000000000000000000000000000000000000000000000000000081526004016109eb90612794565b60405180910390fd5b60608060606040518060e0016040528060065481526020018681526020018581526020013373ffffffffffffffffffffffffffffffffffffffff16815260200184815260200183815260200182815250600260003373ffffffffffffffffffffffffffffffffffffffff1673ffffffffffffffffffffffffffffffffffffffff168152602001908152602001600020600082015181600001556020820151816001019081610aa29190612960565b506040820151816002015560608201518160030160006101000a81548173ffffffffffffffffffffffffffffffffffffffff021916908373ffffffffffffffffffffffffffffffffffffffff1602179055506080820151816004019080519060200190610b109291906119ab565b5060a0820151816005019080519060200190610b2d9291906119ab565b5060c0820151816006019080519060200190610b4a9291906119ab565b50905050600a339080600181540180825580915050600190039060005260206000200160009091909190916101000a81548173ffffffffffffffffffffffffffffffffffffffff021916908373ffffffffffffffffffffffffffffffffffffffff16021790555060066000815480929190610bc490612700565b91905055505050505050565b600080600090505b600654811015610c70573373ffffffffffffffffffffffffffffffffffffffff16600a8281548110610c0d57610c0c6126a2565b5b9060005260206000200160009054906101000a900473ffffffffffffffffffffffffffffffffffffffff1673ffffffffffffffffffffffffffffffffffffffff1603610c5d576000915050610c76565b8080610c6890612700565b915050610bd8565b50600190505b90565b60075481565b60098181548110610c8f57600080fd5b906000526020600020016000915054906101000a900473ffffffffffffffffffffffffffffffffffffffff1681565b60008054906101000a900473ffffffffffffffffffffffffffffffffffffffff1673ffffffffffffffffffffffffffffffffffffffff163373ffffffffffffffffffffffffffffffffffffffff1614610d4c576040517f08c379a0000000000000000000000000000000000000000000000000000000008152600401610d4390612aa4565b60405180910390fd5b6000825111610d90576040517f08c379a0000000000000000000000000000000000000000000000000000000008152600401610d8790612b10565b60405180910390fd5b60086000815480929190610da390612700565b91905055506040518060600160405280600854815260200183815260200182815250600460006008548152602001908152602001600020600082015181600001556020820151816001019081610df99190612960565b506040820151816002019081610e0f9190612960565b509050505050565b60085481565b60055481565b610e2c816111e7565b610e6b576040517f08c379a0000000000000000000000000000000000000000000000000000000008152600401610e6290612b7c565b60405180910390fd5b610e73611202565b610eb2576040517f08c379a0000000000000000000000000000000000000000000000000000000008152600401610ea990612be8565b60405180910390fd5b6040518060a0016040528060055481526020018481526020018381526020013373ffffffffffffffffffffffffffffffffffffffff16815260200182815250600160003373ffffffffffffffffffffffffffffffffffffffff1673ffffffffffffffffffffffffffffffffffffffff168152602001908152602001600020600082015181600001556020820151816001019081610f4f9190612960565b506040820151816002019081610f659190612960565b5060608201518160030160006101000a81548173ffffffffffffffffffffffffffffffffffffffff021916908373ffffffffffffffffffffffffffffffffffffffff160217905550608082015181600401559050506009339080600181540180825580915050600190039060005260206000200160009091909190916101000a81548173ffffffffffffffffffffffffffffffffffffffff021916908373ffffffffffffffffffffffffffffffffffffffff1602179055506005600081548092919061103090612700565b91905055507fa45d1ae6be42a8b22c1641c21768b3bc0c668438ec620628d71ae5c171fc5d5f6005548484338560405161106e9594939291906122a6565b60405180910390a1505050565b60065481565b60016020528060005260406000206000915090508060000154908060010180546110aa90612671565b80601f01602080910402602001604051908101604052809291908181526020018280546110d690612671565b80156111235780601f106110f857610100808354040283529160200191611123565b820191906000526020600020905b81548152906001019060200180831161110657829003601f168201915b50505050509080600201805461113890612671565b80601f016020809104026020016040519081016040528092919081815260200182805461116490612671565b80156111b15780601f10611186576101008083540402835291602001916111b1565b820191906000526020600020905b81548152906001019060200180831161119457829003601f168201915b5050505050908060030160009054906101000a900473ffffffffffffffffffffffffffffffffffffffff16908060040154905085565b60008082101580156111fb57506008548211155b9050919050565b600080600090505b6005548110156112a2573373ffffffffffffffffffffffffffffffffffffffff166009828154811061123f5761123e6126a2565b5b9060005260206000200160009054906101000a900473ffffffffffffffffffffffffffffffffffffffff1673ffffffffffffffffffffffffffffffffffffffff160361128f5760009150506112a8565b808061129a90612700565b91505061120a565b50600190505b90565b60046020528060005260406000206000915090508060000154908060010180546112d490612671565b80601f016020809104026020016040519081016040528092919081815260200182805461130090612671565b801561134d5780601f106113225761010080835404028352916020019161134d565b820191906000526020600020905b81548152906001019060200180831161133057829003601f168201915b50505050509080600201805461136290612671565b80601f016020809104026020016040519081016040528092919081815260200182805461138e90612671565b80156113db5780601f106113b0576101008083540402835291602001916113db565b820191906000526020600020905b8154815290600101906020018083116113be57829003601f168201915b5050505050905083565b600360205280600052604060002060009150905080600001549080600101805461140e90612671565b80601f016020809104026020016040519081016040528092919081815260200182805461143a90612671565b80156114875780601f1061145c57610100808354040283529160200191611487565b820191906000526020600020905b81548152906001019060200180831161146a57829003601f168201915b5050505050908060020154908060030154908060040154905085565b6060600060085467ffffffffffffffff8111156114c3576114c2611fcb565b5b6040519080825280602002602001820160405280156114fc57816020015b6114e9611a04565b8152602001906001900390816114e15790505b5090506000600190505b600854811161169857600460008281526020019081526020016000206040518060600160405290816000820154815260200160018201805461154790612671565b80601f016020809104026020016040519081016040528092919081815260200182805461157390612671565b80156115c05780601f10611595576101008083540402835291602001916115c0565b820191906000526020600020905b8154815290600101906020018083116115a357829003601f168201915b505050505081526020016002820180546115d990612671565b80601f016020809104026020016040519081016040528092919081815260200182805461160590612671565b80156116525780601f1061162757610100808354040283529160200191611652565b820191906000526020600020905b81548152906001019060200180831161163557829003601f168201915b505050505081525050826001836116699190612c08565b8151811061167a576116796126a2565b5b6020026020010181905250808061169090612700565b915050611506565b508091505090565b6060600060055467ffffffffffffffff8111156116c0576116bf611fcb565b5b6040519080825280602002602001820160405280156116f957816020015b6116e6611a25565b8152602001906001900390816116de5790505b50905060005b600554811015611950576001600060098381548110611721576117206126a2565b5b9060005260206000200160009054906101000a900473ffffffffffffffffffffffffffffffffffffffff1673ffffffffffffffffffffffffffffffffffffffff1673ffffffffffffffffffffffffffffffffffffffff1681526020019081526020016000206040518060a0016040529081600082015481526020016001820180546117ab90612671565b80601f01602080910402602001604051908101604052809291908181526020018280546117d790612671565b80156118245780601f106117f957610100808354040283529160200191611824565b820191906000526020600020905b81548152906001019060200180831161180757829003601f168201915b5050505050815260200160028201805461183d90612671565b80601f016020809104026020016040519081016040528092919081815260200182805461186990612671565b80156118b65780601f1061188b576101008083540402835291602001916118b6565b820191906000526020600020905b81548152906001019060200180831161189957829003601f168201915b505050505081526020016003820160009054906101000a900473ffffffffffffffffffffffffffffffffffffffff1673ffffffffffffffffffffffffffffffffffffffff1673ffffffffffffffffffffffffffffffffffffffff168152602001600482015481525050828281518110611932576119316126a2565b5b6020026020010181905250808061194890612700565b9150506116ff565b508091505090565b6040518060e00160405280600081526020016060815260200160008152602001600073ffffffffffffffffffffffffffffffffffffffff1681526020016060815260200160608152602001606081525090565b8280548282559060005260206000209081019282156119f3579160200282015b828111156119f25782518290816119e29190612960565b50916020019190600101906119cb565b5b509050611a009190611a6a565b5090565b60405180606001604052806000815260200160608152602001606081525090565b6040518060a00160405280600081526020016060815260200160608152602001600073ffffffffffffffffffffffffffffffffffffffff168152602001600081525090565b5b80821115611a8a5760008181611a819190611a8e565b50600101611a6b565b5090565b508054611a9a90612671565b6000825580601f10611aac5750611acb565b601f016020900490600052602060002090810190611aca9190611ace565b5b50565b5b80821115611ae7576000816000905550600101611acf565b5090565b6000604051905090565b600080fd5b600080fd5b6000819050919050565b611b1281611aff565b8114611b1d57600080fd5b50565b600081359050611b2f81611b09565b92915050565b600060208284031215611b4b57611b4a611af5565b5b6000611b5984828501611b20565b91505092915050565b600073ffffffffffffffffffffffffffffffffffffffff82169050919050565b6000611b8d82611b62565b9050919050565b611b9d81611b82565b82525050565b6000602082019050611bb86000830184611b94565b92915050565b611bc781611b82565b8114611bd257600080fd5b50565b600081359050611be481611bbe565b92915050565b600060208284031215611c0057611bff611af5565b5b6000611c0e84828501611bd5565b91505092915050565b611c2081611aff565b82525050565b600081519050919050565b600082825260208201905092915050565b60005b83811015611c60578082015181840152602081019050611c45565b60008484015250505050565b6000601f19601f8301169050919050565b6000611c8882611c26565b611c928185611c31565b9350611ca2818560208601611c42565b611cab81611c6c565b840191505092915050565b6000608082019050611ccb6000830187611c17565b8181036020830152611cdd8186611c7d565b9050611cec6040830185611c17565b611cf96060830184611b94565b95945050505050565b600081519050919050565b600082825260208201905092915050565b6000819050602082019050919050565b611d3781611aff565b82525050565b600082825260208201905092915050565b6000611d5982611c26565b611d638185611d3d565b9350611d73818560208601611c42565b611d7c81611c6c565b840191505092915050565b611d9081611b82565b82525050565b600081519050919050565b600082825260208201905092915050565b6000819050602082019050919050565b6000611dce8383611d4e565b905092915050565b6000602082019050919050565b6000611dee82611d96565b611df88185611da1565b935083602082028501611e0a85611db2565b8060005b85811015611e465784840389528151611e278582611dc2565b9450611e3283611dd6565b925060208a01995050600181019050611e0e565b50829750879550505050505092915050565b600060e083016000830151611e706000860182611d2e565b5060208301518482036020860152611e888282611d4e565b9150506040830151611e9d6040860182611d2e565b506060830151611eb06060860182611d87565b5060808301518482036080860152611ec88282611de3565b91505060a083015184820360a0860152611ee28282611de3565b91505060c083015184820360c0860152611efc8282611de3565b9150508091505092915050565b6000611f158383611e58565b905092915050565b6000602082019050919050565b6000611f3582611d02565b611f3f8185611d0d565b935083602082028501611f5185611d1e565b8060005b85811015611f8d5784840389528151611f6e8582611f09565b9450611f7983611f1d565b925060208a01995050600181019050611f55565b50829750879550505050505092915050565b60006020820190508181036000830152611fb98184611f2a565b905092915050565b600080fd5b600080fd5b7f4e487b7100000000000000000000000000000000000000000000000000000000600052604160045260246000fd5b61200382611c6c565b810181811067ffffffffffffffff8211171561202257612021611fcb565b5b80604052505050565b6000612035611aeb565b90506120418282611ffa565b919050565b600067ffffffffffffffff82111561206157612060611fcb565b5b61206a82611c6c565b9050602081019050919050565b82818337600083830152505050565b600061209961209484612046565b61202b565b9050828152602081018484840111156120b5576120b4611fc6565b5b6120c0848285612077565b509392505050565b600082601f8301126120dd576120dc611fc1565b5b81356120ed848260208601612086565b91505092915050565b6000806040838503121561210d5761210c611af5565b5b600083013567ffffffffffffffff81111561212b5761212a611afa565b5b612137858286016120c8565b925050602061214885828601611b20565b9150509250929050565b60008115159050919050565b61216781612152565b82525050565b6000602082019050612182600083018461215e565b92915050565b600060208201905061219d6000830184611c17565b92915050565b600080604083850312156121ba576121b9611af5565b5b600083013567ffffffffffffffff8111156121d8576121d7611afa565b5b6121e4858286016120c8565b925050602083013567ffffffffffffffff81111561220557612204611afa565b5b612211858286016120c8565b9150509250929050565b60008060006060848603121561223457612233611af5565b5b600084013567ffffffffffffffff81111561225257612251611afa565b5b61225e868287016120c8565b935050602084013567ffffffffffffffff81111561227f5761227e611afa565b5b61228b868287016120c8565b925050604061229c86828701611b20565b9150509250925092565b600060a0820190506122bb6000830188611c17565b81810360208301526122cd8187611c7d565b905081810360408301526122e18186611c7d565b90506122f06060830185611b94565b6122fd6080830184611c17565b9695505050505050565b600060608201905061231c6000830186611c17565b818103602083015261232e8185611c7d565b905081810360408301526123428184611c7d565b9050949350505050565b600060a0820190506123616000830188611c17565b81810360208301526123738187611c7d565b90506123826040830186611c17565b61238f6060830185611c17565b61239c6080830184611c17565b9695505050505050565b600081519050919050565b600082825260208201905092915050565b6000819050602082019050919050565b60006060830160008301516123ea6000860182611d2e565b50602083015184820360208601526124028282611d4e565b9150506040830151848203604086015261241c8282611d4e565b9150508091505092915050565b600061243583836123d2565b905092915050565b6000602082019050919050565b6000612455826123a6565b61245f81856123b1565b935083602082028501612471856123c2565b8060005b858110156124ad578484038952815161248e8582612429565b94506124998361243d565b925060208a01995050600181019050612475565b50829750879550505050505092915050565b600060208201905081810360008301526124d9818461244a565b905092915050565b600081519050919050565b600082825260208201905092915050565b6000819050602082019050919050565b600060a0830160008301516125256000860182611d2e565b506020830151848203602086015261253d8282611d4e565b915050604083015184820360408601526125578282611d4e565b915050606083015161256c6060860182611d87565b50608083015161257f6080860182611d2e565b508091505092915050565b6000612596838361250d565b905092915050565b6000602082019050919050565b60006125b6826124e1565b6125c081856124ec565b9350836020820285016125d2856124fd565b8060005b8581101561260e57848403895281516125ef858261258a565b94506125fa8361259e565b925060208a019950506001810190506125d6565b50829750879550505050505092915050565b6000602082019050818103600083015261263a81846125ab565b905092915050565b7f4e487b7100000000000000000000000000000000000000000000000000000000600052602260045260246000fd5b6000600282049050600182168061268957607f821691505b60208210810361269c5761269b612642565b5b50919050565b7f4e487b7100000000000000000000000000000000000000000000000000000000600052603260045260246000fd5b7f4e487b7100000000000000000000000000000000000000000000000000000000600052601160045260246000fd5b600061270b82611aff565b91507fffffffffffffffffffffffffffffffffffffffffffffffffffffffffffffffff820361273d5761273c6126d1565b5b600182019050919050565b7f50617469656e7420616c72656164792065786973747300000000000000000000600082015250565b600061277e601683611c31565b915061278982612748565b602082019050919050565b600060208201905081810360008301526127ad81612771565b9050919050565b60008190508160005260206000209050919050565b60006020601f8301049050919050565b600082821b905092915050565b6000600883026128167fffffffffffffffffffffffffffffffffffffffffffffffffffffffffffffffff826127d9565b61282086836127d9565b95508019841693508086168417925050509392505050565b6000819050919050565b600061285d61285861285384611aff565b612838565b611aff565b9050919050565b6000819050919050565b61287783612842565b61288b61288382612864565b8484546127e6565b825550505050565b600090565b6128a0612893565b6128ab81848461286e565b505050565b5b818110156128cf576128c4600082612898565b6001810190506128b1565b5050565b601f821115612914576128e5816127b4565b6128ee846127c9565b810160208510156128fd578190505b612911612909856127c9565b8301826128b0565b50505b505050565b600082821c905092915050565b600061293760001984600802612919565b1980831691505092915050565b60006129508383612926565b9150826002028217905092915050565b61296982611c26565b67ffffffffffffffff81111561298257612981611fcb565b5b61298c8254612671565b6129978282856128d3565b600060209050601f8311600181146129ca57600084156129b8578287015190505b6129c28582612944565b865550612a2a565b601f1984166129d8866127b4565b60005b82811015612a00578489015182556001820191506020850194506020810190506129db565b86831015612a1d5784890151612a19601f891682612926565b8355505b6001600288020188555050505b505050505050565b7f4f6e6c792074686520636f6e7472616374206f776e65722063616e207065726660008201527f6f726d207468697320616374696f6e2e00000000000000000000000000000000602082015250565b6000612a8e603083611c31565b9150612a9982612a32565b604082019050919050565b60006020820190508181036000830152612abd81612a81565b9050919050565b7f576f726b706c616365206e616d652063616e6e6f7420626520656d7074792e00600082015250565b6000612afa601f83611c31565b9150612b0582612ac4565b602082019050919050565b60006020820190508181036000830152612b2981612aed565b9050919050565b7f576f726b706c61636520646f6573206e6f742065786973742e00000000000000600082015250565b6000612b66601983611c31565b9150612b7182612b30565b602082019050919050565b60006020820190508181036000830152612b9581612b59565b9050919050565b7f446f63746f7220616c7265616479207265676973746572656400000000000000600082015250565b6000612bd2601983611c31565b9150612bdd82612b9c565b602082019050919050565b60006020820190508181036000830152612c0181612bc5565b9050919050565b6000612c1382611aff565b9150612c1e83611aff565b9250828203905081811115612c3657612c356126d1565b5b9291505056fea26469706673582212200079cd5483c69278ad0992839ee257c6dcb6c9e690c0c59a79085022d1cdda4d64736f6c63430008120033",
					"opcodes": "PUSH1 0x80 PUSH1 0x40 MSTORE CALLVALUE DUP1 ISZERO PUSH2 0x10 JUMPI PUSH1 0x0 DUP1 REVERT JUMPDEST POP CALLER PUSH1 0x0 DUP1 PUSH2 0x100 EXP DUP2 SLOAD DUP2 PUSH20 0xFFFFFFFFFFFFFFFFFFFFFFFFFFFFFFFFFFFFFFFF MUL NOT AND SWAP1 DUP4 PUSH20 0xFFFFFFFFFFFFFFFFFFFFFFFFFFFFFFFFFFFFFFFF AND MUL OR SWAP1 SSTORE POP PUSH2 0x2C72 DUP1 PUSH2 0x60 PUSH1 0x0 CODECOPY PUSH1 0x0 RETURN INVALID PUSH1 0x80 PUSH1 0x40 MSTORE CALLVALUE DUP1 ISZERO PUSH2 0x10 JUMPI PUSH1 0x0 DUP1 REVERT JUMPDEST POP PUSH1 0x4 CALLDATASIZE LT PUSH2 0x121 JUMPI PUSH1 0x0 CALLDATALOAD PUSH1 0xE0 SHR DUP1 PUSH4 0x78522BC4 GT PUSH2 0xAD JUMPI DUP1 PUSH4 0xBAE1EEE8 GT PUSH2 0x71 JUMPI DUP1 PUSH4 0xBAE1EEE8 EQ PUSH2 0x325 JUMPI DUP1 PUSH4 0xC38831AE EQ PUSH2 0x343 JUMPI DUP1 PUSH4 0xC85E766D EQ PUSH2 0x375 JUMPI DUP1 PUSH4 0xD92631DB EQ PUSH2 0x3A9 JUMPI DUP1 PUSH4 0xF0D95090 EQ PUSH2 0x3C7 JUMPI PUSH2 0x121 JUMP JUMPDEST DUP1 PUSH4 0x78522BC4 EQ PUSH2 0x269 JUMPI DUP1 PUSH4 0x87446B6E EQ PUSH2 0x287 JUMPI DUP1 PUSH4 0xA0303C41 EQ PUSH2 0x2A3 JUMPI DUP1 PUSH4 0xA9583C22 EQ PUSH2 0x2C1 JUMPI DUP1 PUSH4 0xBAC33AA2 EQ PUSH2 0x2F5 JUMPI PUSH2 0x121 JUMP JUMPDEST DUP1 PUSH4 0x33C5D641 GT PUSH2 0xF4 JUMPI DUP1 PUSH4 0x33C5D641 EQ PUSH2 0x1C3 JUMPI DUP1 PUSH4 0x4DAFD490 EQ PUSH2 0x1E1 JUMPI DUP1 PUSH4 0x59BF95F7 EQ PUSH2 0x1FF JUMPI DUP1 PUSH4 0x5AB2CE22 EQ PUSH2 0x22F JUMPI DUP1 PUSH4 0x77518CE6 EQ PUSH2 0x24B JUMPI PUSH2 0x121 JUMP JUMPDEST DUP1 PUSH4 0x5AEEEA7 EQ PUSH2 0x126 JUMPI DUP1 PUSH4 0x869CFBC EQ PUSH2 0x156 JUMPI DUP1 PUSH4 0x18A231A9 EQ PUSH2 0x189 JUMPI DUP1 PUSH4 0x2DE304ED EQ PUSH2 0x1A7 JUMPI JUMPDEST PUSH1 0x0 DUP1 REVERT JUMPDEST PUSH2 0x140 PUSH1 0x4 DUP1 CALLDATASIZE SUB DUP2 ADD SWAP1 PUSH2 0x13B SWAP2 SWAP1 PUSH2 0x1B35 JUMP JUMPDEST PUSH2 0x3E5 JUMP JUMPDEST PUSH1 0x40 MLOAD PUSH2 0x14D SWAP2 SWAP1 PUSH2 0x1BA3 JUMP JUMPDEST PUSH1 0x40 MLOAD DUP1 SWAP2 SUB SWAP1 RETURN JUMPDEST PUSH2 0x170 PUSH1 0x4 DUP1 CALLDATASIZE SUB DUP2 ADD SWAP1 PUSH2 0x16B SWAP2 SWAP1 PUSH2 0x1BEA JUMP JUMPDEST PUSH2 0x424 JUMP JUMPDEST PUSH1 0x40 MLOAD PUSH2 0x180 SWAP5 SWAP4 SWAP3 SWAP2 SWAP1 PUSH2 0x1CB6 JUMP JUMPDEST PUSH1 0x40 MLOAD DUP1 SWAP2 SUB SWAP1 RETURN JUMPDEST PUSH2 0x191 PUSH2 0x4FC JUMP JUMPDEST PUSH1 0x40 MLOAD PUSH2 0x19E SWAP2 SWAP1 PUSH2 0x1F9F JUMP JUMPDEST PUSH1 0x40 MLOAD DUP1 SWAP2 SUB SWAP1 RETURN JUMPDEST PUSH2 0x1C1 PUSH1 0x4 DUP1 CALLDATASIZE SUB DUP2 ADD SWAP1 PUSH2 0x1BC SWAP2 SWAP1 PUSH2 0x20F6 JUMP JUMPDEST PUSH2 0x9AD JUMP JUMPDEST STOP JUMPDEST PUSH2 0x1CB PUSH2 0xBD0 JUMP JUMPDEST PUSH1 0x40 MLOAD PUSH2 0x1D8 SWAP2 SWAP1 PUSH2 0x216D JUMP JUMPDEST PUSH1 0x40 MLOAD DUP1 SWAP2 SUB SWAP1 RETURN JUMPDEST PUSH2 0x1E9 PUSH2 0xC79 JUMP JUMPDEST PUSH1 0x40 MLOAD PUSH2 0x1F6 SWAP2 SWAP1 PUSH2 0x2188 JUMP JUMPDEST PUSH1 0x40 MLOAD DUP1 SWAP2 SUB SWAP1 RETURN JUMPDEST PUSH2 0x219 PUSH1 0x4 DUP1 CALLDATASIZE SUB DUP2 ADD SWAP1 PUSH2 0x214 SWAP2 SWAP1 PUSH2 0x1B35 JUMP JUMPDEST PUSH2 0xC7F JUMP JUMPDEST PUSH1 0x40 MLOAD PUSH2 0x226 SWAP2 SWAP1 PUSH2 0x1BA3 JUMP JUMPDEST PUSH1 0x40 MLOAD DUP1 SWAP2 SUB SWAP1 RETURN JUMPDEST PUSH2 0x249 PUSH1 0x4 DUP1 CALLDATASIZE SUB DUP2 ADD SWAP1 PUSH2 0x244 SWAP2 SWAP1 PUSH2 0x21A3 JUMP JUMPDEST PUSH2 0xCBE JUMP JUMPDEST STOP JUMPDEST PUSH2 0x253 PUSH2 0xE17 JUMP JUMPDEST PUSH1 0x40 MLOAD PUSH2 0x260 SWAP2 SWAP1 PUSH2 0x2188 JUMP JUMPDEST PUSH1 0x40 MLOAD DUP1 SWAP2 SUB SWAP1 RETURN JUMPDEST PUSH2 0x271 PUSH2 0xE1D JUMP JUMPDEST PUSH1 0x40 MLOAD PUSH2 0x27E SWAP2 SWAP1 PUSH2 0x2188 JUMP JUMPDEST PUSH1 0x40 MLOAD DUP1 SWAP2 SUB SWAP1 RETURN JUMPDEST PUSH2 0x2A1 PUSH1 0x4 DUP1 CALLDATASIZE SUB DUP2 ADD SWAP1 PUSH2 0x29C SWAP2 SWAP1 PUSH2 0x221B JUMP JUMPDEST PUSH2 0xE23 JUMP JUMPDEST STOP JUMPDEST PUSH2 0x2AB PUSH2 0x107B JUMP JUMPDEST PUSH1 0x40 MLOAD PUSH2 0x2B8 SWAP2 SWAP1 PUSH2 0x2188 JUMP JUMPDEST PUSH1 0x40 MLOAD DUP1 SWAP2 SUB SWAP1 RETURN JUMPDEST PUSH2 0x2DB PUSH1 0x4 DUP1 CALLDATASIZE SUB DUP2 ADD SWAP1 PUSH2 0x2D6 SWAP2 SWAP1 PUSH2 0x1BEA JUMP JUMPDEST PUSH2 0x1081 JUMP JUMPDEST PUSH1 0x40 MLOAD PUSH2 0x2EC SWAP6 SWAP5 SWAP4 SWAP3 SWAP2 SWAP1 PUSH2 0x22A6 JUMP JUMPDEST PUSH1 0x40 MLOAD DUP1 SWAP2 SUB SWAP1 RETURN JUMPDEST PUSH2 0x30F PUSH1 0x4 DUP1 CALLDATASIZE SUB DUP2 ADD SWAP1 PUSH2 0x30A SWAP2 SWAP1 PUSH2 0x1B35 JUMP JUMPDEST PUSH2 0x11E7 JUMP JUMPDEST PUSH1 0x40 MLOAD PUSH2 0x31C SWAP2 SWAP1 PUSH2 0x216D JUMP JUMPDEST PUSH1 0x40 MLOAD DUP1 SWAP2 SUB SWAP1 RETURN JUMPDEST PUSH2 0x32D PUSH2 0x1202 JUMP JUMPDEST PUSH1 0x40 MLOAD PUSH2 0x33A SWAP2 SWAP1 PUSH2 0x216D JUMP JUMPDEST PUSH1 0x40 MLOAD DUP1 SWAP2 SUB SWAP1 RETURN JUMPDEST PUSH2 0x35D PUSH1 0x4 DUP1 CALLDATASIZE SUB DUP2 ADD SWAP1 PUSH2 0x358 SWAP2 SWAP1 PUSH2 0x1B35 JUMP JUMPDEST PUSH2 0x12AB JUMP JUMPDEST PUSH1 0x40 MLOAD PUSH2 0x36C SWAP4 SWAP3 SWAP2 SWAP1 PUSH2 0x2307 JUMP JUMPDEST PUSH1 0x40 MLOAD DUP1 SWAP2 SUB SWAP1 RETURN JUMPDEST PUSH2 0x38F PUSH1 0x4 DUP1 CALLDATASIZE SUB DUP2 ADD SWAP1 PUSH2 0x38A SWAP2 SWAP1 PUSH2 0x1B35 JUMP JUMPDEST PUSH2 0x13E5 JUMP JUMPDEST PUSH1 0x40 MLOAD PUSH2 0x3A0 SWAP6 SWAP5 SWAP4 SWAP3 SWAP2 SWAP1 PUSH2 0x234C JUMP JUMPDEST PUSH1 0x40 MLOAD DUP1 SWAP2 SUB SWAP1 RETURN JUMPDEST PUSH2 0x3B1 PUSH2 0x14A3 JUMP JUMPDEST PUSH1 0x40 MLOAD PUSH2 0x3BE SWAP2 SWAP1 PUSH2 0x24BF JUMP JUMPDEST PUSH1 0x40 MLOAD DUP1 SWAP2 SUB SWAP1 RETURN JUMPDEST PUSH2 0x3CF PUSH2 0x16A0 JUMP JUMPDEST PUSH1 0x40 MLOAD PUSH2 0x3DC SWAP2 SWAP1 PUSH2 0x2620 JUMP JUMPDEST PUSH1 0x40 MLOAD DUP1 SWAP2 SUB SWAP1 RETURN JUMPDEST PUSH1 0xA DUP2 DUP2 SLOAD DUP2 LT PUSH2 0x3F5 JUMPI PUSH1 0x0 DUP1 REVERT JUMPDEST SWAP1 PUSH1 0x0 MSTORE PUSH1 0x20 PUSH1 0x0 KECCAK256 ADD PUSH1 0x0 SWAP2 POP SLOAD SWAP1 PUSH2 0x100 EXP SWAP1 DIV PUSH20 0xFFFFFFFFFFFFFFFFFFFFFFFFFFFFFFFFFFFFFFFF AND DUP2 JUMP JUMPDEST PUSH1 0x2 PUSH1 0x20 MSTORE DUP1 PUSH1 0x0 MSTORE PUSH1 0x40 PUSH1 0x0 KECCAK256 PUSH1 0x0 SWAP2 POP SWAP1 POP DUP1 PUSH1 0x0 ADD SLOAD SWAP1 DUP1 PUSH1 0x1 ADD DUP1 SLOAD PUSH2 0x44D SWAP1 PUSH2 0x2671 JUMP JUMPDEST DUP1 PUSH1 0x1F ADD PUSH1 0x20 DUP1 SWAP2 DIV MUL PUSH1 0x20 ADD PUSH1 0x40 MLOAD SWAP1 DUP2 ADD PUSH1 0x40 MSTORE DUP1 SWAP3 SWAP2 SWAP1 DUP2 DUP2 MSTORE PUSH1 0x20 ADD DUP3 DUP1 SLOAD PUSH2 0x479 SWAP1 PUSH2 0x2671 JUMP JUMPDEST DUP1 ISZERO PUSH2 0x4C6 JUMPI DUP1 PUSH1 0x1F LT PUSH2 0x49B JUMPI PUSH2 0x100 DUP1 DUP4 SLOAD DIV MUL DUP4 MSTORE SWAP2 PUSH1 0x20 ADD SWAP2 PUSH2 0x4C6 JUMP JUMPDEST DUP3 ADD SWAP2 SWAP1 PUSH1 0x0 MSTORE PUSH1 0x20 PUSH1 0x0 KECCAK256 SWAP1 JUMPDEST DUP2 SLOAD DUP2 MSTORE SWAP1 PUSH1 0x1 ADD SWAP1 PUSH1 0x20 ADD DUP1 DUP4 GT PUSH2 0x4A9 JUMPI DUP3 SWAP1 SUB PUSH1 0x1F AND DUP3 ADD SWAP2 JUMPDEST POP POP POP POP POP SWAP1 DUP1 PUSH1 0x2 ADD SLOAD SWAP1 DUP1 PUSH1 0x3 ADD PUSH1 0x0 SWAP1 SLOAD SWAP1 PUSH2 0x100 EXP SWAP1 DIV PUSH20 0xFFFFFFFFFFFFFFFFFFFFFFFFFFFFFFFFFFFFFFFF AND SWAP1 POP DUP5 JUMP JUMPDEST PUSH1 0x60 PUSH1 0x0 PUSH1 0x6 SLOAD PUSH8 0xFFFFFFFFFFFFFFFF DUP2 GT ISZERO PUSH2 0x51C JUMPI PUSH2 0x51B PUSH2 0x1FCB JUMP JUMPDEST JUMPDEST PUSH1 0x40 MLOAD SWAP1 DUP1 DUP3 MSTORE DUP1 PUSH1 0x20 MUL PUSH1 0x20 ADD DUP3 ADD PUSH1 0x40 MSTORE DUP1 ISZERO PUSH2 0x555 JUMPI DUP2 PUSH1 0x20 ADD JUMPDEST PUSH2 0x542 PUSH2 0x1958 JUMP JUMPDEST DUP2 MSTORE PUSH1 0x20 ADD SWAP1 PUSH1 0x1 SWAP1 SUB SWAP1 DUP2 PUSH2 0x53A JUMPI SWAP1 POP JUMPDEST POP SWAP1 POP PUSH1 0x0 JUMPDEST PUSH1 0x6 SLOAD DUP2 LT ISZERO PUSH2 0x9A5 JUMPI PUSH1 0x2 PUSH1 0x0 PUSH1 0xA DUP4 DUP2 SLOAD DUP2 LT PUSH2 0x57D JUMPI PUSH2 0x57C PUSH2 0x26A2 JUMP JUMPDEST JUMPDEST SWAP1 PUSH1 0x0 MSTORE PUSH1 0x20 PUSH1 0x0 KECCAK256 ADD PUSH1 0x0 SWAP1 SLOAD SWAP1 PUSH2 0x100 EXP SWAP1 DIV PUSH20 0xFFFFFFFFFFFFFFFFFFFFFFFFFFFFFFFFFFFFFFFF AND PUSH20 0xFFFFFFFFFFFFFFFFFFFFFFFFFFFFFFFFFFFFFFFF AND PUSH20 0xFFFFFFFFFFFFFFFFFFFFFFFFFFFFFFFFFFFFFFFF AND DUP2 MSTORE PUSH1 0x20 ADD SWAP1 DUP2 MSTORE PUSH1 0x20 ADD PUSH1 0x0 KECCAK256 PUSH1 0x40 MLOAD DUP1 PUSH1 0xE0 ADD PUSH1 0x40 MSTORE SWAP1 DUP2 PUSH1 0x0 DUP3 ADD SLOAD DUP2 MSTORE PUSH1 0x20 ADD PUSH1 0x1 DUP3 ADD DUP1 SLOAD PUSH2 0x607 SWAP1 PUSH2 0x2671 JUMP JUMPDEST DUP1 PUSH1 0x1F ADD PUSH1 0x20 DUP1 SWAP2 DIV MUL PUSH1 0x20 ADD PUSH1 0x40 MLOAD SWAP1 DUP2 ADD PUSH1 0x40 MSTORE DUP1 SWAP3 SWAP2 SWAP1 DUP2 DUP2 MSTORE PUSH1 0x20 ADD DUP3 DUP1 SLOAD PUSH2 0x633 SWAP1 PUSH2 0x2671 JUMP JUMPDEST DUP1 ISZERO PUSH2 0x680 JUMPI DUP1 PUSH1 0x1F LT PUSH2 0x655 JUMPI PUSH2 0x100 DUP1 DUP4 SLOAD DIV MUL DUP4 MSTORE SWAP2 PUSH1 0x20 ADD SWAP2 PUSH2 0x680 JUMP JUMPDEST DUP3 ADD SWAP2 SWAP1 PUSH1 0x0 MSTORE PUSH1 0x20 PUSH1 0x0 KECCAK256 SWAP1 JUMPDEST DUP2 SLOAD DUP2 MSTORE SWAP1 PUSH1 0x1 ADD SWAP1 PUSH1 0x20 ADD DUP1 DUP4 GT PUSH2 0x663 JUMPI DUP3 SWAP1 SUB PUSH1 0x1F AND DUP3 ADD SWAP2 JUMPDEST POP POP POP POP POP DUP2 MSTORE PUSH1 0x20 ADD PUSH1 0x2 DUP3 ADD SLOAD DUP2 MSTORE PUSH1 0x20 ADD PUSH1 0x3 DUP3 ADD PUSH1 0x0 SWAP1 SLOAD SWAP1 PUSH2 0x100 EXP SWAP1 DIV PUSH20 0xFFFFFFFFFFFFFFFFFFFFFFFFFFFFFFFFFFFFFFFF AND PUSH20 0xFFFFFFFFFFFFFFFFFFFFFFFFFFFFFFFFFFFFFFFF AND PUSH20 0xFFFFFFFFFFFFFFFFFFFFFFFFFFFFFFFFFFFFFFFF AND DUP2 MSTORE PUSH1 0x20 ADD PUSH1 0x4 DUP3 ADD DUP1 SLOAD DUP1 PUSH1 0x20 MUL PUSH1 0x20 ADD PUSH1 0x40 MLOAD SWAP1 DUP2 ADD PUSH1 0x40 MSTORE DUP1 SWAP3 SWAP2 SWAP1 DUP2 DUP2 MSTORE PUSH1 0x20 ADD PUSH1 0x0 SWAP1 JUMPDEST DUP3 DUP3 LT ISZERO PUSH2 0x7BA JUMPI DUP4 DUP3 SWAP1 PUSH1 0x0 MSTORE PUSH1 0x20 PUSH1 0x0 KECCAK256 ADD DUP1 SLOAD PUSH2 0x72D SWAP1 PUSH2 0x2671 JUMP JUMPDEST DUP1 PUSH1 0x1F ADD PUSH1 0x20 DUP1 SWAP2 DIV MUL PUSH1 0x20 ADD PUSH1 0x40 MLOAD SWAP1 DUP2 ADD PUSH1 0x40 MSTORE DUP1 SWAP3 SWAP2 SWAP1 DUP2 DUP2 MSTORE PUSH1 0x20 ADD DUP3 DUP1 SLOAD PUSH2 0x759 SWAP1 PUSH2 0x2671 JUMP JUMPDEST DUP1 ISZERO PUSH2 0x7A6 JUMPI DUP1 PUSH1 0x1F LT PUSH2 0x77B JUMPI PUSH2 0x100 DUP1 DUP4 SLOAD DIV MUL DUP4 MSTORE SWAP2 PUSH1 0x20 ADD SWAP2 PUSH2 0x7A6 JUMP JUMPDEST DUP3 ADD SWAP2 SWAP1 PUSH1 0x0 MSTORE PUSH1 0x20 PUSH1 0x0 KECCAK256 SWAP1 JUMPDEST DUP2 SLOAD DUP2 MSTORE SWAP1 PUSH1 0x1 ADD SWAP1 PUSH1 0x20 ADD DUP1 DUP4 GT PUSH2 0x789 JUMPI DUP3 SWAP1 SUB PUSH1 0x1F AND DUP3 ADD SWAP2 JUMPDEST POP POP POP POP POP DUP2 MSTORE PUSH1 0x20 ADD SWAP1 PUSH1 0x1 ADD SWAP1 PUSH2 0x70E JUMP JUMPDEST POP POP POP POP DUP2 MSTORE PUSH1 0x20 ADD PUSH1 0x5 DUP3 ADD DUP1 SLOAD DUP1 PUSH1 0x20 MUL PUSH1 0x20 ADD PUSH1 0x40 MLOAD SWAP1 DUP2 ADD PUSH1 0x40 MSTORE DUP1 SWAP3 SWAP2 SWAP1 DUP2 DUP2 MSTORE PUSH1 0x20 ADD PUSH1 0x0 SWAP1 JUMPDEST DUP3 DUP3 LT ISZERO PUSH2 0x893 JUMPI DUP4 DUP3 SWAP1 PUSH1 0x0 MSTORE PUSH1 0x20 PUSH1 0x0 KECCAK256 ADD DUP1 SLOAD PUSH2 0x806 SWAP1 PUSH2 0x2671 JUMP JUMPDEST DUP1 PUSH1 0x1F ADD PUSH1 0x20 DUP1 SWAP2 DIV MUL PUSH1 0x20 ADD PUSH1 0x40 MLOAD SWAP1 DUP2 ADD PUSH1 0x40 MSTORE DUP1 SWAP3 SWAP2 SWAP1 DUP2 DUP2 MSTORE PUSH1 0x20 ADD DUP3 DUP1 SLOAD PUSH2 0x832 SWAP1 PUSH2 0x2671 JUMP JUMPDEST DUP1 ISZERO PUSH2 0x87F JUMPI DUP1 PUSH1 0x1F LT PUSH2 0x854 JUMPI PUSH2 0x100 DUP1 DUP4 SLOAD DIV MUL DUP4 MSTORE SWAP2 PUSH1 0x20 ADD SWAP2 PUSH2 0x87F JUMP JUMPDEST DUP3 ADD SWAP2 SWAP1 PUSH1 0x0 MSTORE PUSH1 0x20 PUSH1 0x0 KECCAK256 SWAP1 JUMPDEST DUP2 SLOAD DUP2 MSTORE SWAP1 PUSH1 0x1 ADD SWAP1 PUSH1 0x20 ADD DUP1 DUP4 GT PUSH2 0x862 JUMPI DUP3 SWAP1 SUB PUSH1 0x1F AND DUP3 ADD SWAP2 JUMPDEST POP POP POP POP POP DUP2 MSTORE PUSH1 0x20 ADD SWAP1 PUSH1 0x1 ADD SWAP1 PUSH2 0x7E7 JUMP JUMPDEST POP POP POP POP DUP2 MSTORE PUSH1 0x20 ADD PUSH1 0x6 DUP3 ADD DUP1 SLOAD DUP1 PUSH1 0x20 MUL PUSH1 0x20 ADD PUSH1 0x40 MLOAD SWAP1 DUP2 ADD PUSH1 0x40 MSTORE DUP1 SWAP3 SWAP2 SWAP1 DUP2 DUP2 MSTORE PUSH1 0x20 ADD PUSH1 0x0 SWAP1 JUMPDEST DUP3 DUP3 LT ISZERO PUSH2 0x96C JUMPI DUP4 DUP3 SWAP1 PUSH1 0x0 MSTORE PUSH1 0x20 PUSH1 0x0 KECCAK256 ADD DUP1 SLOAD PUSH2 0x8DF SWAP1 PUSH2 0x2671 JUMP JUMPDEST DUP1 PUSH1 0x1F ADD PUSH1 0x20 DUP1 SWAP2 DIV MUL PUSH1 0x20 ADD PUSH1 0x40 MLOAD SWAP1 DUP2 ADD PUSH1 0x40 MSTORE DUP1 SWAP3 SWAP2 SWAP1 DUP2 DUP2 MSTORE PUSH1 0x20 ADD DUP3 DUP1 SLOAD PUSH2 0x90B SWAP1 PUSH2 0x2671 JUMP JUMPDEST DUP1 ISZERO PUSH2 0x958 JUMPI DUP1 PUSH1 0x1F LT PUSH2 0x92D JUMPI PUSH2 0x100 DUP1 DUP4 SLOAD DIV MUL DUP4 MSTORE SWAP2 PUSH1 0x20 ADD SWAP2 PUSH2 0x958 JUMP JUMPDEST DUP3 ADD SWAP2 SWAP1 PUSH1 0x0 MSTORE PUSH1 0x20 PUSH1 0x0 KECCAK256 SWAP1 JUMPDEST DUP2 SLOAD DUP2 MSTORE SWAP1 PUSH1 0x1 ADD SWAP1 PUSH1 0x20 ADD DUP1 DUP4 GT PUSH2 0x93B JUMPI DUP3 SWAP1 SUB PUSH1 0x1F AND DUP3 ADD SWAP2 JUMPDEST POP POP POP POP POP DUP2 MSTORE PUSH1 0x20 ADD SWAP1 PUSH1 0x1 ADD SWAP1 PUSH2 0x8C0 JUMP JUMPDEST POP POP POP POP DUP2 MSTORE POP POP DUP3 DUP3 DUP2 MLOAD DUP2 LT PUSH2 0x987 JUMPI PUSH2 0x986 PUSH2 0x26A2 JUMP JUMPDEST JUMPDEST PUSH1 0x20 MUL PUSH1 0x20 ADD ADD DUP2 SWAP1 MSTORE POP DUP1 DUP1 PUSH2 0x99D SWAP1 PUSH2 0x2700 JUMP JUMPDEST SWAP2 POP POP PUSH2 0x55B JUMP JUMPDEST POP DUP1 SWAP2 POP POP SWAP1 JUMP JUMPDEST PUSH2 0x9B5 PUSH2 0xBD0 JUMP JUMPDEST PUSH2 0x9F4 JUMPI PUSH1 0x40 MLOAD PUSH32 0x8C379A000000000000000000000000000000000000000000000000000000000 DUP2 MSTORE PUSH1 0x4 ADD PUSH2 0x9EB SWAP1 PUSH2 0x2794 JUMP JUMPDEST PUSH1 0x40 MLOAD DUP1 SWAP2 SUB SWAP1 REVERT JUMPDEST PUSH1 0x60 DUP1 PUSH1 0x60 PUSH1 0x40 MLOAD DUP1 PUSH1 0xE0 ADD PUSH1 0x40 MSTORE DUP1 PUSH1 0x6 SLOAD DUP2 MSTORE PUSH1 0x20 ADD DUP7 DUP2 MSTORE PUSH1 0x20 ADD DUP6 DUP2 MSTORE PUSH1 0x20 ADD CALLER PUSH20 0xFFFFFFFFFFFFFFFFFFFFFFFFFFFFFFFFFFFFFFFF AND DUP2 MSTORE PUSH1 0x20 ADD DUP5 DUP2 MSTORE PUSH1 0x20 ADD DUP4 DUP2 MSTORE PUSH1 0x20 ADD DUP3 DUP2 MSTORE POP PUSH1 0x2 PUSH1 0x0 CALLER PUSH20 0xFFFFFFFFFFFFFFFFFFFFFFFFFFFFFFFFFFFFFFFF AND PUSH20 0xFFFFFFFFFFFFFFFFFFFFFFFFFFFFFFFFFFFFFFFF AND DUP2 MSTORE PUSH1 0x20 ADD SWAP1 DUP2 MSTORE PUSH1 0x20 ADD PUSH1 0x0 KECCAK256 PUSH1 0x0 DUP3 ADD MLOAD DUP2 PUSH1 0x0 ADD SSTORE PUSH1 0x20 DUP3 ADD MLOAD DUP2 PUSH1 0x1 ADD SWAP1 DUP2 PUSH2 0xAA2 SWAP2 SWAP1 PUSH2 0x2960 JUMP JUMPDEST POP PUSH1 0x40 DUP3 ADD MLOAD DUP2 PUSH1 0x2 ADD SSTORE PUSH1 0x60 DUP3 ADD MLOAD DUP2 PUSH1 0x3 ADD PUSH1 0x0 PUSH2 0x100 EXP DUP2 SLOAD DUP2 PUSH20 0xFFFFFFFFFFFFFFFFFFFFFFFFFFFFFFFFFFFFFFFF MUL NOT AND SWAP1 DUP4 PUSH20 0xFFFFFFFFFFFFFFFFFFFFFFFFFFFFFFFFFFFFFFFF AND MUL OR SWAP1 SSTORE POP PUSH1 0x80 DUP3 ADD MLOAD DUP2 PUSH1 0x4 ADD SWAP1 DUP1 MLOAD SWAP1 PUSH1 0x20 ADD SWAP1 PUSH2 0xB10 SWAP3 SWAP2 SWAP1 PUSH2 0x19AB JUMP JUMPDEST POP PUSH1 0xA0 DUP3 ADD MLOAD DUP2 PUSH1 0x5 ADD SWAP1 DUP1 MLOAD SWAP1 PUSH1 0x20 ADD SWAP1 PUSH2 0xB2D SWAP3 SWAP2 SWAP1 PUSH2 0x19AB JUMP JUMPDEST POP PUSH1 0xC0 DUP3 ADD MLOAD DUP2 PUSH1 0x6 ADD SWAP1 DUP1 MLOAD SWAP1 PUSH1 0x20 ADD SWAP1 PUSH2 0xB4A SWAP3 SWAP2 SWAP1 PUSH2 0x19AB JUMP JUMPDEST POP SWAP1 POP POP PUSH1 0xA CALLER SWAP1 DUP1 PUSH1 0x1 DUP2 SLOAD ADD DUP1 DUP3 SSTORE DUP1 SWAP2 POP POP PUSH1 0x1 SWAP1 SUB SWAP1 PUSH1 0x0 MSTORE PUSH1 0x20 PUSH1 0x0 KECCAK256 ADD PUSH1 0x0 SWAP1 SWAP2 SWAP1 SWAP2 SWAP1 SWAP2 PUSH2 0x100 EXP DUP2 SLOAD DUP2 PUSH20 0xFFFFFFFFFFFFFFFFFFFFFFFFFFFFFFFFFFFFFFFF MUL NOT AND SWAP1 DUP4 PUSH20 0xFFFFFFFFFFFFFFFFFFFFFFFFFFFFFFFFFFFFFFFF AND MUL OR SWAP1 SSTORE POP PUSH1 0x6 PUSH1 0x0 DUP2 SLOAD DUP1 SWAP3 SWAP2 SWAP1 PUSH2 0xBC4 SWAP1 PUSH2 0x2700 JUMP JUMPDEST SWAP2 SWAP1 POP SSTORE POP POP POP POP POP POP JUMP JUMPDEST PUSH1 0x0 DUP1 PUSH1 0x0 SWAP1 POP JUMPDEST PUSH1 0x6 SLOAD DUP2 LT ISZERO PUSH2 0xC70 JUMPI CALLER PUSH20 0xFFFFFFFFFFFFFFFFFFFFFFFFFFFFFFFFFFFFFFFF AND PUSH1 0xA DUP3 DUP2 SLOAD DUP2 LT PUSH2 0xC0D JUMPI PUSH2 0xC0C PUSH2 0x26A2 JUMP JUMPDEST JUMPDEST SWAP1 PUSH1 0x0 MSTORE PUSH1 0x20 PUSH1 0x0 KECCAK256 ADD PUSH1 0x0 SWAP1 SLOAD SWAP1 PUSH2 0x100 EXP SWAP1 DIV PUSH20 0xFFFFFFFFFFFFFFFFFFFFFFFFFFFFFFFFFFFFFFFF AND PUSH20 0xFFFFFFFFFFFFFFFFFFFFFFFFFFFFFFFFFFFFFFFF AND SUB PUSH2 0xC5D JUMPI PUSH1 0x0 SWAP2 POP POP PUSH2 0xC76 JUMP JUMPDEST DUP1 DUP1 PUSH2 0xC68 SWAP1 PUSH2 0x2700 JUMP JUMPDEST SWAP2 POP POP PUSH2 0xBD8 JUMP JUMPDEST POP PUSH1 0x1 SWAP1 POP JUMPDEST SWAP1 JUMP JUMPDEST PUSH1 0x7 SLOAD DUP2 JUMP JUMPDEST PUSH1 0x9 DUP2 DUP2 SLOAD DUP2 LT PUSH2 0xC8F JUMPI PUSH1 0x0 DUP1 REVERT JUMPDEST SWAP1 PUSH1 0x0 MSTORE PUSH1 0x20 PUSH1 0x0 KECCAK256 ADD PUSH1 0x0 SWAP2 POP SLOAD SWAP1 PUSH2 0x100 EXP SWAP1 DIV PUSH20 0xFFFFFFFFFFFFFFFFFFFFFFFFFFFFFFFFFFFFFFFF AND DUP2 JUMP JUMPDEST PUSH1 0x0 DUP1 SLOAD SWAP1 PUSH2 0x100 EXP SWAP1 DIV PUSH20 0xFFFFFFFFFFFFFFFFFFFFFFFFFFFFFFFFFFFFFFFF AND PUSH20 0xFFFFFFFFFFFFFFFFFFFFFFFFFFFFFFFFFFFFFFFF AND CALLER PUSH20 0xFFFFFFFFFFFFFFFFFFFFFFFFFFFFFFFFFFFFFFFF AND EQ PUSH2 0xD4C JUMPI PUSH1 0x40 MLOAD PUSH32 0x8C379A000000000000000000000000000000000000000000000000000000000 DUP2 MSTORE PUSH1 0x4 ADD PUSH2 0xD43 SWAP1 PUSH2 0x2AA4 JUMP JUMPDEST PUSH1 0x40 MLOAD DUP1 SWAP2 SUB SWAP1 REVERT JUMPDEST PUSH1 0x0 DUP3 MLOAD GT PUSH2 0xD90 JUMPI PUSH1 0x40 MLOAD PUSH32 0x8C379A000000000000000000000000000000000000000000000000000000000 DUP2 MSTORE PUSH1 0x4 ADD PUSH2 0xD87 SWAP1 PUSH2 0x2B10 JUMP JUMPDEST PUSH1 0x40 MLOAD DUP1 SWAP2 SUB SWAP1 REVERT JUMPDEST PUSH1 0x8 PUSH1 0x0 DUP2 SLOAD DUP1 SWAP3 SWAP2 SWAP1 PUSH2 0xDA3 SWAP1 PUSH2 0x2700 JUMP JUMPDEST SWAP2 SWAP1 POP SSTORE POP PUSH1 0x40 MLOAD DUP1 PUSH1 0x60 ADD PUSH1 0x40 MSTORE DUP1 PUSH1 0x8 SLOAD DUP2 MSTORE PUSH1 0x20 ADD DUP4 DUP2 MSTORE PUSH1 0x20 ADD DUP3 DUP2 MSTORE POP PUSH1 0x4 PUSH1 0x0 PUSH1 0x8 SLOAD DUP2 MSTORE PUSH1 0x20 ADD SWAP1 DUP2 MSTORE PUSH1 0x20 ADD PUSH1 0x0 KECCAK256 PUSH1 0x0 DUP3 ADD MLOAD DUP2 PUSH1 0x0 ADD SSTORE PUSH1 0x20 DUP3 ADD MLOAD DUP2 PUSH1 0x1 ADD SWAP1 DUP2 PUSH2 0xDF9 SWAP2 SWAP1 PUSH2 0x2960 JUMP JUMPDEST POP PUSH1 0x40 DUP3 ADD MLOAD DUP2 PUSH1 0x2 ADD SWAP1 DUP2 PUSH2 0xE0F SWAP2 SWAP1 PUSH2 0x2960 JUMP JUMPDEST POP SWAP1 POP POP POP POP JUMP JUMPDEST PUSH1 0x8 SLOAD DUP2 JUMP JUMPDEST PUSH1 0x5 SLOAD DUP2 JUMP JUMPDEST PUSH2 0xE2C DUP2 PUSH2 0x11E7 JUMP JUMPDEST PUSH2 0xE6B JUMPI PUSH1 0x40 MLOAD PUSH32 0x8C379A000000000000000000000000000000000000000000000000000000000 DUP2 MSTORE PUSH1 0x4 ADD PUSH2 0xE62 SWAP1 PUSH2 0x2B7C JUMP JUMPDEST PUSH1 0x40 MLOAD DUP1 SWAP2 SUB SWAP1 REVERT JUMPDEST PUSH2 0xE73 PUSH2 0x1202 JUMP JUMPDEST PUSH2 0xEB2 JUMPI PUSH1 0x40 MLOAD PUSH32 0x8C379A000000000000000000000000000000000000000000000000000000000 DUP2 MSTORE PUSH1 0x4 ADD PUSH2 0xEA9 SWAP1 PUSH2 0x2BE8 JUMP JUMPDEST PUSH1 0x40 MLOAD DUP1 SWAP2 SUB SWAP1 REVERT JUMPDEST PUSH1 0x40 MLOAD DUP1 PUSH1 0xA0 ADD PUSH1 0x40 MSTORE DUP1 PUSH1 0x5 SLOAD DUP2 MSTORE PUSH1 0x20 ADD DUP5 DUP2 MSTORE PUSH1 0x20 ADD DUP4 DUP2 MSTORE PUSH1 0x20 ADD CALLER PUSH20 0xFFFFFFFFFFFFFFFFFFFFFFFFFFFFFFFFFFFFFFFF AND DUP2 MSTORE PUSH1 0x20 ADD DUP3 DUP2 MSTORE POP PUSH1 0x1 PUSH1 0x0 CALLER PUSH20 0xFFFFFFFFFFFFFFFFFFFFFFFFFFFFFFFFFFFFFFFF AND PUSH20 0xFFFFFFFFFFFFFFFFFFFFFFFFFFFFFFFFFFFFFFFF AND DUP2 MSTORE PUSH1 0x20 ADD SWAP1 DUP2 MSTORE PUSH1 0x20 ADD PUSH1 0x0 KECCAK256 PUSH1 0x0 DUP3 ADD MLOAD DUP2 PUSH1 0x0 ADD SSTORE PUSH1 0x20 DUP3 ADD MLOAD DUP2 PUSH1 0x1 ADD SWAP1 DUP2 PUSH2 0xF4F SWAP2 SWAP1 PUSH2 0x2960 JUMP JUMPDEST POP PUSH1 0x40 DUP3 ADD MLOAD DUP2 PUSH1 0x2 ADD SWAP1 DUP2 PUSH2 0xF65 SWAP2 SWAP1 PUSH2 0x2960 JUMP JUMPDEST POP PUSH1 0x60 DUP3 ADD MLOAD DUP2 PUSH1 0x3 ADD PUSH1 0x0 PUSH2 0x100 EXP DUP2 SLOAD DUP2 PUSH20 0xFFFFFFFFFFFFFFFFFFFFFFFFFFFFFFFFFFFFFFFF MUL NOT AND SWAP1 DUP4 PUSH20 0xFFFFFFFFFFFFFFFFFFFFFFFFFFFFFFFFFFFFFFFF AND MUL OR SWAP1 SSTORE POP PUSH1 0x80 DUP3 ADD MLOAD DUP2 PUSH1 0x4 ADD SSTORE SWAP1 POP POP PUSH1 0x9 CALLER SWAP1 DUP1 PUSH1 0x1 DUP2 SLOAD ADD DUP1 DUP3 SSTORE DUP1 SWAP2 POP POP PUSH1 0x1 SWAP1 SUB SWAP1 PUSH1 0x0 MSTORE PUSH1 0x20 PUSH1 0x0 KECCAK256 ADD PUSH1 0x0 SWAP1 SWAP2 SWAP1 SWAP2 SWAP1 SWAP2 PUSH2 0x100 EXP DUP2 SLOAD DUP2 PUSH20 0xFFFFFFFFFFFFFFFFFFFFFFFFFFFFFFFFFFFFFFFF MUL NOT AND SWAP1 DUP4 PUSH20 0xFFFFFFFFFFFFFFFFFFFFFFFFFFFFFFFFFFFFFFFF AND MUL OR SWAP1 SSTORE POP PUSH1 0x5 PUSH1 0x0 DUP2 SLOAD DUP1 SWAP3 SWAP2 SWAP1 PUSH2 0x1030 SWAP1 PUSH2 0x2700 JUMP JUMPDEST SWAP2 SWAP1 POP SSTORE POP PUSH32 0xA45D1AE6BE42A8B22C1641C21768B3BC0C668438EC620628D71AE5C171FC5D5F PUSH1 0x5 SLOAD DUP5 DUP5 CALLER DUP6 PUSH1 0x40 MLOAD PUSH2 0x106E SWAP6 SWAP5 SWAP4 SWAP3 SWAP2 SWAP1 PUSH2 0x22A6 JUMP JUMPDEST PUSH1 0x40 MLOAD DUP1 SWAP2 SUB SWAP1 LOG1 POP POP POP JUMP JUMPDEST PUSH1 0x6 SLOAD DUP2 JUMP JUMPDEST PUSH1 0x1 PUSH1 0x20 MSTORE DUP1 PUSH1 0x0 MSTORE PUSH1 0x40 PUSH1 0x0 KECCAK256 PUSH1 0x0 SWAP2 POP SWAP1 POP DUP1 PUSH1 0x0 ADD SLOAD SWAP1 DUP1 PUSH1 0x1 ADD DUP1 SLOAD PUSH2 0x10AA SWAP1 PUSH2 0x2671 JUMP JUMPDEST DUP1 PUSH1 0x1F ADD PUSH1 0x20 DUP1 SWAP2 DIV MUL PUSH1 0x20 ADD PUSH1 0x40 MLOAD SWAP1 DUP2 ADD PUSH1 0x40 MSTORE DUP1 SWAP3 SWAP2 SWAP1 DUP2 DUP2 MSTORE PUSH1 0x20 ADD DUP3 DUP1 SLOAD PUSH2 0x10D6 SWAP1 PUSH2 0x2671 JUMP JUMPDEST DUP1 ISZERO PUSH2 0x1123 JUMPI DUP1 PUSH1 0x1F LT PUSH2 0x10F8 JUMPI PUSH2 0x100 DUP1 DUP4 SLOAD DIV MUL DUP4 MSTORE SWAP2 PUSH1 0x20 ADD SWAP2 PUSH2 0x1123 JUMP JUMPDEST DUP3 ADD SWAP2 SWAP1 PUSH1 0x0 MSTORE PUSH1 0x20 PUSH1 0x0 KECCAK256 SWAP1 JUMPDEST DUP2 SLOAD DUP2 MSTORE SWAP1 PUSH1 0x1 ADD SWAP1 PUSH1 0x20 ADD DUP1 DUP4 GT PUSH2 0x1106 JUMPI DUP3 SWAP1 SUB PUSH1 0x1F AND DUP3 ADD SWAP2 JUMPDEST POP POP POP POP POP SWAP1 DUP1 PUSH1 0x2 ADD DUP1 SLOAD PUSH2 0x1138 SWAP1 PUSH2 0x2671 JUMP JUMPDEST DUP1 PUSH1 0x1F ADD PUSH1 0x20 DUP1 SWAP2 DIV MUL PUSH1 0x20 ADD PUSH1 0x40 MLOAD SWAP1 DUP2 ADD PUSH1 0x40 MSTORE DUP1 SWAP3 SWAP2 SWAP1 DUP2 DUP2 MSTORE PUSH1 0x20 ADD DUP3 DUP1 SLOAD PUSH2 0x1164 SWAP1 PUSH2 0x2671 JUMP JUMPDEST DUP1 ISZERO PUSH2 0x11B1 JUMPI DUP1 PUSH1 0x1F LT PUSH2 0x1186 JUMPI PUSH2 0x100 DUP1 DUP4 SLOAD DIV MUL DUP4 MSTORE SWAP2 PUSH1 0x20 ADD SWAP2 PUSH2 0x11B1 JUMP JUMPDEST DUP3 ADD SWAP2 SWAP1 PUSH1 0x0 MSTORE PUSH1 0x20 PUSH1 0x0 KECCAK256 SWAP1 JUMPDEST DUP2 SLOAD DUP2 MSTORE SWAP1 PUSH1 0x1 ADD SWAP1 PUSH1 0x20 ADD DUP1 DUP4 GT PUSH2 0x1194 JUMPI DUP3 SWAP1 SUB PUSH1 0x1F AND DUP3 ADD SWAP2 JUMPDEST POP POP POP POP POP SWAP1 DUP1 PUSH1 0x3 ADD PUSH1 0x0 SWAP1 SLOAD SWAP1 PUSH2 0x100 EXP SWAP1 DIV PUSH20 0xFFFFFFFFFFFFFFFFFFFFFFFFFFFFFFFFFFFFFFFF AND SWAP1 DUP1 PUSH1 0x4 ADD SLOAD SWAP1 POP DUP6 JUMP JUMPDEST PUSH1 0x0 DUP1 DUP3 LT ISZERO DUP1 ISZERO PUSH2 0x11FB JUMPI POP PUSH1 0x8 SLOAD DUP3 GT ISZERO JUMPDEST SWAP1 POP SWAP2 SWAP1 POP JUMP JUMPDEST PUSH1 0x0 DUP1 PUSH1 0x0 SWAP1 POP JUMPDEST PUSH1 0x5 SLOAD DUP2 LT ISZERO PUSH2 0x12A2 JUMPI CALLER PUSH20 0xFFFFFFFFFFFFFFFFFFFFFFFFFFFFFFFFFFFFFFFF AND PUSH1 0x9 DUP3 DUP2 SLOAD DUP2 LT PUSH2 0x123F JUMPI PUSH2 0x123E PUSH2 0x26A2 JUMP JUMPDEST JUMPDEST SWAP1 PUSH1 0x0 MSTORE PUSH1 0x20 PUSH1 0x0 KECCAK256 ADD PUSH1 0x0 SWAP1 SLOAD SWAP1 PUSH2 0x100 EXP SWAP1 DIV PUSH20 0xFFFFFFFFFFFFFFFFFFFFFFFFFFFFFFFFFFFFFFFF AND PUSH20 0xFFFFFFFFFFFFFFFFFFFFFFFFFFFFFFFFFFFFFFFF AND SUB PUSH2 0x128F JUMPI PUSH1 0x0 SWAP2 POP POP PUSH2 0x12A8 JUMP JUMPDEST DUP1 DUP1 PUSH2 0x129A SWAP1 PUSH2 0x2700 JUMP JUMPDEST SWAP2 POP POP PUSH2 0x120A JUMP JUMPDEST POP PUSH1 0x1 SWAP1 POP JUMPDEST SWAP1 JUMP JUMPDEST PUSH1 0x4 PUSH1 0x20 MSTORE DUP1 PUSH1 0x0 MSTORE PUSH1 0x40 PUSH1 0x0 KECCAK256 PUSH1 0x0 SWAP2 POP SWAP1 POP DUP1 PUSH1 0x0 ADD SLOAD SWAP1 DUP1 PUSH1 0x1 ADD DUP1 SLOAD PUSH2 0x12D4 SWAP1 PUSH2 0x2671 JUMP JUMPDEST DUP1 PUSH1 0x1F ADD PUSH1 0x20 DUP1 SWAP2 DIV MUL PUSH1 0x20 ADD PUSH1 0x40 MLOAD SWAP1 DUP2 ADD PUSH1 0x40 MSTORE DUP1 SWAP3 SWAP2 SWAP1 DUP2 DUP2 MSTORE PUSH1 0x20 ADD DUP3 DUP1 SLOAD PUSH2 0x1300 SWAP1 PUSH2 0x2671 JUMP JUMPDEST DUP1 ISZERO PUSH2 0x134D JUMPI DUP1 PUSH1 0x1F LT PUSH2 0x1322 JUMPI PUSH2 0x100 DUP1 DUP4 SLOAD DIV MUL DUP4 MSTORE SWAP2 PUSH1 0x20 ADD SWAP2 PUSH2 0x134D JUMP JUMPDEST DUP3 ADD SWAP2 SWAP1 PUSH1 0x0 MSTORE PUSH1 0x20 PUSH1 0x0 KECCAK256 SWAP1 JUMPDEST DUP2 SLOAD DUP2 MSTORE SWAP1 PUSH1 0x1 ADD SWAP1 PUSH1 0x20 ADD DUP1 DUP4 GT PUSH2 0x1330 JUMPI DUP3 SWAP1 SUB PUSH1 0x1F AND DUP3 ADD SWAP2 JUMPDEST POP POP POP POP POP SWAP1 DUP1 PUSH1 0x2 ADD DUP1 SLOAD PUSH2 0x1362 SWAP1 PUSH2 0x2671 JUMP JUMPDEST DUP1 PUSH1 0x1F ADD PUSH1 0x20 DUP1 SWAP2 DIV MUL PUSH1 0x20 ADD PUSH1 0x40 MLOAD SWAP1 DUP2 ADD PUSH1 0x40 MSTORE DUP1 SWAP3 SWAP2 SWAP1 DUP2 DUP2 MSTORE PUSH1 0x20 ADD DUP3 DUP1 SLOAD PUSH2 0x138E SWAP1 PUSH2 0x2671 JUMP JUMPDEST DUP1 ISZERO PUSH2 0x13DB JUMPI DUP1 PUSH1 0x1F LT PUSH2 0x13B0 JUMPI PUSH2 0x100 DUP1 DUP4 SLOAD DIV MUL DUP4 MSTORE SWAP2 PUSH1 0x20 ADD SWAP2 PUSH2 0x13DB JUMP JUMPDEST DUP3 ADD SWAP2 SWAP1 PUSH1 0x0 MSTORE PUSH1 0x20 PUSH1 0x0 KECCAK256 SWAP1 JUMPDEST DUP2 SLOAD DUP2 MSTORE SWAP1 PUSH1 0x1 ADD SWAP1 PUSH1 0x20 ADD DUP1 DUP4 GT PUSH2 0x13BE JUMPI DUP3 SWAP1 SUB PUSH1 0x1F AND DUP3 ADD SWAP2 JUMPDEST POP POP POP POP POP SWAP1 POP DUP4 JUMP JUMPDEST PUSH1 0x3 PUSH1 0x20 MSTORE DUP1 PUSH1 0x0 MSTORE PUSH1 0x40 PUSH1 0x0 KECCAK256 PUSH1 0x0 SWAP2 POP SWAP1 POP DUP1 PUSH1 0x0 ADD SLOAD SWAP1 DUP1 PUSH1 0x1 ADD DUP1 SLOAD PUSH2 0x140E SWAP1 PUSH2 0x2671 JUMP JUMPDEST DUP1 PUSH1 0x1F ADD PUSH1 0x20 DUP1 SWAP2 DIV MUL PUSH1 0x20 ADD PUSH1 0x40 MLOAD SWAP1 DUP2 ADD PUSH1 0x40 MSTORE DUP1 SWAP3 SWAP2 SWAP1 DUP2 DUP2 MSTORE PUSH1 0x20 ADD DUP3 DUP1 SLOAD PUSH2 0x143A SWAP1 PUSH2 0x2671 JUMP JUMPDEST DUP1 ISZERO PUSH2 0x1487 JUMPI DUP1 PUSH1 0x1F LT PUSH2 0x145C JUMPI PUSH2 0x100 DUP1 DUP4 SLOAD DIV MUL DUP4 MSTORE SWAP2 PUSH1 0x20 ADD SWAP2 PUSH2 0x1487 JUMP JUMPDEST DUP3 ADD SWAP2 SWAP1 PUSH1 0x0 MSTORE PUSH1 0x20 PUSH1 0x0 KECCAK256 SWAP1 JUMPDEST DUP2 SLOAD DUP2 MSTORE SWAP1 PUSH1 0x1 ADD SWAP1 PUSH1 0x20 ADD DUP1 DUP4 GT PUSH2 0x146A JUMPI DUP3 SWAP1 SUB PUSH1 0x1F AND DUP3 ADD SWAP2 JUMPDEST POP POP POP POP POP SWAP1 DUP1 PUSH1 0x2 ADD SLOAD SWAP1 DUP1 PUSH1 0x3 ADD SLOAD SWAP1 DUP1 PUSH1 0x4 ADD SLOAD SWAP1 POP DUP6 JUMP JUMPDEST PUSH1 0x60 PUSH1 0x0 PUSH1 0x8 SLOAD PUSH8 0xFFFFFFFFFFFFFFFF DUP2 GT ISZERO PUSH2 0x14C3 JUMPI PUSH2 0x14C2 PUSH2 0x1FCB JUMP JUMPDEST JUMPDEST PUSH1 0x40 MLOAD SWAP1 DUP1 DUP3 MSTORE DUP1 PUSH1 0x20 MUL PUSH1 0x20 ADD DUP3 ADD PUSH1 0x40 MSTORE DUP1 ISZERO PUSH2 0x14FC JUMPI DUP2 PUSH1 0x20 ADD JUMPDEST PUSH2 0x14E9 PUSH2 0x1A04 JUMP JUMPDEST DUP2 MSTORE PUSH1 0x20 ADD SWAP1 PUSH1 0x1 SWAP1 SUB SWAP1 DUP2 PUSH2 0x14E1 JUMPI SWAP1 POP JUMPDEST POP SWAP1 POP PUSH1 0x0 PUSH1 0x1 SWAP1 POP JUMPDEST PUSH1 0x8 SLOAD DUP2 GT PUSH2 0x1698 JUMPI PUSH1 0x4 PUSH1 0x0 DUP3 DUP2 MSTORE PUSH1 0x20 ADD SWAP1 DUP2 MSTORE PUSH1 0x20 ADD PUSH1 0x0 KECCAK256 PUSH1 0x40 MLOAD DUP1 PUSH1 0x60 ADD PUSH1 0x40 MSTORE SWAP1 DUP2 PUSH1 0x0 DUP3 ADD SLOAD DUP2 MSTORE PUSH1 0x20 ADD PUSH1 0x1 DUP3 ADD DUP1 SLOAD PUSH2 0x1547 SWAP1 PUSH2 0x2671 JUMP JUMPDEST DUP1 PUSH1 0x1F ADD PUSH1 0x20 DUP1 SWAP2 DIV MUL PUSH1 0x20 ADD PUSH1 0x40 MLOAD SWAP1 DUP2 ADD PUSH1 0x40 MSTORE DUP1 SWAP3 SWAP2 SWAP1 DUP2 DUP2 MSTORE PUSH1 0x20 ADD DUP3 DUP1 SLOAD PUSH2 0x1573 SWAP1 PUSH2 0x2671 JUMP JUMPDEST DUP1 ISZERO PUSH2 0x15C0 JUMPI DUP1 PUSH1 0x1F LT PUSH2 0x1595 JUMPI PUSH2 0x100 DUP1 DUP4 SLOAD DIV MUL DUP4 MSTORE SWAP2 PUSH1 0x20 ADD SWAP2 PUSH2 0x15C0 JUMP JUMPDEST DUP3 ADD SWAP2 SWAP1 PUSH1 0x0 MSTORE PUSH1 0x20 PUSH1 0x0 KECCAK256 SWAP1 JUMPDEST DUP2 SLOAD DUP2 MSTORE SWAP1 PUSH1 0x1 ADD SWAP1 PUSH1 0x20 ADD DUP1 DUP4 GT PUSH2 0x15A3 JUMPI DUP3 SWAP1 SUB PUSH1 0x1F AND DUP3 ADD SWAP2 JUMPDEST POP POP POP POP POP DUP2 MSTORE PUSH1 0x20 ADD PUSH1 0x2 DUP3 ADD DUP1 SLOAD PUSH2 0x15D9 SWAP1 PUSH2 0x2671 JUMP JUMPDEST DUP1 PUSH1 0x1F ADD PUSH1 0x20 DUP1 SWAP2 DIV MUL PUSH1 0x20 ADD PUSH1 0x40 MLOAD SWAP1 DUP2 ADD PUSH1 0x40 MSTORE DUP1 SWAP3 SWAP2 SWAP1 DUP2 DUP2 MSTORE PUSH1 0x20 ADD DUP3 DUP1 SLOAD PUSH2 0x1605 SWAP1 PUSH2 0x2671 JUMP JUMPDEST DUP1 ISZERO PUSH2 0x1652 JUMPI DUP1 PUSH1 0x1F LT PUSH2 0x1627 JUMPI PUSH2 0x100 DUP1 DUP4 SLOAD DIV MUL DUP4 MSTORE SWAP2 PUSH1 0x20 ADD SWAP2 PUSH2 0x1652 JUMP JUMPDEST DUP3 ADD SWAP2 SWAP1 PUSH1 0x0 MSTORE PUSH1 0x20 PUSH1 0x0 KECCAK256 SWAP1 JUMPDEST DUP2 SLOAD DUP2 MSTORE SWAP1 PUSH1 0x1 ADD SWAP1 PUSH1 0x20 ADD DUP1 DUP4 GT PUSH2 0x1635 JUMPI DUP3 SWAP1 SUB PUSH1 0x1F AND DUP3 ADD SWAP2 JUMPDEST POP POP POP POP POP DUP2 MSTORE POP POP DUP3 PUSH1 0x1 DUP4 PUSH2 0x1669 SWAP2 SWAP1 PUSH2 0x2C08 JUMP JUMPDEST DUP2 MLOAD DUP2 LT PUSH2 0x167A JUMPI PUSH2 0x1679 PUSH2 0x26A2 JUMP JUMPDEST JUMPDEST PUSH1 0x20 MUL PUSH1 0x20 ADD ADD DUP2 SWAP1 MSTORE POP DUP1 DUP1 PUSH2 0x1690 SWAP1 PUSH2 0x2700 JUMP JUMPDEST SWAP2 POP POP PUSH2 0x1506 JUMP JUMPDEST POP DUP1 SWAP2 POP POP SWAP1 JUMP JUMPDEST PUSH1 0x60 PUSH1 0x0 PUSH1 0x5 SLOAD PUSH8 0xFFFFFFFFFFFFFFFF DUP2 GT ISZERO PUSH2 0x16C0 JUMPI PUSH2 0x16BF PUSH2 0x1FCB JUMP JUMPDEST JUMPDEST PUSH1 0x40 MLOAD SWAP1 DUP1 DUP3 MSTORE DUP1 PUSH1 0x20 MUL PUSH1 0x20 ADD DUP3 ADD PUSH1 0x40 MSTORE DUP1 ISZERO PUSH2 0x16F9 JUMPI DUP2 PUSH1 0x20 ADD JUMPDEST PUSH2 0x16E6 PUSH2 0x1A25 JUMP JUMPDEST DUP2 MSTORE PUSH1 0x20 ADD SWAP1 PUSH1 0x1 SWAP1 SUB SWAP1 DUP2 PUSH2 0x16DE JUMPI SWAP1 POP JUMPDEST POP SWAP1 POP PUSH1 0x0 JUMPDEST PUSH1 0x5 SLOAD DUP2 LT ISZERO PUSH2 0x1950 JUMPI PUSH1 0x1 PUSH1 0x0 PUSH1 0x9 DUP4 DUP2 SLOAD DUP2 LT PUSH2 0x1721 JUMPI PUSH2 0x1720 PUSH2 0x26A2 JUMP JUMPDEST JUMPDEST SWAP1 PUSH1 0x0 MSTORE PUSH1 0x20 PUSH1 0x0 KECCAK256 ADD PUSH1 0x0 SWAP1 SLOAD SWAP1 PUSH2 0x100 EXP SWAP1 DIV PUSH20 0xFFFFFFFFFFFFFFFFFFFFFFFFFFFFFFFFFFFFFFFF AND PUSH20 0xFFFFFFFFFFFFFFFFFFFFFFFFFFFFFFFFFFFFFFFF AND PUSH20 0xFFFFFFFFFFFFFFFFFFFFFFFFFFFFFFFFFFFFFFFF AND DUP2 MSTORE PUSH1 0x20 ADD SWAP1 DUP2 MSTORE PUSH1 0x20 ADD PUSH1 0x0 KECCAK256 PUSH1 0x40 MLOAD DUP1 PUSH1 0xA0 ADD PUSH1 0x40 MSTORE SWAP1 DUP2 PUSH1 0x0 DUP3 ADD SLOAD DUP2 MSTORE PUSH1 0x20 ADD PUSH1 0x1 DUP3 ADD DUP1 SLOAD PUSH2 0x17AB SWAP1 PUSH2 0x2671 JUMP JUMPDEST DUP1 PUSH1 0x1F ADD PUSH1 0x20 DUP1 SWAP2 DIV MUL PUSH1 0x20 ADD PUSH1 0x40 MLOAD SWAP1 DUP2 ADD PUSH1 0x40 MSTORE DUP1 SWAP3 SWAP2 SWAP1 DUP2 DUP2 MSTORE PUSH1 0x20 ADD DUP3 DUP1 SLOAD PUSH2 0x17D7 SWAP1 PUSH2 0x2671 JUMP JUMPDEST DUP1 ISZERO PUSH2 0x1824 JUMPI DUP1 PUSH1 0x1F LT PUSH2 0x17F9 JUMPI PUSH2 0x100 DUP1 DUP4 SLOAD DIV MUL DUP4 MSTORE SWAP2 PUSH1 0x20 ADD SWAP2 PUSH2 0x1824 JUMP JUMPDEST DUP3 ADD SWAP2 SWAP1 PUSH1 0x0 MSTORE PUSH1 0x20 PUSH1 0x0 KECCAK256 SWAP1 JUMPDEST DUP2 SLOAD DUP2 MSTORE SWAP1 PUSH1 0x1 ADD SWAP1 PUSH1 0x20 ADD DUP1 DUP4 GT PUSH2 0x1807 JUMPI DUP3 SWAP1 SUB PUSH1 0x1F AND DUP3 ADD SWAP2 JUMPDEST POP POP POP POP POP DUP2 MSTORE PUSH1 0x20 ADD PUSH1 0x2 DUP3 ADD DUP1 SLOAD PUSH2 0x183D SWAP1 PUSH2 0x2671 JUMP JUMPDEST DUP1 PUSH1 0x1F ADD PUSH1 0x20 DUP1 SWAP2 DIV MUL PUSH1 0x20 ADD PUSH1 0x40 MLOAD SWAP1 DUP2 ADD PUSH1 0x40 MSTORE DUP1 SWAP3 SWAP2 SWAP1 DUP2 DUP2 MSTORE PUSH1 0x20 ADD DUP3 DUP1 SLOAD PUSH2 0x1869 SWAP1 PUSH2 0x2671 JUMP JUMPDEST DUP1 ISZERO PUSH2 0x18B6 JUMPI DUP1 PUSH1 0x1F LT PUSH2 0x188B JUMPI PUSH2 0x100 DUP1 DUP4 SLOAD DIV MUL DUP4 MSTORE SWAP2 PUSH1 0x20 ADD SWAP2 PUSH2 0x18B6 JUMP JUMPDEST DUP3 ADD SWAP2 SWAP1 PUSH1 0x0 MSTORE PUSH1 0x20 PUSH1 0x0 KECCAK256 SWAP1 JUMPDEST DUP2 SLOAD DUP2 MSTORE SWAP1 PUSH1 0x1 ADD SWAP1 PUSH1 0x20 ADD DUP1 DUP4 GT PUSH2 0x1899 JUMPI DUP3 SWAP1 SUB PUSH1 0x1F AND DUP3 ADD SWAP2 JUMPDEST POP POP POP POP POP DUP2 MSTORE PUSH1 0x20 ADD PUSH1 0x3 DUP3 ADD PUSH1 0x0 SWAP1 SLOAD SWAP1 PUSH2 0x100 EXP SWAP1 DIV PUSH20 0xFFFFFFFFFFFFFFFFFFFFFFFFFFFFFFFFFFFFFFFF AND PUSH20 0xFFFFFFFFFFFFFFFFFFFFFFFFFFFFFFFFFFFFFFFF AND PUSH20 0xFFFFFFFFFFFFFFFFFFFFFFFFFFFFFFFFFFFFFFFF AND DUP2 MSTORE PUSH1 0x20 ADD PUSH1 0x4 DUP3 ADD SLOAD DUP2 MSTORE POP POP DUP3 DUP3 DUP2 MLOAD DUP2 LT PUSH2 0x1932 JUMPI PUSH2 0x1931 PUSH2 0x26A2 JUMP JUMPDEST JUMPDEST PUSH1 0x20 MUL PUSH1 0x20 ADD ADD DUP2 SWAP1 MSTORE POP DUP1 DUP1 PUSH2 0x1948 SWAP1 PUSH2 0x2700 JUMP JUMPDEST SWAP2 POP POP PUSH2 0x16FF JUMP JUMPDEST POP DUP1 SWAP2 POP POP SWAP1 JUMP JUMPDEST PUSH1 0x40 MLOAD DUP1 PUSH1 0xE0 ADD PUSH1 0x40 MSTORE DUP1 PUSH1 0x0 DUP2 MSTORE PUSH1 0x20 ADD PUSH1 0x60 DUP2 MSTORE PUSH1 0x20 ADD PUSH1 0x0 DUP2 MSTORE PUSH1 0x20 ADD PUSH1 0x0 PUSH20 0xFFFFFFFFFFFFFFFFFFFFFFFFFFFFFFFFFFFFFFFF AND DUP2 MSTORE PUSH1 0x20 ADD PUSH1 0x60 DUP2 MSTORE PUSH1 0x20 ADD PUSH1 0x60 DUP2 MSTORE PUSH1 0x20 ADD PUSH1 0x60 DUP2 MSTORE POP SWAP1 JUMP JUMPDEST DUP3 DUP1 SLOAD DUP3 DUP3 SSTORE SWAP1 PUSH1 0x0 MSTORE PUSH1 0x20 PUSH1 0x0 KECCAK256 SWAP1 DUP2 ADD SWAP3 DUP3 ISZERO PUSH2 0x19F3 JUMPI SWAP2 PUSH1 0x20 MUL DUP3 ADD JUMPDEST DUP3 DUP2 GT ISZERO PUSH2 0x19F2 JUMPI DUP3 MLOAD DUP3 SWAP1 DUP2 PUSH2 0x19E2 SWAP2 SWAP1 PUSH2 0x2960 JUMP JUMPDEST POP SWAP2 PUSH1 0x20 ADD SWAP2 SWAP1 PUSH1 0x1 ADD SWAP1 PUSH2 0x19CB JUMP JUMPDEST JUMPDEST POP SWAP1 POP PUSH2 0x1A00 SWAP2 SWAP1 PUSH2 0x1A6A JUMP JUMPDEST POP SWAP1 JUMP JUMPDEST PUSH1 0x40 MLOAD DUP1 PUSH1 0x60 ADD PUSH1 0x40 MSTORE DUP1 PUSH1 0x0 DUP2 MSTORE PUSH1 0x20 ADD PUSH1 0x60 DUP2 MSTORE PUSH1 0x20 ADD PUSH1 0x60 DUP2 MSTORE POP SWAP1 JUMP JUMPDEST PUSH1 0x40 MLOAD DUP1 PUSH1 0xA0 ADD PUSH1 0x40 MSTORE DUP1 PUSH1 0x0 DUP2 MSTORE PUSH1 0x20 ADD PUSH1 0x60 DUP2 MSTORE PUSH1 0x20 ADD PUSH1 0x60 DUP2 MSTORE PUSH1 0x20 ADD PUSH1 0x0 PUSH20 0xFFFFFFFFFFFFFFFFFFFFFFFFFFFFFFFFFFFFFFFF AND DUP2 MSTORE PUSH1 0x20 ADD PUSH1 0x0 DUP2 MSTORE POP SWAP1 JUMP JUMPDEST JUMPDEST DUP1 DUP3 GT ISZERO PUSH2 0x1A8A JUMPI PUSH1 0x0 DUP2 DUP2 PUSH2 0x1A81 SWAP2 SWAP1 PUSH2 0x1A8E JUMP JUMPDEST POP PUSH1 0x1 ADD PUSH2 0x1A6B JUMP JUMPDEST POP SWAP1 JUMP JUMPDEST POP DUP1 SLOAD PUSH2 0x1A9A SWAP1 PUSH2 0x2671 JUMP JUMPDEST PUSH1 0x0 DUP3 SSTORE DUP1 PUSH1 0x1F LT PUSH2 0x1AAC JUMPI POP PUSH2 0x1ACB JUMP JUMPDEST PUSH1 0x1F ADD PUSH1 0x20 SWAP1 DIV SWAP1 PUSH1 0x0 MSTORE PUSH1 0x20 PUSH1 0x0 KECCAK256 SWAP1 DUP2 ADD SWAP1 PUSH2 0x1ACA SWAP2 SWAP1 PUSH2 0x1ACE JUMP JUMPDEST JUMPDEST POP JUMP JUMPDEST JUMPDEST DUP1 DUP3 GT ISZERO PUSH2 0x1AE7 JUMPI PUSH1 0x0 DUP2 PUSH1 0x0 SWAP1 SSTORE POP PUSH1 0x1 ADD PUSH2 0x1ACF JUMP JUMPDEST POP SWAP1 JUMP JUMPDEST PUSH1 0x0 PUSH1 0x40 MLOAD SWAP1 POP SWAP1 JUMP JUMPDEST PUSH1 0x0 DUP1 REVERT JUMPDEST PUSH1 0x0 DUP1 REVERT JUMPDEST PUSH1 0x0 DUP2 SWAP1 POP SWAP2 SWAP1 POP JUMP JUMPDEST PUSH2 0x1B12 DUP2 PUSH2 0x1AFF JUMP JUMPDEST DUP2 EQ PUSH2 0x1B1D JUMPI PUSH1 0x0 DUP1 REVERT JUMPDEST POP JUMP JUMPDEST PUSH1 0x0 DUP2 CALLDATALOAD SWAP1 POP PUSH2 0x1B2F DUP2 PUSH2 0x1B09 JUMP JUMPDEST SWAP3 SWAP2 POP POP JUMP JUMPDEST PUSH1 0x0 PUSH1 0x20 DUP3 DUP5 SUB SLT ISZERO PUSH2 0x1B4B JUMPI PUSH2 0x1B4A PUSH2 0x1AF5 JUMP JUMPDEST JUMPDEST PUSH1 0x0 PUSH2 0x1B59 DUP5 DUP3 DUP6 ADD PUSH2 0x1B20 JUMP JUMPDEST SWAP2 POP POP SWAP3 SWAP2 POP POP JUMP JUMPDEST PUSH1 0x0 PUSH20 0xFFFFFFFFFFFFFFFFFFFFFFFFFFFFFFFFFFFFFFFF DUP3 AND SWAP1 POP SWAP2 SWAP1 POP JUMP JUMPDEST PUSH1 0x0 PUSH2 0x1B8D DUP3 PUSH2 0x1B62 JUMP JUMPDEST SWAP1 POP SWAP2 SWAP1 POP JUMP JUMPDEST PUSH2 0x1B9D DUP2 PUSH2 0x1B82 JUMP JUMPDEST DUP3 MSTORE POP POP JUMP JUMPDEST PUSH1 0x0 PUSH1 0x20 DUP3 ADD SWAP1 POP PUSH2 0x1BB8 PUSH1 0x0 DUP4 ADD DUP5 PUSH2 0x1B94 JUMP JUMPDEST SWAP3 SWAP2 POP POP JUMP JUMPDEST PUSH2 0x1BC7 DUP2 PUSH2 0x1B82 JUMP JUMPDEST DUP2 EQ PUSH2 0x1BD2 JUMPI PUSH1 0x0 DUP1 REVERT JUMPDEST POP JUMP JUMPDEST PUSH1 0x0 DUP2 CALLDATALOAD SWAP1 POP PUSH2 0x1BE4 DUP2 PUSH2 0x1BBE JUMP JUMPDEST SWAP3 SWAP2 POP POP JUMP JUMPDEST PUSH1 0x0 PUSH1 0x20 DUP3 DUP5 SUB SLT ISZERO PUSH2 0x1C00 JUMPI PUSH2 0x1BFF PUSH2 0x1AF5 JUMP JUMPDEST JUMPDEST PUSH1 0x0 PUSH2 0x1C0E DUP5 DUP3 DUP6 ADD PUSH2 0x1BD5 JUMP JUMPDEST SWAP2 POP POP SWAP3 SWAP2 POP POP JUMP JUMPDEST PUSH2 0x1C20 DUP2 PUSH2 0x1AFF JUMP JUMPDEST DUP3 MSTORE POP POP JUMP JUMPDEST PUSH1 0x0 DUP2 MLOAD SWAP1 POP SWAP2 SWAP1 POP JUMP JUMPDEST PUSH1 0x0 DUP3 DUP3 MSTORE PUSH1 0x20 DUP3 ADD SWAP1 POP SWAP3 SWAP2 POP POP JUMP JUMPDEST PUSH1 0x0 JUMPDEST DUP4 DUP2 LT ISZERO PUSH2 0x1C60 JUMPI DUP1 DUP3 ADD MLOAD DUP2 DUP5 ADD MSTORE PUSH1 0x20 DUP2 ADD SWAP1 POP PUSH2 0x1C45 JUMP JUMPDEST PUSH1 0x0 DUP5 DUP5 ADD MSTORE POP POP POP POP JUMP JUMPDEST PUSH1 0x0 PUSH1 0x1F NOT PUSH1 0x1F DUP4 ADD AND SWAP1 POP SWAP2 SWAP1 POP JUMP JUMPDEST PUSH1 0x0 PUSH2 0x1C88 DUP3 PUSH2 0x1C26 JUMP JUMPDEST PUSH2 0x1C92 DUP2 DUP6 PUSH2 0x1C31 JUMP JUMPDEST SWAP4 POP PUSH2 0x1CA2 DUP2 DUP6 PUSH1 0x20 DUP7 ADD PUSH2 0x1C42 JUMP JUMPDEST PUSH2 0x1CAB DUP2 PUSH2 0x1C6C JUMP JUMPDEST DUP5 ADD SWAP2 POP POP SWAP3 SWAP2 POP POP JUMP JUMPDEST PUSH1 0x0 PUSH1 0x80 DUP3 ADD SWAP1 POP PUSH2 0x1CCB PUSH1 0x0 DUP4 ADD DUP8 PUSH2 0x1C17 JUMP JUMPDEST DUP2 DUP2 SUB PUSH1 0x20 DUP4 ADD MSTORE PUSH2 0x1CDD DUP2 DUP7 PUSH2 0x1C7D JUMP JUMPDEST SWAP1 POP PUSH2 0x1CEC PUSH1 0x40 DUP4 ADD DUP6 PUSH2 0x1C17 JUMP JUMPDEST PUSH2 0x1CF9 PUSH1 0x60 DUP4 ADD DUP5 PUSH2 0x1B94 JUMP JUMPDEST SWAP6 SWAP5 POP POP POP POP POP JUMP JUMPDEST PUSH1 0x0 DUP2 MLOAD SWAP1 POP SWAP2 SWAP1 POP JUMP JUMPDEST PUSH1 0x0 DUP3 DUP3 MSTORE PUSH1 0x20 DUP3 ADD SWAP1 POP SWAP3 SWAP2 POP POP JUMP JUMPDEST PUSH1 0x0 DUP2 SWAP1 POP PUSH1 0x20 DUP3 ADD SWAP1 POP SWAP2 SWAP1 POP JUMP JUMPDEST PUSH2 0x1D37 DUP2 PUSH2 0x1AFF JUMP JUMPDEST DUP3 MSTORE POP POP JUMP JUMPDEST PUSH1 0x0 DUP3 DUP3 MSTORE PUSH1 0x20 DUP3 ADD SWAP1 POP SWAP3 SWAP2 POP POP JUMP JUMPDEST PUSH1 0x0 PUSH2 0x1D59 DUP3 PUSH2 0x1C26 JUMP JUMPDEST PUSH2 0x1D63 DUP2 DUP6 PUSH2 0x1D3D JUMP JUMPDEST SWAP4 POP PUSH2 0x1D73 DUP2 DUP6 PUSH1 0x20 DUP7 ADD PUSH2 0x1C42 JUMP JUMPDEST PUSH2 0x1D7C DUP2 PUSH2 0x1C6C JUMP JUMPDEST DUP5 ADD SWAP2 POP POP SWAP3 SWAP2 POP POP JUMP JUMPDEST PUSH2 0x1D90 DUP2 PUSH2 0x1B82 JUMP JUMPDEST DUP3 MSTORE POP POP JUMP JUMPDEST PUSH1 0x0 DUP2 MLOAD SWAP1 POP SWAP2 SWAP1 POP JUMP JUMPDEST PUSH1 0x0 DUP3 DUP3 MSTORE PUSH1 0x20 DUP3 ADD SWAP1 POP SWAP3 SWAP2 POP POP JUMP JUMPDEST PUSH1 0x0 DUP2 SWAP1 POP PUSH1 0x20 DUP3 ADD SWAP1 POP SWAP2 SWAP1 POP JUMP JUMPDEST PUSH1 0x0 PUSH2 0x1DCE DUP4 DUP4 PUSH2 0x1D4E JUMP JUMPDEST SWAP1 POP SWAP3 SWAP2 POP POP JUMP JUMPDEST PUSH1 0x0 PUSH1 0x20 DUP3 ADD SWAP1 POP SWAP2 SWAP1 POP JUMP JUMPDEST PUSH1 0x0 PUSH2 0x1DEE DUP3 PUSH2 0x1D96 JUMP JUMPDEST PUSH2 0x1DF8 DUP2 DUP6 PUSH2 0x1DA1 JUMP JUMPDEST SWAP4 POP DUP4 PUSH1 0x20 DUP3 MUL DUP6 ADD PUSH2 0x1E0A DUP6 PUSH2 0x1DB2 JUMP JUMPDEST DUP1 PUSH1 0x0 JUMPDEST DUP6 DUP2 LT ISZERO PUSH2 0x1E46 JUMPI DUP5 DUP5 SUB DUP10 MSTORE DUP2 MLOAD PUSH2 0x1E27 DUP6 DUP3 PUSH2 0x1DC2 JUMP JUMPDEST SWAP5 POP PUSH2 0x1E32 DUP4 PUSH2 0x1DD6 JUMP JUMPDEST SWAP3 POP PUSH1 0x20 DUP11 ADD SWAP10 POP POP PUSH1 0x1 DUP2 ADD SWAP1 POP PUSH2 0x1E0E JUMP JUMPDEST POP DUP3 SWAP8 POP DUP8 SWAP6 POP POP POP POP POP POP SWAP3 SWAP2 POP POP JUMP JUMPDEST PUSH1 0x0 PUSH1 0xE0 DUP4 ADD PUSH1 0x0 DUP4 ADD MLOAD PUSH2 0x1E70 PUSH1 0x0 DUP7 ADD DUP3 PUSH2 0x1D2E JUMP JUMPDEST POP PUSH1 0x20 DUP4 ADD MLOAD DUP5 DUP3 SUB PUSH1 0x20 DUP7 ADD MSTORE PUSH2 0x1E88 DUP3 DUP3 PUSH2 0x1D4E JUMP JUMPDEST SWAP2 POP POP PUSH1 0x40 DUP4 ADD MLOAD PUSH2 0x1E9D PUSH1 0x40 DUP7 ADD DUP3 PUSH2 0x1D2E JUMP JUMPDEST POP PUSH1 0x60 DUP4 ADD MLOAD PUSH2 0x1EB0 PUSH1 0x60 DUP7 ADD DUP3 PUSH2 0x1D87 JUMP JUMPDEST POP PUSH1 0x80 DUP4 ADD MLOAD DUP5 DUP3 SUB PUSH1 0x80 DUP7 ADD MSTORE PUSH2 0x1EC8 DUP3 DUP3 PUSH2 0x1DE3 JUMP JUMPDEST SWAP2 POP POP PUSH1 0xA0 DUP4 ADD MLOAD DUP5 DUP3 SUB PUSH1 0xA0 DUP7 ADD MSTORE PUSH2 0x1EE2 DUP3 DUP3 PUSH2 0x1DE3 JUMP JUMPDEST SWAP2 POP POP PUSH1 0xC0 DUP4 ADD MLOAD DUP5 DUP3 SUB PUSH1 0xC0 DUP7 ADD MSTORE PUSH2 0x1EFC DUP3 DUP3 PUSH2 0x1DE3 JUMP JUMPDEST SWAP2 POP POP DUP1 SWAP2 POP POP SWAP3 SWAP2 POP POP JUMP JUMPDEST PUSH1 0x0 PUSH2 0x1F15 DUP4 DUP4 PUSH2 0x1E58 JUMP JUMPDEST SWAP1 POP SWAP3 SWAP2 POP POP JUMP JUMPDEST PUSH1 0x0 PUSH1 0x20 DUP3 ADD SWAP1 POP SWAP2 SWAP1 POP JUMP JUMPDEST PUSH1 0x0 PUSH2 0x1F35 DUP3 PUSH2 0x1D02 JUMP JUMPDEST PUSH2 0x1F3F DUP2 DUP6 PUSH2 0x1D0D JUMP JUMPDEST SWAP4 POP DUP4 PUSH1 0x20 DUP3 MUL DUP6 ADD PUSH2 0x1F51 DUP6 PUSH2 0x1D1E JUMP JUMPDEST DUP1 PUSH1 0x0 JUMPDEST DUP6 DUP2 LT ISZERO PUSH2 0x1F8D JUMPI DUP5 DUP5 SUB DUP10 MSTORE DUP2 MLOAD PUSH2 0x1F6E DUP6 DUP3 PUSH2 0x1F09 JUMP JUMPDEST SWAP5 POP PUSH2 0x1F79 DUP4 PUSH2 0x1F1D JUMP JUMPDEST SWAP3 POP PUSH1 0x20 DUP11 ADD SWAP10 POP POP PUSH1 0x1 DUP2 ADD SWAP1 POP PUSH2 0x1F55 JUMP JUMPDEST POP DUP3 SWAP8 POP DUP8 SWAP6 POP POP POP POP POP POP SWAP3 SWAP2 POP POP JUMP JUMPDEST PUSH1 0x0 PUSH1 0x20 DUP3 ADD SWAP1 POP DUP2 DUP2 SUB PUSH1 0x0 DUP4 ADD MSTORE PUSH2 0x1FB9 DUP2 DUP5 PUSH2 0x1F2A JUMP JUMPDEST SWAP1 POP SWAP3 SWAP2 POP POP JUMP JUMPDEST PUSH1 0x0 DUP1 REVERT JUMPDEST PUSH1 0x0 DUP1 REVERT JUMPDEST PUSH32 0x4E487B7100000000000000000000000000000000000000000000000000000000 PUSH1 0x0 MSTORE PUSH1 0x41 PUSH1 0x4 MSTORE PUSH1 0x24 PUSH1 0x0 REVERT JUMPDEST PUSH2 0x2003 DUP3 PUSH2 0x1C6C JUMP JUMPDEST DUP2 ADD DUP2 DUP2 LT PUSH8 0xFFFFFFFFFFFFFFFF DUP3 GT OR ISZERO PUSH2 0x2022 JUMPI PUSH2 0x2021 PUSH2 0x1FCB JUMP JUMPDEST JUMPDEST DUP1 PUSH1 0x40 MSTORE POP POP POP JUMP JUMPDEST PUSH1 0x0 PUSH2 0x2035 PUSH2 0x1AEB JUMP JUMPDEST SWAP1 POP PUSH2 0x2041 DUP3 DUP3 PUSH2 0x1FFA JUMP JUMPDEST SWAP2 SWAP1 POP JUMP JUMPDEST PUSH1 0x0 PUSH8 0xFFFFFFFFFFFFFFFF DUP3 GT ISZERO PUSH2 0x2061 JUMPI PUSH2 0x2060 PUSH2 0x1FCB JUMP JUMPDEST JUMPDEST PUSH2 0x206A DUP3 PUSH2 0x1C6C JUMP JUMPDEST SWAP1 POP PUSH1 0x20 DUP2 ADD SWAP1 POP SWAP2 SWAP1 POP JUMP JUMPDEST DUP3 DUP2 DUP4 CALLDATACOPY PUSH1 0x0 DUP4 DUP4 ADD MSTORE POP POP POP JUMP JUMPDEST PUSH1 0x0 PUSH2 0x2099 PUSH2 0x2094 DUP5 PUSH2 0x2046 JUMP JUMPDEST PUSH2 0x202B JUMP JUMPDEST SWAP1 POP DUP3 DUP2 MSTORE PUSH1 0x20 DUP2 ADD DUP5 DUP5 DUP5 ADD GT ISZERO PUSH2 0x20B5 JUMPI PUSH2 0x20B4 PUSH2 0x1FC6 JUMP JUMPDEST JUMPDEST PUSH2 0x20C0 DUP5 DUP3 DUP6 PUSH2 0x2077 JUMP JUMPDEST POP SWAP4 SWAP3 POP POP POP JUMP JUMPDEST PUSH1 0x0 DUP3 PUSH1 0x1F DUP4 ADD SLT PUSH2 0x20DD JUMPI PUSH2 0x20DC PUSH2 0x1FC1 JUMP JUMPDEST JUMPDEST DUP2 CALLDATALOAD PUSH2 0x20ED DUP5 DUP3 PUSH1 0x20 DUP7 ADD PUSH2 0x2086 JUMP JUMPDEST SWAP2 POP POP SWAP3 SWAP2 POP POP JUMP JUMPDEST PUSH1 0x0 DUP1 PUSH1 0x40 DUP4 DUP6 SUB SLT ISZERO PUSH2 0x210D JUMPI PUSH2 0x210C PUSH2 0x1AF5 JUMP JUMPDEST JUMPDEST PUSH1 0x0 DUP4 ADD CALLDATALOAD PUSH8 0xFFFFFFFFFFFFFFFF DUP2 GT ISZERO PUSH2 0x212B JUMPI PUSH2 0x212A PUSH2 0x1AFA JUMP JUMPDEST JUMPDEST PUSH2 0x2137 DUP6 DUP3 DUP7 ADD PUSH2 0x20C8 JUMP JUMPDEST SWAP3 POP POP PUSH1 0x20 PUSH2 0x2148 DUP6 DUP3 DUP7 ADD PUSH2 0x1B20 JUMP JUMPDEST SWAP2 POP POP SWAP3 POP SWAP3 SWAP1 POP JUMP JUMPDEST PUSH1 0x0 DUP2 ISZERO ISZERO SWAP1 POP SWAP2 SWAP1 POP JUMP JUMPDEST PUSH2 0x2167 DUP2 PUSH2 0x2152 JUMP JUMPDEST DUP3 MSTORE POP POP JUMP JUMPDEST PUSH1 0x0 PUSH1 0x20 DUP3 ADD SWAP1 POP PUSH2 0x2182 PUSH1 0x0 DUP4 ADD DUP5 PUSH2 0x215E JUMP JUMPDEST SWAP3 SWAP2 POP POP JUMP JUMPDEST PUSH1 0x0 PUSH1 0x20 DUP3 ADD SWAP1 POP PUSH2 0x219D PUSH1 0x0 DUP4 ADD DUP5 PUSH2 0x1C17 JUMP JUMPDEST SWAP3 SWAP2 POP POP JUMP JUMPDEST PUSH1 0x0 DUP1 PUSH1 0x40 DUP4 DUP6 SUB SLT ISZERO PUSH2 0x21BA JUMPI PUSH2 0x21B9 PUSH2 0x1AF5 JUMP JUMPDEST JUMPDEST PUSH1 0x0 DUP4 ADD CALLDATALOAD PUSH8 0xFFFFFFFFFFFFFFFF DUP2 GT ISZERO PUSH2 0x21D8 JUMPI PUSH2 0x21D7 PUSH2 0x1AFA JUMP JUMPDEST JUMPDEST PUSH2 0x21E4 DUP6 DUP3 DUP7 ADD PUSH2 0x20C8 JUMP JUMPDEST SWAP3 POP POP PUSH1 0x20 DUP4 ADD CALLDATALOAD PUSH8 0xFFFFFFFFFFFFFFFF DUP2 GT ISZERO PUSH2 0x2205 JUMPI PUSH2 0x2204 PUSH2 0x1AFA JUMP JUMPDEST JUMPDEST PUSH2 0x2211 DUP6 DUP3 DUP7 ADD PUSH2 0x20C8 JUMP JUMPDEST SWAP2 POP POP SWAP3 POP SWAP3 SWAP1 POP JUMP JUMPDEST PUSH1 0x0 DUP1 PUSH1 0x0 PUSH1 0x60 DUP5 DUP7 SUB SLT ISZERO PUSH2 0x2234 JUMPI PUSH2 0x2233 PUSH2 0x1AF5 JUMP JUMPDEST JUMPDEST PUSH1 0x0 DUP5 ADD CALLDATALOAD PUSH8 0xFFFFFFFFFFFFFFFF DUP2 GT ISZERO PUSH2 0x2252 JUMPI PUSH2 0x2251 PUSH2 0x1AFA JUMP JUMPDEST JUMPDEST PUSH2 0x225E DUP7 DUP3 DUP8 ADD PUSH2 0x20C8 JUMP JUMPDEST SWAP4 POP POP PUSH1 0x20 DUP5 ADD CALLDATALOAD PUSH8 0xFFFFFFFFFFFFFFFF DUP2 GT ISZERO PUSH2 0x227F JUMPI PUSH2 0x227E PUSH2 0x1AFA JUMP JUMPDEST JUMPDEST PUSH2 0x228B DUP7 DUP3 DUP8 ADD PUSH2 0x20C8 JUMP JUMPDEST SWAP3 POP POP PUSH1 0x40 PUSH2 0x229C DUP7 DUP3 DUP8 ADD PUSH2 0x1B20 JUMP JUMPDEST SWAP2 POP POP SWAP3 POP SWAP3 POP SWAP3 JUMP JUMPDEST PUSH1 0x0 PUSH1 0xA0 DUP3 ADD SWAP1 POP PUSH2 0x22BB PUSH1 0x0 DUP4 ADD DUP9 PUSH2 0x1C17 JUMP JUMPDEST DUP2 DUP2 SUB PUSH1 0x20 DUP4 ADD MSTORE PUSH2 0x22CD DUP2 DUP8 PUSH2 0x1C7D JUMP JUMPDEST SWAP1 POP DUP2 DUP2 SUB PUSH1 0x40 DUP4 ADD MSTORE PUSH2 0x22E1 DUP2 DUP7 PUSH2 0x1C7D JUMP JUMPDEST SWAP1 POP PUSH2 0x22F0 PUSH1 0x60 DUP4 ADD DUP6 PUSH2 0x1B94 JUMP JUMPDEST PUSH2 0x22FD PUSH1 0x80 DUP4 ADD DUP5 PUSH2 0x1C17 JUMP JUMPDEST SWAP7 SWAP6 POP POP POP POP POP POP JUMP JUMPDEST PUSH1 0x0 PUSH1 0x60 DUP3 ADD SWAP1 POP PUSH2 0x231C PUSH1 0x0 DUP4 ADD DUP7 PUSH2 0x1C17 JUMP JUMPDEST DUP2 DUP2 SUB PUSH1 0x20 DUP4 ADD MSTORE PUSH2 0x232E DUP2 DUP6 PUSH2 0x1C7D JUMP JUMPDEST SWAP1 POP DUP2 DUP2 SUB PUSH1 0x40 DUP4 ADD MSTORE PUSH2 0x2342 DUP2 DUP5 PUSH2 0x1C7D JUMP JUMPDEST SWAP1 POP SWAP5 SWAP4 POP POP POP POP JUMP JUMPDEST PUSH1 0x0 PUSH1 0xA0 DUP3 ADD SWAP1 POP PUSH2 0x2361 PUSH1 0x0 DUP4 ADD DUP9 PUSH2 0x1C17 JUMP JUMPDEST DUP2 DUP2 SUB PUSH1 0x20 DUP4 ADD MSTORE PUSH2 0x2373 DUP2 DUP8 PUSH2 0x1C7D JUMP JUMPDEST SWAP1 POP PUSH2 0x2382 PUSH1 0x40 DUP4 ADD DUP7 PUSH2 0x1C17 JUMP JUMPDEST PUSH2 0x238F PUSH1 0x60 DUP4 ADD DUP6 PUSH2 0x1C17 JUMP JUMPDEST PUSH2 0x239C PUSH1 0x80 DUP4 ADD DUP5 PUSH2 0x1C17 JUMP JUMPDEST SWAP7 SWAP6 POP POP POP POP POP POP JUMP JUMPDEST PUSH1 0x0 DUP2 MLOAD SWAP1 POP SWAP2 SWAP1 POP JUMP JUMPDEST PUSH1 0x0 DUP3 DUP3 MSTORE PUSH1 0x20 DUP3 ADD SWAP1 POP SWAP3 SWAP2 POP POP JUMP JUMPDEST PUSH1 0x0 DUP2 SWAP1 POP PUSH1 0x20 DUP3 ADD SWAP1 POP SWAP2 SWAP1 POP JUMP JUMPDEST PUSH1 0x0 PUSH1 0x60 DUP4 ADD PUSH1 0x0 DUP4 ADD MLOAD PUSH2 0x23EA PUSH1 0x0 DUP7 ADD DUP3 PUSH2 0x1D2E JUMP JUMPDEST POP PUSH1 0x20 DUP4 ADD MLOAD DUP5 DUP3 SUB PUSH1 0x20 DUP7 ADD MSTORE PUSH2 0x2402 DUP3 DUP3 PUSH2 0x1D4E JUMP JUMPDEST SWAP2 POP POP PUSH1 0x40 DUP4 ADD MLOAD DUP5 DUP3 SUB PUSH1 0x40 DUP7 ADD MSTORE PUSH2 0x241C DUP3 DUP3 PUSH2 0x1D4E JUMP JUMPDEST SWAP2 POP POP DUP1 SWAP2 POP POP SWAP3 SWAP2 POP POP JUMP JUMPDEST PUSH1 0x0 PUSH2 0x2435 DUP4 DUP4 PUSH2 0x23D2 JUMP JUMPDEST SWAP1 POP SWAP3 SWAP2 POP POP JUMP JUMPDEST PUSH1 0x0 PUSH1 0x20 DUP3 ADD SWAP1 POP SWAP2 SWAP1 POP JUMP JUMPDEST PUSH1 0x0 PUSH2 0x2455 DUP3 PUSH2 0x23A6 JUMP JUMPDEST PUSH2 0x245F DUP2 DUP6 PUSH2 0x23B1 JUMP JUMPDEST SWAP4 POP DUP4 PUSH1 0x20 DUP3 MUL DUP6 ADD PUSH2 0x2471 DUP6 PUSH2 0x23C2 JUMP JUMPDEST DUP1 PUSH1 0x0 JUMPDEST DUP6 DUP2 LT ISZERO PUSH2 0x24AD JUMPI DUP5 DUP5 SUB DUP10 MSTORE DUP2 MLOAD PUSH2 0x248E DUP6 DUP3 PUSH2 0x2429 JUMP JUMPDEST SWAP5 POP PUSH2 0x2499 DUP4 PUSH2 0x243D JUMP JUMPDEST SWAP3 POP PUSH1 0x20 DUP11 ADD SWAP10 POP POP PUSH1 0x1 DUP2 ADD SWAP1 POP PUSH2 0x2475 JUMP JUMPDEST POP DUP3 SWAP8 POP DUP8 SWAP6 POP POP POP POP POP POP SWAP3 SWAP2 POP POP JUMP JUMPDEST PUSH1 0x0 PUSH1 0x20 DUP3 ADD SWAP1 POP DUP2 DUP2 SUB PUSH1 0x0 DUP4 ADD MSTORE PUSH2 0x24D9 DUP2 DUP5 PUSH2 0x244A JUMP JUMPDEST SWAP1 POP SWAP3 SWAP2 POP POP JUMP JUMPDEST PUSH1 0x0 DUP2 MLOAD SWAP1 POP SWAP2 SWAP1 POP JUMP JUMPDEST PUSH1 0x0 DUP3 DUP3 MSTORE PUSH1 0x20 DUP3 ADD SWAP1 POP SWAP3 SWAP2 POP POP JUMP JUMPDEST PUSH1 0x0 DUP2 SWAP1 POP PUSH1 0x20 DUP3 ADD SWAP1 POP SWAP2 SWAP1 POP JUMP JUMPDEST PUSH1 0x0 PUSH1 0xA0 DUP4 ADD PUSH1 0x0 DUP4 ADD MLOAD PUSH2 0x2525 PUSH1 0x0 DUP7 ADD DUP3 PUSH2 0x1D2E JUMP JUMPDEST POP PUSH1 0x20 DUP4 ADD MLOAD DUP5 DUP3 SUB PUSH1 0x20 DUP7 ADD MSTORE PUSH2 0x253D DUP3 DUP3 PUSH2 0x1D4E JUMP JUMPDEST SWAP2 POP POP PUSH1 0x40 DUP4 ADD MLOAD DUP5 DUP3 SUB PUSH1 0x40 DUP7 ADD MSTORE PUSH2 0x2557 DUP3 DUP3 PUSH2 0x1D4E JUMP JUMPDEST SWAP2 POP POP PUSH1 0x60 DUP4 ADD MLOAD PUSH2 0x256C PUSH1 0x60 DUP7 ADD DUP3 PUSH2 0x1D87 JUMP JUMPDEST POP PUSH1 0x80 DUP4 ADD MLOAD PUSH2 0x257F PUSH1 0x80 DUP7 ADD DUP3 PUSH2 0x1D2E JUMP JUMPDEST POP DUP1 SWAP2 POP POP SWAP3 SWAP2 POP POP JUMP JUMPDEST PUSH1 0x0 PUSH2 0x2596 DUP4 DUP4 PUSH2 0x250D JUMP JUMPDEST SWAP1 POP SWAP3 SWAP2 POP POP JUMP JUMPDEST PUSH1 0x0 PUSH1 0x20 DUP3 ADD SWAP1 POP SWAP2 SWAP1 POP JUMP JUMPDEST PUSH1 0x0 PUSH2 0x25B6 DUP3 PUSH2 0x24E1 JUMP JUMPDEST PUSH2 0x25C0 DUP2 DUP6 PUSH2 0x24EC JUMP JUMPDEST SWAP4 POP DUP4 PUSH1 0x20 DUP3 MUL DUP6 ADD PUSH2 0x25D2 DUP6 PUSH2 0x24FD JUMP JUMPDEST DUP1 PUSH1 0x0 JUMPDEST DUP6 DUP2 LT ISZERO PUSH2 0x260E JUMPI DUP5 DUP5 SUB DUP10 MSTORE DUP2 MLOAD PUSH2 0x25EF DUP6 DUP3 PUSH2 0x258A JUMP JUMPDEST SWAP5 POP PUSH2 0x25FA DUP4 PUSH2 0x259E JUMP JUMPDEST SWAP3 POP PUSH1 0x20 DUP11 ADD SWAP10 POP POP PUSH1 0x1 DUP2 ADD SWAP1 POP PUSH2 0x25D6 JUMP JUMPDEST POP DUP3 SWAP8 POP DUP8 SWAP6 POP POP POP POP POP POP SWAP3 SWAP2 POP POP JUMP JUMPDEST PUSH1 0x0 PUSH1 0x20 DUP3 ADD SWAP1 POP DUP2 DUP2 SUB PUSH1 0x0 DUP4 ADD MSTORE PUSH2 0x263A DUP2 DUP5 PUSH2 0x25AB JUMP JUMPDEST SWAP1 POP SWAP3 SWAP2 POP POP JUMP JUMPDEST PUSH32 0x4E487B7100000000000000000000000000000000000000000000000000000000 PUSH1 0x0 MSTORE PUSH1 0x22 PUSH1 0x4 MSTORE PUSH1 0x24 PUSH1 0x0 REVERT JUMPDEST PUSH1 0x0 PUSH1 0x2 DUP3 DIV SWAP1 POP PUSH1 0x1 DUP3 AND DUP1 PUSH2 0x2689 JUMPI PUSH1 0x7F DUP3 AND SWAP2 POP JUMPDEST PUSH1 0x20 DUP3 LT DUP2 SUB PUSH2 0x269C JUMPI PUSH2 0x269B PUSH2 0x2642 JUMP JUMPDEST JUMPDEST POP SWAP2 SWAP1 POP JUMP JUMPDEST PUSH32 0x4E487B7100000000000000000000000000000000000000000000000000000000 PUSH1 0x0 MSTORE PUSH1 0x32 PUSH1 0x4 MSTORE PUSH1 0x24 PUSH1 0x0 REVERT JUMPDEST PUSH32 0x4E487B7100000000000000000000000000000000000000000000000000000000 PUSH1 0x0 MSTORE PUSH1 0x11 PUSH1 0x4 MSTORE PUSH1 0x24 PUSH1 0x0 REVERT JUMPDEST PUSH1 0x0 PUSH2 0x270B DUP3 PUSH2 0x1AFF JUMP JUMPDEST SWAP2 POP PUSH32 0xFFFFFFFFFFFFFFFFFFFFFFFFFFFFFFFFFFFFFFFFFFFFFFFFFFFFFFFFFFFFFFFF DUP3 SUB PUSH2 0x273D JUMPI PUSH2 0x273C PUSH2 0x26D1 JUMP JUMPDEST JUMPDEST PUSH1 0x1 DUP3 ADD SWAP1 POP SWAP2 SWAP1 POP JUMP JUMPDEST PUSH32 0x50617469656E7420616C72656164792065786973747300000000000000000000 PUSH1 0x0 DUP3 ADD MSTORE POP JUMP JUMPDEST PUSH1 0x0 PUSH2 0x277E PUSH1 0x16 DUP4 PUSH2 0x1C31 JUMP JUMPDEST SWAP2 POP PUSH2 0x2789 DUP3 PUSH2 0x2748 JUMP JUMPDEST PUSH1 0x20 DUP3 ADD SWAP1 POP SWAP2 SWAP1 POP JUMP JUMPDEST PUSH1 0x0 PUSH1 0x20 DUP3 ADD SWAP1 POP DUP2 DUP2 SUB PUSH1 0x0 DUP4 ADD MSTORE PUSH2 0x27AD DUP2 PUSH2 0x2771 JUMP JUMPDEST SWAP1 POP SWAP2 SWAP1 POP JUMP JUMPDEST PUSH1 0x0 DUP2 SWAP1 POP DUP2 PUSH1 0x0 MSTORE PUSH1 0x20 PUSH1 0x0 KECCAK256 SWAP1 POP SWAP2 SWAP1 POP JUMP JUMPDEST PUSH1 0x0 PUSH1 0x20 PUSH1 0x1F DUP4 ADD DIV SWAP1 POP SWAP2 SWAP1 POP JUMP JUMPDEST PUSH1 0x0 DUP3 DUP3 SHL SWAP1 POP SWAP3 SWAP2 POP POP JUMP JUMPDEST PUSH1 0x0 PUSH1 0x8 DUP4 MUL PUSH2 0x2816 PUSH32 0xFFFFFFFFFFFFFFFFFFFFFFFFFFFFFFFFFFFFFFFFFFFFFFFFFFFFFFFFFFFFFFFF DUP3 PUSH2 0x27D9 JUMP JUMPDEST PUSH2 0x2820 DUP7 DUP4 PUSH2 0x27D9 JUMP JUMPDEST SWAP6 POP DUP1 NOT DUP5 AND SWAP4 POP DUP1 DUP7 AND DUP5 OR SWAP3 POP POP POP SWAP4 SWAP3 POP POP POP JUMP JUMPDEST PUSH1 0x0 DUP2 SWAP1 POP SWAP2 SWAP1 POP JUMP JUMPDEST PUSH1 0x0 PUSH2 0x285D PUSH2 0x2858 PUSH2 0x2853 DUP5 PUSH2 0x1AFF JUMP JUMPDEST PUSH2 0x2838 JUMP JUMPDEST PUSH2 0x1AFF JUMP JUMPDEST SWAP1 POP SWAP2 SWAP1 POP JUMP JUMPDEST PUSH1 0x0 DUP2 SWAP1 POP SWAP2 SWAP1 POP JUMP JUMPDEST PUSH2 0x2877 DUP4 PUSH2 0x2842 JUMP JUMPDEST PUSH2 0x288B PUSH2 0x2883 DUP3 PUSH2 0x2864 JUMP JUMPDEST DUP5 DUP5 SLOAD PUSH2 0x27E6 JUMP JUMPDEST DUP3 SSTORE POP POP POP POP JUMP JUMPDEST PUSH1 0x0 SWAP1 JUMP JUMPDEST PUSH2 0x28A0 PUSH2 0x2893 JUMP JUMPDEST PUSH2 0x28AB DUP2 DUP5 DUP5 PUSH2 0x286E JUMP JUMPDEST POP POP POP JUMP JUMPDEST JUMPDEST DUP2 DUP2 LT ISZERO PUSH2 0x28CF JUMPI PUSH2 0x28C4 PUSH1 0x0 DUP3 PUSH2 0x2898 JUMP JUMPDEST PUSH1 0x1 DUP2 ADD SWAP1 POP PUSH2 0x28B1 JUMP JUMPDEST POP POP JUMP JUMPDEST PUSH1 0x1F DUP3 GT ISZERO PUSH2 0x2914 JUMPI PUSH2 0x28E5 DUP2 PUSH2 0x27B4 JUMP JUMPDEST PUSH2 0x28EE DUP5 PUSH2 0x27C9 JUMP JUMPDEST DUP2 ADD PUSH1 0x20 DUP6 LT ISZERO PUSH2 0x28FD JUMPI DUP2 SWAP1 POP JUMPDEST PUSH2 0x2911 PUSH2 0x2909 DUP6 PUSH2 0x27C9 JUMP JUMPDEST DUP4 ADD DUP3 PUSH2 0x28B0 JUMP JUMPDEST POP POP JUMPDEST POP POP POP JUMP JUMPDEST PUSH1 0x0 DUP3 DUP3 SHR SWAP1 POP SWAP3 SWAP2 POP POP JUMP JUMPDEST PUSH1 0x0 PUSH2 0x2937 PUSH1 0x0 NOT DUP5 PUSH1 0x8 MUL PUSH2 0x2919 JUMP JUMPDEST NOT DUP1 DUP4 AND SWAP2 POP POP SWAP3 SWAP2 POP POP JUMP JUMPDEST PUSH1 0x0 PUSH2 0x2950 DUP4 DUP4 PUSH2 0x2926 JUMP JUMPDEST SWAP2 POP DUP3 PUSH1 0x2 MUL DUP3 OR SWAP1 POP SWAP3 SWAP2 POP POP JUMP JUMPDEST PUSH2 0x2969 DUP3 PUSH2 0x1C26 JUMP JUMPDEST PUSH8 0xFFFFFFFFFFFFFFFF DUP2 GT ISZERO PUSH2 0x2982 JUMPI PUSH2 0x2981 PUSH2 0x1FCB JUMP JUMPDEST JUMPDEST PUSH2 0x298C DUP3 SLOAD PUSH2 0x2671 JUMP JUMPDEST PUSH2 0x2997 DUP3 DUP3 DUP6 PUSH2 0x28D3 JUMP JUMPDEST PUSH1 0x0 PUSH1 0x20 SWAP1 POP PUSH1 0x1F DUP4 GT PUSH1 0x1 DUP2 EQ PUSH2 0x29CA JUMPI PUSH1 0x0 DUP5 ISZERO PUSH2 0x29B8 JUMPI DUP3 DUP8 ADD MLOAD SWAP1 POP JUMPDEST PUSH2 0x29C2 DUP6 DUP3 PUSH2 0x2944 JUMP JUMPDEST DUP7 SSTORE POP PUSH2 0x2A2A JUMP JUMPDEST PUSH1 0x1F NOT DUP5 AND PUSH2 0x29D8 DUP7 PUSH2 0x27B4 JUMP JUMPDEST PUSH1 0x0 JUMPDEST DUP3 DUP2 LT ISZERO PUSH2 0x2A00 JUMPI DUP5 DUP10 ADD MLOAD DUP3 SSTORE PUSH1 0x1 DUP3 ADD SWAP2 POP PUSH1 0x20 DUP6 ADD SWAP5 POP PUSH1 0x20 DUP2 ADD SWAP1 POP PUSH2 0x29DB JUMP JUMPDEST DUP7 DUP4 LT ISZERO PUSH2 0x2A1D JUMPI DUP5 DUP10 ADD MLOAD PUSH2 0x2A19 PUSH1 0x1F DUP10 AND DUP3 PUSH2 0x2926 JUMP JUMPDEST DUP4 SSTORE POP JUMPDEST PUSH1 0x1 PUSH1 0x2 DUP9 MUL ADD DUP9 SSTORE POP POP POP JUMPDEST POP POP POP POP POP POP JUMP JUMPDEST PUSH32 0x4F6E6C792074686520636F6E7472616374206F776E65722063616E2070657266 PUSH1 0x0 DUP3 ADD MSTORE PUSH32 0x6F726D207468697320616374696F6E2E00000000000000000000000000000000 PUSH1 0x20 DUP3 ADD MSTORE POP JUMP JUMPDEST PUSH1 0x0 PUSH2 0x2A8E PUSH1 0x30 DUP4 PUSH2 0x1C31 JUMP JUMPDEST SWAP2 POP PUSH2 0x2A99 DUP3 PUSH2 0x2A32 JUMP JUMPDEST PUSH1 0x40 DUP3 ADD SWAP1 POP SWAP2 SWAP1 POP JUMP JUMPDEST PUSH1 0x0 PUSH1 0x20 DUP3 ADD SWAP1 POP DUP2 DUP2 SUB PUSH1 0x0 DUP4 ADD MSTORE PUSH2 0x2ABD DUP2 PUSH2 0x2A81 JUMP JUMPDEST SWAP1 POP SWAP2 SWAP1 POP JUMP JUMPDEST PUSH32 0x576F726B706C616365206E616D652063616E6E6F7420626520656D7074792E00 PUSH1 0x0 DUP3 ADD MSTORE POP JUMP JUMPDEST PUSH1 0x0 PUSH2 0x2AFA PUSH1 0x1F DUP4 PUSH2 0x1C31 JUMP JUMPDEST SWAP2 POP PUSH2 0x2B05 DUP3 PUSH2 0x2AC4 JUMP JUMPDEST PUSH1 0x20 DUP3 ADD SWAP1 POP SWAP2 SWAP1 POP JUMP JUMPDEST PUSH1 0x0 PUSH1 0x20 DUP3 ADD SWAP1 POP DUP2 DUP2 SUB PUSH1 0x0 DUP4 ADD MSTORE PUSH2 0x2B29 DUP2 PUSH2 0x2AED JUMP JUMPDEST SWAP1 POP SWAP2 SWAP1 POP JUMP JUMPDEST PUSH32 0x576F726B706C61636520646F6573206E6F742065786973742E00000000000000 PUSH1 0x0 DUP3 ADD MSTORE POP JUMP JUMPDEST PUSH1 0x0 PUSH2 0x2B66 PUSH1 0x19 DUP4 PUSH2 0x1C31 JUMP JUMPDEST SWAP2 POP PUSH2 0x2B71 DUP3 PUSH2 0x2B30 JUMP JUMPDEST PUSH1 0x20 DUP3 ADD SWAP1 POP SWAP2 SWAP1 POP JUMP JUMPDEST PUSH1 0x0 PUSH1 0x20 DUP3 ADD SWAP1 POP DUP2 DUP2 SUB PUSH1 0x0 DUP4 ADD MSTORE PUSH2 0x2B95 DUP2 PUSH2 0x2B59 JUMP JUMPDEST SWAP1 POP SWAP2 SWAP1 POP JUMP JUMPDEST PUSH32 0x446F63746F7220616C7265616479207265676973746572656400000000000000 PUSH1 0x0 DUP3 ADD MSTORE POP JUMP JUMPDEST PUSH1 0x0 PUSH2 0x2BD2 PUSH1 0x19 DUP4 PUSH2 0x1C31 JUMP JUMPDEST SWAP2 POP PUSH2 0x2BDD DUP3 PUSH2 0x2B9C JUMP JUMPDEST PUSH1 0x20 DUP3 ADD SWAP1 POP SWAP2 SWAP1 POP JUMP JUMPDEST PUSH1 0x0 PUSH1 0x20 DUP3 ADD SWAP1 POP DUP2 DUP2 SUB PUSH1 0x0 DUP4 ADD MSTORE PUSH2 0x2C01 DUP2 PUSH2 0x2BC5 JUMP JUMPDEST SWAP1 POP SWAP2 SWAP1 POP JUMP JUMPDEST PUSH1 0x0 PUSH2 0x2C13 DUP3 PUSH2 0x1AFF JUMP JUMPDEST SWAP2 POP PUSH2 0x2C1E DUP4 PUSH2 0x1AFF JUMP JUMPDEST SWAP3 POP DUP3 DUP3 SUB SWAP1 POP DUP2 DUP2 GT ISZERO PUSH2 0x2C36 JUMPI PUSH2 0x2C35 PUSH2 0x26D1 JUMP JUMPDEST JUMPDEST SWAP3 SWAP2 POP POP JUMP INVALID LOG2 PUSH5 0x6970667358 0x22 SLT KECCAK256 STOP PUSH26 0xCD5483C69278AD0992839EE257C6DCB6C9E690C0C59A79085022 0xD1 0xCD 0xDA 0x4D PUSH5 0x736F6C6343 STOP ADDMOD SLT STOP CALLER "
				},
				"gasEstimates": {
					"creation": {
						"codeDepositCost": "2275600",
						"executionCost": "26700",
						"totalCost": "2302300"
					},
					"external": {
						"createWorkplace(string,string)": "infinite",
						"doctorAddress(uint256)": "5023",
						"doctorCount()": "2452",
						"doctorNotExists()": "infinite",
						"doctors(address)": "infinite",
						"getAllDoctors()": "infinite",
						"getAllPatients()": "infinite",
						"getAllWorkplaces()": "infinite",
						"medicineCount()": "2474",
						"medicines(uint256)": "infinite",
						"patientAddress(uint256)": "4980",
						"patientCount()": "2496",
						"patientNotExists()": "infinite",
						"patients(address)": "infinite",
						"registerDoctor(string,string,uint256)": "infinite",
						"registerPatient(string,uint256)": "infinite",
						"workplaceCount()": "2540",
						"workplaceExists(uint256)": "2862",
						"workplaces(uint256)": "infinite"
					}
				},
				"methodIdentifiers": {
					"createWorkplace(string,string)": "5ab2ce22",
					"doctorAddress(uint256)": "59bf95f7",
					"doctorCount()": "78522bc4",
					"doctorNotExists()": "bae1eee8",
					"doctors(address)": "a9583c22",
					"getAllDoctors()": "f0d95090",
					"getAllPatients()": "18a231a9",
					"getAllWorkplaces()": "d92631db",
					"medicineCount()": "4dafd490",
					"medicines(uint256)": "c85e766d",
					"patientAddress(uint256)": "05aeeea7",
					"patientCount()": "a0303c41",
					"patientNotExists()": "33c5d641",
					"patients(address)": "0869cfbc",
					"registerDoctor(string,string,uint256)": "87446b6e",
					"registerPatient(string,uint256)": "2de304ed",
					"workplaceCount()": "77518ce6",
					"workplaceExists(uint256)": "bac33aa2",
					"workplaces(uint256)": "c38831ae"
				}
			},
			"storageLayout": {
				"storage": [
					{
						"astId": 3,
						"contract": "medicalContract2.sol:MedicalRecords",
						"label": "owner",
						"offset": 0,
						"slot": "0",
						"type": "t_address"
					},
					{
						"astId": 55,
						"contract": "medicalContract2.sol:MedicalRecords",
						"label": "doctors",
						"offset": 0,
						"slot": "1",
						"type": "t_mapping(t_address,t_struct(Doctor)14_storage)"
					},
					{
						"astId": 60,
						"contract": "medicalContract2.sol:MedicalRecords",
						"label": "patients",
						"offset": 0,
						"slot": "2",
						"type": "t_mapping(t_address,t_struct(Patient)32_storage)"
					},
					{
						"astId": 65,
						"contract": "medicalContract2.sol:MedicalRecords",
						"label": "medicines",
						"offset": 0,
						"slot": "3",
						"type": "t_mapping(t_uint256,t_struct(Medicine)43_storage)"
					},
					{
						"astId": 70,
						"contract": "medicalContract2.sol:MedicalRecords",
						"label": "workplaces",
						"offset": 0,
						"slot": "4",
						"type": "t_mapping(t_uint256,t_struct(Workplace)50_storage)"
					},
					{
						"astId": 72,
						"contract": "medicalContract2.sol:MedicalRecords",
						"label": "doctorCount",
						"offset": 0,
						"slot": "5",
						"type": "t_uint256"
					},
					{
						"astId": 74,
						"contract": "medicalContract2.sol:MedicalRecords",
						"label": "patientCount",
						"offset": 0,
						"slot": "6",
						"type": "t_uint256"
					},
					{
						"astId": 76,
						"contract": "medicalContract2.sol:MedicalRecords",
						"label": "medicineCount",
						"offset": 0,
						"slot": "7",
						"type": "t_uint256"
					},
					{
						"astId": 78,
						"contract": "medicalContract2.sol:MedicalRecords",
						"label": "workplaceCount",
						"offset": 0,
						"slot": "8",
						"type": "t_uint256"
					},
					{
						"astId": 81,
						"contract": "medicalContract2.sol:MedicalRecords",
						"label": "doctorAddress",
						"offset": 0,
						"slot": "9",
						"type": "t_array(t_address)dyn_storage"
					},
					{
						"astId": 84,
						"contract": "medicalContract2.sol:MedicalRecords",
						"label": "patientAddress",
						"offset": 0,
						"slot": "10",
						"type": "t_array(t_address)dyn_storage"
					}
				],
				"types": {
					"t_address": {
						"encoding": "inplace",
						"label": "address",
						"numberOfBytes": "20"
					},
					"t_array(t_address)dyn_storage": {
						"base": "t_address",
						"encoding": "dynamic_array",
						"label": "address[]",
						"numberOfBytes": "32"
					},
					"t_array(t_string_storage)dyn_storage": {
						"base": "t_string_storage",
						"encoding": "dynamic_array",
						"label": "string[]",
						"numberOfBytes": "32"
					},
					"t_mapping(t_address,t_struct(Doctor)14_storage)": {
						"encoding": "mapping",
						"key": "t_address",
						"label": "mapping(address => struct MedicalRecords.Doctor)",
						"numberOfBytes": "32",
						"value": "t_struct(Doctor)14_storage"
					},
					"t_mapping(t_address,t_struct(Patient)32_storage)": {
						"encoding": "mapping",
						"key": "t_address",
						"label": "mapping(address => struct MedicalRecords.Patient)",
						"numberOfBytes": "32",
						"value": "t_struct(Patient)32_storage"
					},
					"t_mapping(t_uint256,t_struct(Medicine)43_storage)": {
						"encoding": "mapping",
						"key": "t_uint256",
						"label": "mapping(uint256 => struct MedicalRecords.Medicine)",
						"numberOfBytes": "32",
						"value": "t_struct(Medicine)43_storage"
					},
					"t_mapping(t_uint256,t_struct(Workplace)50_storage)": {
						"encoding": "mapping",
						"key": "t_uint256",
						"label": "mapping(uint256 => struct MedicalRecords.Workplace)",
						"numberOfBytes": "32",
						"value": "t_struct(Workplace)50_storage"
					},
					"t_string_storage": {
						"encoding": "bytes",
						"label": "string",
						"numberOfBytes": "32"
					},
					"t_struct(Doctor)14_storage": {
						"encoding": "inplace",
						"label": "struct MedicalRecords.Doctor",
						"members": [
							{
								"astId": 5,
								"contract": "medicalContract2.sol:MedicalRecords",
								"label": "id",
								"offset": 0,
								"slot": "0",
								"type": "t_uint256"
							},
							{
								"astId": 7,
								"contract": "medicalContract2.sol:MedicalRecords",
								"label": "name",
								"offset": 0,
								"slot": "1",
								"type": "t_string_storage"
							},
							{
								"astId": 9,
								"contract": "medicalContract2.sol:MedicalRecords",
								"label": "qualification",
								"offset": 0,
								"slot": "2",
								"type": "t_string_storage"
							},
							{
								"astId": 11,
								"contract": "medicalContract2.sol:MedicalRecords",
								"label": "doctor",
								"offset": 0,
								"slot": "3",
								"type": "t_address"
							},
							{
								"astId": 13,
								"contract": "medicalContract2.sol:MedicalRecords",
								"label": "workPlace",
								"offset": 0,
								"slot": "4",
								"type": "t_uint256"
							}
						],
						"numberOfBytes": "160"
					},
					"t_struct(Medicine)43_storage": {
						"encoding": "inplace",
						"label": "struct MedicalRecords.Medicine",
						"members": [
							{
								"astId": 34,
								"contract": "medicalContract2.sol:MedicalRecords",
								"label": "id",
								"offset": 0,
								"slot": "0",
								"type": "t_uint256"
							},
							{
								"astId": 36,
								"contract": "medicalContract2.sol:MedicalRecords",
								"label": "name",
								"offset": 0,
								"slot": "1",
								"type": "t_string_storage"
							},
							{
								"astId": 38,
								"contract": "medicalContract2.sol:MedicalRecords",
								"label": "expiryDate",
								"offset": 0,
								"slot": "2",
								"type": "t_uint256"
							},
							{
								"astId": 40,
								"contract": "medicalContract2.sol:MedicalRecords",
								"label": "dose",
								"offset": 0,
								"slot": "3",
								"type": "t_uint256"
							},
							{
								"astId": 42,
								"contract": "medicalContract2.sol:MedicalRecords",
								"label": "price",
								"offset": 0,
								"slot": "4",
								"type": "t_uint256"
							}
						],
						"numberOfBytes": "160"
					},
					"t_struct(Patient)32_storage": {
						"encoding": "inplace",
						"label": "struct MedicalRecords.Patient",
						"members": [
							{
								"astId": 16,
								"contract": "medicalContract2.sol:MedicalRecords",
								"label": "id",
								"offset": 0,
								"slot": "0",
								"type": "t_uint256"
							},
							{
								"astId": 18,
								"contract": "medicalContract2.sol:MedicalRecords",
								"label": "name",
								"offset": 0,
								"slot": "1",
								"type": "t_string_storage"
							},
							{
								"astId": 20,
								"contract": "medicalContract2.sol:MedicalRecords",
								"label": "age",
								"offset": 0,
								"slot": "2",
								"type": "t_uint256"
							},
							{
								"astId": 22,
								"contract": "medicalContract2.sol:MedicalRecords",
								"label": "publicAddress",
								"offset": 0,
								"slot": "3",
								"type": "t_address"
							},
							{
								"astId": 25,
								"contract": "medicalContract2.sol:MedicalRecords",
								"label": "diseases",
								"offset": 0,
								"slot": "4",
								"type": "t_array(t_string_storage)dyn_storage"
							},
							{
								"astId": 28,
								"contract": "medicalContract2.sol:MedicalRecords",
								"label": "medicines",
								"offset": 0,
								"slot": "5",
								"type": "t_array(t_string_storage)dyn_storage"
							},
							{
								"astId": 31,
								"contract": "medicalContract2.sol:MedicalRecords",
								"label": "allowedDoctors",
								"offset": 0,
								"slot": "6",
								"type": "t_array(t_string_storage)dyn_storage"
							}
						],
						"numberOfBytes": "224"
					},
					"t_struct(Workplace)50_storage": {
						"encoding": "inplace",
						"label": "struct MedicalRecords.Workplace",
						"members": [
							{
								"astId": 45,
								"contract": "medicalContract2.sol:MedicalRecords",
								"label": "id",
								"offset": 0,
								"slot": "0",
								"type": "t_uint256"
							},
							{
								"astId": 47,
								"contract": "medicalContract2.sol:MedicalRecords",
								"label": "name",
								"offset": 0,
								"slot": "1",
								"type": "t_string_storage"
							},
							{
								"astId": 49,
								"contract": "medicalContract2.sol:MedicalRecords",
								"label": "workAddress",
								"offset": 0,
								"slot": "2",
								"type": "t_string_storage"
							}
						],
						"numberOfBytes": "96"
					},
					"t_uint256": {
						"encoding": "inplace",
						"label": "uint256",
						"numberOfBytes": "32"
					}
				}
			},
			"userdoc": {
				"kind": "user",
				"methods": {},
				"version": 1
			}
		}
	}
}