{
	"Doctor.sol": {
		"Doctor": {
			"abi": [
				{
					"inputs": [
						{
							"internalType": "string",
							"name": "_name",
							"type": "string"
						},
						{
							"internalType": "string",
							"name": "_workAddress",
							"type": "string"
						}
					],
					"name": "createWorkplace",
					"outputs": [],
					"stateMutability": "nonpayable",
					"type": "function"
				},
				{
					"inputs": [
						{
							"internalType": "uint256",
							"name": "",
							"type": "uint256"
						}
					],
					"name": "doctorAddress",
					"outputs": [
						{
							"internalType": "address",
							"name": "",
							"type": "address"
						}
					],
					"stateMutability": "view",
					"type": "function"
				},
				{
					"inputs": [],
					"name": "doctorCount",
					"outputs": [
						{
							"internalType": "uint256",
							"name": "",
							"type": "uint256"
						}
					],
					"stateMutability": "view",
					"type": "function"
				},
				{
					"inputs": [],
					"name": "doctorNotExists",
					"outputs": [
						{
							"internalType": "bool",
							"name": "",
							"type": "bool"
						}
					],
					"stateMutability": "view",
					"type": "function"
				},
				{
					"inputs": [
						{
							"internalType": "address",
							"name": "",
							"type": "address"
						}
					],
					"name": "doctors",
					"outputs": [
						{
							"internalType": "uint256",
							"name": "id",
							"type": "uint256"
						},
						{
							"internalType": "string",
							"name": "name",
							"type": "string"
						},
						{
							"internalType": "string",
							"name": "qualification",
							"type": "string"
						},
						{
							"internalType": "address",
							"name": "doctor",
							"type": "address"
						},
						{
							"internalType": "uint256",
							"name": "workPlace",
							"type": "uint256"
						}
					],
					"stateMutability": "view",
					"type": "function"
				},
				{
					"inputs": [],
					"name": "getAllDoctors",
					"outputs": [
						{
							"components": [
								{
									"internalType": "uint256",
									"name": "id",
									"type": "uint256"
								},
								{
									"internalType": "string",
									"name": "name",
									"type": "string"
								},
								{
									"internalType": "string",
									"name": "qualification",
									"type": "string"
								},
								{
									"internalType": "address",
									"name": "doctor",
									"type": "address"
								},
								{
									"internalType": "uint256",
									"name": "workPlace",
									"type": "uint256"
								}
							],
							"internalType": "struct Doctor.DoctorDetails[]",
							"name": "",
							"type": "tuple[]"
						}
					],
					"stateMutability": "view",
					"type": "function"
				},
				{
					"inputs": [],
					"name": "getAllWorkplaces",
					"outputs": [
						{
							"components": [
								{
									"internalType": "string",
									"name": "name",
									"type": "string"
								},
								{
									"internalType": "string",
									"name": "workAddress",
									"type": "string"
								}
							],
							"internalType": "struct Admin.Workplace[]",
							"name": "",
							"type": "tuple[]"
						}
					],
					"stateMutability": "view",
					"type": "function"
				},
				{
					"inputs": [
						{
							"internalType": "string",
							"name": "_name",
							"type": "string"
						},
						{
							"internalType": "string",
							"name": "_qualification",
							"type": "string"
						},
						{
							"internalType": "uint256",
							"name": "_workplaceIndex",
							"type": "uint256"
						}
					],
					"name": "registerDoctor",
					"outputs": [],
					"stateMutability": "nonpayable",
					"type": "function"
				},
				{
					"inputs": [
						{
							"internalType": "uint256",
							"name": "",
							"type": "uint256"
						}
					],
					"name": "workplaces",
					"outputs": [
						{
							"internalType": "string",
							"name": "name",
							"type": "string"
						},
						{
							"internalType": "string",
							"name": "workAddress",
							"type": "string"
						}
					],
					"stateMutability": "view",
					"type": "function"
				}
			],
			"devdoc": {
				"kind": "dev",
				"methods": {},
				"version": 1
			},
			"evm": {
				"assembly": "    /* \"Doctor.sol\":49:1232  contract Doctor is Admin {... */\n  mstore(0x40, 0x80)\n  callvalue\n  dup1\n  iszero\n  tag_1\n  jumpi\n  0x00\n  dup1\n  revert\ntag_1:\n  pop\n  dataSize(sub_0)\n  dup1\n  dataOffset(sub_0)\n  0x00\n  codecopy\n  0x00\n  return\nstop\n\nsub_0: assembly {\n        /* \"Doctor.sol\":49:1232  contract Doctor is Admin {... */\n      mstore(0x40, 0x80)\n      callvalue\n      dup1\n      iszero\n      tag_1\n      jumpi\n      0x00\n      dup1\n      revert\n    tag_1:\n      pop\n      jumpi(tag_2, lt(calldatasize, 0x04))\n      shr(0xe0, calldataload(0x00))\n      dup1\n      0xa9583c22\n      gt\n      tag_12\n      jumpi\n      dup1\n      0xa9583c22\n      eq\n      tag_7\n      jumpi\n      dup1\n      0xbae1eee8\n      eq\n      tag_8\n      jumpi\n      dup1\n      0xc38831ae\n      eq\n      tag_9\n      jumpi\n      dup1\n      0xd92631db\n      eq\n      tag_10\n      jumpi\n      dup1\n      0xf0d95090\n      eq\n      tag_11\n      jumpi\n      jump(tag_2)\n    tag_12:\n      dup1\n      0x59bf95f7\n      eq\n      tag_3\n      jumpi\n      dup1\n      0x5ab2ce22\n      eq\n      tag_4\n      jumpi\n      dup1\n      0x78522bc4\n      eq\n      tag_5\n      jumpi\n      dup1\n      0x87446b6e\n      eq\n      tag_6\n      jumpi\n    tag_2:\n      0x00\n      dup1\n      revert\n        /* \"Doctor.sol\":316:346  address[] public doctorAddress */\n    tag_3:\n      tag_13\n      0x04\n      dup1\n      calldatasize\n      sub\n      dup2\n      add\n      swap1\n      tag_14\n      swap2\n      swap1\n      tag_15\n      jump\t// in\n    tag_14:\n      tag_16\n      jump\t// in\n    tag_13:\n      mload(0x40)\n      tag_17\n      swap2\n      swap1\n      tag_18\n      jump\t// in\n    tag_17:\n      mload(0x40)\n      dup1\n      swap2\n      sub\n      swap1\n      return\n        /* \"Admin.sol\":164:372  function createWorkplace(string memory _name, string memory _workAddress) public virtual  {... */\n    tag_4:\n      tag_19\n      0x04\n      dup1\n      calldatasize\n      sub\n      dup2\n      add\n      swap1\n      tag_20\n      swap2\n      swap1\n      tag_21\n      jump\t// in\n    tag_20:\n      tag_22\n      jump\t// in\n    tag_19:\n      stop\n        /* \"Doctor.sol\":287:310  uint public doctorCount */\n    tag_5:\n      tag_23\n      tag_24\n      jump\t// in\n    tag_23:\n      mload(0x40)\n      tag_25\n      swap2\n      swap1\n      tag_26\n      jump\t// in\n    tag_25:\n      mload(0x40)\n      dup1\n      swap2\n      sub\n      swap1\n      return\n        /* \"Doctor.sol\":588:940  function registerDoctor(string memory _name, string memory _qualification, uint256 _workplaceIndex) public {... */\n    tag_6:\n      tag_27\n      0x04\n      dup1\n      calldatasize\n      sub\n      dup2\n      add\n      swap1\n      tag_28\n      swap2\n      swap1\n      tag_29\n      jump\t// in\n    tag_28:\n      tag_30\n      jump\t// in\n    tag_27:\n      stop\n        /* \"Doctor.sol\":233:281  mapping(address => DoctorDetails) public doctors */\n    tag_7:\n      tag_31\n      0x04\n      dup1\n      calldatasize\n      sub\n      dup2\n      add\n      swap1\n      tag_32\n      swap2\n      swap1\n      tag_33\n      jump\t// in\n    tag_32:\n      tag_34\n      jump\t// in\n    tag_31:\n      mload(0x40)\n      tag_35\n      swap6\n      swap5\n      swap4\n      swap3\n      swap2\n      swap1\n      tag_36\n      jump\t// in\n    tag_35:\n      mload(0x40)\n      dup1\n      swap2\n      sub\n      swap1\n      return\n        /* \"Doctor.sol\":353:582  function doctorNotExists() public view returns (bool) {... */\n    tag_8:\n      tag_37\n      tag_38\n      jump\t// in\n    tag_37:\n      mload(0x40)\n      tag_39\n      swap2\n      swap1\n      tag_40\n      jump\t// in\n    tag_39:\n      mload(0x40)\n      dup1\n      swap2\n      sub\n      swap1\n      return\n        /* \"Admin.sol\":126:155  Workplace[] public workplaces */\n    tag_9:\n      tag_41\n      0x04\n      dup1\n      calldatasize\n      sub\n      dup2\n      add\n      swap1\n      tag_42\n      swap2\n      swap1\n      tag_15\n      jump\t// in\n    tag_42:\n      tag_43\n      jump\t// in\n    tag_41:\n      mload(0x40)\n      tag_44\n      swap3\n      swap2\n      swap1\n      tag_45\n      jump\t// in\n    tag_44:\n      mload(0x40)\n      dup1\n      swap2\n      sub\n      swap1\n      return\n        /* \"Admin.sol\":378:489  function getAllWorkplaces() public view virtual returns (Workplace[] memory) {... */\n    tag_10:\n      tag_46\n      tag_47\n      jump\t// in\n    tag_46:\n      mload(0x40)\n      tag_48\n      swap2\n      swap1\n      tag_49\n      jump\t// in\n    tag_48:\n      mload(0x40)\n      dup1\n      swap2\n      sub\n      swap1\n      return\n        /* \"Doctor.sol\":946:1230  function getAllDoctors() public view returns (DoctorDetails[] memory) {... */\n    tag_11:\n      tag_50\n      tag_51\n      jump\t// in\n    tag_50:\n      mload(0x40)\n      tag_52\n      swap2\n      swap1\n      tag_53\n      jump\t// in\n    tag_52:\n      mload(0x40)\n      dup1\n      swap2\n      sub\n      swap1\n      return\n        /* \"Doctor.sol\":316:346  address[] public doctorAddress */\n    tag_16:\n      0x03\n      dup2\n      dup2\n      sload\n      dup2\n      lt\n      tag_54\n      jumpi\n      0x00\n      dup1\n      revert\n    tag_54:\n      swap1\n      0x00\n      mstore\n      keccak256(0x00, 0x20)\n      add\n      0x00\n      swap2\n      pop\n      sload\n      swap1\n      0x0100\n      exp\n      swap1\n      div\n      0xffffffffffffffffffffffffffffffffffffffff\n      and\n      dup2\n      jump\t// out\n        /* \"Admin.sol\":164:372  function createWorkplace(string memory _name, string memory _workAddress) public virtual  {... */\n    tag_22:\n        /* \"Admin.sol\":264:293  Workplace memory newWorkplace */\n      0x00\n        /* \"Admin.sol\":296:326  Workplace(_name, _workAddress) */\n      mload(0x40)\n      dup1\n      0x40\n      add\n      0x40\n      mstore\n      dup1\n        /* \"Admin.sol\":306:311  _name */\n      dup5\n        /* \"Admin.sol\":296:326  Workplace(_name, _workAddress) */\n      dup2\n      mstore\n      0x20\n      add\n        /* \"Admin.sol\":313:325  _workAddress */\n      dup4\n        /* \"Admin.sol\":296:326  Workplace(_name, _workAddress) */\n      dup2\n      mstore\n      pop\n        /* \"Admin.sol\":264:326  Workplace memory newWorkplace = Workplace(_name, _workAddress) */\n      swap1\n      pop\n        /* \"Admin.sol\":336:346  workplaces */\n      0x00\n        /* \"Admin.sol\":352:364  newWorkplace */\n      dup2\n        /* \"Admin.sol\":336:365  workplaces.push(newWorkplace) */\n      swap1\n      dup1\n      0x01\n      dup2\n      sload\n      add\n      dup1\n      dup3\n      sstore\n      dup1\n      swap2\n      pop\n      pop\n      0x01\n      swap1\n      sub\n      swap1\n      0x00\n      mstore\n      keccak256(0x00, 0x20)\n      swap1\n      0x02\n      mul\n      add\n      0x00\n      swap1\n      swap2\n      swap1\n      swap2\n      swap1\n      swap2\n      pop\n      0x00\n      dup3\n      add\n      mload\n      dup2\n      0x00\n      add\n      swap1\n      dup2\n      tag_58\n      swap2\n      swap1\n      tag_59\n      jump\t// in\n    tag_58:\n      pop\n      0x20\n      dup3\n      add\n      mload\n      dup2\n      0x01\n      add\n      swap1\n      dup2\n      tag_60\n      swap2\n      swap1\n      tag_59\n      jump\t// in\n    tag_60:\n      pop\n      pop\n      pop\n        /* \"Admin.sol\":254:372  {... */\n      pop\n        /* \"Admin.sol\":164:372  function createWorkplace(string memory _name, string memory _workAddress) public virtual  {... */\n      pop\n      pop\n      jump\t// out\n        /* \"Doctor.sol\":287:310  uint public doctorCount */\n    tag_24:\n      sload(0x02)\n      dup2\n      jump\t// out\n        /* \"Doctor.sol\":588:940  function registerDoctor(string memory _name, string memory _qualification, uint256 _workplaceIndex) public {... */\n    tag_30:\n        /* \"Doctor.sol\":713:730  doctorNotExists() */\n      tag_62\n        /* \"Doctor.sol\":713:728  doctorNotExists */\n      tag_38\n        /* \"Doctor.sol\":713:730  doctorNotExists() */\n      jump\t// in\n    tag_62:\n        /* \"Doctor.sol\":705:760  require(doctorNotExists(), \"Doctor already registered\") */\n      tag_63\n      jumpi\n      mload(0x40)\n      0x08c379a000000000000000000000000000000000000000000000000000000000\n      dup2\n      mstore\n      0x04\n      add\n      tag_64\n      swap1\n      tag_65\n      jump\t// in\n    tag_64:\n      mload(0x40)\n      dup1\n      swap2\n      sub\n      swap1\n      revert\n    tag_63:\n        /* \"Doctor.sol\":792:870  DoctorDetails(doctorCount, _name, _qualification, msg.sender, _workplaceIndex) */\n      mload(0x40)\n      dup1\n      0xa0\n      add\n      0x40\n      mstore\n      dup1\n        /* \"Doctor.sol\":806:817  doctorCount */\n      sload(0x02)\n        /* \"Doctor.sol\":792:870  DoctorDetails(doctorCount, _name, _qualification, msg.sender, _workplaceIndex) */\n      dup2\n      mstore\n      0x20\n      add\n        /* \"Doctor.sol\":819:824  _name */\n      dup5\n        /* \"Doctor.sol\":792:870  DoctorDetails(doctorCount, _name, _qualification, msg.sender, _workplaceIndex) */\n      dup2\n      mstore\n      0x20\n      add\n        /* \"Doctor.sol\":826:840  _qualification */\n      dup4\n        /* \"Doctor.sol\":792:870  DoctorDetails(doctorCount, _name, _qualification, msg.sender, _workplaceIndex) */\n      dup2\n      mstore\n      0x20\n      add\n        /* \"Doctor.sol\":842:852  msg.sender */\n      caller\n        /* \"Doctor.sol\":792:870  DoctorDetails(doctorCount, _name, _qualification, msg.sender, _workplaceIndex) */\n      0xffffffffffffffffffffffffffffffffffffffff\n      and\n      dup2\n      mstore\n      0x20\n      add\n        /* \"Doctor.sol\":854:869  _workplaceIndex */\n      dup3\n        /* \"Doctor.sol\":792:870  DoctorDetails(doctorCount, _name, _qualification, msg.sender, _workplaceIndex) */\n      dup2\n      mstore\n      pop\n        /* \"Doctor.sol\":770:777  doctors */\n      0x01\n        /* \"Doctor.sol\":770:789  doctors[msg.sender] */\n      0x00\n        /* \"Doctor.sol\":778:788  msg.sender */\n      caller\n        /* \"Doctor.sol\":770:789  doctors[msg.sender] */\n      0xffffffffffffffffffffffffffffffffffffffff\n      and\n      0xffffffffffffffffffffffffffffffffffffffff\n      and\n      dup2\n      mstore\n      0x20\n      add\n      swap1\n      dup2\n      mstore\n      0x20\n      add\n      0x00\n      keccak256\n        /* \"Doctor.sol\":770:870  doctors[msg.sender] = DoctorDetails(doctorCount, _name, _qualification, msg.sender, _workplaceIndex) */\n      0x00\n      dup3\n      add\n      mload\n      dup2\n      0x00\n      add\n      sstore\n      0x20\n      dup3\n      add\n      mload\n      dup2\n      0x01\n      add\n      swap1\n      dup2\n      tag_66\n      swap2\n      swap1\n      tag_59\n      jump\t// in\n    tag_66:\n      pop\n      0x40\n      dup3\n      add\n      mload\n      dup2\n      0x02\n      add\n      swap1\n      dup2\n      tag_67\n      swap2\n      swap1\n      tag_59\n      jump\t// in\n    tag_67:\n      pop\n      0x60\n      dup3\n      add\n      mload\n      dup2\n      0x03\n      add\n      exp(0x0100, 0x00)\n      dup2\n      sload\n      dup2\n      0xffffffffffffffffffffffffffffffffffffffff\n      mul\n      not\n      and\n      swap1\n      dup4\n      0xffffffffffffffffffffffffffffffffffffffff\n      and\n      mul\n      or\n      swap1\n      sstore\n      pop\n      0x80\n      dup3\n      add\n      mload\n      dup2\n      0x04\n      add\n      sstore\n      swap1\n      pop\n      pop\n        /* \"Doctor.sol\":880:893  doctorAddress */\n      0x03\n        /* \"Doctor.sol\":899:909  msg.sender */\n      caller\n        /* \"Doctor.sol\":880:910  doctorAddress.push(msg.sender) */\n      swap1\n      dup1\n      0x01\n      dup2\n      sload\n      add\n      dup1\n      dup3\n      sstore\n      dup1\n      swap2\n      pop\n      pop\n      0x01\n      swap1\n      sub\n      swap1\n      0x00\n      mstore\n      keccak256(0x00, 0x20)\n      add\n      0x00\n      swap1\n      swap2\n      swap1\n      swap2\n      swap1\n      swap2\n      0x0100\n      exp\n      dup2\n      sload\n      dup2\n      0xffffffffffffffffffffffffffffffffffffffff\n      mul\n      not\n      and\n      swap1\n      dup4\n      0xffffffffffffffffffffffffffffffffffffffff\n      and\n      mul\n      or\n      swap1\n      sstore\n      pop\n        /* \"Doctor.sol\":920:931  doctorCount */\n      0x02\n      0x00\n        /* \"Doctor.sol\":920:933  doctorCount++ */\n      dup2\n      sload\n      dup1\n      swap3\n      swap2\n      swap1\n      tag_69\n      swap1\n      tag_70\n      jump\t// in\n    tag_69:\n      swap2\n      swap1\n      pop\n      sstore\n      pop\n        /* \"Doctor.sol\":588:940  function registerDoctor(string memory _name, string memory _qualification, uint256 _workplaceIndex) public {... */\n      pop\n      pop\n      pop\n      jump\t// out\n        /* \"Doctor.sol\":233:281  mapping(address => DoctorDetails) public doctors */\n    tag_34:\n      mstore(0x20, 0x01)\n      dup1\n      0x00\n      mstore\n      keccak256(0x00, 0x40)\n      0x00\n      swap2\n      pop\n      swap1\n      pop\n      dup1\n      0x00\n      add\n      sload\n      swap1\n      dup1\n      0x01\n      add\n      dup1\n      sload\n      tag_71\n      swap1\n      tag_72\n      jump\t// in\n    tag_71:\n      dup1\n      0x1f\n      add\n      0x20\n      dup1\n      swap2\n      div\n      mul\n      0x20\n      add\n      mload(0x40)\n      swap1\n      dup2\n      add\n      0x40\n      mstore\n      dup1\n      swap3\n      swap2\n      swap1\n      dup2\n      dup2\n      mstore\n      0x20\n      add\n      dup3\n      dup1\n      sload\n      tag_73\n      swap1\n      tag_72\n      jump\t// in\n    tag_73:\n      dup1\n      iszero\n      tag_74\n      jumpi\n      dup1\n      0x1f\n      lt\n      tag_75\n      jumpi\n      0x0100\n      dup1\n      dup4\n      sload\n      div\n      mul\n      dup4\n      mstore\n      swap2\n      0x20\n      add\n      swap2\n      jump(tag_74)\n    tag_75:\n      dup3\n      add\n      swap2\n      swap1\n      0x00\n      mstore\n      keccak256(0x00, 0x20)\n      swap1\n    tag_76:\n      dup2\n      sload\n      dup2\n      mstore\n      swap1\n      0x01\n      add\n      swap1\n      0x20\n      add\n      dup1\n      dup4\n      gt\n      tag_76\n      jumpi\n      dup3\n      swap1\n      sub\n      0x1f\n      and\n      dup3\n      add\n      swap2\n    tag_74:\n      pop\n      pop\n      pop\n      pop\n      pop\n      swap1\n      dup1\n      0x02\n      add\n      dup1\n      sload\n      tag_77\n      swap1\n      tag_72\n      jump\t// in\n    tag_77:\n      dup1\n      0x1f\n      add\n      0x20\n      dup1\n      swap2\n      div\n      mul\n      0x20\n      add\n      mload(0x40)\n      swap1\n      dup2\n      add\n      0x40\n      mstore\n      dup1\n      swap3\n      swap2\n      swap1\n      dup2\n      dup2\n      mstore\n      0x20\n      add\n      dup3\n      dup1\n      sload\n      tag_78\n      swap1\n      tag_72\n      jump\t// in\n    tag_78:\n      dup1\n      iszero\n      tag_79\n      jumpi\n      dup1\n      0x1f\n      lt\n      tag_80\n      jumpi\n      0x0100\n      dup1\n      dup4\n      sload\n      div\n      mul\n      dup4\n      mstore\n      swap2\n      0x20\n      add\n      swap2\n      jump(tag_79)\n    tag_80:\n      dup3\n      add\n      swap2\n      swap1\n      0x00\n      mstore\n      keccak256(0x00, 0x20)\n      swap1\n    tag_81:\n      dup2\n      sload\n      dup2\n      mstore\n      swap1\n      0x01\n      add\n      swap1\n      0x20\n      add\n      dup1\n      dup4\n      gt\n      tag_81\n      jumpi\n      dup3\n      swap1\n      sub\n      0x1f\n      and\n      dup3\n      add\n      swap2\n    tag_79:\n      pop\n      pop\n      pop\n      pop\n      pop\n      swap1\n      dup1\n      0x03\n      add\n      0x00\n      swap1\n      sload\n      swap1\n      0x0100\n      exp\n      swap1\n      div\n      0xffffffffffffffffffffffffffffffffffffffff\n      and\n      swap1\n      dup1\n      0x04\n      add\n      sload\n      swap1\n      pop\n      dup6\n      jump\t// out\n        /* \"Doctor.sol\":353:582  function doctorNotExists() public view returns (bool) {... */\n    tag_38:\n        /* \"Doctor.sol\":401:405  bool */\n      0x00\n        /* \"Doctor.sol\":421:427  uint i */\n      dup1\n        /* \"Doctor.sol\":428:429  0 */\n      0x00\n        /* \"Doctor.sol\":421:429  uint i=0 */\n      swap1\n      pop\n        /* \"Doctor.sol\":417:555  for(uint i=0; i<doctorCount; i++) {... */\n    tag_83:\n        /* \"Doctor.sol\":433:444  doctorCount */\n      sload(0x02)\n        /* \"Doctor.sol\":431:432  i */\n      dup2\n        /* \"Doctor.sol\":431:444  i<doctorCount */\n      lt\n        /* \"Doctor.sol\":417:555  for(uint i=0; i<doctorCount; i++) {... */\n      iszero\n      tag_84\n      jumpi\n        /* \"Doctor.sol\":488:498  msg.sender */\n      caller\n        /* \"Doctor.sol\":468:498  doctorAddress[i] == msg.sender */\n      0xffffffffffffffffffffffffffffffffffffffff\n      and\n        /* \"Doctor.sol\":468:481  doctorAddress */\n      0x03\n        /* \"Doctor.sol\":482:483  i */\n      dup3\n        /* \"Doctor.sol\":468:484  doctorAddress[i] */\n      dup2\n      sload\n      dup2\n      lt\n      tag_86\n      jumpi\n      tag_87\n      tag_88\n      jump\t// in\n    tag_87:\n    tag_86:\n      swap1\n      0x00\n      mstore\n      keccak256(0x00, 0x20)\n      add\n      0x00\n      swap1\n      sload\n      swap1\n      0x0100\n      exp\n      swap1\n      div\n      0xffffffffffffffffffffffffffffffffffffffff\n      and\n        /* \"Doctor.sol\":468:498  doctorAddress[i] == msg.sender */\n      0xffffffffffffffffffffffffffffffffffffffff\n      and\n      sub\n        /* \"Doctor.sol\":465:545  if(doctorAddress[i] == msg.sender) {... */\n      tag_90\n      jumpi\n        /* \"Doctor.sol\":525:530  false */\n      0x00\n        /* \"Doctor.sol\":518:530  return false */\n      swap2\n      pop\n      pop\n      jump(tag_82)\n        /* \"Doctor.sol\":465:545  if(doctorAddress[i] == msg.sender) {... */\n    tag_90:\n        /* \"Doctor.sol\":446:449  i++ */\n      dup1\n      dup1\n      tag_91\n      swap1\n      tag_70\n      jump\t// in\n    tag_91:\n      swap2\n      pop\n      pop\n        /* \"Doctor.sol\":417:555  for(uint i=0; i<doctorCount; i++) {... */\n      jump(tag_83)\n    tag_84:\n      pop\n        /* \"Doctor.sol\":571:575  true */\n      0x01\n        /* \"Doctor.sol\":564:575  return true */\n      swap1\n      pop\n        /* \"Doctor.sol\":353:582  function doctorNotExists() public view returns (bool) {... */\n    tag_82:\n      swap1\n      jump\t// out\n        /* \"Admin.sol\":126:155  Workplace[] public workplaces */\n    tag_43:\n      0x00\n      dup2\n      dup2\n      sload\n      dup2\n      lt\n      tag_92\n      jumpi\n      0x00\n      dup1\n      revert\n    tag_92:\n      swap1\n      0x00\n      mstore\n      keccak256(0x00, 0x20)\n      swap1\n      0x02\n      mul\n      add\n      0x00\n      swap2\n      pop\n      swap1\n      pop\n      dup1\n      0x00\n      add\n      dup1\n      sload\n      tag_94\n      swap1\n      tag_72\n      jump\t// in\n    tag_94:\n      dup1\n      0x1f\n      add\n      0x20\n      dup1\n      swap2\n      div\n      mul\n      0x20\n      add\n      mload(0x40)\n      swap1\n      dup2\n      add\n      0x40\n      mstore\n      dup1\n      swap3\n      swap2\n      swap1\n      dup2\n      dup2\n      mstore\n      0x20\n      add\n      dup3\n      dup1\n      sload\n      tag_95\n      swap1\n      tag_72\n      jump\t// in\n    tag_95:\n      dup1\n      iszero\n      tag_96\n      jumpi\n      dup1\n      0x1f\n      lt\n      tag_97\n      jumpi\n      0x0100\n      dup1\n      dup4\n      sload\n      div\n      mul\n      dup4\n      mstore\n      swap2\n      0x20\n      add\n      swap2\n      jump(tag_96)\n    tag_97:\n      dup3\n      add\n      swap2\n      swap1\n      0x00\n      mstore\n      keccak256(0x00, 0x20)\n      swap1\n    tag_98:\n      dup2\n      sload\n      dup2\n      mstore\n      swap1\n      0x01\n      add\n      swap1\n      0x20\n      add\n      dup1\n      dup4\n      gt\n      tag_98\n      jumpi\n      dup3\n      swap1\n      sub\n      0x1f\n      and\n      dup3\n      add\n      swap2\n    tag_96:\n      pop\n      pop\n      pop\n      pop\n      pop\n      swap1\n      dup1\n      0x01\n      add\n      dup1\n      sload\n      tag_99\n      swap1\n      tag_72\n      jump\t// in\n    tag_99:\n      dup1\n      0x1f\n      add\n      0x20\n      dup1\n      swap2\n      div\n      mul\n      0x20\n      add\n      mload(0x40)\n      swap1\n      dup2\n      add\n      0x40\n      mstore\n      dup1\n      swap3\n      swap2\n      swap1\n      dup2\n      dup2\n      mstore\n      0x20\n      add\n      dup3\n      dup1\n      sload\n      tag_100\n      swap1\n      tag_72\n      jump\t// in\n    tag_100:\n      dup1\n      iszero\n      tag_101\n      jumpi\n      dup1\n      0x1f\n      lt\n      tag_102\n      jumpi\n      0x0100\n      dup1\n      dup4\n      sload\n      div\n      mul\n      dup4\n      mstore\n      swap2\n      0x20\n      add\n      swap2\n      jump(tag_101)\n    tag_102:\n      dup3\n      add\n      swap2\n      swap1\n      0x00\n      mstore\n      keccak256(0x00, 0x20)\n      swap1\n    tag_103:\n      dup2\n      sload\n      dup2\n      mstore\n      swap1\n      0x01\n      add\n      swap1\n      0x20\n      add\n      dup1\n      dup4\n      gt\n      tag_103\n      jumpi\n      dup3\n      swap1\n      sub\n      0x1f\n      and\n      dup3\n      add\n      swap2\n    tag_101:\n      pop\n      pop\n      pop\n      pop\n      pop\n      swap1\n      pop\n      dup3\n      jump\t// out\n        /* \"Admin.sol\":378:489  function getAllWorkplaces() public view virtual returns (Workplace[] memory) {... */\n    tag_47:\n        /* \"Admin.sol\":435:453  Workplace[] memory */\n      0x60\n        /* \"Admin.sol\":472:482  workplaces */\n      0x00\n        /* \"Admin.sol\":465:482  return workplaces */\n      dup1\n      sload\n      dup1\n      0x20\n      mul\n      0x20\n      add\n      mload(0x40)\n      swap1\n      dup2\n      add\n      0x40\n      mstore\n      dup1\n      swap3\n      swap2\n      swap1\n      dup2\n      dup2\n      mstore\n      0x20\n      add\n      0x00\n      swap1\n    tag_105:\n      dup3\n      dup3\n      lt\n      iszero\n      tag_106\n      jumpi\n      dup4\n      dup3\n      swap1\n      0x00\n      mstore\n      keccak256(0x00, 0x20)\n      swap1\n      0x02\n      mul\n      add\n      mload(0x40)\n      dup1\n      0x40\n      add\n      0x40\n      mstore\n      swap1\n      dup2\n      0x00\n      dup3\n      add\n      dup1\n      sload\n      tag_108\n      swap1\n      tag_72\n      jump\t// in\n    tag_108:\n      dup1\n      0x1f\n      add\n      0x20\n      dup1\n      swap2\n      div\n      mul\n      0x20\n      add\n      mload(0x40)\n      swap1\n      dup2\n      add\n      0x40\n      mstore\n      dup1\n      swap3\n      swap2\n      swap1\n      dup2\n      dup2\n      mstore\n      0x20\n      add\n      dup3\n      dup1\n      sload\n      tag_109\n      swap1\n      tag_72\n      jump\t// in\n    tag_109:\n      dup1\n      iszero\n      tag_110\n      jumpi\n      dup1\n      0x1f\n      lt\n      tag_111\n      jumpi\n      0x0100\n      dup1\n      dup4\n      sload\n      div\n      mul\n      dup4\n      mstore\n      swap2\n      0x20\n      add\n      swap2\n      jump(tag_110)\n    tag_111:\n      dup3\n      add\n      swap2\n      swap1\n      0x00\n      mstore\n      keccak256(0x00, 0x20)\n      swap1\n    tag_112:\n      dup2\n      sload\n      dup2\n      mstore\n      swap1\n      0x01\n      add\n      swap1\n      0x20\n      add\n      dup1\n      dup4\n      gt\n      tag_112\n      jumpi\n      dup3\n      swap1\n      sub\n      0x1f\n      and\n      dup3\n      add\n      swap2\n    tag_110:\n      pop\n      pop\n      pop\n      pop\n      pop\n      dup2\n      mstore\n      0x20\n      add\n      0x01\n      dup3\n      add\n      dup1\n      sload\n      tag_113\n      swap1\n      tag_72\n      jump\t// in\n    tag_113:\n      dup1\n      0x1f\n      add\n      0x20\n      dup1\n      swap2\n      div\n      mul\n      0x20\n      add\n      mload(0x40)\n      swap1\n      dup2\n      add\n      0x40\n      mstore\n      dup1\n      swap3\n      swap2\n      swap1\n      dup2\n      dup2\n      mstore\n      0x20\n      add\n      dup3\n      dup1\n      sload\n      tag_114\n      swap1\n      tag_72\n      jump\t// in\n    tag_114:\n      dup1\n      iszero\n      tag_115\n      jumpi\n      dup1\n      0x1f\n      lt\n      tag_116\n      jumpi\n      0x0100\n      dup1\n      dup4\n      sload\n      div\n      mul\n      dup4\n      mstore\n      swap2\n      0x20\n      add\n      swap2\n      jump(tag_115)\n    tag_116:\n      dup3\n      add\n      swap2\n      swap1\n      0x00\n      mstore\n      keccak256(0x00, 0x20)\n      swap1\n    tag_117:\n      dup2\n      sload\n      dup2\n      mstore\n      swap1\n      0x01\n      add\n      swap1\n      0x20\n      add\n      dup1\n      dup4\n      gt\n      tag_117\n      jumpi\n      dup3\n      swap1\n      sub\n      0x1f\n      and\n      dup3\n      add\n      swap2\n    tag_115:\n      pop\n      pop\n      pop\n      pop\n      pop\n      dup2\n      mstore\n      pop\n      pop\n      dup2\n      mstore\n      0x20\n      add\n      swap1\n      0x01\n      add\n      swap1\n      jump(tag_105)\n    tag_106:\n      pop\n      pop\n      pop\n      pop\n      swap1\n      pop\n        /* \"Admin.sol\":378:489  function getAllWorkplaces() public view virtual returns (Workplace[] memory) {... */\n      swap1\n      jump\t// out\n        /* \"Doctor.sol\":946:1230  function getAllDoctors() public view returns (DoctorDetails[] memory) {... */\n    tag_51:\n        /* \"Doctor.sol\":992:1014  DoctorDetails[] memory */\n      0x60\n        /* \"Doctor.sol\":1026:1055  DoctorDetails[] memory result */\n      0x00\n        /* \"Doctor.sol\":1078:1089  doctorCount */\n      sload(0x02)\n        /* \"Doctor.sol\":1058:1090  new DoctorDetails[](doctorCount) */\n      0xffffffffffffffff\n      dup2\n      gt\n      iszero\n      tag_119\n      jumpi\n      tag_120\n      tag_121\n      jump\t// in\n    tag_120:\n    tag_119:\n      mload(0x40)\n      swap1\n      dup1\n      dup3\n      mstore\n      dup1\n      0x20\n      mul\n      0x20\n      add\n      dup3\n      add\n      0x40\n      mstore\n      dup1\n      iszero\n      tag_122\n      jumpi\n      dup2\n      0x20\n      add\n    tag_123:\n      tag_124\n      tag_125\n      jump\t// in\n    tag_124:\n      dup2\n      mstore\n      0x20\n      add\n      swap1\n      0x01\n      swap1\n      sub\n      swap1\n      dup2\n      tag_123\n      jumpi\n      swap1\n      pop\n    tag_122:\n      pop\n        /* \"Doctor.sol\":1026:1090  DoctorDetails[] memory result = new DoctorDetails[](doctorCount) */\n      swap1\n      pop\n        /* \"Doctor.sol\":1105:1111  uint i */\n      0x00\n        /* \"Doctor.sol\":1100:1201  for (uint i = 0; i < doctorCount; i++) {... */\n    tag_126:\n        /* \"Doctor.sol\":1121:1132  doctorCount */\n      sload(0x02)\n        /* \"Doctor.sol\":1117:1118  i */\n      dup2\n        /* \"Doctor.sol\":1117:1132  i < doctorCount */\n      lt\n        /* \"Doctor.sol\":1100:1201  for (uint i = 0; i < doctorCount; i++) {... */\n      iszero\n      tag_127\n      jumpi\n        /* \"Doctor.sol\":1165:1172  doctors */\n      0x01\n        /* \"Doctor.sol\":1165:1190  doctors[doctorAddress[i]] */\n      0x00\n        /* \"Doctor.sol\":1173:1186  doctorAddress */\n      0x03\n        /* \"Doctor.sol\":1187:1188  i */\n      dup4\n        /* \"Doctor.sol\":1173:1189  doctorAddress[i] */\n      dup2\n      sload\n      dup2\n      lt\n      tag_129\n      jumpi\n      tag_130\n      tag_88\n      jump\t// in\n    tag_130:\n    tag_129:\n      swap1\n      0x00\n      mstore\n      keccak256(0x00, 0x20)\n      add\n      0x00\n      swap1\n      sload\n      swap1\n      0x0100\n      exp\n      swap1\n      div\n      0xffffffffffffffffffffffffffffffffffffffff\n      and\n        /* \"Doctor.sol\":1165:1190  doctors[doctorAddress[i]] */\n      0xffffffffffffffffffffffffffffffffffffffff\n      and\n      0xffffffffffffffffffffffffffffffffffffffff\n      and\n      dup2\n      mstore\n      0x20\n      add\n      swap1\n      dup2\n      mstore\n      0x20\n      add\n      0x00\n      keccak256\n        /* \"Doctor.sol\":1153:1190  result[i] = doctors[doctorAddress[i]] */\n      mload(0x40)\n      dup1\n      0xa0\n      add\n      0x40\n      mstore\n      swap1\n      dup2\n      0x00\n      dup3\n      add\n      sload\n      dup2\n      mstore\n      0x20\n      add\n      0x01\n      dup3\n      add\n      dup1\n      sload\n      tag_132\n      swap1\n      tag_72\n      jump\t// in\n    tag_132:\n      dup1\n      0x1f\n      add\n      0x20\n      dup1\n      swap2\n      div\n      mul\n      0x20\n      add\n      mload(0x40)\n      swap1\n      dup2\n      add\n      0x40\n      mstore\n      dup1\n      swap3\n      swap2\n      swap1\n      dup2\n      dup2\n      mstore\n      0x20\n      add\n      dup3\n      dup1\n      sload\n      tag_133\n      swap1\n      tag_72\n      jump\t// in\n    tag_133:\n      dup1\n      iszero\n      tag_134\n      jumpi\n      dup1\n      0x1f\n      lt\n      tag_135\n      jumpi\n      0x0100\n      dup1\n      dup4\n      sload\n      div\n      mul\n      dup4\n      mstore\n      swap2\n      0x20\n      add\n      swap2\n      jump(tag_134)\n    tag_135:\n      dup3\n      add\n      swap2\n      swap1\n      0x00\n      mstore\n      keccak256(0x00, 0x20)\n      swap1\n    tag_136:\n      dup2\n      sload\n      dup2\n      mstore\n      swap1\n      0x01\n      add\n      swap1\n      0x20\n      add\n      dup1\n      dup4\n      gt\n      tag_136\n      jumpi\n      dup3\n      swap1\n      sub\n      0x1f\n      and\n      dup3\n      add\n      swap2\n    tag_134:\n      pop\n      pop\n      pop\n      pop\n      pop\n      dup2\n      mstore\n      0x20\n      add\n      0x02\n      dup3\n      add\n      dup1\n      sload\n      tag_137\n      swap1\n      tag_72\n      jump\t// in\n    tag_137:\n      dup1\n      0x1f\n      add\n      0x20\n      dup1\n      swap2\n      div\n      mul\n      0x20\n      add\n      mload(0x40)\n      swap1\n      dup2\n      add\n      0x40\n      mstore\n      dup1\n      swap3\n      swap2\n      swap1\n      dup2\n      dup2\n      mstore\n      0x20\n      add\n      dup3\n      dup1\n      sload\n      tag_138\n      swap1\n      tag_72\n      jump\t// in\n    tag_138:\n      dup1\n      iszero\n      tag_139\n      jumpi\n      dup1\n      0x1f\n      lt\n      tag_140\n      jumpi\n      0x0100\n      dup1\n      dup4\n      sload\n      div\n      mul\n      dup4\n      mstore\n      swap2\n      0x20\n      add\n      swap2\n      jump(tag_139)\n    tag_140:\n      dup3\n      add\n      swap2\n      swap1\n      0x00\n      mstore\n      keccak256(0x00, 0x20)\n      swap1\n    tag_141:\n      dup2\n      sload\n      dup2\n      mstore\n      swap1\n      0x01\n      add\n      swap1\n      0x20\n      add\n      dup1\n      dup4\n      gt\n      tag_141\n      jumpi\n      dup3\n      swap1\n      sub\n      0x1f\n      and\n      dup3\n      add\n      swap2\n    tag_139:\n      pop\n      pop\n      pop\n      pop\n      pop\n      dup2\n      mstore\n      0x20\n      add\n      0x03\n      dup3\n      add\n      0x00\n      swap1\n      sload\n      swap1\n      0x0100\n      exp\n      swap1\n      div\n      0xffffffffffffffffffffffffffffffffffffffff\n      and\n      0xffffffffffffffffffffffffffffffffffffffff\n      and\n      0xffffffffffffffffffffffffffffffffffffffff\n      and\n      dup2\n      mstore\n      0x20\n      add\n      0x04\n      dup3\n      add\n      sload\n      dup2\n      mstore\n      pop\n      pop\n        /* \"Doctor.sol\":1153:1159  result */\n      dup3\n        /* \"Doctor.sol\":1160:1161  i */\n      dup3\n        /* \"Doctor.sol\":1153:1162  result[i] */\n      dup2\n      mload\n      dup2\n      lt\n      tag_142\n      jumpi\n      tag_143\n      tag_88\n      jump\t// in\n    tag_143:\n    tag_142:\n      0x20\n      mul\n      0x20\n      add\n      add\n        /* \"Doctor.sol\":1153:1190  result[i] = doctors[doctorAddress[i]] */\n      dup2\n      swap1\n      mstore\n      pop\n        /* \"Doctor.sol\":1134:1137  i++ */\n      dup1\n      dup1\n      tag_144\n      swap1\n      tag_70\n      jump\t// in\n    tag_144:\n      swap2\n      pop\n      pop\n        /* \"Doctor.sol\":1100:1201  for (uint i = 0; i < doctorCount; i++) {... */\n      jump(tag_126)\n    tag_127:\n      pop\n        /* \"Doctor.sol\":1217:1223  result */\n      dup1\n        /* \"Doctor.sol\":1210:1223  return result */\n      swap2\n      pop\n      pop\n        /* \"Doctor.sol\":946:1230  function getAllDoctors() public view returns (DoctorDetails[] memory) {... */\n      swap1\n      jump\t// out\n    tag_125:\n      mload(0x40)\n      dup1\n      0xa0\n      add\n      0x40\n      mstore\n      dup1\n      0x00\n      dup2\n      mstore\n      0x20\n      add\n      0x60\n      dup2\n      mstore\n      0x20\n      add\n      0x60\n      dup2\n      mstore\n      0x20\n      add\n      and(0xffffffffffffffffffffffffffffffffffffffff, 0x00)\n      dup2\n      mstore\n      0x20\n      add\n      0x00\n      dup2\n      mstore\n      pop\n      swap1\n      jump\t// out\n        /* \"#utility.yul\":7:82   */\n    tag_145:\n        /* \"#utility.yul\":40:46   */\n      0x00\n        /* \"#utility.yul\":73:75   */\n      0x40\n        /* \"#utility.yul\":67:76   */\n      mload\n        /* \"#utility.yul\":57:76   */\n      swap1\n      pop\n        /* \"#utility.yul\":7:82   */\n      swap1\n      jump\t// out\n        /* \"#utility.yul\":88:205   */\n    tag_146:\n        /* \"#utility.yul\":197:198   */\n      0x00\n        /* \"#utility.yul\":194:195   */\n      dup1\n        /* \"#utility.yul\":187:199   */\n      revert\n        /* \"#utility.yul\":211:328   */\n    tag_147:\n        /* \"#utility.yul\":320:321   */\n      0x00\n        /* \"#utility.yul\":317:318   */\n      dup1\n        /* \"#utility.yul\":310:322   */\n      revert\n        /* \"#utility.yul\":334:411   */\n    tag_148:\n        /* \"#utility.yul\":371:378   */\n      0x00\n        /* \"#utility.yul\":400:405   */\n      dup2\n        /* \"#utility.yul\":389:405   */\n      swap1\n      pop\n        /* \"#utility.yul\":334:411   */\n      swap2\n      swap1\n      pop\n      jump\t// out\n        /* \"#utility.yul\":417:539   */\n    tag_149:\n        /* \"#utility.yul\":490:514   */\n      tag_215\n        /* \"#utility.yul\":508:513   */\n      dup2\n        /* \"#utility.yul\":490:514   */\n      tag_148\n      jump\t// in\n    tag_215:\n        /* \"#utility.yul\":483:488   */\n      dup2\n        /* \"#utility.yul\":480:515   */\n      eq\n        /* \"#utility.yul\":470:533   */\n      tag_216\n      jumpi\n        /* \"#utility.yul\":529:530   */\n      0x00\n        /* \"#utility.yul\":526:527   */\n      dup1\n        /* \"#utility.yul\":519:531   */\n      revert\n        /* \"#utility.yul\":470:533   */\n    tag_216:\n        /* \"#utility.yul\":417:539   */\n      pop\n      jump\t// out\n        /* \"#utility.yul\":545:684   */\n    tag_150:\n        /* \"#utility.yul\":591:596   */\n      0x00\n        /* \"#utility.yul\":629:635   */\n      dup2\n        /* \"#utility.yul\":616:636   */\n      calldataload\n        /* \"#utility.yul\":607:636   */\n      swap1\n      pop\n        /* \"#utility.yul\":645:678   */\n      tag_218\n        /* \"#utility.yul\":672:677   */\n      dup2\n        /* \"#utility.yul\":645:678   */\n      tag_149\n      jump\t// in\n    tag_218:\n        /* \"#utility.yul\":545:684   */\n      swap3\n      swap2\n      pop\n      pop\n      jump\t// out\n        /* \"#utility.yul\":690:1019   */\n    tag_15:\n        /* \"#utility.yul\":749:755   */\n      0x00\n        /* \"#utility.yul\":798:800   */\n      0x20\n        /* \"#utility.yul\":786:795   */\n      dup3\n        /* \"#utility.yul\":777:784   */\n      dup5\n        /* \"#utility.yul\":773:796   */\n      sub\n        /* \"#utility.yul\":769:801   */\n      slt\n        /* \"#utility.yul\":766:885   */\n      iszero\n      tag_220\n      jumpi\n        /* \"#utility.yul\":804:883   */\n      tag_221\n      tag_146\n      jump\t// in\n    tag_221:\n        /* \"#utility.yul\":766:885   */\n    tag_220:\n        /* \"#utility.yul\":924:925   */\n      0x00\n        /* \"#utility.yul\":949:1002   */\n      tag_222\n        /* \"#utility.yul\":994:1001   */\n      dup5\n        /* \"#utility.yul\":985:991   */\n      dup3\n        /* \"#utility.yul\":974:983   */\n      dup6\n        /* \"#utility.yul\":970:992   */\n      add\n        /* \"#utility.yul\":949:1002   */\n      tag_150\n      jump\t// in\n    tag_222:\n        /* \"#utility.yul\":939:1002   */\n      swap2\n      pop\n        /* \"#utility.yul\":895:1012   */\n      pop\n        /* \"#utility.yul\":690:1019   */\n      swap3\n      swap2\n      pop\n      pop\n      jump\t// out\n        /* \"#utility.yul\":1025:1151   */\n    tag_151:\n        /* \"#utility.yul\":1062:1069   */\n      0x00\n        /* \"#utility.yul\":1102:1144   */\n      0xffffffffffffffffffffffffffffffffffffffff\n        /* \"#utility.yul\":1095:1100   */\n      dup3\n        /* \"#utility.yul\":1091:1145   */\n      and\n        /* \"#utility.yul\":1080:1145   */\n      swap1\n      pop\n        /* \"#utility.yul\":1025:1151   */\n      swap2\n      swap1\n      pop\n      jump\t// out\n        /* \"#utility.yul\":1157:1253   */\n    tag_152:\n        /* \"#utility.yul\":1194:1201   */\n      0x00\n        /* \"#utility.yul\":1223:1247   */\n      tag_225\n        /* \"#utility.yul\":1241:1246   */\n      dup3\n        /* \"#utility.yul\":1223:1247   */\n      tag_151\n      jump\t// in\n    tag_225:\n        /* \"#utility.yul\":1212:1247   */\n      swap1\n      pop\n        /* \"#utility.yul\":1157:1253   */\n      swap2\n      swap1\n      pop\n      jump\t// out\n        /* \"#utility.yul\":1259:1377   */\n    tag_153:\n        /* \"#utility.yul\":1346:1370   */\n      tag_227\n        /* \"#utility.yul\":1364:1369   */\n      dup2\n        /* \"#utility.yul\":1346:1370   */\n      tag_152\n      jump\t// in\n    tag_227:\n        /* \"#utility.yul\":1341:1344   */\n      dup3\n        /* \"#utility.yul\":1334:1371   */\n      mstore\n        /* \"#utility.yul\":1259:1377   */\n      pop\n      pop\n      jump\t// out\n        /* \"#utility.yul\":1383:1605   */\n    tag_18:\n        /* \"#utility.yul\":1476:1480   */\n      0x00\n        /* \"#utility.yul\":1514:1516   */\n      0x20\n        /* \"#utility.yul\":1503:1512   */\n      dup3\n        /* \"#utility.yul\":1499:1517   */\n      add\n        /* \"#utility.yul\":1491:1517   */\n      swap1\n      pop\n        /* \"#utility.yul\":1527:1598   */\n      tag_229\n        /* \"#utility.yul\":1595:1596   */\n      0x00\n        /* \"#utility.yul\":1584:1593   */\n      dup4\n        /* \"#utility.yul\":1580:1597   */\n      add\n        /* \"#utility.yul\":1571:1577   */\n      dup5\n        /* \"#utility.yul\":1527:1598   */\n      tag_153\n      jump\t// in\n    tag_229:\n        /* \"#utility.yul\":1383:1605   */\n      swap3\n      swap2\n      pop\n      pop\n      jump\t// out\n        /* \"#utility.yul\":1611:1728   */\n    tag_154:\n        /* \"#utility.yul\":1720:1721   */\n      0x00\n        /* \"#utility.yul\":1717:1718   */\n      dup1\n        /* \"#utility.yul\":1710:1722   */\n      revert\n        /* \"#utility.yul\":1734:1851   */\n    tag_155:\n        /* \"#utility.yul\":1843:1844   */\n      0x00\n        /* \"#utility.yul\":1840:1841   */\n      dup1\n        /* \"#utility.yul\":1833:1845   */\n      revert\n        /* \"#utility.yul\":1857:1959   */\n    tag_156:\n        /* \"#utility.yul\":1898:1904   */\n      0x00\n        /* \"#utility.yul\":1949:1951   */\n      0x1f\n        /* \"#utility.yul\":1945:1952   */\n      not\n        /* \"#utility.yul\":1940:1942   */\n      0x1f\n        /* \"#utility.yul\":1933:1938   */\n      dup4\n        /* \"#utility.yul\":1929:1943   */\n      add\n        /* \"#utility.yul\":1925:1953   */\n      and\n        /* \"#utility.yul\":1915:1953   */\n      swap1\n      pop\n        /* \"#utility.yul\":1857:1959   */\n      swap2\n      swap1\n      pop\n      jump\t// out\n        /* \"#utility.yul\":1965:2145   */\n    tag_121:\n        /* \"#utility.yul\":2013:2090   */\n      0x4e487b7100000000000000000000000000000000000000000000000000000000\n        /* \"#utility.yul\":2010:2011   */\n      0x00\n        /* \"#utility.yul\":2003:2091   */\n      mstore\n        /* \"#utility.yul\":2110:2114   */\n      0x41\n        /* \"#utility.yul\":2107:2108   */\n      0x04\n        /* \"#utility.yul\":2100:2115   */\n      mstore\n        /* \"#utility.yul\":2134:2138   */\n      0x24\n        /* \"#utility.yul\":2131:2132   */\n      0x00\n        /* \"#utility.yul\":2124:2139   */\n      revert\n        /* \"#utility.yul\":2151:2432   */\n    tag_157:\n        /* \"#utility.yul\":2234:2261   */\n      tag_235\n        /* \"#utility.yul\":2256:2260   */\n      dup3\n        /* \"#utility.yul\":2234:2261   */\n      tag_156\n      jump\t// in\n    tag_235:\n        /* \"#utility.yul\":2226:2232   */\n      dup2\n        /* \"#utility.yul\":2222:2262   */\n      add\n        /* \"#utility.yul\":2364:2370   */\n      dup2\n        /* \"#utility.yul\":2352:2362   */\n      dup2\n        /* \"#utility.yul\":2349:2371   */\n      lt\n        /* \"#utility.yul\":2328:2346   */\n      0xffffffffffffffff\n        /* \"#utility.yul\":2316:2326   */\n      dup3\n        /* \"#utility.yul\":2313:2347   */\n      gt\n        /* \"#utility.yul\":2310:2372   */\n      or\n        /* \"#utility.yul\":2307:2395   */\n      iszero\n      tag_236\n      jumpi\n        /* \"#utility.yul\":2375:2393   */\n      tag_237\n      tag_121\n      jump\t// in\n    tag_237:\n        /* \"#utility.yul\":2307:2395   */\n    tag_236:\n        /* \"#utility.yul\":2415:2425   */\n      dup1\n        /* \"#utility.yul\":2411:2413   */\n      0x40\n        /* \"#utility.yul\":2404:2426   */\n      mstore\n        /* \"#utility.yul\":2194:2432   */\n      pop\n        /* \"#utility.yul\":2151:2432   */\n      pop\n      pop\n      jump\t// out\n        /* \"#utility.yul\":2438:2567   */\n    tag_158:\n        /* \"#utility.yul\":2472:2478   */\n      0x00\n        /* \"#utility.yul\":2499:2519   */\n      tag_239\n      tag_145\n      jump\t// in\n    tag_239:\n        /* \"#utility.yul\":2489:2519   */\n      swap1\n      pop\n        /* \"#utility.yul\":2528:2561   */\n      tag_240\n        /* \"#utility.yul\":2556:2560   */\n      dup3\n        /* \"#utility.yul\":2548:2554   */\n      dup3\n        /* \"#utility.yul\":2528:2561   */\n      tag_157\n      jump\t// in\n    tag_240:\n        /* \"#utility.yul\":2438:2567   */\n      swap2\n      swap1\n      pop\n      jump\t// out\n        /* \"#utility.yul\":2573:2881   */\n    tag_159:\n        /* \"#utility.yul\":2635:2639   */\n      0x00\n        /* \"#utility.yul\":2725:2743   */\n      0xffffffffffffffff\n        /* \"#utility.yul\":2717:2723   */\n      dup3\n        /* \"#utility.yul\":2714:2744   */\n      gt\n        /* \"#utility.yul\":2711:2767   */\n      iszero\n      tag_242\n      jumpi\n        /* \"#utility.yul\":2747:2765   */\n      tag_243\n      tag_121\n      jump\t// in\n    tag_243:\n        /* \"#utility.yul\":2711:2767   */\n    tag_242:\n        /* \"#utility.yul\":2785:2814   */\n      tag_244\n        /* \"#utility.yul\":2807:2813   */\n      dup3\n        /* \"#utility.yul\":2785:2814   */\n      tag_156\n      jump\t// in\n    tag_244:\n        /* \"#utility.yul\":2777:2814   */\n      swap1\n      pop\n        /* \"#utility.yul\":2869:2873   */\n      0x20\n        /* \"#utility.yul\":2863:2867   */\n      dup2\n        /* \"#utility.yul\":2859:2874   */\n      add\n        /* \"#utility.yul\":2851:2874   */\n      swap1\n      pop\n        /* \"#utility.yul\":2573:2881   */\n      swap2\n      swap1\n      pop\n      jump\t// out\n        /* \"#utility.yul\":2887:3033   */\n    tag_160:\n        /* \"#utility.yul\":2984:2990   */\n      dup3\n        /* \"#utility.yul\":2979:2982   */\n      dup2\n        /* \"#utility.yul\":2974:2977   */\n      dup4\n        /* \"#utility.yul\":2961:2991   */\n      calldatacopy\n        /* \"#utility.yul\":3025:3026   */\n      0x00\n        /* \"#utility.yul\":3016:3022   */\n      dup4\n        /* \"#utility.yul\":3011:3014   */\n      dup4\n        /* \"#utility.yul\":3007:3023   */\n      add\n        /* \"#utility.yul\":3000:3027   */\n      mstore\n        /* \"#utility.yul\":2887:3033   */\n      pop\n      pop\n      pop\n      jump\t// out\n        /* \"#utility.yul\":3039:3464   */\n    tag_161:\n        /* \"#utility.yul\":3117:3122   */\n      0x00\n        /* \"#utility.yul\":3142:3208   */\n      tag_247\n        /* \"#utility.yul\":3158:3207   */\n      tag_248\n        /* \"#utility.yul\":3200:3206   */\n      dup5\n        /* \"#utility.yul\":3158:3207   */\n      tag_159\n      jump\t// in\n    tag_248:\n        /* \"#utility.yul\":3142:3208   */\n      tag_158\n      jump\t// in\n    tag_247:\n        /* \"#utility.yul\":3133:3208   */\n      swap1\n      pop\n        /* \"#utility.yul\":3231:3237   */\n      dup3\n        /* \"#utility.yul\":3224:3229   */\n      dup2\n        /* \"#utility.yul\":3217:3238   */\n      mstore\n        /* \"#utility.yul\":3269:3273   */\n      0x20\n        /* \"#utility.yul\":3262:3267   */\n      dup2\n        /* \"#utility.yul\":3258:3274   */\n      add\n        /* \"#utility.yul\":3307:3310   */\n      dup5\n        /* \"#utility.yul\":3298:3304   */\n      dup5\n        /* \"#utility.yul\":3293:3296   */\n      dup5\n        /* \"#utility.yul\":3289:3305   */\n      add\n        /* \"#utility.yul\":3286:3311   */\n      gt\n        /* \"#utility.yul\":3283:3395   */\n      iszero\n      tag_249\n      jumpi\n        /* \"#utility.yul\":3314:3393   */\n      tag_250\n      tag_155\n      jump\t// in\n    tag_250:\n        /* \"#utility.yul\":3283:3395   */\n    tag_249:\n        /* \"#utility.yul\":3404:3458   */\n      tag_251\n        /* \"#utility.yul\":3451:3457   */\n      dup5\n        /* \"#utility.yul\":3446:3449   */\n      dup3\n        /* \"#utility.yul\":3441:3444   */\n      dup6\n        /* \"#utility.yul\":3404:3458   */\n      tag_160\n      jump\t// in\n    tag_251:\n        /* \"#utility.yul\":3123:3464   */\n      pop\n        /* \"#utility.yul\":3039:3464   */\n      swap4\n      swap3\n      pop\n      pop\n      pop\n      jump\t// out\n        /* \"#utility.yul\":3484:3824   */\n    tag_162:\n        /* \"#utility.yul\":3540:3545   */\n      0x00\n        /* \"#utility.yul\":3589:3592   */\n      dup3\n        /* \"#utility.yul\":3582:3586   */\n      0x1f\n        /* \"#utility.yul\":3574:3580   */\n      dup4\n        /* \"#utility.yul\":3570:3587   */\n      add\n        /* \"#utility.yul\":3566:3593   */\n      slt\n        /* \"#utility.yul\":3556:3678   */\n      tag_253\n      jumpi\n        /* \"#utility.yul\":3597:3676   */\n      tag_254\n      tag_154\n      jump\t// in\n    tag_254:\n        /* \"#utility.yul\":3556:3678   */\n    tag_253:\n        /* \"#utility.yul\":3714:3720   */\n      dup2\n        /* \"#utility.yul\":3701:3721   */\n      calldataload\n        /* \"#utility.yul\":3739:3818   */\n      tag_255\n        /* \"#utility.yul\":3814:3817   */\n      dup5\n        /* \"#utility.yul\":3806:3812   */\n      dup3\n        /* \"#utility.yul\":3799:3803   */\n      0x20\n        /* \"#utility.yul\":3791:3797   */\n      dup7\n        /* \"#utility.yul\":3787:3804   */\n      add\n        /* \"#utility.yul\":3739:3818   */\n      tag_161\n      jump\t// in\n    tag_255:\n        /* \"#utility.yul\":3730:3818   */\n      swap2\n      pop\n        /* \"#utility.yul\":3546:3824   */\n      pop\n        /* \"#utility.yul\":3484:3824   */\n      swap3\n      swap2\n      pop\n      pop\n      jump\t// out\n        /* \"#utility.yul\":3830:4664   */\n    tag_21:\n        /* \"#utility.yul\":3918:3924   */\n      0x00\n        /* \"#utility.yul\":3926:3932   */\n      dup1\n        /* \"#utility.yul\":3975:3977   */\n      0x40\n        /* \"#utility.yul\":3963:3972   */\n      dup4\n        /* \"#utility.yul\":3954:3961   */\n      dup6\n        /* \"#utility.yul\":3950:3973   */\n      sub\n        /* \"#utility.yul\":3946:3978   */\n      slt\n        /* \"#utility.yul\":3943:4062   */\n      iszero\n      tag_257\n      jumpi\n        /* \"#utility.yul\":3981:4060   */\n      tag_258\n      tag_146\n      jump\t// in\n    tag_258:\n        /* \"#utility.yul\":3943:4062   */\n    tag_257:\n        /* \"#utility.yul\":4129:4130   */\n      0x00\n        /* \"#utility.yul\":4118:4127   */\n      dup4\n        /* \"#utility.yul\":4114:4131   */\n      add\n        /* \"#utility.yul\":4101:4132   */\n      calldataload\n        /* \"#utility.yul\":4159:4177   */\n      0xffffffffffffffff\n        /* \"#utility.yul\":4151:4157   */\n      dup2\n        /* \"#utility.yul\":4148:4178   */\n      gt\n        /* \"#utility.yul\":4145:4262   */\n      iszero\n      tag_259\n      jumpi\n        /* \"#utility.yul\":4181:4260   */\n      tag_260\n      tag_147\n      jump\t// in\n    tag_260:\n        /* \"#utility.yul\":4145:4262   */\n    tag_259:\n        /* \"#utility.yul\":4286:4349   */\n      tag_261\n        /* \"#utility.yul\":4341:4348   */\n      dup6\n        /* \"#utility.yul\":4332:4338   */\n      dup3\n        /* \"#utility.yul\":4321:4330   */\n      dup7\n        /* \"#utility.yul\":4317:4339   */\n      add\n        /* \"#utility.yul\":4286:4349   */\n      tag_162\n      jump\t// in\n    tag_261:\n        /* \"#utility.yul\":4276:4349   */\n      swap3\n      pop\n        /* \"#utility.yul\":4072:4359   */\n      pop\n        /* \"#utility.yul\":4426:4428   */\n      0x20\n        /* \"#utility.yul\":4415:4424   */\n      dup4\n        /* \"#utility.yul\":4411:4429   */\n      add\n        /* \"#utility.yul\":4398:4430   */\n      calldataload\n        /* \"#utility.yul\":4457:4475   */\n      0xffffffffffffffff\n        /* \"#utility.yul\":4449:4455   */\n      dup2\n        /* \"#utility.yul\":4446:4476   */\n      gt\n        /* \"#utility.yul\":4443:4560   */\n      iszero\n      tag_262\n      jumpi\n        /* \"#utility.yul\":4479:4558   */\n      tag_263\n      tag_147\n      jump\t// in\n    tag_263:\n        /* \"#utility.yul\":4443:4560   */\n    tag_262:\n        /* \"#utility.yul\":4584:4647   */\n      tag_264\n        /* \"#utility.yul\":4639:4646   */\n      dup6\n        /* \"#utility.yul\":4630:4636   */\n      dup3\n        /* \"#utility.yul\":4619:4628   */\n      dup7\n        /* \"#utility.yul\":4615:4637   */\n      add\n        /* \"#utility.yul\":4584:4647   */\n      tag_162\n      jump\t// in\n    tag_264:\n        /* \"#utility.yul\":4574:4647   */\n      swap2\n      pop\n        /* \"#utility.yul\":4369:4657   */\n      pop\n        /* \"#utility.yul\":3830:4664   */\n      swap3\n      pop\n      swap3\n      swap1\n      pop\n      jump\t// out\n        /* \"#utility.yul\":4670:4788   */\n    tag_163:\n        /* \"#utility.yul\":4757:4781   */\n      tag_266\n        /* \"#utility.yul\":4775:4780   */\n      dup2\n        /* \"#utility.yul\":4757:4781   */\n      tag_148\n      jump\t// in\n    tag_266:\n        /* \"#utility.yul\":4752:4755   */\n      dup3\n        /* \"#utility.yul\":4745:4782   */\n      mstore\n        /* \"#utility.yul\":4670:4788   */\n      pop\n      pop\n      jump\t// out\n        /* \"#utility.yul\":4794:5016   */\n    tag_26:\n        /* \"#utility.yul\":4887:4891   */\n      0x00\n        /* \"#utility.yul\":4925:4927   */\n      0x20\n        /* \"#utility.yul\":4914:4923   */\n      dup3\n        /* \"#utility.yul\":4910:4928   */\n      add\n        /* \"#utility.yul\":4902:4928   */\n      swap1\n      pop\n        /* \"#utility.yul\":4938:5009   */\n      tag_268\n        /* \"#utility.yul\":5006:5007   */\n      0x00\n        /* \"#utility.yul\":4995:5004   */\n      dup4\n        /* \"#utility.yul\":4991:5008   */\n      add\n        /* \"#utility.yul\":4982:4988   */\n      dup5\n        /* \"#utility.yul\":4938:5009   */\n      tag_163\n      jump\t// in\n    tag_268:\n        /* \"#utility.yul\":4794:5016   */\n      swap3\n      swap2\n      pop\n      pop\n      jump\t// out\n        /* \"#utility.yul\":5022:6001   */\n    tag_29:\n        /* \"#utility.yul\":5119:5125   */\n      0x00\n        /* \"#utility.yul\":5127:5133   */\n      dup1\n        /* \"#utility.yul\":5135:5141   */\n      0x00\n        /* \"#utility.yul\":5184:5186   */\n      0x60\n        /* \"#utility.yul\":5172:5181   */\n      dup5\n        /* \"#utility.yul\":5163:5170   */\n      dup7\n        /* \"#utility.yul\":5159:5182   */\n      sub\n        /* \"#utility.yul\":5155:5187   */\n      slt\n        /* \"#utility.yul\":5152:5271   */\n      iszero\n      tag_270\n      jumpi\n        /* \"#utility.yul\":5190:5269   */\n      tag_271\n      tag_146\n      jump\t// in\n    tag_271:\n        /* \"#utility.yul\":5152:5271   */\n    tag_270:\n        /* \"#utility.yul\":5338:5339   */\n      0x00\n        /* \"#utility.yul\":5327:5336   */\n      dup5\n        /* \"#utility.yul\":5323:5340   */\n      add\n        /* \"#utility.yul\":5310:5341   */\n      calldataload\n        /* \"#utility.yul\":5368:5386   */\n      0xffffffffffffffff\n        /* \"#utility.yul\":5360:5366   */\n      dup2\n        /* \"#utility.yul\":5357:5387   */\n      gt\n        /* \"#utility.yul\":5354:5471   */\n      iszero\n      tag_272\n      jumpi\n        /* \"#utility.yul\":5390:5469   */\n      tag_273\n      tag_147\n      jump\t// in\n    tag_273:\n        /* \"#utility.yul\":5354:5471   */\n    tag_272:\n        /* \"#utility.yul\":5495:5558   */\n      tag_274\n        /* \"#utility.yul\":5550:5557   */\n      dup7\n        /* \"#utility.yul\":5541:5547   */\n      dup3\n        /* \"#utility.yul\":5530:5539   */\n      dup8\n        /* \"#utility.yul\":5526:5548   */\n      add\n        /* \"#utility.yul\":5495:5558   */\n      tag_162\n      jump\t// in\n    tag_274:\n        /* \"#utility.yul\":5485:5558   */\n      swap4\n      pop\n        /* \"#utility.yul\":5281:5568   */\n      pop\n        /* \"#utility.yul\":5635:5637   */\n      0x20\n        /* \"#utility.yul\":5624:5633   */\n      dup5\n        /* \"#utility.yul\":5620:5638   */\n      add\n        /* \"#utility.yul\":5607:5639   */\n      calldataload\n        /* \"#utility.yul\":5666:5684   */\n      0xffffffffffffffff\n        /* \"#utility.yul\":5658:5664   */\n      dup2\n        /* \"#utility.yul\":5655:5685   */\n      gt\n        /* \"#utility.yul\":5652:5769   */\n      iszero\n      tag_275\n      jumpi\n        /* \"#utility.yul\":5688:5767   */\n      tag_276\n      tag_147\n      jump\t// in\n    tag_276:\n        /* \"#utility.yul\":5652:5769   */\n    tag_275:\n        /* \"#utility.yul\":5793:5856   */\n      tag_277\n        /* \"#utility.yul\":5848:5855   */\n      dup7\n        /* \"#utility.yul\":5839:5845   */\n      dup3\n        /* \"#utility.yul\":5828:5837   */\n      dup8\n        /* \"#utility.yul\":5824:5846   */\n      add\n        /* \"#utility.yul\":5793:5856   */\n      tag_162\n      jump\t// in\n    tag_277:\n        /* \"#utility.yul\":5783:5856   */\n      swap3\n      pop\n        /* \"#utility.yul\":5578:5866   */\n      pop\n        /* \"#utility.yul\":5905:5907   */\n      0x40\n        /* \"#utility.yul\":5931:5984   */\n      tag_278\n        /* \"#utility.yul\":5976:5983   */\n      dup7\n        /* \"#utility.yul\":5967:5973   */\n      dup3\n        /* \"#utility.yul\":5956:5965   */\n      dup8\n        /* \"#utility.yul\":5952:5974   */\n      add\n        /* \"#utility.yul\":5931:5984   */\n      tag_150\n      jump\t// in\n    tag_278:\n        /* \"#utility.yul\":5921:5984   */\n      swap2\n      pop\n        /* \"#utility.yul\":5876:5994   */\n      pop\n        /* \"#utility.yul\":5022:6001   */\n      swap3\n      pop\n      swap3\n      pop\n      swap3\n      jump\t// out\n        /* \"#utility.yul\":6007:6129   */\n    tag_164:\n        /* \"#utility.yul\":6080:6104   */\n      tag_280\n        /* \"#utility.yul\":6098:6103   */\n      dup2\n        /* \"#utility.yul\":6080:6104   */\n      tag_152\n      jump\t// in\n    tag_280:\n        /* \"#utility.yul\":6073:6078   */\n      dup2\n        /* \"#utility.yul\":6070:6105   */\n      eq\n        /* \"#utility.yul\":6060:6123   */\n      tag_281\n      jumpi\n        /* \"#utility.yul\":6119:6120   */\n      0x00\n        /* \"#utility.yul\":6116:6117   */\n      dup1\n        /* \"#utility.yul\":6109:6121   */\n      revert\n        /* \"#utility.yul\":6060:6123   */\n    tag_281:\n        /* \"#utility.yul\":6007:6129   */\n      pop\n      jump\t// out\n        /* \"#utility.yul\":6135:6274   */\n    tag_165:\n        /* \"#utility.yul\":6181:6186   */\n      0x00\n        /* \"#utility.yul\":6219:6225   */\n      dup2\n        /* \"#utility.yul\":6206:6226   */\n      calldataload\n        /* \"#utility.yul\":6197:6226   */\n      swap1\n      pop\n        /* \"#utility.yul\":6235:6268   */\n      tag_283\n        /* \"#utility.yul\":6262:6267   */\n      dup2\n        /* \"#utility.yul\":6235:6268   */\n      tag_164\n      jump\t// in\n    tag_283:\n        /* \"#utility.yul\":6135:6274   */\n      swap3\n      swap2\n      pop\n      pop\n      jump\t// out\n        /* \"#utility.yul\":6280:6609   */\n    tag_33:\n        /* \"#utility.yul\":6339:6345   */\n      0x00\n        /* \"#utility.yul\":6388:6390   */\n      0x20\n        /* \"#utility.yul\":6376:6385   */\n      dup3\n        /* \"#utility.yul\":6367:6374   */\n      dup5\n        /* \"#utility.yul\":6363:6386   */\n      sub\n        /* \"#utility.yul\":6359:6391   */\n      slt\n        /* \"#utility.yul\":6356:6475   */\n      iszero\n      tag_285\n      jumpi\n        /* \"#utility.yul\":6394:6473   */\n      tag_286\n      tag_146\n      jump\t// in\n    tag_286:\n        /* \"#utility.yul\":6356:6475   */\n    tag_285:\n        /* \"#utility.yul\":6514:6515   */\n      0x00\n        /* \"#utility.yul\":6539:6592   */\n      tag_287\n        /* \"#utility.yul\":6584:6591   */\n      dup5\n        /* \"#utility.yul\":6575:6581   */\n      dup3\n        /* \"#utility.yul\":6564:6573   */\n      dup6\n        /* \"#utility.yul\":6560:6582   */\n      add\n        /* \"#utility.yul\":6539:6592   */\n      tag_165\n      jump\t// in\n    tag_287:\n        /* \"#utility.yul\":6529:6592   */\n      swap2\n      pop\n        /* \"#utility.yul\":6485:6602   */\n      pop\n        /* \"#utility.yul\":6280:6609   */\n      swap3\n      swap2\n      pop\n      pop\n      jump\t// out\n        /* \"#utility.yul\":6615:6714   */\n    tag_166:\n        /* \"#utility.yul\":6667:6673   */\n      0x00\n        /* \"#utility.yul\":6701:6706   */\n      dup2\n        /* \"#utility.yul\":6695:6707   */\n      mload\n        /* \"#utility.yul\":6685:6707   */\n      swap1\n      pop\n        /* \"#utility.yul\":6615:6714   */\n      swap2\n      swap1\n      pop\n      jump\t// out\n        /* \"#utility.yul\":6720:6889   */\n    tag_167:\n        /* \"#utility.yul\":6804:6815   */\n      0x00\n        /* \"#utility.yul\":6838:6844   */\n      dup3\n        /* \"#utility.yul\":6833:6836   */\n      dup3\n        /* \"#utility.yul\":6826:6845   */\n      mstore\n        /* \"#utility.yul\":6878:6882   */\n      0x20\n        /* \"#utility.yul\":6873:6876   */\n      dup3\n        /* \"#utility.yul\":6869:6883   */\n      add\n        /* \"#utility.yul\":6854:6883   */\n      swap1\n      pop\n        /* \"#utility.yul\":6720:6889   */\n      swap3\n      swap2\n      pop\n      pop\n      jump\t// out\n        /* \"#utility.yul\":6895:7141   */\n    tag_168:\n        /* \"#utility.yul\":6976:6977   */\n      0x00\n        /* \"#utility.yul\":6986:7099   */\n    tag_291:\n        /* \"#utility.yul\":7000:7006   */\n      dup4\n        /* \"#utility.yul\":6997:6998   */\n      dup2\n        /* \"#utility.yul\":6994:7007   */\n      lt\n        /* \"#utility.yul\":6986:7099   */\n      iszero\n      tag_293\n      jumpi\n        /* \"#utility.yul\":7085:7086   */\n      dup1\n        /* \"#utility.yul\":7080:7083   */\n      dup3\n        /* \"#utility.yul\":7076:7087   */\n      add\n        /* \"#utility.yul\":7070:7088   */\n      mload\n        /* \"#utility.yul\":7066:7067   */\n      dup2\n        /* \"#utility.yul\":7061:7064   */\n      dup5\n        /* \"#utility.yul\":7057:7068   */\n      add\n        /* \"#utility.yul\":7050:7089   */\n      mstore\n        /* \"#utility.yul\":7022:7024   */\n      0x20\n        /* \"#utility.yul\":7019:7020   */\n      dup2\n        /* \"#utility.yul\":7015:7025   */\n      add\n        /* \"#utility.yul\":7010:7025   */\n      swap1\n      pop\n        /* \"#utility.yul\":6986:7099   */\n      jump(tag_291)\n    tag_293:\n        /* \"#utility.yul\":7133:7134   */\n      0x00\n        /* \"#utility.yul\":7124:7130   */\n      dup5\n        /* \"#utility.yul\":7119:7122   */\n      dup5\n        /* \"#utility.yul\":7115:7131   */\n      add\n        /* \"#utility.yul\":7108:7135   */\n      mstore\n        /* \"#utility.yul\":6957:7141   */\n      pop\n        /* \"#utility.yul\":6895:7141   */\n      pop\n      pop\n      pop\n      jump\t// out\n        /* \"#utility.yul\":7147:7524   */\n    tag_169:\n        /* \"#utility.yul\":7235:7238   */\n      0x00\n        /* \"#utility.yul\":7263:7302   */\n      tag_295\n        /* \"#utility.yul\":7296:7301   */\n      dup3\n        /* \"#utility.yul\":7263:7302   */\n      tag_166\n      jump\t// in\n    tag_295:\n        /* \"#utility.yul\":7318:7389   */\n      tag_296\n        /* \"#utility.yul\":7382:7388   */\n      dup2\n        /* \"#utility.yul\":7377:7380   */\n      dup6\n        /* \"#utility.yul\":7318:7389   */\n      tag_167\n      jump\t// in\n    tag_296:\n        /* \"#utility.yul\":7311:7389   */\n      swap4\n      pop\n        /* \"#utility.yul\":7398:7463   */\n      tag_297\n        /* \"#utility.yul\":7456:7462   */\n      dup2\n        /* \"#utility.yul\":7451:7454   */\n      dup6\n        /* \"#utility.yul\":7444:7448   */\n      0x20\n        /* \"#utility.yul\":7437:7442   */\n      dup7\n        /* \"#utility.yul\":7433:7449   */\n      add\n        /* \"#utility.yul\":7398:7463   */\n      tag_168\n      jump\t// in\n    tag_297:\n        /* \"#utility.yul\":7488:7517   */\n      tag_298\n        /* \"#utility.yul\":7510:7516   */\n      dup2\n        /* \"#utility.yul\":7488:7517   */\n      tag_156\n      jump\t// in\n    tag_298:\n        /* \"#utility.yul\":7483:7486   */\n      dup5\n        /* \"#utility.yul\":7479:7518   */\n      add\n        /* \"#utility.yul\":7472:7518   */\n      swap2\n      pop\n        /* \"#utility.yul\":7239:7524   */\n      pop\n        /* \"#utility.yul\":7147:7524   */\n      swap3\n      swap2\n      pop\n      pop\n      jump\t// out\n        /* \"#utility.yul\":7530:8376   */\n    tag_36:\n        /* \"#utility.yul\":7775:7779   */\n      0x00\n        /* \"#utility.yul\":7813:7816   */\n      0xa0\n        /* \"#utility.yul\":7802:7811   */\n      dup3\n        /* \"#utility.yul\":7798:7817   */\n      add\n        /* \"#utility.yul\":7790:7817   */\n      swap1\n      pop\n        /* \"#utility.yul\":7827:7898   */\n      tag_300\n        /* \"#utility.yul\":7895:7896   */\n      0x00\n        /* \"#utility.yul\":7884:7893   */\n      dup4\n        /* \"#utility.yul\":7880:7897   */\n      add\n        /* \"#utility.yul\":7871:7877   */\n      dup9\n        /* \"#utility.yul\":7827:7898   */\n      tag_163\n      jump\t// in\n    tag_300:\n        /* \"#utility.yul\":7945:7954   */\n      dup2\n        /* \"#utility.yul\":7939:7943   */\n      dup2\n        /* \"#utility.yul\":7935:7955   */\n      sub\n        /* \"#utility.yul\":7930:7932   */\n      0x20\n        /* \"#utility.yul\":7919:7928   */\n      dup4\n        /* \"#utility.yul\":7915:7933   */\n      add\n        /* \"#utility.yul\":7908:7956   */\n      mstore\n        /* \"#utility.yul\":7973:8051   */\n      tag_301\n        /* \"#utility.yul\":8046:8050   */\n      dup2\n        /* \"#utility.yul\":8037:8043   */\n      dup8\n        /* \"#utility.yul\":7973:8051   */\n      tag_169\n      jump\t// in\n    tag_301:\n        /* \"#utility.yul\":7965:8051   */\n      swap1\n      pop\n        /* \"#utility.yul\":8098:8107   */\n      dup2\n        /* \"#utility.yul\":8092:8096   */\n      dup2\n        /* \"#utility.yul\":8088:8108   */\n      sub\n        /* \"#utility.yul\":8083:8085   */\n      0x40\n        /* \"#utility.yul\":8072:8081   */\n      dup4\n        /* \"#utility.yul\":8068:8086   */\n      add\n        /* \"#utility.yul\":8061:8109   */\n      mstore\n        /* \"#utility.yul\":8126:8204   */\n      tag_302\n        /* \"#utility.yul\":8199:8203   */\n      dup2\n        /* \"#utility.yul\":8190:8196   */\n      dup7\n        /* \"#utility.yul\":8126:8204   */\n      tag_169\n      jump\t// in\n    tag_302:\n        /* \"#utility.yul\":8118:8204   */\n      swap1\n      pop\n        /* \"#utility.yul\":8214:8286   */\n      tag_303\n        /* \"#utility.yul\":8282:8284   */\n      0x60\n        /* \"#utility.yul\":8271:8280   */\n      dup4\n        /* \"#utility.yul\":8267:8285   */\n      add\n        /* \"#utility.yul\":8258:8264   */\n      dup6\n        /* \"#utility.yul\":8214:8286   */\n      tag_153\n      jump\t// in\n    tag_303:\n        /* \"#utility.yul\":8296:8369   */\n      tag_304\n        /* \"#utility.yul\":8364:8367   */\n      0x80\n        /* \"#utility.yul\":8353:8362   */\n      dup4\n        /* \"#utility.yul\":8349:8368   */\n      add\n        /* \"#utility.yul\":8340:8346   */\n      dup5\n        /* \"#utility.yul\":8296:8369   */\n      tag_163\n      jump\t// in\n    tag_304:\n        /* \"#utility.yul\":7530:8376   */\n      swap7\n      swap6\n      pop\n      pop\n      pop\n      pop\n      pop\n      pop\n      jump\t// out\n        /* \"#utility.yul\":8382:8472   */\n    tag_170:\n        /* \"#utility.yul\":8416:8423   */\n      0x00\n        /* \"#utility.yul\":8459:8464   */\n      dup2\n        /* \"#utility.yul\":8452:8465   */\n      iszero\n        /* \"#utility.yul\":8445:8466   */\n      iszero\n        /* \"#utility.yul\":8434:8466   */\n      swap1\n      pop\n        /* \"#utility.yul\":8382:8472   */\n      swap2\n      swap1\n      pop\n      jump\t// out\n        /* \"#utility.yul\":8478:8587   */\n    tag_171:\n        /* \"#utility.yul\":8559:8580   */\n      tag_307\n        /* \"#utility.yul\":8574:8579   */\n      dup2\n        /* \"#utility.yul\":8559:8580   */\n      tag_170\n      jump\t// in\n    tag_307:\n        /* \"#utility.yul\":8554:8557   */\n      dup3\n        /* \"#utility.yul\":8547:8581   */\n      mstore\n        /* \"#utility.yul\":8478:8587   */\n      pop\n      pop\n      jump\t// out\n        /* \"#utility.yul\":8593:8803   */\n    tag_40:\n        /* \"#utility.yul\":8680:8684   */\n      0x00\n        /* \"#utility.yul\":8718:8720   */\n      0x20\n        /* \"#utility.yul\":8707:8716   */\n      dup3\n        /* \"#utility.yul\":8703:8721   */\n      add\n        /* \"#utility.yul\":8695:8721   */\n      swap1\n      pop\n        /* \"#utility.yul\":8731:8796   */\n      tag_309\n        /* \"#utility.yul\":8793:8794   */\n      0x00\n        /* \"#utility.yul\":8782:8791   */\n      dup4\n        /* \"#utility.yul\":8778:8795   */\n      add\n        /* \"#utility.yul\":8769:8775   */\n      dup5\n        /* \"#utility.yul\":8731:8796   */\n      tag_171\n      jump\t// in\n    tag_309:\n        /* \"#utility.yul\":8593:8803   */\n      swap3\n      swap2\n      pop\n      pop\n      jump\t// out\n        /* \"#utility.yul\":8809:9323   */\n    tag_45:\n        /* \"#utility.yul\":8970:8974   */\n      0x00\n        /* \"#utility.yul\":9008:9010   */\n      0x40\n        /* \"#utility.yul\":8997:9006   */\n      dup3\n        /* \"#utility.yul\":8993:9011   */\n      add\n        /* \"#utility.yul\":8985:9011   */\n      swap1\n      pop\n        /* \"#utility.yul\":9057:9066   */\n      dup2\n        /* \"#utility.yul\":9051:9055   */\n      dup2\n        /* \"#utility.yul\":9047:9067   */\n      sub\n        /* \"#utility.yul\":9043:9044   */\n      0x00\n        /* \"#utility.yul\":9032:9041   */\n      dup4\n        /* \"#utility.yul\":9028:9045   */\n      add\n        /* \"#utility.yul\":9021:9068   */\n      mstore\n        /* \"#utility.yul\":9085:9163   */\n      tag_311\n        /* \"#utility.yul\":9158:9162   */\n      dup2\n        /* \"#utility.yul\":9149:9155   */\n      dup6\n        /* \"#utility.yul\":9085:9163   */\n      tag_169\n      jump\t// in\n    tag_311:\n        /* \"#utility.yul\":9077:9163   */\n      swap1\n      pop\n        /* \"#utility.yul\":9210:9219   */\n      dup2\n        /* \"#utility.yul\":9204:9208   */\n      dup2\n        /* \"#utility.yul\":9200:9220   */\n      sub\n        /* \"#utility.yul\":9195:9197   */\n      0x20\n        /* \"#utility.yul\":9184:9193   */\n      dup4\n        /* \"#utility.yul\":9180:9198   */\n      add\n        /* \"#utility.yul\":9173:9221   */\n      mstore\n        /* \"#utility.yul\":9238:9316   */\n      tag_312\n        /* \"#utility.yul\":9311:9315   */\n      dup2\n        /* \"#utility.yul\":9302:9308   */\n      dup5\n        /* \"#utility.yul\":9238:9316   */\n      tag_169\n      jump\t// in\n    tag_312:\n        /* \"#utility.yul\":9230:9316   */\n      swap1\n      pop\n        /* \"#utility.yul\":8809:9323   */\n      swap4\n      swap3\n      pop\n      pop\n      pop\n      jump\t// out\n        /* \"#utility.yul\":9329:9467   */\n    tag_172:\n        /* \"#utility.yul\":9420:9426   */\n      0x00\n        /* \"#utility.yul\":9454:9459   */\n      dup2\n        /* \"#utility.yul\":9448:9460   */\n      mload\n        /* \"#utility.yul\":9438:9460   */\n      swap1\n      pop\n        /* \"#utility.yul\":9329:9467   */\n      swap2\n      swap1\n      pop\n      jump\t// out\n        /* \"#utility.yul\":9473:9681   */\n    tag_173:\n        /* \"#utility.yul\":9596:9607   */\n      0x00\n        /* \"#utility.yul\":9630:9636   */\n      dup3\n        /* \"#utility.yul\":9625:9628   */\n      dup3\n        /* \"#utility.yul\":9618:9637   */\n      mstore\n        /* \"#utility.yul\":9670:9674   */\n      0x20\n        /* \"#utility.yul\":9665:9668   */\n      dup3\n        /* \"#utility.yul\":9661:9675   */\n      add\n        /* \"#utility.yul\":9646:9675   */\n      swap1\n      pop\n        /* \"#utility.yul\":9473:9681   */\n      swap3\n      swap2\n      pop\n      pop\n      jump\t// out\n        /* \"#utility.yul\":9687:9843   */\n    tag_174:\n        /* \"#utility.yul\":9778:9782   */\n      0x00\n        /* \"#utility.yul\":9801:9804   */\n      dup2\n        /* \"#utility.yul\":9793:9804   */\n      swap1\n      pop\n        /* \"#utility.yul\":9831:9835   */\n      0x20\n        /* \"#utility.yul\":9826:9829   */\n      dup3\n        /* \"#utility.yul\":9822:9836   */\n      add\n        /* \"#utility.yul\":9814:9836   */\n      swap1\n      pop\n        /* \"#utility.yul\":9687:9843   */\n      swap2\n      swap1\n      pop\n      jump\t// out\n        /* \"#utility.yul\":9849:10008   */\n    tag_175:\n        /* \"#utility.yul\":9923:9934   */\n      0x00\n        /* \"#utility.yul\":9957:9963   */\n      dup3\n        /* \"#utility.yul\":9952:9955   */\n      dup3\n        /* \"#utility.yul\":9945:9964   */\n      mstore\n        /* \"#utility.yul\":9997:10001   */\n      0x20\n        /* \"#utility.yul\":9992:9995   */\n      dup3\n        /* \"#utility.yul\":9988:10002   */\n      add\n        /* \"#utility.yul\":9973:10002   */\n      swap1\n      pop\n        /* \"#utility.yul\":9849:10008   */\n      swap3\n      swap2\n      pop\n      pop\n      jump\t// out\n        /* \"#utility.yul\":10014:10371   */\n    tag_176:\n        /* \"#utility.yul\":10092:10095   */\n      0x00\n        /* \"#utility.yul\":10120:10159   */\n      tag_318\n        /* \"#utility.yul\":10153:10158   */\n      dup3\n        /* \"#utility.yul\":10120:10159   */\n      tag_166\n      jump\t// in\n    tag_318:\n        /* \"#utility.yul\":10175:10236   */\n      tag_319\n        /* \"#utility.yul\":10229:10235   */\n      dup2\n        /* \"#utility.yul\":10224:10227   */\n      dup6\n        /* \"#utility.yul\":10175:10236   */\n      tag_175\n      jump\t// in\n    tag_319:\n        /* \"#utility.yul\":10168:10236   */\n      swap4\n      pop\n        /* \"#utility.yul\":10245:10310   */\n      tag_320\n        /* \"#utility.yul\":10303:10309   */\n      dup2\n        /* \"#utility.yul\":10298:10301   */\n      dup6\n        /* \"#utility.yul\":10291:10295   */\n      0x20\n        /* \"#utility.yul\":10284:10289   */\n      dup7\n        /* \"#utility.yul\":10280:10296   */\n      add\n        /* \"#utility.yul\":10245:10310   */\n      tag_168\n      jump\t// in\n    tag_320:\n        /* \"#utility.yul\":10335:10364   */\n      tag_321\n        /* \"#utility.yul\":10357:10363   */\n      dup2\n        /* \"#utility.yul\":10335:10364   */\n      tag_156\n      jump\t// in\n    tag_321:\n        /* \"#utility.yul\":10330:10333   */\n      dup5\n        /* \"#utility.yul\":10326:10365   */\n      add\n        /* \"#utility.yul\":10319:10365   */\n      swap2\n      pop\n        /* \"#utility.yul\":10096:10371   */\n      pop\n        /* \"#utility.yul\":10014:10371   */\n      swap3\n      swap2\n      pop\n      pop\n      jump\t// out\n        /* \"#utility.yul\":10433:11105   */\n    tag_177:\n        /* \"#utility.yul\":10540:10543   */\n      0x00\n        /* \"#utility.yul\":10576:10580   */\n      0x40\n        /* \"#utility.yul\":10571:10574   */\n      dup4\n        /* \"#utility.yul\":10567:10581   */\n      add\n        /* \"#utility.yul\":10663:10667   */\n      0x00\n        /* \"#utility.yul\":10656:10661   */\n      dup4\n        /* \"#utility.yul\":10652:10668   */\n      add\n        /* \"#utility.yul\":10646:10669   */\n      mload\n        /* \"#utility.yul\":10716:10719   */\n      dup5\n        /* \"#utility.yul\":10710:10714   */\n      dup3\n        /* \"#utility.yul\":10706:10720   */\n      sub\n        /* \"#utility.yul\":10699:10703   */\n      0x00\n        /* \"#utility.yul\":10694:10697   */\n      dup7\n        /* \"#utility.yul\":10690:10704   */\n      add\n        /* \"#utility.yul\":10683:10721   */\n      mstore\n        /* \"#utility.yul\":10742:10815   */\n      tag_323\n        /* \"#utility.yul\":10810:10814   */\n      dup3\n        /* \"#utility.yul\":10796:10808   */\n      dup3\n        /* \"#utility.yul\":10742:10815   */\n      tag_176\n      jump\t// in\n    tag_323:\n        /* \"#utility.yul\":10734:10815   */\n      swap2\n      pop\n        /* \"#utility.yul\":10591:10826   */\n      pop\n        /* \"#utility.yul\":10915:10919   */\n      0x20\n        /* \"#utility.yul\":10908:10913   */\n      dup4\n        /* \"#utility.yul\":10904:10920   */\n      add\n        /* \"#utility.yul\":10898:10921   */\n      mload\n        /* \"#utility.yul\":10968:10971   */\n      dup5\n        /* \"#utility.yul\":10962:10966   */\n      dup3\n        /* \"#utility.yul\":10958:10972   */\n      sub\n        /* \"#utility.yul\":10951:10955   */\n      0x20\n        /* \"#utility.yul\":10946:10949   */\n      dup7\n        /* \"#utility.yul\":10942:10956   */\n      add\n        /* \"#utility.yul\":10935:10973   */\n      mstore\n        /* \"#utility.yul\":10994:11067   */\n      tag_324\n        /* \"#utility.yul\":11062:11066   */\n      dup3\n        /* \"#utility.yul\":11048:11060   */\n      dup3\n        /* \"#utility.yul\":10994:11067   */\n      tag_176\n      jump\t// in\n    tag_324:\n        /* \"#utility.yul\":10986:11067   */\n      swap2\n      pop\n        /* \"#utility.yul\":10836:11078   */\n      pop\n        /* \"#utility.yul\":11095:11099   */\n      dup1\n        /* \"#utility.yul\":11088:11099   */\n      swap2\n      pop\n        /* \"#utility.yul\":10545:11105   */\n      pop\n        /* \"#utility.yul\":10433:11105   */\n      swap3\n      swap2\n      pop\n      pop\n      jump\t// out\n        /* \"#utility.yul\":11111:11363   */\n    tag_178:\n        /* \"#utility.yul\":11228:11238   */\n      0x00\n        /* \"#utility.yul\":11263:11357   */\n      tag_326\n        /* \"#utility.yul\":11353:11356   */\n      dup4\n        /* \"#utility.yul\":11345:11351   */\n      dup4\n        /* \"#utility.yul\":11263:11357   */\n      tag_177\n      jump\t// in\n    tag_326:\n        /* \"#utility.yul\":11249:11357   */\n      swap1\n      pop\n        /* \"#utility.yul\":11111:11363   */\n      swap3\n      swap2\n      pop\n      pop\n      jump\t// out\n        /* \"#utility.yul\":11369:11506   */\n    tag_179:\n        /* \"#utility.yul\":11463:11467   */\n      0x00\n        /* \"#utility.yul\":11495:11499   */\n      0x20\n        /* \"#utility.yul\":11490:11493   */\n      dup3\n        /* \"#utility.yul\":11486:11500   */\n      add\n        /* \"#utility.yul\":11478:11500   */\n      swap1\n      pop\n        /* \"#utility.yul\":11369:11506   */\n      swap2\n      swap1\n      pop\n      jump\t// out\n        /* \"#utility.yul\":11572:12675   */\n    tag_180:\n        /* \"#utility.yul\":11739:11742   */\n      0x00\n        /* \"#utility.yul\":11768:11846   */\n      tag_329\n        /* \"#utility.yul\":11840:11845   */\n      dup3\n        /* \"#utility.yul\":11768:11846   */\n      tag_172\n      jump\t// in\n    tag_329:\n        /* \"#utility.yul\":11862:11972   */\n      tag_330\n        /* \"#utility.yul\":11965:11971   */\n      dup2\n        /* \"#utility.yul\":11960:11963   */\n      dup6\n        /* \"#utility.yul\":11862:11972   */\n      tag_173\n      jump\t// in\n    tag_330:\n        /* \"#utility.yul\":11855:11972   */\n      swap4\n      pop\n        /* \"#utility.yul\":11998:12001   */\n      dup4\n        /* \"#utility.yul\":12043:12047   */\n      0x20\n        /* \"#utility.yul\":12035:12041   */\n      dup3\n        /* \"#utility.yul\":12031:12048   */\n      mul\n        /* \"#utility.yul\":12026:12029   */\n      dup6\n        /* \"#utility.yul\":12022:12049   */\n      add\n        /* \"#utility.yul\":12073:12153   */\n      tag_331\n        /* \"#utility.yul\":12147:12152   */\n      dup6\n        /* \"#utility.yul\":12073:12153   */\n      tag_174\n      jump\t// in\n    tag_331:\n        /* \"#utility.yul\":12176:12183   */\n      dup1\n        /* \"#utility.yul\":12207:12208   */\n      0x00\n        /* \"#utility.yul\":12192:12630   */\n    tag_332:\n        /* \"#utility.yul\":12217:12223   */\n      dup6\n        /* \"#utility.yul\":12214:12215   */\n      dup2\n        /* \"#utility.yul\":12211:12224   */\n      lt\n        /* \"#utility.yul\":12192:12630   */\n      iszero\n      tag_334\n      jumpi\n        /* \"#utility.yul\":12288:12297   */\n      dup5\n        /* \"#utility.yul\":12282:12286   */\n      dup5\n        /* \"#utility.yul\":12278:12298   */\n      sub\n        /* \"#utility.yul\":12273:12276   */\n      dup10\n        /* \"#utility.yul\":12266:12299   */\n      mstore\n        /* \"#utility.yul\":12339:12345   */\n      dup2\n        /* \"#utility.yul\":12333:12346   */\n      mload\n        /* \"#utility.yul\":12367:12479   */\n      tag_335\n        /* \"#utility.yul\":12474:12478   */\n      dup6\n        /* \"#utility.yul\":12459:12472   */\n      dup3\n        /* \"#utility.yul\":12367:12479   */\n      tag_178\n      jump\t// in\n    tag_335:\n        /* \"#utility.yul\":12359:12479   */\n      swap5\n      pop\n        /* \"#utility.yul\":12502:12586   */\n      tag_336\n        /* \"#utility.yul\":12579:12585   */\n      dup4\n        /* \"#utility.yul\":12502:12586   */\n      tag_179\n      jump\t// in\n    tag_336:\n        /* \"#utility.yul\":12492:12586   */\n      swap3\n      pop\n        /* \"#utility.yul\":12615:12619   */\n      0x20\n        /* \"#utility.yul\":12610:12613   */\n      dup11\n        /* \"#utility.yul\":12606:12620   */\n      add\n        /* \"#utility.yul\":12599:12620   */\n      swap10\n      pop\n        /* \"#utility.yul\":12252:12630   */\n      pop\n        /* \"#utility.yul\":12239:12240   */\n      0x01\n        /* \"#utility.yul\":12236:12237   */\n      dup2\n        /* \"#utility.yul\":12232:12241   */\n      add\n        /* \"#utility.yul\":12227:12241   */\n      swap1\n      pop\n        /* \"#utility.yul\":12192:12630   */\n      jump(tag_332)\n    tag_334:\n        /* \"#utility.yul\":12196:12210   */\n      pop\n        /* \"#utility.yul\":12646:12650   */\n      dup3\n        /* \"#utility.yul\":12639:12650   */\n      swap8\n      pop\n        /* \"#utility.yul\":12666:12669   */\n      dup8\n        /* \"#utility.yul\":12659:12669   */\n      swap6\n      pop\n        /* \"#utility.yul\":11744:12675   */\n      pop\n      pop\n      pop\n      pop\n      pop\n        /* \"#utility.yul\":11572:12675   */\n      swap3\n      swap2\n      pop\n      pop\n      jump\t// out\n        /* \"#utility.yul\":12681:13150   */\n    tag_49:\n        /* \"#utility.yul\":12872:12876   */\n      0x00\n        /* \"#utility.yul\":12910:12912   */\n      0x20\n        /* \"#utility.yul\":12899:12908   */\n      dup3\n        /* \"#utility.yul\":12895:12913   */\n      add\n        /* \"#utility.yul\":12887:12913   */\n      swap1\n      pop\n        /* \"#utility.yul\":12959:12968   */\n      dup2\n        /* \"#utility.yul\":12953:12957   */\n      dup2\n        /* \"#utility.yul\":12949:12969   */\n      sub\n        /* \"#utility.yul\":12945:12946   */\n      0x00\n        /* \"#utility.yul\":12934:12943   */\n      dup4\n        /* \"#utility.yul\":12930:12947   */\n      add\n        /* \"#utility.yul\":12923:12970   */\n      mstore\n        /* \"#utility.yul\":12987:13143   */\n      tag_338\n        /* \"#utility.yul\":13138:13142   */\n      dup2\n        /* \"#utility.yul\":13129:13135   */\n      dup5\n        /* \"#utility.yul\":12987:13143   */\n      tag_180\n      jump\t// in\n    tag_338:\n        /* \"#utility.yul\":12979:13143   */\n      swap1\n      pop\n        /* \"#utility.yul\":12681:13150   */\n      swap3\n      swap2\n      pop\n      pop\n      jump\t// out\n        /* \"#utility.yul\":13156:13299   */\n    tag_181:\n        /* \"#utility.yul\":13252:13258   */\n      0x00\n        /* \"#utility.yul\":13286:13291   */\n      dup2\n        /* \"#utility.yul\":13280:13292   */\n      mload\n        /* \"#utility.yul\":13270:13292   */\n      swap1\n      pop\n        /* \"#utility.yul\":13156:13299   */\n      swap2\n      swap1\n      pop\n      jump\t// out\n        /* \"#utility.yul\":13305:13518   */\n    tag_182:\n        /* \"#utility.yul\":13433:13444   */\n      0x00\n        /* \"#utility.yul\":13467:13473   */\n      dup3\n        /* \"#utility.yul\":13462:13465   */\n      dup3\n        /* \"#utility.yul\":13455:13474   */\n      mstore\n        /* \"#utility.yul\":13507:13511   */\n      0x20\n        /* \"#utility.yul\":13502:13505   */\n      dup3\n        /* \"#utility.yul\":13498:13512   */\n      add\n        /* \"#utility.yul\":13483:13512   */\n      swap1\n      pop\n        /* \"#utility.yul\":13305:13518   */\n      swap3\n      swap2\n      pop\n      pop\n      jump\t// out\n        /* \"#utility.yul\":13524:13685   */\n    tag_183:\n        /* \"#utility.yul\":13620:13624   */\n      0x00\n        /* \"#utility.yul\":13643:13646   */\n      dup2\n        /* \"#utility.yul\":13635:13646   */\n      swap1\n      pop\n        /* \"#utility.yul\":13673:13677   */\n      0x20\n        /* \"#utility.yul\":13668:13671   */\n      dup3\n        /* \"#utility.yul\":13664:13678   */\n      add\n        /* \"#utility.yul\":13656:13678   */\n      swap1\n      pop\n        /* \"#utility.yul\":13524:13685   */\n      swap2\n      swap1\n      pop\n      jump\t// out\n        /* \"#utility.yul\":13691:13799   */\n    tag_184:\n        /* \"#utility.yul\":13768:13792   */\n      tag_343\n        /* \"#utility.yul\":13786:13791   */\n      dup2\n        /* \"#utility.yul\":13768:13792   */\n      tag_148\n      jump\t// in\n    tag_343:\n        /* \"#utility.yul\":13763:13766   */\n      dup3\n        /* \"#utility.yul\":13756:13793   */\n      mstore\n        /* \"#utility.yul\":13691:13799   */\n      pop\n      pop\n      jump\t// out\n        /* \"#utility.yul\":13805:13913   */\n    tag_185:\n        /* \"#utility.yul\":13882:13906   */\n      tag_345\n        /* \"#utility.yul\":13900:13905   */\n      dup2\n        /* \"#utility.yul\":13882:13906   */\n      tag_152\n      jump\t// in\n    tag_345:\n        /* \"#utility.yul\":13877:13880   */\n      dup3\n        /* \"#utility.yul\":13870:13907   */\n      mstore\n        /* \"#utility.yul\":13805:13913   */\n      pop\n      pop\n      jump\t// out\n        /* \"#utility.yul\":13985:15196   */\n    tag_186:\n        /* \"#utility.yul\":14102:14105   */\n      0x00\n        /* \"#utility.yul\":14138:14142   */\n      0xa0\n        /* \"#utility.yul\":14133:14136   */\n      dup4\n        /* \"#utility.yul\":14129:14143   */\n      add\n        /* \"#utility.yul\":14223:14227   */\n      0x00\n        /* \"#utility.yul\":14216:14221   */\n      dup4\n        /* \"#utility.yul\":14212:14228   */\n      add\n        /* \"#utility.yul\":14206:14229   */\n      mload\n        /* \"#utility.yul\":14242:14305   */\n      tag_347\n        /* \"#utility.yul\":14299:14303   */\n      0x00\n        /* \"#utility.yul\":14294:14297   */\n      dup7\n        /* \"#utility.yul\":14290:14304   */\n      add\n        /* \"#utility.yul\":14276:14288   */\n      dup3\n        /* \"#utility.yul\":14242:14305   */\n      tag_184\n      jump\t// in\n    tag_347:\n        /* \"#utility.yul\":14153:14315   */\n      pop\n        /* \"#utility.yul\":14397:14401   */\n      0x20\n        /* \"#utility.yul\":14390:14395   */\n      dup4\n        /* \"#utility.yul\":14386:14402   */\n      add\n        /* \"#utility.yul\":14380:14403   */\n      mload\n        /* \"#utility.yul\":14450:14453   */\n      dup5\n        /* \"#utility.yul\":14444:14448   */\n      dup3\n        /* \"#utility.yul\":14440:14454   */\n      sub\n        /* \"#utility.yul\":14433:14437   */\n      0x20\n        /* \"#utility.yul\":14428:14431   */\n      dup7\n        /* \"#utility.yul\":14424:14438   */\n      add\n        /* \"#utility.yul\":14417:14455   */\n      mstore\n        /* \"#utility.yul\":14476:14549   */\n      tag_348\n        /* \"#utility.yul\":14544:14548   */\n      dup3\n        /* \"#utility.yul\":14530:14542   */\n      dup3\n        /* \"#utility.yul\":14476:14549   */\n      tag_176\n      jump\t// in\n    tag_348:\n        /* \"#utility.yul\":14468:14549   */\n      swap2\n      pop\n        /* \"#utility.yul\":14325:14560   */\n      pop\n        /* \"#utility.yul\":14651:14655   */\n      0x40\n        /* \"#utility.yul\":14644:14649   */\n      dup4\n        /* \"#utility.yul\":14640:14656   */\n      add\n        /* \"#utility.yul\":14634:14657   */\n      mload\n        /* \"#utility.yul\":14704:14707   */\n      dup5\n        /* \"#utility.yul\":14698:14702   */\n      dup3\n        /* \"#utility.yul\":14694:14708   */\n      sub\n        /* \"#utility.yul\":14687:14691   */\n      0x40\n        /* \"#utility.yul\":14682:14685   */\n      dup7\n        /* \"#utility.yul\":14678:14692   */\n      add\n        /* \"#utility.yul\":14671:14709   */\n      mstore\n        /* \"#utility.yul\":14730:14803   */\n      tag_349\n        /* \"#utility.yul\":14798:14802   */\n      dup3\n        /* \"#utility.yul\":14784:14796   */\n      dup3\n        /* \"#utility.yul\":14730:14803   */\n      tag_176\n      jump\t// in\n    tag_349:\n        /* \"#utility.yul\":14722:14803   */\n      swap2\n      pop\n        /* \"#utility.yul\":14570:14814   */\n      pop\n        /* \"#utility.yul\":14898:14902   */\n      0x60\n        /* \"#utility.yul\":14891:14896   */\n      dup4\n        /* \"#utility.yul\":14887:14903   */\n      add\n        /* \"#utility.yul\":14881:14904   */\n      mload\n        /* \"#utility.yul\":14917:14980   */\n      tag_350\n        /* \"#utility.yul\":14974:14978   */\n      0x60\n        /* \"#utility.yul\":14969:14972   */\n      dup7\n        /* \"#utility.yul\":14965:14979   */\n      add\n        /* \"#utility.yul\":14951:14963   */\n      dup3\n        /* \"#utility.yul\":14917:14980   */\n      tag_185\n      jump\t// in\n    tag_350:\n        /* \"#utility.yul\":14824:14990   */\n      pop\n        /* \"#utility.yul\":15077:15081   */\n      0x80\n        /* \"#utility.yul\":15070:15075   */\n      dup4\n        /* \"#utility.yul\":15066:15082   */\n      add\n        /* \"#utility.yul\":15060:15083   */\n      mload\n        /* \"#utility.yul\":15096:15159   */\n      tag_351\n        /* \"#utility.yul\":15153:15157   */\n      0x80\n        /* \"#utility.yul\":15148:15151   */\n      dup7\n        /* \"#utility.yul\":15144:15158   */\n      add\n        /* \"#utility.yul\":15130:15142   */\n      dup3\n        /* \"#utility.yul\":15096:15159   */\n      tag_184\n      jump\t// in\n    tag_351:\n        /* \"#utility.yul\":15000:15169   */\n      pop\n        /* \"#utility.yul\":15186:15190   */\n      dup1\n        /* \"#utility.yul\":15179:15190   */\n      swap2\n      pop\n        /* \"#utility.yul\":14107:15196   */\n      pop\n        /* \"#utility.yul\":13985:15196   */\n      swap3\n      swap2\n      pop\n      pop\n      jump\t// out\n        /* \"#utility.yul\":15202:15474   */\n    tag_187:\n        /* \"#utility.yul\":15329:15339   */\n      0x00\n        /* \"#utility.yul\":15364:15468   */\n      tag_353\n        /* \"#utility.yul\":15464:15467   */\n      dup4\n        /* \"#utility.yul\":15456:15462   */\n      dup4\n        /* \"#utility.yul\":15364:15468   */\n      tag_186\n      jump\t// in\n    tag_353:\n        /* \"#utility.yul\":15350:15468   */\n      swap1\n      pop\n        /* \"#utility.yul\":15202:15474   */\n      swap3\n      swap2\n      pop\n      pop\n      jump\t// out\n        /* \"#utility.yul\":15480:15622   */\n    tag_188:\n        /* \"#utility.yul\":15579:15583   */\n      0x00\n        /* \"#utility.yul\":15611:15615   */\n      0x20\n        /* \"#utility.yul\":15606:15609   */\n      dup3\n        /* \"#utility.yul\":15602:15616   */\n      add\n        /* \"#utility.yul\":15594:15616   */\n      swap1\n      pop\n        /* \"#utility.yul\":15480:15622   */\n      swap2\n      swap1\n      pop\n      jump\t// out\n        /* \"#utility.yul\":15698:16841   */\n    tag_189:\n        /* \"#utility.yul\":15875:15878   */\n      0x00\n        /* \"#utility.yul\":15904:15987   */\n      tag_356\n        /* \"#utility.yul\":15981:15986   */\n      dup3\n        /* \"#utility.yul\":15904:15987   */\n      tag_181\n      jump\t// in\n    tag_356:\n        /* \"#utility.yul\":16003:16118   */\n      tag_357\n        /* \"#utility.yul\":16111:16117   */\n      dup2\n        /* \"#utility.yul\":16106:16109   */\n      dup6\n        /* \"#utility.yul\":16003:16118   */\n      tag_182\n      jump\t// in\n    tag_357:\n        /* \"#utility.yul\":15996:16118   */\n      swap4\n      pop\n        /* \"#utility.yul\":16144:16147   */\n      dup4\n        /* \"#utility.yul\":16189:16193   */\n      0x20\n        /* \"#utility.yul\":16181:16187   */\n      dup3\n        /* \"#utility.yul\":16177:16194   */\n      mul\n        /* \"#utility.yul\":16172:16175   */\n      dup6\n        /* \"#utility.yul\":16168:16195   */\n      add\n        /* \"#utility.yul\":16219:16304   */\n      tag_358\n        /* \"#utility.yul\":16298:16303   */\n      dup6\n        /* \"#utility.yul\":16219:16304   */\n      tag_183\n      jump\t// in\n    tag_358:\n        /* \"#utility.yul\":16327:16334   */\n      dup1\n        /* \"#utility.yul\":16358:16359   */\n      0x00\n        /* \"#utility.yul\":16343:16796   */\n    tag_359:\n        /* \"#utility.yul\":16368:16374   */\n      dup6\n        /* \"#utility.yul\":16365:16366   */\n      dup2\n        /* \"#utility.yul\":16362:16375   */\n      lt\n        /* \"#utility.yul\":16343:16796   */\n      iszero\n      tag_361\n      jumpi\n        /* \"#utility.yul\":16439:16448   */\n      dup5\n        /* \"#utility.yul\":16433:16437   */\n      dup5\n        /* \"#utility.yul\":16429:16449   */\n      sub\n        /* \"#utility.yul\":16424:16427   */\n      dup10\n        /* \"#utility.yul\":16417:16450   */\n      mstore\n        /* \"#utility.yul\":16490:16496   */\n      dup2\n        /* \"#utility.yul\":16484:16497   */\n      mload\n        /* \"#utility.yul\":16518:16640   */\n      tag_362\n        /* \"#utility.yul\":16635:16639   */\n      dup6\n        /* \"#utility.yul\":16620:16633   */\n      dup3\n        /* \"#utility.yul\":16518:16640   */\n      tag_187\n      jump\t// in\n    tag_362:\n        /* \"#utility.yul\":16510:16640   */\n      swap5\n      pop\n        /* \"#utility.yul\":16663:16752   */\n      tag_363\n        /* \"#utility.yul\":16745:16751   */\n      dup4\n        /* \"#utility.yul\":16663:16752   */\n      tag_188\n      jump\t// in\n    tag_363:\n        /* \"#utility.yul\":16653:16752   */\n      swap3\n      pop\n        /* \"#utility.yul\":16781:16785   */\n      0x20\n        /* \"#utility.yul\":16776:16779   */\n      dup11\n        /* \"#utility.yul\":16772:16786   */\n      add\n        /* \"#utility.yul\":16765:16786   */\n      swap10\n      pop\n        /* \"#utility.yul\":16403:16796   */\n      pop\n        /* \"#utility.yul\":16390:16391   */\n      0x01\n        /* \"#utility.yul\":16387:16388   */\n      dup2\n        /* \"#utility.yul\":16383:16392   */\n      add\n        /* \"#utility.yul\":16378:16392   */\n      swap1\n      pop\n        /* \"#utility.yul\":16343:16796   */\n      jump(tag_359)\n    tag_361:\n        /* \"#utility.yul\":16347:16361   */\n      pop\n        /* \"#utility.yul\":16812:16816   */\n      dup3\n        /* \"#utility.yul\":16805:16816   */\n      swap8\n      pop\n        /* \"#utility.yul\":16832:16835   */\n      dup8\n        /* \"#utility.yul\":16825:16835   */\n      swap6\n      pop\n        /* \"#utility.yul\":15880:16841   */\n      pop\n      pop\n      pop\n      pop\n      pop\n        /* \"#utility.yul\":15698:16841   */\n      swap3\n      swap2\n      pop\n      pop\n      jump\t// out\n        /* \"#utility.yul\":16847:17336   */\n    tag_53:\n        /* \"#utility.yul\":17048:17052   */\n      0x00\n        /* \"#utility.yul\":17086:17088   */\n      0x20\n        /* \"#utility.yul\":17075:17084   */\n      dup3\n        /* \"#utility.yul\":17071:17089   */\n      add\n        /* \"#utility.yul\":17063:17089   */\n      swap1\n      pop\n        /* \"#utility.yul\":17135:17144   */\n      dup2\n        /* \"#utility.yul\":17129:17133   */\n      dup2\n        /* \"#utility.yul\":17125:17145   */\n      sub\n        /* \"#utility.yul\":17121:17122   */\n      0x00\n        /* \"#utility.yul\":17110:17119   */\n      dup4\n        /* \"#utility.yul\":17106:17123   */\n      add\n        /* \"#utility.yul\":17099:17146   */\n      mstore\n        /* \"#utility.yul\":17163:17329   */\n      tag_365\n        /* \"#utility.yul\":17324:17328   */\n      dup2\n        /* \"#utility.yul\":17315:17321   */\n      dup5\n        /* \"#utility.yul\":17163:17329   */\n      tag_189\n      jump\t// in\n    tag_365:\n        /* \"#utility.yul\":17155:17329   */\n      swap1\n      pop\n        /* \"#utility.yul\":16847:17336   */\n      swap3\n      swap2\n      pop\n      pop\n      jump\t// out\n        /* \"#utility.yul\":17342:17522   */\n    tag_190:\n        /* \"#utility.yul\":17390:17467   */\n      0x4e487b7100000000000000000000000000000000000000000000000000000000\n        /* \"#utility.yul\":17387:17388   */\n      0x00\n        /* \"#utility.yul\":17380:17468   */\n      mstore\n        /* \"#utility.yul\":17487:17491   */\n      0x22\n        /* \"#utility.yul\":17484:17485   */\n      0x04\n        /* \"#utility.yul\":17477:17492   */\n      mstore\n        /* \"#utility.yul\":17511:17515   */\n      0x24\n        /* \"#utility.yul\":17508:17509   */\n      0x00\n        /* \"#utility.yul\":17501:17516   */\n      revert\n        /* \"#utility.yul\":17528:17848   */\n    tag_72:\n        /* \"#utility.yul\":17572:17578   */\n      0x00\n        /* \"#utility.yul\":17609:17610   */\n      0x02\n        /* \"#utility.yul\":17603:17607   */\n      dup3\n        /* \"#utility.yul\":17599:17611   */\n      div\n        /* \"#utility.yul\":17589:17611   */\n      swap1\n      pop\n        /* \"#utility.yul\":17656:17657   */\n      0x01\n        /* \"#utility.yul\":17650:17654   */\n      dup3\n        /* \"#utility.yul\":17646:17658   */\n      and\n        /* \"#utility.yul\":17677:17695   */\n      dup1\n        /* \"#utility.yul\":17667:17748   */\n      tag_368\n      jumpi\n        /* \"#utility.yul\":17733:17737   */\n      0x7f\n        /* \"#utility.yul\":17725:17731   */\n      dup3\n        /* \"#utility.yul\":17721:17738   */\n      and\n        /* \"#utility.yul\":17711:17738   */\n      swap2\n      pop\n        /* \"#utility.yul\":17667:17748   */\n    tag_368:\n        /* \"#utility.yul\":17795:17797   */\n      0x20\n        /* \"#utility.yul\":17787:17793   */\n      dup3\n        /* \"#utility.yul\":17784:17798   */\n      lt\n        /* \"#utility.yul\":17764:17782   */\n      dup2\n        /* \"#utility.yul\":17761:17799   */\n      sub\n        /* \"#utility.yul\":17758:17842   */\n      tag_369\n      jumpi\n        /* \"#utility.yul\":17814:17832   */\n      tag_370\n      tag_190\n      jump\t// in\n    tag_370:\n        /* \"#utility.yul\":17758:17842   */\n    tag_369:\n        /* \"#utility.yul\":17579:17848   */\n      pop\n        /* \"#utility.yul\":17528:17848   */\n      swap2\n      swap1\n      pop\n      jump\t// out\n        /* \"#utility.yul\":17854:17995   */\n    tag_191:\n        /* \"#utility.yul\":17903:17907   */\n      0x00\n        /* \"#utility.yul\":17926:17929   */\n      dup2\n        /* \"#utility.yul\":17918:17929   */\n      swap1\n      pop\n        /* \"#utility.yul\":17949:17952   */\n      dup2\n        /* \"#utility.yul\":17946:17947   */\n      0x00\n        /* \"#utility.yul\":17939:17953   */\n      mstore\n        /* \"#utility.yul\":17983:17987   */\n      0x20\n        /* \"#utility.yul\":17980:17981   */\n      0x00\n        /* \"#utility.yul\":17970:17988   */\n      keccak256\n        /* \"#utility.yul\":17962:17988   */\n      swap1\n      pop\n        /* \"#utility.yul\":17854:17995   */\n      swap2\n      swap1\n      pop\n      jump\t// out\n        /* \"#utility.yul\":18001:18094   */\n    tag_192:\n        /* \"#utility.yul\":18038:18044   */\n      0x00\n        /* \"#utility.yul\":18085:18087   */\n      0x20\n        /* \"#utility.yul\":18080:18082   */\n      0x1f\n        /* \"#utility.yul\":18073:18078   */\n      dup4\n        /* \"#utility.yul\":18069:18083   */\n      add\n        /* \"#utility.yul\":18065:18088   */\n      div\n        /* \"#utility.yul\":18055:18088   */\n      swap1\n      pop\n        /* \"#utility.yul\":18001:18094   */\n      swap2\n      swap1\n      pop\n      jump\t// out\n        /* \"#utility.yul\":18100:18207   */\n    tag_193:\n        /* \"#utility.yul\":18144:18152   */\n      0x00\n        /* \"#utility.yul\":18194:18199   */\n      dup3\n        /* \"#utility.yul\":18188:18192   */\n      dup3\n        /* \"#utility.yul\":18184:18200   */\n      shl\n        /* \"#utility.yul\":18163:18200   */\n      swap1\n      pop\n        /* \"#utility.yul\":18100:18207   */\n      swap3\n      swap2\n      pop\n      pop\n      jump\t// out\n        /* \"#utility.yul\":18213:18606   */\n    tag_194:\n        /* \"#utility.yul\":18282:18288   */\n      0x00\n        /* \"#utility.yul\":18332:18333   */\n      0x08\n        /* \"#utility.yul\":18320:18330   */\n      dup4\n        /* \"#utility.yul\":18316:18334   */\n      mul\n        /* \"#utility.yul\":18355:18452   */\n      tag_375\n        /* \"#utility.yul\":18385:18451   */\n      0xffffffffffffffffffffffffffffffffffffffffffffffffffffffffffffffff\n        /* \"#utility.yul\":18374:18383   */\n      dup3\n        /* \"#utility.yul\":18355:18452   */\n      tag_193\n      jump\t// in\n    tag_375:\n        /* \"#utility.yul\":18473:18512   */\n      tag_376\n        /* \"#utility.yul\":18503:18511   */\n      dup7\n        /* \"#utility.yul\":18492:18501   */\n      dup4\n        /* \"#utility.yul\":18473:18512   */\n      tag_193\n      jump\t// in\n    tag_376:\n        /* \"#utility.yul\":18461:18512   */\n      swap6\n      pop\n        /* \"#utility.yul\":18545:18549   */\n      dup1\n        /* \"#utility.yul\":18541:18550   */\n      not\n        /* \"#utility.yul\":18534:18539   */\n      dup5\n        /* \"#utility.yul\":18530:18551   */\n      and\n        /* \"#utility.yul\":18521:18551   */\n      swap4\n      pop\n        /* \"#utility.yul\":18594:18598   */\n      dup1\n        /* \"#utility.yul\":18584:18592   */\n      dup7\n        /* \"#utility.yul\":18580:18599   */\n      and\n        /* \"#utility.yul\":18573:18578   */\n      dup5\n        /* \"#utility.yul\":18570:18600   */\n      or\n        /* \"#utility.yul\":18560:18600   */\n      swap3\n      pop\n        /* \"#utility.yul\":18289:18606   */\n      pop\n      pop\n        /* \"#utility.yul\":18213:18606   */\n      swap4\n      swap3\n      pop\n      pop\n      pop\n      jump\t// out\n        /* \"#utility.yul\":18612:18672   */\n    tag_195:\n        /* \"#utility.yul\":18640:18643   */\n      0x00\n        /* \"#utility.yul\":18661:18666   */\n      dup2\n        /* \"#utility.yul\":18654:18666   */\n      swap1\n      pop\n        /* \"#utility.yul\":18612:18672   */\n      swap2\n      swap1\n      pop\n      jump\t// out\n        /* \"#utility.yul\":18678:18820   */\n    tag_196:\n        /* \"#utility.yul\":18728:18737   */\n      0x00\n        /* \"#utility.yul\":18761:18814   */\n      tag_379\n        /* \"#utility.yul\":18779:18813   */\n      tag_380\n        /* \"#utility.yul\":18788:18812   */\n      tag_381\n        /* \"#utility.yul\":18806:18811   */\n      dup5\n        /* \"#utility.yul\":18788:18812   */\n      tag_148\n      jump\t// in\n    tag_381:\n        /* \"#utility.yul\":18779:18813   */\n      tag_195\n      jump\t// in\n    tag_380:\n        /* \"#utility.yul\":18761:18814   */\n      tag_148\n      jump\t// in\n    tag_379:\n        /* \"#utility.yul\":18748:18814   */\n      swap1\n      pop\n        /* \"#utility.yul\":18678:18820   */\n      swap2\n      swap1\n      pop\n      jump\t// out\n        /* \"#utility.yul\":18826:18901   */\n    tag_197:\n        /* \"#utility.yul\":18869:18872   */\n      0x00\n        /* \"#utility.yul\":18890:18895   */\n      dup2\n        /* \"#utility.yul\":18883:18895   */\n      swap1\n      pop\n        /* \"#utility.yul\":18826:18901   */\n      swap2\n      swap1\n      pop\n      jump\t// out\n        /* \"#utility.yul\":18907:19176   */\n    tag_198:\n        /* \"#utility.yul\":19017:19056   */\n      tag_384\n        /* \"#utility.yul\":19048:19055   */\n      dup4\n        /* \"#utility.yul\":19017:19056   */\n      tag_196\n      jump\t// in\n    tag_384:\n        /* \"#utility.yul\":19078:19169   */\n      tag_385\n        /* \"#utility.yul\":19127:19168   */\n      tag_386\n        /* \"#utility.yul\":19151:19167   */\n      dup3\n        /* \"#utility.yul\":19127:19168   */\n      tag_197\n      jump\t// in\n    tag_386:\n        /* \"#utility.yul\":19119:19125   */\n      dup5\n        /* \"#utility.yul\":19112:19116   */\n      dup5\n        /* \"#utility.yul\":19106:19117   */\n      sload\n        /* \"#utility.yul\":19078:19169   */\n      tag_194\n      jump\t// in\n    tag_385:\n        /* \"#utility.yul\":19072:19076   */\n      dup3\n        /* \"#utility.yul\":19065:19170   */\n      sstore\n        /* \"#utility.yul\":18983:19176   */\n      pop\n        /* \"#utility.yul\":18907:19176   */\n      pop\n      pop\n      pop\n      jump\t// out\n        /* \"#utility.yul\":19182:19255   */\n    tag_199:\n        /* \"#utility.yul\":19227:19230   */\n      0x00\n        /* \"#utility.yul\":19182:19255   */\n      swap1\n      jump\t// out\n        /* \"#utility.yul\":19261:19450   */\n    tag_200:\n        /* \"#utility.yul\":19338:19370   */\n      tag_389\n      tag_199\n      jump\t// in\n    tag_389:\n        /* \"#utility.yul\":19379:19444   */\n      tag_390\n        /* \"#utility.yul\":19437:19443   */\n      dup2\n        /* \"#utility.yul\":19429:19435   */\n      dup5\n        /* \"#utility.yul\":19423:19427   */\n      dup5\n        /* \"#utility.yul\":19379:19444   */\n      tag_198\n      jump\t// in\n    tag_390:\n        /* \"#utility.yul\":19314:19450   */\n      pop\n        /* \"#utility.yul\":19261:19450   */\n      pop\n      pop\n      jump\t// out\n        /* \"#utility.yul\":19456:19642   */\n    tag_201:\n        /* \"#utility.yul\":19516:19636   */\n    tag_392:\n        /* \"#utility.yul\":19533:19536   */\n      dup2\n        /* \"#utility.yul\":19526:19531   */\n      dup2\n        /* \"#utility.yul\":19523:19537   */\n      lt\n        /* \"#utility.yul\":19516:19636   */\n      iszero\n      tag_394\n      jumpi\n        /* \"#utility.yul\":19587:19626   */\n      tag_395\n        /* \"#utility.yul\":19624:19625   */\n      0x00\n        /* \"#utility.yul\":19617:19622   */\n      dup3\n        /* \"#utility.yul\":19587:19626   */\n      tag_200\n      jump\t// in\n    tag_395:\n        /* \"#utility.yul\":19560:19561   */\n      0x01\n        /* \"#utility.yul\":19553:19558   */\n      dup2\n        /* \"#utility.yul\":19549:19562   */\n      add\n        /* \"#utility.yul\":19540:19562   */\n      swap1\n      pop\n        /* \"#utility.yul\":19516:19636   */\n      jump(tag_392)\n    tag_394:\n        /* \"#utility.yul\":19456:19642   */\n      pop\n      pop\n      jump\t// out\n        /* \"#utility.yul\":19648:20191   */\n    tag_202:\n        /* \"#utility.yul\":19749:19751   */\n      0x1f\n        /* \"#utility.yul\":19744:19747   */\n      dup3\n        /* \"#utility.yul\":19741:19752   */\n      gt\n        /* \"#utility.yul\":19738:20184   */\n      iszero\n      tag_397\n      jumpi\n        /* \"#utility.yul\":19783:19821   */\n      tag_398\n        /* \"#utility.yul\":19815:19820   */\n      dup2\n        /* \"#utility.yul\":19783:19821   */\n      tag_191\n      jump\t// in\n    tag_398:\n        /* \"#utility.yul\":19867:19896   */\n      tag_399\n        /* \"#utility.yul\":19885:19895   */\n      dup5\n        /* \"#utility.yul\":19867:19896   */\n      tag_192\n      jump\t// in\n    tag_399:\n        /* \"#utility.yul\":19857:19865   */\n      dup2\n        /* \"#utility.yul\":19853:19897   */\n      add\n        /* \"#utility.yul\":20050:20052   */\n      0x20\n        /* \"#utility.yul\":20038:20048   */\n      dup6\n        /* \"#utility.yul\":20035:20053   */\n      lt\n        /* \"#utility.yul\":20032:20081   */\n      iszero\n      tag_400\n      jumpi\n        /* \"#utility.yul\":20071:20079   */\n      dup2\n        /* \"#utility.yul\":20056:20079   */\n      swap1\n      pop\n        /* \"#utility.yul\":20032:20081   */\n    tag_400:\n        /* \"#utility.yul\":20094:20174   */\n      tag_401\n        /* \"#utility.yul\":20150:20172   */\n      tag_402\n        /* \"#utility.yul\":20168:20171   */\n      dup6\n        /* \"#utility.yul\":20150:20172   */\n      tag_192\n      jump\t// in\n    tag_402:\n        /* \"#utility.yul\":20140:20148   */\n      dup4\n        /* \"#utility.yul\":20136:20173   */\n      add\n        /* \"#utility.yul\":20123:20134   */\n      dup3\n        /* \"#utility.yul\":20094:20174   */\n      tag_201\n      jump\t// in\n    tag_401:\n        /* \"#utility.yul\":19753:20184   */\n      pop\n      pop\n        /* \"#utility.yul\":19738:20184   */\n    tag_397:\n        /* \"#utility.yul\":19648:20191   */\n      pop\n      pop\n      pop\n      jump\t// out\n        /* \"#utility.yul\":20197:20314   */\n    tag_203:\n        /* \"#utility.yul\":20251:20259   */\n      0x00\n        /* \"#utility.yul\":20301:20306   */\n      dup3\n        /* \"#utility.yul\":20295:20299   */\n      dup3\n        /* \"#utility.yul\":20291:20307   */\n      shr\n        /* \"#utility.yul\":20270:20307   */\n      swap1\n      pop\n        /* \"#utility.yul\":20197:20314   */\n      swap3\n      swap2\n      pop\n      pop\n      jump\t// out\n        /* \"#utility.yul\":20320:20489   */\n    tag_204:\n        /* \"#utility.yul\":20364:20370   */\n      0x00\n        /* \"#utility.yul\":20397:20448   */\n      tag_405\n        /* \"#utility.yul\":20445:20446   */\n      0x00\n        /* \"#utility.yul\":20441:20447   */\n      not\n        /* \"#utility.yul\":20433:20438   */\n      dup5\n        /* \"#utility.yul\":20430:20431   */\n      0x08\n        /* \"#utility.yul\":20426:20439   */\n      mul\n        /* \"#utility.yul\":20397:20448   */\n      tag_203\n      jump\t// in\n    tag_405:\n        /* \"#utility.yul\":20393:20449   */\n      not\n        /* \"#utility.yul\":20478:20482   */\n      dup1\n        /* \"#utility.yul\":20472:20476   */\n      dup4\n        /* \"#utility.yul\":20468:20483   */\n      and\n        /* \"#utility.yul\":20458:20483   */\n      swap2\n      pop\n        /* \"#utility.yul\":20371:20489   */\n      pop\n        /* \"#utility.yul\":20320:20489   */\n      swap3\n      swap2\n      pop\n      pop\n      jump\t// out\n        /* \"#utility.yul\":20494:20789   */\n    tag_205:\n        /* \"#utility.yul\":20570:20574   */\n      0x00\n        /* \"#utility.yul\":20716:20745   */\n      tag_407\n        /* \"#utility.yul\":20741:20744   */\n      dup4\n        /* \"#utility.yul\":20735:20739   */\n      dup4\n        /* \"#utility.yul\":20716:20745   */\n      tag_204\n      jump\t// in\n    tag_407:\n        /* \"#utility.yul\":20708:20745   */\n      swap2\n      pop\n        /* \"#utility.yul\":20778:20781   */\n      dup3\n        /* \"#utility.yul\":20775:20776   */\n      0x02\n        /* \"#utility.yul\":20771:20782   */\n      mul\n        /* \"#utility.yul\":20765:20769   */\n      dup3\n        /* \"#utility.yul\":20762:20783   */\n      or\n        /* \"#utility.yul\":20754:20783   */\n      swap1\n      pop\n        /* \"#utility.yul\":20494:20789   */\n      swap3\n      swap2\n      pop\n      pop\n      jump\t// out\n        /* \"#utility.yul\":20794:22189   */\n    tag_59:\n        /* \"#utility.yul\":20911:20948   */\n      tag_409\n        /* \"#utility.yul\":20944:20947   */\n      dup3\n        /* \"#utility.yul\":20911:20948   */\n      tag_166\n      jump\t// in\n    tag_409:\n        /* \"#utility.yul\":21013:21031   */\n      0xffffffffffffffff\n        /* \"#utility.yul\":21005:21011   */\n      dup2\n        /* \"#utility.yul\":21002:21032   */\n      gt\n        /* \"#utility.yul\":20999:21055   */\n      iszero\n      tag_410\n      jumpi\n        /* \"#utility.yul\":21035:21053   */\n      tag_411\n      tag_121\n      jump\t// in\n    tag_411:\n        /* \"#utility.yul\":20999:21055   */\n    tag_410:\n        /* \"#utility.yul\":21079:21117   */\n      tag_412\n        /* \"#utility.yul\":21111:21115   */\n      dup3\n        /* \"#utility.yul\":21105:21116   */\n      sload\n        /* \"#utility.yul\":21079:21117   */\n      tag_72\n      jump\t// in\n    tag_412:\n        /* \"#utility.yul\":21164:21231   */\n      tag_413\n        /* \"#utility.yul\":21224:21230   */\n      dup3\n        /* \"#utility.yul\":21216:21222   */\n      dup3\n        /* \"#utility.yul\":21210:21214   */\n      dup6\n        /* \"#utility.yul\":21164:21231   */\n      tag_202\n      jump\t// in\n    tag_413:\n        /* \"#utility.yul\":21258:21259   */\n      0x00\n        /* \"#utility.yul\":21282:21286   */\n      0x20\n        /* \"#utility.yul\":21269:21286   */\n      swap1\n      pop\n        /* \"#utility.yul\":21314:21316   */\n      0x1f\n        /* \"#utility.yul\":21306:21312   */\n      dup4\n        /* \"#utility.yul\":21303:21317   */\n      gt\n        /* \"#utility.yul\":21331:21332   */\n      0x01\n        /* \"#utility.yul\":21326:21944   */\n      dup2\n      eq\n      tag_415\n      jumpi\n        /* \"#utility.yul\":21988:21989   */\n      0x00\n        /* \"#utility.yul\":22005:22011   */\n      dup5\n        /* \"#utility.yul\":22002:22079   */\n      iszero\n      tag_416\n      jumpi\n        /* \"#utility.yul\":22054:22063   */\n      dup3\n        /* \"#utility.yul\":22049:22052   */\n      dup8\n        /* \"#utility.yul\":22045:22064   */\n      add\n        /* \"#utility.yul\":22039:22065   */\n      mload\n        /* \"#utility.yul\":22030:22065   */\n      swap1\n      pop\n        /* \"#utility.yul\":22002:22079   */\n    tag_416:\n        /* \"#utility.yul\":22105:22172   */\n      tag_417\n        /* \"#utility.yul\":22165:22171   */\n      dup6\n        /* \"#utility.yul\":22158:22163   */\n      dup3\n        /* \"#utility.yul\":22105:22172   */\n      tag_205\n      jump\t// in\n    tag_417:\n        /* \"#utility.yul\":22099:22103   */\n      dup7\n        /* \"#utility.yul\":22092:22173   */\n      sstore\n        /* \"#utility.yul\":21961:22183   */\n      pop\n        /* \"#utility.yul\":21296:22183   */\n      jump(tag_414)\n        /* \"#utility.yul\":21326:21944   */\n    tag_415:\n        /* \"#utility.yul\":21378:21382   */\n      0x1f\n        /* \"#utility.yul\":21374:21383   */\n      not\n        /* \"#utility.yul\":21366:21372   */\n      dup5\n        /* \"#utility.yul\":21362:21384   */\n      and\n        /* \"#utility.yul\":21412:21449   */\n      tag_418\n        /* \"#utility.yul\":21444:21448   */\n      dup7\n        /* \"#utility.yul\":21412:21449   */\n      tag_191\n      jump\t// in\n    tag_418:\n        /* \"#utility.yul\":21471:21472   */\n      0x00\n        /* \"#utility.yul\":21485:21693   */\n    tag_419:\n        /* \"#utility.yul\":21499:21506   */\n      dup3\n        /* \"#utility.yul\":21496:21497   */\n      dup2\n        /* \"#utility.yul\":21493:21507   */\n      lt\n        /* \"#utility.yul\":21485:21693   */\n      iszero\n      tag_421\n      jumpi\n        /* \"#utility.yul\":21578:21587   */\n      dup5\n        /* \"#utility.yul\":21573:21576   */\n      dup10\n        /* \"#utility.yul\":21569:21588   */\n      add\n        /* \"#utility.yul\":21563:21589   */\n      mload\n        /* \"#utility.yul\":21555:21561   */\n      dup3\n        /* \"#utility.yul\":21548:21590   */\n      sstore\n        /* \"#utility.yul\":21629:21630   */\n      0x01\n        /* \"#utility.yul\":21621:21627   */\n      dup3\n        /* \"#utility.yul\":21617:21631   */\n      add\n        /* \"#utility.yul\":21607:21631   */\n      swap2\n      pop\n        /* \"#utility.yul\":21676:21678   */\n      0x20\n        /* \"#utility.yul\":21665:21674   */\n      dup6\n        /* \"#utility.yul\":21661:21679   */\n      add\n        /* \"#utility.yul\":21648:21679   */\n      swap5\n      pop\n        /* \"#utility.yul\":21522:21526   */\n      0x20\n        /* \"#utility.yul\":21519:21520   */\n      dup2\n        /* \"#utility.yul\":21515:21527   */\n      add\n        /* \"#utility.yul\":21510:21527   */\n      swap1\n      pop\n        /* \"#utility.yul\":21485:21693   */\n      jump(tag_419)\n    tag_421:\n        /* \"#utility.yul\":21721:21727   */\n      dup7\n        /* \"#utility.yul\":21712:21719   */\n      dup4\n        /* \"#utility.yul\":21709:21728   */\n      lt\n        /* \"#utility.yul\":21706:21885   */\n      iszero\n      tag_422\n      jumpi\n        /* \"#utility.yul\":21779:21788   */\n      dup5\n        /* \"#utility.yul\":21774:21777   */\n      dup10\n        /* \"#utility.yul\":21770:21789   */\n      add\n        /* \"#utility.yul\":21764:21790   */\n      mload\n        /* \"#utility.yul\":21822:21870   */\n      tag_423\n        /* \"#utility.yul\":21864:21868   */\n      0x1f\n        /* \"#utility.yul\":21856:21862   */\n      dup10\n        /* \"#utility.yul\":21852:21869   */\n      and\n        /* \"#utility.yul\":21841:21850   */\n      dup3\n        /* \"#utility.yul\":21822:21870   */\n      tag_204\n      jump\t// in\n    tag_423:\n        /* \"#utility.yul\":21814:21820   */\n      dup4\n        /* \"#utility.yul\":21807:21871   */\n      sstore\n        /* \"#utility.yul\":21729:21885   */\n      pop\n        /* \"#utility.yul\":21706:21885   */\n    tag_422:\n        /* \"#utility.yul\":21931:21932   */\n      0x01\n        /* \"#utility.yul\":21927:21928   */\n      0x02\n        /* \"#utility.yul\":21919:21925   */\n      dup9\n        /* \"#utility.yul\":21915:21929   */\n      mul\n        /* \"#utility.yul\":21911:21933   */\n      add\n        /* \"#utility.yul\":21905:21909   */\n      dup9\n        /* \"#utility.yul\":21898:21934   */\n      sstore\n        /* \"#utility.yul\":21333:21944   */\n      pop\n      pop\n      pop\n        /* \"#utility.yul\":21296:22183   */\n    tag_414:\n      pop\n        /* \"#utility.yul\":20886:22189   */\n      pop\n      pop\n      pop\n        /* \"#utility.yul\":20794:22189   */\n      pop\n      pop\n      jump\t// out\n        /* \"#utility.yul\":22195:22370   */\n    tag_206:\n        /* \"#utility.yul\":22335:22362   */\n      0x446f63746f7220616c7265616479207265676973746572656400000000000000\n        /* \"#utility.yul\":22331:22332   */\n      0x00\n        /* \"#utility.yul\":22323:22329   */\n      dup3\n        /* \"#utility.yul\":22319:22333   */\n      add\n        /* \"#utility.yul\":22312:22363   */\n      mstore\n        /* \"#utility.yul\":22195:22370   */\n      pop\n      jump\t// out\n        /* \"#utility.yul\":22376:22742   */\n    tag_207:\n        /* \"#utility.yul\":22518:22521   */\n      0x00\n        /* \"#utility.yul\":22539:22606   */\n      tag_426\n        /* \"#utility.yul\":22603:22605   */\n      0x19\n        /* \"#utility.yul\":22598:22601   */\n      dup4\n        /* \"#utility.yul\":22539:22606   */\n      tag_167\n      jump\t// in\n    tag_426:\n        /* \"#utility.yul\":22532:22606   */\n      swap2\n      pop\n        /* \"#utility.yul\":22615:22708   */\n      tag_427\n        /* \"#utility.yul\":22704:22707   */\n      dup3\n        /* \"#utility.yul\":22615:22708   */\n      tag_206\n      jump\t// in\n    tag_427:\n        /* \"#utility.yul\":22733:22735   */\n      0x20\n        /* \"#utility.yul\":22728:22731   */\n      dup3\n        /* \"#utility.yul\":22724:22736   */\n      add\n        /* \"#utility.yul\":22717:22736   */\n      swap1\n      pop\n        /* \"#utility.yul\":22376:22742   */\n      swap2\n      swap1\n      pop\n      jump\t// out\n        /* \"#utility.yul\":22748:23167   */\n    tag_65:\n        /* \"#utility.yul\":22914:22918   */\n      0x00\n        /* \"#utility.yul\":22952:22954   */\n      0x20\n        /* \"#utility.yul\":22941:22950   */\n      dup3\n        /* \"#utility.yul\":22937:22955   */\n      add\n        /* \"#utility.yul\":22929:22955   */\n      swap1\n      pop\n        /* \"#utility.yul\":23001:23010   */\n      dup2\n        /* \"#utility.yul\":22995:22999   */\n      dup2\n        /* \"#utility.yul\":22991:23011   */\n      sub\n        /* \"#utility.yul\":22987:22988   */\n      0x00\n        /* \"#utility.yul\":22976:22985   */\n      dup4\n        /* \"#utility.yul\":22972:22989   */\n      add\n        /* \"#utility.yul\":22965:23012   */\n      mstore\n        /* \"#utility.yul\":23029:23160   */\n      tag_429\n        /* \"#utility.yul\":23155:23159   */\n      dup2\n        /* \"#utility.yul\":23029:23160   */\n      tag_207\n      jump\t// in\n    tag_429:\n        /* \"#utility.yul\":23021:23160   */\n      swap1\n      pop\n        /* \"#utility.yul\":22748:23167   */\n      swap2\n      swap1\n      pop\n      jump\t// out\n        /* \"#utility.yul\":23173:23353   */\n    tag_208:\n        /* \"#utility.yul\":23221:23298   */\n      0x4e487b7100000000000000000000000000000000000000000000000000000000\n        /* \"#utility.yul\":23218:23219   */\n      0x00\n        /* \"#utility.yul\":23211:23299   */\n      mstore\n        /* \"#utility.yul\":23318:23322   */\n      0x11\n        /* \"#utility.yul\":23315:23316   */\n      0x04\n        /* \"#utility.yul\":23308:23323   */\n      mstore\n        /* \"#utility.yul\":23342:23346   */\n      0x24\n        /* \"#utility.yul\":23339:23340   */\n      0x00\n        /* \"#utility.yul\":23332:23347   */\n      revert\n        /* \"#utility.yul\":23359:23592   */\n    tag_70:\n        /* \"#utility.yul\":23398:23401   */\n      0x00\n        /* \"#utility.yul\":23421:23445   */\n      tag_432\n        /* \"#utility.yul\":23439:23444   */\n      dup3\n        /* \"#utility.yul\":23421:23445   */\n      tag_148\n      jump\t// in\n    tag_432:\n        /* \"#utility.yul\":23412:23445   */\n      swap2\n      pop\n        /* \"#utility.yul\":23467:23533   */\n      0xffffffffffffffffffffffffffffffffffffffffffffffffffffffffffffffff\n        /* \"#utility.yul\":23460:23465   */\n      dup3\n        /* \"#utility.yul\":23457:23534   */\n      sub\n        /* \"#utility.yul\":23454:23557   */\n      tag_433\n      jumpi\n        /* \"#utility.yul\":23537:23555   */\n      tag_434\n      tag_208\n      jump\t// in\n    tag_434:\n        /* \"#utility.yul\":23454:23557   */\n    tag_433:\n        /* \"#utility.yul\":23584:23585   */\n      0x01\n        /* \"#utility.yul\":23577:23582   */\n      dup3\n        /* \"#utility.yul\":23573:23586   */\n      add\n        /* \"#utility.yul\":23566:23586   */\n      swap1\n      pop\n        /* \"#utility.yul\":23359:23592   */\n      swap2\n      swap1\n      pop\n      jump\t// out\n        /* \"#utility.yul\":23598:23778   */\n    tag_88:\n        /* \"#utility.yul\":23646:23723   */\n      0x4e487b7100000000000000000000000000000000000000000000000000000000\n        /* \"#utility.yul\":23643:23644   */\n      0x00\n        /* \"#utility.yul\":23636:23724   */\n      mstore\n        /* \"#utility.yul\":23743:23747   */\n      0x32\n        /* \"#utility.yul\":23740:23741   */\n      0x04\n        /* \"#utility.yul\":23733:23748   */\n      mstore\n        /* \"#utility.yul\":23767:23771   */\n      0x24\n        /* \"#utility.yul\":23764:23765   */\n      0x00\n        /* \"#utility.yul\":23757:23772   */\n      revert\n\n    auxdata: 0xa26469706673582212207ff8784de8605201a0ec533196872898a0fbb326308be5489df2dcf619125dd764736f6c63430008120033\n}\n",
				"bytecode": {
					"linkReferences": {},
					"object": "608060405234801561001057600080fd5b5061183f806100206000396000f3fe608060405234801561001057600080fd5b50600436106100935760003560e01c8063a9583c2211610066578063a9583c221461011e578063bae1eee814610152578063c38831ae14610170578063d92631db146101a1578063f0d95090146101bf57610093565b806359bf95f7146100985780635ab2ce22146100c857806378522bc4146100e457806387446b6e14610102575b600080fd5b6100b260048036038101906100ad9190610c86565b6101dd565b6040516100bf9190610cf4565b60405180910390f35b6100e260048036038101906100dd9190610e55565b61021c565b005b6100ec610294565b6040516100f99190610edc565b60405180910390f35b61011c60048036038101906101179190610ef7565b61029a565b005b61013860048036038101906101339190610fae565b610469565b60405161014995949392919061105a565b60405180910390f35b61015a6105cf565b60405161016791906110d6565b60405180910390f35b61018a60048036038101906101859190610c86565b610678565b6040516101989291906110f1565b60405180910390f35b6101a96107bc565b6040516101b69190611278565b60405180910390f35b6101c761093f565b6040516101d491906113f7565b60405180910390f35b600381815481106101ed57600080fd5b906000526020600020016000915054906101000a900473ffffffffffffffffffffffffffffffffffffffff1681565b60006040518060400160405280848152602001838152509050600081908060018154018082558091505060019003906000526020600020906002020160009091909190915060008201518160000190816102769190611625565b50602082015181600101908161028c9190611625565b505050505050565b60025481565b6102a26105cf565b6102e1576040517f08c379a00000000000000000000000000000000000000000000000000000000081526004016102d890611743565b60405180910390fd5b6040518060a0016040528060025481526020018481526020018381526020013373ffffffffffffffffffffffffffffffffffffffff16815260200182815250600160003373ffffffffffffffffffffffffffffffffffffffff1673ffffffffffffffffffffffffffffffffffffffff16815260200190815260200160002060008201518160000155602082015181600101908161037e9190611625565b5060408201518160020190816103949190611625565b5060608201518160030160006101000a81548173ffffffffffffffffffffffffffffffffffffffff021916908373ffffffffffffffffffffffffffffffffffffffff160217905550608082015181600401559050506003339080600181540180825580915050600190039060005260206000200160009091909190916101000a81548173ffffffffffffffffffffffffffffffffffffffff021916908373ffffffffffffffffffffffffffffffffffffffff1602179055506002600081548092919061045f90611792565b9190505550505050565b600160205280600052604060002060009150905080600001549080600101805461049290611448565b80601f01602080910402602001604051908101604052809291908181526020018280546104be90611448565b801561050b5780601f106104e05761010080835404028352916020019161050b565b820191906000526020600020905b8154815290600101906020018083116104ee57829003601f168201915b50505050509080600201805461052090611448565b80601f016020809104026020016040519081016040528092919081815260200182805461054c90611448565b80156105995780601f1061056e57610100808354040283529160200191610599565b820191906000526020600020905b81548152906001019060200180831161057c57829003601f168201915b5050505050908060030160009054906101000a900473ffffffffffffffffffffffffffffffffffffffff16908060040154905085565b600080600090505b60025481101561066f573373ffffffffffffffffffffffffffffffffffffffff166003828154811061060c5761060b6117da565b5b9060005260206000200160009054906101000a900473ffffffffffffffffffffffffffffffffffffffff1673ffffffffffffffffffffffffffffffffffffffff160361065c576000915050610675565b808061066790611792565b9150506105d7565b50600190505b90565b6000818154811061068857600080fd5b90600052602060002090600202016000915090508060000180546106ab90611448565b80601f01602080910402602001604051908101604052809291908181526020018280546106d790611448565b80156107245780601f106106f957610100808354040283529160200191610724565b820191906000526020600020905b81548152906001019060200180831161070757829003601f168201915b50505050509080600101805461073990611448565b80601f016020809104026020016040519081016040528092919081815260200182805461076590611448565b80156107b25780601f10610787576101008083540402835291602001916107b2565b820191906000526020600020905b81548152906001019060200180831161079557829003601f168201915b5050505050905082565b60606000805480602002602001604051908101604052809291908181526020016000905b82821015610936578382906000526020600020906002020160405180604001604052908160008201805461081390611448565b80601f016020809104026020016040519081016040528092919081815260200182805461083f90611448565b801561088c5780601f106108615761010080835404028352916020019161088c565b820191906000526020600020905b81548152906001019060200180831161086f57829003601f168201915b505050505081526020016001820180546108a590611448565b80601f01602080910402602001604051908101604052809291908181526020018280546108d190611448565b801561091e5780601f106108f35761010080835404028352916020019161091e565b820191906000526020600020905b81548152906001019060200180831161090157829003601f168201915b505050505081525050815260200190600101906107e0565b50505050905090565b6060600060025467ffffffffffffffff81111561095f5761095e610d2a565b5b60405190808252806020026020018201604052801561099857816020015b610985610bf7565b81526020019060019003908161097d5790505b50905060005b600254811015610bef5760016000600383815481106109c0576109bf6117da565b5b9060005260206000200160009054906101000a900473ffffffffffffffffffffffffffffffffffffffff1673ffffffffffffffffffffffffffffffffffffffff1673ffffffffffffffffffffffffffffffffffffffff1681526020019081526020016000206040518060a001604052908160008201548152602001600182018054610a4a90611448565b80601f0160208091040260200160405190810160405280929190818152602001828054610a7690611448565b8015610ac35780601f10610a9857610100808354040283529160200191610ac3565b820191906000526020600020905b815481529060010190602001808311610aa657829003601f168201915b50505050508152602001600282018054610adc90611448565b80601f0160208091040260200160405190810160405280929190818152602001828054610b0890611448565b8015610b555780601f10610b2a57610100808354040283529160200191610b55565b820191906000526020600020905b815481529060010190602001808311610b3857829003601f168201915b505050505081526020016003820160009054906101000a900473ffffffffffffffffffffffffffffffffffffffff1673ffffffffffffffffffffffffffffffffffffffff1673ffffffffffffffffffffffffffffffffffffffff168152602001600482015481525050828281518110610bd157610bd06117da565b5b60200260200101819052508080610be790611792565b91505061099e565b508091505090565b6040518060a00160405280600081526020016060815260200160608152602001600073ffffffffffffffffffffffffffffffffffffffff168152602001600081525090565b6000604051905090565b600080fd5b600080fd5b6000819050919050565b610c6381610c50565b8114610c6e57600080fd5b50565b600081359050610c8081610c5a565b92915050565b600060208284031215610c9c57610c9b610c46565b5b6000610caa84828501610c71565b91505092915050565b600073ffffffffffffffffffffffffffffffffffffffff82169050919050565b6000610cde82610cb3565b9050919050565b610cee81610cd3565b82525050565b6000602082019050610d096000830184610ce5565b92915050565b600080fd5b600080fd5b6000601f19601f8301169050919050565b7f4e487b7100000000000000000000000000000000000000000000000000000000600052604160045260246000fd5b610d6282610d19565b810181811067ffffffffffffffff82111715610d8157610d80610d2a565b5b80604052505050565b6000610d94610c3c565b9050610da08282610d59565b919050565b600067ffffffffffffffff821115610dc057610dbf610d2a565b5b610dc982610d19565b9050602081019050919050565b82818337600083830152505050565b6000610df8610df384610da5565b610d8a565b905082815260208101848484011115610e1457610e13610d14565b5b610e1f848285610dd6565b509392505050565b600082601f830112610e3c57610e3b610d0f565b5b8135610e4c848260208601610de5565b91505092915050565b60008060408385031215610e6c57610e6b610c46565b5b600083013567ffffffffffffffff811115610e8a57610e89610c4b565b5b610e9685828601610e27565b925050602083013567ffffffffffffffff811115610eb757610eb6610c4b565b5b610ec385828601610e27565b9150509250929050565b610ed681610c50565b82525050565b6000602082019050610ef16000830184610ecd565b92915050565b600080600060608486031215610f1057610f0f610c46565b5b600084013567ffffffffffffffff811115610f2e57610f2d610c4b565b5b610f3a86828701610e27565b935050602084013567ffffffffffffffff811115610f5b57610f5a610c4b565b5b610f6786828701610e27565b9250506040610f7886828701610c71565b9150509250925092565b610f8b81610cd3565b8114610f9657600080fd5b50565b600081359050610fa881610f82565b92915050565b600060208284031215610fc457610fc3610c46565b5b6000610fd284828501610f99565b91505092915050565b600081519050919050565b600082825260208201905092915050565b60005b83811015611015578082015181840152602081019050610ffa565b60008484015250505050565b600061102c82610fdb565b6110368185610fe6565b9350611046818560208601610ff7565b61104f81610d19565b840191505092915050565b600060a08201905061106f6000830188610ecd565b81810360208301526110818187611021565b905081810360408301526110958186611021565b90506110a46060830185610ce5565b6110b16080830184610ecd565b9695505050505050565b60008115159050919050565b6110d0816110bb565b82525050565b60006020820190506110eb60008301846110c7565b92915050565b6000604082019050818103600083015261110b8185611021565b9050818103602083015261111f8184611021565b90509392505050565b600081519050919050565b600082825260208201905092915050565b6000819050602082019050919050565b600082825260208201905092915050565b600061117082610fdb565b61117a8185611154565b935061118a818560208601610ff7565b61119381610d19565b840191505092915050565b600060408301600083015184820360008601526111bb8282611165565b915050602083015184820360208601526111d58282611165565b9150508091505092915050565b60006111ee838361119e565b905092915050565b6000602082019050919050565b600061120e82611128565b6112188185611133565b93508360208202850161122a85611144565b8060005b85811015611266578484038952815161124785826111e2565b9450611252836111f6565b925060208a0199505060018101905061122e565b50829750879550505050505092915050565b600060208201905081810360008301526112928184611203565b905092915050565b600081519050919050565b600082825260208201905092915050565b6000819050602082019050919050565b6112cf81610c50565b82525050565b6112de81610cd3565b82525050565b600060a0830160008301516112fc60008601826112c6565b50602083015184820360208601526113148282611165565b9150506040830151848203604086015261132e8282611165565b915050606083015161134360608601826112d5565b50608083015161135660808601826112c6565b508091505092915050565b600061136d83836112e4565b905092915050565b6000602082019050919050565b600061138d8261129a565b61139781856112a5565b9350836020820285016113a9856112b6565b8060005b858110156113e557848403895281516113c68582611361565b94506113d183611375565b925060208a019950506001810190506113ad565b50829750879550505050505092915050565b600060208201905081810360008301526114118184611382565b905092915050565b7f4e487b7100000000000000000000000000000000000000000000000000000000600052602260045260246000fd5b6000600282049050600182168061146057607f821691505b60208210810361147357611472611419565b5b50919050565b60008190508160005260206000209050919050565b60006020601f8301049050919050565b600082821b905092915050565b6000600883026114db7fffffffffffffffffffffffffffffffffffffffffffffffffffffffffffffffff8261149e565b6114e5868361149e565b95508019841693508086168417925050509392505050565b6000819050919050565b600061152261151d61151884610c50565b6114fd565b610c50565b9050919050565b6000819050919050565b61153c83611507565b61155061154882611529565b8484546114ab565b825550505050565b600090565b611565611558565b611570818484611533565b505050565b5b818110156115945761158960008261155d565b600181019050611576565b5050565b601f8211156115d9576115aa81611479565b6115b38461148e565b810160208510156115c2578190505b6115d66115ce8561148e565b830182611575565b50505b505050565b600082821c905092915050565b60006115fc600019846008026115de565b1980831691505092915050565b600061161583836115eb565b9150826002028217905092915050565b61162e82610fdb565b67ffffffffffffffff81111561164757611646610d2a565b5b6116518254611448565b61165c828285611598565b600060209050601f83116001811461168f576000841561167d578287015190505b6116878582611609565b8655506116ef565b601f19841661169d86611479565b60005b828110156116c5578489015182556001820191506020850194506020810190506116a0565b868310156116e257848901516116de601f8916826115eb565b8355505b6001600288020188555050505b505050505050565b7f446f63746f7220616c7265616479207265676973746572656400000000000000600082015250565b600061172d601983610fe6565b9150611738826116f7565b602082019050919050565b6000602082019050818103600083015261175c81611720565b9050919050565b7f4e487b7100000000000000000000000000000000000000000000000000000000600052601160045260246000fd5b600061179d82610c50565b91507fffffffffffffffffffffffffffffffffffffffffffffffffffffffffffffffff82036117cf576117ce611763565b5b600182019050919050565b7f4e487b7100000000000000000000000000000000000000000000000000000000600052603260045260246000fdfea26469706673582212207ff8784de8605201a0ec533196872898a0fbb326308be5489df2dcf619125dd764736f6c63430008120033",
					"opcodes": "PUSH1 0x80 PUSH1 0x40 MSTORE CALLVALUE DUP1 ISZERO PUSH2 0x10 JUMPI PUSH1 0x0 DUP1 REVERT JUMPDEST POP PUSH2 0x183F DUP1 PUSH2 0x20 PUSH1 0x0 CODECOPY PUSH1 0x0 RETURN INVALID PUSH1 0x80 PUSH1 0x40 MSTORE CALLVALUE DUP1 ISZERO PUSH2 0x10 JUMPI PUSH1 0x0 DUP1 REVERT JUMPDEST POP PUSH1 0x4 CALLDATASIZE LT PUSH2 0x93 JUMPI PUSH1 0x0 CALLDATALOAD PUSH1 0xE0 SHR DUP1 PUSH4 0xA9583C22 GT PUSH2 0x66 JUMPI DUP1 PUSH4 0xA9583C22 EQ PUSH2 0x11E JUMPI DUP1 PUSH4 0xBAE1EEE8 EQ PUSH2 0x152 JUMPI DUP1 PUSH4 0xC38831AE EQ PUSH2 0x170 JUMPI DUP1 PUSH4 0xD92631DB EQ PUSH2 0x1A1 JUMPI DUP1 PUSH4 0xF0D95090 EQ PUSH2 0x1BF JUMPI PUSH2 0x93 JUMP JUMPDEST DUP1 PUSH4 0x59BF95F7 EQ PUSH2 0x98 JUMPI DUP1 PUSH4 0x5AB2CE22 EQ PUSH2 0xC8 JUMPI DUP1 PUSH4 0x78522BC4 EQ PUSH2 0xE4 JUMPI DUP1 PUSH4 0x87446B6E EQ PUSH2 0x102 JUMPI JUMPDEST PUSH1 0x0 DUP1 REVERT JUMPDEST PUSH2 0xB2 PUSH1 0x4 DUP1 CALLDATASIZE SUB DUP2 ADD SWAP1 PUSH2 0xAD SWAP2 SWAP1 PUSH2 0xC86 JUMP JUMPDEST PUSH2 0x1DD JUMP JUMPDEST PUSH1 0x40 MLOAD PUSH2 0xBF SWAP2 SWAP1 PUSH2 0xCF4 JUMP JUMPDEST PUSH1 0x40 MLOAD DUP1 SWAP2 SUB SWAP1 RETURN JUMPDEST PUSH2 0xE2 PUSH1 0x4 DUP1 CALLDATASIZE SUB DUP2 ADD SWAP1 PUSH2 0xDD SWAP2 SWAP1 PUSH2 0xE55 JUMP JUMPDEST PUSH2 0x21C JUMP JUMPDEST STOP JUMPDEST PUSH2 0xEC PUSH2 0x294 JUMP JUMPDEST PUSH1 0x40 MLOAD PUSH2 0xF9 SWAP2 SWAP1 PUSH2 0xEDC JUMP JUMPDEST PUSH1 0x40 MLOAD DUP1 SWAP2 SUB SWAP1 RETURN JUMPDEST PUSH2 0x11C PUSH1 0x4 DUP1 CALLDATASIZE SUB DUP2 ADD SWAP1 PUSH2 0x117 SWAP2 SWAP1 PUSH2 0xEF7 JUMP JUMPDEST PUSH2 0x29A JUMP JUMPDEST STOP JUMPDEST PUSH2 0x138 PUSH1 0x4 DUP1 CALLDATASIZE SUB DUP2 ADD SWAP1 PUSH2 0x133 SWAP2 SWAP1 PUSH2 0xFAE JUMP JUMPDEST PUSH2 0x469 JUMP JUMPDEST PUSH1 0x40 MLOAD PUSH2 0x149 SWAP6 SWAP5 SWAP4 SWAP3 SWAP2 SWAP1 PUSH2 0x105A JUMP JUMPDEST PUSH1 0x40 MLOAD DUP1 SWAP2 SUB SWAP1 RETURN JUMPDEST PUSH2 0x15A PUSH2 0x5CF JUMP JUMPDEST PUSH1 0x40 MLOAD PUSH2 0x167 SWAP2 SWAP1 PUSH2 0x10D6 JUMP JUMPDEST PUSH1 0x40 MLOAD DUP1 SWAP2 SUB SWAP1 RETURN JUMPDEST PUSH2 0x18A PUSH1 0x4 DUP1 CALLDATASIZE SUB DUP2 ADD SWAP1 PUSH2 0x185 SWAP2 SWAP1 PUSH2 0xC86 JUMP JUMPDEST PUSH2 0x678 JUMP JUMPDEST PUSH1 0x40 MLOAD PUSH2 0x198 SWAP3 SWAP2 SWAP1 PUSH2 0x10F1 JUMP JUMPDEST PUSH1 0x40 MLOAD DUP1 SWAP2 SUB SWAP1 RETURN JUMPDEST PUSH2 0x1A9 PUSH2 0x7BC JUMP JUMPDEST PUSH1 0x40 MLOAD PUSH2 0x1B6 SWAP2 SWAP1 PUSH2 0x1278 JUMP JUMPDEST PUSH1 0x40 MLOAD DUP1 SWAP2 SUB SWAP1 RETURN JUMPDEST PUSH2 0x1C7 PUSH2 0x93F JUMP JUMPDEST PUSH1 0x40 MLOAD PUSH2 0x1D4 SWAP2 SWAP1 PUSH2 0x13F7 JUMP JUMPDEST PUSH1 0x40 MLOAD DUP1 SWAP2 SUB SWAP1 RETURN JUMPDEST PUSH1 0x3 DUP2 DUP2 SLOAD DUP2 LT PUSH2 0x1ED JUMPI PUSH1 0x0 DUP1 REVERT JUMPDEST SWAP1 PUSH1 0x0 MSTORE PUSH1 0x20 PUSH1 0x0 KECCAK256 ADD PUSH1 0x0 SWAP2 POP SLOAD SWAP1 PUSH2 0x100 EXP SWAP1 DIV PUSH20 0xFFFFFFFFFFFFFFFFFFFFFFFFFFFFFFFFFFFFFFFF AND DUP2 JUMP JUMPDEST PUSH1 0x0 PUSH1 0x40 MLOAD DUP1 PUSH1 0x40 ADD PUSH1 0x40 MSTORE DUP1 DUP5 DUP2 MSTORE PUSH1 0x20 ADD DUP4 DUP2 MSTORE POP SWAP1 POP PUSH1 0x0 DUP2 SWAP1 DUP1 PUSH1 0x1 DUP2 SLOAD ADD DUP1 DUP3 SSTORE DUP1 SWAP2 POP POP PUSH1 0x1 SWAP1 SUB SWAP1 PUSH1 0x0 MSTORE PUSH1 0x20 PUSH1 0x0 KECCAK256 SWAP1 PUSH1 0x2 MUL ADD PUSH1 0x0 SWAP1 SWAP2 SWAP1 SWAP2 SWAP1 SWAP2 POP PUSH1 0x0 DUP3 ADD MLOAD DUP2 PUSH1 0x0 ADD SWAP1 DUP2 PUSH2 0x276 SWAP2 SWAP1 PUSH2 0x1625 JUMP JUMPDEST POP PUSH1 0x20 DUP3 ADD MLOAD DUP2 PUSH1 0x1 ADD SWAP1 DUP2 PUSH2 0x28C SWAP2 SWAP1 PUSH2 0x1625 JUMP JUMPDEST POP POP POP POP POP POP JUMP JUMPDEST PUSH1 0x2 SLOAD DUP2 JUMP JUMPDEST PUSH2 0x2A2 PUSH2 0x5CF JUMP JUMPDEST PUSH2 0x2E1 JUMPI PUSH1 0x40 MLOAD PUSH32 0x8C379A000000000000000000000000000000000000000000000000000000000 DUP2 MSTORE PUSH1 0x4 ADD PUSH2 0x2D8 SWAP1 PUSH2 0x1743 JUMP JUMPDEST PUSH1 0x40 MLOAD DUP1 SWAP2 SUB SWAP1 REVERT JUMPDEST PUSH1 0x40 MLOAD DUP1 PUSH1 0xA0 ADD PUSH1 0x40 MSTORE DUP1 PUSH1 0x2 SLOAD DUP2 MSTORE PUSH1 0x20 ADD DUP5 DUP2 MSTORE PUSH1 0x20 ADD DUP4 DUP2 MSTORE PUSH1 0x20 ADD CALLER PUSH20 0xFFFFFFFFFFFFFFFFFFFFFFFFFFFFFFFFFFFFFFFF AND DUP2 MSTORE PUSH1 0x20 ADD DUP3 DUP2 MSTORE POP PUSH1 0x1 PUSH1 0x0 CALLER PUSH20 0xFFFFFFFFFFFFFFFFFFFFFFFFFFFFFFFFFFFFFFFF AND PUSH20 0xFFFFFFFFFFFFFFFFFFFFFFFFFFFFFFFFFFFFFFFF AND DUP2 MSTORE PUSH1 0x20 ADD SWAP1 DUP2 MSTORE PUSH1 0x20 ADD PUSH1 0x0 KECCAK256 PUSH1 0x0 DUP3 ADD MLOAD DUP2 PUSH1 0x0 ADD SSTORE PUSH1 0x20 DUP3 ADD MLOAD DUP2 PUSH1 0x1 ADD SWAP1 DUP2 PUSH2 0x37E SWAP2 SWAP1 PUSH2 0x1625 JUMP JUMPDEST POP PUSH1 0x40 DUP3 ADD MLOAD DUP2 PUSH1 0x2 ADD SWAP1 DUP2 PUSH2 0x394 SWAP2 SWAP1 PUSH2 0x1625 JUMP JUMPDEST POP PUSH1 0x60 DUP3 ADD MLOAD DUP2 PUSH1 0x3 ADD PUSH1 0x0 PUSH2 0x100 EXP DUP2 SLOAD DUP2 PUSH20 0xFFFFFFFFFFFFFFFFFFFFFFFFFFFFFFFFFFFFFFFF MUL NOT AND SWAP1 DUP4 PUSH20 0xFFFFFFFFFFFFFFFFFFFFFFFFFFFFFFFFFFFFFFFF AND MUL OR SWAP1 SSTORE POP PUSH1 0x80 DUP3 ADD MLOAD DUP2 PUSH1 0x4 ADD SSTORE SWAP1 POP POP PUSH1 0x3 CALLER SWAP1 DUP1 PUSH1 0x1 DUP2 SLOAD ADD DUP1 DUP3 SSTORE DUP1 SWAP2 POP POP PUSH1 0x1 SWAP1 SUB SWAP1 PUSH1 0x0 MSTORE PUSH1 0x20 PUSH1 0x0 KECCAK256 ADD PUSH1 0x0 SWAP1 SWAP2 SWAP1 SWAP2 SWAP1 SWAP2 PUSH2 0x100 EXP DUP2 SLOAD DUP2 PUSH20 0xFFFFFFFFFFFFFFFFFFFFFFFFFFFFFFFFFFFFFFFF MUL NOT AND SWAP1 DUP4 PUSH20 0xFFFFFFFFFFFFFFFFFFFFFFFFFFFFFFFFFFFFFFFF AND MUL OR SWAP1 SSTORE POP PUSH1 0x2 PUSH1 0x0 DUP2 SLOAD DUP1 SWAP3 SWAP2 SWAP1 PUSH2 0x45F SWAP1 PUSH2 0x1792 JUMP JUMPDEST SWAP2 SWAP1 POP SSTORE POP POP POP POP JUMP JUMPDEST PUSH1 0x1 PUSH1 0x20 MSTORE DUP1 PUSH1 0x0 MSTORE PUSH1 0x40 PUSH1 0x0 KECCAK256 PUSH1 0x0 SWAP2 POP SWAP1 POP DUP1 PUSH1 0x0 ADD SLOAD SWAP1 DUP1 PUSH1 0x1 ADD DUP1 SLOAD PUSH2 0x492 SWAP1 PUSH2 0x1448 JUMP JUMPDEST DUP1 PUSH1 0x1F ADD PUSH1 0x20 DUP1 SWAP2 DIV MUL PUSH1 0x20 ADD PUSH1 0x40 MLOAD SWAP1 DUP2 ADD PUSH1 0x40 MSTORE DUP1 SWAP3 SWAP2 SWAP1 DUP2 DUP2 MSTORE PUSH1 0x20 ADD DUP3 DUP1 SLOAD PUSH2 0x4BE SWAP1 PUSH2 0x1448 JUMP JUMPDEST DUP1 ISZERO PUSH2 0x50B JUMPI DUP1 PUSH1 0x1F LT PUSH2 0x4E0 JUMPI PUSH2 0x100 DUP1 DUP4 SLOAD DIV MUL DUP4 MSTORE SWAP2 PUSH1 0x20 ADD SWAP2 PUSH2 0x50B JUMP JUMPDEST DUP3 ADD SWAP2 SWAP1 PUSH1 0x0 MSTORE PUSH1 0x20 PUSH1 0x0 KECCAK256 SWAP1 JUMPDEST DUP2 SLOAD DUP2 MSTORE SWAP1 PUSH1 0x1 ADD SWAP1 PUSH1 0x20 ADD DUP1 DUP4 GT PUSH2 0x4EE JUMPI DUP3 SWAP1 SUB PUSH1 0x1F AND DUP3 ADD SWAP2 JUMPDEST POP POP POP POP POP SWAP1 DUP1 PUSH1 0x2 ADD DUP1 SLOAD PUSH2 0x520 SWAP1 PUSH2 0x1448 JUMP JUMPDEST DUP1 PUSH1 0x1F ADD PUSH1 0x20 DUP1 SWAP2 DIV MUL PUSH1 0x20 ADD PUSH1 0x40 MLOAD SWAP1 DUP2 ADD PUSH1 0x40 MSTORE DUP1 SWAP3 SWAP2 SWAP1 DUP2 DUP2 MSTORE PUSH1 0x20 ADD DUP3 DUP1 SLOAD PUSH2 0x54C SWAP1 PUSH2 0x1448 JUMP JUMPDEST DUP1 ISZERO PUSH2 0x599 JUMPI DUP1 PUSH1 0x1F LT PUSH2 0x56E JUMPI PUSH2 0x100 DUP1 DUP4 SLOAD DIV MUL DUP4 MSTORE SWAP2 PUSH1 0x20 ADD SWAP2 PUSH2 0x599 JUMP JUMPDEST DUP3 ADD SWAP2 SWAP1 PUSH1 0x0 MSTORE PUSH1 0x20 PUSH1 0x0 KECCAK256 SWAP1 JUMPDEST DUP2 SLOAD DUP2 MSTORE SWAP1 PUSH1 0x1 ADD SWAP1 PUSH1 0x20 ADD DUP1 DUP4 GT PUSH2 0x57C JUMPI DUP3 SWAP1 SUB PUSH1 0x1F AND DUP3 ADD SWAP2 JUMPDEST POP POP POP POP POP SWAP1 DUP1 PUSH1 0x3 ADD PUSH1 0x0 SWAP1 SLOAD SWAP1 PUSH2 0x100 EXP SWAP1 DIV PUSH20 0xFFFFFFFFFFFFFFFFFFFFFFFFFFFFFFFFFFFFFFFF AND SWAP1 DUP1 PUSH1 0x4 ADD SLOAD SWAP1 POP DUP6 JUMP JUMPDEST PUSH1 0x0 DUP1 PUSH1 0x0 SWAP1 POP JUMPDEST PUSH1 0x2 SLOAD DUP2 LT ISZERO PUSH2 0x66F JUMPI CALLER PUSH20 0xFFFFFFFFFFFFFFFFFFFFFFFFFFFFFFFFFFFFFFFF AND PUSH1 0x3 DUP3 DUP2 SLOAD DUP2 LT PUSH2 0x60C JUMPI PUSH2 0x60B PUSH2 0x17DA JUMP JUMPDEST JUMPDEST SWAP1 PUSH1 0x0 MSTORE PUSH1 0x20 PUSH1 0x0 KECCAK256 ADD PUSH1 0x0 SWAP1 SLOAD SWAP1 PUSH2 0x100 EXP SWAP1 DIV PUSH20 0xFFFFFFFFFFFFFFFFFFFFFFFFFFFFFFFFFFFFFFFF AND PUSH20 0xFFFFFFFFFFFFFFFFFFFFFFFFFFFFFFFFFFFFFFFF AND SUB PUSH2 0x65C JUMPI PUSH1 0x0 SWAP2 POP POP PUSH2 0x675 JUMP JUMPDEST DUP1 DUP1 PUSH2 0x667 SWAP1 PUSH2 0x1792 JUMP JUMPDEST SWAP2 POP POP PUSH2 0x5D7 JUMP JUMPDEST POP PUSH1 0x1 SWAP1 POP JUMPDEST SWAP1 JUMP JUMPDEST PUSH1 0x0 DUP2 DUP2 SLOAD DUP2 LT PUSH2 0x688 JUMPI PUSH1 0x0 DUP1 REVERT JUMPDEST SWAP1 PUSH1 0x0 MSTORE PUSH1 0x20 PUSH1 0x0 KECCAK256 SWAP1 PUSH1 0x2 MUL ADD PUSH1 0x0 SWAP2 POP SWAP1 POP DUP1 PUSH1 0x0 ADD DUP1 SLOAD PUSH2 0x6AB SWAP1 PUSH2 0x1448 JUMP JUMPDEST DUP1 PUSH1 0x1F ADD PUSH1 0x20 DUP1 SWAP2 DIV MUL PUSH1 0x20 ADD PUSH1 0x40 MLOAD SWAP1 DUP2 ADD PUSH1 0x40 MSTORE DUP1 SWAP3 SWAP2 SWAP1 DUP2 DUP2 MSTORE PUSH1 0x20 ADD DUP3 DUP1 SLOAD PUSH2 0x6D7 SWAP1 PUSH2 0x1448 JUMP JUMPDEST DUP1 ISZERO PUSH2 0x724 JUMPI DUP1 PUSH1 0x1F LT PUSH2 0x6F9 JUMPI PUSH2 0x100 DUP1 DUP4 SLOAD DIV MUL DUP4 MSTORE SWAP2 PUSH1 0x20 ADD SWAP2 PUSH2 0x724 JUMP JUMPDEST DUP3 ADD SWAP2 SWAP1 PUSH1 0x0 MSTORE PUSH1 0x20 PUSH1 0x0 KECCAK256 SWAP1 JUMPDEST DUP2 SLOAD DUP2 MSTORE SWAP1 PUSH1 0x1 ADD SWAP1 PUSH1 0x20 ADD DUP1 DUP4 GT PUSH2 0x707 JUMPI DUP3 SWAP1 SUB PUSH1 0x1F AND DUP3 ADD SWAP2 JUMPDEST POP POP POP POP POP SWAP1 DUP1 PUSH1 0x1 ADD DUP1 SLOAD PUSH2 0x739 SWAP1 PUSH2 0x1448 JUMP JUMPDEST DUP1 PUSH1 0x1F ADD PUSH1 0x20 DUP1 SWAP2 DIV MUL PUSH1 0x20 ADD PUSH1 0x40 MLOAD SWAP1 DUP2 ADD PUSH1 0x40 MSTORE DUP1 SWAP3 SWAP2 SWAP1 DUP2 DUP2 MSTORE PUSH1 0x20 ADD DUP3 DUP1 SLOAD PUSH2 0x765 SWAP1 PUSH2 0x1448 JUMP JUMPDEST DUP1 ISZERO PUSH2 0x7B2 JUMPI DUP1 PUSH1 0x1F LT PUSH2 0x787 JUMPI PUSH2 0x100 DUP1 DUP4 SLOAD DIV MUL DUP4 MSTORE SWAP2 PUSH1 0x20 ADD SWAP2 PUSH2 0x7B2 JUMP JUMPDEST DUP3 ADD SWAP2 SWAP1 PUSH1 0x0 MSTORE PUSH1 0x20 PUSH1 0x0 KECCAK256 SWAP1 JUMPDEST DUP2 SLOAD DUP2 MSTORE SWAP1 PUSH1 0x1 ADD SWAP1 PUSH1 0x20 ADD DUP1 DUP4 GT PUSH2 0x795 JUMPI DUP3 SWAP1 SUB PUSH1 0x1F AND DUP3 ADD SWAP2 JUMPDEST POP POP POP POP POP SWAP1 POP DUP3 JUMP JUMPDEST PUSH1 0x60 PUSH1 0x0 DUP1 SLOAD DUP1 PUSH1 0x20 MUL PUSH1 0x20 ADD PUSH1 0x40 MLOAD SWAP1 DUP2 ADD PUSH1 0x40 MSTORE DUP1 SWAP3 SWAP2 SWAP1 DUP2 DUP2 MSTORE PUSH1 0x20 ADD PUSH1 0x0 SWAP1 JUMPDEST DUP3 DUP3 LT ISZERO PUSH2 0x936 JUMPI DUP4 DUP3 SWAP1 PUSH1 0x0 MSTORE PUSH1 0x20 PUSH1 0x0 KECCAK256 SWAP1 PUSH1 0x2 MUL ADD PUSH1 0x40 MLOAD DUP1 PUSH1 0x40 ADD PUSH1 0x40 MSTORE SWAP1 DUP2 PUSH1 0x0 DUP3 ADD DUP1 SLOAD PUSH2 0x813 SWAP1 PUSH2 0x1448 JUMP JUMPDEST DUP1 PUSH1 0x1F ADD PUSH1 0x20 DUP1 SWAP2 DIV MUL PUSH1 0x20 ADD PUSH1 0x40 MLOAD SWAP1 DUP2 ADD PUSH1 0x40 MSTORE DUP1 SWAP3 SWAP2 SWAP1 DUP2 DUP2 MSTORE PUSH1 0x20 ADD DUP3 DUP1 SLOAD PUSH2 0x83F SWAP1 PUSH2 0x1448 JUMP JUMPDEST DUP1 ISZERO PUSH2 0x88C JUMPI DUP1 PUSH1 0x1F LT PUSH2 0x861 JUMPI PUSH2 0x100 DUP1 DUP4 SLOAD DIV MUL DUP4 MSTORE SWAP2 PUSH1 0x20 ADD SWAP2 PUSH2 0x88C JUMP JUMPDEST DUP3 ADD SWAP2 SWAP1 PUSH1 0x0 MSTORE PUSH1 0x20 PUSH1 0x0 KECCAK256 SWAP1 JUMPDEST DUP2 SLOAD DUP2 MSTORE SWAP1 PUSH1 0x1 ADD SWAP1 PUSH1 0x20 ADD DUP1 DUP4 GT PUSH2 0x86F JUMPI DUP3 SWAP1 SUB PUSH1 0x1F AND DUP3 ADD SWAP2 JUMPDEST POP POP POP POP POP DUP2 MSTORE PUSH1 0x20 ADD PUSH1 0x1 DUP3 ADD DUP1 SLOAD PUSH2 0x8A5 SWAP1 PUSH2 0x1448 JUMP JUMPDEST DUP1 PUSH1 0x1F ADD PUSH1 0x20 DUP1 SWAP2 DIV MUL PUSH1 0x20 ADD PUSH1 0x40 MLOAD SWAP1 DUP2 ADD PUSH1 0x40 MSTORE DUP1 SWAP3 SWAP2 SWAP1 DUP2 DUP2 MSTORE PUSH1 0x20 ADD DUP3 DUP1 SLOAD PUSH2 0x8D1 SWAP1 PUSH2 0x1448 JUMP JUMPDEST DUP1 ISZERO PUSH2 0x91E JUMPI DUP1 PUSH1 0x1F LT PUSH2 0x8F3 JUMPI PUSH2 0x100 DUP1 DUP4 SLOAD DIV MUL DUP4 MSTORE SWAP2 PUSH1 0x20 ADD SWAP2 PUSH2 0x91E JUMP JUMPDEST DUP3 ADD SWAP2 SWAP1 PUSH1 0x0 MSTORE PUSH1 0x20 PUSH1 0x0 KECCAK256 SWAP1 JUMPDEST DUP2 SLOAD DUP2 MSTORE SWAP1 PUSH1 0x1 ADD SWAP1 PUSH1 0x20 ADD DUP1 DUP4 GT PUSH2 0x901 JUMPI DUP3 SWAP1 SUB PUSH1 0x1F AND DUP3 ADD SWAP2 JUMPDEST POP POP POP POP POP DUP2 MSTORE POP POP DUP2 MSTORE PUSH1 0x20 ADD SWAP1 PUSH1 0x1 ADD SWAP1 PUSH2 0x7E0 JUMP JUMPDEST POP POP POP POP SWAP1 POP SWAP1 JUMP JUMPDEST PUSH1 0x60 PUSH1 0x0 PUSH1 0x2 SLOAD PUSH8 0xFFFFFFFFFFFFFFFF DUP2 GT ISZERO PUSH2 0x95F JUMPI PUSH2 0x95E PUSH2 0xD2A JUMP JUMPDEST JUMPDEST PUSH1 0x40 MLOAD SWAP1 DUP1 DUP3 MSTORE DUP1 PUSH1 0x20 MUL PUSH1 0x20 ADD DUP3 ADD PUSH1 0x40 MSTORE DUP1 ISZERO PUSH2 0x998 JUMPI DUP2 PUSH1 0x20 ADD JUMPDEST PUSH2 0x985 PUSH2 0xBF7 JUMP JUMPDEST DUP2 MSTORE PUSH1 0x20 ADD SWAP1 PUSH1 0x1 SWAP1 SUB SWAP1 DUP2 PUSH2 0x97D JUMPI SWAP1 POP JUMPDEST POP SWAP1 POP PUSH1 0x0 JUMPDEST PUSH1 0x2 SLOAD DUP2 LT ISZERO PUSH2 0xBEF JUMPI PUSH1 0x1 PUSH1 0x0 PUSH1 0x3 DUP4 DUP2 SLOAD DUP2 LT PUSH2 0x9C0 JUMPI PUSH2 0x9BF PUSH2 0x17DA JUMP JUMPDEST JUMPDEST SWAP1 PUSH1 0x0 MSTORE PUSH1 0x20 PUSH1 0x0 KECCAK256 ADD PUSH1 0x0 SWAP1 SLOAD SWAP1 PUSH2 0x100 EXP SWAP1 DIV PUSH20 0xFFFFFFFFFFFFFFFFFFFFFFFFFFFFFFFFFFFFFFFF AND PUSH20 0xFFFFFFFFFFFFFFFFFFFFFFFFFFFFFFFFFFFFFFFF AND PUSH20 0xFFFFFFFFFFFFFFFFFFFFFFFFFFFFFFFFFFFFFFFF AND DUP2 MSTORE PUSH1 0x20 ADD SWAP1 DUP2 MSTORE PUSH1 0x20 ADD PUSH1 0x0 KECCAK256 PUSH1 0x40 MLOAD DUP1 PUSH1 0xA0 ADD PUSH1 0x40 MSTORE SWAP1 DUP2 PUSH1 0x0 DUP3 ADD SLOAD DUP2 MSTORE PUSH1 0x20 ADD PUSH1 0x1 DUP3 ADD DUP1 SLOAD PUSH2 0xA4A SWAP1 PUSH2 0x1448 JUMP JUMPDEST DUP1 PUSH1 0x1F ADD PUSH1 0x20 DUP1 SWAP2 DIV MUL PUSH1 0x20 ADD PUSH1 0x40 MLOAD SWAP1 DUP2 ADD PUSH1 0x40 MSTORE DUP1 SWAP3 SWAP2 SWAP1 DUP2 DUP2 MSTORE PUSH1 0x20 ADD DUP3 DUP1 SLOAD PUSH2 0xA76 SWAP1 PUSH2 0x1448 JUMP JUMPDEST DUP1 ISZERO PUSH2 0xAC3 JUMPI DUP1 PUSH1 0x1F LT PUSH2 0xA98 JUMPI PUSH2 0x100 DUP1 DUP4 SLOAD DIV MUL DUP4 MSTORE SWAP2 PUSH1 0x20 ADD SWAP2 PUSH2 0xAC3 JUMP JUMPDEST DUP3 ADD SWAP2 SWAP1 PUSH1 0x0 MSTORE PUSH1 0x20 PUSH1 0x0 KECCAK256 SWAP1 JUMPDEST DUP2 SLOAD DUP2 MSTORE SWAP1 PUSH1 0x1 ADD SWAP1 PUSH1 0x20 ADD DUP1 DUP4 GT PUSH2 0xAA6 JUMPI DUP3 SWAP1 SUB PUSH1 0x1F AND DUP3 ADD SWAP2 JUMPDEST POP POP POP POP POP DUP2 MSTORE PUSH1 0x20 ADD PUSH1 0x2 DUP3 ADD DUP1 SLOAD PUSH2 0xADC SWAP1 PUSH2 0x1448 JUMP JUMPDEST DUP1 PUSH1 0x1F ADD PUSH1 0x20 DUP1 SWAP2 DIV MUL PUSH1 0x20 ADD PUSH1 0x40 MLOAD SWAP1 DUP2 ADD PUSH1 0x40 MSTORE DUP1 SWAP3 SWAP2 SWAP1 DUP2 DUP2 MSTORE PUSH1 0x20 ADD DUP3 DUP1 SLOAD PUSH2 0xB08 SWAP1 PUSH2 0x1448 JUMP JUMPDEST DUP1 ISZERO PUSH2 0xB55 JUMPI DUP1 PUSH1 0x1F LT PUSH2 0xB2A JUMPI PUSH2 0x100 DUP1 DUP4 SLOAD DIV MUL DUP4 MSTORE SWAP2 PUSH1 0x20 ADD SWAP2 PUSH2 0xB55 JUMP JUMPDEST DUP3 ADD SWAP2 SWAP1 PUSH1 0x0 MSTORE PUSH1 0x20 PUSH1 0x0 KECCAK256 SWAP1 JUMPDEST DUP2 SLOAD DUP2 MSTORE SWAP1 PUSH1 0x1 ADD SWAP1 PUSH1 0x20 ADD DUP1 DUP4 GT PUSH2 0xB38 JUMPI DUP3 SWAP1 SUB PUSH1 0x1F AND DUP3 ADD SWAP2 JUMPDEST POP POP POP POP POP DUP2 MSTORE PUSH1 0x20 ADD PUSH1 0x3 DUP3 ADD PUSH1 0x0 SWAP1 SLOAD SWAP1 PUSH2 0x100 EXP SWAP1 DIV PUSH20 0xFFFFFFFFFFFFFFFFFFFFFFFFFFFFFFFFFFFFFFFF AND PUSH20 0xFFFFFFFFFFFFFFFFFFFFFFFFFFFFFFFFFFFFFFFF AND PUSH20 0xFFFFFFFFFFFFFFFFFFFFFFFFFFFFFFFFFFFFFFFF AND DUP2 MSTORE PUSH1 0x20 ADD PUSH1 0x4 DUP3 ADD SLOAD DUP2 MSTORE POP POP DUP3 DUP3 DUP2 MLOAD DUP2 LT PUSH2 0xBD1 JUMPI PUSH2 0xBD0 PUSH2 0x17DA JUMP JUMPDEST JUMPDEST PUSH1 0x20 MUL PUSH1 0x20 ADD ADD DUP2 SWAP1 MSTORE POP DUP1 DUP1 PUSH2 0xBE7 SWAP1 PUSH2 0x1792 JUMP JUMPDEST SWAP2 POP POP PUSH2 0x99E JUMP JUMPDEST POP DUP1 SWAP2 POP POP SWAP1 JUMP JUMPDEST PUSH1 0x40 MLOAD DUP1 PUSH1 0xA0 ADD PUSH1 0x40 MSTORE DUP1 PUSH1 0x0 DUP2 MSTORE PUSH1 0x20 ADD PUSH1 0x60 DUP2 MSTORE PUSH1 0x20 ADD PUSH1 0x60 DUP2 MSTORE PUSH1 0x20 ADD PUSH1 0x0 PUSH20 0xFFFFFFFFFFFFFFFFFFFFFFFFFFFFFFFFFFFFFFFF AND DUP2 MSTORE PUSH1 0x20 ADD PUSH1 0x0 DUP2 MSTORE POP SWAP1 JUMP JUMPDEST PUSH1 0x0 PUSH1 0x40 MLOAD SWAP1 POP SWAP1 JUMP JUMPDEST PUSH1 0x0 DUP1 REVERT JUMPDEST PUSH1 0x0 DUP1 REVERT JUMPDEST PUSH1 0x0 DUP2 SWAP1 POP SWAP2 SWAP1 POP JUMP JUMPDEST PUSH2 0xC63 DUP2 PUSH2 0xC50 JUMP JUMPDEST DUP2 EQ PUSH2 0xC6E JUMPI PUSH1 0x0 DUP1 REVERT JUMPDEST POP JUMP JUMPDEST PUSH1 0x0 DUP2 CALLDATALOAD SWAP1 POP PUSH2 0xC80 DUP2 PUSH2 0xC5A JUMP JUMPDEST SWAP3 SWAP2 POP POP JUMP JUMPDEST PUSH1 0x0 PUSH1 0x20 DUP3 DUP5 SUB SLT ISZERO PUSH2 0xC9C JUMPI PUSH2 0xC9B PUSH2 0xC46 JUMP JUMPDEST JUMPDEST PUSH1 0x0 PUSH2 0xCAA DUP5 DUP3 DUP6 ADD PUSH2 0xC71 JUMP JUMPDEST SWAP2 POP POP SWAP3 SWAP2 POP POP JUMP JUMPDEST PUSH1 0x0 PUSH20 0xFFFFFFFFFFFFFFFFFFFFFFFFFFFFFFFFFFFFFFFF DUP3 AND SWAP1 POP SWAP2 SWAP1 POP JUMP JUMPDEST PUSH1 0x0 PUSH2 0xCDE DUP3 PUSH2 0xCB3 JUMP JUMPDEST SWAP1 POP SWAP2 SWAP1 POP JUMP JUMPDEST PUSH2 0xCEE DUP2 PUSH2 0xCD3 JUMP JUMPDEST DUP3 MSTORE POP POP JUMP JUMPDEST PUSH1 0x0 PUSH1 0x20 DUP3 ADD SWAP1 POP PUSH2 0xD09 PUSH1 0x0 DUP4 ADD DUP5 PUSH2 0xCE5 JUMP JUMPDEST SWAP3 SWAP2 POP POP JUMP JUMPDEST PUSH1 0x0 DUP1 REVERT JUMPDEST PUSH1 0x0 DUP1 REVERT JUMPDEST PUSH1 0x0 PUSH1 0x1F NOT PUSH1 0x1F DUP4 ADD AND SWAP1 POP SWAP2 SWAP1 POP JUMP JUMPDEST PUSH32 0x4E487B7100000000000000000000000000000000000000000000000000000000 PUSH1 0x0 MSTORE PUSH1 0x41 PUSH1 0x4 MSTORE PUSH1 0x24 PUSH1 0x0 REVERT JUMPDEST PUSH2 0xD62 DUP3 PUSH2 0xD19 JUMP JUMPDEST DUP2 ADD DUP2 DUP2 LT PUSH8 0xFFFFFFFFFFFFFFFF DUP3 GT OR ISZERO PUSH2 0xD81 JUMPI PUSH2 0xD80 PUSH2 0xD2A JUMP JUMPDEST JUMPDEST DUP1 PUSH1 0x40 MSTORE POP POP POP JUMP JUMPDEST PUSH1 0x0 PUSH2 0xD94 PUSH2 0xC3C JUMP JUMPDEST SWAP1 POP PUSH2 0xDA0 DUP3 DUP3 PUSH2 0xD59 JUMP JUMPDEST SWAP2 SWAP1 POP JUMP JUMPDEST PUSH1 0x0 PUSH8 0xFFFFFFFFFFFFFFFF DUP3 GT ISZERO PUSH2 0xDC0 JUMPI PUSH2 0xDBF PUSH2 0xD2A JUMP JUMPDEST JUMPDEST PUSH2 0xDC9 DUP3 PUSH2 0xD19 JUMP JUMPDEST SWAP1 POP PUSH1 0x20 DUP2 ADD SWAP1 POP SWAP2 SWAP1 POP JUMP JUMPDEST DUP3 DUP2 DUP4 CALLDATACOPY PUSH1 0x0 DUP4 DUP4 ADD MSTORE POP POP POP JUMP JUMPDEST PUSH1 0x0 PUSH2 0xDF8 PUSH2 0xDF3 DUP5 PUSH2 0xDA5 JUMP JUMPDEST PUSH2 0xD8A JUMP JUMPDEST SWAP1 POP DUP3 DUP2 MSTORE PUSH1 0x20 DUP2 ADD DUP5 DUP5 DUP5 ADD GT ISZERO PUSH2 0xE14 JUMPI PUSH2 0xE13 PUSH2 0xD14 JUMP JUMPDEST JUMPDEST PUSH2 0xE1F DUP5 DUP3 DUP6 PUSH2 0xDD6 JUMP JUMPDEST POP SWAP4 SWAP3 POP POP POP JUMP JUMPDEST PUSH1 0x0 DUP3 PUSH1 0x1F DUP4 ADD SLT PUSH2 0xE3C JUMPI PUSH2 0xE3B PUSH2 0xD0F JUMP JUMPDEST JUMPDEST DUP2 CALLDATALOAD PUSH2 0xE4C DUP5 DUP3 PUSH1 0x20 DUP7 ADD PUSH2 0xDE5 JUMP JUMPDEST SWAP2 POP POP SWAP3 SWAP2 POP POP JUMP JUMPDEST PUSH1 0x0 DUP1 PUSH1 0x40 DUP4 DUP6 SUB SLT ISZERO PUSH2 0xE6C JUMPI PUSH2 0xE6B PUSH2 0xC46 JUMP JUMPDEST JUMPDEST PUSH1 0x0 DUP4 ADD CALLDATALOAD PUSH8 0xFFFFFFFFFFFFFFFF DUP2 GT ISZERO PUSH2 0xE8A JUMPI PUSH2 0xE89 PUSH2 0xC4B JUMP JUMPDEST JUMPDEST PUSH2 0xE96 DUP6 DUP3 DUP7 ADD PUSH2 0xE27 JUMP JUMPDEST SWAP3 POP POP PUSH1 0x20 DUP4 ADD CALLDATALOAD PUSH8 0xFFFFFFFFFFFFFFFF DUP2 GT ISZERO PUSH2 0xEB7 JUMPI PUSH2 0xEB6 PUSH2 0xC4B JUMP JUMPDEST JUMPDEST PUSH2 0xEC3 DUP6 DUP3 DUP7 ADD PUSH2 0xE27 JUMP JUMPDEST SWAP2 POP POP SWAP3 POP SWAP3 SWAP1 POP JUMP JUMPDEST PUSH2 0xED6 DUP2 PUSH2 0xC50 JUMP JUMPDEST DUP3 MSTORE POP POP JUMP JUMPDEST PUSH1 0x0 PUSH1 0x20 DUP3 ADD SWAP1 POP PUSH2 0xEF1 PUSH1 0x0 DUP4 ADD DUP5 PUSH2 0xECD JUMP JUMPDEST SWAP3 SWAP2 POP POP JUMP JUMPDEST PUSH1 0x0 DUP1 PUSH1 0x0 PUSH1 0x60 DUP5 DUP7 SUB SLT ISZERO PUSH2 0xF10 JUMPI PUSH2 0xF0F PUSH2 0xC46 JUMP JUMPDEST JUMPDEST PUSH1 0x0 DUP5 ADD CALLDATALOAD PUSH8 0xFFFFFFFFFFFFFFFF DUP2 GT ISZERO PUSH2 0xF2E JUMPI PUSH2 0xF2D PUSH2 0xC4B JUMP JUMPDEST JUMPDEST PUSH2 0xF3A DUP7 DUP3 DUP8 ADD PUSH2 0xE27 JUMP JUMPDEST SWAP4 POP POP PUSH1 0x20 DUP5 ADD CALLDATALOAD PUSH8 0xFFFFFFFFFFFFFFFF DUP2 GT ISZERO PUSH2 0xF5B JUMPI PUSH2 0xF5A PUSH2 0xC4B JUMP JUMPDEST JUMPDEST PUSH2 0xF67 DUP7 DUP3 DUP8 ADD PUSH2 0xE27 JUMP JUMPDEST SWAP3 POP POP PUSH1 0x40 PUSH2 0xF78 DUP7 DUP3 DUP8 ADD PUSH2 0xC71 JUMP JUMPDEST SWAP2 POP POP SWAP3 POP SWAP3 POP SWAP3 JUMP JUMPDEST PUSH2 0xF8B DUP2 PUSH2 0xCD3 JUMP JUMPDEST DUP2 EQ PUSH2 0xF96 JUMPI PUSH1 0x0 DUP1 REVERT JUMPDEST POP JUMP JUMPDEST PUSH1 0x0 DUP2 CALLDATALOAD SWAP1 POP PUSH2 0xFA8 DUP2 PUSH2 0xF82 JUMP JUMPDEST SWAP3 SWAP2 POP POP JUMP JUMPDEST PUSH1 0x0 PUSH1 0x20 DUP3 DUP5 SUB SLT ISZERO PUSH2 0xFC4 JUMPI PUSH2 0xFC3 PUSH2 0xC46 JUMP JUMPDEST JUMPDEST PUSH1 0x0 PUSH2 0xFD2 DUP5 DUP3 DUP6 ADD PUSH2 0xF99 JUMP JUMPDEST SWAP2 POP POP SWAP3 SWAP2 POP POP JUMP JUMPDEST PUSH1 0x0 DUP2 MLOAD SWAP1 POP SWAP2 SWAP1 POP JUMP JUMPDEST PUSH1 0x0 DUP3 DUP3 MSTORE PUSH1 0x20 DUP3 ADD SWAP1 POP SWAP3 SWAP2 POP POP JUMP JUMPDEST PUSH1 0x0 JUMPDEST DUP4 DUP2 LT ISZERO PUSH2 0x1015 JUMPI DUP1 DUP3 ADD MLOAD DUP2 DUP5 ADD MSTORE PUSH1 0x20 DUP2 ADD SWAP1 POP PUSH2 0xFFA JUMP JUMPDEST PUSH1 0x0 DUP5 DUP5 ADD MSTORE POP POP POP POP JUMP JUMPDEST PUSH1 0x0 PUSH2 0x102C DUP3 PUSH2 0xFDB JUMP JUMPDEST PUSH2 0x1036 DUP2 DUP6 PUSH2 0xFE6 JUMP JUMPDEST SWAP4 POP PUSH2 0x1046 DUP2 DUP6 PUSH1 0x20 DUP7 ADD PUSH2 0xFF7 JUMP JUMPDEST PUSH2 0x104F DUP2 PUSH2 0xD19 JUMP JUMPDEST DUP5 ADD SWAP2 POP POP SWAP3 SWAP2 POP POP JUMP JUMPDEST PUSH1 0x0 PUSH1 0xA0 DUP3 ADD SWAP1 POP PUSH2 0x106F PUSH1 0x0 DUP4 ADD DUP9 PUSH2 0xECD JUMP JUMPDEST DUP2 DUP2 SUB PUSH1 0x20 DUP4 ADD MSTORE PUSH2 0x1081 DUP2 DUP8 PUSH2 0x1021 JUMP JUMPDEST SWAP1 POP DUP2 DUP2 SUB PUSH1 0x40 DUP4 ADD MSTORE PUSH2 0x1095 DUP2 DUP7 PUSH2 0x1021 JUMP JUMPDEST SWAP1 POP PUSH2 0x10A4 PUSH1 0x60 DUP4 ADD DUP6 PUSH2 0xCE5 JUMP JUMPDEST PUSH2 0x10B1 PUSH1 0x80 DUP4 ADD DUP5 PUSH2 0xECD JUMP JUMPDEST SWAP7 SWAP6 POP POP POP POP POP POP JUMP JUMPDEST PUSH1 0x0 DUP2 ISZERO ISZERO SWAP1 POP SWAP2 SWAP1 POP JUMP JUMPDEST PUSH2 0x10D0 DUP2 PUSH2 0x10BB JUMP JUMPDEST DUP3 MSTORE POP POP JUMP JUMPDEST PUSH1 0x0 PUSH1 0x20 DUP3 ADD SWAP1 POP PUSH2 0x10EB PUSH1 0x0 DUP4 ADD DUP5 PUSH2 0x10C7 JUMP JUMPDEST SWAP3 SWAP2 POP POP JUMP JUMPDEST PUSH1 0x0 PUSH1 0x40 DUP3 ADD SWAP1 POP DUP2 DUP2 SUB PUSH1 0x0 DUP4 ADD MSTORE PUSH2 0x110B DUP2 DUP6 PUSH2 0x1021 JUMP JUMPDEST SWAP1 POP DUP2 DUP2 SUB PUSH1 0x20 DUP4 ADD MSTORE PUSH2 0x111F DUP2 DUP5 PUSH2 0x1021 JUMP JUMPDEST SWAP1 POP SWAP4 SWAP3 POP POP POP JUMP JUMPDEST PUSH1 0x0 DUP2 MLOAD SWAP1 POP SWAP2 SWAP1 POP JUMP JUMPDEST PUSH1 0x0 DUP3 DUP3 MSTORE PUSH1 0x20 DUP3 ADD SWAP1 POP SWAP3 SWAP2 POP POP JUMP JUMPDEST PUSH1 0x0 DUP2 SWAP1 POP PUSH1 0x20 DUP3 ADD SWAP1 POP SWAP2 SWAP1 POP JUMP JUMPDEST PUSH1 0x0 DUP3 DUP3 MSTORE PUSH1 0x20 DUP3 ADD SWAP1 POP SWAP3 SWAP2 POP POP JUMP JUMPDEST PUSH1 0x0 PUSH2 0x1170 DUP3 PUSH2 0xFDB JUMP JUMPDEST PUSH2 0x117A DUP2 DUP6 PUSH2 0x1154 JUMP JUMPDEST SWAP4 POP PUSH2 0x118A DUP2 DUP6 PUSH1 0x20 DUP7 ADD PUSH2 0xFF7 JUMP JUMPDEST PUSH2 0x1193 DUP2 PUSH2 0xD19 JUMP JUMPDEST DUP5 ADD SWAP2 POP POP SWAP3 SWAP2 POP POP JUMP JUMPDEST PUSH1 0x0 PUSH1 0x40 DUP4 ADD PUSH1 0x0 DUP4 ADD MLOAD DUP5 DUP3 SUB PUSH1 0x0 DUP7 ADD MSTORE PUSH2 0x11BB DUP3 DUP3 PUSH2 0x1165 JUMP JUMPDEST SWAP2 POP POP PUSH1 0x20 DUP4 ADD MLOAD DUP5 DUP3 SUB PUSH1 0x20 DUP7 ADD MSTORE PUSH2 0x11D5 DUP3 DUP3 PUSH2 0x1165 JUMP JUMPDEST SWAP2 POP POP DUP1 SWAP2 POP POP SWAP3 SWAP2 POP POP JUMP JUMPDEST PUSH1 0x0 PUSH2 0x11EE DUP4 DUP4 PUSH2 0x119E JUMP JUMPDEST SWAP1 POP SWAP3 SWAP2 POP POP JUMP JUMPDEST PUSH1 0x0 PUSH1 0x20 DUP3 ADD SWAP1 POP SWAP2 SWAP1 POP JUMP JUMPDEST PUSH1 0x0 PUSH2 0x120E DUP3 PUSH2 0x1128 JUMP JUMPDEST PUSH2 0x1218 DUP2 DUP6 PUSH2 0x1133 JUMP JUMPDEST SWAP4 POP DUP4 PUSH1 0x20 DUP3 MUL DUP6 ADD PUSH2 0x122A DUP6 PUSH2 0x1144 JUMP JUMPDEST DUP1 PUSH1 0x0 JUMPDEST DUP6 DUP2 LT ISZERO PUSH2 0x1266 JUMPI DUP5 DUP5 SUB DUP10 MSTORE DUP2 MLOAD PUSH2 0x1247 DUP6 DUP3 PUSH2 0x11E2 JUMP JUMPDEST SWAP5 POP PUSH2 0x1252 DUP4 PUSH2 0x11F6 JUMP JUMPDEST SWAP3 POP PUSH1 0x20 DUP11 ADD SWAP10 POP POP PUSH1 0x1 DUP2 ADD SWAP1 POP PUSH2 0x122E JUMP JUMPDEST POP DUP3 SWAP8 POP DUP8 SWAP6 POP POP POP POP POP POP SWAP3 SWAP2 POP POP JUMP JUMPDEST PUSH1 0x0 PUSH1 0x20 DUP3 ADD SWAP1 POP DUP2 DUP2 SUB PUSH1 0x0 DUP4 ADD MSTORE PUSH2 0x1292 DUP2 DUP5 PUSH2 0x1203 JUMP JUMPDEST SWAP1 POP SWAP3 SWAP2 POP POP JUMP JUMPDEST PUSH1 0x0 DUP2 MLOAD SWAP1 POP SWAP2 SWAP1 POP JUMP JUMPDEST PUSH1 0x0 DUP3 DUP3 MSTORE PUSH1 0x20 DUP3 ADD SWAP1 POP SWAP3 SWAP2 POP POP JUMP JUMPDEST PUSH1 0x0 DUP2 SWAP1 POP PUSH1 0x20 DUP3 ADD SWAP1 POP SWAP2 SWAP1 POP JUMP JUMPDEST PUSH2 0x12CF DUP2 PUSH2 0xC50 JUMP JUMPDEST DUP3 MSTORE POP POP JUMP JUMPDEST PUSH2 0x12DE DUP2 PUSH2 0xCD3 JUMP JUMPDEST DUP3 MSTORE POP POP JUMP JUMPDEST PUSH1 0x0 PUSH1 0xA0 DUP4 ADD PUSH1 0x0 DUP4 ADD MLOAD PUSH2 0x12FC PUSH1 0x0 DUP7 ADD DUP3 PUSH2 0x12C6 JUMP JUMPDEST POP PUSH1 0x20 DUP4 ADD MLOAD DUP5 DUP3 SUB PUSH1 0x20 DUP7 ADD MSTORE PUSH2 0x1314 DUP3 DUP3 PUSH2 0x1165 JUMP JUMPDEST SWAP2 POP POP PUSH1 0x40 DUP4 ADD MLOAD DUP5 DUP3 SUB PUSH1 0x40 DUP7 ADD MSTORE PUSH2 0x132E DUP3 DUP3 PUSH2 0x1165 JUMP JUMPDEST SWAP2 POP POP PUSH1 0x60 DUP4 ADD MLOAD PUSH2 0x1343 PUSH1 0x60 DUP7 ADD DUP3 PUSH2 0x12D5 JUMP JUMPDEST POP PUSH1 0x80 DUP4 ADD MLOAD PUSH2 0x1356 PUSH1 0x80 DUP7 ADD DUP3 PUSH2 0x12C6 JUMP JUMPDEST POP DUP1 SWAP2 POP POP SWAP3 SWAP2 POP POP JUMP JUMPDEST PUSH1 0x0 PUSH2 0x136D DUP4 DUP4 PUSH2 0x12E4 JUMP JUMPDEST SWAP1 POP SWAP3 SWAP2 POP POP JUMP JUMPDEST PUSH1 0x0 PUSH1 0x20 DUP3 ADD SWAP1 POP SWAP2 SWAP1 POP JUMP JUMPDEST PUSH1 0x0 PUSH2 0x138D DUP3 PUSH2 0x129A JUMP JUMPDEST PUSH2 0x1397 DUP2 DUP6 PUSH2 0x12A5 JUMP JUMPDEST SWAP4 POP DUP4 PUSH1 0x20 DUP3 MUL DUP6 ADD PUSH2 0x13A9 DUP6 PUSH2 0x12B6 JUMP JUMPDEST DUP1 PUSH1 0x0 JUMPDEST DUP6 DUP2 LT ISZERO PUSH2 0x13E5 JUMPI DUP5 DUP5 SUB DUP10 MSTORE DUP2 MLOAD PUSH2 0x13C6 DUP6 DUP3 PUSH2 0x1361 JUMP JUMPDEST SWAP5 POP PUSH2 0x13D1 DUP4 PUSH2 0x1375 JUMP JUMPDEST SWAP3 POP PUSH1 0x20 DUP11 ADD SWAP10 POP POP PUSH1 0x1 DUP2 ADD SWAP1 POP PUSH2 0x13AD JUMP JUMPDEST POP DUP3 SWAP8 POP DUP8 SWAP6 POP POP POP POP POP POP SWAP3 SWAP2 POP POP JUMP JUMPDEST PUSH1 0x0 PUSH1 0x20 DUP3 ADD SWAP1 POP DUP2 DUP2 SUB PUSH1 0x0 DUP4 ADD MSTORE PUSH2 0x1411 DUP2 DUP5 PUSH2 0x1382 JUMP JUMPDEST SWAP1 POP SWAP3 SWAP2 POP POP JUMP JUMPDEST PUSH32 0x4E487B7100000000000000000000000000000000000000000000000000000000 PUSH1 0x0 MSTORE PUSH1 0x22 PUSH1 0x4 MSTORE PUSH1 0x24 PUSH1 0x0 REVERT JUMPDEST PUSH1 0x0 PUSH1 0x2 DUP3 DIV SWAP1 POP PUSH1 0x1 DUP3 AND DUP1 PUSH2 0x1460 JUMPI PUSH1 0x7F DUP3 AND SWAP2 POP JUMPDEST PUSH1 0x20 DUP3 LT DUP2 SUB PUSH2 0x1473 JUMPI PUSH2 0x1472 PUSH2 0x1419 JUMP JUMPDEST JUMPDEST POP SWAP2 SWAP1 POP JUMP JUMPDEST PUSH1 0x0 DUP2 SWAP1 POP DUP2 PUSH1 0x0 MSTORE PUSH1 0x20 PUSH1 0x0 KECCAK256 SWAP1 POP SWAP2 SWAP1 POP JUMP JUMPDEST PUSH1 0x0 PUSH1 0x20 PUSH1 0x1F DUP4 ADD DIV SWAP1 POP SWAP2 SWAP1 POP JUMP JUMPDEST PUSH1 0x0 DUP3 DUP3 SHL SWAP1 POP SWAP3 SWAP2 POP POP JUMP JUMPDEST PUSH1 0x0 PUSH1 0x8 DUP4 MUL PUSH2 0x14DB PUSH32 0xFFFFFFFFFFFFFFFFFFFFFFFFFFFFFFFFFFFFFFFFFFFFFFFFFFFFFFFFFFFFFFFF DUP3 PUSH2 0x149E JUMP JUMPDEST PUSH2 0x14E5 DUP7 DUP4 PUSH2 0x149E JUMP JUMPDEST SWAP6 POP DUP1 NOT DUP5 AND SWAP4 POP DUP1 DUP7 AND DUP5 OR SWAP3 POP POP POP SWAP4 SWAP3 POP POP POP JUMP JUMPDEST PUSH1 0x0 DUP2 SWAP1 POP SWAP2 SWAP1 POP JUMP JUMPDEST PUSH1 0x0 PUSH2 0x1522 PUSH2 0x151D PUSH2 0x1518 DUP5 PUSH2 0xC50 JUMP JUMPDEST PUSH2 0x14FD JUMP JUMPDEST PUSH2 0xC50 JUMP JUMPDEST SWAP1 POP SWAP2 SWAP1 POP JUMP JUMPDEST PUSH1 0x0 DUP2 SWAP1 POP SWAP2 SWAP1 POP JUMP JUMPDEST PUSH2 0x153C DUP4 PUSH2 0x1507 JUMP JUMPDEST PUSH2 0x1550 PUSH2 0x1548 DUP3 PUSH2 0x1529 JUMP JUMPDEST DUP5 DUP5 SLOAD PUSH2 0x14AB JUMP JUMPDEST DUP3 SSTORE POP POP POP POP JUMP JUMPDEST PUSH1 0x0 SWAP1 JUMP JUMPDEST PUSH2 0x1565 PUSH2 0x1558 JUMP JUMPDEST PUSH2 0x1570 DUP2 DUP5 DUP5 PUSH2 0x1533 JUMP JUMPDEST POP POP POP JUMP JUMPDEST JUMPDEST DUP2 DUP2 LT ISZERO PUSH2 0x1594 JUMPI PUSH2 0x1589 PUSH1 0x0 DUP3 PUSH2 0x155D JUMP JUMPDEST PUSH1 0x1 DUP2 ADD SWAP1 POP PUSH2 0x1576 JUMP JUMPDEST POP POP JUMP JUMPDEST PUSH1 0x1F DUP3 GT ISZERO PUSH2 0x15D9 JUMPI PUSH2 0x15AA DUP2 PUSH2 0x1479 JUMP JUMPDEST PUSH2 0x15B3 DUP5 PUSH2 0x148E JUMP JUMPDEST DUP2 ADD PUSH1 0x20 DUP6 LT ISZERO PUSH2 0x15C2 JUMPI DUP2 SWAP1 POP JUMPDEST PUSH2 0x15D6 PUSH2 0x15CE DUP6 PUSH2 0x148E JUMP JUMPDEST DUP4 ADD DUP3 PUSH2 0x1575 JUMP JUMPDEST POP POP JUMPDEST POP POP POP JUMP JUMPDEST PUSH1 0x0 DUP3 DUP3 SHR SWAP1 POP SWAP3 SWAP2 POP POP JUMP JUMPDEST PUSH1 0x0 PUSH2 0x15FC PUSH1 0x0 NOT DUP5 PUSH1 0x8 MUL PUSH2 0x15DE JUMP JUMPDEST NOT DUP1 DUP4 AND SWAP2 POP POP SWAP3 SWAP2 POP POP JUMP JUMPDEST PUSH1 0x0 PUSH2 0x1615 DUP4 DUP4 PUSH2 0x15EB JUMP JUMPDEST SWAP2 POP DUP3 PUSH1 0x2 MUL DUP3 OR SWAP1 POP SWAP3 SWAP2 POP POP JUMP JUMPDEST PUSH2 0x162E DUP3 PUSH2 0xFDB JUMP JUMPDEST PUSH8 0xFFFFFFFFFFFFFFFF DUP2 GT ISZERO PUSH2 0x1647 JUMPI PUSH2 0x1646 PUSH2 0xD2A JUMP JUMPDEST JUMPDEST PUSH2 0x1651 DUP3 SLOAD PUSH2 0x1448 JUMP JUMPDEST PUSH2 0x165C DUP3 DUP3 DUP6 PUSH2 0x1598 JUMP JUMPDEST PUSH1 0x0 PUSH1 0x20 SWAP1 POP PUSH1 0x1F DUP4 GT PUSH1 0x1 DUP2 EQ PUSH2 0x168F JUMPI PUSH1 0x0 DUP5 ISZERO PUSH2 0x167D JUMPI DUP3 DUP8 ADD MLOAD SWAP1 POP JUMPDEST PUSH2 0x1687 DUP6 DUP3 PUSH2 0x1609 JUMP JUMPDEST DUP7 SSTORE POP PUSH2 0x16EF JUMP JUMPDEST PUSH1 0x1F NOT DUP5 AND PUSH2 0x169D DUP7 PUSH2 0x1479 JUMP JUMPDEST PUSH1 0x0 JUMPDEST DUP3 DUP2 LT ISZERO PUSH2 0x16C5 JUMPI DUP5 DUP10 ADD MLOAD DUP3 SSTORE PUSH1 0x1 DUP3 ADD SWAP2 POP PUSH1 0x20 DUP6 ADD SWAP5 POP PUSH1 0x20 DUP2 ADD SWAP1 POP PUSH2 0x16A0 JUMP JUMPDEST DUP7 DUP4 LT ISZERO PUSH2 0x16E2 JUMPI DUP5 DUP10 ADD MLOAD PUSH2 0x16DE PUSH1 0x1F DUP10 AND DUP3 PUSH2 0x15EB JUMP JUMPDEST DUP4 SSTORE POP JUMPDEST PUSH1 0x1 PUSH1 0x2 DUP9 MUL ADD DUP9 SSTORE POP POP POP JUMPDEST POP POP POP POP POP POP JUMP JUMPDEST PUSH32 0x446F63746F7220616C7265616479207265676973746572656400000000000000 PUSH1 0x0 DUP3 ADD MSTORE POP JUMP JUMPDEST PUSH1 0x0 PUSH2 0x172D PUSH1 0x19 DUP4 PUSH2 0xFE6 JUMP JUMPDEST SWAP2 POP PUSH2 0x1738 DUP3 PUSH2 0x16F7 JUMP JUMPDEST PUSH1 0x20 DUP3 ADD SWAP1 POP SWAP2 SWAP1 POP JUMP JUMPDEST PUSH1 0x0 PUSH1 0x20 DUP3 ADD SWAP1 POP DUP2 DUP2 SUB PUSH1 0x0 DUP4 ADD MSTORE PUSH2 0x175C DUP2 PUSH2 0x1720 JUMP JUMPDEST SWAP1 POP SWAP2 SWAP1 POP JUMP JUMPDEST PUSH32 0x4E487B7100000000000000000000000000000000000000000000000000000000 PUSH1 0x0 MSTORE PUSH1 0x11 PUSH1 0x4 MSTORE PUSH1 0x24 PUSH1 0x0 REVERT JUMPDEST PUSH1 0x0 PUSH2 0x179D DUP3 PUSH2 0xC50 JUMP JUMPDEST SWAP2 POP PUSH32 0xFFFFFFFFFFFFFFFFFFFFFFFFFFFFFFFFFFFFFFFFFFFFFFFFFFFFFFFFFFFFFFFF DUP3 SUB PUSH2 0x17CF JUMPI PUSH2 0x17CE PUSH2 0x1763 JUMP JUMPDEST JUMPDEST PUSH1 0x1 DUP3 ADD SWAP1 POP SWAP2 SWAP1 POP JUMP JUMPDEST PUSH32 0x4E487B7100000000000000000000000000000000000000000000000000000000 PUSH1 0x0 MSTORE PUSH1 0x32 PUSH1 0x4 MSTORE PUSH1 0x24 PUSH1 0x0 REVERT INVALID LOG2 PUSH5 0x6970667358 0x22 SLT KECCAK256 PUSH32 0xF8784DE8605201A0EC533196872898A0FBB326308BE5489DF2DCF619125DD764 PUSH20 0x6F6C634300081200330000000000000000000000 "
				},
				"gasEstimates": {
					"creation": {
						"codeDepositCost": "1241400",
						"executionCost": "1288",
						"totalCost": "1242688"
					},
					"external": {
						"createWorkplace(string,string)": "infinite",
						"doctorAddress(uint256)": "4957",
						"doctorCount()": "2474",
						"doctorNotExists()": "infinite",
						"doctors(address)": "infinite",
						"getAllDoctors()": "infinite",
						"getAllWorkplaces()": "infinite",
						"registerDoctor(string,string,uint256)": "infinite",
						"workplaces(uint256)": "infinite"
					}
				},
				"methodIdentifiers": {
					"createWorkplace(string,string)": "5ab2ce22",
					"doctorAddress(uint256)": "59bf95f7",
					"doctorCount()": "78522bc4",
					"doctorNotExists()": "bae1eee8",
					"doctors(address)": "a9583c22",
					"getAllDoctors()": "f0d95090",
					"getAllWorkplaces()": "d92631db",
					"registerDoctor(string,string,uint256)": "87446b6e",
					"workplaces(uint256)": "c38831ae"
				}
			},
			"storageLayout": {
				"storage": [
					{
						"astId": 10,
						"contract": "Doctor.sol:Doctor",
						"label": "workplaces",
						"offset": 0,
						"slot": "0",
						"type": "t_array(t_struct(Workplace)6_storage)dyn_storage"
					},
					{
						"astId": 64,
						"contract": "Doctor.sol:Doctor",
						"label": "doctors",
						"offset": 0,
						"slot": "1",
						"type": "t_mapping(t_address,t_struct(DoctorDetails)59_storage)"
					},
					{
						"astId": 66,
						"contract": "Doctor.sol:Doctor",
						"label": "doctorCount",
						"offset": 0,
						"slot": "2",
						"type": "t_uint256"
					},
					{
						"astId": 69,
						"contract": "Doctor.sol:Doctor",
						"label": "doctorAddress",
						"offset": 0,
						"slot": "3",
						"type": "t_array(t_address)dyn_storage"
					}
				],
				"types": {
					"t_address": {
						"encoding": "inplace",
						"label": "address",
						"numberOfBytes": "20"
					},
					"t_array(t_address)dyn_storage": {
						"base": "t_address",
						"encoding": "dynamic_array",
						"label": "address[]",
						"numberOfBytes": "32"
					},
					"t_array(t_struct(Workplace)6_storage)dyn_storage": {
						"base": "t_struct(Workplace)6_storage",
						"encoding": "dynamic_array",
						"label": "struct Admin.Workplace[]",
						"numberOfBytes": "32"
					},
					"t_mapping(t_address,t_struct(DoctorDetails)59_storage)": {
						"encoding": "mapping",
						"key": "t_address",
						"label": "mapping(address => struct Doctor.DoctorDetails)",
						"numberOfBytes": "32",
						"value": "t_struct(DoctorDetails)59_storage"
					},
					"t_string_storage": {
						"encoding": "bytes",
						"label": "string",
						"numberOfBytes": "32"
					},
					"t_struct(DoctorDetails)59_storage": {
						"encoding": "inplace",
						"label": "struct Doctor.DoctorDetails",
						"members": [
							{
								"astId": 50,
								"contract": "Doctor.sol:Doctor",
								"label": "id",
								"offset": 0,
								"slot": "0",
								"type": "t_uint256"
							},
							{
								"astId": 52,
								"contract": "Doctor.sol:Doctor",
								"label": "name",
								"offset": 0,
								"slot": "1",
								"type": "t_string_storage"
							},
							{
								"astId": 54,
								"contract": "Doctor.sol:Doctor",
								"label": "qualification",
								"offset": 0,
								"slot": "2",
								"type": "t_string_storage"
							},
							{
								"astId": 56,
								"contract": "Doctor.sol:Doctor",
								"label": "doctor",
								"offset": 0,
								"slot": "3",
								"type": "t_address"
							},
							{
								"astId": 58,
								"contract": "Doctor.sol:Doctor",
								"label": "workPlace",
								"offset": 0,
								"slot": "4",
								"type": "t_uint256"
							}
						],
						"numberOfBytes": "160"
					},
					"t_struct(Workplace)6_storage": {
						"encoding": "inplace",
						"label": "struct Admin.Workplace",
						"members": [
							{
								"astId": 3,
								"contract": "Doctor.sol:Doctor",
								"label": "name",
								"offset": 0,
								"slot": "0",
								"type": "t_string_storage"
							},
							{
								"astId": 5,
								"contract": "Doctor.sol:Doctor",
								"label": "workAddress",
								"offset": 0,
								"slot": "1",
								"type": "t_string_storage"
							}
						],
						"numberOfBytes": "64"
					},
					"t_uint256": {
						"encoding": "inplace",
						"label": "uint256",
						"numberOfBytes": "32"
					}
				}
			},
			"userdoc": {
				"kind": "user",
				"methods": {},
				"version": 1
			}
		}
	}
}