{
	"data": {
		"bytecode": {
			"linkReferences": {},
			"object": "608060405234801561001057600080fd5b50611d0d806100206000396000f3fe608060405234801561001057600080fd5b506004361061009e5760003560e01c8063af6adbbd11610066578063af6adbbd1461015c578063c38831ae14610178578063c85e766d146101a9578063d47c029c146101dc578063d92631db146101f85761009e565b806346459b22146100a35780635ab2ce22146100d457806368f2b1d2146100f0578063747dcbde1461010e5780639df10db01461013e575b600080fd5b6100bd60048036038101906100b89190610f1e565b610216565b6040516100cb929190610fea565b60405180910390f35b6100ee60048036038101906100e9919061114f565b6102d2565b005b6100f861034a565b604051610105919061142f565b60405180910390f35b61012860048036038101906101239190610f1e565b610642565b6040516101359190611451565b60405180910390f35b6101466106f9565b6040516101539190611572565b60405180910390f35b6101766004803603810190610171919061167a565b6107f4565b005b610192600480360381019061018d9190610f1e565b6108d6565b6040516101a0929190611751565b60405180910390f35b6101c360048036038101906101be9190610f1e565b610a1a565b6040516101d39493929190611788565b60405180910390f35b6101f660048036038101906101f191906117e2565b610bf2565b005b610200610c77565b60405161020d9190611931565b60405180910390f35b6004818154811061022657600080fd5b906000526020600020906002020160009150905080600001549080600101805461024f90611982565b80601f016020809104026020016040519081016040528092919081815260200182805461027b90611982565b80156102c85780601f1061029d576101008083540402835291602001916102c8565b820191906000526020600020905b8154815290600101906020018083116102ab57829003601f168201915b5050505050905082565b600060405180604001604052808481526020018381525090506002819080600181540180825580915050600190039060005260206000209060020201600090919091909150600082015181600001908161032c9190611b5f565b5060208201518160010190816103429190611b5f565b505050505050565b60606003805480602002602001604051908101604052809291908181526020016000905b8282101561063957838290600052602060002090600502016040518060a0016040529081600082015481526020016001820180546103ab90611982565b80601f01602080910402602001604051908101604052809291908181526020018280546103d790611982565b80156104245780601f106103f957610100808354040283529160200191610424565b820191906000526020600020905b81548152906001019060200180831161040757829003601f168201915b5050505050815260200160028201805461043d90611982565b80601f016020809104026020016040519081016040528092919081815260200182805461046990611982565b80156104b65780601f1061048b576101008083540402835291602001916104b6565b820191906000526020600020905b81548152906001019060200180831161049957829003601f168201915b505050505081526020016003820180546104cf90611982565b80601f01602080910402602001604051908101604052809291908181526020018280546104fb90611982565b80156105485780601f1061051d57610100808354040283529160200191610548565b820191906000526020600020905b81548152906001019060200180831161052b57829003601f168201915b5050505050815260200160048201805480602002602001604051908101604052809291908181526020016000905b8282101561062257838290600052602060002001805461059590611982565b80601f01602080910402602001604051908101604052809291908181526020018280546105c190611982565b801561060e5780601f106105e35761010080835404028352916020019161060e565b820191906000526020600020905b8154815290600101906020018083116105f157829003601f168201915b505050505081526020019060010190610576565b50505050815250508152602001906001019061036e565b50505050905090565b60606004828154811061065857610657611c31565b5b9060005260206000209060020201600101805461067490611982565b80601f01602080910402602001604051908101604052809291908181526020018280546106a090611982565b80156106ed5780601f106106c2576101008083540402835291602001916106ed565b820191906000526020600020905b8154815290600101906020018083116106d057829003601f168201915b50505050509050919050565b60606004805480602002602001604051908101604052809291908181526020016000905b828210156107eb57838290600052602060002090600202016040518060400160405290816000820154815260200160018201805461075a90611982565b80601f016020809104026020016040519081016040528092919081815260200182805461078690611982565b80156107d35780601f106107a8576101008083540402835291602001916107d3565b820191906000526020600020905b8154815290600101906020018083116107b657829003601f168201915b5050505050815250508152602001906001019061071d565b50505050905090565b60006040518060a00160405280600054815260200186815260200185815260200183815260200184815250905060008081548092919061083390611c8f565b919050555060038190806001815401808255809150506001900390600052602060002090600502016000909190919091506000820151816000015560208201518160010190816108839190611b5f565b5060408201518160020190816108999190611b5f565b5060608201518160030190816108af9190611b5f565b5060808201518160040190805190602001906108cc929190610dfa565b5050505050505050565b600281815481106108e657600080fd5b906000526020600020906002020160009150905080600001805461090990611982565b80601f016020809104026020016040519081016040528092919081815260200182805461093590611982565b80156109825780601f1061095757610100808354040283529160200191610982565b820191906000526020600020905b81548152906001019060200180831161096557829003601f168201915b50505050509080600101805461099790611982565b80601f01602080910402602001604051908101604052809291908181526020018280546109c390611982565b8015610a105780601f106109e557610100808354040283529160200191610a10565b820191906000526020600020905b8154815290600101906020018083116109f357829003601f168201915b5050505050905082565b60038181548110610a2a57600080fd5b9060005260206000209060050201600091509050806000015490806001018054610a5390611982565b80601f0160208091040260200160405190810160405280929190818152602001828054610a7f90611982565b8015610acc5780601f10610aa157610100808354040283529160200191610acc565b820191906000526020600020905b815481529060010190602001808311610aaf57829003601f168201915b505050505090806002018054610ae190611982565b80601f0160208091040260200160405190810160405280929190818152602001828054610b0d90611982565b8015610b5a5780601f10610b2f57610100808354040283529160200191610b5a565b820191906000526020600020905b815481529060010190602001808311610b3d57829003601f168201915b505050505090806003018054610b6f90611982565b80601f0160208091040260200160405190810160405280929190818152602001828054610b9b90611982565b8015610be85780601f10610bbd57610100808354040283529160200191610be8565b820191906000526020600020905b815481529060010190602001808311610bcb57829003601f168201915b5050505050905084565b60006040518060400160405280600154815260200183815250905060016000815480929190610c2090611c8f565b91905055506004819080600181540180825580915050600190039060005260206000209060020201600090919091909150600082015181600001556020820151816001019081610c709190611b5f565b5050505050565b60606002805480602002602001604051908101604052809291908181526020016000905b82821015610df15783829060005260206000209060020201604051806040016040529081600082018054610cce90611982565b80601f0160208091040260200160405190810160405280929190818152602001828054610cfa90611982565b8015610d475780601f10610d1c57610100808354040283529160200191610d47565b820191906000526020600020905b815481529060010190602001808311610d2a57829003601f168201915b50505050508152602001600182018054610d6090611982565b80601f0160208091040260200160405190810160405280929190818152602001828054610d8c90611982565b8015610dd95780601f10610dae57610100808354040283529160200191610dd9565b820191906000526020600020905b815481529060010190602001808311610dbc57829003601f168201915b50505050508152505081526020019060010190610c9b565b50505050905090565b828054828255906000526020600020908101928215610e42579160200282015b82811115610e41578251829081610e319190611b5f565b5091602001919060010190610e1a565b5b509050610e4f9190610e53565b5090565b5b80821115610e735760008181610e6a9190610e77565b50600101610e54565b5090565b508054610e8390611982565b6000825580601f10610e955750610eb4565b601f016020900490600052602060002090810190610eb39190610eb7565b5b50565b5b80821115610ed0576000816000905550600101610eb8565b5090565b6000604051905090565b600080fd5b600080fd5b6000819050919050565b610efb81610ee8565b8114610f0657600080fd5b50565b600081359050610f1881610ef2565b92915050565b600060208284031215610f3457610f33610ede565b5b6000610f4284828501610f09565b91505092915050565b610f5481610ee8565b82525050565b600081519050919050565b600082825260208201905092915050565b60005b83811015610f94578082015181840152602081019050610f79565b60008484015250505050565b6000601f19601f8301169050919050565b6000610fbc82610f5a565b610fc68185610f65565b9350610fd6818560208601610f76565b610fdf81610fa0565b840191505092915050565b6000604082019050610fff6000830185610f4b565b81810360208301526110118184610fb1565b90509392505050565b600080fd5b600080fd5b7f4e487b7100000000000000000000000000000000000000000000000000000000600052604160045260246000fd5b61105c82610fa0565b810181811067ffffffffffffffff8211171561107b5761107a611024565b5b80604052505050565b600061108e610ed4565b905061109a8282611053565b919050565b600067ffffffffffffffff8211156110ba576110b9611024565b5b6110c382610fa0565b9050602081019050919050565b82818337600083830152505050565b60006110f26110ed8461109f565b611084565b90508281526020810184848401111561110e5761110d61101f565b5b6111198482856110d0565b509392505050565b600082601f8301126111365761113561101a565b5b81356111468482602086016110df565b91505092915050565b6000806040838503121561116657611165610ede565b5b600083013567ffffffffffffffff81111561118457611183610ee3565b5b61119085828601611121565b925050602083013567ffffffffffffffff8111156111b1576111b0610ee3565b5b6111bd85828601611121565b9150509250929050565b600081519050919050565b600082825260208201905092915050565b6000819050602082019050919050565b6111fc81610ee8565b82525050565b600082825260208201905092915050565b600061121e82610f5a565b6112288185611202565b9350611238818560208601610f76565b61124181610fa0565b840191505092915050565b600081519050919050565b600082825260208201905092915050565b6000819050602082019050919050565b60006112848383611213565b905092915050565b6000602082019050919050565b60006112a48261124c565b6112ae8185611257565b9350836020820285016112c085611268565b8060005b858110156112fc57848403895281516112dd8582611278565b94506112e88361128c565b925060208a019950506001810190506112c4565b50829750879550505050505092915050565b600060a08301600083015161132660008601826111f3565b506020830151848203602086015261133e8282611213565b915050604083015184820360408601526113588282611213565b915050606083015184820360608601526113728282611213565b9150506080830151848203608086015261138c8282611299565b9150508091505092915050565b60006113a5838361130e565b905092915050565b6000602082019050919050565b60006113c5826111c7565b6113cf81856111d2565b9350836020820285016113e1856111e3565b8060005b8581101561141d57848403895281516113fe8582611399565b9450611409836113ad565b925060208a019950506001810190506113e5565b50829750879550505050505092915050565b6000602082019050818103600083015261144981846113ba565b905092915050565b6000602082019050818103600083015261146b8184610fb1565b905092915050565b600081519050919050565b600082825260208201905092915050565b6000819050602082019050919050565b60006040830160008301516114b760008601826111f3565b50602083015184820360208601526114cf8282611213565b9150508091505092915050565b60006114e8838361149f565b905092915050565b6000602082019050919050565b600061150882611473565b611512818561147e565b9350836020820285016115248561148f565b8060005b85811015611560578484038952815161154185826114dc565b945061154c836114f0565b925060208a01995050600181019050611528565b50829750879550505050505092915050565b6000602082019050818103600083015261158c81846114fd565b905092915050565b600067ffffffffffffffff8211156115af576115ae611024565b5b602082029050602081019050919050565b600080fd5b60006115d86115d384611594565b611084565b905080838252602082019050602084028301858111156115fb576115fa6115c0565b5b835b8181101561164257803567ffffffffffffffff8111156116205761161f61101a565b5b80860161162d8982611121565b855260208501945050506020810190506115fd565b5050509392505050565b600082601f8301126116615761166061101a565b5b81356116718482602086016115c5565b91505092915050565b6000806000806080858703121561169457611693610ede565b5b600085013567ffffffffffffffff8111156116b2576116b1610ee3565b5b6116be87828801611121565b945050602085013567ffffffffffffffff8111156116df576116de610ee3565b5b6116eb87828801611121565b935050604085013567ffffffffffffffff81111561170c5761170b610ee3565b5b6117188782880161164c565b925050606085013567ffffffffffffffff81111561173957611738610ee3565b5b61174587828801611121565b91505092959194509250565b6000604082019050818103600083015261176b8185610fb1565b9050818103602083015261177f8184610fb1565b90509392505050565b600060808201905061179d6000830187610f4b565b81810360208301526117af8186610fb1565b905081810360408301526117c38185610fb1565b905081810360608301526117d78184610fb1565b905095945050505050565b6000602082840312156117f8576117f7610ede565b5b600082013567ffffffffffffffff81111561181657611815610ee3565b5b61182284828501611121565b91505092915050565b600081519050919050565b600082825260208201905092915050565b6000819050602082019050919050565b600060408301600083015184820360008601526118748282611213565b9150506020830151848203602086015261188e8282611213565b9150508091505092915050565b60006118a78383611857565b905092915050565b6000602082019050919050565b60006118c78261182b565b6118d18185611836565b9350836020820285016118e385611847565b8060005b8581101561191f5784840389528151611900858261189b565b945061190b836118af565b925060208a019950506001810190506118e7565b50829750879550505050505092915050565b6000602082019050818103600083015261194b81846118bc565b905092915050565b7f4e487b7100000000000000000000000000000000000000000000000000000000600052602260045260246000fd5b6000600282049050600182168061199a57607f821691505b6020821081036119ad576119ac611953565b5b50919050565b60008190508160005260206000209050919050565b60006020601f8301049050919050565b600082821b905092915050565b600060088302611a157fffffffffffffffffffffffffffffffffffffffffffffffffffffffffffffffff826119d8565b611a1f86836119d8565b95508019841693508086168417925050509392505050565b6000819050919050565b6000611a5c611a57611a5284610ee8565b611a37565b610ee8565b9050919050565b6000819050919050565b611a7683611a41565b611a8a611a8282611a63565b8484546119e5565b825550505050565b600090565b611a9f611a92565b611aaa818484611a6d565b505050565b5b81811015611ace57611ac3600082611a97565b600181019050611ab0565b5050565b601f821115611b1357611ae4816119b3565b611aed846119c8565b81016020851015611afc578190505b611b10611b08856119c8565b830182611aaf565b50505b505050565b600082821c905092915050565b6000611b3660001984600802611b18565b1980831691505092915050565b6000611b4f8383611b25565b9150826002028217905092915050565b611b6882610f5a565b67ffffffffffffffff811115611b8157611b80611024565b5b611b8b8254611982565b611b96828285611ad2565b600060209050601f831160018114611bc95760008415611bb7578287015190505b611bc18582611b43565b865550611c29565b601f198416611bd7866119b3565b60005b82811015611bff57848901518255600182019150602085019450602081019050611bda565b86831015611c1c5784890151611c18601f891682611b25565b8355505b6001600288020188555050505b505050505050565b7f4e487b7100000000000000000000000000000000000000000000000000000000600052603260045260246000fd5b7f4e487b7100000000000000000000000000000000000000000000000000000000600052601160045260246000fd5b6000611c9a82610ee8565b91507fffffffffffffffffffffffffffffffffffffffffffffffffffffffffffffffff8203611ccc57611ccb611c60565b5b60018201905091905056fea26469706673582212205776f36aebd27b65660de67fbf4f4bfe32f617f82bfb4dbfd2cdd2d51a07bd2064736f6c63430008120033",
			"opcodes": "PUSH1 0x80 PUSH1 0x40 MSTORE CALLVALUE DUP1 ISZERO PUSH2 0x10 JUMPI PUSH1 0x0 DUP1 REVERT JUMPDEST POP PUSH2 0x1D0D DUP1 PUSH2 0x20 PUSH1 0x0 CODECOPY PUSH1 0x0 RETURN INVALID PUSH1 0x80 PUSH1 0x40 MSTORE CALLVALUE DUP1 ISZERO PUSH2 0x10 JUMPI PUSH1 0x0 DUP1 REVERT JUMPDEST POP PUSH1 0x4 CALLDATASIZE LT PUSH2 0x9E JUMPI PUSH1 0x0 CALLDATALOAD PUSH1 0xE0 SHR DUP1 PUSH4 0xAF6ADBBD GT PUSH2 0x66 JUMPI DUP1 PUSH4 0xAF6ADBBD EQ PUSH2 0x15C JUMPI DUP1 PUSH4 0xC38831AE EQ PUSH2 0x178 JUMPI DUP1 PUSH4 0xC85E766D EQ PUSH2 0x1A9 JUMPI DUP1 PUSH4 0xD47C029C EQ PUSH2 0x1DC JUMPI DUP1 PUSH4 0xD92631DB EQ PUSH2 0x1F8 JUMPI PUSH2 0x9E JUMP JUMPDEST DUP1 PUSH4 0x46459B22 EQ PUSH2 0xA3 JUMPI DUP1 PUSH4 0x5AB2CE22 EQ PUSH2 0xD4 JUMPI DUP1 PUSH4 0x68F2B1D2 EQ PUSH2 0xF0 JUMPI DUP1 PUSH4 0x747DCBDE EQ PUSH2 0x10E JUMPI DUP1 PUSH4 0x9DF10DB0 EQ PUSH2 0x13E JUMPI JUMPDEST PUSH1 0x0 DUP1 REVERT JUMPDEST PUSH2 0xBD PUSH1 0x4 DUP1 CALLDATASIZE SUB DUP2 ADD SWAP1 PUSH2 0xB8 SWAP2 SWAP1 PUSH2 0xF1E JUMP JUMPDEST PUSH2 0x216 JUMP JUMPDEST PUSH1 0x40 MLOAD PUSH2 0xCB SWAP3 SWAP2 SWAP1 PUSH2 0xFEA JUMP JUMPDEST PUSH1 0x40 MLOAD DUP1 SWAP2 SUB SWAP1 RETURN JUMPDEST PUSH2 0xEE PUSH1 0x4 DUP1 CALLDATASIZE SUB DUP2 ADD SWAP1 PUSH2 0xE9 SWAP2 SWAP1 PUSH2 0x114F JUMP JUMPDEST PUSH2 0x2D2 JUMP JUMPDEST STOP JUMPDEST PUSH2 0xF8 PUSH2 0x34A JUMP JUMPDEST PUSH1 0x40 MLOAD PUSH2 0x105 SWAP2 SWAP1 PUSH2 0x142F JUMP JUMPDEST PUSH1 0x40 MLOAD DUP1 SWAP2 SUB SWAP1 RETURN JUMPDEST PUSH2 0x128 PUSH1 0x4 DUP1 CALLDATASIZE SUB DUP2 ADD SWAP1 PUSH2 0x123 SWAP2 SWAP1 PUSH2 0xF1E JUMP JUMPDEST PUSH2 0x642 JUMP JUMPDEST PUSH1 0x40 MLOAD PUSH2 0x135 SWAP2 SWAP1 PUSH2 0x1451 JUMP JUMPDEST PUSH1 0x40 MLOAD DUP1 SWAP2 SUB SWAP1 RETURN JUMPDEST PUSH2 0x146 PUSH2 0x6F9 JUMP JUMPDEST PUSH1 0x40 MLOAD PUSH2 0x153 SWAP2 SWAP1 PUSH2 0x1572 JUMP JUMPDEST PUSH1 0x40 MLOAD DUP1 SWAP2 SUB SWAP1 RETURN JUMPDEST PUSH2 0x176 PUSH1 0x4 DUP1 CALLDATASIZE SUB DUP2 ADD SWAP1 PUSH2 0x171 SWAP2 SWAP1 PUSH2 0x167A JUMP JUMPDEST PUSH2 0x7F4 JUMP JUMPDEST STOP JUMPDEST PUSH2 0x192 PUSH1 0x4 DUP1 CALLDATASIZE SUB DUP2 ADD SWAP1 PUSH2 0x18D SWAP2 SWAP1 PUSH2 0xF1E JUMP JUMPDEST PUSH2 0x8D6 JUMP JUMPDEST PUSH1 0x40 MLOAD PUSH2 0x1A0 SWAP3 SWAP2 SWAP1 PUSH2 0x1751 JUMP JUMPDEST PUSH1 0x40 MLOAD DUP1 SWAP2 SUB SWAP1 RETURN JUMPDEST PUSH2 0x1C3 PUSH1 0x4 DUP1 CALLDATASIZE SUB DUP2 ADD SWAP1 PUSH2 0x1BE SWAP2 SWAP1 PUSH2 0xF1E JUMP JUMPDEST PUSH2 0xA1A JUMP JUMPDEST PUSH1 0x40 MLOAD PUSH2 0x1D3 SWAP5 SWAP4 SWAP3 SWAP2 SWAP1 PUSH2 0x1788 JUMP JUMPDEST PUSH1 0x40 MLOAD DUP1 SWAP2 SUB SWAP1 RETURN JUMPDEST PUSH2 0x1F6 PUSH1 0x4 DUP1 CALLDATASIZE SUB DUP2 ADD SWAP1 PUSH2 0x1F1 SWAP2 SWAP1 PUSH2 0x17E2 JUMP JUMPDEST PUSH2 0xBF2 JUMP JUMPDEST STOP JUMPDEST PUSH2 0x200 PUSH2 0xC77 JUMP JUMPDEST PUSH1 0x40 MLOAD PUSH2 0x20D SWAP2 SWAP1 PUSH2 0x1931 JUMP JUMPDEST PUSH1 0x40 MLOAD DUP1 SWAP2 SUB SWAP1 RETURN JUMPDEST PUSH1 0x4 DUP2 DUP2 SLOAD DUP2 LT PUSH2 0x226 JUMPI PUSH1 0x0 DUP1 REVERT JUMPDEST SWAP1 PUSH1 0x0 MSTORE PUSH1 0x20 PUSH1 0x0 KECCAK256 SWAP1 PUSH1 0x2 MUL ADD PUSH1 0x0 SWAP2 POP SWAP1 POP DUP1 PUSH1 0x0 ADD SLOAD SWAP1 DUP1 PUSH1 0x1 ADD DUP1 SLOAD PUSH2 0x24F SWAP1 PUSH2 0x1982 JUMP JUMPDEST DUP1 PUSH1 0x1F ADD PUSH1 0x20 DUP1 SWAP2 DIV MUL PUSH1 0x20 ADD PUSH1 0x40 MLOAD SWAP1 DUP2 ADD PUSH1 0x40 MSTORE DUP1 SWAP3 SWAP2 SWAP1 DUP2 DUP2 MSTORE PUSH1 0x20 ADD DUP3 DUP1 SLOAD PUSH2 0x27B SWAP1 PUSH2 0x1982 JUMP JUMPDEST DUP1 ISZERO PUSH2 0x2C8 JUMPI DUP1 PUSH1 0x1F LT PUSH2 0x29D JUMPI PUSH2 0x100 DUP1 DUP4 SLOAD DIV MUL DUP4 MSTORE SWAP2 PUSH1 0x20 ADD SWAP2 PUSH2 0x2C8 JUMP JUMPDEST DUP3 ADD SWAP2 SWAP1 PUSH1 0x0 MSTORE PUSH1 0x20 PUSH1 0x0 KECCAK256 SWAP1 JUMPDEST DUP2 SLOAD DUP2 MSTORE SWAP1 PUSH1 0x1 ADD SWAP1 PUSH1 0x20 ADD DUP1 DUP4 GT PUSH2 0x2AB JUMPI DUP3 SWAP1 SUB PUSH1 0x1F AND DUP3 ADD SWAP2 JUMPDEST POP POP POP POP POP SWAP1 POP DUP3 JUMP JUMPDEST PUSH1 0x0 PUSH1 0x40 MLOAD DUP1 PUSH1 0x40 ADD PUSH1 0x40 MSTORE DUP1 DUP5 DUP2 MSTORE PUSH1 0x20 ADD DUP4 DUP2 MSTORE POP SWAP1 POP PUSH1 0x2 DUP2 SWAP1 DUP1 PUSH1 0x1 DUP2 SLOAD ADD DUP1 DUP3 SSTORE DUP1 SWAP2 POP POP PUSH1 0x1 SWAP1 SUB SWAP1 PUSH1 0x0 MSTORE PUSH1 0x20 PUSH1 0x0 KECCAK256 SWAP1 PUSH1 0x2 MUL ADD PUSH1 0x0 SWAP1 SWAP2 SWAP1 SWAP2 SWAP1 SWAP2 POP PUSH1 0x0 DUP3 ADD MLOAD DUP2 PUSH1 0x0 ADD SWAP1 DUP2 PUSH2 0x32C SWAP2 SWAP1 PUSH2 0x1B5F JUMP JUMPDEST POP PUSH1 0x20 DUP3 ADD MLOAD DUP2 PUSH1 0x1 ADD SWAP1 DUP2 PUSH2 0x342 SWAP2 SWAP1 PUSH2 0x1B5F JUMP JUMPDEST POP POP POP POP POP POP JUMP JUMPDEST PUSH1 0x60 PUSH1 0x3 DUP1 SLOAD DUP1 PUSH1 0x20 MUL PUSH1 0x20 ADD PUSH1 0x40 MLOAD SWAP1 DUP2 ADD PUSH1 0x40 MSTORE DUP1 SWAP3 SWAP2 SWAP1 DUP2 DUP2 MSTORE PUSH1 0x20 ADD PUSH1 0x0 SWAP1 JUMPDEST DUP3 DUP3 LT ISZERO PUSH2 0x639 JUMPI DUP4 DUP3 SWAP1 PUSH1 0x0 MSTORE PUSH1 0x20 PUSH1 0x0 KECCAK256 SWAP1 PUSH1 0x5 MUL ADD PUSH1 0x40 MLOAD DUP1 PUSH1 0xA0 ADD PUSH1 0x40 MSTORE SWAP1 DUP2 PUSH1 0x0 DUP3 ADD SLOAD DUP2 MSTORE PUSH1 0x20 ADD PUSH1 0x1 DUP3 ADD DUP1 SLOAD PUSH2 0x3AB SWAP1 PUSH2 0x1982 JUMP JUMPDEST DUP1 PUSH1 0x1F ADD PUSH1 0x20 DUP1 SWAP2 DIV MUL PUSH1 0x20 ADD PUSH1 0x40 MLOAD SWAP1 DUP2 ADD PUSH1 0x40 MSTORE DUP1 SWAP3 SWAP2 SWAP1 DUP2 DUP2 MSTORE PUSH1 0x20 ADD DUP3 DUP1 SLOAD PUSH2 0x3D7 SWAP1 PUSH2 0x1982 JUMP JUMPDEST DUP1 ISZERO PUSH2 0x424 JUMPI DUP1 PUSH1 0x1F LT PUSH2 0x3F9 JUMPI PUSH2 0x100 DUP1 DUP4 SLOAD DIV MUL DUP4 MSTORE SWAP2 PUSH1 0x20 ADD SWAP2 PUSH2 0x424 JUMP JUMPDEST DUP3 ADD SWAP2 SWAP1 PUSH1 0x0 MSTORE PUSH1 0x20 PUSH1 0x0 KECCAK256 SWAP1 JUMPDEST DUP2 SLOAD DUP2 MSTORE SWAP1 PUSH1 0x1 ADD SWAP1 PUSH1 0x20 ADD DUP1 DUP4 GT PUSH2 0x407 JUMPI DUP3 SWAP1 SUB PUSH1 0x1F AND DUP3 ADD SWAP2 JUMPDEST POP POP POP POP POP DUP2 MSTORE PUSH1 0x20 ADD PUSH1 0x2 DUP3 ADD DUP1 SLOAD PUSH2 0x43D SWAP1 PUSH2 0x1982 JUMP JUMPDEST DUP1 PUSH1 0x1F ADD PUSH1 0x20 DUP1 SWAP2 DIV MUL PUSH1 0x20 ADD PUSH1 0x40 MLOAD SWAP1 DUP2 ADD PUSH1 0x40 MSTORE DUP1 SWAP3 SWAP2 SWAP1 DUP2 DUP2 MSTORE PUSH1 0x20 ADD DUP3 DUP1 SLOAD PUSH2 0x469 SWAP1 PUSH2 0x1982 JUMP JUMPDEST DUP1 ISZERO PUSH2 0x4B6 JUMPI DUP1 PUSH1 0x1F LT PUSH2 0x48B JUMPI PUSH2 0x100 DUP1 DUP4 SLOAD DIV MUL DUP4 MSTORE SWAP2 PUSH1 0x20 ADD SWAP2 PUSH2 0x4B6 JUMP JUMPDEST DUP3 ADD SWAP2 SWAP1 PUSH1 0x0 MSTORE PUSH1 0x20 PUSH1 0x0 KECCAK256 SWAP1 JUMPDEST DUP2 SLOAD DUP2 MSTORE SWAP1 PUSH1 0x1 ADD SWAP1 PUSH1 0x20 ADD DUP1 DUP4 GT PUSH2 0x499 JUMPI DUP3 SWAP1 SUB PUSH1 0x1F AND DUP3 ADD SWAP2 JUMPDEST POP POP POP POP POP DUP2 MSTORE PUSH1 0x20 ADD PUSH1 0x3 DUP3 ADD DUP1 SLOAD PUSH2 0x4CF SWAP1 PUSH2 0x1982 JUMP JUMPDEST DUP1 PUSH1 0x1F ADD PUSH1 0x20 DUP1 SWAP2 DIV MUL PUSH1 0x20 ADD PUSH1 0x40 MLOAD SWAP1 DUP2 ADD PUSH1 0x40 MSTORE DUP1 SWAP3 SWAP2 SWAP1 DUP2 DUP2 MSTORE PUSH1 0x20 ADD DUP3 DUP1 SLOAD PUSH2 0x4FB SWAP1 PUSH2 0x1982 JUMP JUMPDEST DUP1 ISZERO PUSH2 0x548 JUMPI DUP1 PUSH1 0x1F LT PUSH2 0x51D JUMPI PUSH2 0x100 DUP1 DUP4 SLOAD DIV MUL DUP4 MSTORE SWAP2 PUSH1 0x20 ADD SWAP2 PUSH2 0x548 JUMP JUMPDEST DUP3 ADD SWAP2 SWAP1 PUSH1 0x0 MSTORE PUSH1 0x20 PUSH1 0x0 KECCAK256 SWAP1 JUMPDEST DUP2 SLOAD DUP2 MSTORE SWAP1 PUSH1 0x1 ADD SWAP1 PUSH1 0x20 ADD DUP1 DUP4 GT PUSH2 0x52B JUMPI DUP3 SWAP1 SUB PUSH1 0x1F AND DUP3 ADD SWAP2 JUMPDEST POP POP POP POP POP DUP2 MSTORE PUSH1 0x20 ADD PUSH1 0x4 DUP3 ADD DUP1 SLOAD DUP1 PUSH1 0x20 MUL PUSH1 0x20 ADD PUSH1 0x40 MLOAD SWAP1 DUP2 ADD PUSH1 0x40 MSTORE DUP1 SWAP3 SWAP2 SWAP1 DUP2 DUP2 MSTORE PUSH1 0x20 ADD PUSH1 0x0 SWAP1 JUMPDEST DUP3 DUP3 LT ISZERO PUSH2 0x622 JUMPI DUP4 DUP3 SWAP1 PUSH1 0x0 MSTORE PUSH1 0x20 PUSH1 0x0 KECCAK256 ADD DUP1 SLOAD PUSH2 0x595 SWAP1 PUSH2 0x1982 JUMP JUMPDEST DUP1 PUSH1 0x1F ADD PUSH1 0x20 DUP1 SWAP2 DIV MUL PUSH1 0x20 ADD PUSH1 0x40 MLOAD SWAP1 DUP2 ADD PUSH1 0x40 MSTORE DUP1 SWAP3 SWAP2 SWAP1 DUP2 DUP2 MSTORE PUSH1 0x20 ADD DUP3 DUP1 SLOAD PUSH2 0x5C1 SWAP1 PUSH2 0x1982 JUMP JUMPDEST DUP1 ISZERO PUSH2 0x60E JUMPI DUP1 PUSH1 0x1F LT PUSH2 0x5E3 JUMPI PUSH2 0x100 DUP1 DUP4 SLOAD DIV MUL DUP4 MSTORE SWAP2 PUSH1 0x20 ADD SWAP2 PUSH2 0x60E JUMP JUMPDEST DUP3 ADD SWAP2 SWAP1 PUSH1 0x0 MSTORE PUSH1 0x20 PUSH1 0x0 KECCAK256 SWAP1 JUMPDEST DUP2 SLOAD DUP2 MSTORE SWAP1 PUSH1 0x1 ADD SWAP1 PUSH1 0x20 ADD DUP1 DUP4 GT PUSH2 0x5F1 JUMPI DUP3 SWAP1 SUB PUSH1 0x1F AND DUP3 ADD SWAP2 JUMPDEST POP POP POP POP POP DUP2 MSTORE PUSH1 0x20 ADD SWAP1 PUSH1 0x1 ADD SWAP1 PUSH2 0x576 JUMP JUMPDEST POP POP POP POP DUP2 MSTORE POP POP DUP2 MSTORE PUSH1 0x20 ADD SWAP1 PUSH1 0x1 ADD SWAP1 PUSH2 0x36E JUMP JUMPDEST POP POP POP POP SWAP1 POP SWAP1 JUMP JUMPDEST PUSH1 0x60 PUSH1 0x4 DUP3 DUP2 SLOAD DUP2 LT PUSH2 0x658 JUMPI PUSH2 0x657 PUSH2 0x1C31 JUMP JUMPDEST JUMPDEST SWAP1 PUSH1 0x0 MSTORE PUSH1 0x20 PUSH1 0x0 KECCAK256 SWAP1 PUSH1 0x2 MUL ADD PUSH1 0x1 ADD DUP1 SLOAD PUSH2 0x674 SWAP1 PUSH2 0x1982 JUMP JUMPDEST DUP1 PUSH1 0x1F ADD PUSH1 0x20 DUP1 SWAP2 DIV MUL PUSH1 0x20 ADD PUSH1 0x40 MLOAD SWAP1 DUP2 ADD PUSH1 0x40 MSTORE DUP1 SWAP3 SWAP2 SWAP1 DUP2 DUP2 MSTORE PUSH1 0x20 ADD DUP3 DUP1 SLOAD PUSH2 0x6A0 SWAP1 PUSH2 0x1982 JUMP JUMPDEST DUP1 ISZERO PUSH2 0x6ED JUMPI DUP1 PUSH1 0x1F LT PUSH2 0x6C2 JUMPI PUSH2 0x100 DUP1 DUP4 SLOAD DIV MUL DUP4 MSTORE SWAP2 PUSH1 0x20 ADD SWAP2 PUSH2 0x6ED JUMP JUMPDEST DUP3 ADD SWAP2 SWAP1 PUSH1 0x0 MSTORE PUSH1 0x20 PUSH1 0x0 KECCAK256 SWAP1 JUMPDEST DUP2 SLOAD DUP2 MSTORE SWAP1 PUSH1 0x1 ADD SWAP1 PUSH1 0x20 ADD DUP1 DUP4 GT PUSH2 0x6D0 JUMPI DUP3 SWAP1 SUB PUSH1 0x1F AND DUP3 ADD SWAP2 JUMPDEST POP POP POP POP POP SWAP1 POP SWAP2 SWAP1 POP JUMP JUMPDEST PUSH1 0x60 PUSH1 0x4 DUP1 SLOAD DUP1 PUSH1 0x20 MUL PUSH1 0x20 ADD PUSH1 0x40 MLOAD SWAP1 DUP2 ADD PUSH1 0x40 MSTORE DUP1 SWAP3 SWAP2 SWAP1 DUP2 DUP2 MSTORE PUSH1 0x20 ADD PUSH1 0x0 SWAP1 JUMPDEST DUP3 DUP3 LT ISZERO PUSH2 0x7EB JUMPI DUP4 DUP3 SWAP1 PUSH1 0x0 MSTORE PUSH1 0x20 PUSH1 0x0 KECCAK256 SWAP1 PUSH1 0x2 MUL ADD PUSH1 0x40 MLOAD DUP1 PUSH1 0x40 ADD PUSH1 0x40 MSTORE SWAP1 DUP2 PUSH1 0x0 DUP3 ADD SLOAD DUP2 MSTORE PUSH1 0x20 ADD PUSH1 0x1 DUP3 ADD DUP1 SLOAD PUSH2 0x75A SWAP1 PUSH2 0x1982 JUMP JUMPDEST DUP1 PUSH1 0x1F ADD PUSH1 0x20 DUP1 SWAP2 DIV MUL PUSH1 0x20 ADD PUSH1 0x40 MLOAD SWAP1 DUP2 ADD PUSH1 0x40 MSTORE DUP1 SWAP3 SWAP2 SWAP1 DUP2 DUP2 MSTORE PUSH1 0x20 ADD DUP3 DUP1 SLOAD PUSH2 0x786 SWAP1 PUSH2 0x1982 JUMP JUMPDEST DUP1 ISZERO PUSH2 0x7D3 JUMPI DUP1 PUSH1 0x1F LT PUSH2 0x7A8 JUMPI PUSH2 0x100 DUP1 DUP4 SLOAD DIV MUL DUP4 MSTORE SWAP2 PUSH1 0x20 ADD SWAP2 PUSH2 0x7D3 JUMP JUMPDEST DUP3 ADD SWAP2 SWAP1 PUSH1 0x0 MSTORE PUSH1 0x20 PUSH1 0x0 KECCAK256 SWAP1 JUMPDEST DUP2 SLOAD DUP2 MSTORE SWAP1 PUSH1 0x1 ADD SWAP1 PUSH1 0x20 ADD DUP1 DUP4 GT PUSH2 0x7B6 JUMPI DUP3 SWAP1 SUB PUSH1 0x1F AND DUP3 ADD SWAP2 JUMPDEST POP POP POP POP POP DUP2 MSTORE POP POP DUP2 MSTORE PUSH1 0x20 ADD SWAP1 PUSH1 0x1 ADD SWAP1 PUSH2 0x71D JUMP JUMPDEST POP POP POP POP SWAP1 POP SWAP1 JUMP JUMPDEST PUSH1 0x0 PUSH1 0x40 MLOAD DUP1 PUSH1 0xA0 ADD PUSH1 0x40 MSTORE DUP1 PUSH1 0x0 SLOAD DUP2 MSTORE PUSH1 0x20 ADD DUP7 DUP2 MSTORE PUSH1 0x20 ADD DUP6 DUP2 MSTORE PUSH1 0x20 ADD DUP4 DUP2 MSTORE PUSH1 0x20 ADD DUP5 DUP2 MSTORE POP SWAP1 POP PUSH1 0x0 DUP1 DUP2 SLOAD DUP1 SWAP3 SWAP2 SWAP1 PUSH2 0x833 SWAP1 PUSH2 0x1C8F JUMP JUMPDEST SWAP2 SWAP1 POP SSTORE POP PUSH1 0x3 DUP2 SWAP1 DUP1 PUSH1 0x1 DUP2 SLOAD ADD DUP1 DUP3 SSTORE DUP1 SWAP2 POP POP PUSH1 0x1 SWAP1 SUB SWAP1 PUSH1 0x0 MSTORE PUSH1 0x20 PUSH1 0x0 KECCAK256 SWAP1 PUSH1 0x5 MUL ADD PUSH1 0x0 SWAP1 SWAP2 SWAP1 SWAP2 SWAP1 SWAP2 POP PUSH1 0x0 DUP3 ADD MLOAD DUP2 PUSH1 0x0 ADD SSTORE PUSH1 0x20 DUP3 ADD MLOAD DUP2 PUSH1 0x1 ADD SWAP1 DUP2 PUSH2 0x883 SWAP2 SWAP1 PUSH2 0x1B5F JUMP JUMPDEST POP PUSH1 0x40 DUP3 ADD MLOAD DUP2 PUSH1 0x2 ADD SWAP1 DUP2 PUSH2 0x899 SWAP2 SWAP1 PUSH2 0x1B5F JUMP JUMPDEST POP PUSH1 0x60 DUP3 ADD MLOAD DUP2 PUSH1 0x3 ADD SWAP1 DUP2 PUSH2 0x8AF SWAP2 SWAP1 PUSH2 0x1B5F JUMP JUMPDEST POP PUSH1 0x80 DUP3 ADD MLOAD DUP2 PUSH1 0x4 ADD SWAP1 DUP1 MLOAD SWAP1 PUSH1 0x20 ADD SWAP1 PUSH2 0x8CC SWAP3 SWAP2 SWAP1 PUSH2 0xDFA JUMP JUMPDEST POP POP POP POP POP POP POP POP JUMP JUMPDEST PUSH1 0x2 DUP2 DUP2 SLOAD DUP2 LT PUSH2 0x8E6 JUMPI PUSH1 0x0 DUP1 REVERT JUMPDEST SWAP1 PUSH1 0x0 MSTORE PUSH1 0x20 PUSH1 0x0 KECCAK256 SWAP1 PUSH1 0x2 MUL ADD PUSH1 0x0 SWAP2 POP SWAP1 POP DUP1 PUSH1 0x0 ADD DUP1 SLOAD PUSH2 0x909 SWAP1 PUSH2 0x1982 JUMP JUMPDEST DUP1 PUSH1 0x1F ADD PUSH1 0x20 DUP1 SWAP2 DIV MUL PUSH1 0x20 ADD PUSH1 0x40 MLOAD SWAP1 DUP2 ADD PUSH1 0x40 MSTORE DUP1 SWAP3 SWAP2 SWAP1 DUP2 DUP2 MSTORE PUSH1 0x20 ADD DUP3 DUP1 SLOAD PUSH2 0x935 SWAP1 PUSH2 0x1982 JUMP JUMPDEST DUP1 ISZERO PUSH2 0x982 JUMPI DUP1 PUSH1 0x1F LT PUSH2 0x957 JUMPI PUSH2 0x100 DUP1 DUP4 SLOAD DIV MUL DUP4 MSTORE SWAP2 PUSH1 0x20 ADD SWAP2 PUSH2 0x982 JUMP JUMPDEST DUP3 ADD SWAP2 SWAP1 PUSH1 0x0 MSTORE PUSH1 0x20 PUSH1 0x0 KECCAK256 SWAP1 JUMPDEST DUP2 SLOAD DUP2 MSTORE SWAP1 PUSH1 0x1 ADD SWAP1 PUSH1 0x20 ADD DUP1 DUP4 GT PUSH2 0x965 JUMPI DUP3 SWAP1 SUB PUSH1 0x1F AND DUP3 ADD SWAP2 JUMPDEST POP POP POP POP POP SWAP1 DUP1 PUSH1 0x1 ADD DUP1 SLOAD PUSH2 0x997 SWAP1 PUSH2 0x1982 JUMP JUMPDEST DUP1 PUSH1 0x1F ADD PUSH1 0x20 DUP1 SWAP2 DIV MUL PUSH1 0x20 ADD PUSH1 0x40 MLOAD SWAP1 DUP2 ADD PUSH1 0x40 MSTORE DUP1 SWAP3 SWAP2 SWAP1 DUP2 DUP2 MSTORE PUSH1 0x20 ADD DUP3 DUP1 SLOAD PUSH2 0x9C3 SWAP1 PUSH2 0x1982 JUMP JUMPDEST DUP1 ISZERO PUSH2 0xA10 JUMPI DUP1 PUSH1 0x1F LT PUSH2 0x9E5 JUMPI PUSH2 0x100 DUP1 DUP4 SLOAD DIV MUL DUP4 MSTORE SWAP2 PUSH1 0x20 ADD SWAP2 PUSH2 0xA10 JUMP JUMPDEST DUP3 ADD SWAP2 SWAP1 PUSH1 0x0 MSTORE PUSH1 0x20 PUSH1 0x0 KECCAK256 SWAP1 JUMPDEST DUP2 SLOAD DUP2 MSTORE SWAP1 PUSH1 0x1 ADD SWAP1 PUSH1 0x20 ADD DUP1 DUP4 GT PUSH2 0x9F3 JUMPI DUP3 SWAP1 SUB PUSH1 0x1F AND DUP3 ADD SWAP2 JUMPDEST POP POP POP POP POP SWAP1 POP DUP3 JUMP JUMPDEST PUSH1 0x3 DUP2 DUP2 SLOAD DUP2 LT PUSH2 0xA2A JUMPI PUSH1 0x0 DUP1 REVERT JUMPDEST SWAP1 PUSH1 0x0 MSTORE PUSH1 0x20 PUSH1 0x0 KECCAK256 SWAP1 PUSH1 0x5 MUL ADD PUSH1 0x0 SWAP2 POP SWAP1 POP DUP1 PUSH1 0x0 ADD SLOAD SWAP1 DUP1 PUSH1 0x1 ADD DUP1 SLOAD PUSH2 0xA53 SWAP1 PUSH2 0x1982 JUMP JUMPDEST DUP1 PUSH1 0x1F ADD PUSH1 0x20 DUP1 SWAP2 DIV MUL PUSH1 0x20 ADD PUSH1 0x40 MLOAD SWAP1 DUP2 ADD PUSH1 0x40 MSTORE DUP1 SWAP3 SWAP2 SWAP1 DUP2 DUP2 MSTORE PUSH1 0x20 ADD DUP3 DUP1 SLOAD PUSH2 0xA7F SWAP1 PUSH2 0x1982 JUMP JUMPDEST DUP1 ISZERO PUSH2 0xACC JUMPI DUP1 PUSH1 0x1F LT PUSH2 0xAA1 JUMPI PUSH2 0x100 DUP1 DUP4 SLOAD DIV MUL DUP4 MSTORE SWAP2 PUSH1 0x20 ADD SWAP2 PUSH2 0xACC JUMP JUMPDEST DUP3 ADD SWAP2 SWAP1 PUSH1 0x0 MSTORE PUSH1 0x20 PUSH1 0x0 KECCAK256 SWAP1 JUMPDEST DUP2 SLOAD DUP2 MSTORE SWAP1 PUSH1 0x1 ADD SWAP1 PUSH1 0x20 ADD DUP1 DUP4 GT PUSH2 0xAAF JUMPI DUP3 SWAP1 SUB PUSH1 0x1F AND DUP3 ADD SWAP2 JUMPDEST POP POP POP POP POP SWAP1 DUP1 PUSH1 0x2 ADD DUP1 SLOAD PUSH2 0xAE1 SWAP1 PUSH2 0x1982 JUMP JUMPDEST DUP1 PUSH1 0x1F ADD PUSH1 0x20 DUP1 SWAP2 DIV MUL PUSH1 0x20 ADD PUSH1 0x40 MLOAD SWAP1 DUP2 ADD PUSH1 0x40 MSTORE DUP1 SWAP3 SWAP2 SWAP1 DUP2 DUP2 MSTORE PUSH1 0x20 ADD DUP3 DUP1 SLOAD PUSH2 0xB0D SWAP1 PUSH2 0x1982 JUMP JUMPDEST DUP1 ISZERO PUSH2 0xB5A JUMPI DUP1 PUSH1 0x1F LT PUSH2 0xB2F JUMPI PUSH2 0x100 DUP1 DUP4 SLOAD DIV MUL DUP4 MSTORE SWAP2 PUSH1 0x20 ADD SWAP2 PUSH2 0xB5A JUMP JUMPDEST DUP3 ADD SWAP2 SWAP1 PUSH1 0x0 MSTORE PUSH1 0x20 PUSH1 0x0 KECCAK256 SWAP1 JUMPDEST DUP2 SLOAD DUP2 MSTORE SWAP1 PUSH1 0x1 ADD SWAP1 PUSH1 0x20 ADD DUP1 DUP4 GT PUSH2 0xB3D JUMPI DUP3 SWAP1 SUB PUSH1 0x1F AND DUP3 ADD SWAP2 JUMPDEST POP POP POP POP POP SWAP1 DUP1 PUSH1 0x3 ADD DUP1 SLOAD PUSH2 0xB6F SWAP1 PUSH2 0x1982 JUMP JUMPDEST DUP1 PUSH1 0x1F ADD PUSH1 0x20 DUP1 SWAP2 DIV MUL PUSH1 0x20 ADD PUSH1 0x40 MLOAD SWAP1 DUP2 ADD PUSH1 0x40 MSTORE DUP1 SWAP3 SWAP2 SWAP1 DUP2 DUP2 MSTORE PUSH1 0x20 ADD DUP3 DUP1 SLOAD PUSH2 0xB9B SWAP1 PUSH2 0x1982 JUMP JUMPDEST DUP1 ISZERO PUSH2 0xBE8 JUMPI DUP1 PUSH1 0x1F LT PUSH2 0xBBD JUMPI PUSH2 0x100 DUP1 DUP4 SLOAD DIV MUL DUP4 MSTORE SWAP2 PUSH1 0x20 ADD SWAP2 PUSH2 0xBE8 JUMP JUMPDEST DUP3 ADD SWAP2 SWAP1 PUSH1 0x0 MSTORE PUSH1 0x20 PUSH1 0x0 KECCAK256 SWAP1 JUMPDEST DUP2 SLOAD DUP2 MSTORE SWAP1 PUSH1 0x1 ADD SWAP1 PUSH1 0x20 ADD DUP1 DUP4 GT PUSH2 0xBCB JUMPI DUP3 SWAP1 SUB PUSH1 0x1F AND DUP3 ADD SWAP2 JUMPDEST POP POP POP POP POP SWAP1 POP DUP5 JUMP JUMPDEST PUSH1 0x0 PUSH1 0x40 MLOAD DUP1 PUSH1 0x40 ADD PUSH1 0x40 MSTORE DUP1 PUSH1 0x1 SLOAD DUP2 MSTORE PUSH1 0x20 ADD DUP4 DUP2 MSTORE POP SWAP1 POP PUSH1 0x1 PUSH1 0x0 DUP2 SLOAD DUP1 SWAP3 SWAP2 SWAP1 PUSH2 0xC20 SWAP1 PUSH2 0x1C8F JUMP JUMPDEST SWAP2 SWAP1 POP SSTORE POP PUSH1 0x4 DUP2 SWAP1 DUP1 PUSH1 0x1 DUP2 SLOAD ADD DUP1 DUP3 SSTORE DUP1 SWAP2 POP POP PUSH1 0x1 SWAP1 SUB SWAP1 PUSH1 0x0 MSTORE PUSH1 0x20 PUSH1 0x0 KECCAK256 SWAP1 PUSH1 0x2 MUL ADD PUSH1 0x0 SWAP1 SWAP2 SWAP1 SWAP2 SWAP1 SWAP2 POP PUSH1 0x0 DUP3 ADD MLOAD DUP2 PUSH1 0x0 ADD SSTORE PUSH1 0x20 DUP3 ADD MLOAD DUP2 PUSH1 0x1 ADD SWAP1 DUP2 PUSH2 0xC70 SWAP2 SWAP1 PUSH2 0x1B5F JUMP JUMPDEST POP POP POP POP POP JUMP JUMPDEST PUSH1 0x60 PUSH1 0x2 DUP1 SLOAD DUP1 PUSH1 0x20 MUL PUSH1 0x20 ADD PUSH1 0x40 MLOAD SWAP1 DUP2 ADD PUSH1 0x40 MSTORE DUP1 SWAP3 SWAP2 SWAP1 DUP2 DUP2 MSTORE PUSH1 0x20 ADD PUSH1 0x0 SWAP1 JUMPDEST DUP3 DUP3 LT ISZERO PUSH2 0xDF1 JUMPI DUP4 DUP3 SWAP1 PUSH1 0x0 MSTORE PUSH1 0x20 PUSH1 0x0 KECCAK256 SWAP1 PUSH1 0x2 MUL ADD PUSH1 0x40 MLOAD DUP1 PUSH1 0x40 ADD PUSH1 0x40 MSTORE SWAP1 DUP2 PUSH1 0x0 DUP3 ADD DUP1 SLOAD PUSH2 0xCCE SWAP1 PUSH2 0x1982 JUMP JUMPDEST DUP1 PUSH1 0x1F ADD PUSH1 0x20 DUP1 SWAP2 DIV MUL PUSH1 0x20 ADD PUSH1 0x40 MLOAD SWAP1 DUP2 ADD PUSH1 0x40 MSTORE DUP1 SWAP3 SWAP2 SWAP1 DUP2 DUP2 MSTORE PUSH1 0x20 ADD DUP3 DUP1 SLOAD PUSH2 0xCFA SWAP1 PUSH2 0x1982 JUMP JUMPDEST DUP1 ISZERO PUSH2 0xD47 JUMPI DUP1 PUSH1 0x1F LT PUSH2 0xD1C JUMPI PUSH2 0x100 DUP1 DUP4 SLOAD DIV MUL DUP4 MSTORE SWAP2 PUSH1 0x20 ADD SWAP2 PUSH2 0xD47 JUMP JUMPDEST DUP3 ADD SWAP2 SWAP1 PUSH1 0x0 MSTORE PUSH1 0x20 PUSH1 0x0 KECCAK256 SWAP1 JUMPDEST DUP2 SLOAD DUP2 MSTORE SWAP1 PUSH1 0x1 ADD SWAP1 PUSH1 0x20 ADD DUP1 DUP4 GT PUSH2 0xD2A JUMPI DUP3 SWAP1 SUB PUSH1 0x1F AND DUP3 ADD SWAP2 JUMPDEST POP POP POP POP POP DUP2 MSTORE PUSH1 0x20 ADD PUSH1 0x1 DUP3 ADD DUP1 SLOAD PUSH2 0xD60 SWAP1 PUSH2 0x1982 JUMP JUMPDEST DUP1 PUSH1 0x1F ADD PUSH1 0x20 DUP1 SWAP2 DIV MUL PUSH1 0x20 ADD PUSH1 0x40 MLOAD SWAP1 DUP2 ADD PUSH1 0x40 MSTORE DUP1 SWAP3 SWAP2 SWAP1 DUP2 DUP2 MSTORE PUSH1 0x20 ADD DUP3 DUP1 SLOAD PUSH2 0xD8C SWAP1 PUSH2 0x1982 JUMP JUMPDEST DUP1 ISZERO PUSH2 0xDD9 JUMPI DUP1 PUSH1 0x1F LT PUSH2 0xDAE JUMPI PUSH2 0x100 DUP1 DUP4 SLOAD DIV MUL DUP4 MSTORE SWAP2 PUSH1 0x20 ADD SWAP2 PUSH2 0xDD9 JUMP JUMPDEST DUP3 ADD SWAP2 SWAP1 PUSH1 0x0 MSTORE PUSH1 0x20 PUSH1 0x0 KECCAK256 SWAP1 JUMPDEST DUP2 SLOAD DUP2 MSTORE SWAP1 PUSH1 0x1 ADD SWAP1 PUSH1 0x20 ADD DUP1 DUP4 GT PUSH2 0xDBC JUMPI DUP3 SWAP1 SUB PUSH1 0x1F AND DUP3 ADD SWAP2 JUMPDEST POP POP POP POP POP DUP2 MSTORE POP POP DUP2 MSTORE PUSH1 0x20 ADD SWAP1 PUSH1 0x1 ADD SWAP1 PUSH2 0xC9B JUMP JUMPDEST POP POP POP POP SWAP1 POP SWAP1 JUMP JUMPDEST DUP3 DUP1 SLOAD DUP3 DUP3 SSTORE SWAP1 PUSH1 0x0 MSTORE PUSH1 0x20 PUSH1 0x0 KECCAK256 SWAP1 DUP2 ADD SWAP3 DUP3 ISZERO PUSH2 0xE42 JUMPI SWAP2 PUSH1 0x20 MUL DUP3 ADD JUMPDEST DUP3 DUP2 GT ISZERO PUSH2 0xE41 JUMPI DUP3 MLOAD DUP3 SWAP1 DUP2 PUSH2 0xE31 SWAP2 SWAP1 PUSH2 0x1B5F JUMP JUMPDEST POP SWAP2 PUSH1 0x20 ADD SWAP2 SWAP1 PUSH1 0x1 ADD SWAP1 PUSH2 0xE1A JUMP JUMPDEST JUMPDEST POP SWAP1 POP PUSH2 0xE4F SWAP2 SWAP1 PUSH2 0xE53 JUMP JUMPDEST POP SWAP1 JUMP JUMPDEST JUMPDEST DUP1 DUP3 GT ISZERO PUSH2 0xE73 JUMPI PUSH1 0x0 DUP2 DUP2 PUSH2 0xE6A SWAP2 SWAP1 PUSH2 0xE77 JUMP JUMPDEST POP PUSH1 0x1 ADD PUSH2 0xE54 JUMP JUMPDEST POP SWAP1 JUMP JUMPDEST POP DUP1 SLOAD PUSH2 0xE83 SWAP1 PUSH2 0x1982 JUMP JUMPDEST PUSH1 0x0 DUP3 SSTORE DUP1 PUSH1 0x1F LT PUSH2 0xE95 JUMPI POP PUSH2 0xEB4 JUMP JUMPDEST PUSH1 0x1F ADD PUSH1 0x20 SWAP1 DIV SWAP1 PUSH1 0x0 MSTORE PUSH1 0x20 PUSH1 0x0 KECCAK256 SWAP1 DUP2 ADD SWAP1 PUSH2 0xEB3 SWAP2 SWAP1 PUSH2 0xEB7 JUMP JUMPDEST JUMPDEST POP JUMP JUMPDEST JUMPDEST DUP1 DUP3 GT ISZERO PUSH2 0xED0 JUMPI PUSH1 0x0 DUP2 PUSH1 0x0 SWAP1 SSTORE POP PUSH1 0x1 ADD PUSH2 0xEB8 JUMP JUMPDEST POP SWAP1 JUMP JUMPDEST PUSH1 0x0 PUSH1 0x40 MLOAD SWAP1 POP SWAP1 JUMP JUMPDEST PUSH1 0x0 DUP1 REVERT JUMPDEST PUSH1 0x0 DUP1 REVERT JUMPDEST PUSH1 0x0 DUP2 SWAP1 POP SWAP2 SWAP1 POP JUMP JUMPDEST PUSH2 0xEFB DUP2 PUSH2 0xEE8 JUMP JUMPDEST DUP2 EQ PUSH2 0xF06 JUMPI PUSH1 0x0 DUP1 REVERT JUMPDEST POP JUMP JUMPDEST PUSH1 0x0 DUP2 CALLDATALOAD SWAP1 POP PUSH2 0xF18 DUP2 PUSH2 0xEF2 JUMP JUMPDEST SWAP3 SWAP2 POP POP JUMP JUMPDEST PUSH1 0x0 PUSH1 0x20 DUP3 DUP5 SUB SLT ISZERO PUSH2 0xF34 JUMPI PUSH2 0xF33 PUSH2 0xEDE JUMP JUMPDEST JUMPDEST PUSH1 0x0 PUSH2 0xF42 DUP5 DUP3 DUP6 ADD PUSH2 0xF09 JUMP JUMPDEST SWAP2 POP POP SWAP3 SWAP2 POP POP JUMP JUMPDEST PUSH2 0xF54 DUP2 PUSH2 0xEE8 JUMP JUMPDEST DUP3 MSTORE POP POP JUMP JUMPDEST PUSH1 0x0 DUP2 MLOAD SWAP1 POP SWAP2 SWAP1 POP JUMP JUMPDEST PUSH1 0x0 DUP3 DUP3 MSTORE PUSH1 0x20 DUP3 ADD SWAP1 POP SWAP3 SWAP2 POP POP JUMP JUMPDEST PUSH1 0x0 JUMPDEST DUP4 DUP2 LT ISZERO PUSH2 0xF94 JUMPI DUP1 DUP3 ADD MLOAD DUP2 DUP5 ADD MSTORE PUSH1 0x20 DUP2 ADD SWAP1 POP PUSH2 0xF79 JUMP JUMPDEST PUSH1 0x0 DUP5 DUP5 ADD MSTORE POP POP POP POP JUMP JUMPDEST PUSH1 0x0 PUSH1 0x1F NOT PUSH1 0x1F DUP4 ADD AND SWAP1 POP SWAP2 SWAP1 POP JUMP JUMPDEST PUSH1 0x0 PUSH2 0xFBC DUP3 PUSH2 0xF5A JUMP JUMPDEST PUSH2 0xFC6 DUP2 DUP6 PUSH2 0xF65 JUMP JUMPDEST SWAP4 POP PUSH2 0xFD6 DUP2 DUP6 PUSH1 0x20 DUP7 ADD PUSH2 0xF76 JUMP JUMPDEST PUSH2 0xFDF DUP2 PUSH2 0xFA0 JUMP JUMPDEST DUP5 ADD SWAP2 POP POP SWAP3 SWAP2 POP POP JUMP JUMPDEST PUSH1 0x0 PUSH1 0x40 DUP3 ADD SWAP1 POP PUSH2 0xFFF PUSH1 0x0 DUP4 ADD DUP6 PUSH2 0xF4B JUMP JUMPDEST DUP2 DUP2 SUB PUSH1 0x20 DUP4 ADD MSTORE PUSH2 0x1011 DUP2 DUP5 PUSH2 0xFB1 JUMP JUMPDEST SWAP1 POP SWAP4 SWAP3 POP POP POP JUMP JUMPDEST PUSH1 0x0 DUP1 REVERT JUMPDEST PUSH1 0x0 DUP1 REVERT JUMPDEST PUSH32 0x4E487B7100000000000000000000000000000000000000000000000000000000 PUSH1 0x0 MSTORE PUSH1 0x41 PUSH1 0x4 MSTORE PUSH1 0x24 PUSH1 0x0 REVERT JUMPDEST PUSH2 0x105C DUP3 PUSH2 0xFA0 JUMP JUMPDEST DUP2 ADD DUP2 DUP2 LT PUSH8 0xFFFFFFFFFFFFFFFF DUP3 GT OR ISZERO PUSH2 0x107B JUMPI PUSH2 0x107A PUSH2 0x1024 JUMP JUMPDEST JUMPDEST DUP1 PUSH1 0x40 MSTORE POP POP POP JUMP JUMPDEST PUSH1 0x0 PUSH2 0x108E PUSH2 0xED4 JUMP JUMPDEST SWAP1 POP PUSH2 0x109A DUP3 DUP3 PUSH2 0x1053 JUMP JUMPDEST SWAP2 SWAP1 POP JUMP JUMPDEST PUSH1 0x0 PUSH8 0xFFFFFFFFFFFFFFFF DUP3 GT ISZERO PUSH2 0x10BA JUMPI PUSH2 0x10B9 PUSH2 0x1024 JUMP JUMPDEST JUMPDEST PUSH2 0x10C3 DUP3 PUSH2 0xFA0 JUMP JUMPDEST SWAP1 POP PUSH1 0x20 DUP2 ADD SWAP1 POP SWAP2 SWAP1 POP JUMP JUMPDEST DUP3 DUP2 DUP4 CALLDATACOPY PUSH1 0x0 DUP4 DUP4 ADD MSTORE POP POP POP JUMP JUMPDEST PUSH1 0x0 PUSH2 0x10F2 PUSH2 0x10ED DUP5 PUSH2 0x109F JUMP JUMPDEST PUSH2 0x1084 JUMP JUMPDEST SWAP1 POP DUP3 DUP2 MSTORE PUSH1 0x20 DUP2 ADD DUP5 DUP5 DUP5 ADD GT ISZERO PUSH2 0x110E JUMPI PUSH2 0x110D PUSH2 0x101F JUMP JUMPDEST JUMPDEST PUSH2 0x1119 DUP5 DUP3 DUP6 PUSH2 0x10D0 JUMP JUMPDEST POP SWAP4 SWAP3 POP POP POP JUMP JUMPDEST PUSH1 0x0 DUP3 PUSH1 0x1F DUP4 ADD SLT PUSH2 0x1136 JUMPI PUSH2 0x1135 PUSH2 0x101A JUMP JUMPDEST JUMPDEST DUP2 CALLDATALOAD PUSH2 0x1146 DUP5 DUP3 PUSH1 0x20 DUP7 ADD PUSH2 0x10DF JUMP JUMPDEST SWAP2 POP POP SWAP3 SWAP2 POP POP JUMP JUMPDEST PUSH1 0x0 DUP1 PUSH1 0x40 DUP4 DUP6 SUB SLT ISZERO PUSH2 0x1166 JUMPI PUSH2 0x1165 PUSH2 0xEDE JUMP JUMPDEST JUMPDEST PUSH1 0x0 DUP4 ADD CALLDATALOAD PUSH8 0xFFFFFFFFFFFFFFFF DUP2 GT ISZERO PUSH2 0x1184 JUMPI PUSH2 0x1183 PUSH2 0xEE3 JUMP JUMPDEST JUMPDEST PUSH2 0x1190 DUP6 DUP3 DUP7 ADD PUSH2 0x1121 JUMP JUMPDEST SWAP3 POP POP PUSH1 0x20 DUP4 ADD CALLDATALOAD PUSH8 0xFFFFFFFFFFFFFFFF DUP2 GT ISZERO PUSH2 0x11B1 JUMPI PUSH2 0x11B0 PUSH2 0xEE3 JUMP JUMPDEST JUMPDEST PUSH2 0x11BD DUP6 DUP3 DUP7 ADD PUSH2 0x1121 JUMP JUMPDEST SWAP2 POP POP SWAP3 POP SWAP3 SWAP1 POP JUMP JUMPDEST PUSH1 0x0 DUP2 MLOAD SWAP1 POP SWAP2 SWAP1 POP JUMP JUMPDEST PUSH1 0x0 DUP3 DUP3 MSTORE PUSH1 0x20 DUP3 ADD SWAP1 POP SWAP3 SWAP2 POP POP JUMP JUMPDEST PUSH1 0x0 DUP2 SWAP1 POP PUSH1 0x20 DUP3 ADD SWAP1 POP SWAP2 SWAP1 POP JUMP JUMPDEST PUSH2 0x11FC DUP2 PUSH2 0xEE8 JUMP JUMPDEST DUP3 MSTORE POP POP JUMP JUMPDEST PUSH1 0x0 DUP3 DUP3 MSTORE PUSH1 0x20 DUP3 ADD SWAP1 POP SWAP3 SWAP2 POP POP JUMP JUMPDEST PUSH1 0x0 PUSH2 0x121E DUP3 PUSH2 0xF5A JUMP JUMPDEST PUSH2 0x1228 DUP2 DUP6 PUSH2 0x1202 JUMP JUMPDEST SWAP4 POP PUSH2 0x1238 DUP2 DUP6 PUSH1 0x20 DUP7 ADD PUSH2 0xF76 JUMP JUMPDEST PUSH2 0x1241 DUP2 PUSH2 0xFA0 JUMP JUMPDEST DUP5 ADD SWAP2 POP POP SWAP3 SWAP2 POP POP JUMP JUMPDEST PUSH1 0x0 DUP2 MLOAD SWAP1 POP SWAP2 SWAP1 POP JUMP JUMPDEST PUSH1 0x0 DUP3 DUP3 MSTORE PUSH1 0x20 DUP3 ADD SWAP1 POP SWAP3 SWAP2 POP POP JUMP JUMPDEST PUSH1 0x0 DUP2 SWAP1 POP PUSH1 0x20 DUP3 ADD SWAP1 POP SWAP2 SWAP1 POP JUMP JUMPDEST PUSH1 0x0 PUSH2 0x1284 DUP4 DUP4 PUSH2 0x1213 JUMP JUMPDEST SWAP1 POP SWAP3 SWAP2 POP POP JUMP JUMPDEST PUSH1 0x0 PUSH1 0x20 DUP3 ADD SWAP1 POP SWAP2 SWAP1 POP JUMP JUMPDEST PUSH1 0x0 PUSH2 0x12A4 DUP3 PUSH2 0x124C JUMP JUMPDEST PUSH2 0x12AE DUP2 DUP6 PUSH2 0x1257 JUMP JUMPDEST SWAP4 POP DUP4 PUSH1 0x20 DUP3 MUL DUP6 ADD PUSH2 0x12C0 DUP6 PUSH2 0x1268 JUMP JUMPDEST DUP1 PUSH1 0x0 JUMPDEST DUP6 DUP2 LT ISZERO PUSH2 0x12FC JUMPI DUP5 DUP5 SUB DUP10 MSTORE DUP2 MLOAD PUSH2 0x12DD DUP6 DUP3 PUSH2 0x1278 JUMP JUMPDEST SWAP5 POP PUSH2 0x12E8 DUP4 PUSH2 0x128C JUMP JUMPDEST SWAP3 POP PUSH1 0x20 DUP11 ADD SWAP10 POP POP PUSH1 0x1 DUP2 ADD SWAP1 POP PUSH2 0x12C4 JUMP JUMPDEST POP DUP3 SWAP8 POP DUP8 SWAP6 POP POP POP POP POP POP SWAP3 SWAP2 POP POP JUMP JUMPDEST PUSH1 0x0 PUSH1 0xA0 DUP4 ADD PUSH1 0x0 DUP4 ADD MLOAD PUSH2 0x1326 PUSH1 0x0 DUP7 ADD DUP3 PUSH2 0x11F3 JUMP JUMPDEST POP PUSH1 0x20 DUP4 ADD MLOAD DUP5 DUP3 SUB PUSH1 0x20 DUP7 ADD MSTORE PUSH2 0x133E DUP3 DUP3 PUSH2 0x1213 JUMP JUMPDEST SWAP2 POP POP PUSH1 0x40 DUP4 ADD MLOAD DUP5 DUP3 SUB PUSH1 0x40 DUP7 ADD MSTORE PUSH2 0x1358 DUP3 DUP3 PUSH2 0x1213 JUMP JUMPDEST SWAP2 POP POP PUSH1 0x60 DUP4 ADD MLOAD DUP5 DUP3 SUB PUSH1 0x60 DUP7 ADD MSTORE PUSH2 0x1372 DUP3 DUP3 PUSH2 0x1213 JUMP JUMPDEST SWAP2 POP POP PUSH1 0x80 DUP4 ADD MLOAD DUP5 DUP3 SUB PUSH1 0x80 DUP7 ADD MSTORE PUSH2 0x138C DUP3 DUP3 PUSH2 0x1299 JUMP JUMPDEST SWAP2 POP POP DUP1 SWAP2 POP POP SWAP3 SWAP2 POP POP JUMP JUMPDEST PUSH1 0x0 PUSH2 0x13A5 DUP4 DUP4 PUSH2 0x130E JUMP JUMPDEST SWAP1 POP SWAP3 SWAP2 POP POP JUMP JUMPDEST PUSH1 0x0 PUSH1 0x20 DUP3 ADD SWAP1 POP SWAP2 SWAP1 POP JUMP JUMPDEST PUSH1 0x0 PUSH2 0x13C5 DUP3 PUSH2 0x11C7 JUMP JUMPDEST PUSH2 0x13CF DUP2 DUP6 PUSH2 0x11D2 JUMP JUMPDEST SWAP4 POP DUP4 PUSH1 0x20 DUP3 MUL DUP6 ADD PUSH2 0x13E1 DUP6 PUSH2 0x11E3 JUMP JUMPDEST DUP1 PUSH1 0x0 JUMPDEST DUP6 DUP2 LT ISZERO PUSH2 0x141D JUMPI DUP5 DUP5 SUB DUP10 MSTORE DUP2 MLOAD PUSH2 0x13FE DUP6 DUP3 PUSH2 0x1399 JUMP JUMPDEST SWAP5 POP PUSH2 0x1409 DUP4 PUSH2 0x13AD JUMP JUMPDEST SWAP3 POP PUSH1 0x20 DUP11 ADD SWAP10 POP POP PUSH1 0x1 DUP2 ADD SWAP1 POP PUSH2 0x13E5 JUMP JUMPDEST POP DUP3 SWAP8 POP DUP8 SWAP6 POP POP POP POP POP POP SWAP3 SWAP2 POP POP JUMP JUMPDEST PUSH1 0x0 PUSH1 0x20 DUP3 ADD SWAP1 POP DUP2 DUP2 SUB PUSH1 0x0 DUP4 ADD MSTORE PUSH2 0x1449 DUP2 DUP5 PUSH2 0x13BA JUMP JUMPDEST SWAP1 POP SWAP3 SWAP2 POP POP JUMP JUMPDEST PUSH1 0x0 PUSH1 0x20 DUP3 ADD SWAP1 POP DUP2 DUP2 SUB PUSH1 0x0 DUP4 ADD MSTORE PUSH2 0x146B DUP2 DUP5 PUSH2 0xFB1 JUMP JUMPDEST SWAP1 POP SWAP3 SWAP2 POP POP JUMP JUMPDEST PUSH1 0x0 DUP2 MLOAD SWAP1 POP SWAP2 SWAP1 POP JUMP JUMPDEST PUSH1 0x0 DUP3 DUP3 MSTORE PUSH1 0x20 DUP3 ADD SWAP1 POP SWAP3 SWAP2 POP POP JUMP JUMPDEST PUSH1 0x0 DUP2 SWAP1 POP PUSH1 0x20 DUP3 ADD SWAP1 POP SWAP2 SWAP1 POP JUMP JUMPDEST PUSH1 0x0 PUSH1 0x40 DUP4 ADD PUSH1 0x0 DUP4 ADD MLOAD PUSH2 0x14B7 PUSH1 0x0 DUP7 ADD DUP3 PUSH2 0x11F3 JUMP JUMPDEST POP PUSH1 0x20 DUP4 ADD MLOAD DUP5 DUP3 SUB PUSH1 0x20 DUP7 ADD MSTORE PUSH2 0x14CF DUP3 DUP3 PUSH2 0x1213 JUMP JUMPDEST SWAP2 POP POP DUP1 SWAP2 POP POP SWAP3 SWAP2 POP POP JUMP JUMPDEST PUSH1 0x0 PUSH2 0x14E8 DUP4 DUP4 PUSH2 0x149F JUMP JUMPDEST SWAP1 POP SWAP3 SWAP2 POP POP JUMP JUMPDEST PUSH1 0x0 PUSH1 0x20 DUP3 ADD SWAP1 POP SWAP2 SWAP1 POP JUMP JUMPDEST PUSH1 0x0 PUSH2 0x1508 DUP3 PUSH2 0x1473 JUMP JUMPDEST PUSH2 0x1512 DUP2 DUP6 PUSH2 0x147E JUMP JUMPDEST SWAP4 POP DUP4 PUSH1 0x20 DUP3 MUL DUP6 ADD PUSH2 0x1524 DUP6 PUSH2 0x148F JUMP JUMPDEST DUP1 PUSH1 0x0 JUMPDEST DUP6 DUP2 LT ISZERO PUSH2 0x1560 JUMPI DUP5 DUP5 SUB DUP10 MSTORE DUP2 MLOAD PUSH2 0x1541 DUP6 DUP3 PUSH2 0x14DC JUMP JUMPDEST SWAP5 POP PUSH2 0x154C DUP4 PUSH2 0x14F0 JUMP JUMPDEST SWAP3 POP PUSH1 0x20 DUP11 ADD SWAP10 POP POP PUSH1 0x1 DUP2 ADD SWAP1 POP PUSH2 0x1528 JUMP JUMPDEST POP DUP3 SWAP8 POP DUP8 SWAP6 POP POP POP POP POP POP SWAP3 SWAP2 POP POP JUMP JUMPDEST PUSH1 0x0 PUSH1 0x20 DUP3 ADD SWAP1 POP DUP2 DUP2 SUB PUSH1 0x0 DUP4 ADD MSTORE PUSH2 0x158C DUP2 DUP5 PUSH2 0x14FD JUMP JUMPDEST SWAP1 POP SWAP3 SWAP2 POP POP JUMP JUMPDEST PUSH1 0x0 PUSH8 0xFFFFFFFFFFFFFFFF DUP3 GT ISZERO PUSH2 0x15AF JUMPI PUSH2 0x15AE PUSH2 0x1024 JUMP JUMPDEST JUMPDEST PUSH1 0x20 DUP3 MUL SWAP1 POP PUSH1 0x20 DUP2 ADD SWAP1 POP SWAP2 SWAP1 POP JUMP JUMPDEST PUSH1 0x0 DUP1 REVERT JUMPDEST PUSH1 0x0 PUSH2 0x15D8 PUSH2 0x15D3 DUP5 PUSH2 0x1594 JUMP JUMPDEST PUSH2 0x1084 JUMP JUMPDEST SWAP1 POP DUP1 DUP4 DUP3 MSTORE PUSH1 0x20 DUP3 ADD SWAP1 POP PUSH1 0x20 DUP5 MUL DUP4 ADD DUP6 DUP2 GT ISZERO PUSH2 0x15FB JUMPI PUSH2 0x15FA PUSH2 0x15C0 JUMP JUMPDEST JUMPDEST DUP4 JUMPDEST DUP2 DUP2 LT ISZERO PUSH2 0x1642 JUMPI DUP1 CALLDATALOAD PUSH8 0xFFFFFFFFFFFFFFFF DUP2 GT ISZERO PUSH2 0x1620 JUMPI PUSH2 0x161F PUSH2 0x101A JUMP JUMPDEST JUMPDEST DUP1 DUP7 ADD PUSH2 0x162D DUP10 DUP3 PUSH2 0x1121 JUMP JUMPDEST DUP6 MSTORE PUSH1 0x20 DUP6 ADD SWAP5 POP POP POP PUSH1 0x20 DUP2 ADD SWAP1 POP PUSH2 0x15FD JUMP JUMPDEST POP POP POP SWAP4 SWAP3 POP POP POP JUMP JUMPDEST PUSH1 0x0 DUP3 PUSH1 0x1F DUP4 ADD SLT PUSH2 0x1661 JUMPI PUSH2 0x1660 PUSH2 0x101A JUMP JUMPDEST JUMPDEST DUP2 CALLDATALOAD PUSH2 0x1671 DUP5 DUP3 PUSH1 0x20 DUP7 ADD PUSH2 0x15C5 JUMP JUMPDEST SWAP2 POP POP SWAP3 SWAP2 POP POP JUMP JUMPDEST PUSH1 0x0 DUP1 PUSH1 0x0 DUP1 PUSH1 0x80 DUP6 DUP8 SUB SLT ISZERO PUSH2 0x1694 JUMPI PUSH2 0x1693 PUSH2 0xEDE JUMP JUMPDEST JUMPDEST PUSH1 0x0 DUP6 ADD CALLDATALOAD PUSH8 0xFFFFFFFFFFFFFFFF DUP2 GT ISZERO PUSH2 0x16B2 JUMPI PUSH2 0x16B1 PUSH2 0xEE3 JUMP JUMPDEST JUMPDEST PUSH2 0x16BE DUP8 DUP3 DUP9 ADD PUSH2 0x1121 JUMP JUMPDEST SWAP5 POP POP PUSH1 0x20 DUP6 ADD CALLDATALOAD PUSH8 0xFFFFFFFFFFFFFFFF DUP2 GT ISZERO PUSH2 0x16DF JUMPI PUSH2 0x16DE PUSH2 0xEE3 JUMP JUMPDEST JUMPDEST PUSH2 0x16EB DUP8 DUP3 DUP9 ADD PUSH2 0x1121 JUMP JUMPDEST SWAP4 POP POP PUSH1 0x40 DUP6 ADD CALLDATALOAD PUSH8 0xFFFFFFFFFFFFFFFF DUP2 GT ISZERO PUSH2 0x170C JUMPI PUSH2 0x170B PUSH2 0xEE3 JUMP JUMPDEST JUMPDEST PUSH2 0x1718 DUP8 DUP3 DUP9 ADD PUSH2 0x164C JUMP JUMPDEST SWAP3 POP POP PUSH1 0x60 DUP6 ADD CALLDATALOAD PUSH8 0xFFFFFFFFFFFFFFFF DUP2 GT ISZERO PUSH2 0x1739 JUMPI PUSH2 0x1738 PUSH2 0xEE3 JUMP JUMPDEST JUMPDEST PUSH2 0x1745 DUP8 DUP3 DUP9 ADD PUSH2 0x1121 JUMP JUMPDEST SWAP2 POP POP SWAP3 SWAP6 SWAP2 SWAP5 POP SWAP3 POP JUMP JUMPDEST PUSH1 0x0 PUSH1 0x40 DUP3 ADD SWAP1 POP DUP2 DUP2 SUB PUSH1 0x0 DUP4 ADD MSTORE PUSH2 0x176B DUP2 DUP6 PUSH2 0xFB1 JUMP JUMPDEST SWAP1 POP DUP2 DUP2 SUB PUSH1 0x20 DUP4 ADD MSTORE PUSH2 0x177F DUP2 DUP5 PUSH2 0xFB1 JUMP JUMPDEST SWAP1 POP SWAP4 SWAP3 POP POP POP JUMP JUMPDEST PUSH1 0x0 PUSH1 0x80 DUP3 ADD SWAP1 POP PUSH2 0x179D PUSH1 0x0 DUP4 ADD DUP8 PUSH2 0xF4B JUMP JUMPDEST DUP2 DUP2 SUB PUSH1 0x20 DUP4 ADD MSTORE PUSH2 0x17AF DUP2 DUP7 PUSH2 0xFB1 JUMP JUMPDEST SWAP1 POP DUP2 DUP2 SUB PUSH1 0x40 DUP4 ADD MSTORE PUSH2 0x17C3 DUP2 DUP6 PUSH2 0xFB1 JUMP JUMPDEST SWAP1 POP DUP2 DUP2 SUB PUSH1 0x60 DUP4 ADD MSTORE PUSH2 0x17D7 DUP2 DUP5 PUSH2 0xFB1 JUMP JUMPDEST SWAP1 POP SWAP6 SWAP5 POP POP POP POP POP JUMP JUMPDEST PUSH1 0x0 PUSH1 0x20 DUP3 DUP5 SUB SLT ISZERO PUSH2 0x17F8 JUMPI PUSH2 0x17F7 PUSH2 0xEDE JUMP JUMPDEST JUMPDEST PUSH1 0x0 DUP3 ADD CALLDATALOAD PUSH8 0xFFFFFFFFFFFFFFFF DUP2 GT ISZERO PUSH2 0x1816 JUMPI PUSH2 0x1815 PUSH2 0xEE3 JUMP JUMPDEST JUMPDEST PUSH2 0x1822 DUP5 DUP3 DUP6 ADD PUSH2 0x1121 JUMP JUMPDEST SWAP2 POP POP SWAP3 SWAP2 POP POP JUMP JUMPDEST PUSH1 0x0 DUP2 MLOAD SWAP1 POP SWAP2 SWAP1 POP JUMP JUMPDEST PUSH1 0x0 DUP3 DUP3 MSTORE PUSH1 0x20 DUP3 ADD SWAP1 POP SWAP3 SWAP2 POP POP JUMP JUMPDEST PUSH1 0x0 DUP2 SWAP1 POP PUSH1 0x20 DUP3 ADD SWAP1 POP SWAP2 SWAP1 POP JUMP JUMPDEST PUSH1 0x0 PUSH1 0x40 DUP4 ADD PUSH1 0x0 DUP4 ADD MLOAD DUP5 DUP3 SUB PUSH1 0x0 DUP7 ADD MSTORE PUSH2 0x1874 DUP3 DUP3 PUSH2 0x1213 JUMP JUMPDEST SWAP2 POP POP PUSH1 0x20 DUP4 ADD MLOAD DUP5 DUP3 SUB PUSH1 0x20 DUP7 ADD MSTORE PUSH2 0x188E DUP3 DUP3 PUSH2 0x1213 JUMP JUMPDEST SWAP2 POP POP DUP1 SWAP2 POP POP SWAP3 SWAP2 POP POP JUMP JUMPDEST PUSH1 0x0 PUSH2 0x18A7 DUP4 DUP4 PUSH2 0x1857 JUMP JUMPDEST SWAP1 POP SWAP3 SWAP2 POP POP JUMP JUMPDEST PUSH1 0x0 PUSH1 0x20 DUP3 ADD SWAP1 POP SWAP2 SWAP1 POP JUMP JUMPDEST PUSH1 0x0 PUSH2 0x18C7 DUP3 PUSH2 0x182B JUMP JUMPDEST PUSH2 0x18D1 DUP2 DUP6 PUSH2 0x1836 JUMP JUMPDEST SWAP4 POP DUP4 PUSH1 0x20 DUP3 MUL DUP6 ADD PUSH2 0x18E3 DUP6 PUSH2 0x1847 JUMP JUMPDEST DUP1 PUSH1 0x0 JUMPDEST DUP6 DUP2 LT ISZERO PUSH2 0x191F JUMPI DUP5 DUP5 SUB DUP10 MSTORE DUP2 MLOAD PUSH2 0x1900 DUP6 DUP3 PUSH2 0x189B JUMP JUMPDEST SWAP5 POP PUSH2 0x190B DUP4 PUSH2 0x18AF JUMP JUMPDEST SWAP3 POP PUSH1 0x20 DUP11 ADD SWAP10 POP POP PUSH1 0x1 DUP2 ADD SWAP1 POP PUSH2 0x18E7 JUMP JUMPDEST POP DUP3 SWAP8 POP DUP8 SWAP6 POP POP POP POP POP POP SWAP3 SWAP2 POP POP JUMP JUMPDEST PUSH1 0x0 PUSH1 0x20 DUP3 ADD SWAP1 POP DUP2 DUP2 SUB PUSH1 0x0 DUP4 ADD MSTORE PUSH2 0x194B DUP2 DUP5 PUSH2 0x18BC JUMP JUMPDEST SWAP1 POP SWAP3 SWAP2 POP POP JUMP JUMPDEST PUSH32 0x4E487B7100000000000000000000000000000000000000000000000000000000 PUSH1 0x0 MSTORE PUSH1 0x22 PUSH1 0x4 MSTORE PUSH1 0x24 PUSH1 0x0 REVERT JUMPDEST PUSH1 0x0 PUSH1 0x2 DUP3 DIV SWAP1 POP PUSH1 0x1 DUP3 AND DUP1 PUSH2 0x199A JUMPI PUSH1 0x7F DUP3 AND SWAP2 POP JUMPDEST PUSH1 0x20 DUP3 LT DUP2 SUB PUSH2 0x19AD JUMPI PUSH2 0x19AC PUSH2 0x1953 JUMP JUMPDEST JUMPDEST POP SWAP2 SWAP1 POP JUMP JUMPDEST PUSH1 0x0 DUP2 SWAP1 POP DUP2 PUSH1 0x0 MSTORE PUSH1 0x20 PUSH1 0x0 KECCAK256 SWAP1 POP SWAP2 SWAP1 POP JUMP JUMPDEST PUSH1 0x0 PUSH1 0x20 PUSH1 0x1F DUP4 ADD DIV SWAP1 POP SWAP2 SWAP1 POP JUMP JUMPDEST PUSH1 0x0 DUP3 DUP3 SHL SWAP1 POP SWAP3 SWAP2 POP POP JUMP JUMPDEST PUSH1 0x0 PUSH1 0x8 DUP4 MUL PUSH2 0x1A15 PUSH32 0xFFFFFFFFFFFFFFFFFFFFFFFFFFFFFFFFFFFFFFFFFFFFFFFFFFFFFFFFFFFFFFFF DUP3 PUSH2 0x19D8 JUMP JUMPDEST PUSH2 0x1A1F DUP7 DUP4 PUSH2 0x19D8 JUMP JUMPDEST SWAP6 POP DUP1 NOT DUP5 AND SWAP4 POP DUP1 DUP7 AND DUP5 OR SWAP3 POP POP POP SWAP4 SWAP3 POP POP POP JUMP JUMPDEST PUSH1 0x0 DUP2 SWAP1 POP SWAP2 SWAP1 POP JUMP JUMPDEST PUSH1 0x0 PUSH2 0x1A5C PUSH2 0x1A57 PUSH2 0x1A52 DUP5 PUSH2 0xEE8 JUMP JUMPDEST PUSH2 0x1A37 JUMP JUMPDEST PUSH2 0xEE8 JUMP JUMPDEST SWAP1 POP SWAP2 SWAP1 POP JUMP JUMPDEST PUSH1 0x0 DUP2 SWAP1 POP SWAP2 SWAP1 POP JUMP JUMPDEST PUSH2 0x1A76 DUP4 PUSH2 0x1A41 JUMP JUMPDEST PUSH2 0x1A8A PUSH2 0x1A82 DUP3 PUSH2 0x1A63 JUMP JUMPDEST DUP5 DUP5 SLOAD PUSH2 0x19E5 JUMP JUMPDEST DUP3 SSTORE POP POP POP POP JUMP JUMPDEST PUSH1 0x0 SWAP1 JUMP JUMPDEST PUSH2 0x1A9F PUSH2 0x1A92 JUMP JUMPDEST PUSH2 0x1AAA DUP2 DUP5 DUP5 PUSH2 0x1A6D JUMP JUMPDEST POP POP POP JUMP JUMPDEST JUMPDEST DUP2 DUP2 LT ISZERO PUSH2 0x1ACE JUMPI PUSH2 0x1AC3 PUSH1 0x0 DUP3 PUSH2 0x1A97 JUMP JUMPDEST PUSH1 0x1 DUP2 ADD SWAP1 POP PUSH2 0x1AB0 JUMP JUMPDEST POP POP JUMP JUMPDEST PUSH1 0x1F DUP3 GT ISZERO PUSH2 0x1B13 JUMPI PUSH2 0x1AE4 DUP2 PUSH2 0x19B3 JUMP JUMPDEST PUSH2 0x1AED DUP5 PUSH2 0x19C8 JUMP JUMPDEST DUP2 ADD PUSH1 0x20 DUP6 LT ISZERO PUSH2 0x1AFC JUMPI DUP2 SWAP1 POP JUMPDEST PUSH2 0x1B10 PUSH2 0x1B08 DUP6 PUSH2 0x19C8 JUMP JUMPDEST DUP4 ADD DUP3 PUSH2 0x1AAF JUMP JUMPDEST POP POP JUMPDEST POP POP POP JUMP JUMPDEST PUSH1 0x0 DUP3 DUP3 SHR SWAP1 POP SWAP3 SWAP2 POP POP JUMP JUMPDEST PUSH1 0x0 PUSH2 0x1B36 PUSH1 0x0 NOT DUP5 PUSH1 0x8 MUL PUSH2 0x1B18 JUMP JUMPDEST NOT DUP1 DUP4 AND SWAP2 POP POP SWAP3 SWAP2 POP POP JUMP JUMPDEST PUSH1 0x0 PUSH2 0x1B4F DUP4 DUP4 PUSH2 0x1B25 JUMP JUMPDEST SWAP2 POP DUP3 PUSH1 0x2 MUL DUP3 OR SWAP1 POP SWAP3 SWAP2 POP POP JUMP JUMPDEST PUSH2 0x1B68 DUP3 PUSH2 0xF5A JUMP JUMPDEST PUSH8 0xFFFFFFFFFFFFFFFF DUP2 GT ISZERO PUSH2 0x1B81 JUMPI PUSH2 0x1B80 PUSH2 0x1024 JUMP JUMPDEST JUMPDEST PUSH2 0x1B8B DUP3 SLOAD PUSH2 0x1982 JUMP JUMPDEST PUSH2 0x1B96 DUP3 DUP3 DUP6 PUSH2 0x1AD2 JUMP JUMPDEST PUSH1 0x0 PUSH1 0x20 SWAP1 POP PUSH1 0x1F DUP4 GT PUSH1 0x1 DUP2 EQ PUSH2 0x1BC9 JUMPI PUSH1 0x0 DUP5 ISZERO PUSH2 0x1BB7 JUMPI DUP3 DUP8 ADD MLOAD SWAP1 POP JUMPDEST PUSH2 0x1BC1 DUP6 DUP3 PUSH2 0x1B43 JUMP JUMPDEST DUP7 SSTORE POP PUSH2 0x1C29 JUMP JUMPDEST PUSH1 0x1F NOT DUP5 AND PUSH2 0x1BD7 DUP7 PUSH2 0x19B3 JUMP JUMPDEST PUSH1 0x0 JUMPDEST DUP3 DUP2 LT ISZERO PUSH2 0x1BFF JUMPI DUP5 DUP10 ADD MLOAD DUP3 SSTORE PUSH1 0x1 DUP3 ADD SWAP2 POP PUSH1 0x20 DUP6 ADD SWAP5 POP PUSH1 0x20 DUP2 ADD SWAP1 POP PUSH2 0x1BDA JUMP JUMPDEST DUP7 DUP4 LT ISZERO PUSH2 0x1C1C JUMPI DUP5 DUP10 ADD MLOAD PUSH2 0x1C18 PUSH1 0x1F DUP10 AND DUP3 PUSH2 0x1B25 JUMP JUMPDEST DUP4 SSTORE POP JUMPDEST PUSH1 0x1 PUSH1 0x2 DUP9 MUL ADD DUP9 SSTORE POP POP POP JUMPDEST POP POP POP POP POP POP JUMP JUMPDEST PUSH32 0x4E487B7100000000000000000000000000000000000000000000000000000000 PUSH1 0x0 MSTORE PUSH1 0x32 PUSH1 0x4 MSTORE PUSH1 0x24 PUSH1 0x0 REVERT JUMPDEST PUSH32 0x4E487B7100000000000000000000000000000000000000000000000000000000 PUSH1 0x0 MSTORE PUSH1 0x11 PUSH1 0x4 MSTORE PUSH1 0x24 PUSH1 0x0 REVERT JUMPDEST PUSH1 0x0 PUSH2 0x1C9A DUP3 PUSH2 0xEE8 JUMP JUMPDEST SWAP2 POP PUSH32 0xFFFFFFFFFFFFFFFFFFFFFFFFFFFFFFFFFFFFFFFFFFFFFFFFFFFFFFFFFFFFFFFF DUP3 SUB PUSH2 0x1CCC JUMPI PUSH2 0x1CCB PUSH2 0x1C60 JUMP JUMPDEST JUMPDEST PUSH1 0x1 DUP3 ADD SWAP1 POP SWAP2 SWAP1 POP JUMP INVALID LOG2 PUSH5 0x6970667358 0x22 SLT KECCAK256 JUMPI PUSH23 0xF36AEBD27B65660DE67FBF4F4BFE32F617F82BFB4DBFD2 0xCD 0xD2 0xD5 BYTE SMOD 0xBD KECCAK256 PUSH5 0x736F6C6343 STOP ADDMOD SLT STOP CALLER "
		},
		"gasEstimates": {
			"creation": {
				"codeDepositCost": "1487400",
				"executionCost": "1555",
				"totalCost": "1488955"
			},
			"external": {
				"addDisease(string)": "infinite",
				"addMedicine(string,string,string[],string)": "infinite",
				"createWorkplace(string,string)": "infinite",
				"diseases(uint256)": "infinite",
				"getAllDiseases()": "infinite",
				"getAllMedicines()": "infinite",
				"getAllWorkplaces()": "infinite",
				"getDiseaseById(uint256)": "infinite",
				"medicines(uint256)": "infinite",
				"workplaces(uint256)": "infinite"
			}
		},
		"methodIdentifiers": {
			"addDisease(string)": "d47c029c",
			"addMedicine(string,string,string[],string)": "af6adbbd",
			"createWorkplace(string,string)": "5ab2ce22",
			"diseases(uint256)": "46459b22",
			"getAllDiseases()": "9df10db0",
			"getAllMedicines()": "68f2b1d2",
			"getAllWorkplaces()": "d92631db",
			"getDiseaseById(uint256)": "747dcbde",
			"medicines(uint256)": "c85e766d",
			"workplaces(uint256)": "c38831ae"
		}
	},
	"abi": [
		{
			"inputs": [
				{
					"internalType": "string",
					"name": "_name",
					"type": "string"
				}
			],
			"name": "addDisease",
			"outputs": [],
			"stateMutability": "nonpayable",
			"type": "function"
		},
		{
			"inputs": [
				{
					"internalType": "string",
					"name": "_name",
					"type": "string"
				},
				{
					"internalType": "string",
					"name": "_expiryDate",
					"type": "string"
				},
				{
					"internalType": "string[]",
					"name": "_doses",
					"type": "string[]"
				},
				{
					"internalType": "string",
					"name": "_price",
					"type": "string"
				}
			],
			"name": "addMedicine",
			"outputs": [],
			"stateMutability": "nonpayable",
			"type": "function"
		},
		{
			"inputs": [
				{
					"internalType": "string",
					"name": "_name",
					"type": "string"
				},
				{
					"internalType": "string",
					"name": "_workAddress",
					"type": "string"
				}
			],
			"name": "createWorkplace",
			"outputs": [],
			"stateMutability": "nonpayable",
			"type": "function"
		},
		{
			"inputs": [
				{
					"internalType": "uint256",
					"name": "",
					"type": "uint256"
				}
			],
			"name": "diseases",
			"outputs": [
				{
					"internalType": "uint256",
					"name": "id",
					"type": "uint256"
				},
				{
					"internalType": "string",
					"name": "name",
					"type": "string"
				}
			],
			"stateMutability": "view",
			"type": "function"
		},
		{
			"inputs": [],
			"name": "getAllDiseases",
			"outputs": [
				{
					"components": [
						{
							"internalType": "uint256",
							"name": "id",
							"type": "uint256"
						},
						{
							"internalType": "string",
							"name": "name",
							"type": "string"
						}
					],
					"internalType": "struct Admin.Disease[]",
					"name": "",
					"type": "tuple[]"
				}
			],
			"stateMutability": "view",
			"type": "function"
		},
		{
			"inputs": [],
			"name": "getAllMedicines",
			"outputs": [
				{
					"components": [
						{
							"internalType": "uint256",
							"name": "id",
							"type": "uint256"
						},
						{
							"internalType": "string",
							"name": "name",
							"type": "string"
						},
						{
							"internalType": "string",
							"name": "expiryDate",
							"type": "string"
						},
						{
							"internalType": "string",
							"name": "price",
							"type": "string"
						},
						{
							"internalType": "string[]",
							"name": "doses",
							"type": "string[]"
						}
					],
					"internalType": "struct Admin.Medicine[]",
					"name": "",
					"type": "tuple[]"
				}
			],
			"stateMutability": "view",
			"type": "function"
		},
		{
			"inputs": [],
			"name": "getAllWorkplaces",
			"outputs": [
				{
					"components": [
						{
							"internalType": "string",
							"name": "name",
							"type": "string"
						},
						{
							"internalType": "string",
							"name": "workAddress",
							"type": "string"
						}
					],
					"internalType": "struct Admin.Workplace[]",
					"name": "",
					"type": "tuple[]"
				}
			],
			"stateMutability": "view",
			"type": "function"
		},
		{
			"inputs": [
				{
					"internalType": "uint256",
					"name": "id",
					"type": "uint256"
				}
			],
			"name": "getDiseaseById",
			"outputs": [
				{
					"internalType": "string",
					"name": "",
					"type": "string"
				}
			],
			"stateMutability": "view",
			"type": "function"
		},
		{
			"inputs": [
				{
					"internalType": "uint256",
					"name": "",
					"type": "uint256"
				}
			],
			"name": "medicines",
			"outputs": [
				{
					"internalType": "uint256",
					"name": "id",
					"type": "uint256"
				},
				{
					"internalType": "string",
					"name": "name",
					"type": "string"
				},
				{
					"internalType": "string",
					"name": "expiryDate",
					"type": "string"
				},
				{
					"internalType": "string",
					"name": "price",
					"type": "string"
				}
			],
			"stateMutability": "view",
			"type": "function"
		},
		{
			"inputs": [
				{
					"internalType": "uint256",
					"name": "",
					"type": "uint256"
				}
			],
			"name": "workplaces",
			"outputs": [
				{
					"internalType": "string",
					"name": "name",
					"type": "string"
				},
				{
					"internalType": "string",
					"name": "workAddress",
					"type": "string"
				}
			],
			"stateMutability": "view",
			"type": "function"
		}
	]
}