{
	"data": {
		"bytecode": {
			"linkReferences": {},
			"object": "60806040523480156200001157600080fd5b50604051620000209062000131565b604051809103906000f0801580156200003d573d6000803e3d6000fd5b50600160006101000a81548173ffffffffffffffffffffffffffffffffffffffff021916908373ffffffffffffffffffffffffffffffffffffffff1602179055506040516200008c906200013f565b604051809103906000f080158015620000a9573d6000803e3d6000fd5b50600260006101000a81548173ffffffffffffffffffffffffffffffffffffffff021916908373ffffffffffffffffffffffffffffffffffffffff16021790555033600360006101000a81548173ffffffffffffffffffffffffffffffffffffffff021916908373ffffffffffffffffffffffffffffffffffffffff1602179055506200014d565b61185f8062001cd983390190565b611603806200353883390190565b611b7c806200015d6000396000f3fe608060405234801561001057600080fd5b50600436106100885760003560e01c80638da5cb5b1161005b5780638da5cb5b146100ff578063c38831ae1461011d578063d92631db1461014e578063f0d950901461016c57610088565b806318a231a91461008d5780632de304ed146100ab5780635ab2ce22146100c757806387446b6e146100e3575b600080fd5b61009561018a565b6040516100a29190610b1e565b60405180910390f35b6100c560048036038101906100c09190610cb5565b610227565b005b6100e160048036038101906100dc9190610d11565b6102ba565b005b6100fd60048036038101906100f89190610d89565b610358565b005b6101076103ee565b6040516101149190610e23565b60405180910390f35b61013760048036038101906101329190610e3e565b610414565b604051610145929190610eb5565b60405180910390f35b610156610558565b6040516101639190610ff2565b60405180910390f35b610174610567565b6040516101819190611153565b60405180910390f35b6060600260009054906101000a900473ffffffffffffffffffffffffffffffffffffffff1673ffffffffffffffffffffffffffffffffffffffff166318a231a96040518163ffffffff1660e01b8152600401600060405180830381865afa1580156101f9573d6000803e3d6000fd5b505050506040513d6000823e3d601f19601f82011682018060405250810190610222919061151b565b905090565b600260009054906101000a900473ffffffffffffffffffffffffffffffffffffffff1673ffffffffffffffffffffffffffffffffffffffff16632de304ed83836040518363ffffffff1660e01b8152600401610284929190611573565b600060405180830381600087803b15801561029e57600080fd5b505af11580156102b2573d6000803e3d6000fd5b505050505050565b600360009054906101000a900473ffffffffffffffffffffffffffffffffffffffff1673ffffffffffffffffffffffffffffffffffffffff163373ffffffffffffffffffffffffffffffffffffffff161461034a576040517f08c379a000000000000000000000000000000000000000000000000000000000815260040161034190611615565b60405180910390fd5b6103548282610604565b5050565b600160009054906101000a900473ffffffffffffffffffffffffffffffffffffffff1673ffffffffffffffffffffffffffffffffffffffff166387446b6e8484846040518463ffffffff1660e01b81526004016103b793929190611635565b600060405180830381600087803b1580156103d157600080fd5b505af11580156103e5573d6000803e3d6000fd5b50505050505050565b600360009054906101000a900473ffffffffffffffffffffffffffffffffffffffff1681565b6000818154811061042457600080fd5b9060005260206000209060020201600091509050806000018054610447906116a9565b80601f0160208091040260200160405190810160405280929190818152602001828054610473906116a9565b80156104c05780601f10610495576101008083540402835291602001916104c0565b820191906000526020600020905b8154815290600101906020018083116104a357829003601f168201915b5050505050908060010180546104d5906116a9565b80601f0160208091040260200160405190810160405280929190818152602001828054610501906116a9565b801561054e5780601f106105235761010080835404028352916020019161054e565b820191906000526020600020905b81548152906001019060200180831161053157829003601f168201915b5050505050905082565b606061056261067c565b905090565b6060600160009054906101000a900473ffffffffffffffffffffffffffffffffffffffff1673ffffffffffffffffffffffffffffffffffffffff1663f0d950906040518163ffffffff1660e01b8152600401600060405180830381865afa1580156105d6573d6000803e3d6000fd5b505050506040513d6000823e3d601f19601f820116820180604052508101906105ff919061187f565b905090565b600060405180604001604052808481526020018381525090506000819080600181540180825580915050600190039060005260206000209060020201600090919091909150600082015181600001908161065e9190611a74565b5060208201518160010190816106749190611a74565b505050505050565b60606000805480602002602001604051908101604052809291908181526020016000905b828210156107f657838290600052602060002090600202016040518060400160405290816000820180546106d3906116a9565b80601f01602080910402602001604051908101604052809291908181526020018280546106ff906116a9565b801561074c5780601f106107215761010080835404028352916020019161074c565b820191906000526020600020905b81548152906001019060200180831161072f57829003601f168201915b50505050508152602001600182018054610765906116a9565b80601f0160208091040260200160405190810160405280929190818152602001828054610791906116a9565b80156107de5780601f106107b3576101008083540402835291602001916107de565b820191906000526020600020905b8154815290600101906020018083116107c157829003601f168201915b505050505081525050815260200190600101906106a0565b50505050905090565b600081519050919050565b600082825260208201905092915050565b6000819050602082019050919050565b6000819050919050565b61083e8161082b565b82525050565b600081519050919050565b600082825260208201905092915050565b60005b8381101561087e578082015181840152602081019050610863565b60008484015250505050565b6000601f19601f8301169050919050565b60006108a682610844565b6108b0818561084f565b93506108c0818560208601610860565b6108c98161088a565b840191505092915050565b600073ffffffffffffffffffffffffffffffffffffffff82169050919050565b60006108ff826108d4565b9050919050565b61090f816108f4565b82525050565b600081519050919050565b600082825260208201905092915050565b6000819050602082019050919050565b600061094d838361089b565b905092915050565b6000602082019050919050565b600061096d82610915565b6109778185610920565b93508360208202850161098985610931565b8060005b858110156109c557848403895281516109a68582610941565b94506109b183610955565b925060208a0199505060018101905061098d565b50829750879550505050505092915050565b600060e0830160008301516109ef6000860182610835565b5060208301518482036020860152610a07828261089b565b9150506040830151610a1c6040860182610835565b506060830151610a2f6060860182610906565b5060808301518482036080860152610a478282610962565b91505060a083015184820360a0860152610a618282610962565b91505060c083015184820360c0860152610a7b8282610962565b9150508091505092915050565b6000610a9483836109d7565b905092915050565b6000602082019050919050565b6000610ab4826107ff565b610abe818561080a565b935083602082028501610ad08561081b565b8060005b85811015610b0c5784840389528151610aed8582610a88565b9450610af883610a9c565b925060208a01995050600181019050610ad4565b50829750879550505050505092915050565b60006020820190508181036000830152610b388184610aa9565b905092915050565b6000604051905090565b600080fd5b600080fd5b600080fd5b600080fd5b7f4e487b7100000000000000000000000000000000000000000000000000000000600052604160045260246000fd5b610b968261088a565b810181811067ffffffffffffffff82111715610bb557610bb4610b5e565b5b80604052505050565b6000610bc8610b40565b9050610bd48282610b8d565b919050565b600067ffffffffffffffff821115610bf457610bf3610b5e565b5b610bfd8261088a565b9050602081019050919050565b82818337600083830152505050565b6000610c2c610c2784610bd9565b610bbe565b905082815260208101848484011115610c4857610c47610b59565b5b610c53848285610c0a565b509392505050565b600082601f830112610c7057610c6f610b54565b5b8135610c80848260208601610c19565b91505092915050565b610c928161082b565b8114610c9d57600080fd5b50565b600081359050610caf81610c89565b92915050565b60008060408385031215610ccc57610ccb610b4a565b5b600083013567ffffffffffffffff811115610cea57610ce9610b4f565b5b610cf685828601610c5b565b9250506020610d0785828601610ca0565b9150509250929050565b60008060408385031215610d2857610d27610b4a565b5b600083013567ffffffffffffffff811115610d4657610d45610b4f565b5b610d5285828601610c5b565b925050602083013567ffffffffffffffff811115610d7357610d72610b4f565b5b610d7f85828601610c5b565b9150509250929050565b600080600060608486031215610da257610da1610b4a565b5b600084013567ffffffffffffffff811115610dc057610dbf610b4f565b5b610dcc86828701610c5b565b935050602084013567ffffffffffffffff811115610ded57610dec610b4f565b5b610df986828701610c5b565b9250506040610e0a86828701610ca0565b9150509250925092565b610e1d816108f4565b82525050565b6000602082019050610e386000830184610e14565b92915050565b600060208284031215610e5457610e53610b4a565b5b6000610e6284828501610ca0565b91505092915050565b600082825260208201905092915050565b6000610e8782610844565b610e918185610e6b565b9350610ea1818560208601610860565b610eaa8161088a565b840191505092915050565b60006040820190508181036000830152610ecf8185610e7c565b90508181036020830152610ee38184610e7c565b90509392505050565b600081519050919050565b600082825260208201905092915050565b6000819050602082019050919050565b60006040830160008301518482036000860152610f35828261089b565b91505060208301518482036020860152610f4f828261089b565b9150508091505092915050565b6000610f688383610f18565b905092915050565b6000602082019050919050565b6000610f8882610eec565b610f928185610ef7565b935083602082028501610fa485610f08565b8060005b85811015610fe05784840389528151610fc18582610f5c565b9450610fcc83610f70565b925060208a01995050600181019050610fa8565b50829750879550505050505092915050565b6000602082019050818103600083015261100c8184610f7d565b905092915050565b600081519050919050565b600082825260208201905092915050565b6000819050602082019050919050565b600060a0830160008301516110586000860182610835565b5060208301518482036020860152611070828261089b565b9150506040830151848203604086015261108a828261089b565b915050606083015161109f6060860182610906565b5060808301516110b26080860182610835565b508091505092915050565b60006110c98383611040565b905092915050565b6000602082019050919050565b60006110e982611014565b6110f3818561101f565b93508360208202850161110585611030565b8060005b85811015611141578484038952815161112285826110bd565b945061112d836110d1565b925060208a01995050600181019050611109565b50829750879550505050505092915050565b6000602082019050818103600083015261116d81846110de565b905092915050565b600067ffffffffffffffff8211156111905761118f610b5e565b5b602082029050602081019050919050565b600080fd5b600080fd5b600080fd5b6000815190506111bf81610c89565b92915050565b60006111d86111d384610bd9565b610bbe565b9050828152602081018484840111156111f4576111f3610b59565b5b6111ff848285610860565b509392505050565b600082601f83011261121c5761121b610b54565b5b815161122c8482602086016111c5565b91505092915050565b61123e816108f4565b811461124957600080fd5b50565b60008151905061125b81611235565b92915050565b600067ffffffffffffffff82111561127c5761127b610b5e565b5b602082029050602081019050919050565b60006112a061129b84611261565b610bbe565b905080838252602082019050602084028301858111156112c3576112c26111a1565b5b835b8181101561130a57805167ffffffffffffffff8111156112e8576112e7610b54565b5b8086016112f58982611207565b855260208501945050506020810190506112c5565b5050509392505050565b600082601f83011261132957611328610b54565b5b815161133984826020860161128d565b91505092915050565b600060e08284031215611358576113576111a6565b5b61136260e0610bbe565b90506000611372848285016111b0565b600083015250602082015167ffffffffffffffff811115611396576113956111ab565b5b6113a284828501611207565b60208301525060406113b6848285016111b0565b60408301525060606113ca8482850161124c565b606083015250608082015167ffffffffffffffff8111156113ee576113ed6111ab565b5b6113fa84828501611314565b60808301525060a082015167ffffffffffffffff81111561141e5761141d6111ab565b5b61142a84828501611314565b60a08301525060c082015167ffffffffffffffff81111561144e5761144d6111ab565b5b61145a84828501611314565b60c08301525092915050565b600061147961147484611175565b610bbe565b9050808382526020820190506020840283018581111561149c5761149b6111a1565b5b835b818110156114e357805167ffffffffffffffff8111156114c1576114c0610b54565b5b8086016114ce8982611342565b8552602085019450505060208101905061149e565b5050509392505050565b600082601f83011261150257611501610b54565b5b8151611512848260208601611466565b91505092915050565b60006020828403121561153157611530610b4a565b5b600082015167ffffffffffffffff81111561154f5761154e610b4f565b5b61155b848285016114ed565b91505092915050565b61156d8161082b565b82525050565b6000604082019050818103600083015261158d8185610e7c565b905061159c6020830184611564565b9392505050565b7f4f6e6c792061646d696e2063616e2063616c6c20746869732066756e6374696f60008201527f6e00000000000000000000000000000000000000000000000000000000000000602082015250565b60006115ff602183610e6b565b915061160a826115a3565b604082019050919050565b6000602082019050818103600083015261162e816115f2565b9050919050565b6000606082019050818103600083015261164f8186610e7c565b905081810360208301526116638185610e7c565b90506116726040830184611564565b949350505050565b7f4e487b7100000000000000000000000000000000000000000000000000000000600052602260045260246000fd5b600060028204905060018216806116c157607f821691505b6020821081036116d4576116d361167a565b5b50919050565b600067ffffffffffffffff8211156116f5576116f4610b5e565b5b602082029050602081019050919050565b600060a0828403121561171c5761171b6111a6565b5b61172660a0610bbe565b90506000611736848285016111b0565b600083015250602082015167ffffffffffffffff81111561175a576117596111ab565b5b61176684828501611207565b602083015250604082015167ffffffffffffffff81111561178a576117896111ab565b5b61179684828501611207565b60408301525060606117aa8482850161124c565b60608301525060806117be848285016111b0565b60808301525092915050565b60006117dd6117d8846116da565b610bbe565b90508083825260208201905060208402830185811115611800576117ff6111a1565b5b835b8181101561184757805167ffffffffffffffff81111561182557611824610b54565b5b8086016118328982611706565b85526020850194505050602081019050611802565b5050509392505050565b600082601f83011261186657611865610b54565b5b81516118768482602086016117ca565b91505092915050565b60006020828403121561189557611894610b4a565b5b600082015167ffffffffffffffff8111156118b3576118b2610b4f565b5b6118bf84828501611851565b91505092915050565b60008190508160005260206000209050919050565b60006020601f8301049050919050565b600082821b905092915050565b60006008830261192a7fffffffffffffffffffffffffffffffffffffffffffffffffffffffffffffffff826118ed565b61193486836118ed565b95508019841693508086168417925050509392505050565b6000819050919050565b600061197161196c6119678461082b565b61194c565b61082b565b9050919050565b6000819050919050565b61198b83611956565b61199f61199782611978565b8484546118fa565b825550505050565b600090565b6119b46119a7565b6119bf818484611982565b505050565b5b818110156119e3576119d86000826119ac565b6001810190506119c5565b5050565b601f821115611a28576119f9816118c8565b611a02846118dd565b81016020851015611a11578190505b611a25611a1d856118dd565b8301826119c4565b50505b505050565b600082821c905092915050565b6000611a4b60001984600802611a2d565b1980831691505092915050565b6000611a648383611a3a565b9150826002028217905092915050565b611a7d82610844565b67ffffffffffffffff811115611a9657611a95610b5e565b5b611aa082546116a9565b611aab8282856119e7565b600060209050601f831160018114611ade5760008415611acc578287015190505b611ad68582611a58565b865550611b3e565b601f198416611aec866118c8565b60005b82811015611b1457848901518255600182019150602085019450602081019050611aef565b86831015611b315784890151611b2d601f891682611a3a565b8355505b6001600288020188555050505b50505050505056fea26469706673582212201920ac972b236e618ced4ec8497612309ea639ee979b97f43b44511936482f4f64736f6c63430008120033608060405234801561001057600080fd5b5061183f806100206000396000f3fe608060405234801561001057600080fd5b50600436106100935760003560e01c8063a9583c2211610066578063a9583c221461011e578063bae1eee814610152578063c38831ae14610170578063d92631db146101a1578063f0d95090146101bf57610093565b806359bf95f7146100985780635ab2ce22146100c857806378522bc4146100e457806387446b6e14610102575b600080fd5b6100b260048036038101906100ad9190610c86565b6101dd565b6040516100bf9190610cf4565b60405180910390f35b6100e260048036038101906100dd9190610e55565b61021c565b005b6100ec610294565b6040516100f99190610edc565b60405180910390f35b61011c60048036038101906101179190610ef7565b61029a565b005b61013860048036038101906101339190610fae565b610469565b60405161014995949392919061105a565b60405180910390f35b61015a6105cf565b60405161016791906110d6565b60405180910390f35b61018a60048036038101906101859190610c86565b610678565b6040516101989291906110f1565b60405180910390f35b6101a96107bc565b6040516101b69190611278565b60405180910390f35b6101c761093f565b6040516101d491906113f7565b60405180910390f35b600381815481106101ed57600080fd5b906000526020600020016000915054906101000a900473ffffffffffffffffffffffffffffffffffffffff1681565b60006040518060400160405280848152602001838152509050600081908060018154018082558091505060019003906000526020600020906002020160009091909190915060008201518160000190816102769190611625565b50602082015181600101908161028c9190611625565b505050505050565b60025481565b6102a26105cf565b6102e1576040517f08c379a00000000000000000000000000000000000000000000000000000000081526004016102d890611743565b60405180910390fd5b6040518060a0016040528060025481526020018481526020018381526020013373ffffffffffffffffffffffffffffffffffffffff16815260200182815250600160003373ffffffffffffffffffffffffffffffffffffffff1673ffffffffffffffffffffffffffffffffffffffff16815260200190815260200160002060008201518160000155602082015181600101908161037e9190611625565b5060408201518160020190816103949190611625565b5060608201518160030160006101000a81548173ffffffffffffffffffffffffffffffffffffffff021916908373ffffffffffffffffffffffffffffffffffffffff160217905550608082015181600401559050506003339080600181540180825580915050600190039060005260206000200160009091909190916101000a81548173ffffffffffffffffffffffffffffffffffffffff021916908373ffffffffffffffffffffffffffffffffffffffff1602179055506002600081548092919061045f90611792565b9190505550505050565b600160205280600052604060002060009150905080600001549080600101805461049290611448565b80601f01602080910402602001604051908101604052809291908181526020018280546104be90611448565b801561050b5780601f106104e05761010080835404028352916020019161050b565b820191906000526020600020905b8154815290600101906020018083116104ee57829003601f168201915b50505050509080600201805461052090611448565b80601f016020809104026020016040519081016040528092919081815260200182805461054c90611448565b80156105995780601f1061056e57610100808354040283529160200191610599565b820191906000526020600020905b81548152906001019060200180831161057c57829003601f168201915b5050505050908060030160009054906101000a900473ffffffffffffffffffffffffffffffffffffffff16908060040154905085565b600080600090505b60025481101561066f573373ffffffffffffffffffffffffffffffffffffffff166003828154811061060c5761060b6117da565b5b9060005260206000200160009054906101000a900473ffffffffffffffffffffffffffffffffffffffff1673ffffffffffffffffffffffffffffffffffffffff160361065c576000915050610675565b808061066790611792565b9150506105d7565b50600190505b90565b6000818154811061068857600080fd5b90600052602060002090600202016000915090508060000180546106ab90611448565b80601f01602080910402602001604051908101604052809291908181526020018280546106d790611448565b80156107245780601f106106f957610100808354040283529160200191610724565b820191906000526020600020905b81548152906001019060200180831161070757829003601f168201915b50505050509080600101805461073990611448565b80601f016020809104026020016040519081016040528092919081815260200182805461076590611448565b80156107b25780601f10610787576101008083540402835291602001916107b2565b820191906000526020600020905b81548152906001019060200180831161079557829003601f168201915b5050505050905082565b60606000805480602002602001604051908101604052809291908181526020016000905b82821015610936578382906000526020600020906002020160405180604001604052908160008201805461081390611448565b80601f016020809104026020016040519081016040528092919081815260200182805461083f90611448565b801561088c5780601f106108615761010080835404028352916020019161088c565b820191906000526020600020905b81548152906001019060200180831161086f57829003601f168201915b505050505081526020016001820180546108a590611448565b80601f01602080910402602001604051908101604052809291908181526020018280546108d190611448565b801561091e5780601f106108f35761010080835404028352916020019161091e565b820191906000526020600020905b81548152906001019060200180831161090157829003601f168201915b505050505081525050815260200190600101906107e0565b50505050905090565b6060600060025467ffffffffffffffff81111561095f5761095e610d2a565b5b60405190808252806020026020018201604052801561099857816020015b610985610bf7565b81526020019060019003908161097d5790505b50905060005b600254811015610bef5760016000600383815481106109c0576109bf6117da565b5b9060005260206000200160009054906101000a900473ffffffffffffffffffffffffffffffffffffffff1673ffffffffffffffffffffffffffffffffffffffff1673ffffffffffffffffffffffffffffffffffffffff1681526020019081526020016000206040518060a001604052908160008201548152602001600182018054610a4a90611448565b80601f0160208091040260200160405190810160405280929190818152602001828054610a7690611448565b8015610ac35780601f10610a9857610100808354040283529160200191610ac3565b820191906000526020600020905b815481529060010190602001808311610aa657829003601f168201915b50505050508152602001600282018054610adc90611448565b80601f0160208091040260200160405190810160405280929190818152602001828054610b0890611448565b8015610b555780601f10610b2a57610100808354040283529160200191610b55565b820191906000526020600020905b815481529060010190602001808311610b3857829003601f168201915b505050505081526020016003820160009054906101000a900473ffffffffffffffffffffffffffffffffffffffff1673ffffffffffffffffffffffffffffffffffffffff1673ffffffffffffffffffffffffffffffffffffffff168152602001600482015481525050828281518110610bd157610bd06117da565b5b60200260200101819052508080610be790611792565b91505061099e565b508091505090565b6040518060a00160405280600081526020016060815260200160608152602001600073ffffffffffffffffffffffffffffffffffffffff168152602001600081525090565b6000604051905090565b600080fd5b600080fd5b6000819050919050565b610c6381610c50565b8114610c6e57600080fd5b50565b600081359050610c8081610c5a565b92915050565b600060208284031215610c9c57610c9b610c46565b5b6000610caa84828501610c71565b91505092915050565b600073ffffffffffffffffffffffffffffffffffffffff82169050919050565b6000610cde82610cb3565b9050919050565b610cee81610cd3565b82525050565b6000602082019050610d096000830184610ce5565b92915050565b600080fd5b600080fd5b6000601f19601f8301169050919050565b7f4e487b7100000000000000000000000000000000000000000000000000000000600052604160045260246000fd5b610d6282610d19565b810181811067ffffffffffffffff82111715610d8157610d80610d2a565b5b80604052505050565b6000610d94610c3c565b9050610da08282610d59565b919050565b600067ffffffffffffffff821115610dc057610dbf610d2a565b5b610dc982610d19565b9050602081019050919050565b82818337600083830152505050565b6000610df8610df384610da5565b610d8a565b905082815260208101848484011115610e1457610e13610d14565b5b610e1f848285610dd6565b509392505050565b600082601f830112610e3c57610e3b610d0f565b5b8135610e4c848260208601610de5565b91505092915050565b60008060408385031215610e6c57610e6b610c46565b5b600083013567ffffffffffffffff811115610e8a57610e89610c4b565b5b610e9685828601610e27565b925050602083013567ffffffffffffffff811115610eb757610eb6610c4b565b5b610ec385828601610e27565b9150509250929050565b610ed681610c50565b82525050565b6000602082019050610ef16000830184610ecd565b92915050565b600080600060608486031215610f1057610f0f610c46565b5b600084013567ffffffffffffffff811115610f2e57610f2d610c4b565b5b610f3a86828701610e27565b935050602084013567ffffffffffffffff811115610f5b57610f5a610c4b565b5b610f6786828701610e27565b9250506040610f7886828701610c71565b9150509250925092565b610f8b81610cd3565b8114610f9657600080fd5b50565b600081359050610fa881610f82565b92915050565b600060208284031215610fc457610fc3610c46565b5b6000610fd284828501610f99565b91505092915050565b600081519050919050565b600082825260208201905092915050565b60005b83811015611015578082015181840152602081019050610ffa565b60008484015250505050565b600061102c82610fdb565b6110368185610fe6565b9350611046818560208601610ff7565b61104f81610d19565b840191505092915050565b600060a08201905061106f6000830188610ecd565b81810360208301526110818187611021565b905081810360408301526110958186611021565b90506110a46060830185610ce5565b6110b16080830184610ecd565b9695505050505050565b60008115159050919050565b6110d0816110bb565b82525050565b60006020820190506110eb60008301846110c7565b92915050565b6000604082019050818103600083015261110b8185611021565b9050818103602083015261111f8184611021565b90509392505050565b600081519050919050565b600082825260208201905092915050565b6000819050602082019050919050565b600082825260208201905092915050565b600061117082610fdb565b61117a8185611154565b935061118a818560208601610ff7565b61119381610d19565b840191505092915050565b600060408301600083015184820360008601526111bb8282611165565b915050602083015184820360208601526111d58282611165565b9150508091505092915050565b60006111ee838361119e565b905092915050565b6000602082019050919050565b600061120e82611128565b6112188185611133565b93508360208202850161122a85611144565b8060005b85811015611266578484038952815161124785826111e2565b9450611252836111f6565b925060208a0199505060018101905061122e565b50829750879550505050505092915050565b600060208201905081810360008301526112928184611203565b905092915050565b600081519050919050565b600082825260208201905092915050565b6000819050602082019050919050565b6112cf81610c50565b82525050565b6112de81610cd3565b82525050565b600060a0830160008301516112fc60008601826112c6565b50602083015184820360208601526113148282611165565b9150506040830151848203604086015261132e8282611165565b915050606083015161134360608601826112d5565b50608083015161135660808601826112c6565b508091505092915050565b600061136d83836112e4565b905092915050565b6000602082019050919050565b600061138d8261129a565b61139781856112a5565b9350836020820285016113a9856112b6565b8060005b858110156113e557848403895281516113c68582611361565b94506113d183611375565b925060208a019950506001810190506113ad565b50829750879550505050505092915050565b600060208201905081810360008301526114118184611382565b905092915050565b7f4e487b7100000000000000000000000000000000000000000000000000000000600052602260045260246000fd5b6000600282049050600182168061146057607f821691505b60208210810361147357611472611419565b5b50919050565b60008190508160005260206000209050919050565b60006020601f8301049050919050565b600082821b905092915050565b6000600883026114db7fffffffffffffffffffffffffffffffffffffffffffffffffffffffffffffffff8261149e565b6114e5868361149e565b95508019841693508086168417925050509392505050565b6000819050919050565b600061152261151d61151884610c50565b6114fd565b610c50565b9050919050565b6000819050919050565b61153c83611507565b61155061154882611529565b8484546114ab565b825550505050565b600090565b611565611558565b611570818484611533565b505050565b5b818110156115945761158960008261155d565b600181019050611576565b5050565b601f8211156115d9576115aa81611479565b6115b38461148e565b810160208510156115c2578190505b6115d66115ce8561148e565b830182611575565b50505b505050565b600082821c905092915050565b60006115fc600019846008026115de565b1980831691505092915050565b600061161583836115eb565b9150826002028217905092915050565b61162e82610fdb565b67ffffffffffffffff81111561164757611646610d2a565b5b6116518254611448565b61165c828285611598565b600060209050601f83116001811461168f576000841561167d578287015190505b6116878582611609565b8655506116ef565b601f19841661169d86611479565b60005b828110156116c5578489015182556001820191506020850194506020810190506116a0565b868310156116e257848901516116de601f8916826115eb565b8355505b6001600288020188555050505b505050505050565b7f446f63746f7220616c7265616479207265676973746572656400000000000000600082015250565b600061172d601983610fe6565b9150611738826116f7565b602082019050919050565b6000602082019050818103600083015261175c81611720565b9050919050565b7f4e487b7100000000000000000000000000000000000000000000000000000000600052601160045260246000fd5b600061179d82610c50565b91507fffffffffffffffffffffffffffffffffffffffffffffffffffffffffffffffff82036117cf576117ce611763565b5b600182019050919050565b7f4e487b7100000000000000000000000000000000000000000000000000000000600052603260045260246000fdfea26469706673582212207ff8784de8605201a0ec533196872898a0fbb326308be5489df2dcf619125dd764736f6c63430008120033608060405234801561001057600080fd5b506115e3806100206000396000f3fe608060405234801561001057600080fd5b50600436106100625760003560e01c806305aeeea7146100675780630869cfbc1461009757806318a231a9146100ca5780632de304ed146100e857806333c5d64114610104578063a0303c4114610122575b600080fd5b610081600480360381019061007c9190610b4f565b610140565b60405161008e9190610bbd565b60405180910390f35b6100b160048036038101906100ac9190610c04565b61017f565b6040516100c19493929190610cd0565b60405180910390f35b6100d2610257565b6040516100df9190610fb9565b60405180910390f35b61010260048036038101906100fd9190611110565b610707565b005b61010c610929565b6040516101199190611187565b60405180910390f35b61012a6109d2565b60405161013791906111a2565b60405180910390f35b6002818154811061015057600080fd5b906000526020600020016000915054906101000a900473ffffffffffffffffffffffffffffffffffffffff1681565b60006020528060005260406000206000915090508060000154908060010180546101a8906111ec565b80601f01602080910402602001604051908101604052809291908181526020018280546101d4906111ec565b80156102215780601f106101f657610100808354040283529160200191610221565b820191906000526020600020905b81548152906001019060200180831161020457829003601f168201915b5050505050908060020154908060030160009054906101000a900473ffffffffffffffffffffffffffffffffffffffff16905084565b6060600060015467ffffffffffffffff81111561027757610276610fe5565b5b6040519080825280602002602001820160405280156102b057816020015b61029d6109d8565b8152602001906001900390816102955790505b50905060005b6001548110156106ff57600080600283815481106102d7576102d661121d565b5b9060005260206000200160009054906101000a900473ffffffffffffffffffffffffffffffffffffffff1673ffffffffffffffffffffffffffffffffffffffff1673ffffffffffffffffffffffffffffffffffffffff1681526020019081526020016000206040518060e001604052908160008201548152602001600182018054610361906111ec565b80601f016020809104026020016040519081016040528092919081815260200182805461038d906111ec565b80156103da5780601f106103af576101008083540402835291602001916103da565b820191906000526020600020905b8154815290600101906020018083116103bd57829003601f168201915b50505050508152602001600282015481526020016003820160009054906101000a900473ffffffffffffffffffffffffffffffffffffffff1673ffffffffffffffffffffffffffffffffffffffff1673ffffffffffffffffffffffffffffffffffffffff16815260200160048201805480602002602001604051908101604052809291908181526020016000905b82821015610514578382906000526020600020018054610487906111ec565b80601f01602080910402602001604051908101604052809291908181526020018280546104b3906111ec565b80156105005780601f106104d557610100808354040283529160200191610500565b820191906000526020600020905b8154815290600101906020018083116104e357829003601f168201915b505050505081526020019060010190610468565b50505050815260200160058201805480602002602001604051908101604052809291908181526020016000905b828210156105ed578382906000526020600020018054610560906111ec565b80601f016020809104026020016040519081016040528092919081815260200182805461058c906111ec565b80156105d95780601f106105ae576101008083540402835291602001916105d9565b820191906000526020600020905b8154815290600101906020018083116105bc57829003601f168201915b505050505081526020019060010190610541565b50505050815260200160068201805480602002602001604051908101604052809291908181526020016000905b828210156106c6578382906000526020600020018054610639906111ec565b80601f0160208091040260200160405190810160405280929190818152602001828054610665906111ec565b80156106b25780601f10610687576101008083540402835291602001916106b2565b820191906000526020600020905b81548152906001019060200180831161069557829003601f168201915b50505050508152602001906001019061061a565b50505050815250508282815181106106e1576106e061121d565b5b602002602001018190525080806106f79061127b565b9150506102b6565b508091505090565b61070f610929565b61074e576040517f08c379a00000000000000000000000000000000000000000000000000000000081526004016107459061130f565b60405180910390fd5b60608060606040518060e0016040528060015481526020018681526020018581526020013373ffffffffffffffffffffffffffffffffffffffff168152602001848152602001838152602001828152506000803373ffffffffffffffffffffffffffffffffffffffff1673ffffffffffffffffffffffffffffffffffffffff1681526020019081526020016000206000820151816000015560208201518160010190816107fb91906114db565b506040820151816002015560608201518160030160006101000a81548173ffffffffffffffffffffffffffffffffffffffff021916908373ffffffffffffffffffffffffffffffffffffffff1602179055506080820151816004019080519060200190610869929190610a2b565b5060a0820151816005019080519060200190610886929190610a2b565b5060c08201518160060190805190602001906108a3929190610a2b565b509050506002339080600181540180825580915050600190039060005260206000200160009091909190916101000a81548173ffffffffffffffffffffffffffffffffffffffff021916908373ffffffffffffffffffffffffffffffffffffffff1602179055506001600081548092919061091d9061127b565b91905055505050505050565b600080600090505b6001548110156109c9573373ffffffffffffffffffffffffffffffffffffffff16600282815481106109665761096561121d565b5b9060005260206000200160009054906101000a900473ffffffffffffffffffffffffffffffffffffffff1673ffffffffffffffffffffffffffffffffffffffff16036109b65760009150506109cf565b80806109c19061127b565b915050610931565b50600190505b90565b60015481565b6040518060e00160405280600081526020016060815260200160008152602001600073ffffffffffffffffffffffffffffffffffffffff1681526020016060815260200160608152602001606081525090565b828054828255906000526020600020908101928215610a73579160200282015b82811115610a72578251829081610a6291906114db565b5091602001919060010190610a4b565b5b509050610a809190610a84565b5090565b5b80821115610aa45760008181610a9b9190610aa8565b50600101610a85565b5090565b508054610ab4906111ec565b6000825580601f10610ac65750610ae5565b601f016020900490600052602060002090810190610ae49190610ae8565b5b50565b5b80821115610b01576000816000905550600101610ae9565b5090565b6000604051905090565b600080fd5b600080fd5b6000819050919050565b610b2c81610b19565b8114610b3757600080fd5b50565b600081359050610b4981610b23565b92915050565b600060208284031215610b6557610b64610b0f565b5b6000610b7384828501610b3a565b91505092915050565b600073ffffffffffffffffffffffffffffffffffffffff82169050919050565b6000610ba782610b7c565b9050919050565b610bb781610b9c565b82525050565b6000602082019050610bd26000830184610bae565b92915050565b610be181610b9c565b8114610bec57600080fd5b50565b600081359050610bfe81610bd8565b92915050565b600060208284031215610c1a57610c19610b0f565b5b6000610c2884828501610bef565b91505092915050565b610c3a81610b19565b82525050565b600081519050919050565b600082825260208201905092915050565b60005b83811015610c7a578082015181840152602081019050610c5f565b60008484015250505050565b6000601f19601f8301169050919050565b6000610ca282610c40565b610cac8185610c4b565b9350610cbc818560208601610c5c565b610cc581610c86565b840191505092915050565b6000608082019050610ce56000830187610c31565b8181036020830152610cf78186610c97565b9050610d066040830185610c31565b610d136060830184610bae565b95945050505050565b600081519050919050565b600082825260208201905092915050565b6000819050602082019050919050565b610d5181610b19565b82525050565b600082825260208201905092915050565b6000610d7382610c40565b610d7d8185610d57565b9350610d8d818560208601610c5c565b610d9681610c86565b840191505092915050565b610daa81610b9c565b82525050565b600081519050919050565b600082825260208201905092915050565b6000819050602082019050919050565b6000610de88383610d68565b905092915050565b6000602082019050919050565b6000610e0882610db0565b610e128185610dbb565b935083602082028501610e2485610dcc565b8060005b85811015610e605784840389528151610e418582610ddc565b9450610e4c83610df0565b925060208a01995050600181019050610e28565b50829750879550505050505092915050565b600060e083016000830151610e8a6000860182610d48565b5060208301518482036020860152610ea28282610d68565b9150506040830151610eb76040860182610d48565b506060830151610eca6060860182610da1565b5060808301518482036080860152610ee28282610dfd565b91505060a083015184820360a0860152610efc8282610dfd565b91505060c083015184820360c0860152610f168282610dfd565b9150508091505092915050565b6000610f2f8383610e72565b905092915050565b6000602082019050919050565b6000610f4f82610d1c565b610f598185610d27565b935083602082028501610f6b85610d38565b8060005b85811015610fa75784840389528151610f888582610f23565b9450610f9383610f37565b925060208a01995050600181019050610f6f565b50829750879550505050505092915050565b60006020820190508181036000830152610fd38184610f44565b905092915050565b600080fd5b600080fd5b7f4e487b7100000000000000000000000000000000000000000000000000000000600052604160045260246000fd5b61101d82610c86565b810181811067ffffffffffffffff8211171561103c5761103b610fe5565b5b80604052505050565b600061104f610b05565b905061105b8282611014565b919050565b600067ffffffffffffffff82111561107b5761107a610fe5565b5b61108482610c86565b9050602081019050919050565b82818337600083830152505050565b60006110b36110ae84611060565b611045565b9050828152602081018484840111156110cf576110ce610fe0565b5b6110da848285611091565b509392505050565b600082601f8301126110f7576110f6610fdb565b5b81356111078482602086016110a0565b91505092915050565b6000806040838503121561112757611126610b0f565b5b600083013567ffffffffffffffff81111561114557611144610b14565b5b611151858286016110e2565b925050602061116285828601610b3a565b9150509250929050565b60008115159050919050565b6111818161116c565b82525050565b600060208201905061119c6000830184611178565b92915050565b60006020820190506111b76000830184610c31565b92915050565b7f4e487b7100000000000000000000000000000000000000000000000000000000600052602260045260246000fd5b6000600282049050600182168061120457607f821691505b602082108103611217576112166111bd565b5b50919050565b7f4e487b7100000000000000000000000000000000000000000000000000000000600052603260045260246000fd5b7f4e487b7100000000000000000000000000000000000000000000000000000000600052601160045260246000fd5b600061128682610b19565b91507fffffffffffffffffffffffffffffffffffffffffffffffffffffffffffffffff82036112b8576112b761124c565b5b600182019050919050565b7f50617469656e7420616c72656164792065786973747300000000000000000000600082015250565b60006112f9601683610c4b565b9150611304826112c3565b602082019050919050565b60006020820190508181036000830152611328816112ec565b9050919050565b60008190508160005260206000209050919050565b60006020601f8301049050919050565b600082821b905092915050565b6000600883026113917fffffffffffffffffffffffffffffffffffffffffffffffffffffffffffffffff82611354565b61139b8683611354565b95508019841693508086168417925050509392505050565b6000819050919050565b60006113d86113d36113ce84610b19565b6113b3565b610b19565b9050919050565b6000819050919050565b6113f2836113bd565b6114066113fe826113df565b848454611361565b825550505050565b600090565b61141b61140e565b6114268184846113e9565b505050565b5b8181101561144a5761143f600082611413565b60018101905061142c565b5050565b601f82111561148f576114608161132f565b61146984611344565b81016020851015611478578190505b61148c61148485611344565b83018261142b565b50505b505050565b600082821c905092915050565b60006114b260001984600802611494565b1980831691505092915050565b60006114cb83836114a1565b9150826002028217905092915050565b6114e482610c40565b67ffffffffffffffff8111156114fd576114fc610fe5565b5b61150782546111ec565b61151282828561144e565b600060209050601f8311600181146115455760008415611533578287015190505b61153d85826114bf565b8655506115a5565b601f1984166115538661132f565b60005b8281101561157b57848901518255600182019150602085019450602081019050611556565b868310156115985784890151611594601f8916826114a1565b8355505b6001600288020188555050505b50505050505056fea2646970667358221220e044ebc4ee16da9f096e13612eba1516ac9f3cd92e9973a7aa6ca4c8a33df11064736f6c63430008120033",
			"opcodes": "PUSH1 0x80 PUSH1 0x40 MSTORE CALLVALUE DUP1 ISZERO PUSH3 0x11 JUMPI PUSH1 0x0 DUP1 REVERT JUMPDEST POP PUSH1 0x40 MLOAD PUSH3 0x20 SWAP1 PUSH3 0x131 JUMP JUMPDEST PUSH1 0x40 MLOAD DUP1 SWAP2 SUB SWAP1 PUSH1 0x0 CREATE DUP1 ISZERO DUP1 ISZERO PUSH3 0x3D JUMPI RETURNDATASIZE PUSH1 0x0 DUP1 RETURNDATACOPY RETURNDATASIZE PUSH1 0x0 REVERT JUMPDEST POP PUSH1 0x1 PUSH1 0x0 PUSH2 0x100 EXP DUP2 SLOAD DUP2 PUSH20 0xFFFFFFFFFFFFFFFFFFFFFFFFFFFFFFFFFFFFFFFF MUL NOT AND SWAP1 DUP4 PUSH20 0xFFFFFFFFFFFFFFFFFFFFFFFFFFFFFFFFFFFFFFFF AND MUL OR SWAP1 SSTORE POP PUSH1 0x40 MLOAD PUSH3 0x8C SWAP1 PUSH3 0x13F JUMP JUMPDEST PUSH1 0x40 MLOAD DUP1 SWAP2 SUB SWAP1 PUSH1 0x0 CREATE DUP1 ISZERO DUP1 ISZERO PUSH3 0xA9 JUMPI RETURNDATASIZE PUSH1 0x0 DUP1 RETURNDATACOPY RETURNDATASIZE PUSH1 0x0 REVERT JUMPDEST POP PUSH1 0x2 PUSH1 0x0 PUSH2 0x100 EXP DUP2 SLOAD DUP2 PUSH20 0xFFFFFFFFFFFFFFFFFFFFFFFFFFFFFFFFFFFFFFFF MUL NOT AND SWAP1 DUP4 PUSH20 0xFFFFFFFFFFFFFFFFFFFFFFFFFFFFFFFFFFFFFFFF AND MUL OR SWAP1 SSTORE POP CALLER PUSH1 0x3 PUSH1 0x0 PUSH2 0x100 EXP DUP2 SLOAD DUP2 PUSH20 0xFFFFFFFFFFFFFFFFFFFFFFFFFFFFFFFFFFFFFFFF MUL NOT AND SWAP1 DUP4 PUSH20 0xFFFFFFFFFFFFFFFFFFFFFFFFFFFFFFFFFFFFFFFF AND MUL OR SWAP1 SSTORE POP PUSH3 0x14D JUMP JUMPDEST PUSH2 0x185F DUP1 PUSH3 0x1CD9 DUP4 CODECOPY ADD SWAP1 JUMP JUMPDEST PUSH2 0x1603 DUP1 PUSH3 0x3538 DUP4 CODECOPY ADD SWAP1 JUMP JUMPDEST PUSH2 0x1B7C DUP1 PUSH3 0x15D PUSH1 0x0 CODECOPY PUSH1 0x0 RETURN INVALID PUSH1 0x80 PUSH1 0x40 MSTORE CALLVALUE DUP1 ISZERO PUSH2 0x10 JUMPI PUSH1 0x0 DUP1 REVERT JUMPDEST POP PUSH1 0x4 CALLDATASIZE LT PUSH2 0x88 JUMPI PUSH1 0x0 CALLDATALOAD PUSH1 0xE0 SHR DUP1 PUSH4 0x8DA5CB5B GT PUSH2 0x5B JUMPI DUP1 PUSH4 0x8DA5CB5B EQ PUSH2 0xFF JUMPI DUP1 PUSH4 0xC38831AE EQ PUSH2 0x11D JUMPI DUP1 PUSH4 0xD92631DB EQ PUSH2 0x14E JUMPI DUP1 PUSH4 0xF0D95090 EQ PUSH2 0x16C JUMPI PUSH2 0x88 JUMP JUMPDEST DUP1 PUSH4 0x18A231A9 EQ PUSH2 0x8D JUMPI DUP1 PUSH4 0x2DE304ED EQ PUSH2 0xAB JUMPI DUP1 PUSH4 0x5AB2CE22 EQ PUSH2 0xC7 JUMPI DUP1 PUSH4 0x87446B6E EQ PUSH2 0xE3 JUMPI JUMPDEST PUSH1 0x0 DUP1 REVERT JUMPDEST PUSH2 0x95 PUSH2 0x18A JUMP JUMPDEST PUSH1 0x40 MLOAD PUSH2 0xA2 SWAP2 SWAP1 PUSH2 0xB1E JUMP JUMPDEST PUSH1 0x40 MLOAD DUP1 SWAP2 SUB SWAP1 RETURN JUMPDEST PUSH2 0xC5 PUSH1 0x4 DUP1 CALLDATASIZE SUB DUP2 ADD SWAP1 PUSH2 0xC0 SWAP2 SWAP1 PUSH2 0xCB5 JUMP JUMPDEST PUSH2 0x227 JUMP JUMPDEST STOP JUMPDEST PUSH2 0xE1 PUSH1 0x4 DUP1 CALLDATASIZE SUB DUP2 ADD SWAP1 PUSH2 0xDC SWAP2 SWAP1 PUSH2 0xD11 JUMP JUMPDEST PUSH2 0x2BA JUMP JUMPDEST STOP JUMPDEST PUSH2 0xFD PUSH1 0x4 DUP1 CALLDATASIZE SUB DUP2 ADD SWAP1 PUSH2 0xF8 SWAP2 SWAP1 PUSH2 0xD89 JUMP JUMPDEST PUSH2 0x358 JUMP JUMPDEST STOP JUMPDEST PUSH2 0x107 PUSH2 0x3EE JUMP JUMPDEST PUSH1 0x40 MLOAD PUSH2 0x114 SWAP2 SWAP1 PUSH2 0xE23 JUMP JUMPDEST PUSH1 0x40 MLOAD DUP1 SWAP2 SUB SWAP1 RETURN JUMPDEST PUSH2 0x137 PUSH1 0x4 DUP1 CALLDATASIZE SUB DUP2 ADD SWAP1 PUSH2 0x132 SWAP2 SWAP1 PUSH2 0xE3E JUMP JUMPDEST PUSH2 0x414 JUMP JUMPDEST PUSH1 0x40 MLOAD PUSH2 0x145 SWAP3 SWAP2 SWAP1 PUSH2 0xEB5 JUMP JUMPDEST PUSH1 0x40 MLOAD DUP1 SWAP2 SUB SWAP1 RETURN JUMPDEST PUSH2 0x156 PUSH2 0x558 JUMP JUMPDEST PUSH1 0x40 MLOAD PUSH2 0x163 SWAP2 SWAP1 PUSH2 0xFF2 JUMP JUMPDEST PUSH1 0x40 MLOAD DUP1 SWAP2 SUB SWAP1 RETURN JUMPDEST PUSH2 0x174 PUSH2 0x567 JUMP JUMPDEST PUSH1 0x40 MLOAD PUSH2 0x181 SWAP2 SWAP1 PUSH2 0x1153 JUMP JUMPDEST PUSH1 0x40 MLOAD DUP1 SWAP2 SUB SWAP1 RETURN JUMPDEST PUSH1 0x60 PUSH1 0x2 PUSH1 0x0 SWAP1 SLOAD SWAP1 PUSH2 0x100 EXP SWAP1 DIV PUSH20 0xFFFFFFFFFFFFFFFFFFFFFFFFFFFFFFFFFFFFFFFF AND PUSH20 0xFFFFFFFFFFFFFFFFFFFFFFFFFFFFFFFFFFFFFFFF AND PUSH4 0x18A231A9 PUSH1 0x40 MLOAD DUP2 PUSH4 0xFFFFFFFF AND PUSH1 0xE0 SHL DUP2 MSTORE PUSH1 0x4 ADD PUSH1 0x0 PUSH1 0x40 MLOAD DUP1 DUP4 SUB DUP2 DUP7 GAS STATICCALL ISZERO DUP1 ISZERO PUSH2 0x1F9 JUMPI RETURNDATASIZE PUSH1 0x0 DUP1 RETURNDATACOPY RETURNDATASIZE PUSH1 0x0 REVERT JUMPDEST POP POP POP POP PUSH1 0x40 MLOAD RETURNDATASIZE PUSH1 0x0 DUP3 RETURNDATACOPY RETURNDATASIZE PUSH1 0x1F NOT PUSH1 0x1F DUP3 ADD AND DUP3 ADD DUP1 PUSH1 0x40 MSTORE POP DUP2 ADD SWAP1 PUSH2 0x222 SWAP2 SWAP1 PUSH2 0x151B JUMP JUMPDEST SWAP1 POP SWAP1 JUMP JUMPDEST PUSH1 0x2 PUSH1 0x0 SWAP1 SLOAD SWAP1 PUSH2 0x100 EXP SWAP1 DIV PUSH20 0xFFFFFFFFFFFFFFFFFFFFFFFFFFFFFFFFFFFFFFFF AND PUSH20 0xFFFFFFFFFFFFFFFFFFFFFFFFFFFFFFFFFFFFFFFF AND PUSH4 0x2DE304ED DUP4 DUP4 PUSH1 0x40 MLOAD DUP4 PUSH4 0xFFFFFFFF AND PUSH1 0xE0 SHL DUP2 MSTORE PUSH1 0x4 ADD PUSH2 0x284 SWAP3 SWAP2 SWAP1 PUSH2 0x1573 JUMP JUMPDEST PUSH1 0x0 PUSH1 0x40 MLOAD DUP1 DUP4 SUB DUP2 PUSH1 0x0 DUP8 DUP1 EXTCODESIZE ISZERO DUP1 ISZERO PUSH2 0x29E JUMPI PUSH1 0x0 DUP1 REVERT JUMPDEST POP GAS CALL ISZERO DUP1 ISZERO PUSH2 0x2B2 JUMPI RETURNDATASIZE PUSH1 0x0 DUP1 RETURNDATACOPY RETURNDATASIZE PUSH1 0x0 REVERT JUMPDEST POP POP POP POP POP POP JUMP JUMPDEST PUSH1 0x3 PUSH1 0x0 SWAP1 SLOAD SWAP1 PUSH2 0x100 EXP SWAP1 DIV PUSH20 0xFFFFFFFFFFFFFFFFFFFFFFFFFFFFFFFFFFFFFFFF AND PUSH20 0xFFFFFFFFFFFFFFFFFFFFFFFFFFFFFFFFFFFFFFFF AND CALLER PUSH20 0xFFFFFFFFFFFFFFFFFFFFFFFFFFFFFFFFFFFFFFFF AND EQ PUSH2 0x34A JUMPI PUSH1 0x40 MLOAD PUSH32 0x8C379A000000000000000000000000000000000000000000000000000000000 DUP2 MSTORE PUSH1 0x4 ADD PUSH2 0x341 SWAP1 PUSH2 0x1615 JUMP JUMPDEST PUSH1 0x40 MLOAD DUP1 SWAP2 SUB SWAP1 REVERT JUMPDEST PUSH2 0x354 DUP3 DUP3 PUSH2 0x604 JUMP JUMPDEST POP POP JUMP JUMPDEST PUSH1 0x1 PUSH1 0x0 SWAP1 SLOAD SWAP1 PUSH2 0x100 EXP SWAP1 DIV PUSH20 0xFFFFFFFFFFFFFFFFFFFFFFFFFFFFFFFFFFFFFFFF AND PUSH20 0xFFFFFFFFFFFFFFFFFFFFFFFFFFFFFFFFFFFFFFFF AND PUSH4 0x87446B6E DUP5 DUP5 DUP5 PUSH1 0x40 MLOAD DUP5 PUSH4 0xFFFFFFFF AND PUSH1 0xE0 SHL DUP2 MSTORE PUSH1 0x4 ADD PUSH2 0x3B7 SWAP4 SWAP3 SWAP2 SWAP1 PUSH2 0x1635 JUMP JUMPDEST PUSH1 0x0 PUSH1 0x40 MLOAD DUP1 DUP4 SUB DUP2 PUSH1 0x0 DUP8 DUP1 EXTCODESIZE ISZERO DUP1 ISZERO PUSH2 0x3D1 JUMPI PUSH1 0x0 DUP1 REVERT JUMPDEST POP GAS CALL ISZERO DUP1 ISZERO PUSH2 0x3E5 JUMPI RETURNDATASIZE PUSH1 0x0 DUP1 RETURNDATACOPY RETURNDATASIZE PUSH1 0x0 REVERT JUMPDEST POP POP POP POP POP POP POP JUMP JUMPDEST PUSH1 0x3 PUSH1 0x0 SWAP1 SLOAD SWAP1 PUSH2 0x100 EXP SWAP1 DIV PUSH20 0xFFFFFFFFFFFFFFFFFFFFFFFFFFFFFFFFFFFFFFFF AND DUP2 JUMP JUMPDEST PUSH1 0x0 DUP2 DUP2 SLOAD DUP2 LT PUSH2 0x424 JUMPI PUSH1 0x0 DUP1 REVERT JUMPDEST SWAP1 PUSH1 0x0 MSTORE PUSH1 0x20 PUSH1 0x0 KECCAK256 SWAP1 PUSH1 0x2 MUL ADD PUSH1 0x0 SWAP2 POP SWAP1 POP DUP1 PUSH1 0x0 ADD DUP1 SLOAD PUSH2 0x447 SWAP1 PUSH2 0x16A9 JUMP JUMPDEST DUP1 PUSH1 0x1F ADD PUSH1 0x20 DUP1 SWAP2 DIV MUL PUSH1 0x20 ADD PUSH1 0x40 MLOAD SWAP1 DUP2 ADD PUSH1 0x40 MSTORE DUP1 SWAP3 SWAP2 SWAP1 DUP2 DUP2 MSTORE PUSH1 0x20 ADD DUP3 DUP1 SLOAD PUSH2 0x473 SWAP1 PUSH2 0x16A9 JUMP JUMPDEST DUP1 ISZERO PUSH2 0x4C0 JUMPI DUP1 PUSH1 0x1F LT PUSH2 0x495 JUMPI PUSH2 0x100 DUP1 DUP4 SLOAD DIV MUL DUP4 MSTORE SWAP2 PUSH1 0x20 ADD SWAP2 PUSH2 0x4C0 JUMP JUMPDEST DUP3 ADD SWAP2 SWAP1 PUSH1 0x0 MSTORE PUSH1 0x20 PUSH1 0x0 KECCAK256 SWAP1 JUMPDEST DUP2 SLOAD DUP2 MSTORE SWAP1 PUSH1 0x1 ADD SWAP1 PUSH1 0x20 ADD DUP1 DUP4 GT PUSH2 0x4A3 JUMPI DUP3 SWAP1 SUB PUSH1 0x1F AND DUP3 ADD SWAP2 JUMPDEST POP POP POP POP POP SWAP1 DUP1 PUSH1 0x1 ADD DUP1 SLOAD PUSH2 0x4D5 SWAP1 PUSH2 0x16A9 JUMP JUMPDEST DUP1 PUSH1 0x1F ADD PUSH1 0x20 DUP1 SWAP2 DIV MUL PUSH1 0x20 ADD PUSH1 0x40 MLOAD SWAP1 DUP2 ADD PUSH1 0x40 MSTORE DUP1 SWAP3 SWAP2 SWAP1 DUP2 DUP2 MSTORE PUSH1 0x20 ADD DUP3 DUP1 SLOAD PUSH2 0x501 SWAP1 PUSH2 0x16A9 JUMP JUMPDEST DUP1 ISZERO PUSH2 0x54E JUMPI DUP1 PUSH1 0x1F LT PUSH2 0x523 JUMPI PUSH2 0x100 DUP1 DUP4 SLOAD DIV MUL DUP4 MSTORE SWAP2 PUSH1 0x20 ADD SWAP2 PUSH2 0x54E JUMP JUMPDEST DUP3 ADD SWAP2 SWAP1 PUSH1 0x0 MSTORE PUSH1 0x20 PUSH1 0x0 KECCAK256 SWAP1 JUMPDEST DUP2 SLOAD DUP2 MSTORE SWAP1 PUSH1 0x1 ADD SWAP1 PUSH1 0x20 ADD DUP1 DUP4 GT PUSH2 0x531 JUMPI DUP3 SWAP1 SUB PUSH1 0x1F AND DUP3 ADD SWAP2 JUMPDEST POP POP POP POP POP SWAP1 POP DUP3 JUMP JUMPDEST PUSH1 0x60 PUSH2 0x562 PUSH2 0x67C JUMP JUMPDEST SWAP1 POP SWAP1 JUMP JUMPDEST PUSH1 0x60 PUSH1 0x1 PUSH1 0x0 SWAP1 SLOAD SWAP1 PUSH2 0x100 EXP SWAP1 DIV PUSH20 0xFFFFFFFFFFFFFFFFFFFFFFFFFFFFFFFFFFFFFFFF AND PUSH20 0xFFFFFFFFFFFFFFFFFFFFFFFFFFFFFFFFFFFFFFFF AND PUSH4 0xF0D95090 PUSH1 0x40 MLOAD DUP2 PUSH4 0xFFFFFFFF AND PUSH1 0xE0 SHL DUP2 MSTORE PUSH1 0x4 ADD PUSH1 0x0 PUSH1 0x40 MLOAD DUP1 DUP4 SUB DUP2 DUP7 GAS STATICCALL ISZERO DUP1 ISZERO PUSH2 0x5D6 JUMPI RETURNDATASIZE PUSH1 0x0 DUP1 RETURNDATACOPY RETURNDATASIZE PUSH1 0x0 REVERT JUMPDEST POP POP POP POP PUSH1 0x40 MLOAD RETURNDATASIZE PUSH1 0x0 DUP3 RETURNDATACOPY RETURNDATASIZE PUSH1 0x1F NOT PUSH1 0x1F DUP3 ADD AND DUP3 ADD DUP1 PUSH1 0x40 MSTORE POP DUP2 ADD SWAP1 PUSH2 0x5FF SWAP2 SWAP1 PUSH2 0x187F JUMP JUMPDEST SWAP1 POP SWAP1 JUMP JUMPDEST PUSH1 0x0 PUSH1 0x40 MLOAD DUP1 PUSH1 0x40 ADD PUSH1 0x40 MSTORE DUP1 DUP5 DUP2 MSTORE PUSH1 0x20 ADD DUP4 DUP2 MSTORE POP SWAP1 POP PUSH1 0x0 DUP2 SWAP1 DUP1 PUSH1 0x1 DUP2 SLOAD ADD DUP1 DUP3 SSTORE DUP1 SWAP2 POP POP PUSH1 0x1 SWAP1 SUB SWAP1 PUSH1 0x0 MSTORE PUSH1 0x20 PUSH1 0x0 KECCAK256 SWAP1 PUSH1 0x2 MUL ADD PUSH1 0x0 SWAP1 SWAP2 SWAP1 SWAP2 SWAP1 SWAP2 POP PUSH1 0x0 DUP3 ADD MLOAD DUP2 PUSH1 0x0 ADD SWAP1 DUP2 PUSH2 0x65E SWAP2 SWAP1 PUSH2 0x1A74 JUMP JUMPDEST POP PUSH1 0x20 DUP3 ADD MLOAD DUP2 PUSH1 0x1 ADD SWAP1 DUP2 PUSH2 0x674 SWAP2 SWAP1 PUSH2 0x1A74 JUMP JUMPDEST POP POP POP POP POP POP JUMP JUMPDEST PUSH1 0x60 PUSH1 0x0 DUP1 SLOAD DUP1 PUSH1 0x20 MUL PUSH1 0x20 ADD PUSH1 0x40 MLOAD SWAP1 DUP2 ADD PUSH1 0x40 MSTORE DUP1 SWAP3 SWAP2 SWAP1 DUP2 DUP2 MSTORE PUSH1 0x20 ADD PUSH1 0x0 SWAP1 JUMPDEST DUP3 DUP3 LT ISZERO PUSH2 0x7F6 JUMPI DUP4 DUP3 SWAP1 PUSH1 0x0 MSTORE PUSH1 0x20 PUSH1 0x0 KECCAK256 SWAP1 PUSH1 0x2 MUL ADD PUSH1 0x40 MLOAD DUP1 PUSH1 0x40 ADD PUSH1 0x40 MSTORE SWAP1 DUP2 PUSH1 0x0 DUP3 ADD DUP1 SLOAD PUSH2 0x6D3 SWAP1 PUSH2 0x16A9 JUMP JUMPDEST DUP1 PUSH1 0x1F ADD PUSH1 0x20 DUP1 SWAP2 DIV MUL PUSH1 0x20 ADD PUSH1 0x40 MLOAD SWAP1 DUP2 ADD PUSH1 0x40 MSTORE DUP1 SWAP3 SWAP2 SWAP1 DUP2 DUP2 MSTORE PUSH1 0x20 ADD DUP3 DUP1 SLOAD PUSH2 0x6FF SWAP1 PUSH2 0x16A9 JUMP JUMPDEST DUP1 ISZERO PUSH2 0x74C JUMPI DUP1 PUSH1 0x1F LT PUSH2 0x721 JUMPI PUSH2 0x100 DUP1 DUP4 SLOAD DIV MUL DUP4 MSTORE SWAP2 PUSH1 0x20 ADD SWAP2 PUSH2 0x74C JUMP JUMPDEST DUP3 ADD SWAP2 SWAP1 PUSH1 0x0 MSTORE PUSH1 0x20 PUSH1 0x0 KECCAK256 SWAP1 JUMPDEST DUP2 SLOAD DUP2 MSTORE SWAP1 PUSH1 0x1 ADD SWAP1 PUSH1 0x20 ADD DUP1 DUP4 GT PUSH2 0x72F JUMPI DUP3 SWAP1 SUB PUSH1 0x1F AND DUP3 ADD SWAP2 JUMPDEST POP POP POP POP POP DUP2 MSTORE PUSH1 0x20 ADD PUSH1 0x1 DUP3 ADD DUP1 SLOAD PUSH2 0x765 SWAP1 PUSH2 0x16A9 JUMP JUMPDEST DUP1 PUSH1 0x1F ADD PUSH1 0x20 DUP1 SWAP2 DIV MUL PUSH1 0x20 ADD PUSH1 0x40 MLOAD SWAP1 DUP2 ADD PUSH1 0x40 MSTORE DUP1 SWAP3 SWAP2 SWAP1 DUP2 DUP2 MSTORE PUSH1 0x20 ADD DUP3 DUP1 SLOAD PUSH2 0x791 SWAP1 PUSH2 0x16A9 JUMP JUMPDEST DUP1 ISZERO PUSH2 0x7DE JUMPI DUP1 PUSH1 0x1F LT PUSH2 0x7B3 JUMPI PUSH2 0x100 DUP1 DUP4 SLOAD DIV MUL DUP4 MSTORE SWAP2 PUSH1 0x20 ADD SWAP2 PUSH2 0x7DE JUMP JUMPDEST DUP3 ADD SWAP2 SWAP1 PUSH1 0x0 MSTORE PUSH1 0x20 PUSH1 0x0 KECCAK256 SWAP1 JUMPDEST DUP2 SLOAD DUP2 MSTORE SWAP1 PUSH1 0x1 ADD SWAP1 PUSH1 0x20 ADD DUP1 DUP4 GT PUSH2 0x7C1 JUMPI DUP3 SWAP1 SUB PUSH1 0x1F AND DUP3 ADD SWAP2 JUMPDEST POP POP POP POP POP DUP2 MSTORE POP POP DUP2 MSTORE PUSH1 0x20 ADD SWAP1 PUSH1 0x1 ADD SWAP1 PUSH2 0x6A0 JUMP JUMPDEST POP POP POP POP SWAP1 POP SWAP1 JUMP JUMPDEST PUSH1 0x0 DUP2 MLOAD SWAP1 POP SWAP2 SWAP1 POP JUMP JUMPDEST PUSH1 0x0 DUP3 DUP3 MSTORE PUSH1 0x20 DUP3 ADD SWAP1 POP SWAP3 SWAP2 POP POP JUMP JUMPDEST PUSH1 0x0 DUP2 SWAP1 POP PUSH1 0x20 DUP3 ADD SWAP1 POP SWAP2 SWAP1 POP JUMP JUMPDEST PUSH1 0x0 DUP2 SWAP1 POP SWAP2 SWAP1 POP JUMP JUMPDEST PUSH2 0x83E DUP2 PUSH2 0x82B JUMP JUMPDEST DUP3 MSTORE POP POP JUMP JUMPDEST PUSH1 0x0 DUP2 MLOAD SWAP1 POP SWAP2 SWAP1 POP JUMP JUMPDEST PUSH1 0x0 DUP3 DUP3 MSTORE PUSH1 0x20 DUP3 ADD SWAP1 POP SWAP3 SWAP2 POP POP JUMP JUMPDEST PUSH1 0x0 JUMPDEST DUP4 DUP2 LT ISZERO PUSH2 0x87E JUMPI DUP1 DUP3 ADD MLOAD DUP2 DUP5 ADD MSTORE PUSH1 0x20 DUP2 ADD SWAP1 POP PUSH2 0x863 JUMP JUMPDEST PUSH1 0x0 DUP5 DUP5 ADD MSTORE POP POP POP POP JUMP JUMPDEST PUSH1 0x0 PUSH1 0x1F NOT PUSH1 0x1F DUP4 ADD AND SWAP1 POP SWAP2 SWAP1 POP JUMP JUMPDEST PUSH1 0x0 PUSH2 0x8A6 DUP3 PUSH2 0x844 JUMP JUMPDEST PUSH2 0x8B0 DUP2 DUP6 PUSH2 0x84F JUMP JUMPDEST SWAP4 POP PUSH2 0x8C0 DUP2 DUP6 PUSH1 0x20 DUP7 ADD PUSH2 0x860 JUMP JUMPDEST PUSH2 0x8C9 DUP2 PUSH2 0x88A JUMP JUMPDEST DUP5 ADD SWAP2 POP POP SWAP3 SWAP2 POP POP JUMP JUMPDEST PUSH1 0x0 PUSH20 0xFFFFFFFFFFFFFFFFFFFFFFFFFFFFFFFFFFFFFFFF DUP3 AND SWAP1 POP SWAP2 SWAP1 POP JUMP JUMPDEST PUSH1 0x0 PUSH2 0x8FF DUP3 PUSH2 0x8D4 JUMP JUMPDEST SWAP1 POP SWAP2 SWAP1 POP JUMP JUMPDEST PUSH2 0x90F DUP2 PUSH2 0x8F4 JUMP JUMPDEST DUP3 MSTORE POP POP JUMP JUMPDEST PUSH1 0x0 DUP2 MLOAD SWAP1 POP SWAP2 SWAP1 POP JUMP JUMPDEST PUSH1 0x0 DUP3 DUP3 MSTORE PUSH1 0x20 DUP3 ADD SWAP1 POP SWAP3 SWAP2 POP POP JUMP JUMPDEST PUSH1 0x0 DUP2 SWAP1 POP PUSH1 0x20 DUP3 ADD SWAP1 POP SWAP2 SWAP1 POP JUMP JUMPDEST PUSH1 0x0 PUSH2 0x94D DUP4 DUP4 PUSH2 0x89B JUMP JUMPDEST SWAP1 POP SWAP3 SWAP2 POP POP JUMP JUMPDEST PUSH1 0x0 PUSH1 0x20 DUP3 ADD SWAP1 POP SWAP2 SWAP1 POP JUMP JUMPDEST PUSH1 0x0 PUSH2 0x96D DUP3 PUSH2 0x915 JUMP JUMPDEST PUSH2 0x977 DUP2 DUP6 PUSH2 0x920 JUMP JUMPDEST SWAP4 POP DUP4 PUSH1 0x20 DUP3 MUL DUP6 ADD PUSH2 0x989 DUP6 PUSH2 0x931 JUMP JUMPDEST DUP1 PUSH1 0x0 JUMPDEST DUP6 DUP2 LT ISZERO PUSH2 0x9C5 JUMPI DUP5 DUP5 SUB DUP10 MSTORE DUP2 MLOAD PUSH2 0x9A6 DUP6 DUP3 PUSH2 0x941 JUMP JUMPDEST SWAP5 POP PUSH2 0x9B1 DUP4 PUSH2 0x955 JUMP JUMPDEST SWAP3 POP PUSH1 0x20 DUP11 ADD SWAP10 POP POP PUSH1 0x1 DUP2 ADD SWAP1 POP PUSH2 0x98D JUMP JUMPDEST POP DUP3 SWAP8 POP DUP8 SWAP6 POP POP POP POP POP POP SWAP3 SWAP2 POP POP JUMP JUMPDEST PUSH1 0x0 PUSH1 0xE0 DUP4 ADD PUSH1 0x0 DUP4 ADD MLOAD PUSH2 0x9EF PUSH1 0x0 DUP7 ADD DUP3 PUSH2 0x835 JUMP JUMPDEST POP PUSH1 0x20 DUP4 ADD MLOAD DUP5 DUP3 SUB PUSH1 0x20 DUP7 ADD MSTORE PUSH2 0xA07 DUP3 DUP3 PUSH2 0x89B JUMP JUMPDEST SWAP2 POP POP PUSH1 0x40 DUP4 ADD MLOAD PUSH2 0xA1C PUSH1 0x40 DUP7 ADD DUP3 PUSH2 0x835 JUMP JUMPDEST POP PUSH1 0x60 DUP4 ADD MLOAD PUSH2 0xA2F PUSH1 0x60 DUP7 ADD DUP3 PUSH2 0x906 JUMP JUMPDEST POP PUSH1 0x80 DUP4 ADD MLOAD DUP5 DUP3 SUB PUSH1 0x80 DUP7 ADD MSTORE PUSH2 0xA47 DUP3 DUP3 PUSH2 0x962 JUMP JUMPDEST SWAP2 POP POP PUSH1 0xA0 DUP4 ADD MLOAD DUP5 DUP3 SUB PUSH1 0xA0 DUP7 ADD MSTORE PUSH2 0xA61 DUP3 DUP3 PUSH2 0x962 JUMP JUMPDEST SWAP2 POP POP PUSH1 0xC0 DUP4 ADD MLOAD DUP5 DUP3 SUB PUSH1 0xC0 DUP7 ADD MSTORE PUSH2 0xA7B DUP3 DUP3 PUSH2 0x962 JUMP JUMPDEST SWAP2 POP POP DUP1 SWAP2 POP POP SWAP3 SWAP2 POP POP JUMP JUMPDEST PUSH1 0x0 PUSH2 0xA94 DUP4 DUP4 PUSH2 0x9D7 JUMP JUMPDEST SWAP1 POP SWAP3 SWAP2 POP POP JUMP JUMPDEST PUSH1 0x0 PUSH1 0x20 DUP3 ADD SWAP1 POP SWAP2 SWAP1 POP JUMP JUMPDEST PUSH1 0x0 PUSH2 0xAB4 DUP3 PUSH2 0x7FF JUMP JUMPDEST PUSH2 0xABE DUP2 DUP6 PUSH2 0x80A JUMP JUMPDEST SWAP4 POP DUP4 PUSH1 0x20 DUP3 MUL DUP6 ADD PUSH2 0xAD0 DUP6 PUSH2 0x81B JUMP JUMPDEST DUP1 PUSH1 0x0 JUMPDEST DUP6 DUP2 LT ISZERO PUSH2 0xB0C JUMPI DUP5 DUP5 SUB DUP10 MSTORE DUP2 MLOAD PUSH2 0xAED DUP6 DUP3 PUSH2 0xA88 JUMP JUMPDEST SWAP5 POP PUSH2 0xAF8 DUP4 PUSH2 0xA9C JUMP JUMPDEST SWAP3 POP PUSH1 0x20 DUP11 ADD SWAP10 POP POP PUSH1 0x1 DUP2 ADD SWAP1 POP PUSH2 0xAD4 JUMP JUMPDEST POP DUP3 SWAP8 POP DUP8 SWAP6 POP POP POP POP POP POP SWAP3 SWAP2 POP POP JUMP JUMPDEST PUSH1 0x0 PUSH1 0x20 DUP3 ADD SWAP1 POP DUP2 DUP2 SUB PUSH1 0x0 DUP4 ADD MSTORE PUSH2 0xB38 DUP2 DUP5 PUSH2 0xAA9 JUMP JUMPDEST SWAP1 POP SWAP3 SWAP2 POP POP JUMP JUMPDEST PUSH1 0x0 PUSH1 0x40 MLOAD SWAP1 POP SWAP1 JUMP JUMPDEST PUSH1 0x0 DUP1 REVERT JUMPDEST PUSH1 0x0 DUP1 REVERT JUMPDEST PUSH1 0x0 DUP1 REVERT JUMPDEST PUSH1 0x0 DUP1 REVERT JUMPDEST PUSH32 0x4E487B7100000000000000000000000000000000000000000000000000000000 PUSH1 0x0 MSTORE PUSH1 0x41 PUSH1 0x4 MSTORE PUSH1 0x24 PUSH1 0x0 REVERT JUMPDEST PUSH2 0xB96 DUP3 PUSH2 0x88A JUMP JUMPDEST DUP2 ADD DUP2 DUP2 LT PUSH8 0xFFFFFFFFFFFFFFFF DUP3 GT OR ISZERO PUSH2 0xBB5 JUMPI PUSH2 0xBB4 PUSH2 0xB5E JUMP JUMPDEST JUMPDEST DUP1 PUSH1 0x40 MSTORE POP POP POP JUMP JUMPDEST PUSH1 0x0 PUSH2 0xBC8 PUSH2 0xB40 JUMP JUMPDEST SWAP1 POP PUSH2 0xBD4 DUP3 DUP3 PUSH2 0xB8D JUMP JUMPDEST SWAP2 SWAP1 POP JUMP JUMPDEST PUSH1 0x0 PUSH8 0xFFFFFFFFFFFFFFFF DUP3 GT ISZERO PUSH2 0xBF4 JUMPI PUSH2 0xBF3 PUSH2 0xB5E JUMP JUMPDEST JUMPDEST PUSH2 0xBFD DUP3 PUSH2 0x88A JUMP JUMPDEST SWAP1 POP PUSH1 0x20 DUP2 ADD SWAP1 POP SWAP2 SWAP1 POP JUMP JUMPDEST DUP3 DUP2 DUP4 CALLDATACOPY PUSH1 0x0 DUP4 DUP4 ADD MSTORE POP POP POP JUMP JUMPDEST PUSH1 0x0 PUSH2 0xC2C PUSH2 0xC27 DUP5 PUSH2 0xBD9 JUMP JUMPDEST PUSH2 0xBBE JUMP JUMPDEST SWAP1 POP DUP3 DUP2 MSTORE PUSH1 0x20 DUP2 ADD DUP5 DUP5 DUP5 ADD GT ISZERO PUSH2 0xC48 JUMPI PUSH2 0xC47 PUSH2 0xB59 JUMP JUMPDEST JUMPDEST PUSH2 0xC53 DUP5 DUP3 DUP6 PUSH2 0xC0A JUMP JUMPDEST POP SWAP4 SWAP3 POP POP POP JUMP JUMPDEST PUSH1 0x0 DUP3 PUSH1 0x1F DUP4 ADD SLT PUSH2 0xC70 JUMPI PUSH2 0xC6F PUSH2 0xB54 JUMP JUMPDEST JUMPDEST DUP2 CALLDATALOAD PUSH2 0xC80 DUP5 DUP3 PUSH1 0x20 DUP7 ADD PUSH2 0xC19 JUMP JUMPDEST SWAP2 POP POP SWAP3 SWAP2 POP POP JUMP JUMPDEST PUSH2 0xC92 DUP2 PUSH2 0x82B JUMP JUMPDEST DUP2 EQ PUSH2 0xC9D JUMPI PUSH1 0x0 DUP1 REVERT JUMPDEST POP JUMP JUMPDEST PUSH1 0x0 DUP2 CALLDATALOAD SWAP1 POP PUSH2 0xCAF DUP2 PUSH2 0xC89 JUMP JUMPDEST SWAP3 SWAP2 POP POP JUMP JUMPDEST PUSH1 0x0 DUP1 PUSH1 0x40 DUP4 DUP6 SUB SLT ISZERO PUSH2 0xCCC JUMPI PUSH2 0xCCB PUSH2 0xB4A JUMP JUMPDEST JUMPDEST PUSH1 0x0 DUP4 ADD CALLDATALOAD PUSH8 0xFFFFFFFFFFFFFFFF DUP2 GT ISZERO PUSH2 0xCEA JUMPI PUSH2 0xCE9 PUSH2 0xB4F JUMP JUMPDEST JUMPDEST PUSH2 0xCF6 DUP6 DUP3 DUP7 ADD PUSH2 0xC5B JUMP JUMPDEST SWAP3 POP POP PUSH1 0x20 PUSH2 0xD07 DUP6 DUP3 DUP7 ADD PUSH2 0xCA0 JUMP JUMPDEST SWAP2 POP POP SWAP3 POP SWAP3 SWAP1 POP JUMP JUMPDEST PUSH1 0x0 DUP1 PUSH1 0x40 DUP4 DUP6 SUB SLT ISZERO PUSH2 0xD28 JUMPI PUSH2 0xD27 PUSH2 0xB4A JUMP JUMPDEST JUMPDEST PUSH1 0x0 DUP4 ADD CALLDATALOAD PUSH8 0xFFFFFFFFFFFFFFFF DUP2 GT ISZERO PUSH2 0xD46 JUMPI PUSH2 0xD45 PUSH2 0xB4F JUMP JUMPDEST JUMPDEST PUSH2 0xD52 DUP6 DUP3 DUP7 ADD PUSH2 0xC5B JUMP JUMPDEST SWAP3 POP POP PUSH1 0x20 DUP4 ADD CALLDATALOAD PUSH8 0xFFFFFFFFFFFFFFFF DUP2 GT ISZERO PUSH2 0xD73 JUMPI PUSH2 0xD72 PUSH2 0xB4F JUMP JUMPDEST JUMPDEST PUSH2 0xD7F DUP6 DUP3 DUP7 ADD PUSH2 0xC5B JUMP JUMPDEST SWAP2 POP POP SWAP3 POP SWAP3 SWAP1 POP JUMP JUMPDEST PUSH1 0x0 DUP1 PUSH1 0x0 PUSH1 0x60 DUP5 DUP7 SUB SLT ISZERO PUSH2 0xDA2 JUMPI PUSH2 0xDA1 PUSH2 0xB4A JUMP JUMPDEST JUMPDEST PUSH1 0x0 DUP5 ADD CALLDATALOAD PUSH8 0xFFFFFFFFFFFFFFFF DUP2 GT ISZERO PUSH2 0xDC0 JUMPI PUSH2 0xDBF PUSH2 0xB4F JUMP JUMPDEST JUMPDEST PUSH2 0xDCC DUP7 DUP3 DUP8 ADD PUSH2 0xC5B JUMP JUMPDEST SWAP4 POP POP PUSH1 0x20 DUP5 ADD CALLDATALOAD PUSH8 0xFFFFFFFFFFFFFFFF DUP2 GT ISZERO PUSH2 0xDED JUMPI PUSH2 0xDEC PUSH2 0xB4F JUMP JUMPDEST JUMPDEST PUSH2 0xDF9 DUP7 DUP3 DUP8 ADD PUSH2 0xC5B JUMP JUMPDEST SWAP3 POP POP PUSH1 0x40 PUSH2 0xE0A DUP7 DUP3 DUP8 ADD PUSH2 0xCA0 JUMP JUMPDEST SWAP2 POP POP SWAP3 POP SWAP3 POP SWAP3 JUMP JUMPDEST PUSH2 0xE1D DUP2 PUSH2 0x8F4 JUMP JUMPDEST DUP3 MSTORE POP POP JUMP JUMPDEST PUSH1 0x0 PUSH1 0x20 DUP3 ADD SWAP1 POP PUSH2 0xE38 PUSH1 0x0 DUP4 ADD DUP5 PUSH2 0xE14 JUMP JUMPDEST SWAP3 SWAP2 POP POP JUMP JUMPDEST PUSH1 0x0 PUSH1 0x20 DUP3 DUP5 SUB SLT ISZERO PUSH2 0xE54 JUMPI PUSH2 0xE53 PUSH2 0xB4A JUMP JUMPDEST JUMPDEST PUSH1 0x0 PUSH2 0xE62 DUP5 DUP3 DUP6 ADD PUSH2 0xCA0 JUMP JUMPDEST SWAP2 POP POP SWAP3 SWAP2 POP POP JUMP JUMPDEST PUSH1 0x0 DUP3 DUP3 MSTORE PUSH1 0x20 DUP3 ADD SWAP1 POP SWAP3 SWAP2 POP POP JUMP JUMPDEST PUSH1 0x0 PUSH2 0xE87 DUP3 PUSH2 0x844 JUMP JUMPDEST PUSH2 0xE91 DUP2 DUP6 PUSH2 0xE6B JUMP JUMPDEST SWAP4 POP PUSH2 0xEA1 DUP2 DUP6 PUSH1 0x20 DUP7 ADD PUSH2 0x860 JUMP JUMPDEST PUSH2 0xEAA DUP2 PUSH2 0x88A JUMP JUMPDEST DUP5 ADD SWAP2 POP POP SWAP3 SWAP2 POP POP JUMP JUMPDEST PUSH1 0x0 PUSH1 0x40 DUP3 ADD SWAP1 POP DUP2 DUP2 SUB PUSH1 0x0 DUP4 ADD MSTORE PUSH2 0xECF DUP2 DUP6 PUSH2 0xE7C JUMP JUMPDEST SWAP1 POP DUP2 DUP2 SUB PUSH1 0x20 DUP4 ADD MSTORE PUSH2 0xEE3 DUP2 DUP5 PUSH2 0xE7C JUMP JUMPDEST SWAP1 POP SWAP4 SWAP3 POP POP POP JUMP JUMPDEST PUSH1 0x0 DUP2 MLOAD SWAP1 POP SWAP2 SWAP1 POP JUMP JUMPDEST PUSH1 0x0 DUP3 DUP3 MSTORE PUSH1 0x20 DUP3 ADD SWAP1 POP SWAP3 SWAP2 POP POP JUMP JUMPDEST PUSH1 0x0 DUP2 SWAP1 POP PUSH1 0x20 DUP3 ADD SWAP1 POP SWAP2 SWAP1 POP JUMP JUMPDEST PUSH1 0x0 PUSH1 0x40 DUP4 ADD PUSH1 0x0 DUP4 ADD MLOAD DUP5 DUP3 SUB PUSH1 0x0 DUP7 ADD MSTORE PUSH2 0xF35 DUP3 DUP3 PUSH2 0x89B JUMP JUMPDEST SWAP2 POP POP PUSH1 0x20 DUP4 ADD MLOAD DUP5 DUP3 SUB PUSH1 0x20 DUP7 ADD MSTORE PUSH2 0xF4F DUP3 DUP3 PUSH2 0x89B JUMP JUMPDEST SWAP2 POP POP DUP1 SWAP2 POP POP SWAP3 SWAP2 POP POP JUMP JUMPDEST PUSH1 0x0 PUSH2 0xF68 DUP4 DUP4 PUSH2 0xF18 JUMP JUMPDEST SWAP1 POP SWAP3 SWAP2 POP POP JUMP JUMPDEST PUSH1 0x0 PUSH1 0x20 DUP3 ADD SWAP1 POP SWAP2 SWAP1 POP JUMP JUMPDEST PUSH1 0x0 PUSH2 0xF88 DUP3 PUSH2 0xEEC JUMP JUMPDEST PUSH2 0xF92 DUP2 DUP6 PUSH2 0xEF7 JUMP JUMPDEST SWAP4 POP DUP4 PUSH1 0x20 DUP3 MUL DUP6 ADD PUSH2 0xFA4 DUP6 PUSH2 0xF08 JUMP JUMPDEST DUP1 PUSH1 0x0 JUMPDEST DUP6 DUP2 LT ISZERO PUSH2 0xFE0 JUMPI DUP5 DUP5 SUB DUP10 MSTORE DUP2 MLOAD PUSH2 0xFC1 DUP6 DUP3 PUSH2 0xF5C JUMP JUMPDEST SWAP5 POP PUSH2 0xFCC DUP4 PUSH2 0xF70 JUMP JUMPDEST SWAP3 POP PUSH1 0x20 DUP11 ADD SWAP10 POP POP PUSH1 0x1 DUP2 ADD SWAP1 POP PUSH2 0xFA8 JUMP JUMPDEST POP DUP3 SWAP8 POP DUP8 SWAP6 POP POP POP POP POP POP SWAP3 SWAP2 POP POP JUMP JUMPDEST PUSH1 0x0 PUSH1 0x20 DUP3 ADD SWAP1 POP DUP2 DUP2 SUB PUSH1 0x0 DUP4 ADD MSTORE PUSH2 0x100C DUP2 DUP5 PUSH2 0xF7D JUMP JUMPDEST SWAP1 POP SWAP3 SWAP2 POP POP JUMP JUMPDEST PUSH1 0x0 DUP2 MLOAD SWAP1 POP SWAP2 SWAP1 POP JUMP JUMPDEST PUSH1 0x0 DUP3 DUP3 MSTORE PUSH1 0x20 DUP3 ADD SWAP1 POP SWAP3 SWAP2 POP POP JUMP JUMPDEST PUSH1 0x0 DUP2 SWAP1 POP PUSH1 0x20 DUP3 ADD SWAP1 POP SWAP2 SWAP1 POP JUMP JUMPDEST PUSH1 0x0 PUSH1 0xA0 DUP4 ADD PUSH1 0x0 DUP4 ADD MLOAD PUSH2 0x1058 PUSH1 0x0 DUP7 ADD DUP3 PUSH2 0x835 JUMP JUMPDEST POP PUSH1 0x20 DUP4 ADD MLOAD DUP5 DUP3 SUB PUSH1 0x20 DUP7 ADD MSTORE PUSH2 0x1070 DUP3 DUP3 PUSH2 0x89B JUMP JUMPDEST SWAP2 POP POP PUSH1 0x40 DUP4 ADD MLOAD DUP5 DUP3 SUB PUSH1 0x40 DUP7 ADD MSTORE PUSH2 0x108A DUP3 DUP3 PUSH2 0x89B JUMP JUMPDEST SWAP2 POP POP PUSH1 0x60 DUP4 ADD MLOAD PUSH2 0x109F PUSH1 0x60 DUP7 ADD DUP3 PUSH2 0x906 JUMP JUMPDEST POP PUSH1 0x80 DUP4 ADD MLOAD PUSH2 0x10B2 PUSH1 0x80 DUP7 ADD DUP3 PUSH2 0x835 JUMP JUMPDEST POP DUP1 SWAP2 POP POP SWAP3 SWAP2 POP POP JUMP JUMPDEST PUSH1 0x0 PUSH2 0x10C9 DUP4 DUP4 PUSH2 0x1040 JUMP JUMPDEST SWAP1 POP SWAP3 SWAP2 POP POP JUMP JUMPDEST PUSH1 0x0 PUSH1 0x20 DUP3 ADD SWAP1 POP SWAP2 SWAP1 POP JUMP JUMPDEST PUSH1 0x0 PUSH2 0x10E9 DUP3 PUSH2 0x1014 JUMP JUMPDEST PUSH2 0x10F3 DUP2 DUP6 PUSH2 0x101F JUMP JUMPDEST SWAP4 POP DUP4 PUSH1 0x20 DUP3 MUL DUP6 ADD PUSH2 0x1105 DUP6 PUSH2 0x1030 JUMP JUMPDEST DUP1 PUSH1 0x0 JUMPDEST DUP6 DUP2 LT ISZERO PUSH2 0x1141 JUMPI DUP5 DUP5 SUB DUP10 MSTORE DUP2 MLOAD PUSH2 0x1122 DUP6 DUP3 PUSH2 0x10BD JUMP JUMPDEST SWAP5 POP PUSH2 0x112D DUP4 PUSH2 0x10D1 JUMP JUMPDEST SWAP3 POP PUSH1 0x20 DUP11 ADD SWAP10 POP POP PUSH1 0x1 DUP2 ADD SWAP1 POP PUSH2 0x1109 JUMP JUMPDEST POP DUP3 SWAP8 POP DUP8 SWAP6 POP POP POP POP POP POP SWAP3 SWAP2 POP POP JUMP JUMPDEST PUSH1 0x0 PUSH1 0x20 DUP3 ADD SWAP1 POP DUP2 DUP2 SUB PUSH1 0x0 DUP4 ADD MSTORE PUSH2 0x116D DUP2 DUP5 PUSH2 0x10DE JUMP JUMPDEST SWAP1 POP SWAP3 SWAP2 POP POP JUMP JUMPDEST PUSH1 0x0 PUSH8 0xFFFFFFFFFFFFFFFF DUP3 GT ISZERO PUSH2 0x1190 JUMPI PUSH2 0x118F PUSH2 0xB5E JUMP JUMPDEST JUMPDEST PUSH1 0x20 DUP3 MUL SWAP1 POP PUSH1 0x20 DUP2 ADD SWAP1 POP SWAP2 SWAP1 POP JUMP JUMPDEST PUSH1 0x0 DUP1 REVERT JUMPDEST PUSH1 0x0 DUP1 REVERT JUMPDEST PUSH1 0x0 DUP1 REVERT JUMPDEST PUSH1 0x0 DUP2 MLOAD SWAP1 POP PUSH2 0x11BF DUP2 PUSH2 0xC89 JUMP JUMPDEST SWAP3 SWAP2 POP POP JUMP JUMPDEST PUSH1 0x0 PUSH2 0x11D8 PUSH2 0x11D3 DUP5 PUSH2 0xBD9 JUMP JUMPDEST PUSH2 0xBBE JUMP JUMPDEST SWAP1 POP DUP3 DUP2 MSTORE PUSH1 0x20 DUP2 ADD DUP5 DUP5 DUP5 ADD GT ISZERO PUSH2 0x11F4 JUMPI PUSH2 0x11F3 PUSH2 0xB59 JUMP JUMPDEST JUMPDEST PUSH2 0x11FF DUP5 DUP3 DUP6 PUSH2 0x860 JUMP JUMPDEST POP SWAP4 SWAP3 POP POP POP JUMP JUMPDEST PUSH1 0x0 DUP3 PUSH1 0x1F DUP4 ADD SLT PUSH2 0x121C JUMPI PUSH2 0x121B PUSH2 0xB54 JUMP JUMPDEST JUMPDEST DUP2 MLOAD PUSH2 0x122C DUP5 DUP3 PUSH1 0x20 DUP7 ADD PUSH2 0x11C5 JUMP JUMPDEST SWAP2 POP POP SWAP3 SWAP2 POP POP JUMP JUMPDEST PUSH2 0x123E DUP2 PUSH2 0x8F4 JUMP JUMPDEST DUP2 EQ PUSH2 0x1249 JUMPI PUSH1 0x0 DUP1 REVERT JUMPDEST POP JUMP JUMPDEST PUSH1 0x0 DUP2 MLOAD SWAP1 POP PUSH2 0x125B DUP2 PUSH2 0x1235 JUMP JUMPDEST SWAP3 SWAP2 POP POP JUMP JUMPDEST PUSH1 0x0 PUSH8 0xFFFFFFFFFFFFFFFF DUP3 GT ISZERO PUSH2 0x127C JUMPI PUSH2 0x127B PUSH2 0xB5E JUMP JUMPDEST JUMPDEST PUSH1 0x20 DUP3 MUL SWAP1 POP PUSH1 0x20 DUP2 ADD SWAP1 POP SWAP2 SWAP1 POP JUMP JUMPDEST PUSH1 0x0 PUSH2 0x12A0 PUSH2 0x129B DUP5 PUSH2 0x1261 JUMP JUMPDEST PUSH2 0xBBE JUMP JUMPDEST SWAP1 POP DUP1 DUP4 DUP3 MSTORE PUSH1 0x20 DUP3 ADD SWAP1 POP PUSH1 0x20 DUP5 MUL DUP4 ADD DUP6 DUP2 GT ISZERO PUSH2 0x12C3 JUMPI PUSH2 0x12C2 PUSH2 0x11A1 JUMP JUMPDEST JUMPDEST DUP4 JUMPDEST DUP2 DUP2 LT ISZERO PUSH2 0x130A JUMPI DUP1 MLOAD PUSH8 0xFFFFFFFFFFFFFFFF DUP2 GT ISZERO PUSH2 0x12E8 JUMPI PUSH2 0x12E7 PUSH2 0xB54 JUMP JUMPDEST JUMPDEST DUP1 DUP7 ADD PUSH2 0x12F5 DUP10 DUP3 PUSH2 0x1207 JUMP JUMPDEST DUP6 MSTORE PUSH1 0x20 DUP6 ADD SWAP5 POP POP POP PUSH1 0x20 DUP2 ADD SWAP1 POP PUSH2 0x12C5 JUMP JUMPDEST POP POP POP SWAP4 SWAP3 POP POP POP JUMP JUMPDEST PUSH1 0x0 DUP3 PUSH1 0x1F DUP4 ADD SLT PUSH2 0x1329 JUMPI PUSH2 0x1328 PUSH2 0xB54 JUMP JUMPDEST JUMPDEST DUP2 MLOAD PUSH2 0x1339 DUP5 DUP3 PUSH1 0x20 DUP7 ADD PUSH2 0x128D JUMP JUMPDEST SWAP2 POP POP SWAP3 SWAP2 POP POP JUMP JUMPDEST PUSH1 0x0 PUSH1 0xE0 DUP3 DUP5 SUB SLT ISZERO PUSH2 0x1358 JUMPI PUSH2 0x1357 PUSH2 0x11A6 JUMP JUMPDEST JUMPDEST PUSH2 0x1362 PUSH1 0xE0 PUSH2 0xBBE JUMP JUMPDEST SWAP1 POP PUSH1 0x0 PUSH2 0x1372 DUP5 DUP3 DUP6 ADD PUSH2 0x11B0 JUMP JUMPDEST PUSH1 0x0 DUP4 ADD MSTORE POP PUSH1 0x20 DUP3 ADD MLOAD PUSH8 0xFFFFFFFFFFFFFFFF DUP2 GT ISZERO PUSH2 0x1396 JUMPI PUSH2 0x1395 PUSH2 0x11AB JUMP JUMPDEST JUMPDEST PUSH2 0x13A2 DUP5 DUP3 DUP6 ADD PUSH2 0x1207 JUMP JUMPDEST PUSH1 0x20 DUP4 ADD MSTORE POP PUSH1 0x40 PUSH2 0x13B6 DUP5 DUP3 DUP6 ADD PUSH2 0x11B0 JUMP JUMPDEST PUSH1 0x40 DUP4 ADD MSTORE POP PUSH1 0x60 PUSH2 0x13CA DUP5 DUP3 DUP6 ADD PUSH2 0x124C JUMP JUMPDEST PUSH1 0x60 DUP4 ADD MSTORE POP PUSH1 0x80 DUP3 ADD MLOAD PUSH8 0xFFFFFFFFFFFFFFFF DUP2 GT ISZERO PUSH2 0x13EE JUMPI PUSH2 0x13ED PUSH2 0x11AB JUMP JUMPDEST JUMPDEST PUSH2 0x13FA DUP5 DUP3 DUP6 ADD PUSH2 0x1314 JUMP JUMPDEST PUSH1 0x80 DUP4 ADD MSTORE POP PUSH1 0xA0 DUP3 ADD MLOAD PUSH8 0xFFFFFFFFFFFFFFFF DUP2 GT ISZERO PUSH2 0x141E JUMPI PUSH2 0x141D PUSH2 0x11AB JUMP JUMPDEST JUMPDEST PUSH2 0x142A DUP5 DUP3 DUP6 ADD PUSH2 0x1314 JUMP JUMPDEST PUSH1 0xA0 DUP4 ADD MSTORE POP PUSH1 0xC0 DUP3 ADD MLOAD PUSH8 0xFFFFFFFFFFFFFFFF DUP2 GT ISZERO PUSH2 0x144E JUMPI PUSH2 0x144D PUSH2 0x11AB JUMP JUMPDEST JUMPDEST PUSH2 0x145A DUP5 DUP3 DUP6 ADD PUSH2 0x1314 JUMP JUMPDEST PUSH1 0xC0 DUP4 ADD MSTORE POP SWAP3 SWAP2 POP POP JUMP JUMPDEST PUSH1 0x0 PUSH2 0x1479 PUSH2 0x1474 DUP5 PUSH2 0x1175 JUMP JUMPDEST PUSH2 0xBBE JUMP JUMPDEST SWAP1 POP DUP1 DUP4 DUP3 MSTORE PUSH1 0x20 DUP3 ADD SWAP1 POP PUSH1 0x20 DUP5 MUL DUP4 ADD DUP6 DUP2 GT ISZERO PUSH2 0x149C JUMPI PUSH2 0x149B PUSH2 0x11A1 JUMP JUMPDEST JUMPDEST DUP4 JUMPDEST DUP2 DUP2 LT ISZERO PUSH2 0x14E3 JUMPI DUP1 MLOAD PUSH8 0xFFFFFFFFFFFFFFFF DUP2 GT ISZERO PUSH2 0x14C1 JUMPI PUSH2 0x14C0 PUSH2 0xB54 JUMP JUMPDEST JUMPDEST DUP1 DUP7 ADD PUSH2 0x14CE DUP10 DUP3 PUSH2 0x1342 JUMP JUMPDEST DUP6 MSTORE PUSH1 0x20 DUP6 ADD SWAP5 POP POP POP PUSH1 0x20 DUP2 ADD SWAP1 POP PUSH2 0x149E JUMP JUMPDEST POP POP POP SWAP4 SWAP3 POP POP POP JUMP JUMPDEST PUSH1 0x0 DUP3 PUSH1 0x1F DUP4 ADD SLT PUSH2 0x1502 JUMPI PUSH2 0x1501 PUSH2 0xB54 JUMP JUMPDEST JUMPDEST DUP2 MLOAD PUSH2 0x1512 DUP5 DUP3 PUSH1 0x20 DUP7 ADD PUSH2 0x1466 JUMP JUMPDEST SWAP2 POP POP SWAP3 SWAP2 POP POP JUMP JUMPDEST PUSH1 0x0 PUSH1 0x20 DUP3 DUP5 SUB SLT ISZERO PUSH2 0x1531 JUMPI PUSH2 0x1530 PUSH2 0xB4A JUMP JUMPDEST JUMPDEST PUSH1 0x0 DUP3 ADD MLOAD PUSH8 0xFFFFFFFFFFFFFFFF DUP2 GT ISZERO PUSH2 0x154F JUMPI PUSH2 0x154E PUSH2 0xB4F JUMP JUMPDEST JUMPDEST PUSH2 0x155B DUP5 DUP3 DUP6 ADD PUSH2 0x14ED JUMP JUMPDEST SWAP2 POP POP SWAP3 SWAP2 POP POP JUMP JUMPDEST PUSH2 0x156D DUP2 PUSH2 0x82B JUMP JUMPDEST DUP3 MSTORE POP POP JUMP JUMPDEST PUSH1 0x0 PUSH1 0x40 DUP3 ADD SWAP1 POP DUP2 DUP2 SUB PUSH1 0x0 DUP4 ADD MSTORE PUSH2 0x158D DUP2 DUP6 PUSH2 0xE7C JUMP JUMPDEST SWAP1 POP PUSH2 0x159C PUSH1 0x20 DUP4 ADD DUP5 PUSH2 0x1564 JUMP JUMPDEST SWAP4 SWAP3 POP POP POP JUMP JUMPDEST PUSH32 0x4F6E6C792061646D696E2063616E2063616C6C20746869732066756E6374696F PUSH1 0x0 DUP3 ADD MSTORE PUSH32 0x6E00000000000000000000000000000000000000000000000000000000000000 PUSH1 0x20 DUP3 ADD MSTORE POP JUMP JUMPDEST PUSH1 0x0 PUSH2 0x15FF PUSH1 0x21 DUP4 PUSH2 0xE6B JUMP JUMPDEST SWAP2 POP PUSH2 0x160A DUP3 PUSH2 0x15A3 JUMP JUMPDEST PUSH1 0x40 DUP3 ADD SWAP1 POP SWAP2 SWAP1 POP JUMP JUMPDEST PUSH1 0x0 PUSH1 0x20 DUP3 ADD SWAP1 POP DUP2 DUP2 SUB PUSH1 0x0 DUP4 ADD MSTORE PUSH2 0x162E DUP2 PUSH2 0x15F2 JUMP JUMPDEST SWAP1 POP SWAP2 SWAP1 POP JUMP JUMPDEST PUSH1 0x0 PUSH1 0x60 DUP3 ADD SWAP1 POP DUP2 DUP2 SUB PUSH1 0x0 DUP4 ADD MSTORE PUSH2 0x164F DUP2 DUP7 PUSH2 0xE7C JUMP JUMPDEST SWAP1 POP DUP2 DUP2 SUB PUSH1 0x20 DUP4 ADD MSTORE PUSH2 0x1663 DUP2 DUP6 PUSH2 0xE7C JUMP JUMPDEST SWAP1 POP PUSH2 0x1672 PUSH1 0x40 DUP4 ADD DUP5 PUSH2 0x1564 JUMP JUMPDEST SWAP5 SWAP4 POP POP POP POP JUMP JUMPDEST PUSH32 0x4E487B7100000000000000000000000000000000000000000000000000000000 PUSH1 0x0 MSTORE PUSH1 0x22 PUSH1 0x4 MSTORE PUSH1 0x24 PUSH1 0x0 REVERT JUMPDEST PUSH1 0x0 PUSH1 0x2 DUP3 DIV SWAP1 POP PUSH1 0x1 DUP3 AND DUP1 PUSH2 0x16C1 JUMPI PUSH1 0x7F DUP3 AND SWAP2 POP JUMPDEST PUSH1 0x20 DUP3 LT DUP2 SUB PUSH2 0x16D4 JUMPI PUSH2 0x16D3 PUSH2 0x167A JUMP JUMPDEST JUMPDEST POP SWAP2 SWAP1 POP JUMP JUMPDEST PUSH1 0x0 PUSH8 0xFFFFFFFFFFFFFFFF DUP3 GT ISZERO PUSH2 0x16F5 JUMPI PUSH2 0x16F4 PUSH2 0xB5E JUMP JUMPDEST JUMPDEST PUSH1 0x20 DUP3 MUL SWAP1 POP PUSH1 0x20 DUP2 ADD SWAP1 POP SWAP2 SWAP1 POP JUMP JUMPDEST PUSH1 0x0 PUSH1 0xA0 DUP3 DUP5 SUB SLT ISZERO PUSH2 0x171C JUMPI PUSH2 0x171B PUSH2 0x11A6 JUMP JUMPDEST JUMPDEST PUSH2 0x1726 PUSH1 0xA0 PUSH2 0xBBE JUMP JUMPDEST SWAP1 POP PUSH1 0x0 PUSH2 0x1736 DUP5 DUP3 DUP6 ADD PUSH2 0x11B0 JUMP JUMPDEST PUSH1 0x0 DUP4 ADD MSTORE POP PUSH1 0x20 DUP3 ADD MLOAD PUSH8 0xFFFFFFFFFFFFFFFF DUP2 GT ISZERO PUSH2 0x175A JUMPI PUSH2 0x1759 PUSH2 0x11AB JUMP JUMPDEST JUMPDEST PUSH2 0x1766 DUP5 DUP3 DUP6 ADD PUSH2 0x1207 JUMP JUMPDEST PUSH1 0x20 DUP4 ADD MSTORE POP PUSH1 0x40 DUP3 ADD MLOAD PUSH8 0xFFFFFFFFFFFFFFFF DUP2 GT ISZERO PUSH2 0x178A JUMPI PUSH2 0x1789 PUSH2 0x11AB JUMP JUMPDEST JUMPDEST PUSH2 0x1796 DUP5 DUP3 DUP6 ADD PUSH2 0x1207 JUMP JUMPDEST PUSH1 0x40 DUP4 ADD MSTORE POP PUSH1 0x60 PUSH2 0x17AA DUP5 DUP3 DUP6 ADD PUSH2 0x124C JUMP JUMPDEST PUSH1 0x60 DUP4 ADD MSTORE POP PUSH1 0x80 PUSH2 0x17BE DUP5 DUP3 DUP6 ADD PUSH2 0x11B0 JUMP JUMPDEST PUSH1 0x80 DUP4 ADD MSTORE POP SWAP3 SWAP2 POP POP JUMP JUMPDEST PUSH1 0x0 PUSH2 0x17DD PUSH2 0x17D8 DUP5 PUSH2 0x16DA JUMP JUMPDEST PUSH2 0xBBE JUMP JUMPDEST SWAP1 POP DUP1 DUP4 DUP3 MSTORE PUSH1 0x20 DUP3 ADD SWAP1 POP PUSH1 0x20 DUP5 MUL DUP4 ADD DUP6 DUP2 GT ISZERO PUSH2 0x1800 JUMPI PUSH2 0x17FF PUSH2 0x11A1 JUMP JUMPDEST JUMPDEST DUP4 JUMPDEST DUP2 DUP2 LT ISZERO PUSH2 0x1847 JUMPI DUP1 MLOAD PUSH8 0xFFFFFFFFFFFFFFFF DUP2 GT ISZERO PUSH2 0x1825 JUMPI PUSH2 0x1824 PUSH2 0xB54 JUMP JUMPDEST JUMPDEST DUP1 DUP7 ADD PUSH2 0x1832 DUP10 DUP3 PUSH2 0x1706 JUMP JUMPDEST DUP6 MSTORE PUSH1 0x20 DUP6 ADD SWAP5 POP POP POP PUSH1 0x20 DUP2 ADD SWAP1 POP PUSH2 0x1802 JUMP JUMPDEST POP POP POP SWAP4 SWAP3 POP POP POP JUMP JUMPDEST PUSH1 0x0 DUP3 PUSH1 0x1F DUP4 ADD SLT PUSH2 0x1866 JUMPI PUSH2 0x1865 PUSH2 0xB54 JUMP JUMPDEST JUMPDEST DUP2 MLOAD PUSH2 0x1876 DUP5 DUP3 PUSH1 0x20 DUP7 ADD PUSH2 0x17CA JUMP JUMPDEST SWAP2 POP POP SWAP3 SWAP2 POP POP JUMP JUMPDEST PUSH1 0x0 PUSH1 0x20 DUP3 DUP5 SUB SLT ISZERO PUSH2 0x1895 JUMPI PUSH2 0x1894 PUSH2 0xB4A JUMP JUMPDEST JUMPDEST PUSH1 0x0 DUP3 ADD MLOAD PUSH8 0xFFFFFFFFFFFFFFFF DUP2 GT ISZERO PUSH2 0x18B3 JUMPI PUSH2 0x18B2 PUSH2 0xB4F JUMP JUMPDEST JUMPDEST PUSH2 0x18BF DUP5 DUP3 DUP6 ADD PUSH2 0x1851 JUMP JUMPDEST SWAP2 POP POP SWAP3 SWAP2 POP POP JUMP JUMPDEST PUSH1 0x0 DUP2 SWAP1 POP DUP2 PUSH1 0x0 MSTORE PUSH1 0x20 PUSH1 0x0 KECCAK256 SWAP1 POP SWAP2 SWAP1 POP JUMP JUMPDEST PUSH1 0x0 PUSH1 0x20 PUSH1 0x1F DUP4 ADD DIV SWAP1 POP SWAP2 SWAP1 POP JUMP JUMPDEST PUSH1 0x0 DUP3 DUP3 SHL SWAP1 POP SWAP3 SWAP2 POP POP JUMP JUMPDEST PUSH1 0x0 PUSH1 0x8 DUP4 MUL PUSH2 0x192A PUSH32 0xFFFFFFFFFFFFFFFFFFFFFFFFFFFFFFFFFFFFFFFFFFFFFFFFFFFFFFFFFFFFFFFF DUP3 PUSH2 0x18ED JUMP JUMPDEST PUSH2 0x1934 DUP7 DUP4 PUSH2 0x18ED JUMP JUMPDEST SWAP6 POP DUP1 NOT DUP5 AND SWAP4 POP DUP1 DUP7 AND DUP5 OR SWAP3 POP POP POP SWAP4 SWAP3 POP POP POP JUMP JUMPDEST PUSH1 0x0 DUP2 SWAP1 POP SWAP2 SWAP1 POP JUMP JUMPDEST PUSH1 0x0 PUSH2 0x1971 PUSH2 0x196C PUSH2 0x1967 DUP5 PUSH2 0x82B JUMP JUMPDEST PUSH2 0x194C JUMP JUMPDEST PUSH2 0x82B JUMP JUMPDEST SWAP1 POP SWAP2 SWAP1 POP JUMP JUMPDEST PUSH1 0x0 DUP2 SWAP1 POP SWAP2 SWAP1 POP JUMP JUMPDEST PUSH2 0x198B DUP4 PUSH2 0x1956 JUMP JUMPDEST PUSH2 0x199F PUSH2 0x1997 DUP3 PUSH2 0x1978 JUMP JUMPDEST DUP5 DUP5 SLOAD PUSH2 0x18FA JUMP JUMPDEST DUP3 SSTORE POP POP POP POP JUMP JUMPDEST PUSH1 0x0 SWAP1 JUMP JUMPDEST PUSH2 0x19B4 PUSH2 0x19A7 JUMP JUMPDEST PUSH2 0x19BF DUP2 DUP5 DUP5 PUSH2 0x1982 JUMP JUMPDEST POP POP POP JUMP JUMPDEST JUMPDEST DUP2 DUP2 LT ISZERO PUSH2 0x19E3 JUMPI PUSH2 0x19D8 PUSH1 0x0 DUP3 PUSH2 0x19AC JUMP JUMPDEST PUSH1 0x1 DUP2 ADD SWAP1 POP PUSH2 0x19C5 JUMP JUMPDEST POP POP JUMP JUMPDEST PUSH1 0x1F DUP3 GT ISZERO PUSH2 0x1A28 JUMPI PUSH2 0x19F9 DUP2 PUSH2 0x18C8 JUMP JUMPDEST PUSH2 0x1A02 DUP5 PUSH2 0x18DD JUMP JUMPDEST DUP2 ADD PUSH1 0x20 DUP6 LT ISZERO PUSH2 0x1A11 JUMPI DUP2 SWAP1 POP JUMPDEST PUSH2 0x1A25 PUSH2 0x1A1D DUP6 PUSH2 0x18DD JUMP JUMPDEST DUP4 ADD DUP3 PUSH2 0x19C4 JUMP JUMPDEST POP POP JUMPDEST POP POP POP JUMP JUMPDEST PUSH1 0x0 DUP3 DUP3 SHR SWAP1 POP SWAP3 SWAP2 POP POP JUMP JUMPDEST PUSH1 0x0 PUSH2 0x1A4B PUSH1 0x0 NOT DUP5 PUSH1 0x8 MUL PUSH2 0x1A2D JUMP JUMPDEST NOT DUP1 DUP4 AND SWAP2 POP POP SWAP3 SWAP2 POP POP JUMP JUMPDEST PUSH1 0x0 PUSH2 0x1A64 DUP4 DUP4 PUSH2 0x1A3A JUMP JUMPDEST SWAP2 POP DUP3 PUSH1 0x2 MUL DUP3 OR SWAP1 POP SWAP3 SWAP2 POP POP JUMP JUMPDEST PUSH2 0x1A7D DUP3 PUSH2 0x844 JUMP JUMPDEST PUSH8 0xFFFFFFFFFFFFFFFF DUP2 GT ISZERO PUSH2 0x1A96 JUMPI PUSH2 0x1A95 PUSH2 0xB5E JUMP JUMPDEST JUMPDEST PUSH2 0x1AA0 DUP3 SLOAD PUSH2 0x16A9 JUMP JUMPDEST PUSH2 0x1AAB DUP3 DUP3 DUP6 PUSH2 0x19E7 JUMP JUMPDEST PUSH1 0x0 PUSH1 0x20 SWAP1 POP PUSH1 0x1F DUP4 GT PUSH1 0x1 DUP2 EQ PUSH2 0x1ADE JUMPI PUSH1 0x0 DUP5 ISZERO PUSH2 0x1ACC JUMPI DUP3 DUP8 ADD MLOAD SWAP1 POP JUMPDEST PUSH2 0x1AD6 DUP6 DUP3 PUSH2 0x1A58 JUMP JUMPDEST DUP7 SSTORE POP PUSH2 0x1B3E JUMP JUMPDEST PUSH1 0x1F NOT DUP5 AND PUSH2 0x1AEC DUP7 PUSH2 0x18C8 JUMP JUMPDEST PUSH1 0x0 JUMPDEST DUP3 DUP2 LT ISZERO PUSH2 0x1B14 JUMPI DUP5 DUP10 ADD MLOAD DUP3 SSTORE PUSH1 0x1 DUP3 ADD SWAP2 POP PUSH1 0x20 DUP6 ADD SWAP5 POP PUSH1 0x20 DUP2 ADD SWAP1 POP PUSH2 0x1AEF JUMP JUMPDEST DUP7 DUP4 LT ISZERO PUSH2 0x1B31 JUMPI DUP5 DUP10 ADD MLOAD PUSH2 0x1B2D PUSH1 0x1F DUP10 AND DUP3 PUSH2 0x1A3A JUMP JUMPDEST DUP4 SSTORE POP JUMPDEST PUSH1 0x1 PUSH1 0x2 DUP9 MUL ADD DUP9 SSTORE POP POP POP JUMPDEST POP POP POP POP POP POP JUMP INVALID LOG2 PUSH5 0x6970667358 0x22 SLT KECCAK256 NOT KECCAK256 0xAC SWAP8 0x2B 0x23 PUSH15 0x618CED4EC8497612309EA639EE979B SWAP8 DELEGATECALL EXTCODESIZE PREVRANDAO MLOAD NOT CALLDATASIZE BASEFEE 0x2F 0x4F PUSH5 0x736F6C6343 STOP ADDMOD SLT STOP CALLER PUSH1 0x80 PUSH1 0x40 MSTORE CALLVALUE DUP1 ISZERO PUSH2 0x10 JUMPI PUSH1 0x0 DUP1 REVERT JUMPDEST POP PUSH2 0x183F DUP1 PUSH2 0x20 PUSH1 0x0 CODECOPY PUSH1 0x0 RETURN INVALID PUSH1 0x80 PUSH1 0x40 MSTORE CALLVALUE DUP1 ISZERO PUSH2 0x10 JUMPI PUSH1 0x0 DUP1 REVERT JUMPDEST POP PUSH1 0x4 CALLDATASIZE LT PUSH2 0x93 JUMPI PUSH1 0x0 CALLDATALOAD PUSH1 0xE0 SHR DUP1 PUSH4 0xA9583C22 GT PUSH2 0x66 JUMPI DUP1 PUSH4 0xA9583C22 EQ PUSH2 0x11E JUMPI DUP1 PUSH4 0xBAE1EEE8 EQ PUSH2 0x152 JUMPI DUP1 PUSH4 0xC38831AE EQ PUSH2 0x170 JUMPI DUP1 PUSH4 0xD92631DB EQ PUSH2 0x1A1 JUMPI DUP1 PUSH4 0xF0D95090 EQ PUSH2 0x1BF JUMPI PUSH2 0x93 JUMP JUMPDEST DUP1 PUSH4 0x59BF95F7 EQ PUSH2 0x98 JUMPI DUP1 PUSH4 0x5AB2CE22 EQ PUSH2 0xC8 JUMPI DUP1 PUSH4 0x78522BC4 EQ PUSH2 0xE4 JUMPI DUP1 PUSH4 0x87446B6E EQ PUSH2 0x102 JUMPI JUMPDEST PUSH1 0x0 DUP1 REVERT JUMPDEST PUSH2 0xB2 PUSH1 0x4 DUP1 CALLDATASIZE SUB DUP2 ADD SWAP1 PUSH2 0xAD SWAP2 SWAP1 PUSH2 0xC86 JUMP JUMPDEST PUSH2 0x1DD JUMP JUMPDEST PUSH1 0x40 MLOAD PUSH2 0xBF SWAP2 SWAP1 PUSH2 0xCF4 JUMP JUMPDEST PUSH1 0x40 MLOAD DUP1 SWAP2 SUB SWAP1 RETURN JUMPDEST PUSH2 0xE2 PUSH1 0x4 DUP1 CALLDATASIZE SUB DUP2 ADD SWAP1 PUSH2 0xDD SWAP2 SWAP1 PUSH2 0xE55 JUMP JUMPDEST PUSH2 0x21C JUMP JUMPDEST STOP JUMPDEST PUSH2 0xEC PUSH2 0x294 JUMP JUMPDEST PUSH1 0x40 MLOAD PUSH2 0xF9 SWAP2 SWAP1 PUSH2 0xEDC JUMP JUMPDEST PUSH1 0x40 MLOAD DUP1 SWAP2 SUB SWAP1 RETURN JUMPDEST PUSH2 0x11C PUSH1 0x4 DUP1 CALLDATASIZE SUB DUP2 ADD SWAP1 PUSH2 0x117 SWAP2 SWAP1 PUSH2 0xEF7 JUMP JUMPDEST PUSH2 0x29A JUMP JUMPDEST STOP JUMPDEST PUSH2 0x138 PUSH1 0x4 DUP1 CALLDATASIZE SUB DUP2 ADD SWAP1 PUSH2 0x133 SWAP2 SWAP1 PUSH2 0xFAE JUMP JUMPDEST PUSH2 0x469 JUMP JUMPDEST PUSH1 0x40 MLOAD PUSH2 0x149 SWAP6 SWAP5 SWAP4 SWAP3 SWAP2 SWAP1 PUSH2 0x105A JUMP JUMPDEST PUSH1 0x40 MLOAD DUP1 SWAP2 SUB SWAP1 RETURN JUMPDEST PUSH2 0x15A PUSH2 0x5CF JUMP JUMPDEST PUSH1 0x40 MLOAD PUSH2 0x167 SWAP2 SWAP1 PUSH2 0x10D6 JUMP JUMPDEST PUSH1 0x40 MLOAD DUP1 SWAP2 SUB SWAP1 RETURN JUMPDEST PUSH2 0x18A PUSH1 0x4 DUP1 CALLDATASIZE SUB DUP2 ADD SWAP1 PUSH2 0x185 SWAP2 SWAP1 PUSH2 0xC86 JUMP JUMPDEST PUSH2 0x678 JUMP JUMPDEST PUSH1 0x40 MLOAD PUSH2 0x198 SWAP3 SWAP2 SWAP1 PUSH2 0x10F1 JUMP JUMPDEST PUSH1 0x40 MLOAD DUP1 SWAP2 SUB SWAP1 RETURN JUMPDEST PUSH2 0x1A9 PUSH2 0x7BC JUMP JUMPDEST PUSH1 0x40 MLOAD PUSH2 0x1B6 SWAP2 SWAP1 PUSH2 0x1278 JUMP JUMPDEST PUSH1 0x40 MLOAD DUP1 SWAP2 SUB SWAP1 RETURN JUMPDEST PUSH2 0x1C7 PUSH2 0x93F JUMP JUMPDEST PUSH1 0x40 MLOAD PUSH2 0x1D4 SWAP2 SWAP1 PUSH2 0x13F7 JUMP JUMPDEST PUSH1 0x40 MLOAD DUP1 SWAP2 SUB SWAP1 RETURN JUMPDEST PUSH1 0x3 DUP2 DUP2 SLOAD DUP2 LT PUSH2 0x1ED JUMPI PUSH1 0x0 DUP1 REVERT JUMPDEST SWAP1 PUSH1 0x0 MSTORE PUSH1 0x20 PUSH1 0x0 KECCAK256 ADD PUSH1 0x0 SWAP2 POP SLOAD SWAP1 PUSH2 0x100 EXP SWAP1 DIV PUSH20 0xFFFFFFFFFFFFFFFFFFFFFFFFFFFFFFFFFFFFFFFF AND DUP2 JUMP JUMPDEST PUSH1 0x0 PUSH1 0x40 MLOAD DUP1 PUSH1 0x40 ADD PUSH1 0x40 MSTORE DUP1 DUP5 DUP2 MSTORE PUSH1 0x20 ADD DUP4 DUP2 MSTORE POP SWAP1 POP PUSH1 0x0 DUP2 SWAP1 DUP1 PUSH1 0x1 DUP2 SLOAD ADD DUP1 DUP3 SSTORE DUP1 SWAP2 POP POP PUSH1 0x1 SWAP1 SUB SWAP1 PUSH1 0x0 MSTORE PUSH1 0x20 PUSH1 0x0 KECCAK256 SWAP1 PUSH1 0x2 MUL ADD PUSH1 0x0 SWAP1 SWAP2 SWAP1 SWAP2 SWAP1 SWAP2 POP PUSH1 0x0 DUP3 ADD MLOAD DUP2 PUSH1 0x0 ADD SWAP1 DUP2 PUSH2 0x276 SWAP2 SWAP1 PUSH2 0x1625 JUMP JUMPDEST POP PUSH1 0x20 DUP3 ADD MLOAD DUP2 PUSH1 0x1 ADD SWAP1 DUP2 PUSH2 0x28C SWAP2 SWAP1 PUSH2 0x1625 JUMP JUMPDEST POP POP POP POP POP POP JUMP JUMPDEST PUSH1 0x2 SLOAD DUP2 JUMP JUMPDEST PUSH2 0x2A2 PUSH2 0x5CF JUMP JUMPDEST PUSH2 0x2E1 JUMPI PUSH1 0x40 MLOAD PUSH32 0x8C379A000000000000000000000000000000000000000000000000000000000 DUP2 MSTORE PUSH1 0x4 ADD PUSH2 0x2D8 SWAP1 PUSH2 0x1743 JUMP JUMPDEST PUSH1 0x40 MLOAD DUP1 SWAP2 SUB SWAP1 REVERT JUMPDEST PUSH1 0x40 MLOAD DUP1 PUSH1 0xA0 ADD PUSH1 0x40 MSTORE DUP1 PUSH1 0x2 SLOAD DUP2 MSTORE PUSH1 0x20 ADD DUP5 DUP2 MSTORE PUSH1 0x20 ADD DUP4 DUP2 MSTORE PUSH1 0x20 ADD CALLER PUSH20 0xFFFFFFFFFFFFFFFFFFFFFFFFFFFFFFFFFFFFFFFF AND DUP2 MSTORE PUSH1 0x20 ADD DUP3 DUP2 MSTORE POP PUSH1 0x1 PUSH1 0x0 CALLER PUSH20 0xFFFFFFFFFFFFFFFFFFFFFFFFFFFFFFFFFFFFFFFF AND PUSH20 0xFFFFFFFFFFFFFFFFFFFFFFFFFFFFFFFFFFFFFFFF AND DUP2 MSTORE PUSH1 0x20 ADD SWAP1 DUP2 MSTORE PUSH1 0x20 ADD PUSH1 0x0 KECCAK256 PUSH1 0x0 DUP3 ADD MLOAD DUP2 PUSH1 0x0 ADD SSTORE PUSH1 0x20 DUP3 ADD MLOAD DUP2 PUSH1 0x1 ADD SWAP1 DUP2 PUSH2 0x37E SWAP2 SWAP1 PUSH2 0x1625 JUMP JUMPDEST POP PUSH1 0x40 DUP3 ADD MLOAD DUP2 PUSH1 0x2 ADD SWAP1 DUP2 PUSH2 0x394 SWAP2 SWAP1 PUSH2 0x1625 JUMP JUMPDEST POP PUSH1 0x60 DUP3 ADD MLOAD DUP2 PUSH1 0x3 ADD PUSH1 0x0 PUSH2 0x100 EXP DUP2 SLOAD DUP2 PUSH20 0xFFFFFFFFFFFFFFFFFFFFFFFFFFFFFFFFFFFFFFFF MUL NOT AND SWAP1 DUP4 PUSH20 0xFFFFFFFFFFFFFFFFFFFFFFFFFFFFFFFFFFFFFFFF AND MUL OR SWAP1 SSTORE POP PUSH1 0x80 DUP3 ADD MLOAD DUP2 PUSH1 0x4 ADD SSTORE SWAP1 POP POP PUSH1 0x3 CALLER SWAP1 DUP1 PUSH1 0x1 DUP2 SLOAD ADD DUP1 DUP3 SSTORE DUP1 SWAP2 POP POP PUSH1 0x1 SWAP1 SUB SWAP1 PUSH1 0x0 MSTORE PUSH1 0x20 PUSH1 0x0 KECCAK256 ADD PUSH1 0x0 SWAP1 SWAP2 SWAP1 SWAP2 SWAP1 SWAP2 PUSH2 0x100 EXP DUP2 SLOAD DUP2 PUSH20 0xFFFFFFFFFFFFFFFFFFFFFFFFFFFFFFFFFFFFFFFF MUL NOT AND SWAP1 DUP4 PUSH20 0xFFFFFFFFFFFFFFFFFFFFFFFFFFFFFFFFFFFFFFFF AND MUL OR SWAP1 SSTORE POP PUSH1 0x2 PUSH1 0x0 DUP2 SLOAD DUP1 SWAP3 SWAP2 SWAP1 PUSH2 0x45F SWAP1 PUSH2 0x1792 JUMP JUMPDEST SWAP2 SWAP1 POP SSTORE POP POP POP POP JUMP JUMPDEST PUSH1 0x1 PUSH1 0x20 MSTORE DUP1 PUSH1 0x0 MSTORE PUSH1 0x40 PUSH1 0x0 KECCAK256 PUSH1 0x0 SWAP2 POP SWAP1 POP DUP1 PUSH1 0x0 ADD SLOAD SWAP1 DUP1 PUSH1 0x1 ADD DUP1 SLOAD PUSH2 0x492 SWAP1 PUSH2 0x1448 JUMP JUMPDEST DUP1 PUSH1 0x1F ADD PUSH1 0x20 DUP1 SWAP2 DIV MUL PUSH1 0x20 ADD PUSH1 0x40 MLOAD SWAP1 DUP2 ADD PUSH1 0x40 MSTORE DUP1 SWAP3 SWAP2 SWAP1 DUP2 DUP2 MSTORE PUSH1 0x20 ADD DUP3 DUP1 SLOAD PUSH2 0x4BE SWAP1 PUSH2 0x1448 JUMP JUMPDEST DUP1 ISZERO PUSH2 0x50B JUMPI DUP1 PUSH1 0x1F LT PUSH2 0x4E0 JUMPI PUSH2 0x100 DUP1 DUP4 SLOAD DIV MUL DUP4 MSTORE SWAP2 PUSH1 0x20 ADD SWAP2 PUSH2 0x50B JUMP JUMPDEST DUP3 ADD SWAP2 SWAP1 PUSH1 0x0 MSTORE PUSH1 0x20 PUSH1 0x0 KECCAK256 SWAP1 JUMPDEST DUP2 SLOAD DUP2 MSTORE SWAP1 PUSH1 0x1 ADD SWAP1 PUSH1 0x20 ADD DUP1 DUP4 GT PUSH2 0x4EE JUMPI DUP3 SWAP1 SUB PUSH1 0x1F AND DUP3 ADD SWAP2 JUMPDEST POP POP POP POP POP SWAP1 DUP1 PUSH1 0x2 ADD DUP1 SLOAD PUSH2 0x520 SWAP1 PUSH2 0x1448 JUMP JUMPDEST DUP1 PUSH1 0x1F ADD PUSH1 0x20 DUP1 SWAP2 DIV MUL PUSH1 0x20 ADD PUSH1 0x40 MLOAD SWAP1 DUP2 ADD PUSH1 0x40 MSTORE DUP1 SWAP3 SWAP2 SWAP1 DUP2 DUP2 MSTORE PUSH1 0x20 ADD DUP3 DUP1 SLOAD PUSH2 0x54C SWAP1 PUSH2 0x1448 JUMP JUMPDEST DUP1 ISZERO PUSH2 0x599 JUMPI DUP1 PUSH1 0x1F LT PUSH2 0x56E JUMPI PUSH2 0x100 DUP1 DUP4 SLOAD DIV MUL DUP4 MSTORE SWAP2 PUSH1 0x20 ADD SWAP2 PUSH2 0x599 JUMP JUMPDEST DUP3 ADD SWAP2 SWAP1 PUSH1 0x0 MSTORE PUSH1 0x20 PUSH1 0x0 KECCAK256 SWAP1 JUMPDEST DUP2 SLOAD DUP2 MSTORE SWAP1 PUSH1 0x1 ADD SWAP1 PUSH1 0x20 ADD DUP1 DUP4 GT PUSH2 0x57C JUMPI DUP3 SWAP1 SUB PUSH1 0x1F AND DUP3 ADD SWAP2 JUMPDEST POP POP POP POP POP SWAP1 DUP1 PUSH1 0x3 ADD PUSH1 0x0 SWAP1 SLOAD SWAP1 PUSH2 0x100 EXP SWAP1 DIV PUSH20 0xFFFFFFFFFFFFFFFFFFFFFFFFFFFFFFFFFFFFFFFF AND SWAP1 DUP1 PUSH1 0x4 ADD SLOAD SWAP1 POP DUP6 JUMP JUMPDEST PUSH1 0x0 DUP1 PUSH1 0x0 SWAP1 POP JUMPDEST PUSH1 0x2 SLOAD DUP2 LT ISZERO PUSH2 0x66F JUMPI CALLER PUSH20 0xFFFFFFFFFFFFFFFFFFFFFFFFFFFFFFFFFFFFFFFF AND PUSH1 0x3 DUP3 DUP2 SLOAD DUP2 LT PUSH2 0x60C JUMPI PUSH2 0x60B PUSH2 0x17DA JUMP JUMPDEST JUMPDEST SWAP1 PUSH1 0x0 MSTORE PUSH1 0x20 PUSH1 0x0 KECCAK256 ADD PUSH1 0x0 SWAP1 SLOAD SWAP1 PUSH2 0x100 EXP SWAP1 DIV PUSH20 0xFFFFFFFFFFFFFFFFFFFFFFFFFFFFFFFFFFFFFFFF AND PUSH20 0xFFFFFFFFFFFFFFFFFFFFFFFFFFFFFFFFFFFFFFFF AND SUB PUSH2 0x65C JUMPI PUSH1 0x0 SWAP2 POP POP PUSH2 0x675 JUMP JUMPDEST DUP1 DUP1 PUSH2 0x667 SWAP1 PUSH2 0x1792 JUMP JUMPDEST SWAP2 POP POP PUSH2 0x5D7 JUMP JUMPDEST POP PUSH1 0x1 SWAP1 POP JUMPDEST SWAP1 JUMP JUMPDEST PUSH1 0x0 DUP2 DUP2 SLOAD DUP2 LT PUSH2 0x688 JUMPI PUSH1 0x0 DUP1 REVERT JUMPDEST SWAP1 PUSH1 0x0 MSTORE PUSH1 0x20 PUSH1 0x0 KECCAK256 SWAP1 PUSH1 0x2 MUL ADD PUSH1 0x0 SWAP2 POP SWAP1 POP DUP1 PUSH1 0x0 ADD DUP1 SLOAD PUSH2 0x6AB SWAP1 PUSH2 0x1448 JUMP JUMPDEST DUP1 PUSH1 0x1F ADD PUSH1 0x20 DUP1 SWAP2 DIV MUL PUSH1 0x20 ADD PUSH1 0x40 MLOAD SWAP1 DUP2 ADD PUSH1 0x40 MSTORE DUP1 SWAP3 SWAP2 SWAP1 DUP2 DUP2 MSTORE PUSH1 0x20 ADD DUP3 DUP1 SLOAD PUSH2 0x6D7 SWAP1 PUSH2 0x1448 JUMP JUMPDEST DUP1 ISZERO PUSH2 0x724 JUMPI DUP1 PUSH1 0x1F LT PUSH2 0x6F9 JUMPI PUSH2 0x100 DUP1 DUP4 SLOAD DIV MUL DUP4 MSTORE SWAP2 PUSH1 0x20 ADD SWAP2 PUSH2 0x724 JUMP JUMPDEST DUP3 ADD SWAP2 SWAP1 PUSH1 0x0 MSTORE PUSH1 0x20 PUSH1 0x0 KECCAK256 SWAP1 JUMPDEST DUP2 SLOAD DUP2 MSTORE SWAP1 PUSH1 0x1 ADD SWAP1 PUSH1 0x20 ADD DUP1 DUP4 GT PUSH2 0x707 JUMPI DUP3 SWAP1 SUB PUSH1 0x1F AND DUP3 ADD SWAP2 JUMPDEST POP POP POP POP POP SWAP1 DUP1 PUSH1 0x1 ADD DUP1 SLOAD PUSH2 0x739 SWAP1 PUSH2 0x1448 JUMP JUMPDEST DUP1 PUSH1 0x1F ADD PUSH1 0x20 DUP1 SWAP2 DIV MUL PUSH1 0x20 ADD PUSH1 0x40 MLOAD SWAP1 DUP2 ADD PUSH1 0x40 MSTORE DUP1 SWAP3 SWAP2 SWAP1 DUP2 DUP2 MSTORE PUSH1 0x20 ADD DUP3 DUP1 SLOAD PUSH2 0x765 SWAP1 PUSH2 0x1448 JUMP JUMPDEST DUP1 ISZERO PUSH2 0x7B2 JUMPI DUP1 PUSH1 0x1F LT PUSH2 0x787 JUMPI PUSH2 0x100 DUP1 DUP4 SLOAD DIV MUL DUP4 MSTORE SWAP2 PUSH1 0x20 ADD SWAP2 PUSH2 0x7B2 JUMP JUMPDEST DUP3 ADD SWAP2 SWAP1 PUSH1 0x0 MSTORE PUSH1 0x20 PUSH1 0x0 KECCAK256 SWAP1 JUMPDEST DUP2 SLOAD DUP2 MSTORE SWAP1 PUSH1 0x1 ADD SWAP1 PUSH1 0x20 ADD DUP1 DUP4 GT PUSH2 0x795 JUMPI DUP3 SWAP1 SUB PUSH1 0x1F AND DUP3 ADD SWAP2 JUMPDEST POP POP POP POP POP SWAP1 POP DUP3 JUMP JUMPDEST PUSH1 0x60 PUSH1 0x0 DUP1 SLOAD DUP1 PUSH1 0x20 MUL PUSH1 0x20 ADD PUSH1 0x40 MLOAD SWAP1 DUP2 ADD PUSH1 0x40 MSTORE DUP1 SWAP3 SWAP2 SWAP1 DUP2 DUP2 MSTORE PUSH1 0x20 ADD PUSH1 0x0 SWAP1 JUMPDEST DUP3 DUP3 LT ISZERO PUSH2 0x936 JUMPI DUP4 DUP3 SWAP1 PUSH1 0x0 MSTORE PUSH1 0x20 PUSH1 0x0 KECCAK256 SWAP1 PUSH1 0x2 MUL ADD PUSH1 0x40 MLOAD DUP1 PUSH1 0x40 ADD PUSH1 0x40 MSTORE SWAP1 DUP2 PUSH1 0x0 DUP3 ADD DUP1 SLOAD PUSH2 0x813 SWAP1 PUSH2 0x1448 JUMP JUMPDEST DUP1 PUSH1 0x1F ADD PUSH1 0x20 DUP1 SWAP2 DIV MUL PUSH1 0x20 ADD PUSH1 0x40 MLOAD SWAP1 DUP2 ADD PUSH1 0x40 MSTORE DUP1 SWAP3 SWAP2 SWAP1 DUP2 DUP2 MSTORE PUSH1 0x20 ADD DUP3 DUP1 SLOAD PUSH2 0x83F SWAP1 PUSH2 0x1448 JUMP JUMPDEST DUP1 ISZERO PUSH2 0x88C JUMPI DUP1 PUSH1 0x1F LT PUSH2 0x861 JUMPI PUSH2 0x100 DUP1 DUP4 SLOAD DIV MUL DUP4 MSTORE SWAP2 PUSH1 0x20 ADD SWAP2 PUSH2 0x88C JUMP JUMPDEST DUP3 ADD SWAP2 SWAP1 PUSH1 0x0 MSTORE PUSH1 0x20 PUSH1 0x0 KECCAK256 SWAP1 JUMPDEST DUP2 SLOAD DUP2 MSTORE SWAP1 PUSH1 0x1 ADD SWAP1 PUSH1 0x20 ADD DUP1 DUP4 GT PUSH2 0x86F JUMPI DUP3 SWAP1 SUB PUSH1 0x1F AND DUP3 ADD SWAP2 JUMPDEST POP POP POP POP POP DUP2 MSTORE PUSH1 0x20 ADD PUSH1 0x1 DUP3 ADD DUP1 SLOAD PUSH2 0x8A5 SWAP1 PUSH2 0x1448 JUMP JUMPDEST DUP1 PUSH1 0x1F ADD PUSH1 0x20 DUP1 SWAP2 DIV MUL PUSH1 0x20 ADD PUSH1 0x40 MLOAD SWAP1 DUP2 ADD PUSH1 0x40 MSTORE DUP1 SWAP3 SWAP2 SWAP1 DUP2 DUP2 MSTORE PUSH1 0x20 ADD DUP3 DUP1 SLOAD PUSH2 0x8D1 SWAP1 PUSH2 0x1448 JUMP JUMPDEST DUP1 ISZERO PUSH2 0x91E JUMPI DUP1 PUSH1 0x1F LT PUSH2 0x8F3 JUMPI PUSH2 0x100 DUP1 DUP4 SLOAD DIV MUL DUP4 MSTORE SWAP2 PUSH1 0x20 ADD SWAP2 PUSH2 0x91E JUMP JUMPDEST DUP3 ADD SWAP2 SWAP1 PUSH1 0x0 MSTORE PUSH1 0x20 PUSH1 0x0 KECCAK256 SWAP1 JUMPDEST DUP2 SLOAD DUP2 MSTORE SWAP1 PUSH1 0x1 ADD SWAP1 PUSH1 0x20 ADD DUP1 DUP4 GT PUSH2 0x901 JUMPI DUP3 SWAP1 SUB PUSH1 0x1F AND DUP3 ADD SWAP2 JUMPDEST POP POP POP POP POP DUP2 MSTORE POP POP DUP2 MSTORE PUSH1 0x20 ADD SWAP1 PUSH1 0x1 ADD SWAP1 PUSH2 0x7E0 JUMP JUMPDEST POP POP POP POP SWAP1 POP SWAP1 JUMP JUMPDEST PUSH1 0x60 PUSH1 0x0 PUSH1 0x2 SLOAD PUSH8 0xFFFFFFFFFFFFFFFF DUP2 GT ISZERO PUSH2 0x95F JUMPI PUSH2 0x95E PUSH2 0xD2A JUMP JUMPDEST JUMPDEST PUSH1 0x40 MLOAD SWAP1 DUP1 DUP3 MSTORE DUP1 PUSH1 0x20 MUL PUSH1 0x20 ADD DUP3 ADD PUSH1 0x40 MSTORE DUP1 ISZERO PUSH2 0x998 JUMPI DUP2 PUSH1 0x20 ADD JUMPDEST PUSH2 0x985 PUSH2 0xBF7 JUMP JUMPDEST DUP2 MSTORE PUSH1 0x20 ADD SWAP1 PUSH1 0x1 SWAP1 SUB SWAP1 DUP2 PUSH2 0x97D JUMPI SWAP1 POP JUMPDEST POP SWAP1 POP PUSH1 0x0 JUMPDEST PUSH1 0x2 SLOAD DUP2 LT ISZERO PUSH2 0xBEF JUMPI PUSH1 0x1 PUSH1 0x0 PUSH1 0x3 DUP4 DUP2 SLOAD DUP2 LT PUSH2 0x9C0 JUMPI PUSH2 0x9BF PUSH2 0x17DA JUMP JUMPDEST JUMPDEST SWAP1 PUSH1 0x0 MSTORE PUSH1 0x20 PUSH1 0x0 KECCAK256 ADD PUSH1 0x0 SWAP1 SLOAD SWAP1 PUSH2 0x100 EXP SWAP1 DIV PUSH20 0xFFFFFFFFFFFFFFFFFFFFFFFFFFFFFFFFFFFFFFFF AND PUSH20 0xFFFFFFFFFFFFFFFFFFFFFFFFFFFFFFFFFFFFFFFF AND PUSH20 0xFFFFFFFFFFFFFFFFFFFFFFFFFFFFFFFFFFFFFFFF AND DUP2 MSTORE PUSH1 0x20 ADD SWAP1 DUP2 MSTORE PUSH1 0x20 ADD PUSH1 0x0 KECCAK256 PUSH1 0x40 MLOAD DUP1 PUSH1 0xA0 ADD PUSH1 0x40 MSTORE SWAP1 DUP2 PUSH1 0x0 DUP3 ADD SLOAD DUP2 MSTORE PUSH1 0x20 ADD PUSH1 0x1 DUP3 ADD DUP1 SLOAD PUSH2 0xA4A SWAP1 PUSH2 0x1448 JUMP JUMPDEST DUP1 PUSH1 0x1F ADD PUSH1 0x20 DUP1 SWAP2 DIV MUL PUSH1 0x20 ADD PUSH1 0x40 MLOAD SWAP1 DUP2 ADD PUSH1 0x40 MSTORE DUP1 SWAP3 SWAP2 SWAP1 DUP2 DUP2 MSTORE PUSH1 0x20 ADD DUP3 DUP1 SLOAD PUSH2 0xA76 SWAP1 PUSH2 0x1448 JUMP JUMPDEST DUP1 ISZERO PUSH2 0xAC3 JUMPI DUP1 PUSH1 0x1F LT PUSH2 0xA98 JUMPI PUSH2 0x100 DUP1 DUP4 SLOAD DIV MUL DUP4 MSTORE SWAP2 PUSH1 0x20 ADD SWAP2 PUSH2 0xAC3 JUMP JUMPDEST DUP3 ADD SWAP2 SWAP1 PUSH1 0x0 MSTORE PUSH1 0x20 PUSH1 0x0 KECCAK256 SWAP1 JUMPDEST DUP2 SLOAD DUP2 MSTORE SWAP1 PUSH1 0x1 ADD SWAP1 PUSH1 0x20 ADD DUP1 DUP4 GT PUSH2 0xAA6 JUMPI DUP3 SWAP1 SUB PUSH1 0x1F AND DUP3 ADD SWAP2 JUMPDEST POP POP POP POP POP DUP2 MSTORE PUSH1 0x20 ADD PUSH1 0x2 DUP3 ADD DUP1 SLOAD PUSH2 0xADC SWAP1 PUSH2 0x1448 JUMP JUMPDEST DUP1 PUSH1 0x1F ADD PUSH1 0x20 DUP1 SWAP2 DIV MUL PUSH1 0x20 ADD PUSH1 0x40 MLOAD SWAP1 DUP2 ADD PUSH1 0x40 MSTORE DUP1 SWAP3 SWAP2 SWAP1 DUP2 DUP2 MSTORE PUSH1 0x20 ADD DUP3 DUP1 SLOAD PUSH2 0xB08 SWAP1 PUSH2 0x1448 JUMP JUMPDEST DUP1 ISZERO PUSH2 0xB55 JUMPI DUP1 PUSH1 0x1F LT PUSH2 0xB2A JUMPI PUSH2 0x100 DUP1 DUP4 SLOAD DIV MUL DUP4 MSTORE SWAP2 PUSH1 0x20 ADD SWAP2 PUSH2 0xB55 JUMP JUMPDEST DUP3 ADD SWAP2 SWAP1 PUSH1 0x0 MSTORE PUSH1 0x20 PUSH1 0x0 KECCAK256 SWAP1 JUMPDEST DUP2 SLOAD DUP2 MSTORE SWAP1 PUSH1 0x1 ADD SWAP1 PUSH1 0x20 ADD DUP1 DUP4 GT PUSH2 0xB38 JUMPI DUP3 SWAP1 SUB PUSH1 0x1F AND DUP3 ADD SWAP2 JUMPDEST POP POP POP POP POP DUP2 MSTORE PUSH1 0x20 ADD PUSH1 0x3 DUP3 ADD PUSH1 0x0 SWAP1 SLOAD SWAP1 PUSH2 0x100 EXP SWAP1 DIV PUSH20 0xFFFFFFFFFFFFFFFFFFFFFFFFFFFFFFFFFFFFFFFF AND PUSH20 0xFFFFFFFFFFFFFFFFFFFFFFFFFFFFFFFFFFFFFFFF AND PUSH20 0xFFFFFFFFFFFFFFFFFFFFFFFFFFFFFFFFFFFFFFFF AND DUP2 MSTORE PUSH1 0x20 ADD PUSH1 0x4 DUP3 ADD SLOAD DUP2 MSTORE POP POP DUP3 DUP3 DUP2 MLOAD DUP2 LT PUSH2 0xBD1 JUMPI PUSH2 0xBD0 PUSH2 0x17DA JUMP JUMPDEST JUMPDEST PUSH1 0x20 MUL PUSH1 0x20 ADD ADD DUP2 SWAP1 MSTORE POP DUP1 DUP1 PUSH2 0xBE7 SWAP1 PUSH2 0x1792 JUMP JUMPDEST SWAP2 POP POP PUSH2 0x99E JUMP JUMPDEST POP DUP1 SWAP2 POP POP SWAP1 JUMP JUMPDEST PUSH1 0x40 MLOAD DUP1 PUSH1 0xA0 ADD PUSH1 0x40 MSTORE DUP1 PUSH1 0x0 DUP2 MSTORE PUSH1 0x20 ADD PUSH1 0x60 DUP2 MSTORE PUSH1 0x20 ADD PUSH1 0x60 DUP2 MSTORE PUSH1 0x20 ADD PUSH1 0x0 PUSH20 0xFFFFFFFFFFFFFFFFFFFFFFFFFFFFFFFFFFFFFFFF AND DUP2 MSTORE PUSH1 0x20 ADD PUSH1 0x0 DUP2 MSTORE POP SWAP1 JUMP JUMPDEST PUSH1 0x0 PUSH1 0x40 MLOAD SWAP1 POP SWAP1 JUMP JUMPDEST PUSH1 0x0 DUP1 REVERT JUMPDEST PUSH1 0x0 DUP1 REVERT JUMPDEST PUSH1 0x0 DUP2 SWAP1 POP SWAP2 SWAP1 POP JUMP JUMPDEST PUSH2 0xC63 DUP2 PUSH2 0xC50 JUMP JUMPDEST DUP2 EQ PUSH2 0xC6E JUMPI PUSH1 0x0 DUP1 REVERT JUMPDEST POP JUMP JUMPDEST PUSH1 0x0 DUP2 CALLDATALOAD SWAP1 POP PUSH2 0xC80 DUP2 PUSH2 0xC5A JUMP JUMPDEST SWAP3 SWAP2 POP POP JUMP JUMPDEST PUSH1 0x0 PUSH1 0x20 DUP3 DUP5 SUB SLT ISZERO PUSH2 0xC9C JUMPI PUSH2 0xC9B PUSH2 0xC46 JUMP JUMPDEST JUMPDEST PUSH1 0x0 PUSH2 0xCAA DUP5 DUP3 DUP6 ADD PUSH2 0xC71 JUMP JUMPDEST SWAP2 POP POP SWAP3 SWAP2 POP POP JUMP JUMPDEST PUSH1 0x0 PUSH20 0xFFFFFFFFFFFFFFFFFFFFFFFFFFFFFFFFFFFFFFFF DUP3 AND SWAP1 POP SWAP2 SWAP1 POP JUMP JUMPDEST PUSH1 0x0 PUSH2 0xCDE DUP3 PUSH2 0xCB3 JUMP JUMPDEST SWAP1 POP SWAP2 SWAP1 POP JUMP JUMPDEST PUSH2 0xCEE DUP2 PUSH2 0xCD3 JUMP JUMPDEST DUP3 MSTORE POP POP JUMP JUMPDEST PUSH1 0x0 PUSH1 0x20 DUP3 ADD SWAP1 POP PUSH2 0xD09 PUSH1 0x0 DUP4 ADD DUP5 PUSH2 0xCE5 JUMP JUMPDEST SWAP3 SWAP2 POP POP JUMP JUMPDEST PUSH1 0x0 DUP1 REVERT JUMPDEST PUSH1 0x0 DUP1 REVERT JUMPDEST PUSH1 0x0 PUSH1 0x1F NOT PUSH1 0x1F DUP4 ADD AND SWAP1 POP SWAP2 SWAP1 POP JUMP JUMPDEST PUSH32 0x4E487B7100000000000000000000000000000000000000000000000000000000 PUSH1 0x0 MSTORE PUSH1 0x41 PUSH1 0x4 MSTORE PUSH1 0x24 PUSH1 0x0 REVERT JUMPDEST PUSH2 0xD62 DUP3 PUSH2 0xD19 JUMP JUMPDEST DUP2 ADD DUP2 DUP2 LT PUSH8 0xFFFFFFFFFFFFFFFF DUP3 GT OR ISZERO PUSH2 0xD81 JUMPI PUSH2 0xD80 PUSH2 0xD2A JUMP JUMPDEST JUMPDEST DUP1 PUSH1 0x40 MSTORE POP POP POP JUMP JUMPDEST PUSH1 0x0 PUSH2 0xD94 PUSH2 0xC3C JUMP JUMPDEST SWAP1 POP PUSH2 0xDA0 DUP3 DUP3 PUSH2 0xD59 JUMP JUMPDEST SWAP2 SWAP1 POP JUMP JUMPDEST PUSH1 0x0 PUSH8 0xFFFFFFFFFFFFFFFF DUP3 GT ISZERO PUSH2 0xDC0 JUMPI PUSH2 0xDBF PUSH2 0xD2A JUMP JUMPDEST JUMPDEST PUSH2 0xDC9 DUP3 PUSH2 0xD19 JUMP JUMPDEST SWAP1 POP PUSH1 0x20 DUP2 ADD SWAP1 POP SWAP2 SWAP1 POP JUMP JUMPDEST DUP3 DUP2 DUP4 CALLDATACOPY PUSH1 0x0 DUP4 DUP4 ADD MSTORE POP POP POP JUMP JUMPDEST PUSH1 0x0 PUSH2 0xDF8 PUSH2 0xDF3 DUP5 PUSH2 0xDA5 JUMP JUMPDEST PUSH2 0xD8A JUMP JUMPDEST SWAP1 POP DUP3 DUP2 MSTORE PUSH1 0x20 DUP2 ADD DUP5 DUP5 DUP5 ADD GT ISZERO PUSH2 0xE14 JUMPI PUSH2 0xE13 PUSH2 0xD14 JUMP JUMPDEST JUMPDEST PUSH2 0xE1F DUP5 DUP3 DUP6 PUSH2 0xDD6 JUMP JUMPDEST POP SWAP4 SWAP3 POP POP POP JUMP JUMPDEST PUSH1 0x0 DUP3 PUSH1 0x1F DUP4 ADD SLT PUSH2 0xE3C JUMPI PUSH2 0xE3B PUSH2 0xD0F JUMP JUMPDEST JUMPDEST DUP2 CALLDATALOAD PUSH2 0xE4C DUP5 DUP3 PUSH1 0x20 DUP7 ADD PUSH2 0xDE5 JUMP JUMPDEST SWAP2 POP POP SWAP3 SWAP2 POP POP JUMP JUMPDEST PUSH1 0x0 DUP1 PUSH1 0x40 DUP4 DUP6 SUB SLT ISZERO PUSH2 0xE6C JUMPI PUSH2 0xE6B PUSH2 0xC46 JUMP JUMPDEST JUMPDEST PUSH1 0x0 DUP4 ADD CALLDATALOAD PUSH8 0xFFFFFFFFFFFFFFFF DUP2 GT ISZERO PUSH2 0xE8A JUMPI PUSH2 0xE89 PUSH2 0xC4B JUMP JUMPDEST JUMPDEST PUSH2 0xE96 DUP6 DUP3 DUP7 ADD PUSH2 0xE27 JUMP JUMPDEST SWAP3 POP POP PUSH1 0x20 DUP4 ADD CALLDATALOAD PUSH8 0xFFFFFFFFFFFFFFFF DUP2 GT ISZERO PUSH2 0xEB7 JUMPI PUSH2 0xEB6 PUSH2 0xC4B JUMP JUMPDEST JUMPDEST PUSH2 0xEC3 DUP6 DUP3 DUP7 ADD PUSH2 0xE27 JUMP JUMPDEST SWAP2 POP POP SWAP3 POP SWAP3 SWAP1 POP JUMP JUMPDEST PUSH2 0xED6 DUP2 PUSH2 0xC50 JUMP JUMPDEST DUP3 MSTORE POP POP JUMP JUMPDEST PUSH1 0x0 PUSH1 0x20 DUP3 ADD SWAP1 POP PUSH2 0xEF1 PUSH1 0x0 DUP4 ADD DUP5 PUSH2 0xECD JUMP JUMPDEST SWAP3 SWAP2 POP POP JUMP JUMPDEST PUSH1 0x0 DUP1 PUSH1 0x0 PUSH1 0x60 DUP5 DUP7 SUB SLT ISZERO PUSH2 0xF10 JUMPI PUSH2 0xF0F PUSH2 0xC46 JUMP JUMPDEST JUMPDEST PUSH1 0x0 DUP5 ADD CALLDATALOAD PUSH8 0xFFFFFFFFFFFFFFFF DUP2 GT ISZERO PUSH2 0xF2E JUMPI PUSH2 0xF2D PUSH2 0xC4B JUMP JUMPDEST JUMPDEST PUSH2 0xF3A DUP7 DUP3 DUP8 ADD PUSH2 0xE27 JUMP JUMPDEST SWAP4 POP POP PUSH1 0x20 DUP5 ADD CALLDATALOAD PUSH8 0xFFFFFFFFFFFFFFFF DUP2 GT ISZERO PUSH2 0xF5B JUMPI PUSH2 0xF5A PUSH2 0xC4B JUMP JUMPDEST JUMPDEST PUSH2 0xF67 DUP7 DUP3 DUP8 ADD PUSH2 0xE27 JUMP JUMPDEST SWAP3 POP POP PUSH1 0x40 PUSH2 0xF78 DUP7 DUP3 DUP8 ADD PUSH2 0xC71 JUMP JUMPDEST SWAP2 POP POP SWAP3 POP SWAP3 POP SWAP3 JUMP JUMPDEST PUSH2 0xF8B DUP2 PUSH2 0xCD3 JUMP JUMPDEST DUP2 EQ PUSH2 0xF96 JUMPI PUSH1 0x0 DUP1 REVERT JUMPDEST POP JUMP JUMPDEST PUSH1 0x0 DUP2 CALLDATALOAD SWAP1 POP PUSH2 0xFA8 DUP2 PUSH2 0xF82 JUMP JUMPDEST SWAP3 SWAP2 POP POP JUMP JUMPDEST PUSH1 0x0 PUSH1 0x20 DUP3 DUP5 SUB SLT ISZERO PUSH2 0xFC4 JUMPI PUSH2 0xFC3 PUSH2 0xC46 JUMP JUMPDEST JUMPDEST PUSH1 0x0 PUSH2 0xFD2 DUP5 DUP3 DUP6 ADD PUSH2 0xF99 JUMP JUMPDEST SWAP2 POP POP SWAP3 SWAP2 POP POP JUMP JUMPDEST PUSH1 0x0 DUP2 MLOAD SWAP1 POP SWAP2 SWAP1 POP JUMP JUMPDEST PUSH1 0x0 DUP3 DUP3 MSTORE PUSH1 0x20 DUP3 ADD SWAP1 POP SWAP3 SWAP2 POP POP JUMP JUMPDEST PUSH1 0x0 JUMPDEST DUP4 DUP2 LT ISZERO PUSH2 0x1015 JUMPI DUP1 DUP3 ADD MLOAD DUP2 DUP5 ADD MSTORE PUSH1 0x20 DUP2 ADD SWAP1 POP PUSH2 0xFFA JUMP JUMPDEST PUSH1 0x0 DUP5 DUP5 ADD MSTORE POP POP POP POP JUMP JUMPDEST PUSH1 0x0 PUSH2 0x102C DUP3 PUSH2 0xFDB JUMP JUMPDEST PUSH2 0x1036 DUP2 DUP6 PUSH2 0xFE6 JUMP JUMPDEST SWAP4 POP PUSH2 0x1046 DUP2 DUP6 PUSH1 0x20 DUP7 ADD PUSH2 0xFF7 JUMP JUMPDEST PUSH2 0x104F DUP2 PUSH2 0xD19 JUMP JUMPDEST DUP5 ADD SWAP2 POP POP SWAP3 SWAP2 POP POP JUMP JUMPDEST PUSH1 0x0 PUSH1 0xA0 DUP3 ADD SWAP1 POP PUSH2 0x106F PUSH1 0x0 DUP4 ADD DUP9 PUSH2 0xECD JUMP JUMPDEST DUP2 DUP2 SUB PUSH1 0x20 DUP4 ADD MSTORE PUSH2 0x1081 DUP2 DUP8 PUSH2 0x1021 JUMP JUMPDEST SWAP1 POP DUP2 DUP2 SUB PUSH1 0x40 DUP4 ADD MSTORE PUSH2 0x1095 DUP2 DUP7 PUSH2 0x1021 JUMP JUMPDEST SWAP1 POP PUSH2 0x10A4 PUSH1 0x60 DUP4 ADD DUP6 PUSH2 0xCE5 JUMP JUMPDEST PUSH2 0x10B1 PUSH1 0x80 DUP4 ADD DUP5 PUSH2 0xECD JUMP JUMPDEST SWAP7 SWAP6 POP POP POP POP POP POP JUMP JUMPDEST PUSH1 0x0 DUP2 ISZERO ISZERO SWAP1 POP SWAP2 SWAP1 POP JUMP JUMPDEST PUSH2 0x10D0 DUP2 PUSH2 0x10BB JUMP JUMPDEST DUP3 MSTORE POP POP JUMP JUMPDEST PUSH1 0x0 PUSH1 0x20 DUP3 ADD SWAP1 POP PUSH2 0x10EB PUSH1 0x0 DUP4 ADD DUP5 PUSH2 0x10C7 JUMP JUMPDEST SWAP3 SWAP2 POP POP JUMP JUMPDEST PUSH1 0x0 PUSH1 0x40 DUP3 ADD SWAP1 POP DUP2 DUP2 SUB PUSH1 0x0 DUP4 ADD MSTORE PUSH2 0x110B DUP2 DUP6 PUSH2 0x1021 JUMP JUMPDEST SWAP1 POP DUP2 DUP2 SUB PUSH1 0x20 DUP4 ADD MSTORE PUSH2 0x111F DUP2 DUP5 PUSH2 0x1021 JUMP JUMPDEST SWAP1 POP SWAP4 SWAP3 POP POP POP JUMP JUMPDEST PUSH1 0x0 DUP2 MLOAD SWAP1 POP SWAP2 SWAP1 POP JUMP JUMPDEST PUSH1 0x0 DUP3 DUP3 MSTORE PUSH1 0x20 DUP3 ADD SWAP1 POP SWAP3 SWAP2 POP POP JUMP JUMPDEST PUSH1 0x0 DUP2 SWAP1 POP PUSH1 0x20 DUP3 ADD SWAP1 POP SWAP2 SWAP1 POP JUMP JUMPDEST PUSH1 0x0 DUP3 DUP3 MSTORE PUSH1 0x20 DUP3 ADD SWAP1 POP SWAP3 SWAP2 POP POP JUMP JUMPDEST PUSH1 0x0 PUSH2 0x1170 DUP3 PUSH2 0xFDB JUMP JUMPDEST PUSH2 0x117A DUP2 DUP6 PUSH2 0x1154 JUMP JUMPDEST SWAP4 POP PUSH2 0x118A DUP2 DUP6 PUSH1 0x20 DUP7 ADD PUSH2 0xFF7 JUMP JUMPDEST PUSH2 0x1193 DUP2 PUSH2 0xD19 JUMP JUMPDEST DUP5 ADD SWAP2 POP POP SWAP3 SWAP2 POP POP JUMP JUMPDEST PUSH1 0x0 PUSH1 0x40 DUP4 ADD PUSH1 0x0 DUP4 ADD MLOAD DUP5 DUP3 SUB PUSH1 0x0 DUP7 ADD MSTORE PUSH2 0x11BB DUP3 DUP3 PUSH2 0x1165 JUMP JUMPDEST SWAP2 POP POP PUSH1 0x20 DUP4 ADD MLOAD DUP5 DUP3 SUB PUSH1 0x20 DUP7 ADD MSTORE PUSH2 0x11D5 DUP3 DUP3 PUSH2 0x1165 JUMP JUMPDEST SWAP2 POP POP DUP1 SWAP2 POP POP SWAP3 SWAP2 POP POP JUMP JUMPDEST PUSH1 0x0 PUSH2 0x11EE DUP4 DUP4 PUSH2 0x119E JUMP JUMPDEST SWAP1 POP SWAP3 SWAP2 POP POP JUMP JUMPDEST PUSH1 0x0 PUSH1 0x20 DUP3 ADD SWAP1 POP SWAP2 SWAP1 POP JUMP JUMPDEST PUSH1 0x0 PUSH2 0x120E DUP3 PUSH2 0x1128 JUMP JUMPDEST PUSH2 0x1218 DUP2 DUP6 PUSH2 0x1133 JUMP JUMPDEST SWAP4 POP DUP4 PUSH1 0x20 DUP3 MUL DUP6 ADD PUSH2 0x122A DUP6 PUSH2 0x1144 JUMP JUMPDEST DUP1 PUSH1 0x0 JUMPDEST DUP6 DUP2 LT ISZERO PUSH2 0x1266 JUMPI DUP5 DUP5 SUB DUP10 MSTORE DUP2 MLOAD PUSH2 0x1247 DUP6 DUP3 PUSH2 0x11E2 JUMP JUMPDEST SWAP5 POP PUSH2 0x1252 DUP4 PUSH2 0x11F6 JUMP JUMPDEST SWAP3 POP PUSH1 0x20 DUP11 ADD SWAP10 POP POP PUSH1 0x1 DUP2 ADD SWAP1 POP PUSH2 0x122E JUMP JUMPDEST POP DUP3 SWAP8 POP DUP8 SWAP6 POP POP POP POP POP POP SWAP3 SWAP2 POP POP JUMP JUMPDEST PUSH1 0x0 PUSH1 0x20 DUP3 ADD SWAP1 POP DUP2 DUP2 SUB PUSH1 0x0 DUP4 ADD MSTORE PUSH2 0x1292 DUP2 DUP5 PUSH2 0x1203 JUMP JUMPDEST SWAP1 POP SWAP3 SWAP2 POP POP JUMP JUMPDEST PUSH1 0x0 DUP2 MLOAD SWAP1 POP SWAP2 SWAP1 POP JUMP JUMPDEST PUSH1 0x0 DUP3 DUP3 MSTORE PUSH1 0x20 DUP3 ADD SWAP1 POP SWAP3 SWAP2 POP POP JUMP JUMPDEST PUSH1 0x0 DUP2 SWAP1 POP PUSH1 0x20 DUP3 ADD SWAP1 POP SWAP2 SWAP1 POP JUMP JUMPDEST PUSH2 0x12CF DUP2 PUSH2 0xC50 JUMP JUMPDEST DUP3 MSTORE POP POP JUMP JUMPDEST PUSH2 0x12DE DUP2 PUSH2 0xCD3 JUMP JUMPDEST DUP3 MSTORE POP POP JUMP JUMPDEST PUSH1 0x0 PUSH1 0xA0 DUP4 ADD PUSH1 0x0 DUP4 ADD MLOAD PUSH2 0x12FC PUSH1 0x0 DUP7 ADD DUP3 PUSH2 0x12C6 JUMP JUMPDEST POP PUSH1 0x20 DUP4 ADD MLOAD DUP5 DUP3 SUB PUSH1 0x20 DUP7 ADD MSTORE PUSH2 0x1314 DUP3 DUP3 PUSH2 0x1165 JUMP JUMPDEST SWAP2 POP POP PUSH1 0x40 DUP4 ADD MLOAD DUP5 DUP3 SUB PUSH1 0x40 DUP7 ADD MSTORE PUSH2 0x132E DUP3 DUP3 PUSH2 0x1165 JUMP JUMPDEST SWAP2 POP POP PUSH1 0x60 DUP4 ADD MLOAD PUSH2 0x1343 PUSH1 0x60 DUP7 ADD DUP3 PUSH2 0x12D5 JUMP JUMPDEST POP PUSH1 0x80 DUP4 ADD MLOAD PUSH2 0x1356 PUSH1 0x80 DUP7 ADD DUP3 PUSH2 0x12C6 JUMP JUMPDEST POP DUP1 SWAP2 POP POP SWAP3 SWAP2 POP POP JUMP JUMPDEST PUSH1 0x0 PUSH2 0x136D DUP4 DUP4 PUSH2 0x12E4 JUMP JUMPDEST SWAP1 POP SWAP3 SWAP2 POP POP JUMP JUMPDEST PUSH1 0x0 PUSH1 0x20 DUP3 ADD SWAP1 POP SWAP2 SWAP1 POP JUMP JUMPDEST PUSH1 0x0 PUSH2 0x138D DUP3 PUSH2 0x129A JUMP JUMPDEST PUSH2 0x1397 DUP2 DUP6 PUSH2 0x12A5 JUMP JUMPDEST SWAP4 POP DUP4 PUSH1 0x20 DUP3 MUL DUP6 ADD PUSH2 0x13A9 DUP6 PUSH2 0x12B6 JUMP JUMPDEST DUP1 PUSH1 0x0 JUMPDEST DUP6 DUP2 LT ISZERO PUSH2 0x13E5 JUMPI DUP5 DUP5 SUB DUP10 MSTORE DUP2 MLOAD PUSH2 0x13C6 DUP6 DUP3 PUSH2 0x1361 JUMP JUMPDEST SWAP5 POP PUSH2 0x13D1 DUP4 PUSH2 0x1375 JUMP JUMPDEST SWAP3 POP PUSH1 0x20 DUP11 ADD SWAP10 POP POP PUSH1 0x1 DUP2 ADD SWAP1 POP PUSH2 0x13AD JUMP JUMPDEST POP DUP3 SWAP8 POP DUP8 SWAP6 POP POP POP POP POP POP SWAP3 SWAP2 POP POP JUMP JUMPDEST PUSH1 0x0 PUSH1 0x20 DUP3 ADD SWAP1 POP DUP2 DUP2 SUB PUSH1 0x0 DUP4 ADD MSTORE PUSH2 0x1411 DUP2 DUP5 PUSH2 0x1382 JUMP JUMPDEST SWAP1 POP SWAP3 SWAP2 POP POP JUMP JUMPDEST PUSH32 0x4E487B7100000000000000000000000000000000000000000000000000000000 PUSH1 0x0 MSTORE PUSH1 0x22 PUSH1 0x4 MSTORE PUSH1 0x24 PUSH1 0x0 REVERT JUMPDEST PUSH1 0x0 PUSH1 0x2 DUP3 DIV SWAP1 POP PUSH1 0x1 DUP3 AND DUP1 PUSH2 0x1460 JUMPI PUSH1 0x7F DUP3 AND SWAP2 POP JUMPDEST PUSH1 0x20 DUP3 LT DUP2 SUB PUSH2 0x1473 JUMPI PUSH2 0x1472 PUSH2 0x1419 JUMP JUMPDEST JUMPDEST POP SWAP2 SWAP1 POP JUMP JUMPDEST PUSH1 0x0 DUP2 SWAP1 POP DUP2 PUSH1 0x0 MSTORE PUSH1 0x20 PUSH1 0x0 KECCAK256 SWAP1 POP SWAP2 SWAP1 POP JUMP JUMPDEST PUSH1 0x0 PUSH1 0x20 PUSH1 0x1F DUP4 ADD DIV SWAP1 POP SWAP2 SWAP1 POP JUMP JUMPDEST PUSH1 0x0 DUP3 DUP3 SHL SWAP1 POP SWAP3 SWAP2 POP POP JUMP JUMPDEST PUSH1 0x0 PUSH1 0x8 DUP4 MUL PUSH2 0x14DB PUSH32 0xFFFFFFFFFFFFFFFFFFFFFFFFFFFFFFFFFFFFFFFFFFFFFFFFFFFFFFFFFFFFFFFF DUP3 PUSH2 0x149E JUMP JUMPDEST PUSH2 0x14E5 DUP7 DUP4 PUSH2 0x149E JUMP JUMPDEST SWAP6 POP DUP1 NOT DUP5 AND SWAP4 POP DUP1 DUP7 AND DUP5 OR SWAP3 POP POP POP SWAP4 SWAP3 POP POP POP JUMP JUMPDEST PUSH1 0x0 DUP2 SWAP1 POP SWAP2 SWAP1 POP JUMP JUMPDEST PUSH1 0x0 PUSH2 0x1522 PUSH2 0x151D PUSH2 0x1518 DUP5 PUSH2 0xC50 JUMP JUMPDEST PUSH2 0x14FD JUMP JUMPDEST PUSH2 0xC50 JUMP JUMPDEST SWAP1 POP SWAP2 SWAP1 POP JUMP JUMPDEST PUSH1 0x0 DUP2 SWAP1 POP SWAP2 SWAP1 POP JUMP JUMPDEST PUSH2 0x153C DUP4 PUSH2 0x1507 JUMP JUMPDEST PUSH2 0x1550 PUSH2 0x1548 DUP3 PUSH2 0x1529 JUMP JUMPDEST DUP5 DUP5 SLOAD PUSH2 0x14AB JUMP JUMPDEST DUP3 SSTORE POP POP POP POP JUMP JUMPDEST PUSH1 0x0 SWAP1 JUMP JUMPDEST PUSH2 0x1565 PUSH2 0x1558 JUMP JUMPDEST PUSH2 0x1570 DUP2 DUP5 DUP5 PUSH2 0x1533 JUMP JUMPDEST POP POP POP JUMP JUMPDEST JUMPDEST DUP2 DUP2 LT ISZERO PUSH2 0x1594 JUMPI PUSH2 0x1589 PUSH1 0x0 DUP3 PUSH2 0x155D JUMP JUMPDEST PUSH1 0x1 DUP2 ADD SWAP1 POP PUSH2 0x1576 JUMP JUMPDEST POP POP JUMP JUMPDEST PUSH1 0x1F DUP3 GT ISZERO PUSH2 0x15D9 JUMPI PUSH2 0x15AA DUP2 PUSH2 0x1479 JUMP JUMPDEST PUSH2 0x15B3 DUP5 PUSH2 0x148E JUMP JUMPDEST DUP2 ADD PUSH1 0x20 DUP6 LT ISZERO PUSH2 0x15C2 JUMPI DUP2 SWAP1 POP JUMPDEST PUSH2 0x15D6 PUSH2 0x15CE DUP6 PUSH2 0x148E JUMP JUMPDEST DUP4 ADD DUP3 PUSH2 0x1575 JUMP JUMPDEST POP POP JUMPDEST POP POP POP JUMP JUMPDEST PUSH1 0x0 DUP3 DUP3 SHR SWAP1 POP SWAP3 SWAP2 POP POP JUMP JUMPDEST PUSH1 0x0 PUSH2 0x15FC PUSH1 0x0 NOT DUP5 PUSH1 0x8 MUL PUSH2 0x15DE JUMP JUMPDEST NOT DUP1 DUP4 AND SWAP2 POP POP SWAP3 SWAP2 POP POP JUMP JUMPDEST PUSH1 0x0 PUSH2 0x1615 DUP4 DUP4 PUSH2 0x15EB JUMP JUMPDEST SWAP2 POP DUP3 PUSH1 0x2 MUL DUP3 OR SWAP1 POP SWAP3 SWAP2 POP POP JUMP JUMPDEST PUSH2 0x162E DUP3 PUSH2 0xFDB JUMP JUMPDEST PUSH8 0xFFFFFFFFFFFFFFFF DUP2 GT ISZERO PUSH2 0x1647 JUMPI PUSH2 0x1646 PUSH2 0xD2A JUMP JUMPDEST JUMPDEST PUSH2 0x1651 DUP3 SLOAD PUSH2 0x1448 JUMP JUMPDEST PUSH2 0x165C DUP3 DUP3 DUP6 PUSH2 0x1598 JUMP JUMPDEST PUSH1 0x0 PUSH1 0x20 SWAP1 POP PUSH1 0x1F DUP4 GT PUSH1 0x1 DUP2 EQ PUSH2 0x168F JUMPI PUSH1 0x0 DUP5 ISZERO PUSH2 0x167D JUMPI DUP3 DUP8 ADD MLOAD SWAP1 POP JUMPDEST PUSH2 0x1687 DUP6 DUP3 PUSH2 0x1609 JUMP JUMPDEST DUP7 SSTORE POP PUSH2 0x16EF JUMP JUMPDEST PUSH1 0x1F NOT DUP5 AND PUSH2 0x169D DUP7 PUSH2 0x1479 JUMP JUMPDEST PUSH1 0x0 JUMPDEST DUP3 DUP2 LT ISZERO PUSH2 0x16C5 JUMPI DUP5 DUP10 ADD MLOAD DUP3 SSTORE PUSH1 0x1 DUP3 ADD SWAP2 POP PUSH1 0x20 DUP6 ADD SWAP5 POP PUSH1 0x20 DUP2 ADD SWAP1 POP PUSH2 0x16A0 JUMP JUMPDEST DUP7 DUP4 LT ISZERO PUSH2 0x16E2 JUMPI DUP5 DUP10 ADD MLOAD PUSH2 0x16DE PUSH1 0x1F DUP10 AND DUP3 PUSH2 0x15EB JUMP JUMPDEST DUP4 SSTORE POP JUMPDEST PUSH1 0x1 PUSH1 0x2 DUP9 MUL ADD DUP9 SSTORE POP POP POP JUMPDEST POP POP POP POP POP POP JUMP JUMPDEST PUSH32 0x446F63746F7220616C7265616479207265676973746572656400000000000000 PUSH1 0x0 DUP3 ADD MSTORE POP JUMP JUMPDEST PUSH1 0x0 PUSH2 0x172D PUSH1 0x19 DUP4 PUSH2 0xFE6 JUMP JUMPDEST SWAP2 POP PUSH2 0x1738 DUP3 PUSH2 0x16F7 JUMP JUMPDEST PUSH1 0x20 DUP3 ADD SWAP1 POP SWAP2 SWAP1 POP JUMP JUMPDEST PUSH1 0x0 PUSH1 0x20 DUP3 ADD SWAP1 POP DUP2 DUP2 SUB PUSH1 0x0 DUP4 ADD MSTORE PUSH2 0x175C DUP2 PUSH2 0x1720 JUMP JUMPDEST SWAP1 POP SWAP2 SWAP1 POP JUMP JUMPDEST PUSH32 0x4E487B7100000000000000000000000000000000000000000000000000000000 PUSH1 0x0 MSTORE PUSH1 0x11 PUSH1 0x4 MSTORE PUSH1 0x24 PUSH1 0x0 REVERT JUMPDEST PUSH1 0x0 PUSH2 0x179D DUP3 PUSH2 0xC50 JUMP JUMPDEST SWAP2 POP PUSH32 0xFFFFFFFFFFFFFFFFFFFFFFFFFFFFFFFFFFFFFFFFFFFFFFFFFFFFFFFFFFFFFFFF DUP3 SUB PUSH2 0x17CF JUMPI PUSH2 0x17CE PUSH2 0x1763 JUMP JUMPDEST JUMPDEST PUSH1 0x1 DUP3 ADD SWAP1 POP SWAP2 SWAP1 POP JUMP JUMPDEST PUSH32 0x4E487B7100000000000000000000000000000000000000000000000000000000 PUSH1 0x0 MSTORE PUSH1 0x32 PUSH1 0x4 MSTORE PUSH1 0x24 PUSH1 0x0 REVERT INVALID LOG2 PUSH5 0x6970667358 0x22 SLT KECCAK256 PUSH32 0xF8784DE8605201A0EC533196872898A0FBB326308BE5489DF2DCF619125DD764 PUSH20 0x6F6C634300081200336080604052348015610010 JUMPI PUSH1 0x0 DUP1 REVERT JUMPDEST POP PUSH2 0x15E3 DUP1 PUSH2 0x20 PUSH1 0x0 CODECOPY PUSH1 0x0 RETURN INVALID PUSH1 0x80 PUSH1 0x40 MSTORE CALLVALUE DUP1 ISZERO PUSH2 0x10 JUMPI PUSH1 0x0 DUP1 REVERT JUMPDEST POP PUSH1 0x4 CALLDATASIZE LT PUSH2 0x62 JUMPI PUSH1 0x0 CALLDATALOAD PUSH1 0xE0 SHR DUP1 PUSH4 0x5AEEEA7 EQ PUSH2 0x67 JUMPI DUP1 PUSH4 0x869CFBC EQ PUSH2 0x97 JUMPI DUP1 PUSH4 0x18A231A9 EQ PUSH2 0xCA JUMPI DUP1 PUSH4 0x2DE304ED EQ PUSH2 0xE8 JUMPI DUP1 PUSH4 0x33C5D641 EQ PUSH2 0x104 JUMPI DUP1 PUSH4 0xA0303C41 EQ PUSH2 0x122 JUMPI JUMPDEST PUSH1 0x0 DUP1 REVERT JUMPDEST PUSH2 0x81 PUSH1 0x4 DUP1 CALLDATASIZE SUB DUP2 ADD SWAP1 PUSH2 0x7C SWAP2 SWAP1 PUSH2 0xB4F JUMP JUMPDEST PUSH2 0x140 JUMP JUMPDEST PUSH1 0x40 MLOAD PUSH2 0x8E SWAP2 SWAP1 PUSH2 0xBBD JUMP JUMPDEST PUSH1 0x40 MLOAD DUP1 SWAP2 SUB SWAP1 RETURN JUMPDEST PUSH2 0xB1 PUSH1 0x4 DUP1 CALLDATASIZE SUB DUP2 ADD SWAP1 PUSH2 0xAC SWAP2 SWAP1 PUSH2 0xC04 JUMP JUMPDEST PUSH2 0x17F JUMP JUMPDEST PUSH1 0x40 MLOAD PUSH2 0xC1 SWAP5 SWAP4 SWAP3 SWAP2 SWAP1 PUSH2 0xCD0 JUMP JUMPDEST PUSH1 0x40 MLOAD DUP1 SWAP2 SUB SWAP1 RETURN JUMPDEST PUSH2 0xD2 PUSH2 0x257 JUMP JUMPDEST PUSH1 0x40 MLOAD PUSH2 0xDF SWAP2 SWAP1 PUSH2 0xFB9 JUMP JUMPDEST PUSH1 0x40 MLOAD DUP1 SWAP2 SUB SWAP1 RETURN JUMPDEST PUSH2 0x102 PUSH1 0x4 DUP1 CALLDATASIZE SUB DUP2 ADD SWAP1 PUSH2 0xFD SWAP2 SWAP1 PUSH2 0x1110 JUMP JUMPDEST PUSH2 0x707 JUMP JUMPDEST STOP JUMPDEST PUSH2 0x10C PUSH2 0x929 JUMP JUMPDEST PUSH1 0x40 MLOAD PUSH2 0x119 SWAP2 SWAP1 PUSH2 0x1187 JUMP JUMPDEST PUSH1 0x40 MLOAD DUP1 SWAP2 SUB SWAP1 RETURN JUMPDEST PUSH2 0x12A PUSH2 0x9D2 JUMP JUMPDEST PUSH1 0x40 MLOAD PUSH2 0x137 SWAP2 SWAP1 PUSH2 0x11A2 JUMP JUMPDEST PUSH1 0x40 MLOAD DUP1 SWAP2 SUB SWAP1 RETURN JUMPDEST PUSH1 0x2 DUP2 DUP2 SLOAD DUP2 LT PUSH2 0x150 JUMPI PUSH1 0x0 DUP1 REVERT JUMPDEST SWAP1 PUSH1 0x0 MSTORE PUSH1 0x20 PUSH1 0x0 KECCAK256 ADD PUSH1 0x0 SWAP2 POP SLOAD SWAP1 PUSH2 0x100 EXP SWAP1 DIV PUSH20 0xFFFFFFFFFFFFFFFFFFFFFFFFFFFFFFFFFFFFFFFF AND DUP2 JUMP JUMPDEST PUSH1 0x0 PUSH1 0x20 MSTORE DUP1 PUSH1 0x0 MSTORE PUSH1 0x40 PUSH1 0x0 KECCAK256 PUSH1 0x0 SWAP2 POP SWAP1 POP DUP1 PUSH1 0x0 ADD SLOAD SWAP1 DUP1 PUSH1 0x1 ADD DUP1 SLOAD PUSH2 0x1A8 SWAP1 PUSH2 0x11EC JUMP JUMPDEST DUP1 PUSH1 0x1F ADD PUSH1 0x20 DUP1 SWAP2 DIV MUL PUSH1 0x20 ADD PUSH1 0x40 MLOAD SWAP1 DUP2 ADD PUSH1 0x40 MSTORE DUP1 SWAP3 SWAP2 SWAP1 DUP2 DUP2 MSTORE PUSH1 0x20 ADD DUP3 DUP1 SLOAD PUSH2 0x1D4 SWAP1 PUSH2 0x11EC JUMP JUMPDEST DUP1 ISZERO PUSH2 0x221 JUMPI DUP1 PUSH1 0x1F LT PUSH2 0x1F6 JUMPI PUSH2 0x100 DUP1 DUP4 SLOAD DIV MUL DUP4 MSTORE SWAP2 PUSH1 0x20 ADD SWAP2 PUSH2 0x221 JUMP JUMPDEST DUP3 ADD SWAP2 SWAP1 PUSH1 0x0 MSTORE PUSH1 0x20 PUSH1 0x0 KECCAK256 SWAP1 JUMPDEST DUP2 SLOAD DUP2 MSTORE SWAP1 PUSH1 0x1 ADD SWAP1 PUSH1 0x20 ADD DUP1 DUP4 GT PUSH2 0x204 JUMPI DUP3 SWAP1 SUB PUSH1 0x1F AND DUP3 ADD SWAP2 JUMPDEST POP POP POP POP POP SWAP1 DUP1 PUSH1 0x2 ADD SLOAD SWAP1 DUP1 PUSH1 0x3 ADD PUSH1 0x0 SWAP1 SLOAD SWAP1 PUSH2 0x100 EXP SWAP1 DIV PUSH20 0xFFFFFFFFFFFFFFFFFFFFFFFFFFFFFFFFFFFFFFFF AND SWAP1 POP DUP5 JUMP JUMPDEST PUSH1 0x60 PUSH1 0x0 PUSH1 0x1 SLOAD PUSH8 0xFFFFFFFFFFFFFFFF DUP2 GT ISZERO PUSH2 0x277 JUMPI PUSH2 0x276 PUSH2 0xFE5 JUMP JUMPDEST JUMPDEST PUSH1 0x40 MLOAD SWAP1 DUP1 DUP3 MSTORE DUP1 PUSH1 0x20 MUL PUSH1 0x20 ADD DUP3 ADD PUSH1 0x40 MSTORE DUP1 ISZERO PUSH2 0x2B0 JUMPI DUP2 PUSH1 0x20 ADD JUMPDEST PUSH2 0x29D PUSH2 0x9D8 JUMP JUMPDEST DUP2 MSTORE PUSH1 0x20 ADD SWAP1 PUSH1 0x1 SWAP1 SUB SWAP1 DUP2 PUSH2 0x295 JUMPI SWAP1 POP JUMPDEST POP SWAP1 POP PUSH1 0x0 JUMPDEST PUSH1 0x1 SLOAD DUP2 LT ISZERO PUSH2 0x6FF JUMPI PUSH1 0x0 DUP1 PUSH1 0x2 DUP4 DUP2 SLOAD DUP2 LT PUSH2 0x2D7 JUMPI PUSH2 0x2D6 PUSH2 0x121D JUMP JUMPDEST JUMPDEST SWAP1 PUSH1 0x0 MSTORE PUSH1 0x20 PUSH1 0x0 KECCAK256 ADD PUSH1 0x0 SWAP1 SLOAD SWAP1 PUSH2 0x100 EXP SWAP1 DIV PUSH20 0xFFFFFFFFFFFFFFFFFFFFFFFFFFFFFFFFFFFFFFFF AND PUSH20 0xFFFFFFFFFFFFFFFFFFFFFFFFFFFFFFFFFFFFFFFF AND PUSH20 0xFFFFFFFFFFFFFFFFFFFFFFFFFFFFFFFFFFFFFFFF AND DUP2 MSTORE PUSH1 0x20 ADD SWAP1 DUP2 MSTORE PUSH1 0x20 ADD PUSH1 0x0 KECCAK256 PUSH1 0x40 MLOAD DUP1 PUSH1 0xE0 ADD PUSH1 0x40 MSTORE SWAP1 DUP2 PUSH1 0x0 DUP3 ADD SLOAD DUP2 MSTORE PUSH1 0x20 ADD PUSH1 0x1 DUP3 ADD DUP1 SLOAD PUSH2 0x361 SWAP1 PUSH2 0x11EC JUMP JUMPDEST DUP1 PUSH1 0x1F ADD PUSH1 0x20 DUP1 SWAP2 DIV MUL PUSH1 0x20 ADD PUSH1 0x40 MLOAD SWAP1 DUP2 ADD PUSH1 0x40 MSTORE DUP1 SWAP3 SWAP2 SWAP1 DUP2 DUP2 MSTORE PUSH1 0x20 ADD DUP3 DUP1 SLOAD PUSH2 0x38D SWAP1 PUSH2 0x11EC JUMP JUMPDEST DUP1 ISZERO PUSH2 0x3DA JUMPI DUP1 PUSH1 0x1F LT PUSH2 0x3AF JUMPI PUSH2 0x100 DUP1 DUP4 SLOAD DIV MUL DUP4 MSTORE SWAP2 PUSH1 0x20 ADD SWAP2 PUSH2 0x3DA JUMP JUMPDEST DUP3 ADD SWAP2 SWAP1 PUSH1 0x0 MSTORE PUSH1 0x20 PUSH1 0x0 KECCAK256 SWAP1 JUMPDEST DUP2 SLOAD DUP2 MSTORE SWAP1 PUSH1 0x1 ADD SWAP1 PUSH1 0x20 ADD DUP1 DUP4 GT PUSH2 0x3BD JUMPI DUP3 SWAP1 SUB PUSH1 0x1F AND DUP3 ADD SWAP2 JUMPDEST POP POP POP POP POP DUP2 MSTORE PUSH1 0x20 ADD PUSH1 0x2 DUP3 ADD SLOAD DUP2 MSTORE PUSH1 0x20 ADD PUSH1 0x3 DUP3 ADD PUSH1 0x0 SWAP1 SLOAD SWAP1 PUSH2 0x100 EXP SWAP1 DIV PUSH20 0xFFFFFFFFFFFFFFFFFFFFFFFFFFFFFFFFFFFFFFFF AND PUSH20 0xFFFFFFFFFFFFFFFFFFFFFFFFFFFFFFFFFFFFFFFF AND PUSH20 0xFFFFFFFFFFFFFFFFFFFFFFFFFFFFFFFFFFFFFFFF AND DUP2 MSTORE PUSH1 0x20 ADD PUSH1 0x4 DUP3 ADD DUP1 SLOAD DUP1 PUSH1 0x20 MUL PUSH1 0x20 ADD PUSH1 0x40 MLOAD SWAP1 DUP2 ADD PUSH1 0x40 MSTORE DUP1 SWAP3 SWAP2 SWAP1 DUP2 DUP2 MSTORE PUSH1 0x20 ADD PUSH1 0x0 SWAP1 JUMPDEST DUP3 DUP3 LT ISZERO PUSH2 0x514 JUMPI DUP4 DUP3 SWAP1 PUSH1 0x0 MSTORE PUSH1 0x20 PUSH1 0x0 KECCAK256 ADD DUP1 SLOAD PUSH2 0x487 SWAP1 PUSH2 0x11EC JUMP JUMPDEST DUP1 PUSH1 0x1F ADD PUSH1 0x20 DUP1 SWAP2 DIV MUL PUSH1 0x20 ADD PUSH1 0x40 MLOAD SWAP1 DUP2 ADD PUSH1 0x40 MSTORE DUP1 SWAP3 SWAP2 SWAP1 DUP2 DUP2 MSTORE PUSH1 0x20 ADD DUP3 DUP1 SLOAD PUSH2 0x4B3 SWAP1 PUSH2 0x11EC JUMP JUMPDEST DUP1 ISZERO PUSH2 0x500 JUMPI DUP1 PUSH1 0x1F LT PUSH2 0x4D5 JUMPI PUSH2 0x100 DUP1 DUP4 SLOAD DIV MUL DUP4 MSTORE SWAP2 PUSH1 0x20 ADD SWAP2 PUSH2 0x500 JUMP JUMPDEST DUP3 ADD SWAP2 SWAP1 PUSH1 0x0 MSTORE PUSH1 0x20 PUSH1 0x0 KECCAK256 SWAP1 JUMPDEST DUP2 SLOAD DUP2 MSTORE SWAP1 PUSH1 0x1 ADD SWAP1 PUSH1 0x20 ADD DUP1 DUP4 GT PUSH2 0x4E3 JUMPI DUP3 SWAP1 SUB PUSH1 0x1F AND DUP3 ADD SWAP2 JUMPDEST POP POP POP POP POP DUP2 MSTORE PUSH1 0x20 ADD SWAP1 PUSH1 0x1 ADD SWAP1 PUSH2 0x468 JUMP JUMPDEST POP POP POP POP DUP2 MSTORE PUSH1 0x20 ADD PUSH1 0x5 DUP3 ADD DUP1 SLOAD DUP1 PUSH1 0x20 MUL PUSH1 0x20 ADD PUSH1 0x40 MLOAD SWAP1 DUP2 ADD PUSH1 0x40 MSTORE DUP1 SWAP3 SWAP2 SWAP1 DUP2 DUP2 MSTORE PUSH1 0x20 ADD PUSH1 0x0 SWAP1 JUMPDEST DUP3 DUP3 LT ISZERO PUSH2 0x5ED JUMPI DUP4 DUP3 SWAP1 PUSH1 0x0 MSTORE PUSH1 0x20 PUSH1 0x0 KECCAK256 ADD DUP1 SLOAD PUSH2 0x560 SWAP1 PUSH2 0x11EC JUMP JUMPDEST DUP1 PUSH1 0x1F ADD PUSH1 0x20 DUP1 SWAP2 DIV MUL PUSH1 0x20 ADD PUSH1 0x40 MLOAD SWAP1 DUP2 ADD PUSH1 0x40 MSTORE DUP1 SWAP3 SWAP2 SWAP1 DUP2 DUP2 MSTORE PUSH1 0x20 ADD DUP3 DUP1 SLOAD PUSH2 0x58C SWAP1 PUSH2 0x11EC JUMP JUMPDEST DUP1 ISZERO PUSH2 0x5D9 JUMPI DUP1 PUSH1 0x1F LT PUSH2 0x5AE JUMPI PUSH2 0x100 DUP1 DUP4 SLOAD DIV MUL DUP4 MSTORE SWAP2 PUSH1 0x20 ADD SWAP2 PUSH2 0x5D9 JUMP JUMPDEST DUP3 ADD SWAP2 SWAP1 PUSH1 0x0 MSTORE PUSH1 0x20 PUSH1 0x0 KECCAK256 SWAP1 JUMPDEST DUP2 SLOAD DUP2 MSTORE SWAP1 PUSH1 0x1 ADD SWAP1 PUSH1 0x20 ADD DUP1 DUP4 GT PUSH2 0x5BC JUMPI DUP3 SWAP1 SUB PUSH1 0x1F AND DUP3 ADD SWAP2 JUMPDEST POP POP POP POP POP DUP2 MSTORE PUSH1 0x20 ADD SWAP1 PUSH1 0x1 ADD SWAP1 PUSH2 0x541 JUMP JUMPDEST POP POP POP POP DUP2 MSTORE PUSH1 0x20 ADD PUSH1 0x6 DUP3 ADD DUP1 SLOAD DUP1 PUSH1 0x20 MUL PUSH1 0x20 ADD PUSH1 0x40 MLOAD SWAP1 DUP2 ADD PUSH1 0x40 MSTORE DUP1 SWAP3 SWAP2 SWAP1 DUP2 DUP2 MSTORE PUSH1 0x20 ADD PUSH1 0x0 SWAP1 JUMPDEST DUP3 DUP3 LT ISZERO PUSH2 0x6C6 JUMPI DUP4 DUP3 SWAP1 PUSH1 0x0 MSTORE PUSH1 0x20 PUSH1 0x0 KECCAK256 ADD DUP1 SLOAD PUSH2 0x639 SWAP1 PUSH2 0x11EC JUMP JUMPDEST DUP1 PUSH1 0x1F ADD PUSH1 0x20 DUP1 SWAP2 DIV MUL PUSH1 0x20 ADD PUSH1 0x40 MLOAD SWAP1 DUP2 ADD PUSH1 0x40 MSTORE DUP1 SWAP3 SWAP2 SWAP1 DUP2 DUP2 MSTORE PUSH1 0x20 ADD DUP3 DUP1 SLOAD PUSH2 0x665 SWAP1 PUSH2 0x11EC JUMP JUMPDEST DUP1 ISZERO PUSH2 0x6B2 JUMPI DUP1 PUSH1 0x1F LT PUSH2 0x687 JUMPI PUSH2 0x100 DUP1 DUP4 SLOAD DIV MUL DUP4 MSTORE SWAP2 PUSH1 0x20 ADD SWAP2 PUSH2 0x6B2 JUMP JUMPDEST DUP3 ADD SWAP2 SWAP1 PUSH1 0x0 MSTORE PUSH1 0x20 PUSH1 0x0 KECCAK256 SWAP1 JUMPDEST DUP2 SLOAD DUP2 MSTORE SWAP1 PUSH1 0x1 ADD SWAP1 PUSH1 0x20 ADD DUP1 DUP4 GT PUSH2 0x695 JUMPI DUP3 SWAP1 SUB PUSH1 0x1F AND DUP3 ADD SWAP2 JUMPDEST POP POP POP POP POP DUP2 MSTORE PUSH1 0x20 ADD SWAP1 PUSH1 0x1 ADD SWAP1 PUSH2 0x61A JUMP JUMPDEST POP POP POP POP DUP2 MSTORE POP POP DUP3 DUP3 DUP2 MLOAD DUP2 LT PUSH2 0x6E1 JUMPI PUSH2 0x6E0 PUSH2 0x121D JUMP JUMPDEST JUMPDEST PUSH1 0x20 MUL PUSH1 0x20 ADD ADD DUP2 SWAP1 MSTORE POP DUP1 DUP1 PUSH2 0x6F7 SWAP1 PUSH2 0x127B JUMP JUMPDEST SWAP2 POP POP PUSH2 0x2B6 JUMP JUMPDEST POP DUP1 SWAP2 POP POP SWAP1 JUMP JUMPDEST PUSH2 0x70F PUSH2 0x929 JUMP JUMPDEST PUSH2 0x74E JUMPI PUSH1 0x40 MLOAD PUSH32 0x8C379A000000000000000000000000000000000000000000000000000000000 DUP2 MSTORE PUSH1 0x4 ADD PUSH2 0x745 SWAP1 PUSH2 0x130F JUMP JUMPDEST PUSH1 0x40 MLOAD DUP1 SWAP2 SUB SWAP1 REVERT JUMPDEST PUSH1 0x60 DUP1 PUSH1 0x60 PUSH1 0x40 MLOAD DUP1 PUSH1 0xE0 ADD PUSH1 0x40 MSTORE DUP1 PUSH1 0x1 SLOAD DUP2 MSTORE PUSH1 0x20 ADD DUP7 DUP2 MSTORE PUSH1 0x20 ADD DUP6 DUP2 MSTORE PUSH1 0x20 ADD CALLER PUSH20 0xFFFFFFFFFFFFFFFFFFFFFFFFFFFFFFFFFFFFFFFF AND DUP2 MSTORE PUSH1 0x20 ADD DUP5 DUP2 MSTORE PUSH1 0x20 ADD DUP4 DUP2 MSTORE PUSH1 0x20 ADD DUP3 DUP2 MSTORE POP PUSH1 0x0 DUP1 CALLER PUSH20 0xFFFFFFFFFFFFFFFFFFFFFFFFFFFFFFFFFFFFFFFF AND PUSH20 0xFFFFFFFFFFFFFFFFFFFFFFFFFFFFFFFFFFFFFFFF AND DUP2 MSTORE PUSH1 0x20 ADD SWAP1 DUP2 MSTORE PUSH1 0x20 ADD PUSH1 0x0 KECCAK256 PUSH1 0x0 DUP3 ADD MLOAD DUP2 PUSH1 0x0 ADD SSTORE PUSH1 0x20 DUP3 ADD MLOAD DUP2 PUSH1 0x1 ADD SWAP1 DUP2 PUSH2 0x7FB SWAP2 SWAP1 PUSH2 0x14DB JUMP JUMPDEST POP PUSH1 0x40 DUP3 ADD MLOAD DUP2 PUSH1 0x2 ADD SSTORE PUSH1 0x60 DUP3 ADD MLOAD DUP2 PUSH1 0x3 ADD PUSH1 0x0 PUSH2 0x100 EXP DUP2 SLOAD DUP2 PUSH20 0xFFFFFFFFFFFFFFFFFFFFFFFFFFFFFFFFFFFFFFFF MUL NOT AND SWAP1 DUP4 PUSH20 0xFFFFFFFFFFFFFFFFFFFFFFFFFFFFFFFFFFFFFFFF AND MUL OR SWAP1 SSTORE POP PUSH1 0x80 DUP3 ADD MLOAD DUP2 PUSH1 0x4 ADD SWAP1 DUP1 MLOAD SWAP1 PUSH1 0x20 ADD SWAP1 PUSH2 0x869 SWAP3 SWAP2 SWAP1 PUSH2 0xA2B JUMP JUMPDEST POP PUSH1 0xA0 DUP3 ADD MLOAD DUP2 PUSH1 0x5 ADD SWAP1 DUP1 MLOAD SWAP1 PUSH1 0x20 ADD SWAP1 PUSH2 0x886 SWAP3 SWAP2 SWAP1 PUSH2 0xA2B JUMP JUMPDEST POP PUSH1 0xC0 DUP3 ADD MLOAD DUP2 PUSH1 0x6 ADD SWAP1 DUP1 MLOAD SWAP1 PUSH1 0x20 ADD SWAP1 PUSH2 0x8A3 SWAP3 SWAP2 SWAP1 PUSH2 0xA2B JUMP JUMPDEST POP SWAP1 POP POP PUSH1 0x2 CALLER SWAP1 DUP1 PUSH1 0x1 DUP2 SLOAD ADD DUP1 DUP3 SSTORE DUP1 SWAP2 POP POP PUSH1 0x1 SWAP1 SUB SWAP1 PUSH1 0x0 MSTORE PUSH1 0x20 PUSH1 0x0 KECCAK256 ADD PUSH1 0x0 SWAP1 SWAP2 SWAP1 SWAP2 SWAP1 SWAP2 PUSH2 0x100 EXP DUP2 SLOAD DUP2 PUSH20 0xFFFFFFFFFFFFFFFFFFFFFFFFFFFFFFFFFFFFFFFF MUL NOT AND SWAP1 DUP4 PUSH20 0xFFFFFFFFFFFFFFFFFFFFFFFFFFFFFFFFFFFFFFFF AND MUL OR SWAP1 SSTORE POP PUSH1 0x1 PUSH1 0x0 DUP2 SLOAD DUP1 SWAP3 SWAP2 SWAP1 PUSH2 0x91D SWAP1 PUSH2 0x127B JUMP JUMPDEST SWAP2 SWAP1 POP SSTORE POP POP POP POP POP POP JUMP JUMPDEST PUSH1 0x0 DUP1 PUSH1 0x0 SWAP1 POP JUMPDEST PUSH1 0x1 SLOAD DUP2 LT ISZERO PUSH2 0x9C9 JUMPI CALLER PUSH20 0xFFFFFFFFFFFFFFFFFFFFFFFFFFFFFFFFFFFFFFFF AND PUSH1 0x2 DUP3 DUP2 SLOAD DUP2 LT PUSH2 0x966 JUMPI PUSH2 0x965 PUSH2 0x121D JUMP JUMPDEST JUMPDEST SWAP1 PUSH1 0x0 MSTORE PUSH1 0x20 PUSH1 0x0 KECCAK256 ADD PUSH1 0x0 SWAP1 SLOAD SWAP1 PUSH2 0x100 EXP SWAP1 DIV PUSH20 0xFFFFFFFFFFFFFFFFFFFFFFFFFFFFFFFFFFFFFFFF AND PUSH20 0xFFFFFFFFFFFFFFFFFFFFFFFFFFFFFFFFFFFFFFFF AND SUB PUSH2 0x9B6 JUMPI PUSH1 0x0 SWAP2 POP POP PUSH2 0x9CF JUMP JUMPDEST DUP1 DUP1 PUSH2 0x9C1 SWAP1 PUSH2 0x127B JUMP JUMPDEST SWAP2 POP POP PUSH2 0x931 JUMP JUMPDEST POP PUSH1 0x1 SWAP1 POP JUMPDEST SWAP1 JUMP JUMPDEST PUSH1 0x1 SLOAD DUP2 JUMP JUMPDEST PUSH1 0x40 MLOAD DUP1 PUSH1 0xE0 ADD PUSH1 0x40 MSTORE DUP1 PUSH1 0x0 DUP2 MSTORE PUSH1 0x20 ADD PUSH1 0x60 DUP2 MSTORE PUSH1 0x20 ADD PUSH1 0x0 DUP2 MSTORE PUSH1 0x20 ADD PUSH1 0x0 PUSH20 0xFFFFFFFFFFFFFFFFFFFFFFFFFFFFFFFFFFFFFFFF AND DUP2 MSTORE PUSH1 0x20 ADD PUSH1 0x60 DUP2 MSTORE PUSH1 0x20 ADD PUSH1 0x60 DUP2 MSTORE PUSH1 0x20 ADD PUSH1 0x60 DUP2 MSTORE POP SWAP1 JUMP JUMPDEST DUP3 DUP1 SLOAD DUP3 DUP3 SSTORE SWAP1 PUSH1 0x0 MSTORE PUSH1 0x20 PUSH1 0x0 KECCAK256 SWAP1 DUP2 ADD SWAP3 DUP3 ISZERO PUSH2 0xA73 JUMPI SWAP2 PUSH1 0x20 MUL DUP3 ADD JUMPDEST DUP3 DUP2 GT ISZERO PUSH2 0xA72 JUMPI DUP3 MLOAD DUP3 SWAP1 DUP2 PUSH2 0xA62 SWAP2 SWAP1 PUSH2 0x14DB JUMP JUMPDEST POP SWAP2 PUSH1 0x20 ADD SWAP2 SWAP1 PUSH1 0x1 ADD SWAP1 PUSH2 0xA4B JUMP JUMPDEST JUMPDEST POP SWAP1 POP PUSH2 0xA80 SWAP2 SWAP1 PUSH2 0xA84 JUMP JUMPDEST POP SWAP1 JUMP JUMPDEST JUMPDEST DUP1 DUP3 GT ISZERO PUSH2 0xAA4 JUMPI PUSH1 0x0 DUP2 DUP2 PUSH2 0xA9B SWAP2 SWAP1 PUSH2 0xAA8 JUMP JUMPDEST POP PUSH1 0x1 ADD PUSH2 0xA85 JUMP JUMPDEST POP SWAP1 JUMP JUMPDEST POP DUP1 SLOAD PUSH2 0xAB4 SWAP1 PUSH2 0x11EC JUMP JUMPDEST PUSH1 0x0 DUP3 SSTORE DUP1 PUSH1 0x1F LT PUSH2 0xAC6 JUMPI POP PUSH2 0xAE5 JUMP JUMPDEST PUSH1 0x1F ADD PUSH1 0x20 SWAP1 DIV SWAP1 PUSH1 0x0 MSTORE PUSH1 0x20 PUSH1 0x0 KECCAK256 SWAP1 DUP2 ADD SWAP1 PUSH2 0xAE4 SWAP2 SWAP1 PUSH2 0xAE8 JUMP JUMPDEST JUMPDEST POP JUMP JUMPDEST JUMPDEST DUP1 DUP3 GT ISZERO PUSH2 0xB01 JUMPI PUSH1 0x0 DUP2 PUSH1 0x0 SWAP1 SSTORE POP PUSH1 0x1 ADD PUSH2 0xAE9 JUMP JUMPDEST POP SWAP1 JUMP JUMPDEST PUSH1 0x0 PUSH1 0x40 MLOAD SWAP1 POP SWAP1 JUMP JUMPDEST PUSH1 0x0 DUP1 REVERT JUMPDEST PUSH1 0x0 DUP1 REVERT JUMPDEST PUSH1 0x0 DUP2 SWAP1 POP SWAP2 SWAP1 POP JUMP JUMPDEST PUSH2 0xB2C DUP2 PUSH2 0xB19 JUMP JUMPDEST DUP2 EQ PUSH2 0xB37 JUMPI PUSH1 0x0 DUP1 REVERT JUMPDEST POP JUMP JUMPDEST PUSH1 0x0 DUP2 CALLDATALOAD SWAP1 POP PUSH2 0xB49 DUP2 PUSH2 0xB23 JUMP JUMPDEST SWAP3 SWAP2 POP POP JUMP JUMPDEST PUSH1 0x0 PUSH1 0x20 DUP3 DUP5 SUB SLT ISZERO PUSH2 0xB65 JUMPI PUSH2 0xB64 PUSH2 0xB0F JUMP JUMPDEST JUMPDEST PUSH1 0x0 PUSH2 0xB73 DUP5 DUP3 DUP6 ADD PUSH2 0xB3A JUMP JUMPDEST SWAP2 POP POP SWAP3 SWAP2 POP POP JUMP JUMPDEST PUSH1 0x0 PUSH20 0xFFFFFFFFFFFFFFFFFFFFFFFFFFFFFFFFFFFFFFFF DUP3 AND SWAP1 POP SWAP2 SWAP1 POP JUMP JUMPDEST PUSH1 0x0 PUSH2 0xBA7 DUP3 PUSH2 0xB7C JUMP JUMPDEST SWAP1 POP SWAP2 SWAP1 POP JUMP JUMPDEST PUSH2 0xBB7 DUP2 PUSH2 0xB9C JUMP JUMPDEST DUP3 MSTORE POP POP JUMP JUMPDEST PUSH1 0x0 PUSH1 0x20 DUP3 ADD SWAP1 POP PUSH2 0xBD2 PUSH1 0x0 DUP4 ADD DUP5 PUSH2 0xBAE JUMP JUMPDEST SWAP3 SWAP2 POP POP JUMP JUMPDEST PUSH2 0xBE1 DUP2 PUSH2 0xB9C JUMP JUMPDEST DUP2 EQ PUSH2 0xBEC JUMPI PUSH1 0x0 DUP1 REVERT JUMPDEST POP JUMP JUMPDEST PUSH1 0x0 DUP2 CALLDATALOAD SWAP1 POP PUSH2 0xBFE DUP2 PUSH2 0xBD8 JUMP JUMPDEST SWAP3 SWAP2 POP POP JUMP JUMPDEST PUSH1 0x0 PUSH1 0x20 DUP3 DUP5 SUB SLT ISZERO PUSH2 0xC1A JUMPI PUSH2 0xC19 PUSH2 0xB0F JUMP JUMPDEST JUMPDEST PUSH1 0x0 PUSH2 0xC28 DUP5 DUP3 DUP6 ADD PUSH2 0xBEF JUMP JUMPDEST SWAP2 POP POP SWAP3 SWAP2 POP POP JUMP JUMPDEST PUSH2 0xC3A DUP2 PUSH2 0xB19 JUMP JUMPDEST DUP3 MSTORE POP POP JUMP JUMPDEST PUSH1 0x0 DUP2 MLOAD SWAP1 POP SWAP2 SWAP1 POP JUMP JUMPDEST PUSH1 0x0 DUP3 DUP3 MSTORE PUSH1 0x20 DUP3 ADD SWAP1 POP SWAP3 SWAP2 POP POP JUMP JUMPDEST PUSH1 0x0 JUMPDEST DUP4 DUP2 LT ISZERO PUSH2 0xC7A JUMPI DUP1 DUP3 ADD MLOAD DUP2 DUP5 ADD MSTORE PUSH1 0x20 DUP2 ADD SWAP1 POP PUSH2 0xC5F JUMP JUMPDEST PUSH1 0x0 DUP5 DUP5 ADD MSTORE POP POP POP POP JUMP JUMPDEST PUSH1 0x0 PUSH1 0x1F NOT PUSH1 0x1F DUP4 ADD AND SWAP1 POP SWAP2 SWAP1 POP JUMP JUMPDEST PUSH1 0x0 PUSH2 0xCA2 DUP3 PUSH2 0xC40 JUMP JUMPDEST PUSH2 0xCAC DUP2 DUP6 PUSH2 0xC4B JUMP JUMPDEST SWAP4 POP PUSH2 0xCBC DUP2 DUP6 PUSH1 0x20 DUP7 ADD PUSH2 0xC5C JUMP JUMPDEST PUSH2 0xCC5 DUP2 PUSH2 0xC86 JUMP JUMPDEST DUP5 ADD SWAP2 POP POP SWAP3 SWAP2 POP POP JUMP JUMPDEST PUSH1 0x0 PUSH1 0x80 DUP3 ADD SWAP1 POP PUSH2 0xCE5 PUSH1 0x0 DUP4 ADD DUP8 PUSH2 0xC31 JUMP JUMPDEST DUP2 DUP2 SUB PUSH1 0x20 DUP4 ADD MSTORE PUSH2 0xCF7 DUP2 DUP7 PUSH2 0xC97 JUMP JUMPDEST SWAP1 POP PUSH2 0xD06 PUSH1 0x40 DUP4 ADD DUP6 PUSH2 0xC31 JUMP JUMPDEST PUSH2 0xD13 PUSH1 0x60 DUP4 ADD DUP5 PUSH2 0xBAE JUMP JUMPDEST SWAP6 SWAP5 POP POP POP POP POP JUMP JUMPDEST PUSH1 0x0 DUP2 MLOAD SWAP1 POP SWAP2 SWAP1 POP JUMP JUMPDEST PUSH1 0x0 DUP3 DUP3 MSTORE PUSH1 0x20 DUP3 ADD SWAP1 POP SWAP3 SWAP2 POP POP JUMP JUMPDEST PUSH1 0x0 DUP2 SWAP1 POP PUSH1 0x20 DUP3 ADD SWAP1 POP SWAP2 SWAP1 POP JUMP JUMPDEST PUSH2 0xD51 DUP2 PUSH2 0xB19 JUMP JUMPDEST DUP3 MSTORE POP POP JUMP JUMPDEST PUSH1 0x0 DUP3 DUP3 MSTORE PUSH1 0x20 DUP3 ADD SWAP1 POP SWAP3 SWAP2 POP POP JUMP JUMPDEST PUSH1 0x0 PUSH2 0xD73 DUP3 PUSH2 0xC40 JUMP JUMPDEST PUSH2 0xD7D DUP2 DUP6 PUSH2 0xD57 JUMP JUMPDEST SWAP4 POP PUSH2 0xD8D DUP2 DUP6 PUSH1 0x20 DUP7 ADD PUSH2 0xC5C JUMP JUMPDEST PUSH2 0xD96 DUP2 PUSH2 0xC86 JUMP JUMPDEST DUP5 ADD SWAP2 POP POP SWAP3 SWAP2 POP POP JUMP JUMPDEST PUSH2 0xDAA DUP2 PUSH2 0xB9C JUMP JUMPDEST DUP3 MSTORE POP POP JUMP JUMPDEST PUSH1 0x0 DUP2 MLOAD SWAP1 POP SWAP2 SWAP1 POP JUMP JUMPDEST PUSH1 0x0 DUP3 DUP3 MSTORE PUSH1 0x20 DUP3 ADD SWAP1 POP SWAP3 SWAP2 POP POP JUMP JUMPDEST PUSH1 0x0 DUP2 SWAP1 POP PUSH1 0x20 DUP3 ADD SWAP1 POP SWAP2 SWAP1 POP JUMP JUMPDEST PUSH1 0x0 PUSH2 0xDE8 DUP4 DUP4 PUSH2 0xD68 JUMP JUMPDEST SWAP1 POP SWAP3 SWAP2 POP POP JUMP JUMPDEST PUSH1 0x0 PUSH1 0x20 DUP3 ADD SWAP1 POP SWAP2 SWAP1 POP JUMP JUMPDEST PUSH1 0x0 PUSH2 0xE08 DUP3 PUSH2 0xDB0 JUMP JUMPDEST PUSH2 0xE12 DUP2 DUP6 PUSH2 0xDBB JUMP JUMPDEST SWAP4 POP DUP4 PUSH1 0x20 DUP3 MUL DUP6 ADD PUSH2 0xE24 DUP6 PUSH2 0xDCC JUMP JUMPDEST DUP1 PUSH1 0x0 JUMPDEST DUP6 DUP2 LT ISZERO PUSH2 0xE60 JUMPI DUP5 DUP5 SUB DUP10 MSTORE DUP2 MLOAD PUSH2 0xE41 DUP6 DUP3 PUSH2 0xDDC JUMP JUMPDEST SWAP5 POP PUSH2 0xE4C DUP4 PUSH2 0xDF0 JUMP JUMPDEST SWAP3 POP PUSH1 0x20 DUP11 ADD SWAP10 POP POP PUSH1 0x1 DUP2 ADD SWAP1 POP PUSH2 0xE28 JUMP JUMPDEST POP DUP3 SWAP8 POP DUP8 SWAP6 POP POP POP POP POP POP SWAP3 SWAP2 POP POP JUMP JUMPDEST PUSH1 0x0 PUSH1 0xE0 DUP4 ADD PUSH1 0x0 DUP4 ADD MLOAD PUSH2 0xE8A PUSH1 0x0 DUP7 ADD DUP3 PUSH2 0xD48 JUMP JUMPDEST POP PUSH1 0x20 DUP4 ADD MLOAD DUP5 DUP3 SUB PUSH1 0x20 DUP7 ADD MSTORE PUSH2 0xEA2 DUP3 DUP3 PUSH2 0xD68 JUMP JUMPDEST SWAP2 POP POP PUSH1 0x40 DUP4 ADD MLOAD PUSH2 0xEB7 PUSH1 0x40 DUP7 ADD DUP3 PUSH2 0xD48 JUMP JUMPDEST POP PUSH1 0x60 DUP4 ADD MLOAD PUSH2 0xECA PUSH1 0x60 DUP7 ADD DUP3 PUSH2 0xDA1 JUMP JUMPDEST POP PUSH1 0x80 DUP4 ADD MLOAD DUP5 DUP3 SUB PUSH1 0x80 DUP7 ADD MSTORE PUSH2 0xEE2 DUP3 DUP3 PUSH2 0xDFD JUMP JUMPDEST SWAP2 POP POP PUSH1 0xA0 DUP4 ADD MLOAD DUP5 DUP3 SUB PUSH1 0xA0 DUP7 ADD MSTORE PUSH2 0xEFC DUP3 DUP3 PUSH2 0xDFD JUMP JUMPDEST SWAP2 POP POP PUSH1 0xC0 DUP4 ADD MLOAD DUP5 DUP3 SUB PUSH1 0xC0 DUP7 ADD MSTORE PUSH2 0xF16 DUP3 DUP3 PUSH2 0xDFD JUMP JUMPDEST SWAP2 POP POP DUP1 SWAP2 POP POP SWAP3 SWAP2 POP POP JUMP JUMPDEST PUSH1 0x0 PUSH2 0xF2F DUP4 DUP4 PUSH2 0xE72 JUMP JUMPDEST SWAP1 POP SWAP3 SWAP2 POP POP JUMP JUMPDEST PUSH1 0x0 PUSH1 0x20 DUP3 ADD SWAP1 POP SWAP2 SWAP1 POP JUMP JUMPDEST PUSH1 0x0 PUSH2 0xF4F DUP3 PUSH2 0xD1C JUMP JUMPDEST PUSH2 0xF59 DUP2 DUP6 PUSH2 0xD27 JUMP JUMPDEST SWAP4 POP DUP4 PUSH1 0x20 DUP3 MUL DUP6 ADD PUSH2 0xF6B DUP6 PUSH2 0xD38 JUMP JUMPDEST DUP1 PUSH1 0x0 JUMPDEST DUP6 DUP2 LT ISZERO PUSH2 0xFA7 JUMPI DUP5 DUP5 SUB DUP10 MSTORE DUP2 MLOAD PUSH2 0xF88 DUP6 DUP3 PUSH2 0xF23 JUMP JUMPDEST SWAP5 POP PUSH2 0xF93 DUP4 PUSH2 0xF37 JUMP JUMPDEST SWAP3 POP PUSH1 0x20 DUP11 ADD SWAP10 POP POP PUSH1 0x1 DUP2 ADD SWAP1 POP PUSH2 0xF6F JUMP JUMPDEST POP DUP3 SWAP8 POP DUP8 SWAP6 POP POP POP POP POP POP SWAP3 SWAP2 POP POP JUMP JUMPDEST PUSH1 0x0 PUSH1 0x20 DUP3 ADD SWAP1 POP DUP2 DUP2 SUB PUSH1 0x0 DUP4 ADD MSTORE PUSH2 0xFD3 DUP2 DUP5 PUSH2 0xF44 JUMP JUMPDEST SWAP1 POP SWAP3 SWAP2 POP POP JUMP JUMPDEST PUSH1 0x0 DUP1 REVERT JUMPDEST PUSH1 0x0 DUP1 REVERT JUMPDEST PUSH32 0x4E487B7100000000000000000000000000000000000000000000000000000000 PUSH1 0x0 MSTORE PUSH1 0x41 PUSH1 0x4 MSTORE PUSH1 0x24 PUSH1 0x0 REVERT JUMPDEST PUSH2 0x101D DUP3 PUSH2 0xC86 JUMP JUMPDEST DUP2 ADD DUP2 DUP2 LT PUSH8 0xFFFFFFFFFFFFFFFF DUP3 GT OR ISZERO PUSH2 0x103C JUMPI PUSH2 0x103B PUSH2 0xFE5 JUMP JUMPDEST JUMPDEST DUP1 PUSH1 0x40 MSTORE POP POP POP JUMP JUMPDEST PUSH1 0x0 PUSH2 0x104F PUSH2 0xB05 JUMP JUMPDEST SWAP1 POP PUSH2 0x105B DUP3 DUP3 PUSH2 0x1014 JUMP JUMPDEST SWAP2 SWAP1 POP JUMP JUMPDEST PUSH1 0x0 PUSH8 0xFFFFFFFFFFFFFFFF DUP3 GT ISZERO PUSH2 0x107B JUMPI PUSH2 0x107A PUSH2 0xFE5 JUMP JUMPDEST JUMPDEST PUSH2 0x1084 DUP3 PUSH2 0xC86 JUMP JUMPDEST SWAP1 POP PUSH1 0x20 DUP2 ADD SWAP1 POP SWAP2 SWAP1 POP JUMP JUMPDEST DUP3 DUP2 DUP4 CALLDATACOPY PUSH1 0x0 DUP4 DUP4 ADD MSTORE POP POP POP JUMP JUMPDEST PUSH1 0x0 PUSH2 0x10B3 PUSH2 0x10AE DUP5 PUSH2 0x1060 JUMP JUMPDEST PUSH2 0x1045 JUMP JUMPDEST SWAP1 POP DUP3 DUP2 MSTORE PUSH1 0x20 DUP2 ADD DUP5 DUP5 DUP5 ADD GT ISZERO PUSH2 0x10CF JUMPI PUSH2 0x10CE PUSH2 0xFE0 JUMP JUMPDEST JUMPDEST PUSH2 0x10DA DUP5 DUP3 DUP6 PUSH2 0x1091 JUMP JUMPDEST POP SWAP4 SWAP3 POP POP POP JUMP JUMPDEST PUSH1 0x0 DUP3 PUSH1 0x1F DUP4 ADD SLT PUSH2 0x10F7 JUMPI PUSH2 0x10F6 PUSH2 0xFDB JUMP JUMPDEST JUMPDEST DUP2 CALLDATALOAD PUSH2 0x1107 DUP5 DUP3 PUSH1 0x20 DUP7 ADD PUSH2 0x10A0 JUMP JUMPDEST SWAP2 POP POP SWAP3 SWAP2 POP POP JUMP JUMPDEST PUSH1 0x0 DUP1 PUSH1 0x40 DUP4 DUP6 SUB SLT ISZERO PUSH2 0x1127 JUMPI PUSH2 0x1126 PUSH2 0xB0F JUMP JUMPDEST JUMPDEST PUSH1 0x0 DUP4 ADD CALLDATALOAD PUSH8 0xFFFFFFFFFFFFFFFF DUP2 GT ISZERO PUSH2 0x1145 JUMPI PUSH2 0x1144 PUSH2 0xB14 JUMP JUMPDEST JUMPDEST PUSH2 0x1151 DUP6 DUP3 DUP7 ADD PUSH2 0x10E2 JUMP JUMPDEST SWAP3 POP POP PUSH1 0x20 PUSH2 0x1162 DUP6 DUP3 DUP7 ADD PUSH2 0xB3A JUMP JUMPDEST SWAP2 POP POP SWAP3 POP SWAP3 SWAP1 POP JUMP JUMPDEST PUSH1 0x0 DUP2 ISZERO ISZERO SWAP1 POP SWAP2 SWAP1 POP JUMP JUMPDEST PUSH2 0x1181 DUP2 PUSH2 0x116C JUMP JUMPDEST DUP3 MSTORE POP POP JUMP JUMPDEST PUSH1 0x0 PUSH1 0x20 DUP3 ADD SWAP1 POP PUSH2 0x119C PUSH1 0x0 DUP4 ADD DUP5 PUSH2 0x1178 JUMP JUMPDEST SWAP3 SWAP2 POP POP JUMP JUMPDEST PUSH1 0x0 PUSH1 0x20 DUP3 ADD SWAP1 POP PUSH2 0x11B7 PUSH1 0x0 DUP4 ADD DUP5 PUSH2 0xC31 JUMP JUMPDEST SWAP3 SWAP2 POP POP JUMP JUMPDEST PUSH32 0x4E487B7100000000000000000000000000000000000000000000000000000000 PUSH1 0x0 MSTORE PUSH1 0x22 PUSH1 0x4 MSTORE PUSH1 0x24 PUSH1 0x0 REVERT JUMPDEST PUSH1 0x0 PUSH1 0x2 DUP3 DIV SWAP1 POP PUSH1 0x1 DUP3 AND DUP1 PUSH2 0x1204 JUMPI PUSH1 0x7F DUP3 AND SWAP2 POP JUMPDEST PUSH1 0x20 DUP3 LT DUP2 SUB PUSH2 0x1217 JUMPI PUSH2 0x1216 PUSH2 0x11BD JUMP JUMPDEST JUMPDEST POP SWAP2 SWAP1 POP JUMP JUMPDEST PUSH32 0x4E487B7100000000000000000000000000000000000000000000000000000000 PUSH1 0x0 MSTORE PUSH1 0x32 PUSH1 0x4 MSTORE PUSH1 0x24 PUSH1 0x0 REVERT JUMPDEST PUSH32 0x4E487B7100000000000000000000000000000000000000000000000000000000 PUSH1 0x0 MSTORE PUSH1 0x11 PUSH1 0x4 MSTORE PUSH1 0x24 PUSH1 0x0 REVERT JUMPDEST PUSH1 0x0 PUSH2 0x1286 DUP3 PUSH2 0xB19 JUMP JUMPDEST SWAP2 POP PUSH32 0xFFFFFFFFFFFFFFFFFFFFFFFFFFFFFFFFFFFFFFFFFFFFFFFFFFFFFFFFFFFFFFFF DUP3 SUB PUSH2 0x12B8 JUMPI PUSH2 0x12B7 PUSH2 0x124C JUMP JUMPDEST JUMPDEST PUSH1 0x1 DUP3 ADD SWAP1 POP SWAP2 SWAP1 POP JUMP JUMPDEST PUSH32 0x50617469656E7420616C72656164792065786973747300000000000000000000 PUSH1 0x0 DUP3 ADD MSTORE POP JUMP JUMPDEST PUSH1 0x0 PUSH2 0x12F9 PUSH1 0x16 DUP4 PUSH2 0xC4B JUMP JUMPDEST SWAP2 POP PUSH2 0x1304 DUP3 PUSH2 0x12C3 JUMP JUMPDEST PUSH1 0x20 DUP3 ADD SWAP1 POP SWAP2 SWAP1 POP JUMP JUMPDEST PUSH1 0x0 PUSH1 0x20 DUP3 ADD SWAP1 POP DUP2 DUP2 SUB PUSH1 0x0 DUP4 ADD MSTORE PUSH2 0x1328 DUP2 PUSH2 0x12EC JUMP JUMPDEST SWAP1 POP SWAP2 SWAP1 POP JUMP JUMPDEST PUSH1 0x0 DUP2 SWAP1 POP DUP2 PUSH1 0x0 MSTORE PUSH1 0x20 PUSH1 0x0 KECCAK256 SWAP1 POP SWAP2 SWAP1 POP JUMP JUMPDEST PUSH1 0x0 PUSH1 0x20 PUSH1 0x1F DUP4 ADD DIV SWAP1 POP SWAP2 SWAP1 POP JUMP JUMPDEST PUSH1 0x0 DUP3 DUP3 SHL SWAP1 POP SWAP3 SWAP2 POP POP JUMP JUMPDEST PUSH1 0x0 PUSH1 0x8 DUP4 MUL PUSH2 0x1391 PUSH32 0xFFFFFFFFFFFFFFFFFFFFFFFFFFFFFFFFFFFFFFFFFFFFFFFFFFFFFFFFFFFFFFFF DUP3 PUSH2 0x1354 JUMP JUMPDEST PUSH2 0x139B DUP7 DUP4 PUSH2 0x1354 JUMP JUMPDEST SWAP6 POP DUP1 NOT DUP5 AND SWAP4 POP DUP1 DUP7 AND DUP5 OR SWAP3 POP POP POP SWAP4 SWAP3 POP POP POP JUMP JUMPDEST PUSH1 0x0 DUP2 SWAP1 POP SWAP2 SWAP1 POP JUMP JUMPDEST PUSH1 0x0 PUSH2 0x13D8 PUSH2 0x13D3 PUSH2 0x13CE DUP5 PUSH2 0xB19 JUMP JUMPDEST PUSH2 0x13B3 JUMP JUMPDEST PUSH2 0xB19 JUMP JUMPDEST SWAP1 POP SWAP2 SWAP1 POP JUMP JUMPDEST PUSH1 0x0 DUP2 SWAP1 POP SWAP2 SWAP1 POP JUMP JUMPDEST PUSH2 0x13F2 DUP4 PUSH2 0x13BD JUMP JUMPDEST PUSH2 0x1406 PUSH2 0x13FE DUP3 PUSH2 0x13DF JUMP JUMPDEST DUP5 DUP5 SLOAD PUSH2 0x1361 JUMP JUMPDEST DUP3 SSTORE POP POP POP POP JUMP JUMPDEST PUSH1 0x0 SWAP1 JUMP JUMPDEST PUSH2 0x141B PUSH2 0x140E JUMP JUMPDEST PUSH2 0x1426 DUP2 DUP5 DUP5 PUSH2 0x13E9 JUMP JUMPDEST POP POP POP JUMP JUMPDEST JUMPDEST DUP2 DUP2 LT ISZERO PUSH2 0x144A JUMPI PUSH2 0x143F PUSH1 0x0 DUP3 PUSH2 0x1413 JUMP JUMPDEST PUSH1 0x1 DUP2 ADD SWAP1 POP PUSH2 0x142C JUMP JUMPDEST POP POP JUMP JUMPDEST PUSH1 0x1F DUP3 GT ISZERO PUSH2 0x148F JUMPI PUSH2 0x1460 DUP2 PUSH2 0x132F JUMP JUMPDEST PUSH2 0x1469 DUP5 PUSH2 0x1344 JUMP JUMPDEST DUP2 ADD PUSH1 0x20 DUP6 LT ISZERO PUSH2 0x1478 JUMPI DUP2 SWAP1 POP JUMPDEST PUSH2 0x148C PUSH2 0x1484 DUP6 PUSH2 0x1344 JUMP JUMPDEST DUP4 ADD DUP3 PUSH2 0x142B JUMP JUMPDEST POP POP JUMPDEST POP POP POP JUMP JUMPDEST PUSH1 0x0 DUP3 DUP3 SHR SWAP1 POP SWAP3 SWAP2 POP POP JUMP JUMPDEST PUSH1 0x0 PUSH2 0x14B2 PUSH1 0x0 NOT DUP5 PUSH1 0x8 MUL PUSH2 0x1494 JUMP JUMPDEST NOT DUP1 DUP4 AND SWAP2 POP POP SWAP3 SWAP2 POP POP JUMP JUMPDEST PUSH1 0x0 PUSH2 0x14CB DUP4 DUP4 PUSH2 0x14A1 JUMP JUMPDEST SWAP2 POP DUP3 PUSH1 0x2 MUL DUP3 OR SWAP1 POP SWAP3 SWAP2 POP POP JUMP JUMPDEST PUSH2 0x14E4 DUP3 PUSH2 0xC40 JUMP JUMPDEST PUSH8 0xFFFFFFFFFFFFFFFF DUP2 GT ISZERO PUSH2 0x14FD JUMPI PUSH2 0x14FC PUSH2 0xFE5 JUMP JUMPDEST JUMPDEST PUSH2 0x1507 DUP3 SLOAD PUSH2 0x11EC JUMP JUMPDEST PUSH2 0x1512 DUP3 DUP3 DUP6 PUSH2 0x144E JUMP JUMPDEST PUSH1 0x0 PUSH1 0x20 SWAP1 POP PUSH1 0x1F DUP4 GT PUSH1 0x1 DUP2 EQ PUSH2 0x1545 JUMPI PUSH1 0x0 DUP5 ISZERO PUSH2 0x1533 JUMPI DUP3 DUP8 ADD MLOAD SWAP1 POP JUMPDEST PUSH2 0x153D DUP6 DUP3 PUSH2 0x14BF JUMP JUMPDEST DUP7 SSTORE POP PUSH2 0x15A5 JUMP JUMPDEST PUSH1 0x1F NOT DUP5 AND PUSH2 0x1553 DUP7 PUSH2 0x132F JUMP JUMPDEST PUSH1 0x0 JUMPDEST DUP3 DUP2 LT ISZERO PUSH2 0x157B JUMPI DUP5 DUP10 ADD MLOAD DUP3 SSTORE PUSH1 0x1 DUP3 ADD SWAP2 POP PUSH1 0x20 DUP6 ADD SWAP5 POP PUSH1 0x20 DUP2 ADD SWAP1 POP PUSH2 0x1556 JUMP JUMPDEST DUP7 DUP4 LT ISZERO PUSH2 0x1598 JUMPI DUP5 DUP10 ADD MLOAD PUSH2 0x1594 PUSH1 0x1F DUP10 AND DUP3 PUSH2 0x14A1 JUMP JUMPDEST DUP4 SSTORE POP JUMPDEST PUSH1 0x1 PUSH1 0x2 DUP9 MUL ADD DUP9 SSTORE POP POP POP JUMPDEST POP POP POP POP POP POP JUMP INVALID LOG2 PUSH5 0x6970667358 0x22 SLT KECCAK256 0xE0 PREVRANDAO 0xEB 0xC4 0xEE AND 0xDA SWAP16 MULMOD PUSH15 0x13612EBA1516AC9F3CD92E9973A7AA PUSH13 0xA4C8A33DF11064736F6C634300 ADDMOD SLT STOP CALLER "
		},
		"gasEstimates": {
			"creation": {
				"codeDepositCost": "1407200",
				"executionCost": "infinite",
				"totalCost": "infinite"
			},
			"external": {
				"createWorkplace(string,string)": "infinite",
				"getAllDoctors()": "infinite",
				"getAllPatients()": "infinite",
				"getAllWorkplaces()": "infinite",
				"owner()": "2514",
				"registerDoctor(string,string,uint256)": "infinite",
				"registerPatient(string,uint256)": "infinite",
				"workplaces(uint256)": "infinite"
			}
		},
		"methodIdentifiers": {
			"createWorkplace(string,string)": "5ab2ce22",
			"getAllDoctors()": "f0d95090",
			"getAllPatients()": "18a231a9",
			"getAllWorkplaces()": "d92631db",
			"owner()": "8da5cb5b",
			"registerDoctor(string,string,uint256)": "87446b6e",
			"registerPatient(string,uint256)": "2de304ed",
			"workplaces(uint256)": "c38831ae"
		}
	},
	"abi": [
		{
			"inputs": [],
			"stateMutability": "nonpayable",
			"type": "constructor"
		},
		{
			"inputs": [
				{
					"internalType": "string",
					"name": "_name",
					"type": "string"
				},
				{
					"internalType": "string",
					"name": "_workAddress",
					"type": "string"
				}
			],
			"name": "createWorkplace",
			"outputs": [],
			"stateMutability": "nonpayable",
			"type": "function"
		},
		{
			"inputs": [],
			"name": "getAllDoctors",
			"outputs": [
				{
					"components": [
						{
							"internalType": "uint256",
							"name": "id",
							"type": "uint256"
						},
						{
							"internalType": "string",
							"name": "name",
							"type": "string"
						},
						{
							"internalType": "string",
							"name": "qualification",
							"type": "string"
						},
						{
							"internalType": "address",
							"name": "doctor",
							"type": "address"
						},
						{
							"internalType": "uint256",
							"name": "workPlace",
							"type": "uint256"
						}
					],
					"internalType": "struct Doctor.DoctorDetails[]",
					"name": "",
					"type": "tuple[]"
				}
			],
			"stateMutability": "view",
			"type": "function"
		},
		{
			"inputs": [],
			"name": "getAllPatients",
			"outputs": [
				{
					"components": [
						{
							"internalType": "uint256",
							"name": "id",
							"type": "uint256"
						},
						{
							"internalType": "string",
							"name": "name",
							"type": "string"
						},
						{
							"internalType": "uint256",
							"name": "age",
							"type": "uint256"
						},
						{
							"internalType": "address",
							"name": "publicAddress",
							"type": "address"
						},
						{
							"internalType": "string[]",
							"name": "diseases",
							"type": "string[]"
						},
						{
							"internalType": "string[]",
							"name": "medicines",
							"type": "string[]"
						},
						{
							"internalType": "string[]",
							"name": "allowedDoctors",
							"type": "string[]"
						}
					],
					"internalType": "struct Patient.PatientDetails[]",
					"name": "",
					"type": "tuple[]"
				}
			],
			"stateMutability": "view",
			"type": "function"
		},
		{
			"inputs": [],
			"name": "getAllWorkplaces",
			"outputs": [
				{
					"components": [
						{
							"internalType": "string",
							"name": "name",
							"type": "string"
						},
						{
							"internalType": "string",
							"name": "workAddress",
							"type": "string"
						}
					],
					"internalType": "struct Admin.Workplace[]",
					"name": "",
					"type": "tuple[]"
				}
			],
			"stateMutability": "view",
			"type": "function"
		},
		{
			"inputs": [],
			"name": "owner",
			"outputs": [
				{
					"internalType": "address",
					"name": "",
					"type": "address"
				}
			],
			"stateMutability": "view",
			"type": "function"
		},
		{
			"inputs": [
				{
					"internalType": "string",
					"name": "_name",
					"type": "string"
				},
				{
					"internalType": "string",
					"name": "_qualification",
					"type": "string"
				},
				{
					"internalType": "uint256",
					"name": "_workplaceIndex",
					"type": "uint256"
				}
			],
			"name": "registerDoctor",
			"outputs": [],
			"stateMutability": "nonpayable",
			"type": "function"
		},
		{
			"inputs": [
				{
					"internalType": "string",
					"name": "_name",
					"type": "string"
				},
				{
					"internalType": "uint256",
					"name": "_age",
					"type": "uint256"
				}
			],
			"name": "registerPatient",
			"outputs": [],
			"stateMutability": "nonpayable",
			"type": "function"
		},
		{
			"inputs": [
				{
					"internalType": "uint256",
					"name": "",
					"type": "uint256"
				}
			],
			"name": "workplaces",
			"outputs": [
				{
					"internalType": "string",
					"name": "name",
					"type": "string"
				},
				{
					"internalType": "string",
					"name": "workAddress",
					"type": "string"
				}
			],
			"stateMutability": "view",
			"type": "function"
		}
	]
}